{
	"spoilsToken.sol": {
		"SpoilsToken": {
			"abi": [
				{
					"inputs": [
						{
							"internalType": "string",
							"name": "name_",
							"type": "string"
						},
						{
							"internalType": "string",
							"name": "symbol_",
							"type": "string"
						},
						{
							"internalType": "uint256",
							"name": "amount",
							"type": "uint256"
						},
						{
							"internalType": "address",
							"name": "_owner",
							"type": "address"
						}
					],
					"stateMutability": "nonpayable",
					"type": "constructor"
				},
				{
					"inputs": [
						{
							"internalType": "address",
							"name": "owner",
							"type": "address"
						}
					],
					"name": "OwnableInvalidOwner",
					"type": "error"
				},
				{
					"inputs": [
						{
							"internalType": "address",
							"name": "account",
							"type": "address"
						}
					],
					"name": "OwnableUnauthorizedAccount",
					"type": "error"
				},
				{
					"anonymous": false,
					"inputs": [
						{
							"indexed": true,
							"internalType": "address",
							"name": "owner",
							"type": "address"
						},
						{
							"indexed": true,
							"internalType": "address",
							"name": "spender",
							"type": "address"
						},
						{
							"indexed": false,
							"internalType": "uint256",
							"name": "value",
							"type": "uint256"
						}
					],
					"name": "Approval",
					"type": "event"
				},
				{
					"anonymous": false,
					"inputs": [
						{
							"indexed": true,
							"internalType": "address",
							"name": "previousOwner",
							"type": "address"
						},
						{
							"indexed": true,
							"internalType": "address",
							"name": "newOwner",
							"type": "address"
						}
					],
					"name": "OwnershipTransferred",
					"type": "event"
				},
				{
					"anonymous": false,
					"inputs": [
						{
							"indexed": true,
							"internalType": "address",
							"name": "from",
							"type": "address"
						},
						{
							"indexed": true,
							"internalType": "address",
							"name": "to",
							"type": "address"
						},
						{
							"indexed": false,
							"internalType": "uint256",
							"name": "value",
							"type": "uint256"
						}
					],
					"name": "Transfer",
					"type": "event"
				},
				{
					"inputs": [
						{
							"internalType": "address",
							"name": "owner",
							"type": "address"
						},
						{
							"internalType": "address",
							"name": "spender",
							"type": "address"
						}
					],
					"name": "allowance",
					"outputs": [
						{
							"internalType": "uint256",
							"name": "",
							"type": "uint256"
						}
					],
					"stateMutability": "view",
					"type": "function"
				},
				{
					"inputs": [
						{
							"internalType": "address",
							"name": "spender",
							"type": "address"
						},
						{
							"internalType": "uint256",
							"name": "amount",
							"type": "uint256"
						}
					],
					"name": "approve",
					"outputs": [
						{
							"internalType": "bool",
							"name": "",
							"type": "bool"
						}
					],
					"stateMutability": "nonpayable",
					"type": "function"
				},
				{
					"inputs": [
						{
							"internalType": "address",
							"name": "account",
							"type": "address"
						}
					],
					"name": "balanceOf",
					"outputs": [
						{
							"internalType": "uint256",
							"name": "",
							"type": "uint256"
						}
					],
					"stateMutability": "view",
					"type": "function"
				},
				{
					"inputs": [
						{
							"internalType": "address",
							"name": "add",
							"type": "address"
						},
						{
							"internalType": "uint256",
							"name": "amount",
							"type": "uint256"
						}
					],
					"name": "burn",
					"outputs": [],
					"stateMutability": "nonpayable",
					"type": "function"
				},
				{
					"inputs": [],
					"name": "decimals",
					"outputs": [
						{
							"internalType": "uint8",
							"name": "",
							"type": "uint8"
						}
					],
					"stateMutability": "view",
					"type": "function"
				},
				{
					"inputs": [
						{
							"internalType": "address",
							"name": "spender",
							"type": "address"
						},
						{
							"internalType": "uint256",
							"name": "subtractedValue",
							"type": "uint256"
						}
					],
					"name": "decreaseAllowance",
					"outputs": [
						{
							"internalType": "bool",
							"name": "",
							"type": "bool"
						}
					],
					"stateMutability": "nonpayable",
					"type": "function"
				},
				{
					"inputs": [
						{
							"internalType": "address",
							"name": "spender",
							"type": "address"
						},
						{
							"internalType": "uint256",
							"name": "addedValue",
							"type": "uint256"
						}
					],
					"name": "increaseAllowance",
					"outputs": [
						{
							"internalType": "bool",
							"name": "",
							"type": "bool"
						}
					],
					"stateMutability": "nonpayable",
					"type": "function"
				},
				{
					"inputs": [
						{
							"internalType": "address",
							"name": "add",
							"type": "address"
						},
						{
							"internalType": "uint256",
							"name": "amount",
							"type": "uint256"
						}
					],
					"name": "mint",
					"outputs": [],
					"stateMutability": "nonpayable",
					"type": "function"
				},
				{
					"inputs": [],
					"name": "name",
					"outputs": [
						{
							"internalType": "string",
							"name": "",
							"type": "string"
						}
					],
					"stateMutability": "view",
					"type": "function"
				},
				{
					"inputs": [],
					"name": "owner",
					"outputs": [
						{
							"internalType": "address",
							"name": "",
							"type": "address"
						}
					],
					"stateMutability": "view",
					"type": "function"
				},
				{
					"inputs": [],
					"name": "renounceOwnership",
					"outputs": [],
					"stateMutability": "nonpayable",
					"type": "function"
				},
				{
					"inputs": [
						{
							"internalType": "address",
							"name": "add",
							"type": "address"
						}
					],
					"name": "setapprovedcontractaddress",
					"outputs": [],
					"stateMutability": "nonpayable",
					"type": "function"
				},
				{
					"inputs": [],
					"name": "symbol",
					"outputs": [
						{
							"internalType": "string",
							"name": "",
							"type": "string"
						}
					],
					"stateMutability": "view",
					"type": "function"
				},
				{
					"inputs": [],
					"name": "totalSupply",
					"outputs": [
						{
							"internalType": "uint256",
							"name": "",
							"type": "uint256"
						}
					],
					"stateMutability": "view",
					"type": "function"
				},
				{
					"inputs": [
						{
							"internalType": "address",
							"name": "recipient",
							"type": "address"
						},
						{
							"internalType": "uint256",
							"name": "amount",
							"type": "uint256"
						}
					],
					"name": "transfer",
					"outputs": [
						{
							"internalType": "bool",
							"name": "",
							"type": "bool"
						}
					],
					"stateMutability": "nonpayable",
					"type": "function"
				},
				{
					"inputs": [
						{
							"internalType": "address",
							"name": "sender",
							"type": "address"
						},
						{
							"internalType": "address",
							"name": "recipient",
							"type": "address"
						},
						{
							"internalType": "uint256",
							"name": "amount",
							"type": "uint256"
						}
					],
					"name": "transferFrom",
					"outputs": [
						{
							"internalType": "bool",
							"name": "",
							"type": "bool"
						}
					],
					"stateMutability": "nonpayable",
					"type": "function"
				},
				{
					"inputs": [
						{
							"internalType": "address",
							"name": "newOwner",
							"type": "address"
						}
					],
					"name": "transferOwnership",
					"outputs": [],
					"stateMutability": "nonpayable",
					"type": "function"
				}
			],
			"devdoc": {
				"details": "Implementation of the {IERC20} interface. This implementation is agnostic to the way tokens are created. This means that a supply mechanism has to be added in a derived contract using {_mint}. For a generic mechanism see {ERC20PresetMinterPauser}. TIP: For a detailed writeup see our guide https://forum.zeppelin.solutions/t/how-to-implement-erc20-supply-mechanisms/226[How to implement supply mechanisms]. We have followed general OpenZeppelin Contracts guidelines: functions revert instead returning `false` on failure. This behavior is nonetheless conventional and does not conflict with the expectations of ERC20 applications. Additionally, an {Approval} event is emitted on calls to {transferFrom}. This allows applications to reconstruct the allowance for all accounts just by listening to said events. Other implementations of the EIP may not emit these events, as it isn't required by the specification. Finally, the non-standard {decreaseAllowance} and {increaseAllowance} functions have been added to mitigate the well-known issues around setting allowances. See {IERC20-approve}.",
				"errors": {
					"OwnableInvalidOwner(address)": [
						{
							"details": "The owner is not a valid owner account. (eg. `address(0)`)"
						}
					],
					"OwnableUnauthorizedAccount(address)": [
						{
							"details": "The caller account is not authorized to perform an operation."
						}
					]
				},
				"events": {
					"Approval(address,address,uint256)": {
						"details": "Emitted when the allowance of a `spender` for an `owner` is set by a call to {approve}. `value` is the new allowance."
					},
					"Transfer(address,address,uint256)": {
						"details": "Emitted when `value` tokens are moved from one account (`from`) to another (`to`). Note that `value` may be zero."
					}
				},
				"kind": "dev",
				"methods": {
					"allowance(address,address)": {
						"details": "See {IERC20-allowance}."
					},
					"approve(address,uint256)": {
						"details": "See {IERC20-approve}. Requirements: - `spender` cannot be the zero address."
					},
					"balanceOf(address)": {
						"details": "See {IERC20-balanceOf}."
					},
					"constructor": {
						"details": "Sets the values for {name} and {symbol}. The default value of {decimals} is 18. To select a different value for {decimals} you should overload it. All two of these values are immutable: they can only be set once during construction."
					},
					"decimals()": {
						"details": "Returns the number of decimals used to get its user representation. For example, if `decimals` equals `2`, a balance of `505` tokens should be displayed to a user as `5.05` (`505 / 10 ** 2`). Tokens usually opt for a value of 18, imitating the relationship between Ether and Wei. This is the value {ERC20} uses, unless this function is overridden; NOTE: This information is only used for _display_ purposes: it in no way affects any of the arithmetic of the contract, including {IERC20-balanceOf} and {IERC20-transfer}."
					},
					"decreaseAllowance(address,uint256)": {
						"details": "Atomically decreases the allowance granted to `spender` by the caller. This is an alternative to {approve} that can be used as a mitigation for problems described in {IERC20-approve}. Emits an {Approval} event indicating the updated allowance. Requirements: - `spender` cannot be the zero address. - `spender` must have allowance for the caller of at least `subtractedValue`."
					},
					"increaseAllowance(address,uint256)": {
						"details": "Atomically increases the allowance granted to `spender` by the caller. This is an alternative to {approve} that can be used as a mitigation for problems described in {IERC20-approve}. Emits an {Approval} event indicating the updated allowance. Requirements: - `spender` cannot be the zero address."
					},
					"name()": {
						"details": "Returns the name of the token."
					},
					"owner()": {
						"details": "Returns the address of the current owner."
					},
					"renounceOwnership()": {
						"details": "Leaves the contract without owner. It will not be possible to call `onlyOwner` functions. Can only be called by the current owner. NOTE: Renouncing ownership will leave the contract without an owner, thereby disabling any functionality that is only available to the owner."
					},
					"symbol()": {
						"details": "Returns the symbol of the token, usually a shorter version of the name."
					},
					"totalSupply()": {
						"details": "See {IERC20-totalSupply}."
					},
					"transfer(address,uint256)": {
						"details": "See {IERC20-transfer}. Requirements: - `recipient` cannot be the zero address. - the caller must have a balance of at least `amount`."
					},
					"transferFrom(address,address,uint256)": {
						"details": "See {IERC20-transferFrom}. Emits an {Approval} event indicating the updated allowance. This is not required by the EIP. See the note at the beginning of {ERC20}. Requirements: - `sender` and `recipient` cannot be the zero address. - `sender` must have a balance of at least `amount`. - the caller must have allowance for ``sender``'s tokens of at least `amount`."
					},
					"transferOwnership(address)": {
						"details": "Transfers ownership of the contract to a new account (`newOwner`). Can only be called by the current owner."
					}
				},
				"version": 1
			},
			"evm": {
				"assembly": "    /* \"spoilsToken.sol\":1472:12893  contract SpoilsToken is Context, IERC20, IERC20Metadata,Ownable {... */\n  mstore(0x40, 0x80)\n    /* \"spoilsToken.sol\":2139:2336  constructor(string memory name_, string memory symbol_ ,uint amount,address _owner) Ownable(_owner) {... */\n  callvalue\n  dup1\n  iszero\n  tag_1\n  jumpi\n  0x00\n  dup1\n  revert\ntag_1:\n  pop\n  mload(0x40)\n  sub(codesize, bytecodeSize)\n  dup1\n  bytecodeSize\n  dup4\n  codecopy\n  dup2\n  dup2\n  add\n  0x40\n  mstore\n  dup2\n  add\n  swap1\n  tag_2\n  swap2\n  swap1\n  tag_3\n  jump\t// in\ntag_2:\n    /* \"spoilsToken.sol\":2231:2237  _owner */\n  dup1\n    /* \"@openzeppelin/contracts/access/Ownable.sol\":1297:1298  0 */\n  0x00\n    /* \"@openzeppelin/contracts/access/Ownable.sol\":1273:1299  initialOwner == address(0) */\n  0xffffffffffffffffffffffffffffffffffffffff\n  and\n    /* \"@openzeppelin/contracts/access/Ownable.sol\":1273:1285  initialOwner */\n  dup2\n    /* \"@openzeppelin/contracts/access/Ownable.sol\":1273:1299  initialOwner == address(0) */\n  0xffffffffffffffffffffffffffffffffffffffff\n  and\n  sub\n    /* \"@openzeppelin/contracts/access/Ownable.sol\":1269:1364  if (initialOwner == address(0)) {... */\n  tag_7\n  jumpi\n    /* \"@openzeppelin/contracts/access/Ownable.sol\":1350:1351  0 */\n  0x00\n    /* \"@openzeppelin/contracts/access/Ownable.sol\":1322:1353  OwnableInvalidOwner(address(0)) */\n  mload(0x40)\n  0x1e4fbdf700000000000000000000000000000000000000000000000000000000\n  dup2\n  mstore\n  0x04\n  add\n  tag_8\n  swap2\n  swap1\n  tag_9\n  jump\t// in\ntag_8:\n  mload(0x40)\n  dup1\n  swap2\n  sub\n  swap1\n  revert\n    /* \"@openzeppelin/contracts/access/Ownable.sol\":1269:1364  if (initialOwner == address(0)) {... */\ntag_7:\n    /* \"@openzeppelin/contracts/access/Ownable.sol\":1373:1405  _transferOwnership(initialOwner) */\n  tag_10\n    /* \"@openzeppelin/contracts/access/Ownable.sol\":1392:1404  initialOwner */\n  dup2\n    /* \"@openzeppelin/contracts/access/Ownable.sol\":1373:1391  _transferOwnership */\n  shl(0x20, tag_11)\n    /* \"@openzeppelin/contracts/access/Ownable.sol\":1373:1405  _transferOwnership(initialOwner) */\n  0x20\n  shr\n  jump\t// in\ntag_10:\n    /* \"@openzeppelin/contracts/access/Ownable.sol\":1225:1412  constructor(address initialOwner) {... */\n  pop\n    /* \"spoilsToken.sol\":2258:2263  name_ */\n  dup4\n    /* \"spoilsToken.sol\":2250:2255  _name */\n  0x04\n    /* \"spoilsToken.sol\":2250:2263  _name = name_ */\n  swap1\n  dup2\n  tag_13\n  swap2\n  swap1\n  tag_14\n  jump\t// in\ntag_13:\n  pop\n    /* \"spoilsToken.sol\":2284:2291  symbol_ */\n  dup3\n    /* \"spoilsToken.sol\":2274:2281  _symbol */\n  0x05\n    /* \"spoilsToken.sol\":2274:2291  _symbol = symbol_ */\n  swap1\n  dup2\n  tag_15\n  swap2\n  swap1\n  tag_14\n  jump\t// in\ntag_15:\n  pop\n    /* \"spoilsToken.sol\":2302:2326  _mint(msg.sender,amount) */\n  tag_16\n    /* \"spoilsToken.sol\":2308:2318  msg.sender */\n  caller\n    /* \"spoilsToken.sol\":2319:2325  amount */\n  dup4\n    /* \"spoilsToken.sol\":2302:2307  _mint */\n  shl(0x20, tag_17)\n    /* \"spoilsToken.sol\":2302:2326  _mint(msg.sender,amount) */\n  0x20\n  shr\n  jump\t// in\ntag_16:\n    /* \"spoilsToken.sol\":2139:2336  constructor(string memory name_, string memory symbol_ ,uint amount,address _owner) Ownable(_owner) {... */\n  pop\n  pop\n  pop\n  pop\n    /* \"spoilsToken.sol\":1472:12893  contract SpoilsToken is Context, IERC20, IERC20Metadata,Ownable {... */\n  jump(tag_18)\n    /* \"@openzeppelin/contracts/access/Ownable.sol\":2912:3099  function _transferOwnership(address newOwner) internal virtual {... */\ntag_11:\n    /* \"@openzeppelin/contracts/access/Ownable.sol\":2985:3001  address oldOwner */\n  0x00\n    /* \"@openzeppelin/contracts/access/Ownable.sol\":3004:3010  _owner */\n  dup1\n  0x00\n  swap1\n  sload\n  swap1\n  0x0100\n  exp\n  swap1\n  div\n  0xffffffffffffffffffffffffffffffffffffffff\n  and\n    /* \"@openzeppelin/contracts/access/Ownable.sol\":2985:3010  address oldOwner = _owner */\n  swap1\n  pop\n    /* \"@openzeppelin/contracts/access/Ownable.sol\":3029:3037  newOwner */\n  dup2\n    /* \"@openzeppelin/contracts/access/Ownable.sol\":3020:3026  _owner */\n  0x00\n  dup1\n    /* \"@openzeppelin/contracts/access/Ownable.sol\":3020:3037  _owner = newOwner */\n  0x0100\n  exp\n  dup2\n  sload\n  dup2\n  0xffffffffffffffffffffffffffffffffffffffff\n  mul\n  not\n  and\n  swap1\n  dup4\n  0xffffffffffffffffffffffffffffffffffffffff\n  and\n  mul\n  or\n  swap1\n  sstore\n  pop\n    /* \"@openzeppelin/contracts/access/Ownable.sol\":3083:3091  newOwner */\n  dup2\n    /* \"@openzeppelin/contracts/access/Ownable.sol\":3052:3092  OwnershipTransferred(oldOwner, newOwner) */\n  0xffffffffffffffffffffffffffffffffffffffff\n  and\n    /* \"@openzeppelin/contracts/access/Ownable.sol\":3073:3081  oldOwner */\n  dup2\n    /* \"@openzeppelin/contracts/access/Ownable.sol\":3052:3092  OwnershipTransferred(oldOwner, newOwner) */\n  0xffffffffffffffffffffffffffffffffffffffff\n  and\n  0x8be0079c531659141344cd1fd0a4f28419497f9722a3daafe3b4186f6b6457e0\n  mload(0x40)\n  mload(0x40)\n  dup1\n  swap2\n  sub\n  swap1\n  log3\n    /* \"@openzeppelin/contracts/access/Ownable.sol\":2975:3099  {... */\n  pop\n    /* \"@openzeppelin/contracts/access/Ownable.sol\":2912:3099  function _transferOwnership(address newOwner) internal virtual {... */\n  pop\n  jump\t// out\n    /* \"spoilsToken.sol\":9106:9505  function _mint(address account, uint256 amount) internal virtual {... */\ntag_17:\n    /* \"spoilsToken.sol\":9209:9210  0 */\n  0x00\n    /* \"spoilsToken.sol\":9190:9211  account != address(0) */\n  0xffffffffffffffffffffffffffffffffffffffff\n  and\n    /* \"spoilsToken.sol\":9190:9197  account */\n  dup3\n    /* \"spoilsToken.sol\":9190:9211  account != address(0) */\n  0xffffffffffffffffffffffffffffffffffffffff\n  and\n  sub\n    /* \"spoilsToken.sol\":9182:9247  require(account != address(0), \"ERC20: mint to the zero address\") */\n  tag_21\n  jumpi\n  mload(0x40)\n  0x08c379a000000000000000000000000000000000000000000000000000000000\n  dup2\n  mstore\n  0x04\n  add\n  tag_22\n  swap1\n  tag_23\n  jump\t// in\ntag_22:\n  mload(0x40)\n  dup1\n  swap2\n  sub\n  swap1\n  revert\ntag_21:\n    /* \"spoilsToken.sol\":9260:9309  _beforeTokenTransfer(address(0), account, amount) */\n  tag_24\n    /* \"spoilsToken.sol\":9289:9290  0 */\n  0x00\n    /* \"spoilsToken.sol\":9293:9300  account */\n  dup4\n    /* \"spoilsToken.sol\":9302:9308  amount */\n  dup4\n    /* \"spoilsToken.sol\":9260:9280  _beforeTokenTransfer */\n  shl(0x20, tag_25)\n    /* \"spoilsToken.sol\":9260:9309  _beforeTokenTransfer(address(0), account, amount) */\n  0x20\n  shr\n  jump\t// in\ntag_24:\n    /* \"spoilsToken.sol\":9338:9344  amount */\n  dup1\n    /* \"spoilsToken.sol\":9322:9334  _totalSupply */\n  0x03\n  0x00\n    /* \"spoilsToken.sol\":9322:9344  _totalSupply += amount */\n  dup3\n  dup3\n  sload\n  tag_26\n  swap2\n  swap1\n  tag_27\n  jump\t// in\ntag_26:\n  swap3\n  pop\n  pop\n  dup2\n  swap1\n  sstore\n  pop\n    /* \"spoilsToken.sol\":9377:9383  amount */\n  dup1\n    /* \"spoilsToken.sol\":9355:9364  _balances */\n  0x01\n    /* \"spoilsToken.sol\":9355:9373  _balances[account] */\n  0x00\n    /* \"spoilsToken.sol\":9365:9372  account */\n  dup5\n    /* \"spoilsToken.sol\":9355:9373  _balances[account] */\n  0xffffffffffffffffffffffffffffffffffffffff\n  and\n  0xffffffffffffffffffffffffffffffffffffffff\n  and\n  dup2\n  mstore\n  0x20\n  add\n  swap1\n  dup2\n  mstore\n  0x20\n  add\n  0x00\n  keccak256\n  0x00\n    /* \"spoilsToken.sol\":9355:9383  _balances[account] += amount */\n  dup3\n  dup3\n  sload\n  tag_28\n  swap2\n  swap1\n  tag_27\n  jump\t// in\ntag_28:\n  swap3\n  pop\n  pop\n  dup2\n  swap1\n  sstore\n  pop\n    /* \"spoilsToken.sol\":9420:9427  account */\n  dup2\n    /* \"spoilsToken.sol\":9399:9436  Transfer(address(0), account, amount) */\n  0xffffffffffffffffffffffffffffffffffffffff\n  and\n    /* \"spoilsToken.sol\":9416:9417  0 */\n  0x00\n    /* \"spoilsToken.sol\":9399:9436  Transfer(address(0), account, amount) */\n  0xffffffffffffffffffffffffffffffffffffffff\n  and\n  0xddf252ad1be2c89b69c2b068fc378daa952ba7f163c4a11628f55a4df523b3ef\n    /* \"spoilsToken.sol\":9429:9435  amount */\n  dup4\n    /* \"spoilsToken.sol\":9399:9436  Transfer(address(0), account, amount) */\n  mload(0x40)\n  tag_29\n  swap2\n  swap1\n  tag_30\n  jump\t// in\ntag_29:\n  mload(0x40)\n  dup1\n  swap2\n  sub\n  swap1\n  log3\n    /* \"spoilsToken.sol\":9449:9497  _afterTokenTransfer(address(0), account, amount) */\n  tag_31\n    /* \"spoilsToken.sol\":9477:9478  0 */\n  0x00\n    /* \"spoilsToken.sol\":9481:9488  account */\n  dup4\n    /* \"spoilsToken.sol\":9490:9496  amount */\n  dup4\n    /* \"spoilsToken.sol\":9449:9468  _afterTokenTransfer */\n  shl(0x20, tag_32)\n    /* \"spoilsToken.sol\":9449:9497  _afterTokenTransfer(address(0), account, amount) */\n  0x20\n  shr\n  jump\t// in\ntag_31:\n    /* \"spoilsToken.sol\":9106:9505  function _mint(address account, uint256 amount) internal virtual {... */\n  pop\n  pop\n  jump\t// out\n    /* \"spoilsToken.sol\":12037:12162  function _beforeTokenTransfer(... */\ntag_25:\n  pop\n  pop\n  pop\n  jump\t// out\n    /* \"spoilsToken.sol\":12766:12890  function _afterTokenTransfer(... */\ntag_32:\n  pop\n  pop\n  pop\n  jump\t// out\n    /* \"#utility.yul\":7:82   */\ntag_35:\n    /* \"#utility.yul\":40:46   */\n  0x00\n    /* \"#utility.yul\":73:75   */\n  0x40\n    /* \"#utility.yul\":67:76   */\n  mload\n    /* \"#utility.yul\":57:76   */\n  swap1\n  pop\n    /* \"#utility.yul\":7:82   */\n  swap1\n  jump\t// out\n    /* \"#utility.yul\":88:205   */\ntag_36:\n    /* \"#utility.yul\":197:198   */\n  0x00\n    /* \"#utility.yul\":194:195   */\n  dup1\n    /* \"#utility.yul\":187:199   */\n  revert\n    /* \"#utility.yul\":211:328   */\ntag_37:\n    /* \"#utility.yul\":320:321   */\n  0x00\n    /* \"#utility.yul\":317:318   */\n  dup1\n    /* \"#utility.yul\":310:322   */\n  revert\n    /* \"#utility.yul\":334:451   */\ntag_38:\n    /* \"#utility.yul\":443:444   */\n  0x00\n    /* \"#utility.yul\":440:441   */\n  dup1\n    /* \"#utility.yul\":433:445   */\n  revert\n    /* \"#utility.yul\":457:574   */\ntag_39:\n    /* \"#utility.yul\":566:567   */\n  0x00\n    /* \"#utility.yul\":563:564   */\n  dup1\n    /* \"#utility.yul\":556:568   */\n  revert\n    /* \"#utility.yul\":580:682   */\ntag_40:\n    /* \"#utility.yul\":621:627   */\n  0x00\n    /* \"#utility.yul\":672:674   */\n  0x1f\n    /* \"#utility.yul\":668:675   */\n  not\n    /* \"#utility.yul\":663:665   */\n  0x1f\n    /* \"#utility.yul\":656:661   */\n  dup4\n    /* \"#utility.yul\":652:666   */\n  add\n    /* \"#utility.yul\":648:676   */\n  and\n    /* \"#utility.yul\":638:676   */\n  swap1\n  pop\n    /* \"#utility.yul\":580:682   */\n  swap2\n  swap1\n  pop\n  jump\t// out\n    /* \"#utility.yul\":688:868   */\ntag_41:\n    /* \"#utility.yul\":736:813   */\n  0x4e487b7100000000000000000000000000000000000000000000000000000000\n    /* \"#utility.yul\":733:734   */\n  0x00\n    /* \"#utility.yul\":726:814   */\n  mstore\n    /* \"#utility.yul\":833:837   */\n  0x41\n    /* \"#utility.yul\":830:831   */\n  0x04\n    /* \"#utility.yul\":823:838   */\n  mstore\n    /* \"#utility.yul\":857:861   */\n  0x24\n    /* \"#utility.yul\":854:855   */\n  0x00\n    /* \"#utility.yul\":847:862   */\n  revert\n    /* \"#utility.yul\":874:1155   */\ntag_42:\n    /* \"#utility.yul\":957:984   */\n  tag_88\n    /* \"#utility.yul\":979:983   */\n  dup3\n    /* \"#utility.yul\":957:984   */\n  tag_40\n  jump\t// in\ntag_88:\n    /* \"#utility.yul\":949:955   */\n  dup2\n    /* \"#utility.yul\":945:985   */\n  add\n    /* \"#utility.yul\":1087:1093   */\n  dup2\n    /* \"#utility.yul\":1075:1085   */\n  dup2\n    /* \"#utility.yul\":1072:1094   */\n  lt\n    /* \"#utility.yul\":1051:1069   */\n  0xffffffffffffffff\n    /* \"#utility.yul\":1039:1049   */\n  dup3\n    /* \"#utility.yul\":1036:1070   */\n  gt\n    /* \"#utility.yul\":1033:1095   */\n  or\n    /* \"#utility.yul\":1030:1118   */\n  iszero\n  tag_89\n  jumpi\n    /* \"#utility.yul\":1098:1116   */\n  tag_90\n  tag_41\n  jump\t// in\ntag_90:\n    /* \"#utility.yul\":1030:1118   */\ntag_89:\n    /* \"#utility.yul\":1138:1148   */\n  dup1\n    /* \"#utility.yul\":1134:1136   */\n  0x40\n    /* \"#utility.yul\":1127:1149   */\n  mstore\n    /* \"#utility.yul\":917:1155   */\n  pop\n    /* \"#utility.yul\":874:1155   */\n  pop\n  pop\n  jump\t// out\n    /* \"#utility.yul\":1161:1290   */\ntag_43:\n    /* \"#utility.yul\":1195:1201   */\n  0x00\n    /* \"#utility.yul\":1222:1242   */\n  tag_92\n  tag_35\n  jump\t// in\ntag_92:\n    /* \"#utility.yul\":1212:1242   */\n  swap1\n  pop\n    /* \"#utility.yul\":1251:1284   */\n  tag_93\n    /* \"#utility.yul\":1279:1283   */\n  dup3\n    /* \"#utility.yul\":1271:1277   */\n  dup3\n    /* \"#utility.yul\":1251:1284   */\n  tag_42\n  jump\t// in\ntag_93:\n    /* \"#utility.yul\":1161:1290   */\n  swap2\n  swap1\n  pop\n  jump\t// out\n    /* \"#utility.yul\":1296:1604   */\ntag_44:\n    /* \"#utility.yul\":1358:1362   */\n  0x00\n    /* \"#utility.yul\":1448:1466   */\n  0xffffffffffffffff\n    /* \"#utility.yul\":1440:1446   */\n  dup3\n    /* \"#utility.yul\":1437:1467   */\n  gt\n    /* \"#utility.yul\":1434:1490   */\n  iszero\n  tag_95\n  jumpi\n    /* \"#utility.yul\":1470:1488   */\n  tag_96\n  tag_41\n  jump\t// in\ntag_96:\n    /* \"#utility.yul\":1434:1490   */\ntag_95:\n    /* \"#utility.yul\":1508:1537   */\n  tag_97\n    /* \"#utility.yul\":1530:1536   */\n  dup3\n    /* \"#utility.yul\":1508:1537   */\n  tag_40\n  jump\t// in\ntag_97:\n    /* \"#utility.yul\":1500:1537   */\n  swap1\n  pop\n    /* \"#utility.yul\":1592:1596   */\n  0x20\n    /* \"#utility.yul\":1586:1590   */\n  dup2\n    /* \"#utility.yul\":1582:1597   */\n  add\n    /* \"#utility.yul\":1574:1597   */\n  swap1\n  pop\n    /* \"#utility.yul\":1296:1604   */\n  swap2\n  swap1\n  pop\n  jump\t// out\n    /* \"#utility.yul\":1610:1856   */\ntag_45:\n    /* \"#utility.yul\":1691:1692   */\n  0x00\n    /* \"#utility.yul\":1701:1814   */\ntag_99:\n    /* \"#utility.yul\":1715:1721   */\n  dup4\n    /* \"#utility.yul\":1712:1713   */\n  dup2\n    /* \"#utility.yul\":1709:1722   */\n  lt\n    /* \"#utility.yul\":1701:1814   */\n  iszero\n  tag_101\n  jumpi\n    /* \"#utility.yul\":1800:1801   */\n  dup1\n    /* \"#utility.yul\":1795:1798   */\n  dup3\n    /* \"#utility.yul\":1791:1802   */\n  add\n    /* \"#utility.yul\":1785:1803   */\n  mload\n    /* \"#utility.yul\":1781:1782   */\n  dup2\n    /* \"#utility.yul\":1776:1779   */\n  dup5\n    /* \"#utility.yul\":1772:1783   */\n  add\n    /* \"#utility.yul\":1765:1804   */\n  mstore\n    /* \"#utility.yul\":1737:1739   */\n  0x20\n    /* \"#utility.yul\":1734:1735   */\n  dup2\n    /* \"#utility.yul\":1730:1740   */\n  add\n    /* \"#utility.yul\":1725:1740   */\n  swap1\n  pop\n    /* \"#utility.yul\":1701:1814   */\n  jump(tag_99)\ntag_101:\n    /* \"#utility.yul\":1848:1849   */\n  0x00\n    /* \"#utility.yul\":1839:1845   */\n  dup5\n    /* \"#utility.yul\":1834:1837   */\n  dup5\n    /* \"#utility.yul\":1830:1846   */\n  add\n    /* \"#utility.yul\":1823:1850   */\n  mstore\n    /* \"#utility.yul\":1672:1856   */\n  pop\n    /* \"#utility.yul\":1610:1856   */\n  pop\n  pop\n  pop\n  jump\t// out\n    /* \"#utility.yul\":1862:2296   */\ntag_46:\n    /* \"#utility.yul\":1951:1956   */\n  0x00\n    /* \"#utility.yul\":1976:2042   */\n  tag_103\n    /* \"#utility.yul\":1992:2041   */\n  tag_104\n    /* \"#utility.yul\":2034:2040   */\n  dup5\n    /* \"#utility.yul\":1992:2041   */\n  tag_44\n  jump\t// in\ntag_104:\n    /* \"#utility.yul\":1976:2042   */\n  tag_43\n  jump\t// in\ntag_103:\n    /* \"#utility.yul\":1967:2042   */\n  swap1\n  pop\n    /* \"#utility.yul\":2065:2071   */\n  dup3\n    /* \"#utility.yul\":2058:2063   */\n  dup2\n    /* \"#utility.yul\":2051:2072   */\n  mstore\n    /* \"#utility.yul\":2103:2107   */\n  0x20\n    /* \"#utility.yul\":2096:2101   */\n  dup2\n    /* \"#utility.yul\":2092:2108   */\n  add\n    /* \"#utility.yul\":2141:2144   */\n  dup5\n    /* \"#utility.yul\":2132:2138   */\n  dup5\n    /* \"#utility.yul\":2127:2130   */\n  dup5\n    /* \"#utility.yul\":2123:2139   */\n  add\n    /* \"#utility.yul\":2120:2145   */\n  gt\n    /* \"#utility.yul\":2117:2229   */\n  iszero\n  tag_105\n  jumpi\n    /* \"#utility.yul\":2148:2227   */\n  tag_106\n  tag_39\n  jump\t// in\ntag_106:\n    /* \"#utility.yul\":2117:2229   */\ntag_105:\n    /* \"#utility.yul\":2238:2290   */\n  tag_107\n    /* \"#utility.yul\":2283:2289   */\n  dup5\n    /* \"#utility.yul\":2278:2281   */\n  dup3\n    /* \"#utility.yul\":2273:2276   */\n  dup6\n    /* \"#utility.yul\":2238:2290   */\n  tag_45\n  jump\t// in\ntag_107:\n    /* \"#utility.yul\":1957:2296   */\n  pop\n    /* \"#utility.yul\":1862:2296   */\n  swap4\n  swap3\n  pop\n  pop\n  pop\n  jump\t// out\n    /* \"#utility.yul\":2316:2671   */\ntag_47:\n    /* \"#utility.yul\":2383:2388   */\n  0x00\n    /* \"#utility.yul\":2432:2435   */\n  dup3\n    /* \"#utility.yul\":2425:2429   */\n  0x1f\n    /* \"#utility.yul\":2417:2423   */\n  dup4\n    /* \"#utility.yul\":2413:2430   */\n  add\n    /* \"#utility.yul\":2409:2436   */\n  slt\n    /* \"#utility.yul\":2399:2521   */\n  tag_109\n  jumpi\n    /* \"#utility.yul\":2440:2519   */\n  tag_110\n  tag_38\n  jump\t// in\ntag_110:\n    /* \"#utility.yul\":2399:2521   */\ntag_109:\n    /* \"#utility.yul\":2550:2556   */\n  dup2\n    /* \"#utility.yul\":2544:2557   */\n  mload\n    /* \"#utility.yul\":2575:2665   */\n  tag_111\n    /* \"#utility.yul\":2661:2664   */\n  dup5\n    /* \"#utility.yul\":2653:2659   */\n  dup3\n    /* \"#utility.yul\":2646:2650   */\n  0x20\n    /* \"#utility.yul\":2638:2644   */\n  dup7\n    /* \"#utility.yul\":2634:2651   */\n  add\n    /* \"#utility.yul\":2575:2665   */\n  tag_46\n  jump\t// in\ntag_111:\n    /* \"#utility.yul\":2566:2665   */\n  swap2\n  pop\n    /* \"#utility.yul\":2389:2671   */\n  pop\n    /* \"#utility.yul\":2316:2671   */\n  swap3\n  swap2\n  pop\n  pop\n  jump\t// out\n    /* \"#utility.yul\":2677:2754   */\ntag_48:\n    /* \"#utility.yul\":2714:2721   */\n  0x00\n    /* \"#utility.yul\":2743:2748   */\n  dup2\n    /* \"#utility.yul\":2732:2748   */\n  swap1\n  pop\n    /* \"#utility.yul\":2677:2754   */\n  swap2\n  swap1\n  pop\n  jump\t// out\n    /* \"#utility.yul\":2760:2882   */\ntag_49:\n    /* \"#utility.yul\":2833:2857   */\n  tag_114\n    /* \"#utility.yul\":2851:2856   */\n  dup2\n    /* \"#utility.yul\":2833:2857   */\n  tag_48\n  jump\t// in\ntag_114:\n    /* \"#utility.yul\":2826:2831   */\n  dup2\n    /* \"#utility.yul\":2823:2858   */\n  eq\n    /* \"#utility.yul\":2813:2876   */\n  tag_115\n  jumpi\n    /* \"#utility.yul\":2872:2873   */\n  0x00\n    /* \"#utility.yul\":2869:2870   */\n  dup1\n    /* \"#utility.yul\":2862:2874   */\n  revert\n    /* \"#utility.yul\":2813:2876   */\ntag_115:\n    /* \"#utility.yul\":2760:2882   */\n  pop\n  jump\t// out\n    /* \"#utility.yul\":2888:3031   */\ntag_50:\n    /* \"#utility.yul\":2945:2950   */\n  0x00\n    /* \"#utility.yul\":2976:2982   */\n  dup2\n    /* \"#utility.yul\":2970:2983   */\n  mload\n    /* \"#utility.yul\":2961:2983   */\n  swap1\n  pop\n    /* \"#utility.yul\":2992:3025   */\n  tag_117\n    /* \"#utility.yul\":3019:3024   */\n  dup2\n    /* \"#utility.yul\":2992:3025   */\n  tag_49\n  jump\t// in\ntag_117:\n    /* \"#utility.yul\":2888:3031   */\n  swap3\n  swap2\n  pop\n  pop\n  jump\t// out\n    /* \"#utility.yul\":3037:3163   */\ntag_51:\n    /* \"#utility.yul\":3074:3081   */\n  0x00\n    /* \"#utility.yul\":3114:3156   */\n  0xffffffffffffffffffffffffffffffffffffffff\n    /* \"#utility.yul\":3107:3112   */\n  dup3\n    /* \"#utility.yul\":3103:3157   */\n  and\n    /* \"#utility.yul\":3092:3157   */\n  swap1\n  pop\n    /* \"#utility.yul\":3037:3163   */\n  swap2\n  swap1\n  pop\n  jump\t// out\n    /* \"#utility.yul\":3169:3265   */\ntag_52:\n    /* \"#utility.yul\":3206:3213   */\n  0x00\n    /* \"#utility.yul\":3235:3259   */\n  tag_120\n    /* \"#utility.yul\":3253:3258   */\n  dup3\n    /* \"#utility.yul\":3235:3259   */\n  tag_51\n  jump\t// in\ntag_120:\n    /* \"#utility.yul\":3224:3259   */\n  swap1\n  pop\n    /* \"#utility.yul\":3169:3265   */\n  swap2\n  swap1\n  pop\n  jump\t// out\n    /* \"#utility.yul\":3271:3393   */\ntag_53:\n    /* \"#utility.yul\":3344:3368   */\n  tag_122\n    /* \"#utility.yul\":3362:3367   */\n  dup2\n    /* \"#utility.yul\":3344:3368   */\n  tag_52\n  jump\t// in\ntag_122:\n    /* \"#utility.yul\":3337:3342   */\n  dup2\n    /* \"#utility.yul\":3334:3369   */\n  eq\n    /* \"#utility.yul\":3324:3387   */\n  tag_123\n  jumpi\n    /* \"#utility.yul\":3383:3384   */\n  0x00\n    /* \"#utility.yul\":3380:3381   */\n  dup1\n    /* \"#utility.yul\":3373:3385   */\n  revert\n    /* \"#utility.yul\":3324:3387   */\ntag_123:\n    /* \"#utility.yul\":3271:3393   */\n  pop\n  jump\t// out\n    /* \"#utility.yul\":3399:3542   */\ntag_54:\n    /* \"#utility.yul\":3456:3461   */\n  0x00\n    /* \"#utility.yul\":3487:3493   */\n  dup2\n    /* \"#utility.yul\":3481:3494   */\n  mload\n    /* \"#utility.yul\":3472:3494   */\n  swap1\n  pop\n    /* \"#utility.yul\":3503:3536   */\n  tag_125\n    /* \"#utility.yul\":3530:3535   */\n  dup2\n    /* \"#utility.yul\":3503:3536   */\n  tag_53\n  jump\t// in\ntag_125:\n    /* \"#utility.yul\":3399:3542   */\n  swap3\n  swap2\n  pop\n  pop\n  jump\t// out\n    /* \"#utility.yul\":3548:4714   */\ntag_3:\n    /* \"#utility.yul\":3665:3671   */\n  0x00\n    /* \"#utility.yul\":3673:3679   */\n  dup1\n    /* \"#utility.yul\":3681:3687   */\n  0x00\n    /* \"#utility.yul\":3689:3695   */\n  dup1\n    /* \"#utility.yul\":3738:3741   */\n  0x80\n    /* \"#utility.yul\":3726:3735   */\n  dup6\n    /* \"#utility.yul\":3717:3724   */\n  dup8\n    /* \"#utility.yul\":3713:3736   */\n  sub\n    /* \"#utility.yul\":3709:3742   */\n  slt\n    /* \"#utility.yul\":3706:3826   */\n  iszero\n  tag_127\n  jumpi\n    /* \"#utility.yul\":3745:3824   */\n  tag_128\n  tag_36\n  jump\t// in\ntag_128:\n    /* \"#utility.yul\":3706:3826   */\ntag_127:\n    /* \"#utility.yul\":3886:3887   */\n  0x00\n    /* \"#utility.yul\":3875:3884   */\n  dup6\n    /* \"#utility.yul\":3871:3888   */\n  add\n    /* \"#utility.yul\":3865:3889   */\n  mload\n    /* \"#utility.yul\":3916:3934   */\n  0xffffffffffffffff\n    /* \"#utility.yul\":3908:3914   */\n  dup2\n    /* \"#utility.yul\":3905:3935   */\n  gt\n    /* \"#utility.yul\":3902:4019   */\n  iszero\n  tag_129\n  jumpi\n    /* \"#utility.yul\":3938:4017   */\n  tag_130\n  tag_37\n  jump\t// in\ntag_130:\n    /* \"#utility.yul\":3902:4019   */\ntag_129:\n    /* \"#utility.yul\":4043:4117   */\n  tag_131\n    /* \"#utility.yul\":4109:4116   */\n  dup8\n    /* \"#utility.yul\":4100:4106   */\n  dup3\n    /* \"#utility.yul\":4089:4098   */\n  dup9\n    /* \"#utility.yul\":4085:4107   */\n  add\n    /* \"#utility.yul\":4043:4117   */\n  tag_47\n  jump\t// in\ntag_131:\n    /* \"#utility.yul\":4033:4117   */\n  swap5\n  pop\n    /* \"#utility.yul\":3836:4127   */\n  pop\n    /* \"#utility.yul\":4187:4189   */\n  0x20\n    /* \"#utility.yul\":4176:4185   */\n  dup6\n    /* \"#utility.yul\":4172:4190   */\n  add\n    /* \"#utility.yul\":4166:4191   */\n  mload\n    /* \"#utility.yul\":4218:4236   */\n  0xffffffffffffffff\n    /* \"#utility.yul\":4210:4216   */\n  dup2\n    /* \"#utility.yul\":4207:4237   */\n  gt\n    /* \"#utility.yul\":4204:4321   */\n  iszero\n  tag_132\n  jumpi\n    /* \"#utility.yul\":4240:4319   */\n  tag_133\n  tag_37\n  jump\t// in\ntag_133:\n    /* \"#utility.yul\":4204:4321   */\ntag_132:\n    /* \"#utility.yul\":4345:4419   */\n  tag_134\n    /* \"#utility.yul\":4411:4418   */\n  dup8\n    /* \"#utility.yul\":4402:4408   */\n  dup3\n    /* \"#utility.yul\":4391:4400   */\n  dup9\n    /* \"#utility.yul\":4387:4409   */\n  add\n    /* \"#utility.yul\":4345:4419   */\n  tag_47\n  jump\t// in\ntag_134:\n    /* \"#utility.yul\":4335:4419   */\n  swap4\n  pop\n    /* \"#utility.yul\":4137:4429   */\n  pop\n    /* \"#utility.yul\":4468:4470   */\n  0x40\n    /* \"#utility.yul\":4494:4558   */\n  tag_135\n    /* \"#utility.yul\":4550:4557   */\n  dup8\n    /* \"#utility.yul\":4541:4547   */\n  dup3\n    /* \"#utility.yul\":4530:4539   */\n  dup9\n    /* \"#utility.yul\":4526:4548   */\n  add\n    /* \"#utility.yul\":4494:4558   */\n  tag_50\n  jump\t// in\ntag_135:\n    /* \"#utility.yul\":4484:4558   */\n  swap3\n  pop\n    /* \"#utility.yul\":4439:4568   */\n  pop\n    /* \"#utility.yul\":4607:4609   */\n  0x60\n    /* \"#utility.yul\":4633:4697   */\n  tag_136\n    /* \"#utility.yul\":4689:4696   */\n  dup8\n    /* \"#utility.yul\":4680:4686   */\n  dup3\n    /* \"#utility.yul\":4669:4678   */\n  dup9\n    /* \"#utility.yul\":4665:4687   */\n  add\n    /* \"#utility.yul\":4633:4697   */\n  tag_54\n  jump\t// in\ntag_136:\n    /* \"#utility.yul\":4623:4697   */\n  swap2\n  pop\n    /* \"#utility.yul\":4578:4707   */\n  pop\n    /* \"#utility.yul\":3548:4714   */\n  swap3\n  swap6\n  swap2\n  swap5\n  pop\n  swap3\n  pop\n  jump\t// out\n    /* \"#utility.yul\":4720:4838   */\ntag_55:\n    /* \"#utility.yul\":4807:4831   */\n  tag_138\n    /* \"#utility.yul\":4825:4830   */\n  dup2\n    /* \"#utility.yul\":4807:4831   */\n  tag_52\n  jump\t// in\ntag_138:\n    /* \"#utility.yul\":4802:4805   */\n  dup3\n    /* \"#utility.yul\":4795:4832   */\n  mstore\n    /* \"#utility.yul\":4720:4838   */\n  pop\n  pop\n  jump\t// out\n    /* \"#utility.yul\":4844:5066   */\ntag_9:\n    /* \"#utility.yul\":4937:4941   */\n  0x00\n    /* \"#utility.yul\":4975:4977   */\n  0x20\n    /* \"#utility.yul\":4964:4973   */\n  dup3\n    /* \"#utility.yul\":4960:4978   */\n  add\n    /* \"#utility.yul\":4952:4978   */\n  swap1\n  pop\n    /* \"#utility.yul\":4988:5059   */\n  tag_140\n    /* \"#utility.yul\":5056:5057   */\n  0x00\n    /* \"#utility.yul\":5045:5054   */\n  dup4\n    /* \"#utility.yul\":5041:5058   */\n  add\n    /* \"#utility.yul\":5032:5038   */\n  dup5\n    /* \"#utility.yul\":4988:5059   */\n  tag_55\n  jump\t// in\ntag_140:\n    /* \"#utility.yul\":4844:5066   */\n  swap3\n  swap2\n  pop\n  pop\n  jump\t// out\n    /* \"#utility.yul\":5072:5171   */\ntag_56:\n    /* \"#utility.yul\":5124:5130   */\n  0x00\n    /* \"#utility.yul\":5158:5163   */\n  dup2\n    /* \"#utility.yul\":5152:5164   */\n  mload\n    /* \"#utility.yul\":5142:5164   */\n  swap1\n  pop\n    /* \"#utility.yul\":5072:5171   */\n  swap2\n  swap1\n  pop\n  jump\t// out\n    /* \"#utility.yul\":5177:5357   */\ntag_57:\n    /* \"#utility.yul\":5225:5302   */\n  0x4e487b7100000000000000000000000000000000000000000000000000000000\n    /* \"#utility.yul\":5222:5223   */\n  0x00\n    /* \"#utility.yul\":5215:5303   */\n  mstore\n    /* \"#utility.yul\":5322:5326   */\n  0x22\n    /* \"#utility.yul\":5319:5320   */\n  0x04\n    /* \"#utility.yul\":5312:5327   */\n  mstore\n    /* \"#utility.yul\":5346:5350   */\n  0x24\n    /* \"#utility.yul\":5343:5344   */\n  0x00\n    /* \"#utility.yul\":5336:5351   */\n  revert\n    /* \"#utility.yul\":5363:5683   */\ntag_58:\n    /* \"#utility.yul\":5407:5413   */\n  0x00\n    /* \"#utility.yul\":5444:5445   */\n  0x02\n    /* \"#utility.yul\":5438:5442   */\n  dup3\n    /* \"#utility.yul\":5434:5446   */\n  div\n    /* \"#utility.yul\":5424:5446   */\n  swap1\n  pop\n    /* \"#utility.yul\":5491:5492   */\n  0x01\n    /* \"#utility.yul\":5485:5489   */\n  dup3\n    /* \"#utility.yul\":5481:5493   */\n  and\n    /* \"#utility.yul\":5512:5530   */\n  dup1\n    /* \"#utility.yul\":5502:5583   */\n  tag_144\n  jumpi\n    /* \"#utility.yul\":5568:5572   */\n  0x7f\n    /* \"#utility.yul\":5560:5566   */\n  dup3\n    /* \"#utility.yul\":5556:5573   */\n  and\n    /* \"#utility.yul\":5546:5573   */\n  swap2\n  pop\n    /* \"#utility.yul\":5502:5583   */\ntag_144:\n    /* \"#utility.yul\":5630:5632   */\n  0x20\n    /* \"#utility.yul\":5622:5628   */\n  dup3\n    /* \"#utility.yul\":5619:5633   */\n  lt\n    /* \"#utility.yul\":5599:5617   */\n  dup2\n    /* \"#utility.yul\":5596:5634   */\n  sub\n    /* \"#utility.yul\":5593:5677   */\n  tag_145\n  jumpi\n    /* \"#utility.yul\":5649:5667   */\n  tag_146\n  tag_57\n  jump\t// in\ntag_146:\n    /* \"#utility.yul\":5593:5677   */\ntag_145:\n    /* \"#utility.yul\":5414:5683   */\n  pop\n    /* \"#utility.yul\":5363:5683   */\n  swap2\n  swap1\n  pop\n  jump\t// out\n    /* \"#utility.yul\":5689:5830   */\ntag_59:\n    /* \"#utility.yul\":5738:5742   */\n  0x00\n    /* \"#utility.yul\":5761:5764   */\n  dup2\n    /* \"#utility.yul\":5753:5764   */\n  swap1\n  pop\n    /* \"#utility.yul\":5784:5787   */\n  dup2\n    /* \"#utility.yul\":5781:5782   */\n  0x00\n    /* \"#utility.yul\":5774:5788   */\n  mstore\n    /* \"#utility.yul\":5818:5822   */\n  0x20\n    /* \"#utility.yul\":5815:5816   */\n  0x00\n    /* \"#utility.yul\":5805:5823   */\n  keccak256\n    /* \"#utility.yul\":5797:5823   */\n  swap1\n  pop\n    /* \"#utility.yul\":5689:5830   */\n  swap2\n  swap1\n  pop\n  jump\t// out\n    /* \"#utility.yul\":5836:5929   */\ntag_60:\n    /* \"#utility.yul\":5873:5879   */\n  0x00\n    /* \"#utility.yul\":5920:5922   */\n  0x20\n    /* \"#utility.yul\":5915:5917   */\n  0x1f\n    /* \"#utility.yul\":5908:5913   */\n  dup4\n    /* \"#utility.yul\":5904:5918   */\n  add\n    /* \"#utility.yul\":5900:5923   */\n  div\n    /* \"#utility.yul\":5890:5923   */\n  swap1\n  pop\n    /* \"#utility.yul\":5836:5929   */\n  swap2\n  swap1\n  pop\n  jump\t// out\n    /* \"#utility.yul\":5935:6042   */\ntag_61:\n    /* \"#utility.yul\":5979:5987   */\n  0x00\n    /* \"#utility.yul\":6029:6034   */\n  dup3\n    /* \"#utility.yul\":6023:6027   */\n  dup3\n    /* \"#utility.yul\":6019:6035   */\n  shl\n    /* \"#utility.yul\":5998:6035   */\n  swap1\n  pop\n    /* \"#utility.yul\":5935:6042   */\n  swap3\n  swap2\n  pop\n  pop\n  jump\t// out\n    /* \"#utility.yul\":6048:6441   */\ntag_62:\n    /* \"#utility.yul\":6117:6123   */\n  0x00\n    /* \"#utility.yul\":6167:6168   */\n  0x08\n    /* \"#utility.yul\":6155:6165   */\n  dup4\n    /* \"#utility.yul\":6151:6169   */\n  mul\n    /* \"#utility.yul\":6190:6287   */\n  tag_151\n    /* \"#utility.yul\":6220:6286   */\n  0xffffffffffffffffffffffffffffffffffffffffffffffffffffffffffffffff\n    /* \"#utility.yul\":6209:6218   */\n  dup3\n    /* \"#utility.yul\":6190:6287   */\n  tag_61\n  jump\t// in\ntag_151:\n    /* \"#utility.yul\":6308:6347   */\n  tag_152\n    /* \"#utility.yul\":6338:6346   */\n  dup7\n    /* \"#utility.yul\":6327:6336   */\n  dup4\n    /* \"#utility.yul\":6308:6347   */\n  tag_61\n  jump\t// in\ntag_152:\n    /* \"#utility.yul\":6296:6347   */\n  swap6\n  pop\n    /* \"#utility.yul\":6380:6384   */\n  dup1\n    /* \"#utility.yul\":6376:6385   */\n  not\n    /* \"#utility.yul\":6369:6374   */\n  dup5\n    /* \"#utility.yul\":6365:6386   */\n  and\n    /* \"#utility.yul\":6356:6386   */\n  swap4\n  pop\n    /* \"#utility.yul\":6429:6433   */\n  dup1\n    /* \"#utility.yul\":6419:6427   */\n  dup7\n    /* \"#utility.yul\":6415:6434   */\n  and\n    /* \"#utility.yul\":6408:6413   */\n  dup5\n    /* \"#utility.yul\":6405:6435   */\n  or\n    /* \"#utility.yul\":6395:6435   */\n  swap3\n  pop\n    /* \"#utility.yul\":6124:6441   */\n  pop\n  pop\n    /* \"#utility.yul\":6048:6441   */\n  swap4\n  swap3\n  pop\n  pop\n  pop\n  jump\t// out\n    /* \"#utility.yul\":6447:6507   */\ntag_63:\n    /* \"#utility.yul\":6475:6478   */\n  0x00\n    /* \"#utility.yul\":6496:6501   */\n  dup2\n    /* \"#utility.yul\":6489:6501   */\n  swap1\n  pop\n    /* \"#utility.yul\":6447:6507   */\n  swap2\n  swap1\n  pop\n  jump\t// out\n    /* \"#utility.yul\":6513:6655   */\ntag_64:\n    /* \"#utility.yul\":6563:6572   */\n  0x00\n    /* \"#utility.yul\":6596:6649   */\n  tag_155\n    /* \"#utility.yul\":6614:6648   */\n  tag_156\n    /* \"#utility.yul\":6623:6647   */\n  tag_157\n    /* \"#utility.yul\":6641:6646   */\n  dup5\n    /* \"#utility.yul\":6623:6647   */\n  tag_48\n  jump\t// in\ntag_157:\n    /* \"#utility.yul\":6614:6648   */\n  tag_63\n  jump\t// in\ntag_156:\n    /* \"#utility.yul\":6596:6649   */\n  tag_48\n  jump\t// in\ntag_155:\n    /* \"#utility.yul\":6583:6649   */\n  swap1\n  pop\n    /* \"#utility.yul\":6513:6655   */\n  swap2\n  swap1\n  pop\n  jump\t// out\n    /* \"#utility.yul\":6661:6736   */\ntag_65:\n    /* \"#utility.yul\":6704:6707   */\n  0x00\n    /* \"#utility.yul\":6725:6730   */\n  dup2\n    /* \"#utility.yul\":6718:6730   */\n  swap1\n  pop\n    /* \"#utility.yul\":6661:6736   */\n  swap2\n  swap1\n  pop\n  jump\t// out\n    /* \"#utility.yul\":6742:7011   */\ntag_66:\n    /* \"#utility.yul\":6852:6891   */\n  tag_160\n    /* \"#utility.yul\":6883:6890   */\n  dup4\n    /* \"#utility.yul\":6852:6891   */\n  tag_64\n  jump\t// in\ntag_160:\n    /* \"#utility.yul\":6913:7004   */\n  tag_161\n    /* \"#utility.yul\":6962:7003   */\n  tag_162\n    /* \"#utility.yul\":6986:7002   */\n  dup3\n    /* \"#utility.yul\":6962:7003   */\n  tag_65\n  jump\t// in\ntag_162:\n    /* \"#utility.yul\":6954:6960   */\n  dup5\n    /* \"#utility.yul\":6947:6951   */\n  dup5\n    /* \"#utility.yul\":6941:6952   */\n  sload\n    /* \"#utility.yul\":6913:7004   */\n  tag_62\n  jump\t// in\ntag_161:\n    /* \"#utility.yul\":6907:6911   */\n  dup3\n    /* \"#utility.yul\":6900:7005   */\n  sstore\n    /* \"#utility.yul\":6818:7011   */\n  pop\n    /* \"#utility.yul\":6742:7011   */\n  pop\n  pop\n  pop\n  jump\t// out\n    /* \"#utility.yul\":7017:7090   */\ntag_67:\n    /* \"#utility.yul\":7062:7065   */\n  0x00\n    /* \"#utility.yul\":7017:7090   */\n  swap1\n  jump\t// out\n    /* \"#utility.yul\":7096:7285   */\ntag_68:\n    /* \"#utility.yul\":7173:7205   */\n  tag_165\n  tag_67\n  jump\t// in\ntag_165:\n    /* \"#utility.yul\":7214:7279   */\n  tag_166\n    /* \"#utility.yul\":7272:7278   */\n  dup2\n    /* \"#utility.yul\":7264:7270   */\n  dup5\n    /* \"#utility.yul\":7258:7262   */\n  dup5\n    /* \"#utility.yul\":7214:7279   */\n  tag_66\n  jump\t// in\ntag_166:\n    /* \"#utility.yul\":7149:7285   */\n  pop\n    /* \"#utility.yul\":7096:7285   */\n  pop\n  pop\n  jump\t// out\n    /* \"#utility.yul\":7291:7477   */\ntag_69:\n    /* \"#utility.yul\":7351:7471   */\ntag_168:\n    /* \"#utility.yul\":7368:7371   */\n  dup2\n    /* \"#utility.yul\":7361:7366   */\n  dup2\n    /* \"#utility.yul\":7358:7372   */\n  lt\n    /* \"#utility.yul\":7351:7471   */\n  iszero\n  tag_170\n  jumpi\n    /* \"#utility.yul\":7422:7461   */\n  tag_171\n    /* \"#utility.yul\":7459:7460   */\n  0x00\n    /* \"#utility.yul\":7452:7457   */\n  dup3\n    /* \"#utility.yul\":7422:7461   */\n  tag_68\n  jump\t// in\ntag_171:\n    /* \"#utility.yul\":7395:7396   */\n  0x01\n    /* \"#utility.yul\":7388:7393   */\n  dup2\n    /* \"#utility.yul\":7384:7397   */\n  add\n    /* \"#utility.yul\":7375:7397   */\n  swap1\n  pop\n    /* \"#utility.yul\":7351:7471   */\n  jump(tag_168)\ntag_170:\n    /* \"#utility.yul\":7291:7477   */\n  pop\n  pop\n  jump\t// out\n    /* \"#utility.yul\":7483:8026   */\ntag_70:\n    /* \"#utility.yul\":7584:7586   */\n  0x1f\n    /* \"#utility.yul\":7579:7582   */\n  dup3\n    /* \"#utility.yul\":7576:7587   */\n  gt\n    /* \"#utility.yul\":7573:8019   */\n  iszero\n  tag_173\n  jumpi\n    /* \"#utility.yul\":7618:7656   */\n  tag_174\n    /* \"#utility.yul\":7650:7655   */\n  dup2\n    /* \"#utility.yul\":7618:7656   */\n  tag_59\n  jump\t// in\ntag_174:\n    /* \"#utility.yul\":7702:7731   */\n  tag_175\n    /* \"#utility.yul\":7720:7730   */\n  dup5\n    /* \"#utility.yul\":7702:7731   */\n  tag_60\n  jump\t// in\ntag_175:\n    /* \"#utility.yul\":7692:7700   */\n  dup2\n    /* \"#utility.yul\":7688:7732   */\n  add\n    /* \"#utility.yul\":7885:7887   */\n  0x20\n    /* \"#utility.yul\":7873:7883   */\n  dup6\n    /* \"#utility.yul\":7870:7888   */\n  lt\n    /* \"#utility.yul\":7867:7916   */\n  iszero\n  tag_176\n  jumpi\n    /* \"#utility.yul\":7906:7914   */\n  dup2\n    /* \"#utility.yul\":7891:7914   */\n  swap1\n  pop\n    /* \"#utility.yul\":7867:7916   */\ntag_176:\n    /* \"#utility.yul\":7929:8009   */\n  tag_177\n    /* \"#utility.yul\":7985:8007   */\n  tag_178\n    /* \"#utility.yul\":8003:8006   */\n  dup6\n    /* \"#utility.yul\":7985:8007   */\n  tag_60\n  jump\t// in\ntag_178:\n    /* \"#utility.yul\":7975:7983   */\n  dup4\n    /* \"#utility.yul\":7971:8008   */\n  add\n    /* \"#utility.yul\":7958:7969   */\n  dup3\n    /* \"#utility.yul\":7929:8009   */\n  tag_69\n  jump\t// in\ntag_177:\n    /* \"#utility.yul\":7588:8019   */\n  pop\n  pop\n    /* \"#utility.yul\":7573:8019   */\ntag_173:\n    /* \"#utility.yul\":7483:8026   */\n  pop\n  pop\n  pop\n  jump\t// out\n    /* \"#utility.yul\":8032:8149   */\ntag_71:\n    /* \"#utility.yul\":8086:8094   */\n  0x00\n    /* \"#utility.yul\":8136:8141   */\n  dup3\n    /* \"#utility.yul\":8130:8134   */\n  dup3\n    /* \"#utility.yul\":8126:8142   */\n  shr\n    /* \"#utility.yul\":8105:8142   */\n  swap1\n  pop\n    /* \"#utility.yul\":8032:8149   */\n  swap3\n  swap2\n  pop\n  pop\n  jump\t// out\n    /* \"#utility.yul\":8155:8324   */\ntag_72:\n    /* \"#utility.yul\":8199:8205   */\n  0x00\n    /* \"#utility.yul\":8232:8283   */\n  tag_181\n    /* \"#utility.yul\":8280:8281   */\n  0x00\n    /* \"#utility.yul\":8276:8282   */\n  not\n    /* \"#utility.yul\":8268:8273   */\n  dup5\n    /* \"#utility.yul\":8265:8266   */\n  0x08\n    /* \"#utility.yul\":8261:8274   */\n  mul\n    /* \"#utility.yul\":8232:8283   */\n  tag_71\n  jump\t// in\ntag_181:\n    /* \"#utility.yul\":8228:8284   */\n  not\n    /* \"#utility.yul\":8313:8317   */\n  dup1\n    /* \"#utility.yul\":8307:8311   */\n  dup4\n    /* \"#utility.yul\":8303:8318   */\n  and\n    /* \"#utility.yul\":8293:8318   */\n  swap2\n  pop\n    /* \"#utility.yul\":8206:8324   */\n  pop\n    /* \"#utility.yul\":8155:8324   */\n  swap3\n  swap2\n  pop\n  pop\n  jump\t// out\n    /* \"#utility.yul\":8329:8624   */\ntag_73:\n    /* \"#utility.yul\":8405:8409   */\n  0x00\n    /* \"#utility.yul\":8551:8580   */\n  tag_183\n    /* \"#utility.yul\":8576:8579   */\n  dup4\n    /* \"#utility.yul\":8570:8574   */\n  dup4\n    /* \"#utility.yul\":8551:8580   */\n  tag_72\n  jump\t// in\ntag_183:\n    /* \"#utility.yul\":8543:8580   */\n  swap2\n  pop\n    /* \"#utility.yul\":8613:8616   */\n  dup3\n    /* \"#utility.yul\":8610:8611   */\n  0x02\n    /* \"#utility.yul\":8606:8617   */\n  mul\n    /* \"#utility.yul\":8600:8604   */\n  dup3\n    /* \"#utility.yul\":8597:8618   */\n  or\n    /* \"#utility.yul\":8589:8618   */\n  swap1\n  pop\n    /* \"#utility.yul\":8329:8624   */\n  swap3\n  swap2\n  pop\n  pop\n  jump\t// out\n    /* \"#utility.yul\":8629:10024   */\ntag_14:\n    /* \"#utility.yul\":8746:8783   */\n  tag_185\n    /* \"#utility.yul\":8779:8782   */\n  dup3\n    /* \"#utility.yul\":8746:8783   */\n  tag_56\n  jump\t// in\ntag_185:\n    /* \"#utility.yul\":8848:8866   */\n  0xffffffffffffffff\n    /* \"#utility.yul\":8840:8846   */\n  dup2\n    /* \"#utility.yul\":8837:8867   */\n  gt\n    /* \"#utility.yul\":8834:8890   */\n  iszero\n  tag_186\n  jumpi\n    /* \"#utility.yul\":8870:8888   */\n  tag_187\n  tag_41\n  jump\t// in\ntag_187:\n    /* \"#utility.yul\":8834:8890   */\ntag_186:\n    /* \"#utility.yul\":8914:8952   */\n  tag_188\n    /* \"#utility.yul\":8946:8950   */\n  dup3\n    /* \"#utility.yul\":8940:8951   */\n  sload\n    /* \"#utility.yul\":8914:8952   */\n  tag_58\n  jump\t// in\ntag_188:\n    /* \"#utility.yul\":8999:9066   */\n  tag_189\n    /* \"#utility.yul\":9059:9065   */\n  dup3\n    /* \"#utility.yul\":9051:9057   */\n  dup3\n    /* \"#utility.yul\":9045:9049   */\n  dup6\n    /* \"#utility.yul\":8999:9066   */\n  tag_70\n  jump\t// in\ntag_189:\n    /* \"#utility.yul\":9093:9094   */\n  0x00\n    /* \"#utility.yul\":9117:9121   */\n  0x20\n    /* \"#utility.yul\":9104:9121   */\n  swap1\n  pop\n    /* \"#utility.yul\":9149:9151   */\n  0x1f\n    /* \"#utility.yul\":9141:9147   */\n  dup4\n    /* \"#utility.yul\":9138:9152   */\n  gt\n    /* \"#utility.yul\":9166:9167   */\n  0x01\n    /* \"#utility.yul\":9161:9779   */\n  dup2\n  eq\n  tag_191\n  jumpi\n    /* \"#utility.yul\":9823:9824   */\n  0x00\n    /* \"#utility.yul\":9840:9846   */\n  dup5\n    /* \"#utility.yul\":9837:9914   */\n  iszero\n  tag_192\n  jumpi\n    /* \"#utility.yul\":9889:9898   */\n  dup3\n    /* \"#utility.yul\":9884:9887   */\n  dup8\n    /* \"#utility.yul\":9880:9899   */\n  add\n    /* \"#utility.yul\":9874:9900   */\n  mload\n    /* \"#utility.yul\":9865:9900   */\n  swap1\n  pop\n    /* \"#utility.yul\":9837:9914   */\ntag_192:\n    /* \"#utility.yul\":9940:10007   */\n  tag_193\n    /* \"#utility.yul\":10000:10006   */\n  dup6\n    /* \"#utility.yul\":9993:9998   */\n  dup3\n    /* \"#utility.yul\":9940:10007   */\n  tag_73\n  jump\t// in\ntag_193:\n    /* \"#utility.yul\":9934:9938   */\n  dup7\n    /* \"#utility.yul\":9927:10008   */\n  sstore\n    /* \"#utility.yul\":9796:10018   */\n  pop\n    /* \"#utility.yul\":9131:10018   */\n  jump(tag_190)\n    /* \"#utility.yul\":9161:9779   */\ntag_191:\n    /* \"#utility.yul\":9213:9217   */\n  0x1f\n    /* \"#utility.yul\":9209:9218   */\n  not\n    /* \"#utility.yul\":9201:9207   */\n  dup5\n    /* \"#utility.yul\":9197:9219   */\n  and\n    /* \"#utility.yul\":9247:9284   */\n  tag_194\n    /* \"#utility.yul\":9279:9283   */\n  dup7\n    /* \"#utility.yul\":9247:9284   */\n  tag_59\n  jump\t// in\ntag_194:\n    /* \"#utility.yul\":9306:9307   */\n  0x00\n    /* \"#utility.yul\":9320:9528   */\ntag_195:\n    /* \"#utility.yul\":9334:9341   */\n  dup3\n    /* \"#utility.yul\":9331:9332   */\n  dup2\n    /* \"#utility.yul\":9328:9342   */\n  lt\n    /* \"#utility.yul\":9320:9528   */\n  iszero\n  tag_197\n  jumpi\n    /* \"#utility.yul\":9413:9422   */\n  dup5\n    /* \"#utility.yul\":9408:9411   */\n  dup10\n    /* \"#utility.yul\":9404:9423   */\n  add\n    /* \"#utility.yul\":9398:9424   */\n  mload\n    /* \"#utility.yul\":9390:9396   */\n  dup3\n    /* \"#utility.yul\":9383:9425   */\n  sstore\n    /* \"#utility.yul\":9464:9465   */\n  0x01\n    /* \"#utility.yul\":9456:9462   */\n  dup3\n    /* \"#utility.yul\":9452:9466   */\n  add\n    /* \"#utility.yul\":9442:9466   */\n  swap2\n  pop\n    /* \"#utility.yul\":9511:9513   */\n  0x20\n    /* \"#utility.yul\":9500:9509   */\n  dup6\n    /* \"#utility.yul\":9496:9514   */\n  add\n    /* \"#utility.yul\":9483:9514   */\n  swap5\n  pop\n    /* \"#utility.yul\":9357:9361   */\n  0x20\n    /* \"#utility.yul\":9354:9355   */\n  dup2\n    /* \"#utility.yul\":9350:9362   */\n  add\n    /* \"#utility.yul\":9345:9362   */\n  swap1\n  pop\n    /* \"#utility.yul\":9320:9528   */\n  jump(tag_195)\ntag_197:\n    /* \"#utility.yul\":9556:9562   */\n  dup7\n    /* \"#utility.yul\":9547:9554   */\n  dup4\n    /* \"#utility.yul\":9544:9563   */\n  lt\n    /* \"#utility.yul\":9541:9720   */\n  iszero\n  tag_198\n  jumpi\n    /* \"#utility.yul\":9614:9623   */\n  dup5\n    /* \"#utility.yul\":9609:9612   */\n  dup10\n    /* \"#utility.yul\":9605:9624   */\n  add\n    /* \"#utility.yul\":9599:9625   */\n  mload\n    /* \"#utility.yul\":9657:9705   */\n  tag_199\n    /* \"#utility.yul\":9699:9703   */\n  0x1f\n    /* \"#utility.yul\":9691:9697   */\n  dup10\n    /* \"#utility.yul\":9687:9704   */\n  and\n    /* \"#utility.yul\":9676:9685   */\n  dup3\n    /* \"#utility.yul\":9657:9705   */\n  tag_72\n  jump\t// in\ntag_199:\n    /* \"#utility.yul\":9649:9655   */\n  dup4\n    /* \"#utility.yul\":9642:9706   */\n  sstore\n    /* \"#utility.yul\":9564:9720   */\n  pop\n    /* \"#utility.yul\":9541:9720   */\ntag_198:\n    /* \"#utility.yul\":9766:9767   */\n  0x01\n    /* \"#utility.yul\":9762:9763   */\n  0x02\n    /* \"#utility.yul\":9754:9760   */\n  dup9\n    /* \"#utility.yul\":9750:9764   */\n  mul\n    /* \"#utility.yul\":9746:9768   */\n  add\n    /* \"#utility.yul\":9740:9744   */\n  dup9\n    /* \"#utility.yul\":9733:9769   */\n  sstore\n    /* \"#utility.yul\":9168:9779   */\n  pop\n  pop\n  pop\n    /* \"#utility.yul\":9131:10018   */\ntag_190:\n  pop\n    /* \"#utility.yul\":8721:10024   */\n  pop\n  pop\n  pop\n    /* \"#utility.yul\":8629:10024   */\n  pop\n  pop\n  jump\t// out\n    /* \"#utility.yul\":10030:10199   */\ntag_74:\n    /* \"#utility.yul\":10114:10125   */\n  0x00\n    /* \"#utility.yul\":10148:10154   */\n  dup3\n    /* \"#utility.yul\":10143:10146   */\n  dup3\n    /* \"#utility.yul\":10136:10155   */\n  mstore\n    /* \"#utility.yul\":10188:10192   */\n  0x20\n    /* \"#utility.yul\":10183:10186   */\n  dup3\n    /* \"#utility.yul\":10179:10193   */\n  add\n    /* \"#utility.yul\":10164:10193   */\n  swap1\n  pop\n    /* \"#utility.yul\":10030:10199   */\n  swap3\n  swap2\n  pop\n  pop\n  jump\t// out\n    /* \"#utility.yul\":10205:10386   */\ntag_75:\n    /* \"#utility.yul\":10345:10378   */\n  0x45524332303a206d696e7420746f20746865207a65726f206164647265737300\n    /* \"#utility.yul\":10341:10342   */\n  0x00\n    /* \"#utility.yul\":10333:10339   */\n  dup3\n    /* \"#utility.yul\":10329:10343   */\n  add\n    /* \"#utility.yul\":10322:10379   */\n  mstore\n    /* \"#utility.yul\":10205:10386   */\n  pop\n  jump\t// out\n    /* \"#utility.yul\":10392:10758   */\ntag_76:\n    /* \"#utility.yul\":10534:10537   */\n  0x00\n    /* \"#utility.yul\":10555:10622   */\n  tag_203\n    /* \"#utility.yul\":10619:10621   */\n  0x1f\n    /* \"#utility.yul\":10614:10617   */\n  dup4\n    /* \"#utility.yul\":10555:10622   */\n  tag_74\n  jump\t// in\ntag_203:\n    /* \"#utility.yul\":10548:10622   */\n  swap2\n  pop\n    /* \"#utility.yul\":10631:10724   */\n  tag_204\n    /* \"#utility.yul\":10720:10723   */\n  dup3\n    /* \"#utility.yul\":10631:10724   */\n  tag_75\n  jump\t// in\ntag_204:\n    /* \"#utility.yul\":10749:10751   */\n  0x20\n    /* \"#utility.yul\":10744:10747   */\n  dup3\n    /* \"#utility.yul\":10740:10752   */\n  add\n    /* \"#utility.yul\":10733:10752   */\n  swap1\n  pop\n    /* \"#utility.yul\":10392:10758   */\n  swap2\n  swap1\n  pop\n  jump\t// out\n    /* \"#utility.yul\":10764:11183   */\ntag_23:\n    /* \"#utility.yul\":10930:10934   */\n  0x00\n    /* \"#utility.yul\":10968:10970   */\n  0x20\n    /* \"#utility.yul\":10957:10966   */\n  dup3\n    /* \"#utility.yul\":10953:10971   */\n  add\n    /* \"#utility.yul\":10945:10971   */\n  swap1\n  pop\n    /* \"#utility.yul\":11017:11026   */\n  dup2\n    /* \"#utility.yul\":11011:11015   */\n  dup2\n    /* \"#utility.yul\":11007:11027   */\n  sub\n    /* \"#utility.yul\":11003:11004   */\n  0x00\n    /* \"#utility.yul\":10992:11001   */\n  dup4\n    /* \"#utility.yul\":10988:11005   */\n  add\n    /* \"#utility.yul\":10981:11028   */\n  mstore\n    /* \"#utility.yul\":11045:11176   */\n  tag_206\n    /* \"#utility.yul\":11171:11175   */\n  dup2\n    /* \"#utility.yul\":11045:11176   */\n  tag_76\n  jump\t// in\ntag_206:\n    /* \"#utility.yul\":11037:11176   */\n  swap1\n  pop\n    /* \"#utility.yul\":10764:11183   */\n  swap2\n  swap1\n  pop\n  jump\t// out\n    /* \"#utility.yul\":11189:11369   */\ntag_77:\n    /* \"#utility.yul\":11237:11314   */\n  0x4e487b7100000000000000000000000000000000000000000000000000000000\n    /* \"#utility.yul\":11234:11235   */\n  0x00\n    /* \"#utility.yul\":11227:11315   */\n  mstore\n    /* \"#utility.yul\":11334:11338   */\n  0x11\n    /* \"#utility.yul\":11331:11332   */\n  0x04\n    /* \"#utility.yul\":11324:11339   */\n  mstore\n    /* \"#utility.yul\":11358:11362   */\n  0x24\n    /* \"#utility.yul\":11355:11356   */\n  0x00\n    /* \"#utility.yul\":11348:11363   */\n  revert\n    /* \"#utility.yul\":11375:11566   */\ntag_27:\n    /* \"#utility.yul\":11415:11418   */\n  0x00\n    /* \"#utility.yul\":11434:11454   */\n  tag_209\n    /* \"#utility.yul\":11452:11453   */\n  dup3\n    /* \"#utility.yul\":11434:11454   */\n  tag_48\n  jump\t// in\ntag_209:\n    /* \"#utility.yul\":11429:11454   */\n  swap2\n  pop\n    /* \"#utility.yul\":11468:11488   */\n  tag_210\n    /* \"#utility.yul\":11486:11487   */\n  dup4\n    /* \"#utility.yul\":11468:11488   */\n  tag_48\n  jump\t// in\ntag_210:\n    /* \"#utility.yul\":11463:11488   */\n  swap3\n  pop\n    /* \"#utility.yul\":11511:11512   */\n  dup3\n    /* \"#utility.yul\":11508:11509   */\n  dup3\n    /* \"#utility.yul\":11504:11513   */\n  add\n    /* \"#utility.yul\":11497:11513   */\n  swap1\n  pop\n    /* \"#utility.yul\":11532:11535   */\n  dup1\n    /* \"#utility.yul\":11529:11530   */\n  dup3\n    /* \"#utility.yul\":11526:11536   */\n  gt\n    /* \"#utility.yul\":11523:11559   */\n  iszero\n  tag_211\n  jumpi\n    /* \"#utility.yul\":11539:11557   */\n  tag_212\n  tag_77\n  jump\t// in\ntag_212:\n    /* \"#utility.yul\":11523:11559   */\ntag_211:\n    /* \"#utility.yul\":11375:11566   */\n  swap3\n  swap2\n  pop\n  pop\n  jump\t// out\n    /* \"#utility.yul\":11572:11690   */\ntag_78:\n    /* \"#utility.yul\":11659:11683   */\n  tag_214\n    /* \"#utility.yul\":11677:11682   */\n  dup2\n    /* \"#utility.yul\":11659:11683   */\n  tag_48\n  jump\t// in\ntag_214:\n    /* \"#utility.yul\":11654:11657   */\n  dup3\n    /* \"#utility.yul\":11647:11684   */\n  mstore\n    /* \"#utility.yul\":11572:11690   */\n  pop\n  pop\n  jump\t// out\n    /* \"#utility.yul\":11696:11918   */\ntag_30:\n    /* \"#utility.yul\":11789:11793   */\n  0x00\n    /* \"#utility.yul\":11827:11829   */\n  0x20\n    /* \"#utility.yul\":11816:11825   */\n  dup3\n    /* \"#utility.yul\":11812:11830   */\n  add\n    /* \"#utility.yul\":11804:11830   */\n  swap1\n  pop\n    /* \"#utility.yul\":11840:11911   */\n  tag_216\n    /* \"#utility.yul\":11908:11909   */\n  0x00\n    /* \"#utility.yul\":11897:11906   */\n  dup4\n    /* \"#utility.yul\":11893:11910   */\n  add\n    /* \"#utility.yul\":11884:11890   */\n  dup5\n    /* \"#utility.yul\":11840:11911   */\n  tag_78\n  jump\t// in\ntag_216:\n    /* \"#utility.yul\":11696:11918   */\n  swap3\n  swap2\n  pop\n  pop\n  jump\t// out\n    /* \"spoilsToken.sol\":1472:12893  contract SpoilsToken is Context, IERC20, IERC20Metadata,Ownable {... */\ntag_18:\n  dataSize(sub_0)\n  dup1\n  dataOffset(sub_0)\n  0x00\n  codecopy\n  0x00\n  return\nstop\n\nsub_0: assembly {\n        /* \"spoilsToken.sol\":1472:12893  contract SpoilsToken is Context, IERC20, IERC20Metadata,Ownable {... */\n      mstore(0x40, 0x80)\n      callvalue\n      dup1\n      iszero\n      tag_1\n      jumpi\n      0x00\n      dup1\n      revert\n    tag_1:\n      pop\n      jumpi(tag_2, lt(calldatasize, 0x04))\n      shr(0xe0, calldataload(0x00))\n      dup1\n      0x715018a6\n      gt\n      tag_20\n      jumpi\n      dup1\n      0xa457c2d7\n      gt\n      tag_21\n      jumpi\n      dup1\n      0xa457c2d7\n      eq\n      tag_15\n      jumpi\n      dup1\n      0xa9059cbb\n      eq\n      tag_16\n      jumpi\n      dup1\n      0xb6b285d9\n      eq\n      tag_17\n      jumpi\n      dup1\n      0xdd62ed3e\n      eq\n      tag_18\n      jumpi\n      dup1\n      0xf2fde38b\n      eq\n      tag_19\n      jumpi\n      jump(tag_2)\n    tag_21:\n      dup1\n      0x715018a6\n      eq\n      tag_11\n      jumpi\n      dup1\n      0x8da5cb5b\n      eq\n      tag_12\n      jumpi\n      dup1\n      0x95d89b41\n      eq\n      tag_13\n      jumpi\n      dup1\n      0x9dc29fac\n      eq\n      tag_14\n      jumpi\n      jump(tag_2)\n    tag_20:\n      dup1\n      0x313ce567\n      gt\n      tag_22\n      jumpi\n      dup1\n      0x313ce567\n      eq\n      tag_7\n      jumpi\n      dup1\n      0x39509351\n      eq\n      tag_8\n      jumpi\n      dup1\n      0x40c10f19\n      eq\n      tag_9\n      jumpi\n      dup1\n      0x70a08231\n      eq\n      tag_10\n      jumpi\n      jump(tag_2)\n    tag_22:\n      dup1\n      0x06fdde03\n      eq\n      tag_3\n      jumpi\n      dup1\n      0x095ea7b3\n      eq\n      tag_4\n      jumpi\n      dup1\n      0x18160ddd\n      eq\n      tag_5\n      jumpi\n      dup1\n      0x23b872dd\n      eq\n      tag_6\n      jumpi\n    tag_2:\n      0x00\n      dup1\n      revert\n        /* \"spoilsToken.sol\":2406:2506  function name() public view virtual override returns (string memory) {... */\n    tag_3:\n      tag_23\n      tag_24\n      jump\t// in\n    tag_23:\n      mload(0x40)\n      tag_25\n      swap2\n      swap1\n      tag_26\n      jump\t// in\n    tag_25:\n      mload(0x40)\n      dup1\n      swap2\n      sub\n      swap1\n      return\n        /* \"spoilsToken.sol\":4913:5082  function approve(address spender, uint256 amount) public virtual override returns (bool) {... */\n    tag_4:\n      tag_27\n      0x04\n      dup1\n      calldatasize\n      sub\n      dup2\n      add\n      swap1\n      tag_28\n      swap2\n      swap1\n      tag_29\n      jump\t// in\n    tag_28:\n      tag_30\n      jump\t// in\n    tag_27:\n      mload(0x40)\n      tag_31\n      swap2\n      swap1\n      tag_32\n      jump\t// in\n    tag_31:\n      mload(0x40)\n      dup1\n      swap2\n      sub\n      swap1\n      return\n        /* \"spoilsToken.sol\":3526:3634  function totalSupply() public view virtual override returns (uint256) {... */\n    tag_5:\n      tag_33\n      tag_34\n      jump\t// in\n    tag_33:\n      mload(0x40)\n      tag_35\n      swap2\n      swap1\n      tag_36\n      jump\t// in\n    tag_35:\n      mload(0x40)\n      dup1\n      swap2\n      sub\n      swap1\n      return\n        /* \"spoilsToken.sol\":5564:6056  function transferFrom(... */\n    tag_6:\n      tag_37\n      0x04\n      dup1\n      calldatasize\n      sub\n      dup2\n      add\n      swap1\n      tag_38\n      swap2\n      swap1\n      tag_39\n      jump\t// in\n    tag_38:\n      tag_40\n      jump\t// in\n    tag_37:\n      mload(0x40)\n      tag_41\n      swap2\n      swap1\n      tag_32\n      jump\t// in\n    tag_41:\n      mload(0x40)\n      dup1\n      swap2\n      sub\n      swap1\n      return\n        /* \"spoilsToken.sol\":3368:3461  function decimals() public view virtual override returns (uint8) {... */\n    tag_7:\n      tag_42\n      tag_43\n      jump\t// in\n    tag_42:\n      mload(0x40)\n      tag_44\n      swap2\n      swap1\n      tag_45\n      jump\t// in\n    tag_44:\n      mload(0x40)\n      dup1\n      swap2\n      sub\n      swap1\n      return\n        /* \"spoilsToken.sol\":6465:6680  function increaseAllowance(address spender, uint256 addedValue) public virtual returns (bool) {... */\n    tag_8:\n      tag_46\n      0x04\n      dup1\n      calldatasize\n      sub\n      dup2\n      add\n      swap1\n      tag_47\n      swap2\n      swap1\n      tag_29\n      jump\t// in\n    tag_47:\n      tag_48\n      jump\t// in\n    tag_46:\n      mload(0x40)\n      tag_49\n      swap2\n      swap1\n      tag_32\n      jump\t// in\n    tag_49:\n      mload(0x40)\n      dup1\n      swap2\n      sub\n      swap1\n      return\n        /* \"spoilsToken.sol\":4370:4552  function mint(address add, uint amount)external{... */\n    tag_9:\n      tag_50\n      0x04\n      dup1\n      calldatasize\n      sub\n      dup2\n      add\n      swap1\n      tag_51\n      swap2\n      swap1\n      tag_29\n      jump\t// in\n    tag_51:\n      tag_52\n      jump\t// in\n    tag_50:\n      stop\n        /* \"spoilsToken.sol\":3697:3824  function balanceOf(address account) public view virtual override returns (uint256) {... */\n    tag_10:\n      tag_53\n      0x04\n      dup1\n      calldatasize\n      sub\n      dup2\n      add\n      swap1\n      tag_54\n      swap2\n      swap1\n      tag_55\n      jump\t// in\n    tag_54:\n      tag_56\n      jump\t// in\n    tag_53:\n      mload(0x40)\n      tag_57\n      swap2\n      swap1\n      tag_36\n      jump\t// in\n    tag_57:\n      mload(0x40)\n      dup1\n      swap2\n      sub\n      swap1\n      return\n        /* \"@openzeppelin/contracts/access/Ownable.sol\":2293:2394  function renounceOwnership() public virtual onlyOwner {... */\n    tag_11:\n      tag_58\n      tag_59\n      jump\t// in\n    tag_58:\n      stop\n        /* \"@openzeppelin/contracts/access/Ownable.sol\":1638:1723  function owner() public view virtual returns (address) {... */\n    tag_12:\n      tag_60\n      tag_61\n      jump\t// in\n    tag_60:\n      mload(0x40)\n      tag_62\n      swap2\n      swap1\n      tag_63\n      jump\t// in\n    tag_62:\n      mload(0x40)\n      dup1\n      swap2\n      sub\n      swap1\n      return\n        /* \"spoilsToken.sol\":2625:2729  function symbol() public view virtual override returns (string memory) {... */\n    tag_13:\n      tag_64\n      tag_65\n      jump\t// in\n    tag_64:\n      mload(0x40)\n      tag_66\n      swap2\n      swap1\n      tag_26\n      jump\t// in\n    tag_66:\n      mload(0x40)\n      dup1\n      swap2\n      sub\n      swap1\n      return\n        /* \"spoilsToken.sol\":10437:10619  function burn(address add,uint256 amount)public{... */\n    tag_14:\n      tag_67\n      0x04\n      dup1\n      calldatasize\n      sub\n      dup2\n      add\n      swap1\n      tag_68\n      swap2\n      swap1\n      tag_29\n      jump\t// in\n    tag_68:\n      tag_69\n      jump\t// in\n    tag_67:\n      stop\n        /* \"spoilsToken.sol\":7183:7596  function decreaseAllowance(address spender, uint256 subtractedValue) public virtual returns (bool) {... */\n    tag_15:\n      tag_70\n      0x04\n      dup1\n      calldatasize\n      sub\n      dup2\n      add\n      swap1\n      tag_71\n      swap2\n      swap1\n      tag_29\n      jump\t// in\n    tag_71:\n      tag_72\n      jump\t// in\n    tag_70:\n      mload(0x40)\n      tag_73\n      swap2\n      swap1\n      tag_32\n      jump\t// in\n    tag_73:\n      mload(0x40)\n      dup1\n      swap2\n      sub\n      swap1\n      return\n        /* \"spoilsToken.sol\":4037:4212  function transfer(address recipient, uint256 amount) public virtual override returns (bool) {... */\n    tag_16:\n      tag_74\n      0x04\n      dup1\n      calldatasize\n      sub\n      dup2\n      add\n      swap1\n      tag_75\n      swap2\n      swap1\n      tag_29\n      jump\t// in\n    tag_75:\n      tag_76\n      jump\t// in\n    tag_74:\n      mload(0x40)\n      tag_77\n      swap2\n      swap1\n      tag_32\n      jump\t// in\n    tag_77:\n      mload(0x40)\n      dup1\n      swap2\n      sub\n      swap1\n      return\n        /* \"spoilsToken.sol\":4220:4362  function setapprovedcontractaddress(address add)external onlyOwner {... */\n    tag_17:\n      tag_78\n      0x04\n      dup1\n      calldatasize\n      sub\n      dup2\n      add\n      swap1\n      tag_79\n      swap2\n      swap1\n      tag_55\n      jump\t// in\n    tag_79:\n      tag_80\n      jump\t// in\n    tag_78:\n      stop\n        /* \"spoilsToken.sol\":4615:4766  function allowance(address owner, address spender) public view virtual override returns (uint256) {... */\n    tag_18:\n      tag_81\n      0x04\n      dup1\n      calldatasize\n      sub\n      dup2\n      add\n      swap1\n      tag_82\n      swap2\n      swap1\n      tag_83\n      jump\t// in\n    tag_82:\n      tag_84\n      jump\t// in\n    tag_81:\n      mload(0x40)\n      tag_85\n      swap2\n      swap1\n      tag_36\n      jump\t// in\n    tag_85:\n      mload(0x40)\n      dup1\n      swap2\n      sub\n      swap1\n      return\n        /* \"@openzeppelin/contracts/access/Ownable.sol\":2543:2758  function transferOwnership(address newOwner) public virtual onlyOwner {... */\n    tag_19:\n      tag_86\n      0x04\n      dup1\n      calldatasize\n      sub\n      dup2\n      add\n      swap1\n      tag_87\n      swap2\n      swap1\n      tag_55\n      jump\t// in\n    tag_87:\n      tag_88\n      jump\t// in\n    tag_86:\n      stop\n        /* \"spoilsToken.sol\":2406:2506  function name() public view virtual override returns (string memory) {... */\n    tag_24:\n        /* \"spoilsToken.sol\":2460:2473  string memory */\n      0x60\n        /* \"spoilsToken.sol\":2493:2498  _name */\n      0x04\n        /* \"spoilsToken.sol\":2486:2498  return _name */\n      dup1\n      sload\n      tag_90\n      swap1\n      tag_91\n      jump\t// in\n    tag_90:\n      dup1\n      0x1f\n      add\n      0x20\n      dup1\n      swap2\n      div\n      mul\n      0x20\n      add\n      mload(0x40)\n      swap1\n      dup2\n      add\n      0x40\n      mstore\n      dup1\n      swap3\n      swap2\n      swap1\n      dup2\n      dup2\n      mstore\n      0x20\n      add\n      dup3\n      dup1\n      sload\n      tag_92\n      swap1\n      tag_91\n      jump\t// in\n    tag_92:\n      dup1\n      iszero\n      tag_93\n      jumpi\n      dup1\n      0x1f\n      lt\n      tag_94\n      jumpi\n      0x0100\n      dup1\n      dup4\n      sload\n      div\n      mul\n      dup4\n      mstore\n      swap2\n      0x20\n      add\n      swap2\n      jump(tag_93)\n    tag_94:\n      dup3\n      add\n      swap2\n      swap1\n      0x00\n      mstore\n      keccak256(0x00, 0x20)\n      swap1\n    tag_95:\n      dup2\n      sload\n      dup2\n      mstore\n      swap1\n      0x01\n      add\n      swap1\n      0x20\n      add\n      dup1\n      dup4\n      gt\n      tag_95\n      jumpi\n      dup3\n      swap1\n      sub\n      0x1f\n      and\n      dup3\n      add\n      swap2\n    tag_93:\n      pop\n      pop\n      pop\n      pop\n      pop\n      swap1\n      pop\n        /* \"spoilsToken.sol\":2406:2506  function name() public view virtual override returns (string memory) {... */\n      swap1\n      jump\t// out\n        /* \"spoilsToken.sol\":4913:5082  function approve(address spender, uint256 amount) public virtual override returns (bool) {... */\n    tag_30:\n        /* \"spoilsToken.sol\":4996:5000  bool */\n      0x00\n        /* \"spoilsToken.sol\":5013:5052  _approve(_msgSender(), spender, amount) */\n      tag_97\n        /* \"spoilsToken.sol\":5022:5034  _msgSender() */\n      tag_98\n        /* \"spoilsToken.sol\":5022:5032  _msgSender */\n      tag_99\n        /* \"spoilsToken.sol\":5022:5034  _msgSender() */\n      jump\t// in\n    tag_98:\n        /* \"spoilsToken.sol\":5036:5043  spender */\n      dup5\n        /* \"spoilsToken.sol\":5045:5051  amount */\n      dup5\n        /* \"spoilsToken.sol\":5013:5021  _approve */\n      tag_100\n        /* \"spoilsToken.sol\":5013:5052  _approve(_msgSender(), spender, amount) */\n      jump\t// in\n    tag_97:\n        /* \"spoilsToken.sol\":5070:5074  true */\n      0x01\n        /* \"spoilsToken.sol\":5063:5074  return true */\n      swap1\n      pop\n        /* \"spoilsToken.sol\":4913:5082  function approve(address spender, uint256 amount) public virtual override returns (bool) {... */\n      swap3\n      swap2\n      pop\n      pop\n      jump\t// out\n        /* \"spoilsToken.sol\":3526:3634  function totalSupply() public view virtual override returns (uint256) {... */\n    tag_34:\n        /* \"spoilsToken.sol\":3587:3594  uint256 */\n      0x00\n        /* \"spoilsToken.sol\":3614:3626  _totalSupply */\n      sload(0x03)\n        /* \"spoilsToken.sol\":3607:3626  return _totalSupply */\n      swap1\n      pop\n        /* \"spoilsToken.sol\":3526:3634  function totalSupply() public view virtual override returns (uint256) {... */\n      swap1\n      jump\t// out\n        /* \"spoilsToken.sol\":5564:6056  function transferFrom(... */\n    tag_40:\n        /* \"spoilsToken.sol\":5704:5708  bool */\n      0x00\n        /* \"spoilsToken.sol\":5721:5757  _transfer(sender, recipient, amount) */\n      tag_103\n        /* \"spoilsToken.sol\":5731:5737  sender */\n      dup5\n        /* \"spoilsToken.sol\":5739:5748  recipient */\n      dup5\n        /* \"spoilsToken.sol\":5750:5756  amount */\n      dup5\n        /* \"spoilsToken.sol\":5721:5730  _transfer */\n      tag_104\n        /* \"spoilsToken.sol\":5721:5757  _transfer(sender, recipient, amount) */\n      jump\t// in\n    tag_103:\n        /* \"spoilsToken.sol\":5770:5794  uint256 currentAllowance */\n      0x00\n        /* \"spoilsToken.sol\":5797:5808  _allowances */\n      0x02\n        /* \"spoilsToken.sol\":5797:5816  _allowances[sender] */\n      0x00\n        /* \"spoilsToken.sol\":5809:5815  sender */\n      dup7\n        /* \"spoilsToken.sol\":5797:5816  _allowances[sender] */\n      0xffffffffffffffffffffffffffffffffffffffff\n      and\n      0xffffffffffffffffffffffffffffffffffffffff\n      and\n      dup2\n      mstore\n      0x20\n      add\n      swap1\n      dup2\n      mstore\n      0x20\n      add\n      0x00\n      keccak256\n        /* \"spoilsToken.sol\":5797:5830  _allowances[sender][_msgSender()] */\n      0x00\n        /* \"spoilsToken.sol\":5817:5829  _msgSender() */\n      tag_105\n        /* \"spoilsToken.sol\":5817:5827  _msgSender */\n      tag_99\n        /* \"spoilsToken.sol\":5817:5829  _msgSender() */\n      jump\t// in\n    tag_105:\n        /* \"spoilsToken.sol\":5797:5830  _allowances[sender][_msgSender()] */\n      0xffffffffffffffffffffffffffffffffffffffff\n      and\n      0xffffffffffffffffffffffffffffffffffffffff\n      and\n      dup2\n      mstore\n      0x20\n      add\n      swap1\n      dup2\n      mstore\n      0x20\n      add\n      0x00\n      keccak256\n      sload\n        /* \"spoilsToken.sol\":5770:5830  uint256 currentAllowance = _allowances[sender][_msgSender()] */\n      swap1\n      pop\n        /* \"spoilsToken.sol\":5869:5875  amount */\n      dup3\n        /* \"spoilsToken.sol\":5849:5865  currentAllowance */\n      dup2\n        /* \"spoilsToken.sol\":5849:5875  currentAllowance >= amount */\n      lt\n      iszero\n        /* \"spoilsToken.sol\":5841:5920  require(currentAllowance >= amount, \"ERC20: transfer amount exceeds allowance\") */\n      tag_106\n      jumpi\n      mload(0x40)\n      0x08c379a000000000000000000000000000000000000000000000000000000000\n      dup2\n      mstore\n      0x04\n      add\n      tag_107\n      swap1\n      tag_108\n      jump\t// in\n    tag_107:\n      mload(0x40)\n      dup1\n      swap2\n      sub\n      swap1\n      revert\n    tag_106:\n        /* \"spoilsToken.sol\":5956:6013  _approve(sender, _msgSender(), currentAllowance - amount) */\n      tag_109\n        /* \"spoilsToken.sol\":5965:5971  sender */\n      dup6\n        /* \"spoilsToken.sol\":5973:5985  _msgSender() */\n      tag_110\n        /* \"spoilsToken.sol\":5973:5983  _msgSender */\n      tag_99\n        /* \"spoilsToken.sol\":5973:5985  _msgSender() */\n      jump\t// in\n    tag_110:\n        /* \"spoilsToken.sol\":6006:6012  amount */\n      dup6\n        /* \"spoilsToken.sol\":5987:6003  currentAllowance */\n      dup5\n        /* \"spoilsToken.sol\":5987:6012  currentAllowance - amount */\n      sub\n        /* \"spoilsToken.sol\":5956:5964  _approve */\n      tag_100\n        /* \"spoilsToken.sol\":5956:6013  _approve(sender, _msgSender(), currentAllowance - amount) */\n      jump\t// in\n    tag_109:\n        /* \"spoilsToken.sol\":6044:6048  true */\n      0x01\n        /* \"spoilsToken.sol\":6037:6048  return true */\n      swap2\n      pop\n      pop\n        /* \"spoilsToken.sol\":5564:6056  function transferFrom(... */\n      swap4\n      swap3\n      pop\n      pop\n      pop\n      jump\t// out\n        /* \"spoilsToken.sol\":3368:3461  function decimals() public view virtual override returns (uint8) {... */\n    tag_43:\n        /* \"spoilsToken.sol\":3426:3431  uint8 */\n      0x00\n        /* \"spoilsToken.sol\":3451:3453  18 */\n      0x12\n        /* \"spoilsToken.sol\":3444:3453  return 18 */\n      swap1\n      pop\n        /* \"spoilsToken.sol\":3368:3461  function decimals() public view virtual override returns (uint8) {... */\n      swap1\n      jump\t// out\n        /* \"spoilsToken.sol\":6465:6680  function increaseAllowance(address spender, uint256 addedValue) public virtual returns (bool) {... */\n    tag_48:\n        /* \"spoilsToken.sol\":6553:6557  bool */\n      0x00\n        /* \"spoilsToken.sol\":6570:6650  _approve(_msgSender(), spender, _allowances[_msgSender()][spender] + addedValue) */\n      tag_113\n        /* \"spoilsToken.sol\":6579:6591  _msgSender() */\n      tag_114\n        /* \"spoilsToken.sol\":6579:6589  _msgSender */\n      tag_99\n        /* \"spoilsToken.sol\":6579:6591  _msgSender() */\n      jump\t// in\n    tag_114:\n        /* \"spoilsToken.sol\":6593:6600  spender */\n      dup5\n        /* \"spoilsToken.sol\":6639:6649  addedValue */\n      dup5\n        /* \"spoilsToken.sol\":6602:6613  _allowances */\n      0x02\n        /* \"spoilsToken.sol\":6602:6627  _allowances[_msgSender()] */\n      0x00\n        /* \"spoilsToken.sol\":6614:6626  _msgSender() */\n      tag_115\n        /* \"spoilsToken.sol\":6614:6624  _msgSender */\n      tag_99\n        /* \"spoilsToken.sol\":6614:6626  _msgSender() */\n      jump\t// in\n    tag_115:\n        /* \"spoilsToken.sol\":6602:6627  _allowances[_msgSender()] */\n      0xffffffffffffffffffffffffffffffffffffffff\n      and\n      0xffffffffffffffffffffffffffffffffffffffff\n      and\n      dup2\n      mstore\n      0x20\n      add\n      swap1\n      dup2\n      mstore\n      0x20\n      add\n      0x00\n      keccak256\n        /* \"spoilsToken.sol\":6602:6636  _allowances[_msgSender()][spender] */\n      0x00\n        /* \"spoilsToken.sol\":6628:6635  spender */\n      dup9\n        /* \"spoilsToken.sol\":6602:6636  _allowances[_msgSender()][spender] */\n      0xffffffffffffffffffffffffffffffffffffffff\n      and\n      0xffffffffffffffffffffffffffffffffffffffff\n      and\n      dup2\n      mstore\n      0x20\n      add\n      swap1\n      dup2\n      mstore\n      0x20\n      add\n      0x00\n      keccak256\n      sload\n        /* \"spoilsToken.sol\":6602:6649  _allowances[_msgSender()][spender] + addedValue */\n      tag_116\n      swap2\n      swap1\n      tag_117\n      jump\t// in\n    tag_116:\n        /* \"spoilsToken.sol\":6570:6578  _approve */\n      tag_100\n        /* \"spoilsToken.sol\":6570:6650  _approve(_msgSender(), spender, _allowances[_msgSender()][spender] + addedValue) */\n      jump\t// in\n    tag_113:\n        /* \"spoilsToken.sol\":6668:6672  true */\n      0x01\n        /* \"spoilsToken.sol\":6661:6672  return true */\n      swap1\n      pop\n        /* \"spoilsToken.sol\":6465:6680  function increaseAllowance(address spender, uint256 addedValue) public virtual returns (bool) {... */\n      swap3\n      swap2\n      pop\n      pop\n      jump\t// out\n        /* \"spoilsToken.sol\":4370:4552  function mint(address add, uint amount)external{... */\n    tag_52:\n        /* \"spoilsToken.sol\":4478:4482  true */\n      0x01\n        /* \"spoilsToken.sol\":4436:4482  onlyapprovedcontractaddress[msg.sender] ==true */\n      iszero\n      iszero\n        /* \"spoilsToken.sol\":4436:4463  onlyapprovedcontractaddress */\n      0x06\n        /* \"spoilsToken.sol\":4436:4475  onlyapprovedcontractaddress[msg.sender] */\n      0x00\n        /* \"spoilsToken.sol\":4464:4474  msg.sender */\n      caller\n        /* \"spoilsToken.sol\":4436:4475  onlyapprovedcontractaddress[msg.sender] */\n      0xffffffffffffffffffffffffffffffffffffffff\n      and\n      0xffffffffffffffffffffffffffffffffffffffff\n      and\n      dup2\n      mstore\n      0x20\n      add\n      swap1\n      dup2\n      mstore\n      0x20\n      add\n      0x00\n      keccak256\n      0x00\n      swap1\n      sload\n      swap1\n      0x0100\n      exp\n      swap1\n      div\n      0xff\n      and\n        /* \"spoilsToken.sol\":4436:4482  onlyapprovedcontractaddress[msg.sender] ==true */\n      iszero\n      iszero\n      eq\n        /* \"spoilsToken.sol\":4428:4516  require(onlyapprovedcontractaddress[msg.sender] ==true, \"you are not approved  to mint\") */\n      tag_119\n      jumpi\n      mload(0x40)\n      0x08c379a000000000000000000000000000000000000000000000000000000000\n      dup2\n      mstore\n      0x04\n      add\n      tag_120\n      swap1\n      tag_121\n      jump\t// in\n    tag_120:\n      mload(0x40)\n      dup1\n      swap2\n      sub\n      swap1\n      revert\n    tag_119:\n        /* \"spoilsToken.sol\":4527:4544  _mint(add,amount) */\n      tag_122\n        /* \"spoilsToken.sol\":4533:4536  add */\n      dup3\n        /* \"spoilsToken.sol\":4537:4543  amount */\n      dup3\n        /* \"spoilsToken.sol\":4527:4532  _mint */\n      tag_123\n        /* \"spoilsToken.sol\":4527:4544  _mint(add,amount) */\n      jump\t// in\n    tag_122:\n        /* \"spoilsToken.sol\":4370:4552  function mint(address add, uint amount)external{... */\n      pop\n      pop\n      jump\t// out\n        /* \"spoilsToken.sol\":3697:3824  function balanceOf(address account) public view virtual override returns (uint256) {... */\n    tag_56:\n        /* \"spoilsToken.sol\":3771:3778  uint256 */\n      0x00\n        /* \"spoilsToken.sol\":3798:3807  _balances */\n      0x01\n        /* \"spoilsToken.sol\":3798:3816  _balances[account] */\n      0x00\n        /* \"spoilsToken.sol\":3808:3815  account */\n      dup4\n        /* \"spoilsToken.sol\":3798:3816  _balances[account] */\n      0xffffffffffffffffffffffffffffffffffffffff\n      and\n      0xffffffffffffffffffffffffffffffffffffffff\n      and\n      dup2\n      mstore\n      0x20\n      add\n      swap1\n      dup2\n      mstore\n      0x20\n      add\n      0x00\n      keccak256\n      sload\n        /* \"spoilsToken.sol\":3791:3816  return _balances[account] */\n      swap1\n      pop\n        /* \"spoilsToken.sol\":3697:3824  function balanceOf(address account) public view virtual override returns (uint256) {... */\n      swap2\n      swap1\n      pop\n      jump\t// out\n        /* \"@openzeppelin/contracts/access/Ownable.sol\":2293:2394  function renounceOwnership() public virtual onlyOwner {... */\n    tag_59:\n        /* \"@openzeppelin/contracts/access/Ownable.sol\":1531:1544  _checkOwner() */\n      tag_126\n        /* \"@openzeppelin/contracts/access/Ownable.sol\":1531:1542  _checkOwner */\n      tag_127\n        /* \"@openzeppelin/contracts/access/Ownable.sol\":1531:1544  _checkOwner() */\n      jump\t// in\n    tag_126:\n        /* \"@openzeppelin/contracts/access/Ownable.sol\":2357:2387  _transferOwnership(address(0)) */\n      tag_129\n        /* \"@openzeppelin/contracts/access/Ownable.sol\":2384:2385  0 */\n      0x00\n        /* \"@openzeppelin/contracts/access/Ownable.sol\":2357:2375  _transferOwnership */\n      tag_130\n        /* \"@openzeppelin/contracts/access/Ownable.sol\":2357:2387  _transferOwnership(address(0)) */\n      jump\t// in\n    tag_129:\n        /* \"@openzeppelin/contracts/access/Ownable.sol\":2293:2394  function renounceOwnership() public virtual onlyOwner {... */\n      jump\t// out\n        /* \"@openzeppelin/contracts/access/Ownable.sol\":1638:1723  function owner() public view virtual returns (address) {... */\n    tag_61:\n        /* \"@openzeppelin/contracts/access/Ownable.sol\":1684:1691  address */\n      0x00\n        /* \"@openzeppelin/contracts/access/Ownable.sol\":1710:1716  _owner */\n      dup1\n      0x00\n      swap1\n      sload\n      swap1\n      0x0100\n      exp\n      swap1\n      div\n      0xffffffffffffffffffffffffffffffffffffffff\n      and\n        /* \"@openzeppelin/contracts/access/Ownable.sol\":1703:1716  return _owner */\n      swap1\n      pop\n        /* \"@openzeppelin/contracts/access/Ownable.sol\":1638:1723  function owner() public view virtual returns (address) {... */\n      swap1\n      jump\t// out\n        /* \"spoilsToken.sol\":2625:2729  function symbol() public view virtual override returns (string memory) {... */\n    tag_65:\n        /* \"spoilsToken.sol\":2681:2694  string memory */\n      0x60\n        /* \"spoilsToken.sol\":2714:2721  _symbol */\n      0x05\n        /* \"spoilsToken.sol\":2707:2721  return _symbol */\n      dup1\n      sload\n      tag_133\n      swap1\n      tag_91\n      jump\t// in\n    tag_133:\n      dup1\n      0x1f\n      add\n      0x20\n      dup1\n      swap2\n      div\n      mul\n      0x20\n      add\n      mload(0x40)\n      swap1\n      dup2\n      add\n      0x40\n      mstore\n      dup1\n      swap3\n      swap2\n      swap1\n      dup2\n      dup2\n      mstore\n      0x20\n      add\n      dup3\n      dup1\n      sload\n      tag_134\n      swap1\n      tag_91\n      jump\t// in\n    tag_134:\n      dup1\n      iszero\n      tag_135\n      jumpi\n      dup1\n      0x1f\n      lt\n      tag_136\n      jumpi\n      0x0100\n      dup1\n      dup4\n      sload\n      div\n      mul\n      dup4\n      mstore\n      swap2\n      0x20\n      add\n      swap2\n      jump(tag_135)\n    tag_136:\n      dup3\n      add\n      swap2\n      swap1\n      0x00\n      mstore\n      keccak256(0x00, 0x20)\n      swap1\n    tag_137:\n      dup2\n      sload\n      dup2\n      mstore\n      swap1\n      0x01\n      add\n      swap1\n      0x20\n      add\n      dup1\n      dup4\n      gt\n      tag_137\n      jumpi\n      dup3\n      swap1\n      sub\n      0x1f\n      and\n      dup3\n      add\n      swap2\n    tag_135:\n      pop\n      pop\n      pop\n      pop\n      pop\n      swap1\n      pop\n        /* \"spoilsToken.sol\":2625:2729  function symbol() public view virtual override returns (string memory) {... */\n      swap1\n      jump\t// out\n        /* \"spoilsToken.sol\":10437:10619  function burn(address add,uint256 amount)public{... */\n    tag_69:\n        /* \"spoilsToken.sol\":10545:10549  true */\n      0x01\n        /* \"spoilsToken.sol\":10503:10549  onlyapprovedcontractaddress[msg.sender] ==true */\n      iszero\n      iszero\n        /* \"spoilsToken.sol\":10503:10530  onlyapprovedcontractaddress */\n      0x06\n        /* \"spoilsToken.sol\":10503:10542  onlyapprovedcontractaddress[msg.sender] */\n      0x00\n        /* \"spoilsToken.sol\":10531:10541  msg.sender */\n      caller\n        /* \"spoilsToken.sol\":10503:10542  onlyapprovedcontractaddress[msg.sender] */\n      0xffffffffffffffffffffffffffffffffffffffff\n      and\n      0xffffffffffffffffffffffffffffffffffffffff\n      and\n      dup2\n      mstore\n      0x20\n      add\n      swap1\n      dup2\n      mstore\n      0x20\n      add\n      0x00\n      keccak256\n      0x00\n      swap1\n      sload\n      swap1\n      0x0100\n      exp\n      swap1\n      div\n      0xff\n      and\n        /* \"spoilsToken.sol\":10503:10549  onlyapprovedcontractaddress[msg.sender] ==true */\n      iszero\n      iszero\n      eq\n        /* \"spoilsToken.sol\":10495:10583  require(onlyapprovedcontractaddress[msg.sender] ==true, \"you are not approved  to burn\") */\n      tag_139\n      jumpi\n      mload(0x40)\n      0x08c379a000000000000000000000000000000000000000000000000000000000\n      dup2\n      mstore\n      0x04\n      add\n      tag_140\n      swap1\n      tag_141\n      jump\t// in\n    tag_140:\n      mload(0x40)\n      dup1\n      swap2\n      sub\n      swap1\n      revert\n    tag_139:\n        /* \"spoilsToken.sol\":10594:10611  _burn(add,amount) */\n      tag_142\n        /* \"spoilsToken.sol\":10600:10603  add */\n      dup3\n        /* \"spoilsToken.sol\":10604:10610  amount */\n      dup3\n        /* \"spoilsToken.sol\":10594:10599  _burn */\n      tag_143\n        /* \"spoilsToken.sol\":10594:10611  _burn(add,amount) */\n      jump\t// in\n    tag_142:\n        /* \"spoilsToken.sol\":10437:10619  function burn(address add,uint256 amount)public{... */\n      pop\n      pop\n      jump\t// out\n        /* \"spoilsToken.sol\":7183:7596  function decreaseAllowance(address spender, uint256 subtractedValue) public virtual returns (bool) {... */\n    tag_72:\n        /* \"spoilsToken.sol\":7276:7280  bool */\n      0x00\n        /* \"spoilsToken.sol\":7293:7317  uint256 currentAllowance */\n      dup1\n        /* \"spoilsToken.sol\":7320:7331  _allowances */\n      0x02\n        /* \"spoilsToken.sol\":7320:7345  _allowances[_msgSender()] */\n      0x00\n        /* \"spoilsToken.sol\":7332:7344  _msgSender() */\n      tag_145\n        /* \"spoilsToken.sol\":7332:7342  _msgSender */\n      tag_99\n        /* \"spoilsToken.sol\":7332:7344  _msgSender() */\n      jump\t// in\n    tag_145:\n        /* \"spoilsToken.sol\":7320:7345  _allowances[_msgSender()] */\n      0xffffffffffffffffffffffffffffffffffffffff\n      and\n      0xffffffffffffffffffffffffffffffffffffffff\n      and\n      dup2\n      mstore\n      0x20\n      add\n      swap1\n      dup2\n      mstore\n      0x20\n      add\n      0x00\n      keccak256\n        /* \"spoilsToken.sol\":7320:7354  _allowances[_msgSender()][spender] */\n      0x00\n        /* \"spoilsToken.sol\":7346:7353  spender */\n      dup6\n        /* \"spoilsToken.sol\":7320:7354  _allowances[_msgSender()][spender] */\n      0xffffffffffffffffffffffffffffffffffffffff\n      and\n      0xffffffffffffffffffffffffffffffffffffffff\n      and\n      dup2\n      mstore\n      0x20\n      add\n      swap1\n      dup2\n      mstore\n      0x20\n      add\n      0x00\n      keccak256\n      sload\n        /* \"spoilsToken.sol\":7293:7354  uint256 currentAllowance = _allowances[_msgSender()][spender] */\n      swap1\n      pop\n        /* \"spoilsToken.sol\":7393:7408  subtractedValue */\n      dup3\n        /* \"spoilsToken.sol\":7373:7389  currentAllowance */\n      dup2\n        /* \"spoilsToken.sol\":7373:7408  currentAllowance >= subtractedValue */\n      lt\n      iszero\n        /* \"spoilsToken.sol\":7365:7450  require(currentAllowance >= subtractedValue, \"ERC20: decreased allowance below zero\") */\n      tag_146\n      jumpi\n      mload(0x40)\n      0x08c379a000000000000000000000000000000000000000000000000000000000\n      dup2\n      mstore\n      0x04\n      add\n      tag_147\n      swap1\n      tag_148\n      jump\t// in\n    tag_147:\n      mload(0x40)\n      dup1\n      swap2\n      sub\n      swap1\n      revert\n    tag_146:\n        /* \"spoilsToken.sol\":7486:7553  _approve(_msgSender(), spender, currentAllowance - subtractedValue) */\n      tag_149\n        /* \"spoilsToken.sol\":7495:7507  _msgSender() */\n      tag_150\n        /* \"spoilsToken.sol\":7495:7505  _msgSender */\n      tag_99\n        /* \"spoilsToken.sol\":7495:7507  _msgSender() */\n      jump\t// in\n    tag_150:\n        /* \"spoilsToken.sol\":7509:7516  spender */\n      dup6\n        /* \"spoilsToken.sol\":7537:7552  subtractedValue */\n      dup6\n        /* \"spoilsToken.sol\":7518:7534  currentAllowance */\n      dup5\n        /* \"spoilsToken.sol\":7518:7552  currentAllowance - subtractedValue */\n      sub\n        /* \"spoilsToken.sol\":7486:7494  _approve */\n      tag_100\n        /* \"spoilsToken.sol\":7486:7553  _approve(_msgSender(), spender, currentAllowance - subtractedValue) */\n      jump\t// in\n    tag_149:\n        /* \"spoilsToken.sol\":7584:7588  true */\n      0x01\n        /* \"spoilsToken.sol\":7577:7588  return true */\n      swap2\n      pop\n      pop\n        /* \"spoilsToken.sol\":7183:7596  function decreaseAllowance(address spender, uint256 subtractedValue) public virtual returns (bool) {... */\n      swap3\n      swap2\n      pop\n      pop\n      jump\t// out\n        /* \"spoilsToken.sol\":4037:4212  function transfer(address recipient, uint256 amount) public virtual override returns (bool) {... */\n    tag_76:\n        /* \"spoilsToken.sol\":4123:4127  bool */\n      0x00\n        /* \"spoilsToken.sol\":4140:4182  _transfer(_msgSender(), recipient, amount) */\n      tag_152\n        /* \"spoilsToken.sol\":4150:4162  _msgSender() */\n      tag_153\n        /* \"spoilsToken.sol\":4150:4160  _msgSender */\n      tag_99\n        /* \"spoilsToken.sol\":4150:4162  _msgSender() */\n      jump\t// in\n    tag_153:\n        /* \"spoilsToken.sol\":4164:4173  recipient */\n      dup5\n        /* \"spoilsToken.sol\":4175:4181  amount */\n      dup5\n        /* \"spoilsToken.sol\":4140:4149  _transfer */\n      tag_104\n        /* \"spoilsToken.sol\":4140:4182  _transfer(_msgSender(), recipient, amount) */\n      jump\t// in\n    tag_152:\n        /* \"spoilsToken.sol\":4200:4204  true */\n      0x01\n        /* \"spoilsToken.sol\":4193:4204  return true */\n      swap1\n      pop\n        /* \"spoilsToken.sol\":4037:4212  function transfer(address recipient, uint256 amount) public virtual override returns (bool) {... */\n      swap3\n      swap2\n      pop\n      pop\n      jump\t// out\n        /* \"spoilsToken.sol\":4220:4362  function setapprovedcontractaddress(address add)external onlyOwner {... */\n    tag_80:\n        /* \"@openzeppelin/contracts/access/Ownable.sol\":1531:1544  _checkOwner() */\n      tag_155\n        /* \"@openzeppelin/contracts/access/Ownable.sol\":1531:1542  _checkOwner */\n      tag_127\n        /* \"@openzeppelin/contracts/access/Ownable.sol\":1531:1544  _checkOwner() */\n      jump\t// in\n    tag_155:\n        /* \"spoilsToken.sol\":4341:4345  true */\n      0x01\n        /* \"spoilsToken.sol\":4307:4334  onlyapprovedcontractaddress */\n      0x06\n        /* \"spoilsToken.sol\":4307:4339  onlyapprovedcontractaddress[add] */\n      0x00\n        /* \"spoilsToken.sol\":4335:4338  add */\n      dup4\n        /* \"spoilsToken.sol\":4307:4339  onlyapprovedcontractaddress[add] */\n      0xffffffffffffffffffffffffffffffffffffffff\n      and\n      0xffffffffffffffffffffffffffffffffffffffff\n      and\n      dup2\n      mstore\n      0x20\n      add\n      swap1\n      dup2\n      mstore\n      0x20\n      add\n      0x00\n      keccak256\n      0x00\n        /* \"spoilsToken.sol\":4307:4345  onlyapprovedcontractaddress[add] =true */\n      0x0100\n      exp\n      dup2\n      sload\n      dup2\n      0xff\n      mul\n      not\n      and\n      swap1\n      dup4\n      iszero\n      iszero\n      mul\n      or\n      swap1\n      sstore\n      pop\n        /* \"spoilsToken.sol\":4220:4362  function setapprovedcontractaddress(address add)external onlyOwner {... */\n      pop\n      jump\t// out\n        /* \"spoilsToken.sol\":4615:4766  function allowance(address owner, address spender) public view virtual override returns (uint256) {... */\n    tag_84:\n        /* \"spoilsToken.sol\":4704:4711  uint256 */\n      0x00\n        /* \"spoilsToken.sol\":4731:4742  _allowances */\n      0x02\n        /* \"spoilsToken.sol\":4731:4749  _allowances[owner] */\n      0x00\n        /* \"spoilsToken.sol\":4743:4748  owner */\n      dup5\n        /* \"spoilsToken.sol\":4731:4749  _allowances[owner] */\n      0xffffffffffffffffffffffffffffffffffffffff\n      and\n      0xffffffffffffffffffffffffffffffffffffffff\n      and\n      dup2\n      mstore\n      0x20\n      add\n      swap1\n      dup2\n      mstore\n      0x20\n      add\n      0x00\n      keccak256\n        /* \"spoilsToken.sol\":4731:4758  _allowances[owner][spender] */\n      0x00\n        /* \"spoilsToken.sol\":4750:4757  spender */\n      dup4\n        /* \"spoilsToken.sol\":4731:4758  _allowances[owner][spender] */\n      0xffffffffffffffffffffffffffffffffffffffff\n      and\n      0xffffffffffffffffffffffffffffffffffffffff\n      and\n      dup2\n      mstore\n      0x20\n      add\n      swap1\n      dup2\n      mstore\n      0x20\n      add\n      0x00\n      keccak256\n      sload\n        /* \"spoilsToken.sol\":4724:4758  return _allowances[owner][spender] */\n      swap1\n      pop\n        /* \"spoilsToken.sol\":4615:4766  function allowance(address owner, address spender) public view virtual override returns (uint256) {... */\n      swap3\n      swap2\n      pop\n      pop\n      jump\t// out\n        /* \"@openzeppelin/contracts/access/Ownable.sol\":2543:2758  function transferOwnership(address newOwner) public virtual onlyOwner {... */\n    tag_88:\n        /* \"@openzeppelin/contracts/access/Ownable.sol\":1531:1544  _checkOwner() */\n      tag_159\n        /* \"@openzeppelin/contracts/access/Ownable.sol\":1531:1542  _checkOwner */\n      tag_127\n        /* \"@openzeppelin/contracts/access/Ownable.sol\":1531:1544  _checkOwner() */\n      jump\t// in\n    tag_159:\n        /* \"@openzeppelin/contracts/access/Ownable.sol\":2647:2648  0 */\n      0x00\n        /* \"@openzeppelin/contracts/access/Ownable.sol\":2627:2649  newOwner == address(0) */\n      0xffffffffffffffffffffffffffffffffffffffff\n      and\n        /* \"@openzeppelin/contracts/access/Ownable.sol\":2627:2635  newOwner */\n      dup2\n        /* \"@openzeppelin/contracts/access/Ownable.sol\":2627:2649  newOwner == address(0) */\n      0xffffffffffffffffffffffffffffffffffffffff\n      and\n      sub\n        /* \"@openzeppelin/contracts/access/Ownable.sol\":2623:2714  if (newOwner == address(0)) {... */\n      tag_161\n      jumpi\n        /* \"@openzeppelin/contracts/access/Ownable.sol\":2700:2701  0 */\n      0x00\n        /* \"@openzeppelin/contracts/access/Ownable.sol\":2672:2703  OwnableInvalidOwner(address(0)) */\n      mload(0x40)\n      0x1e4fbdf700000000000000000000000000000000000000000000000000000000\n      dup2\n      mstore\n      0x04\n      add\n      tag_162\n      swap2\n      swap1\n      tag_63\n      jump\t// in\n    tag_162:\n      mload(0x40)\n      dup1\n      swap2\n      sub\n      swap1\n      revert\n        /* \"@openzeppelin/contracts/access/Ownable.sol\":2623:2714  if (newOwner == address(0)) {... */\n    tag_161:\n        /* \"@openzeppelin/contracts/access/Ownable.sol\":2723:2751  _transferOwnership(newOwner) */\n      tag_163\n        /* \"@openzeppelin/contracts/access/Ownable.sol\":2742:2750  newOwner */\n      dup2\n        /* \"@openzeppelin/contracts/access/Ownable.sol\":2723:2741  _transferOwnership */\n      tag_130\n        /* \"@openzeppelin/contracts/access/Ownable.sol\":2723:2751  _transferOwnership(newOwner) */\n      jump\t// in\n    tag_163:\n        /* \"@openzeppelin/contracts/access/Ownable.sol\":2543:2758  function transferOwnership(address newOwner) public virtual onlyOwner {... */\n      pop\n      jump\t// out\n        /* \"@openzeppelin/contracts/utils/Context.sol\":656:752  function _msgSender() internal view virtual returns (address) {... */\n    tag_99:\n        /* \"@openzeppelin/contracts/utils/Context.sol\":709:716  address */\n      0x00\n        /* \"@openzeppelin/contracts/utils/Context.sol\":735:745  msg.sender */\n      caller\n        /* \"@openzeppelin/contracts/utils/Context.sol\":728:745  return msg.sender */\n      swap1\n      pop\n        /* \"@openzeppelin/contracts/utils/Context.sol\":656:752  function _msgSender() internal view virtual returns (address) {... */\n      swap1\n      jump\t// out\n        /* \"spoilsToken.sol\":11057:11437  function _approve(... */\n    tag_100:\n        /* \"spoilsToken.sol\":11210:11211  0 */\n      0x00\n        /* \"spoilsToken.sol\":11193:11212  owner != address(0) */\n      0xffffffffffffffffffffffffffffffffffffffff\n      and\n        /* \"spoilsToken.sol\":11193:11198  owner */\n      dup4\n        /* \"spoilsToken.sol\":11193:11212  owner != address(0) */\n      0xffffffffffffffffffffffffffffffffffffffff\n      and\n      sub\n        /* \"spoilsToken.sol\":11185:11253  require(owner != address(0), \"ERC20: approve from the zero address\") */\n      tag_166\n      jumpi\n      mload(0x40)\n      0x08c379a000000000000000000000000000000000000000000000000000000000\n      dup2\n      mstore\n      0x04\n      add\n      tag_167\n      swap1\n      tag_168\n      jump\t// in\n    tag_167:\n      mload(0x40)\n      dup1\n      swap2\n      sub\n      swap1\n      revert\n    tag_166:\n        /* \"spoilsToken.sol\":11291:11292  0 */\n      0x00\n        /* \"spoilsToken.sol\":11272:11293  spender != address(0) */\n      0xffffffffffffffffffffffffffffffffffffffff\n      and\n        /* \"spoilsToken.sol\":11272:11279  spender */\n      dup3\n        /* \"spoilsToken.sol\":11272:11293  spender != address(0) */\n      0xffffffffffffffffffffffffffffffffffffffff\n      and\n      sub\n        /* \"spoilsToken.sol\":11264:11332  require(spender != address(0), \"ERC20: approve to the zero address\") */\n      tag_169\n      jumpi\n      mload(0x40)\n      0x08c379a000000000000000000000000000000000000000000000000000000000\n      dup2\n      mstore\n      0x04\n      add\n      tag_170\n      swap1\n      tag_171\n      jump\t// in\n    tag_170:\n      mload(0x40)\n      dup1\n      swap2\n      sub\n      swap1\n      revert\n    tag_169:\n        /* \"spoilsToken.sol\":11375:11381  amount */\n      dup1\n        /* \"spoilsToken.sol\":11345:11356  _allowances */\n      0x02\n        /* \"spoilsToken.sol\":11345:11363  _allowances[owner] */\n      0x00\n        /* \"spoilsToken.sol\":11357:11362  owner */\n      dup6\n        /* \"spoilsToken.sol\":11345:11363  _allowances[owner] */\n      0xffffffffffffffffffffffffffffffffffffffff\n      and\n      0xffffffffffffffffffffffffffffffffffffffff\n      and\n      dup2\n      mstore\n      0x20\n      add\n      swap1\n      dup2\n      mstore\n      0x20\n      add\n      0x00\n      keccak256\n        /* \"spoilsToken.sol\":11345:11372  _allowances[owner][spender] */\n      0x00\n        /* \"spoilsToken.sol\":11364:11371  spender */\n      dup5\n        /* \"spoilsToken.sol\":11345:11372  _allowances[owner][spender] */\n      0xffffffffffffffffffffffffffffffffffffffff\n      and\n      0xffffffffffffffffffffffffffffffffffffffff\n      and\n      dup2\n      mstore\n      0x20\n      add\n      swap1\n      dup2\n      mstore\n      0x20\n      add\n      0x00\n      keccak256\n        /* \"spoilsToken.sol\":11345:11381  _allowances[owner][spender] = amount */\n      dup2\n      swap1\n      sstore\n      pop\n        /* \"spoilsToken.sol\":11413:11420  spender */\n      dup2\n        /* \"spoilsToken.sol\":11397:11429  Approval(owner, spender, amount) */\n      0xffffffffffffffffffffffffffffffffffffffff\n      and\n        /* \"spoilsToken.sol\":11406:11411  owner */\n      dup4\n        /* \"spoilsToken.sol\":11397:11429  Approval(owner, spender, amount) */\n      0xffffffffffffffffffffffffffffffffffffffff\n      and\n      0x8c5be1e5ebec7d5bd14f71427d1e84f3dd0314c0f7b2291e5b200ac8c7c3b925\n        /* \"spoilsToken.sol\":11422:11428  amount */\n      dup4\n        /* \"spoilsToken.sol\":11397:11429  Approval(owner, spender, amount) */\n      mload(0x40)\n      tag_172\n      swap2\n      swap1\n      tag_36\n      jump\t// in\n    tag_172:\n      mload(0x40)\n      dup1\n      swap2\n      sub\n      swap1\n      log3\n        /* \"spoilsToken.sol\":11057:11437  function _approve(... */\n      pop\n      pop\n      pop\n      jump\t// out\n        /* \"spoilsToken.sol\":8086:8819  function _transfer(... */\n    tag_104:\n        /* \"spoilsToken.sol\":8244:8245  0 */\n      0x00\n        /* \"spoilsToken.sol\":8226:8246  sender != address(0) */\n      0xffffffffffffffffffffffffffffffffffffffff\n      and\n        /* \"spoilsToken.sol\":8226:8232  sender */\n      dup4\n        /* \"spoilsToken.sol\":8226:8246  sender != address(0) */\n      0xffffffffffffffffffffffffffffffffffffffff\n      and\n      sub\n        /* \"spoilsToken.sol\":8218:8288  require(sender != address(0), \"ERC20: transfer from the zero address\") */\n      tag_174\n      jumpi\n      mload(0x40)\n      0x08c379a000000000000000000000000000000000000000000000000000000000\n      dup2\n      mstore\n      0x04\n      add\n      tag_175\n      swap1\n      tag_176\n      jump\t// in\n    tag_175:\n      mload(0x40)\n      dup1\n      swap2\n      sub\n      swap1\n      revert\n    tag_174:\n        /* \"spoilsToken.sol\":8328:8329  0 */\n      0x00\n        /* \"spoilsToken.sol\":8307:8330  recipient != address(0) */\n      0xffffffffffffffffffffffffffffffffffffffff\n      and\n        /* \"spoilsToken.sol\":8307:8316  recipient */\n      dup3\n        /* \"spoilsToken.sol\":8307:8330  recipient != address(0) */\n      0xffffffffffffffffffffffffffffffffffffffff\n      and\n      sub\n        /* \"spoilsToken.sol\":8299:8370  require(recipient != address(0), \"ERC20: transfer to the zero address\") */\n      tag_177\n      jumpi\n      mload(0x40)\n      0x08c379a000000000000000000000000000000000000000000000000000000000\n      dup2\n      mstore\n      0x04\n      add\n      tag_178\n      swap1\n      tag_179\n      jump\t// in\n    tag_178:\n      mload(0x40)\n      dup1\n      swap2\n      sub\n      swap1\n      revert\n    tag_177:\n        /* \"spoilsToken.sol\":8383:8430  _beforeTokenTransfer(sender, recipient, amount) */\n      tag_180\n        /* \"spoilsToken.sol\":8404:8410  sender */\n      dup4\n        /* \"spoilsToken.sol\":8412:8421  recipient */\n      dup4\n        /* \"spoilsToken.sol\":8423:8429  amount */\n      dup4\n        /* \"spoilsToken.sol\":8383:8403  _beforeTokenTransfer */\n      tag_181\n        /* \"spoilsToken.sol\":8383:8430  _beforeTokenTransfer(sender, recipient, amount) */\n      jump\t// in\n    tag_180:\n        /* \"spoilsToken.sol\":8443:8464  uint256 senderBalance */\n      0x00\n        /* \"spoilsToken.sol\":8467:8476  _balances */\n      0x01\n        /* \"spoilsToken.sol\":8467:8484  _balances[sender] */\n      0x00\n        /* \"spoilsToken.sol\":8477:8483  sender */\n      dup6\n        /* \"spoilsToken.sol\":8467:8484  _balances[sender] */\n      0xffffffffffffffffffffffffffffffffffffffff\n      and\n      0xffffffffffffffffffffffffffffffffffffffff\n      and\n      dup2\n      mstore\n      0x20\n      add\n      swap1\n      dup2\n      mstore\n      0x20\n      add\n      0x00\n      keccak256\n      sload\n        /* \"spoilsToken.sol\":8443:8484  uint256 senderBalance = _balances[sender] */\n      swap1\n      pop\n        /* \"spoilsToken.sol\":8520:8526  amount */\n      dup2\n        /* \"spoilsToken.sol\":8503:8516  senderBalance */\n      dup2\n        /* \"spoilsToken.sol\":8503:8526  senderBalance >= amount */\n      lt\n      iszero\n        /* \"spoilsToken.sol\":8495:8569  require(senderBalance >= amount, \"ERC20: transfer amount exceeds balance\") */\n      tag_182\n      jumpi\n      mload(0x40)\n      0x08c379a000000000000000000000000000000000000000000000000000000000\n      dup2\n      mstore\n      0x04\n      add\n      tag_183\n      swap1\n      tag_184\n      jump\t// in\n    tag_183:\n      mload(0x40)\n      dup1\n      swap2\n      sub\n      swap1\n      revert\n    tag_182:\n        /* \"spoilsToken.sol\":8641:8647  amount */\n      dup2\n        /* \"spoilsToken.sol\":8625:8638  senderBalance */\n      dup2\n        /* \"spoilsToken.sol\":8625:8647  senderBalance - amount */\n      sub\n        /* \"spoilsToken.sol\":8605:8614  _balances */\n      0x01\n        /* \"spoilsToken.sol\":8605:8622  _balances[sender] */\n      0x00\n        /* \"spoilsToken.sol\":8615:8621  sender */\n      dup7\n        /* \"spoilsToken.sol\":8605:8622  _balances[sender] */\n      0xffffffffffffffffffffffffffffffffffffffff\n      and\n      0xffffffffffffffffffffffffffffffffffffffff\n      and\n      dup2\n      mstore\n      0x20\n      add\n      swap1\n      dup2\n      mstore\n      0x20\n      add\n      0x00\n      keccak256\n        /* \"spoilsToken.sol\":8605:8647  _balances[sender] = senderBalance - amount */\n      dup2\n      swap1\n      sstore\n      pop\n        /* \"spoilsToken.sol\":8693:8699  amount */\n      dup2\n        /* \"spoilsToken.sol\":8669:8678  _balances */\n      0x01\n        /* \"spoilsToken.sol\":8669:8689  _balances[recipient] */\n      0x00\n        /* \"spoilsToken.sol\":8679:8688  recipient */\n      dup6\n        /* \"spoilsToken.sol\":8669:8689  _balances[recipient] */\n      0xffffffffffffffffffffffffffffffffffffffff\n      and\n      0xffffffffffffffffffffffffffffffffffffffff\n      and\n      dup2\n      mstore\n      0x20\n      add\n      swap1\n      dup2\n      mstore\n      0x20\n      add\n      0x00\n      keccak256\n      0x00\n        /* \"spoilsToken.sol\":8669:8699  _balances[recipient] += amount */\n      dup3\n      dup3\n      sload\n      tag_185\n      swap2\n      swap1\n      tag_117\n      jump\t// in\n    tag_185:\n      swap3\n      pop\n      pop\n      dup2\n      swap1\n      sstore\n      pop\n        /* \"spoilsToken.sol\":8734:8743  recipient */\n      dup3\n        /* \"spoilsToken.sol\":8717:8752  Transfer(sender, recipient, amount) */\n      0xffffffffffffffffffffffffffffffffffffffff\n      and\n        /* \"spoilsToken.sol\":8726:8732  sender */\n      dup5\n        /* \"spoilsToken.sol\":8717:8752  Transfer(sender, recipient, amount) */\n      0xffffffffffffffffffffffffffffffffffffffff\n      and\n      0xddf252ad1be2c89b69c2b068fc378daa952ba7f163c4a11628f55a4df523b3ef\n        /* \"spoilsToken.sol\":8745:8751  amount */\n      dup5\n        /* \"spoilsToken.sol\":8717:8752  Transfer(sender, recipient, amount) */\n      mload(0x40)\n      tag_186\n      swap2\n      swap1\n      tag_36\n      jump\t// in\n    tag_186:\n      mload(0x40)\n      dup1\n      swap2\n      sub\n      swap1\n      log3\n        /* \"spoilsToken.sol\":8765:8811  _afterTokenTransfer(sender, recipient, amount) */\n      tag_187\n        /* \"spoilsToken.sol\":8785:8791  sender */\n      dup5\n        /* \"spoilsToken.sol\":8793:8802  recipient */\n      dup5\n        /* \"spoilsToken.sol\":8804:8810  amount */\n      dup5\n        /* \"spoilsToken.sol\":8765:8784  _afterTokenTransfer */\n      tag_188\n        /* \"spoilsToken.sol\":8765:8811  _afterTokenTransfer(sender, recipient, amount) */\n      jump\t// in\n    tag_187:\n        /* \"spoilsToken.sol\":8207:8819  {... */\n      pop\n        /* \"spoilsToken.sol\":8086:8819  function _transfer(... */\n      pop\n      pop\n      pop\n      jump\t// out\n        /* \"spoilsToken.sol\":9106:9505  function _mint(address account, uint256 amount) internal virtual {... */\n    tag_123:\n        /* \"spoilsToken.sol\":9209:9210  0 */\n      0x00\n        /* \"spoilsToken.sol\":9190:9211  account != address(0) */\n      0xffffffffffffffffffffffffffffffffffffffff\n      and\n        /* \"spoilsToken.sol\":9190:9197  account */\n      dup3\n        /* \"spoilsToken.sol\":9190:9211  account != address(0) */\n      0xffffffffffffffffffffffffffffffffffffffff\n      and\n      sub\n        /* \"spoilsToken.sol\":9182:9247  require(account != address(0), \"ERC20: mint to the zero address\") */\n      tag_190\n      jumpi\n      mload(0x40)\n      0x08c379a000000000000000000000000000000000000000000000000000000000\n      dup2\n      mstore\n      0x04\n      add\n      tag_191\n      swap1\n      tag_192\n      jump\t// in\n    tag_191:\n      mload(0x40)\n      dup1\n      swap2\n      sub\n      swap1\n      revert\n    tag_190:\n        /* \"spoilsToken.sol\":9260:9309  _beforeTokenTransfer(address(0), account, amount) */\n      tag_193\n        /* \"spoilsToken.sol\":9289:9290  0 */\n      0x00\n        /* \"spoilsToken.sol\":9293:9300  account */\n      dup4\n        /* \"spoilsToken.sol\":9302:9308  amount */\n      dup4\n        /* \"spoilsToken.sol\":9260:9280  _beforeTokenTransfer */\n      tag_181\n        /* \"spoilsToken.sol\":9260:9309  _beforeTokenTransfer(address(0), account, amount) */\n      jump\t// in\n    tag_193:\n        /* \"spoilsToken.sol\":9338:9344  amount */\n      dup1\n        /* \"spoilsToken.sol\":9322:9334  _totalSupply */\n      0x03\n      0x00\n        /* \"spoilsToken.sol\":9322:9344  _totalSupply += amount */\n      dup3\n      dup3\n      sload\n      tag_194\n      swap2\n      swap1\n      tag_117\n      jump\t// in\n    tag_194:\n      swap3\n      pop\n      pop\n      dup2\n      swap1\n      sstore\n      pop\n        /* \"spoilsToken.sol\":9377:9383  amount */\n      dup1\n        /* \"spoilsToken.sol\":9355:9364  _balances */\n      0x01\n        /* \"spoilsToken.sol\":9355:9373  _balances[account] */\n      0x00\n        /* \"spoilsToken.sol\":9365:9372  account */\n      dup5\n        /* \"spoilsToken.sol\":9355:9373  _balances[account] */\n      0xffffffffffffffffffffffffffffffffffffffff\n      and\n      0xffffffffffffffffffffffffffffffffffffffff\n      and\n      dup2\n      mstore\n      0x20\n      add\n      swap1\n      dup2\n      mstore\n      0x20\n      add\n      0x00\n      keccak256\n      0x00\n        /* \"spoilsToken.sol\":9355:9383  _balances[account] += amount */\n      dup3\n      dup3\n      sload\n      tag_195\n      swap2\n      swap1\n      tag_117\n      jump\t// in\n    tag_195:\n      swap3\n      pop\n      pop\n      dup2\n      swap1\n      sstore\n      pop\n        /* \"spoilsToken.sol\":9420:9427  account */\n      dup2\n        /* \"spoilsToken.sol\":9399:9436  Transfer(address(0), account, amount) */\n      0xffffffffffffffffffffffffffffffffffffffff\n      and\n        /* \"spoilsToken.sol\":9416:9417  0 */\n      0x00\n        /* \"spoilsToken.sol\":9399:9436  Transfer(address(0), account, amount) */\n      0xffffffffffffffffffffffffffffffffffffffff\n      and\n      0xddf252ad1be2c89b69c2b068fc378daa952ba7f163c4a11628f55a4df523b3ef\n        /* \"spoilsToken.sol\":9429:9435  amount */\n      dup4\n        /* \"spoilsToken.sol\":9399:9436  Transfer(address(0), account, amount) */\n      mload(0x40)\n      tag_196\n      swap2\n      swap1\n      tag_36\n      jump\t// in\n    tag_196:\n      mload(0x40)\n      dup1\n      swap2\n      sub\n      swap1\n      log3\n        /* \"spoilsToken.sol\":9449:9497  _afterTokenTransfer(address(0), account, amount) */\n      tag_197\n        /* \"spoilsToken.sol\":9477:9478  0 */\n      0x00\n        /* \"spoilsToken.sol\":9481:9488  account */\n      dup4\n        /* \"spoilsToken.sol\":9490:9496  amount */\n      dup4\n        /* \"spoilsToken.sol\":9449:9468  _afterTokenTransfer */\n      tag_188\n        /* \"spoilsToken.sol\":9449:9497  _afterTokenTransfer(address(0), account, amount) */\n      jump\t// in\n    tag_197:\n        /* \"spoilsToken.sol\":9106:9505  function _mint(address account, uint256 amount) internal virtual {... */\n      pop\n      pop\n      jump\t// out\n        /* \"@openzeppelin/contracts/access/Ownable.sol\":1796:1958  function _checkOwner() internal view virtual {... */\n    tag_127:\n        /* \"@openzeppelin/contracts/access/Ownable.sol\":1866:1878  _msgSender() */\n      tag_199\n        /* \"@openzeppelin/contracts/access/Ownable.sol\":1866:1876  _msgSender */\n      tag_99\n        /* \"@openzeppelin/contracts/access/Ownable.sol\":1866:1878  _msgSender() */\n      jump\t// in\n    tag_199:\n        /* \"@openzeppelin/contracts/access/Ownable.sol\":1855:1878  owner() != _msgSender() */\n      0xffffffffffffffffffffffffffffffffffffffff\n      and\n        /* \"@openzeppelin/contracts/access/Ownable.sol\":1855:1862  owner() */\n      tag_200\n        /* \"@openzeppelin/contracts/access/Ownable.sol\":1855:1860  owner */\n      tag_61\n        /* \"@openzeppelin/contracts/access/Ownable.sol\":1855:1862  owner() */\n      jump\t// in\n    tag_200:\n        /* \"@openzeppelin/contracts/access/Ownable.sol\":1855:1878  owner() != _msgSender() */\n      0xffffffffffffffffffffffffffffffffffffffff\n      and\n      eq\n        /* \"@openzeppelin/contracts/access/Ownable.sol\":1851:1952  if (owner() != _msgSender()) {... */\n      tag_201\n      jumpi\n        /* \"@openzeppelin/contracts/access/Ownable.sol\":1928:1940  _msgSender() */\n      tag_202\n        /* \"@openzeppelin/contracts/access/Ownable.sol\":1928:1938  _msgSender */\n      tag_99\n        /* \"@openzeppelin/contracts/access/Ownable.sol\":1928:1940  _msgSender() */\n      jump\t// in\n    tag_202:\n        /* \"@openzeppelin/contracts/access/Ownable.sol\":1901:1941  OwnableUnauthorizedAccount(_msgSender()) */\n      mload(0x40)\n      0x118cdaa700000000000000000000000000000000000000000000000000000000\n      dup2\n      mstore\n      0x04\n      add\n      tag_203\n      swap2\n      swap1\n      tag_63\n      jump\t// in\n    tag_203:\n      mload(0x40)\n      dup1\n      swap2\n      sub\n      swap1\n      revert\n        /* \"@openzeppelin/contracts/access/Ownable.sol\":1851:1952  if (owner() != _msgSender()) {... */\n    tag_201:\n        /* \"@openzeppelin/contracts/access/Ownable.sol\":1796:1958  function _checkOwner() internal view virtual {... */\n      jump\t// out\n        /* \"@openzeppelin/contracts/access/Ownable.sol\":2912:3099  function _transferOwnership(address newOwner) internal virtual {... */\n    tag_130:\n        /* \"@openzeppelin/contracts/access/Ownable.sol\":2985:3001  address oldOwner */\n      0x00\n        /* \"@openzeppelin/contracts/access/Ownable.sol\":3004:3010  _owner */\n      dup1\n      0x00\n      swap1\n      sload\n      swap1\n      0x0100\n      exp\n      swap1\n      div\n      0xffffffffffffffffffffffffffffffffffffffff\n      and\n        /* \"@openzeppelin/contracts/access/Ownable.sol\":2985:3010  address oldOwner = _owner */\n      swap1\n      pop\n        /* \"@openzeppelin/contracts/access/Ownable.sol\":3029:3037  newOwner */\n      dup2\n        /* \"@openzeppelin/contracts/access/Ownable.sol\":3020:3026  _owner */\n      0x00\n      dup1\n        /* \"@openzeppelin/contracts/access/Ownable.sol\":3020:3037  _owner = newOwner */\n      0x0100\n      exp\n      dup2\n      sload\n      dup2\n      0xffffffffffffffffffffffffffffffffffffffff\n      mul\n      not\n      and\n      swap1\n      dup4\n      0xffffffffffffffffffffffffffffffffffffffff\n      and\n      mul\n      or\n      swap1\n      sstore\n      pop\n        /* \"@openzeppelin/contracts/access/Ownable.sol\":3083:3091  newOwner */\n      dup2\n        /* \"@openzeppelin/contracts/access/Ownable.sol\":3052:3092  OwnershipTransferred(oldOwner, newOwner) */\n      0xffffffffffffffffffffffffffffffffffffffff\n      and\n        /* \"@openzeppelin/contracts/access/Ownable.sol\":3073:3081  oldOwner */\n      dup2\n        /* \"@openzeppelin/contracts/access/Ownable.sol\":3052:3092  OwnershipTransferred(oldOwner, newOwner) */\n      0xffffffffffffffffffffffffffffffffffffffff\n      and\n      0x8be0079c531659141344cd1fd0a4f28419497f9722a3daafe3b4186f6b6457e0\n      mload(0x40)\n      mload(0x40)\n      dup1\n      swap2\n      sub\n      swap1\n      log3\n        /* \"@openzeppelin/contracts/access/Ownable.sol\":2975:3099  {... */\n      pop\n        /* \"@openzeppelin/contracts/access/Ownable.sol\":2912:3099  function _transferOwnership(address newOwner) internal virtual {... */\n      pop\n      jump\t// out\n        /* \"spoilsToken.sol\":9838:10429  function _burn(address account, uint256 amount) internal virtual {... */\n    tag_143:\n        /* \"spoilsToken.sol\":9941:9942  0 */\n      0x00\n        /* \"spoilsToken.sol\":9922:9943  account != address(0) */\n      0xffffffffffffffffffffffffffffffffffffffff\n      and\n        /* \"spoilsToken.sol\":9922:9929  account */\n      dup3\n        /* \"spoilsToken.sol\":9922:9943  account != address(0) */\n      0xffffffffffffffffffffffffffffffffffffffff\n      and\n      sub\n        /* \"spoilsToken.sol\":9914:9981  require(account != address(0), \"ERC20: burn from the zero address\") */\n      tag_206\n      jumpi\n      mload(0x40)\n      0x08c379a000000000000000000000000000000000000000000000000000000000\n      dup2\n      mstore\n      0x04\n      add\n      tag_207\n      swap1\n      tag_208\n      jump\t// in\n    tag_207:\n      mload(0x40)\n      dup1\n      swap2\n      sub\n      swap1\n      revert\n    tag_206:\n        /* \"spoilsToken.sol\":9994:10043  _beforeTokenTransfer(account, address(0), amount) */\n      tag_209\n        /* \"spoilsToken.sol\":10015:10022  account */\n      dup3\n        /* \"spoilsToken.sol\":10032:10033  0 */\n      0x00\n        /* \"spoilsToken.sol\":10036:10042  amount */\n      dup4\n        /* \"spoilsToken.sol\":9994:10014  _beforeTokenTransfer */\n      tag_181\n        /* \"spoilsToken.sol\":9994:10043  _beforeTokenTransfer(account, address(0), amount) */\n      jump\t// in\n    tag_209:\n        /* \"spoilsToken.sol\":10056:10078  uint256 accountBalance */\n      0x00\n        /* \"spoilsToken.sol\":10081:10090  _balances */\n      0x01\n        /* \"spoilsToken.sol\":10081:10099  _balances[account] */\n      0x00\n        /* \"spoilsToken.sol\":10091:10098  account */\n      dup5\n        /* \"spoilsToken.sol\":10081:10099  _balances[account] */\n      0xffffffffffffffffffffffffffffffffffffffff\n      and\n      0xffffffffffffffffffffffffffffffffffffffff\n      and\n      dup2\n      mstore\n      0x20\n      add\n      swap1\n      dup2\n      mstore\n      0x20\n      add\n      0x00\n      keccak256\n      sload\n        /* \"spoilsToken.sol\":10056:10099  uint256 accountBalance = _balances[account] */\n      swap1\n      pop\n        /* \"spoilsToken.sol\":10136:10142  amount */\n      dup2\n        /* \"spoilsToken.sol\":10118:10132  accountBalance */\n      dup2\n        /* \"spoilsToken.sol\":10118:10142  accountBalance >= amount */\n      lt\n      iszero\n        /* \"spoilsToken.sol\":10110:10181  require(accountBalance >= amount, \"ERC20: burn amount exceeds balance\") */\n      tag_210\n      jumpi\n      mload(0x40)\n      0x08c379a000000000000000000000000000000000000000000000000000000000\n      dup2\n      mstore\n      0x04\n      add\n      tag_211\n      swap1\n      tag_212\n      jump\t// in\n    tag_211:\n      mload(0x40)\n      dup1\n      swap2\n      sub\n      swap1\n      revert\n    tag_210:\n        /* \"spoilsToken.sol\":10255:10261  amount */\n      dup2\n        /* \"spoilsToken.sol\":10238:10252  accountBalance */\n      dup2\n        /* \"spoilsToken.sol\":10238:10261  accountBalance - amount */\n      sub\n        /* \"spoilsToken.sol\":10217:10226  _balances */\n      0x01\n        /* \"spoilsToken.sol\":10217:10235  _balances[account] */\n      0x00\n        /* \"spoilsToken.sol\":10227:10234  account */\n      dup6\n        /* \"spoilsToken.sol\":10217:10235  _balances[account] */\n      0xffffffffffffffffffffffffffffffffffffffff\n      and\n      0xffffffffffffffffffffffffffffffffffffffff\n      and\n      dup2\n      mstore\n      0x20\n      add\n      swap1\n      dup2\n      mstore\n      0x20\n      add\n      0x00\n      keccak256\n        /* \"spoilsToken.sol\":10217:10261  _balances[account] = accountBalance - amount */\n      dup2\n      swap1\n      sstore\n      pop\n        /* \"spoilsToken.sol\":10299:10305  amount */\n      dup2\n        /* \"spoilsToken.sol\":10283:10295  _totalSupply */\n      0x03\n      0x00\n        /* \"spoilsToken.sol\":10283:10305  _totalSupply -= amount */\n      dup3\n      dup3\n      sload\n      tag_213\n      swap2\n      swap1\n      tag_214\n      jump\t// in\n    tag_213:\n      swap3\n      pop\n      pop\n      dup2\n      swap1\n      sstore\n      pop\n        /* \"spoilsToken.sol\":10349:10350  0 */\n      0x00\n        /* \"spoilsToken.sol\":10323:10360  Transfer(account, address(0), amount) */\n      0xffffffffffffffffffffffffffffffffffffffff\n      and\n        /* \"spoilsToken.sol\":10332:10339  account */\n      dup4\n        /* \"spoilsToken.sol\":10323:10360  Transfer(account, address(0), amount) */\n      0xffffffffffffffffffffffffffffffffffffffff\n      and\n      0xddf252ad1be2c89b69c2b068fc378daa952ba7f163c4a11628f55a4df523b3ef\n        /* \"spoilsToken.sol\":10353:10359  amount */\n      dup5\n        /* \"spoilsToken.sol\":10323:10360  Transfer(account, address(0), amount) */\n      mload(0x40)\n      tag_215\n      swap2\n      swap1\n      tag_36\n      jump\t// in\n    tag_215:\n      mload(0x40)\n      dup1\n      swap2\n      sub\n      swap1\n      log3\n        /* \"spoilsToken.sol\":10373:10421  _afterTokenTransfer(account, address(0), amount) */\n      tag_216\n        /* \"spoilsToken.sol\":10393:10400  account */\n      dup4\n        /* \"spoilsToken.sol\":10410:10411  0 */\n      0x00\n        /* \"spoilsToken.sol\":10414:10420  amount */\n      dup5\n        /* \"spoilsToken.sol\":10373:10392  _afterTokenTransfer */\n      tag_188\n        /* \"spoilsToken.sol\":10373:10421  _afterTokenTransfer(account, address(0), amount) */\n      jump\t// in\n    tag_216:\n        /* \"spoilsToken.sol\":9903:10429  {... */\n      pop\n        /* \"spoilsToken.sol\":9838:10429  function _burn(address account, uint256 amount) internal virtual {... */\n      pop\n      pop\n      jump\t// out\n        /* \"spoilsToken.sol\":12037:12162  function _beforeTokenTransfer(... */\n    tag_181:\n      pop\n      pop\n      pop\n      jump\t// out\n        /* \"spoilsToken.sol\":12766:12890  function _afterTokenTransfer(... */\n    tag_188:\n      pop\n      pop\n      pop\n      jump\t// out\n        /* \"#utility.yul\":7:106   */\n    tag_219:\n        /* \"#utility.yul\":59:65   */\n      0x00\n        /* \"#utility.yul\":93:98   */\n      dup2\n        /* \"#utility.yul\":87:99   */\n      mload\n        /* \"#utility.yul\":77:99   */\n      swap1\n      pop\n        /* \"#utility.yul\":7:106   */\n      swap2\n      swap1\n      pop\n      jump\t// out\n        /* \"#utility.yul\":112:281   */\n    tag_220:\n        /* \"#utility.yul\":196:207   */\n      0x00\n        /* \"#utility.yul\":230:236   */\n      dup3\n        /* \"#utility.yul\":225:228   */\n      dup3\n        /* \"#utility.yul\":218:237   */\n      mstore\n        /* \"#utility.yul\":270:274   */\n      0x20\n        /* \"#utility.yul\":265:268   */\n      dup3\n        /* \"#utility.yul\":261:275   */\n      add\n        /* \"#utility.yul\":246:275   */\n      swap1\n      pop\n        /* \"#utility.yul\":112:281   */\n      swap3\n      swap2\n      pop\n      pop\n      jump\t// out\n        /* \"#utility.yul\":287:533   */\n    tag_221:\n        /* \"#utility.yul\":368:369   */\n      0x00\n        /* \"#utility.yul\":378:491   */\n    tag_270:\n        /* \"#utility.yul\":392:398   */\n      dup4\n        /* \"#utility.yul\":389:390   */\n      dup2\n        /* \"#utility.yul\":386:399   */\n      lt\n        /* \"#utility.yul\":378:491   */\n      iszero\n      tag_272\n      jumpi\n        /* \"#utility.yul\":477:478   */\n      dup1\n        /* \"#utility.yul\":472:475   */\n      dup3\n        /* \"#utility.yul\":468:479   */\n      add\n        /* \"#utility.yul\":462:480   */\n      mload\n        /* \"#utility.yul\":458:459   */\n      dup2\n        /* \"#utility.yul\":453:456   */\n      dup5\n        /* \"#utility.yul\":449:460   */\n      add\n        /* \"#utility.yul\":442:481   */\n      mstore\n        /* \"#utility.yul\":414:416   */\n      0x20\n        /* \"#utility.yul\":411:412   */\n      dup2\n        /* \"#utility.yul\":407:417   */\n      add\n        /* \"#utility.yul\":402:417   */\n      swap1\n      pop\n        /* \"#utility.yul\":378:491   */\n      jump(tag_270)\n    tag_272:\n        /* \"#utility.yul\":525:526   */\n      0x00\n        /* \"#utility.yul\":516:522   */\n      dup5\n        /* \"#utility.yul\":511:514   */\n      dup5\n        /* \"#utility.yul\":507:523   */\n      add\n        /* \"#utility.yul\":500:527   */\n      mstore\n        /* \"#utility.yul\":349:533   */\n      pop\n        /* \"#utility.yul\":287:533   */\n      pop\n      pop\n      pop\n      jump\t// out\n        /* \"#utility.yul\":539:641   */\n    tag_222:\n        /* \"#utility.yul\":580:586   */\n      0x00\n        /* \"#utility.yul\":631:633   */\n      0x1f\n        /* \"#utility.yul\":627:634   */\n      not\n        /* \"#utility.yul\":622:624   */\n      0x1f\n        /* \"#utility.yul\":615:620   */\n      dup4\n        /* \"#utility.yul\":611:625   */\n      add\n        /* \"#utility.yul\":607:635   */\n      and\n        /* \"#utility.yul\":597:635   */\n      swap1\n      pop\n        /* \"#utility.yul\":539:641   */\n      swap2\n      swap1\n      pop\n      jump\t// out\n        /* \"#utility.yul\":647:1024   */\n    tag_223:\n        /* \"#utility.yul\":735:738   */\n      0x00\n        /* \"#utility.yul\":763:802   */\n      tag_275\n        /* \"#utility.yul\":796:801   */\n      dup3\n        /* \"#utility.yul\":763:802   */\n      tag_219\n      jump\t// in\n    tag_275:\n        /* \"#utility.yul\":818:889   */\n      tag_276\n        /* \"#utility.yul\":882:888   */\n      dup2\n        /* \"#utility.yul\":877:880   */\n      dup6\n        /* \"#utility.yul\":818:889   */\n      tag_220\n      jump\t// in\n    tag_276:\n        /* \"#utility.yul\":811:889   */\n      swap4\n      pop\n        /* \"#utility.yul\":898:963   */\n      tag_277\n        /* \"#utility.yul\":956:962   */\n      dup2\n        /* \"#utility.yul\":951:954   */\n      dup6\n        /* \"#utility.yul\":944:948   */\n      0x20\n        /* \"#utility.yul\":937:942   */\n      dup7\n        /* \"#utility.yul\":933:949   */\n      add\n        /* \"#utility.yul\":898:963   */\n      tag_221\n      jump\t// in\n    tag_277:\n        /* \"#utility.yul\":988:1017   */\n      tag_278\n        /* \"#utility.yul\":1010:1016   */\n      dup2\n        /* \"#utility.yul\":988:1017   */\n      tag_222\n      jump\t// in\n    tag_278:\n        /* \"#utility.yul\":983:986   */\n      dup5\n        /* \"#utility.yul\":979:1018   */\n      add\n        /* \"#utility.yul\":972:1018   */\n      swap2\n      pop\n        /* \"#utility.yul\":739:1024   */\n      pop\n        /* \"#utility.yul\":647:1024   */\n      swap3\n      swap2\n      pop\n      pop\n      jump\t// out\n        /* \"#utility.yul\":1030:1343   */\n    tag_26:\n        /* \"#utility.yul\":1143:1147   */\n      0x00\n        /* \"#utility.yul\":1181:1183   */\n      0x20\n        /* \"#utility.yul\":1170:1179   */\n      dup3\n        /* \"#utility.yul\":1166:1184   */\n      add\n        /* \"#utility.yul\":1158:1184   */\n      swap1\n      pop\n        /* \"#utility.yul\":1230:1239   */\n      dup2\n        /* \"#utility.yul\":1224:1228   */\n      dup2\n        /* \"#utility.yul\":1220:1240   */\n      sub\n        /* \"#utility.yul\":1216:1217   */\n      0x00\n        /* \"#utility.yul\":1205:1214   */\n      dup4\n        /* \"#utility.yul\":1201:1218   */\n      add\n        /* \"#utility.yul\":1194:1241   */\n      mstore\n        /* \"#utility.yul\":1258:1336   */\n      tag_280\n        /* \"#utility.yul\":1331:1335   */\n      dup2\n        /* \"#utility.yul\":1322:1328   */\n      dup5\n        /* \"#utility.yul\":1258:1336   */\n      tag_223\n      jump\t// in\n    tag_280:\n        /* \"#utility.yul\":1250:1336   */\n      swap1\n      pop\n        /* \"#utility.yul\":1030:1343   */\n      swap3\n      swap2\n      pop\n      pop\n      jump\t// out\n        /* \"#utility.yul\":1430:1547   */\n    tag_225:\n        /* \"#utility.yul\":1539:1540   */\n      0x00\n        /* \"#utility.yul\":1536:1537   */\n      dup1\n        /* \"#utility.yul\":1529:1541   */\n      revert\n        /* \"#utility.yul\":1676:1802   */\n    tag_227:\n        /* \"#utility.yul\":1713:1720   */\n      0x00\n        /* \"#utility.yul\":1753:1795   */\n      0xffffffffffffffffffffffffffffffffffffffff\n        /* \"#utility.yul\":1746:1751   */\n      dup3\n        /* \"#utility.yul\":1742:1796   */\n      and\n        /* \"#utility.yul\":1731:1796   */\n      swap1\n      pop\n        /* \"#utility.yul\":1676:1802   */\n      swap2\n      swap1\n      pop\n      jump\t// out\n        /* \"#utility.yul\":1808:1904   */\n    tag_228:\n        /* \"#utility.yul\":1845:1852   */\n      0x00\n        /* \"#utility.yul\":1874:1898   */\n      tag_286\n        /* \"#utility.yul\":1892:1897   */\n      dup3\n        /* \"#utility.yul\":1874:1898   */\n      tag_227\n      jump\t// in\n    tag_286:\n        /* \"#utility.yul\":1863:1898   */\n      swap1\n      pop\n        /* \"#utility.yul\":1808:1904   */\n      swap2\n      swap1\n      pop\n      jump\t// out\n        /* \"#utility.yul\":1910:2032   */\n    tag_229:\n        /* \"#utility.yul\":1983:2007   */\n      tag_288\n        /* \"#utility.yul\":2001:2006   */\n      dup2\n        /* \"#utility.yul\":1983:2007   */\n      tag_228\n      jump\t// in\n    tag_288:\n        /* \"#utility.yul\":1976:1981   */\n      dup2\n        /* \"#utility.yul\":1973:2008   */\n      eq\n        /* \"#utility.yul\":1963:2026   */\n      tag_289\n      jumpi\n        /* \"#utility.yul\":2022:2023   */\n      0x00\n        /* \"#utility.yul\":2019:2020   */\n      dup1\n        /* \"#utility.yul\":2012:2024   */\n      revert\n        /* \"#utility.yul\":1963:2026   */\n    tag_289:\n        /* \"#utility.yul\":1910:2032   */\n      pop\n      jump\t// out\n        /* \"#utility.yul\":2038:2177   */\n    tag_230:\n        /* \"#utility.yul\":2084:2089   */\n      0x00\n        /* \"#utility.yul\":2122:2128   */\n      dup2\n        /* \"#utility.yul\":2109:2129   */\n      calldataload\n        /* \"#utility.yul\":2100:2129   */\n      swap1\n      pop\n        /* \"#utility.yul\":2138:2171   */\n      tag_291\n        /* \"#utility.yul\":2165:2170   */\n      dup2\n        /* \"#utility.yul\":2138:2171   */\n      tag_229\n      jump\t// in\n    tag_291:\n        /* \"#utility.yul\":2038:2177   */\n      swap3\n      swap2\n      pop\n      pop\n      jump\t// out\n        /* \"#utility.yul\":2183:2260   */\n    tag_231:\n        /* \"#utility.yul\":2220:2227   */\n      0x00\n        /* \"#utility.yul\":2249:2254   */\n      dup2\n        /* \"#utility.yul\":2238:2254   */\n      swap1\n      pop\n        /* \"#utility.yul\":2183:2260   */\n      swap2\n      swap1\n      pop\n      jump\t// out\n        /* \"#utility.yul\":2266:2388   */\n    tag_232:\n        /* \"#utility.yul\":2339:2363   */\n      tag_294\n        /* \"#utility.yul\":2357:2362   */\n      dup2\n        /* \"#utility.yul\":2339:2363   */\n      tag_231\n      jump\t// in\n    tag_294:\n        /* \"#utility.yul\":2332:2337   */\n      dup2\n        /* \"#utility.yul\":2329:2364   */\n      eq\n        /* \"#utility.yul\":2319:2382   */\n      tag_295\n      jumpi\n        /* \"#utility.yul\":2378:2379   */\n      0x00\n        /* \"#utility.yul\":2375:2376   */\n      dup1\n        /* \"#utility.yul\":2368:2380   */\n      revert\n        /* \"#utility.yul\":2319:2382   */\n    tag_295:\n        /* \"#utility.yul\":2266:2388   */\n      pop\n      jump\t// out\n        /* \"#utility.yul\":2394:2533   */\n    tag_233:\n        /* \"#utility.yul\":2440:2445   */\n      0x00\n        /* \"#utility.yul\":2478:2484   */\n      dup2\n        /* \"#utility.yul\":2465:2485   */\n      calldataload\n        /* \"#utility.yul\":2456:2485   */\n      swap1\n      pop\n        /* \"#utility.yul\":2494:2527   */\n      tag_297\n        /* \"#utility.yul\":2521:2526   */\n      dup2\n        /* \"#utility.yul\":2494:2527   */\n      tag_232\n      jump\t// in\n    tag_297:\n        /* \"#utility.yul\":2394:2533   */\n      swap3\n      swap2\n      pop\n      pop\n      jump\t// out\n        /* \"#utility.yul\":2539:3013   */\n    tag_29:\n        /* \"#utility.yul\":2607:2613   */\n      0x00\n        /* \"#utility.yul\":2615:2621   */\n      dup1\n        /* \"#utility.yul\":2664:2666   */\n      0x40\n        /* \"#utility.yul\":2652:2661   */\n      dup4\n        /* \"#utility.yul\":2643:2650   */\n      dup6\n        /* \"#utility.yul\":2639:2662   */\n      sub\n        /* \"#utility.yul\":2635:2667   */\n      slt\n        /* \"#utility.yul\":2632:2751   */\n      iszero\n      tag_299\n      jumpi\n        /* \"#utility.yul\":2670:2749   */\n      tag_300\n      tag_225\n      jump\t// in\n    tag_300:\n        /* \"#utility.yul\":2632:2751   */\n    tag_299:\n        /* \"#utility.yul\":2790:2791   */\n      0x00\n        /* \"#utility.yul\":2815:2868   */\n      tag_301\n        /* \"#utility.yul\":2860:2867   */\n      dup6\n        /* \"#utility.yul\":2851:2857   */\n      dup3\n        /* \"#utility.yul\":2840:2849   */\n      dup7\n        /* \"#utility.yul\":2836:2858   */\n      add\n        /* \"#utility.yul\":2815:2868   */\n      tag_230\n      jump\t// in\n    tag_301:\n        /* \"#utility.yul\":2805:2868   */\n      swap3\n      pop\n        /* \"#utility.yul\":2761:2878   */\n      pop\n        /* \"#utility.yul\":2917:2919   */\n      0x20\n        /* \"#utility.yul\":2943:2996   */\n      tag_302\n        /* \"#utility.yul\":2988:2995   */\n      dup6\n        /* \"#utility.yul\":2979:2985   */\n      dup3\n        /* \"#utility.yul\":2968:2977   */\n      dup7\n        /* \"#utility.yul\":2964:2986   */\n      add\n        /* \"#utility.yul\":2943:2996   */\n      tag_233\n      jump\t// in\n    tag_302:\n        /* \"#utility.yul\":2933:2996   */\n      swap2\n      pop\n        /* \"#utility.yul\":2888:3006   */\n      pop\n        /* \"#utility.yul\":2539:3013   */\n      swap3\n      pop\n      swap3\n      swap1\n      pop\n      jump\t// out\n        /* \"#utility.yul\":3019:3109   */\n    tag_234:\n        /* \"#utility.yul\":3053:3060   */\n      0x00\n        /* \"#utility.yul\":3096:3101   */\n      dup2\n        /* \"#utility.yul\":3089:3102   */\n      iszero\n        /* \"#utility.yul\":3082:3103   */\n      iszero\n        /* \"#utility.yul\":3071:3103   */\n      swap1\n      pop\n        /* \"#utility.yul\":3019:3109   */\n      swap2\n      swap1\n      pop\n      jump\t// out\n        /* \"#utility.yul\":3115:3224   */\n    tag_235:\n        /* \"#utility.yul\":3196:3217   */\n      tag_305\n        /* \"#utility.yul\":3211:3216   */\n      dup2\n        /* \"#utility.yul\":3196:3217   */\n      tag_234\n      jump\t// in\n    tag_305:\n        /* \"#utility.yul\":3191:3194   */\n      dup3\n        /* \"#utility.yul\":3184:3218   */\n      mstore\n        /* \"#utility.yul\":3115:3224   */\n      pop\n      pop\n      jump\t// out\n        /* \"#utility.yul\":3230:3440   */\n    tag_32:\n        /* \"#utility.yul\":3317:3321   */\n      0x00\n        /* \"#utility.yul\":3355:3357   */\n      0x20\n        /* \"#utility.yul\":3344:3353   */\n      dup3\n        /* \"#utility.yul\":3340:3358   */\n      add\n        /* \"#utility.yul\":3332:3358   */\n      swap1\n      pop\n        /* \"#utility.yul\":3368:3433   */\n      tag_307\n        /* \"#utility.yul\":3430:3431   */\n      0x00\n        /* \"#utility.yul\":3419:3428   */\n      dup4\n        /* \"#utility.yul\":3415:3432   */\n      add\n        /* \"#utility.yul\":3406:3412   */\n      dup5\n        /* \"#utility.yul\":3368:3433   */\n      tag_235\n      jump\t// in\n    tag_307:\n        /* \"#utility.yul\":3230:3440   */\n      swap3\n      swap2\n      pop\n      pop\n      jump\t// out\n        /* \"#utility.yul\":3446:3564   */\n    tag_236:\n        /* \"#utility.yul\":3533:3557   */\n      tag_309\n        /* \"#utility.yul\":3551:3556   */\n      dup2\n        /* \"#utility.yul\":3533:3557   */\n      tag_231\n      jump\t// in\n    tag_309:\n        /* \"#utility.yul\":3528:3531   */\n      dup3\n        /* \"#utility.yul\":3521:3558   */\n      mstore\n        /* \"#utility.yul\":3446:3564   */\n      pop\n      pop\n      jump\t// out\n        /* \"#utility.yul\":3570:3792   */\n    tag_36:\n        /* \"#utility.yul\":3663:3667   */\n      0x00\n        /* \"#utility.yul\":3701:3703   */\n      0x20\n        /* \"#utility.yul\":3690:3699   */\n      dup3\n        /* \"#utility.yul\":3686:3704   */\n      add\n        /* \"#utility.yul\":3678:3704   */\n      swap1\n      pop\n        /* \"#utility.yul\":3714:3785   */\n      tag_311\n        /* \"#utility.yul\":3782:3783   */\n      0x00\n        /* \"#utility.yul\":3771:3780   */\n      dup4\n        /* \"#utility.yul\":3767:3784   */\n      add\n        /* \"#utility.yul\":3758:3764   */\n      dup5\n        /* \"#utility.yul\":3714:3785   */\n      tag_236\n      jump\t// in\n    tag_311:\n        /* \"#utility.yul\":3570:3792   */\n      swap3\n      swap2\n      pop\n      pop\n      jump\t// out\n        /* \"#utility.yul\":3798:4417   */\n    tag_39:\n        /* \"#utility.yul\":3875:3881   */\n      0x00\n        /* \"#utility.yul\":3883:3889   */\n      dup1\n        /* \"#utility.yul\":3891:3897   */\n      0x00\n        /* \"#utility.yul\":3940:3942   */\n      0x60\n        /* \"#utility.yul\":3928:3937   */\n      dup5\n        /* \"#utility.yul\":3919:3926   */\n      dup7\n        /* \"#utility.yul\":3915:3938   */\n      sub\n        /* \"#utility.yul\":3911:3943   */\n      slt\n        /* \"#utility.yul\":3908:4027   */\n      iszero\n      tag_313\n      jumpi\n        /* \"#utility.yul\":3946:4025   */\n      tag_314\n      tag_225\n      jump\t// in\n    tag_314:\n        /* \"#utility.yul\":3908:4027   */\n    tag_313:\n        /* \"#utility.yul\":4066:4067   */\n      0x00\n        /* \"#utility.yul\":4091:4144   */\n      tag_315\n        /* \"#utility.yul\":4136:4143   */\n      dup7\n        /* \"#utility.yul\":4127:4133   */\n      dup3\n        /* \"#utility.yul\":4116:4125   */\n      dup8\n        /* \"#utility.yul\":4112:4134   */\n      add\n        /* \"#utility.yul\":4091:4144   */\n      tag_230\n      jump\t// in\n    tag_315:\n        /* \"#utility.yul\":4081:4144   */\n      swap4\n      pop\n        /* \"#utility.yul\":4037:4154   */\n      pop\n        /* \"#utility.yul\":4193:4195   */\n      0x20\n        /* \"#utility.yul\":4219:4272   */\n      tag_316\n        /* \"#utility.yul\":4264:4271   */\n      dup7\n        /* \"#utility.yul\":4255:4261   */\n      dup3\n        /* \"#utility.yul\":4244:4253   */\n      dup8\n        /* \"#utility.yul\":4240:4262   */\n      add\n        /* \"#utility.yul\":4219:4272   */\n      tag_230\n      jump\t// in\n    tag_316:\n        /* \"#utility.yul\":4209:4272   */\n      swap3\n      pop\n        /* \"#utility.yul\":4164:4282   */\n      pop\n        /* \"#utility.yul\":4321:4323   */\n      0x40\n        /* \"#utility.yul\":4347:4400   */\n      tag_317\n        /* \"#utility.yul\":4392:4399   */\n      dup7\n        /* \"#utility.yul\":4383:4389   */\n      dup3\n        /* \"#utility.yul\":4372:4381   */\n      dup8\n        /* \"#utility.yul\":4368:4390   */\n      add\n        /* \"#utility.yul\":4347:4400   */\n      tag_233\n      jump\t// in\n    tag_317:\n        /* \"#utility.yul\":4337:4400   */\n      swap2\n      pop\n        /* \"#utility.yul\":4292:4410   */\n      pop\n        /* \"#utility.yul\":3798:4417   */\n      swap3\n      pop\n      swap3\n      pop\n      swap3\n      jump\t// out\n        /* \"#utility.yul\":4423:4509   */\n    tag_237:\n        /* \"#utility.yul\":4458:4465   */\n      0x00\n        /* \"#utility.yul\":4498:4502   */\n      0xff\n        /* \"#utility.yul\":4491:4496   */\n      dup3\n        /* \"#utility.yul\":4487:4503   */\n      and\n        /* \"#utility.yul\":4476:4503   */\n      swap1\n      pop\n        /* \"#utility.yul\":4423:4509   */\n      swap2\n      swap1\n      pop\n      jump\t// out\n        /* \"#utility.yul\":4515:4627   */\n    tag_238:\n        /* \"#utility.yul\":4598:4620   */\n      tag_320\n        /* \"#utility.yul\":4614:4619   */\n      dup2\n        /* \"#utility.yul\":4598:4620   */\n      tag_237\n      jump\t// in\n    tag_320:\n        /* \"#utility.yul\":4593:4596   */\n      dup3\n        /* \"#utility.yul\":4586:4621   */\n      mstore\n        /* \"#utility.yul\":4515:4627   */\n      pop\n      pop\n      jump\t// out\n        /* \"#utility.yul\":4633:4847   */\n    tag_45:\n        /* \"#utility.yul\":4722:4726   */\n      0x00\n        /* \"#utility.yul\":4760:4762   */\n      0x20\n        /* \"#utility.yul\":4749:4758   */\n      dup3\n        /* \"#utility.yul\":4745:4763   */\n      add\n        /* \"#utility.yul\":4737:4763   */\n      swap1\n      pop\n        /* \"#utility.yul\":4773:4840   */\n      tag_322\n        /* \"#utility.yul\":4837:4838   */\n      0x00\n        /* \"#utility.yul\":4826:4835   */\n      dup4\n        /* \"#utility.yul\":4822:4839   */\n      add\n        /* \"#utility.yul\":4813:4819   */\n      dup5\n        /* \"#utility.yul\":4773:4840   */\n      tag_238\n      jump\t// in\n    tag_322:\n        /* \"#utility.yul\":4633:4847   */\n      swap3\n      swap2\n      pop\n      pop\n      jump\t// out\n        /* \"#utility.yul\":4853:5182   */\n    tag_55:\n        /* \"#utility.yul\":4912:4918   */\n      0x00\n        /* \"#utility.yul\":4961:4963   */\n      0x20\n        /* \"#utility.yul\":4949:4958   */\n      dup3\n        /* \"#utility.yul\":4940:4947   */\n      dup5\n        /* \"#utility.yul\":4936:4959   */\n      sub\n        /* \"#utility.yul\":4932:4964   */\n      slt\n        /* \"#utility.yul\":4929:5048   */\n      iszero\n      tag_324\n      jumpi\n        /* \"#utility.yul\":4967:5046   */\n      tag_325\n      tag_225\n      jump\t// in\n    tag_325:\n        /* \"#utility.yul\":4929:5048   */\n    tag_324:\n        /* \"#utility.yul\":5087:5088   */\n      0x00\n        /* \"#utility.yul\":5112:5165   */\n      tag_326\n        /* \"#utility.yul\":5157:5164   */\n      dup5\n        /* \"#utility.yul\":5148:5154   */\n      dup3\n        /* \"#utility.yul\":5137:5146   */\n      dup6\n        /* \"#utility.yul\":5133:5155   */\n      add\n        /* \"#utility.yul\":5112:5165   */\n      tag_230\n      jump\t// in\n    tag_326:\n        /* \"#utility.yul\":5102:5165   */\n      swap2\n      pop\n        /* \"#utility.yul\":5058:5175   */\n      pop\n        /* \"#utility.yul\":4853:5182   */\n      swap3\n      swap2\n      pop\n      pop\n      jump\t// out\n        /* \"#utility.yul\":5188:5306   */\n    tag_239:\n        /* \"#utility.yul\":5275:5299   */\n      tag_328\n        /* \"#utility.yul\":5293:5298   */\n      dup2\n        /* \"#utility.yul\":5275:5299   */\n      tag_228\n      jump\t// in\n    tag_328:\n        /* \"#utility.yul\":5270:5273   */\n      dup3\n        /* \"#utility.yul\":5263:5300   */\n      mstore\n        /* \"#utility.yul\":5188:5306   */\n      pop\n      pop\n      jump\t// out\n        /* \"#utility.yul\":5312:5534   */\n    tag_63:\n        /* \"#utility.yul\":5405:5409   */\n      0x00\n        /* \"#utility.yul\":5443:5445   */\n      0x20\n        /* \"#utility.yul\":5432:5441   */\n      dup3\n        /* \"#utility.yul\":5428:5446   */\n      add\n        /* \"#utility.yul\":5420:5446   */\n      swap1\n      pop\n        /* \"#utility.yul\":5456:5527   */\n      tag_330\n        /* \"#utility.yul\":5524:5525   */\n      0x00\n        /* \"#utility.yul\":5513:5522   */\n      dup4\n        /* \"#utility.yul\":5509:5526   */\n      add\n        /* \"#utility.yul\":5500:5506   */\n      dup5\n        /* \"#utility.yul\":5456:5527   */\n      tag_239\n      jump\t// in\n    tag_330:\n        /* \"#utility.yul\":5312:5534   */\n      swap3\n      swap2\n      pop\n      pop\n      jump\t// out\n        /* \"#utility.yul\":5540:6014   */\n    tag_83:\n        /* \"#utility.yul\":5608:5614   */\n      0x00\n        /* \"#utility.yul\":5616:5622   */\n      dup1\n        /* \"#utility.yul\":5665:5667   */\n      0x40\n        /* \"#utility.yul\":5653:5662   */\n      dup4\n        /* \"#utility.yul\":5644:5651   */\n      dup6\n        /* \"#utility.yul\":5640:5663   */\n      sub\n        /* \"#utility.yul\":5636:5668   */\n      slt\n        /* \"#utility.yul\":5633:5752   */\n      iszero\n      tag_332\n      jumpi\n        /* \"#utility.yul\":5671:5750   */\n      tag_333\n      tag_225\n      jump\t// in\n    tag_333:\n        /* \"#utility.yul\":5633:5752   */\n    tag_332:\n        /* \"#utility.yul\":5791:5792   */\n      0x00\n        /* \"#utility.yul\":5816:5869   */\n      tag_334\n        /* \"#utility.yul\":5861:5868   */\n      dup6\n        /* \"#utility.yul\":5852:5858   */\n      dup3\n        /* \"#utility.yul\":5841:5850   */\n      dup7\n        /* \"#utility.yul\":5837:5859   */\n      add\n        /* \"#utility.yul\":5816:5869   */\n      tag_230\n      jump\t// in\n    tag_334:\n        /* \"#utility.yul\":5806:5869   */\n      swap3\n      pop\n        /* \"#utility.yul\":5762:5879   */\n      pop\n        /* \"#utility.yul\":5918:5920   */\n      0x20\n        /* \"#utility.yul\":5944:5997   */\n      tag_335\n        /* \"#utility.yul\":5989:5996   */\n      dup6\n        /* \"#utility.yul\":5980:5986   */\n      dup3\n        /* \"#utility.yul\":5969:5978   */\n      dup7\n        /* \"#utility.yul\":5965:5987   */\n      add\n        /* \"#utility.yul\":5944:5997   */\n      tag_230\n      jump\t// in\n    tag_335:\n        /* \"#utility.yul\":5934:5997   */\n      swap2\n      pop\n        /* \"#utility.yul\":5889:6007   */\n      pop\n        /* \"#utility.yul\":5540:6014   */\n      swap3\n      pop\n      swap3\n      swap1\n      pop\n      jump\t// out\n        /* \"#utility.yul\":6020:6200   */\n    tag_240:\n        /* \"#utility.yul\":6068:6145   */\n      0x4e487b7100000000000000000000000000000000000000000000000000000000\n        /* \"#utility.yul\":6065:6066   */\n      0x00\n        /* \"#utility.yul\":6058:6146   */\n      mstore\n        /* \"#utility.yul\":6165:6169   */\n      0x22\n        /* \"#utility.yul\":6162:6163   */\n      0x04\n        /* \"#utility.yul\":6155:6170   */\n      mstore\n        /* \"#utility.yul\":6189:6193   */\n      0x24\n        /* \"#utility.yul\":6186:6187   */\n      0x00\n        /* \"#utility.yul\":6179:6194   */\n      revert\n        /* \"#utility.yul\":6206:6526   */\n    tag_91:\n        /* \"#utility.yul\":6250:6256   */\n      0x00\n        /* \"#utility.yul\":6287:6288   */\n      0x02\n        /* \"#utility.yul\":6281:6285   */\n      dup3\n        /* \"#utility.yul\":6277:6289   */\n      div\n        /* \"#utility.yul\":6267:6289   */\n      swap1\n      pop\n        /* \"#utility.yul\":6334:6335   */\n      0x01\n        /* \"#utility.yul\":6328:6332   */\n      dup3\n        /* \"#utility.yul\":6324:6336   */\n      and\n        /* \"#utility.yul\":6355:6373   */\n      dup1\n        /* \"#utility.yul\":6345:6426   */\n      tag_338\n      jumpi\n        /* \"#utility.yul\":6411:6415   */\n      0x7f\n        /* \"#utility.yul\":6403:6409   */\n      dup3\n        /* \"#utility.yul\":6399:6416   */\n      and\n        /* \"#utility.yul\":6389:6416   */\n      swap2\n      pop\n        /* \"#utility.yul\":6345:6426   */\n    tag_338:\n        /* \"#utility.yul\":6473:6475   */\n      0x20\n        /* \"#utility.yul\":6465:6471   */\n      dup3\n        /* \"#utility.yul\":6462:6476   */\n      lt\n        /* \"#utility.yul\":6442:6460   */\n      dup2\n        /* \"#utility.yul\":6439:6477   */\n      sub\n        /* \"#utility.yul\":6436:6520   */\n      tag_339\n      jumpi\n        /* \"#utility.yul\":6492:6510   */\n      tag_340\n      tag_240\n      jump\t// in\n    tag_340:\n        /* \"#utility.yul\":6436:6520   */\n    tag_339:\n        /* \"#utility.yul\":6257:6526   */\n      pop\n        /* \"#utility.yul\":6206:6526   */\n      swap2\n      swap1\n      pop\n      jump\t// out\n        /* \"#utility.yul\":6532:6759   */\n    tag_241:\n        /* \"#utility.yul\":6672:6706   */\n      0x45524332303a207472616e7366657220616d6f756e7420657863656564732061\n        /* \"#utility.yul\":6668:6669   */\n      0x00\n        /* \"#utility.yul\":6660:6666   */\n      dup3\n        /* \"#utility.yul\":6656:6670   */\n      add\n        /* \"#utility.yul\":6649:6707   */\n      mstore\n        /* \"#utility.yul\":6741:6751   */\n      0x6c6c6f77616e6365000000000000000000000000000000000000000000000000\n        /* \"#utility.yul\":6736:6738   */\n      0x20\n        /* \"#utility.yul\":6728:6734   */\n      dup3\n        /* \"#utility.yul\":6724:6739   */\n      add\n        /* \"#utility.yul\":6717:6752   */\n      mstore\n        /* \"#utility.yul\":6532:6759   */\n      pop\n      jump\t// out\n        /* \"#utility.yul\":6765:7131   */\n    tag_242:\n        /* \"#utility.yul\":6907:6910   */\n      0x00\n        /* \"#utility.yul\":6928:6995   */\n      tag_343\n        /* \"#utility.yul\":6992:6994   */\n      0x28\n        /* \"#utility.yul\":6987:6990   */\n      dup4\n        /* \"#utility.yul\":6928:6995   */\n      tag_220\n      jump\t// in\n    tag_343:\n        /* \"#utility.yul\":6921:6995   */\n      swap2\n      pop\n        /* \"#utility.yul\":7004:7097   */\n      tag_344\n        /* \"#utility.yul\":7093:7096   */\n      dup3\n        /* \"#utility.yul\":7004:7097   */\n      tag_241\n      jump\t// in\n    tag_344:\n        /* \"#utility.yul\":7122:7124   */\n      0x40\n        /* \"#utility.yul\":7117:7120   */\n      dup3\n        /* \"#utility.yul\":7113:7125   */\n      add\n        /* \"#utility.yul\":7106:7125   */\n      swap1\n      pop\n        /* \"#utility.yul\":6765:7131   */\n      swap2\n      swap1\n      pop\n      jump\t// out\n        /* \"#utility.yul\":7137:7556   */\n    tag_108:\n        /* \"#utility.yul\":7303:7307   */\n      0x00\n        /* \"#utility.yul\":7341:7343   */\n      0x20\n        /* \"#utility.yul\":7330:7339   */\n      dup3\n        /* \"#utility.yul\":7326:7344   */\n      add\n        /* \"#utility.yul\":7318:7344   */\n      swap1\n      pop\n        /* \"#utility.yul\":7390:7399   */\n      dup2\n        /* \"#utility.yul\":7384:7388   */\n      dup2\n        /* \"#utility.yul\":7380:7400   */\n      sub\n        /* \"#utility.yul\":7376:7377   */\n      0x00\n        /* \"#utility.yul\":7365:7374   */\n      dup4\n        /* \"#utility.yul\":7361:7378   */\n      add\n        /* \"#utility.yul\":7354:7401   */\n      mstore\n        /* \"#utility.yul\":7418:7549   */\n      tag_346\n        /* \"#utility.yul\":7544:7548   */\n      dup2\n        /* \"#utility.yul\":7418:7549   */\n      tag_242\n      jump\t// in\n    tag_346:\n        /* \"#utility.yul\":7410:7549   */\n      swap1\n      pop\n        /* \"#utility.yul\":7137:7556   */\n      swap2\n      swap1\n      pop\n      jump\t// out\n        /* \"#utility.yul\":7562:7742   */\n    tag_243:\n        /* \"#utility.yul\":7610:7687   */\n      0x4e487b7100000000000000000000000000000000000000000000000000000000\n        /* \"#utility.yul\":7607:7608   */\n      0x00\n        /* \"#utility.yul\":7600:7688   */\n      mstore\n        /* \"#utility.yul\":7707:7711   */\n      0x11\n        /* \"#utility.yul\":7704:7705   */\n      0x04\n        /* \"#utility.yul\":7697:7712   */\n      mstore\n        /* \"#utility.yul\":7731:7735   */\n      0x24\n        /* \"#utility.yul\":7728:7729   */\n      0x00\n        /* \"#utility.yul\":7721:7736   */\n      revert\n        /* \"#utility.yul\":7748:7939   */\n    tag_117:\n        /* \"#utility.yul\":7788:7791   */\n      0x00\n        /* \"#utility.yul\":7807:7827   */\n      tag_349\n        /* \"#utility.yul\":7825:7826   */\n      dup3\n        /* \"#utility.yul\":7807:7827   */\n      tag_231\n      jump\t// in\n    tag_349:\n        /* \"#utility.yul\":7802:7827   */\n      swap2\n      pop\n        /* \"#utility.yul\":7841:7861   */\n      tag_350\n        /* \"#utility.yul\":7859:7860   */\n      dup4\n        /* \"#utility.yul\":7841:7861   */\n      tag_231\n      jump\t// in\n    tag_350:\n        /* \"#utility.yul\":7836:7861   */\n      swap3\n      pop\n        /* \"#utility.yul\":7884:7885   */\n      dup3\n        /* \"#utility.yul\":7881:7882   */\n      dup3\n        /* \"#utility.yul\":7877:7886   */\n      add\n        /* \"#utility.yul\":7870:7886   */\n      swap1\n      pop\n        /* \"#utility.yul\":7905:7908   */\n      dup1\n        /* \"#utility.yul\":7902:7903   */\n      dup3\n        /* \"#utility.yul\":7899:7909   */\n      gt\n        /* \"#utility.yul\":7896:7932   */\n      iszero\n      tag_351\n      jumpi\n        /* \"#utility.yul\":7912:7930   */\n      tag_352\n      tag_243\n      jump\t// in\n    tag_352:\n        /* \"#utility.yul\":7896:7932   */\n    tag_351:\n        /* \"#utility.yul\":7748:7939   */\n      swap3\n      swap2\n      pop\n      pop\n      jump\t// out\n        /* \"#utility.yul\":7945:8124   */\n    tag_244:\n        /* \"#utility.yul\":8085:8116   */\n      0x796f7520617265206e6f7420617070726f7665642020746f206d696e74000000\n        /* \"#utility.yul\":8081:8082   */\n      0x00\n        /* \"#utility.yul\":8073:8079   */\n      dup3\n        /* \"#utility.yul\":8069:8083   */\n      add\n        /* \"#utility.yul\":8062:8117   */\n      mstore\n        /* \"#utility.yul\":7945:8124   */\n      pop\n      jump\t// out\n        /* \"#utility.yul\":8130:8496   */\n    tag_245:\n        /* \"#utility.yul\":8272:8275   */\n      0x00\n        /* \"#utility.yul\":8293:8360   */\n      tag_355\n        /* \"#utility.yul\":8357:8359   */\n      0x1d\n        /* \"#utility.yul\":8352:8355   */\n      dup4\n        /* \"#utility.yul\":8293:8360   */\n      tag_220\n      jump\t// in\n    tag_355:\n        /* \"#utility.yul\":8286:8360   */\n      swap2\n      pop\n        /* \"#utility.yul\":8369:8462   */\n      tag_356\n        /* \"#utility.yul\":8458:8461   */\n      dup3\n        /* \"#utility.yul\":8369:8462   */\n      tag_244\n      jump\t// in\n    tag_356:\n        /* \"#utility.yul\":8487:8489   */\n      0x20\n        /* \"#utility.yul\":8482:8485   */\n      dup3\n        /* \"#utility.yul\":8478:8490   */\n      add\n        /* \"#utility.yul\":8471:8490   */\n      swap1\n      pop\n        /* \"#utility.yul\":8130:8496   */\n      swap2\n      swap1\n      pop\n      jump\t// out\n        /* \"#utility.yul\":8502:8921   */\n    tag_121:\n        /* \"#utility.yul\":8668:8672   */\n      0x00\n        /* \"#utility.yul\":8706:8708   */\n      0x20\n        /* \"#utility.yul\":8695:8704   */\n      dup3\n        /* \"#utility.yul\":8691:8709   */\n      add\n        /* \"#utility.yul\":8683:8709   */\n      swap1\n      pop\n        /* \"#utility.yul\":8755:8764   */\n      dup2\n        /* \"#utility.yul\":8749:8753   */\n      dup2\n        /* \"#utility.yul\":8745:8765   */\n      sub\n        /* \"#utility.yul\":8741:8742   */\n      0x00\n        /* \"#utility.yul\":8730:8739   */\n      dup4\n        /* \"#utility.yul\":8726:8743   */\n      add\n        /* \"#utility.yul\":8719:8766   */\n      mstore\n        /* \"#utility.yul\":8783:8914   */\n      tag_358\n        /* \"#utility.yul\":8909:8913   */\n      dup2\n        /* \"#utility.yul\":8783:8914   */\n      tag_245\n      jump\t// in\n    tag_358:\n        /* \"#utility.yul\":8775:8914   */\n      swap1\n      pop\n        /* \"#utility.yul\":8502:8921   */\n      swap2\n      swap1\n      pop\n      jump\t// out\n        /* \"#utility.yul\":8927:9106   */\n    tag_246:\n        /* \"#utility.yul\":9067:9098   */\n      0x796f7520617265206e6f7420617070726f7665642020746f206275726e000000\n        /* \"#utility.yul\":9063:9064   */\n      0x00\n        /* \"#utility.yul\":9055:9061   */\n      dup3\n        /* \"#utility.yul\":9051:9065   */\n      add\n        /* \"#utility.yul\":9044:9099   */\n      mstore\n        /* \"#utility.yul\":8927:9106   */\n      pop\n      jump\t// out\n        /* \"#utility.yul\":9112:9478   */\n    tag_247:\n        /* \"#utility.yul\":9254:9257   */\n      0x00\n        /* \"#utility.yul\":9275:9342   */\n      tag_361\n        /* \"#utility.yul\":9339:9341   */\n      0x1d\n        /* \"#utility.yul\":9334:9337   */\n      dup4\n        /* \"#utility.yul\":9275:9342   */\n      tag_220\n      jump\t// in\n    tag_361:\n        /* \"#utility.yul\":9268:9342   */\n      swap2\n      pop\n        /* \"#utility.yul\":9351:9444   */\n      tag_362\n        /* \"#utility.yul\":9440:9443   */\n      dup3\n        /* \"#utility.yul\":9351:9444   */\n      tag_246\n      jump\t// in\n    tag_362:\n        /* \"#utility.yul\":9469:9471   */\n      0x20\n        /* \"#utility.yul\":9464:9467   */\n      dup3\n        /* \"#utility.yul\":9460:9472   */\n      add\n        /* \"#utility.yul\":9453:9472   */\n      swap1\n      pop\n        /* \"#utility.yul\":9112:9478   */\n      swap2\n      swap1\n      pop\n      jump\t// out\n        /* \"#utility.yul\":9484:9903   */\n    tag_141:\n        /* \"#utility.yul\":9650:9654   */\n      0x00\n        /* \"#utility.yul\":9688:9690   */\n      0x20\n        /* \"#utility.yul\":9677:9686   */\n      dup3\n        /* \"#utility.yul\":9673:9691   */\n      add\n        /* \"#utility.yul\":9665:9691   */\n      swap1\n      pop\n        /* \"#utility.yul\":9737:9746   */\n      dup2\n        /* \"#utility.yul\":9731:9735   */\n      dup2\n        /* \"#utility.yul\":9727:9747   */\n      sub\n        /* \"#utility.yul\":9723:9724   */\n      0x00\n        /* \"#utility.yul\":9712:9721   */\n      dup4\n        /* \"#utility.yul\":9708:9725   */\n      add\n        /* \"#utility.yul\":9701:9748   */\n      mstore\n        /* \"#utility.yul\":9765:9896   */\n      tag_364\n        /* \"#utility.yul\":9891:9895   */\n      dup2\n        /* \"#utility.yul\":9765:9896   */\n      tag_247\n      jump\t// in\n    tag_364:\n        /* \"#utility.yul\":9757:9896   */\n      swap1\n      pop\n        /* \"#utility.yul\":9484:9903   */\n      swap2\n      swap1\n      pop\n      jump\t// out\n        /* \"#utility.yul\":9909:10133   */\n    tag_248:\n        /* \"#utility.yul\":10049:10083   */\n      0x45524332303a2064656372656173656420616c6c6f77616e63652062656c6f77\n        /* \"#utility.yul\":10045:10046   */\n      0x00\n        /* \"#utility.yul\":10037:10043   */\n      dup3\n        /* \"#utility.yul\":10033:10047   */\n      add\n        /* \"#utility.yul\":10026:10084   */\n      mstore\n        /* \"#utility.yul\":10118:10125   */\n      0x207a65726f000000000000000000000000000000000000000000000000000000\n        /* \"#utility.yul\":10113:10115   */\n      0x20\n        /* \"#utility.yul\":10105:10111   */\n      dup3\n        /* \"#utility.yul\":10101:10116   */\n      add\n        /* \"#utility.yul\":10094:10126   */\n      mstore\n        /* \"#utility.yul\":9909:10133   */\n      pop\n      jump\t// out\n        /* \"#utility.yul\":10139:10505   */\n    tag_249:\n        /* \"#utility.yul\":10281:10284   */\n      0x00\n        /* \"#utility.yul\":10302:10369   */\n      tag_367\n        /* \"#utility.yul\":10366:10368   */\n      0x25\n        /* \"#utility.yul\":10361:10364   */\n      dup4\n        /* \"#utility.yul\":10302:10369   */\n      tag_220\n      jump\t// in\n    tag_367:\n        /* \"#utility.yul\":10295:10369   */\n      swap2\n      pop\n        /* \"#utility.yul\":10378:10471   */\n      tag_368\n        /* \"#utility.yul\":10467:10470   */\n      dup3\n        /* \"#utility.yul\":10378:10471   */\n      tag_248\n      jump\t// in\n    tag_368:\n        /* \"#utility.yul\":10496:10498   */\n      0x40\n        /* \"#utility.yul\":10491:10494   */\n      dup3\n        /* \"#utility.yul\":10487:10499   */\n      add\n        /* \"#utility.yul\":10480:10499   */\n      swap1\n      pop\n        /* \"#utility.yul\":10139:10505   */\n      swap2\n      swap1\n      pop\n      jump\t// out\n        /* \"#utility.yul\":10511:10930   */\n    tag_148:\n        /* \"#utility.yul\":10677:10681   */\n      0x00\n        /* \"#utility.yul\":10715:10717   */\n      0x20\n        /* \"#utility.yul\":10704:10713   */\n      dup3\n        /* \"#utility.yul\":10700:10718   */\n      add\n        /* \"#utility.yul\":10692:10718   */\n      swap1\n      pop\n        /* \"#utility.yul\":10764:10773   */\n      dup2\n        /* \"#utility.yul\":10758:10762   */\n      dup2\n        /* \"#utility.yul\":10754:10774   */\n      sub\n        /* \"#utility.yul\":10750:10751   */\n      0x00\n        /* \"#utility.yul\":10739:10748   */\n      dup4\n        /* \"#utility.yul\":10735:10752   */\n      add\n        /* \"#utility.yul\":10728:10775   */\n      mstore\n        /* \"#utility.yul\":10792:10923   */\n      tag_370\n        /* \"#utility.yul\":10918:10922   */\n      dup2\n        /* \"#utility.yul\":10792:10923   */\n      tag_249\n      jump\t// in\n    tag_370:\n        /* \"#utility.yul\":10784:10923   */\n      swap1\n      pop\n        /* \"#utility.yul\":10511:10930   */\n      swap2\n      swap1\n      pop\n      jump\t// out\n        /* \"#utility.yul\":10936:11159   */\n    tag_250:\n        /* \"#utility.yul\":11076:11110   */\n      0x45524332303a20617070726f76652066726f6d20746865207a65726f20616464\n        /* \"#utility.yul\":11072:11073   */\n      0x00\n        /* \"#utility.yul\":11064:11070   */\n      dup3\n        /* \"#utility.yul\":11060:11074   */\n      add\n        /* \"#utility.yul\":11053:11111   */\n      mstore\n        /* \"#utility.yul\":11145:11151   */\n      0x7265737300000000000000000000000000000000000000000000000000000000\n        /* \"#utility.yul\":11140:11142   */\n      0x20\n        /* \"#utility.yul\":11132:11138   */\n      dup3\n        /* \"#utility.yul\":11128:11143   */\n      add\n        /* \"#utility.yul\":11121:11152   */\n      mstore\n        /* \"#utility.yul\":10936:11159   */\n      pop\n      jump\t// out\n        /* \"#utility.yul\":11165:11531   */\n    tag_251:\n        /* \"#utility.yul\":11307:11310   */\n      0x00\n        /* \"#utility.yul\":11328:11395   */\n      tag_373\n        /* \"#utility.yul\":11392:11394   */\n      0x24\n        /* \"#utility.yul\":11387:11390   */\n      dup4\n        /* \"#utility.yul\":11328:11395   */\n      tag_220\n      jump\t// in\n    tag_373:\n        /* \"#utility.yul\":11321:11395   */\n      swap2\n      pop\n        /* \"#utility.yul\":11404:11497   */\n      tag_374\n        /* \"#utility.yul\":11493:11496   */\n      dup3\n        /* \"#utility.yul\":11404:11497   */\n      tag_250\n      jump\t// in\n    tag_374:\n        /* \"#utility.yul\":11522:11524   */\n      0x40\n        /* \"#utility.yul\":11517:11520   */\n      dup3\n        /* \"#utility.yul\":11513:11525   */\n      add\n        /* \"#utility.yul\":11506:11525   */\n      swap1\n      pop\n        /* \"#utility.yul\":11165:11531   */\n      swap2\n      swap1\n      pop\n      jump\t// out\n        /* \"#utility.yul\":11537:11956   */\n    tag_168:\n        /* \"#utility.yul\":11703:11707   */\n      0x00\n        /* \"#utility.yul\":11741:11743   */\n      0x20\n        /* \"#utility.yul\":11730:11739   */\n      dup3\n        /* \"#utility.yul\":11726:11744   */\n      add\n        /* \"#utility.yul\":11718:11744   */\n      swap1\n      pop\n        /* \"#utility.yul\":11790:11799   */\n      dup2\n        /* \"#utility.yul\":11784:11788   */\n      dup2\n        /* \"#utility.yul\":11780:11800   */\n      sub\n        /* \"#utility.yul\":11776:11777   */\n      0x00\n        /* \"#utility.yul\":11765:11774   */\n      dup4\n        /* \"#utility.yul\":11761:11778   */\n      add\n        /* \"#utility.yul\":11754:11801   */\n      mstore\n        /* \"#utility.yul\":11818:11949   */\n      tag_376\n        /* \"#utility.yul\":11944:11948   */\n      dup2\n        /* \"#utility.yul\":11818:11949   */\n      tag_251\n      jump\t// in\n    tag_376:\n        /* \"#utility.yul\":11810:11949   */\n      swap1\n      pop\n        /* \"#utility.yul\":11537:11956   */\n      swap2\n      swap1\n      pop\n      jump\t// out\n        /* \"#utility.yul\":11962:12183   */\n    tag_252:\n        /* \"#utility.yul\":12102:12136   */\n      0x45524332303a20617070726f766520746f20746865207a65726f206164647265\n        /* \"#utility.yul\":12098:12099   */\n      0x00\n        /* \"#utility.yul\":12090:12096   */\n      dup3\n        /* \"#utility.yul\":12086:12100   */\n      add\n        /* \"#utility.yul\":12079:12137   */\n      mstore\n        /* \"#utility.yul\":12171:12175   */\n      0x7373000000000000000000000000000000000000000000000000000000000000\n        /* \"#utility.yul\":12166:12168   */\n      0x20\n        /* \"#utility.yul\":12158:12164   */\n      dup3\n        /* \"#utility.yul\":12154:12169   */\n      add\n        /* \"#utility.yul\":12147:12176   */\n      mstore\n        /* \"#utility.yul\":11962:12183   */\n      pop\n      jump\t// out\n        /* \"#utility.yul\":12189:12555   */\n    tag_253:\n        /* \"#utility.yul\":12331:12334   */\n      0x00\n        /* \"#utility.yul\":12352:12419   */\n      tag_379\n        /* \"#utility.yul\":12416:12418   */\n      0x22\n        /* \"#utility.yul\":12411:12414   */\n      dup4\n        /* \"#utility.yul\":12352:12419   */\n      tag_220\n      jump\t// in\n    tag_379:\n        /* \"#utility.yul\":12345:12419   */\n      swap2\n      pop\n        /* \"#utility.yul\":12428:12521   */\n      tag_380\n        /* \"#utility.yul\":12517:12520   */\n      dup3\n        /* \"#utility.yul\":12428:12521   */\n      tag_252\n      jump\t// in\n    tag_380:\n        /* \"#utility.yul\":12546:12548   */\n      0x40\n        /* \"#utility.yul\":12541:12544   */\n      dup3\n        /* \"#utility.yul\":12537:12549   */\n      add\n        /* \"#utility.yul\":12530:12549   */\n      swap1\n      pop\n        /* \"#utility.yul\":12189:12555   */\n      swap2\n      swap1\n      pop\n      jump\t// out\n        /* \"#utility.yul\":12561:12980   */\n    tag_171:\n        /* \"#utility.yul\":12727:12731   */\n      0x00\n        /* \"#utility.yul\":12765:12767   */\n      0x20\n        /* \"#utility.yul\":12754:12763   */\n      dup3\n        /* \"#utility.yul\":12750:12768   */\n      add\n        /* \"#utility.yul\":12742:12768   */\n      swap1\n      pop\n        /* \"#utility.yul\":12814:12823   */\n      dup2\n        /* \"#utility.yul\":12808:12812   */\n      dup2\n        /* \"#utility.yul\":12804:12824   */\n      sub\n        /* \"#utility.yul\":12800:12801   */\n      0x00\n        /* \"#utility.yul\":12789:12798   */\n      dup4\n        /* \"#utility.yul\":12785:12802   */\n      add\n        /* \"#utility.yul\":12778:12825   */\n      mstore\n        /* \"#utility.yul\":12842:12973   */\n      tag_382\n        /* \"#utility.yul\":12968:12972   */\n      dup2\n        /* \"#utility.yul\":12842:12973   */\n      tag_253\n      jump\t// in\n    tag_382:\n        /* \"#utility.yul\":12834:12973   */\n      swap1\n      pop\n        /* \"#utility.yul\":12561:12980   */\n      swap2\n      swap1\n      pop\n      jump\t// out\n        /* \"#utility.yul\":12986:13210   */\n    tag_254:\n        /* \"#utility.yul\":13126:13160   */\n      0x45524332303a207472616e736665722066726f6d20746865207a65726f206164\n        /* \"#utility.yul\":13122:13123   */\n      0x00\n        /* \"#utility.yul\":13114:13120   */\n      dup3\n        /* \"#utility.yul\":13110:13124   */\n      add\n        /* \"#utility.yul\":13103:13161   */\n      mstore\n        /* \"#utility.yul\":13195:13202   */\n      0x6472657373000000000000000000000000000000000000000000000000000000\n        /* \"#utility.yul\":13190:13192   */\n      0x20\n        /* \"#utility.yul\":13182:13188   */\n      dup3\n        /* \"#utility.yul\":13178:13193   */\n      add\n        /* \"#utility.yul\":13171:13203   */\n      mstore\n        /* \"#utility.yul\":12986:13210   */\n      pop\n      jump\t// out\n        /* \"#utility.yul\":13216:13582   */\n    tag_255:\n        /* \"#utility.yul\":13358:13361   */\n      0x00\n        /* \"#utility.yul\":13379:13446   */\n      tag_385\n        /* \"#utility.yul\":13443:13445   */\n      0x25\n        /* \"#utility.yul\":13438:13441   */\n      dup4\n        /* \"#utility.yul\":13379:13446   */\n      tag_220\n      jump\t// in\n    tag_385:\n        /* \"#utility.yul\":13372:13446   */\n      swap2\n      pop\n        /* \"#utility.yul\":13455:13548   */\n      tag_386\n        /* \"#utility.yul\":13544:13547   */\n      dup3\n        /* \"#utility.yul\":13455:13548   */\n      tag_254\n      jump\t// in\n    tag_386:\n        /* \"#utility.yul\":13573:13575   */\n      0x40\n        /* \"#utility.yul\":13568:13571   */\n      dup3\n        /* \"#utility.yul\":13564:13576   */\n      add\n        /* \"#utility.yul\":13557:13576   */\n      swap1\n      pop\n        /* \"#utility.yul\":13216:13582   */\n      swap2\n      swap1\n      pop\n      jump\t// out\n        /* \"#utility.yul\":13588:14007   */\n    tag_176:\n        /* \"#utility.yul\":13754:13758   */\n      0x00\n        /* \"#utility.yul\":13792:13794   */\n      0x20\n        /* \"#utility.yul\":13781:13790   */\n      dup3\n        /* \"#utility.yul\":13777:13795   */\n      add\n        /* \"#utility.yul\":13769:13795   */\n      swap1\n      pop\n        /* \"#utility.yul\":13841:13850   */\n      dup2\n        /* \"#utility.yul\":13835:13839   */\n      dup2\n        /* \"#utility.yul\":13831:13851   */\n      sub\n        /* \"#utility.yul\":13827:13828   */\n      0x00\n        /* \"#utility.yul\":13816:13825   */\n      dup4\n        /* \"#utility.yul\":13812:13829   */\n      add\n        /* \"#utility.yul\":13805:13852   */\n      mstore\n        /* \"#utility.yul\":13869:14000   */\n      tag_388\n        /* \"#utility.yul\":13995:13999   */\n      dup2\n        /* \"#utility.yul\":13869:14000   */\n      tag_255\n      jump\t// in\n    tag_388:\n        /* \"#utility.yul\":13861:14000   */\n      swap1\n      pop\n        /* \"#utility.yul\":13588:14007   */\n      swap2\n      swap1\n      pop\n      jump\t// out\n        /* \"#utility.yul\":14013:14235   */\n    tag_256:\n        /* \"#utility.yul\":14153:14187   */\n      0x45524332303a207472616e7366657220746f20746865207a65726f2061646472\n        /* \"#utility.yul\":14149:14150   */\n      0x00\n        /* \"#utility.yul\":14141:14147   */\n      dup3\n        /* \"#utility.yul\":14137:14151   */\n      add\n        /* \"#utility.yul\":14130:14188   */\n      mstore\n        /* \"#utility.yul\":14222:14227   */\n      0x6573730000000000000000000000000000000000000000000000000000000000\n        /* \"#utility.yul\":14217:14219   */\n      0x20\n        /* \"#utility.yul\":14209:14215   */\n      dup3\n        /* \"#utility.yul\":14205:14220   */\n      add\n        /* \"#utility.yul\":14198:14228   */\n      mstore\n        /* \"#utility.yul\":14013:14235   */\n      pop\n      jump\t// out\n        /* \"#utility.yul\":14241:14607   */\n    tag_257:\n        /* \"#utility.yul\":14383:14386   */\n      0x00\n        /* \"#utility.yul\":14404:14471   */\n      tag_391\n        /* \"#utility.yul\":14468:14470   */\n      0x23\n        /* \"#utility.yul\":14463:14466   */\n      dup4\n        /* \"#utility.yul\":14404:14471   */\n      tag_220\n      jump\t// in\n    tag_391:\n        /* \"#utility.yul\":14397:14471   */\n      swap2\n      pop\n        /* \"#utility.yul\":14480:14573   */\n      tag_392\n        /* \"#utility.yul\":14569:14572   */\n      dup3\n        /* \"#utility.yul\":14480:14573   */\n      tag_256\n      jump\t// in\n    tag_392:\n        /* \"#utility.yul\":14598:14600   */\n      0x40\n        /* \"#utility.yul\":14593:14596   */\n      dup3\n        /* \"#utility.yul\":14589:14601   */\n      add\n        /* \"#utility.yul\":14582:14601   */\n      swap1\n      pop\n        /* \"#utility.yul\":14241:14607   */\n      swap2\n      swap1\n      pop\n      jump\t// out\n        /* \"#utility.yul\":14613:15032   */\n    tag_179:\n        /* \"#utility.yul\":14779:14783   */\n      0x00\n        /* \"#utility.yul\":14817:14819   */\n      0x20\n        /* \"#utility.yul\":14806:14815   */\n      dup3\n        /* \"#utility.yul\":14802:14820   */\n      add\n        /* \"#utility.yul\":14794:14820   */\n      swap1\n      pop\n        /* \"#utility.yul\":14866:14875   */\n      dup2\n        /* \"#utility.yul\":14860:14864   */\n      dup2\n        /* \"#utility.yul\":14856:14876   */\n      sub\n        /* \"#utility.yul\":14852:14853   */\n      0x00\n        /* \"#utility.yul\":14841:14850   */\n      dup4\n        /* \"#utility.yul\":14837:14854   */\n      add\n        /* \"#utility.yul\":14830:14877   */\n      mstore\n        /* \"#utility.yul\":14894:15025   */\n      tag_394\n        /* \"#utility.yul\":15020:15024   */\n      dup2\n        /* \"#utility.yul\":14894:15025   */\n      tag_257\n      jump\t// in\n    tag_394:\n        /* \"#utility.yul\":14886:15025   */\n      swap1\n      pop\n        /* \"#utility.yul\":14613:15032   */\n      swap2\n      swap1\n      pop\n      jump\t// out\n        /* \"#utility.yul\":15038:15263   */\n    tag_258:\n        /* \"#utility.yul\":15178:15212   */\n      0x45524332303a207472616e7366657220616d6f756e7420657863656564732062\n        /* \"#utility.yul\":15174:15175   */\n      0x00\n        /* \"#utility.yul\":15166:15172   */\n      dup3\n        /* \"#utility.yul\":15162:15176   */\n      add\n        /* \"#utility.yul\":15155:15213   */\n      mstore\n        /* \"#utility.yul\":15247:15255   */\n      0x616c616e63650000000000000000000000000000000000000000000000000000\n        /* \"#utility.yul\":15242:15244   */\n      0x20\n        /* \"#utility.yul\":15234:15240   */\n      dup3\n        /* \"#utility.yul\":15230:15245   */\n      add\n        /* \"#utility.yul\":15223:15256   */\n      mstore\n        /* \"#utility.yul\":15038:15263   */\n      pop\n      jump\t// out\n        /* \"#utility.yul\":15269:15635   */\n    tag_259:\n        /* \"#utility.yul\":15411:15414   */\n      0x00\n        /* \"#utility.yul\":15432:15499   */\n      tag_397\n        /* \"#utility.yul\":15496:15498   */\n      0x26\n        /* \"#utility.yul\":15491:15494   */\n      dup4\n        /* \"#utility.yul\":15432:15499   */\n      tag_220\n      jump\t// in\n    tag_397:\n        /* \"#utility.yul\":15425:15499   */\n      swap2\n      pop\n        /* \"#utility.yul\":15508:15601   */\n      tag_398\n        /* \"#utility.yul\":15597:15600   */\n      dup3\n        /* \"#utility.yul\":15508:15601   */\n      tag_258\n      jump\t// in\n    tag_398:\n        /* \"#utility.yul\":15626:15628   */\n      0x40\n        /* \"#utility.yul\":15621:15624   */\n      dup3\n        /* \"#utility.yul\":15617:15629   */\n      add\n        /* \"#utility.yul\":15610:15629   */\n      swap1\n      pop\n        /* \"#utility.yul\":15269:15635   */\n      swap2\n      swap1\n      pop\n      jump\t// out\n        /* \"#utility.yul\":15641:16060   */\n    tag_184:\n        /* \"#utility.yul\":15807:15811   */\n      0x00\n        /* \"#utility.yul\":15845:15847   */\n      0x20\n        /* \"#utility.yul\":15834:15843   */\n      dup3\n        /* \"#utility.yul\":15830:15848   */\n      add\n        /* \"#utility.yul\":15822:15848   */\n      swap1\n      pop\n        /* \"#utility.yul\":15894:15903   */\n      dup2\n        /* \"#utility.yul\":15888:15892   */\n      dup2\n        /* \"#utility.yul\":15884:15904   */\n      sub\n        /* \"#utility.yul\":15880:15881   */\n      0x00\n        /* \"#utility.yul\":15869:15878   */\n      dup4\n        /* \"#utility.yul\":15865:15882   */\n      add\n        /* \"#utility.yul\":15858:15905   */\n      mstore\n        /* \"#utility.yul\":15922:16053   */\n      tag_400\n        /* \"#utility.yul\":16048:16052   */\n      dup2\n        /* \"#utility.yul\":15922:16053   */\n      tag_259\n      jump\t// in\n    tag_400:\n        /* \"#utility.yul\":15914:16053   */\n      swap1\n      pop\n        /* \"#utility.yul\":15641:16060   */\n      swap2\n      swap1\n      pop\n      jump\t// out\n        /* \"#utility.yul\":16066:16247   */\n    tag_260:\n        /* \"#utility.yul\":16206:16239   */\n      0x45524332303a206d696e7420746f20746865207a65726f206164647265737300\n        /* \"#utility.yul\":16202:16203   */\n      0x00\n        /* \"#utility.yul\":16194:16200   */\n      dup3\n        /* \"#utility.yul\":16190:16204   */\n      add\n        /* \"#utility.yul\":16183:16240   */\n      mstore\n        /* \"#utility.yul\":16066:16247   */\n      pop\n      jump\t// out\n        /* \"#utility.yul\":16253:16619   */\n    tag_261:\n        /* \"#utility.yul\":16395:16398   */\n      0x00\n        /* \"#utility.yul\":16416:16483   */\n      tag_403\n        /* \"#utility.yul\":16480:16482   */\n      0x1f\n        /* \"#utility.yul\":16475:16478   */\n      dup4\n        /* \"#utility.yul\":16416:16483   */\n      tag_220\n      jump\t// in\n    tag_403:\n        /* \"#utility.yul\":16409:16483   */\n      swap2\n      pop\n        /* \"#utility.yul\":16492:16585   */\n      tag_404\n        /* \"#utility.yul\":16581:16584   */\n      dup3\n        /* \"#utility.yul\":16492:16585   */\n      tag_260\n      jump\t// in\n    tag_404:\n        /* \"#utility.yul\":16610:16612   */\n      0x20\n        /* \"#utility.yul\":16605:16608   */\n      dup3\n        /* \"#utility.yul\":16601:16613   */\n      add\n        /* \"#utility.yul\":16594:16613   */\n      swap1\n      pop\n        /* \"#utility.yul\":16253:16619   */\n      swap2\n      swap1\n      pop\n      jump\t// out\n        /* \"#utility.yul\":16625:17044   */\n    tag_192:\n        /* \"#utility.yul\":16791:16795   */\n      0x00\n        /* \"#utility.yul\":16829:16831   */\n      0x20\n        /* \"#utility.yul\":16818:16827   */\n      dup3\n        /* \"#utility.yul\":16814:16832   */\n      add\n        /* \"#utility.yul\":16806:16832   */\n      swap1\n      pop\n        /* \"#utility.yul\":16878:16887   */\n      dup2\n        /* \"#utility.yul\":16872:16876   */\n      dup2\n        /* \"#utility.yul\":16868:16888   */\n      sub\n        /* \"#utility.yul\":16864:16865   */\n      0x00\n        /* \"#utility.yul\":16853:16862   */\n      dup4\n        /* \"#utility.yul\":16849:16866   */\n      add\n        /* \"#utility.yul\":16842:16889   */\n      mstore\n        /* \"#utility.yul\":16906:17037   */\n      tag_406\n        /* \"#utility.yul\":17032:17036   */\n      dup2\n        /* \"#utility.yul\":16906:17037   */\n      tag_261\n      jump\t// in\n    tag_406:\n        /* \"#utility.yul\":16898:17037   */\n      swap1\n      pop\n        /* \"#utility.yul\":16625:17044   */\n      swap2\n      swap1\n      pop\n      jump\t// out\n        /* \"#utility.yul\":17050:17270   */\n    tag_262:\n        /* \"#utility.yul\":17190:17224   */\n      0x45524332303a206275726e2066726f6d20746865207a65726f20616464726573\n        /* \"#utility.yul\":17186:17187   */\n      0x00\n        /* \"#utility.yul\":17178:17184   */\n      dup3\n        /* \"#utility.yul\":17174:17188   */\n      add\n        /* \"#utility.yul\":17167:17225   */\n      mstore\n        /* \"#utility.yul\":17259:17262   */\n      0x7300000000000000000000000000000000000000000000000000000000000000\n        /* \"#utility.yul\":17254:17256   */\n      0x20\n        /* \"#utility.yul\":17246:17252   */\n      dup3\n        /* \"#utility.yul\":17242:17257   */\n      add\n        /* \"#utility.yul\":17235:17263   */\n      mstore\n        /* \"#utility.yul\":17050:17270   */\n      pop\n      jump\t// out\n        /* \"#utility.yul\":17276:17642   */\n    tag_263:\n        /* \"#utility.yul\":17418:17421   */\n      0x00\n        /* \"#utility.yul\":17439:17506   */\n      tag_409\n        /* \"#utility.yul\":17503:17505   */\n      0x21\n        /* \"#utility.yul\":17498:17501   */\n      dup4\n        /* \"#utility.yul\":17439:17506   */\n      tag_220\n      jump\t// in\n    tag_409:\n        /* \"#utility.yul\":17432:17506   */\n      swap2\n      pop\n        /* \"#utility.yul\":17515:17608   */\n      tag_410\n        /* \"#utility.yul\":17604:17607   */\n      dup3\n        /* \"#utility.yul\":17515:17608   */\n      tag_262\n      jump\t// in\n    tag_410:\n        /* \"#utility.yul\":17633:17635   */\n      0x40\n        /* \"#utility.yul\":17628:17631   */\n      dup3\n        /* \"#utility.yul\":17624:17636   */\n      add\n        /* \"#utility.yul\":17617:17636   */\n      swap1\n      pop\n        /* \"#utility.yul\":17276:17642   */\n      swap2\n      swap1\n      pop\n      jump\t// out\n        /* \"#utility.yul\":17648:18067   */\n    tag_208:\n        /* \"#utility.yul\":17814:17818   */\n      0x00\n        /* \"#utility.yul\":17852:17854   */\n      0x20\n        /* \"#utility.yul\":17841:17850   */\n      dup3\n        /* \"#utility.yul\":17837:17855   */\n      add\n        /* \"#utility.yul\":17829:17855   */\n      swap1\n      pop\n        /* \"#utility.yul\":17901:17910   */\n      dup2\n        /* \"#utility.yul\":17895:17899   */\n      dup2\n        /* \"#utility.yul\":17891:17911   */\n      sub\n        /* \"#utility.yul\":17887:17888   */\n      0x00\n        /* \"#utility.yul\":17876:17885   */\n      dup4\n        /* \"#utility.yul\":17872:17889   */\n      add\n        /* \"#utility.yul\":17865:17912   */\n      mstore\n        /* \"#utility.yul\":17929:18060   */\n      tag_412\n        /* \"#utility.yul\":18055:18059   */\n      dup2\n        /* \"#utility.yul\":17929:18060   */\n      tag_263\n      jump\t// in\n    tag_412:\n        /* \"#utility.yul\":17921:18060   */\n      swap1\n      pop\n        /* \"#utility.yul\":17648:18067   */\n      swap2\n      swap1\n      pop\n      jump\t// out\n        /* \"#utility.yul\":18073:18294   */\n    tag_264:\n        /* \"#utility.yul\":18213:18247   */\n      0x45524332303a206275726e20616d6f756e7420657863656564732062616c616e\n        /* \"#utility.yul\":18209:18210   */\n      0x00\n        /* \"#utility.yul\":18201:18207   */\n      dup3\n        /* \"#utility.yul\":18197:18211   */\n      add\n        /* \"#utility.yul\":18190:18248   */\n      mstore\n        /* \"#utility.yul\":18282:18286   */\n      0x6365000000000000000000000000000000000000000000000000000000000000\n        /* \"#utility.yul\":18277:18279   */\n      0x20\n        /* \"#utility.yul\":18269:18275   */\n      dup3\n        /* \"#utility.yul\":18265:18280   */\n      add\n        /* \"#utility.yul\":18258:18287   */\n      mstore\n        /* \"#utility.yul\":18073:18294   */\n      pop\n      jump\t// out\n        /* \"#utility.yul\":18300:18666   */\n    tag_265:\n        /* \"#utility.yul\":18442:18445   */\n      0x00\n        /* \"#utility.yul\":18463:18530   */\n      tag_415\n        /* \"#utility.yul\":18527:18529   */\n      0x22\n        /* \"#utility.yul\":18522:18525   */\n      dup4\n        /* \"#utility.yul\":18463:18530   */\n      tag_220\n      jump\t// in\n    tag_415:\n        /* \"#utility.yul\":18456:18530   */\n      swap2\n      pop\n        /* \"#utility.yul\":18539:18632   */\n      tag_416\n        /* \"#utility.yul\":18628:18631   */\n      dup3\n        /* \"#utility.yul\":18539:18632   */\n      tag_264\n      jump\t// in\n    tag_416:\n        /* \"#utility.yul\":18657:18659   */\n      0x40\n        /* \"#utility.yul\":18652:18655   */\n      dup3\n        /* \"#utility.yul\":18648:18660   */\n      add\n        /* \"#utility.yul\":18641:18660   */\n      swap1\n      pop\n        /* \"#utility.yul\":18300:18666   */\n      swap2\n      swap1\n      pop\n      jump\t// out\n        /* \"#utility.yul\":18672:19091   */\n    tag_212:\n        /* \"#utility.yul\":18838:18842   */\n      0x00\n        /* \"#utility.yul\":18876:18878   */\n      0x20\n        /* \"#utility.yul\":18865:18874   */\n      dup3\n        /* \"#utility.yul\":18861:18879   */\n      add\n        /* \"#utility.yul\":18853:18879   */\n      swap1\n      pop\n        /* \"#utility.yul\":18925:18934   */\n      dup2\n        /* \"#utility.yul\":18919:18923   */\n      dup2\n        /* \"#utility.yul\":18915:18935   */\n      sub\n        /* \"#utility.yul\":18911:18912   */\n      0x00\n        /* \"#utility.yul\":18900:18909   */\n      dup4\n        /* \"#utility.yul\":18896:18913   */\n      add\n        /* \"#utility.yul\":18889:18936   */\n      mstore\n        /* \"#utility.yul\":18953:19084   */\n      tag_418\n        /* \"#utility.yul\":19079:19083   */\n      dup2\n        /* \"#utility.yul\":18953:19084   */\n      tag_265\n      jump\t// in\n    tag_418:\n        /* \"#utility.yul\":18945:19084   */\n      swap1\n      pop\n        /* \"#utility.yul\":18672:19091   */\n      swap2\n      swap1\n      pop\n      jump\t// out\n        /* \"#utility.yul\":19097:19291   */\n    tag_214:\n        /* \"#utility.yul\":19137:19141   */\n      0x00\n        /* \"#utility.yul\":19157:19177   */\n      tag_420\n        /* \"#utility.yul\":19175:19176   */\n      dup3\n        /* \"#utility.yul\":19157:19177   */\n      tag_231\n      jump\t// in\n    tag_420:\n        /* \"#utility.yul\":19152:19177   */\n      swap2\n      pop\n        /* \"#utility.yul\":19191:19211   */\n      tag_421\n        /* \"#utility.yul\":19209:19210   */\n      dup4\n        /* \"#utility.yul\":19191:19211   */\n      tag_231\n      jump\t// in\n    tag_421:\n        /* \"#utility.yul\":19186:19211   */\n      swap3\n      pop\n        /* \"#utility.yul\":19235:19236   */\n      dup3\n        /* \"#utility.yul\":19232:19233   */\n      dup3\n        /* \"#utility.yul\":19228:19237   */\n      sub\n        /* \"#utility.yul\":19220:19237   */\n      swap1\n      pop\n        /* \"#utility.yul\":19259:19260   */\n      dup2\n        /* \"#utility.yul\":19253:19257   */\n      dup2\n        /* \"#utility.yul\":19250:19261   */\n      gt\n        /* \"#utility.yul\":19247:19284   */\n      iszero\n      tag_422\n      jumpi\n        /* \"#utility.yul\":19264:19282   */\n      tag_423\n      tag_243\n      jump\t// in\n    tag_423:\n        /* \"#utility.yul\":19247:19284   */\n    tag_422:\n        /* \"#utility.yul\":19097:19291   */\n      swap3\n      swap2\n      pop\n      pop\n      jump\t// out\n\n    auxdata: 0xa2646970667358221220b41080e5da9169c3a221224cb7e5b448a69fe5e16c586a1bff8392b0519cc69664736f6c63430008160033\n}\n",
				"bytecode": {
					"linkReferences": {},
					"object": "608060405234801562000010575f80fd5b50604051620027d8380380620027d8833981810160405281019062000036919062000556565b805f73ffffffffffffffffffffffffffffffffffffffff168173ffffffffffffffffffffffffffffffffffffffff1603620000aa575f6040517f1e4fbdf7000000000000000000000000000000000000000000000000000000008152600401620000a1919062000614565b60405180910390fd5b620000bb81620000fc60201b60201c565b508360049081620000cd91906200085d565b508260059081620000df91906200085d565b50620000f23383620001bd60201b60201c565b5050505062000a52565b5f805f9054906101000a900473ffffffffffffffffffffffffffffffffffffffff169050815f806101000a81548173ffffffffffffffffffffffffffffffffffffffff021916908373ffffffffffffffffffffffffffffffffffffffff1602179055508173ffffffffffffffffffffffffffffffffffffffff168173ffffffffffffffffffffffffffffffffffffffff167f8be0079c531659141344cd1fd0a4f28419497f9722a3daafe3b4186f6b6457e060405160405180910390a35050565b5f73ffffffffffffffffffffffffffffffffffffffff168273ffffffffffffffffffffffffffffffffffffffff16036200022e576040517f08c379a000000000000000000000000000000000000000000000000000000000815260040162000225906200099f565b60405180910390fd5b620002415f83836200032e60201b60201c565b8060035f828254620002549190620009ec565b925050819055508060015f8473ffffffffffffffffffffffffffffffffffffffff1673ffffffffffffffffffffffffffffffffffffffff1681526020019081526020015f205f828254620002a99190620009ec565b925050819055508173ffffffffffffffffffffffffffffffffffffffff165f73ffffffffffffffffffffffffffffffffffffffff167fddf252ad1be2c89b69c2b068fc378daa952ba7f163c4a11628f55a4df523b3ef836040516200030f919062000a37565b60405180910390a36200032a5f83836200033360201b60201c565b5050565b505050565b505050565b5f604051905090565b5f80fd5b5f80fd5b5f80fd5b5f80fd5b5f601f19601f8301169050919050565b7f4e487b71000000000000000000000000000000000000000000000000000000005f52604160045260245ffd5b620003998262000351565b810181811067ffffffffffffffff82111715620003bb57620003ba62000361565b5b80604052505050565b5f620003cf62000338565b9050620003dd82826200038e565b919050565b5f67ffffffffffffffff821115620003ff57620003fe62000361565b5b6200040a8262000351565b9050602081019050919050565b5f5b838110156200043657808201518184015260208101905062000419565b5f8484015250505050565b5f620004576200045184620003e2565b620003c4565b9050828152602081018484840111156200047657620004756200034d565b5b6200048384828562000417565b509392505050565b5f82601f830112620004a257620004a162000349565b5b8151620004b484826020860162000441565b91505092915050565b5f819050919050565b620004d181620004bd565b8114620004dc575f80fd5b50565b5f81519050620004ef81620004c6565b92915050565b5f73ffffffffffffffffffffffffffffffffffffffff82169050919050565b5f6200052082620004f5565b9050919050565b620005328162000514565b81146200053d575f80fd5b50565b5f81519050620005508162000527565b92915050565b5f805f806080858703121562000571576200057062000341565b5b5f85015167ffffffffffffffff81111562000591576200059062000345565b5b6200059f878288016200048b565b945050602085015167ffffffffffffffff811115620005c357620005c262000345565b5b620005d1878288016200048b565b9350506040620005e487828801620004df565b9250506060620005f78782880162000540565b91505092959194509250565b6200060e8162000514565b82525050565b5f602082019050620006295f83018462000603565b92915050565b5f81519050919050565b7f4e487b71000000000000000000000000000000000000000000000000000000005f52602260045260245ffd5b5f60028204905060018216806200067e57607f821691505b60208210810362000694576200069362000639565b5b50919050565b5f819050815f5260205f209050919050565b5f6020601f8301049050919050565b5f82821b905092915050565b5f60088302620006f87fffffffffffffffffffffffffffffffffffffffffffffffffffffffffffffffff82620006bb565b620007048683620006bb565b95508019841693508086168417925050509392505050565b5f819050919050565b5f620007456200073f6200073984620004bd565b6200071c565b620004bd565b9050919050565b5f819050919050565b620007608362000725565b620007786200076f826200074c565b848454620006c7565b825550505050565b5f90565b6200078e62000780565b6200079b81848462000755565b505050565b5b81811015620007c257620007b65f8262000784565b600181019050620007a1565b5050565b601f8211156200081157620007db816200069a565b620007e684620006ac565b81016020851015620007f6578190505b6200080e6200080585620006ac565b830182620007a0565b50505b505050565b5f82821c905092915050565b5f620008335f198460080262000816565b1980831691505092915050565b5f6200084d838362000822565b9150826002028217905092915050565b62000868826200062f565b67ffffffffffffffff81111562000884576200088362000361565b5b62000890825462000666565b6200089d828285620007c6565b5f60209050601f831160018114620008d3575f8415620008be578287015190505b620008ca858262000840565b86555062000939565b601f198416620008e3866200069a565b5f5b828110156200090c57848901518255600182019150602085019450602081019050620008e5565b868310156200092c578489015162000928601f89168262000822565b8355505b6001600288020188555050505b505050505050565b5f82825260208201905092915050565b7f45524332303a206d696e7420746f20746865207a65726f2061646472657373005f82015250565b5f62000987601f8362000941565b9150620009948262000951565b602082019050919050565b5f6020820190508181035f830152620009b88162000979565b9050919050565b7f4e487b71000000000000000000000000000000000000000000000000000000005f52601160045260245ffd5b5f620009f882620004bd565b915062000a0583620004bd565b925082820190508082111562000a205762000a1f620009bf565b5b92915050565b62000a3181620004bd565b82525050565b5f60208201905062000a4c5f83018462000a26565b92915050565b611d788062000a605f395ff3fe608060405234801561000f575f80fd5b5060043610610109575f3560e01c8063715018a6116100a0578063a457c2d71161006f578063a457c2d7146102a5578063a9059cbb146102d5578063b6b285d914610305578063dd62ed3e14610321578063f2fde38b1461035157610109565b8063715018a6146102435780638da5cb5b1461024d57806395d89b411461026b5780639dc29fac1461028957610109565b8063313ce567116100dc578063313ce567146101a957806339509351146101c757806340c10f19146101f757806370a082311461021357610109565b806306fdde031461010d578063095ea7b31461012b57806318160ddd1461015b57806323b872dd14610179575b5f80fd5b61011561036d565b60405161012291906113bd565b60405180910390f35b6101456004803603810190610140919061146e565b6103fd565b60405161015291906114c6565b60405180910390f35b61016361041a565b60405161017091906114ee565b60405180910390f35b610193600480360381019061018e9190611507565b610423565b6040516101a091906114c6565b60405180910390f35b6101b1610515565b6040516101be9190611572565b60405180910390f35b6101e160048036038101906101dc919061146e565b61051d565b6040516101ee91906114c6565b60405180910390f35b610211600480360381019061020c919061146e565b6105c4565b005b61022d6004803603810190610228919061158b565b610662565b60405161023a91906114ee565b60405180910390f35b61024b6106a8565b005b6102556106bb565b60405161026291906115c5565b60405180910390f35b6102736106e2565b60405161028091906113bd565b60405180910390f35b6102a3600480360381019061029e919061146e565b610772565b005b6102bf60048036038101906102ba919061146e565b610810565b6040516102cc91906114c6565b60405180910390f35b6102ef60048036038101906102ea919061146e565b6108f6565b6040516102fc91906114c6565b60405180910390f35b61031f600480360381019061031a919061158b565b610913565b005b61033b600480360381019061033691906115de565b610973565b60405161034891906114ee565b60405180910390f35b61036b6004803603810190610366919061158b565b6109f5565b005b60606004805461037c90611649565b80601f01602080910402602001604051908101604052809291908181526020018280546103a890611649565b80156103f35780601f106103ca576101008083540402835291602001916103f3565b820191905f5260205f20905b8154815290600101906020018083116103d657829003601f168201915b5050505050905090565b5f610410610409610a79565b8484610a80565b6001905092915050565b5f600354905090565b5f61042f848484610c43565b5f60025f8673ffffffffffffffffffffffffffffffffffffffff1673ffffffffffffffffffffffffffffffffffffffff1681526020019081526020015f205f610476610a79565b73ffffffffffffffffffffffffffffffffffffffff1673ffffffffffffffffffffffffffffffffffffffff1681526020019081526020015f20549050828110156104f5576040517f08c379a00000000000000000000000000000000000000000000000000000000081526004016104ec906116e9565b60405180910390fd5b61050985610501610a79565b858403610a80565b60019150509392505050565b5f6012905090565b5f6105ba610529610a79565b848460025f610536610a79565b73ffffffffffffffffffffffffffffffffffffffff1673ffffffffffffffffffffffffffffffffffffffff1681526020019081526020015f205f8873ffffffffffffffffffffffffffffffffffffffff1673ffffffffffffffffffffffffffffffffffffffff1681526020019081526020015f20546105b59190611734565b610a80565b6001905092915050565b6001151560065f3373ffffffffffffffffffffffffffffffffffffffff1673ffffffffffffffffffffffffffffffffffffffff1681526020019081526020015f205f9054906101000a900460ff16151514610654576040517f08c379a000000000000000000000000000000000000000000000000000000000815260040161064b906117b1565b60405180910390fd5b61065e8282610ebb565b5050565b5f60015f8373ffffffffffffffffffffffffffffffffffffffff1673ffffffffffffffffffffffffffffffffffffffff1681526020019081526020015f20549050919050565b6106b0611013565b6106b95f61109a565b565b5f805f9054906101000a900473ffffffffffffffffffffffffffffffffffffffff16905090565b6060600580546106f190611649565b80601f016020809104026020016040519081016040528092919081815260200182805461071d90611649565b80156107685780601f1061073f57610100808354040283529160200191610768565b820191905f5260205f20905b81548152906001019060200180831161074b57829003601f168201915b5050505050905090565b6001151560065f3373ffffffffffffffffffffffffffffffffffffffff1673ffffffffffffffffffffffffffffffffffffffff1681526020019081526020015f205f9054906101000a900460ff16151514610802576040517f08c379a00000000000000000000000000000000000000000000000000000000081526004016107f990611819565b60405180910390fd5b61080c828261115b565b5050565b5f8060025f61081d610a79565b73ffffffffffffffffffffffffffffffffffffffff1673ffffffffffffffffffffffffffffffffffffffff1681526020019081526020015f205f8573ffffffffffffffffffffffffffffffffffffffff1673ffffffffffffffffffffffffffffffffffffffff1681526020019081526020015f20549050828110156108d7576040517f08c379a00000000000000000000000000000000000000000000000000000000081526004016108ce906118a7565b60405180910390fd5b6108eb6108e2610a79565b85858403610a80565b600191505092915050565b5f610909610902610a79565b8484610c43565b6001905092915050565b61091b611013565b600160065f8373ffffffffffffffffffffffffffffffffffffffff1673ffffffffffffffffffffffffffffffffffffffff1681526020019081526020015f205f6101000a81548160ff02191690831515021790555050565b5f60025f8473ffffffffffffffffffffffffffffffffffffffff1673ffffffffffffffffffffffffffffffffffffffff1681526020019081526020015f205f8373ffffffffffffffffffffffffffffffffffffffff1673ffffffffffffffffffffffffffffffffffffffff1681526020019081526020015f2054905092915050565b6109fd611013565b5f73ffffffffffffffffffffffffffffffffffffffff168173ffffffffffffffffffffffffffffffffffffffff1603610a6d575f6040517f1e4fbdf7000000000000000000000000000000000000000000000000000000008152600401610a6491906115c5565b60405180910390fd5b610a768161109a565b50565b5f33905090565b5f73ffffffffffffffffffffffffffffffffffffffff168373ffffffffffffffffffffffffffffffffffffffff1603610aee576040517f08c379a0000000000000000000000000000000000000000000000000000000008152600401610ae590611935565b60405180910390fd5b5f73ffffffffffffffffffffffffffffffffffffffff168273ffffffffffffffffffffffffffffffffffffffff1603610b5c576040517f08c379a0000000000000000000000000000000000000000000000000000000008152600401610b53906119c3565b60405180910390fd5b8060025f8573ffffffffffffffffffffffffffffffffffffffff1673ffffffffffffffffffffffffffffffffffffffff1681526020019081526020015f205f8473ffffffffffffffffffffffffffffffffffffffff1673ffffffffffffffffffffffffffffffffffffffff1681526020019081526020015f20819055508173ffffffffffffffffffffffffffffffffffffffff168373ffffffffffffffffffffffffffffffffffffffff167f8c5be1e5ebec7d5bd14f71427d1e84f3dd0314c0f7b2291e5b200ac8c7c3b92583604051610c3691906114ee565b60405180910390a3505050565b5f73ffffffffffffffffffffffffffffffffffffffff168373ffffffffffffffffffffffffffffffffffffffff1603610cb1576040517f08c379a0000000000000000000000000000000000000000000000000000000008152600401610ca890611a51565b60405180910390fd5b5f73ffffffffffffffffffffffffffffffffffffffff168273ffffffffffffffffffffffffffffffffffffffff1603610d1f576040517f08c379a0000000000000000000000000000000000000000000000000000000008152600401610d1690611adf565b60405180910390fd5b610d2a838383611329565b5f60015f8573ffffffffffffffffffffffffffffffffffffffff1673ffffffffffffffffffffffffffffffffffffffff1681526020019081526020015f2054905081811015610dae576040517f08c379a0000000000000000000000000000000000000000000000000000000008152600401610da590611b6d565b60405180910390fd5b81810360015f8673ffffffffffffffffffffffffffffffffffffffff1673ffffffffffffffffffffffffffffffffffffffff1681526020019081526020015f20819055508160015f8573ffffffffffffffffffffffffffffffffffffffff1673ffffffffffffffffffffffffffffffffffffffff1681526020019081526020015f205f828254610e3e9190611734565b925050819055508273ffffffffffffffffffffffffffffffffffffffff168473ffffffffffffffffffffffffffffffffffffffff167fddf252ad1be2c89b69c2b068fc378daa952ba7f163c4a11628f55a4df523b3ef84604051610ea291906114ee565b60405180910390a3610eb584848461132e565b50505050565b5f73ffffffffffffffffffffffffffffffffffffffff168273ffffffffffffffffffffffffffffffffffffffff1603610f29576040517f08c379a0000000000000000000000000000000000000000000000000000000008152600401610f2090611bd5565b60405180910390fd5b610f345f8383611329565b8060035f828254610f459190611734565b925050819055508060015f8473ffffffffffffffffffffffffffffffffffffffff1673ffffffffffffffffffffffffffffffffffffffff1681526020019081526020015f205f828254610f989190611734565b925050819055508173ffffffffffffffffffffffffffffffffffffffff165f73ffffffffffffffffffffffffffffffffffffffff167fddf252ad1be2c89b69c2b068fc378daa952ba7f163c4a11628f55a4df523b3ef83604051610ffc91906114ee565b60405180910390a361100f5f838361132e565b5050565b61101b610a79565b73ffffffffffffffffffffffffffffffffffffffff166110396106bb565b73ffffffffffffffffffffffffffffffffffffffff16146110985761105c610a79565b6040517f118cdaa700000000000000000000000000000000000000000000000000000000815260040161108f91906115c5565b60405180910390fd5b565b5f805f9054906101000a900473ffffffffffffffffffffffffffffffffffffffff169050815f806101000a81548173ffffffffffffffffffffffffffffffffffffffff021916908373ffffffffffffffffffffffffffffffffffffffff1602179055508173ffffffffffffffffffffffffffffffffffffffff168173ffffffffffffffffffffffffffffffffffffffff167f8be0079c531659141344cd1fd0a4f28419497f9722a3daafe3b4186f6b6457e060405160405180910390a35050565b5f73ffffffffffffffffffffffffffffffffffffffff168273ffffffffffffffffffffffffffffffffffffffff16036111c9576040517f08c379a00000000000000000000000000000000000000000000000000000000081526004016111c090611c63565b60405180910390fd5b6111d4825f83611329565b5f60015f8473ffffffffffffffffffffffffffffffffffffffff1673ffffffffffffffffffffffffffffffffffffffff1681526020019081526020015f2054905081811015611258576040517f08c379a000000000000000000000000000000000000000000000000000000000815260040161124f90611cf1565b60405180910390fd5b81810360015f8573ffffffffffffffffffffffffffffffffffffffff1673ffffffffffffffffffffffffffffffffffffffff1681526020019081526020015f20819055508160035f8282546112ad9190611d0f565b925050819055505f73ffffffffffffffffffffffffffffffffffffffff168373ffffffffffffffffffffffffffffffffffffffff167fddf252ad1be2c89b69c2b068fc378daa952ba7f163c4a11628f55a4df523b3ef8460405161131191906114ee565b60405180910390a3611324835f8461132e565b505050565b505050565b505050565b5f81519050919050565b5f82825260208201905092915050565b5f5b8381101561136a57808201518184015260208101905061134f565b5f8484015250505050565b5f601f19601f8301169050919050565b5f61138f82611333565b611399818561133d565b93506113a981856020860161134d565b6113b281611375565b840191505092915050565b5f6020820190508181035f8301526113d58184611385565b905092915050565b5f80fd5b5f73ffffffffffffffffffffffffffffffffffffffff82169050919050565b5f61140a826113e1565b9050919050565b61141a81611400565b8114611424575f80fd5b50565b5f8135905061143581611411565b92915050565b5f819050919050565b61144d8161143b565b8114611457575f80fd5b50565b5f8135905061146881611444565b92915050565b5f8060408385031215611484576114836113dd565b5b5f61149185828601611427565b92505060206114a28582860161145a565b9150509250929050565b5f8115159050919050565b6114c0816114ac565b82525050565b5f6020820190506114d95f8301846114b7565b92915050565b6114e88161143b565b82525050565b5f6020820190506115015f8301846114df565b92915050565b5f805f6060848603121561151e5761151d6113dd565b5b5f61152b86828701611427565b935050602061153c86828701611427565b925050604061154d8682870161145a565b9150509250925092565b5f60ff82169050919050565b61156c81611557565b82525050565b5f6020820190506115855f830184611563565b92915050565b5f602082840312156115a05761159f6113dd565b5b5f6115ad84828501611427565b91505092915050565b6115bf81611400565b82525050565b5f6020820190506115d85f8301846115b6565b92915050565b5f80604083850312156115f4576115f36113dd565b5b5f61160185828601611427565b925050602061161285828601611427565b9150509250929050565b7f4e487b71000000000000000000000000000000000000000000000000000000005f52602260045260245ffd5b5f600282049050600182168061166057607f821691505b6020821081036116735761167261161c565b5b50919050565b7f45524332303a207472616e7366657220616d6f756e74206578636565647320615f8201527f6c6c6f77616e6365000000000000000000000000000000000000000000000000602082015250565b5f6116d360288361133d565b91506116de82611679565b604082019050919050565b5f6020820190508181035f830152611700816116c7565b9050919050565b7f4e487b71000000000000000000000000000000000000000000000000000000005f52601160045260245ffd5b5f61173e8261143b565b91506117498361143b565b925082820190508082111561176157611760611707565b5b92915050565b7f796f7520617265206e6f7420617070726f7665642020746f206d696e740000005f82015250565b5f61179b601d8361133d565b91506117a682611767565b602082019050919050565b5f6020820190508181035f8301526117c88161178f565b9050919050565b7f796f7520617265206e6f7420617070726f7665642020746f206275726e0000005f82015250565b5f611803601d8361133d565b915061180e826117cf565b602082019050919050565b5f6020820190508181035f830152611830816117f7565b9050919050565b7f45524332303a2064656372656173656420616c6c6f77616e63652062656c6f775f8201527f207a65726f000000000000000000000000000000000000000000000000000000602082015250565b5f61189160258361133d565b915061189c82611837565b604082019050919050565b5f6020820190508181035f8301526118be81611885565b9050919050565b7f45524332303a20617070726f76652066726f6d20746865207a65726f206164645f8201527f7265737300000000000000000000000000000000000000000000000000000000602082015250565b5f61191f60248361133d565b915061192a826118c5565b604082019050919050565b5f6020820190508181035f83015261194c81611913565b9050919050565b7f45524332303a20617070726f766520746f20746865207a65726f2061646472655f8201527f7373000000000000000000000000000000000000000000000000000000000000602082015250565b5f6119ad60228361133d565b91506119b882611953565b604082019050919050565b5f6020820190508181035f8301526119da816119a1565b9050919050565b7f45524332303a207472616e736665722066726f6d20746865207a65726f2061645f8201527f6472657373000000000000000000000000000000000000000000000000000000602082015250565b5f611a3b60258361133d565b9150611a46826119e1565b604082019050919050565b5f6020820190508181035f830152611a6881611a2f565b9050919050565b7f45524332303a207472616e7366657220746f20746865207a65726f20616464725f8201527f6573730000000000000000000000000000000000000000000000000000000000602082015250565b5f611ac960238361133d565b9150611ad482611a6f565b604082019050919050565b5f6020820190508181035f830152611af681611abd565b9050919050565b7f45524332303a207472616e7366657220616d6f756e74206578636565647320625f8201527f616c616e63650000000000000000000000000000000000000000000000000000602082015250565b5f611b5760268361133d565b9150611b6282611afd565b604082019050919050565b5f6020820190508181035f830152611b8481611b4b565b9050919050565b7f45524332303a206d696e7420746f20746865207a65726f2061646472657373005f82015250565b5f611bbf601f8361133d565b9150611bca82611b8b565b602082019050919050565b5f6020820190508181035f830152611bec81611bb3565b9050919050565b7f45524332303a206275726e2066726f6d20746865207a65726f206164647265735f8201527f7300000000000000000000000000000000000000000000000000000000000000602082015250565b5f611c4d60218361133d565b9150611c5882611bf3565b604082019050919050565b5f6020820190508181035f830152611c7a81611c41565b9050919050565b7f45524332303a206275726e20616d6f756e7420657863656564732062616c616e5f8201527f6365000000000000000000000000000000000000000000000000000000000000602082015250565b5f611cdb60228361133d565b9150611ce682611c81565b604082019050919050565b5f6020820190508181035f830152611d0881611ccf565b9050919050565b5f611d198261143b565b9150611d248361143b565b9250828203905081811115611d3c57611d3b611707565b5b9291505056fea2646970667358221220b41080e5da9169c3a221224cb7e5b448a69fe5e16c586a1bff8392b0519cc69664736f6c63430008160033",
					"opcodes": "PUSH1 0x80 PUSH1 0x40 MSTORE CALLVALUE DUP1 ISZERO PUSH3 0x10 JUMPI PUSH0 DUP1 REVERT JUMPDEST POP PUSH1 0x40 MLOAD PUSH3 0x27D8 CODESIZE SUB DUP1 PUSH3 0x27D8 DUP4 CODECOPY DUP2 DUP2 ADD PUSH1 0x40 MSTORE DUP2 ADD SWAP1 PUSH3 0x36 SWAP2 SWAP1 PUSH3 0x556 JUMP JUMPDEST DUP1 PUSH0 PUSH20 0xFFFFFFFFFFFFFFFFFFFFFFFFFFFFFFFFFFFFFFFF AND DUP2 PUSH20 0xFFFFFFFFFFFFFFFFFFFFFFFFFFFFFFFFFFFFFFFF AND SUB PUSH3 0xAA JUMPI PUSH0 PUSH1 0x40 MLOAD PUSH32 0x1E4FBDF700000000000000000000000000000000000000000000000000000000 DUP2 MSTORE PUSH1 0x4 ADD PUSH3 0xA1 SWAP2 SWAP1 PUSH3 0x614 JUMP JUMPDEST PUSH1 0x40 MLOAD DUP1 SWAP2 SUB SWAP1 REVERT JUMPDEST PUSH3 0xBB DUP2 PUSH3 0xFC PUSH1 0x20 SHL PUSH1 0x20 SHR JUMP JUMPDEST POP DUP4 PUSH1 0x4 SWAP1 DUP2 PUSH3 0xCD SWAP2 SWAP1 PUSH3 0x85D JUMP JUMPDEST POP DUP3 PUSH1 0x5 SWAP1 DUP2 PUSH3 0xDF SWAP2 SWAP1 PUSH3 0x85D JUMP JUMPDEST POP PUSH3 0xF2 CALLER DUP4 PUSH3 0x1BD PUSH1 0x20 SHL PUSH1 0x20 SHR JUMP JUMPDEST POP POP POP POP PUSH3 0xA52 JUMP JUMPDEST PUSH0 DUP1 PUSH0 SWAP1 SLOAD SWAP1 PUSH2 0x100 EXP SWAP1 DIV PUSH20 0xFFFFFFFFFFFFFFFFFFFFFFFFFFFFFFFFFFFFFFFF AND SWAP1 POP DUP2 PUSH0 DUP1 PUSH2 0x100 EXP DUP2 SLOAD DUP2 PUSH20 0xFFFFFFFFFFFFFFFFFFFFFFFFFFFFFFFFFFFFFFFF MUL NOT AND SWAP1 DUP4 PUSH20 0xFFFFFFFFFFFFFFFFFFFFFFFFFFFFFFFFFFFFFFFF AND MUL OR SWAP1 SSTORE POP DUP2 PUSH20 0xFFFFFFFFFFFFFFFFFFFFFFFFFFFFFFFFFFFFFFFF AND DUP2 PUSH20 0xFFFFFFFFFFFFFFFFFFFFFFFFFFFFFFFFFFFFFFFF AND PUSH32 0x8BE0079C531659141344CD1FD0A4F28419497F9722A3DAAFE3B4186F6B6457E0 PUSH1 0x40 MLOAD PUSH1 0x40 MLOAD DUP1 SWAP2 SUB SWAP1 LOG3 POP POP JUMP JUMPDEST PUSH0 PUSH20 0xFFFFFFFFFFFFFFFFFFFFFFFFFFFFFFFFFFFFFFFF AND DUP3 PUSH20 0xFFFFFFFFFFFFFFFFFFFFFFFFFFFFFFFFFFFFFFFF AND SUB PUSH3 0x22E JUMPI PUSH1 0x40 MLOAD PUSH32 0x8C379A000000000000000000000000000000000000000000000000000000000 DUP2 MSTORE PUSH1 0x4 ADD PUSH3 0x225 SWAP1 PUSH3 0x99F JUMP JUMPDEST PUSH1 0x40 MLOAD DUP1 SWAP2 SUB SWAP1 REVERT JUMPDEST PUSH3 0x241 PUSH0 DUP4 DUP4 PUSH3 0x32E PUSH1 0x20 SHL PUSH1 0x20 SHR JUMP JUMPDEST DUP1 PUSH1 0x3 PUSH0 DUP3 DUP3 SLOAD PUSH3 0x254 SWAP2 SWAP1 PUSH3 0x9EC JUMP JUMPDEST SWAP3 POP POP DUP2 SWAP1 SSTORE POP DUP1 PUSH1 0x1 PUSH0 DUP5 PUSH20 0xFFFFFFFFFFFFFFFFFFFFFFFFFFFFFFFFFFFFFFFF AND PUSH20 0xFFFFFFFFFFFFFFFFFFFFFFFFFFFFFFFFFFFFFFFF AND DUP2 MSTORE PUSH1 0x20 ADD SWAP1 DUP2 MSTORE PUSH1 0x20 ADD PUSH0 KECCAK256 PUSH0 DUP3 DUP3 SLOAD PUSH3 0x2A9 SWAP2 SWAP1 PUSH3 0x9EC JUMP JUMPDEST SWAP3 POP POP DUP2 SWAP1 SSTORE POP DUP2 PUSH20 0xFFFFFFFFFFFFFFFFFFFFFFFFFFFFFFFFFFFFFFFF AND PUSH0 PUSH20 0xFFFFFFFFFFFFFFFFFFFFFFFFFFFFFFFFFFFFFFFF AND PUSH32 0xDDF252AD1BE2C89B69C2B068FC378DAA952BA7F163C4A11628F55A4DF523B3EF DUP4 PUSH1 0x40 MLOAD PUSH3 0x30F SWAP2 SWAP1 PUSH3 0xA37 JUMP JUMPDEST PUSH1 0x40 MLOAD DUP1 SWAP2 SUB SWAP1 LOG3 PUSH3 0x32A PUSH0 DUP4 DUP4 PUSH3 0x333 PUSH1 0x20 SHL PUSH1 0x20 SHR JUMP JUMPDEST POP POP JUMP JUMPDEST POP POP POP JUMP JUMPDEST POP POP POP JUMP JUMPDEST PUSH0 PUSH1 0x40 MLOAD SWAP1 POP SWAP1 JUMP JUMPDEST PUSH0 DUP1 REVERT JUMPDEST PUSH0 DUP1 REVERT JUMPDEST PUSH0 DUP1 REVERT JUMPDEST PUSH0 DUP1 REVERT JUMPDEST PUSH0 PUSH1 0x1F NOT PUSH1 0x1F DUP4 ADD AND SWAP1 POP SWAP2 SWAP1 POP JUMP JUMPDEST PUSH32 0x4E487B7100000000000000000000000000000000000000000000000000000000 PUSH0 MSTORE PUSH1 0x41 PUSH1 0x4 MSTORE PUSH1 0x24 PUSH0 REVERT JUMPDEST PUSH3 0x399 DUP3 PUSH3 0x351 JUMP JUMPDEST DUP2 ADD DUP2 DUP2 LT PUSH8 0xFFFFFFFFFFFFFFFF DUP3 GT OR ISZERO PUSH3 0x3BB JUMPI PUSH3 0x3BA PUSH3 0x361 JUMP JUMPDEST JUMPDEST DUP1 PUSH1 0x40 MSTORE POP POP POP JUMP JUMPDEST PUSH0 PUSH3 0x3CF PUSH3 0x338 JUMP JUMPDEST SWAP1 POP PUSH3 0x3DD DUP3 DUP3 PUSH3 0x38E JUMP JUMPDEST SWAP2 SWAP1 POP JUMP JUMPDEST PUSH0 PUSH8 0xFFFFFFFFFFFFFFFF DUP3 GT ISZERO PUSH3 0x3FF JUMPI PUSH3 0x3FE PUSH3 0x361 JUMP JUMPDEST JUMPDEST PUSH3 0x40A DUP3 PUSH3 0x351 JUMP JUMPDEST SWAP1 POP PUSH1 0x20 DUP2 ADD SWAP1 POP SWAP2 SWAP1 POP JUMP JUMPDEST PUSH0 JUMPDEST DUP4 DUP2 LT ISZERO PUSH3 0x436 JUMPI DUP1 DUP3 ADD MLOAD DUP2 DUP5 ADD MSTORE PUSH1 0x20 DUP2 ADD SWAP1 POP PUSH3 0x419 JUMP JUMPDEST PUSH0 DUP5 DUP5 ADD MSTORE POP POP POP POP JUMP JUMPDEST PUSH0 PUSH3 0x457 PUSH3 0x451 DUP5 PUSH3 0x3E2 JUMP JUMPDEST PUSH3 0x3C4 JUMP JUMPDEST SWAP1 POP DUP3 DUP2 MSTORE PUSH1 0x20 DUP2 ADD DUP5 DUP5 DUP5 ADD GT ISZERO PUSH3 0x476 JUMPI PUSH3 0x475 PUSH3 0x34D JUMP JUMPDEST JUMPDEST PUSH3 0x483 DUP5 DUP3 DUP6 PUSH3 0x417 JUMP JUMPDEST POP SWAP4 SWAP3 POP POP POP JUMP JUMPDEST PUSH0 DUP3 PUSH1 0x1F DUP4 ADD SLT PUSH3 0x4A2 JUMPI PUSH3 0x4A1 PUSH3 0x349 JUMP JUMPDEST JUMPDEST DUP2 MLOAD PUSH3 0x4B4 DUP5 DUP3 PUSH1 0x20 DUP7 ADD PUSH3 0x441 JUMP JUMPDEST SWAP2 POP POP SWAP3 SWAP2 POP POP JUMP JUMPDEST PUSH0 DUP2 SWAP1 POP SWAP2 SWAP1 POP JUMP JUMPDEST PUSH3 0x4D1 DUP2 PUSH3 0x4BD JUMP JUMPDEST DUP2 EQ PUSH3 0x4DC JUMPI PUSH0 DUP1 REVERT JUMPDEST POP JUMP JUMPDEST PUSH0 DUP2 MLOAD SWAP1 POP PUSH3 0x4EF DUP2 PUSH3 0x4C6 JUMP JUMPDEST SWAP3 SWAP2 POP POP JUMP JUMPDEST PUSH0 PUSH20 0xFFFFFFFFFFFFFFFFFFFFFFFFFFFFFFFFFFFFFFFF DUP3 AND SWAP1 POP SWAP2 SWAP1 POP JUMP JUMPDEST PUSH0 PUSH3 0x520 DUP3 PUSH3 0x4F5 JUMP JUMPDEST SWAP1 POP SWAP2 SWAP1 POP JUMP JUMPDEST PUSH3 0x532 DUP2 PUSH3 0x514 JUMP JUMPDEST DUP2 EQ PUSH3 0x53D JUMPI PUSH0 DUP1 REVERT JUMPDEST POP JUMP JUMPDEST PUSH0 DUP2 MLOAD SWAP1 POP PUSH3 0x550 DUP2 PUSH3 0x527 JUMP JUMPDEST SWAP3 SWAP2 POP POP JUMP JUMPDEST PUSH0 DUP1 PUSH0 DUP1 PUSH1 0x80 DUP6 DUP8 SUB SLT ISZERO PUSH3 0x571 JUMPI PUSH3 0x570 PUSH3 0x341 JUMP JUMPDEST JUMPDEST PUSH0 DUP6 ADD MLOAD PUSH8 0xFFFFFFFFFFFFFFFF DUP2 GT ISZERO PUSH3 0x591 JUMPI PUSH3 0x590 PUSH3 0x345 JUMP JUMPDEST JUMPDEST PUSH3 0x59F DUP8 DUP3 DUP9 ADD PUSH3 0x48B JUMP JUMPDEST SWAP5 POP POP PUSH1 0x20 DUP6 ADD MLOAD PUSH8 0xFFFFFFFFFFFFFFFF DUP2 GT ISZERO PUSH3 0x5C3 JUMPI PUSH3 0x5C2 PUSH3 0x345 JUMP JUMPDEST JUMPDEST PUSH3 0x5D1 DUP8 DUP3 DUP9 ADD PUSH3 0x48B JUMP JUMPDEST SWAP4 POP POP PUSH1 0x40 PUSH3 0x5E4 DUP8 DUP3 DUP9 ADD PUSH3 0x4DF JUMP JUMPDEST SWAP3 POP POP PUSH1 0x60 PUSH3 0x5F7 DUP8 DUP3 DUP9 ADD PUSH3 0x540 JUMP JUMPDEST SWAP2 POP POP SWAP3 SWAP6 SWAP2 SWAP5 POP SWAP3 POP JUMP JUMPDEST PUSH3 0x60E DUP2 PUSH3 0x514 JUMP JUMPDEST DUP3 MSTORE POP POP JUMP JUMPDEST PUSH0 PUSH1 0x20 DUP3 ADD SWAP1 POP PUSH3 0x629 PUSH0 DUP4 ADD DUP5 PUSH3 0x603 JUMP JUMPDEST SWAP3 SWAP2 POP POP JUMP JUMPDEST PUSH0 DUP2 MLOAD SWAP1 POP SWAP2 SWAP1 POP JUMP JUMPDEST PUSH32 0x4E487B7100000000000000000000000000000000000000000000000000000000 PUSH0 MSTORE PUSH1 0x22 PUSH1 0x4 MSTORE PUSH1 0x24 PUSH0 REVERT JUMPDEST PUSH0 PUSH1 0x2 DUP3 DIV SWAP1 POP PUSH1 0x1 DUP3 AND DUP1 PUSH3 0x67E JUMPI PUSH1 0x7F DUP3 AND SWAP2 POP JUMPDEST PUSH1 0x20 DUP3 LT DUP2 SUB PUSH3 0x694 JUMPI PUSH3 0x693 PUSH3 0x639 JUMP JUMPDEST JUMPDEST POP SWAP2 SWAP1 POP JUMP JUMPDEST PUSH0 DUP2 SWAP1 POP DUP2 PUSH0 MSTORE PUSH1 0x20 PUSH0 KECCAK256 SWAP1 POP SWAP2 SWAP1 POP JUMP JUMPDEST PUSH0 PUSH1 0x20 PUSH1 0x1F DUP4 ADD DIV SWAP1 POP SWAP2 SWAP1 POP JUMP JUMPDEST PUSH0 DUP3 DUP3 SHL SWAP1 POP SWAP3 SWAP2 POP POP JUMP JUMPDEST PUSH0 PUSH1 0x8 DUP4 MUL PUSH3 0x6F8 PUSH32 0xFFFFFFFFFFFFFFFFFFFFFFFFFFFFFFFFFFFFFFFFFFFFFFFFFFFFFFFFFFFFFFFF DUP3 PUSH3 0x6BB JUMP JUMPDEST PUSH3 0x704 DUP7 DUP4 PUSH3 0x6BB JUMP JUMPDEST SWAP6 POP DUP1 NOT DUP5 AND SWAP4 POP DUP1 DUP7 AND DUP5 OR SWAP3 POP POP POP SWAP4 SWAP3 POP POP POP JUMP JUMPDEST PUSH0 DUP2 SWAP1 POP SWAP2 SWAP1 POP JUMP JUMPDEST PUSH0 PUSH3 0x745 PUSH3 0x73F PUSH3 0x739 DUP5 PUSH3 0x4BD JUMP JUMPDEST PUSH3 0x71C JUMP JUMPDEST PUSH3 0x4BD JUMP JUMPDEST SWAP1 POP SWAP2 SWAP1 POP JUMP JUMPDEST PUSH0 DUP2 SWAP1 POP SWAP2 SWAP1 POP JUMP JUMPDEST PUSH3 0x760 DUP4 PUSH3 0x725 JUMP JUMPDEST PUSH3 0x778 PUSH3 0x76F DUP3 PUSH3 0x74C JUMP JUMPDEST DUP5 DUP5 SLOAD PUSH3 0x6C7 JUMP JUMPDEST DUP3 SSTORE POP POP POP POP JUMP JUMPDEST PUSH0 SWAP1 JUMP JUMPDEST PUSH3 0x78E PUSH3 0x780 JUMP JUMPDEST PUSH3 0x79B DUP2 DUP5 DUP5 PUSH3 0x755 JUMP JUMPDEST POP POP POP JUMP JUMPDEST JUMPDEST DUP2 DUP2 LT ISZERO PUSH3 0x7C2 JUMPI PUSH3 0x7B6 PUSH0 DUP3 PUSH3 0x784 JUMP JUMPDEST PUSH1 0x1 DUP2 ADD SWAP1 POP PUSH3 0x7A1 JUMP JUMPDEST POP POP JUMP JUMPDEST PUSH1 0x1F DUP3 GT ISZERO PUSH3 0x811 JUMPI PUSH3 0x7DB DUP2 PUSH3 0x69A JUMP JUMPDEST PUSH3 0x7E6 DUP5 PUSH3 0x6AC JUMP JUMPDEST DUP2 ADD PUSH1 0x20 DUP6 LT ISZERO PUSH3 0x7F6 JUMPI DUP2 SWAP1 POP JUMPDEST PUSH3 0x80E PUSH3 0x805 DUP6 PUSH3 0x6AC JUMP JUMPDEST DUP4 ADD DUP3 PUSH3 0x7A0 JUMP JUMPDEST POP POP JUMPDEST POP POP POP JUMP JUMPDEST PUSH0 DUP3 DUP3 SHR SWAP1 POP SWAP3 SWAP2 POP POP JUMP JUMPDEST PUSH0 PUSH3 0x833 PUSH0 NOT DUP5 PUSH1 0x8 MUL PUSH3 0x816 JUMP JUMPDEST NOT DUP1 DUP4 AND SWAP2 POP POP SWAP3 SWAP2 POP POP JUMP JUMPDEST PUSH0 PUSH3 0x84D DUP4 DUP4 PUSH3 0x822 JUMP JUMPDEST SWAP2 POP DUP3 PUSH1 0x2 MUL DUP3 OR SWAP1 POP SWAP3 SWAP2 POP POP JUMP JUMPDEST PUSH3 0x868 DUP3 PUSH3 0x62F JUMP JUMPDEST PUSH8 0xFFFFFFFFFFFFFFFF DUP2 GT ISZERO PUSH3 0x884 JUMPI PUSH3 0x883 PUSH3 0x361 JUMP JUMPDEST JUMPDEST PUSH3 0x890 DUP3 SLOAD PUSH3 0x666 JUMP JUMPDEST PUSH3 0x89D DUP3 DUP3 DUP6 PUSH3 0x7C6 JUMP JUMPDEST PUSH0 PUSH1 0x20 SWAP1 POP PUSH1 0x1F DUP4 GT PUSH1 0x1 DUP2 EQ PUSH3 0x8D3 JUMPI PUSH0 DUP5 ISZERO PUSH3 0x8BE JUMPI DUP3 DUP8 ADD MLOAD SWAP1 POP JUMPDEST PUSH3 0x8CA DUP6 DUP3 PUSH3 0x840 JUMP JUMPDEST DUP7 SSTORE POP PUSH3 0x939 JUMP JUMPDEST PUSH1 0x1F NOT DUP5 AND PUSH3 0x8E3 DUP7 PUSH3 0x69A JUMP JUMPDEST PUSH0 JUMPDEST DUP3 DUP2 LT ISZERO PUSH3 0x90C JUMPI DUP5 DUP10 ADD MLOAD DUP3 SSTORE PUSH1 0x1 DUP3 ADD SWAP2 POP PUSH1 0x20 DUP6 ADD SWAP5 POP PUSH1 0x20 DUP2 ADD SWAP1 POP PUSH3 0x8E5 JUMP JUMPDEST DUP7 DUP4 LT ISZERO PUSH3 0x92C JUMPI DUP5 DUP10 ADD MLOAD PUSH3 0x928 PUSH1 0x1F DUP10 AND DUP3 PUSH3 0x822 JUMP JUMPDEST DUP4 SSTORE POP JUMPDEST PUSH1 0x1 PUSH1 0x2 DUP9 MUL ADD DUP9 SSTORE POP POP POP JUMPDEST POP POP POP POP POP POP JUMP JUMPDEST PUSH0 DUP3 DUP3 MSTORE PUSH1 0x20 DUP3 ADD SWAP1 POP SWAP3 SWAP2 POP POP JUMP JUMPDEST PUSH32 0x45524332303A206D696E7420746F20746865207A65726F206164647265737300 PUSH0 DUP3 ADD MSTORE POP JUMP JUMPDEST PUSH0 PUSH3 0x987 PUSH1 0x1F DUP4 PUSH3 0x941 JUMP JUMPDEST SWAP2 POP PUSH3 0x994 DUP3 PUSH3 0x951 JUMP JUMPDEST PUSH1 0x20 DUP3 ADD SWAP1 POP SWAP2 SWAP1 POP JUMP JUMPDEST PUSH0 PUSH1 0x20 DUP3 ADD SWAP1 POP DUP2 DUP2 SUB PUSH0 DUP4 ADD MSTORE PUSH3 0x9B8 DUP2 PUSH3 0x979 JUMP JUMPDEST SWAP1 POP SWAP2 SWAP1 POP JUMP JUMPDEST PUSH32 0x4E487B7100000000000000000000000000000000000000000000000000000000 PUSH0 MSTORE PUSH1 0x11 PUSH1 0x4 MSTORE PUSH1 0x24 PUSH0 REVERT JUMPDEST PUSH0 PUSH3 0x9F8 DUP3 PUSH3 0x4BD JUMP JUMPDEST SWAP2 POP PUSH3 0xA05 DUP4 PUSH3 0x4BD JUMP JUMPDEST SWAP3 POP DUP3 DUP3 ADD SWAP1 POP DUP1 DUP3 GT ISZERO PUSH3 0xA20 JUMPI PUSH3 0xA1F PUSH3 0x9BF JUMP JUMPDEST JUMPDEST SWAP3 SWAP2 POP POP JUMP JUMPDEST PUSH3 0xA31 DUP2 PUSH3 0x4BD JUMP JUMPDEST DUP3 MSTORE POP POP JUMP JUMPDEST PUSH0 PUSH1 0x20 DUP3 ADD SWAP1 POP PUSH3 0xA4C PUSH0 DUP4 ADD DUP5 PUSH3 0xA26 JUMP JUMPDEST SWAP3 SWAP2 POP POP JUMP JUMPDEST PUSH2 0x1D78 DUP1 PUSH3 0xA60 PUSH0 CODECOPY PUSH0 RETURN INVALID PUSH1 0x80 PUSH1 0x40 MSTORE CALLVALUE DUP1 ISZERO PUSH2 0xF JUMPI PUSH0 DUP1 REVERT JUMPDEST POP PUSH1 0x4 CALLDATASIZE LT PUSH2 0x109 JUMPI PUSH0 CALLDATALOAD PUSH1 0xE0 SHR DUP1 PUSH4 0x715018A6 GT PUSH2 0xA0 JUMPI DUP1 PUSH4 0xA457C2D7 GT PUSH2 0x6F JUMPI DUP1 PUSH4 0xA457C2D7 EQ PUSH2 0x2A5 JUMPI DUP1 PUSH4 0xA9059CBB EQ PUSH2 0x2D5 JUMPI DUP1 PUSH4 0xB6B285D9 EQ PUSH2 0x305 JUMPI DUP1 PUSH4 0xDD62ED3E EQ PUSH2 0x321 JUMPI DUP1 PUSH4 0xF2FDE38B EQ PUSH2 0x351 JUMPI PUSH2 0x109 JUMP JUMPDEST DUP1 PUSH4 0x715018A6 EQ PUSH2 0x243 JUMPI DUP1 PUSH4 0x8DA5CB5B EQ PUSH2 0x24D JUMPI DUP1 PUSH4 0x95D89B41 EQ PUSH2 0x26B JUMPI DUP1 PUSH4 0x9DC29FAC EQ PUSH2 0x289 JUMPI PUSH2 0x109 JUMP JUMPDEST DUP1 PUSH4 0x313CE567 GT PUSH2 0xDC JUMPI DUP1 PUSH4 0x313CE567 EQ PUSH2 0x1A9 JUMPI DUP1 PUSH4 0x39509351 EQ PUSH2 0x1C7 JUMPI DUP1 PUSH4 0x40C10F19 EQ PUSH2 0x1F7 JUMPI DUP1 PUSH4 0x70A08231 EQ PUSH2 0x213 JUMPI PUSH2 0x109 JUMP JUMPDEST DUP1 PUSH4 0x6FDDE03 EQ PUSH2 0x10D JUMPI DUP1 PUSH4 0x95EA7B3 EQ PUSH2 0x12B JUMPI DUP1 PUSH4 0x18160DDD EQ PUSH2 0x15B JUMPI DUP1 PUSH4 0x23B872DD EQ PUSH2 0x179 JUMPI JUMPDEST PUSH0 DUP1 REVERT JUMPDEST PUSH2 0x115 PUSH2 0x36D JUMP JUMPDEST PUSH1 0x40 MLOAD PUSH2 0x122 SWAP2 SWAP1 PUSH2 0x13BD JUMP JUMPDEST PUSH1 0x40 MLOAD DUP1 SWAP2 SUB SWAP1 RETURN JUMPDEST PUSH2 0x145 PUSH1 0x4 DUP1 CALLDATASIZE SUB DUP2 ADD SWAP1 PUSH2 0x140 SWAP2 SWAP1 PUSH2 0x146E JUMP JUMPDEST PUSH2 0x3FD JUMP JUMPDEST PUSH1 0x40 MLOAD PUSH2 0x152 SWAP2 SWAP1 PUSH2 0x14C6 JUMP JUMPDEST PUSH1 0x40 MLOAD DUP1 SWAP2 SUB SWAP1 RETURN JUMPDEST PUSH2 0x163 PUSH2 0x41A JUMP JUMPDEST PUSH1 0x40 MLOAD PUSH2 0x170 SWAP2 SWAP1 PUSH2 0x14EE JUMP JUMPDEST PUSH1 0x40 MLOAD DUP1 SWAP2 SUB SWAP1 RETURN JUMPDEST PUSH2 0x193 PUSH1 0x4 DUP1 CALLDATASIZE SUB DUP2 ADD SWAP1 PUSH2 0x18E SWAP2 SWAP1 PUSH2 0x1507 JUMP JUMPDEST PUSH2 0x423 JUMP JUMPDEST PUSH1 0x40 MLOAD PUSH2 0x1A0 SWAP2 SWAP1 PUSH2 0x14C6 JUMP JUMPDEST PUSH1 0x40 MLOAD DUP1 SWAP2 SUB SWAP1 RETURN JUMPDEST PUSH2 0x1B1 PUSH2 0x515 JUMP JUMPDEST PUSH1 0x40 MLOAD PUSH2 0x1BE SWAP2 SWAP1 PUSH2 0x1572 JUMP JUMPDEST PUSH1 0x40 MLOAD DUP1 SWAP2 SUB SWAP1 RETURN JUMPDEST PUSH2 0x1E1 PUSH1 0x4 DUP1 CALLDATASIZE SUB DUP2 ADD SWAP1 PUSH2 0x1DC SWAP2 SWAP1 PUSH2 0x146E JUMP JUMPDEST PUSH2 0x51D JUMP JUMPDEST PUSH1 0x40 MLOAD PUSH2 0x1EE SWAP2 SWAP1 PUSH2 0x14C6 JUMP JUMPDEST PUSH1 0x40 MLOAD DUP1 SWAP2 SUB SWAP1 RETURN JUMPDEST PUSH2 0x211 PUSH1 0x4 DUP1 CALLDATASIZE SUB DUP2 ADD SWAP1 PUSH2 0x20C SWAP2 SWAP1 PUSH2 0x146E JUMP JUMPDEST PUSH2 0x5C4 JUMP JUMPDEST STOP JUMPDEST PUSH2 0x22D PUSH1 0x4 DUP1 CALLDATASIZE SUB DUP2 ADD SWAP1 PUSH2 0x228 SWAP2 SWAP1 PUSH2 0x158B JUMP JUMPDEST PUSH2 0x662 JUMP JUMPDEST PUSH1 0x40 MLOAD PUSH2 0x23A SWAP2 SWAP1 PUSH2 0x14EE JUMP JUMPDEST PUSH1 0x40 MLOAD DUP1 SWAP2 SUB SWAP1 RETURN JUMPDEST PUSH2 0x24B PUSH2 0x6A8 JUMP JUMPDEST STOP JUMPDEST PUSH2 0x255 PUSH2 0x6BB JUMP JUMPDEST PUSH1 0x40 MLOAD PUSH2 0x262 SWAP2 SWAP1 PUSH2 0x15C5 JUMP JUMPDEST PUSH1 0x40 MLOAD DUP1 SWAP2 SUB SWAP1 RETURN JUMPDEST PUSH2 0x273 PUSH2 0x6E2 JUMP JUMPDEST PUSH1 0x40 MLOAD PUSH2 0x280 SWAP2 SWAP1 PUSH2 0x13BD JUMP JUMPDEST PUSH1 0x40 MLOAD DUP1 SWAP2 SUB SWAP1 RETURN JUMPDEST PUSH2 0x2A3 PUSH1 0x4 DUP1 CALLDATASIZE SUB DUP2 ADD SWAP1 PUSH2 0x29E SWAP2 SWAP1 PUSH2 0x146E JUMP JUMPDEST PUSH2 0x772 JUMP JUMPDEST STOP JUMPDEST PUSH2 0x2BF PUSH1 0x4 DUP1 CALLDATASIZE SUB DUP2 ADD SWAP1 PUSH2 0x2BA SWAP2 SWAP1 PUSH2 0x146E JUMP JUMPDEST PUSH2 0x810 JUMP JUMPDEST PUSH1 0x40 MLOAD PUSH2 0x2CC SWAP2 SWAP1 PUSH2 0x14C6 JUMP JUMPDEST PUSH1 0x40 MLOAD DUP1 SWAP2 SUB SWAP1 RETURN JUMPDEST PUSH2 0x2EF PUSH1 0x4 DUP1 CALLDATASIZE SUB DUP2 ADD SWAP1 PUSH2 0x2EA SWAP2 SWAP1 PUSH2 0x146E JUMP JUMPDEST PUSH2 0x8F6 JUMP JUMPDEST PUSH1 0x40 MLOAD PUSH2 0x2FC SWAP2 SWAP1 PUSH2 0x14C6 JUMP JUMPDEST PUSH1 0x40 MLOAD DUP1 SWAP2 SUB SWAP1 RETURN JUMPDEST PUSH2 0x31F PUSH1 0x4 DUP1 CALLDATASIZE SUB DUP2 ADD SWAP1 PUSH2 0x31A SWAP2 SWAP1 PUSH2 0x158B JUMP JUMPDEST PUSH2 0x913 JUMP JUMPDEST STOP JUMPDEST PUSH2 0x33B PUSH1 0x4 DUP1 CALLDATASIZE SUB DUP2 ADD SWAP1 PUSH2 0x336 SWAP2 SWAP1 PUSH2 0x15DE JUMP JUMPDEST PUSH2 0x973 JUMP JUMPDEST PUSH1 0x40 MLOAD PUSH2 0x348 SWAP2 SWAP1 PUSH2 0x14EE JUMP JUMPDEST PUSH1 0x40 MLOAD DUP1 SWAP2 SUB SWAP1 RETURN JUMPDEST PUSH2 0x36B PUSH1 0x4 DUP1 CALLDATASIZE SUB DUP2 ADD SWAP1 PUSH2 0x366 SWAP2 SWAP1 PUSH2 0x158B JUMP JUMPDEST PUSH2 0x9F5 JUMP JUMPDEST STOP JUMPDEST PUSH1 0x60 PUSH1 0x4 DUP1 SLOAD PUSH2 0x37C SWAP1 PUSH2 0x1649 JUMP JUMPDEST DUP1 PUSH1 0x1F ADD PUSH1 0x20 DUP1 SWAP2 DIV MUL PUSH1 0x20 ADD PUSH1 0x40 MLOAD SWAP1 DUP2 ADD PUSH1 0x40 MSTORE DUP1 SWAP3 SWAP2 SWAP1 DUP2 DUP2 MSTORE PUSH1 0x20 ADD DUP3 DUP1 SLOAD PUSH2 0x3A8 SWAP1 PUSH2 0x1649 JUMP JUMPDEST DUP1 ISZERO PUSH2 0x3F3 JUMPI DUP1 PUSH1 0x1F LT PUSH2 0x3CA JUMPI PUSH2 0x100 DUP1 DUP4 SLOAD DIV MUL DUP4 MSTORE SWAP2 PUSH1 0x20 ADD SWAP2 PUSH2 0x3F3 JUMP JUMPDEST DUP3 ADD SWAP2 SWAP1 PUSH0 MSTORE PUSH1 0x20 PUSH0 KECCAK256 SWAP1 JUMPDEST DUP2 SLOAD DUP2 MSTORE SWAP1 PUSH1 0x1 ADD SWAP1 PUSH1 0x20 ADD DUP1 DUP4 GT PUSH2 0x3D6 JUMPI DUP3 SWAP1 SUB PUSH1 0x1F AND DUP3 ADD SWAP2 JUMPDEST POP POP POP POP POP SWAP1 POP SWAP1 JUMP JUMPDEST PUSH0 PUSH2 0x410 PUSH2 0x409 PUSH2 0xA79 JUMP JUMPDEST DUP5 DUP5 PUSH2 0xA80 JUMP JUMPDEST PUSH1 0x1 SWAP1 POP SWAP3 SWAP2 POP POP JUMP JUMPDEST PUSH0 PUSH1 0x3 SLOAD SWAP1 POP SWAP1 JUMP JUMPDEST PUSH0 PUSH2 0x42F DUP5 DUP5 DUP5 PUSH2 0xC43 JUMP JUMPDEST PUSH0 PUSH1 0x2 PUSH0 DUP7 PUSH20 0xFFFFFFFFFFFFFFFFFFFFFFFFFFFFFFFFFFFFFFFF AND PUSH20 0xFFFFFFFFFFFFFFFFFFFFFFFFFFFFFFFFFFFFFFFF AND DUP2 MSTORE PUSH1 0x20 ADD SWAP1 DUP2 MSTORE PUSH1 0x20 ADD PUSH0 KECCAK256 PUSH0 PUSH2 0x476 PUSH2 0xA79 JUMP JUMPDEST PUSH20 0xFFFFFFFFFFFFFFFFFFFFFFFFFFFFFFFFFFFFFFFF AND PUSH20 0xFFFFFFFFFFFFFFFFFFFFFFFFFFFFFFFFFFFFFFFF AND DUP2 MSTORE PUSH1 0x20 ADD SWAP1 DUP2 MSTORE PUSH1 0x20 ADD PUSH0 KECCAK256 SLOAD SWAP1 POP DUP3 DUP2 LT ISZERO PUSH2 0x4F5 JUMPI PUSH1 0x40 MLOAD PUSH32 0x8C379A000000000000000000000000000000000000000000000000000000000 DUP2 MSTORE PUSH1 0x4 ADD PUSH2 0x4EC SWAP1 PUSH2 0x16E9 JUMP JUMPDEST PUSH1 0x40 MLOAD DUP1 SWAP2 SUB SWAP1 REVERT JUMPDEST PUSH2 0x509 DUP6 PUSH2 0x501 PUSH2 0xA79 JUMP JUMPDEST DUP6 DUP5 SUB PUSH2 0xA80 JUMP JUMPDEST PUSH1 0x1 SWAP2 POP POP SWAP4 SWAP3 POP POP POP JUMP JUMPDEST PUSH0 PUSH1 0x12 SWAP1 POP SWAP1 JUMP JUMPDEST PUSH0 PUSH2 0x5BA PUSH2 0x529 PUSH2 0xA79 JUMP JUMPDEST DUP5 DUP5 PUSH1 0x2 PUSH0 PUSH2 0x536 PUSH2 0xA79 JUMP JUMPDEST PUSH20 0xFFFFFFFFFFFFFFFFFFFFFFFFFFFFFFFFFFFFFFFF AND PUSH20 0xFFFFFFFFFFFFFFFFFFFFFFFFFFFFFFFFFFFFFFFF AND DUP2 MSTORE PUSH1 0x20 ADD SWAP1 DUP2 MSTORE PUSH1 0x20 ADD PUSH0 KECCAK256 PUSH0 DUP9 PUSH20 0xFFFFFFFFFFFFFFFFFFFFFFFFFFFFFFFFFFFFFFFF AND PUSH20 0xFFFFFFFFFFFFFFFFFFFFFFFFFFFFFFFFFFFFFFFF AND DUP2 MSTORE PUSH1 0x20 ADD SWAP1 DUP2 MSTORE PUSH1 0x20 ADD PUSH0 KECCAK256 SLOAD PUSH2 0x5B5 SWAP2 SWAP1 PUSH2 0x1734 JUMP JUMPDEST PUSH2 0xA80 JUMP JUMPDEST PUSH1 0x1 SWAP1 POP SWAP3 SWAP2 POP POP JUMP JUMPDEST PUSH1 0x1 ISZERO ISZERO PUSH1 0x6 PUSH0 CALLER PUSH20 0xFFFFFFFFFFFFFFFFFFFFFFFFFFFFFFFFFFFFFFFF AND PUSH20 0xFFFFFFFFFFFFFFFFFFFFFFFFFFFFFFFFFFFFFFFF AND DUP2 MSTORE PUSH1 0x20 ADD SWAP1 DUP2 MSTORE PUSH1 0x20 ADD PUSH0 KECCAK256 PUSH0 SWAP1 SLOAD SWAP1 PUSH2 0x100 EXP SWAP1 DIV PUSH1 0xFF AND ISZERO ISZERO EQ PUSH2 0x654 JUMPI PUSH1 0x40 MLOAD PUSH32 0x8C379A000000000000000000000000000000000000000000000000000000000 DUP2 MSTORE PUSH1 0x4 ADD PUSH2 0x64B SWAP1 PUSH2 0x17B1 JUMP JUMPDEST PUSH1 0x40 MLOAD DUP1 SWAP2 SUB SWAP1 REVERT JUMPDEST PUSH2 0x65E DUP3 DUP3 PUSH2 0xEBB JUMP JUMPDEST POP POP JUMP JUMPDEST PUSH0 PUSH1 0x1 PUSH0 DUP4 PUSH20 0xFFFFFFFFFFFFFFFFFFFFFFFFFFFFFFFFFFFFFFFF AND PUSH20 0xFFFFFFFFFFFFFFFFFFFFFFFFFFFFFFFFFFFFFFFF AND DUP2 MSTORE PUSH1 0x20 ADD SWAP1 DUP2 MSTORE PUSH1 0x20 ADD PUSH0 KECCAK256 SLOAD SWAP1 POP SWAP2 SWAP1 POP JUMP JUMPDEST PUSH2 0x6B0 PUSH2 0x1013 JUMP JUMPDEST PUSH2 0x6B9 PUSH0 PUSH2 0x109A JUMP JUMPDEST JUMP JUMPDEST PUSH0 DUP1 PUSH0 SWAP1 SLOAD SWAP1 PUSH2 0x100 EXP SWAP1 DIV PUSH20 0xFFFFFFFFFFFFFFFFFFFFFFFFFFFFFFFFFFFFFFFF AND SWAP1 POP SWAP1 JUMP JUMPDEST PUSH1 0x60 PUSH1 0x5 DUP1 SLOAD PUSH2 0x6F1 SWAP1 PUSH2 0x1649 JUMP JUMPDEST DUP1 PUSH1 0x1F ADD PUSH1 0x20 DUP1 SWAP2 DIV MUL PUSH1 0x20 ADD PUSH1 0x40 MLOAD SWAP1 DUP2 ADD PUSH1 0x40 MSTORE DUP1 SWAP3 SWAP2 SWAP1 DUP2 DUP2 MSTORE PUSH1 0x20 ADD DUP3 DUP1 SLOAD PUSH2 0x71D SWAP1 PUSH2 0x1649 JUMP JUMPDEST DUP1 ISZERO PUSH2 0x768 JUMPI DUP1 PUSH1 0x1F LT PUSH2 0x73F JUMPI PUSH2 0x100 DUP1 DUP4 SLOAD DIV MUL DUP4 MSTORE SWAP2 PUSH1 0x20 ADD SWAP2 PUSH2 0x768 JUMP JUMPDEST DUP3 ADD SWAP2 SWAP1 PUSH0 MSTORE PUSH1 0x20 PUSH0 KECCAK256 SWAP1 JUMPDEST DUP2 SLOAD DUP2 MSTORE SWAP1 PUSH1 0x1 ADD SWAP1 PUSH1 0x20 ADD DUP1 DUP4 GT PUSH2 0x74B JUMPI DUP3 SWAP1 SUB PUSH1 0x1F AND DUP3 ADD SWAP2 JUMPDEST POP POP POP POP POP SWAP1 POP SWAP1 JUMP JUMPDEST PUSH1 0x1 ISZERO ISZERO PUSH1 0x6 PUSH0 CALLER PUSH20 0xFFFFFFFFFFFFFFFFFFFFFFFFFFFFFFFFFFFFFFFF AND PUSH20 0xFFFFFFFFFFFFFFFFFFFFFFFFFFFFFFFFFFFFFFFF AND DUP2 MSTORE PUSH1 0x20 ADD SWAP1 DUP2 MSTORE PUSH1 0x20 ADD PUSH0 KECCAK256 PUSH0 SWAP1 SLOAD SWAP1 PUSH2 0x100 EXP SWAP1 DIV PUSH1 0xFF AND ISZERO ISZERO EQ PUSH2 0x802 JUMPI PUSH1 0x40 MLOAD PUSH32 0x8C379A000000000000000000000000000000000000000000000000000000000 DUP2 MSTORE PUSH1 0x4 ADD PUSH2 0x7F9 SWAP1 PUSH2 0x1819 JUMP JUMPDEST PUSH1 0x40 MLOAD DUP1 SWAP2 SUB SWAP1 REVERT JUMPDEST PUSH2 0x80C DUP3 DUP3 PUSH2 0x115B JUMP JUMPDEST POP POP JUMP JUMPDEST PUSH0 DUP1 PUSH1 0x2 PUSH0 PUSH2 0x81D PUSH2 0xA79 JUMP JUMPDEST PUSH20 0xFFFFFFFFFFFFFFFFFFFFFFFFFFFFFFFFFFFFFFFF AND PUSH20 0xFFFFFFFFFFFFFFFFFFFFFFFFFFFFFFFFFFFFFFFF AND DUP2 MSTORE PUSH1 0x20 ADD SWAP1 DUP2 MSTORE PUSH1 0x20 ADD PUSH0 KECCAK256 PUSH0 DUP6 PUSH20 0xFFFFFFFFFFFFFFFFFFFFFFFFFFFFFFFFFFFFFFFF AND PUSH20 0xFFFFFFFFFFFFFFFFFFFFFFFFFFFFFFFFFFFFFFFF AND DUP2 MSTORE PUSH1 0x20 ADD SWAP1 DUP2 MSTORE PUSH1 0x20 ADD PUSH0 KECCAK256 SLOAD SWAP1 POP DUP3 DUP2 LT ISZERO PUSH2 0x8D7 JUMPI PUSH1 0x40 MLOAD PUSH32 0x8C379A000000000000000000000000000000000000000000000000000000000 DUP2 MSTORE PUSH1 0x4 ADD PUSH2 0x8CE SWAP1 PUSH2 0x18A7 JUMP JUMPDEST PUSH1 0x40 MLOAD DUP1 SWAP2 SUB SWAP1 REVERT JUMPDEST PUSH2 0x8EB PUSH2 0x8E2 PUSH2 0xA79 JUMP JUMPDEST DUP6 DUP6 DUP5 SUB PUSH2 0xA80 JUMP JUMPDEST PUSH1 0x1 SWAP2 POP POP SWAP3 SWAP2 POP POP JUMP JUMPDEST PUSH0 PUSH2 0x909 PUSH2 0x902 PUSH2 0xA79 JUMP JUMPDEST DUP5 DUP5 PUSH2 0xC43 JUMP JUMPDEST PUSH1 0x1 SWAP1 POP SWAP3 SWAP2 POP POP JUMP JUMPDEST PUSH2 0x91B PUSH2 0x1013 JUMP JUMPDEST PUSH1 0x1 PUSH1 0x6 PUSH0 DUP4 PUSH20 0xFFFFFFFFFFFFFFFFFFFFFFFFFFFFFFFFFFFFFFFF AND PUSH20 0xFFFFFFFFFFFFFFFFFFFFFFFFFFFFFFFFFFFFFFFF AND DUP2 MSTORE PUSH1 0x20 ADD SWAP1 DUP2 MSTORE PUSH1 0x20 ADD PUSH0 KECCAK256 PUSH0 PUSH2 0x100 EXP DUP2 SLOAD DUP2 PUSH1 0xFF MUL NOT AND SWAP1 DUP4 ISZERO ISZERO MUL OR SWAP1 SSTORE POP POP JUMP JUMPDEST PUSH0 PUSH1 0x2 PUSH0 DUP5 PUSH20 0xFFFFFFFFFFFFFFFFFFFFFFFFFFFFFFFFFFFFFFFF AND PUSH20 0xFFFFFFFFFFFFFFFFFFFFFFFFFFFFFFFFFFFFFFFF AND DUP2 MSTORE PUSH1 0x20 ADD SWAP1 DUP2 MSTORE PUSH1 0x20 ADD PUSH0 KECCAK256 PUSH0 DUP4 PUSH20 0xFFFFFFFFFFFFFFFFFFFFFFFFFFFFFFFFFFFFFFFF AND PUSH20 0xFFFFFFFFFFFFFFFFFFFFFFFFFFFFFFFFFFFFFFFF AND DUP2 MSTORE PUSH1 0x20 ADD SWAP1 DUP2 MSTORE PUSH1 0x20 ADD PUSH0 KECCAK256 SLOAD SWAP1 POP SWAP3 SWAP2 POP POP JUMP JUMPDEST PUSH2 0x9FD PUSH2 0x1013 JUMP JUMPDEST PUSH0 PUSH20 0xFFFFFFFFFFFFFFFFFFFFFFFFFFFFFFFFFFFFFFFF AND DUP2 PUSH20 0xFFFFFFFFFFFFFFFFFFFFFFFFFFFFFFFFFFFFFFFF AND SUB PUSH2 0xA6D JUMPI PUSH0 PUSH1 0x40 MLOAD PUSH32 0x1E4FBDF700000000000000000000000000000000000000000000000000000000 DUP2 MSTORE PUSH1 0x4 ADD PUSH2 0xA64 SWAP2 SWAP1 PUSH2 0x15C5 JUMP JUMPDEST PUSH1 0x40 MLOAD DUP1 SWAP2 SUB SWAP1 REVERT JUMPDEST PUSH2 0xA76 DUP2 PUSH2 0x109A JUMP JUMPDEST POP JUMP JUMPDEST PUSH0 CALLER SWAP1 POP SWAP1 JUMP JUMPDEST PUSH0 PUSH20 0xFFFFFFFFFFFFFFFFFFFFFFFFFFFFFFFFFFFFFFFF AND DUP4 PUSH20 0xFFFFFFFFFFFFFFFFFFFFFFFFFFFFFFFFFFFFFFFF AND SUB PUSH2 0xAEE JUMPI PUSH1 0x40 MLOAD PUSH32 0x8C379A000000000000000000000000000000000000000000000000000000000 DUP2 MSTORE PUSH1 0x4 ADD PUSH2 0xAE5 SWAP1 PUSH2 0x1935 JUMP JUMPDEST PUSH1 0x40 MLOAD DUP1 SWAP2 SUB SWAP1 REVERT JUMPDEST PUSH0 PUSH20 0xFFFFFFFFFFFFFFFFFFFFFFFFFFFFFFFFFFFFFFFF AND DUP3 PUSH20 0xFFFFFFFFFFFFFFFFFFFFFFFFFFFFFFFFFFFFFFFF AND SUB PUSH2 0xB5C JUMPI PUSH1 0x40 MLOAD PUSH32 0x8C379A000000000000000000000000000000000000000000000000000000000 DUP2 MSTORE PUSH1 0x4 ADD PUSH2 0xB53 SWAP1 PUSH2 0x19C3 JUMP JUMPDEST PUSH1 0x40 MLOAD DUP1 SWAP2 SUB SWAP1 REVERT JUMPDEST DUP1 PUSH1 0x2 PUSH0 DUP6 PUSH20 0xFFFFFFFFFFFFFFFFFFFFFFFFFFFFFFFFFFFFFFFF AND PUSH20 0xFFFFFFFFFFFFFFFFFFFFFFFFFFFFFFFFFFFFFFFF AND DUP2 MSTORE PUSH1 0x20 ADD SWAP1 DUP2 MSTORE PUSH1 0x20 ADD PUSH0 KECCAK256 PUSH0 DUP5 PUSH20 0xFFFFFFFFFFFFFFFFFFFFFFFFFFFFFFFFFFFFFFFF AND PUSH20 0xFFFFFFFFFFFFFFFFFFFFFFFFFFFFFFFFFFFFFFFF AND DUP2 MSTORE PUSH1 0x20 ADD SWAP1 DUP2 MSTORE PUSH1 0x20 ADD PUSH0 KECCAK256 DUP2 SWAP1 SSTORE POP DUP2 PUSH20 0xFFFFFFFFFFFFFFFFFFFFFFFFFFFFFFFFFFFFFFFF AND DUP4 PUSH20 0xFFFFFFFFFFFFFFFFFFFFFFFFFFFFFFFFFFFFFFFF AND PUSH32 0x8C5BE1E5EBEC7D5BD14F71427D1E84F3DD0314C0F7B2291E5B200AC8C7C3B925 DUP4 PUSH1 0x40 MLOAD PUSH2 0xC36 SWAP2 SWAP1 PUSH2 0x14EE JUMP JUMPDEST PUSH1 0x40 MLOAD DUP1 SWAP2 SUB SWAP1 LOG3 POP POP POP JUMP JUMPDEST PUSH0 PUSH20 0xFFFFFFFFFFFFFFFFFFFFFFFFFFFFFFFFFFFFFFFF AND DUP4 PUSH20 0xFFFFFFFFFFFFFFFFFFFFFFFFFFFFFFFFFFFFFFFF AND SUB PUSH2 0xCB1 JUMPI PUSH1 0x40 MLOAD PUSH32 0x8C379A000000000000000000000000000000000000000000000000000000000 DUP2 MSTORE PUSH1 0x4 ADD PUSH2 0xCA8 SWAP1 PUSH2 0x1A51 JUMP JUMPDEST PUSH1 0x40 MLOAD DUP1 SWAP2 SUB SWAP1 REVERT JUMPDEST PUSH0 PUSH20 0xFFFFFFFFFFFFFFFFFFFFFFFFFFFFFFFFFFFFFFFF AND DUP3 PUSH20 0xFFFFFFFFFFFFFFFFFFFFFFFFFFFFFFFFFFFFFFFF AND SUB PUSH2 0xD1F JUMPI PUSH1 0x40 MLOAD PUSH32 0x8C379A000000000000000000000000000000000000000000000000000000000 DUP2 MSTORE PUSH1 0x4 ADD PUSH2 0xD16 SWAP1 PUSH2 0x1ADF JUMP JUMPDEST PUSH1 0x40 MLOAD DUP1 SWAP2 SUB SWAP1 REVERT JUMPDEST PUSH2 0xD2A DUP4 DUP4 DUP4 PUSH2 0x1329 JUMP JUMPDEST PUSH0 PUSH1 0x1 PUSH0 DUP6 PUSH20 0xFFFFFFFFFFFFFFFFFFFFFFFFFFFFFFFFFFFFFFFF AND PUSH20 0xFFFFFFFFFFFFFFFFFFFFFFFFFFFFFFFFFFFFFFFF AND DUP2 MSTORE PUSH1 0x20 ADD SWAP1 DUP2 MSTORE PUSH1 0x20 ADD PUSH0 KECCAK256 SLOAD SWAP1 POP DUP2 DUP2 LT ISZERO PUSH2 0xDAE JUMPI PUSH1 0x40 MLOAD PUSH32 0x8C379A000000000000000000000000000000000000000000000000000000000 DUP2 MSTORE PUSH1 0x4 ADD PUSH2 0xDA5 SWAP1 PUSH2 0x1B6D JUMP JUMPDEST PUSH1 0x40 MLOAD DUP1 SWAP2 SUB SWAP1 REVERT JUMPDEST DUP2 DUP2 SUB PUSH1 0x1 PUSH0 DUP7 PUSH20 0xFFFFFFFFFFFFFFFFFFFFFFFFFFFFFFFFFFFFFFFF AND PUSH20 0xFFFFFFFFFFFFFFFFFFFFFFFFFFFFFFFFFFFFFFFF AND DUP2 MSTORE PUSH1 0x20 ADD SWAP1 DUP2 MSTORE PUSH1 0x20 ADD PUSH0 KECCAK256 DUP2 SWAP1 SSTORE POP DUP2 PUSH1 0x1 PUSH0 DUP6 PUSH20 0xFFFFFFFFFFFFFFFFFFFFFFFFFFFFFFFFFFFFFFFF AND PUSH20 0xFFFFFFFFFFFFFFFFFFFFFFFFFFFFFFFFFFFFFFFF AND DUP2 MSTORE PUSH1 0x20 ADD SWAP1 DUP2 MSTORE PUSH1 0x20 ADD PUSH0 KECCAK256 PUSH0 DUP3 DUP3 SLOAD PUSH2 0xE3E SWAP2 SWAP1 PUSH2 0x1734 JUMP JUMPDEST SWAP3 POP POP DUP2 SWAP1 SSTORE POP DUP3 PUSH20 0xFFFFFFFFFFFFFFFFFFFFFFFFFFFFFFFFFFFFFFFF AND DUP5 PUSH20 0xFFFFFFFFFFFFFFFFFFFFFFFFFFFFFFFFFFFFFFFF AND PUSH32 0xDDF252AD1BE2C89B69C2B068FC378DAA952BA7F163C4A11628F55A4DF523B3EF DUP5 PUSH1 0x40 MLOAD PUSH2 0xEA2 SWAP2 SWAP1 PUSH2 0x14EE JUMP JUMPDEST PUSH1 0x40 MLOAD DUP1 SWAP2 SUB SWAP1 LOG3 PUSH2 0xEB5 DUP5 DUP5 DUP5 PUSH2 0x132E JUMP JUMPDEST POP POP POP POP JUMP JUMPDEST PUSH0 PUSH20 0xFFFFFFFFFFFFFFFFFFFFFFFFFFFFFFFFFFFFFFFF AND DUP3 PUSH20 0xFFFFFFFFFFFFFFFFFFFFFFFFFFFFFFFFFFFFFFFF AND SUB PUSH2 0xF29 JUMPI PUSH1 0x40 MLOAD PUSH32 0x8C379A000000000000000000000000000000000000000000000000000000000 DUP2 MSTORE PUSH1 0x4 ADD PUSH2 0xF20 SWAP1 PUSH2 0x1BD5 JUMP JUMPDEST PUSH1 0x40 MLOAD DUP1 SWAP2 SUB SWAP1 REVERT JUMPDEST PUSH2 0xF34 PUSH0 DUP4 DUP4 PUSH2 0x1329 JUMP JUMPDEST DUP1 PUSH1 0x3 PUSH0 DUP3 DUP3 SLOAD PUSH2 0xF45 SWAP2 SWAP1 PUSH2 0x1734 JUMP JUMPDEST SWAP3 POP POP DUP2 SWAP1 SSTORE POP DUP1 PUSH1 0x1 PUSH0 DUP5 PUSH20 0xFFFFFFFFFFFFFFFFFFFFFFFFFFFFFFFFFFFFFFFF AND PUSH20 0xFFFFFFFFFFFFFFFFFFFFFFFFFFFFFFFFFFFFFFFF AND DUP2 MSTORE PUSH1 0x20 ADD SWAP1 DUP2 MSTORE PUSH1 0x20 ADD PUSH0 KECCAK256 PUSH0 DUP3 DUP3 SLOAD PUSH2 0xF98 SWAP2 SWAP1 PUSH2 0x1734 JUMP JUMPDEST SWAP3 POP POP DUP2 SWAP1 SSTORE POP DUP2 PUSH20 0xFFFFFFFFFFFFFFFFFFFFFFFFFFFFFFFFFFFFFFFF AND PUSH0 PUSH20 0xFFFFFFFFFFFFFFFFFFFFFFFFFFFFFFFFFFFFFFFF AND PUSH32 0xDDF252AD1BE2C89B69C2B068FC378DAA952BA7F163C4A11628F55A4DF523B3EF DUP4 PUSH1 0x40 MLOAD PUSH2 0xFFC SWAP2 SWAP1 PUSH2 0x14EE JUMP JUMPDEST PUSH1 0x40 MLOAD DUP1 SWAP2 SUB SWAP1 LOG3 PUSH2 0x100F PUSH0 DUP4 DUP4 PUSH2 0x132E JUMP JUMPDEST POP POP JUMP JUMPDEST PUSH2 0x101B PUSH2 0xA79 JUMP JUMPDEST PUSH20 0xFFFFFFFFFFFFFFFFFFFFFFFFFFFFFFFFFFFFFFFF AND PUSH2 0x1039 PUSH2 0x6BB JUMP JUMPDEST PUSH20 0xFFFFFFFFFFFFFFFFFFFFFFFFFFFFFFFFFFFFFFFF AND EQ PUSH2 0x1098 JUMPI PUSH2 0x105C PUSH2 0xA79 JUMP JUMPDEST PUSH1 0x40 MLOAD PUSH32 0x118CDAA700000000000000000000000000000000000000000000000000000000 DUP2 MSTORE PUSH1 0x4 ADD PUSH2 0x108F SWAP2 SWAP1 PUSH2 0x15C5 JUMP JUMPDEST PUSH1 0x40 MLOAD DUP1 SWAP2 SUB SWAP1 REVERT JUMPDEST JUMP JUMPDEST PUSH0 DUP1 PUSH0 SWAP1 SLOAD SWAP1 PUSH2 0x100 EXP SWAP1 DIV PUSH20 0xFFFFFFFFFFFFFFFFFFFFFFFFFFFFFFFFFFFFFFFF AND SWAP1 POP DUP2 PUSH0 DUP1 PUSH2 0x100 EXP DUP2 SLOAD DUP2 PUSH20 0xFFFFFFFFFFFFFFFFFFFFFFFFFFFFFFFFFFFFFFFF MUL NOT AND SWAP1 DUP4 PUSH20 0xFFFFFFFFFFFFFFFFFFFFFFFFFFFFFFFFFFFFFFFF AND MUL OR SWAP1 SSTORE POP DUP2 PUSH20 0xFFFFFFFFFFFFFFFFFFFFFFFFFFFFFFFFFFFFFFFF AND DUP2 PUSH20 0xFFFFFFFFFFFFFFFFFFFFFFFFFFFFFFFFFFFFFFFF AND PUSH32 0x8BE0079C531659141344CD1FD0A4F28419497F9722A3DAAFE3B4186F6B6457E0 PUSH1 0x40 MLOAD PUSH1 0x40 MLOAD DUP1 SWAP2 SUB SWAP1 LOG3 POP POP JUMP JUMPDEST PUSH0 PUSH20 0xFFFFFFFFFFFFFFFFFFFFFFFFFFFFFFFFFFFFFFFF AND DUP3 PUSH20 0xFFFFFFFFFFFFFFFFFFFFFFFFFFFFFFFFFFFFFFFF AND SUB PUSH2 0x11C9 JUMPI PUSH1 0x40 MLOAD PUSH32 0x8C379A000000000000000000000000000000000000000000000000000000000 DUP2 MSTORE PUSH1 0x4 ADD PUSH2 0x11C0 SWAP1 PUSH2 0x1C63 JUMP JUMPDEST PUSH1 0x40 MLOAD DUP1 SWAP2 SUB SWAP1 REVERT JUMPDEST PUSH2 0x11D4 DUP3 PUSH0 DUP4 PUSH2 0x1329 JUMP JUMPDEST PUSH0 PUSH1 0x1 PUSH0 DUP5 PUSH20 0xFFFFFFFFFFFFFFFFFFFFFFFFFFFFFFFFFFFFFFFF AND PUSH20 0xFFFFFFFFFFFFFFFFFFFFFFFFFFFFFFFFFFFFFFFF AND DUP2 MSTORE PUSH1 0x20 ADD SWAP1 DUP2 MSTORE PUSH1 0x20 ADD PUSH0 KECCAK256 SLOAD SWAP1 POP DUP2 DUP2 LT ISZERO PUSH2 0x1258 JUMPI PUSH1 0x40 MLOAD PUSH32 0x8C379A000000000000000000000000000000000000000000000000000000000 DUP2 MSTORE PUSH1 0x4 ADD PUSH2 0x124F SWAP1 PUSH2 0x1CF1 JUMP JUMPDEST PUSH1 0x40 MLOAD DUP1 SWAP2 SUB SWAP1 REVERT JUMPDEST DUP2 DUP2 SUB PUSH1 0x1 PUSH0 DUP6 PUSH20 0xFFFFFFFFFFFFFFFFFFFFFFFFFFFFFFFFFFFFFFFF AND PUSH20 0xFFFFFFFFFFFFFFFFFFFFFFFFFFFFFFFFFFFFFFFF AND DUP2 MSTORE PUSH1 0x20 ADD SWAP1 DUP2 MSTORE PUSH1 0x20 ADD PUSH0 KECCAK256 DUP2 SWAP1 SSTORE POP DUP2 PUSH1 0x3 PUSH0 DUP3 DUP3 SLOAD PUSH2 0x12AD SWAP2 SWAP1 PUSH2 0x1D0F JUMP JUMPDEST SWAP3 POP POP DUP2 SWAP1 SSTORE POP PUSH0 PUSH20 0xFFFFFFFFFFFFFFFFFFFFFFFFFFFFFFFFFFFFFFFF AND DUP4 PUSH20 0xFFFFFFFFFFFFFFFFFFFFFFFFFFFFFFFFFFFFFFFF AND PUSH32 0xDDF252AD1BE2C89B69C2B068FC378DAA952BA7F163C4A11628F55A4DF523B3EF DUP5 PUSH1 0x40 MLOAD PUSH2 0x1311 SWAP2 SWAP1 PUSH2 0x14EE JUMP JUMPDEST PUSH1 0x40 MLOAD DUP1 SWAP2 SUB SWAP1 LOG3 PUSH2 0x1324 DUP4 PUSH0 DUP5 PUSH2 0x132E JUMP JUMPDEST POP POP POP JUMP JUMPDEST POP POP POP JUMP JUMPDEST POP POP POP JUMP JUMPDEST PUSH0 DUP2 MLOAD SWAP1 POP SWAP2 SWAP1 POP JUMP JUMPDEST PUSH0 DUP3 DUP3 MSTORE PUSH1 0x20 DUP3 ADD SWAP1 POP SWAP3 SWAP2 POP POP JUMP JUMPDEST PUSH0 JUMPDEST DUP4 DUP2 LT ISZERO PUSH2 0x136A JUMPI DUP1 DUP3 ADD MLOAD DUP2 DUP5 ADD MSTORE PUSH1 0x20 DUP2 ADD SWAP1 POP PUSH2 0x134F JUMP JUMPDEST PUSH0 DUP5 DUP5 ADD MSTORE POP POP POP POP JUMP JUMPDEST PUSH0 PUSH1 0x1F NOT PUSH1 0x1F DUP4 ADD AND SWAP1 POP SWAP2 SWAP1 POP JUMP JUMPDEST PUSH0 PUSH2 0x138F DUP3 PUSH2 0x1333 JUMP JUMPDEST PUSH2 0x1399 DUP2 DUP6 PUSH2 0x133D JUMP JUMPDEST SWAP4 POP PUSH2 0x13A9 DUP2 DUP6 PUSH1 0x20 DUP7 ADD PUSH2 0x134D JUMP JUMPDEST PUSH2 0x13B2 DUP2 PUSH2 0x1375 JUMP JUMPDEST DUP5 ADD SWAP2 POP POP SWAP3 SWAP2 POP POP JUMP JUMPDEST PUSH0 PUSH1 0x20 DUP3 ADD SWAP1 POP DUP2 DUP2 SUB PUSH0 DUP4 ADD MSTORE PUSH2 0x13D5 DUP2 DUP5 PUSH2 0x1385 JUMP JUMPDEST SWAP1 POP SWAP3 SWAP2 POP POP JUMP JUMPDEST PUSH0 DUP1 REVERT JUMPDEST PUSH0 PUSH20 0xFFFFFFFFFFFFFFFFFFFFFFFFFFFFFFFFFFFFFFFF DUP3 AND SWAP1 POP SWAP2 SWAP1 POP JUMP JUMPDEST PUSH0 PUSH2 0x140A DUP3 PUSH2 0x13E1 JUMP JUMPDEST SWAP1 POP SWAP2 SWAP1 POP JUMP JUMPDEST PUSH2 0x141A DUP2 PUSH2 0x1400 JUMP JUMPDEST DUP2 EQ PUSH2 0x1424 JUMPI PUSH0 DUP1 REVERT JUMPDEST POP JUMP JUMPDEST PUSH0 DUP2 CALLDATALOAD SWAP1 POP PUSH2 0x1435 DUP2 PUSH2 0x1411 JUMP JUMPDEST SWAP3 SWAP2 POP POP JUMP JUMPDEST PUSH0 DUP2 SWAP1 POP SWAP2 SWAP1 POP JUMP JUMPDEST PUSH2 0x144D DUP2 PUSH2 0x143B JUMP JUMPDEST DUP2 EQ PUSH2 0x1457 JUMPI PUSH0 DUP1 REVERT JUMPDEST POP JUMP JUMPDEST PUSH0 DUP2 CALLDATALOAD SWAP1 POP PUSH2 0x1468 DUP2 PUSH2 0x1444 JUMP JUMPDEST SWAP3 SWAP2 POP POP JUMP JUMPDEST PUSH0 DUP1 PUSH1 0x40 DUP4 DUP6 SUB SLT ISZERO PUSH2 0x1484 JUMPI PUSH2 0x1483 PUSH2 0x13DD JUMP JUMPDEST JUMPDEST PUSH0 PUSH2 0x1491 DUP6 DUP3 DUP7 ADD PUSH2 0x1427 JUMP JUMPDEST SWAP3 POP POP PUSH1 0x20 PUSH2 0x14A2 DUP6 DUP3 DUP7 ADD PUSH2 0x145A JUMP JUMPDEST SWAP2 POP POP SWAP3 POP SWAP3 SWAP1 POP JUMP JUMPDEST PUSH0 DUP2 ISZERO ISZERO SWAP1 POP SWAP2 SWAP1 POP JUMP JUMPDEST PUSH2 0x14C0 DUP2 PUSH2 0x14AC JUMP JUMPDEST DUP3 MSTORE POP POP JUMP JUMPDEST PUSH0 PUSH1 0x20 DUP3 ADD SWAP1 POP PUSH2 0x14D9 PUSH0 DUP4 ADD DUP5 PUSH2 0x14B7 JUMP JUMPDEST SWAP3 SWAP2 POP POP JUMP JUMPDEST PUSH2 0x14E8 DUP2 PUSH2 0x143B JUMP JUMPDEST DUP3 MSTORE POP POP JUMP JUMPDEST PUSH0 PUSH1 0x20 DUP3 ADD SWAP1 POP PUSH2 0x1501 PUSH0 DUP4 ADD DUP5 PUSH2 0x14DF JUMP JUMPDEST SWAP3 SWAP2 POP POP JUMP JUMPDEST PUSH0 DUP1 PUSH0 PUSH1 0x60 DUP5 DUP7 SUB SLT ISZERO PUSH2 0x151E JUMPI PUSH2 0x151D PUSH2 0x13DD JUMP JUMPDEST JUMPDEST PUSH0 PUSH2 0x152B DUP7 DUP3 DUP8 ADD PUSH2 0x1427 JUMP JUMPDEST SWAP4 POP POP PUSH1 0x20 PUSH2 0x153C DUP7 DUP3 DUP8 ADD PUSH2 0x1427 JUMP JUMPDEST SWAP3 POP POP PUSH1 0x40 PUSH2 0x154D DUP7 DUP3 DUP8 ADD PUSH2 0x145A JUMP JUMPDEST SWAP2 POP POP SWAP3 POP SWAP3 POP SWAP3 JUMP JUMPDEST PUSH0 PUSH1 0xFF DUP3 AND SWAP1 POP SWAP2 SWAP1 POP JUMP JUMPDEST PUSH2 0x156C DUP2 PUSH2 0x1557 JUMP JUMPDEST DUP3 MSTORE POP POP JUMP JUMPDEST PUSH0 PUSH1 0x20 DUP3 ADD SWAP1 POP PUSH2 0x1585 PUSH0 DUP4 ADD DUP5 PUSH2 0x1563 JUMP JUMPDEST SWAP3 SWAP2 POP POP JUMP JUMPDEST PUSH0 PUSH1 0x20 DUP3 DUP5 SUB SLT ISZERO PUSH2 0x15A0 JUMPI PUSH2 0x159F PUSH2 0x13DD JUMP JUMPDEST JUMPDEST PUSH0 PUSH2 0x15AD DUP5 DUP3 DUP6 ADD PUSH2 0x1427 JUMP JUMPDEST SWAP2 POP POP SWAP3 SWAP2 POP POP JUMP JUMPDEST PUSH2 0x15BF DUP2 PUSH2 0x1400 JUMP JUMPDEST DUP3 MSTORE POP POP JUMP JUMPDEST PUSH0 PUSH1 0x20 DUP3 ADD SWAP1 POP PUSH2 0x15D8 PUSH0 DUP4 ADD DUP5 PUSH2 0x15B6 JUMP JUMPDEST SWAP3 SWAP2 POP POP JUMP JUMPDEST PUSH0 DUP1 PUSH1 0x40 DUP4 DUP6 SUB SLT ISZERO PUSH2 0x15F4 JUMPI PUSH2 0x15F3 PUSH2 0x13DD JUMP JUMPDEST JUMPDEST PUSH0 PUSH2 0x1601 DUP6 DUP3 DUP7 ADD PUSH2 0x1427 JUMP JUMPDEST SWAP3 POP POP PUSH1 0x20 PUSH2 0x1612 DUP6 DUP3 DUP7 ADD PUSH2 0x1427 JUMP JUMPDEST SWAP2 POP POP SWAP3 POP SWAP3 SWAP1 POP JUMP JUMPDEST PUSH32 0x4E487B7100000000000000000000000000000000000000000000000000000000 PUSH0 MSTORE PUSH1 0x22 PUSH1 0x4 MSTORE PUSH1 0x24 PUSH0 REVERT JUMPDEST PUSH0 PUSH1 0x2 DUP3 DIV SWAP1 POP PUSH1 0x1 DUP3 AND DUP1 PUSH2 0x1660 JUMPI PUSH1 0x7F DUP3 AND SWAP2 POP JUMPDEST PUSH1 0x20 DUP3 LT DUP2 SUB PUSH2 0x1673 JUMPI PUSH2 0x1672 PUSH2 0x161C JUMP JUMPDEST JUMPDEST POP SWAP2 SWAP1 POP JUMP JUMPDEST PUSH32 0x45524332303A207472616E7366657220616D6F756E7420657863656564732061 PUSH0 DUP3 ADD MSTORE PUSH32 0x6C6C6F77616E6365000000000000000000000000000000000000000000000000 PUSH1 0x20 DUP3 ADD MSTORE POP JUMP JUMPDEST PUSH0 PUSH2 0x16D3 PUSH1 0x28 DUP4 PUSH2 0x133D JUMP JUMPDEST SWAP2 POP PUSH2 0x16DE DUP3 PUSH2 0x1679 JUMP JUMPDEST PUSH1 0x40 DUP3 ADD SWAP1 POP SWAP2 SWAP1 POP JUMP JUMPDEST PUSH0 PUSH1 0x20 DUP3 ADD SWAP1 POP DUP2 DUP2 SUB PUSH0 DUP4 ADD MSTORE PUSH2 0x1700 DUP2 PUSH2 0x16C7 JUMP JUMPDEST SWAP1 POP SWAP2 SWAP1 POP JUMP JUMPDEST PUSH32 0x4E487B7100000000000000000000000000000000000000000000000000000000 PUSH0 MSTORE PUSH1 0x11 PUSH1 0x4 MSTORE PUSH1 0x24 PUSH0 REVERT JUMPDEST PUSH0 PUSH2 0x173E DUP3 PUSH2 0x143B JUMP JUMPDEST SWAP2 POP PUSH2 0x1749 DUP4 PUSH2 0x143B JUMP JUMPDEST SWAP3 POP DUP3 DUP3 ADD SWAP1 POP DUP1 DUP3 GT ISZERO PUSH2 0x1761 JUMPI PUSH2 0x1760 PUSH2 0x1707 JUMP JUMPDEST JUMPDEST SWAP3 SWAP2 POP POP JUMP JUMPDEST PUSH32 0x796F7520617265206E6F7420617070726F7665642020746F206D696E74000000 PUSH0 DUP3 ADD MSTORE POP JUMP JUMPDEST PUSH0 PUSH2 0x179B PUSH1 0x1D DUP4 PUSH2 0x133D JUMP JUMPDEST SWAP2 POP PUSH2 0x17A6 DUP3 PUSH2 0x1767 JUMP JUMPDEST PUSH1 0x20 DUP3 ADD SWAP1 POP SWAP2 SWAP1 POP JUMP JUMPDEST PUSH0 PUSH1 0x20 DUP3 ADD SWAP1 POP DUP2 DUP2 SUB PUSH0 DUP4 ADD MSTORE PUSH2 0x17C8 DUP2 PUSH2 0x178F JUMP JUMPDEST SWAP1 POP SWAP2 SWAP1 POP JUMP JUMPDEST PUSH32 0x796F7520617265206E6F7420617070726F7665642020746F206275726E000000 PUSH0 DUP3 ADD MSTORE POP JUMP JUMPDEST PUSH0 PUSH2 0x1803 PUSH1 0x1D DUP4 PUSH2 0x133D JUMP JUMPDEST SWAP2 POP PUSH2 0x180E DUP3 PUSH2 0x17CF JUMP JUMPDEST PUSH1 0x20 DUP3 ADD SWAP1 POP SWAP2 SWAP1 POP JUMP JUMPDEST PUSH0 PUSH1 0x20 DUP3 ADD SWAP1 POP DUP2 DUP2 SUB PUSH0 DUP4 ADD MSTORE PUSH2 0x1830 DUP2 PUSH2 0x17F7 JUMP JUMPDEST SWAP1 POP SWAP2 SWAP1 POP JUMP JUMPDEST PUSH32 0x45524332303A2064656372656173656420616C6C6F77616E63652062656C6F77 PUSH0 DUP3 ADD MSTORE PUSH32 0x207A65726F000000000000000000000000000000000000000000000000000000 PUSH1 0x20 DUP3 ADD MSTORE POP JUMP JUMPDEST PUSH0 PUSH2 0x1891 PUSH1 0x25 DUP4 PUSH2 0x133D JUMP JUMPDEST SWAP2 POP PUSH2 0x189C DUP3 PUSH2 0x1837 JUMP JUMPDEST PUSH1 0x40 DUP3 ADD SWAP1 POP SWAP2 SWAP1 POP JUMP JUMPDEST PUSH0 PUSH1 0x20 DUP3 ADD SWAP1 POP DUP2 DUP2 SUB PUSH0 DUP4 ADD MSTORE PUSH2 0x18BE DUP2 PUSH2 0x1885 JUMP JUMPDEST SWAP1 POP SWAP2 SWAP1 POP JUMP JUMPDEST PUSH32 0x45524332303A20617070726F76652066726F6D20746865207A65726F20616464 PUSH0 DUP3 ADD MSTORE PUSH32 0x7265737300000000000000000000000000000000000000000000000000000000 PUSH1 0x20 DUP3 ADD MSTORE POP JUMP JUMPDEST PUSH0 PUSH2 0x191F PUSH1 0x24 DUP4 PUSH2 0x133D JUMP JUMPDEST SWAP2 POP PUSH2 0x192A DUP3 PUSH2 0x18C5 JUMP JUMPDEST PUSH1 0x40 DUP3 ADD SWAP1 POP SWAP2 SWAP1 POP JUMP JUMPDEST PUSH0 PUSH1 0x20 DUP3 ADD SWAP1 POP DUP2 DUP2 SUB PUSH0 DUP4 ADD MSTORE PUSH2 0x194C DUP2 PUSH2 0x1913 JUMP JUMPDEST SWAP1 POP SWAP2 SWAP1 POP JUMP JUMPDEST PUSH32 0x45524332303A20617070726F766520746F20746865207A65726F206164647265 PUSH0 DUP3 ADD MSTORE PUSH32 0x7373000000000000000000000000000000000000000000000000000000000000 PUSH1 0x20 DUP3 ADD MSTORE POP JUMP JUMPDEST PUSH0 PUSH2 0x19AD PUSH1 0x22 DUP4 PUSH2 0x133D JUMP JUMPDEST SWAP2 POP PUSH2 0x19B8 DUP3 PUSH2 0x1953 JUMP JUMPDEST PUSH1 0x40 DUP3 ADD SWAP1 POP SWAP2 SWAP1 POP JUMP JUMPDEST PUSH0 PUSH1 0x20 DUP3 ADD SWAP1 POP DUP2 DUP2 SUB PUSH0 DUP4 ADD MSTORE PUSH2 0x19DA DUP2 PUSH2 0x19A1 JUMP JUMPDEST SWAP1 POP SWAP2 SWAP1 POP JUMP JUMPDEST PUSH32 0x45524332303A207472616E736665722066726F6D20746865207A65726F206164 PUSH0 DUP3 ADD MSTORE PUSH32 0x6472657373000000000000000000000000000000000000000000000000000000 PUSH1 0x20 DUP3 ADD MSTORE POP JUMP JUMPDEST PUSH0 PUSH2 0x1A3B PUSH1 0x25 DUP4 PUSH2 0x133D JUMP JUMPDEST SWAP2 POP PUSH2 0x1A46 DUP3 PUSH2 0x19E1 JUMP JUMPDEST PUSH1 0x40 DUP3 ADD SWAP1 POP SWAP2 SWAP1 POP JUMP JUMPDEST PUSH0 PUSH1 0x20 DUP3 ADD SWAP1 POP DUP2 DUP2 SUB PUSH0 DUP4 ADD MSTORE PUSH2 0x1A68 DUP2 PUSH2 0x1A2F JUMP JUMPDEST SWAP1 POP SWAP2 SWAP1 POP JUMP JUMPDEST PUSH32 0x45524332303A207472616E7366657220746F20746865207A65726F2061646472 PUSH0 DUP3 ADD MSTORE PUSH32 0x6573730000000000000000000000000000000000000000000000000000000000 PUSH1 0x20 DUP3 ADD MSTORE POP JUMP JUMPDEST PUSH0 PUSH2 0x1AC9 PUSH1 0x23 DUP4 PUSH2 0x133D JUMP JUMPDEST SWAP2 POP PUSH2 0x1AD4 DUP3 PUSH2 0x1A6F JUMP JUMPDEST PUSH1 0x40 DUP3 ADD SWAP1 POP SWAP2 SWAP1 POP JUMP JUMPDEST PUSH0 PUSH1 0x20 DUP3 ADD SWAP1 POP DUP2 DUP2 SUB PUSH0 DUP4 ADD MSTORE PUSH2 0x1AF6 DUP2 PUSH2 0x1ABD JUMP JUMPDEST SWAP1 POP SWAP2 SWAP1 POP JUMP JUMPDEST PUSH32 0x45524332303A207472616E7366657220616D6F756E7420657863656564732062 PUSH0 DUP3 ADD MSTORE PUSH32 0x616C616E63650000000000000000000000000000000000000000000000000000 PUSH1 0x20 DUP3 ADD MSTORE POP JUMP JUMPDEST PUSH0 PUSH2 0x1B57 PUSH1 0x26 DUP4 PUSH2 0x133D JUMP JUMPDEST SWAP2 POP PUSH2 0x1B62 DUP3 PUSH2 0x1AFD JUMP JUMPDEST PUSH1 0x40 DUP3 ADD SWAP1 POP SWAP2 SWAP1 POP JUMP JUMPDEST PUSH0 PUSH1 0x20 DUP3 ADD SWAP1 POP DUP2 DUP2 SUB PUSH0 DUP4 ADD MSTORE PUSH2 0x1B84 DUP2 PUSH2 0x1B4B JUMP JUMPDEST SWAP1 POP SWAP2 SWAP1 POP JUMP JUMPDEST PUSH32 0x45524332303A206D696E7420746F20746865207A65726F206164647265737300 PUSH0 DUP3 ADD MSTORE POP JUMP JUMPDEST PUSH0 PUSH2 0x1BBF PUSH1 0x1F DUP4 PUSH2 0x133D JUMP JUMPDEST SWAP2 POP PUSH2 0x1BCA DUP3 PUSH2 0x1B8B JUMP JUMPDEST PUSH1 0x20 DUP3 ADD SWAP1 POP SWAP2 SWAP1 POP JUMP JUMPDEST PUSH0 PUSH1 0x20 DUP3 ADD SWAP1 POP DUP2 DUP2 SUB PUSH0 DUP4 ADD MSTORE PUSH2 0x1BEC DUP2 PUSH2 0x1BB3 JUMP JUMPDEST SWAP1 POP SWAP2 SWAP1 POP JUMP JUMPDEST PUSH32 0x45524332303A206275726E2066726F6D20746865207A65726F20616464726573 PUSH0 DUP3 ADD MSTORE PUSH32 0x7300000000000000000000000000000000000000000000000000000000000000 PUSH1 0x20 DUP3 ADD MSTORE POP JUMP JUMPDEST PUSH0 PUSH2 0x1C4D PUSH1 0x21 DUP4 PUSH2 0x133D JUMP JUMPDEST SWAP2 POP PUSH2 0x1C58 DUP3 PUSH2 0x1BF3 JUMP JUMPDEST PUSH1 0x40 DUP3 ADD SWAP1 POP SWAP2 SWAP1 POP JUMP JUMPDEST PUSH0 PUSH1 0x20 DUP3 ADD SWAP1 POP DUP2 DUP2 SUB PUSH0 DUP4 ADD MSTORE PUSH2 0x1C7A DUP2 PUSH2 0x1C41 JUMP JUMPDEST SWAP1 POP SWAP2 SWAP1 POP JUMP JUMPDEST PUSH32 0x45524332303A206275726E20616D6F756E7420657863656564732062616C616E PUSH0 DUP3 ADD MSTORE PUSH32 0x6365000000000000000000000000000000000000000000000000000000000000 PUSH1 0x20 DUP3 ADD MSTORE POP JUMP JUMPDEST PUSH0 PUSH2 0x1CDB PUSH1 0x22 DUP4 PUSH2 0x133D JUMP JUMPDEST SWAP2 POP PUSH2 0x1CE6 DUP3 PUSH2 0x1C81 JUMP JUMPDEST PUSH1 0x40 DUP3 ADD SWAP1 POP SWAP2 SWAP1 POP JUMP JUMPDEST PUSH0 PUSH1 0x20 DUP3 ADD SWAP1 POP DUP2 DUP2 SUB PUSH0 DUP4 ADD MSTORE PUSH2 0x1D08 DUP2 PUSH2 0x1CCF JUMP JUMPDEST SWAP1 POP SWAP2 SWAP1 POP JUMP JUMPDEST PUSH0 PUSH2 0x1D19 DUP3 PUSH2 0x143B JUMP JUMPDEST SWAP2 POP PUSH2 0x1D24 DUP4 PUSH2 0x143B JUMP JUMPDEST SWAP3 POP DUP3 DUP3 SUB SWAP1 POP DUP2 DUP2 GT ISZERO PUSH2 0x1D3C JUMPI PUSH2 0x1D3B PUSH2 0x1707 JUMP JUMPDEST JUMPDEST SWAP3 SWAP2 POP POP JUMP INVALID LOG2 PUSH5 0x6970667358 0x22 SLT KECCAK256 0xB4 LT DUP1 0xE5 0xDA SWAP2 PUSH10 0xC3A221224CB7E5B448A6 SWAP16 0xE5 0xE1 PUSH13 0x586A1BFF8392B0519CC6966473 PUSH16 0x6C634300081600330000000000000000 "
				},
				"gasEstimates": {
					"creation": {
						"codeDepositCost": "1508800",
						"executionCost": "infinite",
						"totalCost": "infinite"
					},
					"external": {
						"allowance(address,address)": "infinite",
						"approve(address,uint256)": "infinite",
						"balanceOf(address)": "2918",
						"burn(address,uint256)": "infinite",
						"decimals()": "361",
						"decreaseAllowance(address,uint256)": "infinite",
						"increaseAllowance(address,uint256)": "infinite",
						"mint(address,uint256)": "infinite",
						"name()": "infinite",
						"owner()": "2560",
						"renounceOwnership()": "infinite",
						"setapprovedcontractaddress(address)": "infinite",
						"symbol()": "infinite",
						"totalSupply()": "2500",
						"transfer(address,uint256)": "infinite",
						"transferFrom(address,address,uint256)": "infinite",
						"transferOwnership(address)": "infinite"
					},
					"internal": {
						"_afterTokenTransfer(address,address,uint256)": "15",
						"_approve(address,address,uint256)": "infinite",
						"_beforeTokenTransfer(address,address,uint256)": "15",
						"_burn(address,uint256)": "infinite",
						"_mint(address,uint256)": "infinite",
						"_transfer(address,address,uint256)": "infinite"
					}
				},
				"methodIdentifiers": {
					"allowance(address,address)": "dd62ed3e",
					"approve(address,uint256)": "095ea7b3",
					"balanceOf(address)": "70a08231",
					"burn(address,uint256)": "9dc29fac",
					"decimals()": "313ce567",
					"decreaseAllowance(address,uint256)": "a457c2d7",
					"increaseAllowance(address,uint256)": "39509351",
					"mint(address,uint256)": "40c10f19",
					"name()": "06fdde03",
					"owner()": "8da5cb5b",
					"renounceOwnership()": "715018a6",
					"setapprovedcontractaddress(address)": "b6b285d9",
					"symbol()": "95d89b41",
					"totalSupply()": "18160ddd",
					"transfer(address,uint256)": "a9059cbb",
					"transferFrom(address,address,uint256)": "23b872dd",
					"transferOwnership(address)": "f2fde38b"
				}
			},
			"storageLayout": {
				"storage": [
					{
						"astId": 8,
						"contract": "spoilsToken.sol:SpoilsToken",
						"label": "_owner",
						"offset": 0,
						"slot": "0",
						"type": "t_address"
					},
					{
						"astId": 292,
						"contract": "spoilsToken.sol:SpoilsToken",
						"label": "_balances",
						"offset": 0,
						"slot": "1",
						"type": "t_mapping(t_address,t_uint256)"
					},
					{
						"astId": 298,
						"contract": "spoilsToken.sol:SpoilsToken",
						"label": "_allowances",
						"offset": 0,
						"slot": "2",
						"type": "t_mapping(t_address,t_mapping(t_address,t_uint256))"
					},
					{
						"astId": 300,
						"contract": "spoilsToken.sol:SpoilsToken",
						"label": "_totalSupply",
						"offset": 0,
						"slot": "3",
						"type": "t_uint256"
					},
					{
						"astId": 302,
						"contract": "spoilsToken.sol:SpoilsToken",
						"label": "_name",
						"offset": 0,
						"slot": "4",
						"type": "t_string_storage"
					},
					{
						"astId": 304,
						"contract": "spoilsToken.sol:SpoilsToken",
						"label": "_symbol",
						"offset": 0,
						"slot": "5",
						"type": "t_string_storage"
					},
					{
						"astId": 308,
						"contract": "spoilsToken.sol:SpoilsToken",
						"label": "onlyapprovedcontractaddress",
						"offset": 0,
						"slot": "6",
						"type": "t_mapping(t_address,t_bool)"
					}
				],
				"types": {
					"t_address": {
						"encoding": "inplace",
						"label": "address",
						"numberOfBytes": "20"
					},
					"t_bool": {
						"encoding": "inplace",
						"label": "bool",
						"numberOfBytes": "1"
					},
					"t_mapping(t_address,t_bool)": {
						"encoding": "mapping",
						"key": "t_address",
						"label": "mapping(address => bool)",
						"numberOfBytes": "32",
						"value": "t_bool"
					},
					"t_mapping(t_address,t_mapping(t_address,t_uint256))": {
						"encoding": "mapping",
						"key": "t_address",
						"label": "mapping(address => mapping(address => uint256))",
						"numberOfBytes": "32",
						"value": "t_mapping(t_address,t_uint256)"
					},
					"t_mapping(t_address,t_uint256)": {
						"encoding": "mapping",
						"key": "t_address",
						"label": "mapping(address => uint256)",
						"numberOfBytes": "32",
						"value": "t_uint256"
					},
					"t_string_storage": {
						"encoding": "bytes",
						"label": "string",
						"numberOfBytes": "32"
					},
					"t_uint256": {
						"encoding": "inplace",
						"label": "uint256",
						"numberOfBytes": "32"
					}
				}
			},
			"userdoc": {
				"kind": "user",
				"methods": {},
				"version": 1
			}
		}
	}
}