{
	"chestNft.sol": {
		"KleptoGnomeLootChest": {
			"abi": [
				{
					"inputs": [
						{
							"internalType": "string",
							"name": "name_",
							"type": "string"
						},
						{
							"internalType": "string",
							"name": "symbol_",
							"type": "string"
						}
					],
					"stateMutability": "nonpayable",
					"type": "constructor"
				},
				{
					"inputs": [],
					"name": "ApprovalCallerNotOwnerNorApproved",
					"type": "error"
				},
				{
					"inputs": [],
					"name": "ApprovalQueryForNonexistentToken",
					"type": "error"
				},
				{
					"inputs": [],
					"name": "BalanceQueryForZeroAddress",
					"type": "error"
				},
				{
					"inputs": [],
					"name": "MintERC2309QuantityExceedsLimit",
					"type": "error"
				},
				{
					"inputs": [],
					"name": "MintToZeroAddress",
					"type": "error"
				},
				{
					"inputs": [],
					"name": "MintZeroQuantity",
					"type": "error"
				},
				{
					"inputs": [],
					"name": "OwnerQueryForNonexistentToken",
					"type": "error"
				},
				{
					"inputs": [],
					"name": "OwnershipNotInitializedForExtraData",
					"type": "error"
				},
				{
					"inputs": [],
					"name": "TransferCallerNotOwnerNorApproved",
					"type": "error"
				},
				{
					"inputs": [],
					"name": "TransferFromIncorrectOwner",
					"type": "error"
				},
				{
					"inputs": [],
					"name": "TransferToNonERC721ReceiverImplementer",
					"type": "error"
				},
				{
					"inputs": [],
					"name": "TransferToZeroAddress",
					"type": "error"
				},
				{
					"inputs": [],
					"name": "URIQueryForNonexistentToken",
					"type": "error"
				},
				{
					"anonymous": false,
					"inputs": [
						{
							"indexed": true,
							"internalType": "address",
							"name": "owner",
							"type": "address"
						},
						{
							"indexed": true,
							"internalType": "address",
							"name": "approved",
							"type": "address"
						},
						{
							"indexed": true,
							"internalType": "uint256",
							"name": "tokenId",
							"type": "uint256"
						}
					],
					"name": "Approval",
					"type": "event"
				},
				{
					"anonymous": false,
					"inputs": [
						{
							"indexed": true,
							"internalType": "address",
							"name": "owner",
							"type": "address"
						},
						{
							"indexed": true,
							"internalType": "address",
							"name": "operator",
							"type": "address"
						},
						{
							"indexed": false,
							"internalType": "bool",
							"name": "approved",
							"type": "bool"
						}
					],
					"name": "ApprovalForAll",
					"type": "event"
				},
				{
					"anonymous": false,
					"inputs": [
						{
							"indexed": true,
							"internalType": "uint256",
							"name": "fromTokenId",
							"type": "uint256"
						},
						{
							"indexed": false,
							"internalType": "uint256",
							"name": "toTokenId",
							"type": "uint256"
						},
						{
							"indexed": true,
							"internalType": "address",
							"name": "from",
							"type": "address"
						},
						{
							"indexed": true,
							"internalType": "address",
							"name": "to",
							"type": "address"
						}
					],
					"name": "ConsecutiveTransfer",
					"type": "event"
				},
				{
					"anonymous": false,
					"inputs": [
						{
							"indexed": true,
							"internalType": "address",
							"name": "previousOwner",
							"type": "address"
						},
						{
							"indexed": true,
							"internalType": "address",
							"name": "newOwner",
							"type": "address"
						}
					],
					"name": "OwnershipTransferred",
					"type": "event"
				},
				{
					"anonymous": false,
					"inputs": [
						{
							"indexed": true,
							"internalType": "address",
							"name": "from",
							"type": "address"
						},
						{
							"indexed": true,
							"internalType": "address",
							"name": "to",
							"type": "address"
						},
						{
							"indexed": true,
							"internalType": "uint256",
							"name": "tokenId",
							"type": "uint256"
						}
					],
					"name": "Transfer",
					"type": "event"
				},
				{
					"inputs": [
						{
							"internalType": "address",
							"name": "to",
							"type": "address"
						},
						{
							"internalType": "uint256",
							"name": "tokenId",
							"type": "uint256"
						}
					],
					"name": "approve",
					"outputs": [],
					"stateMutability": "payable",
					"type": "function"
				},
				{
					"inputs": [
						{
							"internalType": "address",
							"name": "owner",
							"type": "address"
						}
					],
					"name": "balanceOf",
					"outputs": [
						{
							"internalType": "uint256",
							"name": "",
							"type": "uint256"
						}
					],
					"stateMutability": "view",
					"type": "function"
				},
				{
					"inputs": [],
					"name": "baseURI_",
					"outputs": [
						{
							"internalType": "string",
							"name": "",
							"type": "string"
						}
					],
					"stateMutability": "view",
					"type": "function"
				},
				{
					"inputs": [],
					"name": "checkredeemednftid",
					"outputs": [
						{
							"internalType": "uint256[]",
							"name": "",
							"type": "uint256[]"
						}
					],
					"stateMutability": "view",
					"type": "function"
				},
				{
					"inputs": [
						{
							"internalType": "uint256",
							"name": "nftId",
							"type": "uint256"
						}
					],
					"name": "checkredemmedphysicalitem",
					"outputs": [
						{
							"internalType": "bool",
							"name": "",
							"type": "bool"
						}
					],
					"stateMutability": "view",
					"type": "function"
				},
				{
					"inputs": [
						{
							"internalType": "uint256",
							"name": "tokenId",
							"type": "uint256"
						}
					],
					"name": "getApproved",
					"outputs": [
						{
							"internalType": "address",
							"name": "",
							"type": "address"
						}
					],
					"stateMutability": "view",
					"type": "function"
				},
				{
					"inputs": [
						{
							"internalType": "address",
							"name": "owner",
							"type": "address"
						},
						{
							"internalType": "address",
							"name": "operator",
							"type": "address"
						}
					],
					"name": "isApprovedForAll",
					"outputs": [
						{
							"internalType": "bool",
							"name": "",
							"type": "bool"
						}
					],
					"stateMutability": "view",
					"type": "function"
				},
				{
					"inputs": [
						{
							"internalType": "address",
							"name": "_to",
							"type": "address"
						},
						{
							"internalType": "uint256",
							"name": "tokenId",
							"type": "uint256"
						}
					],
					"name": "mint",
					"outputs": [],
					"stateMutability": "nonpayable",
					"type": "function"
				},
				{
					"inputs": [],
					"name": "name",
					"outputs": [
						{
							"internalType": "string",
							"name": "",
							"type": "string"
						}
					],
					"stateMutability": "view",
					"type": "function"
				},
				{
					"inputs": [],
					"name": "owner",
					"outputs": [
						{
							"internalType": "address",
							"name": "",
							"type": "address"
						}
					],
					"stateMutability": "view",
					"type": "function"
				},
				{
					"inputs": [
						{
							"internalType": "uint256",
							"name": "tokenId",
							"type": "uint256"
						}
					],
					"name": "ownerOf",
					"outputs": [
						{
							"internalType": "address",
							"name": "",
							"type": "address"
						}
					],
					"stateMutability": "view",
					"type": "function"
				},
				{
					"inputs": [
						{
							"internalType": "uint256",
							"name": "nftId",
							"type": "uint256"
						}
					],
					"name": "redeemPhysicalItem",
					"outputs": [],
					"stateMutability": "nonpayable",
					"type": "function"
				},
				{
					"inputs": [],
					"name": "renounceOwnership",
					"outputs": [],
					"stateMutability": "nonpayable",
					"type": "function"
				},
				{
					"inputs": [
						{
							"internalType": "address",
							"name": "from",
							"type": "address"
						},
						{
							"internalType": "address",
							"name": "to",
							"type": "address"
						},
						{
							"internalType": "uint256",
							"name": "tokenId",
							"type": "uint256"
						}
					],
					"name": "safeTransferFrom",
					"outputs": [],
					"stateMutability": "payable",
					"type": "function"
				},
				{
					"inputs": [
						{
							"internalType": "address",
							"name": "from",
							"type": "address"
						},
						{
							"internalType": "address",
							"name": "to",
							"type": "address"
						},
						{
							"internalType": "uint256",
							"name": "tokenId",
							"type": "uint256"
						},
						{
							"internalType": "bytes",
							"name": "_data",
							"type": "bytes"
						}
					],
					"name": "safeTransferFrom",
					"outputs": [],
					"stateMutability": "payable",
					"type": "function"
				},
				{
					"inputs": [
						{
							"internalType": "address",
							"name": "operator",
							"type": "address"
						},
						{
							"internalType": "bool",
							"name": "approved",
							"type": "bool"
						}
					],
					"name": "setApprovalForAll",
					"outputs": [],
					"stateMutability": "nonpayable",
					"type": "function"
				},
				{
					"inputs": [
						{
							"internalType": "string",
							"name": "_newBaseURI",
							"type": "string"
						}
					],
					"name": "setBaseURI",
					"outputs": [],
					"stateMutability": "nonpayable",
					"type": "function"
				},
				{
					"inputs": [
						{
							"internalType": "string",
							"name": "_uriSuffix",
							"type": "string"
						}
					],
					"name": "setUriSuffix",
					"outputs": [],
					"stateMutability": "nonpayable",
					"type": "function"
				},
				{
					"inputs": [
						{
							"internalType": "address",
							"name": "add",
							"type": "address"
						}
					],
					"name": "setapprovedcontractaddress",
					"outputs": [],
					"stateMutability": "nonpayable",
					"type": "function"
				},
				{
					"inputs": [
						{
							"internalType": "bytes4",
							"name": "interfaceId",
							"type": "bytes4"
						}
					],
					"name": "supportsInterface",
					"outputs": [
						{
							"internalType": "bool",
							"name": "",
							"type": "bool"
						}
					],
					"stateMutability": "view",
					"type": "function"
				},
				{
					"inputs": [],
					"name": "symbol",
					"outputs": [
						{
							"internalType": "string",
							"name": "",
							"type": "string"
						}
					],
					"stateMutability": "view",
					"type": "function"
				},
				{
					"inputs": [
						{
							"internalType": "uint256",
							"name": "tokenId",
							"type": "uint256"
						}
					],
					"name": "tokenURI",
					"outputs": [
						{
							"internalType": "string",
							"name": "",
							"type": "string"
						}
					],
					"stateMutability": "view",
					"type": "function"
				},
				{
					"inputs": [],
					"name": "totalSupply",
					"outputs": [
						{
							"internalType": "uint256",
							"name": "",
							"type": "uint256"
						}
					],
					"stateMutability": "view",
					"type": "function"
				},
				{
					"inputs": [
						{
							"internalType": "address",
							"name": "from",
							"type": "address"
						},
						{
							"internalType": "address",
							"name": "to",
							"type": "address"
						},
						{
							"internalType": "uint256",
							"name": "tokenId",
							"type": "uint256"
						}
					],
					"name": "transferFrom",
					"outputs": [],
					"stateMutability": "payable",
					"type": "function"
				},
				{
					"inputs": [
						{
							"internalType": "address",
							"name": "newOwner",
							"type": "address"
						}
					],
					"name": "transferOwnership",
					"outputs": [],
					"stateMutability": "nonpayable",
					"type": "function"
				},
				{
					"inputs": [],
					"name": "uriSuffix",
					"outputs": [
						{
							"internalType": "string",
							"name": "",
							"type": "string"
						}
					],
					"stateMutability": "view",
					"type": "function"
				}
			],
			"devdoc": {
				"kind": "dev",
				"methods": {
					"owner()": {
						"details": "Returns the address of the current owner."
					},
					"renounceOwnership()": {
						"details": "Leaves the contract without owner. It will not be possible to call `onlyOwner` functions anymore. Can only be called by the current owner. NOTE: Renouncing ownership will leave the contract without an owner, thereby removing any functionality that is only available to the owner."
					},
					"safeTransferFrom(address,address,uint256)": {
						"details": "Equivalent to `safeTransferFrom(from, to, tokenId, '')`."
					},
					"transferOwnership(address)": {
						"details": "Transfers ownership of the contract to a new account (`newOwner`). Can only be called by the current owner."
					}
				},
				"version": 1
			},
			"evm": {
				"assembly": "    /* \"chestNft.sol\":329:29740  contract KleptoGnomeLootChest is IERC721A,Ownable {... */\n  mstore(0x40, 0x80)\n    /* \"chestNft.sol\":2500:2528  string public uriSuffix = \"\" */\n  mload(0x40)\n  dup1\n  0x20\n  add\n  0x40\n  mstore\n  dup1\n  0x00\n  dup2\n  mstore\n  pop\n  0x06\n  swap1\n  dup2\n  tag_1\n  swap2\n  swap1\n  tag_2\n  jump\t// in\ntag_1:\n  pop\n    /* \"chestNft.sol\":3138:3296  constructor(string memory name_, string memory symbol_) {... */\n  callvalue\n  dup1\n  iszero\n  tag_3\n  jumpi\n  0x00\n  dup1\n  revert\ntag_3:\n  pop\n  mload(0x40)\n  sub(codesize, bytecodeSize)\n  dup1\n  bytecodeSize\n  dup4\n  codecopy\n  dup2\n  dup2\n  add\n  0x40\n  mstore\n  dup2\n  add\n  swap1\n  tag_4\n  swap2\n  swap1\n  tag_5\n  jump\t// in\ntag_4:\n    /* \"@openzeppelin/contracts/access/Ownable.sol\":936:968  _transferOwnership(_msgSender()) */\n  tag_9\n    /* \"@openzeppelin/contracts/access/Ownable.sol\":955:967  _msgSender() */\n  tag_10\n    /* \"@openzeppelin/contracts/access/Ownable.sol\":955:965  _msgSender */\n  shl(0x20, tag_11)\n    /* \"@openzeppelin/contracts/access/Ownable.sol\":955:967  _msgSender() */\n  0x20\n  shr\n  jump\t// in\ntag_10:\n    /* \"@openzeppelin/contracts/access/Ownable.sol\":936:954  _transferOwnership */\n  shl(0x20, tag_12)\n    /* \"@openzeppelin/contracts/access/Ownable.sol\":936:968  _transferOwnership(_msgSender()) */\n  0x20\n  shr\n  jump\t// in\ntag_9:\n    /* \"chestNft.sol\":3213:3218  name_ */\n  dup2\n    /* \"chestNft.sol\":3205:3210  _name */\n  0x03\n    /* \"chestNft.sol\":3205:3218  _name = name_ */\n  swap1\n  dup2\n  tag_14\n  swap2\n  swap1\n  tag_2\n  jump\t// in\ntag_14:\n  pop\n    /* \"chestNft.sol\":3239:3246  symbol_ */\n  dup1\n    /* \"chestNft.sol\":3229:3236  _symbol */\n  0x04\n    /* \"chestNft.sol\":3229:3246  _symbol = symbol_ */\n  swap1\n  dup2\n  tag_15\n  swap2\n  swap1\n  tag_2\n  jump\t// in\ntag_15:\n  pop\n    /* \"chestNft.sol\":3273:3288  _startTokenId() */\n  tag_16\n    /* \"chestNft.sol\":3273:3286  _startTokenId */\n  shl(0x20, tag_17)\n    /* \"chestNft.sol\":3273:3288  _startTokenId() */\n  0x20\n  shr\n  jump\t// in\ntag_16:\n    /* \"chestNft.sol\":3257:3270  _currentIndex */\n  0x01\n    /* \"chestNft.sol\":3257:3288  _currentIndex = _startTokenId() */\n  dup2\n  swap1\n  sstore\n  pop\n    /* \"chestNft.sol\":3138:3296  constructor(string memory name_, string memory symbol_) {... */\n  pop\n  pop\n    /* \"chestNft.sol\":329:29740  contract KleptoGnomeLootChest is IERC721A,Ownable {... */\n  jump(tag_18)\n    /* \"@openzeppelin/contracts/utils/Context.sol\":640:736  function _msgSender() internal view virtual returns (address) {... */\ntag_11:\n    /* \"@openzeppelin/contracts/utils/Context.sol\":693:700  address */\n  0x00\n    /* \"@openzeppelin/contracts/utils/Context.sol\":719:729  msg.sender */\n  caller\n    /* \"@openzeppelin/contracts/utils/Context.sol\":712:729  return msg.sender */\n  swap1\n  pop\n    /* \"@openzeppelin/contracts/utils/Context.sol\":640:736  function _msgSender() internal view virtual returns (address) {... */\n  swap1\n  jump\t// out\n    /* \"@openzeppelin/contracts/access/Ownable.sol\":2433:2620  function _transferOwnership(address newOwner) internal virtual {... */\ntag_12:\n    /* \"@openzeppelin/contracts/access/Ownable.sol\":2506:2522  address oldOwner */\n  0x00\n    /* \"@openzeppelin/contracts/access/Ownable.sol\":2525:2531  _owner */\n  dup1\n  0x00\n  swap1\n  sload\n  swap1\n  0x0100\n  exp\n  swap1\n  div\n  0xffffffffffffffffffffffffffffffffffffffff\n  and\n    /* \"@openzeppelin/contracts/access/Ownable.sol\":2506:2531  address oldOwner = _owner */\n  swap1\n  pop\n    /* \"@openzeppelin/contracts/access/Ownable.sol\":2550:2558  newOwner */\n  dup2\n    /* \"@openzeppelin/contracts/access/Ownable.sol\":2541:2547  _owner */\n  0x00\n  dup1\n    /* \"@openzeppelin/contracts/access/Ownable.sol\":2541:2558  _owner = newOwner */\n  0x0100\n  exp\n  dup2\n  sload\n  dup2\n  0xffffffffffffffffffffffffffffffffffffffff\n  mul\n  not\n  and\n  swap1\n  dup4\n  0xffffffffffffffffffffffffffffffffffffffff\n  and\n  mul\n  or\n  swap1\n  sstore\n  pop\n    /* \"@openzeppelin/contracts/access/Ownable.sol\":2604:2612  newOwner */\n  dup2\n    /* \"@openzeppelin/contracts/access/Ownable.sol\":2573:2613  OwnershipTransferred(oldOwner, newOwner) */\n  0xffffffffffffffffffffffffffffffffffffffff\n  and\n    /* \"@openzeppelin/contracts/access/Ownable.sol\":2594:2602  oldOwner */\n  dup2\n    /* \"@openzeppelin/contracts/access/Ownable.sol\":2573:2613  OwnershipTransferred(oldOwner, newOwner) */\n  0xffffffffffffffffffffffffffffffffffffffff\n  and\n  0x8be0079c531659141344cd1fd0a4f28419497f9722a3daafe3b4186f6b6457e0\n  mload(0x40)\n  mload(0x40)\n  dup1\n  swap2\n  sub\n  swap1\n  log3\n    /* \"@openzeppelin/contracts/access/Ownable.sol\":2496:2620  {... */\n  pop\n    /* \"@openzeppelin/contracts/access/Ownable.sol\":2433:2620  function _transferOwnership(address newOwner) internal virtual {... */\n  pop\n  jump\t// out\n    /* \"chestNft.sol\":3309:3401  function _startTokenId() internal view virtual returns (uint256) {... */\ntag_17:\n    /* \"chestNft.sol\":3365:3372  uint256 */\n  0x00\n    /* \"chestNft.sol\":3309:3401  function _startTokenId() internal view virtual returns (uint256) {... */\n  swap1\n  jump\t// out\n    /* \"#utility.yul\":7:106   */\ntag_22:\n    /* \"#utility.yul\":59:65   */\n  0x00\n    /* \"#utility.yul\":93:98   */\n  dup2\n    /* \"#utility.yul\":87:99   */\n  mload\n    /* \"#utility.yul\":77:99   */\n  swap1\n  pop\n    /* \"#utility.yul\":7:106   */\n  swap2\n  swap1\n  pop\n  jump\t// out\n    /* \"#utility.yul\":112:292   */\ntag_23:\n    /* \"#utility.yul\":160:237   */\n  0x4e487b7100000000000000000000000000000000000000000000000000000000\n    /* \"#utility.yul\":157:158   */\n  0x00\n    /* \"#utility.yul\":150:238   */\n  mstore\n    /* \"#utility.yul\":257:261   */\n  0x41\n    /* \"#utility.yul\":254:255   */\n  0x04\n    /* \"#utility.yul\":247:262   */\n  mstore\n    /* \"#utility.yul\":281:285   */\n  0x24\n    /* \"#utility.yul\":278:279   */\n  0x00\n    /* \"#utility.yul\":271:286   */\n  revert\n    /* \"#utility.yul\":298:478   */\ntag_24:\n    /* \"#utility.yul\":346:423   */\n  0x4e487b7100000000000000000000000000000000000000000000000000000000\n    /* \"#utility.yul\":343:344   */\n  0x00\n    /* \"#utility.yul\":336:424   */\n  mstore\n    /* \"#utility.yul\":443:447   */\n  0x22\n    /* \"#utility.yul\":440:441   */\n  0x04\n    /* \"#utility.yul\":433:448   */\n  mstore\n    /* \"#utility.yul\":467:471   */\n  0x24\n    /* \"#utility.yul\":464:465   */\n  0x00\n    /* \"#utility.yul\":457:472   */\n  revert\n    /* \"#utility.yul\":484:804   */\ntag_25:\n    /* \"#utility.yul\":528:534   */\n  0x00\n    /* \"#utility.yul\":565:566   */\n  0x02\n    /* \"#utility.yul\":559:563   */\n  dup3\n    /* \"#utility.yul\":555:567   */\n  div\n    /* \"#utility.yul\":545:567   */\n  swap1\n  pop\n    /* \"#utility.yul\":612:613   */\n  0x01\n    /* \"#utility.yul\":606:610   */\n  dup3\n    /* \"#utility.yul\":602:614   */\n  and\n    /* \"#utility.yul\":633:651   */\n  dup1\n    /* \"#utility.yul\":623:704   */\n  tag_59\n  jumpi\n    /* \"#utility.yul\":689:693   */\n  0x7f\n    /* \"#utility.yul\":681:687   */\n  dup3\n    /* \"#utility.yul\":677:694   */\n  and\n    /* \"#utility.yul\":667:694   */\n  swap2\n  pop\n    /* \"#utility.yul\":623:704   */\ntag_59:\n    /* \"#utility.yul\":751:753   */\n  0x20\n    /* \"#utility.yul\":743:749   */\n  dup3\n    /* \"#utility.yul\":740:754   */\n  lt\n    /* \"#utility.yul\":720:738   */\n  dup2\n    /* \"#utility.yul\":717:755   */\n  sub\n    /* \"#utility.yul\":714:798   */\n  tag_60\n  jumpi\n    /* \"#utility.yul\":770:788   */\n  tag_61\n  tag_24\n  jump\t// in\ntag_61:\n    /* \"#utility.yul\":714:798   */\ntag_60:\n    /* \"#utility.yul\":535:804   */\n  pop\n    /* \"#utility.yul\":484:804   */\n  swap2\n  swap1\n  pop\n  jump\t// out\n    /* \"#utility.yul\":810:951   */\ntag_26:\n    /* \"#utility.yul\":859:863   */\n  0x00\n    /* \"#utility.yul\":882:885   */\n  dup2\n    /* \"#utility.yul\":874:885   */\n  swap1\n  pop\n    /* \"#utility.yul\":905:908   */\n  dup2\n    /* \"#utility.yul\":902:903   */\n  0x00\n    /* \"#utility.yul\":895:909   */\n  mstore\n    /* \"#utility.yul\":939:943   */\n  0x20\n    /* \"#utility.yul\":936:937   */\n  0x00\n    /* \"#utility.yul\":926:944   */\n  keccak256\n    /* \"#utility.yul\":918:944   */\n  swap1\n  pop\n    /* \"#utility.yul\":810:951   */\n  swap2\n  swap1\n  pop\n  jump\t// out\n    /* \"#utility.yul\":957:1050   */\ntag_27:\n    /* \"#utility.yul\":994:1000   */\n  0x00\n    /* \"#utility.yul\":1041:1043   */\n  0x20\n    /* \"#utility.yul\":1036:1038   */\n  0x1f\n    /* \"#utility.yul\":1029:1034   */\n  dup4\n    /* \"#utility.yul\":1025:1039   */\n  add\n    /* \"#utility.yul\":1021:1044   */\n  div\n    /* \"#utility.yul\":1011:1044   */\n  swap1\n  pop\n    /* \"#utility.yul\":957:1050   */\n  swap2\n  swap1\n  pop\n  jump\t// out\n    /* \"#utility.yul\":1056:1163   */\ntag_28:\n    /* \"#utility.yul\":1100:1108   */\n  0x00\n    /* \"#utility.yul\":1150:1155   */\n  dup3\n    /* \"#utility.yul\":1144:1148   */\n  dup3\n    /* \"#utility.yul\":1140:1156   */\n  shl\n    /* \"#utility.yul\":1119:1156   */\n  swap1\n  pop\n    /* \"#utility.yul\":1056:1163   */\n  swap3\n  swap2\n  pop\n  pop\n  jump\t// out\n    /* \"#utility.yul\":1169:1562   */\ntag_29:\n    /* \"#utility.yul\":1238:1244   */\n  0x00\n    /* \"#utility.yul\":1288:1289   */\n  0x08\n    /* \"#utility.yul\":1276:1286   */\n  dup4\n    /* \"#utility.yul\":1272:1290   */\n  mul\n    /* \"#utility.yul\":1311:1408   */\n  tag_66\n    /* \"#utility.yul\":1341:1407   */\n  0xffffffffffffffffffffffffffffffffffffffffffffffffffffffffffffffff\n    /* \"#utility.yul\":1330:1339   */\n  dup3\n    /* \"#utility.yul\":1311:1408   */\n  tag_28\n  jump\t// in\ntag_66:\n    /* \"#utility.yul\":1429:1468   */\n  tag_67\n    /* \"#utility.yul\":1459:1467   */\n  dup7\n    /* \"#utility.yul\":1448:1457   */\n  dup4\n    /* \"#utility.yul\":1429:1468   */\n  tag_28\n  jump\t// in\ntag_67:\n    /* \"#utility.yul\":1417:1468   */\n  swap6\n  pop\n    /* \"#utility.yul\":1501:1505   */\n  dup1\n    /* \"#utility.yul\":1497:1506   */\n  not\n    /* \"#utility.yul\":1490:1495   */\n  dup5\n    /* \"#utility.yul\":1486:1507   */\n  and\n    /* \"#utility.yul\":1477:1507   */\n  swap4\n  pop\n    /* \"#utility.yul\":1550:1554   */\n  dup1\n    /* \"#utility.yul\":1540:1548   */\n  dup7\n    /* \"#utility.yul\":1536:1555   */\n  and\n    /* \"#utility.yul\":1529:1534   */\n  dup5\n    /* \"#utility.yul\":1526:1556   */\n  or\n    /* \"#utility.yul\":1516:1556   */\n  swap3\n  pop\n    /* \"#utility.yul\":1245:1562   */\n  pop\n  pop\n    /* \"#utility.yul\":1169:1562   */\n  swap4\n  swap3\n  pop\n  pop\n  pop\n  jump\t// out\n    /* \"#utility.yul\":1568:1645   */\ntag_30:\n    /* \"#utility.yul\":1605:1612   */\n  0x00\n    /* \"#utility.yul\":1634:1639   */\n  dup2\n    /* \"#utility.yul\":1623:1639   */\n  swap1\n  pop\n    /* \"#utility.yul\":1568:1645   */\n  swap2\n  swap1\n  pop\n  jump\t// out\n    /* \"#utility.yul\":1651:1711   */\ntag_31:\n    /* \"#utility.yul\":1679:1682   */\n  0x00\n    /* \"#utility.yul\":1700:1705   */\n  dup2\n    /* \"#utility.yul\":1693:1705   */\n  swap1\n  pop\n    /* \"#utility.yul\":1651:1711   */\n  swap2\n  swap1\n  pop\n  jump\t// out\n    /* \"#utility.yul\":1717:1859   */\ntag_32:\n    /* \"#utility.yul\":1767:1776   */\n  0x00\n    /* \"#utility.yul\":1800:1853   */\n  tag_71\n    /* \"#utility.yul\":1818:1852   */\n  tag_72\n    /* \"#utility.yul\":1827:1851   */\n  tag_73\n    /* \"#utility.yul\":1845:1850   */\n  dup5\n    /* \"#utility.yul\":1827:1851   */\n  tag_30\n  jump\t// in\ntag_73:\n    /* \"#utility.yul\":1818:1852   */\n  tag_31\n  jump\t// in\ntag_72:\n    /* \"#utility.yul\":1800:1853   */\n  tag_30\n  jump\t// in\ntag_71:\n    /* \"#utility.yul\":1787:1853   */\n  swap1\n  pop\n    /* \"#utility.yul\":1717:1859   */\n  swap2\n  swap1\n  pop\n  jump\t// out\n    /* \"#utility.yul\":1865:1940   */\ntag_33:\n    /* \"#utility.yul\":1908:1911   */\n  0x00\n    /* \"#utility.yul\":1929:1934   */\n  dup2\n    /* \"#utility.yul\":1922:1934   */\n  swap1\n  pop\n    /* \"#utility.yul\":1865:1940   */\n  swap2\n  swap1\n  pop\n  jump\t// out\n    /* \"#utility.yul\":1946:2215   */\ntag_34:\n    /* \"#utility.yul\":2056:2095   */\n  tag_76\n    /* \"#utility.yul\":2087:2094   */\n  dup4\n    /* \"#utility.yul\":2056:2095   */\n  tag_32\n  jump\t// in\ntag_76:\n    /* \"#utility.yul\":2117:2208   */\n  tag_77\n    /* \"#utility.yul\":2166:2207   */\n  tag_78\n    /* \"#utility.yul\":2190:2206   */\n  dup3\n    /* \"#utility.yul\":2166:2207   */\n  tag_33\n  jump\t// in\ntag_78:\n    /* \"#utility.yul\":2158:2164   */\n  dup5\n    /* \"#utility.yul\":2151:2155   */\n  dup5\n    /* \"#utility.yul\":2145:2156   */\n  sload\n    /* \"#utility.yul\":2117:2208   */\n  tag_29\n  jump\t// in\ntag_77:\n    /* \"#utility.yul\":2111:2115   */\n  dup3\n    /* \"#utility.yul\":2104:2209   */\n  sstore\n    /* \"#utility.yul\":2022:2215   */\n  pop\n    /* \"#utility.yul\":1946:2215   */\n  pop\n  pop\n  pop\n  jump\t// out\n    /* \"#utility.yul\":2221:2294   */\ntag_35:\n    /* \"#utility.yul\":2266:2269   */\n  0x00\n    /* \"#utility.yul\":2221:2294   */\n  swap1\n  jump\t// out\n    /* \"#utility.yul\":2300:2489   */\ntag_36:\n    /* \"#utility.yul\":2377:2409   */\n  tag_81\n  tag_35\n  jump\t// in\ntag_81:\n    /* \"#utility.yul\":2418:2483   */\n  tag_82\n    /* \"#utility.yul\":2476:2482   */\n  dup2\n    /* \"#utility.yul\":2468:2474   */\n  dup5\n    /* \"#utility.yul\":2462:2466   */\n  dup5\n    /* \"#utility.yul\":2418:2483   */\n  tag_34\n  jump\t// in\ntag_82:\n    /* \"#utility.yul\":2353:2489   */\n  pop\n    /* \"#utility.yul\":2300:2489   */\n  pop\n  pop\n  jump\t// out\n    /* \"#utility.yul\":2495:2681   */\ntag_37:\n    /* \"#utility.yul\":2555:2675   */\ntag_84:\n    /* \"#utility.yul\":2572:2575   */\n  dup2\n    /* \"#utility.yul\":2565:2570   */\n  dup2\n    /* \"#utility.yul\":2562:2576   */\n  lt\n    /* \"#utility.yul\":2555:2675   */\n  iszero\n  tag_86\n  jumpi\n    /* \"#utility.yul\":2626:2665   */\n  tag_87\n    /* \"#utility.yul\":2663:2664   */\n  0x00\n    /* \"#utility.yul\":2656:2661   */\n  dup3\n    /* \"#utility.yul\":2626:2665   */\n  tag_36\n  jump\t// in\ntag_87:\n    /* \"#utility.yul\":2599:2600   */\n  0x01\n    /* \"#utility.yul\":2592:2597   */\n  dup2\n    /* \"#utility.yul\":2588:2601   */\n  add\n    /* \"#utility.yul\":2579:2601   */\n  swap1\n  pop\n    /* \"#utility.yul\":2555:2675   */\n  jump(tag_84)\ntag_86:\n    /* \"#utility.yul\":2495:2681   */\n  pop\n  pop\n  jump\t// out\n    /* \"#utility.yul\":2687:3230   */\ntag_38:\n    /* \"#utility.yul\":2788:2790   */\n  0x1f\n    /* \"#utility.yul\":2783:2786   */\n  dup3\n    /* \"#utility.yul\":2780:2791   */\n  gt\n    /* \"#utility.yul\":2777:3223   */\n  iszero\n  tag_89\n  jumpi\n    /* \"#utility.yul\":2822:2860   */\n  tag_90\n    /* \"#utility.yul\":2854:2859   */\n  dup2\n    /* \"#utility.yul\":2822:2860   */\n  tag_26\n  jump\t// in\ntag_90:\n    /* \"#utility.yul\":2906:2935   */\n  tag_91\n    /* \"#utility.yul\":2924:2934   */\n  dup5\n    /* \"#utility.yul\":2906:2935   */\n  tag_27\n  jump\t// in\ntag_91:\n    /* \"#utility.yul\":2896:2904   */\n  dup2\n    /* \"#utility.yul\":2892:2936   */\n  add\n    /* \"#utility.yul\":3089:3091   */\n  0x20\n    /* \"#utility.yul\":3077:3087   */\n  dup6\n    /* \"#utility.yul\":3074:3092   */\n  lt\n    /* \"#utility.yul\":3071:3120   */\n  iszero\n  tag_92\n  jumpi\n    /* \"#utility.yul\":3110:3118   */\n  dup2\n    /* \"#utility.yul\":3095:3118   */\n  swap1\n  pop\n    /* \"#utility.yul\":3071:3120   */\ntag_92:\n    /* \"#utility.yul\":3133:3213   */\n  tag_93\n    /* \"#utility.yul\":3189:3211   */\n  tag_94\n    /* \"#utility.yul\":3207:3210   */\n  dup6\n    /* \"#utility.yul\":3189:3211   */\n  tag_27\n  jump\t// in\ntag_94:\n    /* \"#utility.yul\":3179:3187   */\n  dup4\n    /* \"#utility.yul\":3175:3212   */\n  add\n    /* \"#utility.yul\":3162:3173   */\n  dup3\n    /* \"#utility.yul\":3133:3213   */\n  tag_37\n  jump\t// in\ntag_93:\n    /* \"#utility.yul\":2792:3223   */\n  pop\n  pop\n    /* \"#utility.yul\":2777:3223   */\ntag_89:\n    /* \"#utility.yul\":2687:3230   */\n  pop\n  pop\n  pop\n  jump\t// out\n    /* \"#utility.yul\":3236:3353   */\ntag_39:\n    /* \"#utility.yul\":3290:3298   */\n  0x00\n    /* \"#utility.yul\":3340:3345   */\n  dup3\n    /* \"#utility.yul\":3334:3338   */\n  dup3\n    /* \"#utility.yul\":3330:3346   */\n  shr\n    /* \"#utility.yul\":3309:3346   */\n  swap1\n  pop\n    /* \"#utility.yul\":3236:3353   */\n  swap3\n  swap2\n  pop\n  pop\n  jump\t// out\n    /* \"#utility.yul\":3359:3528   */\ntag_40:\n    /* \"#utility.yul\":3403:3409   */\n  0x00\n    /* \"#utility.yul\":3436:3487   */\n  tag_97\n    /* \"#utility.yul\":3484:3485   */\n  0x00\n    /* \"#utility.yul\":3480:3486   */\n  not\n    /* \"#utility.yul\":3472:3477   */\n  dup5\n    /* \"#utility.yul\":3469:3470   */\n  0x08\n    /* \"#utility.yul\":3465:3478   */\n  mul\n    /* \"#utility.yul\":3436:3487   */\n  tag_39\n  jump\t// in\ntag_97:\n    /* \"#utility.yul\":3432:3488   */\n  not\n    /* \"#utility.yul\":3517:3521   */\n  dup1\n    /* \"#utility.yul\":3511:3515   */\n  dup4\n    /* \"#utility.yul\":3507:3522   */\n  and\n    /* \"#utility.yul\":3497:3522   */\n  swap2\n  pop\n    /* \"#utility.yul\":3410:3528   */\n  pop\n    /* \"#utility.yul\":3359:3528   */\n  swap3\n  swap2\n  pop\n  pop\n  jump\t// out\n    /* \"#utility.yul\":3533:3828   */\ntag_41:\n    /* \"#utility.yul\":3609:3613   */\n  0x00\n    /* \"#utility.yul\":3755:3784   */\n  tag_99\n    /* \"#utility.yul\":3780:3783   */\n  dup4\n    /* \"#utility.yul\":3774:3778   */\n  dup4\n    /* \"#utility.yul\":3755:3784   */\n  tag_40\n  jump\t// in\ntag_99:\n    /* \"#utility.yul\":3747:3784   */\n  swap2\n  pop\n    /* \"#utility.yul\":3817:3820   */\n  dup3\n    /* \"#utility.yul\":3814:3815   */\n  0x02\n    /* \"#utility.yul\":3810:3821   */\n  mul\n    /* \"#utility.yul\":3804:3808   */\n  dup3\n    /* \"#utility.yul\":3801:3822   */\n  or\n    /* \"#utility.yul\":3793:3822   */\n  swap1\n  pop\n    /* \"#utility.yul\":3533:3828   */\n  swap3\n  swap2\n  pop\n  pop\n  jump\t// out\n    /* \"#utility.yul\":3833:5228   */\ntag_2:\n    /* \"#utility.yul\":3950:3987   */\n  tag_101\n    /* \"#utility.yul\":3983:3986   */\n  dup3\n    /* \"#utility.yul\":3950:3987   */\n  tag_22\n  jump\t// in\ntag_101:\n    /* \"#utility.yul\":4052:4070   */\n  0xffffffffffffffff\n    /* \"#utility.yul\":4044:4050   */\n  dup2\n    /* \"#utility.yul\":4041:4071   */\n  gt\n    /* \"#utility.yul\":4038:4094   */\n  iszero\n  tag_102\n  jumpi\n    /* \"#utility.yul\":4074:4092   */\n  tag_103\n  tag_23\n  jump\t// in\ntag_103:\n    /* \"#utility.yul\":4038:4094   */\ntag_102:\n    /* \"#utility.yul\":4118:4156   */\n  tag_104\n    /* \"#utility.yul\":4150:4154   */\n  dup3\n    /* \"#utility.yul\":4144:4155   */\n  sload\n    /* \"#utility.yul\":4118:4156   */\n  tag_25\n  jump\t// in\ntag_104:\n    /* \"#utility.yul\":4203:4270   */\n  tag_105\n    /* \"#utility.yul\":4263:4269   */\n  dup3\n    /* \"#utility.yul\":4255:4261   */\n  dup3\n    /* \"#utility.yul\":4249:4253   */\n  dup6\n    /* \"#utility.yul\":4203:4270   */\n  tag_38\n  jump\t// in\ntag_105:\n    /* \"#utility.yul\":4297:4298   */\n  0x00\n    /* \"#utility.yul\":4321:4325   */\n  0x20\n    /* \"#utility.yul\":4308:4325   */\n  swap1\n  pop\n    /* \"#utility.yul\":4353:4355   */\n  0x1f\n    /* \"#utility.yul\":4345:4351   */\n  dup4\n    /* \"#utility.yul\":4342:4356   */\n  gt\n    /* \"#utility.yul\":4370:4371   */\n  0x01\n    /* \"#utility.yul\":4365:4983   */\n  dup2\n  eq\n  tag_107\n  jumpi\n    /* \"#utility.yul\":5027:5028   */\n  0x00\n    /* \"#utility.yul\":5044:5050   */\n  dup5\n    /* \"#utility.yul\":5041:5118   */\n  iszero\n  tag_108\n  jumpi\n    /* \"#utility.yul\":5093:5102   */\n  dup3\n    /* \"#utility.yul\":5088:5091   */\n  dup8\n    /* \"#utility.yul\":5084:5103   */\n  add\n    /* \"#utility.yul\":5078:5104   */\n  mload\n    /* \"#utility.yul\":5069:5104   */\n  swap1\n  pop\n    /* \"#utility.yul\":5041:5118   */\ntag_108:\n    /* \"#utility.yul\":5144:5211   */\n  tag_109\n    /* \"#utility.yul\":5204:5210   */\n  dup6\n    /* \"#utility.yul\":5197:5202   */\n  dup3\n    /* \"#utility.yul\":5144:5211   */\n  tag_41\n  jump\t// in\ntag_109:\n    /* \"#utility.yul\":5138:5142   */\n  dup7\n    /* \"#utility.yul\":5131:5212   */\n  sstore\n    /* \"#utility.yul\":5000:5222   */\n  pop\n    /* \"#utility.yul\":4335:5222   */\n  jump(tag_106)\n    /* \"#utility.yul\":4365:4983   */\ntag_107:\n    /* \"#utility.yul\":4417:4421   */\n  0x1f\n    /* \"#utility.yul\":4413:4422   */\n  not\n    /* \"#utility.yul\":4405:4411   */\n  dup5\n    /* \"#utility.yul\":4401:4423   */\n  and\n    /* \"#utility.yul\":4451:4488   */\n  tag_110\n    /* \"#utility.yul\":4483:4487   */\n  dup7\n    /* \"#utility.yul\":4451:4488   */\n  tag_26\n  jump\t// in\ntag_110:\n    /* \"#utility.yul\":4510:4511   */\n  0x00\n    /* \"#utility.yul\":4524:4732   */\ntag_111:\n    /* \"#utility.yul\":4538:4545   */\n  dup3\n    /* \"#utility.yul\":4535:4536   */\n  dup2\n    /* \"#utility.yul\":4532:4546   */\n  lt\n    /* \"#utility.yul\":4524:4732   */\n  iszero\n  tag_113\n  jumpi\n    /* \"#utility.yul\":4617:4626   */\n  dup5\n    /* \"#utility.yul\":4612:4615   */\n  dup10\n    /* \"#utility.yul\":4608:4627   */\n  add\n    /* \"#utility.yul\":4602:4628   */\n  mload\n    /* \"#utility.yul\":4594:4600   */\n  dup3\n    /* \"#utility.yul\":4587:4629   */\n  sstore\n    /* \"#utility.yul\":4668:4669   */\n  0x01\n    /* \"#utility.yul\":4660:4666   */\n  dup3\n    /* \"#utility.yul\":4656:4670   */\n  add\n    /* \"#utility.yul\":4646:4670   */\n  swap2\n  pop\n    /* \"#utility.yul\":4715:4717   */\n  0x20\n    /* \"#utility.yul\":4704:4713   */\n  dup6\n    /* \"#utility.yul\":4700:4718   */\n  add\n    /* \"#utility.yul\":4687:4718   */\n  swap5\n  pop\n    /* \"#utility.yul\":4561:4565   */\n  0x20\n    /* \"#utility.yul\":4558:4559   */\n  dup2\n    /* \"#utility.yul\":4554:4566   */\n  add\n    /* \"#utility.yul\":4549:4566   */\n  swap1\n  pop\n    /* \"#utility.yul\":4524:4732   */\n  jump(tag_111)\ntag_113:\n    /* \"#utility.yul\":4760:4766   */\n  dup7\n    /* \"#utility.yul\":4751:4758   */\n  dup4\n    /* \"#utility.yul\":4748:4767   */\n  lt\n    /* \"#utility.yul\":4745:4924   */\n  iszero\n  tag_114\n  jumpi\n    /* \"#utility.yul\":4818:4827   */\n  dup5\n    /* \"#utility.yul\":4813:4816   */\n  dup10\n    /* \"#utility.yul\":4809:4828   */\n  add\n    /* \"#utility.yul\":4803:4829   */\n  mload\n    /* \"#utility.yul\":4861:4909   */\n  tag_115\n    /* \"#utility.yul\":4903:4907   */\n  0x1f\n    /* \"#utility.yul\":4895:4901   */\n  dup10\n    /* \"#utility.yul\":4891:4908   */\n  and\n    /* \"#utility.yul\":4880:4889   */\n  dup3\n    /* \"#utility.yul\":4861:4909   */\n  tag_40\n  jump\t// in\ntag_115:\n    /* \"#utility.yul\":4853:4859   */\n  dup4\n    /* \"#utility.yul\":4846:4910   */\n  sstore\n    /* \"#utility.yul\":4768:4924   */\n  pop\n    /* \"#utility.yul\":4745:4924   */\ntag_114:\n    /* \"#utility.yul\":4970:4971   */\n  0x01\n    /* \"#utility.yul\":4966:4967   */\n  0x02\n    /* \"#utility.yul\":4958:4964   */\n  dup9\n    /* \"#utility.yul\":4954:4968   */\n  mul\n    /* \"#utility.yul\":4950:4972   */\n  add\n    /* \"#utility.yul\":4944:4948   */\n  dup9\n    /* \"#utility.yul\":4937:4973   */\n  sstore\n    /* \"#utility.yul\":4372:4983   */\n  pop\n  pop\n  pop\n    /* \"#utility.yul\":4335:5222   */\ntag_106:\n  pop\n    /* \"#utility.yul\":3925:5228   */\n  pop\n  pop\n  pop\n    /* \"#utility.yul\":3833:5228   */\n  pop\n  pop\n  jump\t// out\n    /* \"#utility.yul\":5234:5309   */\ntag_42:\n    /* \"#utility.yul\":5267:5273   */\n  0x00\n    /* \"#utility.yul\":5300:5302   */\n  0x40\n    /* \"#utility.yul\":5294:5303   */\n  mload\n    /* \"#utility.yul\":5284:5303   */\n  swap1\n  pop\n    /* \"#utility.yul\":5234:5309   */\n  swap1\n  jump\t// out\n    /* \"#utility.yul\":5315:5432   */\ntag_43:\n    /* \"#utility.yul\":5424:5425   */\n  0x00\n    /* \"#utility.yul\":5421:5422   */\n  dup1\n    /* \"#utility.yul\":5414:5426   */\n  revert\n    /* \"#utility.yul\":5438:5555   */\ntag_44:\n    /* \"#utility.yul\":5547:5548   */\n  0x00\n    /* \"#utility.yul\":5544:5545   */\n  dup1\n    /* \"#utility.yul\":5537:5549   */\n  revert\n    /* \"#utility.yul\":5561:5678   */\ntag_45:\n    /* \"#utility.yul\":5670:5671   */\n  0x00\n    /* \"#utility.yul\":5667:5668   */\n  dup1\n    /* \"#utility.yul\":5660:5672   */\n  revert\n    /* \"#utility.yul\":5684:5801   */\ntag_46:\n    /* \"#utility.yul\":5793:5794   */\n  0x00\n    /* \"#utility.yul\":5790:5791   */\n  dup1\n    /* \"#utility.yul\":5783:5795   */\n  revert\n    /* \"#utility.yul\":5807:5909   */\ntag_47:\n    /* \"#utility.yul\":5848:5854   */\n  0x00\n    /* \"#utility.yul\":5899:5901   */\n  0x1f\n    /* \"#utility.yul\":5895:5902   */\n  not\n    /* \"#utility.yul\":5890:5892   */\n  0x1f\n    /* \"#utility.yul\":5883:5888   */\n  dup4\n    /* \"#utility.yul\":5879:5893   */\n  add\n    /* \"#utility.yul\":5875:5903   */\n  and\n    /* \"#utility.yul\":5865:5903   */\n  swap1\n  pop\n    /* \"#utility.yul\":5807:5909   */\n  swap2\n  swap1\n  pop\n  jump\t// out\n    /* \"#utility.yul\":5915:6196   */\ntag_48:\n    /* \"#utility.yul\":5998:6025   */\n  tag_123\n    /* \"#utility.yul\":6020:6024   */\n  dup3\n    /* \"#utility.yul\":5998:6025   */\n  tag_47\n  jump\t// in\ntag_123:\n    /* \"#utility.yul\":5990:5996   */\n  dup2\n    /* \"#utility.yul\":5986:6026   */\n  add\n    /* \"#utility.yul\":6128:6134   */\n  dup2\n    /* \"#utility.yul\":6116:6126   */\n  dup2\n    /* \"#utility.yul\":6113:6135   */\n  lt\n    /* \"#utility.yul\":6092:6110   */\n  0xffffffffffffffff\n    /* \"#utility.yul\":6080:6090   */\n  dup3\n    /* \"#utility.yul\":6077:6111   */\n  gt\n    /* \"#utility.yul\":6074:6136   */\n  or\n    /* \"#utility.yul\":6071:6159   */\n  iszero\n  tag_124\n  jumpi\n    /* \"#utility.yul\":6139:6157   */\n  tag_125\n  tag_23\n  jump\t// in\ntag_125:\n    /* \"#utility.yul\":6071:6159   */\ntag_124:\n    /* \"#utility.yul\":6179:6189   */\n  dup1\n    /* \"#utility.yul\":6175:6177   */\n  0x40\n    /* \"#utility.yul\":6168:6190   */\n  mstore\n    /* \"#utility.yul\":5958:6196   */\n  pop\n    /* \"#utility.yul\":5915:6196   */\n  pop\n  pop\n  jump\t// out\n    /* \"#utility.yul\":6202:6331   */\ntag_49:\n    /* \"#utility.yul\":6236:6242   */\n  0x00\n    /* \"#utility.yul\":6263:6283   */\n  tag_127\n  tag_42\n  jump\t// in\ntag_127:\n    /* \"#utility.yul\":6253:6283   */\n  swap1\n  pop\n    /* \"#utility.yul\":6292:6325   */\n  tag_128\n    /* \"#utility.yul\":6320:6324   */\n  dup3\n    /* \"#utility.yul\":6312:6318   */\n  dup3\n    /* \"#utility.yul\":6292:6325   */\n  tag_48\n  jump\t// in\ntag_128:\n    /* \"#utility.yul\":6202:6331   */\n  swap2\n  swap1\n  pop\n  jump\t// out\n    /* \"#utility.yul\":6337:6645   */\ntag_50:\n    /* \"#utility.yul\":6399:6403   */\n  0x00\n    /* \"#utility.yul\":6489:6507   */\n  0xffffffffffffffff\n    /* \"#utility.yul\":6481:6487   */\n  dup3\n    /* \"#utility.yul\":6478:6508   */\n  gt\n    /* \"#utility.yul\":6475:6531   */\n  iszero\n  tag_130\n  jumpi\n    /* \"#utility.yul\":6511:6529   */\n  tag_131\n  tag_23\n  jump\t// in\ntag_131:\n    /* \"#utility.yul\":6475:6531   */\ntag_130:\n    /* \"#utility.yul\":6549:6578   */\n  tag_132\n    /* \"#utility.yul\":6571:6577   */\n  dup3\n    /* \"#utility.yul\":6549:6578   */\n  tag_47\n  jump\t// in\ntag_132:\n    /* \"#utility.yul\":6541:6578   */\n  swap1\n  pop\n    /* \"#utility.yul\":6633:6637   */\n  0x20\n    /* \"#utility.yul\":6627:6631   */\n  dup2\n    /* \"#utility.yul\":6623:6638   */\n  add\n    /* \"#utility.yul\":6615:6638   */\n  swap1\n  pop\n    /* \"#utility.yul\":6337:6645   */\n  swap2\n  swap1\n  pop\n  jump\t// out\n    /* \"#utility.yul\":6651:6897   */\ntag_51:\n    /* \"#utility.yul\":6732:6733   */\n  0x00\n    /* \"#utility.yul\":6742:6855   */\ntag_134:\n    /* \"#utility.yul\":6756:6762   */\n  dup4\n    /* \"#utility.yul\":6753:6754   */\n  dup2\n    /* \"#utility.yul\":6750:6763   */\n  lt\n    /* \"#utility.yul\":6742:6855   */\n  iszero\n  tag_136\n  jumpi\n    /* \"#utility.yul\":6841:6842   */\n  dup1\n    /* \"#utility.yul\":6836:6839   */\n  dup3\n    /* \"#utility.yul\":6832:6843   */\n  add\n    /* \"#utility.yul\":6826:6844   */\n  mload\n    /* \"#utility.yul\":6822:6823   */\n  dup2\n    /* \"#utility.yul\":6817:6820   */\n  dup5\n    /* \"#utility.yul\":6813:6824   */\n  add\n    /* \"#utility.yul\":6806:6845   */\n  mstore\n    /* \"#utility.yul\":6778:6780   */\n  0x20\n    /* \"#utility.yul\":6775:6776   */\n  dup2\n    /* \"#utility.yul\":6771:6781   */\n  add\n    /* \"#utility.yul\":6766:6781   */\n  swap1\n  pop\n    /* \"#utility.yul\":6742:6855   */\n  jump(tag_134)\ntag_136:\n    /* \"#utility.yul\":6889:6890   */\n  0x00\n    /* \"#utility.yul\":6880:6886   */\n  dup5\n    /* \"#utility.yul\":6875:6878   */\n  dup5\n    /* \"#utility.yul\":6871:6887   */\n  add\n    /* \"#utility.yul\":6864:6891   */\n  mstore\n    /* \"#utility.yul\":6713:6897   */\n  pop\n    /* \"#utility.yul\":6651:6897   */\n  pop\n  pop\n  pop\n  jump\t// out\n    /* \"#utility.yul\":6903:7337   */\ntag_52:\n    /* \"#utility.yul\":6992:6997   */\n  0x00\n    /* \"#utility.yul\":7017:7083   */\n  tag_138\n    /* \"#utility.yul\":7033:7082   */\n  tag_139\n    /* \"#utility.yul\":7075:7081   */\n  dup5\n    /* \"#utility.yul\":7033:7082   */\n  tag_50\n  jump\t// in\ntag_139:\n    /* \"#utility.yul\":7017:7083   */\n  tag_49\n  jump\t// in\ntag_138:\n    /* \"#utility.yul\":7008:7083   */\n  swap1\n  pop\n    /* \"#utility.yul\":7106:7112   */\n  dup3\n    /* \"#utility.yul\":7099:7104   */\n  dup2\n    /* \"#utility.yul\":7092:7113   */\n  mstore\n    /* \"#utility.yul\":7144:7148   */\n  0x20\n    /* \"#utility.yul\":7137:7142   */\n  dup2\n    /* \"#utility.yul\":7133:7149   */\n  add\n    /* \"#utility.yul\":7182:7185   */\n  dup5\n    /* \"#utility.yul\":7173:7179   */\n  dup5\n    /* \"#utility.yul\":7168:7171   */\n  dup5\n    /* \"#utility.yul\":7164:7180   */\n  add\n    /* \"#utility.yul\":7161:7186   */\n  gt\n    /* \"#utility.yul\":7158:7270   */\n  iszero\n  tag_140\n  jumpi\n    /* \"#utility.yul\":7189:7268   */\n  tag_141\n  tag_46\n  jump\t// in\ntag_141:\n    /* \"#utility.yul\":7158:7270   */\ntag_140:\n    /* \"#utility.yul\":7279:7331   */\n  tag_142\n    /* \"#utility.yul\":7324:7330   */\n  dup5\n    /* \"#utility.yul\":7319:7322   */\n  dup3\n    /* \"#utility.yul\":7314:7317   */\n  dup6\n    /* \"#utility.yul\":7279:7331   */\n  tag_51\n  jump\t// in\ntag_142:\n    /* \"#utility.yul\":6998:7337   */\n  pop\n    /* \"#utility.yul\":6903:7337   */\n  swap4\n  swap3\n  pop\n  pop\n  pop\n  jump\t// out\n    /* \"#utility.yul\":7357:7712   */\ntag_53:\n    /* \"#utility.yul\":7424:7429   */\n  0x00\n    /* \"#utility.yul\":7473:7476   */\n  dup3\n    /* \"#utility.yul\":7466:7470   */\n  0x1f\n    /* \"#utility.yul\":7458:7464   */\n  dup4\n    /* \"#utility.yul\":7454:7471   */\n  add\n    /* \"#utility.yul\":7450:7477   */\n  slt\n    /* \"#utility.yul\":7440:7562   */\n  tag_144\n  jumpi\n    /* \"#utility.yul\":7481:7560   */\n  tag_145\n  tag_45\n  jump\t// in\ntag_145:\n    /* \"#utility.yul\":7440:7562   */\ntag_144:\n    /* \"#utility.yul\":7591:7597   */\n  dup2\n    /* \"#utility.yul\":7585:7598   */\n  mload\n    /* \"#utility.yul\":7616:7706   */\n  tag_146\n    /* \"#utility.yul\":7702:7705   */\n  dup5\n    /* \"#utility.yul\":7694:7700   */\n  dup3\n    /* \"#utility.yul\":7687:7691   */\n  0x20\n    /* \"#utility.yul\":7679:7685   */\n  dup7\n    /* \"#utility.yul\":7675:7692   */\n  add\n    /* \"#utility.yul\":7616:7706   */\n  tag_52\n  jump\t// in\ntag_146:\n    /* \"#utility.yul\":7607:7706   */\n  swap2\n  pop\n    /* \"#utility.yul\":7430:7712   */\n  pop\n    /* \"#utility.yul\":7357:7712   */\n  swap3\n  swap2\n  pop\n  pop\n  jump\t// out\n    /* \"#utility.yul\":7718:8571   */\ntag_5:\n    /* \"#utility.yul\":7817:7823   */\n  0x00\n    /* \"#utility.yul\":7825:7831   */\n  dup1\n    /* \"#utility.yul\":7874:7876   */\n  0x40\n    /* \"#utility.yul\":7862:7871   */\n  dup4\n    /* \"#utility.yul\":7853:7860   */\n  dup6\n    /* \"#utility.yul\":7849:7872   */\n  sub\n    /* \"#utility.yul\":7845:7877   */\n  slt\n    /* \"#utility.yul\":7842:7961   */\n  iszero\n  tag_148\n  jumpi\n    /* \"#utility.yul\":7880:7959   */\n  tag_149\n  tag_43\n  jump\t// in\ntag_149:\n    /* \"#utility.yul\":7842:7961   */\ntag_148:\n    /* \"#utility.yul\":8021:8022   */\n  0x00\n    /* \"#utility.yul\":8010:8019   */\n  dup4\n    /* \"#utility.yul\":8006:8023   */\n  add\n    /* \"#utility.yul\":8000:8024   */\n  mload\n    /* \"#utility.yul\":8051:8069   */\n  0xffffffffffffffff\n    /* \"#utility.yul\":8043:8049   */\n  dup2\n    /* \"#utility.yul\":8040:8070   */\n  gt\n    /* \"#utility.yul\":8037:8154   */\n  iszero\n  tag_150\n  jumpi\n    /* \"#utility.yul\":8073:8152   */\n  tag_151\n  tag_44\n  jump\t// in\ntag_151:\n    /* \"#utility.yul\":8037:8154   */\ntag_150:\n    /* \"#utility.yul\":8178:8252   */\n  tag_152\n    /* \"#utility.yul\":8244:8251   */\n  dup6\n    /* \"#utility.yul\":8235:8241   */\n  dup3\n    /* \"#utility.yul\":8224:8233   */\n  dup7\n    /* \"#utility.yul\":8220:8242   */\n  add\n    /* \"#utility.yul\":8178:8252   */\n  tag_53\n  jump\t// in\ntag_152:\n    /* \"#utility.yul\":8168:8252   */\n  swap3\n  pop\n    /* \"#utility.yul\":7971:8262   */\n  pop\n    /* \"#utility.yul\":8322:8324   */\n  0x20\n    /* \"#utility.yul\":8311:8320   */\n  dup4\n    /* \"#utility.yul\":8307:8325   */\n  add\n    /* \"#utility.yul\":8301:8326   */\n  mload\n    /* \"#utility.yul\":8353:8371   */\n  0xffffffffffffffff\n    /* \"#utility.yul\":8345:8351   */\n  dup2\n    /* \"#utility.yul\":8342:8372   */\n  gt\n    /* \"#utility.yul\":8339:8456   */\n  iszero\n  tag_153\n  jumpi\n    /* \"#utility.yul\":8375:8454   */\n  tag_154\n  tag_44\n  jump\t// in\ntag_154:\n    /* \"#utility.yul\":8339:8456   */\ntag_153:\n    /* \"#utility.yul\":8480:8554   */\n  tag_155\n    /* \"#utility.yul\":8546:8553   */\n  dup6\n    /* \"#utility.yul\":8537:8543   */\n  dup3\n    /* \"#utility.yul\":8526:8535   */\n  dup7\n    /* \"#utility.yul\":8522:8544   */\n  add\n    /* \"#utility.yul\":8480:8554   */\n  tag_53\n  jump\t// in\ntag_155:\n    /* \"#utility.yul\":8470:8554   */\n  swap2\n  pop\n    /* \"#utility.yul\":8272:8564   */\n  pop\n    /* \"#utility.yul\":7718:8571   */\n  swap3\n  pop\n  swap3\n  swap1\n  pop\n  jump\t// out\n    /* \"chestNft.sol\":329:29740  contract KleptoGnomeLootChest is IERC721A,Ownable {... */\ntag_18:\n  dataSize(sub_0)\n  dup1\n  dataOffset(sub_0)\n  0x00\n  codecopy\n  0x00\n  return\nstop\n\nsub_0: assembly {\n        /* \"chestNft.sol\":329:29740  contract KleptoGnomeLootChest is IERC721A,Ownable {... */\n      mstore(0x40, 0x80)\n      jumpi(tag_1, lt(calldatasize, 0x04))\n      shr(0xe0, calldataload(0x00))\n      dup1\n      0x70a08231\n      gt\n      tag_28\n      jumpi\n      dup1\n      0xb88d4fde\n      gt\n      tag_29\n      jumpi\n      dup1\n      0xe985e9c5\n      gt\n      tag_30\n      jumpi\n      dup1\n      0xe985e9c5\n      eq\n      tag_24\n      jumpi\n      dup1\n      0xf0c7b3aa\n      eq\n      tag_25\n      jumpi\n      dup1\n      0xf259a29e\n      eq\n      tag_26\n      jumpi\n      dup1\n      0xf2fde38b\n      eq\n      tag_27\n      jumpi\n      jump(tag_1)\n    tag_30:\n      dup1\n      0xb88d4fde\n      eq\n      tag_21\n      jumpi\n      dup1\n      0xc87b56dd\n      eq\n      tag_22\n      jumpi\n      dup1\n      0xdc76668d\n      eq\n      tag_23\n      jumpi\n      jump(tag_1)\n    tag_29:\n      dup1\n      0x70a08231\n      eq\n      tag_15\n      jumpi\n      dup1\n      0x715018a6\n      eq\n      tag_16\n      jumpi\n      dup1\n      0x8da5cb5b\n      eq\n      tag_17\n      jumpi\n      dup1\n      0x95d89b41\n      eq\n      tag_18\n      jumpi\n      dup1\n      0xa22cb465\n      eq\n      tag_19\n      jumpi\n      dup1\n      0xb6b285d9\n      eq\n      tag_20\n      jumpi\n      jump(tag_1)\n    tag_28:\n      dup1\n      0x23b872dd\n      gt\n      tag_31\n      jumpi\n      dup1\n      0x50caa341\n      gt\n      tag_32\n      jumpi\n      dup1\n      0x50caa341\n      eq\n      tag_11\n      jumpi\n      dup1\n      0x5503a0e8\n      eq\n      tag_12\n      jumpi\n      dup1\n      0x55f804b3\n      eq\n      tag_13\n      jumpi\n      dup1\n      0x6352211e\n      eq\n      tag_14\n      jumpi\n      jump(tag_1)\n    tag_32:\n      dup1\n      0x23b872dd\n      eq\n      tag_8\n      jumpi\n      dup1\n      0x40c10f19\n      eq\n      tag_9\n      jumpi\n      dup1\n      0x42842e0e\n      eq\n      tag_10\n      jumpi\n      jump(tag_1)\n    tag_31:\n      dup1\n      0x01ffc9a7\n      eq\n      tag_2\n      jumpi\n      dup1\n      0x06fdde03\n      eq\n      tag_3\n      jumpi\n      dup1\n      0x081812fc\n      eq\n      tag_4\n      jumpi\n      dup1\n      0x095ea7b3\n      eq\n      tag_5\n      jumpi\n      dup1\n      0x16ba10e0\n      eq\n      tag_6\n      jumpi\n      dup1\n      0x18160ddd\n      eq\n      tag_7\n      jumpi\n    tag_1:\n      0x00\n      dup1\n      revert\n        /* \"chestNft.sol\":5455:5817  function supportsInterface(bytes4 interfaceId) public view virtual override returns (bool) {... */\n    tag_2:\n      callvalue\n      dup1\n      iszero\n      tag_33\n      jumpi\n      0x00\n      dup1\n      revert\n    tag_33:\n      pop\n      tag_34\n      0x04\n      dup1\n      calldatasize\n      sub\n      dup2\n      add\n      swap1\n      tag_35\n      swap2\n      swap1\n      tag_36\n      jump\t// in\n    tag_35:\n      tag_37\n      jump\t// in\n    tag_34:\n      mload(0x40)\n      tag_38\n      swap2\n      swap1\n      tag_39\n      jump\t// in\n    tag_38:\n      mload(0x40)\n      dup1\n      swap2\n      sub\n      swap1\n      return\n        /* \"chestNft.sol\":5830:5930  function name() public view virtual override returns (string memory) {... */\n    tag_3:\n      callvalue\n      dup1\n      iszero\n      tag_40\n      jumpi\n      0x00\n      dup1\n      revert\n    tag_40:\n      pop\n      tag_41\n      tag_42\n      jump\t// in\n    tag_41:\n      mload(0x40)\n      tag_43\n      swap2\n      swap1\n      tag_44\n      jump\t// in\n    tag_43:\n      mload(0x40)\n      dup1\n      swap2\n      sub\n      swap1\n      return\n        /* \"chestNft.sol\":11362:11589  function getApproved(uint256 tokenId) public view virtual override returns (address) {... */\n    tag_4:\n      callvalue\n      dup1\n      iszero\n      tag_45\n      jumpi\n      0x00\n      dup1\n      revert\n    tag_45:\n      pop\n      tag_46\n      0x04\n      dup1\n      calldatasize\n      sub\n      dup2\n      add\n      swap1\n      tag_47\n      swap2\n      swap1\n      tag_48\n      jump\t// in\n    tag_47:\n      tag_49\n      jump\t// in\n    tag_46:\n      mload(0x40)\n      tag_50\n      swap2\n      swap1\n      tag_51\n      jump\t// in\n    tag_50:\n      mload(0x40)\n      dup1\n      swap2\n      sub\n      swap1\n      return\n        /* \"chestNft.sol\":11224:11348  function approve(address to, uint256 tokenId) public payable virtual override {... */\n    tag_5:\n      tag_52\n      0x04\n      dup1\n      calldatasize\n      sub\n      dup2\n      add\n      swap1\n      tag_53\n      swap2\n      swap1\n      tag_54\n      jump\t// in\n    tag_53:\n      tag_55\n      jump\t// in\n    tag_52:\n      stop\n        /* \"chestNft.sol\":6895:7003  function setUriSuffix(string memory _uriSuffix) external onlyOwner {... */\n    tag_6:\n      callvalue\n      dup1\n      iszero\n      tag_56\n      jumpi\n      0x00\n      dup1\n      revert\n    tag_56:\n      pop\n      tag_57\n      0x04\n      dup1\n      calldatasize\n      sub\n      dup2\n      add\n      swap1\n      tag_58\n      swap2\n      swap1\n      tag_59\n      jump\t// in\n    tag_58:\n      tag_60\n      jump\t// in\n    tag_57:\n      stop\n        /* \"chestNft.sol\":3530:3853  function totalSupply() public view virtual override returns (uint256) {... */\n    tag_7:\n      callvalue\n      dup1\n      iszero\n      tag_61\n      jumpi\n      0x00\n      dup1\n      revert\n    tag_61:\n      pop\n      tag_62\n      tag_63\n      jump\t// in\n    tag_62:\n      mload(0x40)\n      tag_64\n      swap2\n      swap1\n      tag_65\n      jump\t// in\n    tag_64:\n      mload(0x40)\n      dup1\n      swap2\n      sub\n      swap1\n      return\n        /* \"chestNft.sol\":13578:16636  function transferFrom(... */\n    tag_8:\n      tag_66\n      0x04\n      dup1\n      calldatasize\n      sub\n      dup2\n      add\n      swap1\n      tag_67\n      swap2\n      swap1\n      tag_68\n      jump\t// in\n    tag_67:\n      tag_69\n      jump\t// in\n    tag_66:\n      stop\n        /* \"chestNft.sol\":7156:7396  function mint(... */\n    tag_9:\n      callvalue\n      dup1\n      iszero\n      tag_70\n      jumpi\n      0x00\n      dup1\n      revert\n    tag_70:\n      pop\n      tag_71\n      0x04\n      dup1\n      calldatasize\n      sub\n      dup2\n      add\n      swap1\n      tag_72\n      swap2\n      swap1\n      tag_54\n      jump\t// in\n    tag_72:\n      tag_73\n      jump\t// in\n    tag_71:\n      stop\n        /* \"chestNft.sol\":16732:16925  function safeTransferFrom(... */\n    tag_10:\n      tag_74\n      0x04\n      dup1\n      calldatasize\n      sub\n      dup2\n      add\n      swap1\n      tag_75\n      swap2\n      swap1\n      tag_68\n      jump\t// in\n    tag_75:\n      tag_76\n      jump\t// in\n    tag_74:\n      stop\n        /* \"chestNft.sol\":7825:7937  function checkredeemednftid()public view returns(uint[] memory ){... */\n    tag_11:\n      callvalue\n      dup1\n      iszero\n      tag_77\n      jumpi\n      0x00\n      dup1\n      revert\n    tag_77:\n      pop\n      tag_78\n      tag_79\n      jump\t// in\n    tag_78:\n      mload(0x40)\n      tag_80\n      swap2\n      swap1\n      tag_81\n      jump\t// in\n    tag_80:\n      mload(0x40)\n      dup1\n      swap2\n      sub\n      swap1\n      return\n        /* \"chestNft.sol\":2500:2528  string public uriSuffix = \"\" */\n    tag_12:\n      callvalue\n      dup1\n      iszero\n      tag_82\n      jumpi\n      0x00\n      dup1\n      revert\n    tag_82:\n      pop\n      tag_83\n      tag_84\n      jump\t// in\n    tag_83:\n      mload(0x40)\n      tag_85\n      swap2\n      swap1\n      tag_44\n      jump\t// in\n    tag_85:\n      mload(0x40)\n      dup1\n      swap2\n      sub\n      swap1\n      return\n        /* \"chestNft.sol\":6777:6882  function setBaseURI(string memory _newBaseURI) public onlyOwner {... */\n    tag_13:\n      callvalue\n      dup1\n      iszero\n      tag_86\n      jumpi\n      0x00\n      dup1\n      revert\n    tag_86:\n      pop\n      tag_87\n      0x04\n      dup1\n      calldatasize\n      sub\n      dup2\n      add\n      swap1\n      tag_88\n      swap2\n      swap1\n      tag_59\n      jump\t// in\n    tag_88:\n      tag_89\n      jump\t// in\n    tag_87:\n      stop\n        /* \"chestNft.sol\":7948:8100  function ownerOf(uint256 tokenId) public view virtual override returns (address) {... */\n    tag_14:\n      callvalue\n      dup1\n      iszero\n      tag_90\n      jumpi\n      0x00\n      dup1\n      revert\n    tag_90:\n      pop\n      tag_91\n      0x04\n      dup1\n      calldatasize\n      sub\n      dup2\n      add\n      swap1\n      tag_92\n      swap2\n      swap1\n      tag_48\n      jump\t// in\n    tag_92:\n      tag_93\n      jump\t// in\n    tag_91:\n      mload(0x40)\n      tag_94\n      swap2\n      swap1\n      tag_51\n      jump\t// in\n    tag_94:\n      mload(0x40)\n      dup1\n      swap2\n      sub\n      swap1\n      return\n        /* \"chestNft.sol\":4247:4489  function balanceOf(address owner) public view virtual override returns (uint256) {... */\n    tag_15:\n      callvalue\n      dup1\n      iszero\n      tag_95\n      jumpi\n      0x00\n      dup1\n      revert\n    tag_95:\n      pop\n      tag_96\n      0x04\n      dup1\n      calldatasize\n      sub\n      dup2\n      add\n      swap1\n      tag_97\n      swap2\n      swap1\n      tag_98\n      jump\t// in\n    tag_97:\n      tag_99\n      jump\t// in\n    tag_96:\n      mload(0x40)\n      tag_100\n      swap2\n      swap1\n      tag_65\n      jump\t// in\n    tag_100:\n      mload(0x40)\n      dup1\n      swap2\n      sub\n      swap1\n      return\n        /* \"@openzeppelin/contracts/access/Ownable.sol\":1831:1932  function renounceOwnership() public virtual onlyOwner {... */\n    tag_16:\n      callvalue\n      dup1\n      iszero\n      tag_101\n      jumpi\n      0x00\n      dup1\n      revert\n    tag_101:\n      pop\n      tag_102\n      tag_103\n      jump\t// in\n    tag_102:\n      stop\n        /* \"@openzeppelin/contracts/access/Ownable.sol\":1201:1286  function owner() public view virtual returns (address) {... */\n    tag_17:\n      callvalue\n      dup1\n      iszero\n      tag_104\n      jumpi\n      0x00\n      dup1\n      revert\n    tag_104:\n      pop\n      tag_105\n      tag_106\n      jump\t// in\n    tag_105:\n      mload(0x40)\n      tag_107\n      swap2\n      swap1\n      tag_51\n      jump\t// in\n    tag_107:\n      mload(0x40)\n      dup1\n      swap2\n      sub\n      swap1\n      return\n        /* \"chestNft.sol\":5944:6048  function symbol() public view virtual override returns (string memory) {... */\n    tag_18:\n      callvalue\n      dup1\n      iszero\n      tag_108\n      jumpi\n      0x00\n      dup1\n      revert\n    tag_108:\n      pop\n      tag_109\n      tag_110\n      jump\t// in\n    tag_109:\n      mload(0x40)\n      tag_111\n      swap2\n      swap1\n      tag_44\n      jump\t// in\n    tag_111:\n      mload(0x40)\n      dup1\n      swap2\n      sub\n      swap1\n      return\n        /* \"chestNft.sol\":11602:11836  function setApprovalForAll(address operator, bool approved) public virtual override {... */\n    tag_19:\n      callvalue\n      dup1\n      iszero\n      tag_112\n      jumpi\n      0x00\n      dup1\n      revert\n    tag_112:\n      pop\n      tag_113\n      0x04\n      dup1\n      calldatasize\n      sub\n      dup2\n      add\n      swap1\n      tag_114\n      swap2\n      swap1\n      tag_115\n      jump\t// in\n    tag_114:\n      tag_116\n      jump\t// in\n    tag_113:\n      stop\n        /* \"chestNft.sol\":7011:7143  function setapprovedcontractaddress(address add)external {... */\n    tag_20:\n      callvalue\n      dup1\n      iszero\n      tag_117\n      jumpi\n      0x00\n      dup1\n      revert\n    tag_117:\n      pop\n      tag_118\n      0x04\n      dup1\n      calldatasize\n      sub\n      dup2\n      add\n      swap1\n      tag_119\n      swap2\n      swap1\n      tag_98\n      jump\t// in\n    tag_119:\n      tag_120\n      jump\t// in\n    tag_118:\n      stop\n        /* \"chestNft.sol\":16939:17355  function safeTransferFrom(... */\n    tag_21:\n      tag_121\n      0x04\n      dup1\n      calldatasize\n      sub\n      dup2\n      add\n      swap1\n      tag_122\n      swap2\n      swap1\n      tag_123\n      jump\t// in\n    tag_122:\n      tag_124\n      jump\t// in\n    tag_121:\n      stop\n        /* \"chestNft.sol\":6062:6399  function tokenURI(uint256 tokenId) public view virtual override returns (string memory) {... */\n    tag_22:\n      callvalue\n      dup1\n      iszero\n      tag_125\n      jumpi\n      0x00\n      dup1\n      revert\n    tag_125:\n      pop\n      tag_126\n      0x04\n      dup1\n      calldatasize\n      sub\n      dup2\n      add\n      swap1\n      tag_127\n      swap2\n      swap1\n      tag_48\n      jump\t// in\n    tag_127:\n      tag_128\n      jump\t// in\n    tag_126:\n      mload(0x40)\n      tag_129\n      swap2\n      swap1\n      tag_44\n      jump\t// in\n    tag_129:\n      mload(0x40)\n      dup1\n      swap2\n      sub\n      swap1\n      return\n        /* \"chestNft.sol\":7410:7653  function redeemPhysicalItem(uint  nftId)public {... */\n    tag_23:\n      callvalue\n      dup1\n      iszero\n      tag_130\n      jumpi\n      0x00\n      dup1\n      revert\n    tag_130:\n      pop\n      tag_131\n      0x04\n      dup1\n      calldatasize\n      sub\n      dup2\n      add\n      swap1\n      tag_132\n      swap2\n      swap1\n      tag_48\n      jump\t// in\n    tag_132:\n      tag_133\n      jump\t// in\n    tag_131:\n      stop\n        /* \"chestNft.sol\":11849:12013  function isApprovedForAll(address owner, address operator) public view virtual override returns (bool) {... */\n    tag_24:\n      callvalue\n      dup1\n      iszero\n      tag_134\n      jumpi\n      0x00\n      dup1\n      revert\n    tag_134:\n      pop\n      tag_135\n      0x04\n      dup1\n      calldatasize\n      sub\n      dup2\n      add\n      swap1\n      tag_136\n      swap2\n      swap1\n      tag_137\n      jump\t// in\n    tag_136:\n      tag_138\n      jump\t// in\n    tag_135:\n      mload(0x40)\n      tag_139\n      swap2\n      swap1\n      tag_39\n      jump\t// in\n    tag_139:\n      mload(0x40)\n      dup1\n      swap2\n      sub\n      swap1\n      return\n        /* \"chestNft.sol\":7661:7805  function  checkredemmedphysicalitem(uint nftId)public view returns(bool){... */\n    tag_25:\n      callvalue\n      dup1\n      iszero\n      tag_140\n      jumpi\n      0x00\n      dup1\n      revert\n    tag_140:\n      pop\n      tag_141\n      0x04\n      dup1\n      calldatasize\n      sub\n      dup2\n      add\n      swap1\n      tag_142\n      swap2\n      swap1\n      tag_48\n      jump\t// in\n    tag_142:\n      tag_143\n      jump\t// in\n    tag_141:\n      mload(0x40)\n      tag_144\n      swap2\n      swap1\n      tag_39\n      jump\t// in\n    tag_144:\n      mload(0x40)\n      dup1\n      swap2\n      sub\n      swap1\n      return\n        /* \"chestNft.sol\":2471:2493  string public baseURI_ */\n    tag_26:\n      callvalue\n      dup1\n      iszero\n      tag_145\n      jumpi\n      0x00\n      dup1\n      revert\n    tag_145:\n      pop\n      tag_146\n      tag_147\n      jump\t// in\n    tag_146:\n      mload(0x40)\n      tag_148\n      swap2\n      swap1\n      tag_44\n      jump\t// in\n    tag_148:\n      mload(0x40)\n      dup1\n      swap2\n      sub\n      swap1\n      return\n        /* \"@openzeppelin/contracts/access/Ownable.sol\":2081:2279  function transferOwnership(address newOwner) public virtual onlyOwner {... */\n    tag_27:\n      callvalue\n      dup1\n      iszero\n      tag_149\n      jumpi\n      0x00\n      dup1\n      revert\n    tag_149:\n      pop\n      tag_150\n      0x04\n      dup1\n      calldatasize\n      sub\n      dup2\n      add\n      swap1\n      tag_151\n      swap2\n      swap1\n      tag_98\n      jump\t// in\n    tag_151:\n      tag_152\n      jump\t// in\n    tag_150:\n      stop\n        /* \"chestNft.sol\":5455:5817  function supportsInterface(bytes4 interfaceId) public view virtual override returns (bool) {... */\n    tag_37:\n        /* \"chestNft.sol\":5540:5544  bool */\n      0x00\n        /* \"chestNft.sol\":5602:5612  0x01ffc9a7 */\n      0x01ffc9a7\n        /* \"chestNft.sol\":5587:5612  interfaceId == 0x01ffc9a7 */\n      0xe0\n      shl\n        /* \"chestNft.sol\":5587:5598  interfaceId */\n      dup3\n        /* \"chestNft.sol\":5587:5612  interfaceId == 0x01ffc9a7 */\n      not(0xffffffffffffffffffffffffffffffffffffffffffffffffffffffff)\n      and\n      eq\n        /* \"chestNft.sol\":5587:5689  interfaceId == 0x01ffc9a7 || // ERC165 interface ID for ERC165.... */\n      dup1\n      tag_154\n      jumpi\n      pop\n        /* \"chestNft.sol\":5679:5689  0x80ac58cd */\n      0x80ac58cd\n        /* \"chestNft.sol\":5664:5689  interfaceId == 0x80ac58cd */\n      0xe0\n      shl\n        /* \"chestNft.sol\":5664:5675  interfaceId */\n      dup3\n        /* \"chestNft.sol\":5664:5689  interfaceId == 0x80ac58cd */\n      not(0xffffffffffffffffffffffffffffffffffffffffffffffffffffffff)\n      and\n      eq\n        /* \"chestNft.sol\":5587:5689  interfaceId == 0x01ffc9a7 || // ERC165 interface ID for ERC165.... */\n    tag_154:\n        /* \"chestNft.sol\":5587:5766  interfaceId == 0x01ffc9a7 || // ERC165 interface ID for ERC165.... */\n      dup1\n      tag_155\n      jumpi\n      pop\n        /* \"chestNft.sol\":5756:5766  0x5b5e139f */\n      0x5b5e139f\n        /* \"chestNft.sol\":5741:5766  interfaceId == 0x5b5e139f */\n      0xe0\n      shl\n        /* \"chestNft.sol\":5741:5752  interfaceId */\n      dup3\n        /* \"chestNft.sol\":5741:5766  interfaceId == 0x5b5e139f */\n      not(0xffffffffffffffffffffffffffffffffffffffffffffffffffffffff)\n      and\n      eq\n        /* \"chestNft.sol\":5587:5766  interfaceId == 0x01ffc9a7 || // ERC165 interface ID for ERC165.... */\n    tag_155:\n        /* \"chestNft.sol\":5567:5766  return... */\n      swap1\n      pop\n        /* \"chestNft.sol\":5455:5817  function supportsInterface(bytes4 interfaceId) public view virtual override returns (bool) {... */\n      swap2\n      swap1\n      pop\n      jump\t// out\n        /* \"chestNft.sol\":5830:5930  function name() public view virtual override returns (string memory) {... */\n    tag_42:\n        /* \"chestNft.sol\":5884:5897  string memory */\n      0x60\n        /* \"chestNft.sol\":5917:5922  _name */\n      0x03\n        /* \"chestNft.sol\":5910:5922  return _name */\n      dup1\n      sload\n      tag_157\n      swap1\n      tag_158\n      jump\t// in\n    tag_157:\n      dup1\n      0x1f\n      add\n      0x20\n      dup1\n      swap2\n      div\n      mul\n      0x20\n      add\n      mload(0x40)\n      swap1\n      dup2\n      add\n      0x40\n      mstore\n      dup1\n      swap3\n      swap2\n      swap1\n      dup2\n      dup2\n      mstore\n      0x20\n      add\n      dup3\n      dup1\n      sload\n      tag_159\n      swap1\n      tag_158\n      jump\t// in\n    tag_159:\n      dup1\n      iszero\n      tag_160\n      jumpi\n      dup1\n      0x1f\n      lt\n      tag_161\n      jumpi\n      0x0100\n      dup1\n      dup4\n      sload\n      div\n      mul\n      dup4\n      mstore\n      swap2\n      0x20\n      add\n      swap2\n      jump(tag_160)\n    tag_161:\n      dup3\n      add\n      swap2\n      swap1\n      0x00\n      mstore\n      keccak256(0x00, 0x20)\n      swap1\n    tag_162:\n      dup2\n      sload\n      dup2\n      mstore\n      swap1\n      0x01\n      add\n      swap1\n      0x20\n      add\n      dup1\n      dup4\n      gt\n      tag_162\n      jumpi\n      dup3\n      swap1\n      sub\n      0x1f\n      and\n      dup3\n      add\n      swap2\n    tag_160:\n      pop\n      pop\n      pop\n      pop\n      pop\n      swap1\n      pop\n        /* \"chestNft.sol\":5830:5930  function name() public view virtual override returns (string memory) {... */\n      swap1\n      jump\t// out\n        /* \"chestNft.sol\":11362:11589  function getApproved(uint256 tokenId) public view virtual override returns (address) {... */\n    tag_49:\n        /* \"chestNft.sol\":11438:11445  address */\n      0x00\n        /* \"chestNft.sol\":11463:11479  _exists(tokenId) */\n      tag_164\n        /* \"chestNft.sol\":11471:11478  tokenId */\n      dup3\n        /* \"chestNft.sol\":11463:11470  _exists */\n      tag_165\n        /* \"chestNft.sol\":11463:11479  _exists(tokenId) */\n      jump\t// in\n    tag_164:\n        /* \"chestNft.sol\":11458:11531  if (!_exists(tokenId)) _revert(ApprovalQueryForNonexistentToken.selector) */\n      tag_166\n      jumpi\n        /* \"chestNft.sol\":11481:11531  _revert(ApprovalQueryForNonexistentToken.selector) */\n      tag_167\n        /* \"chestNft.sol\":11489:11530  ApprovalQueryForNonexistentToken.selector */\n      shl(0xe0, 0xcf4700e4)\n        /* \"chestNft.sol\":11481:11488  _revert */\n      tag_168\n        /* \"chestNft.sol\":11481:11531  _revert(ApprovalQueryForNonexistentToken.selector) */\n      jump\t// in\n    tag_167:\n        /* \"chestNft.sol\":11458:11531  if (!_exists(tokenId)) _revert(ApprovalQueryForNonexistentToken.selector) */\n    tag_166:\n        /* \"chestNft.sol\":11551:11566  _tokenApprovals */\n      0x0d\n        /* \"chestNft.sol\":11551:11575  _tokenApprovals[tokenId] */\n      0x00\n        /* \"chestNft.sol\":11567:11574  tokenId */\n      dup4\n        /* \"chestNft.sol\":11551:11575  _tokenApprovals[tokenId] */\n      dup2\n      mstore\n      0x20\n      add\n      swap1\n      dup2\n      mstore\n      0x20\n      add\n      0x00\n      keccak256\n        /* \"chestNft.sol\":11551:11581  _tokenApprovals[tokenId].value */\n      0x00\n      add\n      0x00\n      swap1\n      sload\n      swap1\n      0x0100\n      exp\n      swap1\n      div\n      0xffffffffffffffffffffffffffffffffffffffff\n      and\n        /* \"chestNft.sol\":11544:11581  return _tokenApprovals[tokenId].value */\n      swap1\n      pop\n        /* \"chestNft.sol\":11362:11589  function getApproved(uint256 tokenId) public view virtual override returns (address) {... */\n      swap2\n      swap1\n      pop\n      jump\t// out\n        /* \"chestNft.sol\":11224:11348  function approve(address to, uint256 tokenId) public payable virtual override {... */\n    tag_55:\n        /* \"chestNft.sol\":11313:11340  _approve(to, tokenId, true) */\n      tag_170\n        /* \"chestNft.sol\":11322:11324  to */\n      dup3\n        /* \"chestNft.sol\":11326:11333  tokenId */\n      dup3\n        /* \"chestNft.sol\":11335:11339  true */\n      0x01\n        /* \"chestNft.sol\":11313:11321  _approve */\n      tag_171\n        /* \"chestNft.sol\":11313:11340  _approve(to, tokenId, true) */\n      jump\t// in\n    tag_170:\n        /* \"chestNft.sol\":11224:11348  function approve(address to, uint256 tokenId) public payable virtual override {... */\n      pop\n      pop\n      jump\t// out\n        /* \"chestNft.sol\":6895:7003  function setUriSuffix(string memory _uriSuffix) external onlyOwner {... */\n    tag_60:\n        /* \"@openzeppelin/contracts/access/Ownable.sol\":1094:1107  _checkOwner() */\n      tag_173\n        /* \"@openzeppelin/contracts/access/Ownable.sol\":1094:1105  _checkOwner */\n      tag_174\n        /* \"@openzeppelin/contracts/access/Ownable.sol\":1094:1107  _checkOwner() */\n      jump\t// in\n    tag_173:\n        /* \"chestNft.sol\":6985:6995  _uriSuffix */\n      dup1\n        /* \"chestNft.sol\":6973:6982  uriSuffix */\n      0x06\n        /* \"chestNft.sol\":6973:6995  uriSuffix = _uriSuffix */\n      swap1\n      dup2\n      tag_176\n      swap2\n      swap1\n      tag_177\n      jump\t// in\n    tag_176:\n      pop\n        /* \"chestNft.sol\":6895:7003  function setUriSuffix(string memory _uriSuffix) external onlyOwner {... */\n      pop\n      jump\t// out\n        /* \"chestNft.sol\":3530:3853  function totalSupply() public view virtual override returns (uint256) {... */\n    tag_63:\n        /* \"chestNft.sol\":3591:3598  uint256 */\n      0x00\n        /* \"chestNft.sol\":3819:3834  _startTokenId() */\n      tag_179\n        /* \"chestNft.sol\":3819:3832  _startTokenId */\n      tag_180\n        /* \"chestNft.sol\":3819:3834  _startTokenId() */\n      jump\t// in\n    tag_179:\n        /* \"chestNft.sol\":3804:3816  _burnCounter */\n      sload(0x02)\n        /* \"chestNft.sol\":3788:3801  _currentIndex */\n      sload(0x01)\n        /* \"chestNft.sol\":3788:3816  _currentIndex - _burnCounter */\n      sub\n        /* \"chestNft.sol\":3788:3834  _currentIndex - _burnCounter - _startTokenId() */\n      sub\n        /* \"chestNft.sol\":3781:3834  return _currentIndex - _burnCounter - _startTokenId() */\n      swap1\n      pop\n        /* \"chestNft.sol\":3530:3853  function totalSupply() public view virtual override returns (uint256) {... */\n      swap1\n      jump\t// out\n        /* \"chestNft.sol\":13578:16636  function transferFrom(... */\n    tag_69:\n        /* \"chestNft.sol\":13720:13747  uint256 prevOwnershipPacked */\n      0x00\n        /* \"chestNft.sol\":13750:13777  _packedOwnershipOf(tokenId) */\n      tag_182\n        /* \"chestNft.sol\":13769:13776  tokenId */\n      dup3\n        /* \"chestNft.sol\":13750:13768  _packedOwnershipOf */\n      tag_183\n        /* \"chestNft.sol\":13750:13777  _packedOwnershipOf(tokenId) */\n      jump\t// in\n    tag_182:\n        /* \"chestNft.sol\":13720:13777  uint256 prevOwnershipPacked = _packedOwnershipOf(tokenId) */\n      swap1\n      pop\n        /* \"chestNft.sol\":1974:1988  (1 << 160) - 1 */\n      0xffffffffffffffffffffffffffffffffffffffff\n        /* \"chestNft.sol\":13921:13925  from */\n      dup5\n        /* \"chestNft.sol\":13905:13927  uint256(uint160(from)) */\n      0xffffffffffffffffffffffffffffffffffffffff\n      and\n        /* \"chestNft.sol\":13905:13946  uint256(uint160(from)) & _BITMASK_ADDRESS */\n      and\n        /* \"chestNft.sol\":13882:13948  from = address(uint160(uint256(uint160(from)) & _BITMASK_ADDRESS)) */\n      swap4\n      pop\n        /* \"chestNft.sol\":14006:14010  from */\n      dup4\n        /* \"chestNft.sol\":13965:14010  address(uint160(prevOwnershipPacked)) != from */\n      0xffffffffffffffffffffffffffffffffffffffff\n      and\n        /* \"chestNft.sol\":13981:14000  prevOwnershipPacked */\n      dup2\n        /* \"chestNft.sol\":13965:14010  address(uint160(prevOwnershipPacked)) != from */\n      0xffffffffffffffffffffffffffffffffffffffff\n      and\n      eq\n        /* \"chestNft.sol\":13961:14056  if (address(uint160(prevOwnershipPacked)) != from) _revert(TransferFromIncorrectOwner.selector) */\n      tag_184\n      jumpi\n        /* \"chestNft.sol\":14012:14056  _revert(TransferFromIncorrectOwner.selector) */\n      tag_185\n        /* \"chestNft.sol\":14020:14055  TransferFromIncorrectOwner.selector */\n      shl(0xe0, 0xa1148100)\n        /* \"chestNft.sol\":14012:14019  _revert */\n      tag_168\n        /* \"chestNft.sol\":14012:14056  _revert(TransferFromIncorrectOwner.selector) */\n      jump\t// in\n    tag_185:\n        /* \"chestNft.sol\":13961:14056  if (address(uint160(prevOwnershipPacked)) != from) _revert(TransferFromIncorrectOwner.selector) */\n    tag_184:\n        /* \"chestNft.sol\":14070:14097  uint256 approvedAddressSlot */\n      0x00\n        /* \"chestNft.sol\":14099:14122  address approvedAddress */\n      dup1\n        /* \"chestNft.sol\":14126:14161  _getApprovedSlotAndAddress(tokenId) */\n      tag_186\n        /* \"chestNft.sol\":14153:14160  tokenId */\n      dup5\n        /* \"chestNft.sol\":14126:14152  _getApprovedSlotAndAddress */\n      tag_187\n        /* \"chestNft.sol\":14126:14161  _getApprovedSlotAndAddress(tokenId) */\n      jump\t// in\n    tag_186:\n        /* \"chestNft.sol\":14069:14161  (uint256 approvedAddressSlot, address approvedAddress) = _getApprovedSlotAndAddress(tokenId) */\n      swap2\n      pop\n      swap2\n      pop\n        /* \"chestNft.sol\":14261:14329  _isSenderApprovedOrOwner(approvedAddress, from, _msgSenderERC721A()) */\n      tag_188\n        /* \"chestNft.sol\":14286:14301  approvedAddress */\n      dup2\n        /* \"chestNft.sol\":14303:14307  from */\n      dup8\n        /* \"chestNft.sol\":14309:14328  _msgSenderERC721A() */\n      tag_189\n        /* \"chestNft.sol\":14309:14326  _msgSenderERC721A */\n      tag_190\n        /* \"chestNft.sol\":14309:14328  _msgSenderERC721A() */\n      jump\t// in\n    tag_189:\n        /* \"chestNft.sol\":14261:14285  _isSenderApprovedOrOwner */\n      tag_191\n        /* \"chestNft.sol\":14261:14329  _isSenderApprovedOrOwner(approvedAddress, from, _msgSenderERC721A()) */\n      jump\t// in\n    tag_188:\n        /* \"chestNft.sol\":14256:14445  if (!_isSenderApprovedOrOwner(approvedAddress, from, _msgSenderERC721A()))... */\n      tag_192\n      jumpi\n        /* \"chestNft.sol\":14349:14392  isApprovedForAll(from, _msgSenderERC721A()) */\n      tag_193\n        /* \"chestNft.sol\":14366:14370  from */\n      dup7\n        /* \"chestNft.sol\":14372:14391  _msgSenderERC721A() */\n      tag_194\n        /* \"chestNft.sol\":14372:14389  _msgSenderERC721A */\n      tag_190\n        /* \"chestNft.sol\":14372:14391  _msgSenderERC721A() */\n      jump\t// in\n    tag_194:\n        /* \"chestNft.sol\":14349:14365  isApprovedForAll */\n      tag_138\n        /* \"chestNft.sol\":14349:14392  isApprovedForAll(from, _msgSenderERC721A()) */\n      jump\t// in\n    tag_193:\n        /* \"chestNft.sol\":14344:14445  if (!isApprovedForAll(from, _msgSenderERC721A())) _revert(TransferCallerNotOwnerNorApproved.selector) */\n      tag_195\n      jumpi\n        /* \"chestNft.sol\":14394:14445  _revert(TransferCallerNotOwnerNorApproved.selector) */\n      tag_196\n        /* \"chestNft.sol\":14402:14444  TransferCallerNotOwnerNorApproved.selector */\n      shl(0xe0, 0x59c896be)\n        /* \"chestNft.sol\":14394:14401  _revert */\n      tag_168\n        /* \"chestNft.sol\":14394:14445  _revert(TransferCallerNotOwnerNorApproved.selector) */\n      jump\t// in\n    tag_196:\n        /* \"chestNft.sol\":14344:14445  if (!isApprovedForAll(from, _msgSenderERC721A())) _revert(TransferCallerNotOwnerNorApproved.selector) */\n    tag_195:\n        /* \"chestNft.sol\":14256:14445  if (!_isSenderApprovedOrOwner(approvedAddress, from, _msgSenderERC721A()))... */\n    tag_192:\n        /* \"chestNft.sol\":14458:14501  _beforeTokenTransfers(from, to, tokenId, 1) */\n      tag_197\n        /* \"chestNft.sol\":14480:14484  from */\n      dup7\n        /* \"chestNft.sol\":14486:14488  to */\n      dup7\n        /* \"chestNft.sol\":14490:14497  tokenId */\n      dup7\n        /* \"chestNft.sol\":14499:14500  1 */\n      0x01\n        /* \"chestNft.sol\":14458:14479  _beforeTokenTransfers */\n      tag_198\n        /* \"chestNft.sol\":14458:14501  _beforeTokenTransfers(from, to, tokenId, 1) */\n      jump\t// in\n    tag_197:\n        /* \"chestNft.sol\":14594:14609  approvedAddress */\n      dup1\n        /* \"chestNft.sol\":14591:14751  if approvedAddress {... */\n      iszero\n      tag_199\n      jumpi\n        /* \"chestNft.sol\":14734:14735  0 */\n      0x00\n        /* \"chestNft.sol\":14713:14732  approvedAddressSlot */\n      dup3\n        /* \"chestNft.sol\":14706:14736  sstore(approvedAddressSlot, 0) */\n      sstore\n        /* \"chestNft.sol\":14591:14751  if approvedAddress {... */\n    tag_199:\n        /* \"chestNft.sol\":14879:14897  _packedAddressData */\n      0x0c\n        /* \"chestNft.sol\":14879:14903  _packedAddressData[from] */\n      0x00\n        /* \"chestNft.sol\":14898:14902  from */\n      dup8\n        /* \"chestNft.sol\":14879:14903  _packedAddressData[from] */\n      0xffffffffffffffffffffffffffffffffffffffff\n      and\n      0xffffffffffffffffffffffffffffffffffffffff\n      and\n      dup2\n      mstore\n      0x20\n      add\n      swap1\n      dup2\n      mstore\n      0x20\n      add\n      0x00\n      keccak256\n      0x00\n        /* \"chestNft.sol\":14877:14903  --_packedAddressData[from] */\n      dup2\n      sload\n      0x01\n      swap1\n      sub\n      swap2\n      swap1\n      pop\n      dup2\n      swap1\n      sstore\n      pop\n        /* \"chestNft.sol\":14948:14966  _packedAddressData */\n      0x0c\n        /* \"chestNft.sol\":14948:14970  _packedAddressData[to] */\n      0x00\n        /* \"chestNft.sol\":14967:14969  to */\n      dup7\n        /* \"chestNft.sol\":14948:14970  _packedAddressData[to] */\n      0xffffffffffffffffffffffffffffffffffffffff\n      and\n      0xffffffffffffffffffffffffffffffffffffffff\n      and\n      dup2\n      mstore\n      0x20\n      add\n      swap1\n      dup2\n      mstore\n      0x20\n      add\n      0x00\n      keccak256\n      0x00\n        /* \"chestNft.sol\":14946:14970  ++_packedAddressData[to] */\n      dup2\n      sload\n      0x01\n      add\n      swap2\n      swap1\n      pop\n      dup2\n      swap1\n      sstore\n      pop\n        /* \"chestNft.sol\":15057:15203  _packOwnershipData(... */\n      tag_200\n        /* \"chestNft.sol\":15094:15096  to */\n      dup6\n        /* \"chestNft.sol\":15143:15188  _nextExtraData(from, to, prevOwnershipPacked) */\n      tag_201\n        /* \"chestNft.sol\":15158:15162  from */\n      dup9\n        /* \"chestNft.sol\":15164:15166  to */\n      dup9\n        /* \"chestNft.sol\":15168:15187  prevOwnershipPacked */\n      dup8\n        /* \"chestNft.sol\":15143:15157  _nextExtraData */\n      tag_202\n        /* \"chestNft.sol\":15143:15188  _nextExtraData(from, to, prevOwnershipPacked) */\n      jump\t// in\n    tag_201:\n        /* \"chestNft.sol\":1572:1580  1 << 225 */\n      0x0200000000000000000000000000000000000000000000000000000000\n        /* \"chestNft.sol\":15115:15188  _BITMASK_NEXT_INITIALIZED | _nextExtraData(from, to, prevOwnershipPacked) */\n      or\n        /* \"chestNft.sol\":15057:15075  _packOwnershipData */\n      tag_203\n        /* \"chestNft.sol\":15057:15203  _packOwnershipData(... */\n      jump\t// in\n    tag_200:\n        /* \"chestNft.sol\":15028:15045  _packedOwnerships */\n      0x0b\n        /* \"chestNft.sol\":15028:15054  _packedOwnerships[tokenId] */\n      0x00\n        /* \"chestNft.sol\":15046:15053  tokenId */\n      dup7\n        /* \"chestNft.sol\":15028:15054  _packedOwnerships[tokenId] */\n      dup2\n      mstore\n      0x20\n      add\n      swap1\n      dup2\n      mstore\n      0x20\n      add\n      0x00\n      keccak256\n        /* \"chestNft.sol\":15028:15203  _packedOwnerships[tokenId] = _packOwnershipData(... */\n      dup2\n      swap1\n      sstore\n      pop\n        /* \"chestNft.sol\":15374:15375  0 */\n      0x00\n        /* \"chestNft.sol\":1572:1580  1 << 225 */\n      0x0200000000000000000000000000000000000000000000000000000000\n        /* \"chestNft.sol\":15323:15342  prevOwnershipPacked */\n      dup5\n        /* \"chestNft.sol\":15323:15370  prevOwnershipPacked & _BITMASK_NEXT_INITIALIZED */\n      and\n        /* \"chestNft.sol\":15323:15375  prevOwnershipPacked & _BITMASK_NEXT_INITIALIZED == 0 */\n      sub\n        /* \"chestNft.sol\":15319:15946  if (prevOwnershipPacked & _BITMASK_NEXT_INITIALIZED == 0) {... */\n      tag_204\n      jumpi\n        /* \"chestNft.sol\":15396:15415  uint256 nextTokenId */\n      0x00\n        /* \"chestNft.sol\":15428:15429  1 */\n      0x01\n        /* \"chestNft.sol\":15418:15425  tokenId */\n      dup6\n        /* \"chestNft.sol\":15418:15429  tokenId + 1 */\n      add\n        /* \"chestNft.sol\":15396:15429  uint256 nextTokenId = tokenId + 1 */\n      swap1\n      pop\n        /* \"chestNft.sol\":15585:15586  0 */\n      0x00\n        /* \"chestNft.sol\":15551:15568  _packedOwnerships */\n      0x0b\n        /* \"chestNft.sol\":15551:15581  _packedOwnerships[nextTokenId] */\n      0x00\n        /* \"chestNft.sol\":15569:15580  nextTokenId */\n      dup4\n        /* \"chestNft.sol\":15551:15581  _packedOwnerships[nextTokenId] */\n      dup2\n      mstore\n      0x20\n      add\n      swap1\n      dup2\n      mstore\n      0x20\n      add\n      0x00\n      keccak256\n      sload\n        /* \"chestNft.sol\":15551:15586  _packedOwnerships[nextTokenId] == 0 */\n      sub\n        /* \"chestNft.sol\":15547:15931  if (_packedOwnerships[nextTokenId] == 0) {... */\n      tag_205\n      jumpi\n        /* \"chestNft.sol\":15689:15702  _currentIndex */\n      sload(0x01)\n        /* \"chestNft.sol\":15674:15685  nextTokenId */\n      dup2\n        /* \"chestNft.sol\":15674:15702  nextTokenId != _currentIndex */\n      eq\n        /* \"chestNft.sol\":15670:15912  if (nextTokenId != _currentIndex) {... */\n      tag_206\n      jumpi\n        /* \"chestNft.sol\":15869:15888  prevOwnershipPacked */\n      dup4\n        /* \"chestNft.sol\":15836:15853  _packedOwnerships */\n      0x0b\n        /* \"chestNft.sol\":15836:15866  _packedOwnerships[nextTokenId] */\n      0x00\n        /* \"chestNft.sol\":15854:15865  nextTokenId */\n      dup4\n        /* \"chestNft.sol\":15836:15866  _packedOwnerships[nextTokenId] */\n      dup2\n      mstore\n      0x20\n      add\n      swap1\n      dup2\n      mstore\n      0x20\n      add\n      0x00\n      keccak256\n        /* \"chestNft.sol\":15836:15888  _packedOwnerships[nextTokenId] = prevOwnershipPacked */\n      dup2\n      swap1\n      sstore\n      pop\n        /* \"chestNft.sol\":15670:15912  if (nextTokenId != _currentIndex) {... */\n    tag_206:\n        /* \"chestNft.sol\":15547:15931  if (_packedOwnerships[nextTokenId] == 0) {... */\n    tag_205:\n        /* \"chestNft.sol\":15377:15946  {... */\n      pop\n        /* \"chestNft.sol\":15319:15946  if (prevOwnershipPacked & _BITMASK_NEXT_INITIALIZED == 0) {... */\n    tag_204:\n        /* \"chestNft.sol\":16059:16075  uint256 toMasked */\n      0x00\n        /* \"chestNft.sol\":1974:1988  (1 << 160) - 1 */\n      0xffffffffffffffffffffffffffffffffffffffff\n        /* \"chestNft.sol\":16094:16096  to */\n      dup7\n        /* \"chestNft.sol\":16078:16098  uint256(uint160(to)) */\n      0xffffffffffffffffffffffffffffffffffffffff\n      and\n        /* \"chestNft.sol\":16078:16117  uint256(uint160(to)) & _BITMASK_ADDRESS */\n      and\n        /* \"chestNft.sol\":16059:16117  uint256 toMasked = uint256(uint160(to)) & _BITMASK_ADDRESS */\n      swap1\n      pop\n        /* \"chestNft.sol\":16458:16465  tokenId */\n      dup5\n        /* \"chestNft.sol\":16422:16430  toMasked */\n      dup2\n        /* \"chestNft.sol\":16388:16392  from */\n      dup9\n        /* \"chestNft.sol\":16330:16355  _TRANSFER_EVENT_SIGNATURE */\n      0xddf252ad1be2c89b69c2b068fc378daa952ba7f163c4a11628f55a4df523b3ef\n        /* \"chestNft.sol\":16275:16276  0 */\n      0x00\n        /* \"chestNft.sol\":16218:16219  0 */\n      dup1\n        /* \"chestNft.sol\":16195:16494  log4(... */\n      log4\n        /* \"chestNft.sol\":16531:16532  0 */\n      0x00\n        /* \"chestNft.sol\":16519:16527  toMasked */\n      dup2\n        /* \"chestNft.sol\":16519:16532  toMasked == 0 */\n      sub\n        /* \"chestNft.sol\":16515:16573  if (toMasked == 0) _revert(TransferToZeroAddress.selector) */\n      tag_207\n      jumpi\n        /* \"chestNft.sol\":16534:16573  _revert(TransferToZeroAddress.selector) */\n      tag_208\n        /* \"chestNft.sol\":16542:16572  TransferToZeroAddress.selector */\n      shl(0xe0, 0xea553b34)\n        /* \"chestNft.sol\":16534:16541  _revert */\n      tag_168\n        /* \"chestNft.sol\":16534:16573  _revert(TransferToZeroAddress.selector) */\n      jump\t// in\n    tag_208:\n        /* \"chestNft.sol\":16515:16573  if (toMasked == 0) _revert(TransferToZeroAddress.selector) */\n    tag_207:\n        /* \"chestNft.sol\":16586:16628  _afterTokenTransfers(from, to, tokenId, 1) */\n      tag_209\n        /* \"chestNft.sol\":16607:16611  from */\n      dup8\n        /* \"chestNft.sol\":16613:16615  to */\n      dup8\n        /* \"chestNft.sol\":16617:16624  tokenId */\n      dup8\n        /* \"chestNft.sol\":16626:16627  1 */\n      0x01\n        /* \"chestNft.sol\":16586:16606  _afterTokenTransfers */\n      tag_210\n        /* \"chestNft.sol\":16586:16628  _afterTokenTransfers(from, to, tokenId, 1) */\n      jump\t// in\n    tag_209:\n        /* \"chestNft.sol\":13709:16636  {... */\n      pop\n      pop\n      pop\n      pop\n        /* \"chestNft.sol\":13578:16636  function transferFrom(... */\n      pop\n      pop\n      pop\n      jump\t// out\n        /* \"chestNft.sol\":7156:7396  function mint(... */\n    tag_73:\n        /* \"chestNft.sol\":7311:7315  true */\n      0x01\n        /* \"chestNft.sol\":7269:7315  onlyapprovedcontractaddress[msg.sender] ==true */\n      iszero\n      iszero\n        /* \"chestNft.sol\":7269:7296  onlyapprovedcontractaddress */\n      0x09\n        /* \"chestNft.sol\":7269:7308  onlyapprovedcontractaddress[msg.sender] */\n      0x00\n        /* \"chestNft.sol\":7297:7307  msg.sender */\n      caller\n        /* \"chestNft.sol\":7269:7308  onlyapprovedcontractaddress[msg.sender] */\n      0xffffffffffffffffffffffffffffffffffffffff\n      and\n      0xffffffffffffffffffffffffffffffffffffffff\n      and\n      dup2\n      mstore\n      0x20\n      add\n      swap1\n      dup2\n      mstore\n      0x20\n      add\n      0x00\n      keccak256\n      0x00\n      swap1\n      sload\n      swap1\n      0x0100\n      exp\n      swap1\n      div\n      0xff\n      and\n        /* \"chestNft.sol\":7269:7315  onlyapprovedcontractaddress[msg.sender] ==true */\n      iszero\n      iszero\n      eq\n        /* \"chestNft.sol\":7261:7349  require(onlyapprovedcontractaddress[msg.sender] ==true, \"you are not approved  to mint\") */\n      tag_212\n      jumpi\n      mload(0x40)\n      0x08c379a000000000000000000000000000000000000000000000000000000000\n      dup2\n      mstore\n      0x04\n      add\n      tag_213\n      swap1\n      tag_214\n      jump\t// in\n    tag_213:\n      mload(0x40)\n      dup1\n      swap2\n      sub\n      swap1\n      revert\n    tag_212:\n        /* \"chestNft.sol\":7357:7380  _safeMint(_to, tokenId) */\n      tag_215\n        /* \"chestNft.sol\":7367:7370  _to */\n      dup3\n        /* \"chestNft.sol\":7372:7379  tokenId */\n      dup3\n        /* \"chestNft.sol\":7357:7366  _safeMint */\n      tag_216\n        /* \"chestNft.sol\":7357:7380  _safeMint(_to, tokenId) */\n      jump\t// in\n    tag_215:\n        /* \"chestNft.sol\":7156:7396  function mint(... */\n      pop\n      pop\n      jump\t// out\n        /* \"chestNft.sol\":16732:16925  function safeTransferFrom(... */\n    tag_76:\n        /* \"chestNft.sol\":16878:16917  safeTransferFrom(from, to, tokenId, '') */\n      tag_218\n        /* \"chestNft.sol\":16895:16899  from */\n      dup4\n        /* \"chestNft.sol\":16901:16903  to */\n      dup4\n        /* \"chestNft.sol\":16905:16912  tokenId */\n      dup4\n        /* \"chestNft.sol\":16878:16917  safeTransferFrom(from, to, tokenId, '') */\n      mload(0x40)\n      dup1\n      0x20\n      add\n      0x40\n      mstore\n      dup1\n      0x00\n      dup2\n      mstore\n      pop\n        /* \"chestNft.sol\":16878:16894  safeTransferFrom */\n      tag_124\n        /* \"chestNft.sol\":16878:16917  safeTransferFrom(from, to, tokenId, '') */\n      jump\t// in\n    tag_218:\n        /* \"chestNft.sol\":16732:16925  function safeTransferFrom(... */\n      pop\n      pop\n      pop\n      jump\t// out\n        /* \"chestNft.sol\":7825:7937  function checkredeemednftid()public view returns(uint[] memory ){... */\n    tag_79:\n        /* \"chestNft.sol\":7874:7887  uint[] memory */\n      0x60\n        /* \"chestNft.sol\":7905:7917  nftsredeemed */\n      0x07\n        /* \"chestNft.sol\":7905:7929  nftsredeemed[msg.sender] */\n      0x00\n        /* \"chestNft.sol\":7918:7928  msg.sender */\n      caller\n        /* \"chestNft.sol\":7905:7929  nftsredeemed[msg.sender] */\n      0xffffffffffffffffffffffffffffffffffffffff\n      and\n      0xffffffffffffffffffffffffffffffffffffffff\n      and\n      dup2\n      mstore\n      0x20\n      add\n      swap1\n      dup2\n      mstore\n      0x20\n      add\n      0x00\n      keccak256\n        /* \"chestNft.sol\":7898:7929  return nftsredeemed[msg.sender] */\n      dup1\n      sload\n      dup1\n      0x20\n      mul\n      0x20\n      add\n      mload(0x40)\n      swap1\n      dup2\n      add\n      0x40\n      mstore\n      dup1\n      swap3\n      swap2\n      swap1\n      dup2\n      dup2\n      mstore\n      0x20\n      add\n      dup3\n      dup1\n      sload\n      dup1\n      iszero\n      tag_220\n      jumpi\n      0x20\n      mul\n      dup3\n      add\n      swap2\n      swap1\n      0x00\n      mstore\n      keccak256(0x00, 0x20)\n      swap1\n    tag_221:\n      dup2\n      sload\n      dup2\n      mstore\n      0x20\n      add\n      swap1\n      0x01\n      add\n      swap1\n      dup1\n      dup4\n      gt\n      tag_221\n      jumpi\n    tag_220:\n      pop\n      pop\n      pop\n      pop\n      pop\n      swap1\n      pop\n        /* \"chestNft.sol\":7825:7937  function checkredeemednftid()public view returns(uint[] memory ){... */\n      swap1\n      jump\t// out\n        /* \"chestNft.sol\":2500:2528  string public uriSuffix = \"\" */\n    tag_84:\n      0x06\n      dup1\n      sload\n      tag_222\n      swap1\n      tag_158\n      jump\t// in\n    tag_222:\n      dup1\n      0x1f\n      add\n      0x20\n      dup1\n      swap2\n      div\n      mul\n      0x20\n      add\n      mload(0x40)\n      swap1\n      dup2\n      add\n      0x40\n      mstore\n      dup1\n      swap3\n      swap2\n      swap1\n      dup2\n      dup2\n      mstore\n      0x20\n      add\n      dup3\n      dup1\n      sload\n      tag_223\n      swap1\n      tag_158\n      jump\t// in\n    tag_223:\n      dup1\n      iszero\n      tag_224\n      jumpi\n      dup1\n      0x1f\n      lt\n      tag_225\n      jumpi\n      0x0100\n      dup1\n      dup4\n      sload\n      div\n      mul\n      dup4\n      mstore\n      swap2\n      0x20\n      add\n      swap2\n      jump(tag_224)\n    tag_225:\n      dup3\n      add\n      swap2\n      swap1\n      0x00\n      mstore\n      keccak256(0x00, 0x20)\n      swap1\n    tag_226:\n      dup2\n      sload\n      dup2\n      mstore\n      swap1\n      0x01\n      add\n      swap1\n      0x20\n      add\n      dup1\n      dup4\n      gt\n      tag_226\n      jumpi\n      dup3\n      swap1\n      sub\n      0x1f\n      and\n      dup3\n      add\n      swap2\n    tag_224:\n      pop\n      pop\n      pop\n      pop\n      pop\n      dup2\n      jump\t// out\n        /* \"chestNft.sol\":6777:6882  function setBaseURI(string memory _newBaseURI) public onlyOwner {... */\n    tag_89:\n        /* \"@openzeppelin/contracts/access/Ownable.sol\":1094:1107  _checkOwner() */\n      tag_228\n        /* \"@openzeppelin/contracts/access/Ownable.sol\":1094:1105  _checkOwner */\n      tag_174\n        /* \"@openzeppelin/contracts/access/Ownable.sol\":1094:1107  _checkOwner() */\n      jump\t// in\n    tag_228:\n        /* \"chestNft.sol\":6863:6874  _newBaseURI */\n      dup1\n        /* \"chestNft.sol\":6852:6860  baseURI_ */\n      0x05\n        /* \"chestNft.sol\":6852:6874  baseURI_ = _newBaseURI */\n      swap1\n      dup2\n      tag_230\n      swap2\n      swap1\n      tag_177\n      jump\t// in\n    tag_230:\n      pop\n        /* \"chestNft.sol\":6777:6882  function setBaseURI(string memory _newBaseURI) public onlyOwner {... */\n      pop\n      jump\t// out\n        /* \"chestNft.sol\":7948:8100  function ownerOf(uint256 tokenId) public view virtual override returns (address) {... */\n    tag_93:\n        /* \"chestNft.sol\":8020:8027  address */\n      0x00\n        /* \"chestNft.sol\":8063:8090  _packedOwnershipOf(tokenId) */\n      tag_232\n        /* \"chestNft.sol\":8082:8089  tokenId */\n      dup3\n        /* \"chestNft.sol\":8063:8081  _packedOwnershipOf */\n      tag_183\n        /* \"chestNft.sol\":8063:8090  _packedOwnershipOf(tokenId) */\n      jump\t// in\n    tag_232:\n        /* \"chestNft.sol\":8040:8092  return address(uint160(_packedOwnershipOf(tokenId))) */\n      swap1\n      pop\n        /* \"chestNft.sol\":7948:8100  function ownerOf(uint256 tokenId) public view virtual override returns (address) {... */\n      swap2\n      swap1\n      pop\n      jump\t// out\n        /* \"chestNft.sol\":4247:4489  function balanceOf(address owner) public view virtual override returns (uint256) {... */\n    tag_99:\n        /* \"chestNft.sol\":4319:4326  uint256 */\n      0x00\n        /* \"chestNft.sol\":4360:4361  0 */\n      dup1\n        /* \"chestNft.sol\":4343:4362  owner == address(0) */\n      0xffffffffffffffffffffffffffffffffffffffff\n      and\n        /* \"chestNft.sol\":4343:4348  owner */\n      dup3\n        /* \"chestNft.sol\":4343:4362  owner == address(0) */\n      0xffffffffffffffffffffffffffffffffffffffff\n      and\n      sub\n        /* \"chestNft.sol\":4339:4408  if (owner == address(0)) _revert(BalanceQueryForZeroAddress.selector) */\n      tag_234\n      jumpi\n        /* \"chestNft.sol\":4364:4408  _revert(BalanceQueryForZeroAddress.selector) */\n      tag_235\n        /* \"chestNft.sol\":4372:4407  BalanceQueryForZeroAddress.selector */\n      shl(0xe0, 0x8f4eb604)\n        /* \"chestNft.sol\":4364:4371  _revert */\n      tag_168\n        /* \"chestNft.sol\":4364:4408  _revert(BalanceQueryForZeroAddress.selector) */\n      jump\t// in\n    tag_235:\n        /* \"chestNft.sol\":4339:4408  if (owner == address(0)) _revert(BalanceQueryForZeroAddress.selector) */\n    tag_234:\n        /* \"chestNft.sol\":516:529  (1 << 64) - 1 */\n      0xffffffffffffffff\n        /* \"chestNft.sol\":4426:4444  _packedAddressData */\n      0x0c\n        /* \"chestNft.sol\":4426:4451  _packedAddressData[owner] */\n      0x00\n        /* \"chestNft.sol\":4445:4450  owner */\n      dup5\n        /* \"chestNft.sol\":4426:4451  _packedAddressData[owner] */\n      0xffffffffffffffffffffffffffffffffffffffff\n      and\n      0xffffffffffffffffffffffffffffffffffffffff\n      and\n      dup2\n      mstore\n      0x20\n      add\n      swap1\n      dup2\n      mstore\n      0x20\n      add\n      0x00\n      keccak256\n      sload\n        /* \"chestNft.sol\":4426:4481  _packedAddressData[owner] & _BITMASK_ADDRESS_DATA_ENTRY */\n      and\n        /* \"chestNft.sol\":4419:4481  return _packedAddressData[owner] & _BITMASK_ADDRESS_DATA_ENTRY */\n      swap1\n      pop\n        /* \"chestNft.sol\":4247:4489  function balanceOf(address owner) public view virtual override returns (uint256) {... */\n      swap2\n      swap1\n      pop\n      jump\t// out\n        /* \"@openzeppelin/contracts/access/Ownable.sol\":1831:1932  function renounceOwnership() public virtual onlyOwner {... */\n    tag_103:\n        /* \"@openzeppelin/contracts/access/Ownable.sol\":1094:1107  _checkOwner() */\n      tag_237\n        /* \"@openzeppelin/contracts/access/Ownable.sol\":1094:1105  _checkOwner */\n      tag_174\n        /* \"@openzeppelin/contracts/access/Ownable.sol\":1094:1107  _checkOwner() */\n      jump\t// in\n    tag_237:\n        /* \"@openzeppelin/contracts/access/Ownable.sol\":1895:1925  _transferOwnership(address(0)) */\n      tag_239\n        /* \"@openzeppelin/contracts/access/Ownable.sol\":1922:1923  0 */\n      0x00\n        /* \"@openzeppelin/contracts/access/Ownable.sol\":1895:1913  _transferOwnership */\n      tag_240\n        /* \"@openzeppelin/contracts/access/Ownable.sol\":1895:1925  _transferOwnership(address(0)) */\n      jump\t// in\n    tag_239:\n        /* \"@openzeppelin/contracts/access/Ownable.sol\":1831:1932  function renounceOwnership() public virtual onlyOwner {... */\n      jump\t// out\n        /* \"@openzeppelin/contracts/access/Ownable.sol\":1201:1286  function owner() public view virtual returns (address) {... */\n    tag_106:\n        /* \"@openzeppelin/contracts/access/Ownable.sol\":1247:1254  address */\n      0x00\n        /* \"@openzeppelin/contracts/access/Ownable.sol\":1273:1279  _owner */\n      dup1\n      0x00\n      swap1\n      sload\n      swap1\n      0x0100\n      exp\n      swap1\n      div\n      0xffffffffffffffffffffffffffffffffffffffff\n      and\n        /* \"@openzeppelin/contracts/access/Ownable.sol\":1266:1279  return _owner */\n      swap1\n      pop\n        /* \"@openzeppelin/contracts/access/Ownable.sol\":1201:1286  function owner() public view virtual returns (address) {... */\n      swap1\n      jump\t// out\n        /* \"chestNft.sol\":5944:6048  function symbol() public view virtual override returns (string memory) {... */\n    tag_110:\n        /* \"chestNft.sol\":6000:6013  string memory */\n      0x60\n        /* \"chestNft.sol\":6033:6040  _symbol */\n      0x04\n        /* \"chestNft.sol\":6026:6040  return _symbol */\n      dup1\n      sload\n      tag_243\n      swap1\n      tag_158\n      jump\t// in\n    tag_243:\n      dup1\n      0x1f\n      add\n      0x20\n      dup1\n      swap2\n      div\n      mul\n      0x20\n      add\n      mload(0x40)\n      swap1\n      dup2\n      add\n      0x40\n      mstore\n      dup1\n      swap3\n      swap2\n      swap1\n      dup2\n      dup2\n      mstore\n      0x20\n      add\n      dup3\n      dup1\n      sload\n      tag_244\n      swap1\n      tag_158\n      jump\t// in\n    tag_244:\n      dup1\n      iszero\n      tag_245\n      jumpi\n      dup1\n      0x1f\n      lt\n      tag_246\n      jumpi\n      0x0100\n      dup1\n      dup4\n      sload\n      div\n      mul\n      dup4\n      mstore\n      swap2\n      0x20\n      add\n      swap2\n      jump(tag_245)\n    tag_246:\n      dup3\n      add\n      swap2\n      swap1\n      0x00\n      mstore\n      keccak256(0x00, 0x20)\n      swap1\n    tag_247:\n      dup2\n      sload\n      dup2\n      mstore\n      swap1\n      0x01\n      add\n      swap1\n      0x20\n      add\n      dup1\n      dup4\n      gt\n      tag_247\n      jumpi\n      dup3\n      swap1\n      sub\n      0x1f\n      and\n      dup3\n      add\n      swap2\n    tag_245:\n      pop\n      pop\n      pop\n      pop\n      pop\n      swap1\n      pop\n        /* \"chestNft.sol\":5944:6048  function symbol() public view virtual override returns (string memory) {... */\n      swap1\n      jump\t// out\n        /* \"chestNft.sol\":11602:11836  function setApprovalForAll(address operator, bool approved) public virtual override {... */\n    tag_116:\n        /* \"chestNft.sol\":11749:11757  approved */\n      dup1\n        /* \"chestNft.sol\":11697:11715  _operatorApprovals */\n      0x0e\n        /* \"chestNft.sol\":11697:11736  _operatorApprovals[_msgSenderERC721A()] */\n      0x00\n        /* \"chestNft.sol\":11716:11735  _msgSenderERC721A() */\n      tag_249\n        /* \"chestNft.sol\":11716:11733  _msgSenderERC721A */\n      tag_190\n        /* \"chestNft.sol\":11716:11735  _msgSenderERC721A() */\n      jump\t// in\n    tag_249:\n        /* \"chestNft.sol\":11697:11736  _operatorApprovals[_msgSenderERC721A()] */\n      0xffffffffffffffffffffffffffffffffffffffff\n      and\n      0xffffffffffffffffffffffffffffffffffffffff\n      and\n      dup2\n      mstore\n      0x20\n      add\n      swap1\n      dup2\n      mstore\n      0x20\n      add\n      0x00\n      keccak256\n        /* \"chestNft.sol\":11697:11746  _operatorApprovals[_msgSenderERC721A()][operator] */\n      0x00\n        /* \"chestNft.sol\":11737:11745  operator */\n      dup5\n        /* \"chestNft.sol\":11697:11746  _operatorApprovals[_msgSenderERC721A()][operator] */\n      0xffffffffffffffffffffffffffffffffffffffff\n      and\n      0xffffffffffffffffffffffffffffffffffffffff\n      and\n      dup2\n      mstore\n      0x20\n      add\n      swap1\n      dup2\n      mstore\n      0x20\n      add\n      0x00\n      keccak256\n      0x00\n        /* \"chestNft.sol\":11697:11757  _operatorApprovals[_msgSenderERC721A()][operator] = approved */\n      0x0100\n      exp\n      dup2\n      sload\n      dup2\n      0xff\n      mul\n      not\n      and\n      swap1\n      dup4\n      iszero\n      iszero\n      mul\n      or\n      swap1\n      sstore\n      pop\n        /* \"chestNft.sol\":11809:11817  operator */\n      dup2\n        /* \"chestNft.sol\":11773:11828  ApprovalForAll(_msgSenderERC721A(), operator, approved) */\n      0xffffffffffffffffffffffffffffffffffffffff\n      and\n        /* \"chestNft.sol\":11788:11807  _msgSenderERC721A() */\n      tag_250\n        /* \"chestNft.sol\":11788:11805  _msgSenderERC721A */\n      tag_190\n        /* \"chestNft.sol\":11788:11807  _msgSenderERC721A() */\n      jump\t// in\n    tag_250:\n        /* \"chestNft.sol\":11773:11828  ApprovalForAll(_msgSenderERC721A(), operator, approved) */\n      0xffffffffffffffffffffffffffffffffffffffff\n      and\n      0x17307eab39ab6107e8899845ad3d59bd9653f200f220920489ca2b5937696c31\n        /* \"chestNft.sol\":11819:11827  approved */\n      dup4\n        /* \"chestNft.sol\":11773:11828  ApprovalForAll(_msgSenderERC721A(), operator, approved) */\n      mload(0x40)\n      tag_251\n      swap2\n      swap1\n      tag_39\n      jump\t// in\n    tag_251:\n      mload(0x40)\n      dup1\n      swap2\n      sub\n      swap1\n      log3\n        /* \"chestNft.sol\":11602:11836  function setApprovalForAll(address operator, bool approved) public virtual override {... */\n      pop\n      pop\n      jump\t// out\n        /* \"chestNft.sol\":7011:7143  function setapprovedcontractaddress(address add)external {... */\n    tag_120:\n        /* \"chestNft.sol\":7122:7126  true */\n      0x01\n        /* \"chestNft.sol\":7088:7115  onlyapprovedcontractaddress */\n      0x09\n        /* \"chestNft.sol\":7088:7120  onlyapprovedcontractaddress[add] */\n      0x00\n        /* \"chestNft.sol\":7116:7119  add */\n      dup4\n        /* \"chestNft.sol\":7088:7120  onlyapprovedcontractaddress[add] */\n      0xffffffffffffffffffffffffffffffffffffffff\n      and\n      0xffffffffffffffffffffffffffffffffffffffff\n      and\n      dup2\n      mstore\n      0x20\n      add\n      swap1\n      dup2\n      mstore\n      0x20\n      add\n      0x00\n      keccak256\n      0x00\n        /* \"chestNft.sol\":7088:7126  onlyapprovedcontractaddress[add] =true */\n      0x0100\n      exp\n      dup2\n      sload\n      dup2\n      0xff\n      mul\n      not\n      and\n      swap1\n      dup4\n      iszero\n      iszero\n      mul\n      or\n      swap1\n      sstore\n      pop\n        /* \"chestNft.sol\":7011:7143  function setapprovedcontractaddress(address add)external {... */\n      pop\n      jump\t// out\n        /* \"chestNft.sol\":16939:17355  function safeTransferFrom(... */\n    tag_124:\n        /* \"chestNft.sol\":17114:17145  transferFrom(from, to, tokenId) */\n      tag_254\n        /* \"chestNft.sol\":17127:17131  from */\n      dup5\n        /* \"chestNft.sol\":17133:17135  to */\n      dup5\n        /* \"chestNft.sol\":17137:17144  tokenId */\n      dup5\n        /* \"chestNft.sol\":17114:17126  transferFrom */\n      tag_69\n        /* \"chestNft.sol\":17114:17145  transferFrom(from, to, tokenId) */\n      jump\t// in\n    tag_254:\n        /* \"chestNft.sol\":17178:17179  0 */\n      0x00\n        /* \"chestNft.sol\":17160:17162  to */\n      dup4\n        /* \"chestNft.sol\":17160:17174  to.code.length */\n      0xffffffffffffffffffffffffffffffffffffffff\n      and\n      extcodesize\n        /* \"chestNft.sol\":17160:17179  to.code.length != 0 */\n      eq\n        /* \"chestNft.sol\":17156:17348  if (to.code.length != 0)... */\n      tag_255\n      jumpi\n        /* \"chestNft.sol\":17199:17255  _checkContractOnERC721Received(from, to, tokenId, _data) */\n      tag_256\n        /* \"chestNft.sol\":17230:17234  from */\n      dup5\n        /* \"chestNft.sol\":17236:17238  to */\n      dup5\n        /* \"chestNft.sol\":17240:17247  tokenId */\n      dup5\n        /* \"chestNft.sol\":17249:17254  _data */\n      dup5\n        /* \"chestNft.sol\":17199:17229  _checkContractOnERC721Received */\n      tag_257\n        /* \"chestNft.sol\":17199:17255  _checkContractOnERC721Received(from, to, tokenId, _data) */\n      jump\t// in\n    tag_256:\n        /* \"chestNft.sol\":17194:17348  if (!_checkContractOnERC721Received(from, to, tokenId, _data)) {... */\n      tag_258\n      jumpi\n        /* \"chestNft.sol\":17276:17332  _revert(TransferToNonERC721ReceiverImplementer.selector) */\n      tag_259\n        /* \"chestNft.sol\":17284:17331  TransferToNonERC721ReceiverImplementer.selector */\n      shl(0xe0, 0xd1a57ed6)\n        /* \"chestNft.sol\":17276:17283  _revert */\n      tag_168\n        /* \"chestNft.sol\":17276:17332  _revert(TransferToNonERC721ReceiverImplementer.selector) */\n      jump\t// in\n    tag_259:\n        /* \"chestNft.sol\":17194:17348  if (!_checkContractOnERC721Received(from, to, tokenId, _data)) {... */\n    tag_258:\n        /* \"chestNft.sol\":17156:17348  if (to.code.length != 0)... */\n    tag_255:\n        /* \"chestNft.sol\":16939:17355  function safeTransferFrom(... */\n      pop\n      pop\n      pop\n      pop\n      jump\t// out\n        /* \"chestNft.sol\":6062:6399  function tokenURI(uint256 tokenId) public view virtual override returns (string memory) {... */\n    tag_128:\n        /* \"chestNft.sol\":6135:6148  string memory */\n      0x60\n        /* \"chestNft.sol\":6166:6182  _exists(tokenId) */\n      tag_261\n        /* \"chestNft.sol\":6174:6181  tokenId */\n      dup3\n        /* \"chestNft.sol\":6166:6173  _exists */\n      tag_165\n        /* \"chestNft.sol\":6166:6182  _exists(tokenId) */\n      jump\t// in\n    tag_261:\n        /* \"chestNft.sol\":6161:6229  if (!_exists(tokenId)) _revert(URIQueryForNonexistentToken.selector) */\n      tag_262\n      jumpi\n        /* \"chestNft.sol\":6184:6229  _revert(URIQueryForNonexistentToken.selector) */\n      tag_263\n        /* \"chestNft.sol\":6192:6228  URIQueryForNonexistentToken.selector */\n      shl(0xe0, 0xa14c4b50)\n        /* \"chestNft.sol\":6184:6191  _revert */\n      tag_168\n        /* \"chestNft.sol\":6184:6229  _revert(URIQueryForNonexistentToken.selector) */\n      jump\t// in\n    tag_263:\n        /* \"chestNft.sol\":6161:6229  if (!_exists(tokenId)) _revert(URIQueryForNonexistentToken.selector) */\n    tag_262:\n        /* \"chestNft.sol\":6242:6263  string memory baseURI */\n      0x00\n        /* \"chestNft.sol\":6266:6276  _baseURI() */\n      tag_264\n        /* \"chestNft.sol\":6266:6274  _baseURI */\n      tag_265\n        /* \"chestNft.sol\":6266:6276  _baseURI() */\n      jump\t// in\n    tag_264:\n        /* \"chestNft.sol\":6242:6276  string memory baseURI = _baseURI() */\n      swap1\n      pop\n        /* \"chestNft.sol\":6319:6320  0 */\n      0x00\n        /* \"chestNft.sol\":6300:6307  baseURI */\n      dup2\n        /* \"chestNft.sol\":6294:6315  bytes(baseURI).length */\n      mload\n        /* \"chestNft.sol\":6294:6320  bytes(baseURI).length != 0 */\n      sub\n        /* \"chestNft.sol\":6294:6391  bytes(baseURI).length != 0 ? string(abi.encodePacked(baseURI, _toString(tokenId),uriSuffix)) : '' */\n      tag_266\n      jumpi\n      mload(0x40)\n      dup1\n      0x20\n      add\n      0x40\n      mstore\n      dup1\n      0x00\n      dup2\n      mstore\n      pop\n      jump(tag_267)\n    tag_266:\n        /* \"chestNft.sol\":6347:6354  baseURI */\n      dup1\n        /* \"chestNft.sol\":6356:6374  _toString(tokenId) */\n      tag_268\n        /* \"chestNft.sol\":6366:6373  tokenId */\n      dup5\n        /* \"chestNft.sol\":6356:6365  _toString */\n      tag_269\n        /* \"chestNft.sol\":6356:6374  _toString(tokenId) */\n      jump\t// in\n    tag_268:\n        /* \"chestNft.sol\":6375:6384  uriSuffix */\n      0x06\n        /* \"chestNft.sol\":6330:6385  abi.encodePacked(baseURI, _toString(tokenId),uriSuffix) */\n      add(0x20, mload(0x40))\n      tag_270\n      swap4\n      swap3\n      swap2\n      swap1\n      tag_271\n      jump\t// in\n    tag_270:\n      mload(0x40)\n      0x20\n      dup2\n      dup4\n      sub\n      sub\n      dup2\n      mstore\n      swap1\n      0x40\n      mstore\n        /* \"chestNft.sol\":6294:6391  bytes(baseURI).length != 0 ? string(abi.encodePacked(baseURI, _toString(tokenId),uriSuffix)) : '' */\n    tag_267:\n        /* \"chestNft.sol\":6287:6391  return bytes(baseURI).length != 0 ? string(abi.encodePacked(baseURI, _toString(tokenId),uriSuffix)) : '' */\n      swap2\n      pop\n      pop\n        /* \"chestNft.sol\":6062:6399  function tokenURI(uint256 tokenId) public view virtual override returns (string memory) {... */\n      swap2\n      swap1\n      pop\n      jump\t// out\n        /* \"chestNft.sol\":7410:7653  function redeemPhysicalItem(uint  nftId)public {... */\n    tag_133:\n        /* \"chestNft.sol\":7492:7502  msg.sender */\n      caller\n        /* \"chestNft.sol\":7476:7502  ownerOf(nftId)==msg.sender */\n      0xffffffffffffffffffffffffffffffffffffffff\n      and\n        /* \"chestNft.sol\":7476:7490  ownerOf(nftId) */\n      tag_273\n        /* \"chestNft.sol\":7484:7489  nftId */\n      dup3\n        /* \"chestNft.sol\":7476:7483  ownerOf */\n      tag_93\n        /* \"chestNft.sol\":7476:7490  ownerOf(nftId) */\n      jump\t// in\n    tag_273:\n        /* \"chestNft.sol\":7476:7502  ownerOf(nftId)==msg.sender */\n      0xffffffffffffffffffffffffffffffffffffffff\n      and\n      eq\n        /* \"chestNft.sol\":7468:7503  require(ownerOf(nftId)==msg.sender) */\n      tag_274\n      jumpi\n      0x00\n      dup1\n      revert\n    tag_274:\n        /* \"chestNft.sol\":7560:7564  true */\n      0x01\n        /* \"chestNft.sol\":7514:7540  _checkredemmedphysicalitem */\n      0x0a\n        /* \"chestNft.sol\":7514:7552  _checkredemmedphysicalitem[msg.sender] */\n      0x00\n        /* \"chestNft.sol\":7541:7551  msg.sender */\n      caller\n        /* \"chestNft.sol\":7514:7552  _checkredemmedphysicalitem[msg.sender] */\n      0xffffffffffffffffffffffffffffffffffffffff\n      and\n      0xffffffffffffffffffffffffffffffffffffffff\n      and\n      dup2\n      mstore\n      0x20\n      add\n      swap1\n      dup2\n      mstore\n      0x20\n      add\n      0x00\n      keccak256\n        /* \"chestNft.sol\":7514:7559  _checkredemmedphysicalitem[msg.sender][nftId] */\n      0x00\n        /* \"chestNft.sol\":7553:7558  nftId */\n      dup4\n        /* \"chestNft.sol\":7514:7559  _checkredemmedphysicalitem[msg.sender][nftId] */\n      dup2\n      mstore\n      0x20\n      add\n      swap1\n      dup2\n      mstore\n      0x20\n      add\n      0x00\n      keccak256\n      0x00\n        /* \"chestNft.sol\":7514:7564  _checkredemmedphysicalitem[msg.sender][nftId]=true */\n      0x0100\n      exp\n      dup2\n      sload\n      dup2\n      0xff\n      mul\n      not\n      and\n      swap1\n      dup4\n      iszero\n      iszero\n      mul\n      or\n      swap1\n      sstore\n      pop\n        /* \"chestNft.sol\":7577:7589  nftsredeemed */\n      0x07\n        /* \"chestNft.sol\":7577:7601  nftsredeemed[msg.sender] */\n      0x00\n        /* \"chestNft.sol\":7590:7600  msg.sender */\n      caller\n        /* \"chestNft.sol\":7577:7601  nftsredeemed[msg.sender] */\n      0xffffffffffffffffffffffffffffffffffffffff\n      and\n      0xffffffffffffffffffffffffffffffffffffffff\n      and\n      dup2\n      mstore\n      0x20\n      add\n      swap1\n      dup2\n      mstore\n      0x20\n      add\n      0x00\n      keccak256\n        /* \"chestNft.sol\":7607:7612  nftId */\n      dup2\n        /* \"chestNft.sol\":7577:7613  nftsredeemed[msg.sender].push(nftId) */\n      swap1\n      dup1\n      0x01\n      dup2\n      sload\n      add\n      dup1\n      dup3\n      sstore\n      dup1\n      swap2\n      pop\n      pop\n      0x01\n      swap1\n      sub\n      swap1\n      0x00\n      mstore\n      keccak256(0x00, 0x20)\n      add\n      0x00\n      swap1\n      swap2\n      swap1\n      swap2\n      swap1\n      swap2\n      pop\n      sstore\n        /* \"chestNft.sol\":7631:7643  _burn(nftId) */\n      tag_276\n        /* \"chestNft.sol\":7637:7642  nftId */\n      dup2\n        /* \"chestNft.sol\":7631:7636  _burn */\n      tag_277\n        /* \"chestNft.sol\":7631:7643  _burn(nftId) */\n      jump\t// in\n    tag_276:\n        /* \"chestNft.sol\":7410:7653  function redeemPhysicalItem(uint  nftId)public {... */\n      pop\n      jump\t// out\n        /* \"chestNft.sol\":11849:12013  function isApprovedForAll(address owner, address operator) public view virtual override returns (bool) {... */\n    tag_138:\n        /* \"chestNft.sol\":11946:11950  bool */\n      0x00\n        /* \"chestNft.sol\":11970:11988  _operatorApprovals */\n      0x0e\n        /* \"chestNft.sol\":11970:11995  _operatorApprovals[owner] */\n      0x00\n        /* \"chestNft.sol\":11989:11994  owner */\n      dup5\n        /* \"chestNft.sol\":11970:11995  _operatorApprovals[owner] */\n      0xffffffffffffffffffffffffffffffffffffffff\n      and\n      0xffffffffffffffffffffffffffffffffffffffff\n      and\n      dup2\n      mstore\n      0x20\n      add\n      swap1\n      dup2\n      mstore\n      0x20\n      add\n      0x00\n      keccak256\n        /* \"chestNft.sol\":11970:12005  _operatorApprovals[owner][operator] */\n      0x00\n        /* \"chestNft.sol\":11996:12004  operator */\n      dup4\n        /* \"chestNft.sol\":11970:12005  _operatorApprovals[owner][operator] */\n      0xffffffffffffffffffffffffffffffffffffffff\n      and\n      0xffffffffffffffffffffffffffffffffffffffff\n      and\n      dup2\n      mstore\n      0x20\n      add\n      swap1\n      dup2\n      mstore\n      0x20\n      add\n      0x00\n      keccak256\n      0x00\n      swap1\n      sload\n      swap1\n      0x0100\n      exp\n      swap1\n      div\n      0xff\n      and\n        /* \"chestNft.sol\":11963:12005  return _operatorApprovals[owner][operator] */\n      swap1\n      pop\n        /* \"chestNft.sol\":11849:12013  function isApprovedForAll(address owner, address operator) public view virtual override returns (bool) {... */\n      swap3\n      swap2\n      pop\n      pop\n      jump\t// out\n        /* \"chestNft.sol\":7661:7805  function  checkredemmedphysicalitem(uint nftId)public view returns(bool){... */\n    tag_143:\n        /* \"chestNft.sol\":7728:7732  bool */\n      0x00\n        /* \"chestNft.sol\":7752:7778  _checkredemmedphysicalitem */\n      0x0a\n        /* \"chestNft.sol\":7752:7790  _checkredemmedphysicalitem[msg.sender] */\n      0x00\n        /* \"chestNft.sol\":7779:7789  msg.sender */\n      caller\n        /* \"chestNft.sol\":7752:7790  _checkredemmedphysicalitem[msg.sender] */\n      0xffffffffffffffffffffffffffffffffffffffff\n      and\n      0xffffffffffffffffffffffffffffffffffffffff\n      and\n      dup2\n      mstore\n      0x20\n      add\n      swap1\n      dup2\n      mstore\n      0x20\n      add\n      0x00\n      keccak256\n        /* \"chestNft.sol\":7752:7797  _checkredemmedphysicalitem[msg.sender][nftId] */\n      0x00\n        /* \"chestNft.sol\":7791:7796  nftId */\n      dup4\n        /* \"chestNft.sol\":7752:7797  _checkredemmedphysicalitem[msg.sender][nftId] */\n      dup2\n      mstore\n      0x20\n      add\n      swap1\n      dup2\n      mstore\n      0x20\n      add\n      0x00\n      keccak256\n      0x00\n      swap1\n      sload\n      swap1\n      0x0100\n      exp\n      swap1\n      div\n      0xff\n      and\n        /* \"chestNft.sol\":7745:7797  return _checkredemmedphysicalitem[msg.sender][nftId] */\n      swap1\n      pop\n        /* \"chestNft.sol\":7661:7805  function  checkredemmedphysicalitem(uint nftId)public view returns(bool){... */\n      swap2\n      swap1\n      pop\n      jump\t// out\n        /* \"chestNft.sol\":2471:2493  string public baseURI_ */\n    tag_147:\n      0x05\n      dup1\n      sload\n      tag_280\n      swap1\n      tag_158\n      jump\t// in\n    tag_280:\n      dup1\n      0x1f\n      add\n      0x20\n      dup1\n      swap2\n      div\n      mul\n      0x20\n      add\n      mload(0x40)\n      swap1\n      dup2\n      add\n      0x40\n      mstore\n      dup1\n      swap3\n      swap2\n      swap1\n      dup2\n      dup2\n      mstore\n      0x20\n      add\n      dup3\n      dup1\n      sload\n      tag_281\n      swap1\n      tag_158\n      jump\t// in\n    tag_281:\n      dup1\n      iszero\n      tag_282\n      jumpi\n      dup1\n      0x1f\n      lt\n      tag_283\n      jumpi\n      0x0100\n      dup1\n      dup4\n      sload\n      div\n      mul\n      dup4\n      mstore\n      swap2\n      0x20\n      add\n      swap2\n      jump(tag_282)\n    tag_283:\n      dup3\n      add\n      swap2\n      swap1\n      0x00\n      mstore\n      keccak256(0x00, 0x20)\n      swap1\n    tag_284:\n      dup2\n      sload\n      dup2\n      mstore\n      swap1\n      0x01\n      add\n      swap1\n      0x20\n      add\n      dup1\n      dup4\n      gt\n      tag_284\n      jumpi\n      dup3\n      swap1\n      sub\n      0x1f\n      and\n      dup3\n      add\n      swap2\n    tag_282:\n      pop\n      pop\n      pop\n      pop\n      pop\n      dup2\n      jump\t// out\n        /* \"@openzeppelin/contracts/access/Ownable.sol\":2081:2279  function transferOwnership(address newOwner) public virtual onlyOwner {... */\n    tag_152:\n        /* \"@openzeppelin/contracts/access/Ownable.sol\":1094:1107  _checkOwner() */\n      tag_286\n        /* \"@openzeppelin/contracts/access/Ownable.sol\":1094:1105  _checkOwner */\n      tag_174\n        /* \"@openzeppelin/contracts/access/Ownable.sol\":1094:1107  _checkOwner() */\n      jump\t// in\n    tag_286:\n        /* \"@openzeppelin/contracts/access/Ownable.sol\":2189:2190  0 */\n      0x00\n        /* \"@openzeppelin/contracts/access/Ownable.sol\":2169:2191  newOwner != address(0) */\n      0xffffffffffffffffffffffffffffffffffffffff\n      and\n        /* \"@openzeppelin/contracts/access/Ownable.sol\":2169:2177  newOwner */\n      dup2\n        /* \"@openzeppelin/contracts/access/Ownable.sol\":2169:2191  newOwner != address(0) */\n      0xffffffffffffffffffffffffffffffffffffffff\n      and\n      sub\n        /* \"@openzeppelin/contracts/access/Ownable.sol\":2161:2234  require(newOwner != address(0), \"Ownable: new owner is the zero address\") */\n      tag_288\n      jumpi\n      mload(0x40)\n      0x08c379a000000000000000000000000000000000000000000000000000000000\n      dup2\n      mstore\n      0x04\n      add\n      tag_289\n      swap1\n      tag_290\n      jump\t// in\n    tag_289:\n      mload(0x40)\n      dup1\n      swap2\n      sub\n      swap1\n      revert\n    tag_288:\n        /* \"@openzeppelin/contracts/access/Ownable.sol\":2244:2272  _transferOwnership(newOwner) */\n      tag_291\n        /* \"@openzeppelin/contracts/access/Ownable.sol\":2263:2271  newOwner */\n      dup2\n        /* \"@openzeppelin/contracts/access/Ownable.sol\":2244:2262  _transferOwnership */\n      tag_240\n        /* \"@openzeppelin/contracts/access/Ownable.sol\":2244:2272  _transferOwnership(newOwner) */\n      jump\t// in\n    tag_291:\n        /* \"@openzeppelin/contracts/access/Ownable.sol\":2081:2279  function transferOwnership(address newOwner) public virtual onlyOwner {... */\n      pop\n      jump\t// out\n        /* \"chestNft.sol\":12026:12394  function _exists(uint256 tokenId) internal view virtual returns (bool result) {... */\n    tag_165:\n        /* \"chestNft.sol\":12091:12102  bool result */\n      0x00\n        /* \"chestNft.sol\":12138:12145  tokenId */\n      dup2\n        /* \"chestNft.sol\":12119:12134  _startTokenId() */\n      tag_293\n        /* \"chestNft.sol\":12119:12132  _startTokenId */\n      tag_180\n        /* \"chestNft.sol\":12119:12134  _startTokenId() */\n      jump\t// in\n    tag_293:\n        /* \"chestNft.sol\":12119:12145  _startTokenId() <= tokenId */\n      gt\n        /* \"chestNft.sol\":12115:12387  if (_startTokenId() <= tokenId) {... */\n      tag_294\n      jumpi\n        /* \"chestNft.sol\":12176:12189  _currentIndex */\n      sload(0x01)\n        /* \"chestNft.sol\":12166:12173  tokenId */\n      dup3\n        /* \"chestNft.sol\":12166:12189  tokenId < _currentIndex */\n      lt\n        /* \"chestNft.sol\":12162:12376  if (tokenId < _currentIndex) {... */\n      iszero\n      tag_295\n      jumpi\n        /* \"chestNft.sol\":12210:12224  uint256 packed */\n      0x00\n        /* \"chestNft.sol\":12243:12303  while ((packed = _packedOwnerships[tokenId]) == 0) --tokenId */\n    tag_296:\n        /* \"chestNft.sol\":12291:12292  0 */\n      0x00\n        /* \"chestNft.sol\":12260:12277  _packedOwnerships */\n      0x0b\n        /* \"chestNft.sol\":12260:12286  _packedOwnerships[tokenId] */\n      0x00\n        /* \"chestNft.sol\":12278:12285  tokenId */\n      dup6\n        /* \"chestNft.sol\":12260:12286  _packedOwnerships[tokenId] */\n      dup2\n      mstore\n      0x20\n      add\n      swap1\n      dup2\n      mstore\n      0x20\n      add\n      0x00\n      keccak256\n      sload\n        /* \"chestNft.sol\":12251:12286  packed = _packedOwnerships[tokenId] */\n      swap2\n      pop\n      dup2\n        /* \"chestNft.sol\":12250:12292  (packed = _packedOwnerships[tokenId]) == 0 */\n      sub\n        /* \"chestNft.sol\":12243:12303  while ((packed = _packedOwnerships[tokenId]) == 0) --tokenId */\n      tag_297\n      jumpi\n        /* \"chestNft.sol\":12294:12303  --tokenId */\n      dup3\n      tag_298\n      swap1\n      tag_299\n      jump\t// in\n    tag_298:\n      swap3\n      pop\n        /* \"chestNft.sol\":12243:12303  while ((packed = _packedOwnerships[tokenId]) == 0) --tokenId */\n      jump(tag_296)\n    tag_297:\n        /* \"chestNft.sol\":12359:12360  0 */\n      0x00\n        /* \"chestNft.sol\":1292:1300  1 << 224 */\n      0x0100000000000000000000000000000000000000000000000000000000\n        /* \"chestNft.sol\":12331:12337  packed */\n      dup3\n        /* \"chestNft.sol\":12331:12355  packed & _BITMASK_BURNED */\n      and\n        /* \"chestNft.sol\":12331:12360  packed & _BITMASK_BURNED == 0 */\n      eq\n        /* \"chestNft.sol\":12322:12360  result = packed & _BITMASK_BURNED == 0 */\n      swap2\n      pop\n        /* \"chestNft.sol\":12191:12376  {... */\n      pop\n        /* \"chestNft.sol\":12162:12376  if (tokenId < _currentIndex) {... */\n    tag_295:\n        /* \"chestNft.sol\":12115:12387  if (_startTokenId() <= tokenId) {... */\n    tag_294:\n        /* \"chestNft.sol\":12026:12394  function _exists(uint256 tokenId) internal view virtual returns (bool result) {... */\n      swap2\n      swap1\n      pop\n      jump\t// out\n        /* \"chestNft.sol\":29572:29737  function _revert(bytes4 errorSelector) internal pure {... */\n    tag_168:\n        /* \"chestNft.sol\":29673:29686  errorSelector */\n      dup1\n        /* \"chestNft.sol\":29667:29671  0x00 */\n      0x00\n        /* \"chestNft.sol\":29660:29687  mstore(0x00, errorSelector) */\n      mstore\n        /* \"chestNft.sol\":29714:29718  0x04 */\n      0x04\n        /* \"chestNft.sol\":29708:29712  0x00 */\n      0x00\n        /* \"chestNft.sol\":29701:29719  revert(0x00, 0x04) */\n      revert\n        /* \"chestNft.sol\":23071:23545  function _approve(... */\n    tag_171:\n        /* \"chestNft.sol\":23200:23213  address owner */\n      0x00\n        /* \"chestNft.sol\":23216:23232  ownerOf(tokenId) */\n      tag_302\n        /* \"chestNft.sol\":23224:23231  tokenId */\n      dup4\n        /* \"chestNft.sol\":23216:23223  ownerOf */\n      tag_93\n        /* \"chestNft.sol\":23216:23232  ownerOf(tokenId) */\n      jump\t// in\n    tag_302:\n        /* \"chestNft.sol\":23200:23232  address owner = ownerOf(tokenId) */\n      swap1\n      pop\n        /* \"chestNft.sol\":23249:23262  approvalCheck */\n      dup2\n        /* \"chestNft.sol\":23249:23294  approvalCheck && _msgSenderERC721A() != owner */\n      dup1\n      iszero\n      tag_303\n      jumpi\n      pop\n        /* \"chestNft.sol\":23289:23294  owner */\n      dup1\n        /* \"chestNft.sol\":23266:23294  _msgSenderERC721A() != owner */\n      0xffffffffffffffffffffffffffffffffffffffff\n      and\n        /* \"chestNft.sol\":23266:23285  _msgSenderERC721A() */\n      tag_304\n        /* \"chestNft.sol\":23266:23283  _msgSenderERC721A */\n      tag_190\n        /* \"chestNft.sol\":23266:23285  _msgSenderERC721A() */\n      jump\t// in\n    tag_304:\n        /* \"chestNft.sol\":23266:23294  _msgSenderERC721A() != owner */\n      0xffffffffffffffffffffffffffffffffffffffff\n      and\n      eq\n      iszero\n        /* \"chestNft.sol\":23249:23294  approvalCheck && _msgSenderERC721A() != owner */\n    tag_303:\n        /* \"chestNft.sol\":23245:23446  if (approvalCheck && _msgSenderERC721A() != owner)... */\n      iszero\n      tag_305\n      jumpi\n        /* \"chestNft.sol\":23314:23358  isApprovedForAll(owner, _msgSenderERC721A()) */\n      tag_306\n        /* \"chestNft.sol\":23331:23336  owner */\n      dup2\n        /* \"chestNft.sol\":23338:23357  _msgSenderERC721A() */\n      tag_307\n        /* \"chestNft.sol\":23338:23355  _msgSenderERC721A */\n      tag_190\n        /* \"chestNft.sol\":23338:23357  _msgSenderERC721A() */\n      jump\t// in\n    tag_307:\n        /* \"chestNft.sol\":23314:23330  isApprovedForAll */\n      tag_138\n        /* \"chestNft.sol\":23314:23358  isApprovedForAll(owner, _msgSenderERC721A()) */\n      jump\t// in\n    tag_306:\n        /* \"chestNft.sol\":23309:23446  if (!isApprovedForAll(owner, _msgSenderERC721A())) {... */\n      tag_308\n      jumpi\n        /* \"chestNft.sol\":23379:23430  _revert(ApprovalCallerNotOwnerNorApproved.selector) */\n      tag_309\n        /* \"chestNft.sol\":23387:23429  ApprovalCallerNotOwnerNorApproved.selector */\n      shl(0xe0, 0xcfb3b942)\n        /* \"chestNft.sol\":23379:23386  _revert */\n      tag_168\n        /* \"chestNft.sol\":23379:23430  _revert(ApprovalCallerNotOwnerNorApproved.selector) */\n      jump\t// in\n    tag_309:\n        /* \"chestNft.sol\":23309:23446  if (!isApprovedForAll(owner, _msgSenderERC721A())) {... */\n    tag_308:\n        /* \"chestNft.sol\":23245:23446  if (approvalCheck && _msgSenderERC721A() != owner)... */\n    tag_305:\n        /* \"chestNft.sol\":23491:23493  to */\n      dup4\n        /* \"chestNft.sol\":23458:23473  _tokenApprovals */\n      0x0d\n        /* \"chestNft.sol\":23458:23482  _tokenApprovals[tokenId] */\n      0x00\n        /* \"chestNft.sol\":23474:23481  tokenId */\n      dup6\n        /* \"chestNft.sol\":23458:23482  _tokenApprovals[tokenId] */\n      dup2\n      mstore\n      0x20\n      add\n      swap1\n      dup2\n      mstore\n      0x20\n      add\n      0x00\n      keccak256\n        /* \"chestNft.sol\":23458:23488  _tokenApprovals[tokenId].value */\n      0x00\n      add\n      0x00\n        /* \"chestNft.sol\":23458:23493  _tokenApprovals[tokenId].value = to */\n      0x0100\n      exp\n      dup2\n      sload\n      dup2\n      0xffffffffffffffffffffffffffffffffffffffff\n      mul\n      not\n      and\n      swap1\n      dup4\n      0xffffffffffffffffffffffffffffffffffffffff\n      and\n      mul\n      or\n      swap1\n      sstore\n      pop\n        /* \"chestNft.sol\":23529:23536  tokenId */\n      dup3\n        /* \"chestNft.sol\":23525:23527  to */\n      dup5\n        /* \"chestNft.sol\":23509:23537  Approval(owner, to, tokenId) */\n      0xffffffffffffffffffffffffffffffffffffffff\n      and\n        /* \"chestNft.sol\":23518:23523  owner */\n      dup3\n        /* \"chestNft.sol\":23509:23537  Approval(owner, to, tokenId) */\n      0xffffffffffffffffffffffffffffffffffffffff\n      and\n      0x8c5be1e5ebec7d5bd14f71427d1e84f3dd0314c0f7b2291e5b200ac8c7c3b925\n      mload(0x40)\n      mload(0x40)\n      dup1\n      swap2\n      sub\n      swap1\n      log4\n        /* \"chestNft.sol\":23189:23545  {... */\n      pop\n        /* \"chestNft.sol\":23071:23545  function _approve(... */\n      pop\n      pop\n      pop\n      jump\t// out\n        /* \"@openzeppelin/contracts/access/Ownable.sol\":1359:1489  function _checkOwner() internal view virtual {... */\n    tag_174:\n        /* \"@openzeppelin/contracts/access/Ownable.sol\":1433:1445  _msgSender() */\n      tag_311\n        /* \"@openzeppelin/contracts/access/Ownable.sol\":1433:1443  _msgSender */\n      tag_312\n        /* \"@openzeppelin/contracts/access/Ownable.sol\":1433:1445  _msgSender() */\n      jump\t// in\n    tag_311:\n        /* \"@openzeppelin/contracts/access/Ownable.sol\":1422:1445  owner() == _msgSender() */\n      0xffffffffffffffffffffffffffffffffffffffff\n      and\n        /* \"@openzeppelin/contracts/access/Ownable.sol\":1422:1429  owner() */\n      tag_313\n        /* \"@openzeppelin/contracts/access/Ownable.sol\":1422:1427  owner */\n      tag_106\n        /* \"@openzeppelin/contracts/access/Ownable.sol\":1422:1429  owner() */\n      jump\t// in\n    tag_313:\n        /* \"@openzeppelin/contracts/access/Ownable.sol\":1422:1445  owner() == _msgSender() */\n      0xffffffffffffffffffffffffffffffffffffffff\n      and\n      eq\n        /* \"@openzeppelin/contracts/access/Ownable.sol\":1414:1482  require(owner() == _msgSender(), \"Ownable: caller is not the owner\") */\n      tag_314\n      jumpi\n      mload(0x40)\n      0x08c379a000000000000000000000000000000000000000000000000000000000\n      dup2\n      mstore\n      0x04\n      add\n      tag_315\n      swap1\n      tag_316\n      jump\t// in\n    tag_315:\n      mload(0x40)\n      dup1\n      swap2\n      sub\n      swap1\n      revert\n    tag_314:\n        /* \"@openzeppelin/contracts/access/Ownable.sol\":1359:1489  function _checkOwner() internal view virtual {... */\n      jump\t// out\n        /* \"chestNft.sol\":3309:3401  function _startTokenId() internal view virtual returns (uint256) {... */\n    tag_180:\n        /* \"chestNft.sol\":3365:3372  uint256 */\n      0x00\n        /* \"chestNft.sol\":3309:3401  function _startTokenId() internal view virtual returns (uint256) {... */\n      swap1\n      jump\t// out\n        /* \"chestNft.sol\":8833:10029  function _packedOwnershipOf(uint256 tokenId) private view returns (uint256 packed) {... */\n    tag_183:\n        /* \"chestNft.sol\":8900:8914  uint256 packed */\n      0x00\n        /* \"chestNft.sol\":8950:8957  tokenId */\n      dup2\n        /* \"chestNft.sol\":8931:8946  _startTokenId() */\n      tag_319\n        /* \"chestNft.sol\":8931:8944  _startTokenId */\n      tag_180\n        /* \"chestNft.sol\":8931:8946  _startTokenId() */\n      jump\t// in\n    tag_319:\n        /* \"chestNft.sol\":8931:8957  _startTokenId() <= tokenId */\n      gt\n        /* \"chestNft.sol\":8927:9964  if (_startTokenId() <= tokenId) {... */\n      tag_320\n      jumpi\n        /* \"chestNft.sol\":8983:9000  _packedOwnerships */\n      0x0b\n        /* \"chestNft.sol\":8983:9009  _packedOwnerships[tokenId] */\n      0x00\n        /* \"chestNft.sol\":9001:9008  tokenId */\n      dup4\n        /* \"chestNft.sol\":8983:9009  _packedOwnerships[tokenId] */\n      dup2\n      mstore\n      0x20\n      add\n      swap1\n      dup2\n      mstore\n      0x20\n      add\n      0x00\n      keccak256\n      sload\n        /* \"chestNft.sol\":8974:9009  packed = _packedOwnerships[tokenId] */\n      swap1\n      pop\n        /* \"chestNft.sol\":9119:9120  0 */\n      0x00\n        /* \"chestNft.sol\":9109:9115  packed */\n      dup2\n        /* \"chestNft.sol\":9109:9120  packed == 0 */\n      sub\n        /* \"chestNft.sol\":9105:9877  if (packed == 0) {... */\n      tag_321\n      jumpi\n        /* \"chestNft.sol\":9156:9169  _currentIndex */\n      sload(0x01)\n        /* \"chestNft.sol\":9145:9152  tokenId */\n      dup3\n        /* \"chestNft.sol\":9145:9169  tokenId >= _currentIndex */\n      lt\n        /* \"chestNft.sol\":9141:9218  if (tokenId >= _currentIndex) _revert(OwnerQueryForNonexistentToken.selector) */\n      tag_322\n      jumpi\n        /* \"chestNft.sol\":9171:9218  _revert(OwnerQueryForNonexistentToken.selector) */\n      tag_323\n        /* \"chestNft.sol\":9179:9217  OwnerQueryForNonexistentToken.selector */\n      shl(0xe0, 0xdf2d9b42)\n        /* \"chestNft.sol\":9171:9178  _revert */\n      tag_168\n        /* \"chestNft.sol\":9171:9218  _revert(OwnerQueryForNonexistentToken.selector) */\n      jump\t// in\n    tag_323:\n        /* \"chestNft.sol\":9141:9218  if (tokenId >= _currentIndex) _revert(OwnerQueryForNonexistentToken.selector) */\n    tag_322:\n        /* \"chestNft.sol\":9255:9862  for (;;) {... */\n    tag_324:\n        /* \"chestNft.sol\":9333:9350  _packedOwnerships */\n      0x0b\n        /* \"chestNft.sol\":9333:9361  _packedOwnerships[--tokenId] */\n      0x00\n        /* \"chestNft.sol\":9351:9360  --tokenId */\n      dup4\n      0x01\n      swap1\n      sub\n      swap4\n      pop\n      dup4\n        /* \"chestNft.sol\":9333:9361  _packedOwnerships[--tokenId] */\n      dup2\n      mstore\n      0x20\n      add\n      swap1\n      dup2\n      mstore\n      0x20\n      add\n      0x00\n      keccak256\n      sload\n        /* \"chestNft.sol\":9324:9361  packed = _packedOwnerships[--tokenId] */\n      swap1\n      pop\n        /* \"chestNft.sol\":9421:9422  0 */\n      0x00\n        /* \"chestNft.sol\":9411:9417  packed */\n      dup2\n        /* \"chestNft.sol\":9411:9422  packed == 0 */\n      sub\n        /* \"chestNft.sol\":9407:9432  if (packed == 0) continue */\n      iszero\n        /* \"chestNft.sol\":9424:9432  continue */\n      tag_326\n        /* \"chestNft.sol\":9407:9432  if (packed == 0) continue */\n      jumpi\n        /* \"chestNft.sol\":9487:9488  0 */\n      0x00\n        /* \"chestNft.sol\":1292:1300  1 << 224 */\n      0x0100000000000000000000000000000000000000000000000000000000\n        /* \"chestNft.sol\":9459:9465  packed */\n      dup3\n        /* \"chestNft.sol\":9459:9483  packed & _BITMASK_BURNED */\n      and\n        /* \"chestNft.sol\":9459:9488  packed & _BITMASK_BURNED == 0 */\n      sub\n        /* \"chestNft.sol\":9455:9503  if (packed & _BITMASK_BURNED == 0) return packed */\n      iszero\n        /* \"chestNft.sol\":9490:9503  return packed */\n      tag_318\n        /* \"chestNft.sol\":9455:9503  if (packed & _BITMASK_BURNED == 0) return packed */\n      jumpi\n        /* \"chestNft.sol\":9795:9842  _revert(OwnerQueryForNonexistentToken.selector) */\n      tag_329\n        /* \"chestNft.sol\":9803:9841  OwnerQueryForNonexistentToken.selector */\n      shl(0xe0, 0xdf2d9b42)\n        /* \"chestNft.sol\":9795:9802  _revert */\n      tag_168\n        /* \"chestNft.sol\":9795:9842  _revert(OwnerQueryForNonexistentToken.selector) */\n      jump\t// in\n    tag_329:\n        /* \"chestNft.sol\":9255:9862  for (;;) {... */\n    tag_326:\n      jump(tag_324)\n        /* \"chestNft.sol\":9105:9877  if (packed == 0) {... */\n    tag_321:\n        /* \"chestNft.sol\":9936:9937  0 */\n      0x00\n        /* \"chestNft.sol\":1292:1300  1 << 224 */\n      0x0100000000000000000000000000000000000000000000000000000000\n        /* \"chestNft.sol\":9908:9914  packed */\n      dup3\n        /* \"chestNft.sol\":9908:9932  packed & _BITMASK_BURNED */\n      and\n        /* \"chestNft.sol\":9908:9937  packed & _BITMASK_BURNED == 0 */\n      sub\n        /* \"chestNft.sol\":9904:9952  if (packed & _BITMASK_BURNED == 0) return packed */\n      iszero\n        /* \"chestNft.sol\":9939:9952  return packed */\n      tag_318\n        /* \"chestNft.sol\":9904:9952  if (packed & _BITMASK_BURNED == 0) return packed */\n      jumpi\n        /* \"chestNft.sol\":8927:9964  if (_startTokenId() <= tokenId) {... */\n    tag_320:\n        /* \"chestNft.sol\":9974:10021  _revert(OwnerQueryForNonexistentToken.selector) */\n      tag_331\n        /* \"chestNft.sol\":9982:10020  OwnerQueryForNonexistentToken.selector */\n      shl(0xe0, 0xdf2d9b42)\n        /* \"chestNft.sol\":9974:9981  _revert */\n      tag_168\n        /* \"chestNft.sol\":9974:10021  _revert(OwnerQueryForNonexistentToken.selector) */\n      jump\t// in\n    tag_331:\n        /* \"chestNft.sol\":8833:10029  function _packedOwnershipOf(uint256 tokenId) private view returns (uint256 packed) {... */\n    tag_318:\n      swap2\n      swap1\n      pop\n      jump\t// out\n        /* \"chestNft.sol\":13080:13565  function _getApprovedSlotAndAddress(uint256 tokenId)... */\n    tag_187:\n        /* \"chestNft.sol\":13182:13209  uint256 approvedAddressSlot */\n      0x00\n        /* \"chestNft.sol\":13211:13234  address approvedAddress */\n      dup1\n        /* \"chestNft.sol\":13252:13290  TokenApprovalRef storage tokenApproval */\n      0x00\n        /* \"chestNft.sol\":13293:13308  _tokenApprovals */\n      0x0d\n        /* \"chestNft.sol\":13293:13317  _tokenApprovals[tokenId] */\n      0x00\n        /* \"chestNft.sol\":13309:13316  tokenId */\n      dup6\n        /* \"chestNft.sol\":13293:13317  _tokenApprovals[tokenId] */\n      dup2\n      mstore\n      0x20\n      add\n      swap1\n      dup2\n      mstore\n      0x20\n      add\n      0x00\n      keccak256\n        /* \"chestNft.sol\":13252:13317  TokenApprovalRef storage tokenApproval = _tokenApprovals[tokenId] */\n      swap1\n      pop\n        /* \"chestNft.sol\":13470:13488  tokenApproval.slot */\n      dup1\n        /* \"chestNft.sol\":13447:13488  approvedAddressSlot := tokenApproval.slot */\n      swap3\n      pop\n        /* \"chestNft.sol\":13527:13546  approvedAddressSlot */\n      dup3\n        /* \"chestNft.sol\":13521:13547  sload(approvedAddressSlot) */\n      sload\n        /* \"chestNft.sol\":13502:13547  approvedAddress := sload(approvedAddressSlot) */\n      swap2\n      pop\n        /* \"chestNft.sol\":13432:13558  {... */\n      pop\n        /* \"chestNft.sol\":13080:13565  function _getApprovedSlotAndAddress(uint256 tokenId)... */\n      swap2\n      pop\n      swap2\n      jump\t// out\n        /* \"chestNft.sol\":27553:27658  function _msgSenderERC721A() internal view virtual returns (address) {... */\n    tag_190:\n        /* \"chestNft.sol\":27613:27620  address */\n      0x00\n        /* \"chestNft.sol\":27640:27650  msg.sender */\n      caller\n        /* \"chestNft.sol\":27633:27650  return msg.sender */\n      swap1\n      pop\n        /* \"chestNft.sol\":27553:27658  function _msgSenderERC721A() internal view virtual returns (address) {... */\n      swap1\n      jump\t// out\n        /* \"chestNft.sol\":12408:13067  function _isSenderApprovedOrOwner(... */\n    tag_191:\n        /* \"chestNft.sol\":12557:12568  bool result */\n      0x00\n        /* \"chestNft.sol\":12722:12738  _BITMASK_ADDRESS */\n      0xffffffffffffffffffffffffffffffffffffffff\n        /* \"chestNft.sol\":12715:12720  owner */\n      dup4\n        /* \"chestNft.sol\":12711:12739  and(owner, _BITMASK_ADDRESS) */\n      and\n        /* \"chestNft.sol\":12702:12739  owner := and(owner, _BITMASK_ADDRESS) */\n      swap3\n      pop\n        /* \"chestNft.sol\":12882:12898  _BITMASK_ADDRESS */\n      0xffffffffffffffffffffffffffffffffffffffff\n        /* \"chestNft.sol\":12871:12880  msgSender */\n      dup3\n        /* \"chestNft.sol\":12867:12899  and(msgSender, _BITMASK_ADDRESS) */\n      and\n        /* \"chestNft.sol\":12854:12899  msgSender := and(msgSender, _BITMASK_ADDRESS) */\n      swap2\n      pop\n        /* \"chestNft.sol\":13032:13047  approvedAddress */\n      dup4\n        /* \"chestNft.sol\":13021:13030  msgSender */\n      dup3\n        /* \"chestNft.sol\":13018:13048  eq(msgSender, approvedAddress) */\n      eq\n        /* \"chestNft.sol\":13010:13015  owner */\n      dup4\n        /* \"chestNft.sol\":12999:13008  msgSender */\n      dup4\n        /* \"chestNft.sol\":12996:13016  eq(msgSender, owner) */\n      eq\n        /* \"chestNft.sol\":12993:13049  or(eq(msgSender, owner), eq(msgSender, approvedAddress)) */\n      or\n        /* \"chestNft.sol\":12983:13049  result := or(eq(msgSender, owner), eq(msgSender, approvedAddress)) */\n      swap1\n      pop\n        /* \"chestNft.sol\":12408:13067  function _isSenderApprovedOrOwner(... */\n      swap4\n      swap3\n      pop\n      pop\n      pop\n      jump\t// out\n        /* \"chestNft.sol\":17369:17528  function _beforeTokenTransfers(... */\n    tag_198:\n      pop\n      pop\n      pop\n      pop\n      jump\t// out\n        /* \"chestNft.sol\":27228:27539  function _nextExtraData(... */\n    tag_202:\n        /* \"chestNft.sol\":27363:27370  uint256 */\n      0x00\n        /* \"chestNft.sol\":27383:27399  uint24 extraData */\n      dup1\n        /* \"chestNft.sol\":1696:1699  232 */\n      0xe8\n        /* \"chestNft.sol\":27409:27428  prevOwnershipPacked */\n      dup4\n        /* \"chestNft.sol\":27409:27450  prevOwnershipPacked >> _BITPOS_EXTRA_DATA */\n      swap1\n      shr\n        /* \"chestNft.sol\":27383:27451  uint24 extraData = uint24(prevOwnershipPacked >> _BITPOS_EXTRA_DATA) */\n      swap1\n      pop\n        /* \"chestNft.sol\":1696:1699  232 */\n      0xe8\n        /* \"chestNft.sol\":27477:27508  _extraData(from, to, extraData) */\n      tag_337\n        /* \"chestNft.sol\":27488:27492  from */\n      dup7\n        /* \"chestNft.sol\":27494:27496  to */\n      dup7\n        /* \"chestNft.sol\":27498:27507  extraData */\n      dup5\n        /* \"chestNft.sol\":27477:27487  _extraData */\n      tag_338\n        /* \"chestNft.sol\":27477:27508  _extraData(from, to, extraData) */\n      jump\t// in\n    tag_337:\n        /* \"chestNft.sol\":27469:27509  uint256(_extraData(from, to, extraData)) */\n      0xffffff\n      and\n        /* \"chestNft.sol\":27469:27531  uint256(_extraData(from, to, extraData)) << _BITPOS_EXTRA_DATA */\n      swap1\n      shl\n        /* \"chestNft.sol\":27462:27531  return uint256(_extraData(from, to, extraData)) << _BITPOS_EXTRA_DATA */\n      swap2\n      pop\n      pop\n        /* \"chestNft.sol\":27228:27539  function _nextExtraData(... */\n      swap4\n      swap3\n      pop\n      pop\n      pop\n      jump\t// out\n        /* \"chestNft.sol\":10423:10873  function _packOwnershipData(address owner, uint256 flags) private view returns (uint256 result) {... */\n    tag_203:\n        /* \"chestNft.sol\":10503:10517  uint256 result */\n      0x00\n        /* \"chestNft.sol\":10671:10687  _BITMASK_ADDRESS */\n      0xffffffffffffffffffffffffffffffffffffffff\n        /* \"chestNft.sol\":10664:10669  owner */\n      dup4\n        /* \"chestNft.sol\":10660:10688  and(owner, _BITMASK_ADDRESS) */\n      and\n        /* \"chestNft.sol\":10651:10688  owner := and(owner, _BITMASK_ADDRESS) */\n      swap3\n      pop\n        /* \"chestNft.sol\":10848:10853  flags */\n      dup2\n        /* \"chestNft.sol\":10834:10845  timestamp() */\n      timestamp\n        /* \"chestNft.sol\":10809:10832  _BITPOS_START_TIMESTAMP */\n      0xa0\n        /* \"chestNft.sol\":10805:10846  shl(_BITPOS_START_TIMESTAMP, timestamp()) */\n      shl\n        /* \"chestNft.sol\":10802:10854  or(shl(_BITPOS_START_TIMESTAMP, timestamp()), flags) */\n      or\n        /* \"chestNft.sol\":10795:10800  owner */\n      dup4\n        /* \"chestNft.sol\":10792:10855  or(owner, or(shl(_BITPOS_START_TIMESTAMP, timestamp()), flags)) */\n      or\n        /* \"chestNft.sol\":10782:10855  result := or(owner, or(shl(_BITPOS_START_TIMESTAMP, timestamp()), flags)) */\n      swap1\n      pop\n        /* \"chestNft.sol\":10423:10873  function _packOwnershipData(address owner, uint256 flags) private view returns (uint256 result) {... */\n      swap3\n      swap2\n      pop\n      pop\n      jump\t// out\n        /* \"chestNft.sol\":17541:17699  function _afterTokenTransfers(... */\n    tag_210:\n      pop\n      pop\n      pop\n      pop\n      jump\t// out\n        /* \"chestNft.sol\":22828:22940  function _safeMint(address to, uint256 quantity) internal virtual {... */\n    tag_216:\n        /* \"chestNft.sol\":22905:22932  _safeMint(to, quantity, '') */\n      tag_342\n        /* \"chestNft.sol\":22915:22917  to */\n      dup3\n        /* \"chestNft.sol\":22919:22927  quantity */\n      dup3\n        /* \"chestNft.sol\":22905:22932  _safeMint(to, quantity, '') */\n      mload(0x40)\n      dup1\n      0x20\n      add\n      0x40\n      mstore\n      dup1\n      0x00\n      dup2\n      mstore\n      pop\n        /* \"chestNft.sol\":22905:22914  _safeMint */\n      tag_343\n        /* \"chestNft.sol\":22905:22932  _safeMint(to, quantity, '') */\n      jump\t// in\n    tag_342:\n        /* \"chestNft.sol\":22828:22940  function _safeMint(address to, uint256 quantity) internal virtual {... */\n      pop\n      pop\n      jump\t// out\n        /* \"@openzeppelin/contracts/access/Ownable.sol\":2433:2620  function _transferOwnership(address newOwner) internal virtual {... */\n    tag_240:\n        /* \"@openzeppelin/contracts/access/Ownable.sol\":2506:2522  address oldOwner */\n      0x00\n        /* \"@openzeppelin/contracts/access/Ownable.sol\":2525:2531  _owner */\n      dup1\n      0x00\n      swap1\n      sload\n      swap1\n      0x0100\n      exp\n      swap1\n      div\n      0xffffffffffffffffffffffffffffffffffffffff\n      and\n        /* \"@openzeppelin/contracts/access/Ownable.sol\":2506:2531  address oldOwner = _owner */\n      swap1\n      pop\n        /* \"@openzeppelin/contracts/access/Ownable.sol\":2550:2558  newOwner */\n      dup2\n        /* \"@openzeppelin/contracts/access/Ownable.sol\":2541:2547  _owner */\n      0x00\n      dup1\n        /* \"@openzeppelin/contracts/access/Ownable.sol\":2541:2558  _owner = newOwner */\n      0x0100\n      exp\n      dup2\n      sload\n      dup2\n      0xffffffffffffffffffffffffffffffffffffffff\n      mul\n      not\n      and\n      swap1\n      dup4\n      0xffffffffffffffffffffffffffffffffffffffff\n      and\n      mul\n      or\n      swap1\n      sstore\n      pop\n        /* \"@openzeppelin/contracts/access/Ownable.sol\":2604:2612  newOwner */\n      dup2\n        /* \"@openzeppelin/contracts/access/Ownable.sol\":2573:2613  OwnershipTransferred(oldOwner, newOwner) */\n      0xffffffffffffffffffffffffffffffffffffffff\n      and\n        /* \"@openzeppelin/contracts/access/Ownable.sol\":2594:2602  oldOwner */\n      dup2\n        /* \"@openzeppelin/contracts/access/Ownable.sol\":2573:2613  OwnershipTransferred(oldOwner, newOwner) */\n      0xffffffffffffffffffffffffffffffffffffffff\n      and\n      0x8be0079c531659141344cd1fd0a4f28419497f9722a3daafe3b4186f6b6457e0\n      mload(0x40)\n      mload(0x40)\n      dup1\n      swap2\n      sub\n      swap1\n      log3\n        /* \"@openzeppelin/contracts/access/Ownable.sol\":2496:2620  {... */\n      pop\n        /* \"@openzeppelin/contracts/access/Ownable.sol\":2433:2620  function _transferOwnership(address newOwner) internal virtual {... */\n      pop\n      jump\t// out\n        /* \"chestNft.sol\":17712:18403  function _checkContractOnERC721Received(... */\n    tag_257:\n        /* \"chestNft.sol\":17875:17879  bool */\n      0x00\n        /* \"chestNft.sol\":17921:17923  to */\n      dup4\n        /* \"chestNft.sol\":17896:17941  ERC721A__IERC721Receiver(to).onERC721Received */\n      0xffffffffffffffffffffffffffffffffffffffff\n      and\n      0x150b7a02\n        /* \"chestNft.sol\":17942:17961  _msgSenderERC721A() */\n      tag_346\n        /* \"chestNft.sol\":17942:17959  _msgSenderERC721A */\n      tag_190\n        /* \"chestNft.sol\":17942:17961  _msgSenderERC721A() */\n      jump\t// in\n    tag_346:\n        /* \"chestNft.sol\":17963:17967  from */\n      dup8\n        /* \"chestNft.sol\":17969:17976  tokenId */\n      dup7\n        /* \"chestNft.sol\":17978:17983  _data */\n      dup7\n        /* \"chestNft.sol\":17896:17984  ERC721A__IERC721Receiver(to).onERC721Received(_msgSenderERC721A(), from, tokenId, _data) */\n      mload(0x40)\n      dup6\n      0xffffffff\n      and\n      0xe0\n      shl\n      dup2\n      mstore\n      0x04\n      add\n      tag_347\n      swap5\n      swap4\n      swap3\n      swap2\n      swap1\n      tag_348\n      jump\t// in\n    tag_347:\n      0x20\n      mload(0x40)\n      dup1\n      dup4\n      sub\n      dup2\n      0x00\n      dup8\n      gas\n      call\n      swap3\n      pop\n      pop\n      pop\n      dup1\n      iszero\n      tag_349\n      jumpi\n      pop\n      mload(0x40)\n      returndatasize\n      not(0x1f)\n      0x1f\n      dup3\n      add\n      and\n      dup3\n      add\n      dup1\n      0x40\n      mstore\n      pop\n      dup2\n      add\n      swap1\n      tag_350\n      swap2\n      swap1\n      tag_351\n      jump\t// in\n    tag_350:\n      0x01\n    tag_349:\n        /* \"chestNft.sol\":17892:18396  try ERC721A__IERC721Receiver(to).onERC721Received(_msgSenderERC721A(), from, tokenId, _data) returns (... */\n      tag_352\n      jumpi\n      returndatasize\n      dup1\n      0x00\n      dup2\n      eq\n      tag_357\n      jumpi\n      mload(0x40)\n      swap2\n      pop\n      and(add(returndatasize, 0x3f), not(0x1f))\n      dup3\n      add\n      0x40\n      mstore\n      returndatasize\n      dup3\n      mstore\n      returndatasize\n      0x00\n      0x20\n      dup5\n      add\n      returndatacopy\n      jump(tag_356)\n    tag_357:\n      0x60\n      swap2\n      pop\n    tag_356:\n      pop\n        /* \"chestNft.sol\":18196:18197  0 */\n      0x00\n        /* \"chestNft.sol\":18179:18185  reason */\n      dup2\n        /* \"chestNft.sol\":18179:18192  reason.length */\n      mload\n        /* \"chestNft.sol\":18179:18197  reason.length == 0 */\n      sub\n        /* \"chestNft.sol\":18175:18290  if (reason.length == 0) {... */\n      tag_358\n      jumpi\n        /* \"chestNft.sol\":18218:18274  _revert(TransferToNonERC721ReceiverImplementer.selector) */\n      tag_359\n        /* \"chestNft.sol\":18226:18273  TransferToNonERC721ReceiverImplementer.selector */\n      shl(0xe0, 0xd1a57ed6)\n        /* \"chestNft.sol\":18218:18225  _revert */\n      tag_168\n        /* \"chestNft.sol\":18218:18274  _revert(TransferToNonERC721ReceiverImplementer.selector) */\n      jump\t// in\n    tag_359:\n        /* \"chestNft.sol\":18175:18290  if (reason.length == 0) {... */\n    tag_358:\n        /* \"chestNft.sol\":18362:18368  reason */\n      dup1\n        /* \"chestNft.sol\":18356:18369  mload(reason) */\n      mload\n        /* \"chestNft.sol\":18347:18353  reason */\n      dup2\n        /* \"chestNft.sol\":18343:18345  32 */\n      0x20\n        /* \"chestNft.sol\":18339:18354  add(32, reason) */\n      add\n        /* \"chestNft.sol\":18332:18370  revert(add(32, reason), mload(reason)) */\n      revert\n        /* \"chestNft.sol\":17892:18396  try ERC721A__IERC721Receiver(to).onERC721Received(_msgSenderERC721A(), from, tokenId, _data) returns (... */\n    tag_352:\n        /* \"chestNft.sol\":18065:18119  ERC721A__IERC721Receiver(to).onERC721Received.selector */\n      shl(0xe0, 0x150b7a02)\n        /* \"chestNft.sol\":18055:18119  retval == ERC721A__IERC721Receiver(to).onERC721Received.selector */\n      not(0xffffffffffffffffffffffffffffffffffffffffffffffffffffffff)\n      and\n        /* \"chestNft.sol\":18055:18061  retval */\n      dup2\n        /* \"chestNft.sol\":18055:18119  retval == ERC721A__IERC721Receiver(to).onERC721Received.selector */\n      not(0xffffffffffffffffffffffffffffffffffffffffffffffffffffffff)\n      and\n      eq\n        /* \"chestNft.sol\":18048:18119  return retval == ERC721A__IERC721Receiver(to).onERC721Received.selector */\n      swap2\n      pop\n      pop\n        /* \"chestNft.sol\":17712:18403  function _checkContractOnERC721Received(... */\n      swap5\n      swap4\n      pop\n      pop\n      pop\n      pop\n      jump\t// out\n        /* \"chestNft.sol\":6661:6761  function _baseURI() internal view virtual returns (string memory) {... */\n    tag_265:\n        /* \"chestNft.sol\":6712:6725  string memory */\n      0x60\n        /* \"chestNft.sol\":6745:6753  baseURI_ */\n      0x05\n        /* \"chestNft.sol\":6738:6753  return baseURI_ */\n      dup1\n      sload\n      tag_362\n      swap1\n      tag_158\n      jump\t// in\n    tag_362:\n      dup1\n      0x1f\n      add\n      0x20\n      dup1\n      swap2\n      div\n      mul\n      0x20\n      add\n      mload(0x40)\n      swap1\n      dup2\n      add\n      0x40\n      mstore\n      dup1\n      swap3\n      swap2\n      swap1\n      dup2\n      dup2\n      mstore\n      0x20\n      add\n      dup3\n      dup1\n      sload\n      tag_363\n      swap1\n      tag_158\n      jump\t// in\n    tag_363:\n      dup1\n      iszero\n      tag_364\n      jumpi\n      dup1\n      0x1f\n      lt\n      tag_365\n      jumpi\n      0x0100\n      dup1\n      dup4\n      sload\n      div\n      mul\n      dup4\n      mstore\n      swap2\n      0x20\n      add\n      swap2\n      jump(tag_364)\n    tag_365:\n      dup3\n      add\n      swap2\n      swap1\n      0x00\n      mstore\n      keccak256(0x00, 0x20)\n      swap1\n    tag_366:\n      dup2\n      sload\n      dup2\n      mstore\n      swap1\n      0x01\n      add\n      swap1\n      0x20\n      add\n      dup1\n      dup4\n      gt\n      tag_366\n      jumpi\n      dup3\n      swap1\n      sub\n      0x1f\n      and\n      dup3\n      add\n      swap2\n    tag_364:\n      pop\n      pop\n      pop\n      pop\n      pop\n      swap1\n      pop\n        /* \"chestNft.sol\":6661:6761  function _baseURI() internal view virtual returns (string memory) {... */\n      swap1\n      jump\t// out\n        /* \"chestNft.sol\":27760:29505  function _toString(uint256 value) internal pure virtual returns (string memory str) {... */\n    tag_269:\n        /* \"chestNft.sol\":27825:27842  string memory str */\n      0x60\n        /* \"chestNft.sol\":28259:28263  0xa0 */\n      0xa0\n        /* \"chestNft.sol\":28252:28256  0x40 */\n      0x40\n        /* \"chestNft.sol\":28246:28257  mload(0x40) */\n      mload\n        /* \"chestNft.sol\":28242:28264  add(mload(0x40), 0xa0) */\n      add\n        /* \"chestNft.sol\":28351:28352  m */\n      dup1\n        /* \"chestNft.sol\":28345:28349  0x40 */\n      0x40\n        /* \"chestNft.sol\":28338:28353  mstore(0x40, m) */\n      mstore\n        /* \"chestNft.sol\":28426:28430  0x20 */\n      0x20\n        /* \"chestNft.sol\":28423:28424  m */\n      dup2\n        /* \"chestNft.sol\":28419:28431  sub(m, 0x20) */\n      sub\n        /* \"chestNft.sol\":28412:28431  str := sub(m, 0x20) */\n      swap2\n      pop\n        /* \"chestNft.sol\":28508:28509  0 */\n      0x00\n        /* \"chestNft.sol\":28503:28506  str */\n      dup3\n        /* \"chestNft.sol\":28496:28510  mstore(str, 0) */\n      mstore\n        /* \"chestNft.sol\":28612:28615  str */\n      dup2\n        /* \"chestNft.sol\":28851:28856  value */\n      dup4\n        /* \"chestNft.sol\":28833:29261  for { let temp := value } 1 {} {... */\n    tag_368:\n        /* \"chestNft.sol\":28859:28860  1 */\n      0x01\n        /* \"chestNft.sol\":28833:29261  for { let temp := value } 1 {} {... */\n      iszero\n      tag_370\n      jumpi\n        /* \"chestNft.sol\":28899:28900  1 */\n      0x01\n        /* \"chestNft.sol\":28894:28897  str */\n      dup5\n        /* \"chestNft.sol\":28890:28901  sub(str, 1) */\n      sub\n        /* \"chestNft.sol\":28883:28901  str := sub(str, 1) */\n      swap4\n      pop\n        /* \"chestNft.sol\":29070:29072  10 */\n      0x0a\n        /* \"chestNft.sol\":29064:29068  temp */\n      dup2\n        /* \"chestNft.sol\":29060:29073  mod(temp, 10) */\n      mod\n        /* \"chestNft.sol\":29056:29058  48 */\n      0x30\n        /* \"chestNft.sol\":29052:29074  add(48, mod(temp, 10)) */\n      add\n        /* \"chestNft.sol\":29047:29050  str */\n      dup5\n        /* \"chestNft.sol\":29039:29075  mstore8(str, add(48, mod(temp, 10))) */\n      mstore8\n        /* \"chestNft.sol\":29164:29166  10 */\n      0x0a\n        /* \"chestNft.sol\":29158:29162  temp */\n      dup2\n        /* \"chestNft.sol\":29154:29167  div(temp, 10) */\n      div\n        /* \"chestNft.sol\":29146:29167  temp := div(temp, 10) */\n      swap1\n      pop\n        /* \"chestNft.sol\":29231:29235  temp */\n      dup1\n        /* \"chestNft.sol\":28833:29261  for { let temp := value } 1 {} {... */\n      tag_368\n        /* \"chestNft.sol\":29221:29246  if iszero(temp) { break } */\n      jumpi\n        /* \"chestNft.sol\":28833:29261  for { let temp := value } 1 {} {... */\n    tag_370:\n        /* \"chestNft.sol\":28837:28858  { let temp := value } */\n      pop\n        /* \"chestNft.sol\":29300:29303  str */\n      dup3\n        /* \"chestNft.sol\":29295:29298  end */\n      dup2\n        /* \"chestNft.sol\":29291:29304  sub(end, str) */\n      sub\n        /* \"chestNft.sol\":29415:29419  0x20 */\n      0x20\n        /* \"chestNft.sol\":29410:29413  str */\n      dup5\n        /* \"chestNft.sol\":29406:29420  sub(str, 0x20) */\n      sub\n        /* \"chestNft.sol\":29399:29420  str := sub(str, 0x20) */\n      swap4\n      pop\n        /* \"chestNft.sol\":29480:29486  length */\n      dup1\n        /* \"chestNft.sol\":29475:29478  str */\n      dup5\n        /* \"chestNft.sol\":29468:29487  mstore(str, length) */\n      mstore\n        /* \"chestNft.sol\":27864:29498  {... */\n      pop\n      pop\n      pop\n        /* \"chestNft.sol\":27760:29505  function _toString(uint256 value) internal pure virtual returns (string memory str) {... */\n      swap2\n      swap1\n      pop\n      jump\t// out\n        /* \"chestNft.sol\":23558:23647  function _burn(uint256 tokenId) internal virtual {... */\n    tag_277:\n        /* \"chestNft.sol\":23618:23639  _burn(tokenId, false) */\n      tag_373\n        /* \"chestNft.sol\":23624:23631  tokenId */\n      dup2\n        /* \"chestNft.sol\":23633:23638  false */\n      0x00\n        /* \"chestNft.sol\":23618:23623  _burn */\n      tag_374\n        /* \"chestNft.sol\":23618:23639  _burn(tokenId, false) */\n      jump\t// in\n    tag_373:\n        /* \"chestNft.sol\":23558:23647  function _burn(uint256 tokenId) internal virtual {... */\n      pop\n      jump\t// out\n        /* \"@openzeppelin/contracts/utils/Context.sol\":640:736  function _msgSender() internal view virtual returns (address) {... */\n    tag_312:\n        /* \"@openzeppelin/contracts/utils/Context.sol\":693:700  address */\n      0x00\n        /* \"@openzeppelin/contracts/utils/Context.sol\":719:729  msg.sender */\n      caller\n        /* \"@openzeppelin/contracts/utils/Context.sol\":712:729  return msg.sender */\n      swap1\n      pop\n        /* \"@openzeppelin/contracts/utils/Context.sol\":640:736  function _msgSender() internal view virtual returns (address) {... */\n      swap1\n      jump\t// out\n        /* \"chestNft.sol\":27067:27214  function _extraData(... */\n    tag_338:\n        /* \"chestNft.sol\":27204:27210  uint24 */\n      0x00\n        /* \"chestNft.sol\":27067:27214  function _extraData(... */\n      swap4\n      swap3\n      pop\n      pop\n      pop\n      jump\t// out\n        /* \"chestNft.sol\":22036:22744  function _safeMint(... */\n    tag_343:\n        /* \"chestNft.sol\":22167:22186  _mint(to, quantity) */\n      tag_378\n        /* \"chestNft.sol\":22173:22175  to */\n      dup4\n        /* \"chestNft.sol\":22177:22185  quantity */\n      dup4\n        /* \"chestNft.sol\":22167:22172  _mint */\n      tag_379\n        /* \"chestNft.sol\":22167:22186  _mint(to, quantity) */\n      jump\t// in\n    tag_378:\n        /* \"chestNft.sol\":22246:22247  0 */\n      0x00\n        /* \"chestNft.sol\":22228:22230  to */\n      dup4\n        /* \"chestNft.sol\":22228:22242  to.code.length */\n      0xffffffffffffffffffffffffffffffffffffffff\n      and\n      extcodesize\n        /* \"chestNft.sol\":22228:22247  to.code.length != 0 */\n      eq\n        /* \"chestNft.sol\":22224:22726  if (to.code.length != 0) {... */\n      tag_380\n      jumpi\n        /* \"chestNft.sol\":22268:22279  uint256 end */\n      0x00\n        /* \"chestNft.sol\":22282:22295  _currentIndex */\n      sload(0x01)\n        /* \"chestNft.sol\":22268:22295  uint256 end = _currentIndex */\n      swap1\n      pop\n        /* \"chestNft.sol\":22314:22327  uint256 index */\n      0x00\n        /* \"chestNft.sol\":22336:22344  quantity */\n      dup4\n        /* \"chestNft.sol\":22330:22333  end */\n      dup3\n        /* \"chestNft.sol\":22330:22344  end - quantity */\n      sub\n        /* \"chestNft.sol\":22314:22344  uint256 index = end - quantity */\n      swap1\n      pop\n        /* \"chestNft.sol\":22363:22605  do {... */\n    tag_381:\n        /* \"chestNft.sol\":22394:22456  _checkContractOnERC721Received(address(0), to, index++, _data) */\n      tag_384\n        /* \"chestNft.sol\":22433:22434  0 */\n      0x00\n        /* \"chestNft.sol\":22437:22439  to */\n      dup7\n        /* \"chestNft.sol\":22441:22448  index++ */\n      dup4\n      dup1\n      0x01\n      add\n      swap5\n      pop\n        /* \"chestNft.sol\":22450:22455  _data */\n      dup7\n        /* \"chestNft.sol\":22394:22424  _checkContractOnERC721Received */\n      tag_257\n        /* \"chestNft.sol\":22394:22456  _checkContractOnERC721Received(address(0), to, index++, _data) */\n      jump\t// in\n    tag_384:\n        /* \"chestNft.sol\":22389:22565  if (!_checkContractOnERC721Received(address(0), to, index++, _data)) {... */\n      tag_385\n      jumpi\n        /* \"chestNft.sol\":22485:22541  _revert(TransferToNonERC721ReceiverImplementer.selector) */\n      tag_386\n        /* \"chestNft.sol\":22493:22540  TransferToNonERC721ReceiverImplementer.selector */\n      shl(0xe0, 0xd1a57ed6)\n        /* \"chestNft.sol\":22485:22492  _revert */\n      tag_168\n        /* \"chestNft.sol\":22485:22541  _revert(TransferToNonERC721ReceiverImplementer.selector) */\n      jump\t// in\n    tag_386:\n        /* \"chestNft.sol\":22389:22565  if (!_checkContractOnERC721Received(address(0), to, index++, _data)) {... */\n    tag_385:\n        /* \"chestNft.sol\":22600:22603  end */\n      dup2\n        /* \"chestNft.sol\":22592:22597  index */\n      dup2\n        /* \"chestNft.sol\":22592:22603  index < end */\n      lt\n        /* \"chestNft.sol\":22363:22605  do {... */\n      tag_381\n      jumpi\n        /* \"chestNft.sol\":22687:22690  end */\n      dup2\n        /* \"chestNft.sol\":22670:22683  _currentIndex */\n      sload(0x01)\n        /* \"chestNft.sol\":22670:22690  _currentIndex != end */\n      eq\n        /* \"chestNft.sol\":22666:22710  if (_currentIndex != end) _revert(bytes4(0)) */\n      tag_387\n      jumpi\n        /* \"chestNft.sol\":22692:22710  _revert(bytes4(0)) */\n      tag_388\n        /* \"chestNft.sol\":22707:22708  0 */\n      0x00\n        /* \"chestNft.sol\":22700:22709  bytes4(0) */\n      0xe0\n      shl\n        /* \"chestNft.sol\":22692:22699  _revert */\n      tag_168\n        /* \"chestNft.sol\":22692:22710  _revert(bytes4(0)) */\n      jump\t// in\n    tag_388:\n        /* \"chestNft.sol\":22666:22710  if (_currentIndex != end) _revert(bytes4(0)) */\n    tag_387:\n        /* \"chestNft.sol\":22249:22726  {... */\n      pop\n      pop\n        /* \"chestNft.sol\":22224:22726  if (to.code.length != 0) {... */\n    tag_380:\n        /* \"chestNft.sol\":22036:22744  function _safeMint(... */\n      pop\n      pop\n      pop\n      jump\t// out\n        /* \"chestNft.sol\":23660:26499  function _burn(uint256 tokenId, bool approvalCheck) internal virtual {... */\n    tag_374:\n        /* \"chestNft.sol\":23740:23767  uint256 prevOwnershipPacked */\n      0x00\n        /* \"chestNft.sol\":23770:23797  _packedOwnershipOf(tokenId) */\n      tag_390\n        /* \"chestNft.sol\":23789:23796  tokenId */\n      dup4\n        /* \"chestNft.sol\":23770:23788  _packedOwnershipOf */\n      tag_183\n        /* \"chestNft.sol\":23770:23797  _packedOwnershipOf(tokenId) */\n      jump\t// in\n    tag_390:\n        /* \"chestNft.sol\":23740:23797  uint256 prevOwnershipPacked = _packedOwnershipOf(tokenId) */\n      swap1\n      pop\n        /* \"chestNft.sol\":23810:23822  address from */\n      0x00\n        /* \"chestNft.sol\":23841:23860  prevOwnershipPacked */\n      dup2\n        /* \"chestNft.sol\":23810:23862  address from = address(uint160(prevOwnershipPacked)) */\n      swap1\n      pop\n        /* \"chestNft.sol\":23876:23903  uint256 approvedAddressSlot */\n      0x00\n        /* \"chestNft.sol\":23905:23928  address approvedAddress */\n      dup1\n        /* \"chestNft.sol\":23932:23967  _getApprovedSlotAndAddress(tokenId) */\n      tag_391\n        /* \"chestNft.sol\":23959:23966  tokenId */\n      dup7\n        /* \"chestNft.sol\":23932:23958  _getApprovedSlotAndAddress */\n      tag_187\n        /* \"chestNft.sol\":23932:23967  _getApprovedSlotAndAddress(tokenId) */\n      jump\t// in\n    tag_391:\n        /* \"chestNft.sol\":23875:23967  (uint256 approvedAddressSlot, address approvedAddress) = _getApprovedSlotAndAddress(tokenId) */\n      swap2\n      pop\n      swap2\n      pop\n        /* \"chestNft.sol\":23984:23997  approvalCheck */\n      dup5\n        /* \"chestNft.sol\":23980:24305  if (approvalCheck) {... */\n      iszero\n      tag_392\n      jumpi\n        /* \"chestNft.sol\":24105:24173  _isSenderApprovedOrOwner(approvedAddress, from, _msgSenderERC721A()) */\n      tag_393\n        /* \"chestNft.sol\":24130:24145  approvedAddress */\n      dup2\n        /* \"chestNft.sol\":24147:24151  from */\n      dup5\n        /* \"chestNft.sol\":24153:24172  _msgSenderERC721A() */\n      tag_394\n        /* \"chestNft.sol\":24153:24170  _msgSenderERC721A */\n      tag_190\n        /* \"chestNft.sol\":24153:24172  _msgSenderERC721A() */\n      jump\t// in\n    tag_394:\n        /* \"chestNft.sol\":24105:24129  _isSenderApprovedOrOwner */\n      tag_191\n        /* \"chestNft.sol\":24105:24173  _isSenderApprovedOrOwner(approvedAddress, from, _msgSenderERC721A()) */\n      jump\t// in\n    tag_393:\n        /* \"chestNft.sol\":24100:24293  if (!_isSenderApprovedOrOwner(approvedAddress, from, _msgSenderERC721A()))... */\n      tag_395\n      jumpi\n        /* \"chestNft.sol\":24197:24240  isApprovedForAll(from, _msgSenderERC721A()) */\n      tag_396\n        /* \"chestNft.sol\":24214:24218  from */\n      dup4\n        /* \"chestNft.sol\":24220:24239  _msgSenderERC721A() */\n      tag_397\n        /* \"chestNft.sol\":24220:24237  _msgSenderERC721A */\n      tag_190\n        /* \"chestNft.sol\":24220:24239  _msgSenderERC721A() */\n      jump\t// in\n    tag_397:\n        /* \"chestNft.sol\":24197:24213  isApprovedForAll */\n      tag_138\n        /* \"chestNft.sol\":24197:24240  isApprovedForAll(from, _msgSenderERC721A()) */\n      jump\t// in\n    tag_396:\n        /* \"chestNft.sol\":24192:24293  if (!isApprovedForAll(from, _msgSenderERC721A())) _revert(TransferCallerNotOwnerNorApproved.selector) */\n      tag_398\n      jumpi\n        /* \"chestNft.sol\":24242:24293  _revert(TransferCallerNotOwnerNorApproved.selector) */\n      tag_399\n        /* \"chestNft.sol\":24250:24292  TransferCallerNotOwnerNorApproved.selector */\n      shl(0xe0, 0x59c896be)\n        /* \"chestNft.sol\":24242:24249  _revert */\n      tag_168\n        /* \"chestNft.sol\":24242:24293  _revert(TransferCallerNotOwnerNorApproved.selector) */\n      jump\t// in\n    tag_399:\n        /* \"chestNft.sol\":24192:24293  if (!isApprovedForAll(from, _msgSenderERC721A())) _revert(TransferCallerNotOwnerNorApproved.selector) */\n    tag_398:\n        /* \"chestNft.sol\":24100:24293  if (!_isSenderApprovedOrOwner(approvedAddress, from, _msgSenderERC721A()))... */\n    tag_395:\n        /* \"chestNft.sol\":23980:24305  if (approvalCheck) {... */\n    tag_392:\n        /* \"chestNft.sol\":24317:24368  _beforeTokenTransfers(from, address(0), tokenId, 1) */\n      tag_400\n        /* \"chestNft.sol\":24339:24343  from */\n      dup4\n        /* \"chestNft.sol\":24353:24354  0 */\n      0x00\n        /* \"chestNft.sol\":24357:24364  tokenId */\n      dup9\n        /* \"chestNft.sol\":24366:24367  1 */\n      0x01\n        /* \"chestNft.sol\":24317:24338  _beforeTokenTransfers */\n      tag_198\n        /* \"chestNft.sol\":24317:24368  _beforeTokenTransfers(from, address(0), tokenId, 1) */\n      jump\t// in\n    tag_400:\n        /* \"chestNft.sol\":24461:24476  approvedAddress */\n      dup1\n        /* \"chestNft.sol\":24458:24618  if approvedAddress {... */\n      iszero\n      tag_401\n      jumpi\n        /* \"chestNft.sol\":24601:24602  0 */\n      0x00\n        /* \"chestNft.sol\":24580:24599  approvedAddressSlot */\n      dup3\n        /* \"chestNft.sol\":24573:24603  sstore(approvedAddressSlot, 0) */\n      sstore\n        /* \"chestNft.sol\":24458:24618  if approvedAddress {... */\n    tag_401:\n        /* \"chestNft.sol\":25028:25029  1 */\n      0x01\n        /* \"chestNft.sol\":781:784  128 */\n      0x80\n        /* \"chestNft.sol\":24998:24999  1 */\n      0x01\n        /* \"chestNft.sol\":24998:25024  1 << _BITPOS_NUMBER_BURNED */\n      swap1\n      shl\n        /* \"chestNft.sol\":24997:25029  (1 << _BITPOS_NUMBER_BURNED) - 1 */\n      sub\n        /* \"chestNft.sol\":24969:24987  _packedAddressData */\n      0x0c\n        /* \"chestNft.sol\":24969:24993  _packedAddressData[from] */\n      0x00\n        /* \"chestNft.sol\":24988:24992  from */\n      dup6\n        /* \"chestNft.sol\":24969:24993  _packedAddressData[from] */\n      0xffffffffffffffffffffffffffffffffffffffff\n      and\n      0xffffffffffffffffffffffffffffffffffffffff\n      and\n      dup2\n      mstore\n      0x20\n      add\n      swap1\n      dup2\n      mstore\n      0x20\n      add\n      0x00\n      keccak256\n      0x00\n        /* \"chestNft.sol\":24969:25029  _packedAddressData[from] += (1 << _BITPOS_NUMBER_BURNED) - 1 */\n      dup3\n      dup3\n      sload\n      add\n      swap3\n      pop\n      pop\n      dup2\n      swap1\n      sstore\n      pop\n        /* \"chestNft.sol\":25296:25472  _packOwnershipData(... */\n      tag_402\n        /* \"chestNft.sol\":25333:25337  from */\n      dup4\n        /* \"chestNft.sol\":25404:25457  _nextExtraData(from, address(0), prevOwnershipPacked) */\n      tag_403\n        /* \"chestNft.sol\":25419:25423  from */\n      dup6\n        /* \"chestNft.sol\":25433:25434  0 */\n      0x00\n        /* \"chestNft.sol\":25437:25456  prevOwnershipPacked */\n      dup9\n        /* \"chestNft.sol\":25404:25418  _nextExtraData */\n      tag_202\n        /* \"chestNft.sol\":25404:25457  _nextExtraData(from, address(0), prevOwnershipPacked) */\n      jump\t// in\n    tag_403:\n        /* \"chestNft.sol\":1572:1580  1 << 225 */\n      0x0200000000000000000000000000000000000000000000000000000000\n        /* \"chestNft.sol\":1292:1300  1 << 224 */\n      0x0100000000000000000000000000000000000000000000000000000000\n        /* \"chestNft.sol\":25357:25400  _BITMASK_BURNED | _BITMASK_NEXT_INITIALIZED */\n      or\n        /* \"chestNft.sol\":25356:25457  (_BITMASK_BURNED | _BITMASK_NEXT_INITIALIZED) | _nextExtraData(from, address(0), prevOwnershipPacked) */\n      or\n        /* \"chestNft.sol\":25296:25314  _packOwnershipData */\n      tag_203\n        /* \"chestNft.sol\":25296:25472  _packOwnershipData(... */\n      jump\t// in\n    tag_402:\n        /* \"chestNft.sol\":25267:25284  _packedOwnerships */\n      0x0b\n        /* \"chestNft.sol\":25267:25293  _packedOwnerships[tokenId] */\n      0x00\n        /* \"chestNft.sol\":25285:25292  tokenId */\n      dup9\n        /* \"chestNft.sol\":25267:25293  _packedOwnerships[tokenId] */\n      dup2\n      mstore\n      0x20\n      add\n      swap1\n      dup2\n      mstore\n      0x20\n      add\n      0x00\n      keccak256\n        /* \"chestNft.sol\":25267:25472  _packedOwnerships[tokenId] = _packOwnershipData(... */\n      dup2\n      swap1\n      sstore\n      pop\n        /* \"chestNft.sol\":25643:25644  0 */\n      0x00\n        /* \"chestNft.sol\":1572:1580  1 << 225 */\n      0x0200000000000000000000000000000000000000000000000000000000\n        /* \"chestNft.sol\":25592:25611  prevOwnershipPacked */\n      dup6\n        /* \"chestNft.sol\":25592:25639  prevOwnershipPacked & _BITMASK_NEXT_INITIALIZED */\n      and\n        /* \"chestNft.sol\":25592:25644  prevOwnershipPacked & _BITMASK_NEXT_INITIALIZED == 0 */\n      sub\n        /* \"chestNft.sol\":25588:26215  if (prevOwnershipPacked & _BITMASK_NEXT_INITIALIZED == 0) {... */\n      tag_404\n      jumpi\n        /* \"chestNft.sol\":25665:25684  uint256 nextTokenId */\n      0x00\n        /* \"chestNft.sol\":25697:25698  1 */\n      0x01\n        /* \"chestNft.sol\":25687:25694  tokenId */\n      dup8\n        /* \"chestNft.sol\":25687:25698  tokenId + 1 */\n      add\n        /* \"chestNft.sol\":25665:25698  uint256 nextTokenId = tokenId + 1 */\n      swap1\n      pop\n        /* \"chestNft.sol\":25854:25855  0 */\n      0x00\n        /* \"chestNft.sol\":25820:25837  _packedOwnerships */\n      0x0b\n        /* \"chestNft.sol\":25820:25850  _packedOwnerships[nextTokenId] */\n      0x00\n        /* \"chestNft.sol\":25838:25849  nextTokenId */\n      dup4\n        /* \"chestNft.sol\":25820:25850  _packedOwnerships[nextTokenId] */\n      dup2\n      mstore\n      0x20\n      add\n      swap1\n      dup2\n      mstore\n      0x20\n      add\n      0x00\n      keccak256\n      sload\n        /* \"chestNft.sol\":25820:25855  _packedOwnerships[nextTokenId] == 0 */\n      sub\n        /* \"chestNft.sol\":25816:26200  if (_packedOwnerships[nextTokenId] == 0) {... */\n      tag_405\n      jumpi\n        /* \"chestNft.sol\":25958:25971  _currentIndex */\n      sload(0x01)\n        /* \"chestNft.sol\":25943:25954  nextTokenId */\n      dup2\n        /* \"chestNft.sol\":25943:25971  nextTokenId != _currentIndex */\n      eq\n        /* \"chestNft.sol\":25939:26181  if (nextTokenId != _currentIndex) {... */\n      tag_406\n      jumpi\n        /* \"chestNft.sol\":26138:26157  prevOwnershipPacked */\n      dup5\n        /* \"chestNft.sol\":26105:26122  _packedOwnerships */\n      0x0b\n        /* \"chestNft.sol\":26105:26135  _packedOwnerships[nextTokenId] */\n      0x00\n        /* \"chestNft.sol\":26123:26134  nextTokenId */\n      dup4\n        /* \"chestNft.sol\":26105:26135  _packedOwnerships[nextTokenId] */\n      dup2\n      mstore\n      0x20\n      add\n      swap1\n      dup2\n      mstore\n      0x20\n      add\n      0x00\n      keccak256\n        /* \"chestNft.sol\":26105:26157  _packedOwnerships[nextTokenId] = prevOwnershipPacked */\n      dup2\n      swap1\n      sstore\n      pop\n        /* \"chestNft.sol\":25939:26181  if (nextTokenId != _currentIndex) {... */\n    tag_406:\n        /* \"chestNft.sol\":25816:26200  if (_packedOwnerships[nextTokenId] == 0) {... */\n    tag_405:\n        /* \"chestNft.sol\":25646:26215  {... */\n      pop\n        /* \"chestNft.sol\":25588:26215  if (prevOwnershipPacked & _BITMASK_NEXT_INITIALIZED == 0) {... */\n    tag_404:\n        /* \"chestNft.sol\":26270:26277  tokenId */\n      dup6\n        /* \"chestNft.sol\":26266:26267  0 */\n      0x00\n        /* \"chestNft.sol\":26243:26278  Transfer(from, address(0), tokenId) */\n      0xffffffffffffffffffffffffffffffffffffffff\n      and\n        /* \"chestNft.sol\":26252:26256  from */\n      dup5\n        /* \"chestNft.sol\":26243:26278  Transfer(from, address(0), tokenId) */\n      0xffffffffffffffffffffffffffffffffffffffff\n      and\n      0xddf252ad1be2c89b69c2b068fc378daa952ba7f163c4a11628f55a4df523b3ef\n      mload(0x40)\n      mload(0x40)\n      dup1\n      swap2\n      sub\n      swap1\n      log4\n        /* \"chestNft.sol\":26289:26339  _afterTokenTransfers(from, address(0), tokenId, 1) */\n      tag_407\n        /* \"chestNft.sol\":26310:26314  from */\n      dup4\n        /* \"chestNft.sol\":26324:26325  0 */\n      0x00\n        /* \"chestNft.sol\":26328:26335  tokenId */\n      dup9\n        /* \"chestNft.sol\":26337:26338  1 */\n      0x01\n        /* \"chestNft.sol\":26289:26309  _afterTokenTransfers */\n      tag_210\n        /* \"chestNft.sol\":26289:26339  _afterTokenTransfers(from, address(0), tokenId, 1) */\n      jump\t// in\n    tag_407:\n        /* \"chestNft.sol\":26466:26478  _burnCounter */\n      0x02\n      0x00\n        /* \"chestNft.sol\":26466:26480  _burnCounter++ */\n      dup2\n      sload\n      dup1\n      swap3\n      swap2\n      swap1\n      0x01\n      add\n      swap2\n      swap1\n      pop\n      sstore\n      pop\n        /* \"chestNft.sol\":23729:26499  {... */\n      pop\n      pop\n      pop\n      pop\n        /* \"chestNft.sol\":23660:26499  function _burn(uint256 tokenId, bool approvalCheck) internal virtual {... */\n      pop\n      pop\n      jump\t// out\n        /* \"chestNft.sol\":18417:20722  function _mint(address to, uint256 quantity) internal virtual {... */\n    tag_379:\n        /* \"chestNft.sol\":18490:18510  uint256 startTokenId */\n      0x00\n        /* \"chestNft.sol\":18513:18526  _currentIndex */\n      sload(0x01)\n        /* \"chestNft.sol\":18490:18526  uint256 startTokenId = _currentIndex */\n      swap1\n      pop\n        /* \"chestNft.sol\":18553:18554  0 */\n      0x00\n        /* \"chestNft.sol\":18541:18549  quantity */\n      dup3\n        /* \"chestNft.sol\":18541:18554  quantity == 0 */\n      sub\n        /* \"chestNft.sol\":18537:18590  if (quantity == 0) _revert(MintZeroQuantity.selector) */\n      tag_409\n      jumpi\n        /* \"chestNft.sol\":18556:18590  _revert(MintZeroQuantity.selector) */\n      tag_410\n        /* \"chestNft.sol\":18564:18589  MintZeroQuantity.selector */\n      shl(0xe0, 0xb562e8dd)\n        /* \"chestNft.sol\":18556:18563  _revert */\n      tag_168\n        /* \"chestNft.sol\":18556:18590  _revert(MintZeroQuantity.selector) */\n      jump\t// in\n    tag_410:\n        /* \"chestNft.sol\":18537:18590  if (quantity == 0) _revert(MintZeroQuantity.selector) */\n    tag_409:\n        /* \"chestNft.sol\":18603:18664  _beforeTokenTransfers(address(0), to, startTokenId, quantity) */\n      tag_411\n        /* \"chestNft.sol\":18633:18634  0 */\n      0x00\n        /* \"chestNft.sol\":18637:18639  to */\n      dup5\n        /* \"chestNft.sol\":18641:18653  startTokenId */\n      dup4\n        /* \"chestNft.sol\":18655:18663  quantity */\n      dup6\n        /* \"chestNft.sol\":18603:18624  _beforeTokenTransfers */\n      tag_198\n        /* \"chestNft.sol\":18603:18664  _beforeTokenTransfers(address(0), to, startTokenId, quantity) */\n      jump\t// in\n    tag_411:\n        /* \"chestNft.sol\":19137:19276  _packOwnershipData(... */\n      tag_412\n        /* \"chestNft.sol\":19174:19176  to */\n      dup4\n        /* \"chestNft.sol\":19228:19261  _nextExtraData(address(0), to, 0) */\n      tag_413\n        /* \"chestNft.sol\":19251:19252  0 */\n      0x00\n        /* \"chestNft.sol\":19255:19257  to */\n      dup7\n        /* \"chestNft.sol\":19259:19260  0 */\n      0x00\n        /* \"chestNft.sol\":19228:19242  _nextExtraData */\n      tag_202\n        /* \"chestNft.sol\":19228:19261  _nextExtraData(address(0), to, 0) */\n      jump\t// in\n    tag_413:\n        /* \"chestNft.sol\":19195:19225  _nextInitializedFlag(quantity) */\n      tag_414\n        /* \"chestNft.sol\":19216:19224  quantity */\n      dup6\n        /* \"chestNft.sol\":19195:19215  _nextInitializedFlag */\n      tag_415\n        /* \"chestNft.sol\":19195:19225  _nextInitializedFlag(quantity) */\n      jump\t// in\n    tag_414:\n        /* \"chestNft.sol\":19195:19261  _nextInitializedFlag(quantity) | _nextExtraData(address(0), to, 0) */\n      or\n        /* \"chestNft.sol\":19137:19155  _packOwnershipData */\n      tag_203\n        /* \"chestNft.sol\":19137:19276  _packOwnershipData(... */\n      jump\t// in\n    tag_412:\n        /* \"chestNft.sol\":19103:19120  _packedOwnerships */\n      0x0b\n        /* \"chestNft.sol\":19103:19134  _packedOwnerships[startTokenId] */\n      0x00\n        /* \"chestNft.sol\":19121:19133  startTokenId */\n      dup4\n        /* \"chestNft.sol\":19103:19134  _packedOwnerships[startTokenId] */\n      dup2\n      mstore\n      0x20\n      add\n      swap1\n      dup2\n      mstore\n      0x20\n      add\n      0x00\n      keccak256\n        /* \"chestNft.sol\":19103:19276  _packedOwnerships[startTokenId] = _packOwnershipData(... */\n      dup2\n      swap1\n      sstore\n      pop\n        /* \"chestNft.sol\":19563:19564  1 */\n      0x01\n        /* \"chestNft.sol\":654:656  64 */\n      0x40\n        /* \"chestNft.sol\":19533:19534  1 */\n      0x01\n        /* \"chestNft.sol\":19533:19559  1 << _BITPOS_NUMBER_MINTED */\n      swap1\n      shl\n        /* \"chestNft.sol\":19532:19564  (1 << _BITPOS_NUMBER_MINTED) | 1 */\n      or\n        /* \"chestNft.sol\":19520:19528  quantity */\n      dup3\n        /* \"chestNft.sol\":19520:19565  quantity * ((1 << _BITPOS_NUMBER_MINTED) | 1) */\n      mul\n        /* \"chestNft.sol\":19494:19512  _packedAddressData */\n      0x0c\n        /* \"chestNft.sol\":19494:19516  _packedAddressData[to] */\n      0x00\n        /* \"chestNft.sol\":19513:19515  to */\n      dup6\n        /* \"chestNft.sol\":19494:19516  _packedAddressData[to] */\n      0xffffffffffffffffffffffffffffffffffffffff\n      and\n      0xffffffffffffffffffffffffffffffffffffffff\n      and\n      dup2\n      mstore\n      0x20\n      add\n      swap1\n      dup2\n      mstore\n      0x20\n      add\n      0x00\n      keccak256\n      0x00\n        /* \"chestNft.sol\":19494:19565  _packedAddressData[to] += quantity * ((1 << _BITPOS_NUMBER_MINTED) | 1) */\n      dup3\n      dup3\n      sload\n      add\n      swap3\n      pop\n      pop\n      dup2\n      swap1\n      sstore\n      pop\n        /* \"chestNft.sol\":19676:19692  uint256 toMasked */\n      0x00\n        /* \"chestNft.sol\":1974:1988  (1 << 160) - 1 */\n      0xffffffffffffffffffffffffffffffffffffffff\n        /* \"chestNft.sol\":19711:19713  to */\n      dup5\n        /* \"chestNft.sol\":19695:19715  uint256(uint160(to)) */\n      0xffffffffffffffffffffffffffffffffffffffff\n      and\n        /* \"chestNft.sol\":19695:19734  uint256(uint160(to)) & _BITMASK_ADDRESS */\n      and\n        /* \"chestNft.sol\":19676:19734  uint256 toMasked = uint256(uint160(to)) & _BITMASK_ADDRESS */\n      swap1\n      pop\n        /* \"chestNft.sol\":19767:19768  0 */\n      0x00\n        /* \"chestNft.sol\":19755:19763  toMasked */\n      dup2\n        /* \"chestNft.sol\":19755:19768  toMasked == 0 */\n      sub\n        /* \"chestNft.sol\":19751:19805  if (toMasked == 0) _revert(MintToZeroAddress.selector) */\n      tag_416\n      jumpi\n        /* \"chestNft.sol\":19770:19805  _revert(MintToZeroAddress.selector) */\n      tag_417\n        /* \"chestNft.sol\":19778:19804  MintToZeroAddress.selector */\n      shl(0xe0, 0x2e076300)\n        /* \"chestNft.sol\":19770:19777  _revert */\n      tag_168\n        /* \"chestNft.sol\":19770:19805  _revert(MintToZeroAddress.selector) */\n      jump\t// in\n    tag_417:\n        /* \"chestNft.sol\":19751:19805  if (toMasked == 0) _revert(MintToZeroAddress.selector) */\n    tag_416:\n        /* \"chestNft.sol\":19822:19833  uint256 end */\n      0x00\n        /* \"chestNft.sol\":19851:19859  quantity */\n      dup4\n        /* \"chestNft.sol\":19836:19848  startTokenId */\n      dup4\n        /* \"chestNft.sol\":19836:19859  startTokenId + quantity */\n      add\n        /* \"chestNft.sol\":19822:19859  uint256 end = startTokenId + quantity */\n      swap1\n      pop\n        /* \"chestNft.sol\":19874:19889  uint256 tokenId */\n      0x00\n        /* \"chestNft.sol\":19892:19904  startTokenId */\n      dup4\n        /* \"chestNft.sol\":19874:19904  uint256 tokenId = startTokenId */\n      swap1\n      pop\n        /* \"chestNft.sol\":19921:20597  do {... */\n    tag_418:\n        /* \"chestNft.sol\":20340:20347  tokenId */\n      dup1\n        /* \"chestNft.sol\":20296:20304  toMasked */\n      dup4\n        /* \"chestNft.sol\":20251:20252  0 */\n      0x00\n        /* \"chestNft.sol\":20185:20210  _TRANSFER_EVENT_SIGNATURE */\n      0xddf252ad1be2c89b69c2b068fc378daa952ba7f163c4a11628f55a4df523b3ef\n        /* \"chestNft.sol\":20122:20123  0 */\n      0x00\n        /* \"chestNft.sol\":20057:20058  0 */\n      dup1\n        /* \"chestNft.sol\":20026:20384  log4(... */\n      log4\n        /* \"chestNft.sol\":20592:20595  end */\n      dup2\n        /* \"chestNft.sol\":20579:20588  ++tokenId */\n      dup2\n      0x01\n      add\n      swap2\n      pop\n      dup2\n        /* \"chestNft.sol\":20579:20595  ++tokenId != end */\n      sub\n        /* \"chestNft.sol\":19921:20597  do {... */\n      tag_418\n      jumpi\n        /* \"chestNft.sol\":20629:20632  end */\n      dup2\n        /* \"chestNft.sol\":20613:20626  _currentIndex */\n      0x01\n        /* \"chestNft.sol\":20613:20632  _currentIndex = end */\n      dup2\n      swap1\n      sstore\n      pop\n        /* \"chestNft.sol\":18852:20644  unchecked {... */\n      pop\n      pop\n      pop\n        /* \"chestNft.sol\":20654:20714  _afterTokenTransfers(address(0), to, startTokenId, quantity) */\n      tag_421\n        /* \"chestNft.sol\":20683:20684  0 */\n      0x00\n        /* \"chestNft.sol\":20687:20689  to */\n      dup5\n        /* \"chestNft.sol\":20691:20703  startTokenId */\n      dup4\n        /* \"chestNft.sol\":20705:20713  quantity */\n      dup6\n        /* \"chestNft.sol\":20654:20674  _afterTokenTransfers */\n      tag_210\n        /* \"chestNft.sol\":20654:20714  _afterTokenTransfers(address(0), to, startTokenId, quantity) */\n      jump\t// in\n    tag_421:\n        /* \"chestNft.sol\":18479:20722  {... */\n      pop\n        /* \"chestNft.sol\":18417:20722  function _mint(address to, uint256 quantity) internal virtual {... */\n      pop\n      pop\n      jump\t// out\n        /* \"chestNft.sol\":10886:11210  function _nextInitializedFlag(uint256 quantity) private pure returns (uint256 result) {... */\n    tag_415:\n        /* \"chestNft.sol\":10956:10970  uint256 result */\n      0x00\n        /* \"chestNft.sol\":11189:11190  1 */\n      0x01\n        /* \"chestNft.sol\":11179:11187  quantity */\n      dup3\n        /* \"chestNft.sol\":11176:11191  eq(quantity, 1) */\n      eq\n        /* \"chestNft.sol\":11150:11174  _BITPOS_NEXT_INITIALIZED */\n      0xe1\n        /* \"chestNft.sol\":11146:11192  shl(_BITPOS_NEXT_INITIALIZED, eq(quantity, 1)) */\n      shl\n        /* \"chestNft.sol\":11136:11192  result := shl(_BITPOS_NEXT_INITIALIZED, eq(quantity, 1)) */\n      swap1\n      pop\n        /* \"chestNft.sol\":10886:11210  function _nextInitializedFlag(uint256 quantity) private pure returns (uint256 result) {... */\n      swap2\n      swap1\n      pop\n      jump\t// out\n        /* \"#utility.yul\":7:82   */\n    tag_423:\n        /* \"#utility.yul\":40:46   */\n      0x00\n        /* \"#utility.yul\":73:75   */\n      0x40\n        /* \"#utility.yul\":67:76   */\n      mload\n        /* \"#utility.yul\":57:76   */\n      swap1\n      pop\n        /* \"#utility.yul\":7:82   */\n      swap1\n      jump\t// out\n        /* \"#utility.yul\":88:205   */\n    tag_424:\n        /* \"#utility.yul\":197:198   */\n      0x00\n        /* \"#utility.yul\":194:195   */\n      dup1\n        /* \"#utility.yul\":187:199   */\n      revert\n        /* \"#utility.yul\":211:328   */\n    tag_425:\n        /* \"#utility.yul\":320:321   */\n      0x00\n        /* \"#utility.yul\":317:318   */\n      dup1\n        /* \"#utility.yul\":310:322   */\n      revert\n        /* \"#utility.yul\":334:483   */\n    tag_426:\n        /* \"#utility.yul\":370:377   */\n      0x00\n        /* \"#utility.yul\":410:476   */\n      0xffffffff00000000000000000000000000000000000000000000000000000000\n        /* \"#utility.yul\":403:408   */\n      dup3\n        /* \"#utility.yul\":399:477   */\n      and\n        /* \"#utility.yul\":388:477   */\n      swap1\n      pop\n        /* \"#utility.yul\":334:483   */\n      swap2\n      swap1\n      pop\n      jump\t// out\n        /* \"#utility.yul\":489:609   */\n    tag_427:\n        /* \"#utility.yul\":561:584   */\n      tag_502\n        /* \"#utility.yul\":578:583   */\n      dup2\n        /* \"#utility.yul\":561:584   */\n      tag_426\n      jump\t// in\n    tag_502:\n        /* \"#utility.yul\":554:559   */\n      dup2\n        /* \"#utility.yul\":551:585   */\n      eq\n        /* \"#utility.yul\":541:603   */\n      tag_503\n      jumpi\n        /* \"#utility.yul\":599:600   */\n      0x00\n        /* \"#utility.yul\":596:597   */\n      dup1\n        /* \"#utility.yul\":589:601   */\n      revert\n        /* \"#utility.yul\":541:603   */\n    tag_503:\n        /* \"#utility.yul\":489:609   */\n      pop\n      jump\t// out\n        /* \"#utility.yul\":615:752   */\n    tag_428:\n        /* \"#utility.yul\":660:665   */\n      0x00\n        /* \"#utility.yul\":698:704   */\n      dup2\n        /* \"#utility.yul\":685:705   */\n      calldataload\n        /* \"#utility.yul\":676:705   */\n      swap1\n      pop\n        /* \"#utility.yul\":714:746   */\n      tag_505\n        /* \"#utility.yul\":740:745   */\n      dup2\n        /* \"#utility.yul\":714:746   */\n      tag_427\n      jump\t// in\n    tag_505:\n        /* \"#utility.yul\":615:752   */\n      swap3\n      swap2\n      pop\n      pop\n      jump\t// out\n        /* \"#utility.yul\":758:1085   */\n    tag_36:\n        /* \"#utility.yul\":816:822   */\n      0x00\n        /* \"#utility.yul\":865:867   */\n      0x20\n        /* \"#utility.yul\":853:862   */\n      dup3\n        /* \"#utility.yul\":844:851   */\n      dup5\n        /* \"#utility.yul\":840:863   */\n      sub\n        /* \"#utility.yul\":836:868   */\n      slt\n        /* \"#utility.yul\":833:952   */\n      iszero\n      tag_507\n      jumpi\n        /* \"#utility.yul\":871:950   */\n      tag_508\n      tag_424\n      jump\t// in\n    tag_508:\n        /* \"#utility.yul\":833:952   */\n    tag_507:\n        /* \"#utility.yul\":991:992   */\n      0x00\n        /* \"#utility.yul\":1016:1068   */\n      tag_509\n        /* \"#utility.yul\":1060:1067   */\n      dup5\n        /* \"#utility.yul\":1051:1057   */\n      dup3\n        /* \"#utility.yul\":1040:1049   */\n      dup6\n        /* \"#utility.yul\":1036:1058   */\n      add\n        /* \"#utility.yul\":1016:1068   */\n      tag_428\n      jump\t// in\n    tag_509:\n        /* \"#utility.yul\":1006:1068   */\n      swap2\n      pop\n        /* \"#utility.yul\":962:1078   */\n      pop\n        /* \"#utility.yul\":758:1085   */\n      swap3\n      swap2\n      pop\n      pop\n      jump\t// out\n        /* \"#utility.yul\":1091:1181   */\n    tag_429:\n        /* \"#utility.yul\":1125:1132   */\n      0x00\n        /* \"#utility.yul\":1168:1173   */\n      dup2\n        /* \"#utility.yul\":1161:1174   */\n      iszero\n        /* \"#utility.yul\":1154:1175   */\n      iszero\n        /* \"#utility.yul\":1143:1175   */\n      swap1\n      pop\n        /* \"#utility.yul\":1091:1181   */\n      swap2\n      swap1\n      pop\n      jump\t// out\n        /* \"#utility.yul\":1187:1296   */\n    tag_430:\n        /* \"#utility.yul\":1268:1289   */\n      tag_512\n        /* \"#utility.yul\":1283:1288   */\n      dup2\n        /* \"#utility.yul\":1268:1289   */\n      tag_429\n      jump\t// in\n    tag_512:\n        /* \"#utility.yul\":1263:1266   */\n      dup3\n        /* \"#utility.yul\":1256:1290   */\n      mstore\n        /* \"#utility.yul\":1187:1296   */\n      pop\n      pop\n      jump\t// out\n        /* \"#utility.yul\":1302:1512   */\n    tag_39:\n        /* \"#utility.yul\":1389:1393   */\n      0x00\n        /* \"#utility.yul\":1427:1429   */\n      0x20\n        /* \"#utility.yul\":1416:1425   */\n      dup3\n        /* \"#utility.yul\":1412:1430   */\n      add\n        /* \"#utility.yul\":1404:1430   */\n      swap1\n      pop\n        /* \"#utility.yul\":1440:1505   */\n      tag_514\n        /* \"#utility.yul\":1502:1503   */\n      0x00\n        /* \"#utility.yul\":1491:1500   */\n      dup4\n        /* \"#utility.yul\":1487:1504   */\n      add\n        /* \"#utility.yul\":1478:1484   */\n      dup5\n        /* \"#utility.yul\":1440:1505   */\n      tag_430\n      jump\t// in\n    tag_514:\n        /* \"#utility.yul\":1302:1512   */\n      swap3\n      swap2\n      pop\n      pop\n      jump\t// out\n        /* \"#utility.yul\":1518:1617   */\n    tag_431:\n        /* \"#utility.yul\":1570:1576   */\n      0x00\n        /* \"#utility.yul\":1604:1609   */\n      dup2\n        /* \"#utility.yul\":1598:1610   */\n      mload\n        /* \"#utility.yul\":1588:1610   */\n      swap1\n      pop\n        /* \"#utility.yul\":1518:1617   */\n      swap2\n      swap1\n      pop\n      jump\t// out\n        /* \"#utility.yul\":1623:1792   */\n    tag_432:\n        /* \"#utility.yul\":1707:1718   */\n      0x00\n        /* \"#utility.yul\":1741:1747   */\n      dup3\n        /* \"#utility.yul\":1736:1739   */\n      dup3\n        /* \"#utility.yul\":1729:1748   */\n      mstore\n        /* \"#utility.yul\":1781:1785   */\n      0x20\n        /* \"#utility.yul\":1776:1779   */\n      dup3\n        /* \"#utility.yul\":1772:1786   */\n      add\n        /* \"#utility.yul\":1757:1786   */\n      swap1\n      pop\n        /* \"#utility.yul\":1623:1792   */\n      swap3\n      swap2\n      pop\n      pop\n      jump\t// out\n        /* \"#utility.yul\":1798:2044   */\n    tag_433:\n        /* \"#utility.yul\":1879:1880   */\n      0x00\n        /* \"#utility.yul\":1889:2002   */\n    tag_518:\n        /* \"#utility.yul\":1903:1909   */\n      dup4\n        /* \"#utility.yul\":1900:1901   */\n      dup2\n        /* \"#utility.yul\":1897:1910   */\n      lt\n        /* \"#utility.yul\":1889:2002   */\n      iszero\n      tag_520\n      jumpi\n        /* \"#utility.yul\":1988:1989   */\n      dup1\n        /* \"#utility.yul\":1983:1986   */\n      dup3\n        /* \"#utility.yul\":1979:1990   */\n      add\n        /* \"#utility.yul\":1973:1991   */\n      mload\n        /* \"#utility.yul\":1969:1970   */\n      dup2\n        /* \"#utility.yul\":1964:1967   */\n      dup5\n        /* \"#utility.yul\":1960:1971   */\n      add\n        /* \"#utility.yul\":1953:1992   */\n      mstore\n        /* \"#utility.yul\":1925:1927   */\n      0x20\n        /* \"#utility.yul\":1922:1923   */\n      dup2\n        /* \"#utility.yul\":1918:1928   */\n      add\n        /* \"#utility.yul\":1913:1928   */\n      swap1\n      pop\n        /* \"#utility.yul\":1889:2002   */\n      jump(tag_518)\n    tag_520:\n        /* \"#utility.yul\":2036:2037   */\n      0x00\n        /* \"#utility.yul\":2027:2033   */\n      dup5\n        /* \"#utility.yul\":2022:2025   */\n      dup5\n        /* \"#utility.yul\":2018:2034   */\n      add\n        /* \"#utility.yul\":2011:2038   */\n      mstore\n        /* \"#utility.yul\":1860:2044   */\n      pop\n        /* \"#utility.yul\":1798:2044   */\n      pop\n      pop\n      pop\n      jump\t// out\n        /* \"#utility.yul\":2050:2152   */\n    tag_434:\n        /* \"#utility.yul\":2091:2097   */\n      0x00\n        /* \"#utility.yul\":2142:2144   */\n      0x1f\n        /* \"#utility.yul\":2138:2145   */\n      not\n        /* \"#utility.yul\":2133:2135   */\n      0x1f\n        /* \"#utility.yul\":2126:2131   */\n      dup4\n        /* \"#utility.yul\":2122:2136   */\n      add\n        /* \"#utility.yul\":2118:2146   */\n      and\n        /* \"#utility.yul\":2108:2146   */\n      swap1\n      pop\n        /* \"#utility.yul\":2050:2152   */\n      swap2\n      swap1\n      pop\n      jump\t// out\n        /* \"#utility.yul\":2158:2535   */\n    tag_435:\n        /* \"#utility.yul\":2246:2249   */\n      0x00\n        /* \"#utility.yul\":2274:2313   */\n      tag_523\n        /* \"#utility.yul\":2307:2312   */\n      dup3\n        /* \"#utility.yul\":2274:2313   */\n      tag_431\n      jump\t// in\n    tag_523:\n        /* \"#utility.yul\":2329:2400   */\n      tag_524\n        /* \"#utility.yul\":2393:2399   */\n      dup2\n        /* \"#utility.yul\":2388:2391   */\n      dup6\n        /* \"#utility.yul\":2329:2400   */\n      tag_432\n      jump\t// in\n    tag_524:\n        /* \"#utility.yul\":2322:2400   */\n      swap4\n      pop\n        /* \"#utility.yul\":2409:2474   */\n      tag_525\n        /* \"#utility.yul\":2467:2473   */\n      dup2\n        /* \"#utility.yul\":2462:2465   */\n      dup6\n        /* \"#utility.yul\":2455:2459   */\n      0x20\n        /* \"#utility.yul\":2448:2453   */\n      dup7\n        /* \"#utility.yul\":2444:2460   */\n      add\n        /* \"#utility.yul\":2409:2474   */\n      tag_433\n      jump\t// in\n    tag_525:\n        /* \"#utility.yul\":2499:2528   */\n      tag_526\n        /* \"#utility.yul\":2521:2527   */\n      dup2\n        /* \"#utility.yul\":2499:2528   */\n      tag_434\n      jump\t// in\n    tag_526:\n        /* \"#utility.yul\":2494:2497   */\n      dup5\n        /* \"#utility.yul\":2490:2529   */\n      add\n        /* \"#utility.yul\":2483:2529   */\n      swap2\n      pop\n        /* \"#utility.yul\":2250:2535   */\n      pop\n        /* \"#utility.yul\":2158:2535   */\n      swap3\n      swap2\n      pop\n      pop\n      jump\t// out\n        /* \"#utility.yul\":2541:2854   */\n    tag_44:\n        /* \"#utility.yul\":2654:2658   */\n      0x00\n        /* \"#utility.yul\":2692:2694   */\n      0x20\n        /* \"#utility.yul\":2681:2690   */\n      dup3\n        /* \"#utility.yul\":2677:2695   */\n      add\n        /* \"#utility.yul\":2669:2695   */\n      swap1\n      pop\n        /* \"#utility.yul\":2741:2750   */\n      dup2\n        /* \"#utility.yul\":2735:2739   */\n      dup2\n        /* \"#utility.yul\":2731:2751   */\n      sub\n        /* \"#utility.yul\":2727:2728   */\n      0x00\n        /* \"#utility.yul\":2716:2725   */\n      dup4\n        /* \"#utility.yul\":2712:2729   */\n      add\n        /* \"#utility.yul\":2705:2752   */\n      mstore\n        /* \"#utility.yul\":2769:2847   */\n      tag_528\n        /* \"#utility.yul\":2842:2846   */\n      dup2\n        /* \"#utility.yul\":2833:2839   */\n      dup5\n        /* \"#utility.yul\":2769:2847   */\n      tag_435\n      jump\t// in\n    tag_528:\n        /* \"#utility.yul\":2761:2847   */\n      swap1\n      pop\n        /* \"#utility.yul\":2541:2854   */\n      swap3\n      swap2\n      pop\n      pop\n      jump\t// out\n        /* \"#utility.yul\":2860:2937   */\n    tag_436:\n        /* \"#utility.yul\":2897:2904   */\n      0x00\n        /* \"#utility.yul\":2926:2931   */\n      dup2\n        /* \"#utility.yul\":2915:2931   */\n      swap1\n      pop\n        /* \"#utility.yul\":2860:2937   */\n      swap2\n      swap1\n      pop\n      jump\t// out\n        /* \"#utility.yul\":2943:3065   */\n    tag_437:\n        /* \"#utility.yul\":3016:3040   */\n      tag_531\n        /* \"#utility.yul\":3034:3039   */\n      dup2\n        /* \"#utility.yul\":3016:3040   */\n      tag_436\n      jump\t// in\n    tag_531:\n        /* \"#utility.yul\":3009:3014   */\n      dup2\n        /* \"#utility.yul\":3006:3041   */\n      eq\n        /* \"#utility.yul\":2996:3059   */\n      tag_532\n      jumpi\n        /* \"#utility.yul\":3055:3056   */\n      0x00\n        /* \"#utility.yul\":3052:3053   */\n      dup1\n        /* \"#utility.yul\":3045:3057   */\n      revert\n        /* \"#utility.yul\":2996:3059   */\n    tag_532:\n        /* \"#utility.yul\":2943:3065   */\n      pop\n      jump\t// out\n        /* \"#utility.yul\":3071:3210   */\n    tag_438:\n        /* \"#utility.yul\":3117:3122   */\n      0x00\n        /* \"#utility.yul\":3155:3161   */\n      dup2\n        /* \"#utility.yul\":3142:3162   */\n      calldataload\n        /* \"#utility.yul\":3133:3162   */\n      swap1\n      pop\n        /* \"#utility.yul\":3171:3204   */\n      tag_534\n        /* \"#utility.yul\":3198:3203   */\n      dup2\n        /* \"#utility.yul\":3171:3204   */\n      tag_437\n      jump\t// in\n    tag_534:\n        /* \"#utility.yul\":3071:3210   */\n      swap3\n      swap2\n      pop\n      pop\n      jump\t// out\n        /* \"#utility.yul\":3216:3545   */\n    tag_48:\n        /* \"#utility.yul\":3275:3281   */\n      0x00\n        /* \"#utility.yul\":3324:3326   */\n      0x20\n        /* \"#utility.yul\":3312:3321   */\n      dup3\n        /* \"#utility.yul\":3303:3310   */\n      dup5\n        /* \"#utility.yul\":3299:3322   */\n      sub\n        /* \"#utility.yul\":3295:3327   */\n      slt\n        /* \"#utility.yul\":3292:3411   */\n      iszero\n      tag_536\n      jumpi\n        /* \"#utility.yul\":3330:3409   */\n      tag_537\n      tag_424\n      jump\t// in\n    tag_537:\n        /* \"#utility.yul\":3292:3411   */\n    tag_536:\n        /* \"#utility.yul\":3450:3451   */\n      0x00\n        /* \"#utility.yul\":3475:3528   */\n      tag_538\n        /* \"#utility.yul\":3520:3527   */\n      dup5\n        /* \"#utility.yul\":3511:3517   */\n      dup3\n        /* \"#utility.yul\":3500:3509   */\n      dup6\n        /* \"#utility.yul\":3496:3518   */\n      add\n        /* \"#utility.yul\":3475:3528   */\n      tag_438\n      jump\t// in\n    tag_538:\n        /* \"#utility.yul\":3465:3528   */\n      swap2\n      pop\n        /* \"#utility.yul\":3421:3538   */\n      pop\n        /* \"#utility.yul\":3216:3545   */\n      swap3\n      swap2\n      pop\n      pop\n      jump\t// out\n        /* \"#utility.yul\":3551:3677   */\n    tag_439:\n        /* \"#utility.yul\":3588:3595   */\n      0x00\n        /* \"#utility.yul\":3628:3670   */\n      0xffffffffffffffffffffffffffffffffffffffff\n        /* \"#utility.yul\":3621:3626   */\n      dup3\n        /* \"#utility.yul\":3617:3671   */\n      and\n        /* \"#utility.yul\":3606:3671   */\n      swap1\n      pop\n        /* \"#utility.yul\":3551:3677   */\n      swap2\n      swap1\n      pop\n      jump\t// out\n        /* \"#utility.yul\":3683:3779   */\n    tag_440:\n        /* \"#utility.yul\":3720:3727   */\n      0x00\n        /* \"#utility.yul\":3749:3773   */\n      tag_541\n        /* \"#utility.yul\":3767:3772   */\n      dup3\n        /* \"#utility.yul\":3749:3773   */\n      tag_439\n      jump\t// in\n    tag_541:\n        /* \"#utility.yul\":3738:3773   */\n      swap1\n      pop\n        /* \"#utility.yul\":3683:3779   */\n      swap2\n      swap1\n      pop\n      jump\t// out\n        /* \"#utility.yul\":3785:3903   */\n    tag_441:\n        /* \"#utility.yul\":3872:3896   */\n      tag_543\n        /* \"#utility.yul\":3890:3895   */\n      dup2\n        /* \"#utility.yul\":3872:3896   */\n      tag_440\n      jump\t// in\n    tag_543:\n        /* \"#utility.yul\":3867:3870   */\n      dup3\n        /* \"#utility.yul\":3860:3897   */\n      mstore\n        /* \"#utility.yul\":3785:3903   */\n      pop\n      pop\n      jump\t// out\n        /* \"#utility.yul\":3909:4131   */\n    tag_51:\n        /* \"#utility.yul\":4002:4006   */\n      0x00\n        /* \"#utility.yul\":4040:4042   */\n      0x20\n        /* \"#utility.yul\":4029:4038   */\n      dup3\n        /* \"#utility.yul\":4025:4043   */\n      add\n        /* \"#utility.yul\":4017:4043   */\n      swap1\n      pop\n        /* \"#utility.yul\":4053:4124   */\n      tag_545\n        /* \"#utility.yul\":4121:4122   */\n      0x00\n        /* \"#utility.yul\":4110:4119   */\n      dup4\n        /* \"#utility.yul\":4106:4123   */\n      add\n        /* \"#utility.yul\":4097:4103   */\n      dup5\n        /* \"#utility.yul\":4053:4124   */\n      tag_441\n      jump\t// in\n    tag_545:\n        /* \"#utility.yul\":3909:4131   */\n      swap3\n      swap2\n      pop\n      pop\n      jump\t// out\n        /* \"#utility.yul\":4137:4259   */\n    tag_442:\n        /* \"#utility.yul\":4210:4234   */\n      tag_547\n        /* \"#utility.yul\":4228:4233   */\n      dup2\n        /* \"#utility.yul\":4210:4234   */\n      tag_440\n      jump\t// in\n    tag_547:\n        /* \"#utility.yul\":4203:4208   */\n      dup2\n        /* \"#utility.yul\":4200:4235   */\n      eq\n        /* \"#utility.yul\":4190:4253   */\n      tag_548\n      jumpi\n        /* \"#utility.yul\":4249:4250   */\n      0x00\n        /* \"#utility.yul\":4246:4247   */\n      dup1\n        /* \"#utility.yul\":4239:4251   */\n      revert\n        /* \"#utility.yul\":4190:4253   */\n    tag_548:\n        /* \"#utility.yul\":4137:4259   */\n      pop\n      jump\t// out\n        /* \"#utility.yul\":4265:4404   */\n    tag_443:\n        /* \"#utility.yul\":4311:4316   */\n      0x00\n        /* \"#utility.yul\":4349:4355   */\n      dup2\n        /* \"#utility.yul\":4336:4356   */\n      calldataload\n        /* \"#utility.yul\":4327:4356   */\n      swap1\n      pop\n        /* \"#utility.yul\":4365:4398   */\n      tag_550\n        /* \"#utility.yul\":4392:4397   */\n      dup2\n        /* \"#utility.yul\":4365:4398   */\n      tag_442\n      jump\t// in\n    tag_550:\n        /* \"#utility.yul\":4265:4404   */\n      swap3\n      swap2\n      pop\n      pop\n      jump\t// out\n        /* \"#utility.yul\":4410:4884   */\n    tag_54:\n        /* \"#utility.yul\":4478:4484   */\n      0x00\n        /* \"#utility.yul\":4486:4492   */\n      dup1\n        /* \"#utility.yul\":4535:4537   */\n      0x40\n        /* \"#utility.yul\":4523:4532   */\n      dup4\n        /* \"#utility.yul\":4514:4521   */\n      dup6\n        /* \"#utility.yul\":4510:4533   */\n      sub\n        /* \"#utility.yul\":4506:4538   */\n      slt\n        /* \"#utility.yul\":4503:4622   */\n      iszero\n      tag_552\n      jumpi\n        /* \"#utility.yul\":4541:4620   */\n      tag_553\n      tag_424\n      jump\t// in\n    tag_553:\n        /* \"#utility.yul\":4503:4622   */\n    tag_552:\n        /* \"#utility.yul\":4661:4662   */\n      0x00\n        /* \"#utility.yul\":4686:4739   */\n      tag_554\n        /* \"#utility.yul\":4731:4738   */\n      dup6\n        /* \"#utility.yul\":4722:4728   */\n      dup3\n        /* \"#utility.yul\":4711:4720   */\n      dup7\n        /* \"#utility.yul\":4707:4729   */\n      add\n        /* \"#utility.yul\":4686:4739   */\n      tag_443\n      jump\t// in\n    tag_554:\n        /* \"#utility.yul\":4676:4739   */\n      swap3\n      pop\n        /* \"#utility.yul\":4632:4749   */\n      pop\n        /* \"#utility.yul\":4788:4790   */\n      0x20\n        /* \"#utility.yul\":4814:4867   */\n      tag_555\n        /* \"#utility.yul\":4859:4866   */\n      dup6\n        /* \"#utility.yul\":4850:4856   */\n      dup3\n        /* \"#utility.yul\":4839:4848   */\n      dup7\n        /* \"#utility.yul\":4835:4857   */\n      add\n        /* \"#utility.yul\":4814:4867   */\n      tag_438\n      jump\t// in\n    tag_555:\n        /* \"#utility.yul\":4804:4867   */\n      swap2\n      pop\n        /* \"#utility.yul\":4759:4877   */\n      pop\n        /* \"#utility.yul\":4410:4884   */\n      swap3\n      pop\n      swap3\n      swap1\n      pop\n      jump\t// out\n        /* \"#utility.yul\":4890:5007   */\n    tag_444:\n        /* \"#utility.yul\":4999:5000   */\n      0x00\n        /* \"#utility.yul\":4996:4997   */\n      dup1\n        /* \"#utility.yul\":4989:5001   */\n      revert\n        /* \"#utility.yul\":5013:5130   */\n    tag_445:\n        /* \"#utility.yul\":5122:5123   */\n      0x00\n        /* \"#utility.yul\":5119:5120   */\n      dup1\n        /* \"#utility.yul\":5112:5124   */\n      revert\n        /* \"#utility.yul\":5136:5316   */\n    tag_446:\n        /* \"#utility.yul\":5184:5261   */\n      0x4e487b7100000000000000000000000000000000000000000000000000000000\n        /* \"#utility.yul\":5181:5182   */\n      0x00\n        /* \"#utility.yul\":5174:5262   */\n      mstore\n        /* \"#utility.yul\":5281:5285   */\n      0x41\n        /* \"#utility.yul\":5278:5279   */\n      0x04\n        /* \"#utility.yul\":5271:5286   */\n      mstore\n        /* \"#utility.yul\":5305:5309   */\n      0x24\n        /* \"#utility.yul\":5302:5303   */\n      0x00\n        /* \"#utility.yul\":5295:5310   */\n      revert\n        /* \"#utility.yul\":5322:5603   */\n    tag_447:\n        /* \"#utility.yul\":5405:5432   */\n      tag_560\n        /* \"#utility.yul\":5427:5431   */\n      dup3\n        /* \"#utility.yul\":5405:5432   */\n      tag_434\n      jump\t// in\n    tag_560:\n        /* \"#utility.yul\":5397:5403   */\n      dup2\n        /* \"#utility.yul\":5393:5433   */\n      add\n        /* \"#utility.yul\":5535:5541   */\n      dup2\n        /* \"#utility.yul\":5523:5533   */\n      dup2\n        /* \"#utility.yul\":5520:5542   */\n      lt\n        /* \"#utility.yul\":5499:5517   */\n      0xffffffffffffffff\n        /* \"#utility.yul\":5487:5497   */\n      dup3\n        /* \"#utility.yul\":5484:5518   */\n      gt\n        /* \"#utility.yul\":5481:5543   */\n      or\n        /* \"#utility.yul\":5478:5566   */\n      iszero\n      tag_561\n      jumpi\n        /* \"#utility.yul\":5546:5564   */\n      tag_562\n      tag_446\n      jump\t// in\n    tag_562:\n        /* \"#utility.yul\":5478:5566   */\n    tag_561:\n        /* \"#utility.yul\":5586:5596   */\n      dup1\n        /* \"#utility.yul\":5582:5584   */\n      0x40\n        /* \"#utility.yul\":5575:5597   */\n      mstore\n        /* \"#utility.yul\":5365:5603   */\n      pop\n        /* \"#utility.yul\":5322:5603   */\n      pop\n      pop\n      jump\t// out\n        /* \"#utility.yul\":5609:5738   */\n    tag_448:\n        /* \"#utility.yul\":5643:5649   */\n      0x00\n        /* \"#utility.yul\":5670:5690   */\n      tag_564\n      tag_423\n      jump\t// in\n    tag_564:\n        /* \"#utility.yul\":5660:5690   */\n      swap1\n      pop\n        /* \"#utility.yul\":5699:5732   */\n      tag_565\n        /* \"#utility.yul\":5727:5731   */\n      dup3\n        /* \"#utility.yul\":5719:5725   */\n      dup3\n        /* \"#utility.yul\":5699:5732   */\n      tag_447\n      jump\t// in\n    tag_565:\n        /* \"#utility.yul\":5609:5738   */\n      swap2\n      swap1\n      pop\n      jump\t// out\n        /* \"#utility.yul\":5744:6052   */\n    tag_449:\n        /* \"#utility.yul\":5806:5810   */\n      0x00\n        /* \"#utility.yul\":5896:5914   */\n      0xffffffffffffffff\n        /* \"#utility.yul\":5888:5894   */\n      dup3\n        /* \"#utility.yul\":5885:5915   */\n      gt\n        /* \"#utility.yul\":5882:5938   */\n      iszero\n      tag_567\n      jumpi\n        /* \"#utility.yul\":5918:5936   */\n      tag_568\n      tag_446\n      jump\t// in\n    tag_568:\n        /* \"#utility.yul\":5882:5938   */\n    tag_567:\n        /* \"#utility.yul\":5956:5985   */\n      tag_569\n        /* \"#utility.yul\":5978:5984   */\n      dup3\n        /* \"#utility.yul\":5956:5985   */\n      tag_434\n      jump\t// in\n    tag_569:\n        /* \"#utility.yul\":5948:5985   */\n      swap1\n      pop\n        /* \"#utility.yul\":6040:6044   */\n      0x20\n        /* \"#utility.yul\":6034:6038   */\n      dup2\n        /* \"#utility.yul\":6030:6045   */\n      add\n        /* \"#utility.yul\":6022:6045   */\n      swap1\n      pop\n        /* \"#utility.yul\":5744:6052   */\n      swap2\n      swap1\n      pop\n      jump\t// out\n        /* \"#utility.yul\":6058:6204   */\n    tag_450:\n        /* \"#utility.yul\":6155:6161   */\n      dup3\n        /* \"#utility.yul\":6150:6153   */\n      dup2\n        /* \"#utility.yul\":6145:6148   */\n      dup4\n        /* \"#utility.yul\":6132:6162   */\n      calldatacopy\n        /* \"#utility.yul\":6196:6197   */\n      0x00\n        /* \"#utility.yul\":6187:6193   */\n      dup4\n        /* \"#utility.yul\":6182:6185   */\n      dup4\n        /* \"#utility.yul\":6178:6194   */\n      add\n        /* \"#utility.yul\":6171:6198   */\n      mstore\n        /* \"#utility.yul\":6058:6204   */\n      pop\n      pop\n      pop\n      jump\t// out\n        /* \"#utility.yul\":6210:6635   */\n    tag_451:\n        /* \"#utility.yul\":6288:6293   */\n      0x00\n        /* \"#utility.yul\":6313:6379   */\n      tag_572\n        /* \"#utility.yul\":6329:6378   */\n      tag_573\n        /* \"#utility.yul\":6371:6377   */\n      dup5\n        /* \"#utility.yul\":6329:6378   */\n      tag_449\n      jump\t// in\n    tag_573:\n        /* \"#utility.yul\":6313:6379   */\n      tag_448\n      jump\t// in\n    tag_572:\n        /* \"#utility.yul\":6304:6379   */\n      swap1\n      pop\n        /* \"#utility.yul\":6402:6408   */\n      dup3\n        /* \"#utility.yul\":6395:6400   */\n      dup2\n        /* \"#utility.yul\":6388:6409   */\n      mstore\n        /* \"#utility.yul\":6440:6444   */\n      0x20\n        /* \"#utility.yul\":6433:6438   */\n      dup2\n        /* \"#utility.yul\":6429:6445   */\n      add\n        /* \"#utility.yul\":6478:6481   */\n      dup5\n        /* \"#utility.yul\":6469:6475   */\n      dup5\n        /* \"#utility.yul\":6464:6467   */\n      dup5\n        /* \"#utility.yul\":6460:6476   */\n      add\n        /* \"#utility.yul\":6457:6482   */\n      gt\n        /* \"#utility.yul\":6454:6566   */\n      iszero\n      tag_574\n      jumpi\n        /* \"#utility.yul\":6485:6564   */\n      tag_575\n      tag_445\n      jump\t// in\n    tag_575:\n        /* \"#utility.yul\":6454:6566   */\n    tag_574:\n        /* \"#utility.yul\":6575:6629   */\n      tag_576\n        /* \"#utility.yul\":6622:6628   */\n      dup5\n        /* \"#utility.yul\":6617:6620   */\n      dup3\n        /* \"#utility.yul\":6612:6615   */\n      dup6\n        /* \"#utility.yul\":6575:6629   */\n      tag_450\n      jump\t// in\n    tag_576:\n        /* \"#utility.yul\":6294:6635   */\n      pop\n        /* \"#utility.yul\":6210:6635   */\n      swap4\n      swap3\n      pop\n      pop\n      pop\n      jump\t// out\n        /* \"#utility.yul\":6655:6995   */\n    tag_452:\n        /* \"#utility.yul\":6711:6716   */\n      0x00\n        /* \"#utility.yul\":6760:6763   */\n      dup3\n        /* \"#utility.yul\":6753:6757   */\n      0x1f\n        /* \"#utility.yul\":6745:6751   */\n      dup4\n        /* \"#utility.yul\":6741:6758   */\n      add\n        /* \"#utility.yul\":6737:6764   */\n      slt\n        /* \"#utility.yul\":6727:6849   */\n      tag_578\n      jumpi\n        /* \"#utility.yul\":6768:6847   */\n      tag_579\n      tag_444\n      jump\t// in\n    tag_579:\n        /* \"#utility.yul\":6727:6849   */\n    tag_578:\n        /* \"#utility.yul\":6885:6891   */\n      dup2\n        /* \"#utility.yul\":6872:6892   */\n      calldataload\n        /* \"#utility.yul\":6910:6989   */\n      tag_580\n        /* \"#utility.yul\":6985:6988   */\n      dup5\n        /* \"#utility.yul\":6977:6983   */\n      dup3\n        /* \"#utility.yul\":6970:6974   */\n      0x20\n        /* \"#utility.yul\":6962:6968   */\n      dup7\n        /* \"#utility.yul\":6958:6975   */\n      add\n        /* \"#utility.yul\":6910:6989   */\n      tag_451\n      jump\t// in\n    tag_580:\n        /* \"#utility.yul\":6901:6989   */\n      swap2\n      pop\n        /* \"#utility.yul\":6717:6995   */\n      pop\n        /* \"#utility.yul\":6655:6995   */\n      swap3\n      swap2\n      pop\n      pop\n      jump\t// out\n        /* \"#utility.yul\":7001:7510   */\n    tag_59:\n        /* \"#utility.yul\":7070:7076   */\n      0x00\n        /* \"#utility.yul\":7119:7121   */\n      0x20\n        /* \"#utility.yul\":7107:7116   */\n      dup3\n        /* \"#utility.yul\":7098:7105   */\n      dup5\n        /* \"#utility.yul\":7094:7117   */\n      sub\n        /* \"#utility.yul\":7090:7122   */\n      slt\n        /* \"#utility.yul\":7087:7206   */\n      iszero\n      tag_582\n      jumpi\n        /* \"#utility.yul\":7125:7204   */\n      tag_583\n      tag_424\n      jump\t// in\n    tag_583:\n        /* \"#utility.yul\":7087:7206   */\n    tag_582:\n        /* \"#utility.yul\":7273:7274   */\n      0x00\n        /* \"#utility.yul\":7262:7271   */\n      dup3\n        /* \"#utility.yul\":7258:7275   */\n      add\n        /* \"#utility.yul\":7245:7276   */\n      calldataload\n        /* \"#utility.yul\":7303:7321   */\n      0xffffffffffffffff\n        /* \"#utility.yul\":7295:7301   */\n      dup2\n        /* \"#utility.yul\":7292:7322   */\n      gt\n        /* \"#utility.yul\":7289:7406   */\n      iszero\n      tag_584\n      jumpi\n        /* \"#utility.yul\":7325:7404   */\n      tag_585\n      tag_425\n      jump\t// in\n    tag_585:\n        /* \"#utility.yul\":7289:7406   */\n    tag_584:\n        /* \"#utility.yul\":7430:7493   */\n      tag_586\n        /* \"#utility.yul\":7485:7492   */\n      dup5\n        /* \"#utility.yul\":7476:7482   */\n      dup3\n        /* \"#utility.yul\":7465:7474   */\n      dup6\n        /* \"#utility.yul\":7461:7483   */\n      add\n        /* \"#utility.yul\":7430:7493   */\n      tag_452\n      jump\t// in\n    tag_586:\n        /* \"#utility.yul\":7420:7493   */\n      swap2\n      pop\n        /* \"#utility.yul\":7216:7503   */\n      pop\n        /* \"#utility.yul\":7001:7510   */\n      swap3\n      swap2\n      pop\n      pop\n      jump\t// out\n        /* \"#utility.yul\":7516:7634   */\n    tag_453:\n        /* \"#utility.yul\":7603:7627   */\n      tag_588\n        /* \"#utility.yul\":7621:7626   */\n      dup2\n        /* \"#utility.yul\":7603:7627   */\n      tag_436\n      jump\t// in\n    tag_588:\n        /* \"#utility.yul\":7598:7601   */\n      dup3\n        /* \"#utility.yul\":7591:7628   */\n      mstore\n        /* \"#utility.yul\":7516:7634   */\n      pop\n      pop\n      jump\t// out\n        /* \"#utility.yul\":7640:7862   */\n    tag_65:\n        /* \"#utility.yul\":7733:7737   */\n      0x00\n        /* \"#utility.yul\":7771:7773   */\n      0x20\n        /* \"#utility.yul\":7760:7769   */\n      dup3\n        /* \"#utility.yul\":7756:7774   */\n      add\n        /* \"#utility.yul\":7748:7774   */\n      swap1\n      pop\n        /* \"#utility.yul\":7784:7855   */\n      tag_590\n        /* \"#utility.yul\":7852:7853   */\n      0x00\n        /* \"#utility.yul\":7841:7850   */\n      dup4\n        /* \"#utility.yul\":7837:7854   */\n      add\n        /* \"#utility.yul\":7828:7834   */\n      dup5\n        /* \"#utility.yul\":7784:7855   */\n      tag_453\n      jump\t// in\n    tag_590:\n        /* \"#utility.yul\":7640:7862   */\n      swap3\n      swap2\n      pop\n      pop\n      jump\t// out\n        /* \"#utility.yul\":7868:8487   */\n    tag_68:\n        /* \"#utility.yul\":7945:7951   */\n      0x00\n        /* \"#utility.yul\":7953:7959   */\n      dup1\n        /* \"#utility.yul\":7961:7967   */\n      0x00\n        /* \"#utility.yul\":8010:8012   */\n      0x60\n        /* \"#utility.yul\":7998:8007   */\n      dup5\n        /* \"#utility.yul\":7989:7996   */\n      dup7\n        /* \"#utility.yul\":7985:8008   */\n      sub\n        /* \"#utility.yul\":7981:8013   */\n      slt\n        /* \"#utility.yul\":7978:8097   */\n      iszero\n      tag_592\n      jumpi\n        /* \"#utility.yul\":8016:8095   */\n      tag_593\n      tag_424\n      jump\t// in\n    tag_593:\n        /* \"#utility.yul\":7978:8097   */\n    tag_592:\n        /* \"#utility.yul\":8136:8137   */\n      0x00\n        /* \"#utility.yul\":8161:8214   */\n      tag_594\n        /* \"#utility.yul\":8206:8213   */\n      dup7\n        /* \"#utility.yul\":8197:8203   */\n      dup3\n        /* \"#utility.yul\":8186:8195   */\n      dup8\n        /* \"#utility.yul\":8182:8204   */\n      add\n        /* \"#utility.yul\":8161:8214   */\n      tag_443\n      jump\t// in\n    tag_594:\n        /* \"#utility.yul\":8151:8214   */\n      swap4\n      pop\n        /* \"#utility.yul\":8107:8224   */\n      pop\n        /* \"#utility.yul\":8263:8265   */\n      0x20\n        /* \"#utility.yul\":8289:8342   */\n      tag_595\n        /* \"#utility.yul\":8334:8341   */\n      dup7\n        /* \"#utility.yul\":8325:8331   */\n      dup3\n        /* \"#utility.yul\":8314:8323   */\n      dup8\n        /* \"#utility.yul\":8310:8332   */\n      add\n        /* \"#utility.yul\":8289:8342   */\n      tag_443\n      jump\t// in\n    tag_595:\n        /* \"#utility.yul\":8279:8342   */\n      swap3\n      pop\n        /* \"#utility.yul\":8234:8352   */\n      pop\n        /* \"#utility.yul\":8391:8393   */\n      0x40\n        /* \"#utility.yul\":8417:8470   */\n      tag_596\n        /* \"#utility.yul\":8462:8469   */\n      dup7\n        /* \"#utility.yul\":8453:8459   */\n      dup3\n        /* \"#utility.yul\":8442:8451   */\n      dup8\n        /* \"#utility.yul\":8438:8460   */\n      add\n        /* \"#utility.yul\":8417:8470   */\n      tag_438\n      jump\t// in\n    tag_596:\n        /* \"#utility.yul\":8407:8470   */\n      swap2\n      pop\n        /* \"#utility.yul\":8362:8480   */\n      pop\n        /* \"#utility.yul\":7868:8487   */\n      swap3\n      pop\n      swap3\n      pop\n      swap3\n      jump\t// out\n        /* \"#utility.yul\":8493:8607   */\n    tag_454:\n        /* \"#utility.yul\":8560:8566   */\n      0x00\n        /* \"#utility.yul\":8594:8599   */\n      dup2\n        /* \"#utility.yul\":8588:8600   */\n      mload\n        /* \"#utility.yul\":8578:8600   */\n      swap1\n      pop\n        /* \"#utility.yul\":8493:8607   */\n      swap2\n      swap1\n      pop\n      jump\t// out\n        /* \"#utility.yul\":8613:8797   */\n    tag_455:\n        /* \"#utility.yul\":8712:8723   */\n      0x00\n        /* \"#utility.yul\":8746:8752   */\n      dup3\n        /* \"#utility.yul\":8741:8744   */\n      dup3\n        /* \"#utility.yul\":8734:8753   */\n      mstore\n        /* \"#utility.yul\":8786:8790   */\n      0x20\n        /* \"#utility.yul\":8781:8784   */\n      dup3\n        /* \"#utility.yul\":8777:8791   */\n      add\n        /* \"#utility.yul\":8762:8791   */\n      swap1\n      pop\n        /* \"#utility.yul\":8613:8797   */\n      swap3\n      swap2\n      pop\n      pop\n      jump\t// out\n        /* \"#utility.yul\":8803:8935   */\n    tag_456:\n        /* \"#utility.yul\":8870:8874   */\n      0x00\n        /* \"#utility.yul\":8893:8896   */\n      dup2\n        /* \"#utility.yul\":8885:8896   */\n      swap1\n      pop\n        /* \"#utility.yul\":8923:8927   */\n      0x20\n        /* \"#utility.yul\":8918:8921   */\n      dup3\n        /* \"#utility.yul\":8914:8928   */\n      add\n        /* \"#utility.yul\":8906:8928   */\n      swap1\n      pop\n        /* \"#utility.yul\":8803:8935   */\n      swap2\n      swap1\n      pop\n      jump\t// out\n        /* \"#utility.yul\":8941:9049   */\n    tag_457:\n        /* \"#utility.yul\":9018:9042   */\n      tag_601\n        /* \"#utility.yul\":9036:9041   */\n      dup2\n        /* \"#utility.yul\":9018:9042   */\n      tag_436\n      jump\t// in\n    tag_601:\n        /* \"#utility.yul\":9013:9016   */\n      dup3\n        /* \"#utility.yul\":9006:9043   */\n      mstore\n        /* \"#utility.yul\":8941:9049   */\n      pop\n      pop\n      jump\t// out\n        /* \"#utility.yul\":9055:9234   */\n    tag_458:\n        /* \"#utility.yul\":9124:9134   */\n      0x00\n        /* \"#utility.yul\":9145:9191   */\n      tag_603\n        /* \"#utility.yul\":9187:9190   */\n      dup4\n        /* \"#utility.yul\":9179:9185   */\n      dup4\n        /* \"#utility.yul\":9145:9191   */\n      tag_457\n      jump\t// in\n    tag_603:\n        /* \"#utility.yul\":9223:9227   */\n      0x20\n        /* \"#utility.yul\":9218:9221   */\n      dup4\n        /* \"#utility.yul\":9214:9228   */\n      add\n        /* \"#utility.yul\":9200:9228   */\n      swap1\n      pop\n        /* \"#utility.yul\":9055:9234   */\n      swap3\n      swap2\n      pop\n      pop\n      jump\t// out\n        /* \"#utility.yul\":9240:9353   */\n    tag_459:\n        /* \"#utility.yul\":9310:9314   */\n      0x00\n        /* \"#utility.yul\":9342:9346   */\n      0x20\n        /* \"#utility.yul\":9337:9340   */\n      dup3\n        /* \"#utility.yul\":9333:9347   */\n      add\n        /* \"#utility.yul\":9325:9347   */\n      swap1\n      pop\n        /* \"#utility.yul\":9240:9353   */\n      swap2\n      swap1\n      pop\n      jump\t// out\n        /* \"#utility.yul\":9389:10121   */\n    tag_460:\n        /* \"#utility.yul\":9508:9511   */\n      0x00\n        /* \"#utility.yul\":9537:9591   */\n      tag_606\n        /* \"#utility.yul\":9585:9590   */\n      dup3\n        /* \"#utility.yul\":9537:9591   */\n      tag_454\n      jump\t// in\n    tag_606:\n        /* \"#utility.yul\":9607:9693   */\n      tag_607\n        /* \"#utility.yul\":9686:9692   */\n      dup2\n        /* \"#utility.yul\":9681:9684   */\n      dup6\n        /* \"#utility.yul\":9607:9693   */\n      tag_455\n      jump\t// in\n    tag_607:\n        /* \"#utility.yul\":9600:9693   */\n      swap4\n      pop\n        /* \"#utility.yul\":9717:9773   */\n      tag_608\n        /* \"#utility.yul\":9767:9772   */\n      dup4\n        /* \"#utility.yul\":9717:9773   */\n      tag_456\n      jump\t// in\n    tag_608:\n        /* \"#utility.yul\":9796:9803   */\n      dup1\n        /* \"#utility.yul\":9827:9828   */\n      0x00\n        /* \"#utility.yul\":9812:10096   */\n    tag_609:\n        /* \"#utility.yul\":9837:9843   */\n      dup4\n        /* \"#utility.yul\":9834:9835   */\n      dup2\n        /* \"#utility.yul\":9831:9844   */\n      lt\n        /* \"#utility.yul\":9812:10096   */\n      iszero\n      tag_611\n      jumpi\n        /* \"#utility.yul\":9913:9919   */\n      dup2\n        /* \"#utility.yul\":9907:9920   */\n      mload\n        /* \"#utility.yul\":9940:10003   */\n      tag_612\n        /* \"#utility.yul\":9999:10002   */\n      dup9\n        /* \"#utility.yul\":9984:9997   */\n      dup3\n        /* \"#utility.yul\":9940:10003   */\n      tag_458\n      jump\t// in\n    tag_612:\n        /* \"#utility.yul\":9933:10003   */\n      swap8\n      pop\n        /* \"#utility.yul\":10026:10086   */\n      tag_613\n        /* \"#utility.yul\":10079:10085   */\n      dup4\n        /* \"#utility.yul\":10026:10086   */\n      tag_459\n      jump\t// in\n    tag_613:\n        /* \"#utility.yul\":10016:10086   */\n      swap3\n      pop\n        /* \"#utility.yul\":9872:10096   */\n      pop\n        /* \"#utility.yul\":9859:9860   */\n      0x01\n        /* \"#utility.yul\":9856:9857   */\n      dup2\n        /* \"#utility.yul\":9852:9861   */\n      add\n        /* \"#utility.yul\":9847:9861   */\n      swap1\n      pop\n        /* \"#utility.yul\":9812:10096   */\n      jump(tag_609)\n    tag_611:\n        /* \"#utility.yul\":9816:9830   */\n      pop\n        /* \"#utility.yul\":10112:10115   */\n      dup6\n        /* \"#utility.yul\":10105:10115   */\n      swap4\n      pop\n        /* \"#utility.yul\":9513:10121   */\n      pop\n      pop\n      pop\n        /* \"#utility.yul\":9389:10121   */\n      swap3\n      swap2\n      pop\n      pop\n      jump\t// out\n        /* \"#utility.yul\":10127:10500   */\n    tag_81:\n        /* \"#utility.yul\":10270:10274   */\n      0x00\n        /* \"#utility.yul\":10308:10310   */\n      0x20\n        /* \"#utility.yul\":10297:10306   */\n      dup3\n        /* \"#utility.yul\":10293:10311   */\n      add\n        /* \"#utility.yul\":10285:10311   */\n      swap1\n      pop\n        /* \"#utility.yul\":10357:10366   */\n      dup2\n        /* \"#utility.yul\":10351:10355   */\n      dup2\n        /* \"#utility.yul\":10347:10367   */\n      sub\n        /* \"#utility.yul\":10343:10344   */\n      0x00\n        /* \"#utility.yul\":10332:10341   */\n      dup4\n        /* \"#utility.yul\":10328:10345   */\n      add\n        /* \"#utility.yul\":10321:10368   */\n      mstore\n        /* \"#utility.yul\":10385:10493   */\n      tag_615\n        /* \"#utility.yul\":10488:10492   */\n      dup2\n        /* \"#utility.yul\":10479:10485   */\n      dup5\n        /* \"#utility.yul\":10385:10493   */\n      tag_460\n      jump\t// in\n    tag_615:\n        /* \"#utility.yul\":10377:10493   */\n      swap1\n      pop\n        /* \"#utility.yul\":10127:10500   */\n      swap3\n      swap2\n      pop\n      pop\n      jump\t// out\n        /* \"#utility.yul\":10506:10835   */\n    tag_98:\n        /* \"#utility.yul\":10565:10571   */\n      0x00\n        /* \"#utility.yul\":10614:10616   */\n      0x20\n        /* \"#utility.yul\":10602:10611   */\n      dup3\n        /* \"#utility.yul\":10593:10600   */\n      dup5\n        /* \"#utility.yul\":10589:10612   */\n      sub\n        /* \"#utility.yul\":10585:10617   */\n      slt\n        /* \"#utility.yul\":10582:10701   */\n      iszero\n      tag_617\n      jumpi\n        /* \"#utility.yul\":10620:10699   */\n      tag_618\n      tag_424\n      jump\t// in\n    tag_618:\n        /* \"#utility.yul\":10582:10701   */\n    tag_617:\n        /* \"#utility.yul\":10740:10741   */\n      0x00\n        /* \"#utility.yul\":10765:10818   */\n      tag_619\n        /* \"#utility.yul\":10810:10817   */\n      dup5\n        /* \"#utility.yul\":10801:10807   */\n      dup3\n        /* \"#utility.yul\":10790:10799   */\n      dup6\n        /* \"#utility.yul\":10786:10808   */\n      add\n        /* \"#utility.yul\":10765:10818   */\n      tag_443\n      jump\t// in\n    tag_619:\n        /* \"#utility.yul\":10755:10818   */\n      swap2\n      pop\n        /* \"#utility.yul\":10711:10828   */\n      pop\n        /* \"#utility.yul\":10506:10835   */\n      swap3\n      swap2\n      pop\n      pop\n      jump\t// out\n        /* \"#utility.yul\":10841:10957   */\n    tag_461:\n        /* \"#utility.yul\":10911:10932   */\n      tag_621\n        /* \"#utility.yul\":10926:10931   */\n      dup2\n        /* \"#utility.yul\":10911:10932   */\n      tag_429\n      jump\t// in\n    tag_621:\n        /* \"#utility.yul\":10904:10909   */\n      dup2\n        /* \"#utility.yul\":10901:10933   */\n      eq\n        /* \"#utility.yul\":10891:10951   */\n      tag_622\n      jumpi\n        /* \"#utility.yul\":10947:10948   */\n      0x00\n        /* \"#utility.yul\":10944:10945   */\n      dup1\n        /* \"#utility.yul\":10937:10949   */\n      revert\n        /* \"#utility.yul\":10891:10951   */\n    tag_622:\n        /* \"#utility.yul\":10841:10957   */\n      pop\n      jump\t// out\n        /* \"#utility.yul\":10963:11096   */\n    tag_462:\n        /* \"#utility.yul\":11006:11011   */\n      0x00\n        /* \"#utility.yul\":11044:11050   */\n      dup2\n        /* \"#utility.yul\":11031:11051   */\n      calldataload\n        /* \"#utility.yul\":11022:11051   */\n      swap1\n      pop\n        /* \"#utility.yul\":11060:11090   */\n      tag_624\n        /* \"#utility.yul\":11084:11089   */\n      dup2\n        /* \"#utility.yul\":11060:11090   */\n      tag_461\n      jump\t// in\n    tag_624:\n        /* \"#utility.yul\":10963:11096   */\n      swap3\n      swap2\n      pop\n      pop\n      jump\t// out\n        /* \"#utility.yul\":11102:11570   */\n    tag_115:\n        /* \"#utility.yul\":11167:11173   */\n      0x00\n        /* \"#utility.yul\":11175:11181   */\n      dup1\n        /* \"#utility.yul\":11224:11226   */\n      0x40\n        /* \"#utility.yul\":11212:11221   */\n      dup4\n        /* \"#utility.yul\":11203:11210   */\n      dup6\n        /* \"#utility.yul\":11199:11222   */\n      sub\n        /* \"#utility.yul\":11195:11227   */\n      slt\n        /* \"#utility.yul\":11192:11311   */\n      iszero\n      tag_626\n      jumpi\n        /* \"#utility.yul\":11230:11309   */\n      tag_627\n      tag_424\n      jump\t// in\n    tag_627:\n        /* \"#utility.yul\":11192:11311   */\n    tag_626:\n        /* \"#utility.yul\":11350:11351   */\n      0x00\n        /* \"#utility.yul\":11375:11428   */\n      tag_628\n        /* \"#utility.yul\":11420:11427   */\n      dup6\n        /* \"#utility.yul\":11411:11417   */\n      dup3\n        /* \"#utility.yul\":11400:11409   */\n      dup7\n        /* \"#utility.yul\":11396:11418   */\n      add\n        /* \"#utility.yul\":11375:11428   */\n      tag_443\n      jump\t// in\n    tag_628:\n        /* \"#utility.yul\":11365:11428   */\n      swap3\n      pop\n        /* \"#utility.yul\":11321:11438   */\n      pop\n        /* \"#utility.yul\":11477:11479   */\n      0x20\n        /* \"#utility.yul\":11503:11553   */\n      tag_629\n        /* \"#utility.yul\":11545:11552   */\n      dup6\n        /* \"#utility.yul\":11536:11542   */\n      dup3\n        /* \"#utility.yul\":11525:11534   */\n      dup7\n        /* \"#utility.yul\":11521:11543   */\n      add\n        /* \"#utility.yul\":11503:11553   */\n      tag_462\n      jump\t// in\n    tag_629:\n        /* \"#utility.yul\":11493:11553   */\n      swap2\n      pop\n        /* \"#utility.yul\":11448:11563   */\n      pop\n        /* \"#utility.yul\":11102:11570   */\n      swap3\n      pop\n      swap3\n      swap1\n      pop\n      jump\t// out\n        /* \"#utility.yul\":11576:11883   */\n    tag_463:\n        /* \"#utility.yul\":11637:11641   */\n      0x00\n        /* \"#utility.yul\":11727:11745   */\n      0xffffffffffffffff\n        /* \"#utility.yul\":11719:11725   */\n      dup3\n        /* \"#utility.yul\":11716:11746   */\n      gt\n        /* \"#utility.yul\":11713:11769   */\n      iszero\n      tag_631\n      jumpi\n        /* \"#utility.yul\":11749:11767   */\n      tag_632\n      tag_446\n      jump\t// in\n    tag_632:\n        /* \"#utility.yul\":11713:11769   */\n    tag_631:\n        /* \"#utility.yul\":11787:11816   */\n      tag_633\n        /* \"#utility.yul\":11809:11815   */\n      dup3\n        /* \"#utility.yul\":11787:11816   */\n      tag_434\n      jump\t// in\n    tag_633:\n        /* \"#utility.yul\":11779:11816   */\n      swap1\n      pop\n        /* \"#utility.yul\":11871:11875   */\n      0x20\n        /* \"#utility.yul\":11865:11869   */\n      dup2\n        /* \"#utility.yul\":11861:11876   */\n      add\n        /* \"#utility.yul\":11853:11876   */\n      swap1\n      pop\n        /* \"#utility.yul\":11576:11883   */\n      swap2\n      swap1\n      pop\n      jump\t// out\n        /* \"#utility.yul\":11889:12312   */\n    tag_464:\n        /* \"#utility.yul\":11966:11971   */\n      0x00\n        /* \"#utility.yul\":11991:12056   */\n      tag_635\n        /* \"#utility.yul\":12007:12055   */\n      tag_636\n        /* \"#utility.yul\":12048:12054   */\n      dup5\n        /* \"#utility.yul\":12007:12055   */\n      tag_463\n      jump\t// in\n    tag_636:\n        /* \"#utility.yul\":11991:12056   */\n      tag_448\n      jump\t// in\n    tag_635:\n        /* \"#utility.yul\":11982:12056   */\n      swap1\n      pop\n        /* \"#utility.yul\":12079:12085   */\n      dup3\n        /* \"#utility.yul\":12072:12077   */\n      dup2\n        /* \"#utility.yul\":12065:12086   */\n      mstore\n        /* \"#utility.yul\":12117:12121   */\n      0x20\n        /* \"#utility.yul\":12110:12115   */\n      dup2\n        /* \"#utility.yul\":12106:12122   */\n      add\n        /* \"#utility.yul\":12155:12158   */\n      dup5\n        /* \"#utility.yul\":12146:12152   */\n      dup5\n        /* \"#utility.yul\":12141:12144   */\n      dup5\n        /* \"#utility.yul\":12137:12153   */\n      add\n        /* \"#utility.yul\":12134:12159   */\n      gt\n        /* \"#utility.yul\":12131:12243   */\n      iszero\n      tag_637\n      jumpi\n        /* \"#utility.yul\":12162:12241   */\n      tag_638\n      tag_445\n      jump\t// in\n    tag_638:\n        /* \"#utility.yul\":12131:12243   */\n    tag_637:\n        /* \"#utility.yul\":12252:12306   */\n      tag_639\n        /* \"#utility.yul\":12299:12305   */\n      dup5\n        /* \"#utility.yul\":12294:12297   */\n      dup3\n        /* \"#utility.yul\":12289:12292   */\n      dup6\n        /* \"#utility.yul\":12252:12306   */\n      tag_450\n      jump\t// in\n    tag_639:\n        /* \"#utility.yul\":11972:12312   */\n      pop\n        /* \"#utility.yul\":11889:12312   */\n      swap4\n      swap3\n      pop\n      pop\n      pop\n      jump\t// out\n        /* \"#utility.yul\":12331:12669   */\n    tag_465:\n        /* \"#utility.yul\":12386:12391   */\n      0x00\n        /* \"#utility.yul\":12435:12438   */\n      dup3\n        /* \"#utility.yul\":12428:12432   */\n      0x1f\n        /* \"#utility.yul\":12420:12426   */\n      dup4\n        /* \"#utility.yul\":12416:12433   */\n      add\n        /* \"#utility.yul\":12412:12439   */\n      slt\n        /* \"#utility.yul\":12402:12524   */\n      tag_641\n      jumpi\n        /* \"#utility.yul\":12443:12522   */\n      tag_642\n      tag_444\n      jump\t// in\n    tag_642:\n        /* \"#utility.yul\":12402:12524   */\n    tag_641:\n        /* \"#utility.yul\":12560:12566   */\n      dup2\n        /* \"#utility.yul\":12547:12567   */\n      calldataload\n        /* \"#utility.yul\":12585:12663   */\n      tag_643\n        /* \"#utility.yul\":12659:12662   */\n      dup5\n        /* \"#utility.yul\":12651:12657   */\n      dup3\n        /* \"#utility.yul\":12644:12648   */\n      0x20\n        /* \"#utility.yul\":12636:12642   */\n      dup7\n        /* \"#utility.yul\":12632:12649   */\n      add\n        /* \"#utility.yul\":12585:12663   */\n      tag_464\n      jump\t// in\n    tag_643:\n        /* \"#utility.yul\":12576:12663   */\n      swap2\n      pop\n        /* \"#utility.yul\":12392:12669   */\n      pop\n        /* \"#utility.yul\":12331:12669   */\n      swap3\n      swap2\n      pop\n      pop\n      jump\t// out\n        /* \"#utility.yul\":12675:13618   */\n    tag_123:\n        /* \"#utility.yul\":12770:12776   */\n      0x00\n        /* \"#utility.yul\":12778:12784   */\n      dup1\n        /* \"#utility.yul\":12786:12792   */\n      0x00\n        /* \"#utility.yul\":12794:12800   */\n      dup1\n        /* \"#utility.yul\":12843:12846   */\n      0x80\n        /* \"#utility.yul\":12831:12840   */\n      dup6\n        /* \"#utility.yul\":12822:12829   */\n      dup8\n        /* \"#utility.yul\":12818:12841   */\n      sub\n        /* \"#utility.yul\":12814:12847   */\n      slt\n        /* \"#utility.yul\":12811:12931   */\n      iszero\n      tag_645\n      jumpi\n        /* \"#utility.yul\":12850:12929   */\n      tag_646\n      tag_424\n      jump\t// in\n    tag_646:\n        /* \"#utility.yul\":12811:12931   */\n    tag_645:\n        /* \"#utility.yul\":12970:12971   */\n      0x00\n        /* \"#utility.yul\":12995:13048   */\n      tag_647\n        /* \"#utility.yul\":13040:13047   */\n      dup8\n        /* \"#utility.yul\":13031:13037   */\n      dup3\n        /* \"#utility.yul\":13020:13029   */\n      dup9\n        /* \"#utility.yul\":13016:13038   */\n      add\n        /* \"#utility.yul\":12995:13048   */\n      tag_443\n      jump\t// in\n    tag_647:\n        /* \"#utility.yul\":12985:13048   */\n      swap5\n      pop\n        /* \"#utility.yul\":12941:13058   */\n      pop\n        /* \"#utility.yul\":13097:13099   */\n      0x20\n        /* \"#utility.yul\":13123:13176   */\n      tag_648\n        /* \"#utility.yul\":13168:13175   */\n      dup8\n        /* \"#utility.yul\":13159:13165   */\n      dup3\n        /* \"#utility.yul\":13148:13157   */\n      dup9\n        /* \"#utility.yul\":13144:13166   */\n      add\n        /* \"#utility.yul\":13123:13176   */\n      tag_443\n      jump\t// in\n    tag_648:\n        /* \"#utility.yul\":13113:13176   */\n      swap4\n      pop\n        /* \"#utility.yul\":13068:13186   */\n      pop\n        /* \"#utility.yul\":13225:13227   */\n      0x40\n        /* \"#utility.yul\":13251:13304   */\n      tag_649\n        /* \"#utility.yul\":13296:13303   */\n      dup8\n        /* \"#utility.yul\":13287:13293   */\n      dup3\n        /* \"#utility.yul\":13276:13285   */\n      dup9\n        /* \"#utility.yul\":13272:13294   */\n      add\n        /* \"#utility.yul\":13251:13304   */\n      tag_438\n      jump\t// in\n    tag_649:\n        /* \"#utility.yul\":13241:13304   */\n      swap3\n      pop\n        /* \"#utility.yul\":13196:13314   */\n      pop\n        /* \"#utility.yul\":13381:13383   */\n      0x60\n        /* \"#utility.yul\":13370:13379   */\n      dup6\n        /* \"#utility.yul\":13366:13384   */\n      add\n        /* \"#utility.yul\":13353:13385   */\n      calldataload\n        /* \"#utility.yul\":13412:13430   */\n      0xffffffffffffffff\n        /* \"#utility.yul\":13404:13410   */\n      dup2\n        /* \"#utility.yul\":13401:13431   */\n      gt\n        /* \"#utility.yul\":13398:13515   */\n      iszero\n      tag_650\n      jumpi\n        /* \"#utility.yul\":13434:13513   */\n      tag_651\n      tag_425\n      jump\t// in\n    tag_651:\n        /* \"#utility.yul\":13398:13515   */\n    tag_650:\n        /* \"#utility.yul\":13539:13601   */\n      tag_652\n        /* \"#utility.yul\":13593:13600   */\n      dup8\n        /* \"#utility.yul\":13584:13590   */\n      dup3\n        /* \"#utility.yul\":13573:13582   */\n      dup9\n        /* \"#utility.yul\":13569:13591   */\n      add\n        /* \"#utility.yul\":13539:13601   */\n      tag_465\n      jump\t// in\n    tag_652:\n        /* \"#utility.yul\":13529:13601   */\n      swap2\n      pop\n        /* \"#utility.yul\":13324:13611   */\n      pop\n        /* \"#utility.yul\":12675:13618   */\n      swap3\n      swap6\n      swap2\n      swap5\n      pop\n      swap3\n      pop\n      jump\t// out\n        /* \"#utility.yul\":13624:14098   */\n    tag_137:\n        /* \"#utility.yul\":13692:13698   */\n      0x00\n        /* \"#utility.yul\":13700:13706   */\n      dup1\n        /* \"#utility.yul\":13749:13751   */\n      0x40\n        /* \"#utility.yul\":13737:13746   */\n      dup4\n        /* \"#utility.yul\":13728:13735   */\n      dup6\n        /* \"#utility.yul\":13724:13747   */\n      sub\n        /* \"#utility.yul\":13720:13752   */\n      slt\n        /* \"#utility.yul\":13717:13836   */\n      iszero\n      tag_654\n      jumpi\n        /* \"#utility.yul\":13755:13834   */\n      tag_655\n      tag_424\n      jump\t// in\n    tag_655:\n        /* \"#utility.yul\":13717:13836   */\n    tag_654:\n        /* \"#utility.yul\":13875:13876   */\n      0x00\n        /* \"#utility.yul\":13900:13953   */\n      tag_656\n        /* \"#utility.yul\":13945:13952   */\n      dup6\n        /* \"#utility.yul\":13936:13942   */\n      dup3\n        /* \"#utility.yul\":13925:13934   */\n      dup7\n        /* \"#utility.yul\":13921:13943   */\n      add\n        /* \"#utility.yul\":13900:13953   */\n      tag_443\n      jump\t// in\n    tag_656:\n        /* \"#utility.yul\":13890:13953   */\n      swap3\n      pop\n        /* \"#utility.yul\":13846:13963   */\n      pop\n        /* \"#utility.yul\":14002:14004   */\n      0x20\n        /* \"#utility.yul\":14028:14081   */\n      tag_657\n        /* \"#utility.yul\":14073:14080   */\n      dup6\n        /* \"#utility.yul\":14064:14070   */\n      dup3\n        /* \"#utility.yul\":14053:14062   */\n      dup7\n        /* \"#utility.yul\":14049:14071   */\n      add\n        /* \"#utility.yul\":14028:14081   */\n      tag_443\n      jump\t// in\n    tag_657:\n        /* \"#utility.yul\":14018:14081   */\n      swap2\n      pop\n        /* \"#utility.yul\":13973:14091   */\n      pop\n        /* \"#utility.yul\":13624:14098   */\n      swap3\n      pop\n      swap3\n      swap1\n      pop\n      jump\t// out\n        /* \"#utility.yul\":14104:14284   */\n    tag_466:\n        /* \"#utility.yul\":14152:14229   */\n      0x4e487b7100000000000000000000000000000000000000000000000000000000\n        /* \"#utility.yul\":14149:14150   */\n      0x00\n        /* \"#utility.yul\":14142:14230   */\n      mstore\n        /* \"#utility.yul\":14249:14253   */\n      0x22\n        /* \"#utility.yul\":14246:14247   */\n      0x04\n        /* \"#utility.yul\":14239:14254   */\n      mstore\n        /* \"#utility.yul\":14273:14277   */\n      0x24\n        /* \"#utility.yul\":14270:14271   */\n      0x00\n        /* \"#utility.yul\":14263:14278   */\n      revert\n        /* \"#utility.yul\":14290:14610   */\n    tag_158:\n        /* \"#utility.yul\":14334:14340   */\n      0x00\n        /* \"#utility.yul\":14371:14372   */\n      0x02\n        /* \"#utility.yul\":14365:14369   */\n      dup3\n        /* \"#utility.yul\":14361:14373   */\n      div\n        /* \"#utility.yul\":14351:14373   */\n      swap1\n      pop\n        /* \"#utility.yul\":14418:14419   */\n      0x01\n        /* \"#utility.yul\":14412:14416   */\n      dup3\n        /* \"#utility.yul\":14408:14420   */\n      and\n        /* \"#utility.yul\":14439:14457   */\n      dup1\n        /* \"#utility.yul\":14429:14510   */\n      tag_660\n      jumpi\n        /* \"#utility.yul\":14495:14499   */\n      0x7f\n        /* \"#utility.yul\":14487:14493   */\n      dup3\n        /* \"#utility.yul\":14483:14500   */\n      and\n        /* \"#utility.yul\":14473:14500   */\n      swap2\n      pop\n        /* \"#utility.yul\":14429:14510   */\n    tag_660:\n        /* \"#utility.yul\":14557:14559   */\n      0x20\n        /* \"#utility.yul\":14549:14555   */\n      dup3\n        /* \"#utility.yul\":14546:14560   */\n      lt\n        /* \"#utility.yul\":14526:14544   */\n      dup2\n        /* \"#utility.yul\":14523:14561   */\n      sub\n        /* \"#utility.yul\":14520:14604   */\n      tag_661\n      jumpi\n        /* \"#utility.yul\":14576:14594   */\n      tag_662\n      tag_466\n      jump\t// in\n    tag_662:\n        /* \"#utility.yul\":14520:14604   */\n    tag_661:\n        /* \"#utility.yul\":14341:14610   */\n      pop\n        /* \"#utility.yul\":14290:14610   */\n      swap2\n      swap1\n      pop\n      jump\t// out\n        /* \"#utility.yul\":14616:14757   */\n    tag_467:\n        /* \"#utility.yul\":14665:14669   */\n      0x00\n        /* \"#utility.yul\":14688:14691   */\n      dup2\n        /* \"#utility.yul\":14680:14691   */\n      swap1\n      pop\n        /* \"#utility.yul\":14711:14714   */\n      dup2\n        /* \"#utility.yul\":14708:14709   */\n      0x00\n        /* \"#utility.yul\":14701:14715   */\n      mstore\n        /* \"#utility.yul\":14745:14749   */\n      0x20\n        /* \"#utility.yul\":14742:14743   */\n      0x00\n        /* \"#utility.yul\":14732:14750   */\n      keccak256\n        /* \"#utility.yul\":14724:14750   */\n      swap1\n      pop\n        /* \"#utility.yul\":14616:14757   */\n      swap2\n      swap1\n      pop\n      jump\t// out\n        /* \"#utility.yul\":14763:14856   */\n    tag_468:\n        /* \"#utility.yul\":14800:14806   */\n      0x00\n        /* \"#utility.yul\":14847:14849   */\n      0x20\n        /* \"#utility.yul\":14842:14844   */\n      0x1f\n        /* \"#utility.yul\":14835:14840   */\n      dup4\n        /* \"#utility.yul\":14831:14845   */\n      add\n        /* \"#utility.yul\":14827:14850   */\n      div\n        /* \"#utility.yul\":14817:14850   */\n      swap1\n      pop\n        /* \"#utility.yul\":14763:14856   */\n      swap2\n      swap1\n      pop\n      jump\t// out\n        /* \"#utility.yul\":14862:14969   */\n    tag_469:\n        /* \"#utility.yul\":14906:14914   */\n      0x00\n        /* \"#utility.yul\":14956:14961   */\n      dup3\n        /* \"#utility.yul\":14950:14954   */\n      dup3\n        /* \"#utility.yul\":14946:14962   */\n      shl\n        /* \"#utility.yul\":14925:14962   */\n      swap1\n      pop\n        /* \"#utility.yul\":14862:14969   */\n      swap3\n      swap2\n      pop\n      pop\n      jump\t// out\n        /* \"#utility.yul\":14975:15368   */\n    tag_470:\n        /* \"#utility.yul\":15044:15050   */\n      0x00\n        /* \"#utility.yul\":15094:15095   */\n      0x08\n        /* \"#utility.yul\":15082:15092   */\n      dup4\n        /* \"#utility.yul\":15078:15096   */\n      mul\n        /* \"#utility.yul\":15117:15214   */\n      tag_667\n        /* \"#utility.yul\":15147:15213   */\n      0xffffffffffffffffffffffffffffffffffffffffffffffffffffffffffffffff\n        /* \"#utility.yul\":15136:15145   */\n      dup3\n        /* \"#utility.yul\":15117:15214   */\n      tag_469\n      jump\t// in\n    tag_667:\n        /* \"#utility.yul\":15235:15274   */\n      tag_668\n        /* \"#utility.yul\":15265:15273   */\n      dup7\n        /* \"#utility.yul\":15254:15263   */\n      dup4\n        /* \"#utility.yul\":15235:15274   */\n      tag_469\n      jump\t// in\n    tag_668:\n        /* \"#utility.yul\":15223:15274   */\n      swap6\n      pop\n        /* \"#utility.yul\":15307:15311   */\n      dup1\n        /* \"#utility.yul\":15303:15312   */\n      not\n        /* \"#utility.yul\":15296:15301   */\n      dup5\n        /* \"#utility.yul\":15292:15313   */\n      and\n        /* \"#utility.yul\":15283:15313   */\n      swap4\n      pop\n        /* \"#utility.yul\":15356:15360   */\n      dup1\n        /* \"#utility.yul\":15346:15354   */\n      dup7\n        /* \"#utility.yul\":15342:15361   */\n      and\n        /* \"#utility.yul\":15335:15340   */\n      dup5\n        /* \"#utility.yul\":15332:15362   */\n      or\n        /* \"#utility.yul\":15322:15362   */\n      swap3\n      pop\n        /* \"#utility.yul\":15051:15368   */\n      pop\n      pop\n        /* \"#utility.yul\":14975:15368   */\n      swap4\n      swap3\n      pop\n      pop\n      pop\n      jump\t// out\n        /* \"#utility.yul\":15374:15434   */\n    tag_471:\n        /* \"#utility.yul\":15402:15405   */\n      0x00\n        /* \"#utility.yul\":15423:15428   */\n      dup2\n        /* \"#utility.yul\":15416:15428   */\n      swap1\n      pop\n        /* \"#utility.yul\":15374:15434   */\n      swap2\n      swap1\n      pop\n      jump\t// out\n        /* \"#utility.yul\":15440:15582   */\n    tag_472:\n        /* \"#utility.yul\":15490:15499   */\n      0x00\n        /* \"#utility.yul\":15523:15576   */\n      tag_671\n        /* \"#utility.yul\":15541:15575   */\n      tag_672\n        /* \"#utility.yul\":15550:15574   */\n      tag_673\n        /* \"#utility.yul\":15568:15573   */\n      dup5\n        /* \"#utility.yul\":15550:15574   */\n      tag_436\n      jump\t// in\n    tag_673:\n        /* \"#utility.yul\":15541:15575   */\n      tag_471\n      jump\t// in\n    tag_672:\n        /* \"#utility.yul\":15523:15576   */\n      tag_436\n      jump\t// in\n    tag_671:\n        /* \"#utility.yul\":15510:15576   */\n      swap1\n      pop\n        /* \"#utility.yul\":15440:15582   */\n      swap2\n      swap1\n      pop\n      jump\t// out\n        /* \"#utility.yul\":15588:15663   */\n    tag_473:\n        /* \"#utility.yul\":15631:15634   */\n      0x00\n        /* \"#utility.yul\":15652:15657   */\n      dup2\n        /* \"#utility.yul\":15645:15657   */\n      swap1\n      pop\n        /* \"#utility.yul\":15588:15663   */\n      swap2\n      swap1\n      pop\n      jump\t// out\n        /* \"#utility.yul\":15669:15938   */\n    tag_474:\n        /* \"#utility.yul\":15779:15818   */\n      tag_676\n        /* \"#utility.yul\":15810:15817   */\n      dup4\n        /* \"#utility.yul\":15779:15818   */\n      tag_472\n      jump\t// in\n    tag_676:\n        /* \"#utility.yul\":15840:15931   */\n      tag_677\n        /* \"#utility.yul\":15889:15930   */\n      tag_678\n        /* \"#utility.yul\":15913:15929   */\n      dup3\n        /* \"#utility.yul\":15889:15930   */\n      tag_473\n      jump\t// in\n    tag_678:\n        /* \"#utility.yul\":15881:15887   */\n      dup5\n        /* \"#utility.yul\":15874:15878   */\n      dup5\n        /* \"#utility.yul\":15868:15879   */\n      sload\n        /* \"#utility.yul\":15840:15931   */\n      tag_470\n      jump\t// in\n    tag_677:\n        /* \"#utility.yul\":15834:15838   */\n      dup3\n        /* \"#utility.yul\":15827:15932   */\n      sstore\n        /* \"#utility.yul\":15745:15938   */\n      pop\n        /* \"#utility.yul\":15669:15938   */\n      pop\n      pop\n      pop\n      jump\t// out\n        /* \"#utility.yul\":15944:16017   */\n    tag_475:\n        /* \"#utility.yul\":15989:15992   */\n      0x00\n        /* \"#utility.yul\":15944:16017   */\n      swap1\n      jump\t// out\n        /* \"#utility.yul\":16023:16212   */\n    tag_476:\n        /* \"#utility.yul\":16100:16132   */\n      tag_681\n      tag_475\n      jump\t// in\n    tag_681:\n        /* \"#utility.yul\":16141:16206   */\n      tag_682\n        /* \"#utility.yul\":16199:16205   */\n      dup2\n        /* \"#utility.yul\":16191:16197   */\n      dup5\n        /* \"#utility.yul\":16185:16189   */\n      dup5\n        /* \"#utility.yul\":16141:16206   */\n      tag_474\n      jump\t// in\n    tag_682:\n        /* \"#utility.yul\":16076:16212   */\n      pop\n        /* \"#utility.yul\":16023:16212   */\n      pop\n      pop\n      jump\t// out\n        /* \"#utility.yul\":16218:16404   */\n    tag_477:\n        /* \"#utility.yul\":16278:16398   */\n    tag_684:\n        /* \"#utility.yul\":16295:16298   */\n      dup2\n        /* \"#utility.yul\":16288:16293   */\n      dup2\n        /* \"#utility.yul\":16285:16299   */\n      lt\n        /* \"#utility.yul\":16278:16398   */\n      iszero\n      tag_686\n      jumpi\n        /* \"#utility.yul\":16349:16388   */\n      tag_687\n        /* \"#utility.yul\":16386:16387   */\n      0x00\n        /* \"#utility.yul\":16379:16384   */\n      dup3\n        /* \"#utility.yul\":16349:16388   */\n      tag_476\n      jump\t// in\n    tag_687:\n        /* \"#utility.yul\":16322:16323   */\n      0x01\n        /* \"#utility.yul\":16315:16320   */\n      dup2\n        /* \"#utility.yul\":16311:16324   */\n      add\n        /* \"#utility.yul\":16302:16324   */\n      swap1\n      pop\n        /* \"#utility.yul\":16278:16398   */\n      jump(tag_684)\n    tag_686:\n        /* \"#utility.yul\":16218:16404   */\n      pop\n      pop\n      jump\t// out\n        /* \"#utility.yul\":16410:16953   */\n    tag_478:\n        /* \"#utility.yul\":16511:16513   */\n      0x1f\n        /* \"#utility.yul\":16506:16509   */\n      dup3\n        /* \"#utility.yul\":16503:16514   */\n      gt\n        /* \"#utility.yul\":16500:16946   */\n      iszero\n      tag_689\n      jumpi\n        /* \"#utility.yul\":16545:16583   */\n      tag_690\n        /* \"#utility.yul\":16577:16582   */\n      dup2\n        /* \"#utility.yul\":16545:16583   */\n      tag_467\n      jump\t// in\n    tag_690:\n        /* \"#utility.yul\":16629:16658   */\n      tag_691\n        /* \"#utility.yul\":16647:16657   */\n      dup5\n        /* \"#utility.yul\":16629:16658   */\n      tag_468\n      jump\t// in\n    tag_691:\n        /* \"#utility.yul\":16619:16627   */\n      dup2\n        /* \"#utility.yul\":16615:16659   */\n      add\n        /* \"#utility.yul\":16812:16814   */\n      0x20\n        /* \"#utility.yul\":16800:16810   */\n      dup6\n        /* \"#utility.yul\":16797:16815   */\n      lt\n        /* \"#utility.yul\":16794:16843   */\n      iszero\n      tag_692\n      jumpi\n        /* \"#utility.yul\":16833:16841   */\n      dup2\n        /* \"#utility.yul\":16818:16841   */\n      swap1\n      pop\n        /* \"#utility.yul\":16794:16843   */\n    tag_692:\n        /* \"#utility.yul\":16856:16936   */\n      tag_693\n        /* \"#utility.yul\":16912:16934   */\n      tag_694\n        /* \"#utility.yul\":16930:16933   */\n      dup6\n        /* \"#utility.yul\":16912:16934   */\n      tag_468\n      jump\t// in\n    tag_694:\n        /* \"#utility.yul\":16902:16910   */\n      dup4\n        /* \"#utility.yul\":16898:16935   */\n      add\n        /* \"#utility.yul\":16885:16896   */\n      dup3\n        /* \"#utility.yul\":16856:16936   */\n      tag_477\n      jump\t// in\n    tag_693:\n        /* \"#utility.yul\":16515:16946   */\n      pop\n      pop\n        /* \"#utility.yul\":16500:16946   */\n    tag_689:\n        /* \"#utility.yul\":16410:16953   */\n      pop\n      pop\n      pop\n      jump\t// out\n        /* \"#utility.yul\":16959:17076   */\n    tag_479:\n        /* \"#utility.yul\":17013:17021   */\n      0x00\n        /* \"#utility.yul\":17063:17068   */\n      dup3\n        /* \"#utility.yul\":17057:17061   */\n      dup3\n        /* \"#utility.yul\":17053:17069   */\n      shr\n        /* \"#utility.yul\":17032:17069   */\n      swap1\n      pop\n        /* \"#utility.yul\":16959:17076   */\n      swap3\n      swap2\n      pop\n      pop\n      jump\t// out\n        /* \"#utility.yul\":17082:17251   */\n    tag_480:\n        /* \"#utility.yul\":17126:17132   */\n      0x00\n        /* \"#utility.yul\":17159:17210   */\n      tag_697\n        /* \"#utility.yul\":17207:17208   */\n      0x00\n        /* \"#utility.yul\":17203:17209   */\n      not\n        /* \"#utility.yul\":17195:17200   */\n      dup5\n        /* \"#utility.yul\":17192:17193   */\n      0x08\n        /* \"#utility.yul\":17188:17201   */\n      mul\n        /* \"#utility.yul\":17159:17210   */\n      tag_479\n      jump\t// in\n    tag_697:\n        /* \"#utility.yul\":17155:17211   */\n      not\n        /* \"#utility.yul\":17240:17244   */\n      dup1\n        /* \"#utility.yul\":17234:17238   */\n      dup4\n        /* \"#utility.yul\":17230:17245   */\n      and\n        /* \"#utility.yul\":17220:17245   */\n      swap2\n      pop\n        /* \"#utility.yul\":17133:17251   */\n      pop\n        /* \"#utility.yul\":17082:17251   */\n      swap3\n      swap2\n      pop\n      pop\n      jump\t// out\n        /* \"#utility.yul\":17256:17551   */\n    tag_481:\n        /* \"#utility.yul\":17332:17336   */\n      0x00\n        /* \"#utility.yul\":17478:17507   */\n      tag_699\n        /* \"#utility.yul\":17503:17506   */\n      dup4\n        /* \"#utility.yul\":17497:17501   */\n      dup4\n        /* \"#utility.yul\":17478:17507   */\n      tag_480\n      jump\t// in\n    tag_699:\n        /* \"#utility.yul\":17470:17507   */\n      swap2\n      pop\n        /* \"#utility.yul\":17540:17543   */\n      dup3\n        /* \"#utility.yul\":17537:17538   */\n      0x02\n        /* \"#utility.yul\":17533:17544   */\n      mul\n        /* \"#utility.yul\":17527:17531   */\n      dup3\n        /* \"#utility.yul\":17524:17545   */\n      or\n        /* \"#utility.yul\":17516:17545   */\n      swap1\n      pop\n        /* \"#utility.yul\":17256:17551   */\n      swap3\n      swap2\n      pop\n      pop\n      jump\t// out\n        /* \"#utility.yul\":17556:18951   */\n    tag_177:\n        /* \"#utility.yul\":17673:17710   */\n      tag_701\n        /* \"#utility.yul\":17706:17709   */\n      dup3\n        /* \"#utility.yul\":17673:17710   */\n      tag_431\n      jump\t// in\n    tag_701:\n        /* \"#utility.yul\":17775:17793   */\n      0xffffffffffffffff\n        /* \"#utility.yul\":17767:17773   */\n      dup2\n        /* \"#utility.yul\":17764:17794   */\n      gt\n        /* \"#utility.yul\":17761:17817   */\n      iszero\n      tag_702\n      jumpi\n        /* \"#utility.yul\":17797:17815   */\n      tag_703\n      tag_446\n      jump\t// in\n    tag_703:\n        /* \"#utility.yul\":17761:17817   */\n    tag_702:\n        /* \"#utility.yul\":17841:17879   */\n      tag_704\n        /* \"#utility.yul\":17873:17877   */\n      dup3\n        /* \"#utility.yul\":17867:17878   */\n      sload\n        /* \"#utility.yul\":17841:17879   */\n      tag_158\n      jump\t// in\n    tag_704:\n        /* \"#utility.yul\":17926:17993   */\n      tag_705\n        /* \"#utility.yul\":17986:17992   */\n      dup3\n        /* \"#utility.yul\":17978:17984   */\n      dup3\n        /* \"#utility.yul\":17972:17976   */\n      dup6\n        /* \"#utility.yul\":17926:17993   */\n      tag_478\n      jump\t// in\n    tag_705:\n        /* \"#utility.yul\":18020:18021   */\n      0x00\n        /* \"#utility.yul\":18044:18048   */\n      0x20\n        /* \"#utility.yul\":18031:18048   */\n      swap1\n      pop\n        /* \"#utility.yul\":18076:18078   */\n      0x1f\n        /* \"#utility.yul\":18068:18074   */\n      dup4\n        /* \"#utility.yul\":18065:18079   */\n      gt\n        /* \"#utility.yul\":18093:18094   */\n      0x01\n        /* \"#utility.yul\":18088:18706   */\n      dup2\n      eq\n      tag_707\n      jumpi\n        /* \"#utility.yul\":18750:18751   */\n      0x00\n        /* \"#utility.yul\":18767:18773   */\n      dup5\n        /* \"#utility.yul\":18764:18841   */\n      iszero\n      tag_708\n      jumpi\n        /* \"#utility.yul\":18816:18825   */\n      dup3\n        /* \"#utility.yul\":18811:18814   */\n      dup8\n        /* \"#utility.yul\":18807:18826   */\n      add\n        /* \"#utility.yul\":18801:18827   */\n      mload\n        /* \"#utility.yul\":18792:18827   */\n      swap1\n      pop\n        /* \"#utility.yul\":18764:18841   */\n    tag_708:\n        /* \"#utility.yul\":18867:18934   */\n      tag_709\n        /* \"#utility.yul\":18927:18933   */\n      dup6\n        /* \"#utility.yul\":18920:18925   */\n      dup3\n        /* \"#utility.yul\":18867:18934   */\n      tag_481\n      jump\t// in\n    tag_709:\n        /* \"#utility.yul\":18861:18865   */\n      dup7\n        /* \"#utility.yul\":18854:18935   */\n      sstore\n        /* \"#utility.yul\":18723:18945   */\n      pop\n        /* \"#utility.yul\":18058:18945   */\n      jump(tag_706)\n        /* \"#utility.yul\":18088:18706   */\n    tag_707:\n        /* \"#utility.yul\":18140:18144   */\n      0x1f\n        /* \"#utility.yul\":18136:18145   */\n      not\n        /* \"#utility.yul\":18128:18134   */\n      dup5\n        /* \"#utility.yul\":18124:18146   */\n      and\n        /* \"#utility.yul\":18174:18211   */\n      tag_710\n        /* \"#utility.yul\":18206:18210   */\n      dup7\n        /* \"#utility.yul\":18174:18211   */\n      tag_467\n      jump\t// in\n    tag_710:\n        /* \"#utility.yul\":18233:18234   */\n      0x00\n        /* \"#utility.yul\":18247:18455   */\n    tag_711:\n        /* \"#utility.yul\":18261:18268   */\n      dup3\n        /* \"#utility.yul\":18258:18259   */\n      dup2\n        /* \"#utility.yul\":18255:18269   */\n      lt\n        /* \"#utility.yul\":18247:18455   */\n      iszero\n      tag_713\n      jumpi\n        /* \"#utility.yul\":18340:18349   */\n      dup5\n        /* \"#utility.yul\":18335:18338   */\n      dup10\n        /* \"#utility.yul\":18331:18350   */\n      add\n        /* \"#utility.yul\":18325:18351   */\n      mload\n        /* \"#utility.yul\":18317:18323   */\n      dup3\n        /* \"#utility.yul\":18310:18352   */\n      sstore\n        /* \"#utility.yul\":18391:18392   */\n      0x01\n        /* \"#utility.yul\":18383:18389   */\n      dup3\n        /* \"#utility.yul\":18379:18393   */\n      add\n        /* \"#utility.yul\":18369:18393   */\n      swap2\n      pop\n        /* \"#utility.yul\":18438:18440   */\n      0x20\n        /* \"#utility.yul\":18427:18436   */\n      dup6\n        /* \"#utility.yul\":18423:18441   */\n      add\n        /* \"#utility.yul\":18410:18441   */\n      swap5\n      pop\n        /* \"#utility.yul\":18284:18288   */\n      0x20\n        /* \"#utility.yul\":18281:18282   */\n      dup2\n        /* \"#utility.yul\":18277:18289   */\n      add\n        /* \"#utility.yul\":18272:18289   */\n      swap1\n      pop\n        /* \"#utility.yul\":18247:18455   */\n      jump(tag_711)\n    tag_713:\n        /* \"#utility.yul\":18483:18489   */\n      dup7\n        /* \"#utility.yul\":18474:18481   */\n      dup4\n        /* \"#utility.yul\":18471:18490   */\n      lt\n        /* \"#utility.yul\":18468:18647   */\n      iszero\n      tag_714\n      jumpi\n        /* \"#utility.yul\":18541:18550   */\n      dup5\n        /* \"#utility.yul\":18536:18539   */\n      dup10\n        /* \"#utility.yul\":18532:18551   */\n      add\n        /* \"#utility.yul\":18526:18552   */\n      mload\n        /* \"#utility.yul\":18584:18632   */\n      tag_715\n        /* \"#utility.yul\":18626:18630   */\n      0x1f\n        /* \"#utility.yul\":18618:18624   */\n      dup10\n        /* \"#utility.yul\":18614:18631   */\n      and\n        /* \"#utility.yul\":18603:18612   */\n      dup3\n        /* \"#utility.yul\":18584:18632   */\n      tag_480\n      jump\t// in\n    tag_715:\n        /* \"#utility.yul\":18576:18582   */\n      dup4\n        /* \"#utility.yul\":18569:18633   */\n      sstore\n        /* \"#utility.yul\":18491:18647   */\n      pop\n        /* \"#utility.yul\":18468:18647   */\n    tag_714:\n        /* \"#utility.yul\":18693:18694   */\n      0x01\n        /* \"#utility.yul\":18689:18690   */\n      0x02\n        /* \"#utility.yul\":18681:18687   */\n      dup9\n        /* \"#utility.yul\":18677:18691   */\n      mul\n        /* \"#utility.yul\":18673:18695   */\n      add\n        /* \"#utility.yul\":18667:18671   */\n      dup9\n        /* \"#utility.yul\":18660:18696   */\n      sstore\n        /* \"#utility.yul\":18095:18706   */\n      pop\n      pop\n      pop\n        /* \"#utility.yul\":18058:18945   */\n    tag_706:\n      pop\n        /* \"#utility.yul\":17648:18951   */\n      pop\n      pop\n      pop\n        /* \"#utility.yul\":17556:18951   */\n      pop\n      pop\n      jump\t// out\n        /* \"#utility.yul\":18957:19136   */\n    tag_482:\n        /* \"#utility.yul\":19097:19128   */\n      0x796f7520617265206e6f7420617070726f7665642020746f206d696e74000000\n        /* \"#utility.yul\":19093:19094   */\n      0x00\n        /* \"#utility.yul\":19085:19091   */\n      dup3\n        /* \"#utility.yul\":19081:19095   */\n      add\n        /* \"#utility.yul\":19074:19129   */\n      mstore\n        /* \"#utility.yul\":18957:19136   */\n      pop\n      jump\t// out\n        /* \"#utility.yul\":19142:19508   */\n    tag_483:\n        /* \"#utility.yul\":19284:19287   */\n      0x00\n        /* \"#utility.yul\":19305:19372   */\n      tag_718\n        /* \"#utility.yul\":19369:19371   */\n      0x1d\n        /* \"#utility.yul\":19364:19367   */\n      dup4\n        /* \"#utility.yul\":19305:19372   */\n      tag_432\n      jump\t// in\n    tag_718:\n        /* \"#utility.yul\":19298:19372   */\n      swap2\n      pop\n        /* \"#utility.yul\":19381:19474   */\n      tag_719\n        /* \"#utility.yul\":19470:19473   */\n      dup3\n        /* \"#utility.yul\":19381:19474   */\n      tag_482\n      jump\t// in\n    tag_719:\n        /* \"#utility.yul\":19499:19501   */\n      0x20\n        /* \"#utility.yul\":19494:19497   */\n      dup3\n        /* \"#utility.yul\":19490:19502   */\n      add\n        /* \"#utility.yul\":19483:19502   */\n      swap1\n      pop\n        /* \"#utility.yul\":19142:19508   */\n      swap2\n      swap1\n      pop\n      jump\t// out\n        /* \"#utility.yul\":19514:19933   */\n    tag_214:\n        /* \"#utility.yul\":19680:19684   */\n      0x00\n        /* \"#utility.yul\":19718:19720   */\n      0x20\n        /* \"#utility.yul\":19707:19716   */\n      dup3\n        /* \"#utility.yul\":19703:19721   */\n      add\n        /* \"#utility.yul\":19695:19721   */\n      swap1\n      pop\n        /* \"#utility.yul\":19767:19776   */\n      dup2\n        /* \"#utility.yul\":19761:19765   */\n      dup2\n        /* \"#utility.yul\":19757:19777   */\n      sub\n        /* \"#utility.yul\":19753:19754   */\n      0x00\n        /* \"#utility.yul\":19742:19751   */\n      dup4\n        /* \"#utility.yul\":19738:19755   */\n      add\n        /* \"#utility.yul\":19731:19778   */\n      mstore\n        /* \"#utility.yul\":19795:19926   */\n      tag_721\n        /* \"#utility.yul\":19921:19925   */\n      dup2\n        /* \"#utility.yul\":19795:19926   */\n      tag_483\n      jump\t// in\n    tag_721:\n        /* \"#utility.yul\":19787:19926   */\n      swap1\n      pop\n        /* \"#utility.yul\":19514:19933   */\n      swap2\n      swap1\n      pop\n      jump\t// out\n        /* \"#utility.yul\":19939:20087   */\n    tag_484:\n        /* \"#utility.yul\":20041:20052   */\n      0x00\n        /* \"#utility.yul\":20078:20081   */\n      dup2\n        /* \"#utility.yul\":20063:20081   */\n      swap1\n      pop\n        /* \"#utility.yul\":19939:20087   */\n      swap3\n      swap2\n      pop\n      pop\n      jump\t// out\n        /* \"#utility.yul\":20093:20483   */\n    tag_485:\n        /* \"#utility.yul\":20199:20202   */\n      0x00\n        /* \"#utility.yul\":20227:20266   */\n      tag_724\n        /* \"#utility.yul\":20260:20265   */\n      dup3\n        /* \"#utility.yul\":20227:20266   */\n      tag_431\n      jump\t// in\n    tag_724:\n        /* \"#utility.yul\":20282:20371   */\n      tag_725\n        /* \"#utility.yul\":20364:20370   */\n      dup2\n        /* \"#utility.yul\":20359:20362   */\n      dup6\n        /* \"#utility.yul\":20282:20371   */\n      tag_484\n      jump\t// in\n    tag_725:\n        /* \"#utility.yul\":20275:20371   */\n      swap4\n      pop\n        /* \"#utility.yul\":20380:20445   */\n      tag_726\n        /* \"#utility.yul\":20438:20444   */\n      dup2\n        /* \"#utility.yul\":20433:20436   */\n      dup6\n        /* \"#utility.yul\":20426:20430   */\n      0x20\n        /* \"#utility.yul\":20419:20424   */\n      dup7\n        /* \"#utility.yul\":20415:20431   */\n      add\n        /* \"#utility.yul\":20380:20445   */\n      tag_433\n      jump\t// in\n    tag_726:\n        /* \"#utility.yul\":20470:20476   */\n      dup1\n        /* \"#utility.yul\":20465:20468   */\n      dup5\n        /* \"#utility.yul\":20461:20477   */\n      add\n        /* \"#utility.yul\":20454:20477   */\n      swap2\n      pop\n        /* \"#utility.yul\":20203:20483   */\n      pop\n        /* \"#utility.yul\":20093:20483   */\n      swap3\n      swap2\n      pop\n      pop\n      jump\t// out\n        /* \"#utility.yul\":20513:21387   */\n    tag_486:\n        /* \"#utility.yul\":20616:20619   */\n      0x00\n        /* \"#utility.yul\":20653:20658   */\n      dup2\n        /* \"#utility.yul\":20647:20659   */\n      sload\n        /* \"#utility.yul\":20682:20718   */\n      tag_728\n        /* \"#utility.yul\":20708:20717   */\n      dup2\n        /* \"#utility.yul\":20682:20718   */\n      tag_158\n      jump\t// in\n    tag_728:\n        /* \"#utility.yul\":20734:20823   */\n      tag_729\n        /* \"#utility.yul\":20816:20822   */\n      dup2\n        /* \"#utility.yul\":20811:20814   */\n      dup7\n        /* \"#utility.yul\":20734:20823   */\n      tag_484\n      jump\t// in\n    tag_729:\n        /* \"#utility.yul\":20727:20823   */\n      swap5\n      pop\n        /* \"#utility.yul\":20854:20855   */\n      0x01\n        /* \"#utility.yul\":20843:20852   */\n      dup3\n        /* \"#utility.yul\":20839:20856   */\n      and\n        /* \"#utility.yul\":20870:20871   */\n      0x00\n        /* \"#utility.yul\":20865:21031   */\n      dup2\n      eq\n      tag_731\n      jumpi\n        /* \"#utility.yul\":21045:21046   */\n      0x01\n        /* \"#utility.yul\":21040:21381   */\n      dup2\n      eq\n      tag_732\n      jumpi\n        /* \"#utility.yul\":20832:21381   */\n      jump(tag_730)\n        /* \"#utility.yul\":20865:21031   */\n    tag_731:\n        /* \"#utility.yul\":20949:20953   */\n      0xff\n        /* \"#utility.yul\":20945:20954   */\n      not\n        /* \"#utility.yul\":20934:20943   */\n      dup4\n        /* \"#utility.yul\":20930:20955   */\n      and\n        /* \"#utility.yul\":20925:20928   */\n      dup7\n        /* \"#utility.yul\":20918:20956   */\n      mstore\n        /* \"#utility.yul\":21011:21017   */\n      dup2\n        /* \"#utility.yul\":21004:21018   */\n      iszero\n        /* \"#utility.yul\":20997:21019   */\n      iszero\n        /* \"#utility.yul\":20989:20995   */\n      dup3\n        /* \"#utility.yul\":20985:21020   */\n      mul\n        /* \"#utility.yul\":20980:20983   */\n      dup7\n        /* \"#utility.yul\":20976:21021   */\n      add\n        /* \"#utility.yul\":20969:21021   */\n      swap4\n      pop\n        /* \"#utility.yul\":20865:21031   */\n      jump(tag_730)\n        /* \"#utility.yul\":21040:21381   */\n    tag_732:\n        /* \"#utility.yul\":21107:21145   */\n      tag_733\n        /* \"#utility.yul\":21139:21144   */\n      dup6\n        /* \"#utility.yul\":21107:21145   */\n      tag_467\n      jump\t// in\n    tag_733:\n        /* \"#utility.yul\":21167:21168   */\n      0x00\n        /* \"#utility.yul\":21181:21335   */\n    tag_734:\n        /* \"#utility.yul\":21195:21201   */\n      dup4\n        /* \"#utility.yul\":21192:21193   */\n      dup2\n        /* \"#utility.yul\":21189:21202   */\n      lt\n        /* \"#utility.yul\":21181:21335   */\n      iszero\n      tag_736\n      jumpi\n        /* \"#utility.yul\":21269:21276   */\n      dup2\n        /* \"#utility.yul\":21263:21277   */\n      sload\n        /* \"#utility.yul\":21259:21260   */\n      dup2\n        /* \"#utility.yul\":21254:21257   */\n      dup10\n        /* \"#utility.yul\":21250:21261   */\n      add\n        /* \"#utility.yul\":21243:21278   */\n      mstore\n        /* \"#utility.yul\":21319:21320   */\n      0x01\n        /* \"#utility.yul\":21310:21317   */\n      dup3\n        /* \"#utility.yul\":21306:21321   */\n      add\n        /* \"#utility.yul\":21295:21321   */\n      swap2\n      pop\n        /* \"#utility.yul\":21217:21221   */\n      0x20\n        /* \"#utility.yul\":21214:21215   */\n      dup2\n        /* \"#utility.yul\":21210:21222   */\n      add\n        /* \"#utility.yul\":21205:21222   */\n      swap1\n      pop\n        /* \"#utility.yul\":21181:21335   */\n      jump(tag_734)\n    tag_736:\n        /* \"#utility.yul\":21364:21370   */\n      dup4\n        /* \"#utility.yul\":21359:21362   */\n      dup9\n        /* \"#utility.yul\":21355:21371   */\n      add\n        /* \"#utility.yul\":21348:21371   */\n      swap6\n      pop\n        /* \"#utility.yul\":21047:21381   */\n      pop\n      pop\n        /* \"#utility.yul\":20832:21381   */\n    tag_730:\n      pop\n        /* \"#utility.yul\":20620:21387   */\n      pop\n      pop\n        /* \"#utility.yul\":20513:21387   */\n      swap3\n      swap2\n      pop\n      pop\n      jump\t// out\n        /* \"#utility.yul\":21393:21982   */\n    tag_271:\n        /* \"#utility.yul\":21618:21621   */\n      0x00\n        /* \"#utility.yul\":21640:21735   */\n      tag_738\n        /* \"#utility.yul\":21731:21734   */\n      dup3\n        /* \"#utility.yul\":21722:21728   */\n      dup7\n        /* \"#utility.yul\":21640:21735   */\n      tag_485\n      jump\t// in\n    tag_738:\n        /* \"#utility.yul\":21633:21735   */\n      swap2\n      pop\n        /* \"#utility.yul\":21752:21847   */\n      tag_739\n        /* \"#utility.yul\":21843:21846   */\n      dup3\n        /* \"#utility.yul\":21834:21840   */\n      dup6\n        /* \"#utility.yul\":21752:21847   */\n      tag_485\n      jump\t// in\n    tag_739:\n        /* \"#utility.yul\":21745:21847   */\n      swap2\n      pop\n        /* \"#utility.yul\":21864:21956   */\n      tag_740\n        /* \"#utility.yul\":21952:21955   */\n      dup3\n        /* \"#utility.yul\":21943:21949   */\n      dup5\n        /* \"#utility.yul\":21864:21956   */\n      tag_486\n      jump\t// in\n    tag_740:\n        /* \"#utility.yul\":21857:21956   */\n      swap2\n      pop\n        /* \"#utility.yul\":21973:21976   */\n      dup2\n        /* \"#utility.yul\":21966:21976   */\n      swap1\n      pop\n        /* \"#utility.yul\":21393:21982   */\n      swap5\n      swap4\n      pop\n      pop\n      pop\n      pop\n      jump\t// out\n        /* \"#utility.yul\":21988:22213   */\n    tag_487:\n        /* \"#utility.yul\":22128:22162   */\n      0x4f776e61626c653a206e6577206f776e657220697320746865207a65726f2061\n        /* \"#utility.yul\":22124:22125   */\n      0x00\n        /* \"#utility.yul\":22116:22122   */\n      dup3\n        /* \"#utility.yul\":22112:22126   */\n      add\n        /* \"#utility.yul\":22105:22163   */\n      mstore\n        /* \"#utility.yul\":22197:22205   */\n      0x6464726573730000000000000000000000000000000000000000000000000000\n        /* \"#utility.yul\":22192:22194   */\n      0x20\n        /* \"#utility.yul\":22184:22190   */\n      dup3\n        /* \"#utility.yul\":22180:22195   */\n      add\n        /* \"#utility.yul\":22173:22206   */\n      mstore\n        /* \"#utility.yul\":21988:22213   */\n      pop\n      jump\t// out\n        /* \"#utility.yul\":22219:22585   */\n    tag_488:\n        /* \"#utility.yul\":22361:22364   */\n      0x00\n        /* \"#utility.yul\":22382:22449   */\n      tag_743\n        /* \"#utility.yul\":22446:22448   */\n      0x26\n        /* \"#utility.yul\":22441:22444   */\n      dup4\n        /* \"#utility.yul\":22382:22449   */\n      tag_432\n      jump\t// in\n    tag_743:\n        /* \"#utility.yul\":22375:22449   */\n      swap2\n      pop\n        /* \"#utility.yul\":22458:22551   */\n      tag_744\n        /* \"#utility.yul\":22547:22550   */\n      dup3\n        /* \"#utility.yul\":22458:22551   */\n      tag_487\n      jump\t// in\n    tag_744:\n        /* \"#utility.yul\":22576:22578   */\n      0x40\n        /* \"#utility.yul\":22571:22574   */\n      dup3\n        /* \"#utility.yul\":22567:22579   */\n      add\n        /* \"#utility.yul\":22560:22579   */\n      swap1\n      pop\n        /* \"#utility.yul\":22219:22585   */\n      swap2\n      swap1\n      pop\n      jump\t// out\n        /* \"#utility.yul\":22591:23010   */\n    tag_290:\n        /* \"#utility.yul\":22757:22761   */\n      0x00\n        /* \"#utility.yul\":22795:22797   */\n      0x20\n        /* \"#utility.yul\":22784:22793   */\n      dup3\n        /* \"#utility.yul\":22780:22798   */\n      add\n        /* \"#utility.yul\":22772:22798   */\n      swap1\n      pop\n        /* \"#utility.yul\":22844:22853   */\n      dup2\n        /* \"#utility.yul\":22838:22842   */\n      dup2\n        /* \"#utility.yul\":22834:22854   */\n      sub\n        /* \"#utility.yul\":22830:22831   */\n      0x00\n        /* \"#utility.yul\":22819:22828   */\n      dup4\n        /* \"#utility.yul\":22815:22832   */\n      add\n        /* \"#utility.yul\":22808:22855   */\n      mstore\n        /* \"#utility.yul\":22872:23003   */\n      tag_746\n        /* \"#utility.yul\":22998:23002   */\n      dup2\n        /* \"#utility.yul\":22872:23003   */\n      tag_488\n      jump\t// in\n    tag_746:\n        /* \"#utility.yul\":22864:23003   */\n      swap1\n      pop\n        /* \"#utility.yul\":22591:23010   */\n      swap2\n      swap1\n      pop\n      jump\t// out\n        /* \"#utility.yul\":23016:23196   */\n    tag_489:\n        /* \"#utility.yul\":23064:23141   */\n      0x4e487b7100000000000000000000000000000000000000000000000000000000\n        /* \"#utility.yul\":23061:23062   */\n      0x00\n        /* \"#utility.yul\":23054:23142   */\n      mstore\n        /* \"#utility.yul\":23161:23165   */\n      0x11\n        /* \"#utility.yul\":23158:23159   */\n      0x04\n        /* \"#utility.yul\":23151:23166   */\n      mstore\n        /* \"#utility.yul\":23185:23189   */\n      0x24\n        /* \"#utility.yul\":23182:23183   */\n      0x00\n        /* \"#utility.yul\":23175:23190   */\n      revert\n        /* \"#utility.yul\":23202:23373   */\n    tag_299:\n        /* \"#utility.yul\":23241:23244   */\n      0x00\n        /* \"#utility.yul\":23264:23288   */\n      tag_749\n        /* \"#utility.yul\":23282:23287   */\n      dup3\n        /* \"#utility.yul\":23264:23288   */\n      tag_436\n      jump\t// in\n    tag_749:\n        /* \"#utility.yul\":23255:23288   */\n      swap2\n      pop\n        /* \"#utility.yul\":23310:23314   */\n      0x00\n        /* \"#utility.yul\":23303:23308   */\n      dup3\n        /* \"#utility.yul\":23300:23315   */\n      sub\n        /* \"#utility.yul\":23297:23338   */\n      tag_750\n      jumpi\n        /* \"#utility.yul\":23318:23336   */\n      tag_751\n      tag_489\n      jump\t// in\n    tag_751:\n        /* \"#utility.yul\":23297:23338   */\n    tag_750:\n        /* \"#utility.yul\":23365:23366   */\n      0x01\n        /* \"#utility.yul\":23358:23363   */\n      dup3\n        /* \"#utility.yul\":23354:23367   */\n      sub\n        /* \"#utility.yul\":23347:23367   */\n      swap1\n      pop\n        /* \"#utility.yul\":23202:23373   */\n      swap2\n      swap1\n      pop\n      jump\t// out\n        /* \"#utility.yul\":23379:23561   */\n    tag_490:\n        /* \"#utility.yul\":23519:23553   */\n      0x4f776e61626c653a2063616c6c6572206973206e6f7420746865206f776e6572\n        /* \"#utility.yul\":23515:23516   */\n      0x00\n        /* \"#utility.yul\":23507:23513   */\n      dup3\n        /* \"#utility.yul\":23503:23517   */\n      add\n        /* \"#utility.yul\":23496:23554   */\n      mstore\n        /* \"#utility.yul\":23379:23561   */\n      pop\n      jump\t// out\n        /* \"#utility.yul\":23567:23933   */\n    tag_491:\n        /* \"#utility.yul\":23709:23712   */\n      0x00\n        /* \"#utility.yul\":23730:23797   */\n      tag_754\n        /* \"#utility.yul\":23794:23796   */\n      0x20\n        /* \"#utility.yul\":23789:23792   */\n      dup4\n        /* \"#utility.yul\":23730:23797   */\n      tag_432\n      jump\t// in\n    tag_754:\n        /* \"#utility.yul\":23723:23797   */\n      swap2\n      pop\n        /* \"#utility.yul\":23806:23899   */\n      tag_755\n        /* \"#utility.yul\":23895:23898   */\n      dup3\n        /* \"#utility.yul\":23806:23899   */\n      tag_490\n      jump\t// in\n    tag_755:\n        /* \"#utility.yul\":23924:23926   */\n      0x20\n        /* \"#utility.yul\":23919:23922   */\n      dup3\n        /* \"#utility.yul\":23915:23927   */\n      add\n        /* \"#utility.yul\":23908:23927   */\n      swap1\n      pop\n        /* \"#utility.yul\":23567:23933   */\n      swap2\n      swap1\n      pop\n      jump\t// out\n        /* \"#utility.yul\":23939:24358   */\n    tag_316:\n        /* \"#utility.yul\":24105:24109   */\n      0x00\n        /* \"#utility.yul\":24143:24145   */\n      0x20\n        /* \"#utility.yul\":24132:24141   */\n      dup3\n        /* \"#utility.yul\":24128:24146   */\n      add\n        /* \"#utility.yul\":24120:24146   */\n      swap1\n      pop\n        /* \"#utility.yul\":24192:24201   */\n      dup2\n        /* \"#utility.yul\":24186:24190   */\n      dup2\n        /* \"#utility.yul\":24182:24202   */\n      sub\n        /* \"#utility.yul\":24178:24179   */\n      0x00\n        /* \"#utility.yul\":24167:24176   */\n      dup4\n        /* \"#utility.yul\":24163:24180   */\n      add\n        /* \"#utility.yul\":24156:24203   */\n      mstore\n        /* \"#utility.yul\":24220:24351   */\n      tag_757\n        /* \"#utility.yul\":24346:24350   */\n      dup2\n        /* \"#utility.yul\":24220:24351   */\n      tag_491\n      jump\t// in\n    tag_757:\n        /* \"#utility.yul\":24212:24351   */\n      swap1\n      pop\n        /* \"#utility.yul\":23939:24358   */\n      swap2\n      swap1\n      pop\n      jump\t// out\n        /* \"#utility.yul\":24364:24462   */\n    tag_492:\n        /* \"#utility.yul\":24415:24421   */\n      0x00\n        /* \"#utility.yul\":24449:24454   */\n      dup2\n        /* \"#utility.yul\":24443:24455   */\n      mload\n        /* \"#utility.yul\":24433:24455   */\n      swap1\n      pop\n        /* \"#utility.yul\":24364:24462   */\n      swap2\n      swap1\n      pop\n      jump\t// out\n        /* \"#utility.yul\":24468:24636   */\n    tag_493:\n        /* \"#utility.yul\":24551:24562   */\n      0x00\n        /* \"#utility.yul\":24585:24591   */\n      dup3\n        /* \"#utility.yul\":24580:24583   */\n      dup3\n        /* \"#utility.yul\":24573:24592   */\n      mstore\n        /* \"#utility.yul\":24625:24629   */\n      0x20\n        /* \"#utility.yul\":24620:24623   */\n      dup3\n        /* \"#utility.yul\":24616:24630   */\n      add\n        /* \"#utility.yul\":24601:24630   */\n      swap1\n      pop\n        /* \"#utility.yul\":24468:24636   */\n      swap3\n      swap2\n      pop\n      pop\n      jump\t// out\n        /* \"#utility.yul\":24642:25015   */\n    tag_494:\n        /* \"#utility.yul\":24728:24731   */\n      0x00\n        /* \"#utility.yul\":24756:24794   */\n      tag_761\n        /* \"#utility.yul\":24788:24793   */\n      dup3\n        /* \"#utility.yul\":24756:24794   */\n      tag_492\n      jump\t// in\n    tag_761:\n        /* \"#utility.yul\":24810:24880   */\n      tag_762\n        /* \"#utility.yul\":24873:24879   */\n      dup2\n        /* \"#utility.yul\":24868:24871   */\n      dup6\n        /* \"#utility.yul\":24810:24880   */\n      tag_493\n      jump\t// in\n    tag_762:\n        /* \"#utility.yul\":24803:24880   */\n      swap4\n      pop\n        /* \"#utility.yul\":24889:24954   */\n      tag_763\n        /* \"#utility.yul\":24947:24953   */\n      dup2\n        /* \"#utility.yul\":24942:24945   */\n      dup6\n        /* \"#utility.yul\":24935:24939   */\n      0x20\n        /* \"#utility.yul\":24928:24933   */\n      dup7\n        /* \"#utility.yul\":24924:24940   */\n      add\n        /* \"#utility.yul\":24889:24954   */\n      tag_433\n      jump\t// in\n    tag_763:\n        /* \"#utility.yul\":24979:25008   */\n      tag_764\n        /* \"#utility.yul\":25001:25007   */\n      dup2\n        /* \"#utility.yul\":24979:25008   */\n      tag_434\n      jump\t// in\n    tag_764:\n        /* \"#utility.yul\":24974:24977   */\n      dup5\n        /* \"#utility.yul\":24970:25009   */\n      add\n        /* \"#utility.yul\":24963:25009   */\n      swap2\n      pop\n        /* \"#utility.yul\":24732:25015   */\n      pop\n        /* \"#utility.yul\":24642:25015   */\n      swap3\n      swap2\n      pop\n      pop\n      jump\t// out\n        /* \"#utility.yul\":25021:25661   */\n    tag_348:\n        /* \"#utility.yul\":25216:25220   */\n      0x00\n        /* \"#utility.yul\":25254:25257   */\n      0x80\n        /* \"#utility.yul\":25243:25252   */\n      dup3\n        /* \"#utility.yul\":25239:25258   */\n      add\n        /* \"#utility.yul\":25231:25258   */\n      swap1\n      pop\n        /* \"#utility.yul\":25268:25339   */\n      tag_766\n        /* \"#utility.yul\":25336:25337   */\n      0x00\n        /* \"#utility.yul\":25325:25334   */\n      dup4\n        /* \"#utility.yul\":25321:25338   */\n      add\n        /* \"#utility.yul\":25312:25318   */\n      dup8\n        /* \"#utility.yul\":25268:25339   */\n      tag_441\n      jump\t// in\n    tag_766:\n        /* \"#utility.yul\":25349:25421   */\n      tag_767\n        /* \"#utility.yul\":25417:25419   */\n      0x20\n        /* \"#utility.yul\":25406:25415   */\n      dup4\n        /* \"#utility.yul\":25402:25420   */\n      add\n        /* \"#utility.yul\":25393:25399   */\n      dup7\n        /* \"#utility.yul\":25349:25421   */\n      tag_441\n      jump\t// in\n    tag_767:\n        /* \"#utility.yul\":25431:25503   */\n      tag_768\n        /* \"#utility.yul\":25499:25501   */\n      0x40\n        /* \"#utility.yul\":25488:25497   */\n      dup4\n        /* \"#utility.yul\":25484:25502   */\n      add\n        /* \"#utility.yul\":25475:25481   */\n      dup6\n        /* \"#utility.yul\":25431:25503   */\n      tag_453\n      jump\t// in\n    tag_768:\n        /* \"#utility.yul\":25550:25559   */\n      dup2\n        /* \"#utility.yul\":25544:25548   */\n      dup2\n        /* \"#utility.yul\":25540:25560   */\n      sub\n        /* \"#utility.yul\":25535:25537   */\n      0x60\n        /* \"#utility.yul\":25524:25533   */\n      dup4\n        /* \"#utility.yul\":25520:25538   */\n      add\n        /* \"#utility.yul\":25513:25561   */\n      mstore\n        /* \"#utility.yul\":25578:25654   */\n      tag_769\n        /* \"#utility.yul\":25649:25653   */\n      dup2\n        /* \"#utility.yul\":25640:25646   */\n      dup5\n        /* \"#utility.yul\":25578:25654   */\n      tag_494\n      jump\t// in\n    tag_769:\n        /* \"#utility.yul\":25570:25654   */\n      swap1\n      pop\n        /* \"#utility.yul\":25021:25661   */\n      swap6\n      swap5\n      pop\n      pop\n      pop\n      pop\n      pop\n      jump\t// out\n        /* \"#utility.yul\":25667:25808   */\n    tag_495:\n        /* \"#utility.yul\":25723:25728   */\n      0x00\n        /* \"#utility.yul\":25754:25760   */\n      dup2\n        /* \"#utility.yul\":25748:25761   */\n      mload\n        /* \"#utility.yul\":25739:25761   */\n      swap1\n      pop\n        /* \"#utility.yul\":25770:25802   */\n      tag_771\n        /* \"#utility.yul\":25796:25801   */\n      dup2\n        /* \"#utility.yul\":25770:25802   */\n      tag_427\n      jump\t// in\n    tag_771:\n        /* \"#utility.yul\":25667:25808   */\n      swap3\n      swap2\n      pop\n      pop\n      jump\t// out\n        /* \"#utility.yul\":25814:26163   */\n    tag_351:\n        /* \"#utility.yul\":25883:25889   */\n      0x00\n        /* \"#utility.yul\":25932:25934   */\n      0x20\n        /* \"#utility.yul\":25920:25929   */\n      dup3\n        /* \"#utility.yul\":25911:25918   */\n      dup5\n        /* \"#utility.yul\":25907:25930   */\n      sub\n        /* \"#utility.yul\":25903:25935   */\n      slt\n        /* \"#utility.yul\":25900:26019   */\n      iszero\n      tag_773\n      jumpi\n        /* \"#utility.yul\":25938:26017   */\n      tag_774\n      tag_424\n      jump\t// in\n    tag_774:\n        /* \"#utility.yul\":25900:26019   */\n    tag_773:\n        /* \"#utility.yul\":26058:26059   */\n      0x00\n        /* \"#utility.yul\":26083:26146   */\n      tag_775\n        /* \"#utility.yul\":26138:26145   */\n      dup5\n        /* \"#utility.yul\":26129:26135   */\n      dup3\n        /* \"#utility.yul\":26118:26127   */\n      dup6\n        /* \"#utility.yul\":26114:26136   */\n      add\n        /* \"#utility.yul\":26083:26146   */\n      tag_495\n      jump\t// in\n    tag_775:\n        /* \"#utility.yul\":26073:26146   */\n      swap2\n      pop\n        /* \"#utility.yul\":26029:26156   */\n      pop\n        /* \"#utility.yul\":25814:26163   */\n      swap3\n      swap2\n      pop\n      pop\n      jump\t// out\n\n    auxdata: 0xa26469706673582212207ec81eba4eee87dd29e0051caa24a05382193d93e1ee78cd490310c5ea5a49d164736f6c63430008120033\n}\n",
				"bytecode": {
					"linkReferences": {},
					"object": "6080604052604051806020016040528060008152506006908162000024919062000405565b503480156200003257600080fd5b50604051620033a1380380620033a1833981810160405281019062000058919062000650565b620000786200006c620000ba60201b60201c565b620000c260201b60201c565b816003908162000089919062000405565b5080600490816200009b919062000405565b50620000ac6200018660201b60201c565b6001819055505050620006d5565b600033905090565b60008060009054906101000a900473ffffffffffffffffffffffffffffffffffffffff169050816000806101000a81548173ffffffffffffffffffffffffffffffffffffffff021916908373ffffffffffffffffffffffffffffffffffffffff1602179055508173ffffffffffffffffffffffffffffffffffffffff168173ffffffffffffffffffffffffffffffffffffffff167f8be0079c531659141344cd1fd0a4f28419497f9722a3daafe3b4186f6b6457e060405160405180910390a35050565b600090565b600081519050919050565b7f4e487b7100000000000000000000000000000000000000000000000000000000600052604160045260246000fd5b7f4e487b7100000000000000000000000000000000000000000000000000000000600052602260045260246000fd5b600060028204905060018216806200020d57607f821691505b602082108103620002235762000222620001c5565b5b50919050565b60008190508160005260206000209050919050565b60006020601f8301049050919050565b600082821b905092915050565b6000600883026200028d7fffffffffffffffffffffffffffffffffffffffffffffffffffffffffffffffff826200024e565b6200029986836200024e565b95508019841693508086168417925050509392505050565b6000819050919050565b6000819050919050565b6000620002e6620002e0620002da84620002b1565b620002bb565b620002b1565b9050919050565b6000819050919050565b6200030283620002c5565b6200031a6200031182620002ed565b8484546200025b565b825550505050565b600090565b6200033162000322565b6200033e818484620002f7565b505050565b5b8181101562000366576200035a60008262000327565b60018101905062000344565b5050565b601f821115620003b5576200037f8162000229565b6200038a846200023e565b810160208510156200039a578190505b620003b2620003a9856200023e565b83018262000343565b50505b505050565b600082821c905092915050565b6000620003da60001984600802620003ba565b1980831691505092915050565b6000620003f58383620003c7565b9150826002028217905092915050565b62000410826200018b565b67ffffffffffffffff8111156200042c576200042b62000196565b5b620004388254620001f4565b620004458282856200036a565b600060209050601f8311600181146200047d576000841562000468578287015190505b620004748582620003e7565b865550620004e4565b601f1984166200048d8662000229565b60005b82811015620004b75784890151825560018201915060208501945060208101905062000490565b86831015620004d75784890151620004d3601f891682620003c7565b8355505b6001600288020188555050505b505050505050565b6000604051905090565b600080fd5b600080fd5b600080fd5b600080fd5b6000601f19601f8301169050919050565b62000526826200050a565b810181811067ffffffffffffffff8211171562000548576200054762000196565b5b80604052505050565b60006200055d620004ec565b90506200056b82826200051b565b919050565b600067ffffffffffffffff8211156200058e576200058d62000196565b5b62000599826200050a565b9050602081019050919050565b60005b83811015620005c6578082015181840152602081019050620005a9565b60008484015250505050565b6000620005e9620005e38462000570565b62000551565b90508281526020810184848401111562000608576200060762000505565b5b62000615848285620005a6565b509392505050565b600082601f83011262000635576200063462000500565b5b815162000647848260208601620005d2565b91505092915050565b600080604083850312156200066a5762000669620004f6565b5b600083015167ffffffffffffffff8111156200068b576200068a620004fb565b5b62000699858286016200061d565b925050602083015167ffffffffffffffff811115620006bd57620006bc620004fb565b5b620006cb858286016200061d565b9150509250929050565b612cbc80620006e56000396000f3fe6080604052600436106101815760003560e01c806370a08231116100d1578063b88d4fde1161008a578063e985e9c511610064578063e985e9c514610536578063f0c7b3aa14610573578063f259a29e146105b0578063f2fde38b146105db57610181565b8063b88d4fde146104b4578063c87b56dd146104d0578063dc76668d1461050d57610181565b806370a08231146103b8578063715018a6146103f55780638da5cb5b1461040c57806395d89b4114610437578063a22cb46514610462578063b6b285d91461048b57610181565b806323b872dd1161013e57806350caa3411161011857806350caa341146102fc5780635503a0e81461032757806355f804b3146103525780636352211e1461037b57610181565b806323b872dd1461029b57806340c10f19146102b757806342842e0e146102e057610181565b806301ffc9a71461018657806306fdde03146101c3578063081812fc146101ee578063095ea7b31461022b57806316ba10e01461024757806318160ddd14610270575b600080fd5b34801561019257600080fd5b506101ad60048036038101906101a89190611efb565b610604565b6040516101ba9190611f43565b60405180910390f35b3480156101cf57600080fd5b506101d8610696565b6040516101e59190611fee565b60405180910390f35b3480156101fa57600080fd5b5061021560048036038101906102109190612046565b610728565b60405161022291906120b4565b60405180910390f35b610245600480360381019061024091906120fb565b610786565b005b34801561025357600080fd5b5061026e60048036038101906102699190612270565b610796565b005b34801561027c57600080fd5b506102856107b1565b60405161029291906122c8565b60405180910390f35b6102b560048036038101906102b091906122e3565b6107c8565b005b3480156102c357600080fd5b506102de60048036038101906102d991906120fb565b610a89565b005b6102fa60048036038101906102f591906122e3565b610b2a565b005b34801561030857600080fd5b50610311610b4a565b60405161031e91906123f4565b60405180910390f35b34801561033357600080fd5b5061033c610bdf565b6040516103499190611fee565b60405180910390f35b34801561035e57600080fd5b5061037960048036038101906103749190612270565b610c6d565b005b34801561038757600080fd5b506103a2600480360381019061039d9190612046565b610c88565b6040516103af91906120b4565b60405180910390f35b3480156103c457600080fd5b506103df60048036038101906103da9190612416565b610c9a565b6040516103ec91906122c8565b60405180910390f35b34801561040157600080fd5b5061040a610d31565b005b34801561041857600080fd5b50610421610d45565b60405161042e91906120b4565b60405180910390f35b34801561044357600080fd5b5061044c610d6e565b6040516104599190611fee565b60405180910390f35b34801561046e57600080fd5b506104896004803603810190610484919061246f565b610e00565b005b34801561049757600080fd5b506104b260048036038101906104ad9190612416565b610f0b565b005b6104ce60048036038101906104c99190612550565b610f66565b005b3480156104dc57600080fd5b506104f760048036038101906104f29190612046565b610fb8565b6040516105049190611fee565b60405180910390f35b34801561051957600080fd5b50610534600480360381019061052f9190612046565b611038565b005b34801561054257600080fd5b5061055d600480360381019061055891906125d3565b611153565b60405161056a9190611f43565b60405180910390f35b34801561057f57600080fd5b5061059a60048036038101906105959190612046565b6111e7565b6040516105a79190611f43565b60405180910390f35b3480156105bc57600080fd5b506105c561124e565b6040516105d29190611fee565b60405180910390f35b3480156105e757600080fd5b5061060260048036038101906105fd9190612416565b6112dc565b005b60006301ffc9a760e01b827bffffffffffffffffffffffffffffffffffffffffffffffffffffffff1916148061065f57506380ac58cd60e01b827bffffffffffffffffffffffffffffffffffffffffffffffffffffffff1916145b8061068f5750635b5e139f60e01b827bffffffffffffffffffffffffffffffffffffffffffffffffffffffff1916145b9050919050565b6060600380546106a590612642565b80601f01602080910402602001604051908101604052809291908181526020018280546106d190612642565b801561071e5780601f106106f35761010080835404028352916020019161071e565b820191906000526020600020905b81548152906001019060200180831161070157829003601f168201915b5050505050905090565b60006107338261135f565b6107485761074763cf4700e460e01b6113d8565b5b600d600083815260200190815260200160002060000160009054906101000a900473ffffffffffffffffffffffffffffffffffffffff169050919050565b610792828260016113e2565b5050565b61079e611511565b80600690816107ad919061281f565b5050565b60006107bb61158f565b6002546001540303905090565b60006107d382611594565b905073ffffffffffffffffffffffffffffffffffffffff8473ffffffffffffffffffffffffffffffffffffffff161693508373ffffffffffffffffffffffffffffffffffffffff168173ffffffffffffffffffffffffffffffffffffffff16146108485761084763a114810060e01b6113d8565b5b60008061085484611680565b9150915061086a81876108656116a7565b6116af565b6108955761087f8661087a6116a7565b611153565b610894576108936359c896be60e01b6113d8565b5b5b6108a286868660016116f3565b80156108ad57600082555b600c60008773ffffffffffffffffffffffffffffffffffffffff1673ffffffffffffffffffffffffffffffffffffffff168152602001908152602001600020600081546001900391905081905550600c60008673ffffffffffffffffffffffffffffffffffffffff1673ffffffffffffffffffffffffffffffffffffffff168152602001908152602001600020600081546001019190508190555061097b856109578888876116f9565b7c020000000000000000000000000000000000000000000000000000000017611721565b600b60008681526020019081526020016000208190555060007c0200000000000000000000000000000000000000000000000000000000841603610a015760006001850190506000600b600083815260200190815260200160002054036109ff5760015481146109fe5783600b6000838152602001908152602001600020819055505b5b505b600073ffffffffffffffffffffffffffffffffffffffff8673ffffffffffffffffffffffffffffffffffffffff161690508481887fddf252ad1be2c89b69c2b068fc378daa952ba7f163c4a11628f55a4df523b3ef600080a460008103610a7357610a7263ea553b3460e01b6113d8565b5b610a80878787600161174c565b50505050505050565b60011515600960003373ffffffffffffffffffffffffffffffffffffffff1673ffffffffffffffffffffffffffffffffffffffff16815260200190815260200160002060009054906101000a900460ff16151514610b1c576040517f08c379a0000000000000000000000000000000000000000000000000000000008152600401610b139061293d565b60405180910390fd5b610b268282611752565b5050565b610b4583838360405180602001604052806000815250610f66565b505050565b6060600760003373ffffffffffffffffffffffffffffffffffffffff1673ffffffffffffffffffffffffffffffffffffffff168152602001908152602001600020805480602002602001604051908101604052809291908181526020018280548015610bd557602002820191906000526020600020905b815481526020019060010190808311610bc1575b5050505050905090565b60068054610bec90612642565b80601f0160208091040260200160405190810160405280929190818152602001828054610c1890612642565b8015610c655780601f10610c3a57610100808354040283529160200191610c65565b820191906000526020600020905b815481529060010190602001808311610c4857829003601f168201915b505050505081565b610c75611511565b8060059081610c84919061281f565b5050565b6000610c9382611594565b9050919050565b60008073ffffffffffffffffffffffffffffffffffffffff168273ffffffffffffffffffffffffffffffffffffffff1603610ce057610cdf638f4eb60460e01b6113d8565b5b67ffffffffffffffff600c60008473ffffffffffffffffffffffffffffffffffffffff1673ffffffffffffffffffffffffffffffffffffffff16815260200190815260200160002054169050919050565b610d39611511565b610d436000611770565b565b60008060009054906101000a900473ffffffffffffffffffffffffffffffffffffffff16905090565b606060048054610d7d90612642565b80601f0160208091040260200160405190810160405280929190818152602001828054610da990612642565b8015610df65780601f10610dcb57610100808354040283529160200191610df6565b820191906000526020600020905b815481529060010190602001808311610dd957829003601f168201915b5050505050905090565b80600e6000610e0d6116a7565b73ffffffffffffffffffffffffffffffffffffffff1673ffffffffffffffffffffffffffffffffffffffff16815260200190815260200160002060008473ffffffffffffffffffffffffffffffffffffffff1673ffffffffffffffffffffffffffffffffffffffff16815260200190815260200160002060006101000a81548160ff0219169083151502179055508173ffffffffffffffffffffffffffffffffffffffff16610eba6116a7565b73ffffffffffffffffffffffffffffffffffffffff167f17307eab39ab6107e8899845ad3d59bd9653f200f220920489ca2b5937696c3183604051610eff9190611f43565b60405180910390a35050565b6001600960008373ffffffffffffffffffffffffffffffffffffffff1673ffffffffffffffffffffffffffffffffffffffff16815260200190815260200160002060006101000a81548160ff02191690831515021790555050565b610f718484846107c8565b60008373ffffffffffffffffffffffffffffffffffffffff163b14610fb257610f9c84848484611834565b610fb157610fb063d1a57ed660e01b6113d8565b5b5b50505050565b6060610fc38261135f565b610fd857610fd763a14c4b5060e01b6113d8565b5b6000610fe2611963565b905060008151036110025760405180602001604052806000815250611030565b8061100c846119f5565b600660405160200161102093929190612a1c565b6040516020818303038152906040525b915050919050565b3373ffffffffffffffffffffffffffffffffffffffff1661105882610c88565b73ffffffffffffffffffffffffffffffffffffffff161461107857600080fd5b6001600a60003373ffffffffffffffffffffffffffffffffffffffff1673ffffffffffffffffffffffffffffffffffffffff168152602001908152602001600020600083815260200190815260200160002060006101000a81548160ff021916908315150217905550600760003373ffffffffffffffffffffffffffffffffffffffff1673ffffffffffffffffffffffffffffffffffffffff16815260200190815260200160002081908060018154018082558091505060019003906000526020600020016000909190919091505561115081611a45565b50565b6000600e60008473ffffffffffffffffffffffffffffffffffffffff1673ffffffffffffffffffffffffffffffffffffffff16815260200190815260200160002060008373ffffffffffffffffffffffffffffffffffffffff1673ffffffffffffffffffffffffffffffffffffffff16815260200190815260200160002060009054906101000a900460ff16905092915050565b6000600a60003373ffffffffffffffffffffffffffffffffffffffff1673ffffffffffffffffffffffffffffffffffffffff168152602001908152602001600020600083815260200190815260200160002060009054906101000a900460ff169050919050565b6005805461125b90612642565b80601f016020809104026020016040519081016040528092919081815260200182805461128790612642565b80156112d45780601f106112a9576101008083540402835291602001916112d4565b820191906000526020600020905b8154815290600101906020018083116112b757829003601f168201915b505050505081565b6112e4611511565b600073ffffffffffffffffffffffffffffffffffffffff168173ffffffffffffffffffffffffffffffffffffffff1603611353576040517f08c379a000000000000000000000000000000000000000000000000000000000815260040161134a90612abf565b60405180910390fd5b61135c81611770565b50565b60008161136a61158f565b116113d3576001548210156113d25760005b6000600b600085815260200190815260200160002054915081036113ab57826113a490612b0e565b925061137c565b60007c01000000000000000000000000000000000000000000000000000000008216149150505b5b919050565b8060005260046000fd5b60006113ed83610c88565b905081801561142f57508073ffffffffffffffffffffffffffffffffffffffff166114166116a7565b73ffffffffffffffffffffffffffffffffffffffff1614155b1561145b57611445816114406116a7565b611153565b61145a5761145963cfb3b94260e01b6113d8565b5b5b83600d600085815260200190815260200160002060000160006101000a81548173ffffffffffffffffffffffffffffffffffffffff021916908373ffffffffffffffffffffffffffffffffffffffff160217905550828473ffffffffffffffffffffffffffffffffffffffff168273ffffffffffffffffffffffffffffffffffffffff167f8c5be1e5ebec7d5bd14f71427d1e84f3dd0314c0f7b2291e5b200ac8c7c3b92560405160405180910390a450505050565b611519611a53565b73ffffffffffffffffffffffffffffffffffffffff16611537610d45565b73ffffffffffffffffffffffffffffffffffffffff161461158d576040517f08c379a000000000000000000000000000000000000000000000000000000000815260040161158490612b83565b60405180910390fd5b565b600090565b60008161159f61158f565b1161166a57600b6000838152602001908152602001600020549050600081036116415760015482106115dc576115db63df2d9b4260e01b6113d8565b5b5b600b600083600190039350838152602001908152602001600020549050600081031561163c5760007c01000000000000000000000000000000000000000000000000000000008216031561167b5761163b63df2d9b4260e01b6113d8565b5b6115dd565b60007c01000000000000000000000000000000000000000000000000000000008216031561167b575b61167a63df2d9b4260e01b6113d8565b5b919050565b6000806000600d600085815260200190815260200160002090508092508254915050915091565b600033905090565b600073ffffffffffffffffffffffffffffffffffffffff8316925073ffffffffffffffffffffffffffffffffffffffff821691508382148383141790509392505050565b50505050565b60008060e883901c905060e8611710868684611a5b565b62ffffff16901b9150509392505050565b600073ffffffffffffffffffffffffffffffffffffffff83169250814260a01b178317905092915050565b50505050565b61176c828260405180602001604052806000815250611a64565b5050565b60008060009054906101000a900473ffffffffffffffffffffffffffffffffffffffff169050816000806101000a81548173ffffffffffffffffffffffffffffffffffffffff021916908373ffffffffffffffffffffffffffffffffffffffff1602179055508173ffffffffffffffffffffffffffffffffffffffff168173ffffffffffffffffffffffffffffffffffffffff167f8be0079c531659141344cd1fd0a4f28419497f9722a3daafe3b4186f6b6457e060405160405180910390a35050565b60008373ffffffffffffffffffffffffffffffffffffffff1663150b7a0261185a6116a7565b8786866040518563ffffffff1660e01b815260040161187c9493929190612bf8565b6020604051808303816000875af19250505080156118b857506040513d601f19601f820116820180604052508101906118b59190612c59565b60015b611910573d80600081146118e8576040519150601f19603f3d011682016040523d82523d6000602084013e6118ed565b606091505b5060008151036119085761190763d1a57ed660e01b6113d8565b5b805181602001fd5b63150b7a0260e01b7bffffffffffffffffffffffffffffffffffffffffffffffffffffffff1916817bffffffffffffffffffffffffffffffffffffffffffffffffffffffff191614915050949350505050565b60606005805461197290612642565b80601f016020809104026020016040519081016040528092919081815260200182805461199e90612642565b80156119eb5780601f106119c0576101008083540402835291602001916119eb565b820191906000526020600020905b8154815290600101906020018083116119ce57829003601f168201915b5050505050905090565b606060a060405101806040526020810391506000825281835b600115611a3057600184039350600a81066030018453600a8104905080611a0e575b50828103602084039350808452505050919050565b611a50816000611aea565b50565b600033905090565b60009392505050565b611a6e8383611d1b565b60008373ffffffffffffffffffffffffffffffffffffffff163b14611ae55760006001549050600083820390505b611aaf6000868380600101945086611834565b611ac457611ac363d1a57ed660e01b6113d8565b5b818110611a9c578160015414611ae257611ae1600060e01b6113d8565b5b50505b505050565b6000611af583611594565b90506000819050600080611b0886611680565b915091508415611b5057611b248184611b1f6116a7565b6116af565b611b4f57611b3983611b346116a7565b611153565b611b4e57611b4d6359c896be60e01b6113d8565b5b5b5b611b5e8360008860016116f3565b8015611b6957600082555b600160806001901b03600c60008573ffffffffffffffffffffffffffffffffffffffff1673ffffffffffffffffffffffffffffffffffffffff16815260200190815260200160002060008282540192505081905550611c1183611bce856000886116f9565b7c02000000000000000000000000000000000000000000000000000000007c01000000000000000000000000000000000000000000000000000000001717611721565b600b60008881526020019081526020016000208190555060007c0200000000000000000000000000000000000000000000000000000000851603611c975760006001870190506000600b60008381526020019081526020016000205403611c95576001548114611c945784600b6000838152602001908152602001600020819055505b5b505b85600073ffffffffffffffffffffffffffffffffffffffff168473ffffffffffffffffffffffffffffffffffffffff167fddf252ad1be2c89b69c2b068fc378daa952ba7f163c4a11628f55a4df523b3ef60405160405180910390a4611d0183600088600161174c565b600260008154809291906001019190505550505050505050565b6000600154905060008203611d3b57611d3a63b562e8dd60e01b6113d8565b5b611d4860008483856116f3565b611d6883611d5960008660006116f9565b611d6285611e7f565b17611721565b600b600083815260200190815260200160002081905550600160406001901b178202600c60008573ffffffffffffffffffffffffffffffffffffffff1673ffffffffffffffffffffffffffffffffffffffff16815260200190815260200160002060008282540192505081905550600073ffffffffffffffffffffffffffffffffffffffff8473ffffffffffffffffffffffffffffffffffffffff1616905060008103611e2057611e1f632e07630060e01b6113d8565b5b6000838301905060008390505b808360007fddf252ad1be2c89b69c2b068fc378daa952ba7f163c4a11628f55a4df523b3ef600080a4818160010191508103611e2d5781600181905550505050611e7a600084838561174c565b505050565b60006001821460e11b9050919050565b6000604051905090565b600080fd5b600080fd5b60007fffffffff0000000000000000000000000000000000000000000000000000000082169050919050565b611ed881611ea3565b8114611ee357600080fd5b50565b600081359050611ef581611ecf565b92915050565b600060208284031215611f1157611f10611e99565b5b6000611f1f84828501611ee6565b91505092915050565b60008115159050919050565b611f3d81611f28565b82525050565b6000602082019050611f586000830184611f34565b92915050565b600081519050919050565b600082825260208201905092915050565b60005b83811015611f98578082015181840152602081019050611f7d565b60008484015250505050565b6000601f19601f8301169050919050565b6000611fc082611f5e565b611fca8185611f69565b9350611fda818560208601611f7a565b611fe381611fa4565b840191505092915050565b600060208201905081810360008301526120088184611fb5565b905092915050565b6000819050919050565b61202381612010565b811461202e57600080fd5b50565b6000813590506120408161201a565b92915050565b60006020828403121561205c5761205b611e99565b5b600061206a84828501612031565b91505092915050565b600073ffffffffffffffffffffffffffffffffffffffff82169050919050565b600061209e82612073565b9050919050565b6120ae81612093565b82525050565b60006020820190506120c960008301846120a5565b92915050565b6120d881612093565b81146120e357600080fd5b50565b6000813590506120f5816120cf565b92915050565b6000806040838503121561211257612111611e99565b5b6000612120858286016120e6565b925050602061213185828601612031565b9150509250929050565b600080fd5b600080fd5b7f4e487b7100000000000000000000000000000000000000000000000000000000600052604160045260246000fd5b61217d82611fa4565b810181811067ffffffffffffffff8211171561219c5761219b612145565b5b80604052505050565b60006121af611e8f565b90506121bb8282612174565b919050565b600067ffffffffffffffff8211156121db576121da612145565b5b6121e482611fa4565b9050602081019050919050565b82818337600083830152505050565b600061221361220e846121c0565b6121a5565b90508281526020810184848401111561222f5761222e612140565b5b61223a8482856121f1565b509392505050565b600082601f8301126122575761225661213b565b5b8135612267848260208601612200565b91505092915050565b60006020828403121561228657612285611e99565b5b600082013567ffffffffffffffff8111156122a4576122a3611e9e565b5b6122b084828501612242565b91505092915050565b6122c281612010565b82525050565b60006020820190506122dd60008301846122b9565b92915050565b6000806000606084860312156122fc576122fb611e99565b5b600061230a868287016120e6565b935050602061231b868287016120e6565b925050604061232c86828701612031565b9150509250925092565b600081519050919050565b600082825260208201905092915050565b6000819050602082019050919050565b61236b81612010565b82525050565b600061237d8383612362565b60208301905092915050565b6000602082019050919050565b60006123a182612336565b6123ab8185612341565b93506123b683612352565b8060005b838110156123e75781516123ce8882612371565b97506123d983612389565b9250506001810190506123ba565b5085935050505092915050565b6000602082019050818103600083015261240e8184612396565b905092915050565b60006020828403121561242c5761242b611e99565b5b600061243a848285016120e6565b91505092915050565b61244c81611f28565b811461245757600080fd5b50565b60008135905061246981612443565b92915050565b6000806040838503121561248657612485611e99565b5b6000612494858286016120e6565b92505060206124a58582860161245a565b9150509250929050565b600067ffffffffffffffff8211156124ca576124c9612145565b5b6124d382611fa4565b9050602081019050919050565b60006124f36124ee846124af565b6121a5565b90508281526020810184848401111561250f5761250e612140565b5b61251a8482856121f1565b509392505050565b600082601f8301126125375761253661213b565b5b81356125478482602086016124e0565b91505092915050565b6000806000806080858703121561256a57612569611e99565b5b6000612578878288016120e6565b9450506020612589878288016120e6565b935050604061259a87828801612031565b925050606085013567ffffffffffffffff8111156125bb576125ba611e9e565b5b6125c787828801612522565b91505092959194509250565b600080604083850312156125ea576125e9611e99565b5b60006125f8858286016120e6565b9250506020612609858286016120e6565b9150509250929050565b7f4e487b7100000000000000000000000000000000000000000000000000000000600052602260045260246000fd5b6000600282049050600182168061265a57607f821691505b60208210810361266d5761266c612613565b5b50919050565b60008190508160005260206000209050919050565b60006020601f8301049050919050565b600082821b905092915050565b6000600883026126d57fffffffffffffffffffffffffffffffffffffffffffffffffffffffffffffffff82612698565b6126df8683612698565b95508019841693508086168417925050509392505050565b6000819050919050565b600061271c61271761271284612010565b6126f7565b612010565b9050919050565b6000819050919050565b61273683612701565b61274a61274282612723565b8484546126a5565b825550505050565b600090565b61275f612752565b61276a81848461272d565b505050565b5b8181101561278e57612783600082612757565b600181019050612770565b5050565b601f8211156127d3576127a481612673565b6127ad84612688565b810160208510156127bc578190505b6127d06127c885612688565b83018261276f565b50505b505050565b600082821c905092915050565b60006127f6600019846008026127d8565b1980831691505092915050565b600061280f83836127e5565b9150826002028217905092915050565b61282882611f5e565b67ffffffffffffffff81111561284157612840612145565b5b61284b8254612642565b612856828285612792565b600060209050601f8311600181146128895760008415612877578287015190505b6128818582612803565b8655506128e9565b601f19841661289786612673565b60005b828110156128bf5784890151825560018201915060208501945060208101905061289a565b868310156128dc57848901516128d8601f8916826127e5565b8355505b6001600288020188555050505b505050505050565b7f796f7520617265206e6f7420617070726f7665642020746f206d696e74000000600082015250565b6000612927601d83611f69565b9150612932826128f1565b602082019050919050565b600060208201905081810360008301526129568161291a565b9050919050565b600081905092915050565b600061297382611f5e565b61297d818561295d565b935061298d818560208601611f7a565b80840191505092915050565b600081546129a681612642565b6129b0818661295d565b945060018216600081146129cb57600181146129e057612a13565b60ff1983168652811515820286019350612a13565b6129e985612673565b60005b83811015612a0b578154818901526001820191506020810190506129ec565b838801955050505b50505092915050565b6000612a288286612968565b9150612a348285612968565b9150612a408284612999565b9150819050949350505050565b7f4f776e61626c653a206e6577206f776e657220697320746865207a65726f206160008201527f6464726573730000000000000000000000000000000000000000000000000000602082015250565b6000612aa9602683611f69565b9150612ab482612a4d565b604082019050919050565b60006020820190508181036000830152612ad881612a9c565b9050919050565b7f4e487b7100000000000000000000000000000000000000000000000000000000600052601160045260246000fd5b6000612b1982612010565b915060008203612b2c57612b2b612adf565b5b600182039050919050565b7f4f776e61626c653a2063616c6c6572206973206e6f7420746865206f776e6572600082015250565b6000612b6d602083611f69565b9150612b7882612b37565b602082019050919050565b60006020820190508181036000830152612b9c81612b60565b9050919050565b600081519050919050565b600082825260208201905092915050565b6000612bca82612ba3565b612bd48185612bae565b9350612be4818560208601611f7a565b612bed81611fa4565b840191505092915050565b6000608082019050612c0d60008301876120a5565b612c1a60208301866120a5565b612c2760408301856122b9565b8181036060830152612c398184612bbf565b905095945050505050565b600081519050612c5381611ecf565b92915050565b600060208284031215612c6f57612c6e611e99565b5b6000612c7d84828501612c44565b9150509291505056fea26469706673582212207ec81eba4eee87dd29e0051caa24a05382193d93e1ee78cd490310c5ea5a49d164736f6c63430008120033",
					"opcodes": "PUSH1 0x80 PUSH1 0x40 MSTORE PUSH1 0x40 MLOAD DUP1 PUSH1 0x20 ADD PUSH1 0x40 MSTORE DUP1 PUSH1 0x0 DUP2 MSTORE POP PUSH1 0x6 SWAP1 DUP2 PUSH3 0x24 SWAP2 SWAP1 PUSH3 0x405 JUMP JUMPDEST POP CALLVALUE DUP1 ISZERO PUSH3 0x32 JUMPI PUSH1 0x0 DUP1 REVERT JUMPDEST POP PUSH1 0x40 MLOAD PUSH3 0x33A1 CODESIZE SUB DUP1 PUSH3 0x33A1 DUP4 CODECOPY DUP2 DUP2 ADD PUSH1 0x40 MSTORE DUP2 ADD SWAP1 PUSH3 0x58 SWAP2 SWAP1 PUSH3 0x650 JUMP JUMPDEST PUSH3 0x78 PUSH3 0x6C PUSH3 0xBA PUSH1 0x20 SHL PUSH1 0x20 SHR JUMP JUMPDEST PUSH3 0xC2 PUSH1 0x20 SHL PUSH1 0x20 SHR JUMP JUMPDEST DUP2 PUSH1 0x3 SWAP1 DUP2 PUSH3 0x89 SWAP2 SWAP1 PUSH3 0x405 JUMP JUMPDEST POP DUP1 PUSH1 0x4 SWAP1 DUP2 PUSH3 0x9B SWAP2 SWAP1 PUSH3 0x405 JUMP JUMPDEST POP PUSH3 0xAC PUSH3 0x186 PUSH1 0x20 SHL PUSH1 0x20 SHR JUMP JUMPDEST PUSH1 0x1 DUP2 SWAP1 SSTORE POP POP POP PUSH3 0x6D5 JUMP JUMPDEST PUSH1 0x0 CALLER SWAP1 POP SWAP1 JUMP JUMPDEST PUSH1 0x0 DUP1 PUSH1 0x0 SWAP1 SLOAD SWAP1 PUSH2 0x100 EXP SWAP1 DIV PUSH20 0xFFFFFFFFFFFFFFFFFFFFFFFFFFFFFFFFFFFFFFFF AND SWAP1 POP DUP2 PUSH1 0x0 DUP1 PUSH2 0x100 EXP DUP2 SLOAD DUP2 PUSH20 0xFFFFFFFFFFFFFFFFFFFFFFFFFFFFFFFFFFFFFFFF MUL NOT AND SWAP1 DUP4 PUSH20 0xFFFFFFFFFFFFFFFFFFFFFFFFFFFFFFFFFFFFFFFF AND MUL OR SWAP1 SSTORE POP DUP2 PUSH20 0xFFFFFFFFFFFFFFFFFFFFFFFFFFFFFFFFFFFFFFFF AND DUP2 PUSH20 0xFFFFFFFFFFFFFFFFFFFFFFFFFFFFFFFFFFFFFFFF AND PUSH32 0x8BE0079C531659141344CD1FD0A4F28419497F9722A3DAAFE3B4186F6B6457E0 PUSH1 0x40 MLOAD PUSH1 0x40 MLOAD DUP1 SWAP2 SUB SWAP1 LOG3 POP POP JUMP JUMPDEST PUSH1 0x0 SWAP1 JUMP JUMPDEST PUSH1 0x0 DUP2 MLOAD SWAP1 POP SWAP2 SWAP1 POP JUMP JUMPDEST PUSH32 0x4E487B7100000000000000000000000000000000000000000000000000000000 PUSH1 0x0 MSTORE PUSH1 0x41 PUSH1 0x4 MSTORE PUSH1 0x24 PUSH1 0x0 REVERT JUMPDEST PUSH32 0x4E487B7100000000000000000000000000000000000000000000000000000000 PUSH1 0x0 MSTORE PUSH1 0x22 PUSH1 0x4 MSTORE PUSH1 0x24 PUSH1 0x0 REVERT JUMPDEST PUSH1 0x0 PUSH1 0x2 DUP3 DIV SWAP1 POP PUSH1 0x1 DUP3 AND DUP1 PUSH3 0x20D JUMPI PUSH1 0x7F DUP3 AND SWAP2 POP JUMPDEST PUSH1 0x20 DUP3 LT DUP2 SUB PUSH3 0x223 JUMPI PUSH3 0x222 PUSH3 0x1C5 JUMP JUMPDEST JUMPDEST POP SWAP2 SWAP1 POP JUMP JUMPDEST PUSH1 0x0 DUP2 SWAP1 POP DUP2 PUSH1 0x0 MSTORE PUSH1 0x20 PUSH1 0x0 KECCAK256 SWAP1 POP SWAP2 SWAP1 POP JUMP JUMPDEST PUSH1 0x0 PUSH1 0x20 PUSH1 0x1F DUP4 ADD DIV SWAP1 POP SWAP2 SWAP1 POP JUMP JUMPDEST PUSH1 0x0 DUP3 DUP3 SHL SWAP1 POP SWAP3 SWAP2 POP POP JUMP JUMPDEST PUSH1 0x0 PUSH1 0x8 DUP4 MUL PUSH3 0x28D PUSH32 0xFFFFFFFFFFFFFFFFFFFFFFFFFFFFFFFFFFFFFFFFFFFFFFFFFFFFFFFFFFFFFFFF DUP3 PUSH3 0x24E JUMP JUMPDEST PUSH3 0x299 DUP7 DUP4 PUSH3 0x24E JUMP JUMPDEST SWAP6 POP DUP1 NOT DUP5 AND SWAP4 POP DUP1 DUP7 AND DUP5 OR SWAP3 POP POP POP SWAP4 SWAP3 POP POP POP JUMP JUMPDEST PUSH1 0x0 DUP2 SWAP1 POP SWAP2 SWAP1 POP JUMP JUMPDEST PUSH1 0x0 DUP2 SWAP1 POP SWAP2 SWAP1 POP JUMP JUMPDEST PUSH1 0x0 PUSH3 0x2E6 PUSH3 0x2E0 PUSH3 0x2DA DUP5 PUSH3 0x2B1 JUMP JUMPDEST PUSH3 0x2BB JUMP JUMPDEST PUSH3 0x2B1 JUMP JUMPDEST SWAP1 POP SWAP2 SWAP1 POP JUMP JUMPDEST PUSH1 0x0 DUP2 SWAP1 POP SWAP2 SWAP1 POP JUMP JUMPDEST PUSH3 0x302 DUP4 PUSH3 0x2C5 JUMP JUMPDEST PUSH3 0x31A PUSH3 0x311 DUP3 PUSH3 0x2ED JUMP JUMPDEST DUP5 DUP5 SLOAD PUSH3 0x25B JUMP JUMPDEST DUP3 SSTORE POP POP POP POP JUMP JUMPDEST PUSH1 0x0 SWAP1 JUMP JUMPDEST PUSH3 0x331 PUSH3 0x322 JUMP JUMPDEST PUSH3 0x33E DUP2 DUP5 DUP5 PUSH3 0x2F7 JUMP JUMPDEST POP POP POP JUMP JUMPDEST JUMPDEST DUP2 DUP2 LT ISZERO PUSH3 0x366 JUMPI PUSH3 0x35A PUSH1 0x0 DUP3 PUSH3 0x327 JUMP JUMPDEST PUSH1 0x1 DUP2 ADD SWAP1 POP PUSH3 0x344 JUMP JUMPDEST POP POP JUMP JUMPDEST PUSH1 0x1F DUP3 GT ISZERO PUSH3 0x3B5 JUMPI PUSH3 0x37F DUP2 PUSH3 0x229 JUMP JUMPDEST PUSH3 0x38A DUP5 PUSH3 0x23E JUMP JUMPDEST DUP2 ADD PUSH1 0x20 DUP6 LT ISZERO PUSH3 0x39A JUMPI DUP2 SWAP1 POP JUMPDEST PUSH3 0x3B2 PUSH3 0x3A9 DUP6 PUSH3 0x23E JUMP JUMPDEST DUP4 ADD DUP3 PUSH3 0x343 JUMP JUMPDEST POP POP JUMPDEST POP POP POP JUMP JUMPDEST PUSH1 0x0 DUP3 DUP3 SHR SWAP1 POP SWAP3 SWAP2 POP POP JUMP JUMPDEST PUSH1 0x0 PUSH3 0x3DA PUSH1 0x0 NOT DUP5 PUSH1 0x8 MUL PUSH3 0x3BA JUMP JUMPDEST NOT DUP1 DUP4 AND SWAP2 POP POP SWAP3 SWAP2 POP POP JUMP JUMPDEST PUSH1 0x0 PUSH3 0x3F5 DUP4 DUP4 PUSH3 0x3C7 JUMP JUMPDEST SWAP2 POP DUP3 PUSH1 0x2 MUL DUP3 OR SWAP1 POP SWAP3 SWAP2 POP POP JUMP JUMPDEST PUSH3 0x410 DUP3 PUSH3 0x18B JUMP JUMPDEST PUSH8 0xFFFFFFFFFFFFFFFF DUP2 GT ISZERO PUSH3 0x42C JUMPI PUSH3 0x42B PUSH3 0x196 JUMP JUMPDEST JUMPDEST PUSH3 0x438 DUP3 SLOAD PUSH3 0x1F4 JUMP JUMPDEST PUSH3 0x445 DUP3 DUP3 DUP6 PUSH3 0x36A JUMP JUMPDEST PUSH1 0x0 PUSH1 0x20 SWAP1 POP PUSH1 0x1F DUP4 GT PUSH1 0x1 DUP2 EQ PUSH3 0x47D JUMPI PUSH1 0x0 DUP5 ISZERO PUSH3 0x468 JUMPI DUP3 DUP8 ADD MLOAD SWAP1 POP JUMPDEST PUSH3 0x474 DUP6 DUP3 PUSH3 0x3E7 JUMP JUMPDEST DUP7 SSTORE POP PUSH3 0x4E4 JUMP JUMPDEST PUSH1 0x1F NOT DUP5 AND PUSH3 0x48D DUP7 PUSH3 0x229 JUMP JUMPDEST PUSH1 0x0 JUMPDEST DUP3 DUP2 LT ISZERO PUSH3 0x4B7 JUMPI DUP5 DUP10 ADD MLOAD DUP3 SSTORE PUSH1 0x1 DUP3 ADD SWAP2 POP PUSH1 0x20 DUP6 ADD SWAP5 POP PUSH1 0x20 DUP2 ADD SWAP1 POP PUSH3 0x490 JUMP JUMPDEST DUP7 DUP4 LT ISZERO PUSH3 0x4D7 JUMPI DUP5 DUP10 ADD MLOAD PUSH3 0x4D3 PUSH1 0x1F DUP10 AND DUP3 PUSH3 0x3C7 JUMP JUMPDEST DUP4 SSTORE POP JUMPDEST PUSH1 0x1 PUSH1 0x2 DUP9 MUL ADD DUP9 SSTORE POP POP POP JUMPDEST POP POP POP POP POP POP JUMP JUMPDEST PUSH1 0x0 PUSH1 0x40 MLOAD SWAP1 POP SWAP1 JUMP JUMPDEST PUSH1 0x0 DUP1 REVERT JUMPDEST PUSH1 0x0 DUP1 REVERT JUMPDEST PUSH1 0x0 DUP1 REVERT JUMPDEST PUSH1 0x0 DUP1 REVERT JUMPDEST PUSH1 0x0 PUSH1 0x1F NOT PUSH1 0x1F DUP4 ADD AND SWAP1 POP SWAP2 SWAP1 POP JUMP JUMPDEST PUSH3 0x526 DUP3 PUSH3 0x50A JUMP JUMPDEST DUP2 ADD DUP2 DUP2 LT PUSH8 0xFFFFFFFFFFFFFFFF DUP3 GT OR ISZERO PUSH3 0x548 JUMPI PUSH3 0x547 PUSH3 0x196 JUMP JUMPDEST JUMPDEST DUP1 PUSH1 0x40 MSTORE POP POP POP JUMP JUMPDEST PUSH1 0x0 PUSH3 0x55D PUSH3 0x4EC JUMP JUMPDEST SWAP1 POP PUSH3 0x56B DUP3 DUP3 PUSH3 0x51B JUMP JUMPDEST SWAP2 SWAP1 POP JUMP JUMPDEST PUSH1 0x0 PUSH8 0xFFFFFFFFFFFFFFFF DUP3 GT ISZERO PUSH3 0x58E JUMPI PUSH3 0x58D PUSH3 0x196 JUMP JUMPDEST JUMPDEST PUSH3 0x599 DUP3 PUSH3 0x50A JUMP JUMPDEST SWAP1 POP PUSH1 0x20 DUP2 ADD SWAP1 POP SWAP2 SWAP1 POP JUMP JUMPDEST PUSH1 0x0 JUMPDEST DUP4 DUP2 LT ISZERO PUSH3 0x5C6 JUMPI DUP1 DUP3 ADD MLOAD DUP2 DUP5 ADD MSTORE PUSH1 0x20 DUP2 ADD SWAP1 POP PUSH3 0x5A9 JUMP JUMPDEST PUSH1 0x0 DUP5 DUP5 ADD MSTORE POP POP POP POP JUMP JUMPDEST PUSH1 0x0 PUSH3 0x5E9 PUSH3 0x5E3 DUP5 PUSH3 0x570 JUMP JUMPDEST PUSH3 0x551 JUMP JUMPDEST SWAP1 POP DUP3 DUP2 MSTORE PUSH1 0x20 DUP2 ADD DUP5 DUP5 DUP5 ADD GT ISZERO PUSH3 0x608 JUMPI PUSH3 0x607 PUSH3 0x505 JUMP JUMPDEST JUMPDEST PUSH3 0x615 DUP5 DUP3 DUP6 PUSH3 0x5A6 JUMP JUMPDEST POP SWAP4 SWAP3 POP POP POP JUMP JUMPDEST PUSH1 0x0 DUP3 PUSH1 0x1F DUP4 ADD SLT PUSH3 0x635 JUMPI PUSH3 0x634 PUSH3 0x500 JUMP JUMPDEST JUMPDEST DUP2 MLOAD PUSH3 0x647 DUP5 DUP3 PUSH1 0x20 DUP7 ADD PUSH3 0x5D2 JUMP JUMPDEST SWAP2 POP POP SWAP3 SWAP2 POP POP JUMP JUMPDEST PUSH1 0x0 DUP1 PUSH1 0x40 DUP4 DUP6 SUB SLT ISZERO PUSH3 0x66A JUMPI PUSH3 0x669 PUSH3 0x4F6 JUMP JUMPDEST JUMPDEST PUSH1 0x0 DUP4 ADD MLOAD PUSH8 0xFFFFFFFFFFFFFFFF DUP2 GT ISZERO PUSH3 0x68B JUMPI PUSH3 0x68A PUSH3 0x4FB JUMP JUMPDEST JUMPDEST PUSH3 0x699 DUP6 DUP3 DUP7 ADD PUSH3 0x61D JUMP JUMPDEST SWAP3 POP POP PUSH1 0x20 DUP4 ADD MLOAD PUSH8 0xFFFFFFFFFFFFFFFF DUP2 GT ISZERO PUSH3 0x6BD JUMPI PUSH3 0x6BC PUSH3 0x4FB JUMP JUMPDEST JUMPDEST PUSH3 0x6CB DUP6 DUP3 DUP7 ADD PUSH3 0x61D JUMP JUMPDEST SWAP2 POP POP SWAP3 POP SWAP3 SWAP1 POP JUMP JUMPDEST PUSH2 0x2CBC DUP1 PUSH3 0x6E5 PUSH1 0x0 CODECOPY PUSH1 0x0 RETURN INVALID PUSH1 0x80 PUSH1 0x40 MSTORE PUSH1 0x4 CALLDATASIZE LT PUSH2 0x181 JUMPI PUSH1 0x0 CALLDATALOAD PUSH1 0xE0 SHR DUP1 PUSH4 0x70A08231 GT PUSH2 0xD1 JUMPI DUP1 PUSH4 0xB88D4FDE GT PUSH2 0x8A JUMPI DUP1 PUSH4 0xE985E9C5 GT PUSH2 0x64 JUMPI DUP1 PUSH4 0xE985E9C5 EQ PUSH2 0x536 JUMPI DUP1 PUSH4 0xF0C7B3AA EQ PUSH2 0x573 JUMPI DUP1 PUSH4 0xF259A29E EQ PUSH2 0x5B0 JUMPI DUP1 PUSH4 0xF2FDE38B EQ PUSH2 0x5DB JUMPI PUSH2 0x181 JUMP JUMPDEST DUP1 PUSH4 0xB88D4FDE EQ PUSH2 0x4B4 JUMPI DUP1 PUSH4 0xC87B56DD EQ PUSH2 0x4D0 JUMPI DUP1 PUSH4 0xDC76668D EQ PUSH2 0x50D JUMPI PUSH2 0x181 JUMP JUMPDEST DUP1 PUSH4 0x70A08231 EQ PUSH2 0x3B8 JUMPI DUP1 PUSH4 0x715018A6 EQ PUSH2 0x3F5 JUMPI DUP1 PUSH4 0x8DA5CB5B EQ PUSH2 0x40C JUMPI DUP1 PUSH4 0x95D89B41 EQ PUSH2 0x437 JUMPI DUP1 PUSH4 0xA22CB465 EQ PUSH2 0x462 JUMPI DUP1 PUSH4 0xB6B285D9 EQ PUSH2 0x48B JUMPI PUSH2 0x181 JUMP JUMPDEST DUP1 PUSH4 0x23B872DD GT PUSH2 0x13E JUMPI DUP1 PUSH4 0x50CAA341 GT PUSH2 0x118 JUMPI DUP1 PUSH4 0x50CAA341 EQ PUSH2 0x2FC JUMPI DUP1 PUSH4 0x5503A0E8 EQ PUSH2 0x327 JUMPI DUP1 PUSH4 0x55F804B3 EQ PUSH2 0x352 JUMPI DUP1 PUSH4 0x6352211E EQ PUSH2 0x37B JUMPI PUSH2 0x181 JUMP JUMPDEST DUP1 PUSH4 0x23B872DD EQ PUSH2 0x29B JUMPI DUP1 PUSH4 0x40C10F19 EQ PUSH2 0x2B7 JUMPI DUP1 PUSH4 0x42842E0E EQ PUSH2 0x2E0 JUMPI PUSH2 0x181 JUMP JUMPDEST DUP1 PUSH4 0x1FFC9A7 EQ PUSH2 0x186 JUMPI DUP1 PUSH4 0x6FDDE03 EQ PUSH2 0x1C3 JUMPI DUP1 PUSH4 0x81812FC EQ PUSH2 0x1EE JUMPI DUP1 PUSH4 0x95EA7B3 EQ PUSH2 0x22B JUMPI DUP1 PUSH4 0x16BA10E0 EQ PUSH2 0x247 JUMPI DUP1 PUSH4 0x18160DDD EQ PUSH2 0x270 JUMPI JUMPDEST PUSH1 0x0 DUP1 REVERT JUMPDEST CALLVALUE DUP1 ISZERO PUSH2 0x192 JUMPI PUSH1 0x0 DUP1 REVERT JUMPDEST POP PUSH2 0x1AD PUSH1 0x4 DUP1 CALLDATASIZE SUB DUP2 ADD SWAP1 PUSH2 0x1A8 SWAP2 SWAP1 PUSH2 0x1EFB JUMP JUMPDEST PUSH2 0x604 JUMP JUMPDEST PUSH1 0x40 MLOAD PUSH2 0x1BA SWAP2 SWAP1 PUSH2 0x1F43 JUMP JUMPDEST PUSH1 0x40 MLOAD DUP1 SWAP2 SUB SWAP1 RETURN JUMPDEST CALLVALUE DUP1 ISZERO PUSH2 0x1CF JUMPI PUSH1 0x0 DUP1 REVERT JUMPDEST POP PUSH2 0x1D8 PUSH2 0x696 JUMP JUMPDEST PUSH1 0x40 MLOAD PUSH2 0x1E5 SWAP2 SWAP1 PUSH2 0x1FEE JUMP JUMPDEST PUSH1 0x40 MLOAD DUP1 SWAP2 SUB SWAP1 RETURN JUMPDEST CALLVALUE DUP1 ISZERO PUSH2 0x1FA JUMPI PUSH1 0x0 DUP1 REVERT JUMPDEST POP PUSH2 0x215 PUSH1 0x4 DUP1 CALLDATASIZE SUB DUP2 ADD SWAP1 PUSH2 0x210 SWAP2 SWAP1 PUSH2 0x2046 JUMP JUMPDEST PUSH2 0x728 JUMP JUMPDEST PUSH1 0x40 MLOAD PUSH2 0x222 SWAP2 SWAP1 PUSH2 0x20B4 JUMP JUMPDEST PUSH1 0x40 MLOAD DUP1 SWAP2 SUB SWAP1 RETURN JUMPDEST PUSH2 0x245 PUSH1 0x4 DUP1 CALLDATASIZE SUB DUP2 ADD SWAP1 PUSH2 0x240 SWAP2 SWAP1 PUSH2 0x20FB JUMP JUMPDEST PUSH2 0x786 JUMP JUMPDEST STOP JUMPDEST CALLVALUE DUP1 ISZERO PUSH2 0x253 JUMPI PUSH1 0x0 DUP1 REVERT JUMPDEST POP PUSH2 0x26E PUSH1 0x4 DUP1 CALLDATASIZE SUB DUP2 ADD SWAP1 PUSH2 0x269 SWAP2 SWAP1 PUSH2 0x2270 JUMP JUMPDEST PUSH2 0x796 JUMP JUMPDEST STOP JUMPDEST CALLVALUE DUP1 ISZERO PUSH2 0x27C JUMPI PUSH1 0x0 DUP1 REVERT JUMPDEST POP PUSH2 0x285 PUSH2 0x7B1 JUMP JUMPDEST PUSH1 0x40 MLOAD PUSH2 0x292 SWAP2 SWAP1 PUSH2 0x22C8 JUMP JUMPDEST PUSH1 0x40 MLOAD DUP1 SWAP2 SUB SWAP1 RETURN JUMPDEST PUSH2 0x2B5 PUSH1 0x4 DUP1 CALLDATASIZE SUB DUP2 ADD SWAP1 PUSH2 0x2B0 SWAP2 SWAP1 PUSH2 0x22E3 JUMP JUMPDEST PUSH2 0x7C8 JUMP JUMPDEST STOP JUMPDEST CALLVALUE DUP1 ISZERO PUSH2 0x2C3 JUMPI PUSH1 0x0 DUP1 REVERT JUMPDEST POP PUSH2 0x2DE PUSH1 0x4 DUP1 CALLDATASIZE SUB DUP2 ADD SWAP1 PUSH2 0x2D9 SWAP2 SWAP1 PUSH2 0x20FB JUMP JUMPDEST PUSH2 0xA89 JUMP JUMPDEST STOP JUMPDEST PUSH2 0x2FA PUSH1 0x4 DUP1 CALLDATASIZE SUB DUP2 ADD SWAP1 PUSH2 0x2F5 SWAP2 SWAP1 PUSH2 0x22E3 JUMP JUMPDEST PUSH2 0xB2A JUMP JUMPDEST STOP JUMPDEST CALLVALUE DUP1 ISZERO PUSH2 0x308 JUMPI PUSH1 0x0 DUP1 REVERT JUMPDEST POP PUSH2 0x311 PUSH2 0xB4A JUMP JUMPDEST PUSH1 0x40 MLOAD PUSH2 0x31E SWAP2 SWAP1 PUSH2 0x23F4 JUMP JUMPDEST PUSH1 0x40 MLOAD DUP1 SWAP2 SUB SWAP1 RETURN JUMPDEST CALLVALUE DUP1 ISZERO PUSH2 0x333 JUMPI PUSH1 0x0 DUP1 REVERT JUMPDEST POP PUSH2 0x33C PUSH2 0xBDF JUMP JUMPDEST PUSH1 0x40 MLOAD PUSH2 0x349 SWAP2 SWAP1 PUSH2 0x1FEE JUMP JUMPDEST PUSH1 0x40 MLOAD DUP1 SWAP2 SUB SWAP1 RETURN JUMPDEST CALLVALUE DUP1 ISZERO PUSH2 0x35E JUMPI PUSH1 0x0 DUP1 REVERT JUMPDEST POP PUSH2 0x379 PUSH1 0x4 DUP1 CALLDATASIZE SUB DUP2 ADD SWAP1 PUSH2 0x374 SWAP2 SWAP1 PUSH2 0x2270 JUMP JUMPDEST PUSH2 0xC6D JUMP JUMPDEST STOP JUMPDEST CALLVALUE DUP1 ISZERO PUSH2 0x387 JUMPI PUSH1 0x0 DUP1 REVERT JUMPDEST POP PUSH2 0x3A2 PUSH1 0x4 DUP1 CALLDATASIZE SUB DUP2 ADD SWAP1 PUSH2 0x39D SWAP2 SWAP1 PUSH2 0x2046 JUMP JUMPDEST PUSH2 0xC88 JUMP JUMPDEST PUSH1 0x40 MLOAD PUSH2 0x3AF SWAP2 SWAP1 PUSH2 0x20B4 JUMP JUMPDEST PUSH1 0x40 MLOAD DUP1 SWAP2 SUB SWAP1 RETURN JUMPDEST CALLVALUE DUP1 ISZERO PUSH2 0x3C4 JUMPI PUSH1 0x0 DUP1 REVERT JUMPDEST POP PUSH2 0x3DF PUSH1 0x4 DUP1 CALLDATASIZE SUB DUP2 ADD SWAP1 PUSH2 0x3DA SWAP2 SWAP1 PUSH2 0x2416 JUMP JUMPDEST PUSH2 0xC9A JUMP JUMPDEST PUSH1 0x40 MLOAD PUSH2 0x3EC SWAP2 SWAP1 PUSH2 0x22C8 JUMP JUMPDEST PUSH1 0x40 MLOAD DUP1 SWAP2 SUB SWAP1 RETURN JUMPDEST CALLVALUE DUP1 ISZERO PUSH2 0x401 JUMPI PUSH1 0x0 DUP1 REVERT JUMPDEST POP PUSH2 0x40A PUSH2 0xD31 JUMP JUMPDEST STOP JUMPDEST CALLVALUE DUP1 ISZERO PUSH2 0x418 JUMPI PUSH1 0x0 DUP1 REVERT JUMPDEST POP PUSH2 0x421 PUSH2 0xD45 JUMP JUMPDEST PUSH1 0x40 MLOAD PUSH2 0x42E SWAP2 SWAP1 PUSH2 0x20B4 JUMP JUMPDEST PUSH1 0x40 MLOAD DUP1 SWAP2 SUB SWAP1 RETURN JUMPDEST CALLVALUE DUP1 ISZERO PUSH2 0x443 JUMPI PUSH1 0x0 DUP1 REVERT JUMPDEST POP PUSH2 0x44C PUSH2 0xD6E JUMP JUMPDEST PUSH1 0x40 MLOAD PUSH2 0x459 SWAP2 SWAP1 PUSH2 0x1FEE JUMP JUMPDEST PUSH1 0x40 MLOAD DUP1 SWAP2 SUB SWAP1 RETURN JUMPDEST CALLVALUE DUP1 ISZERO PUSH2 0x46E JUMPI PUSH1 0x0 DUP1 REVERT JUMPDEST POP PUSH2 0x489 PUSH1 0x4 DUP1 CALLDATASIZE SUB DUP2 ADD SWAP1 PUSH2 0x484 SWAP2 SWAP1 PUSH2 0x246F JUMP JUMPDEST PUSH2 0xE00 JUMP JUMPDEST STOP JUMPDEST CALLVALUE DUP1 ISZERO PUSH2 0x497 JUMPI PUSH1 0x0 DUP1 REVERT JUMPDEST POP PUSH2 0x4B2 PUSH1 0x4 DUP1 CALLDATASIZE SUB DUP2 ADD SWAP1 PUSH2 0x4AD SWAP2 SWAP1 PUSH2 0x2416 JUMP JUMPDEST PUSH2 0xF0B JUMP JUMPDEST STOP JUMPDEST PUSH2 0x4CE PUSH1 0x4 DUP1 CALLDATASIZE SUB DUP2 ADD SWAP1 PUSH2 0x4C9 SWAP2 SWAP1 PUSH2 0x2550 JUMP JUMPDEST PUSH2 0xF66 JUMP JUMPDEST STOP JUMPDEST CALLVALUE DUP1 ISZERO PUSH2 0x4DC JUMPI PUSH1 0x0 DUP1 REVERT JUMPDEST POP PUSH2 0x4F7 PUSH1 0x4 DUP1 CALLDATASIZE SUB DUP2 ADD SWAP1 PUSH2 0x4F2 SWAP2 SWAP1 PUSH2 0x2046 JUMP JUMPDEST PUSH2 0xFB8 JUMP JUMPDEST PUSH1 0x40 MLOAD PUSH2 0x504 SWAP2 SWAP1 PUSH2 0x1FEE JUMP JUMPDEST PUSH1 0x40 MLOAD DUP1 SWAP2 SUB SWAP1 RETURN JUMPDEST CALLVALUE DUP1 ISZERO PUSH2 0x519 JUMPI PUSH1 0x0 DUP1 REVERT JUMPDEST POP PUSH2 0x534 PUSH1 0x4 DUP1 CALLDATASIZE SUB DUP2 ADD SWAP1 PUSH2 0x52F SWAP2 SWAP1 PUSH2 0x2046 JUMP JUMPDEST PUSH2 0x1038 JUMP JUMPDEST STOP JUMPDEST CALLVALUE DUP1 ISZERO PUSH2 0x542 JUMPI PUSH1 0x0 DUP1 REVERT JUMPDEST POP PUSH2 0x55D PUSH1 0x4 DUP1 CALLDATASIZE SUB DUP2 ADD SWAP1 PUSH2 0x558 SWAP2 SWAP1 PUSH2 0x25D3 JUMP JUMPDEST PUSH2 0x1153 JUMP JUMPDEST PUSH1 0x40 MLOAD PUSH2 0x56A SWAP2 SWAP1 PUSH2 0x1F43 JUMP JUMPDEST PUSH1 0x40 MLOAD DUP1 SWAP2 SUB SWAP1 RETURN JUMPDEST CALLVALUE DUP1 ISZERO PUSH2 0x57F JUMPI PUSH1 0x0 DUP1 REVERT JUMPDEST POP PUSH2 0x59A PUSH1 0x4 DUP1 CALLDATASIZE SUB DUP2 ADD SWAP1 PUSH2 0x595 SWAP2 SWAP1 PUSH2 0x2046 JUMP JUMPDEST PUSH2 0x11E7 JUMP JUMPDEST PUSH1 0x40 MLOAD PUSH2 0x5A7 SWAP2 SWAP1 PUSH2 0x1F43 JUMP JUMPDEST PUSH1 0x40 MLOAD DUP1 SWAP2 SUB SWAP1 RETURN JUMPDEST CALLVALUE DUP1 ISZERO PUSH2 0x5BC JUMPI PUSH1 0x0 DUP1 REVERT JUMPDEST POP PUSH2 0x5C5 PUSH2 0x124E JUMP JUMPDEST PUSH1 0x40 MLOAD PUSH2 0x5D2 SWAP2 SWAP1 PUSH2 0x1FEE JUMP JUMPDEST PUSH1 0x40 MLOAD DUP1 SWAP2 SUB SWAP1 RETURN JUMPDEST CALLVALUE DUP1 ISZERO PUSH2 0x5E7 JUMPI PUSH1 0x0 DUP1 REVERT JUMPDEST POP PUSH2 0x602 PUSH1 0x4 DUP1 CALLDATASIZE SUB DUP2 ADD SWAP1 PUSH2 0x5FD SWAP2 SWAP1 PUSH2 0x2416 JUMP JUMPDEST PUSH2 0x12DC JUMP JUMPDEST STOP JUMPDEST PUSH1 0x0 PUSH4 0x1FFC9A7 PUSH1 0xE0 SHL DUP3 PUSH28 0xFFFFFFFFFFFFFFFFFFFFFFFFFFFFFFFFFFFFFFFFFFFFFFFFFFFFFFFF NOT AND EQ DUP1 PUSH2 0x65F JUMPI POP PUSH4 0x80AC58CD PUSH1 0xE0 SHL DUP3 PUSH28 0xFFFFFFFFFFFFFFFFFFFFFFFFFFFFFFFFFFFFFFFFFFFFFFFFFFFFFFFF NOT AND EQ JUMPDEST DUP1 PUSH2 0x68F JUMPI POP PUSH4 0x5B5E139F PUSH1 0xE0 SHL DUP3 PUSH28 0xFFFFFFFFFFFFFFFFFFFFFFFFFFFFFFFFFFFFFFFFFFFFFFFFFFFFFFFF NOT AND EQ JUMPDEST SWAP1 POP SWAP2 SWAP1 POP JUMP JUMPDEST PUSH1 0x60 PUSH1 0x3 DUP1 SLOAD PUSH2 0x6A5 SWAP1 PUSH2 0x2642 JUMP JUMPDEST DUP1 PUSH1 0x1F ADD PUSH1 0x20 DUP1 SWAP2 DIV MUL PUSH1 0x20 ADD PUSH1 0x40 MLOAD SWAP1 DUP2 ADD PUSH1 0x40 MSTORE DUP1 SWAP3 SWAP2 SWAP1 DUP2 DUP2 MSTORE PUSH1 0x20 ADD DUP3 DUP1 SLOAD PUSH2 0x6D1 SWAP1 PUSH2 0x2642 JUMP JUMPDEST DUP1 ISZERO PUSH2 0x71E JUMPI DUP1 PUSH1 0x1F LT PUSH2 0x6F3 JUMPI PUSH2 0x100 DUP1 DUP4 SLOAD DIV MUL DUP4 MSTORE SWAP2 PUSH1 0x20 ADD SWAP2 PUSH2 0x71E JUMP JUMPDEST DUP3 ADD SWAP2 SWAP1 PUSH1 0x0 MSTORE PUSH1 0x20 PUSH1 0x0 KECCAK256 SWAP1 JUMPDEST DUP2 SLOAD DUP2 MSTORE SWAP1 PUSH1 0x1 ADD SWAP1 PUSH1 0x20 ADD DUP1 DUP4 GT PUSH2 0x701 JUMPI DUP3 SWAP1 SUB PUSH1 0x1F AND DUP3 ADD SWAP2 JUMPDEST POP POP POP POP POP SWAP1 POP SWAP1 JUMP JUMPDEST PUSH1 0x0 PUSH2 0x733 DUP3 PUSH2 0x135F JUMP JUMPDEST PUSH2 0x748 JUMPI PUSH2 0x747 PUSH4 0xCF4700E4 PUSH1 0xE0 SHL PUSH2 0x13D8 JUMP JUMPDEST JUMPDEST PUSH1 0xD PUSH1 0x0 DUP4 DUP2 MSTORE PUSH1 0x20 ADD SWAP1 DUP2 MSTORE PUSH1 0x20 ADD PUSH1 0x0 KECCAK256 PUSH1 0x0 ADD PUSH1 0x0 SWAP1 SLOAD SWAP1 PUSH2 0x100 EXP SWAP1 DIV PUSH20 0xFFFFFFFFFFFFFFFFFFFFFFFFFFFFFFFFFFFFFFFF AND SWAP1 POP SWAP2 SWAP1 POP JUMP JUMPDEST PUSH2 0x792 DUP3 DUP3 PUSH1 0x1 PUSH2 0x13E2 JUMP JUMPDEST POP POP JUMP JUMPDEST PUSH2 0x79E PUSH2 0x1511 JUMP JUMPDEST DUP1 PUSH1 0x6 SWAP1 DUP2 PUSH2 0x7AD SWAP2 SWAP1 PUSH2 0x281F JUMP JUMPDEST POP POP JUMP JUMPDEST PUSH1 0x0 PUSH2 0x7BB PUSH2 0x158F JUMP JUMPDEST PUSH1 0x2 SLOAD PUSH1 0x1 SLOAD SUB SUB SWAP1 POP SWAP1 JUMP JUMPDEST PUSH1 0x0 PUSH2 0x7D3 DUP3 PUSH2 0x1594 JUMP JUMPDEST SWAP1 POP PUSH20 0xFFFFFFFFFFFFFFFFFFFFFFFFFFFFFFFFFFFFFFFF DUP5 PUSH20 0xFFFFFFFFFFFFFFFFFFFFFFFFFFFFFFFFFFFFFFFF AND AND SWAP4 POP DUP4 PUSH20 0xFFFFFFFFFFFFFFFFFFFFFFFFFFFFFFFFFFFFFFFF AND DUP2 PUSH20 0xFFFFFFFFFFFFFFFFFFFFFFFFFFFFFFFFFFFFFFFF AND EQ PUSH2 0x848 JUMPI PUSH2 0x847 PUSH4 0xA1148100 PUSH1 0xE0 SHL PUSH2 0x13D8 JUMP JUMPDEST JUMPDEST PUSH1 0x0 DUP1 PUSH2 0x854 DUP5 PUSH2 0x1680 JUMP JUMPDEST SWAP2 POP SWAP2 POP PUSH2 0x86A DUP2 DUP8 PUSH2 0x865 PUSH2 0x16A7 JUMP JUMPDEST PUSH2 0x16AF JUMP JUMPDEST PUSH2 0x895 JUMPI PUSH2 0x87F DUP7 PUSH2 0x87A PUSH2 0x16A7 JUMP JUMPDEST PUSH2 0x1153 JUMP JUMPDEST PUSH2 0x894 JUMPI PUSH2 0x893 PUSH4 0x59C896BE PUSH1 0xE0 SHL PUSH2 0x13D8 JUMP JUMPDEST JUMPDEST JUMPDEST PUSH2 0x8A2 DUP7 DUP7 DUP7 PUSH1 0x1 PUSH2 0x16F3 JUMP JUMPDEST DUP1 ISZERO PUSH2 0x8AD JUMPI PUSH1 0x0 DUP3 SSTORE JUMPDEST PUSH1 0xC PUSH1 0x0 DUP8 PUSH20 0xFFFFFFFFFFFFFFFFFFFFFFFFFFFFFFFFFFFFFFFF AND PUSH20 0xFFFFFFFFFFFFFFFFFFFFFFFFFFFFFFFFFFFFFFFF AND DUP2 MSTORE PUSH1 0x20 ADD SWAP1 DUP2 MSTORE PUSH1 0x20 ADD PUSH1 0x0 KECCAK256 PUSH1 0x0 DUP2 SLOAD PUSH1 0x1 SWAP1 SUB SWAP2 SWAP1 POP DUP2 SWAP1 SSTORE POP PUSH1 0xC PUSH1 0x0 DUP7 PUSH20 0xFFFFFFFFFFFFFFFFFFFFFFFFFFFFFFFFFFFFFFFF AND PUSH20 0xFFFFFFFFFFFFFFFFFFFFFFFFFFFFFFFFFFFFFFFF AND DUP2 MSTORE PUSH1 0x20 ADD SWAP1 DUP2 MSTORE PUSH1 0x20 ADD PUSH1 0x0 KECCAK256 PUSH1 0x0 DUP2 SLOAD PUSH1 0x1 ADD SWAP2 SWAP1 POP DUP2 SWAP1 SSTORE POP PUSH2 0x97B DUP6 PUSH2 0x957 DUP9 DUP9 DUP8 PUSH2 0x16F9 JUMP JUMPDEST PUSH29 0x200000000000000000000000000000000000000000000000000000000 OR PUSH2 0x1721 JUMP JUMPDEST PUSH1 0xB PUSH1 0x0 DUP7 DUP2 MSTORE PUSH1 0x20 ADD SWAP1 DUP2 MSTORE PUSH1 0x20 ADD PUSH1 0x0 KECCAK256 DUP2 SWAP1 SSTORE POP PUSH1 0x0 PUSH29 0x200000000000000000000000000000000000000000000000000000000 DUP5 AND SUB PUSH2 0xA01 JUMPI PUSH1 0x0 PUSH1 0x1 DUP6 ADD SWAP1 POP PUSH1 0x0 PUSH1 0xB PUSH1 0x0 DUP4 DUP2 MSTORE PUSH1 0x20 ADD SWAP1 DUP2 MSTORE PUSH1 0x20 ADD PUSH1 0x0 KECCAK256 SLOAD SUB PUSH2 0x9FF JUMPI PUSH1 0x1 SLOAD DUP2 EQ PUSH2 0x9FE JUMPI DUP4 PUSH1 0xB PUSH1 0x0 DUP4 DUP2 MSTORE PUSH1 0x20 ADD SWAP1 DUP2 MSTORE PUSH1 0x20 ADD PUSH1 0x0 KECCAK256 DUP2 SWAP1 SSTORE POP JUMPDEST JUMPDEST POP JUMPDEST PUSH1 0x0 PUSH20 0xFFFFFFFFFFFFFFFFFFFFFFFFFFFFFFFFFFFFFFFF DUP7 PUSH20 0xFFFFFFFFFFFFFFFFFFFFFFFFFFFFFFFFFFFFFFFF AND AND SWAP1 POP DUP5 DUP2 DUP9 PUSH32 0xDDF252AD1BE2C89B69C2B068FC378DAA952BA7F163C4A11628F55A4DF523B3EF PUSH1 0x0 DUP1 LOG4 PUSH1 0x0 DUP2 SUB PUSH2 0xA73 JUMPI PUSH2 0xA72 PUSH4 0xEA553B34 PUSH1 0xE0 SHL PUSH2 0x13D8 JUMP JUMPDEST JUMPDEST PUSH2 0xA80 DUP8 DUP8 DUP8 PUSH1 0x1 PUSH2 0x174C JUMP JUMPDEST POP POP POP POP POP POP POP JUMP JUMPDEST PUSH1 0x1 ISZERO ISZERO PUSH1 0x9 PUSH1 0x0 CALLER PUSH20 0xFFFFFFFFFFFFFFFFFFFFFFFFFFFFFFFFFFFFFFFF AND PUSH20 0xFFFFFFFFFFFFFFFFFFFFFFFFFFFFFFFFFFFFFFFF AND DUP2 MSTORE PUSH1 0x20 ADD SWAP1 DUP2 MSTORE PUSH1 0x20 ADD PUSH1 0x0 KECCAK256 PUSH1 0x0 SWAP1 SLOAD SWAP1 PUSH2 0x100 EXP SWAP1 DIV PUSH1 0xFF AND ISZERO ISZERO EQ PUSH2 0xB1C JUMPI PUSH1 0x40 MLOAD PUSH32 0x8C379A000000000000000000000000000000000000000000000000000000000 DUP2 MSTORE PUSH1 0x4 ADD PUSH2 0xB13 SWAP1 PUSH2 0x293D JUMP JUMPDEST PUSH1 0x40 MLOAD DUP1 SWAP2 SUB SWAP1 REVERT JUMPDEST PUSH2 0xB26 DUP3 DUP3 PUSH2 0x1752 JUMP JUMPDEST POP POP JUMP JUMPDEST PUSH2 0xB45 DUP4 DUP4 DUP4 PUSH1 0x40 MLOAD DUP1 PUSH1 0x20 ADD PUSH1 0x40 MSTORE DUP1 PUSH1 0x0 DUP2 MSTORE POP PUSH2 0xF66 JUMP JUMPDEST POP POP POP JUMP JUMPDEST PUSH1 0x60 PUSH1 0x7 PUSH1 0x0 CALLER PUSH20 0xFFFFFFFFFFFFFFFFFFFFFFFFFFFFFFFFFFFFFFFF AND PUSH20 0xFFFFFFFFFFFFFFFFFFFFFFFFFFFFFFFFFFFFFFFF AND DUP2 MSTORE PUSH1 0x20 ADD SWAP1 DUP2 MSTORE PUSH1 0x20 ADD PUSH1 0x0 KECCAK256 DUP1 SLOAD DUP1 PUSH1 0x20 MUL PUSH1 0x20 ADD PUSH1 0x40 MLOAD SWAP1 DUP2 ADD PUSH1 0x40 MSTORE DUP1 SWAP3 SWAP2 SWAP1 DUP2 DUP2 MSTORE PUSH1 0x20 ADD DUP3 DUP1 SLOAD DUP1 ISZERO PUSH2 0xBD5 JUMPI PUSH1 0x20 MUL DUP3 ADD SWAP2 SWAP1 PUSH1 0x0 MSTORE PUSH1 0x20 PUSH1 0x0 KECCAK256 SWAP1 JUMPDEST DUP2 SLOAD DUP2 MSTORE PUSH1 0x20 ADD SWAP1 PUSH1 0x1 ADD SWAP1 DUP1 DUP4 GT PUSH2 0xBC1 JUMPI JUMPDEST POP POP POP POP POP SWAP1 POP SWAP1 JUMP JUMPDEST PUSH1 0x6 DUP1 SLOAD PUSH2 0xBEC SWAP1 PUSH2 0x2642 JUMP JUMPDEST DUP1 PUSH1 0x1F ADD PUSH1 0x20 DUP1 SWAP2 DIV MUL PUSH1 0x20 ADD PUSH1 0x40 MLOAD SWAP1 DUP2 ADD PUSH1 0x40 MSTORE DUP1 SWAP3 SWAP2 SWAP1 DUP2 DUP2 MSTORE PUSH1 0x20 ADD DUP3 DUP1 SLOAD PUSH2 0xC18 SWAP1 PUSH2 0x2642 JUMP JUMPDEST DUP1 ISZERO PUSH2 0xC65 JUMPI DUP1 PUSH1 0x1F LT PUSH2 0xC3A JUMPI PUSH2 0x100 DUP1 DUP4 SLOAD DIV MUL DUP4 MSTORE SWAP2 PUSH1 0x20 ADD SWAP2 PUSH2 0xC65 JUMP JUMPDEST DUP3 ADD SWAP2 SWAP1 PUSH1 0x0 MSTORE PUSH1 0x20 PUSH1 0x0 KECCAK256 SWAP1 JUMPDEST DUP2 SLOAD DUP2 MSTORE SWAP1 PUSH1 0x1 ADD SWAP1 PUSH1 0x20 ADD DUP1 DUP4 GT PUSH2 0xC48 JUMPI DUP3 SWAP1 SUB PUSH1 0x1F AND DUP3 ADD SWAP2 JUMPDEST POP POP POP POP POP DUP2 JUMP JUMPDEST PUSH2 0xC75 PUSH2 0x1511 JUMP JUMPDEST DUP1 PUSH1 0x5 SWAP1 DUP2 PUSH2 0xC84 SWAP2 SWAP1 PUSH2 0x281F JUMP JUMPDEST POP POP JUMP JUMPDEST PUSH1 0x0 PUSH2 0xC93 DUP3 PUSH2 0x1594 JUMP JUMPDEST SWAP1 POP SWAP2 SWAP1 POP JUMP JUMPDEST PUSH1 0x0 DUP1 PUSH20 0xFFFFFFFFFFFFFFFFFFFFFFFFFFFFFFFFFFFFFFFF AND DUP3 PUSH20 0xFFFFFFFFFFFFFFFFFFFFFFFFFFFFFFFFFFFFFFFF AND SUB PUSH2 0xCE0 JUMPI PUSH2 0xCDF PUSH4 0x8F4EB604 PUSH1 0xE0 SHL PUSH2 0x13D8 JUMP JUMPDEST JUMPDEST PUSH8 0xFFFFFFFFFFFFFFFF PUSH1 0xC PUSH1 0x0 DUP5 PUSH20 0xFFFFFFFFFFFFFFFFFFFFFFFFFFFFFFFFFFFFFFFF AND PUSH20 0xFFFFFFFFFFFFFFFFFFFFFFFFFFFFFFFFFFFFFFFF AND DUP2 MSTORE PUSH1 0x20 ADD SWAP1 DUP2 MSTORE PUSH1 0x20 ADD PUSH1 0x0 KECCAK256 SLOAD AND SWAP1 POP SWAP2 SWAP1 POP JUMP JUMPDEST PUSH2 0xD39 PUSH2 0x1511 JUMP JUMPDEST PUSH2 0xD43 PUSH1 0x0 PUSH2 0x1770 JUMP JUMPDEST JUMP JUMPDEST PUSH1 0x0 DUP1 PUSH1 0x0 SWAP1 SLOAD SWAP1 PUSH2 0x100 EXP SWAP1 DIV PUSH20 0xFFFFFFFFFFFFFFFFFFFFFFFFFFFFFFFFFFFFFFFF AND SWAP1 POP SWAP1 JUMP JUMPDEST PUSH1 0x60 PUSH1 0x4 DUP1 SLOAD PUSH2 0xD7D SWAP1 PUSH2 0x2642 JUMP JUMPDEST DUP1 PUSH1 0x1F ADD PUSH1 0x20 DUP1 SWAP2 DIV MUL PUSH1 0x20 ADD PUSH1 0x40 MLOAD SWAP1 DUP2 ADD PUSH1 0x40 MSTORE DUP1 SWAP3 SWAP2 SWAP1 DUP2 DUP2 MSTORE PUSH1 0x20 ADD DUP3 DUP1 SLOAD PUSH2 0xDA9 SWAP1 PUSH2 0x2642 JUMP JUMPDEST DUP1 ISZERO PUSH2 0xDF6 JUMPI DUP1 PUSH1 0x1F LT PUSH2 0xDCB JUMPI PUSH2 0x100 DUP1 DUP4 SLOAD DIV MUL DUP4 MSTORE SWAP2 PUSH1 0x20 ADD SWAP2 PUSH2 0xDF6 JUMP JUMPDEST DUP3 ADD SWAP2 SWAP1 PUSH1 0x0 MSTORE PUSH1 0x20 PUSH1 0x0 KECCAK256 SWAP1 JUMPDEST DUP2 SLOAD DUP2 MSTORE SWAP1 PUSH1 0x1 ADD SWAP1 PUSH1 0x20 ADD DUP1 DUP4 GT PUSH2 0xDD9 JUMPI DUP3 SWAP1 SUB PUSH1 0x1F AND DUP3 ADD SWAP2 JUMPDEST POP POP POP POP POP SWAP1 POP SWAP1 JUMP JUMPDEST DUP1 PUSH1 0xE PUSH1 0x0 PUSH2 0xE0D PUSH2 0x16A7 JUMP JUMPDEST PUSH20 0xFFFFFFFFFFFFFFFFFFFFFFFFFFFFFFFFFFFFFFFF AND PUSH20 0xFFFFFFFFFFFFFFFFFFFFFFFFFFFFFFFFFFFFFFFF AND DUP2 MSTORE PUSH1 0x20 ADD SWAP1 DUP2 MSTORE PUSH1 0x20 ADD PUSH1 0x0 KECCAK256 PUSH1 0x0 DUP5 PUSH20 0xFFFFFFFFFFFFFFFFFFFFFFFFFFFFFFFFFFFFFFFF AND PUSH20 0xFFFFFFFFFFFFFFFFFFFFFFFFFFFFFFFFFFFFFFFF AND DUP2 MSTORE PUSH1 0x20 ADD SWAP1 DUP2 MSTORE PUSH1 0x20 ADD PUSH1 0x0 KECCAK256 PUSH1 0x0 PUSH2 0x100 EXP DUP2 SLOAD DUP2 PUSH1 0xFF MUL NOT AND SWAP1 DUP4 ISZERO ISZERO MUL OR SWAP1 SSTORE POP DUP2 PUSH20 0xFFFFFFFFFFFFFFFFFFFFFFFFFFFFFFFFFFFFFFFF AND PUSH2 0xEBA PUSH2 0x16A7 JUMP JUMPDEST PUSH20 0xFFFFFFFFFFFFFFFFFFFFFFFFFFFFFFFFFFFFFFFF AND PUSH32 0x17307EAB39AB6107E8899845AD3D59BD9653F200F220920489CA2B5937696C31 DUP4 PUSH1 0x40 MLOAD PUSH2 0xEFF SWAP2 SWAP1 PUSH2 0x1F43 JUMP JUMPDEST PUSH1 0x40 MLOAD DUP1 SWAP2 SUB SWAP1 LOG3 POP POP JUMP JUMPDEST PUSH1 0x1 PUSH1 0x9 PUSH1 0x0 DUP4 PUSH20 0xFFFFFFFFFFFFFFFFFFFFFFFFFFFFFFFFFFFFFFFF AND PUSH20 0xFFFFFFFFFFFFFFFFFFFFFFFFFFFFFFFFFFFFFFFF AND DUP2 MSTORE PUSH1 0x20 ADD SWAP1 DUP2 MSTORE PUSH1 0x20 ADD PUSH1 0x0 KECCAK256 PUSH1 0x0 PUSH2 0x100 EXP DUP2 SLOAD DUP2 PUSH1 0xFF MUL NOT AND SWAP1 DUP4 ISZERO ISZERO MUL OR SWAP1 SSTORE POP POP JUMP JUMPDEST PUSH2 0xF71 DUP5 DUP5 DUP5 PUSH2 0x7C8 JUMP JUMPDEST PUSH1 0x0 DUP4 PUSH20 0xFFFFFFFFFFFFFFFFFFFFFFFFFFFFFFFFFFFFFFFF AND EXTCODESIZE EQ PUSH2 0xFB2 JUMPI PUSH2 0xF9C DUP5 DUP5 DUP5 DUP5 PUSH2 0x1834 JUMP JUMPDEST PUSH2 0xFB1 JUMPI PUSH2 0xFB0 PUSH4 0xD1A57ED6 PUSH1 0xE0 SHL PUSH2 0x13D8 JUMP JUMPDEST JUMPDEST JUMPDEST POP POP POP POP JUMP JUMPDEST PUSH1 0x60 PUSH2 0xFC3 DUP3 PUSH2 0x135F JUMP JUMPDEST PUSH2 0xFD8 JUMPI PUSH2 0xFD7 PUSH4 0xA14C4B50 PUSH1 0xE0 SHL PUSH2 0x13D8 JUMP JUMPDEST JUMPDEST PUSH1 0x0 PUSH2 0xFE2 PUSH2 0x1963 JUMP JUMPDEST SWAP1 POP PUSH1 0x0 DUP2 MLOAD SUB PUSH2 0x1002 JUMPI PUSH1 0x40 MLOAD DUP1 PUSH1 0x20 ADD PUSH1 0x40 MSTORE DUP1 PUSH1 0x0 DUP2 MSTORE POP PUSH2 0x1030 JUMP JUMPDEST DUP1 PUSH2 0x100C DUP5 PUSH2 0x19F5 JUMP JUMPDEST PUSH1 0x6 PUSH1 0x40 MLOAD PUSH1 0x20 ADD PUSH2 0x1020 SWAP4 SWAP3 SWAP2 SWAP1 PUSH2 0x2A1C JUMP JUMPDEST PUSH1 0x40 MLOAD PUSH1 0x20 DUP2 DUP4 SUB SUB DUP2 MSTORE SWAP1 PUSH1 0x40 MSTORE JUMPDEST SWAP2 POP POP SWAP2 SWAP1 POP JUMP JUMPDEST CALLER PUSH20 0xFFFFFFFFFFFFFFFFFFFFFFFFFFFFFFFFFFFFFFFF AND PUSH2 0x1058 DUP3 PUSH2 0xC88 JUMP JUMPDEST PUSH20 0xFFFFFFFFFFFFFFFFFFFFFFFFFFFFFFFFFFFFFFFF AND EQ PUSH2 0x1078 JUMPI PUSH1 0x0 DUP1 REVERT JUMPDEST PUSH1 0x1 PUSH1 0xA PUSH1 0x0 CALLER PUSH20 0xFFFFFFFFFFFFFFFFFFFFFFFFFFFFFFFFFFFFFFFF AND PUSH20 0xFFFFFFFFFFFFFFFFFFFFFFFFFFFFFFFFFFFFFFFF AND DUP2 MSTORE PUSH1 0x20 ADD SWAP1 DUP2 MSTORE PUSH1 0x20 ADD PUSH1 0x0 KECCAK256 PUSH1 0x0 DUP4 DUP2 MSTORE PUSH1 0x20 ADD SWAP1 DUP2 MSTORE PUSH1 0x20 ADD PUSH1 0x0 KECCAK256 PUSH1 0x0 PUSH2 0x100 EXP DUP2 SLOAD DUP2 PUSH1 0xFF MUL NOT AND SWAP1 DUP4 ISZERO ISZERO MUL OR SWAP1 SSTORE POP PUSH1 0x7 PUSH1 0x0 CALLER PUSH20 0xFFFFFFFFFFFFFFFFFFFFFFFFFFFFFFFFFFFFFFFF AND PUSH20 0xFFFFFFFFFFFFFFFFFFFFFFFFFFFFFFFFFFFFFFFF AND DUP2 MSTORE PUSH1 0x20 ADD SWAP1 DUP2 MSTORE PUSH1 0x20 ADD PUSH1 0x0 KECCAK256 DUP2 SWAP1 DUP1 PUSH1 0x1 DUP2 SLOAD ADD DUP1 DUP3 SSTORE DUP1 SWAP2 POP POP PUSH1 0x1 SWAP1 SUB SWAP1 PUSH1 0x0 MSTORE PUSH1 0x20 PUSH1 0x0 KECCAK256 ADD PUSH1 0x0 SWAP1 SWAP2 SWAP1 SWAP2 SWAP1 SWAP2 POP SSTORE PUSH2 0x1150 DUP2 PUSH2 0x1A45 JUMP JUMPDEST POP JUMP JUMPDEST PUSH1 0x0 PUSH1 0xE PUSH1 0x0 DUP5 PUSH20 0xFFFFFFFFFFFFFFFFFFFFFFFFFFFFFFFFFFFFFFFF AND PUSH20 0xFFFFFFFFFFFFFFFFFFFFFFFFFFFFFFFFFFFFFFFF AND DUP2 MSTORE PUSH1 0x20 ADD SWAP1 DUP2 MSTORE PUSH1 0x20 ADD PUSH1 0x0 KECCAK256 PUSH1 0x0 DUP4 PUSH20 0xFFFFFFFFFFFFFFFFFFFFFFFFFFFFFFFFFFFFFFFF AND PUSH20 0xFFFFFFFFFFFFFFFFFFFFFFFFFFFFFFFFFFFFFFFF AND DUP2 MSTORE PUSH1 0x20 ADD SWAP1 DUP2 MSTORE PUSH1 0x20 ADD PUSH1 0x0 KECCAK256 PUSH1 0x0 SWAP1 SLOAD SWAP1 PUSH2 0x100 EXP SWAP1 DIV PUSH1 0xFF AND SWAP1 POP SWAP3 SWAP2 POP POP JUMP JUMPDEST PUSH1 0x0 PUSH1 0xA PUSH1 0x0 CALLER PUSH20 0xFFFFFFFFFFFFFFFFFFFFFFFFFFFFFFFFFFFFFFFF AND PUSH20 0xFFFFFFFFFFFFFFFFFFFFFFFFFFFFFFFFFFFFFFFF AND DUP2 MSTORE PUSH1 0x20 ADD SWAP1 DUP2 MSTORE PUSH1 0x20 ADD PUSH1 0x0 KECCAK256 PUSH1 0x0 DUP4 DUP2 MSTORE PUSH1 0x20 ADD SWAP1 DUP2 MSTORE PUSH1 0x20 ADD PUSH1 0x0 KECCAK256 PUSH1 0x0 SWAP1 SLOAD SWAP1 PUSH2 0x100 EXP SWAP1 DIV PUSH1 0xFF AND SWAP1 POP SWAP2 SWAP1 POP JUMP JUMPDEST PUSH1 0x5 DUP1 SLOAD PUSH2 0x125B SWAP1 PUSH2 0x2642 JUMP JUMPDEST DUP1 PUSH1 0x1F ADD PUSH1 0x20 DUP1 SWAP2 DIV MUL PUSH1 0x20 ADD PUSH1 0x40 MLOAD SWAP1 DUP2 ADD PUSH1 0x40 MSTORE DUP1 SWAP3 SWAP2 SWAP1 DUP2 DUP2 MSTORE PUSH1 0x20 ADD DUP3 DUP1 SLOAD PUSH2 0x1287 SWAP1 PUSH2 0x2642 JUMP JUMPDEST DUP1 ISZERO PUSH2 0x12D4 JUMPI DUP1 PUSH1 0x1F LT PUSH2 0x12A9 JUMPI PUSH2 0x100 DUP1 DUP4 SLOAD DIV MUL DUP4 MSTORE SWAP2 PUSH1 0x20 ADD SWAP2 PUSH2 0x12D4 JUMP JUMPDEST DUP3 ADD SWAP2 SWAP1 PUSH1 0x0 MSTORE PUSH1 0x20 PUSH1 0x0 KECCAK256 SWAP1 JUMPDEST DUP2 SLOAD DUP2 MSTORE SWAP1 PUSH1 0x1 ADD SWAP1 PUSH1 0x20 ADD DUP1 DUP4 GT PUSH2 0x12B7 JUMPI DUP3 SWAP1 SUB PUSH1 0x1F AND DUP3 ADD SWAP2 JUMPDEST POP POP POP POP POP DUP2 JUMP JUMPDEST PUSH2 0x12E4 PUSH2 0x1511 JUMP JUMPDEST PUSH1 0x0 PUSH20 0xFFFFFFFFFFFFFFFFFFFFFFFFFFFFFFFFFFFFFFFF AND DUP2 PUSH20 0xFFFFFFFFFFFFFFFFFFFFFFFFFFFFFFFFFFFFFFFF AND SUB PUSH2 0x1353 JUMPI PUSH1 0x40 MLOAD PUSH32 0x8C379A000000000000000000000000000000000000000000000000000000000 DUP2 MSTORE PUSH1 0x4 ADD PUSH2 0x134A SWAP1 PUSH2 0x2ABF JUMP JUMPDEST PUSH1 0x40 MLOAD DUP1 SWAP2 SUB SWAP1 REVERT JUMPDEST PUSH2 0x135C DUP2 PUSH2 0x1770 JUMP JUMPDEST POP JUMP JUMPDEST PUSH1 0x0 DUP2 PUSH2 0x136A PUSH2 0x158F JUMP JUMPDEST GT PUSH2 0x13D3 JUMPI PUSH1 0x1 SLOAD DUP3 LT ISZERO PUSH2 0x13D2 JUMPI PUSH1 0x0 JUMPDEST PUSH1 0x0 PUSH1 0xB PUSH1 0x0 DUP6 DUP2 MSTORE PUSH1 0x20 ADD SWAP1 DUP2 MSTORE PUSH1 0x20 ADD PUSH1 0x0 KECCAK256 SLOAD SWAP2 POP DUP2 SUB PUSH2 0x13AB JUMPI DUP3 PUSH2 0x13A4 SWAP1 PUSH2 0x2B0E JUMP JUMPDEST SWAP3 POP PUSH2 0x137C JUMP JUMPDEST PUSH1 0x0 PUSH29 0x100000000000000000000000000000000000000000000000000000000 DUP3 AND EQ SWAP2 POP POP JUMPDEST JUMPDEST SWAP2 SWAP1 POP JUMP JUMPDEST DUP1 PUSH1 0x0 MSTORE PUSH1 0x4 PUSH1 0x0 REVERT JUMPDEST PUSH1 0x0 PUSH2 0x13ED DUP4 PUSH2 0xC88 JUMP JUMPDEST SWAP1 POP DUP2 DUP1 ISZERO PUSH2 0x142F JUMPI POP DUP1 PUSH20 0xFFFFFFFFFFFFFFFFFFFFFFFFFFFFFFFFFFFFFFFF AND PUSH2 0x1416 PUSH2 0x16A7 JUMP JUMPDEST PUSH20 0xFFFFFFFFFFFFFFFFFFFFFFFFFFFFFFFFFFFFFFFF AND EQ ISZERO JUMPDEST ISZERO PUSH2 0x145B JUMPI PUSH2 0x1445 DUP2 PUSH2 0x1440 PUSH2 0x16A7 JUMP JUMPDEST PUSH2 0x1153 JUMP JUMPDEST PUSH2 0x145A JUMPI PUSH2 0x1459 PUSH4 0xCFB3B942 PUSH1 0xE0 SHL PUSH2 0x13D8 JUMP JUMPDEST JUMPDEST JUMPDEST DUP4 PUSH1 0xD PUSH1 0x0 DUP6 DUP2 MSTORE PUSH1 0x20 ADD SWAP1 DUP2 MSTORE PUSH1 0x20 ADD PUSH1 0x0 KECCAK256 PUSH1 0x0 ADD PUSH1 0x0 PUSH2 0x100 EXP DUP2 SLOAD DUP2 PUSH20 0xFFFFFFFFFFFFFFFFFFFFFFFFFFFFFFFFFFFFFFFF MUL NOT AND SWAP1 DUP4 PUSH20 0xFFFFFFFFFFFFFFFFFFFFFFFFFFFFFFFFFFFFFFFF AND MUL OR SWAP1 SSTORE POP DUP3 DUP5 PUSH20 0xFFFFFFFFFFFFFFFFFFFFFFFFFFFFFFFFFFFFFFFF AND DUP3 PUSH20 0xFFFFFFFFFFFFFFFFFFFFFFFFFFFFFFFFFFFFFFFF AND PUSH32 0x8C5BE1E5EBEC7D5BD14F71427D1E84F3DD0314C0F7B2291E5B200AC8C7C3B925 PUSH1 0x40 MLOAD PUSH1 0x40 MLOAD DUP1 SWAP2 SUB SWAP1 LOG4 POP POP POP POP JUMP JUMPDEST PUSH2 0x1519 PUSH2 0x1A53 JUMP JUMPDEST PUSH20 0xFFFFFFFFFFFFFFFFFFFFFFFFFFFFFFFFFFFFFFFF AND PUSH2 0x1537 PUSH2 0xD45 JUMP JUMPDEST PUSH20 0xFFFFFFFFFFFFFFFFFFFFFFFFFFFFFFFFFFFFFFFF AND EQ PUSH2 0x158D JUMPI PUSH1 0x40 MLOAD PUSH32 0x8C379A000000000000000000000000000000000000000000000000000000000 DUP2 MSTORE PUSH1 0x4 ADD PUSH2 0x1584 SWAP1 PUSH2 0x2B83 JUMP JUMPDEST PUSH1 0x40 MLOAD DUP1 SWAP2 SUB SWAP1 REVERT JUMPDEST JUMP JUMPDEST PUSH1 0x0 SWAP1 JUMP JUMPDEST PUSH1 0x0 DUP2 PUSH2 0x159F PUSH2 0x158F JUMP JUMPDEST GT PUSH2 0x166A JUMPI PUSH1 0xB PUSH1 0x0 DUP4 DUP2 MSTORE PUSH1 0x20 ADD SWAP1 DUP2 MSTORE PUSH1 0x20 ADD PUSH1 0x0 KECCAK256 SLOAD SWAP1 POP PUSH1 0x0 DUP2 SUB PUSH2 0x1641 JUMPI PUSH1 0x1 SLOAD DUP3 LT PUSH2 0x15DC JUMPI PUSH2 0x15DB PUSH4 0xDF2D9B42 PUSH1 0xE0 SHL PUSH2 0x13D8 JUMP JUMPDEST JUMPDEST JUMPDEST PUSH1 0xB PUSH1 0x0 DUP4 PUSH1 0x1 SWAP1 SUB SWAP4 POP DUP4 DUP2 MSTORE PUSH1 0x20 ADD SWAP1 DUP2 MSTORE PUSH1 0x20 ADD PUSH1 0x0 KECCAK256 SLOAD SWAP1 POP PUSH1 0x0 DUP2 SUB ISZERO PUSH2 0x163C JUMPI PUSH1 0x0 PUSH29 0x100000000000000000000000000000000000000000000000000000000 DUP3 AND SUB ISZERO PUSH2 0x167B JUMPI PUSH2 0x163B PUSH4 0xDF2D9B42 PUSH1 0xE0 SHL PUSH2 0x13D8 JUMP JUMPDEST JUMPDEST PUSH2 0x15DD JUMP JUMPDEST PUSH1 0x0 PUSH29 0x100000000000000000000000000000000000000000000000000000000 DUP3 AND SUB ISZERO PUSH2 0x167B JUMPI JUMPDEST PUSH2 0x167A PUSH4 0xDF2D9B42 PUSH1 0xE0 SHL PUSH2 0x13D8 JUMP JUMPDEST JUMPDEST SWAP2 SWAP1 POP JUMP JUMPDEST PUSH1 0x0 DUP1 PUSH1 0x0 PUSH1 0xD PUSH1 0x0 DUP6 DUP2 MSTORE PUSH1 0x20 ADD SWAP1 DUP2 MSTORE PUSH1 0x20 ADD PUSH1 0x0 KECCAK256 SWAP1 POP DUP1 SWAP3 POP DUP3 SLOAD SWAP2 POP POP SWAP2 POP SWAP2 JUMP JUMPDEST PUSH1 0x0 CALLER SWAP1 POP SWAP1 JUMP JUMPDEST PUSH1 0x0 PUSH20 0xFFFFFFFFFFFFFFFFFFFFFFFFFFFFFFFFFFFFFFFF DUP4 AND SWAP3 POP PUSH20 0xFFFFFFFFFFFFFFFFFFFFFFFFFFFFFFFFFFFFFFFF DUP3 AND SWAP2 POP DUP4 DUP3 EQ DUP4 DUP4 EQ OR SWAP1 POP SWAP4 SWAP3 POP POP POP JUMP JUMPDEST POP POP POP POP JUMP JUMPDEST PUSH1 0x0 DUP1 PUSH1 0xE8 DUP4 SWAP1 SHR SWAP1 POP PUSH1 0xE8 PUSH2 0x1710 DUP7 DUP7 DUP5 PUSH2 0x1A5B JUMP JUMPDEST PUSH3 0xFFFFFF AND SWAP1 SHL SWAP2 POP POP SWAP4 SWAP3 POP POP POP JUMP JUMPDEST PUSH1 0x0 PUSH20 0xFFFFFFFFFFFFFFFFFFFFFFFFFFFFFFFFFFFFFFFF DUP4 AND SWAP3 POP DUP2 TIMESTAMP PUSH1 0xA0 SHL OR DUP4 OR SWAP1 POP SWAP3 SWAP2 POP POP JUMP JUMPDEST POP POP POP POP JUMP JUMPDEST PUSH2 0x176C DUP3 DUP3 PUSH1 0x40 MLOAD DUP1 PUSH1 0x20 ADD PUSH1 0x40 MSTORE DUP1 PUSH1 0x0 DUP2 MSTORE POP PUSH2 0x1A64 JUMP JUMPDEST POP POP JUMP JUMPDEST PUSH1 0x0 DUP1 PUSH1 0x0 SWAP1 SLOAD SWAP1 PUSH2 0x100 EXP SWAP1 DIV PUSH20 0xFFFFFFFFFFFFFFFFFFFFFFFFFFFFFFFFFFFFFFFF AND SWAP1 POP DUP2 PUSH1 0x0 DUP1 PUSH2 0x100 EXP DUP2 SLOAD DUP2 PUSH20 0xFFFFFFFFFFFFFFFFFFFFFFFFFFFFFFFFFFFFFFFF MUL NOT AND SWAP1 DUP4 PUSH20 0xFFFFFFFFFFFFFFFFFFFFFFFFFFFFFFFFFFFFFFFF AND MUL OR SWAP1 SSTORE POP DUP2 PUSH20 0xFFFFFFFFFFFFFFFFFFFFFFFFFFFFFFFFFFFFFFFF AND DUP2 PUSH20 0xFFFFFFFFFFFFFFFFFFFFFFFFFFFFFFFFFFFFFFFF AND PUSH32 0x8BE0079C531659141344CD1FD0A4F28419497F9722A3DAAFE3B4186F6B6457E0 PUSH1 0x40 MLOAD PUSH1 0x40 MLOAD DUP1 SWAP2 SUB SWAP1 LOG3 POP POP JUMP JUMPDEST PUSH1 0x0 DUP4 PUSH20 0xFFFFFFFFFFFFFFFFFFFFFFFFFFFFFFFFFFFFFFFF AND PUSH4 0x150B7A02 PUSH2 0x185A PUSH2 0x16A7 JUMP JUMPDEST DUP8 DUP7 DUP7 PUSH1 0x40 MLOAD DUP6 PUSH4 0xFFFFFFFF AND PUSH1 0xE0 SHL DUP2 MSTORE PUSH1 0x4 ADD PUSH2 0x187C SWAP5 SWAP4 SWAP3 SWAP2 SWAP1 PUSH2 0x2BF8 JUMP JUMPDEST PUSH1 0x20 PUSH1 0x40 MLOAD DUP1 DUP4 SUB DUP2 PUSH1 0x0 DUP8 GAS CALL SWAP3 POP POP POP DUP1 ISZERO PUSH2 0x18B8 JUMPI POP PUSH1 0x40 MLOAD RETURNDATASIZE PUSH1 0x1F NOT PUSH1 0x1F DUP3 ADD AND DUP3 ADD DUP1 PUSH1 0x40 MSTORE POP DUP2 ADD SWAP1 PUSH2 0x18B5 SWAP2 SWAP1 PUSH2 0x2C59 JUMP JUMPDEST PUSH1 0x1 JUMPDEST PUSH2 0x1910 JUMPI RETURNDATASIZE DUP1 PUSH1 0x0 DUP2 EQ PUSH2 0x18E8 JUMPI PUSH1 0x40 MLOAD SWAP2 POP PUSH1 0x1F NOT PUSH1 0x3F RETURNDATASIZE ADD AND DUP3 ADD PUSH1 0x40 MSTORE RETURNDATASIZE DUP3 MSTORE RETURNDATASIZE PUSH1 0x0 PUSH1 0x20 DUP5 ADD RETURNDATACOPY PUSH2 0x18ED JUMP JUMPDEST PUSH1 0x60 SWAP2 POP JUMPDEST POP PUSH1 0x0 DUP2 MLOAD SUB PUSH2 0x1908 JUMPI PUSH2 0x1907 PUSH4 0xD1A57ED6 PUSH1 0xE0 SHL PUSH2 0x13D8 JUMP JUMPDEST JUMPDEST DUP1 MLOAD DUP2 PUSH1 0x20 ADD REVERT JUMPDEST PUSH4 0x150B7A02 PUSH1 0xE0 SHL PUSH28 0xFFFFFFFFFFFFFFFFFFFFFFFFFFFFFFFFFFFFFFFFFFFFFFFFFFFFFFFF NOT AND DUP2 PUSH28 0xFFFFFFFFFFFFFFFFFFFFFFFFFFFFFFFFFFFFFFFFFFFFFFFFFFFFFFFF NOT AND EQ SWAP2 POP POP SWAP5 SWAP4 POP POP POP POP JUMP JUMPDEST PUSH1 0x60 PUSH1 0x5 DUP1 SLOAD PUSH2 0x1972 SWAP1 PUSH2 0x2642 JUMP JUMPDEST DUP1 PUSH1 0x1F ADD PUSH1 0x20 DUP1 SWAP2 DIV MUL PUSH1 0x20 ADD PUSH1 0x40 MLOAD SWAP1 DUP2 ADD PUSH1 0x40 MSTORE DUP1 SWAP3 SWAP2 SWAP1 DUP2 DUP2 MSTORE PUSH1 0x20 ADD DUP3 DUP1 SLOAD PUSH2 0x199E SWAP1 PUSH2 0x2642 JUMP JUMPDEST DUP1 ISZERO PUSH2 0x19EB JUMPI DUP1 PUSH1 0x1F LT PUSH2 0x19C0 JUMPI PUSH2 0x100 DUP1 DUP4 SLOAD DIV MUL DUP4 MSTORE SWAP2 PUSH1 0x20 ADD SWAP2 PUSH2 0x19EB JUMP JUMPDEST DUP3 ADD SWAP2 SWAP1 PUSH1 0x0 MSTORE PUSH1 0x20 PUSH1 0x0 KECCAK256 SWAP1 JUMPDEST DUP2 SLOAD DUP2 MSTORE SWAP1 PUSH1 0x1 ADD SWAP1 PUSH1 0x20 ADD DUP1 DUP4 GT PUSH2 0x19CE JUMPI DUP3 SWAP1 SUB PUSH1 0x1F AND DUP3 ADD SWAP2 JUMPDEST POP POP POP POP POP SWAP1 POP SWAP1 JUMP JUMPDEST PUSH1 0x60 PUSH1 0xA0 PUSH1 0x40 MLOAD ADD DUP1 PUSH1 0x40 MSTORE PUSH1 0x20 DUP2 SUB SWAP2 POP PUSH1 0x0 DUP3 MSTORE DUP2 DUP4 JUMPDEST PUSH1 0x1 ISZERO PUSH2 0x1A30 JUMPI PUSH1 0x1 DUP5 SUB SWAP4 POP PUSH1 0xA DUP2 MOD PUSH1 0x30 ADD DUP5 MSTORE8 PUSH1 0xA DUP2 DIV SWAP1 POP DUP1 PUSH2 0x1A0E JUMPI JUMPDEST POP DUP3 DUP2 SUB PUSH1 0x20 DUP5 SUB SWAP4 POP DUP1 DUP5 MSTORE POP POP POP SWAP2 SWAP1 POP JUMP JUMPDEST PUSH2 0x1A50 DUP2 PUSH1 0x0 PUSH2 0x1AEA JUMP JUMPDEST POP JUMP JUMPDEST PUSH1 0x0 CALLER SWAP1 POP SWAP1 JUMP JUMPDEST PUSH1 0x0 SWAP4 SWAP3 POP POP POP JUMP JUMPDEST PUSH2 0x1A6E DUP4 DUP4 PUSH2 0x1D1B JUMP JUMPDEST PUSH1 0x0 DUP4 PUSH20 0xFFFFFFFFFFFFFFFFFFFFFFFFFFFFFFFFFFFFFFFF AND EXTCODESIZE EQ PUSH2 0x1AE5 JUMPI PUSH1 0x0 PUSH1 0x1 SLOAD SWAP1 POP PUSH1 0x0 DUP4 DUP3 SUB SWAP1 POP JUMPDEST PUSH2 0x1AAF PUSH1 0x0 DUP7 DUP4 DUP1 PUSH1 0x1 ADD SWAP5 POP DUP7 PUSH2 0x1834 JUMP JUMPDEST PUSH2 0x1AC4 JUMPI PUSH2 0x1AC3 PUSH4 0xD1A57ED6 PUSH1 0xE0 SHL PUSH2 0x13D8 JUMP JUMPDEST JUMPDEST DUP2 DUP2 LT PUSH2 0x1A9C JUMPI DUP2 PUSH1 0x1 SLOAD EQ PUSH2 0x1AE2 JUMPI PUSH2 0x1AE1 PUSH1 0x0 PUSH1 0xE0 SHL PUSH2 0x13D8 JUMP JUMPDEST JUMPDEST POP POP JUMPDEST POP POP POP JUMP JUMPDEST PUSH1 0x0 PUSH2 0x1AF5 DUP4 PUSH2 0x1594 JUMP JUMPDEST SWAP1 POP PUSH1 0x0 DUP2 SWAP1 POP PUSH1 0x0 DUP1 PUSH2 0x1B08 DUP7 PUSH2 0x1680 JUMP JUMPDEST SWAP2 POP SWAP2 POP DUP5 ISZERO PUSH2 0x1B50 JUMPI PUSH2 0x1B24 DUP2 DUP5 PUSH2 0x1B1F PUSH2 0x16A7 JUMP JUMPDEST PUSH2 0x16AF JUMP JUMPDEST PUSH2 0x1B4F JUMPI PUSH2 0x1B39 DUP4 PUSH2 0x1B34 PUSH2 0x16A7 JUMP JUMPDEST PUSH2 0x1153 JUMP JUMPDEST PUSH2 0x1B4E JUMPI PUSH2 0x1B4D PUSH4 0x59C896BE PUSH1 0xE0 SHL PUSH2 0x13D8 JUMP JUMPDEST JUMPDEST JUMPDEST JUMPDEST PUSH2 0x1B5E DUP4 PUSH1 0x0 DUP9 PUSH1 0x1 PUSH2 0x16F3 JUMP JUMPDEST DUP1 ISZERO PUSH2 0x1B69 JUMPI PUSH1 0x0 DUP3 SSTORE JUMPDEST PUSH1 0x1 PUSH1 0x80 PUSH1 0x1 SWAP1 SHL SUB PUSH1 0xC PUSH1 0x0 DUP6 PUSH20 0xFFFFFFFFFFFFFFFFFFFFFFFFFFFFFFFFFFFFFFFF AND PUSH20 0xFFFFFFFFFFFFFFFFFFFFFFFFFFFFFFFFFFFFFFFF AND DUP2 MSTORE PUSH1 0x20 ADD SWAP1 DUP2 MSTORE PUSH1 0x20 ADD PUSH1 0x0 KECCAK256 PUSH1 0x0 DUP3 DUP3 SLOAD ADD SWAP3 POP POP DUP2 SWAP1 SSTORE POP PUSH2 0x1C11 DUP4 PUSH2 0x1BCE DUP6 PUSH1 0x0 DUP9 PUSH2 0x16F9 JUMP JUMPDEST PUSH29 0x200000000000000000000000000000000000000000000000000000000 PUSH29 0x100000000000000000000000000000000000000000000000000000000 OR OR PUSH2 0x1721 JUMP JUMPDEST PUSH1 0xB PUSH1 0x0 DUP9 DUP2 MSTORE PUSH1 0x20 ADD SWAP1 DUP2 MSTORE PUSH1 0x20 ADD PUSH1 0x0 KECCAK256 DUP2 SWAP1 SSTORE POP PUSH1 0x0 PUSH29 0x200000000000000000000000000000000000000000000000000000000 DUP6 AND SUB PUSH2 0x1C97 JUMPI PUSH1 0x0 PUSH1 0x1 DUP8 ADD SWAP1 POP PUSH1 0x0 PUSH1 0xB PUSH1 0x0 DUP4 DUP2 MSTORE PUSH1 0x20 ADD SWAP1 DUP2 MSTORE PUSH1 0x20 ADD PUSH1 0x0 KECCAK256 SLOAD SUB PUSH2 0x1C95 JUMPI PUSH1 0x1 SLOAD DUP2 EQ PUSH2 0x1C94 JUMPI DUP5 PUSH1 0xB PUSH1 0x0 DUP4 DUP2 MSTORE PUSH1 0x20 ADD SWAP1 DUP2 MSTORE PUSH1 0x20 ADD PUSH1 0x0 KECCAK256 DUP2 SWAP1 SSTORE POP JUMPDEST JUMPDEST POP JUMPDEST DUP6 PUSH1 0x0 PUSH20 0xFFFFFFFFFFFFFFFFFFFFFFFFFFFFFFFFFFFFFFFF AND DUP5 PUSH20 0xFFFFFFFFFFFFFFFFFFFFFFFFFFFFFFFFFFFFFFFF AND PUSH32 0xDDF252AD1BE2C89B69C2B068FC378DAA952BA7F163C4A11628F55A4DF523B3EF PUSH1 0x40 MLOAD PUSH1 0x40 MLOAD DUP1 SWAP2 SUB SWAP1 LOG4 PUSH2 0x1D01 DUP4 PUSH1 0x0 DUP9 PUSH1 0x1 PUSH2 0x174C JUMP JUMPDEST PUSH1 0x2 PUSH1 0x0 DUP2 SLOAD DUP1 SWAP3 SWAP2 SWAP1 PUSH1 0x1 ADD SWAP2 SWAP1 POP SSTORE POP POP POP POP POP POP POP JUMP JUMPDEST PUSH1 0x0 PUSH1 0x1 SLOAD SWAP1 POP PUSH1 0x0 DUP3 SUB PUSH2 0x1D3B JUMPI PUSH2 0x1D3A PUSH4 0xB562E8DD PUSH1 0xE0 SHL PUSH2 0x13D8 JUMP JUMPDEST JUMPDEST PUSH2 0x1D48 PUSH1 0x0 DUP5 DUP4 DUP6 PUSH2 0x16F3 JUMP JUMPDEST PUSH2 0x1D68 DUP4 PUSH2 0x1D59 PUSH1 0x0 DUP7 PUSH1 0x0 PUSH2 0x16F9 JUMP JUMPDEST PUSH2 0x1D62 DUP6 PUSH2 0x1E7F JUMP JUMPDEST OR PUSH2 0x1721 JUMP JUMPDEST PUSH1 0xB PUSH1 0x0 DUP4 DUP2 MSTORE PUSH1 0x20 ADD SWAP1 DUP2 MSTORE PUSH1 0x20 ADD PUSH1 0x0 KECCAK256 DUP2 SWAP1 SSTORE POP PUSH1 0x1 PUSH1 0x40 PUSH1 0x1 SWAP1 SHL OR DUP3 MUL PUSH1 0xC PUSH1 0x0 DUP6 PUSH20 0xFFFFFFFFFFFFFFFFFFFFFFFFFFFFFFFFFFFFFFFF AND PUSH20 0xFFFFFFFFFFFFFFFFFFFFFFFFFFFFFFFFFFFFFFFF AND DUP2 MSTORE PUSH1 0x20 ADD SWAP1 DUP2 MSTORE PUSH1 0x20 ADD PUSH1 0x0 KECCAK256 PUSH1 0x0 DUP3 DUP3 SLOAD ADD SWAP3 POP POP DUP2 SWAP1 SSTORE POP PUSH1 0x0 PUSH20 0xFFFFFFFFFFFFFFFFFFFFFFFFFFFFFFFFFFFFFFFF DUP5 PUSH20 0xFFFFFFFFFFFFFFFFFFFFFFFFFFFFFFFFFFFFFFFF AND AND SWAP1 POP PUSH1 0x0 DUP2 SUB PUSH2 0x1E20 JUMPI PUSH2 0x1E1F PUSH4 0x2E076300 PUSH1 0xE0 SHL PUSH2 0x13D8 JUMP JUMPDEST JUMPDEST PUSH1 0x0 DUP4 DUP4 ADD SWAP1 POP PUSH1 0x0 DUP4 SWAP1 POP JUMPDEST DUP1 DUP4 PUSH1 0x0 PUSH32 0xDDF252AD1BE2C89B69C2B068FC378DAA952BA7F163C4A11628F55A4DF523B3EF PUSH1 0x0 DUP1 LOG4 DUP2 DUP2 PUSH1 0x1 ADD SWAP2 POP DUP2 SUB PUSH2 0x1E2D JUMPI DUP2 PUSH1 0x1 DUP2 SWAP1 SSTORE POP POP POP POP PUSH2 0x1E7A PUSH1 0x0 DUP5 DUP4 DUP6 PUSH2 0x174C JUMP JUMPDEST POP POP POP JUMP JUMPDEST PUSH1 0x0 PUSH1 0x1 DUP3 EQ PUSH1 0xE1 SHL SWAP1 POP SWAP2 SWAP1 POP JUMP JUMPDEST PUSH1 0x0 PUSH1 0x40 MLOAD SWAP1 POP SWAP1 JUMP JUMPDEST PUSH1 0x0 DUP1 REVERT JUMPDEST PUSH1 0x0 DUP1 REVERT JUMPDEST PUSH1 0x0 PUSH32 0xFFFFFFFF00000000000000000000000000000000000000000000000000000000 DUP3 AND SWAP1 POP SWAP2 SWAP1 POP JUMP JUMPDEST PUSH2 0x1ED8 DUP2 PUSH2 0x1EA3 JUMP JUMPDEST DUP2 EQ PUSH2 0x1EE3 JUMPI PUSH1 0x0 DUP1 REVERT JUMPDEST POP JUMP JUMPDEST PUSH1 0x0 DUP2 CALLDATALOAD SWAP1 POP PUSH2 0x1EF5 DUP2 PUSH2 0x1ECF JUMP JUMPDEST SWAP3 SWAP2 POP POP JUMP JUMPDEST PUSH1 0x0 PUSH1 0x20 DUP3 DUP5 SUB SLT ISZERO PUSH2 0x1F11 JUMPI PUSH2 0x1F10 PUSH2 0x1E99 JUMP JUMPDEST JUMPDEST PUSH1 0x0 PUSH2 0x1F1F DUP5 DUP3 DUP6 ADD PUSH2 0x1EE6 JUMP JUMPDEST SWAP2 POP POP SWAP3 SWAP2 POP POP JUMP JUMPDEST PUSH1 0x0 DUP2 ISZERO ISZERO SWAP1 POP SWAP2 SWAP1 POP JUMP JUMPDEST PUSH2 0x1F3D DUP2 PUSH2 0x1F28 JUMP JUMPDEST DUP3 MSTORE POP POP JUMP JUMPDEST PUSH1 0x0 PUSH1 0x20 DUP3 ADD SWAP1 POP PUSH2 0x1F58 PUSH1 0x0 DUP4 ADD DUP5 PUSH2 0x1F34 JUMP JUMPDEST SWAP3 SWAP2 POP POP JUMP JUMPDEST PUSH1 0x0 DUP2 MLOAD SWAP1 POP SWAP2 SWAP1 POP JUMP JUMPDEST PUSH1 0x0 DUP3 DUP3 MSTORE PUSH1 0x20 DUP3 ADD SWAP1 POP SWAP3 SWAP2 POP POP JUMP JUMPDEST PUSH1 0x0 JUMPDEST DUP4 DUP2 LT ISZERO PUSH2 0x1F98 JUMPI DUP1 DUP3 ADD MLOAD DUP2 DUP5 ADD MSTORE PUSH1 0x20 DUP2 ADD SWAP1 POP PUSH2 0x1F7D JUMP JUMPDEST PUSH1 0x0 DUP5 DUP5 ADD MSTORE POP POP POP POP JUMP JUMPDEST PUSH1 0x0 PUSH1 0x1F NOT PUSH1 0x1F DUP4 ADD AND SWAP1 POP SWAP2 SWAP1 POP JUMP JUMPDEST PUSH1 0x0 PUSH2 0x1FC0 DUP3 PUSH2 0x1F5E JUMP JUMPDEST PUSH2 0x1FCA DUP2 DUP6 PUSH2 0x1F69 JUMP JUMPDEST SWAP4 POP PUSH2 0x1FDA DUP2 DUP6 PUSH1 0x20 DUP7 ADD PUSH2 0x1F7A JUMP JUMPDEST PUSH2 0x1FE3 DUP2 PUSH2 0x1FA4 JUMP JUMPDEST DUP5 ADD SWAP2 POP POP SWAP3 SWAP2 POP POP JUMP JUMPDEST PUSH1 0x0 PUSH1 0x20 DUP3 ADD SWAP1 POP DUP2 DUP2 SUB PUSH1 0x0 DUP4 ADD MSTORE PUSH2 0x2008 DUP2 DUP5 PUSH2 0x1FB5 JUMP JUMPDEST SWAP1 POP SWAP3 SWAP2 POP POP JUMP JUMPDEST PUSH1 0x0 DUP2 SWAP1 POP SWAP2 SWAP1 POP JUMP JUMPDEST PUSH2 0x2023 DUP2 PUSH2 0x2010 JUMP JUMPDEST DUP2 EQ PUSH2 0x202E JUMPI PUSH1 0x0 DUP1 REVERT JUMPDEST POP JUMP JUMPDEST PUSH1 0x0 DUP2 CALLDATALOAD SWAP1 POP PUSH2 0x2040 DUP2 PUSH2 0x201A JUMP JUMPDEST SWAP3 SWAP2 POP POP JUMP JUMPDEST PUSH1 0x0 PUSH1 0x20 DUP3 DUP5 SUB SLT ISZERO PUSH2 0x205C JUMPI PUSH2 0x205B PUSH2 0x1E99 JUMP JUMPDEST JUMPDEST PUSH1 0x0 PUSH2 0x206A DUP5 DUP3 DUP6 ADD PUSH2 0x2031 JUMP JUMPDEST SWAP2 POP POP SWAP3 SWAP2 POP POP JUMP JUMPDEST PUSH1 0x0 PUSH20 0xFFFFFFFFFFFFFFFFFFFFFFFFFFFFFFFFFFFFFFFF DUP3 AND SWAP1 POP SWAP2 SWAP1 POP JUMP JUMPDEST PUSH1 0x0 PUSH2 0x209E DUP3 PUSH2 0x2073 JUMP JUMPDEST SWAP1 POP SWAP2 SWAP1 POP JUMP JUMPDEST PUSH2 0x20AE DUP2 PUSH2 0x2093 JUMP JUMPDEST DUP3 MSTORE POP POP JUMP JUMPDEST PUSH1 0x0 PUSH1 0x20 DUP3 ADD SWAP1 POP PUSH2 0x20C9 PUSH1 0x0 DUP4 ADD DUP5 PUSH2 0x20A5 JUMP JUMPDEST SWAP3 SWAP2 POP POP JUMP JUMPDEST PUSH2 0x20D8 DUP2 PUSH2 0x2093 JUMP JUMPDEST DUP2 EQ PUSH2 0x20E3 JUMPI PUSH1 0x0 DUP1 REVERT JUMPDEST POP JUMP JUMPDEST PUSH1 0x0 DUP2 CALLDATALOAD SWAP1 POP PUSH2 0x20F5 DUP2 PUSH2 0x20CF JUMP JUMPDEST SWAP3 SWAP2 POP POP JUMP JUMPDEST PUSH1 0x0 DUP1 PUSH1 0x40 DUP4 DUP6 SUB SLT ISZERO PUSH2 0x2112 JUMPI PUSH2 0x2111 PUSH2 0x1E99 JUMP JUMPDEST JUMPDEST PUSH1 0x0 PUSH2 0x2120 DUP6 DUP3 DUP7 ADD PUSH2 0x20E6 JUMP JUMPDEST SWAP3 POP POP PUSH1 0x20 PUSH2 0x2131 DUP6 DUP3 DUP7 ADD PUSH2 0x2031 JUMP JUMPDEST SWAP2 POP POP SWAP3 POP SWAP3 SWAP1 POP JUMP JUMPDEST PUSH1 0x0 DUP1 REVERT JUMPDEST PUSH1 0x0 DUP1 REVERT JUMPDEST PUSH32 0x4E487B7100000000000000000000000000000000000000000000000000000000 PUSH1 0x0 MSTORE PUSH1 0x41 PUSH1 0x4 MSTORE PUSH1 0x24 PUSH1 0x0 REVERT JUMPDEST PUSH2 0x217D DUP3 PUSH2 0x1FA4 JUMP JUMPDEST DUP2 ADD DUP2 DUP2 LT PUSH8 0xFFFFFFFFFFFFFFFF DUP3 GT OR ISZERO PUSH2 0x219C JUMPI PUSH2 0x219B PUSH2 0x2145 JUMP JUMPDEST JUMPDEST DUP1 PUSH1 0x40 MSTORE POP POP POP JUMP JUMPDEST PUSH1 0x0 PUSH2 0x21AF PUSH2 0x1E8F JUMP JUMPDEST SWAP1 POP PUSH2 0x21BB DUP3 DUP3 PUSH2 0x2174 JUMP JUMPDEST SWAP2 SWAP1 POP JUMP JUMPDEST PUSH1 0x0 PUSH8 0xFFFFFFFFFFFFFFFF DUP3 GT ISZERO PUSH2 0x21DB JUMPI PUSH2 0x21DA PUSH2 0x2145 JUMP JUMPDEST JUMPDEST PUSH2 0x21E4 DUP3 PUSH2 0x1FA4 JUMP JUMPDEST SWAP1 POP PUSH1 0x20 DUP2 ADD SWAP1 POP SWAP2 SWAP1 POP JUMP JUMPDEST DUP3 DUP2 DUP4 CALLDATACOPY PUSH1 0x0 DUP4 DUP4 ADD MSTORE POP POP POP JUMP JUMPDEST PUSH1 0x0 PUSH2 0x2213 PUSH2 0x220E DUP5 PUSH2 0x21C0 JUMP JUMPDEST PUSH2 0x21A5 JUMP JUMPDEST SWAP1 POP DUP3 DUP2 MSTORE PUSH1 0x20 DUP2 ADD DUP5 DUP5 DUP5 ADD GT ISZERO PUSH2 0x222F JUMPI PUSH2 0x222E PUSH2 0x2140 JUMP JUMPDEST JUMPDEST PUSH2 0x223A DUP5 DUP3 DUP6 PUSH2 0x21F1 JUMP JUMPDEST POP SWAP4 SWAP3 POP POP POP JUMP JUMPDEST PUSH1 0x0 DUP3 PUSH1 0x1F DUP4 ADD SLT PUSH2 0x2257 JUMPI PUSH2 0x2256 PUSH2 0x213B JUMP JUMPDEST JUMPDEST DUP2 CALLDATALOAD PUSH2 0x2267 DUP5 DUP3 PUSH1 0x20 DUP7 ADD PUSH2 0x2200 JUMP JUMPDEST SWAP2 POP POP SWAP3 SWAP2 POP POP JUMP JUMPDEST PUSH1 0x0 PUSH1 0x20 DUP3 DUP5 SUB SLT ISZERO PUSH2 0x2286 JUMPI PUSH2 0x2285 PUSH2 0x1E99 JUMP JUMPDEST JUMPDEST PUSH1 0x0 DUP3 ADD CALLDATALOAD PUSH8 0xFFFFFFFFFFFFFFFF DUP2 GT ISZERO PUSH2 0x22A4 JUMPI PUSH2 0x22A3 PUSH2 0x1E9E JUMP JUMPDEST JUMPDEST PUSH2 0x22B0 DUP5 DUP3 DUP6 ADD PUSH2 0x2242 JUMP JUMPDEST SWAP2 POP POP SWAP3 SWAP2 POP POP JUMP JUMPDEST PUSH2 0x22C2 DUP2 PUSH2 0x2010 JUMP JUMPDEST DUP3 MSTORE POP POP JUMP JUMPDEST PUSH1 0x0 PUSH1 0x20 DUP3 ADD SWAP1 POP PUSH2 0x22DD PUSH1 0x0 DUP4 ADD DUP5 PUSH2 0x22B9 JUMP JUMPDEST SWAP3 SWAP2 POP POP JUMP JUMPDEST PUSH1 0x0 DUP1 PUSH1 0x0 PUSH1 0x60 DUP5 DUP7 SUB SLT ISZERO PUSH2 0x22FC JUMPI PUSH2 0x22FB PUSH2 0x1E99 JUMP JUMPDEST JUMPDEST PUSH1 0x0 PUSH2 0x230A DUP7 DUP3 DUP8 ADD PUSH2 0x20E6 JUMP JUMPDEST SWAP4 POP POP PUSH1 0x20 PUSH2 0x231B DUP7 DUP3 DUP8 ADD PUSH2 0x20E6 JUMP JUMPDEST SWAP3 POP POP PUSH1 0x40 PUSH2 0x232C DUP7 DUP3 DUP8 ADD PUSH2 0x2031 JUMP JUMPDEST SWAP2 POP POP SWAP3 POP SWAP3 POP SWAP3 JUMP JUMPDEST PUSH1 0x0 DUP2 MLOAD SWAP1 POP SWAP2 SWAP1 POP JUMP JUMPDEST PUSH1 0x0 DUP3 DUP3 MSTORE PUSH1 0x20 DUP3 ADD SWAP1 POP SWAP3 SWAP2 POP POP JUMP JUMPDEST PUSH1 0x0 DUP2 SWAP1 POP PUSH1 0x20 DUP3 ADD SWAP1 POP SWAP2 SWAP1 POP JUMP JUMPDEST PUSH2 0x236B DUP2 PUSH2 0x2010 JUMP JUMPDEST DUP3 MSTORE POP POP JUMP JUMPDEST PUSH1 0x0 PUSH2 0x237D DUP4 DUP4 PUSH2 0x2362 JUMP JUMPDEST PUSH1 0x20 DUP4 ADD SWAP1 POP SWAP3 SWAP2 POP POP JUMP JUMPDEST PUSH1 0x0 PUSH1 0x20 DUP3 ADD SWAP1 POP SWAP2 SWAP1 POP JUMP JUMPDEST PUSH1 0x0 PUSH2 0x23A1 DUP3 PUSH2 0x2336 JUMP JUMPDEST PUSH2 0x23AB DUP2 DUP6 PUSH2 0x2341 JUMP JUMPDEST SWAP4 POP PUSH2 0x23B6 DUP4 PUSH2 0x2352 JUMP JUMPDEST DUP1 PUSH1 0x0 JUMPDEST DUP4 DUP2 LT ISZERO PUSH2 0x23E7 JUMPI DUP2 MLOAD PUSH2 0x23CE DUP9 DUP3 PUSH2 0x2371 JUMP JUMPDEST SWAP8 POP PUSH2 0x23D9 DUP4 PUSH2 0x2389 JUMP JUMPDEST SWAP3 POP POP PUSH1 0x1 DUP2 ADD SWAP1 POP PUSH2 0x23BA JUMP JUMPDEST POP DUP6 SWAP4 POP POP POP POP SWAP3 SWAP2 POP POP JUMP JUMPDEST PUSH1 0x0 PUSH1 0x20 DUP3 ADD SWAP1 POP DUP2 DUP2 SUB PUSH1 0x0 DUP4 ADD MSTORE PUSH2 0x240E DUP2 DUP5 PUSH2 0x2396 JUMP JUMPDEST SWAP1 POP SWAP3 SWAP2 POP POP JUMP JUMPDEST PUSH1 0x0 PUSH1 0x20 DUP3 DUP5 SUB SLT ISZERO PUSH2 0x242C JUMPI PUSH2 0x242B PUSH2 0x1E99 JUMP JUMPDEST JUMPDEST PUSH1 0x0 PUSH2 0x243A DUP5 DUP3 DUP6 ADD PUSH2 0x20E6 JUMP JUMPDEST SWAP2 POP POP SWAP3 SWAP2 POP POP JUMP JUMPDEST PUSH2 0x244C DUP2 PUSH2 0x1F28 JUMP JUMPDEST DUP2 EQ PUSH2 0x2457 JUMPI PUSH1 0x0 DUP1 REVERT JUMPDEST POP JUMP JUMPDEST PUSH1 0x0 DUP2 CALLDATALOAD SWAP1 POP PUSH2 0x2469 DUP2 PUSH2 0x2443 JUMP JUMPDEST SWAP3 SWAP2 POP POP JUMP JUMPDEST PUSH1 0x0 DUP1 PUSH1 0x40 DUP4 DUP6 SUB SLT ISZERO PUSH2 0x2486 JUMPI PUSH2 0x2485 PUSH2 0x1E99 JUMP JUMPDEST JUMPDEST PUSH1 0x0 PUSH2 0x2494 DUP6 DUP3 DUP7 ADD PUSH2 0x20E6 JUMP JUMPDEST SWAP3 POP POP PUSH1 0x20 PUSH2 0x24A5 DUP6 DUP3 DUP7 ADD PUSH2 0x245A JUMP JUMPDEST SWAP2 POP POP SWAP3 POP SWAP3 SWAP1 POP JUMP JUMPDEST PUSH1 0x0 PUSH8 0xFFFFFFFFFFFFFFFF DUP3 GT ISZERO PUSH2 0x24CA JUMPI PUSH2 0x24C9 PUSH2 0x2145 JUMP JUMPDEST JUMPDEST PUSH2 0x24D3 DUP3 PUSH2 0x1FA4 JUMP JUMPDEST SWAP1 POP PUSH1 0x20 DUP2 ADD SWAP1 POP SWAP2 SWAP1 POP JUMP JUMPDEST PUSH1 0x0 PUSH2 0x24F3 PUSH2 0x24EE DUP5 PUSH2 0x24AF JUMP JUMPDEST PUSH2 0x21A5 JUMP JUMPDEST SWAP1 POP DUP3 DUP2 MSTORE PUSH1 0x20 DUP2 ADD DUP5 DUP5 DUP5 ADD GT ISZERO PUSH2 0x250F JUMPI PUSH2 0x250E PUSH2 0x2140 JUMP JUMPDEST JUMPDEST PUSH2 0x251A DUP5 DUP3 DUP6 PUSH2 0x21F1 JUMP JUMPDEST POP SWAP4 SWAP3 POP POP POP JUMP JUMPDEST PUSH1 0x0 DUP3 PUSH1 0x1F DUP4 ADD SLT PUSH2 0x2537 JUMPI PUSH2 0x2536 PUSH2 0x213B JUMP JUMPDEST JUMPDEST DUP2 CALLDATALOAD PUSH2 0x2547 DUP5 DUP3 PUSH1 0x20 DUP7 ADD PUSH2 0x24E0 JUMP JUMPDEST SWAP2 POP POP SWAP3 SWAP2 POP POP JUMP JUMPDEST PUSH1 0x0 DUP1 PUSH1 0x0 DUP1 PUSH1 0x80 DUP6 DUP8 SUB SLT ISZERO PUSH2 0x256A JUMPI PUSH2 0x2569 PUSH2 0x1E99 JUMP JUMPDEST JUMPDEST PUSH1 0x0 PUSH2 0x2578 DUP8 DUP3 DUP9 ADD PUSH2 0x20E6 JUMP JUMPDEST SWAP5 POP POP PUSH1 0x20 PUSH2 0x2589 DUP8 DUP3 DUP9 ADD PUSH2 0x20E6 JUMP JUMPDEST SWAP4 POP POP PUSH1 0x40 PUSH2 0x259A DUP8 DUP3 DUP9 ADD PUSH2 0x2031 JUMP JUMPDEST SWAP3 POP POP PUSH1 0x60 DUP6 ADD CALLDATALOAD PUSH8 0xFFFFFFFFFFFFFFFF DUP2 GT ISZERO PUSH2 0x25BB JUMPI PUSH2 0x25BA PUSH2 0x1E9E JUMP JUMPDEST JUMPDEST PUSH2 0x25C7 DUP8 DUP3 DUP9 ADD PUSH2 0x2522 JUMP JUMPDEST SWAP2 POP POP SWAP3 SWAP6 SWAP2 SWAP5 POP SWAP3 POP JUMP JUMPDEST PUSH1 0x0 DUP1 PUSH1 0x40 DUP4 DUP6 SUB SLT ISZERO PUSH2 0x25EA JUMPI PUSH2 0x25E9 PUSH2 0x1E99 JUMP JUMPDEST JUMPDEST PUSH1 0x0 PUSH2 0x25F8 DUP6 DUP3 DUP7 ADD PUSH2 0x20E6 JUMP JUMPDEST SWAP3 POP POP PUSH1 0x20 PUSH2 0x2609 DUP6 DUP3 DUP7 ADD PUSH2 0x20E6 JUMP JUMPDEST SWAP2 POP POP SWAP3 POP SWAP3 SWAP1 POP JUMP JUMPDEST PUSH32 0x4E487B7100000000000000000000000000000000000000000000000000000000 PUSH1 0x0 MSTORE PUSH1 0x22 PUSH1 0x4 MSTORE PUSH1 0x24 PUSH1 0x0 REVERT JUMPDEST PUSH1 0x0 PUSH1 0x2 DUP3 DIV SWAP1 POP PUSH1 0x1 DUP3 AND DUP1 PUSH2 0x265A JUMPI PUSH1 0x7F DUP3 AND SWAP2 POP JUMPDEST PUSH1 0x20 DUP3 LT DUP2 SUB PUSH2 0x266D JUMPI PUSH2 0x266C PUSH2 0x2613 JUMP JUMPDEST JUMPDEST POP SWAP2 SWAP1 POP JUMP JUMPDEST PUSH1 0x0 DUP2 SWAP1 POP DUP2 PUSH1 0x0 MSTORE PUSH1 0x20 PUSH1 0x0 KECCAK256 SWAP1 POP SWAP2 SWAP1 POP JUMP JUMPDEST PUSH1 0x0 PUSH1 0x20 PUSH1 0x1F DUP4 ADD DIV SWAP1 POP SWAP2 SWAP1 POP JUMP JUMPDEST PUSH1 0x0 DUP3 DUP3 SHL SWAP1 POP SWAP3 SWAP2 POP POP JUMP JUMPDEST PUSH1 0x0 PUSH1 0x8 DUP4 MUL PUSH2 0x26D5 PUSH32 0xFFFFFFFFFFFFFFFFFFFFFFFFFFFFFFFFFFFFFFFFFFFFFFFFFFFFFFFFFFFFFFFF DUP3 PUSH2 0x2698 JUMP JUMPDEST PUSH2 0x26DF DUP7 DUP4 PUSH2 0x2698 JUMP JUMPDEST SWAP6 POP DUP1 NOT DUP5 AND SWAP4 POP DUP1 DUP7 AND DUP5 OR SWAP3 POP POP POP SWAP4 SWAP3 POP POP POP JUMP JUMPDEST PUSH1 0x0 DUP2 SWAP1 POP SWAP2 SWAP1 POP JUMP JUMPDEST PUSH1 0x0 PUSH2 0x271C PUSH2 0x2717 PUSH2 0x2712 DUP5 PUSH2 0x2010 JUMP JUMPDEST PUSH2 0x26F7 JUMP JUMPDEST PUSH2 0x2010 JUMP JUMPDEST SWAP1 POP SWAP2 SWAP1 POP JUMP JUMPDEST PUSH1 0x0 DUP2 SWAP1 POP SWAP2 SWAP1 POP JUMP JUMPDEST PUSH2 0x2736 DUP4 PUSH2 0x2701 JUMP JUMPDEST PUSH2 0x274A PUSH2 0x2742 DUP3 PUSH2 0x2723 JUMP JUMPDEST DUP5 DUP5 SLOAD PUSH2 0x26A5 JUMP JUMPDEST DUP3 SSTORE POP POP POP POP JUMP JUMPDEST PUSH1 0x0 SWAP1 JUMP JUMPDEST PUSH2 0x275F PUSH2 0x2752 JUMP JUMPDEST PUSH2 0x276A DUP2 DUP5 DUP5 PUSH2 0x272D JUMP JUMPDEST POP POP POP JUMP JUMPDEST JUMPDEST DUP2 DUP2 LT ISZERO PUSH2 0x278E JUMPI PUSH2 0x2783 PUSH1 0x0 DUP3 PUSH2 0x2757 JUMP JUMPDEST PUSH1 0x1 DUP2 ADD SWAP1 POP PUSH2 0x2770 JUMP JUMPDEST POP POP JUMP JUMPDEST PUSH1 0x1F DUP3 GT ISZERO PUSH2 0x27D3 JUMPI PUSH2 0x27A4 DUP2 PUSH2 0x2673 JUMP JUMPDEST PUSH2 0x27AD DUP5 PUSH2 0x2688 JUMP JUMPDEST DUP2 ADD PUSH1 0x20 DUP6 LT ISZERO PUSH2 0x27BC JUMPI DUP2 SWAP1 POP JUMPDEST PUSH2 0x27D0 PUSH2 0x27C8 DUP6 PUSH2 0x2688 JUMP JUMPDEST DUP4 ADD DUP3 PUSH2 0x276F JUMP JUMPDEST POP POP JUMPDEST POP POP POP JUMP JUMPDEST PUSH1 0x0 DUP3 DUP3 SHR SWAP1 POP SWAP3 SWAP2 POP POP JUMP JUMPDEST PUSH1 0x0 PUSH2 0x27F6 PUSH1 0x0 NOT DUP5 PUSH1 0x8 MUL PUSH2 0x27D8 JUMP JUMPDEST NOT DUP1 DUP4 AND SWAP2 POP POP SWAP3 SWAP2 POP POP JUMP JUMPDEST PUSH1 0x0 PUSH2 0x280F DUP4 DUP4 PUSH2 0x27E5 JUMP JUMPDEST SWAP2 POP DUP3 PUSH1 0x2 MUL DUP3 OR SWAP1 POP SWAP3 SWAP2 POP POP JUMP JUMPDEST PUSH2 0x2828 DUP3 PUSH2 0x1F5E JUMP JUMPDEST PUSH8 0xFFFFFFFFFFFFFFFF DUP2 GT ISZERO PUSH2 0x2841 JUMPI PUSH2 0x2840 PUSH2 0x2145 JUMP JUMPDEST JUMPDEST PUSH2 0x284B DUP3 SLOAD PUSH2 0x2642 JUMP JUMPDEST PUSH2 0x2856 DUP3 DUP3 DUP6 PUSH2 0x2792 JUMP JUMPDEST PUSH1 0x0 PUSH1 0x20 SWAP1 POP PUSH1 0x1F DUP4 GT PUSH1 0x1 DUP2 EQ PUSH2 0x2889 JUMPI PUSH1 0x0 DUP5 ISZERO PUSH2 0x2877 JUMPI DUP3 DUP8 ADD MLOAD SWAP1 POP JUMPDEST PUSH2 0x2881 DUP6 DUP3 PUSH2 0x2803 JUMP JUMPDEST DUP7 SSTORE POP PUSH2 0x28E9 JUMP JUMPDEST PUSH1 0x1F NOT DUP5 AND PUSH2 0x2897 DUP7 PUSH2 0x2673 JUMP JUMPDEST PUSH1 0x0 JUMPDEST DUP3 DUP2 LT ISZERO PUSH2 0x28BF JUMPI DUP5 DUP10 ADD MLOAD DUP3 SSTORE PUSH1 0x1 DUP3 ADD SWAP2 POP PUSH1 0x20 DUP6 ADD SWAP5 POP PUSH1 0x20 DUP2 ADD SWAP1 POP PUSH2 0x289A JUMP JUMPDEST DUP7 DUP4 LT ISZERO PUSH2 0x28DC JUMPI DUP5 DUP10 ADD MLOAD PUSH2 0x28D8 PUSH1 0x1F DUP10 AND DUP3 PUSH2 0x27E5 JUMP JUMPDEST DUP4 SSTORE POP JUMPDEST PUSH1 0x1 PUSH1 0x2 DUP9 MUL ADD DUP9 SSTORE POP POP POP JUMPDEST POP POP POP POP POP POP JUMP JUMPDEST PUSH32 0x796F7520617265206E6F7420617070726F7665642020746F206D696E74000000 PUSH1 0x0 DUP3 ADD MSTORE POP JUMP JUMPDEST PUSH1 0x0 PUSH2 0x2927 PUSH1 0x1D DUP4 PUSH2 0x1F69 JUMP JUMPDEST SWAP2 POP PUSH2 0x2932 DUP3 PUSH2 0x28F1 JUMP JUMPDEST PUSH1 0x20 DUP3 ADD SWAP1 POP SWAP2 SWAP1 POP JUMP JUMPDEST PUSH1 0x0 PUSH1 0x20 DUP3 ADD SWAP1 POP DUP2 DUP2 SUB PUSH1 0x0 DUP4 ADD MSTORE PUSH2 0x2956 DUP2 PUSH2 0x291A JUMP JUMPDEST SWAP1 POP SWAP2 SWAP1 POP JUMP JUMPDEST PUSH1 0x0 DUP2 SWAP1 POP SWAP3 SWAP2 POP POP JUMP JUMPDEST PUSH1 0x0 PUSH2 0x2973 DUP3 PUSH2 0x1F5E JUMP JUMPDEST PUSH2 0x297D DUP2 DUP6 PUSH2 0x295D JUMP JUMPDEST SWAP4 POP PUSH2 0x298D DUP2 DUP6 PUSH1 0x20 DUP7 ADD PUSH2 0x1F7A JUMP JUMPDEST DUP1 DUP5 ADD SWAP2 POP POP SWAP3 SWAP2 POP POP JUMP JUMPDEST PUSH1 0x0 DUP2 SLOAD PUSH2 0x29A6 DUP2 PUSH2 0x2642 JUMP JUMPDEST PUSH2 0x29B0 DUP2 DUP7 PUSH2 0x295D JUMP JUMPDEST SWAP5 POP PUSH1 0x1 DUP3 AND PUSH1 0x0 DUP2 EQ PUSH2 0x29CB JUMPI PUSH1 0x1 DUP2 EQ PUSH2 0x29E0 JUMPI PUSH2 0x2A13 JUMP JUMPDEST PUSH1 0xFF NOT DUP4 AND DUP7 MSTORE DUP2 ISZERO ISZERO DUP3 MUL DUP7 ADD SWAP4 POP PUSH2 0x2A13 JUMP JUMPDEST PUSH2 0x29E9 DUP6 PUSH2 0x2673 JUMP JUMPDEST PUSH1 0x0 JUMPDEST DUP4 DUP2 LT ISZERO PUSH2 0x2A0B JUMPI DUP2 SLOAD DUP2 DUP10 ADD MSTORE PUSH1 0x1 DUP3 ADD SWAP2 POP PUSH1 0x20 DUP2 ADD SWAP1 POP PUSH2 0x29EC JUMP JUMPDEST DUP4 DUP9 ADD SWAP6 POP POP POP JUMPDEST POP POP POP SWAP3 SWAP2 POP POP JUMP JUMPDEST PUSH1 0x0 PUSH2 0x2A28 DUP3 DUP7 PUSH2 0x2968 JUMP JUMPDEST SWAP2 POP PUSH2 0x2A34 DUP3 DUP6 PUSH2 0x2968 JUMP JUMPDEST SWAP2 POP PUSH2 0x2A40 DUP3 DUP5 PUSH2 0x2999 JUMP JUMPDEST SWAP2 POP DUP2 SWAP1 POP SWAP5 SWAP4 POP POP POP POP JUMP JUMPDEST PUSH32 0x4F776E61626C653A206E6577206F776E657220697320746865207A65726F2061 PUSH1 0x0 DUP3 ADD MSTORE PUSH32 0x6464726573730000000000000000000000000000000000000000000000000000 PUSH1 0x20 DUP3 ADD MSTORE POP JUMP JUMPDEST PUSH1 0x0 PUSH2 0x2AA9 PUSH1 0x26 DUP4 PUSH2 0x1F69 JUMP JUMPDEST SWAP2 POP PUSH2 0x2AB4 DUP3 PUSH2 0x2A4D JUMP JUMPDEST PUSH1 0x40 DUP3 ADD SWAP1 POP SWAP2 SWAP1 POP JUMP JUMPDEST PUSH1 0x0 PUSH1 0x20 DUP3 ADD SWAP1 POP DUP2 DUP2 SUB PUSH1 0x0 DUP4 ADD MSTORE PUSH2 0x2AD8 DUP2 PUSH2 0x2A9C JUMP JUMPDEST SWAP1 POP SWAP2 SWAP1 POP JUMP JUMPDEST PUSH32 0x4E487B7100000000000000000000000000000000000000000000000000000000 PUSH1 0x0 MSTORE PUSH1 0x11 PUSH1 0x4 MSTORE PUSH1 0x24 PUSH1 0x0 REVERT JUMPDEST PUSH1 0x0 PUSH2 0x2B19 DUP3 PUSH2 0x2010 JUMP JUMPDEST SWAP2 POP PUSH1 0x0 DUP3 SUB PUSH2 0x2B2C JUMPI PUSH2 0x2B2B PUSH2 0x2ADF JUMP JUMPDEST JUMPDEST PUSH1 0x1 DUP3 SUB SWAP1 POP SWAP2 SWAP1 POP JUMP JUMPDEST PUSH32 0x4F776E61626C653A2063616C6C6572206973206E6F7420746865206F776E6572 PUSH1 0x0 DUP3 ADD MSTORE POP JUMP JUMPDEST PUSH1 0x0 PUSH2 0x2B6D PUSH1 0x20 DUP4 PUSH2 0x1F69 JUMP JUMPDEST SWAP2 POP PUSH2 0x2B78 DUP3 PUSH2 0x2B37 JUMP JUMPDEST PUSH1 0x20 DUP3 ADD SWAP1 POP SWAP2 SWAP1 POP JUMP JUMPDEST PUSH1 0x0 PUSH1 0x20 DUP3 ADD SWAP1 POP DUP2 DUP2 SUB PUSH1 0x0 DUP4 ADD MSTORE PUSH2 0x2B9C DUP2 PUSH2 0x2B60 JUMP JUMPDEST SWAP1 POP SWAP2 SWAP1 POP JUMP JUMPDEST PUSH1 0x0 DUP2 MLOAD SWAP1 POP SWAP2 SWAP1 POP JUMP JUMPDEST PUSH1 0x0 DUP3 DUP3 MSTORE PUSH1 0x20 DUP3 ADD SWAP1 POP SWAP3 SWAP2 POP POP JUMP JUMPDEST PUSH1 0x0 PUSH2 0x2BCA DUP3 PUSH2 0x2BA3 JUMP JUMPDEST PUSH2 0x2BD4 DUP2 DUP6 PUSH2 0x2BAE JUMP JUMPDEST SWAP4 POP PUSH2 0x2BE4 DUP2 DUP6 PUSH1 0x20 DUP7 ADD PUSH2 0x1F7A JUMP JUMPDEST PUSH2 0x2BED DUP2 PUSH2 0x1FA4 JUMP JUMPDEST DUP5 ADD SWAP2 POP POP SWAP3 SWAP2 POP POP JUMP JUMPDEST PUSH1 0x0 PUSH1 0x80 DUP3 ADD SWAP1 POP PUSH2 0x2C0D PUSH1 0x0 DUP4 ADD DUP8 PUSH2 0x20A5 JUMP JUMPDEST PUSH2 0x2C1A PUSH1 0x20 DUP4 ADD DUP7 PUSH2 0x20A5 JUMP JUMPDEST PUSH2 0x2C27 PUSH1 0x40 DUP4 ADD DUP6 PUSH2 0x22B9 JUMP JUMPDEST DUP2 DUP2 SUB PUSH1 0x60 DUP4 ADD MSTORE PUSH2 0x2C39 DUP2 DUP5 PUSH2 0x2BBF JUMP JUMPDEST SWAP1 POP SWAP6 SWAP5 POP POP POP POP POP JUMP JUMPDEST PUSH1 0x0 DUP2 MLOAD SWAP1 POP PUSH2 0x2C53 DUP2 PUSH2 0x1ECF JUMP JUMPDEST SWAP3 SWAP2 POP POP JUMP JUMPDEST PUSH1 0x0 PUSH1 0x20 DUP3 DUP5 SUB SLT ISZERO PUSH2 0x2C6F JUMPI PUSH2 0x2C6E PUSH2 0x1E99 JUMP JUMPDEST JUMPDEST PUSH1 0x0 PUSH2 0x2C7D DUP5 DUP3 DUP6 ADD PUSH2 0x2C44 JUMP JUMPDEST SWAP2 POP POP SWAP3 SWAP2 POP POP JUMP INVALID LOG2 PUSH5 0x6970667358 0x22 SLT KECCAK256 PUSH31 0xC81EBA4EEE87DD29E0051CAA24A05382193D93E1EE78CD490310C5EA5A49D1 PUSH5 0x736F6C6343 STOP ADDMOD SLT STOP CALLER "
				},
				"gasEstimates": {
					"creation": {
						"codeDepositCost": "2290400",
						"executionCost": "infinite",
						"totalCost": "infinite"
					},
					"external": {
						"approve(address,uint256)": "infinite",
						"balanceOf(address)": "2905",
						"baseURI_()": "infinite",
						"checkredeemednftid()": "infinite",
						"checkredemmedphysicalitem(uint256)": "2977",
						"getApproved(uint256)": "infinite",
						"isApprovedForAll(address,address)": "infinite",
						"mint(address,uint256)": "infinite",
						"name()": "infinite",
						"owner()": "2589",
						"ownerOf(uint256)": "infinite",
						"redeemPhysicalItem(uint256)": "infinite",
						"renounceOwnership()": "30443",
						"safeTransferFrom(address,address,uint256)": "infinite",
						"safeTransferFrom(address,address,uint256,bytes)": "infinite",
						"setApprovalForAll(address,bool)": "infinite",
						"setBaseURI(string)": "infinite",
						"setUriSuffix(string)": "infinite",
						"setapprovedcontractaddress(address)": "24945",
						"supportsInterface(bytes4)": "745",
						"symbol()": "infinite",
						"tokenURI(uint256)": "infinite",
						"totalSupply()": "4710",
						"transferFrom(address,address,uint256)": "infinite",
						"transferOwnership(address)": "30854",
						"uriSuffix()": "infinite"
					},
					"internal": {
						"_afterTokenTransfers(address,address,uint256,uint256)": "17",
						"_approve(address,uint256)": "infinite",
						"_approve(address,uint256,bool)": "infinite",
						"_baseURI()": "infinite",
						"_beforeTokenTransfers(address,address,uint256,uint256)": "17",
						"_burn(uint256)": "infinite",
						"_burn(uint256,bool)": "infinite",
						"_checkContractOnERC721Received(address,address,uint256,bytes memory)": "infinite",
						"_exists(uint256)": "infinite",
						"_extraData(address,address,uint24)": "24",
						"_getApprovedSlotAndAddress(uint256)": "2236",
						"_getAux(address)": "infinite",
						"_initializeOwnershipAt(uint256)": "infinite",
						"_isSenderApprovedOrOwner(address,address,address)": "78",
						"_mint(address,uint256)": "infinite",
						"_mintERC2309(address,uint256)": "infinite",
						"_msgSenderERC721A()": "22",
						"_nextExtraData(address,address,uint256)": "114",
						"_nextInitializedFlag(uint256)": "40",
						"_nextTokenId()": "infinite",
						"_numberBurned(address)": "infinite",
						"_numberMinted(address)": "infinite",
						"_ownershipAt(uint256)": "infinite",
						"_ownershipIsInitialized(uint256)": "infinite",
						"_ownershipOf(uint256)": "infinite",
						"_packOwnershipData(address,uint256)": "61",
						"_packedOwnershipOf(uint256)": "infinite",
						"_revert(bytes4)": "19",
						"_safeMint(address,uint256)": "infinite",
						"_safeMint(address,uint256,bytes memory)": "infinite",
						"_setAux(address,uint64)": "infinite",
						"_setExtraDataAt(uint256,uint24)": "infinite",
						"_startTokenId()": "15",
						"_toString(uint256)": "infinite",
						"_totalBurned()": "infinite",
						"_totalMinted()": "infinite",
						"_unpackedOwnership(uint256)": "infinite"
					}
				},
				"methodIdentifiers": {
					"approve(address,uint256)": "095ea7b3",
					"balanceOf(address)": "70a08231",
					"baseURI_()": "f259a29e",
					"checkredeemednftid()": "50caa341",
					"checkredemmedphysicalitem(uint256)": "f0c7b3aa",
					"getApproved(uint256)": "081812fc",
					"isApprovedForAll(address,address)": "e985e9c5",
					"mint(address,uint256)": "40c10f19",
					"name()": "06fdde03",
					"owner()": "8da5cb5b",
					"ownerOf(uint256)": "6352211e",
					"redeemPhysicalItem(uint256)": "dc76668d",
					"renounceOwnership()": "715018a6",
					"safeTransferFrom(address,address,uint256)": "42842e0e",
					"safeTransferFrom(address,address,uint256,bytes)": "b88d4fde",
					"setApprovalForAll(address,bool)": "a22cb465",
					"setBaseURI(string)": "55f804b3",
					"setUriSuffix(string)": "16ba10e0",
					"setapprovedcontractaddress(address)": "b6b285d9",
					"supportsInterface(bytes4)": "01ffc9a7",
					"symbol()": "95d89b41",
					"tokenURI(uint256)": "c87b56dd",
					"totalSupply()": "18160ddd",
					"transferFrom(address,address,uint256)": "23b872dd",
					"transferOwnership(address)": "f2fde38b",
					"uriSuffix()": "5503a0e8"
				}
			},
			"storageLayout": {
				"storage": [
					{
						"astId": 7,
						"contract": "chestNft.sol:KleptoGnomeLootChest",
						"label": "_owner",
						"offset": 0,
						"slot": "0",
						"type": "t_address"
					},
					{
						"astId": 401,
						"contract": "chestNft.sol:KleptoGnomeLootChest",
						"label": "_currentIndex",
						"offset": 0,
						"slot": "1",
						"type": "t_uint256"
					},
					{
						"astId": 403,
						"contract": "chestNft.sol:KleptoGnomeLootChest",
						"label": "_burnCounter",
						"offset": 0,
						"slot": "2",
						"type": "t_uint256"
					},
					{
						"astId": 405,
						"contract": "chestNft.sol:KleptoGnomeLootChest",
						"label": "_name",
						"offset": 0,
						"slot": "3",
						"type": "t_string_storage"
					},
					{
						"astId": 407,
						"contract": "chestNft.sol:KleptoGnomeLootChest",
						"label": "_symbol",
						"offset": 0,
						"slot": "4",
						"type": "t_string_storage"
					},
					{
						"astId": 409,
						"contract": "chestNft.sol:KleptoGnomeLootChest",
						"label": "baseURI_",
						"offset": 0,
						"slot": "5",
						"type": "t_string_storage"
					},
					{
						"astId": 412,
						"contract": "chestNft.sol:KleptoGnomeLootChest",
						"label": "uriSuffix",
						"offset": 0,
						"slot": "6",
						"type": "t_string_storage"
					},
					{
						"astId": 417,
						"contract": "chestNft.sol:KleptoGnomeLootChest",
						"label": "nftsredeemed",
						"offset": 0,
						"slot": "7",
						"type": "t_mapping(t_address,t_array(t_uint256)dyn_storage)"
					},
					{
						"astId": 419,
						"contract": "chestNft.sol:KleptoGnomeLootChest",
						"label": "counter",
						"offset": 0,
						"slot": "8",
						"type": "t_uint256"
					},
					{
						"astId": 423,
						"contract": "chestNft.sol:KleptoGnomeLootChest",
						"label": "onlyapprovedcontractaddress",
						"offset": 0,
						"slot": "9",
						"type": "t_mapping(t_address,t_bool)"
					},
					{
						"astId": 429,
						"contract": "chestNft.sol:KleptoGnomeLootChest",
						"label": "_checkredemmedphysicalitem",
						"offset": 0,
						"slot": "10",
						"type": "t_mapping(t_address,t_mapping(t_uint256,t_bool))"
					},
					{
						"astId": 433,
						"contract": "chestNft.sol:KleptoGnomeLootChest",
						"label": "_packedOwnerships",
						"offset": 0,
						"slot": "11",
						"type": "t_mapping(t_uint256,t_uint256)"
					},
					{
						"astId": 437,
						"contract": "chestNft.sol:KleptoGnomeLootChest",
						"label": "_packedAddressData",
						"offset": 0,
						"slot": "12",
						"type": "t_mapping(t_address,t_uint256)"
					},
					{
						"astId": 442,
						"contract": "chestNft.sol:KleptoGnomeLootChest",
						"label": "_tokenApprovals",
						"offset": 0,
						"slot": "13",
						"type": "t_mapping(t_uint256,t_struct(TokenApprovalRef)333_storage)"
					},
					{
						"astId": 448,
						"contract": "chestNft.sol:KleptoGnomeLootChest",
						"label": "_operatorApprovals",
						"offset": 0,
						"slot": "14",
						"type": "t_mapping(t_address,t_mapping(t_address,t_bool))"
					}
				],
				"types": {
					"t_address": {
						"encoding": "inplace",
						"label": "address",
						"numberOfBytes": "20"
					},
					"t_array(t_uint256)dyn_storage": {
						"base": "t_uint256",
						"encoding": "dynamic_array",
						"label": "uint256[]",
						"numberOfBytes": "32"
					},
					"t_bool": {
						"encoding": "inplace",
						"label": "bool",
						"numberOfBytes": "1"
					},
					"t_mapping(t_address,t_array(t_uint256)dyn_storage)": {
						"encoding": "mapping",
						"key": "t_address",
						"label": "mapping(address => uint256[])",
						"numberOfBytes": "32",
						"value": "t_array(t_uint256)dyn_storage"
					},
					"t_mapping(t_address,t_bool)": {
						"encoding": "mapping",
						"key": "t_address",
						"label": "mapping(address => bool)",
						"numberOfBytes": "32",
						"value": "t_bool"
					},
					"t_mapping(t_address,t_mapping(t_address,t_bool))": {
						"encoding": "mapping",
						"key": "t_address",
						"label": "mapping(address => mapping(address => bool))",
						"numberOfBytes": "32",
						"value": "t_mapping(t_address,t_bool)"
					},
					"t_mapping(t_address,t_mapping(t_uint256,t_bool))": {
						"encoding": "mapping",
						"key": "t_address",
						"label": "mapping(address => mapping(uint256 => bool))",
						"numberOfBytes": "32",
						"value": "t_mapping(t_uint256,t_bool)"
					},
					"t_mapping(t_address,t_uint256)": {
						"encoding": "mapping",
						"key": "t_address",
						"label": "mapping(address => uint256)",
						"numberOfBytes": "32",
						"value": "t_uint256"
					},
					"t_mapping(t_uint256,t_bool)": {
						"encoding": "mapping",
						"key": "t_uint256",
						"label": "mapping(uint256 => bool)",
						"numberOfBytes": "32",
						"value": "t_bool"
					},
					"t_mapping(t_uint256,t_struct(TokenApprovalRef)333_storage)": {
						"encoding": "mapping",
						"key": "t_uint256",
						"label": "mapping(uint256 => struct KleptoGnomeLootChest.TokenApprovalRef)",
						"numberOfBytes": "32",
						"value": "t_struct(TokenApprovalRef)333_storage"
					},
					"t_mapping(t_uint256,t_uint256)": {
						"encoding": "mapping",
						"key": "t_uint256",
						"label": "mapping(uint256 => uint256)",
						"numberOfBytes": "32",
						"value": "t_uint256"
					},
					"t_string_storage": {
						"encoding": "bytes",
						"label": "string",
						"numberOfBytes": "32"
					},
					"t_struct(TokenApprovalRef)333_storage": {
						"encoding": "inplace",
						"label": "struct KleptoGnomeLootChest.TokenApprovalRef",
						"members": [
							{
								"astId": 332,
								"contract": "chestNft.sol:KleptoGnomeLootChest",
								"label": "value",
								"offset": 0,
								"slot": "0",
								"type": "t_address"
							}
						],
						"numberOfBytes": "32"
					},
					"t_uint256": {
						"encoding": "inplace",
						"label": "uint256",
						"numberOfBytes": "32"
					}
				}
			},
			"userdoc": {
				"kind": "user",
				"methods": {},
				"version": 1
			}
		}
	}
}