{
	"spoilsToken.sol": {
		"SpoilsToken": {
			"abi": [
				{
					"inputs": [
						{
							"internalType": "string",
							"name": "name_",
							"type": "string"
						},
						{
							"internalType": "string",
							"name": "symbol_",
							"type": "string"
						},
						{
							"internalType": "uint256",
							"name": "amount",
							"type": "uint256"
						}
					],
					"stateMutability": "nonpayable",
					"type": "constructor"
				},
				{
					"anonymous": false,
					"inputs": [
						{
							"indexed": true,
							"internalType": "address",
							"name": "owner",
							"type": "address"
						},
						{
							"indexed": true,
							"internalType": "address",
							"name": "spender",
							"type": "address"
						},
						{
							"indexed": false,
							"internalType": "uint256",
							"name": "value",
							"type": "uint256"
						}
					],
					"name": "Approval",
					"type": "event"
				},
				{
					"anonymous": false,
					"inputs": [
						{
							"indexed": true,
							"internalType": "address",
							"name": "previousOwner",
							"type": "address"
						},
						{
							"indexed": true,
							"internalType": "address",
							"name": "newOwner",
							"type": "address"
						}
					],
					"name": "OwnershipTransferred",
					"type": "event"
				},
				{
					"anonymous": false,
					"inputs": [
						{
							"indexed": true,
							"internalType": "address",
							"name": "from",
							"type": "address"
						},
						{
							"indexed": true,
							"internalType": "address",
							"name": "to",
							"type": "address"
						},
						{
							"indexed": false,
							"internalType": "uint256",
							"name": "value",
							"type": "uint256"
						}
					],
					"name": "Transfer",
					"type": "event"
				},
				{
					"inputs": [
						{
							"internalType": "address",
							"name": "owner",
							"type": "address"
						},
						{
							"internalType": "address",
							"name": "spender",
							"type": "address"
						}
					],
					"name": "allowance",
					"outputs": [
						{
							"internalType": "uint256",
							"name": "",
							"type": "uint256"
						}
					],
					"stateMutability": "view",
					"type": "function"
				},
				{
					"inputs": [
						{
							"internalType": "address",
							"name": "spender",
							"type": "address"
						},
						{
							"internalType": "uint256",
							"name": "amount",
							"type": "uint256"
						}
					],
					"name": "approve",
					"outputs": [
						{
							"internalType": "bool",
							"name": "",
							"type": "bool"
						}
					],
					"stateMutability": "nonpayable",
					"type": "function"
				},
				{
					"inputs": [
						{
							"internalType": "address",
							"name": "account",
							"type": "address"
						}
					],
					"name": "balanceOf",
					"outputs": [
						{
							"internalType": "uint256",
							"name": "",
							"type": "uint256"
						}
					],
					"stateMutability": "view",
					"type": "function"
				},
				{
					"inputs": [
						{
							"internalType": "address",
							"name": "add",
							"type": "address"
						},
						{
							"internalType": "uint256",
							"name": "amount",
							"type": "uint256"
						}
					],
					"name": "burn",
					"outputs": [],
					"stateMutability": "nonpayable",
					"type": "function"
				},
				{
					"inputs": [],
					"name": "decimals",
					"outputs": [
						{
							"internalType": "uint8",
							"name": "",
							"type": "uint8"
						}
					],
					"stateMutability": "view",
					"type": "function"
				},
				{
					"inputs": [
						{
							"internalType": "address",
							"name": "spender",
							"type": "address"
						},
						{
							"internalType": "uint256",
							"name": "subtractedValue",
							"type": "uint256"
						}
					],
					"name": "decreaseAllowance",
					"outputs": [
						{
							"internalType": "bool",
							"name": "",
							"type": "bool"
						}
					],
					"stateMutability": "nonpayable",
					"type": "function"
				},
				{
					"inputs": [
						{
							"internalType": "address",
							"name": "spender",
							"type": "address"
						},
						{
							"internalType": "uint256",
							"name": "addedValue",
							"type": "uint256"
						}
					],
					"name": "increaseAllowance",
					"outputs": [
						{
							"internalType": "bool",
							"name": "",
							"type": "bool"
						}
					],
					"stateMutability": "nonpayable",
					"type": "function"
				},
				{
					"inputs": [
						{
							"internalType": "address",
							"name": "add",
							"type": "address"
						},
						{
							"internalType": "uint256",
							"name": "amount",
							"type": "uint256"
						}
					],
					"name": "mint",
					"outputs": [],
					"stateMutability": "nonpayable",
					"type": "function"
				},
				{
					"inputs": [],
					"name": "name",
					"outputs": [
						{
							"internalType": "string",
							"name": "",
							"type": "string"
						}
					],
					"stateMutability": "view",
					"type": "function"
				},
				{
					"inputs": [],
					"name": "owner",
					"outputs": [
						{
							"internalType": "address",
							"name": "",
							"type": "address"
						}
					],
					"stateMutability": "view",
					"type": "function"
				},
				{
					"inputs": [],
					"name": "renounceOwnership",
					"outputs": [],
					"stateMutability": "nonpayable",
					"type": "function"
				},
				{
					"inputs": [
						{
							"internalType": "address",
							"name": "add",
							"type": "address"
						}
					],
					"name": "setapprovedcontractaddress",
					"outputs": [],
					"stateMutability": "nonpayable",
					"type": "function"
				},
				{
					"inputs": [],
					"name": "symbol",
					"outputs": [
						{
							"internalType": "string",
							"name": "",
							"type": "string"
						}
					],
					"stateMutability": "view",
					"type": "function"
				},
				{
					"inputs": [],
					"name": "totalSupply",
					"outputs": [
						{
							"internalType": "uint256",
							"name": "",
							"type": "uint256"
						}
					],
					"stateMutability": "view",
					"type": "function"
				},
				{
					"inputs": [
						{
							"internalType": "address",
							"name": "recipient",
							"type": "address"
						},
						{
							"internalType": "uint256",
							"name": "amount",
							"type": "uint256"
						}
					],
					"name": "transfer",
					"outputs": [
						{
							"internalType": "bool",
							"name": "",
							"type": "bool"
						}
					],
					"stateMutability": "nonpayable",
					"type": "function"
				},
				{
					"inputs": [
						{
							"internalType": "address",
							"name": "sender",
							"type": "address"
						},
						{
							"internalType": "address",
							"name": "recipient",
							"type": "address"
						},
						{
							"internalType": "uint256",
							"name": "amount",
							"type": "uint256"
						}
					],
					"name": "transferFrom",
					"outputs": [
						{
							"internalType": "bool",
							"name": "",
							"type": "bool"
						}
					],
					"stateMutability": "nonpayable",
					"type": "function"
				},
				{
					"inputs": [
						{
							"internalType": "address",
							"name": "newOwner",
							"type": "address"
						}
					],
					"name": "transferOwnership",
					"outputs": [],
					"stateMutability": "nonpayable",
					"type": "function"
				}
			],
			"devdoc": {
				"details": "Implementation of the {IERC20} interface. This implementation is agnostic to the way tokens are created. This means that a supply mechanism has to be added in a derived contract using {_mint}. For a generic mechanism see {ERC20PresetMinterPauser}. TIP: For a detailed writeup see our guide https://forum.zeppelin.solutions/t/how-to-implement-erc20-supply-mechanisms/226[How to implement supply mechanisms]. We have followed general OpenZeppelin Contracts guidelines: functions revert instead returning `false` on failure. This behavior is nonetheless conventional and does not conflict with the expectations of ERC20 applications. Additionally, an {Approval} event is emitted on calls to {transferFrom}. This allows applications to reconstruct the allowance for all accounts just by listening to said events. Other implementations of the EIP may not emit these events, as it isn't required by the specification. Finally, the non-standard {decreaseAllowance} and {increaseAllowance} functions have been added to mitigate the well-known issues around setting allowances. See {IERC20-approve}.",
				"events": {
					"Approval(address,address,uint256)": {
						"details": "Emitted when the allowance of a `spender` for an `owner` is set by a call to {approve}. `value` is the new allowance."
					},
					"Transfer(address,address,uint256)": {
						"details": "Emitted when `value` tokens are moved from one account (`from`) to another (`to`). Note that `value` may be zero."
					}
				},
				"kind": "dev",
				"methods": {
					"allowance(address,address)": {
						"details": "See {IERC20-allowance}."
					},
					"approve(address,uint256)": {
						"details": "See {IERC20-approve}. Requirements: - `spender` cannot be the zero address."
					},
					"balanceOf(address)": {
						"details": "See {IERC20-balanceOf}."
					},
					"constructor": {
						"details": "Sets the values for {name} and {symbol}. The default value of {decimals} is 18. To select a different value for {decimals} you should overload it. All two of these values are immutable: they can only be set once during construction."
					},
					"decimals()": {
						"details": "Returns the number of decimals used to get its user representation. For example, if `decimals` equals `2`, a balance of `505` tokens should be displayed to a user as `5.05` (`505 / 10 ** 2`). Tokens usually opt for a value of 18, imitating the relationship between Ether and Wei. This is the value {ERC20} uses, unless this function is overridden; NOTE: This information is only used for _display_ purposes: it in no way affects any of the arithmetic of the contract, including {IERC20-balanceOf} and {IERC20-transfer}."
					},
					"decreaseAllowance(address,uint256)": {
						"details": "Atomically decreases the allowance granted to `spender` by the caller. This is an alternative to {approve} that can be used as a mitigation for problems described in {IERC20-approve}. Emits an {Approval} event indicating the updated allowance. Requirements: - `spender` cannot be the zero address. - `spender` must have allowance for the caller of at least `subtractedValue`."
					},
					"increaseAllowance(address,uint256)": {
						"details": "Atomically increases the allowance granted to `spender` by the caller. This is an alternative to {approve} that can be used as a mitigation for problems described in {IERC20-approve}. Emits an {Approval} event indicating the updated allowance. Requirements: - `spender` cannot be the zero address."
					},
					"name()": {
						"details": "Returns the name of the token."
					},
					"owner()": {
						"details": "Returns the address of the current owner."
					},
					"renounceOwnership()": {
						"details": "Leaves the contract without owner. It will not be possible to call `onlyOwner` functions. Can only be called by the current owner. NOTE: Renouncing ownership will leave the contract without an owner, thereby disabling any functionality that is only available to the owner."
					},
					"symbol()": {
						"details": "Returns the symbol of the token, usually a shorter version of the name."
					},
					"totalSupply()": {
						"details": "See {IERC20-totalSupply}."
					},
					"transfer(address,uint256)": {
						"details": "See {IERC20-transfer}. Requirements: - `recipient` cannot be the zero address. - the caller must have a balance of at least `amount`."
					},
					"transferFrom(address,address,uint256)": {
						"details": "See {IERC20-transferFrom}. Emits an {Approval} event indicating the updated allowance. This is not required by the EIP. See the note at the beginning of {ERC20}. Requirements: - `sender` and `recipient` cannot be the zero address. - `sender` must have a balance of at least `amount`. - the caller must have allowance for ``sender``'s tokens of at least `amount`."
					},
					"transferOwnership(address)": {
						"details": "Transfers ownership of the contract to a new account (`newOwner`). Can only be called by the current owner."
					}
				},
				"version": 1
			},
			"evm": {
				"assembly": "    /* \"spoilsToken.sol\":1471:12861  contract SpoilsToken is Context, IERC20, IERC20Metadata,Ownable {... */\n  mstore(0x40, 0x80)\n    /* \"spoilsToken.sol\":2138:2304  constructor(string memory name_, string memory symbol_ ,uint amount) {... */\n  callvalue\n  dup1\n  iszero\n  tag_1\n  jumpi\n  0x00\n  dup1\n  revert\ntag_1:\n  pop\n  mload(0x40)\n  sub(codesize, bytecodeSize)\n  dup1\n  bytecodeSize\n  dup4\n  codecopy\n  dup2\n  add\n  0x40\n  dup2\n  swap1\n  mstore\n  tag_2\n  swap2\n  tag_3\n  jump\t// in\ntag_2:\n    /* \"@openzeppelin/contracts/access/Ownable.sol\":936:968  _transferOwnership(_msgSender()) */\n  tag_7\n    /* \"@openzeppelin/contracts/utils/Context.sol\":719:729  msg.sender */\n  caller\n    /* \"@openzeppelin/contracts/access/Ownable.sol\":936:954  _transferOwnership */\n  tag_10\n    /* \"@openzeppelin/contracts/access/Ownable.sol\":936:968  _transferOwnership(_msgSender()) */\n  jump\t// in\ntag_7:\n    /* \"spoilsToken.sol\":2218:2223  _name */\n  0x04\n    /* \"spoilsToken.sol\":2218:2231  _name = name_ */\n  tag_12\n    /* \"spoilsToken.sol\":2226:2231  name_ */\n  dup5\n    /* \"spoilsToken.sol\":2218:2223  _name */\n  dup3\n    /* \"spoilsToken.sol\":2218:2231  _name = name_ */\n  tag_13\n  jump\t// in\ntag_12:\n  pop\n    /* \"spoilsToken.sol\":2242:2249  _symbol */\n  0x05\n    /* \"spoilsToken.sol\":2242:2259  _symbol = symbol_ */\n  tag_14\n    /* \"spoilsToken.sol\":2252:2259  symbol_ */\n  dup4\n    /* \"spoilsToken.sol\":2242:2249  _symbol */\n  dup3\n    /* \"spoilsToken.sol\":2242:2259  _symbol = symbol_ */\n  tag_13\n  jump\t// in\ntag_14:\n  pop\n    /* \"spoilsToken.sol\":2270:2294  _mint(msg.sender,amount) */\n  tag_15\n    /* \"spoilsToken.sol\":2276:2286  msg.sender */\n  caller\n    /* \"spoilsToken.sol\":2287:2293  amount */\n  dup3\n    /* \"spoilsToken.sol\":2270:2275  _mint */\n  tag_16\n    /* \"spoilsToken.sol\":2270:2294  _mint(msg.sender,amount) */\n  jump\t// in\ntag_15:\n    /* \"spoilsToken.sol\":2138:2304  constructor(string memory name_, string memory symbol_ ,uint amount) {... */\n  pop\n  pop\n  pop\n    /* \"spoilsToken.sol\":1471:12861  contract SpoilsToken is Context, IERC20, IERC20Metadata,Ownable {... */\n  jump(tag_41)\n    /* \"@openzeppelin/contracts/access/Ownable.sol\":2426:2613  function _transferOwnership(address newOwner) internal virtual {... */\ntag_10:\n    /* \"@openzeppelin/contracts/access/Ownable.sol\":2499:2515  address oldOwner */\n  0x00\n    /* \"@openzeppelin/contracts/access/Ownable.sol\":2518:2524  _owner */\n  dup1\n  sload\n  sub(shl(0xa0, 0x01), 0x01)\n    /* \"@openzeppelin/contracts/access/Ownable.sol\":2534:2551  _owner = newOwner */\n  dup4\n  dup2\n  and\n  not(sub(shl(0xa0, 0x01), 0x01))\n  dup4\n  and\n  dup2\n  or\n  dup5\n  sstore\n    /* \"@openzeppelin/contracts/access/Ownable.sol\":2566:2606  OwnershipTransferred(oldOwner, newOwner) */\n  mload(0x40)\n    /* \"@openzeppelin/contracts/access/Ownable.sol\":2518:2524  _owner */\n  swap2\n  swap1\n  swap3\n  and\n  swap3\n  dup4\n  swap2\n    /* \"@openzeppelin/contracts/access/Ownable.sol\":2566:2606  OwnershipTransferred(oldOwner, newOwner) */\n  0x8be0079c531659141344cd1fd0a4f28419497f9722a3daafe3b4186f6b6457e0\n  swap2\n    /* \"@openzeppelin/contracts/access/Ownable.sol\":2499:2515  address oldOwner */\n  swap1\n    /* \"@openzeppelin/contracts/access/Ownable.sol\":2566:2606  OwnershipTransferred(oldOwner, newOwner) */\n  log3\n    /* \"@openzeppelin/contracts/access/Ownable.sol\":2489:2613  {... */\n  pop\n    /* \"@openzeppelin/contracts/access/Ownable.sol\":2426:2613  function _transferOwnership(address newOwner) internal virtual {... */\n  pop\n  jump\t// out\n    /* \"spoilsToken.sol\":9074:9473  function _mint(address account, uint256 amount) internal virtual {... */\ntag_16:\n  sub(shl(0xa0, 0x01), 0x01)\n    /* \"spoilsToken.sol\":9158:9179  account != address(0) */\n  dup3\n  and\n    /* \"spoilsToken.sol\":9150:9215  require(account != address(0), \"ERC20: mint to the zero address\") */\n  tag_21\n  jumpi\n  mload(0x40)\n  shl(0xe5, 0x461bcd)\n  dup2\n  mstore\n    /* \"#utility.yul\":4410:4412   */\n  0x20\n    /* \"spoilsToken.sol\":9150:9215  require(account != address(0), \"ERC20: mint to the zero address\") */\n  0x04\n  dup3\n  add\n    /* \"#utility.yul\":4392:4413   */\n  mstore\n    /* \"#utility.yul\":4449:4451   */\n  0x1f\n    /* \"#utility.yul\":4429:4447   */\n  0x24\n  dup3\n  add\n    /* \"#utility.yul\":4422:4452   */\n  mstore\n    /* \"#utility.yul\":4488:4521   */\n  0x45524332303a206d696e7420746f20746865207a65726f206164647265737300\n    /* \"#utility.yul\":4468:4486   */\n  0x44\n  dup3\n  add\n    /* \"#utility.yul\":4461:4522   */\n  mstore\n    /* \"#utility.yul\":4539:4557   */\n  0x64\n  add\n    /* \"spoilsToken.sol\":9150:9215  require(account != address(0), \"ERC20: mint to the zero address\") */\n  mload(0x40)\n  dup1\n  swap2\n  sub\n  swap1\n  revert\ntag_21:\n    /* \"spoilsToken.sol\":9306:9312  amount */\n  dup1\n    /* \"spoilsToken.sol\":9290:9302  _totalSupply */\n  0x03\n  0x00\n    /* \"spoilsToken.sol\":9290:9312  _totalSupply += amount */\n  dup3\n  dup3\n  sload\n  tag_26\n  swap2\n  swap1\n  tag_27\n  jump\t// in\ntag_26:\n  swap1\n  swap2\n  sstore\n  pop\n  pop\n  sub(shl(0xa0, 0x01), 0x01)\n    /* \"spoilsToken.sol\":9323:9341  _balances[account] */\n  dup3\n  and\n  0x00\n  swap1\n  dup2\n  mstore\n    /* \"spoilsToken.sol\":9323:9332  _balances */\n  0x01\n    /* \"spoilsToken.sol\":9323:9341  _balances[account] */\n  0x20\n  mstore\n  0x40\n  dup2\n  keccak256\n    /* \"spoilsToken.sol\":9323:9351  _balances[account] += amount */\n  dup1\n  sload\n    /* \"spoilsToken.sol\":9345:9351  amount */\n  dup4\n  swap3\n    /* \"spoilsToken.sol\":9323:9341  _balances[account] */\n  swap1\n    /* \"spoilsToken.sol\":9323:9351  _balances[account] += amount */\n  tag_28\n  swap1\n    /* \"spoilsToken.sol\":9345:9351  amount */\n  dup5\n  swap1\n    /* \"spoilsToken.sol\":9323:9351  _balances[account] += amount */\n  tag_27\n  jump\t// in\ntag_28:\n  swap1\n  swap2\n  sstore\n  pop\n  pop\n    /* \"spoilsToken.sol\":9367:9404  Transfer(address(0), account, amount) */\n  mload(0x40)\n    /* \"#utility.yul\":4941:4966   */\n  dup2\n  dup2\n  mstore\n  sub(shl(0xa0, 0x01), 0x01)\n    /* \"spoilsToken.sol\":9367:9404  Transfer(address(0), account, amount) */\n  dup4\n  and\n  swap1\n    /* \"spoilsToken.sol\":9384:9385  0 */\n  0x00\n  swap1\n    /* \"spoilsToken.sol\":9367:9404  Transfer(address(0), account, amount) */\n  0xddf252ad1be2c89b69c2b068fc378daa952ba7f163c4a11628f55a4df523b3ef\n  swap1\n    /* \"#utility.yul\":4929:4931   */\n  0x20\n    /* \"#utility.yul\":4914:4932   */\n  add\n    /* \"spoilsToken.sol\":9367:9404  Transfer(address(0), account, amount) */\n  mload(0x40)\n  dup1\n  swap2\n  sub\n  swap1\n  log3\n    /* \"spoilsToken.sol\":9074:9473  function _mint(address account, uint256 amount) internal virtual {... */\n  pop\n  pop\n  jump\t// out\n    /* \"spoilsToken.sol\":12005:12130  function _beforeTokenTransfer(... */\ntag_25:\n  pop\n  pop\n  pop\n  jump\t// out\n    /* \"#utility.yul\":14:141   */\ntag_35:\n    /* \"#utility.yul\":75:85   */\n  0x4e487b71\n    /* \"#utility.yul\":70:73   */\n  0xe0\n    /* \"#utility.yul\":66:86   */\n  shl\n    /* \"#utility.yul\":63:64   */\n  0x00\n    /* \"#utility.yul\":56:87   */\n  mstore\n    /* \"#utility.yul\":106:110   */\n  0x41\n    /* \"#utility.yul\":103:104   */\n  0x04\n    /* \"#utility.yul\":96:111   */\n  mstore\n    /* \"#utility.yul\":130:134   */\n  0x24\n    /* \"#utility.yul\":127:128   */\n  0x00\n    /* \"#utility.yul\":120:135   */\n  revert\n    /* \"#utility.yul\":146:986   */\ntag_36:\n    /* \"#utility.yul\":200:205   */\n  0x00\n    /* \"#utility.yul\":253:256   */\n  dup3\n    /* \"#utility.yul\":246:250   */\n  0x1f\n    /* \"#utility.yul\":238:244   */\n  dup4\n    /* \"#utility.yul\":234:251   */\n  add\n    /* \"#utility.yul\":230:257   */\n  slt\n    /* \"#utility.yul\":220:275   */\n  tag_44\n  jumpi\n    /* \"#utility.yul\":271:272   */\n  0x00\n    /* \"#utility.yul\":268:269   */\n  dup1\n    /* \"#utility.yul\":261:273   */\n  revert\n    /* \"#utility.yul\":220:275   */\ntag_44:\n    /* \"#utility.yul\":294:307   */\n  dup2\n  mload\n  sub(shl(0x40, 0x01), 0x01)\n    /* \"#utility.yul\":356:366   */\n  dup1\n  dup3\n  gt\n    /* \"#utility.yul\":353:389   */\n  iszero\n  tag_46\n  jumpi\n    /* \"#utility.yul\":369:387   */\n  tag_46\n  tag_35\n  jump\t// in\ntag_46:\n    /* \"#utility.yul\":444:446   */\n  0x40\n    /* \"#utility.yul\":438:447   */\n  mload\n    /* \"#utility.yul\":412:414   */\n  0x1f\n    /* \"#utility.yul\":498:511   */\n  dup4\n  add\n  not(0x1f)\n    /* \"#utility.yul\":494:516   */\n  swap1\n  dup2\n  and\n    /* \"#utility.yul\":518:520   */\n  0x3f\n    /* \"#utility.yul\":490:521   */\n  add\n    /* \"#utility.yul\":486:526   */\n  and\n    /* \"#utility.yul\":474:527   */\n  dup2\n  add\n  swap1\n    /* \"#utility.yul\":542:560   */\n  dup3\n  dup3\n  gt\n    /* \"#utility.yul\":562:584   */\n  dup2\n  dup4\n  lt\n    /* \"#utility.yul\":539:585   */\n  or\n    /* \"#utility.yul\":536:608   */\n  iszero\n  tag_48\n  jumpi\n    /* \"#utility.yul\":588:606   */\n  tag_48\n  tag_35\n  jump\t// in\ntag_48:\n    /* \"#utility.yul\":628:638   */\n  dup2\n    /* \"#utility.yul\":624:626   */\n  0x40\n    /* \"#utility.yul\":617:639   */\n  mstore\n    /* \"#utility.yul\":663:665   */\n  dup4\n    /* \"#utility.yul\":655:661   */\n  dup2\n    /* \"#utility.yul\":648:666   */\n  mstore\n    /* \"#utility.yul\":685:689   */\n  0x20\n    /* \"#utility.yul\":675:689   */\n  swap3\n  pop\n    /* \"#utility.yul\":730:733   */\n  dup7\n    /* \"#utility.yul\":725:727   */\n  dup4\n    /* \"#utility.yul\":720:722   */\n  dup6\n    /* \"#utility.yul\":712:718   */\n  dup9\n    /* \"#utility.yul\":708:723   */\n  add\n    /* \"#utility.yul\":704:728   */\n  add\n    /* \"#utility.yul\":701:734   */\n  gt\n    /* \"#utility.yul\":698:751   */\n  iszero\n  tag_49\n  jumpi\n    /* \"#utility.yul\":747:748   */\n  0x00\n    /* \"#utility.yul\":744:745   */\n  dup1\n    /* \"#utility.yul\":737:749   */\n  revert\n    /* \"#utility.yul\":698:751   */\ntag_49:\n    /* \"#utility.yul\":769:770   */\n  0x00\n    /* \"#utility.yul\":760:770   */\n  swap2\n  pop\n    /* \"#utility.yul\":779:912   */\ntag_50:\n    /* \"#utility.yul\":793:795   */\n  dup4\n    /* \"#utility.yul\":790:791   */\n  dup3\n    /* \"#utility.yul\":787:796   */\n  lt\n    /* \"#utility.yul\":779:912   */\n  iszero\n  tag_52\n  jumpi\n    /* \"#utility.yul\":881:895   */\n  dup6\n  dup3\n  add\n    /* \"#utility.yul\":877:900   */\n  dup4\n  add\n    /* \"#utility.yul\":871:901   */\n  mload\n    /* \"#utility.yul\":850:864   */\n  dup2\n  dup4\n  add\n    /* \"#utility.yul\":846:869   */\n  dup5\n  add\n    /* \"#utility.yul\":839:902   */\n  mstore\n    /* \"#utility.yul\":804:814   */\n  swap1\n  dup3\n  add\n  swap1\n    /* \"#utility.yul\":779:912   */\n  jump(tag_50)\ntag_52:\n    /* \"#utility.yul\":954:955   */\n  0x00\n    /* \"#utility.yul\":932:947   */\n  swap4\n  dup2\n  add\n    /* \"#utility.yul\":928:952   */\n  swap1\n  swap3\n  add\n    /* \"#utility.yul\":921:956   */\n  swap3\n  swap1\n  swap3\n  mstore\n    /* \"#utility.yul\":936:942   */\n  swap5\n    /* \"#utility.yul\":146:986   */\n  swap4\n  pop\n  pop\n  pop\n  pop\n  jump\t// out\n    /* \"#utility.yul\":991:1614   */\ntag_3:\n    /* \"#utility.yul\":1099:1105   */\n  0x00\n    /* \"#utility.yul\":1107:1113   */\n  dup1\n    /* \"#utility.yul\":1115:1121   */\n  0x00\n    /* \"#utility.yul\":1168:1170   */\n  0x60\n    /* \"#utility.yul\":1156:1165   */\n  dup5\n    /* \"#utility.yul\":1147:1154   */\n  dup7\n    /* \"#utility.yul\":1143:1166   */\n  sub\n    /* \"#utility.yul\":1139:1171   */\n  slt\n    /* \"#utility.yul\":1136:1188   */\n  iszero\n  tag_54\n  jumpi\n    /* \"#utility.yul\":1184:1185   */\n  0x00\n    /* \"#utility.yul\":1181:1182   */\n  dup1\n    /* \"#utility.yul\":1174:1186   */\n  revert\n    /* \"#utility.yul\":1136:1188   */\ntag_54:\n    /* \"#utility.yul\":1211:1227   */\n  dup4\n  mload\n  sub(shl(0x40, 0x01), 0x01)\n    /* \"#utility.yul\":1276:1290   */\n  dup1\n  dup3\n  gt\n    /* \"#utility.yul\":1273:1307   */\n  iszero\n  tag_55\n  jumpi\n    /* \"#utility.yul\":1303:1304   */\n  0x00\n    /* \"#utility.yul\":1300:1301   */\n  dup1\n    /* \"#utility.yul\":1293:1305   */\n  revert\n    /* \"#utility.yul\":1273:1307   */\ntag_55:\n    /* \"#utility.yul\":1326:1387   */\n  tag_56\n    /* \"#utility.yul\":1379:1386   */\n  dup8\n    /* \"#utility.yul\":1370:1376   */\n  dup4\n    /* \"#utility.yul\":1359:1368   */\n  dup9\n    /* \"#utility.yul\":1355:1377   */\n  add\n    /* \"#utility.yul\":1326:1387   */\n  tag_36\n  jump\t// in\ntag_56:\n    /* \"#utility.yul\":1316:1387   */\n  swap5\n  pop\n    /* \"#utility.yul\":1433:1435   */\n  0x20\n    /* \"#utility.yul\":1422:1431   */\n  dup7\n    /* \"#utility.yul\":1418:1436   */\n  add\n    /* \"#utility.yul\":1412:1437   */\n  mload\n    /* \"#utility.yul\":1396:1437   */\n  swap2\n  pop\n    /* \"#utility.yul\":1462:1464   */\n  dup1\n    /* \"#utility.yul\":1452:1460   */\n  dup3\n    /* \"#utility.yul\":1449:1465   */\n  gt\n    /* \"#utility.yul\":1446:1482   */\n  iszero\n  tag_57\n  jumpi\n    /* \"#utility.yul\":1478:1479   */\n  0x00\n    /* \"#utility.yul\":1475:1476   */\n  dup1\n    /* \"#utility.yul\":1468:1480   */\n  revert\n    /* \"#utility.yul\":1446:1482   */\ntag_57:\n  pop\n    /* \"#utility.yul\":1501:1564   */\n  tag_58\n    /* \"#utility.yul\":1556:1563   */\n  dup7\n    /* \"#utility.yul\":1545:1553   */\n  dup3\n    /* \"#utility.yul\":1534:1543   */\n  dup8\n    /* \"#utility.yul\":1530:1554   */\n  add\n    /* \"#utility.yul\":1501:1564   */\n  tag_36\n  jump\t// in\ntag_58:\n    /* \"#utility.yul\":1491:1564   */\n  swap3\n  pop\n  pop\n    /* \"#utility.yul\":1604:1606   */\n  0x40\n    /* \"#utility.yul\":1593:1602   */\n  dup5\n    /* \"#utility.yul\":1589:1607   */\n  add\n    /* \"#utility.yul\":1583:1608   */\n  mload\n    /* \"#utility.yul\":1573:1608   */\n  swap1\n  pop\n    /* \"#utility.yul\":991:1614   */\n  swap3\n  pop\n  swap3\n  pop\n  swap3\n  jump\t// out\n    /* \"#utility.yul\":1619:1999   */\ntag_37:\n    /* \"#utility.yul\":1698:1699   */\n  0x01\n    /* \"#utility.yul\":1694:1706   */\n  dup2\n  dup2\n  shr\n  swap1\n    /* \"#utility.yul\":1741:1753   */\n  dup3\n  and\n  dup1\n    /* \"#utility.yul\":1762:1823   */\n  tag_60\n  jumpi\n    /* \"#utility.yul\":1816:1820   */\n  0x7f\n    /* \"#utility.yul\":1808:1814   */\n  dup3\n    /* \"#utility.yul\":1804:1821   */\n  and\n    /* \"#utility.yul\":1794:1821   */\n  swap2\n  pop\n    /* \"#utility.yul\":1762:1823   */\ntag_60:\n    /* \"#utility.yul\":1869:1871   */\n  0x20\n    /* \"#utility.yul\":1861:1867   */\n  dup3\n    /* \"#utility.yul\":1858:1872   */\n  lt\n    /* \"#utility.yul\":1838:1856   */\n  dup2\n    /* \"#utility.yul\":1835:1873   */\n  sub\n    /* \"#utility.yul\":1832:1993   */\n  tag_61\n  jumpi\n    /* \"#utility.yul\":1915:1925   */\n  0x4e487b71\n    /* \"#utility.yul\":1910:1913   */\n  0xe0\n    /* \"#utility.yul\":1906:1926   */\n  shl\n    /* \"#utility.yul\":1903:1904   */\n  0x00\n    /* \"#utility.yul\":1896:1927   */\n  mstore\n    /* \"#utility.yul\":1950:1954   */\n  0x22\n    /* \"#utility.yul\":1947:1948   */\n  0x04\n    /* \"#utility.yul\":1940:1955   */\n  mstore\n    /* \"#utility.yul\":1978:1982   */\n  0x24\n    /* \"#utility.yul\":1975:1976   */\n  0x00\n    /* \"#utility.yul\":1968:1983   */\n  revert\n    /* \"#utility.yul\":1832:1993   */\ntag_61:\n  pop\n    /* \"#utility.yul\":1619:1999   */\n  swap2\n  swap1\n  pop\n  jump\t// out\n    /* \"#utility.yul\":2130:2675   */\ntag_39:\n    /* \"#utility.yul\":2232:2234   */\n  0x1f\n    /* \"#utility.yul\":2227:2230   */\n  dup3\n    /* \"#utility.yul\":2224:2235   */\n  gt\n    /* \"#utility.yul\":2221:2669   */\n  iszero\n  tag_25\n  jumpi\n    /* \"#utility.yul\":2268:2269   */\n  0x00\n    /* \"#utility.yul\":2293:2298   */\n  dup2\n    /* \"#utility.yul\":2289:2291   */\n  dup2\n    /* \"#utility.yul\":2282:2299   */\n  mstore\n    /* \"#utility.yul\":2338:2342   */\n  0x20\n    /* \"#utility.yul\":2334:2336   */\n  dup2\n    /* \"#utility.yul\":2324:2343   */\n  keccak256\n    /* \"#utility.yul\":2408:2410   */\n  0x1f\n    /* \"#utility.yul\":2396:2406   */\n  dup6\n    /* \"#utility.yul\":2392:2411   */\n  add\n    /* \"#utility.yul\":2389:2390   */\n  0x05\n    /* \"#utility.yul\":2385:2412   */\n  shr\n    /* \"#utility.yul\":2379:2383   */\n  dup2\n    /* \"#utility.yul\":2375:2413   */\n  add\n    /* \"#utility.yul\":2444:2448   */\n  0x20\n    /* \"#utility.yul\":2432:2442   */\n  dup7\n    /* \"#utility.yul\":2429:2449   */\n  lt\n    /* \"#utility.yul\":2426:2473   */\n  iszero\n  tag_65\n  jumpi\n  pop\n    /* \"#utility.yul\":2467:2471   */\n  dup1\n    /* \"#utility.yul\":2426:2473   */\ntag_65:\n    /* \"#utility.yul\":2522:2524   */\n  0x1f\n    /* \"#utility.yul\":2517:2520   */\n  dup6\n    /* \"#utility.yul\":2513:2525   */\n  add\n    /* \"#utility.yul\":2510:2511   */\n  0x05\n    /* \"#utility.yul\":2506:2526   */\n  shr\n    /* \"#utility.yul\":2500:2504   */\n  dup3\n    /* \"#utility.yul\":2496:2527   */\n  add\n    /* \"#utility.yul\":2486:2527   */\n  swap2\n  pop\n    /* \"#utility.yul\":2577:2659   */\ntag_66:\n    /* \"#utility.yul\":2595:2597   */\n  dup2\n    /* \"#utility.yul\":2588:2593   */\n  dup2\n    /* \"#utility.yul\":2585:2598   */\n  lt\n    /* \"#utility.yul\":2577:2659   */\n  iszero\n  tag_68\n  jumpi\n    /* \"#utility.yul\":2640:2657   */\n  dup3\n  dup2\n  sstore\n    /* \"#utility.yul\":2621:2622   */\n  0x01\n    /* \"#utility.yul\":2610:2623   */\n  add\n    /* \"#utility.yul\":2577:2659   */\n  jump(tag_66)\ntag_68:\n    /* \"#utility.yul\":2581:2584   */\n  pop\n  pop\n  pop\n    /* \"#utility.yul\":2130:2675   */\n  pop\n  pop\n  pop\n  jump\t// out\n    /* \"#utility.yul\":2851:4203   */\ntag_13:\n    /* \"#utility.yul\":2971:2981   */\n  dup2\n  mload\n  sub(shl(0x40, 0x01), 0x01)\n    /* \"#utility.yul\":2993:3023   */\n  dup2\n  gt\n    /* \"#utility.yul\":2990:3046   */\n  iszero\n  tag_72\n  jumpi\n    /* \"#utility.yul\":3026:3044   */\n  tag_72\n  tag_35\n  jump\t// in\ntag_72:\n    /* \"#utility.yul\":3055:3152   */\n  tag_73\n    /* \"#utility.yul\":3145:3151   */\n  dup2\n    /* \"#utility.yul\":3105:3143   */\n  tag_74\n    /* \"#utility.yul\":3137:3141   */\n  dup5\n    /* \"#utility.yul\":3131:3142   */\n  sload\n    /* \"#utility.yul\":3105:3143   */\n  tag_37\n  jump\t// in\ntag_74:\n    /* \"#utility.yul\":3099:3103   */\n  dup5\n    /* \"#utility.yul\":3055:3152   */\n  tag_39\n  jump\t// in\ntag_73:\n    /* \"#utility.yul\":3207:3211   */\n  0x20\n  dup1\n    /* \"#utility.yul\":3271:3273   */\n  0x1f\n    /* \"#utility.yul\":3260:3274   */\n  dup4\n  gt\n    /* \"#utility.yul\":3288:3289   */\n  0x01\n    /* \"#utility.yul\":3283:3946   */\n  dup2\n  eq\n  tag_76\n  jumpi\n    /* \"#utility.yul\":3990:3991   */\n  0x00\n    /* \"#utility.yul\":4007:4013   */\n  dup5\n    /* \"#utility.yul\":4004:4093   */\n  iszero\n  tag_77\n  jumpi\n  pop\n    /* \"#utility.yul\":4059:4078   */\n  dup6\n  dup4\n  add\n    /* \"#utility.yul\":4053:4079   */\n  mload\n    /* \"#utility.yul\":4004:4093   */\ntag_77:\n  not(0x00)\n    /* \"#utility.yul\":2808:2809   */\n  0x03\n    /* \"#utility.yul\":2804:2815   */\n  dup7\n  swap1\n  shl\n    /* \"#utility.yul\":2800:2824   */\n  shr\n    /* \"#utility.yul\":2796:2825   */\n  not\n    /* \"#utility.yul\":2786:2826   */\n  and\n    /* \"#utility.yul\":2832:2833   */\n  0x01\n    /* \"#utility.yul\":2828:2839   */\n  dup6\n  swap1\n  shl\n    /* \"#utility.yul\":2783:2840   */\n  or\n    /* \"#utility.yul\":4106:4187   */\n  dup6\n  sstore\n    /* \"#utility.yul\":3253:4197   */\n  jump(tag_68)\n    /* \"#utility.yul\":3283:3946   */\ntag_76:\n    /* \"#utility.yul\":2077:2078   */\n  0x00\n    /* \"#utility.yul\":2070:2084   */\n  dup6\n  dup2\n  mstore\n    /* \"#utility.yul\":2114:2118   */\n  0x20\n    /* \"#utility.yul\":2101:2119   */\n  dup2\n  keccak256\n  not(0x1f)\n    /* \"#utility.yul\":3319:3339   */\n  dup7\n  and\n  swap2\n    /* \"#utility.yul\":3437:3673   */\ntag_80:\n    /* \"#utility.yul\":3451:3458   */\n  dup3\n    /* \"#utility.yul\":3448:3449   */\n  dup2\n    /* \"#utility.yul\":3445:3459   */\n  lt\n    /* \"#utility.yul\":3437:3673   */\n  iszero\n  tag_82\n  jumpi\n    /* \"#utility.yul\":3540:3559   */\n  dup9\n  dup7\n  add\n    /* \"#utility.yul\":3534:3560   */\n  mload\n    /* \"#utility.yul\":3519:3561   */\n  dup3\n  sstore\n    /* \"#utility.yul\":3632:3659   */\n  swap5\n  dup5\n  add\n  swap5\n    /* \"#utility.yul\":3600:3601   */\n  0x01\n    /* \"#utility.yul\":3588:3602   */\n  swap1\n  swap2\n  add\n  swap1\n    /* \"#utility.yul\":3467:3486   */\n  dup5\n  add\n    /* \"#utility.yul\":3437:3673   */\n  jump(tag_80)\ntag_82:\n    /* \"#utility.yul\":3441:3444   */\n  pop\n    /* \"#utility.yul\":3701:3707   */\n  dup6\n    /* \"#utility.yul\":3692:3699   */\n  dup3\n    /* \"#utility.yul\":3689:3708   */\n  lt\n    /* \"#utility.yul\":3686:3887   */\n  iszero\n  tag_83\n  jumpi\n    /* \"#utility.yul\":3762:3781   */\n  dup8\n  dup6\n  add\n    /* \"#utility.yul\":3756:3782   */\n  mload\n  not(0x00)\n    /* \"#utility.yul\":3845:3846   */\n  0x03\n    /* \"#utility.yul\":3841:3855   */\n  dup9\n  swap1\n  shl\n    /* \"#utility.yul\":3857:3860   */\n  0xf8\n    /* \"#utility.yul\":3837:3861   */\n  and\n    /* \"#utility.yul\":3833:3870   */\n  shr\n    /* \"#utility.yul\":3829:3871   */\n  not\n    /* \"#utility.yul\":3814:3872   */\n  and\n    /* \"#utility.yul\":3799:3873   */\n  dup2\n  sstore\n    /* \"#utility.yul\":3686:3887   */\ntag_83:\n  pop\n  pop\n  pop\n  pop\n  pop\n    /* \"#utility.yul\":3933:3934   */\n  0x01\n    /* \"#utility.yul\":3917:3931   */\n  swap1\n  dup2\n  shl\n    /* \"#utility.yul\":3913:3935   */\n  add\n    /* \"#utility.yul\":3900:3936   */\n  swap1\n  sstore\n  pop\n    /* \"#utility.yul\":2851:4203   */\n  jump\t// out\n    /* \"#utility.yul\":4568:4790   */\ntag_27:\n    /* \"#utility.yul\":4633:4642   */\n  dup1\n  dup3\n  add\n    /* \"#utility.yul\":4654:4664   */\n  dup1\n  dup3\n  gt\n    /* \"#utility.yul\":4651:4784   */\n  iszero\n  tag_86\n  jumpi\n    /* \"#utility.yul\":4706:4716   */\n  0x4e487b71\n    /* \"#utility.yul\":4701:4704   */\n  0xe0\n    /* \"#utility.yul\":4697:4717   */\n  shl\n    /* \"#utility.yul\":4694:4695   */\n  0x00\n    /* \"#utility.yul\":4687:4718   */\n  mstore\n    /* \"#utility.yul\":4741:4745   */\n  0x11\n    /* \"#utility.yul\":4738:4739   */\n  0x04\n    /* \"#utility.yul\":4731:4746   */\n  mstore\n    /* \"#utility.yul\":4769:4773   */\n  0x24\n    /* \"#utility.yul\":4766:4767   */\n  0x00\n    /* \"#utility.yul\":4759:4774   */\n  revert\n    /* \"#utility.yul\":4651:4784   */\ntag_86:\n    /* \"#utility.yul\":4568:4790   */\n  swap3\n  swap2\n  pop\n  pop\n  jump\t// out\n    /* \"#utility.yul\":4795:4972   */\ntag_41:\n    /* \"spoilsToken.sol\":1471:12861  contract SpoilsToken is Context, IERC20, IERC20Metadata,Ownable {... */\n  dataSize(sub_0)\n  dup1\n  dataOffset(sub_0)\n  0x00\n  codecopy\n  0x00\n  return\nstop\n\nsub_0: assembly {\n        /* \"spoilsToken.sol\":1471:12861  contract SpoilsToken is Context, IERC20, IERC20Metadata,Ownable {... */\n      mstore(0x40, 0x80)\n      callvalue\n      dup1\n      iszero\n      tag_1\n      jumpi\n      0x00\n      dup1\n      revert\n    tag_1:\n      pop\n      jumpi(tag_2, lt(calldatasize, 0x04))\n      shr(0xe0, calldataload(0x00))\n      dup1\n      0x715018a6\n      gt\n      tag_20\n      jumpi\n      dup1\n      0xa457c2d7\n      gt\n      tag_21\n      jumpi\n      dup1\n      0xa457c2d7\n      eq\n      tag_15\n      jumpi\n      dup1\n      0xa9059cbb\n      eq\n      tag_16\n      jumpi\n      dup1\n      0xb6b285d9\n      eq\n      tag_17\n      jumpi\n      dup1\n      0xdd62ed3e\n      eq\n      tag_18\n      jumpi\n      dup1\n      0xf2fde38b\n      eq\n      tag_19\n      jumpi\n      0x00\n      dup1\n      revert\n    tag_21:\n      dup1\n      0x715018a6\n      eq\n      tag_11\n      jumpi\n      dup1\n      0x8da5cb5b\n      eq\n      tag_12\n      jumpi\n      dup1\n      0x95d89b41\n      eq\n      tag_13\n      jumpi\n      dup1\n      0x9dc29fac\n      eq\n      tag_14\n      jumpi\n      0x00\n      dup1\n      revert\n    tag_20:\n      dup1\n      0x313ce567\n      gt\n      tag_22\n      jumpi\n      dup1\n      0x313ce567\n      eq\n      tag_7\n      jumpi\n      dup1\n      0x39509351\n      eq\n      tag_8\n      jumpi\n      dup1\n      0x40c10f19\n      eq\n      tag_9\n      jumpi\n      dup1\n      0x70a08231\n      eq\n      tag_10\n      jumpi\n      0x00\n      dup1\n      revert\n    tag_22:\n      dup1\n      0x06fdde03\n      eq\n      tag_3\n      jumpi\n      dup1\n      0x095ea7b3\n      eq\n      tag_4\n      jumpi\n      dup1\n      0x18160ddd\n      eq\n      tag_5\n      jumpi\n      dup1\n      0x23b872dd\n      eq\n      tag_6\n      jumpi\n    tag_2:\n      0x00\n      dup1\n      revert\n        /* \"spoilsToken.sol\":2374:2474  function name() public view virtual override returns (string memory) {... */\n    tag_3:\n      tag_23\n      tag_24\n      jump\t// in\n    tag_23:\n      mload(0x40)\n      tag_25\n      swap2\n      swap1\n      tag_26\n      jump\t// in\n    tag_25:\n      mload(0x40)\n      dup1\n      swap2\n      sub\n      swap1\n      return\n        /* \"spoilsToken.sol\":4881:5050  function approve(address spender, uint256 amount) public virtual override returns (bool) {... */\n    tag_4:\n      tag_27\n      tag_28\n      calldatasize\n      0x04\n      tag_29\n      jump\t// in\n    tag_28:\n      tag_30\n      jump\t// in\n    tag_27:\n      mload(0x40)\n        /* \"#utility.yul\":1169:1183   */\n      swap1\n      iszero\n        /* \"#utility.yul\":1162:1184   */\n      iszero\n        /* \"#utility.yul\":1144:1185   */\n      dup2\n      mstore\n        /* \"#utility.yul\":1132:1134   */\n      0x20\n        /* \"#utility.yul\":1117:1135   */\n      add\n        /* \"spoilsToken.sol\":4881:5050  function approve(address spender, uint256 amount) public virtual override returns (bool) {... */\n      tag_25\n        /* \"#utility.yul\":1004:1191   */\n      jump\n        /* \"spoilsToken.sol\":3494:3602  function totalSupply() public view virtual override returns (uint256) {... */\n    tag_5:\n        /* \"spoilsToken.sol\":3582:3594  _totalSupply */\n      sload(0x03)\n        /* \"spoilsToken.sol\":3494:3602  function totalSupply() public view virtual override returns (uint256) {... */\n    tag_33:\n      mload(0x40)\n        /* \"#utility.yul\":1342:1367   */\n      swap1\n      dup2\n      mstore\n        /* \"#utility.yul\":1330:1332   */\n      0x20\n        /* \"#utility.yul\":1315:1333   */\n      add\n        /* \"spoilsToken.sol\":3494:3602  function totalSupply() public view virtual override returns (uint256) {... */\n      tag_25\n        /* \"#utility.yul\":1196:1373   */\n      jump\n        /* \"spoilsToken.sol\":5532:6024  function transferFrom(... */\n    tag_6:\n      tag_27\n      tag_38\n      calldatasize\n      0x04\n      tag_39\n      jump\t// in\n    tag_38:\n      tag_40\n      jump\t// in\n        /* \"spoilsToken.sol\":3336:3429  function decimals() public view virtual override returns (uint8) {... */\n    tag_7:\n      mload(0x40)\n        /* \"spoilsToken.sol\":3419:3421  18 */\n      0x12\n        /* \"#utility.yul\":1853:1889   */\n      dup2\n      mstore\n        /* \"#utility.yul\":1841:1843   */\n      0x20\n        /* \"#utility.yul\":1826:1844   */\n      add\n        /* \"spoilsToken.sol\":3336:3429  function decimals() public view virtual override returns (uint8) {... */\n      tag_25\n        /* \"#utility.yul\":1711:1895   */\n      jump\n        /* \"spoilsToken.sol\":6433:6648  function increaseAllowance(address spender, uint256 addedValue) public virtual returns (bool) {... */\n    tag_8:\n      tag_27\n      tag_47\n      calldatasize\n      0x04\n      tag_29\n      jump\t// in\n    tag_47:\n      tag_48\n      jump\t// in\n        /* \"spoilsToken.sol\":4338:4520  function mint(address add, uint amount)external{... */\n    tag_9:\n      tag_50\n      tag_51\n      calldatasize\n      0x04\n      tag_29\n      jump\t// in\n    tag_51:\n      tag_52\n      jump\t// in\n    tag_50:\n      stop\n        /* \"spoilsToken.sol\":3665:3792  function balanceOf(address account) public view virtual override returns (uint256) {... */\n    tag_10:\n      tag_33\n      tag_54\n      calldatasize\n      0x04\n      tag_55\n      jump\t// in\n    tag_54:\n      sub(shl(0xa0, 0x01), 0x01)\n        /* \"spoilsToken.sol\":3766:3784  _balances[account] */\n      and\n        /* \"spoilsToken.sol\":3739:3746  uint256 */\n      0x00\n        /* \"spoilsToken.sol\":3766:3784  _balances[account] */\n      swap1\n      dup2\n      mstore\n        /* \"spoilsToken.sol\":3766:3775  _balances */\n      0x01\n        /* \"spoilsToken.sol\":3766:3784  _balances[account] */\n      0x20\n      mstore\n      0x40\n      swap1\n      keccak256\n      sload\n      swap1\n        /* \"spoilsToken.sol\":3665:3792  function balanceOf(address account) public view virtual override returns (uint256) {... */\n      jump\n        /* \"@openzeppelin/contracts/access/Ownable.sol\":1824:1925  function renounceOwnership() public virtual onlyOwner {... */\n    tag_11:\n      tag_50\n      tag_59\n      jump\t// in\n        /* \"@openzeppelin/contracts/access/Ownable.sol\":1201:1286  function owner() public view virtual returns (address) {... */\n    tag_12:\n        /* \"@openzeppelin/contracts/access/Ownable.sol\":1247:1254  address */\n      0x00\n        /* \"@openzeppelin/contracts/access/Ownable.sol\":1273:1279  _owner */\n      sload\n        /* \"@openzeppelin/contracts/access/Ownable.sol\":1201:1286  function owner() public view virtual returns (address) {... */\n      mload(0x40)\n      sub(shl(0xa0, 0x01), 0x01)\n        /* \"@openzeppelin/contracts/access/Ownable.sol\":1273:1279  _owner */\n      swap1\n      swap2\n      and\n        /* \"#utility.yul\":2237:2288   */\n      dup2\n      mstore\n        /* \"#utility.yul\":2225:2227   */\n      0x20\n        /* \"#utility.yul\":2210:2228   */\n      add\n        /* \"@openzeppelin/contracts/access/Ownable.sol\":1201:1286  function owner() public view virtual returns (address) {... */\n      tag_25\n        /* \"#utility.yul\":2091:2294   */\n      jump\n        /* \"spoilsToken.sol\":2593:2697  function symbol() public view virtual override returns (string memory) {... */\n    tag_13:\n      tag_23\n      tag_65\n      jump\t// in\n        /* \"spoilsToken.sol\":10405:10587  function burn(address add,uint256 amount)public{... */\n    tag_14:\n      tag_50\n      tag_68\n      calldatasize\n      0x04\n      tag_29\n      jump\t// in\n    tag_68:\n      tag_69\n      jump\t// in\n        /* \"spoilsToken.sol\":7151:7564  function decreaseAllowance(address spender, uint256 subtractedValue) public virtual returns (bool) {... */\n    tag_15:\n      tag_27\n      tag_71\n      calldatasize\n      0x04\n      tag_29\n      jump\t// in\n    tag_71:\n      tag_72\n      jump\t// in\n        /* \"spoilsToken.sol\":4005:4180  function transfer(address recipient, uint256 amount) public virtual override returns (bool) {... */\n    tag_16:\n      tag_27\n      tag_75\n      calldatasize\n      0x04\n      tag_29\n      jump\t// in\n    tag_75:\n      tag_76\n      jump\t// in\n        /* \"spoilsToken.sol\":4188:4330  function setapprovedcontractaddress(address add)external onlyOwner {... */\n    tag_17:\n      tag_50\n      tag_79\n      calldatasize\n      0x04\n      tag_55\n      jump\t// in\n    tag_79:\n      tag_80\n      jump\t// in\n        /* \"spoilsToken.sol\":4583:4734  function allowance(address owner, address spender) public view virtual override returns (uint256) {... */\n    tag_18:\n      tag_33\n      tag_82\n      calldatasize\n      0x04\n      tag_83\n      jump\t// in\n    tag_82:\n      sub(shl(0xa0, 0x01), 0x01)\n        /* \"spoilsToken.sol\":4699:4717  _allowances[owner] */\n      swap2\n      dup3\n      and\n        /* \"spoilsToken.sol\":4672:4679  uint256 */\n      0x00\n        /* \"spoilsToken.sol\":4699:4717  _allowances[owner] */\n      swap1\n      dup2\n      mstore\n        /* \"spoilsToken.sol\":4699:4710  _allowances */\n      0x02\n        /* \"spoilsToken.sol\":4699:4717  _allowances[owner] */\n      0x20\n      swap1\n      dup2\n      mstore\n      0x40\n      dup1\n      dup4\n      keccak256\n        /* \"spoilsToken.sol\":4699:4726  _allowances[owner][spender] */\n      swap4\n      swap1\n      swap5\n      and\n      dup3\n      mstore\n      swap2\n      swap1\n      swap2\n      mstore\n      keccak256\n      sload\n      swap1\n        /* \"spoilsToken.sol\":4583:4734  function allowance(address owner, address spender) public view virtual override returns (uint256) {... */\n      jump\n        /* \"@openzeppelin/contracts/access/Ownable.sol\":2074:2272  function transferOwnership(address newOwner) public virtual onlyOwner {... */\n    tag_19:\n      tag_50\n      tag_87\n      calldatasize\n      0x04\n      tag_55\n      jump\t// in\n    tag_87:\n      tag_88\n      jump\t// in\n        /* \"spoilsToken.sol\":2374:2474  function name() public view virtual override returns (string memory) {... */\n    tag_24:\n        /* \"spoilsToken.sol\":2428:2441  string memory */\n      0x60\n        /* \"spoilsToken.sol\":2461:2466  _name */\n      0x04\n        /* \"spoilsToken.sol\":2454:2466  return _name */\n      dup1\n      sload\n      tag_90\n      swap1\n      tag_91\n      jump\t// in\n    tag_90:\n      dup1\n      0x1f\n      add\n      0x20\n      dup1\n      swap2\n      div\n      mul\n      0x20\n      add\n      mload(0x40)\n      swap1\n      dup2\n      add\n      0x40\n      mstore\n      dup1\n      swap3\n      swap2\n      swap1\n      dup2\n      dup2\n      mstore\n      0x20\n      add\n      dup3\n      dup1\n      sload\n      tag_92\n      swap1\n      tag_91\n      jump\t// in\n    tag_92:\n      dup1\n      iszero\n      tag_93\n      jumpi\n      dup1\n      0x1f\n      lt\n      tag_94\n      jumpi\n      0x0100\n      dup1\n      dup4\n      sload\n      div\n      mul\n      dup4\n      mstore\n      swap2\n      0x20\n      add\n      swap2\n      jump(tag_93)\n    tag_94:\n      dup3\n      add\n      swap2\n      swap1\n      0x00\n      mstore\n      keccak256(0x00, 0x20)\n      swap1\n    tag_95:\n      dup2\n      sload\n      dup2\n      mstore\n      swap1\n      0x01\n      add\n      swap1\n      0x20\n      add\n      dup1\n      dup4\n      gt\n      tag_95\n      jumpi\n      dup3\n      swap1\n      sub\n      0x1f\n      and\n      dup3\n      add\n      swap2\n    tag_93:\n      pop\n      pop\n      pop\n      pop\n      pop\n      swap1\n      pop\n        /* \"spoilsToken.sol\":2374:2474  function name() public view virtual override returns (string memory) {... */\n      swap1\n      jump\t// out\n        /* \"spoilsToken.sol\":4881:5050  function approve(address spender, uint256 amount) public virtual override returns (bool) {... */\n    tag_30:\n        /* \"spoilsToken.sol\":4964:4968  bool */\n      0x00\n        /* \"spoilsToken.sol\":4981:5020  _approve(_msgSender(), spender, amount) */\n      tag_97\n        /* \"@openzeppelin/contracts/utils/Context.sol\":719:729  msg.sender */\n      caller\n        /* \"spoilsToken.sol\":5004:5011  spender */\n      dup5\n        /* \"spoilsToken.sol\":5013:5019  amount */\n      dup5\n        /* \"spoilsToken.sol\":4981:4989  _approve */\n      tag_100\n        /* \"spoilsToken.sol\":4981:5020  _approve(_msgSender(), spender, amount) */\n      jump\t// in\n    tag_97:\n      pop\n        /* \"spoilsToken.sol\":5038:5042  true */\n      0x01\n        /* \"spoilsToken.sol\":4881:5050  function approve(address spender, uint256 amount) public virtual override returns (bool) {... */\n    tag_96:\n      swap3\n      swap2\n      pop\n      pop\n      jump\t// out\n        /* \"spoilsToken.sol\":5532:6024  function transferFrom(... */\n    tag_40:\n        /* \"spoilsToken.sol\":5672:5676  bool */\n      0x00\n        /* \"spoilsToken.sol\":5689:5725  _transfer(sender, recipient, amount) */\n      tag_103\n        /* \"spoilsToken.sol\":5699:5705  sender */\n      dup5\n        /* \"spoilsToken.sol\":5707:5716  recipient */\n      dup5\n        /* \"spoilsToken.sol\":5718:5724  amount */\n      dup5\n        /* \"spoilsToken.sol\":5689:5698  _transfer */\n      tag_104\n        /* \"spoilsToken.sol\":5689:5725  _transfer(sender, recipient, amount) */\n      jump\t// in\n    tag_103:\n      sub(shl(0xa0, 0x01), 0x01)\n        /* \"spoilsToken.sol\":5765:5784  _allowances[sender] */\n      dup5\n      and\n        /* \"spoilsToken.sol\":5738:5762  uint256 currentAllowance */\n      0x00\n        /* \"spoilsToken.sol\":5765:5784  _allowances[sender] */\n      swap1\n      dup2\n      mstore\n        /* \"spoilsToken.sol\":5765:5776  _allowances */\n      0x02\n        /* \"spoilsToken.sol\":5765:5784  _allowances[sender] */\n      0x20\n      swap1\n      dup2\n      mstore\n      0x40\n      dup1\n      dup4\n      keccak256\n        /* \"@openzeppelin/contracts/utils/Context.sol\":719:729  msg.sender */\n      caller\n        /* \"spoilsToken.sol\":5765:5798  _allowances[sender][_msgSender()] */\n      dup5\n      mstore\n      swap1\n      swap2\n      mstore\n      swap1\n      keccak256\n      sload\n        /* \"spoilsToken.sol\":5817:5843  currentAllowance >= amount */\n      dup3\n      dup2\n      lt\n      iszero\n        /* \"spoilsToken.sol\":5809:5888  require(currentAllowance >= amount, \"ERC20: transfer amount exceeds allowance\") */\n      tag_106\n      jumpi\n      mload(0x40)\n      shl(0xe5, 0x461bcd)\n      dup2\n      mstore\n        /* \"#utility.yul\":3151:3153   */\n      0x20\n        /* \"spoilsToken.sol\":5809:5888  require(currentAllowance >= amount, \"ERC20: transfer amount exceeds allowance\") */\n      0x04\n      dup3\n      add\n        /* \"#utility.yul\":3133:3154   */\n      mstore\n        /* \"#utility.yul\":3190:3192   */\n      0x28\n        /* \"#utility.yul\":3170:3188   */\n      0x24\n      dup3\n      add\n        /* \"#utility.yul\":3163:3193   */\n      mstore\n        /* \"#utility.yul\":3229:3263   */\n      0x45524332303a207472616e7366657220616d6f756e7420657863656564732061\n        /* \"#utility.yul\":3209:3227   */\n      0x44\n      dup3\n      add\n        /* \"#utility.yul\":3202:3264   */\n      mstore\n      shl(0xc0, 0x6c6c6f77616e6365)\n        /* \"#utility.yul\":3280:3298   */\n      0x64\n      dup3\n      add\n        /* \"#utility.yul\":3273:3311   */\n      mstore\n        /* \"#utility.yul\":3328:3347   */\n      0x84\n      add\n        /* \"spoilsToken.sol\":5809:5888  require(currentAllowance >= amount, \"ERC20: transfer amount exceeds allowance\") */\n    tag_107:\n      mload(0x40)\n      dup1\n      swap2\n      sub\n      swap1\n      revert\n    tag_106:\n        /* \"spoilsToken.sol\":5924:5981  _approve(sender, _msgSender(), currentAllowance - amount) */\n      tag_109\n        /* \"spoilsToken.sol\":5933:5939  sender */\n      dup6\n        /* \"@openzeppelin/contracts/utils/Context.sol\":719:729  msg.sender */\n      caller\n        /* \"spoilsToken.sol\":5974:5980  amount */\n      dup6\n        /* \"spoilsToken.sol\":5955:5971  currentAllowance */\n      dup5\n        /* \"spoilsToken.sol\":5955:5980  currentAllowance - amount */\n      sub\n        /* \"spoilsToken.sol\":5924:5932  _approve */\n      tag_100\n        /* \"spoilsToken.sol\":5924:5981  _approve(sender, _msgSender(), currentAllowance - amount) */\n      jump\t// in\n    tag_109:\n      pop\n        /* \"spoilsToken.sol\":6012:6016  true */\n      0x01\n      swap5\n        /* \"spoilsToken.sol\":5532:6024  function transferFrom(... */\n      swap4\n      pop\n      pop\n      pop\n      pop\n      jump\t// out\n        /* \"spoilsToken.sol\":6433:6648  function increaseAllowance(address spender, uint256 addedValue) public virtual returns (bool) {... */\n    tag_48:\n        /* \"@openzeppelin/contracts/utils/Context.sol\":719:729  msg.sender */\n      caller\n        /* \"spoilsToken.sol\":6521:6525  bool */\n      0x00\n        /* \"spoilsToken.sol\":6570:6595  _allowances[_msgSender()] */\n      dup2\n      dup2\n      mstore\n        /* \"spoilsToken.sol\":6570:6581  _allowances */\n      0x02\n        /* \"spoilsToken.sol\":6570:6595  _allowances[_msgSender()] */\n      0x20\n      swap1\n      dup2\n      mstore\n      0x40\n      dup1\n      dup4\n      keccak256\n      sub(shl(0xa0, 0x01), 0x01)\n        /* \"spoilsToken.sol\":6570:6604  _allowances[_msgSender()][spender] */\n      dup8\n      and\n      dup5\n      mstore\n      swap1\n      swap2\n      mstore\n      dup2\n      keccak256\n      sload\n        /* \"spoilsToken.sol\":6521:6525  bool */\n      swap1\n      swap2\n        /* \"spoilsToken.sol\":6538:6618  _approve(_msgSender(), spender, _allowances[_msgSender()][spender] + addedValue) */\n      tag_97\n      swap2\n        /* \"spoilsToken.sol\":6561:6568  spender */\n      dup6\n      swap1\n        /* \"spoilsToken.sol\":6570:6617  _allowances[_msgSender()][spender] + addedValue */\n      tag_116\n      swap1\n        /* \"spoilsToken.sol\":6607:6617  addedValue */\n      dup7\n      swap1\n        /* \"spoilsToken.sol\":6570:6617  _allowances[_msgSender()][spender] + addedValue */\n      tag_117\n      jump\t// in\n    tag_116:\n        /* \"spoilsToken.sol\":6538:6546  _approve */\n      tag_100\n        /* \"spoilsToken.sol\":6538:6618  _approve(_msgSender(), spender, _allowances[_msgSender()][spender] + addedValue) */\n      jump\t// in\n        /* \"spoilsToken.sol\":4338:4520  function mint(address add, uint amount)external{... */\n    tag_52:\n        /* \"spoilsToken.sol\":4432:4442  msg.sender */\n      caller\n        /* \"spoilsToken.sol\":4404:4443  onlyapprovedcontractaddress[msg.sender] */\n      0x00\n      swap1\n      dup2\n      mstore\n        /* \"spoilsToken.sol\":4404:4431  onlyapprovedcontractaddress */\n      0x06\n        /* \"spoilsToken.sol\":4404:4443  onlyapprovedcontractaddress[msg.sender] */\n      0x20\n      mstore\n      0x40\n      swap1\n      keccak256\n      sload\n      0xff\n      and\n        /* \"spoilsToken.sol\":4404:4450  onlyapprovedcontractaddress[msg.sender] ==true */\n      iszero\n      iszero\n        /* \"spoilsToken.sol\":4404:4443  onlyapprovedcontractaddress[msg.sender] */\n      0x01\n        /* \"spoilsToken.sol\":4404:4450  onlyapprovedcontractaddress[msg.sender] ==true */\n      eq\n        /* \"spoilsToken.sol\":4396:4484  require(onlyapprovedcontractaddress[msg.sender] ==true, \"you are not approved  to mint\") */\n      tag_119\n      jumpi\n      mload(0x40)\n      shl(0xe5, 0x461bcd)\n      dup2\n      mstore\n        /* \"#utility.yul\":3822:3824   */\n      0x20\n        /* \"spoilsToken.sol\":4396:4484  require(onlyapprovedcontractaddress[msg.sender] ==true, \"you are not approved  to mint\") */\n      0x04\n      dup3\n      add\n        /* \"#utility.yul\":3804:3825   */\n      mstore\n        /* \"#utility.yul\":3861:3863   */\n      0x1d\n        /* \"#utility.yul\":3841:3859   */\n      0x24\n      dup3\n      add\n        /* \"#utility.yul\":3834:3864   */\n      mstore\n        /* \"#utility.yul\":3900:3931   */\n      0x796f7520617265206e6f7420617070726f7665642020746f206d696e74000000\n        /* \"#utility.yul\":3880:3898   */\n      0x44\n      dup3\n      add\n        /* \"#utility.yul\":3873:3932   */\n      mstore\n        /* \"#utility.yul\":3949:3967   */\n      0x64\n      add\n        /* \"spoilsToken.sol\":4396:4484  require(onlyapprovedcontractaddress[msg.sender] ==true, \"you are not approved  to mint\") */\n      tag_107\n        /* \"#utility.yul\":3620:3973   */\n      jump\n        /* \"spoilsToken.sol\":4396:4484  require(onlyapprovedcontractaddress[msg.sender] ==true, \"you are not approved  to mint\") */\n    tag_119:\n        /* \"spoilsToken.sol\":4495:4512  _mint(add,amount) */\n      tag_122\n        /* \"spoilsToken.sol\":4501:4504  add */\n      dup3\n        /* \"spoilsToken.sol\":4505:4511  amount */\n      dup3\n        /* \"spoilsToken.sol\":4495:4500  _mint */\n      tag_123\n        /* \"spoilsToken.sol\":4495:4512  _mint(add,amount) */\n      jump\t// in\n    tag_122:\n        /* \"spoilsToken.sol\":4338:4520  function mint(address add, uint amount)external{... */\n      pop\n      pop\n      jump\t// out\n        /* \"@openzeppelin/contracts/access/Ownable.sol\":1824:1925  function renounceOwnership() public virtual onlyOwner {... */\n    tag_59:\n        /* \"@openzeppelin/contracts/access/Ownable.sol\":1094:1107  _checkOwner() */\n      tag_126\n        /* \"@openzeppelin/contracts/access/Ownable.sol\":1094:1105  _checkOwner */\n      tag_127\n        /* \"@openzeppelin/contracts/access/Ownable.sol\":1094:1107  _checkOwner() */\n      jump\t// in\n    tag_126:\n        /* \"@openzeppelin/contracts/access/Ownable.sol\":1888:1918  _transferOwnership(address(0)) */\n      tag_129\n        /* \"@openzeppelin/contracts/access/Ownable.sol\":1915:1916  0 */\n      0x00\n        /* \"@openzeppelin/contracts/access/Ownable.sol\":1888:1906  _transferOwnership */\n      tag_130\n        /* \"@openzeppelin/contracts/access/Ownable.sol\":1888:1918  _transferOwnership(address(0)) */\n      jump\t// in\n    tag_129:\n        /* \"@openzeppelin/contracts/access/Ownable.sol\":1824:1925  function renounceOwnership() public virtual onlyOwner {... */\n      jump\t// out\n        /* \"spoilsToken.sol\":2593:2697  function symbol() public view virtual override returns (string memory) {... */\n    tag_65:\n        /* \"spoilsToken.sol\":2649:2662  string memory */\n      0x60\n        /* \"spoilsToken.sol\":2682:2689  _symbol */\n      0x05\n        /* \"spoilsToken.sol\":2675:2689  return _symbol */\n      dup1\n      sload\n      tag_90\n      swap1\n      tag_91\n      jump\t// in\n        /* \"spoilsToken.sol\":10405:10587  function burn(address add,uint256 amount)public{... */\n    tag_69:\n        /* \"spoilsToken.sol\":10499:10509  msg.sender */\n      caller\n        /* \"spoilsToken.sol\":10471:10510  onlyapprovedcontractaddress[msg.sender] */\n      0x00\n      swap1\n      dup2\n      mstore\n        /* \"spoilsToken.sol\":10471:10498  onlyapprovedcontractaddress */\n      0x06\n        /* \"spoilsToken.sol\":10471:10510  onlyapprovedcontractaddress[msg.sender] */\n      0x20\n      mstore\n      0x40\n      swap1\n      keccak256\n      sload\n      0xff\n      and\n        /* \"spoilsToken.sol\":10471:10517  onlyapprovedcontractaddress[msg.sender] ==true */\n      iszero\n      iszero\n        /* \"spoilsToken.sol\":10471:10510  onlyapprovedcontractaddress[msg.sender] */\n      0x01\n        /* \"spoilsToken.sol\":10471:10517  onlyapprovedcontractaddress[msg.sender] ==true */\n      eq\n        /* \"spoilsToken.sol\":10463:10551  require(onlyapprovedcontractaddress[msg.sender] ==true, \"you are not approved  to burn\") */\n      tag_139\n      jumpi\n      mload(0x40)\n      shl(0xe5, 0x461bcd)\n      dup2\n      mstore\n        /* \"#utility.yul\":4180:4182   */\n      0x20\n        /* \"spoilsToken.sol\":10463:10551  require(onlyapprovedcontractaddress[msg.sender] ==true, \"you are not approved  to burn\") */\n      0x04\n      dup3\n      add\n        /* \"#utility.yul\":4162:4183   */\n      mstore\n        /* \"#utility.yul\":4219:4221   */\n      0x1d\n        /* \"#utility.yul\":4199:4217   */\n      0x24\n      dup3\n      add\n        /* \"#utility.yul\":4192:4222   */\n      mstore\n        /* \"#utility.yul\":4258:4289   */\n      0x796f7520617265206e6f7420617070726f7665642020746f206275726e000000\n        /* \"#utility.yul\":4238:4256   */\n      0x44\n      dup3\n      add\n        /* \"#utility.yul\":4231:4290   */\n      mstore\n        /* \"#utility.yul\":4307:4325   */\n      0x64\n      add\n        /* \"spoilsToken.sol\":10463:10551  require(onlyapprovedcontractaddress[msg.sender] ==true, \"you are not approved  to burn\") */\n      tag_107\n        /* \"#utility.yul\":3978:4331   */\n      jump\n        /* \"spoilsToken.sol\":10463:10551  require(onlyapprovedcontractaddress[msg.sender] ==true, \"you are not approved  to burn\") */\n    tag_139:\n        /* \"spoilsToken.sol\":10562:10579  _burn(add,amount) */\n      tag_122\n        /* \"spoilsToken.sol\":10568:10571  add */\n      dup3\n        /* \"spoilsToken.sol\":10572:10578  amount */\n      dup3\n        /* \"spoilsToken.sol\":10562:10567  _burn */\n      tag_143\n        /* \"spoilsToken.sol\":10562:10579  _burn(add,amount) */\n      jump\t// in\n        /* \"spoilsToken.sol\":7151:7564  function decreaseAllowance(address spender, uint256 subtractedValue) public virtual returns (bool) {... */\n    tag_72:\n        /* \"@openzeppelin/contracts/utils/Context.sol\":719:729  msg.sender */\n      caller\n        /* \"spoilsToken.sol\":7244:7248  bool */\n      0x00\n        /* \"spoilsToken.sol\":7288:7313  _allowances[_msgSender()] */\n      swap1\n      dup2\n      mstore\n        /* \"spoilsToken.sol\":7288:7299  _allowances */\n      0x02\n        /* \"spoilsToken.sol\":7288:7313  _allowances[_msgSender()] */\n      0x20\n      swap1\n      dup2\n      mstore\n      0x40\n      dup1\n      dup4\n      keccak256\n      sub(shl(0xa0, 0x01), 0x01)\n        /* \"spoilsToken.sol\":7288:7322  _allowances[_msgSender()][spender] */\n      dup7\n      and\n      dup5\n      mstore\n      swap1\n      swap2\n      mstore\n      dup2\n      keccak256\n      sload\n        /* \"spoilsToken.sol\":7341:7376  currentAllowance >= subtractedValue */\n      dup3\n      dup2\n      lt\n      iszero\n        /* \"spoilsToken.sol\":7333:7418  require(currentAllowance >= subtractedValue, \"ERC20: decreased allowance below zero\") */\n      tag_146\n      jumpi\n      mload(0x40)\n      shl(0xe5, 0x461bcd)\n      dup2\n      mstore\n        /* \"#utility.yul\":4538:4540   */\n      0x20\n        /* \"spoilsToken.sol\":7333:7418  require(currentAllowance >= subtractedValue, \"ERC20: decreased allowance below zero\") */\n      0x04\n      dup3\n      add\n        /* \"#utility.yul\":4520:4541   */\n      mstore\n        /* \"#utility.yul\":4577:4579   */\n      0x25\n        /* \"#utility.yul\":4557:4575   */\n      0x24\n      dup3\n      add\n        /* \"#utility.yul\":4550:4580   */\n      mstore\n        /* \"#utility.yul\":4616:4650   */\n      0x45524332303a2064656372656173656420616c6c6f77616e63652062656c6f77\n        /* \"#utility.yul\":4596:4614   */\n      0x44\n      dup3\n      add\n        /* \"#utility.yul\":4589:4651   */\n      mstore\n      shl(0xd8, 0x207a65726f)\n        /* \"#utility.yul\":4667:4685   */\n      0x64\n      dup3\n      add\n        /* \"#utility.yul\":4660:4695   */\n      mstore\n        /* \"#utility.yul\":4712:4731   */\n      0x84\n      add\n        /* \"spoilsToken.sol\":7333:7418  require(currentAllowance >= subtractedValue, \"ERC20: decreased allowance below zero\") */\n      tag_107\n        /* \"#utility.yul\":4336:4737   */\n      jump\n        /* \"spoilsToken.sol\":7333:7418  require(currentAllowance >= subtractedValue, \"ERC20: decreased allowance below zero\") */\n    tag_146:\n        /* \"spoilsToken.sol\":7454:7521  _approve(_msgSender(), spender, currentAllowance - subtractedValue) */\n      tag_149\n        /* \"@openzeppelin/contracts/utils/Context.sol\":719:729  msg.sender */\n      caller\n        /* \"spoilsToken.sol\":7477:7484  spender */\n      dup6\n        /* \"spoilsToken.sol\":7505:7520  subtractedValue */\n      dup6\n        /* \"spoilsToken.sol\":7486:7502  currentAllowance */\n      dup5\n        /* \"spoilsToken.sol\":7486:7520  currentAllowance - subtractedValue */\n      sub\n        /* \"spoilsToken.sol\":7454:7462  _approve */\n      tag_100\n        /* \"spoilsToken.sol\":7454:7521  _approve(_msgSender(), spender, currentAllowance - subtractedValue) */\n      jump\t// in\n    tag_149:\n      pop\n        /* \"spoilsToken.sol\":7552:7556  true */\n      0x01\n      swap4\n        /* \"spoilsToken.sol\":7151:7564  function decreaseAllowance(address spender, uint256 subtractedValue) public virtual returns (bool) {... */\n      swap3\n      pop\n      pop\n      pop\n      jump\t// out\n        /* \"spoilsToken.sol\":4005:4180  function transfer(address recipient, uint256 amount) public virtual override returns (bool) {... */\n    tag_76:\n        /* \"spoilsToken.sol\":4091:4095  bool */\n      0x00\n        /* \"spoilsToken.sol\":4108:4150  _transfer(_msgSender(), recipient, amount) */\n      tag_97\n        /* \"@openzeppelin/contracts/utils/Context.sol\":719:729  msg.sender */\n      caller\n        /* \"spoilsToken.sol\":4132:4141  recipient */\n      dup5\n        /* \"spoilsToken.sol\":4143:4149  amount */\n      dup5\n        /* \"spoilsToken.sol\":4108:4117  _transfer */\n      tag_104\n        /* \"spoilsToken.sol\":4108:4150  _transfer(_msgSender(), recipient, amount) */\n      jump\t// in\n        /* \"spoilsToken.sol\":4188:4330  function setapprovedcontractaddress(address add)external onlyOwner {... */\n    tag_80:\n        /* \"@openzeppelin/contracts/access/Ownable.sol\":1094:1107  _checkOwner() */\n      tag_155\n        /* \"@openzeppelin/contracts/access/Ownable.sol\":1094:1105  _checkOwner */\n      tag_127\n        /* \"@openzeppelin/contracts/access/Ownable.sol\":1094:1107  _checkOwner() */\n      jump\t// in\n    tag_155:\n      sub(shl(0xa0, 0x01), 0x01)\n        /* \"spoilsToken.sol\":4275:4307  onlyapprovedcontractaddress[add] */\n      and\n      0x00\n      swap1\n      dup2\n      mstore\n        /* \"spoilsToken.sol\":4275:4302  onlyapprovedcontractaddress */\n      0x06\n        /* \"spoilsToken.sol\":4275:4307  onlyapprovedcontractaddress[add] */\n      0x20\n      mstore\n      0x40\n      swap1\n      keccak256\n        /* \"spoilsToken.sol\":4275:4313  onlyapprovedcontractaddress[add] =true */\n      dup1\n      sload\n      not(0xff)\n      and\n        /* \"spoilsToken.sol\":4309:4313  true */\n      0x01\n        /* \"spoilsToken.sol\":4275:4313  onlyapprovedcontractaddress[add] =true */\n      or\n      swap1\n      sstore\n        /* \"spoilsToken.sol\":4188:4330  function setapprovedcontractaddress(address add)external onlyOwner {... */\n      jump\t// out\n        /* \"@openzeppelin/contracts/access/Ownable.sol\":2074:2272  function transferOwnership(address newOwner) public virtual onlyOwner {... */\n    tag_88:\n        /* \"@openzeppelin/contracts/access/Ownable.sol\":1094:1107  _checkOwner() */\n      tag_159\n        /* \"@openzeppelin/contracts/access/Ownable.sol\":1094:1105  _checkOwner */\n      tag_127\n        /* \"@openzeppelin/contracts/access/Ownable.sol\":1094:1107  _checkOwner() */\n      jump\t// in\n    tag_159:\n      sub(shl(0xa0, 0x01), 0x01)\n        /* \"@openzeppelin/contracts/access/Ownable.sol\":2162:2184  newOwner != address(0) */\n      dup2\n      and\n        /* \"@openzeppelin/contracts/access/Ownable.sol\":2154:2227  require(newOwner != address(0), \"Ownable: new owner is the zero address\") */\n      tag_161\n      jumpi\n      mload(0x40)\n      shl(0xe5, 0x461bcd)\n      dup2\n      mstore\n        /* \"#utility.yul\":4944:4946   */\n      0x20\n        /* \"@openzeppelin/contracts/access/Ownable.sol\":2154:2227  require(newOwner != address(0), \"Ownable: new owner is the zero address\") */\n      0x04\n      dup3\n      add\n        /* \"#utility.yul\":4926:4947   */\n      mstore\n        /* \"#utility.yul\":4983:4985   */\n      0x26\n        /* \"#utility.yul\":4963:4981   */\n      0x24\n      dup3\n      add\n        /* \"#utility.yul\":4956:4986   */\n      mstore\n        /* \"#utility.yul\":5022:5056   */\n      0x4f776e61626c653a206e6577206f776e657220697320746865207a65726f2061\n        /* \"#utility.yul\":5002:5020   */\n      0x44\n      dup3\n      add\n        /* \"#utility.yul\":4995:5057   */\n      mstore\n      shl(0xd0, 0x646472657373)\n        /* \"#utility.yul\":5073:5091   */\n      0x64\n      dup3\n      add\n        /* \"#utility.yul\":5066:5102   */\n      mstore\n        /* \"#utility.yul\":5119:5138   */\n      0x84\n      add\n        /* \"@openzeppelin/contracts/access/Ownable.sol\":2154:2227  require(newOwner != address(0), \"Ownable: new owner is the zero address\") */\n      tag_107\n        /* \"#utility.yul\":4742:5144   */\n      jump\n        /* \"@openzeppelin/contracts/access/Ownable.sol\":2154:2227  require(newOwner != address(0), \"Ownable: new owner is the zero address\") */\n    tag_161:\n        /* \"@openzeppelin/contracts/access/Ownable.sol\":2237:2265  _transferOwnership(newOwner) */\n      tag_164\n        /* \"@openzeppelin/contracts/access/Ownable.sol\":2256:2264  newOwner */\n      dup2\n        /* \"@openzeppelin/contracts/access/Ownable.sol\":2237:2255  _transferOwnership */\n      tag_130\n        /* \"@openzeppelin/contracts/access/Ownable.sol\":2237:2265  _transferOwnership(newOwner) */\n      jump\t// in\n    tag_164:\n        /* \"@openzeppelin/contracts/access/Ownable.sol\":2074:2272  function transferOwnership(address newOwner) public virtual onlyOwner {... */\n      pop\n      jump\t// out\n        /* \"spoilsToken.sol\":11025:11405  function _approve(... */\n    tag_100:\n      sub(shl(0xa0, 0x01), 0x01)\n        /* \"spoilsToken.sol\":11161:11180  owner != address(0) */\n      dup4\n      and\n        /* \"spoilsToken.sol\":11153:11221  require(owner != address(0), \"ERC20: approve from the zero address\") */\n      tag_167\n      jumpi\n      mload(0x40)\n      shl(0xe5, 0x461bcd)\n      dup2\n      mstore\n        /* \"#utility.yul\":5351:5353   */\n      0x20\n        /* \"spoilsToken.sol\":11153:11221  require(owner != address(0), \"ERC20: approve from the zero address\") */\n      0x04\n      dup3\n      add\n        /* \"#utility.yul\":5333:5354   */\n      mstore\n        /* \"#utility.yul\":5390:5392   */\n      0x24\n        /* \"#utility.yul\":5370:5388   */\n      dup1\n      dup3\n      add\n        /* \"#utility.yul\":5363:5393   */\n      mstore\n        /* \"#utility.yul\":5429:5463   */\n      0x45524332303a20617070726f76652066726f6d20746865207a65726f20616464\n        /* \"#utility.yul\":5409:5427   */\n      0x44\n      dup3\n      add\n        /* \"#utility.yul\":5402:5464   */\n      mstore\n      shl(0xe0, 0x72657373)\n        /* \"#utility.yul\":5480:5498   */\n      0x64\n      dup3\n      add\n        /* \"#utility.yul\":5473:5507   */\n      mstore\n        /* \"#utility.yul\":5524:5543   */\n      0x84\n      add\n        /* \"spoilsToken.sol\":11153:11221  require(owner != address(0), \"ERC20: approve from the zero address\") */\n      tag_107\n        /* \"#utility.yul\":5149:5549   */\n      jump\n        /* \"spoilsToken.sol\":11153:11221  require(owner != address(0), \"ERC20: approve from the zero address\") */\n    tag_167:\n      sub(shl(0xa0, 0x01), 0x01)\n        /* \"spoilsToken.sol\":11240:11261  spender != address(0) */\n      dup3\n      and\n        /* \"spoilsToken.sol\":11232:11300  require(spender != address(0), \"ERC20: approve to the zero address\") */\n      tag_170\n      jumpi\n      mload(0x40)\n      shl(0xe5, 0x461bcd)\n      dup2\n      mstore\n        /* \"#utility.yul\":5756:5758   */\n      0x20\n        /* \"spoilsToken.sol\":11232:11300  require(spender != address(0), \"ERC20: approve to the zero address\") */\n      0x04\n      dup3\n      add\n        /* \"#utility.yul\":5738:5759   */\n      mstore\n        /* \"#utility.yul\":5795:5797   */\n      0x22\n        /* \"#utility.yul\":5775:5793   */\n      0x24\n      dup3\n      add\n        /* \"#utility.yul\":5768:5798   */\n      mstore\n        /* \"#utility.yul\":5834:5868   */\n      0x45524332303a20617070726f766520746f20746865207a65726f206164647265\n        /* \"#utility.yul\":5814:5832   */\n      0x44\n      dup3\n      add\n        /* \"#utility.yul\":5807:5869   */\n      mstore\n      shl(0xf0, 0x7373)\n        /* \"#utility.yul\":5885:5903   */\n      0x64\n      dup3\n      add\n        /* \"#utility.yul\":5878:5910   */\n      mstore\n        /* \"#utility.yul\":5927:5946   */\n      0x84\n      add\n        /* \"spoilsToken.sol\":11232:11300  require(spender != address(0), \"ERC20: approve to the zero address\") */\n      tag_107\n        /* \"#utility.yul\":5554:5952   */\n      jump\n        /* \"spoilsToken.sol\":11232:11300  require(spender != address(0), \"ERC20: approve to the zero address\") */\n    tag_170:\n      sub(shl(0xa0, 0x01), 0x01)\n        /* \"spoilsToken.sol\":11313:11331  _allowances[owner] */\n      dup4\n      dup2\n      and\n      0x00\n      dup2\n      dup2\n      mstore\n        /* \"spoilsToken.sol\":11313:11324  _allowances */\n      0x02\n        /* \"spoilsToken.sol\":11313:11331  _allowances[owner] */\n      0x20\n      swap1\n      dup2\n      mstore\n      0x40\n      dup1\n      dup4\n      keccak256\n        /* \"spoilsToken.sol\":11313:11340  _allowances[owner][spender] */\n      swap5\n      dup8\n      and\n      dup1\n      dup5\n      mstore\n      swap5\n      dup3\n      mstore\n      swap2\n      dup3\n      swap1\n      keccak256\n        /* \"spoilsToken.sol\":11313:11349  _allowances[owner][spender] = amount */\n      dup6\n      swap1\n      sstore\n        /* \"spoilsToken.sol\":11365:11397  Approval(owner, spender, amount) */\n      swap1\n      mload\n        /* \"#utility.yul\":1342:1367   */\n      dup5\n      dup2\n      mstore\n        /* \"spoilsToken.sol\":11365:11397  Approval(owner, spender, amount) */\n      0x8c5be1e5ebec7d5bd14f71427d1e84f3dd0314c0f7b2291e5b200ac8c7c3b925\n      swap2\n        /* \"#utility.yul\":1315:1333   */\n      add\n        /* \"spoilsToken.sol\":11365:11397  Approval(owner, spender, amount) */\n    tag_173:\n      mload(0x40)\n      dup1\n      swap2\n      sub\n      swap1\n      log3\n        /* \"spoilsToken.sol\":11025:11405  function _approve(... */\n      pop\n      pop\n      pop\n      jump\t// out\n        /* \"spoilsToken.sol\":8054:8787  function _transfer(... */\n    tag_104:\n      sub(shl(0xa0, 0x01), 0x01)\n        /* \"spoilsToken.sol\":8194:8214  sender != address(0) */\n      dup4\n      and\n        /* \"spoilsToken.sol\":8186:8256  require(sender != address(0), \"ERC20: transfer from the zero address\") */\n      tag_175\n      jumpi\n      mload(0x40)\n      shl(0xe5, 0x461bcd)\n      dup2\n      mstore\n        /* \"#utility.yul\":6159:6161   */\n      0x20\n        /* \"spoilsToken.sol\":8186:8256  require(sender != address(0), \"ERC20: transfer from the zero address\") */\n      0x04\n      dup3\n      add\n        /* \"#utility.yul\":6141:6162   */\n      mstore\n        /* \"#utility.yul\":6198:6200   */\n      0x25\n        /* \"#utility.yul\":6178:6196   */\n      0x24\n      dup3\n      add\n        /* \"#utility.yul\":6171:6201   */\n      mstore\n        /* \"#utility.yul\":6237:6271   */\n      0x45524332303a207472616e736665722066726f6d20746865207a65726f206164\n        /* \"#utility.yul\":6217:6235   */\n      0x44\n      dup3\n      add\n        /* \"#utility.yul\":6210:6272   */\n      mstore\n      shl(0xd8, 0x6472657373)\n        /* \"#utility.yul\":6288:6306   */\n      0x64\n      dup3\n      add\n        /* \"#utility.yul\":6281:6316   */\n      mstore\n        /* \"#utility.yul\":6333:6352   */\n      0x84\n      add\n        /* \"spoilsToken.sol\":8186:8256  require(sender != address(0), \"ERC20: transfer from the zero address\") */\n      tag_107\n        /* \"#utility.yul\":5957:6358   */\n      jump\n        /* \"spoilsToken.sol\":8186:8256  require(sender != address(0), \"ERC20: transfer from the zero address\") */\n    tag_175:\n      sub(shl(0xa0, 0x01), 0x01)\n        /* \"spoilsToken.sol\":8275:8298  recipient != address(0) */\n      dup3\n      and\n        /* \"spoilsToken.sol\":8267:8338  require(recipient != address(0), \"ERC20: transfer to the zero address\") */\n      tag_178\n      jumpi\n      mload(0x40)\n      shl(0xe5, 0x461bcd)\n      dup2\n      mstore\n        /* \"#utility.yul\":6565:6567   */\n      0x20\n        /* \"spoilsToken.sol\":8267:8338  require(recipient != address(0), \"ERC20: transfer to the zero address\") */\n      0x04\n      dup3\n      add\n        /* \"#utility.yul\":6547:6568   */\n      mstore\n        /* \"#utility.yul\":6604:6606   */\n      0x23\n        /* \"#utility.yul\":6584:6602   */\n      0x24\n      dup3\n      add\n        /* \"#utility.yul\":6577:6607   */\n      mstore\n        /* \"#utility.yul\":6643:6677   */\n      0x45524332303a207472616e7366657220746f20746865207a65726f2061646472\n        /* \"#utility.yul\":6623:6641   */\n      0x44\n      dup3\n      add\n        /* \"#utility.yul\":6616:6678   */\n      mstore\n      shl(0xe8, 0x657373)\n        /* \"#utility.yul\":6694:6712   */\n      0x64\n      dup3\n      add\n        /* \"#utility.yul\":6687:6720   */\n      mstore\n        /* \"#utility.yul\":6737:6756   */\n      0x84\n      add\n        /* \"spoilsToken.sol\":8267:8338  require(recipient != address(0), \"ERC20: transfer to the zero address\") */\n      tag_107\n        /* \"#utility.yul\":6363:6762   */\n      jump\n        /* \"spoilsToken.sol\":8267:8338  require(recipient != address(0), \"ERC20: transfer to the zero address\") */\n    tag_178:\n      sub(shl(0xa0, 0x01), 0x01)\n        /* \"spoilsToken.sol\":8435:8452  _balances[sender] */\n      dup4\n      and\n        /* \"spoilsToken.sol\":8411:8432  uint256 senderBalance */\n      0x00\n        /* \"spoilsToken.sol\":8435:8452  _balances[sender] */\n      swap1\n      dup2\n      mstore\n        /* \"spoilsToken.sol\":8435:8444  _balances */\n      0x01\n        /* \"spoilsToken.sol\":8435:8452  _balances[sender] */\n      0x20\n      mstore\n      0x40\n      swap1\n      keccak256\n      sload\n        /* \"spoilsToken.sol\":8471:8494  senderBalance >= amount */\n      dup2\n      dup2\n      lt\n      iszero\n        /* \"spoilsToken.sol\":8463:8537  require(senderBalance >= amount, \"ERC20: transfer amount exceeds balance\") */\n      tag_183\n      jumpi\n      mload(0x40)\n      shl(0xe5, 0x461bcd)\n      dup2\n      mstore\n        /* \"#utility.yul\":6969:6971   */\n      0x20\n        /* \"spoilsToken.sol\":8463:8537  require(senderBalance >= amount, \"ERC20: transfer amount exceeds balance\") */\n      0x04\n      dup3\n      add\n        /* \"#utility.yul\":6951:6972   */\n      mstore\n        /* \"#utility.yul\":7008:7010   */\n      0x26\n        /* \"#utility.yul\":6988:7006   */\n      0x24\n      dup3\n      add\n        /* \"#utility.yul\":6981:7011   */\n      mstore\n        /* \"#utility.yul\":7047:7081   */\n      0x45524332303a207472616e7366657220616d6f756e7420657863656564732062\n        /* \"#utility.yul\":7027:7045   */\n      0x44\n      dup3\n      add\n        /* \"#utility.yul\":7020:7082   */\n      mstore\n      shl(0xd0, 0x616c616e6365)\n        /* \"#utility.yul\":7098:7116   */\n      0x64\n      dup3\n      add\n        /* \"#utility.yul\":7091:7127   */\n      mstore\n        /* \"#utility.yul\":7144:7163   */\n      0x84\n      add\n        /* \"spoilsToken.sol\":8463:8537  require(senderBalance >= amount, \"ERC20: transfer amount exceeds balance\") */\n      tag_107\n        /* \"#utility.yul\":6767:7169   */\n      jump\n        /* \"spoilsToken.sol\":8463:8537  require(senderBalance >= amount, \"ERC20: transfer amount exceeds balance\") */\n    tag_183:\n      sub(shl(0xa0, 0x01), 0x01)\n        /* \"spoilsToken.sol\":8573:8590  _balances[sender] */\n      dup1\n      dup6\n      and\n      0x00\n      swap1\n      dup2\n      mstore\n        /* \"spoilsToken.sol\":8573:8582  _balances */\n      0x01\n        /* \"spoilsToken.sol\":8573:8590  _balances[sender] */\n      0x20\n      mstore\n      0x40\n      dup1\n      dup3\n      keccak256\n        /* \"spoilsToken.sol\":8593:8615  senderBalance - amount */\n      dup6\n      dup6\n      sub\n        /* \"spoilsToken.sol\":8573:8615  _balances[sender] = senderBalance - amount */\n      swap1\n      sstore\n        /* \"spoilsToken.sol\":8637:8657  _balances[recipient] */\n      swap2\n      dup6\n      and\n      dup2\n      mstore\n      swap1\n      dup2\n      keccak256\n        /* \"spoilsToken.sol\":8637:8667  _balances[recipient] += amount */\n      dup1\n      sload\n        /* \"spoilsToken.sol\":8609:8615  amount */\n      dup5\n      swap3\n        /* \"spoilsToken.sol\":8573:8590  _balances[sender] */\n      swap1\n        /* \"spoilsToken.sol\":8637:8667  _balances[recipient] += amount */\n      tag_186\n      swap1\n        /* \"spoilsToken.sol\":8609:8615  amount */\n      dup5\n      swap1\n        /* \"spoilsToken.sol\":8637:8667  _balances[recipient] += amount */\n      tag_117\n      jump\t// in\n    tag_186:\n      swap3\n      pop\n      pop\n      dup2\n      swap1\n      sstore\n      pop\n        /* \"spoilsToken.sol\":8702:8711  recipient */\n      dup3\n      sub(shl(0xa0, 0x01), 0x01)\n        /* \"spoilsToken.sol\":8685:8720  Transfer(sender, recipient, amount) */\n      and\n        /* \"spoilsToken.sol\":8694:8700  sender */\n      dup5\n      sub(shl(0xa0, 0x01), 0x01)\n        /* \"spoilsToken.sol\":8685:8720  Transfer(sender, recipient, amount) */\n      and\n      0xddf252ad1be2c89b69c2b068fc378daa952ba7f163c4a11628f55a4df523b3ef\n        /* \"spoilsToken.sol\":8713:8719  amount */\n      dup5\n        /* \"spoilsToken.sol\":8685:8720  Transfer(sender, recipient, amount) */\n      mload(0x40)\n      tag_187\n      swap2\n        /* \"#utility.yul\":1342:1367   */\n      dup2\n      mstore\n        /* \"#utility.yul\":1330:1332   */\n      0x20\n        /* \"#utility.yul\":1315:1333   */\n      add\n      swap1\n        /* \"#utility.yul\":1196:1373   */\n      jump\n        /* \"spoilsToken.sol\":8685:8720  Transfer(sender, recipient, amount) */\n    tag_187:\n      mload(0x40)\n      dup1\n      swap2\n      sub\n      swap1\n      log3\n        /* \"spoilsToken.sol\":8175:8787  {... */\n      pop\n        /* \"spoilsToken.sol\":8054:8787  function _transfer(... */\n      pop\n      pop\n      pop\n      jump\t// out\n        /* \"spoilsToken.sol\":9074:9473  function _mint(address account, uint256 amount) internal virtual {... */\n    tag_123:\n      sub(shl(0xa0, 0x01), 0x01)\n        /* \"spoilsToken.sol\":9158:9179  account != address(0) */\n      dup3\n      and\n        /* \"spoilsToken.sol\":9150:9215  require(account != address(0), \"ERC20: mint to the zero address\") */\n      tag_191\n      jumpi\n      mload(0x40)\n      shl(0xe5, 0x461bcd)\n      dup2\n      mstore\n        /* \"#utility.yul\":7376:7378   */\n      0x20\n        /* \"spoilsToken.sol\":9150:9215  require(account != address(0), \"ERC20: mint to the zero address\") */\n      0x04\n      dup3\n      add\n        /* \"#utility.yul\":7358:7379   */\n      mstore\n        /* \"#utility.yul\":7415:7417   */\n      0x1f\n        /* \"#utility.yul\":7395:7413   */\n      0x24\n      dup3\n      add\n        /* \"#utility.yul\":7388:7418   */\n      mstore\n        /* \"#utility.yul\":7454:7487   */\n      0x45524332303a206d696e7420746f20746865207a65726f206164647265737300\n        /* \"#utility.yul\":7434:7452   */\n      0x44\n      dup3\n      add\n        /* \"#utility.yul\":7427:7488   */\n      mstore\n        /* \"#utility.yul\":7505:7523   */\n      0x64\n      add\n        /* \"spoilsToken.sol\":9150:9215  require(account != address(0), \"ERC20: mint to the zero address\") */\n      tag_107\n        /* \"#utility.yul\":7174:7529   */\n      jump\n        /* \"spoilsToken.sol\":9150:9215  require(account != address(0), \"ERC20: mint to the zero address\") */\n    tag_191:\n        /* \"spoilsToken.sol\":9306:9312  amount */\n      dup1\n        /* \"spoilsToken.sol\":9290:9302  _totalSupply */\n      0x03\n      0x00\n        /* \"spoilsToken.sol\":9290:9312  _totalSupply += amount */\n      dup3\n      dup3\n      sload\n      tag_195\n      swap2\n      swap1\n      tag_117\n      jump\t// in\n    tag_195:\n      swap1\n      swap2\n      sstore\n      pop\n      pop\n      sub(shl(0xa0, 0x01), 0x01)\n        /* \"spoilsToken.sol\":9323:9341  _balances[account] */\n      dup3\n      and\n      0x00\n      swap1\n      dup2\n      mstore\n        /* \"spoilsToken.sol\":9323:9332  _balances */\n      0x01\n        /* \"spoilsToken.sol\":9323:9341  _balances[account] */\n      0x20\n      mstore\n      0x40\n      dup2\n      keccak256\n        /* \"spoilsToken.sol\":9323:9351  _balances[account] += amount */\n      dup1\n      sload\n        /* \"spoilsToken.sol\":9345:9351  amount */\n      dup4\n      swap3\n        /* \"spoilsToken.sol\":9323:9341  _balances[account] */\n      swap1\n        /* \"spoilsToken.sol\":9323:9351  _balances[account] += amount */\n      tag_196\n      swap1\n        /* \"spoilsToken.sol\":9345:9351  amount */\n      dup5\n      swap1\n        /* \"spoilsToken.sol\":9323:9351  _balances[account] += amount */\n      tag_117\n      jump\t// in\n    tag_196:\n      swap1\n      swap2\n      sstore\n      pop\n      pop\n        /* \"spoilsToken.sol\":9367:9404  Transfer(address(0), account, amount) */\n      mload(0x40)\n        /* \"#utility.yul\":1342:1367   */\n      dup2\n      dup2\n      mstore\n      sub(shl(0xa0, 0x01), 0x01)\n        /* \"spoilsToken.sol\":9367:9404  Transfer(address(0), account, amount) */\n      dup4\n      and\n      swap1\n        /* \"spoilsToken.sol\":9384:9385  0 */\n      0x00\n      swap1\n        /* \"spoilsToken.sol\":9367:9404  Transfer(address(0), account, amount) */\n      0xddf252ad1be2c89b69c2b068fc378daa952ba7f163c4a11628f55a4df523b3ef\n      swap1\n        /* \"#utility.yul\":1330:1332   */\n      0x20\n        /* \"#utility.yul\":1315:1333   */\n      add\n        /* \"spoilsToken.sol\":9367:9404  Transfer(address(0), account, amount) */\n      mload(0x40)\n      dup1\n      swap2\n      sub\n      swap1\n      log3\n        /* \"spoilsToken.sol\":4338:4520  function mint(address add, uint amount)external{... */\n      pop\n      pop\n      jump\t// out\n        /* \"@openzeppelin/contracts/access/Ownable.sol\":1359:1489  function _checkOwner() internal view virtual {... */\n    tag_127:\n        /* \"@openzeppelin/contracts/access/Ownable.sol\":1247:1254  address */\n      0x00\n        /* \"@openzeppelin/contracts/access/Ownable.sol\":1273:1279  _owner */\n      sload\n      sub(shl(0xa0, 0x01), 0x01)\n      and\n        /* \"@openzeppelin/contracts/utils/Context.sol\":719:729  msg.sender */\n      caller\n        /* \"@openzeppelin/contracts/access/Ownable.sol\":1422:1445  owner() == _msgSender() */\n      eq\n        /* \"@openzeppelin/contracts/access/Ownable.sol\":1414:1482  require(owner() == _msgSender(), \"Ownable: caller is not the owner\") */\n      tag_129\n      jumpi\n      mload(0x40)\n      shl(0xe5, 0x461bcd)\n      dup2\n      mstore\n        /* \"#utility.yul\":7736:7738   */\n      0x20\n        /* \"@openzeppelin/contracts/access/Ownable.sol\":1414:1482  require(owner() == _msgSender(), \"Ownable: caller is not the owner\") */\n      0x04\n      dup3\n      add\n        /* \"#utility.yul\":7718:7739   */\n      dup2\n      swap1\n      mstore\n        /* \"#utility.yul\":7755:7773   */\n      0x24\n      dup3\n      add\n        /* \"#utility.yul\":7748:7778   */\n      mstore\n        /* \"#utility.yul\":7814:7848   */\n      0x4f776e61626c653a2063616c6c6572206973206e6f7420746865206f776e6572\n        /* \"#utility.yul\":7794:7812   */\n      0x44\n      dup3\n      add\n        /* \"#utility.yul\":7787:7849   */\n      mstore\n        /* \"#utility.yul\":7866:7884   */\n      0x64\n      add\n        /* \"@openzeppelin/contracts/access/Ownable.sol\":1414:1482  require(owner() == _msgSender(), \"Ownable: caller is not the owner\") */\n      tag_107\n        /* \"#utility.yul\":7534:7890   */\n      jump\n        /* \"@openzeppelin/contracts/access/Ownable.sol\":2426:2613  function _transferOwnership(address newOwner) internal virtual {... */\n    tag_130:\n        /* \"@openzeppelin/contracts/access/Ownable.sol\":2499:2515  address oldOwner */\n      0x00\n        /* \"@openzeppelin/contracts/access/Ownable.sol\":2518:2524  _owner */\n      dup1\n      sload\n      sub(shl(0xa0, 0x01), 0x01)\n        /* \"@openzeppelin/contracts/access/Ownable.sol\":2534:2551  _owner = newOwner */\n      dup4\n      dup2\n      and\n      not(sub(shl(0xa0, 0x01), 0x01))\n      dup4\n      and\n      dup2\n      or\n      dup5\n      sstore\n        /* \"@openzeppelin/contracts/access/Ownable.sol\":2566:2606  OwnershipTransferred(oldOwner, newOwner) */\n      mload(0x40)\n        /* \"@openzeppelin/contracts/access/Ownable.sol\":2518:2524  _owner */\n      swap2\n      swap1\n      swap3\n      and\n      swap3\n      dup4\n      swap2\n        /* \"@openzeppelin/contracts/access/Ownable.sol\":2566:2606  OwnershipTransferred(oldOwner, newOwner) */\n      0x8be0079c531659141344cd1fd0a4f28419497f9722a3daafe3b4186f6b6457e0\n      swap2\n        /* \"@openzeppelin/contracts/access/Ownable.sol\":2499:2515  address oldOwner */\n      swap1\n        /* \"@openzeppelin/contracts/access/Ownable.sol\":2566:2606  OwnershipTransferred(oldOwner, newOwner) */\n      log3\n        /* \"@openzeppelin/contracts/access/Ownable.sol\":2489:2613  {... */\n      pop\n        /* \"@openzeppelin/contracts/access/Ownable.sol\":2426:2613  function _transferOwnership(address newOwner) internal virtual {... */\n      pop\n      jump\t// out\n        /* \"spoilsToken.sol\":9806:10397  function _burn(address account, uint256 amount) internal virtual {... */\n    tag_143:\n      sub(shl(0xa0, 0x01), 0x01)\n        /* \"spoilsToken.sol\":9890:9911  account != address(0) */\n      dup3\n      and\n        /* \"spoilsToken.sol\":9882:9949  require(account != address(0), \"ERC20: burn from the zero address\") */\n      tag_207\n      jumpi\n      mload(0x40)\n      shl(0xe5, 0x461bcd)\n      dup2\n      mstore\n        /* \"#utility.yul\":8097:8099   */\n      0x20\n        /* \"spoilsToken.sol\":9882:9949  require(account != address(0), \"ERC20: burn from the zero address\") */\n      0x04\n      dup3\n      add\n        /* \"#utility.yul\":8079:8100   */\n      mstore\n        /* \"#utility.yul\":8136:8138   */\n      0x21\n        /* \"#utility.yul\":8116:8134   */\n      0x24\n      dup3\n      add\n        /* \"#utility.yul\":8109:8139   */\n      mstore\n        /* \"#utility.yul\":8175:8209   */\n      0x45524332303a206275726e2066726f6d20746865207a65726f20616464726573\n        /* \"#utility.yul\":8155:8173   */\n      0x44\n      dup3\n      add\n        /* \"#utility.yul\":8148:8210   */\n      mstore\n      shl(0xf8, 0x73)\n        /* \"#utility.yul\":8226:8244   */\n      0x64\n      dup3\n      add\n        /* \"#utility.yul\":8219:8250   */\n      mstore\n        /* \"#utility.yul\":8267:8286   */\n      0x84\n      add\n        /* \"spoilsToken.sol\":9882:9949  require(account != address(0), \"ERC20: burn from the zero address\") */\n      tag_107\n        /* \"#utility.yul\":7895:8292   */\n      jump\n        /* \"spoilsToken.sol\":9882:9949  require(account != address(0), \"ERC20: burn from the zero address\") */\n    tag_207:\n      sub(shl(0xa0, 0x01), 0x01)\n        /* \"spoilsToken.sol\":10049:10067  _balances[account] */\n      dup3\n      and\n        /* \"spoilsToken.sol\":10024:10046  uint256 accountBalance */\n      0x00\n        /* \"spoilsToken.sol\":10049:10067  _balances[account] */\n      swap1\n      dup2\n      mstore\n        /* \"spoilsToken.sol\":10049:10058  _balances */\n      0x01\n        /* \"spoilsToken.sol\":10049:10067  _balances[account] */\n      0x20\n      mstore\n      0x40\n      swap1\n      keccak256\n      sload\n        /* \"spoilsToken.sol\":10086:10110  accountBalance >= amount */\n      dup2\n      dup2\n      lt\n      iszero\n        /* \"spoilsToken.sol\":10078:10149  require(accountBalance >= amount, \"ERC20: burn amount exceeds balance\") */\n      tag_211\n      jumpi\n      mload(0x40)\n      shl(0xe5, 0x461bcd)\n      dup2\n      mstore\n        /* \"#utility.yul\":8499:8501   */\n      0x20\n        /* \"spoilsToken.sol\":10078:10149  require(accountBalance >= amount, \"ERC20: burn amount exceeds balance\") */\n      0x04\n      dup3\n      add\n        /* \"#utility.yul\":8481:8502   */\n      mstore\n        /* \"#utility.yul\":8538:8540   */\n      0x22\n        /* \"#utility.yul\":8518:8536   */\n      0x24\n      dup3\n      add\n        /* \"#utility.yul\":8511:8541   */\n      mstore\n        /* \"#utility.yul\":8577:8611   */\n      0x45524332303a206275726e20616d6f756e7420657863656564732062616c616e\n        /* \"#utility.yul\":8557:8575   */\n      0x44\n      dup3\n      add\n        /* \"#utility.yul\":8550:8612   */\n      mstore\n      shl(0xf0, 0x6365)\n        /* \"#utility.yul\":8628:8646   */\n      0x64\n      dup3\n      add\n        /* \"#utility.yul\":8621:8653   */\n      mstore\n        /* \"#utility.yul\":8670:8689   */\n      0x84\n      add\n        /* \"spoilsToken.sol\":10078:10149  require(accountBalance >= amount, \"ERC20: burn amount exceeds balance\") */\n      tag_107\n        /* \"#utility.yul\":8297:8695   */\n      jump\n        /* \"spoilsToken.sol\":10078:10149  require(accountBalance >= amount, \"ERC20: burn amount exceeds balance\") */\n    tag_211:\n      sub(shl(0xa0, 0x01), 0x01)\n        /* \"spoilsToken.sol\":10185:10203  _balances[account] */\n      dup4\n      and\n      0x00\n      swap1\n      dup2\n      mstore\n        /* \"spoilsToken.sol\":10185:10194  _balances */\n      0x01\n        /* \"spoilsToken.sol\":10185:10203  _balances[account] */\n      0x20\n      mstore\n      0x40\n      dup2\n      keccak256\n        /* \"spoilsToken.sol\":10206:10229  accountBalance - amount */\n      dup4\n      dup4\n      sub\n        /* \"spoilsToken.sol\":10185:10229  _balances[account] = accountBalance - amount */\n      swap1\n      sstore\n        /* \"spoilsToken.sol\":10251:10263  _totalSupply */\n      0x03\n        /* \"spoilsToken.sol\":10251:10273  _totalSupply -= amount */\n      dup1\n      sload\n        /* \"spoilsToken.sol\":10223:10229  amount */\n      dup5\n      swap3\n        /* \"spoilsToken.sol\":10185:10203  _balances[account] */\n      swap1\n        /* \"spoilsToken.sol\":10251:10273  _totalSupply -= amount */\n      tag_214\n      swap1\n        /* \"spoilsToken.sol\":10223:10229  amount */\n      dup5\n      swap1\n        /* \"spoilsToken.sol\":10251:10273  _totalSupply -= amount */\n      tag_215\n      jump\t// in\n    tag_214:\n      swap1\n      swap2\n      sstore\n      pop\n      pop\n        /* \"spoilsToken.sol\":10291:10328  Transfer(account, address(0), amount) */\n      mload(0x40)\n        /* \"#utility.yul\":1342:1367   */\n      dup3\n      dup2\n      mstore\n        /* \"spoilsToken.sol\":10317:10318  0 */\n      0x00\n      swap1\n      sub(shl(0xa0, 0x01), 0x01)\n        /* \"spoilsToken.sol\":10291:10328  Transfer(account, address(0), amount) */\n      dup6\n      and\n      swap1\n      0xddf252ad1be2c89b69c2b068fc378daa952ba7f163c4a11628f55a4df523b3ef\n      swap1\n        /* \"#utility.yul\":1330:1332   */\n      0x20\n        /* \"#utility.yul\":1315:1333   */\n      add\n        /* \"spoilsToken.sol\":10291:10328  Transfer(account, address(0), amount) */\n      tag_173\n        /* \"#utility.yul\":1196:1373   */\n      jump\n        /* \"#utility.yul\":14:562   */\n    tag_26:\n        /* \"#utility.yul\":126:130   */\n      0x00\n        /* \"#utility.yul\":155:157   */\n      0x20\n        /* \"#utility.yul\":184:186   */\n      dup1\n        /* \"#utility.yul\":173:182   */\n      dup4\n        /* \"#utility.yul\":166:187   */\n      mstore\n        /* \"#utility.yul\":216:222   */\n      dup4\n        /* \"#utility.yul\":210:223   */\n      mload\n        /* \"#utility.yul\":259:265   */\n      dup1\n        /* \"#utility.yul\":254:256   */\n      dup3\n        /* \"#utility.yul\":243:252   */\n      dup6\n        /* \"#utility.yul\":239:257   */\n      add\n        /* \"#utility.yul\":232:266   */\n      mstore\n        /* \"#utility.yul\":284:285   */\n      0x00\n        /* \"#utility.yul\":294:434   */\n    tag_224:\n        /* \"#utility.yul\":308:314   */\n      dup2\n        /* \"#utility.yul\":305:306   */\n      dup2\n        /* \"#utility.yul\":302:315   */\n      lt\n        /* \"#utility.yul\":294:434   */\n      iszero\n      tag_226\n      jumpi\n        /* \"#utility.yul\":403:417   */\n      dup6\n      dup2\n      add\n        /* \"#utility.yul\":399:422   */\n      dup4\n      add\n        /* \"#utility.yul\":393:423   */\n      mload\n        /* \"#utility.yul\":369:386   */\n      dup6\n      dup3\n      add\n        /* \"#utility.yul\":388:390   */\n      0x40\n        /* \"#utility.yul\":365:391   */\n      add\n        /* \"#utility.yul\":358:424   */\n      mstore\n        /* \"#utility.yul\":323:333   */\n      dup3\n      add\n        /* \"#utility.yul\":294:434   */\n      jump(tag_224)\n    tag_226:\n        /* \"#utility.yul\":298:301   */\n      pop\n        /* \"#utility.yul\":483:484   */\n      0x00\n        /* \"#utility.yul\":478:480   */\n      0x40\n        /* \"#utility.yul\":469:475   */\n      dup3\n        /* \"#utility.yul\":458:467   */\n      dup7\n        /* \"#utility.yul\":454:476   */\n      add\n        /* \"#utility.yul\":450:481   */\n      add\n        /* \"#utility.yul\":443:485   */\n      mstore\n        /* \"#utility.yul\":553:555   */\n      0x40\n        /* \"#utility.yul\":546:548   */\n      0x1f\n        /* \"#utility.yul\":542:549   */\n      not\n        /* \"#utility.yul\":537:539   */\n      0x1f\n        /* \"#utility.yul\":529:535   */\n      dup4\n        /* \"#utility.yul\":525:540   */\n      add\n        /* \"#utility.yul\":521:550   */\n      and\n        /* \"#utility.yul\":510:519   */\n      dup6\n        /* \"#utility.yul\":506:551   */\n      add\n        /* \"#utility.yul\":502:556   */\n      add\n        /* \"#utility.yul\":494:556   */\n      swap3\n      pop\n      pop\n      pop\n        /* \"#utility.yul\":14:562   */\n      swap3\n      swap2\n      pop\n      pop\n      jump\t// out\n        /* \"#utility.yul\":567:740   */\n    tag_220:\n        /* \"#utility.yul\":635:655   */\n      dup1\n      calldataload\n      sub(shl(0xa0, 0x01), 0x01)\n        /* \"#utility.yul\":684:715   */\n      dup2\n      and\n        /* \"#utility.yul\":674:716   */\n      dup2\n      eq\n        /* \"#utility.yul\":664:734   */\n      tag_228\n      jumpi\n        /* \"#utility.yul\":730:731   */\n      0x00\n        /* \"#utility.yul\":727:728   */\n      dup1\n        /* \"#utility.yul\":720:732   */\n      revert\n        /* \"#utility.yul\":664:734   */\n    tag_228:\n        /* \"#utility.yul\":567:740   */\n      swap2\n      swap1\n      pop\n      jump\t// out\n        /* \"#utility.yul\":745:999   */\n    tag_29:\n        /* \"#utility.yul\":813:819   */\n      0x00\n        /* \"#utility.yul\":821:827   */\n      dup1\n        /* \"#utility.yul\":874:876   */\n      0x40\n        /* \"#utility.yul\":862:871   */\n      dup4\n        /* \"#utility.yul\":853:860   */\n      dup6\n        /* \"#utility.yul\":849:872   */\n      sub\n        /* \"#utility.yul\":845:877   */\n      slt\n        /* \"#utility.yul\":842:894   */\n      iszero\n      tag_230\n      jumpi\n        /* \"#utility.yul\":890:891   */\n      0x00\n        /* \"#utility.yul\":887:888   */\n      dup1\n        /* \"#utility.yul\":880:892   */\n      revert\n        /* \"#utility.yul\":842:894   */\n    tag_230:\n        /* \"#utility.yul\":913:942   */\n      tag_231\n        /* \"#utility.yul\":932:941   */\n      dup4\n        /* \"#utility.yul\":913:942   */\n      tag_220\n      jump\t// in\n    tag_231:\n        /* \"#utility.yul\":903:942   */\n      swap5\n        /* \"#utility.yul\":989:991   */\n      0x20\n        /* \"#utility.yul\":974:992   */\n      swap4\n      swap1\n      swap4\n      add\n        /* \"#utility.yul\":961:993   */\n      calldataload\n      swap4\n      pop\n      pop\n      pop\n        /* \"#utility.yul\":745:999   */\n      jump\t// out\n        /* \"#utility.yul\":1378:1706   */\n    tag_39:\n        /* \"#utility.yul\":1455:1461   */\n      0x00\n        /* \"#utility.yul\":1463:1469   */\n      dup1\n        /* \"#utility.yul\":1471:1477   */\n      0x00\n        /* \"#utility.yul\":1524:1526   */\n      0x60\n        /* \"#utility.yul\":1512:1521   */\n      dup5\n        /* \"#utility.yul\":1503:1510   */\n      dup7\n        /* \"#utility.yul\":1499:1522   */\n      sub\n        /* \"#utility.yul\":1495:1527   */\n      slt\n        /* \"#utility.yul\":1492:1544   */\n      iszero\n      tag_235\n      jumpi\n        /* \"#utility.yul\":1540:1541   */\n      0x00\n        /* \"#utility.yul\":1537:1538   */\n      dup1\n        /* \"#utility.yul\":1530:1542   */\n      revert\n        /* \"#utility.yul\":1492:1544   */\n    tag_235:\n        /* \"#utility.yul\":1563:1592   */\n      tag_236\n        /* \"#utility.yul\":1582:1591   */\n      dup5\n        /* \"#utility.yul\":1563:1592   */\n      tag_220\n      jump\t// in\n    tag_236:\n        /* \"#utility.yul\":1553:1592   */\n      swap3\n      pop\n        /* \"#utility.yul\":1611:1649   */\n      tag_237\n        /* \"#utility.yul\":1645:1647   */\n      0x20\n        /* \"#utility.yul\":1634:1643   */\n      dup6\n        /* \"#utility.yul\":1630:1648   */\n      add\n        /* \"#utility.yul\":1611:1649   */\n      tag_220\n      jump\t// in\n    tag_237:\n        /* \"#utility.yul\":1601:1649   */\n      swap2\n      pop\n        /* \"#utility.yul\":1696:1698   */\n      0x40\n        /* \"#utility.yul\":1685:1694   */\n      dup5\n        /* \"#utility.yul\":1681:1699   */\n      add\n        /* \"#utility.yul\":1668:1700   */\n      calldataload\n        /* \"#utility.yul\":1658:1700   */\n      swap1\n      pop\n        /* \"#utility.yul\":1378:1706   */\n      swap3\n      pop\n      swap3\n      pop\n      swap3\n      jump\t// out\n        /* \"#utility.yul\":1900:2086   */\n    tag_55:\n        /* \"#utility.yul\":1959:1965   */\n      0x00\n        /* \"#utility.yul\":2012:2014   */\n      0x20\n        /* \"#utility.yul\":2000:2009   */\n      dup3\n        /* \"#utility.yul\":1991:1998   */\n      dup5\n        /* \"#utility.yul\":1987:2010   */\n      sub\n        /* \"#utility.yul\":1983:2015   */\n      slt\n        /* \"#utility.yul\":1980:2032   */\n      iszero\n      tag_240\n      jumpi\n        /* \"#utility.yul\":2028:2029   */\n      0x00\n        /* \"#utility.yul\":2025:2026   */\n      dup1\n        /* \"#utility.yul\":2018:2030   */\n      revert\n        /* \"#utility.yul\":1980:2032   */\n    tag_240:\n        /* \"#utility.yul\":2051:2080   */\n      tag_241\n        /* \"#utility.yul\":2070:2079   */\n      dup3\n        /* \"#utility.yul\":2051:2080   */\n      tag_220\n      jump\t// in\n    tag_241:\n        /* \"#utility.yul\":2041:2080   */\n      swap4\n        /* \"#utility.yul\":1900:2086   */\n      swap3\n      pop\n      pop\n      pop\n      jump\t// out\n        /* \"#utility.yul\":2299:2559   */\n    tag_83:\n        /* \"#utility.yul\":2367:2373   */\n      0x00\n        /* \"#utility.yul\":2375:2381   */\n      dup1\n        /* \"#utility.yul\":2428:2430   */\n      0x40\n        /* \"#utility.yul\":2416:2425   */\n      dup4\n        /* \"#utility.yul\":2407:2414   */\n      dup6\n        /* \"#utility.yul\":2403:2426   */\n      sub\n        /* \"#utility.yul\":2399:2431   */\n      slt\n        /* \"#utility.yul\":2396:2448   */\n      iszero\n      tag_244\n      jumpi\n        /* \"#utility.yul\":2444:2445   */\n      0x00\n        /* \"#utility.yul\":2441:2442   */\n      dup1\n        /* \"#utility.yul\":2434:2446   */\n      revert\n        /* \"#utility.yul\":2396:2448   */\n    tag_244:\n        /* \"#utility.yul\":2467:2496   */\n      tag_245\n        /* \"#utility.yul\":2486:2495   */\n      dup4\n        /* \"#utility.yul\":2467:2496   */\n      tag_220\n      jump\t// in\n    tag_245:\n        /* \"#utility.yul\":2457:2496   */\n      swap2\n      pop\n        /* \"#utility.yul\":2515:2553   */\n      tag_246\n        /* \"#utility.yul\":2549:2551   */\n      0x20\n        /* \"#utility.yul\":2538:2547   */\n      dup5\n        /* \"#utility.yul\":2534:2552   */\n      add\n        /* \"#utility.yul\":2515:2553   */\n      tag_220\n      jump\t// in\n    tag_246:\n        /* \"#utility.yul\":2505:2553   */\n      swap1\n      pop\n        /* \"#utility.yul\":2299:2559   */\n      swap3\n      pop\n      swap3\n      swap1\n      pop\n      jump\t// out\n        /* \"#utility.yul\":2564:2944   */\n    tag_91:\n        /* \"#utility.yul\":2643:2644   */\n      0x01\n        /* \"#utility.yul\":2639:2651   */\n      dup2\n      dup2\n      shr\n      swap1\n        /* \"#utility.yul\":2686:2698   */\n      dup3\n      and\n      dup1\n        /* \"#utility.yul\":2707:2768   */\n      tag_248\n      jumpi\n        /* \"#utility.yul\":2761:2765   */\n      0x7f\n        /* \"#utility.yul\":2753:2759   */\n      dup3\n        /* \"#utility.yul\":2749:2766   */\n      and\n        /* \"#utility.yul\":2739:2766   */\n      swap2\n      pop\n        /* \"#utility.yul\":2707:2768   */\n    tag_248:\n        /* \"#utility.yul\":2814:2816   */\n      0x20\n        /* \"#utility.yul\":2806:2812   */\n      dup3\n        /* \"#utility.yul\":2803:2817   */\n      lt\n        /* \"#utility.yul\":2783:2801   */\n      dup2\n        /* \"#utility.yul\":2780:2818   */\n      sub\n        /* \"#utility.yul\":2777:2938   */\n      tag_249\n      jumpi\n        /* \"#utility.yul\":2860:2870   */\n      0x4e487b71\n        /* \"#utility.yul\":2855:2858   */\n      0xe0\n        /* \"#utility.yul\":2851:2871   */\n      shl\n        /* \"#utility.yul\":2848:2849   */\n      0x00\n        /* \"#utility.yul\":2841:2872   */\n      mstore\n        /* \"#utility.yul\":2895:2899   */\n      0x22\n        /* \"#utility.yul\":2892:2893   */\n      0x04\n        /* \"#utility.yul\":2885:2900   */\n      mstore\n        /* \"#utility.yul\":2923:2927   */\n      0x24\n        /* \"#utility.yul\":2920:2921   */\n      0x00\n        /* \"#utility.yul\":2913:2928   */\n      revert\n        /* \"#utility.yul\":2777:2938   */\n    tag_249:\n      pop\n        /* \"#utility.yul\":2564:2944   */\n      swap2\n      swap1\n      pop\n      jump\t// out\n        /* \"#utility.yul\":3358:3485   */\n    tag_221:\n        /* \"#utility.yul\":3419:3429   */\n      0x4e487b71\n        /* \"#utility.yul\":3414:3417   */\n      0xe0\n        /* \"#utility.yul\":3410:3430   */\n      shl\n        /* \"#utility.yul\":3407:3408   */\n      0x00\n        /* \"#utility.yul\":3400:3431   */\n      mstore\n        /* \"#utility.yul\":3450:3454   */\n      0x11\n        /* \"#utility.yul\":3447:3448   */\n      0x04\n        /* \"#utility.yul\":3440:3455   */\n      mstore\n        /* \"#utility.yul\":3474:3478   */\n      0x24\n        /* \"#utility.yul\":3471:3472   */\n      0x00\n        /* \"#utility.yul\":3464:3479   */\n      revert\n        /* \"#utility.yul\":3490:3615   */\n    tag_117:\n        /* \"#utility.yul\":3555:3564   */\n      dup1\n      dup3\n      add\n        /* \"#utility.yul\":3576:3586   */\n      dup1\n      dup3\n      gt\n        /* \"#utility.yul\":3573:3609   */\n      iszero\n      tag_96\n      jumpi\n        /* \"#utility.yul\":3589:3607   */\n      tag_96\n      tag_221\n      jump\t// in\n        /* \"#utility.yul\":8700:8828   */\n    tag_215:\n        /* \"#utility.yul\":8767:8776   */\n      dup2\n      dup2\n      sub\n        /* \"#utility.yul\":8788:8799   */\n      dup2\n      dup2\n      gt\n        /* \"#utility.yul\":8785:8822   */\n      iszero\n      tag_96\n      jumpi\n        /* \"#utility.yul\":8802:8820   */\n      tag_96\n      tag_221\n      jump\t// in\n\n    auxdata: 0xa26469706673582212204dc077ce334aefc2d8de1775e76b326bee5938e575cc1d3c968ce5e44936de5e64736f6c63430008140033\n}\n",
				"bytecode": {
					"linkReferences": {},
					"object": "608060405234801562000010575f80fd5b506040516200123b3803806200123b833981016040819052620000339162000268565b6200003e3362000071565b60046200004c848262000361565b5060056200005b838262000361565b50620000683382620000c0565b5050506200044f565b5f80546001600160a01b038381166001600160a01b0319831681178455604051919092169283917f8be0079c531659141344cd1fd0a4f28419497f9722a3daafe3b4186f6b6457e09190a35050565b6001600160a01b0382166200011b5760405162461bcd60e51b815260206004820152601f60248201527f45524332303a206d696e7420746f20746865207a65726f206164647265737300604482015260640160405180910390fd5b8060035f8282546200012e919062000429565b90915550506001600160a01b0382165f90815260016020526040812080548392906200015c90849062000429565b90915550506040518181526001600160a01b038316905f907fddf252ad1be2c89b69c2b068fc378daa952ba7f163c4a11628f55a4df523b3ef9060200160405180910390a35050565b505050565b634e487b7160e01b5f52604160045260245ffd5b5f82601f830112620001ce575f80fd5b81516001600160401b0380821115620001eb57620001eb620001aa565b604051601f8301601f19908116603f01168101908282118183101715620002165762000216620001aa565b8160405283815260209250868385880101111562000232575f80fd5b5f91505b8382101562000255578582018301518183018401529082019062000236565b5f93810190920192909252949350505050565b5f805f606084860312156200027b575f80fd5b83516001600160401b038082111562000292575f80fd5b620002a087838801620001be565b94506020860151915080821115620002b6575f80fd5b50620002c586828701620001be565b925050604084015190509250925092565b600181811c90821680620002eb57607f821691505b6020821081036200030a57634e487b7160e01b5f52602260045260245ffd5b50919050565b601f821115620001a5575f81815260208120601f850160051c81016020861015620003385750805b601f850160051c820191505b81811015620003595782815560010162000344565b505050505050565b81516001600160401b038111156200037d576200037d620001aa565b62000395816200038e8454620002d6565b8462000310565b602080601f831160018114620003cb575f8415620003b35750858301515b5f19600386901b1c1916600185901b17855562000359565b5f85815260208120601f198616915b82811015620003fb57888601518255948401946001909101908401620003da565b50858210156200041957878501515f19600388901b60f8161c191681555b5050505050600190811b01905550565b808201808211156200044957634e487b7160e01b5f52601160045260245ffd5b92915050565b610dde806200045d5f395ff3fe608060405234801561000f575f80fd5b5060043610610106575f3560e01c8063715018a61161009e578063a457c2d71161006e578063a457c2d71461020c578063a9059cbb1461021f578063b6b285d914610232578063dd62ed3e14610245578063f2fde38b1461027d575f80fd5b8063715018a6146101cf5780638da5cb5b146101d757806395d89b41146101f15780639dc29fac146101f9575f80fd5b8063313ce567116100d9578063313ce56714610170578063395093511461017f57806340c10f191461019257806370a08231146101a7575f80fd5b806306fdde031461010a578063095ea7b31461012857806318160ddd1461014b57806323b872dd1461015d575b5f80fd5b610112610290565b60405161011f9190610c1e565b60405180910390f35b61013b610136366004610c84565b610320565b604051901515815260200161011f565b6003545b60405190815260200161011f565b61013b61016b366004610cac565b610336565b6040516012815260200161011f565b61013b61018d366004610c84565b6103e3565b6101a56101a0366004610c84565b61041e565b005b61014f6101b5366004610ce5565b6001600160a01b03165f9081526001602052604090205490565b6101a561048f565b5f546040516001600160a01b03909116815260200161011f565b6101126104a2565b6101a5610207366004610c84565b6104b1565b61013b61021a366004610c84565b61051e565b61013b61022d366004610c84565b6105b6565b6101a5610240366004610ce5565b6105c2565b61014f610253366004610d05565b6001600160a01b039182165f90815260026020908152604080832093909416825291909152205490565b6101a561028b366004610ce5565b6105ed565b60606004805461029f90610d36565b80601f01602080910402602001604051908101604052809291908181526020018280546102cb90610d36565b80156103165780601f106102ed57610100808354040283529160200191610316565b820191905f5260205f20905b8154815290600101906020018083116102f957829003601f168201915b5050505050905090565b5f61032c338484610666565b5060015b92915050565b5f61034284848461078a565b6001600160a01b0384165f908152600260209081526040808320338452909152902054828110156103cb5760405162461bcd60e51b815260206004820152602860248201527f45524332303a207472616e7366657220616d6f756e74206578636565647320616044820152676c6c6f77616e636560c01b60648201526084015b60405180910390fd5b6103d88533858403610666565b506001949350505050565b335f8181526002602090815260408083206001600160a01b0387168452909152812054909161032c918590610419908690610d82565b610666565b335f9081526006602052604090205460ff1615156001146104815760405162461bcd60e51b815260206004820152601d60248201527f796f7520617265206e6f7420617070726f7665642020746f206d696e7400000060448201526064016103c2565b61048b8282610957565b5050565b610497610a33565b6104a05f610a8c565b565b60606005805461029f90610d36565b335f9081526006602052604090205460ff1615156001146105145760405162461bcd60e51b815260206004820152601d60248201527f796f7520617265206e6f7420617070726f7665642020746f206275726e00000060448201526064016103c2565b61048b8282610adb565b335f9081526002602090815260408083206001600160a01b03861684529091528120548281101561059f5760405162461bcd60e51b815260206004820152602560248201527f45524332303a2064656372656173656420616c6c6f77616e63652062656c6f77604482015264207a65726f60d81b60648201526084016103c2565b6105ac3385858403610666565b5060019392505050565b5f61032c33848461078a565b6105ca610a33565b6001600160a01b03165f908152600660205260409020805460ff19166001179055565b6105f5610a33565b6001600160a01b03811661065a5760405162461bcd60e51b815260206004820152602660248201527f4f776e61626c653a206e6577206f776e657220697320746865207a65726f206160448201526564647265737360d01b60648201526084016103c2565b61066381610a8c565b50565b6001600160a01b0383166106c85760405162461bcd60e51b8152602060048201526024808201527f45524332303a20617070726f76652066726f6d20746865207a65726f206164646044820152637265737360e01b60648201526084016103c2565b6001600160a01b0382166107295760405162461bcd60e51b815260206004820152602260248201527f45524332303a20617070726f766520746f20746865207a65726f206164647265604482015261737360f01b60648201526084016103c2565b6001600160a01b038381165f8181526002602090815260408083209487168084529482529182902085905590518481527f8c5be1e5ebec7d5bd14f71427d1e84f3dd0314c0f7b2291e5b200ac8c7c3b92591015b60405180910390a3505050565b6001600160a01b0383166107ee5760405162461bcd60e51b815260206004820152602560248201527f45524332303a207472616e736665722066726f6d20746865207a65726f206164604482015264647265737360d81b60648201526084016103c2565b6001600160a01b0382166108505760405162461bcd60e51b815260206004820152602360248201527f45524332303a207472616e7366657220746f20746865207a65726f206164647260448201526265737360e81b60648201526084016103c2565b6001600160a01b0383165f90815260016020526040902054818110156108c75760405162461bcd60e51b815260206004820152602660248201527f45524332303a207472616e7366657220616d6f756e7420657863656564732062604482015265616c616e636560d01b60648201526084016103c2565b6001600160a01b038085165f908152600160205260408082208585039055918516815290812080548492906108fd908490610d82565b92505081905550826001600160a01b0316846001600160a01b03167fddf252ad1be2c89b69c2b068fc378daa952ba7f163c4a11628f55a4df523b3ef8460405161094991815260200190565b60405180910390a350505050565b6001600160a01b0382166109ad5760405162461bcd60e51b815260206004820152601f60248201527f45524332303a206d696e7420746f20746865207a65726f20616464726573730060448201526064016103c2565b8060035f8282546109be9190610d82565b90915550506001600160a01b0382165f90815260016020526040812080548392906109ea908490610d82565b90915550506040518181526001600160a01b038316905f907fddf252ad1be2c89b69c2b068fc378daa952ba7f163c4a11628f55a4df523b3ef9060200160405180910390a35050565b5f546001600160a01b031633146104a05760405162461bcd60e51b815260206004820181905260248201527f4f776e61626c653a2063616c6c6572206973206e6f7420746865206f776e657260448201526064016103c2565b5f80546001600160a01b038381166001600160a01b0319831681178455604051919092169283917f8be0079c531659141344cd1fd0a4f28419497f9722a3daafe3b4186f6b6457e09190a35050565b6001600160a01b038216610b3b5760405162461bcd60e51b815260206004820152602160248201527f45524332303a206275726e2066726f6d20746865207a65726f206164647265736044820152607360f81b60648201526084016103c2565b6001600160a01b0382165f9081526001602052604090205481811015610bae5760405162461bcd60e51b815260206004820152602260248201527f45524332303a206275726e20616d6f756e7420657863656564732062616c616e604482015261636560f01b60648201526084016103c2565b6001600160a01b0383165f908152600160205260408120838303905560038054849290610bdc908490610d95565b90915550506040518281525f906001600160a01b038516907fddf252ad1be2c89b69c2b068fc378daa952ba7f163c4a11628f55a4df523b3ef9060200161077d565b5f6020808352835180828501525f5b81811015610c4957858101830151858201604001528201610c2d565b505f604082860101526040601f19601f8301168501019250505092915050565b80356001600160a01b0381168114610c7f575f80fd5b919050565b5f8060408385031215610c95575f80fd5b610c9e83610c69565b946020939093013593505050565b5f805f60608486031215610cbe575f80fd5b610cc784610c69565b9250610cd560208501610c69565b9150604084013590509250925092565b5f60208284031215610cf5575f80fd5b610cfe82610c69565b9392505050565b5f8060408385031215610d16575f80fd5b610d1f83610c69565b9150610d2d60208401610c69565b90509250929050565b600181811c90821680610d4a57607f821691505b602082108103610d6857634e487b7160e01b5f52602260045260245ffd5b50919050565b634e487b7160e01b5f52601160045260245ffd5b8082018082111561033057610330610d6e565b8181038181111561033057610330610d6e56fea26469706673582212204dc077ce334aefc2d8de1775e76b326bee5938e575cc1d3c968ce5e44936de5e64736f6c63430008140033",
					"opcodes": "PUSH1 0x80 PUSH1 0x40 MSTORE CALLVALUE DUP1 ISZERO PUSH3 0x10 JUMPI PUSH0 DUP1 REVERT JUMPDEST POP PUSH1 0x40 MLOAD PUSH3 0x123B CODESIZE SUB DUP1 PUSH3 0x123B DUP4 CODECOPY DUP2 ADD PUSH1 0x40 DUP2 SWAP1 MSTORE PUSH3 0x33 SWAP2 PUSH3 0x268 JUMP JUMPDEST PUSH3 0x3E CALLER PUSH3 0x71 JUMP JUMPDEST PUSH1 0x4 PUSH3 0x4C DUP5 DUP3 PUSH3 0x361 JUMP JUMPDEST POP PUSH1 0x5 PUSH3 0x5B DUP4 DUP3 PUSH3 0x361 JUMP JUMPDEST POP PUSH3 0x68 CALLER DUP3 PUSH3 0xC0 JUMP JUMPDEST POP POP POP PUSH3 0x44F JUMP JUMPDEST PUSH0 DUP1 SLOAD PUSH1 0x1 PUSH1 0x1 PUSH1 0xA0 SHL SUB DUP4 DUP2 AND PUSH1 0x1 PUSH1 0x1 PUSH1 0xA0 SHL SUB NOT DUP4 AND DUP2 OR DUP5 SSTORE PUSH1 0x40 MLOAD SWAP2 SWAP1 SWAP3 AND SWAP3 DUP4 SWAP2 PUSH32 0x8BE0079C531659141344CD1FD0A4F28419497F9722A3DAAFE3B4186F6B6457E0 SWAP2 SWAP1 LOG3 POP POP JUMP JUMPDEST PUSH1 0x1 PUSH1 0x1 PUSH1 0xA0 SHL SUB DUP3 AND PUSH3 0x11B JUMPI PUSH1 0x40 MLOAD PUSH3 0x461BCD PUSH1 0xE5 SHL DUP2 MSTORE PUSH1 0x20 PUSH1 0x4 DUP3 ADD MSTORE PUSH1 0x1F PUSH1 0x24 DUP3 ADD MSTORE PUSH32 0x45524332303A206D696E7420746F20746865207A65726F206164647265737300 PUSH1 0x44 DUP3 ADD MSTORE PUSH1 0x64 ADD PUSH1 0x40 MLOAD DUP1 SWAP2 SUB SWAP1 REVERT JUMPDEST DUP1 PUSH1 0x3 PUSH0 DUP3 DUP3 SLOAD PUSH3 0x12E SWAP2 SWAP1 PUSH3 0x429 JUMP JUMPDEST SWAP1 SWAP2 SSTORE POP POP PUSH1 0x1 PUSH1 0x1 PUSH1 0xA0 SHL SUB DUP3 AND PUSH0 SWAP1 DUP2 MSTORE PUSH1 0x1 PUSH1 0x20 MSTORE PUSH1 0x40 DUP2 KECCAK256 DUP1 SLOAD DUP4 SWAP3 SWAP1 PUSH3 0x15C SWAP1 DUP5 SWAP1 PUSH3 0x429 JUMP JUMPDEST SWAP1 SWAP2 SSTORE POP POP PUSH1 0x40 MLOAD DUP2 DUP2 MSTORE PUSH1 0x1 PUSH1 0x1 PUSH1 0xA0 SHL SUB DUP4 AND SWAP1 PUSH0 SWAP1 PUSH32 0xDDF252AD1BE2C89B69C2B068FC378DAA952BA7F163C4A11628F55A4DF523B3EF SWAP1 PUSH1 0x20 ADD PUSH1 0x40 MLOAD DUP1 SWAP2 SUB SWAP1 LOG3 POP POP JUMP JUMPDEST POP POP POP JUMP JUMPDEST PUSH4 0x4E487B71 PUSH1 0xE0 SHL PUSH0 MSTORE PUSH1 0x41 PUSH1 0x4 MSTORE PUSH1 0x24 PUSH0 REVERT JUMPDEST PUSH0 DUP3 PUSH1 0x1F DUP4 ADD SLT PUSH3 0x1CE JUMPI PUSH0 DUP1 REVERT JUMPDEST DUP2 MLOAD PUSH1 0x1 PUSH1 0x1 PUSH1 0x40 SHL SUB DUP1 DUP3 GT ISZERO PUSH3 0x1EB JUMPI PUSH3 0x1EB PUSH3 0x1AA JUMP JUMPDEST PUSH1 0x40 MLOAD PUSH1 0x1F DUP4 ADD PUSH1 0x1F NOT SWAP1 DUP2 AND PUSH1 0x3F ADD AND DUP2 ADD SWAP1 DUP3 DUP3 GT DUP2 DUP4 LT OR ISZERO PUSH3 0x216 JUMPI PUSH3 0x216 PUSH3 0x1AA JUMP JUMPDEST DUP2 PUSH1 0x40 MSTORE DUP4 DUP2 MSTORE PUSH1 0x20 SWAP3 POP DUP7 DUP4 DUP6 DUP9 ADD ADD GT ISZERO PUSH3 0x232 JUMPI PUSH0 DUP1 REVERT JUMPDEST PUSH0 SWAP2 POP JUMPDEST DUP4 DUP3 LT ISZERO PUSH3 0x255 JUMPI DUP6 DUP3 ADD DUP4 ADD MLOAD DUP2 DUP4 ADD DUP5 ADD MSTORE SWAP1 DUP3 ADD SWAP1 PUSH3 0x236 JUMP JUMPDEST PUSH0 SWAP4 DUP2 ADD SWAP1 SWAP3 ADD SWAP3 SWAP1 SWAP3 MSTORE SWAP5 SWAP4 POP POP POP POP JUMP JUMPDEST PUSH0 DUP1 PUSH0 PUSH1 0x60 DUP5 DUP7 SUB SLT ISZERO PUSH3 0x27B JUMPI PUSH0 DUP1 REVERT JUMPDEST DUP4 MLOAD PUSH1 0x1 PUSH1 0x1 PUSH1 0x40 SHL SUB DUP1 DUP3 GT ISZERO PUSH3 0x292 JUMPI PUSH0 DUP1 REVERT JUMPDEST PUSH3 0x2A0 DUP8 DUP4 DUP9 ADD PUSH3 0x1BE JUMP JUMPDEST SWAP5 POP PUSH1 0x20 DUP7 ADD MLOAD SWAP2 POP DUP1 DUP3 GT ISZERO PUSH3 0x2B6 JUMPI PUSH0 DUP1 REVERT JUMPDEST POP PUSH3 0x2C5 DUP7 DUP3 DUP8 ADD PUSH3 0x1BE JUMP JUMPDEST SWAP3 POP POP PUSH1 0x40 DUP5 ADD MLOAD SWAP1 POP SWAP3 POP SWAP3 POP SWAP3 JUMP JUMPDEST PUSH1 0x1 DUP2 DUP2 SHR SWAP1 DUP3 AND DUP1 PUSH3 0x2EB JUMPI PUSH1 0x7F DUP3 AND SWAP2 POP JUMPDEST PUSH1 0x20 DUP3 LT DUP2 SUB PUSH3 0x30A JUMPI PUSH4 0x4E487B71 PUSH1 0xE0 SHL PUSH0 MSTORE PUSH1 0x22 PUSH1 0x4 MSTORE PUSH1 0x24 PUSH0 REVERT JUMPDEST POP SWAP2 SWAP1 POP JUMP JUMPDEST PUSH1 0x1F DUP3 GT ISZERO PUSH3 0x1A5 JUMPI PUSH0 DUP2 DUP2 MSTORE PUSH1 0x20 DUP2 KECCAK256 PUSH1 0x1F DUP6 ADD PUSH1 0x5 SHR DUP2 ADD PUSH1 0x20 DUP7 LT ISZERO PUSH3 0x338 JUMPI POP DUP1 JUMPDEST PUSH1 0x1F DUP6 ADD PUSH1 0x5 SHR DUP3 ADD SWAP2 POP JUMPDEST DUP2 DUP2 LT ISZERO PUSH3 0x359 JUMPI DUP3 DUP2 SSTORE PUSH1 0x1 ADD PUSH3 0x344 JUMP JUMPDEST POP POP POP POP POP POP JUMP JUMPDEST DUP2 MLOAD PUSH1 0x1 PUSH1 0x1 PUSH1 0x40 SHL SUB DUP2 GT ISZERO PUSH3 0x37D JUMPI PUSH3 0x37D PUSH3 0x1AA JUMP JUMPDEST PUSH3 0x395 DUP2 PUSH3 0x38E DUP5 SLOAD PUSH3 0x2D6 JUMP JUMPDEST DUP5 PUSH3 0x310 JUMP JUMPDEST PUSH1 0x20 DUP1 PUSH1 0x1F DUP4 GT PUSH1 0x1 DUP2 EQ PUSH3 0x3CB JUMPI PUSH0 DUP5 ISZERO PUSH3 0x3B3 JUMPI POP DUP6 DUP4 ADD MLOAD JUMPDEST PUSH0 NOT PUSH1 0x3 DUP7 SWAP1 SHL SHR NOT AND PUSH1 0x1 DUP6 SWAP1 SHL OR DUP6 SSTORE PUSH3 0x359 JUMP JUMPDEST PUSH0 DUP6 DUP2 MSTORE PUSH1 0x20 DUP2 KECCAK256 PUSH1 0x1F NOT DUP7 AND SWAP2 JUMPDEST DUP3 DUP2 LT ISZERO PUSH3 0x3FB JUMPI DUP9 DUP7 ADD MLOAD DUP3 SSTORE SWAP5 DUP5 ADD SWAP5 PUSH1 0x1 SWAP1 SWAP2 ADD SWAP1 DUP5 ADD PUSH3 0x3DA JUMP JUMPDEST POP DUP6 DUP3 LT ISZERO PUSH3 0x419 JUMPI DUP8 DUP6 ADD MLOAD PUSH0 NOT PUSH1 0x3 DUP9 SWAP1 SHL PUSH1 0xF8 AND SHR NOT AND DUP2 SSTORE JUMPDEST POP POP POP POP POP PUSH1 0x1 SWAP1 DUP2 SHL ADD SWAP1 SSTORE POP JUMP JUMPDEST DUP1 DUP3 ADD DUP1 DUP3 GT ISZERO PUSH3 0x449 JUMPI PUSH4 0x4E487B71 PUSH1 0xE0 SHL PUSH0 MSTORE PUSH1 0x11 PUSH1 0x4 MSTORE PUSH1 0x24 PUSH0 REVERT JUMPDEST SWAP3 SWAP2 POP POP JUMP JUMPDEST PUSH2 0xDDE DUP1 PUSH3 0x45D PUSH0 CODECOPY PUSH0 RETURN INVALID PUSH1 0x80 PUSH1 0x40 MSTORE CALLVALUE DUP1 ISZERO PUSH2 0xF JUMPI PUSH0 DUP1 REVERT JUMPDEST POP PUSH1 0x4 CALLDATASIZE LT PUSH2 0x106 JUMPI PUSH0 CALLDATALOAD PUSH1 0xE0 SHR DUP1 PUSH4 0x715018A6 GT PUSH2 0x9E JUMPI DUP1 PUSH4 0xA457C2D7 GT PUSH2 0x6E JUMPI DUP1 PUSH4 0xA457C2D7 EQ PUSH2 0x20C JUMPI DUP1 PUSH4 0xA9059CBB EQ PUSH2 0x21F JUMPI DUP1 PUSH4 0xB6B285D9 EQ PUSH2 0x232 JUMPI DUP1 PUSH4 0xDD62ED3E EQ PUSH2 0x245 JUMPI DUP1 PUSH4 0xF2FDE38B EQ PUSH2 0x27D JUMPI PUSH0 DUP1 REVERT JUMPDEST DUP1 PUSH4 0x715018A6 EQ PUSH2 0x1CF JUMPI DUP1 PUSH4 0x8DA5CB5B EQ PUSH2 0x1D7 JUMPI DUP1 PUSH4 0x95D89B41 EQ PUSH2 0x1F1 JUMPI DUP1 PUSH4 0x9DC29FAC EQ PUSH2 0x1F9 JUMPI PUSH0 DUP1 REVERT JUMPDEST DUP1 PUSH4 0x313CE567 GT PUSH2 0xD9 JUMPI DUP1 PUSH4 0x313CE567 EQ PUSH2 0x170 JUMPI DUP1 PUSH4 0x39509351 EQ PUSH2 0x17F JUMPI DUP1 PUSH4 0x40C10F19 EQ PUSH2 0x192 JUMPI DUP1 PUSH4 0x70A08231 EQ PUSH2 0x1A7 JUMPI PUSH0 DUP1 REVERT JUMPDEST DUP1 PUSH4 0x6FDDE03 EQ PUSH2 0x10A JUMPI DUP1 PUSH4 0x95EA7B3 EQ PUSH2 0x128 JUMPI DUP1 PUSH4 0x18160DDD EQ PUSH2 0x14B JUMPI DUP1 PUSH4 0x23B872DD EQ PUSH2 0x15D JUMPI JUMPDEST PUSH0 DUP1 REVERT JUMPDEST PUSH2 0x112 PUSH2 0x290 JUMP JUMPDEST PUSH1 0x40 MLOAD PUSH2 0x11F SWAP2 SWAP1 PUSH2 0xC1E JUMP JUMPDEST PUSH1 0x40 MLOAD DUP1 SWAP2 SUB SWAP1 RETURN JUMPDEST PUSH2 0x13B PUSH2 0x136 CALLDATASIZE PUSH1 0x4 PUSH2 0xC84 JUMP JUMPDEST PUSH2 0x320 JUMP JUMPDEST PUSH1 0x40 MLOAD SWAP1 ISZERO ISZERO DUP2 MSTORE PUSH1 0x20 ADD PUSH2 0x11F JUMP JUMPDEST PUSH1 0x3 SLOAD JUMPDEST PUSH1 0x40 MLOAD SWAP1 DUP2 MSTORE PUSH1 0x20 ADD PUSH2 0x11F JUMP JUMPDEST PUSH2 0x13B PUSH2 0x16B CALLDATASIZE PUSH1 0x4 PUSH2 0xCAC JUMP JUMPDEST PUSH2 0x336 JUMP JUMPDEST PUSH1 0x40 MLOAD PUSH1 0x12 DUP2 MSTORE PUSH1 0x20 ADD PUSH2 0x11F JUMP JUMPDEST PUSH2 0x13B PUSH2 0x18D CALLDATASIZE PUSH1 0x4 PUSH2 0xC84 JUMP JUMPDEST PUSH2 0x3E3 JUMP JUMPDEST PUSH2 0x1A5 PUSH2 0x1A0 CALLDATASIZE PUSH1 0x4 PUSH2 0xC84 JUMP JUMPDEST PUSH2 0x41E JUMP JUMPDEST STOP JUMPDEST PUSH2 0x14F PUSH2 0x1B5 CALLDATASIZE PUSH1 0x4 PUSH2 0xCE5 JUMP JUMPDEST PUSH1 0x1 PUSH1 0x1 PUSH1 0xA0 SHL SUB AND PUSH0 SWAP1 DUP2 MSTORE PUSH1 0x1 PUSH1 0x20 MSTORE PUSH1 0x40 SWAP1 KECCAK256 SLOAD SWAP1 JUMP JUMPDEST PUSH2 0x1A5 PUSH2 0x48F JUMP JUMPDEST PUSH0 SLOAD PUSH1 0x40 MLOAD PUSH1 0x1 PUSH1 0x1 PUSH1 0xA0 SHL SUB SWAP1 SWAP2 AND DUP2 MSTORE PUSH1 0x20 ADD PUSH2 0x11F JUMP JUMPDEST PUSH2 0x112 PUSH2 0x4A2 JUMP JUMPDEST PUSH2 0x1A5 PUSH2 0x207 CALLDATASIZE PUSH1 0x4 PUSH2 0xC84 JUMP JUMPDEST PUSH2 0x4B1 JUMP JUMPDEST PUSH2 0x13B PUSH2 0x21A CALLDATASIZE PUSH1 0x4 PUSH2 0xC84 JUMP JUMPDEST PUSH2 0x51E JUMP JUMPDEST PUSH2 0x13B PUSH2 0x22D CALLDATASIZE PUSH1 0x4 PUSH2 0xC84 JUMP JUMPDEST PUSH2 0x5B6 JUMP JUMPDEST PUSH2 0x1A5 PUSH2 0x240 CALLDATASIZE PUSH1 0x4 PUSH2 0xCE5 JUMP JUMPDEST PUSH2 0x5C2 JUMP JUMPDEST PUSH2 0x14F PUSH2 0x253 CALLDATASIZE PUSH1 0x4 PUSH2 0xD05 JUMP JUMPDEST PUSH1 0x1 PUSH1 0x1 PUSH1 0xA0 SHL SUB SWAP2 DUP3 AND PUSH0 SWAP1 DUP2 MSTORE PUSH1 0x2 PUSH1 0x20 SWAP1 DUP2 MSTORE PUSH1 0x40 DUP1 DUP4 KECCAK256 SWAP4 SWAP1 SWAP5 AND DUP3 MSTORE SWAP2 SWAP1 SWAP2 MSTORE KECCAK256 SLOAD SWAP1 JUMP JUMPDEST PUSH2 0x1A5 PUSH2 0x28B CALLDATASIZE PUSH1 0x4 PUSH2 0xCE5 JUMP JUMPDEST PUSH2 0x5ED JUMP JUMPDEST PUSH1 0x60 PUSH1 0x4 DUP1 SLOAD PUSH2 0x29F SWAP1 PUSH2 0xD36 JUMP JUMPDEST DUP1 PUSH1 0x1F ADD PUSH1 0x20 DUP1 SWAP2 DIV MUL PUSH1 0x20 ADD PUSH1 0x40 MLOAD SWAP1 DUP2 ADD PUSH1 0x40 MSTORE DUP1 SWAP3 SWAP2 SWAP1 DUP2 DUP2 MSTORE PUSH1 0x20 ADD DUP3 DUP1 SLOAD PUSH2 0x2CB SWAP1 PUSH2 0xD36 JUMP JUMPDEST DUP1 ISZERO PUSH2 0x316 JUMPI DUP1 PUSH1 0x1F LT PUSH2 0x2ED JUMPI PUSH2 0x100 DUP1 DUP4 SLOAD DIV MUL DUP4 MSTORE SWAP2 PUSH1 0x20 ADD SWAP2 PUSH2 0x316 JUMP JUMPDEST DUP3 ADD SWAP2 SWAP1 PUSH0 MSTORE PUSH1 0x20 PUSH0 KECCAK256 SWAP1 JUMPDEST DUP2 SLOAD DUP2 MSTORE SWAP1 PUSH1 0x1 ADD SWAP1 PUSH1 0x20 ADD DUP1 DUP4 GT PUSH2 0x2F9 JUMPI DUP3 SWAP1 SUB PUSH1 0x1F AND DUP3 ADD SWAP2 JUMPDEST POP POP POP POP POP SWAP1 POP SWAP1 JUMP JUMPDEST PUSH0 PUSH2 0x32C CALLER DUP5 DUP5 PUSH2 0x666 JUMP JUMPDEST POP PUSH1 0x1 JUMPDEST SWAP3 SWAP2 POP POP JUMP JUMPDEST PUSH0 PUSH2 0x342 DUP5 DUP5 DUP5 PUSH2 0x78A JUMP JUMPDEST PUSH1 0x1 PUSH1 0x1 PUSH1 0xA0 SHL SUB DUP5 AND PUSH0 SWAP1 DUP2 MSTORE PUSH1 0x2 PUSH1 0x20 SWAP1 DUP2 MSTORE PUSH1 0x40 DUP1 DUP4 KECCAK256 CALLER DUP5 MSTORE SWAP1 SWAP2 MSTORE SWAP1 KECCAK256 SLOAD DUP3 DUP2 LT ISZERO PUSH2 0x3CB JUMPI PUSH1 0x40 MLOAD PUSH3 0x461BCD PUSH1 0xE5 SHL DUP2 MSTORE PUSH1 0x20 PUSH1 0x4 DUP3 ADD MSTORE PUSH1 0x28 PUSH1 0x24 DUP3 ADD MSTORE PUSH32 0x45524332303A207472616E7366657220616D6F756E7420657863656564732061 PUSH1 0x44 DUP3 ADD MSTORE PUSH8 0x6C6C6F77616E6365 PUSH1 0xC0 SHL PUSH1 0x64 DUP3 ADD MSTORE PUSH1 0x84 ADD JUMPDEST PUSH1 0x40 MLOAD DUP1 SWAP2 SUB SWAP1 REVERT JUMPDEST PUSH2 0x3D8 DUP6 CALLER DUP6 DUP5 SUB PUSH2 0x666 JUMP JUMPDEST POP PUSH1 0x1 SWAP5 SWAP4 POP POP POP POP JUMP JUMPDEST CALLER PUSH0 DUP2 DUP2 MSTORE PUSH1 0x2 PUSH1 0x20 SWAP1 DUP2 MSTORE PUSH1 0x40 DUP1 DUP4 KECCAK256 PUSH1 0x1 PUSH1 0x1 PUSH1 0xA0 SHL SUB DUP8 AND DUP5 MSTORE SWAP1 SWAP2 MSTORE DUP2 KECCAK256 SLOAD SWAP1 SWAP2 PUSH2 0x32C SWAP2 DUP6 SWAP1 PUSH2 0x419 SWAP1 DUP7 SWAP1 PUSH2 0xD82 JUMP JUMPDEST PUSH2 0x666 JUMP JUMPDEST CALLER PUSH0 SWAP1 DUP2 MSTORE PUSH1 0x6 PUSH1 0x20 MSTORE PUSH1 0x40 SWAP1 KECCAK256 SLOAD PUSH1 0xFF AND ISZERO ISZERO PUSH1 0x1 EQ PUSH2 0x481 JUMPI PUSH1 0x40 MLOAD PUSH3 0x461BCD PUSH1 0xE5 SHL DUP2 MSTORE PUSH1 0x20 PUSH1 0x4 DUP3 ADD MSTORE PUSH1 0x1D PUSH1 0x24 DUP3 ADD MSTORE PUSH32 0x796F7520617265206E6F7420617070726F7665642020746F206D696E74000000 PUSH1 0x44 DUP3 ADD MSTORE PUSH1 0x64 ADD PUSH2 0x3C2 JUMP JUMPDEST PUSH2 0x48B DUP3 DUP3 PUSH2 0x957 JUMP JUMPDEST POP POP JUMP JUMPDEST PUSH2 0x497 PUSH2 0xA33 JUMP JUMPDEST PUSH2 0x4A0 PUSH0 PUSH2 0xA8C JUMP JUMPDEST JUMP JUMPDEST PUSH1 0x60 PUSH1 0x5 DUP1 SLOAD PUSH2 0x29F SWAP1 PUSH2 0xD36 JUMP JUMPDEST CALLER PUSH0 SWAP1 DUP2 MSTORE PUSH1 0x6 PUSH1 0x20 MSTORE PUSH1 0x40 SWAP1 KECCAK256 SLOAD PUSH1 0xFF AND ISZERO ISZERO PUSH1 0x1 EQ PUSH2 0x514 JUMPI PUSH1 0x40 MLOAD PUSH3 0x461BCD PUSH1 0xE5 SHL DUP2 MSTORE PUSH1 0x20 PUSH1 0x4 DUP3 ADD MSTORE PUSH1 0x1D PUSH1 0x24 DUP3 ADD MSTORE PUSH32 0x796F7520617265206E6F7420617070726F7665642020746F206275726E000000 PUSH1 0x44 DUP3 ADD MSTORE PUSH1 0x64 ADD PUSH2 0x3C2 JUMP JUMPDEST PUSH2 0x48B DUP3 DUP3 PUSH2 0xADB JUMP JUMPDEST CALLER PUSH0 SWAP1 DUP2 MSTORE PUSH1 0x2 PUSH1 0x20 SWAP1 DUP2 MSTORE PUSH1 0x40 DUP1 DUP4 KECCAK256 PUSH1 0x1 PUSH1 0x1 PUSH1 0xA0 SHL SUB DUP7 AND DUP5 MSTORE SWAP1 SWAP2 MSTORE DUP2 KECCAK256 SLOAD DUP3 DUP2 LT ISZERO PUSH2 0x59F JUMPI PUSH1 0x40 MLOAD PUSH3 0x461BCD PUSH1 0xE5 SHL DUP2 MSTORE PUSH1 0x20 PUSH1 0x4 DUP3 ADD MSTORE PUSH1 0x25 PUSH1 0x24 DUP3 ADD MSTORE PUSH32 0x45524332303A2064656372656173656420616C6C6F77616E63652062656C6F77 PUSH1 0x44 DUP3 ADD MSTORE PUSH5 0x207A65726F PUSH1 0xD8 SHL PUSH1 0x64 DUP3 ADD MSTORE PUSH1 0x84 ADD PUSH2 0x3C2 JUMP JUMPDEST PUSH2 0x5AC CALLER DUP6 DUP6 DUP5 SUB PUSH2 0x666 JUMP JUMPDEST POP PUSH1 0x1 SWAP4 SWAP3 POP POP POP JUMP JUMPDEST PUSH0 PUSH2 0x32C CALLER DUP5 DUP5 PUSH2 0x78A JUMP JUMPDEST PUSH2 0x5CA PUSH2 0xA33 JUMP JUMPDEST PUSH1 0x1 PUSH1 0x1 PUSH1 0xA0 SHL SUB AND PUSH0 SWAP1 DUP2 MSTORE PUSH1 0x6 PUSH1 0x20 MSTORE PUSH1 0x40 SWAP1 KECCAK256 DUP1 SLOAD PUSH1 0xFF NOT AND PUSH1 0x1 OR SWAP1 SSTORE JUMP JUMPDEST PUSH2 0x5F5 PUSH2 0xA33 JUMP JUMPDEST PUSH1 0x1 PUSH1 0x1 PUSH1 0xA0 SHL SUB DUP2 AND PUSH2 0x65A JUMPI PUSH1 0x40 MLOAD PUSH3 0x461BCD PUSH1 0xE5 SHL DUP2 MSTORE PUSH1 0x20 PUSH1 0x4 DUP3 ADD MSTORE PUSH1 0x26 PUSH1 0x24 DUP3 ADD MSTORE PUSH32 0x4F776E61626C653A206E6577206F776E657220697320746865207A65726F2061 PUSH1 0x44 DUP3 ADD MSTORE PUSH6 0x646472657373 PUSH1 0xD0 SHL PUSH1 0x64 DUP3 ADD MSTORE PUSH1 0x84 ADD PUSH2 0x3C2 JUMP JUMPDEST PUSH2 0x663 DUP2 PUSH2 0xA8C JUMP JUMPDEST POP JUMP JUMPDEST PUSH1 0x1 PUSH1 0x1 PUSH1 0xA0 SHL SUB DUP4 AND PUSH2 0x6C8 JUMPI PUSH1 0x40 MLOAD PUSH3 0x461BCD PUSH1 0xE5 SHL DUP2 MSTORE PUSH1 0x20 PUSH1 0x4 DUP3 ADD MSTORE PUSH1 0x24 DUP1 DUP3 ADD MSTORE PUSH32 0x45524332303A20617070726F76652066726F6D20746865207A65726F20616464 PUSH1 0x44 DUP3 ADD MSTORE PUSH4 0x72657373 PUSH1 0xE0 SHL PUSH1 0x64 DUP3 ADD MSTORE PUSH1 0x84 ADD PUSH2 0x3C2 JUMP JUMPDEST PUSH1 0x1 PUSH1 0x1 PUSH1 0xA0 SHL SUB DUP3 AND PUSH2 0x729 JUMPI PUSH1 0x40 MLOAD PUSH3 0x461BCD PUSH1 0xE5 SHL DUP2 MSTORE PUSH1 0x20 PUSH1 0x4 DUP3 ADD MSTORE PUSH1 0x22 PUSH1 0x24 DUP3 ADD MSTORE PUSH32 0x45524332303A20617070726F766520746F20746865207A65726F206164647265 PUSH1 0x44 DUP3 ADD MSTORE PUSH2 0x7373 PUSH1 0xF0 SHL PUSH1 0x64 DUP3 ADD MSTORE PUSH1 0x84 ADD PUSH2 0x3C2 JUMP JUMPDEST PUSH1 0x1 PUSH1 0x1 PUSH1 0xA0 SHL SUB DUP4 DUP2 AND PUSH0 DUP2 DUP2 MSTORE PUSH1 0x2 PUSH1 0x20 SWAP1 DUP2 MSTORE PUSH1 0x40 DUP1 DUP4 KECCAK256 SWAP5 DUP8 AND DUP1 DUP5 MSTORE SWAP5 DUP3 MSTORE SWAP2 DUP3 SWAP1 KECCAK256 DUP6 SWAP1 SSTORE SWAP1 MLOAD DUP5 DUP2 MSTORE PUSH32 0x8C5BE1E5EBEC7D5BD14F71427D1E84F3DD0314C0F7B2291E5B200AC8C7C3B925 SWAP2 ADD JUMPDEST PUSH1 0x40 MLOAD DUP1 SWAP2 SUB SWAP1 LOG3 POP POP POP JUMP JUMPDEST PUSH1 0x1 PUSH1 0x1 PUSH1 0xA0 SHL SUB DUP4 AND PUSH2 0x7EE JUMPI PUSH1 0x40 MLOAD PUSH3 0x461BCD PUSH1 0xE5 SHL DUP2 MSTORE PUSH1 0x20 PUSH1 0x4 DUP3 ADD MSTORE PUSH1 0x25 PUSH1 0x24 DUP3 ADD MSTORE PUSH32 0x45524332303A207472616E736665722066726F6D20746865207A65726F206164 PUSH1 0x44 DUP3 ADD MSTORE PUSH5 0x6472657373 PUSH1 0xD8 SHL PUSH1 0x64 DUP3 ADD MSTORE PUSH1 0x84 ADD PUSH2 0x3C2 JUMP JUMPDEST PUSH1 0x1 PUSH1 0x1 PUSH1 0xA0 SHL SUB DUP3 AND PUSH2 0x850 JUMPI PUSH1 0x40 MLOAD PUSH3 0x461BCD PUSH1 0xE5 SHL DUP2 MSTORE PUSH1 0x20 PUSH1 0x4 DUP3 ADD MSTORE PUSH1 0x23 PUSH1 0x24 DUP3 ADD MSTORE PUSH32 0x45524332303A207472616E7366657220746F20746865207A65726F2061646472 PUSH1 0x44 DUP3 ADD MSTORE PUSH3 0x657373 PUSH1 0xE8 SHL PUSH1 0x64 DUP3 ADD MSTORE PUSH1 0x84 ADD PUSH2 0x3C2 JUMP JUMPDEST PUSH1 0x1 PUSH1 0x1 PUSH1 0xA0 SHL SUB DUP4 AND PUSH0 SWAP1 DUP2 MSTORE PUSH1 0x1 PUSH1 0x20 MSTORE PUSH1 0x40 SWAP1 KECCAK256 SLOAD DUP2 DUP2 LT ISZERO PUSH2 0x8C7 JUMPI PUSH1 0x40 MLOAD PUSH3 0x461BCD PUSH1 0xE5 SHL DUP2 MSTORE PUSH1 0x20 PUSH1 0x4 DUP3 ADD MSTORE PUSH1 0x26 PUSH1 0x24 DUP3 ADD MSTORE PUSH32 0x45524332303A207472616E7366657220616D6F756E7420657863656564732062 PUSH1 0x44 DUP3 ADD MSTORE PUSH6 0x616C616E6365 PUSH1 0xD0 SHL PUSH1 0x64 DUP3 ADD MSTORE PUSH1 0x84 ADD PUSH2 0x3C2 JUMP JUMPDEST PUSH1 0x1 PUSH1 0x1 PUSH1 0xA0 SHL SUB DUP1 DUP6 AND PUSH0 SWAP1 DUP2 MSTORE PUSH1 0x1 PUSH1 0x20 MSTORE PUSH1 0x40 DUP1 DUP3 KECCAK256 DUP6 DUP6 SUB SWAP1 SSTORE SWAP2 DUP6 AND DUP2 MSTORE SWAP1 DUP2 KECCAK256 DUP1 SLOAD DUP5 SWAP3 SWAP1 PUSH2 0x8FD SWAP1 DUP5 SWAP1 PUSH2 0xD82 JUMP JUMPDEST SWAP3 POP POP DUP2 SWAP1 SSTORE POP DUP3 PUSH1 0x1 PUSH1 0x1 PUSH1 0xA0 SHL SUB AND DUP5 PUSH1 0x1 PUSH1 0x1 PUSH1 0xA0 SHL SUB AND PUSH32 0xDDF252AD1BE2C89B69C2B068FC378DAA952BA7F163C4A11628F55A4DF523B3EF DUP5 PUSH1 0x40 MLOAD PUSH2 0x949 SWAP2 DUP2 MSTORE PUSH1 0x20 ADD SWAP1 JUMP JUMPDEST PUSH1 0x40 MLOAD DUP1 SWAP2 SUB SWAP1 LOG3 POP POP POP POP JUMP JUMPDEST PUSH1 0x1 PUSH1 0x1 PUSH1 0xA0 SHL SUB DUP3 AND PUSH2 0x9AD JUMPI PUSH1 0x40 MLOAD PUSH3 0x461BCD PUSH1 0xE5 SHL DUP2 MSTORE PUSH1 0x20 PUSH1 0x4 DUP3 ADD MSTORE PUSH1 0x1F PUSH1 0x24 DUP3 ADD MSTORE PUSH32 0x45524332303A206D696E7420746F20746865207A65726F206164647265737300 PUSH1 0x44 DUP3 ADD MSTORE PUSH1 0x64 ADD PUSH2 0x3C2 JUMP JUMPDEST DUP1 PUSH1 0x3 PUSH0 DUP3 DUP3 SLOAD PUSH2 0x9BE SWAP2 SWAP1 PUSH2 0xD82 JUMP JUMPDEST SWAP1 SWAP2 SSTORE POP POP PUSH1 0x1 PUSH1 0x1 PUSH1 0xA0 SHL SUB DUP3 AND PUSH0 SWAP1 DUP2 MSTORE PUSH1 0x1 PUSH1 0x20 MSTORE PUSH1 0x40 DUP2 KECCAK256 DUP1 SLOAD DUP4 SWAP3 SWAP1 PUSH2 0x9EA SWAP1 DUP5 SWAP1 PUSH2 0xD82 JUMP JUMPDEST SWAP1 SWAP2 SSTORE POP POP PUSH1 0x40 MLOAD DUP2 DUP2 MSTORE PUSH1 0x1 PUSH1 0x1 PUSH1 0xA0 SHL SUB DUP4 AND SWAP1 PUSH0 SWAP1 PUSH32 0xDDF252AD1BE2C89B69C2B068FC378DAA952BA7F163C4A11628F55A4DF523B3EF SWAP1 PUSH1 0x20 ADD PUSH1 0x40 MLOAD DUP1 SWAP2 SUB SWAP1 LOG3 POP POP JUMP JUMPDEST PUSH0 SLOAD PUSH1 0x1 PUSH1 0x1 PUSH1 0xA0 SHL SUB AND CALLER EQ PUSH2 0x4A0 JUMPI PUSH1 0x40 MLOAD PUSH3 0x461BCD PUSH1 0xE5 SHL DUP2 MSTORE PUSH1 0x20 PUSH1 0x4 DUP3 ADD DUP2 SWAP1 MSTORE PUSH1 0x24 DUP3 ADD MSTORE PUSH32 0x4F776E61626C653A2063616C6C6572206973206E6F7420746865206F776E6572 PUSH1 0x44 DUP3 ADD MSTORE PUSH1 0x64 ADD PUSH2 0x3C2 JUMP JUMPDEST PUSH0 DUP1 SLOAD PUSH1 0x1 PUSH1 0x1 PUSH1 0xA0 SHL SUB DUP4 DUP2 AND PUSH1 0x1 PUSH1 0x1 PUSH1 0xA0 SHL SUB NOT DUP4 AND DUP2 OR DUP5 SSTORE PUSH1 0x40 MLOAD SWAP2 SWAP1 SWAP3 AND SWAP3 DUP4 SWAP2 PUSH32 0x8BE0079C531659141344CD1FD0A4F28419497F9722A3DAAFE3B4186F6B6457E0 SWAP2 SWAP1 LOG3 POP POP JUMP JUMPDEST PUSH1 0x1 PUSH1 0x1 PUSH1 0xA0 SHL SUB DUP3 AND PUSH2 0xB3B JUMPI PUSH1 0x40 MLOAD PUSH3 0x461BCD PUSH1 0xE5 SHL DUP2 MSTORE PUSH1 0x20 PUSH1 0x4 DUP3 ADD MSTORE PUSH1 0x21 PUSH1 0x24 DUP3 ADD MSTORE PUSH32 0x45524332303A206275726E2066726F6D20746865207A65726F20616464726573 PUSH1 0x44 DUP3 ADD MSTORE PUSH1 0x73 PUSH1 0xF8 SHL PUSH1 0x64 DUP3 ADD MSTORE PUSH1 0x84 ADD PUSH2 0x3C2 JUMP JUMPDEST PUSH1 0x1 PUSH1 0x1 PUSH1 0xA0 SHL SUB DUP3 AND PUSH0 SWAP1 DUP2 MSTORE PUSH1 0x1 PUSH1 0x20 MSTORE PUSH1 0x40 SWAP1 KECCAK256 SLOAD DUP2 DUP2 LT ISZERO PUSH2 0xBAE JUMPI PUSH1 0x40 MLOAD PUSH3 0x461BCD PUSH1 0xE5 SHL DUP2 MSTORE PUSH1 0x20 PUSH1 0x4 DUP3 ADD MSTORE PUSH1 0x22 PUSH1 0x24 DUP3 ADD MSTORE PUSH32 0x45524332303A206275726E20616D6F756E7420657863656564732062616C616E PUSH1 0x44 DUP3 ADD MSTORE PUSH2 0x6365 PUSH1 0xF0 SHL PUSH1 0x64 DUP3 ADD MSTORE PUSH1 0x84 ADD PUSH2 0x3C2 JUMP JUMPDEST PUSH1 0x1 PUSH1 0x1 PUSH1 0xA0 SHL SUB DUP4 AND PUSH0 SWAP1 DUP2 MSTORE PUSH1 0x1 PUSH1 0x20 MSTORE PUSH1 0x40 DUP2 KECCAK256 DUP4 DUP4 SUB SWAP1 SSTORE PUSH1 0x3 DUP1 SLOAD DUP5 SWAP3 SWAP1 PUSH2 0xBDC SWAP1 DUP5 SWAP1 PUSH2 0xD95 JUMP JUMPDEST SWAP1 SWAP2 SSTORE POP POP PUSH1 0x40 MLOAD DUP3 DUP2 MSTORE PUSH0 SWAP1 PUSH1 0x1 PUSH1 0x1 PUSH1 0xA0 SHL SUB DUP6 AND SWAP1 PUSH32 0xDDF252AD1BE2C89B69C2B068FC378DAA952BA7F163C4A11628F55A4DF523B3EF SWAP1 PUSH1 0x20 ADD PUSH2 0x77D JUMP JUMPDEST PUSH0 PUSH1 0x20 DUP1 DUP4 MSTORE DUP4 MLOAD DUP1 DUP3 DUP6 ADD MSTORE PUSH0 JUMPDEST DUP2 DUP2 LT ISZERO PUSH2 0xC49 JUMPI DUP6 DUP2 ADD DUP4 ADD MLOAD DUP6 DUP3 ADD PUSH1 0x40 ADD MSTORE DUP3 ADD PUSH2 0xC2D JUMP JUMPDEST POP PUSH0 PUSH1 0x40 DUP3 DUP7 ADD ADD MSTORE PUSH1 0x40 PUSH1 0x1F NOT PUSH1 0x1F DUP4 ADD AND DUP6 ADD ADD SWAP3 POP POP POP SWAP3 SWAP2 POP POP JUMP JUMPDEST DUP1 CALLDATALOAD PUSH1 0x1 PUSH1 0x1 PUSH1 0xA0 SHL SUB DUP2 AND DUP2 EQ PUSH2 0xC7F JUMPI PUSH0 DUP1 REVERT JUMPDEST SWAP2 SWAP1 POP JUMP JUMPDEST PUSH0 DUP1 PUSH1 0x40 DUP4 DUP6 SUB SLT ISZERO PUSH2 0xC95 JUMPI PUSH0 DUP1 REVERT JUMPDEST PUSH2 0xC9E DUP4 PUSH2 0xC69 JUMP JUMPDEST SWAP5 PUSH1 0x20 SWAP4 SWAP1 SWAP4 ADD CALLDATALOAD SWAP4 POP POP POP JUMP JUMPDEST PUSH0 DUP1 PUSH0 PUSH1 0x60 DUP5 DUP7 SUB SLT ISZERO PUSH2 0xCBE JUMPI PUSH0 DUP1 REVERT JUMPDEST PUSH2 0xCC7 DUP5 PUSH2 0xC69 JUMP JUMPDEST SWAP3 POP PUSH2 0xCD5 PUSH1 0x20 DUP6 ADD PUSH2 0xC69 JUMP JUMPDEST SWAP2 POP PUSH1 0x40 DUP5 ADD CALLDATALOAD SWAP1 POP SWAP3 POP SWAP3 POP SWAP3 JUMP JUMPDEST PUSH0 PUSH1 0x20 DUP3 DUP5 SUB SLT ISZERO PUSH2 0xCF5 JUMPI PUSH0 DUP1 REVERT JUMPDEST PUSH2 0xCFE DUP3 PUSH2 0xC69 JUMP JUMPDEST SWAP4 SWAP3 POP POP POP JUMP JUMPDEST PUSH0 DUP1 PUSH1 0x40 DUP4 DUP6 SUB SLT ISZERO PUSH2 0xD16 JUMPI PUSH0 DUP1 REVERT JUMPDEST PUSH2 0xD1F DUP4 PUSH2 0xC69 JUMP JUMPDEST SWAP2 POP PUSH2 0xD2D PUSH1 0x20 DUP5 ADD PUSH2 0xC69 JUMP JUMPDEST SWAP1 POP SWAP3 POP SWAP3 SWAP1 POP JUMP JUMPDEST PUSH1 0x1 DUP2 DUP2 SHR SWAP1 DUP3 AND DUP1 PUSH2 0xD4A JUMPI PUSH1 0x7F DUP3 AND SWAP2 POP JUMPDEST PUSH1 0x20 DUP3 LT DUP2 SUB PUSH2 0xD68 JUMPI PUSH4 0x4E487B71 PUSH1 0xE0 SHL PUSH0 MSTORE PUSH1 0x22 PUSH1 0x4 MSTORE PUSH1 0x24 PUSH0 REVERT JUMPDEST POP SWAP2 SWAP1 POP JUMP JUMPDEST PUSH4 0x4E487B71 PUSH1 0xE0 SHL PUSH0 MSTORE PUSH1 0x11 PUSH1 0x4 MSTORE PUSH1 0x24 PUSH0 REVERT JUMPDEST DUP1 DUP3 ADD DUP1 DUP3 GT ISZERO PUSH2 0x330 JUMPI PUSH2 0x330 PUSH2 0xD6E JUMP JUMPDEST DUP2 DUP2 SUB DUP2 DUP2 GT ISZERO PUSH2 0x330 JUMPI PUSH2 0x330 PUSH2 0xD6E JUMP INVALID LOG2 PUSH5 0x6970667358 0x22 SLT KECCAK256 0x4D 0xC0 PUSH24 0xCE334AEFC2D8DE1775E76B326BEE5938E575CC1D3C968CE5 0xE4 0x49 CALLDATASIZE 0xDE 0x5E PUSH5 0x736F6C6343 STOP ADDMOD EQ STOP CALLER "
				},
				"gasEstimates": {
					"creation": {
						"codeDepositCost": "710000",
						"executionCost": "infinite",
						"totalCost": "infinite"
					},
					"external": {
						"allowance(address,address)": "infinite",
						"approve(address,uint256)": "24640",
						"balanceOf(address)": "2623",
						"burn(address,uint256)": "53254",
						"decimals()": "199",
						"decreaseAllowance(address,uint256)": "26907",
						"increaseAllowance(address,uint256)": "infinite",
						"mint(address,uint256)": "infinite",
						"name()": "infinite",
						"owner()": "2344",
						"renounceOwnership()": "infinite",
						"setapprovedcontractaddress(address)": "26836",
						"symbol()": "infinite",
						"totalSupply()": "2348",
						"transfer(address,uint256)": "infinite",
						"transferFrom(address,address,uint256)": "infinite",
						"transferOwnership(address)": "28439"
					},
					"internal": {
						"_afterTokenTransfer(address,address,uint256)": "infinite",
						"_approve(address,address,uint256)": "infinite",
						"_beforeTokenTransfer(address,address,uint256)": "infinite",
						"_burn(address,uint256)": "infinite",
						"_mint(address,uint256)": "infinite",
						"_transfer(address,address,uint256)": "infinite"
					}
				},
				"methodIdentifiers": {
					"allowance(address,address)": "dd62ed3e",
					"approve(address,uint256)": "095ea7b3",
					"balanceOf(address)": "70a08231",
					"burn(address,uint256)": "9dc29fac",
					"decimals()": "313ce567",
					"decreaseAllowance(address,uint256)": "a457c2d7",
					"increaseAllowance(address,uint256)": "39509351",
					"mint(address,uint256)": "40c10f19",
					"name()": "06fdde03",
					"owner()": "8da5cb5b",
					"renounceOwnership()": "715018a6",
					"setapprovedcontractaddress(address)": "b6b285d9",
					"symbol()": "95d89b41",
					"totalSupply()": "18160ddd",
					"transfer(address,uint256)": "a9059cbb",
					"transferFrom(address,address,uint256)": "23b872dd",
					"transferOwnership(address)": "f2fde38b"
				}
			},
			"storageLayout": {
				"storage": [
					{
						"astId": 7,
						"contract": "spoilsToken.sol:SpoilsToken",
						"label": "_owner",
						"offset": 0,
						"slot": "0",
						"type": "t_address"
					},
					{
						"astId": 256,
						"contract": "spoilsToken.sol:SpoilsToken",
						"label": "_balances",
						"offset": 0,
						"slot": "1",
						"type": "t_mapping(t_address,t_uint256)"
					},
					{
						"astId": 262,
						"contract": "spoilsToken.sol:SpoilsToken",
						"label": "_allowances",
						"offset": 0,
						"slot": "2",
						"type": "t_mapping(t_address,t_mapping(t_address,t_uint256))"
					},
					{
						"astId": 264,
						"contract": "spoilsToken.sol:SpoilsToken",
						"label": "_totalSupply",
						"offset": 0,
						"slot": "3",
						"type": "t_uint256"
					},
					{
						"astId": 266,
						"contract": "spoilsToken.sol:SpoilsToken",
						"label": "_name",
						"offset": 0,
						"slot": "4",
						"type": "t_string_storage"
					},
					{
						"astId": 268,
						"contract": "spoilsToken.sol:SpoilsToken",
						"label": "_symbol",
						"offset": 0,
						"slot": "5",
						"type": "t_string_storage"
					},
					{
						"astId": 272,
						"contract": "spoilsToken.sol:SpoilsToken",
						"label": "onlyapprovedcontractaddress",
						"offset": 0,
						"slot": "6",
						"type": "t_mapping(t_address,t_bool)"
					}
				],
				"types": {
					"t_address": {
						"encoding": "inplace",
						"label": "address",
						"numberOfBytes": "20"
					},
					"t_bool": {
						"encoding": "inplace",
						"label": "bool",
						"numberOfBytes": "1"
					},
					"t_mapping(t_address,t_bool)": {
						"encoding": "mapping",
						"key": "t_address",
						"label": "mapping(address => bool)",
						"numberOfBytes": "32",
						"value": "t_bool"
					},
					"t_mapping(t_address,t_mapping(t_address,t_uint256))": {
						"encoding": "mapping",
						"key": "t_address",
						"label": "mapping(address => mapping(address => uint256))",
						"numberOfBytes": "32",
						"value": "t_mapping(t_address,t_uint256)"
					},
					"t_mapping(t_address,t_uint256)": {
						"encoding": "mapping",
						"key": "t_address",
						"label": "mapping(address => uint256)",
						"numberOfBytes": "32",
						"value": "t_uint256"
					},
					"t_string_storage": {
						"encoding": "bytes",
						"label": "string",
						"numberOfBytes": "32"
					},
					"t_uint256": {
						"encoding": "inplace",
						"label": "uint256",
						"numberOfBytes": "32"
					}
				}
			},
			"userdoc": {
				"kind": "user",
				"methods": {},
				"version": 1
			}
		}
	}
}