{
	"chestNft.sol": {
		"KleptoGnomeLootChest": {
			"abi": [
				{
					"inputs": [
						{
							"internalType": "string",
							"name": "name_",
							"type": "string"
						},
						{
							"internalType": "string",
							"name": "symbol_",
							"type": "string"
						},
						{
							"internalType": "address",
							"name": "_owner",
							"type": "address"
						}
					],
					"stateMutability": "nonpayable",
					"type": "constructor"
				},
				{
					"inputs": [],
					"name": "ApprovalCallerNotOwnerNorApproved",
					"type": "error"
				},
				{
					"inputs": [],
					"name": "ApprovalQueryForNonexistentToken",
					"type": "error"
				},
				{
					"inputs": [],
					"name": "BalanceQueryForZeroAddress",
					"type": "error"
				},
				{
					"inputs": [],
					"name": "MintERC2309QuantityExceedsLimit",
					"type": "error"
				},
				{
					"inputs": [],
					"name": "MintToZeroAddress",
					"type": "error"
				},
				{
					"inputs": [],
					"name": "MintZeroQuantity",
					"type": "error"
				},
				{
					"inputs": [
						{
							"internalType": "address",
							"name": "owner",
							"type": "address"
						}
					],
					"name": "OwnableInvalidOwner",
					"type": "error"
				},
				{
					"inputs": [
						{
							"internalType": "address",
							"name": "account",
							"type": "address"
						}
					],
					"name": "OwnableUnauthorizedAccount",
					"type": "error"
				},
				{
					"inputs": [],
					"name": "OwnerQueryForNonexistentToken",
					"type": "error"
				},
				{
					"inputs": [],
					"name": "OwnershipNotInitializedForExtraData",
					"type": "error"
				},
				{
					"inputs": [],
					"name": "TransferCallerNotOwnerNorApproved",
					"type": "error"
				},
				{
					"inputs": [],
					"name": "TransferFromIncorrectOwner",
					"type": "error"
				},
				{
					"inputs": [],
					"name": "TransferToNonERC721ReceiverImplementer",
					"type": "error"
				},
				{
					"inputs": [],
					"name": "TransferToZeroAddress",
					"type": "error"
				},
				{
					"inputs": [],
					"name": "URIQueryForNonexistentToken",
					"type": "error"
				},
				{
					"anonymous": false,
					"inputs": [
						{
							"indexed": true,
							"internalType": "address",
							"name": "owner",
							"type": "address"
						},
						{
							"indexed": true,
							"internalType": "address",
							"name": "approved",
							"type": "address"
						},
						{
							"indexed": true,
							"internalType": "uint256",
							"name": "tokenId",
							"type": "uint256"
						}
					],
					"name": "Approval",
					"type": "event"
				},
				{
					"anonymous": false,
					"inputs": [
						{
							"indexed": true,
							"internalType": "address",
							"name": "owner",
							"type": "address"
						},
						{
							"indexed": true,
							"internalType": "address",
							"name": "operator",
							"type": "address"
						},
						{
							"indexed": false,
							"internalType": "bool",
							"name": "approved",
							"type": "bool"
						}
					],
					"name": "ApprovalForAll",
					"type": "event"
				},
				{
					"anonymous": false,
					"inputs": [
						{
							"indexed": true,
							"internalType": "uint256",
							"name": "fromTokenId",
							"type": "uint256"
						},
						{
							"indexed": false,
							"internalType": "uint256",
							"name": "toTokenId",
							"type": "uint256"
						},
						{
							"indexed": true,
							"internalType": "address",
							"name": "from",
							"type": "address"
						},
						{
							"indexed": true,
							"internalType": "address",
							"name": "to",
							"type": "address"
						}
					],
					"name": "ConsecutiveTransfer",
					"type": "event"
				},
				{
					"anonymous": false,
					"inputs": [
						{
							"indexed": true,
							"internalType": "address",
							"name": "previousOwner",
							"type": "address"
						},
						{
							"indexed": true,
							"internalType": "address",
							"name": "newOwner",
							"type": "address"
						}
					],
					"name": "OwnershipTransferred",
					"type": "event"
				},
				{
					"anonymous": false,
					"inputs": [
						{
							"indexed": true,
							"internalType": "address",
							"name": "from",
							"type": "address"
						},
						{
							"indexed": true,
							"internalType": "address",
							"name": "to",
							"type": "address"
						},
						{
							"indexed": true,
							"internalType": "uint256",
							"name": "tokenId",
							"type": "uint256"
						}
					],
					"name": "Transfer",
					"type": "event"
				},
				{
					"inputs": [
						{
							"internalType": "address",
							"name": "to",
							"type": "address"
						},
						{
							"internalType": "uint256",
							"name": "tokenId",
							"type": "uint256"
						}
					],
					"name": "approve",
					"outputs": [],
					"stateMutability": "payable",
					"type": "function"
				},
				{
					"inputs": [
						{
							"internalType": "address",
							"name": "owner",
							"type": "address"
						}
					],
					"name": "balanceOf",
					"outputs": [
						{
							"internalType": "uint256",
							"name": "",
							"type": "uint256"
						}
					],
					"stateMutability": "view",
					"type": "function"
				},
				{
					"inputs": [],
					"name": "baseURI_",
					"outputs": [
						{
							"internalType": "string",
							"name": "",
							"type": "string"
						}
					],
					"stateMutability": "view",
					"type": "function"
				},
				{
					"inputs": [
						{
							"internalType": "address",
							"name": "add",
							"type": "address"
						}
					],
					"name": "checkredeemednftid",
					"outputs": [
						{
							"internalType": "uint256[]",
							"name": "",
							"type": "uint256[]"
						}
					],
					"stateMutability": "view",
					"type": "function"
				},
				{
					"inputs": [
						{
							"internalType": "uint256",
							"name": "nftId",
							"type": "uint256"
						},
						{
							"internalType": "address",
							"name": "add",
							"type": "address"
						}
					],
					"name": "checkredemmedphysicalitem",
					"outputs": [
						{
							"internalType": "bool",
							"name": "",
							"type": "bool"
						}
					],
					"stateMutability": "view",
					"type": "function"
				},
				{
					"inputs": [
						{
							"internalType": "uint256",
							"name": "tokenId",
							"type": "uint256"
						}
					],
					"name": "getApproved",
					"outputs": [
						{
							"internalType": "address",
							"name": "",
							"type": "address"
						}
					],
					"stateMutability": "view",
					"type": "function"
				},
				{
					"inputs": [
						{
							"internalType": "address",
							"name": "owner",
							"type": "address"
						},
						{
							"internalType": "address",
							"name": "operator",
							"type": "address"
						}
					],
					"name": "isApprovedForAll",
					"outputs": [
						{
							"internalType": "bool",
							"name": "",
							"type": "bool"
						}
					],
					"stateMutability": "view",
					"type": "function"
				},
				{
					"inputs": [
						{
							"internalType": "address",
							"name": "_to",
							"type": "address"
						},
						{
							"internalType": "uint256",
							"name": "amount",
							"type": "uint256"
						}
					],
					"name": "mint",
					"outputs": [],
					"stateMutability": "nonpayable",
					"type": "function"
				},
				{
					"inputs": [],
					"name": "name",
					"outputs": [
						{
							"internalType": "string",
							"name": "",
							"type": "string"
						}
					],
					"stateMutability": "view",
					"type": "function"
				},
				{
					"inputs": [],
					"name": "owner",
					"outputs": [
						{
							"internalType": "address",
							"name": "",
							"type": "address"
						}
					],
					"stateMutability": "view",
					"type": "function"
				},
				{
					"inputs": [
						{
							"internalType": "uint256",
							"name": "tokenId",
							"type": "uint256"
						}
					],
					"name": "ownerOf",
					"outputs": [
						{
							"internalType": "address",
							"name": "",
							"type": "address"
						}
					],
					"stateMutability": "view",
					"type": "function"
				},
				{
					"inputs": [
						{
							"internalType": "uint256",
							"name": "nftId",
							"type": "uint256"
						}
					],
					"name": "redeemPhysicalItem",
					"outputs": [],
					"stateMutability": "nonpayable",
					"type": "function"
				},
				{
					"inputs": [],
					"name": "renounceOwnership",
					"outputs": [],
					"stateMutability": "nonpayable",
					"type": "function"
				},
				{
					"inputs": [
						{
							"internalType": "address",
							"name": "from",
							"type": "address"
						},
						{
							"internalType": "address",
							"name": "to",
							"type": "address"
						},
						{
							"internalType": "uint256",
							"name": "tokenId",
							"type": "uint256"
						}
					],
					"name": "safeTransferFrom",
					"outputs": [],
					"stateMutability": "payable",
					"type": "function"
				},
				{
					"inputs": [
						{
							"internalType": "address",
							"name": "from",
							"type": "address"
						},
						{
							"internalType": "address",
							"name": "to",
							"type": "address"
						},
						{
							"internalType": "uint256",
							"name": "tokenId",
							"type": "uint256"
						},
						{
							"internalType": "bytes",
							"name": "_data",
							"type": "bytes"
						}
					],
					"name": "safeTransferFrom",
					"outputs": [],
					"stateMutability": "payable",
					"type": "function"
				},
				{
					"inputs": [
						{
							"internalType": "address",
							"name": "operator",
							"type": "address"
						},
						{
							"internalType": "bool",
							"name": "approved",
							"type": "bool"
						}
					],
					"name": "setApprovalForAll",
					"outputs": [],
					"stateMutability": "nonpayable",
					"type": "function"
				},
				{
					"inputs": [
						{
							"internalType": "string",
							"name": "_newBaseURI",
							"type": "string"
						}
					],
					"name": "setBaseURI",
					"outputs": [],
					"stateMutability": "nonpayable",
					"type": "function"
				},
				{
					"inputs": [
						{
							"internalType": "string",
							"name": "_uriSuffix",
							"type": "string"
						}
					],
					"name": "setUriSuffix",
					"outputs": [],
					"stateMutability": "nonpayable",
					"type": "function"
				},
				{
					"inputs": [
						{
							"internalType": "address",
							"name": "add",
							"type": "address"
						}
					],
					"name": "setapprovedcontractaddress",
					"outputs": [],
					"stateMutability": "nonpayable",
					"type": "function"
				},
				{
					"inputs": [
						{
							"internalType": "bytes4",
							"name": "interfaceId",
							"type": "bytes4"
						}
					],
					"name": "supportsInterface",
					"outputs": [
						{
							"internalType": "bool",
							"name": "",
							"type": "bool"
						}
					],
					"stateMutability": "view",
					"type": "function"
				},
				{
					"inputs": [],
					"name": "symbol",
					"outputs": [
						{
							"internalType": "string",
							"name": "",
							"type": "string"
						}
					],
					"stateMutability": "view",
					"type": "function"
				},
				{
					"inputs": [
						{
							"internalType": "uint256",
							"name": "tokenId",
							"type": "uint256"
						}
					],
					"name": "tokenURI",
					"outputs": [
						{
							"internalType": "string",
							"name": "",
							"type": "string"
						}
					],
					"stateMutability": "view",
					"type": "function"
				},
				{
					"inputs": [],
					"name": "totalSupply",
					"outputs": [
						{
							"internalType": "uint256",
							"name": "",
							"type": "uint256"
						}
					],
					"stateMutability": "view",
					"type": "function"
				},
				{
					"inputs": [
						{
							"internalType": "address",
							"name": "from",
							"type": "address"
						},
						{
							"internalType": "address",
							"name": "to",
							"type": "address"
						},
						{
							"internalType": "uint256",
							"name": "tokenId",
							"type": "uint256"
						}
					],
					"name": "transferFrom",
					"outputs": [],
					"stateMutability": "payable",
					"type": "function"
				},
				{
					"inputs": [
						{
							"internalType": "address",
							"name": "newOwner",
							"type": "address"
						}
					],
					"name": "transferOwnership",
					"outputs": [],
					"stateMutability": "nonpayable",
					"type": "function"
				},
				{
					"inputs": [],
					"name": "uriSuffix",
					"outputs": [
						{
							"internalType": "string",
							"name": "",
							"type": "string"
						}
					],
					"stateMutability": "view",
					"type": "function"
				}
			],
			"devdoc": {
				"errors": {
					"OwnableInvalidOwner(address)": [
						{
							"details": "The owner is not a valid owner account. (eg. `address(0)`)"
						}
					],
					"OwnableUnauthorizedAccount(address)": [
						{
							"details": "The caller account is not authorized to perform an operation."
						}
					]
				},
				"kind": "dev",
				"methods": {
					"owner()": {
						"details": "Returns the address of the current owner."
					},
					"renounceOwnership()": {
						"details": "Leaves the contract without owner. It will not be possible to call `onlyOwner` functions. Can only be called by the current owner. NOTE: Renouncing ownership will leave the contract without an owner, thereby disabling any functionality that is only available to the owner."
					},
					"safeTransferFrom(address,address,uint256)": {
						"details": "Equivalent to `safeTransferFrom(from, to, tokenId, '')`."
					},
					"transferOwnership(address)": {
						"details": "Transfers ownership of the contract to a new account (`newOwner`). Can only be called by the current owner."
					}
				},
				"version": 1
			},
			"evm": {
				"assembly": "    /* \"chestNft.sol\":421:29881  contract KleptoGnomeLootChest is IERC721A,Ownable {... */\n  mstore(0x40, 0x80)\n    /* \"chestNft.sol\":2592:2620  string public uriSuffix = \"\" */\n  mload(0x40)\n  dup1\n  0x20\n  add\n  0x40\n  mstore\n  dup1\n  0x00\n  dup2\n  mstore\n  pop\n  0x06\n  swap1\n  dup2\n  tag_1\n  swap2\n  swap1\n  tag_2\n  jump\t// in\ntag_1:\n  pop\n    /* \"chestNft.sol\":3230:3420  constructor(string memory name_, string memory symbol_ ,address _owner) Ownable(_owner) {... */\n  callvalue\n  dup1\n  iszero\n  tag_3\n  jumpi\n  0x00\n  dup1\n  revert\ntag_3:\n  pop\n  mload(0x40)\n  sub(codesize, bytecodeSize)\n  dup1\n  bytecodeSize\n  dup4\n  codecopy\n  dup2\n  dup2\n  add\n  0x40\n  mstore\n  dup2\n  add\n  swap1\n  tag_4\n  swap2\n  swap1\n  tag_5\n  jump\t// in\ntag_4:\n    /* \"chestNft.sol\":3310:3316  _owner */\n  dup1\n    /* \"@openzeppelin/contracts/access/Ownable.sol\":1297:1298  0 */\n  0x00\n    /* \"@openzeppelin/contracts/access/Ownable.sol\":1273:1299  initialOwner == address(0) */\n  0xffffffffffffffffffffffffffffffffffffffff\n  and\n    /* \"@openzeppelin/contracts/access/Ownable.sol\":1273:1285  initialOwner */\n  dup2\n    /* \"@openzeppelin/contracts/access/Ownable.sol\":1273:1299  initialOwner == address(0) */\n  0xffffffffffffffffffffffffffffffffffffffff\n  and\n  sub\n    /* \"@openzeppelin/contracts/access/Ownable.sol\":1269:1364  if (initialOwner == address(0)) {... */\n  tag_9\n  jumpi\n    /* \"@openzeppelin/contracts/access/Ownable.sol\":1350:1351  0 */\n  0x00\n    /* \"@openzeppelin/contracts/access/Ownable.sol\":1322:1353  OwnableInvalidOwner(address(0)) */\n  mload(0x40)\n  0x1e4fbdf700000000000000000000000000000000000000000000000000000000\n  dup2\n  mstore\n  0x04\n  add\n  tag_10\n  swap2\n  swap1\n  tag_11\n  jump\t// in\ntag_10:\n  mload(0x40)\n  dup1\n  swap2\n  sub\n  swap1\n  revert\n    /* \"@openzeppelin/contracts/access/Ownable.sol\":1269:1364  if (initialOwner == address(0)) {... */\ntag_9:\n    /* \"@openzeppelin/contracts/access/Ownable.sol\":1373:1405  _transferOwnership(initialOwner) */\n  tag_12\n    /* \"@openzeppelin/contracts/access/Ownable.sol\":1392:1404  initialOwner */\n  dup2\n    /* \"@openzeppelin/contracts/access/Ownable.sol\":1373:1391  _transferOwnership */\n  shl(0x20, tag_13)\n    /* \"@openzeppelin/contracts/access/Ownable.sol\":1373:1405  _transferOwnership(initialOwner) */\n  0x20\n  shr\n  jump\t// in\ntag_12:\n    /* \"@openzeppelin/contracts/access/Ownable.sol\":1225:1412  constructor(address initialOwner) {... */\n  pop\n    /* \"chestNft.sol\":3337:3342  name_ */\n  dup3\n    /* \"chestNft.sol\":3329:3334  _name */\n  0x03\n    /* \"chestNft.sol\":3329:3342  _name = name_ */\n  swap1\n  dup2\n  tag_15\n  swap2\n  swap1\n  tag_2\n  jump\t// in\ntag_15:\n  pop\n    /* \"chestNft.sol\":3363:3370  symbol_ */\n  dup2\n    /* \"chestNft.sol\":3353:3360  _symbol */\n  0x04\n    /* \"chestNft.sol\":3353:3370  _symbol = symbol_ */\n  swap1\n  dup2\n  tag_16\n  swap2\n  swap1\n  tag_2\n  jump\t// in\ntag_16:\n  pop\n    /* \"chestNft.sol\":3397:3412  _startTokenId() */\n  tag_17\n    /* \"chestNft.sol\":3397:3410  _startTokenId */\n  shl(0x20, tag_18)\n    /* \"chestNft.sol\":3397:3412  _startTokenId() */\n  0x20\n  shr\n  jump\t// in\ntag_17:\n    /* \"chestNft.sol\":3381:3394  _currentIndex */\n  0x01\n    /* \"chestNft.sol\":3381:3412  _currentIndex = _startTokenId() */\n  dup2\n  swap1\n  sstore\n  pop\n    /* \"chestNft.sol\":3230:3420  constructor(string memory name_, string memory symbol_ ,address _owner) Ownable(_owner) {... */\n  pop\n  pop\n  pop\n    /* \"chestNft.sol\":421:29881  contract KleptoGnomeLootChest is IERC721A,Ownable {... */\n  jump(tag_19)\n    /* \"@openzeppelin/contracts/access/Ownable.sol\":2912:3099  function _transferOwnership(address newOwner) internal virtual {... */\ntag_13:\n    /* \"@openzeppelin/contracts/access/Ownable.sol\":2985:3001  address oldOwner */\n  0x00\n    /* \"@openzeppelin/contracts/access/Ownable.sol\":3004:3010  _owner */\n  dup1\n  0x00\n  swap1\n  sload\n  swap1\n  0x0100\n  exp\n  swap1\n  div\n  0xffffffffffffffffffffffffffffffffffffffff\n  and\n    /* \"@openzeppelin/contracts/access/Ownable.sol\":2985:3010  address oldOwner = _owner */\n  swap1\n  pop\n    /* \"@openzeppelin/contracts/access/Ownable.sol\":3029:3037  newOwner */\n  dup2\n    /* \"@openzeppelin/contracts/access/Ownable.sol\":3020:3026  _owner */\n  0x00\n  dup1\n    /* \"@openzeppelin/contracts/access/Ownable.sol\":3020:3037  _owner = newOwner */\n  0x0100\n  exp\n  dup2\n  sload\n  dup2\n  0xffffffffffffffffffffffffffffffffffffffff\n  mul\n  not\n  and\n  swap1\n  dup4\n  0xffffffffffffffffffffffffffffffffffffffff\n  and\n  mul\n  or\n  swap1\n  sstore\n  pop\n    /* \"@openzeppelin/contracts/access/Ownable.sol\":3083:3091  newOwner */\n  dup2\n    /* \"@openzeppelin/contracts/access/Ownable.sol\":3052:3092  OwnershipTransferred(oldOwner, newOwner) */\n  0xffffffffffffffffffffffffffffffffffffffff\n  and\n    /* \"@openzeppelin/contracts/access/Ownable.sol\":3073:3081  oldOwner */\n  dup2\n    /* \"@openzeppelin/contracts/access/Ownable.sol\":3052:3092  OwnershipTransferred(oldOwner, newOwner) */\n  0xffffffffffffffffffffffffffffffffffffffff\n  and\n  0x8be0079c531659141344cd1fd0a4f28419497f9722a3daafe3b4186f6b6457e0\n  mload(0x40)\n  mload(0x40)\n  dup1\n  swap2\n  sub\n  swap1\n  log3\n    /* \"@openzeppelin/contracts/access/Ownable.sol\":2975:3099  {... */\n  pop\n    /* \"@openzeppelin/contracts/access/Ownable.sol\":2912:3099  function _transferOwnership(address newOwner) internal virtual {... */\n  pop\n  jump\t// out\n    /* \"chestNft.sol\":3433:3525  function _startTokenId() internal view virtual returns (uint256) {... */\ntag_18:\n    /* \"chestNft.sol\":3489:3496  uint256 */\n  0x00\n    /* \"chestNft.sol\":3516:3517  1 */\n  0x01\n    /* \"chestNft.sol\":3509:3517  return 1 */\n  swap1\n  pop\n    /* \"chestNft.sol\":3433:3525  function _startTokenId() internal view virtual returns (uint256) {... */\n  swap1\n  jump\t// out\n    /* \"#utility.yul\":7:106   */\ntag_22:\n    /* \"#utility.yul\":59:65   */\n  0x00\n    /* \"#utility.yul\":93:98   */\n  dup2\n    /* \"#utility.yul\":87:99   */\n  mload\n    /* \"#utility.yul\":77:99   */\n  swap1\n  pop\n    /* \"#utility.yul\":7:106   */\n  swap2\n  swap1\n  pop\n  jump\t// out\n    /* \"#utility.yul\":112:292   */\ntag_23:\n    /* \"#utility.yul\":160:237   */\n  0x4e487b7100000000000000000000000000000000000000000000000000000000\n    /* \"#utility.yul\":157:158   */\n  0x00\n    /* \"#utility.yul\":150:238   */\n  mstore\n    /* \"#utility.yul\":257:261   */\n  0x41\n    /* \"#utility.yul\":254:255   */\n  0x04\n    /* \"#utility.yul\":247:262   */\n  mstore\n    /* \"#utility.yul\":281:285   */\n  0x24\n    /* \"#utility.yul\":278:279   */\n  0x00\n    /* \"#utility.yul\":271:286   */\n  revert\n    /* \"#utility.yul\":298:478   */\ntag_24:\n    /* \"#utility.yul\":346:423   */\n  0x4e487b7100000000000000000000000000000000000000000000000000000000\n    /* \"#utility.yul\":343:344   */\n  0x00\n    /* \"#utility.yul\":336:424   */\n  mstore\n    /* \"#utility.yul\":443:447   */\n  0x22\n    /* \"#utility.yul\":440:441   */\n  0x04\n    /* \"#utility.yul\":433:448   */\n  mstore\n    /* \"#utility.yul\":467:471   */\n  0x24\n    /* \"#utility.yul\":464:465   */\n  0x00\n    /* \"#utility.yul\":457:472   */\n  revert\n    /* \"#utility.yul\":484:804   */\ntag_25:\n    /* \"#utility.yul\":528:534   */\n  0x00\n    /* \"#utility.yul\":565:566   */\n  0x02\n    /* \"#utility.yul\":559:563   */\n  dup3\n    /* \"#utility.yul\":555:567   */\n  div\n    /* \"#utility.yul\":545:567   */\n  swap1\n  pop\n    /* \"#utility.yul\":612:613   */\n  0x01\n    /* \"#utility.yul\":606:610   */\n  dup3\n    /* \"#utility.yul\":602:614   */\n  and\n    /* \"#utility.yul\":633:651   */\n  dup1\n    /* \"#utility.yul\":623:704   */\n  tag_64\n  jumpi\n    /* \"#utility.yul\":689:693   */\n  0x7f\n    /* \"#utility.yul\":681:687   */\n  dup3\n    /* \"#utility.yul\":677:694   */\n  and\n    /* \"#utility.yul\":667:694   */\n  swap2\n  pop\n    /* \"#utility.yul\":623:704   */\ntag_64:\n    /* \"#utility.yul\":751:753   */\n  0x20\n    /* \"#utility.yul\":743:749   */\n  dup3\n    /* \"#utility.yul\":740:754   */\n  lt\n    /* \"#utility.yul\":720:738   */\n  dup2\n    /* \"#utility.yul\":717:755   */\n  sub\n    /* \"#utility.yul\":714:798   */\n  tag_65\n  jumpi\n    /* \"#utility.yul\":770:788   */\n  tag_66\n  tag_24\n  jump\t// in\ntag_66:\n    /* \"#utility.yul\":714:798   */\ntag_65:\n    /* \"#utility.yul\":535:804   */\n  pop\n    /* \"#utility.yul\":484:804   */\n  swap2\n  swap1\n  pop\n  jump\t// out\n    /* \"#utility.yul\":810:951   */\ntag_26:\n    /* \"#utility.yul\":859:863   */\n  0x00\n    /* \"#utility.yul\":882:885   */\n  dup2\n    /* \"#utility.yul\":874:885   */\n  swap1\n  pop\n    /* \"#utility.yul\":905:908   */\n  dup2\n    /* \"#utility.yul\":902:903   */\n  0x00\n    /* \"#utility.yul\":895:909   */\n  mstore\n    /* \"#utility.yul\":939:943   */\n  0x20\n    /* \"#utility.yul\":936:937   */\n  0x00\n    /* \"#utility.yul\":926:944   */\n  keccak256\n    /* \"#utility.yul\":918:944   */\n  swap1\n  pop\n    /* \"#utility.yul\":810:951   */\n  swap2\n  swap1\n  pop\n  jump\t// out\n    /* \"#utility.yul\":957:1050   */\ntag_27:\n    /* \"#utility.yul\":994:1000   */\n  0x00\n    /* \"#utility.yul\":1041:1043   */\n  0x20\n    /* \"#utility.yul\":1036:1038   */\n  0x1f\n    /* \"#utility.yul\":1029:1034   */\n  dup4\n    /* \"#utility.yul\":1025:1039   */\n  add\n    /* \"#utility.yul\":1021:1044   */\n  div\n    /* \"#utility.yul\":1011:1044   */\n  swap1\n  pop\n    /* \"#utility.yul\":957:1050   */\n  swap2\n  swap1\n  pop\n  jump\t// out\n    /* \"#utility.yul\":1056:1163   */\ntag_28:\n    /* \"#utility.yul\":1100:1108   */\n  0x00\n    /* \"#utility.yul\":1150:1155   */\n  dup3\n    /* \"#utility.yul\":1144:1148   */\n  dup3\n    /* \"#utility.yul\":1140:1156   */\n  shl\n    /* \"#utility.yul\":1119:1156   */\n  swap1\n  pop\n    /* \"#utility.yul\":1056:1163   */\n  swap3\n  swap2\n  pop\n  pop\n  jump\t// out\n    /* \"#utility.yul\":1169:1562   */\ntag_29:\n    /* \"#utility.yul\":1238:1244   */\n  0x00\n    /* \"#utility.yul\":1288:1289   */\n  0x08\n    /* \"#utility.yul\":1276:1286   */\n  dup4\n    /* \"#utility.yul\":1272:1290   */\n  mul\n    /* \"#utility.yul\":1311:1408   */\n  tag_71\n    /* \"#utility.yul\":1341:1407   */\n  0xffffffffffffffffffffffffffffffffffffffffffffffffffffffffffffffff\n    /* \"#utility.yul\":1330:1339   */\n  dup3\n    /* \"#utility.yul\":1311:1408   */\n  tag_28\n  jump\t// in\ntag_71:\n    /* \"#utility.yul\":1429:1468   */\n  tag_72\n    /* \"#utility.yul\":1459:1467   */\n  dup7\n    /* \"#utility.yul\":1448:1457   */\n  dup4\n    /* \"#utility.yul\":1429:1468   */\n  tag_28\n  jump\t// in\ntag_72:\n    /* \"#utility.yul\":1417:1468   */\n  swap6\n  pop\n    /* \"#utility.yul\":1501:1505   */\n  dup1\n    /* \"#utility.yul\":1497:1506   */\n  not\n    /* \"#utility.yul\":1490:1495   */\n  dup5\n    /* \"#utility.yul\":1486:1507   */\n  and\n    /* \"#utility.yul\":1477:1507   */\n  swap4\n  pop\n    /* \"#utility.yul\":1550:1554   */\n  dup1\n    /* \"#utility.yul\":1540:1548   */\n  dup7\n    /* \"#utility.yul\":1536:1555   */\n  and\n    /* \"#utility.yul\":1529:1534   */\n  dup5\n    /* \"#utility.yul\":1526:1556   */\n  or\n    /* \"#utility.yul\":1516:1556   */\n  swap3\n  pop\n    /* \"#utility.yul\":1245:1562   */\n  pop\n  pop\n    /* \"#utility.yul\":1169:1562   */\n  swap4\n  swap3\n  pop\n  pop\n  pop\n  jump\t// out\n    /* \"#utility.yul\":1568:1645   */\ntag_30:\n    /* \"#utility.yul\":1605:1612   */\n  0x00\n    /* \"#utility.yul\":1634:1639   */\n  dup2\n    /* \"#utility.yul\":1623:1639   */\n  swap1\n  pop\n    /* \"#utility.yul\":1568:1645   */\n  swap2\n  swap1\n  pop\n  jump\t// out\n    /* \"#utility.yul\":1651:1711   */\ntag_31:\n    /* \"#utility.yul\":1679:1682   */\n  0x00\n    /* \"#utility.yul\":1700:1705   */\n  dup2\n    /* \"#utility.yul\":1693:1705   */\n  swap1\n  pop\n    /* \"#utility.yul\":1651:1711   */\n  swap2\n  swap1\n  pop\n  jump\t// out\n    /* \"#utility.yul\":1717:1859   */\ntag_32:\n    /* \"#utility.yul\":1767:1776   */\n  0x00\n    /* \"#utility.yul\":1800:1853   */\n  tag_76\n    /* \"#utility.yul\":1818:1852   */\n  tag_77\n    /* \"#utility.yul\":1827:1851   */\n  tag_78\n    /* \"#utility.yul\":1845:1850   */\n  dup5\n    /* \"#utility.yul\":1827:1851   */\n  tag_30\n  jump\t// in\ntag_78:\n    /* \"#utility.yul\":1818:1852   */\n  tag_31\n  jump\t// in\ntag_77:\n    /* \"#utility.yul\":1800:1853   */\n  tag_30\n  jump\t// in\ntag_76:\n    /* \"#utility.yul\":1787:1853   */\n  swap1\n  pop\n    /* \"#utility.yul\":1717:1859   */\n  swap2\n  swap1\n  pop\n  jump\t// out\n    /* \"#utility.yul\":1865:1940   */\ntag_33:\n    /* \"#utility.yul\":1908:1911   */\n  0x00\n    /* \"#utility.yul\":1929:1934   */\n  dup2\n    /* \"#utility.yul\":1922:1934   */\n  swap1\n  pop\n    /* \"#utility.yul\":1865:1940   */\n  swap2\n  swap1\n  pop\n  jump\t// out\n    /* \"#utility.yul\":1946:2215   */\ntag_34:\n    /* \"#utility.yul\":2056:2095   */\n  tag_81\n    /* \"#utility.yul\":2087:2094   */\n  dup4\n    /* \"#utility.yul\":2056:2095   */\n  tag_32\n  jump\t// in\ntag_81:\n    /* \"#utility.yul\":2117:2208   */\n  tag_82\n    /* \"#utility.yul\":2166:2207   */\n  tag_83\n    /* \"#utility.yul\":2190:2206   */\n  dup3\n    /* \"#utility.yul\":2166:2207   */\n  tag_33\n  jump\t// in\ntag_83:\n    /* \"#utility.yul\":2158:2164   */\n  dup5\n    /* \"#utility.yul\":2151:2155   */\n  dup5\n    /* \"#utility.yul\":2145:2156   */\n  sload\n    /* \"#utility.yul\":2117:2208   */\n  tag_29\n  jump\t// in\ntag_82:\n    /* \"#utility.yul\":2111:2115   */\n  dup3\n    /* \"#utility.yul\":2104:2209   */\n  sstore\n    /* \"#utility.yul\":2022:2215   */\n  pop\n    /* \"#utility.yul\":1946:2215   */\n  pop\n  pop\n  pop\n  jump\t// out\n    /* \"#utility.yul\":2221:2294   */\ntag_35:\n    /* \"#utility.yul\":2266:2269   */\n  0x00\n    /* \"#utility.yul\":2221:2294   */\n  swap1\n  jump\t// out\n    /* \"#utility.yul\":2300:2489   */\ntag_36:\n    /* \"#utility.yul\":2377:2409   */\n  tag_86\n  tag_35\n  jump\t// in\ntag_86:\n    /* \"#utility.yul\":2418:2483   */\n  tag_87\n    /* \"#utility.yul\":2476:2482   */\n  dup2\n    /* \"#utility.yul\":2468:2474   */\n  dup5\n    /* \"#utility.yul\":2462:2466   */\n  dup5\n    /* \"#utility.yul\":2418:2483   */\n  tag_34\n  jump\t// in\ntag_87:\n    /* \"#utility.yul\":2353:2489   */\n  pop\n    /* \"#utility.yul\":2300:2489   */\n  pop\n  pop\n  jump\t// out\n    /* \"#utility.yul\":2495:2681   */\ntag_37:\n    /* \"#utility.yul\":2555:2675   */\ntag_89:\n    /* \"#utility.yul\":2572:2575   */\n  dup2\n    /* \"#utility.yul\":2565:2570   */\n  dup2\n    /* \"#utility.yul\":2562:2576   */\n  lt\n    /* \"#utility.yul\":2555:2675   */\n  iszero\n  tag_91\n  jumpi\n    /* \"#utility.yul\":2626:2665   */\n  tag_92\n    /* \"#utility.yul\":2663:2664   */\n  0x00\n    /* \"#utility.yul\":2656:2661   */\n  dup3\n    /* \"#utility.yul\":2626:2665   */\n  tag_36\n  jump\t// in\ntag_92:\n    /* \"#utility.yul\":2599:2600   */\n  0x01\n    /* \"#utility.yul\":2592:2597   */\n  dup2\n    /* \"#utility.yul\":2588:2601   */\n  add\n    /* \"#utility.yul\":2579:2601   */\n  swap1\n  pop\n    /* \"#utility.yul\":2555:2675   */\n  jump(tag_89)\ntag_91:\n    /* \"#utility.yul\":2495:2681   */\n  pop\n  pop\n  jump\t// out\n    /* \"#utility.yul\":2687:3230   */\ntag_38:\n    /* \"#utility.yul\":2788:2790   */\n  0x1f\n    /* \"#utility.yul\":2783:2786   */\n  dup3\n    /* \"#utility.yul\":2780:2791   */\n  gt\n    /* \"#utility.yul\":2777:3223   */\n  iszero\n  tag_94\n  jumpi\n    /* \"#utility.yul\":2822:2860   */\n  tag_95\n    /* \"#utility.yul\":2854:2859   */\n  dup2\n    /* \"#utility.yul\":2822:2860   */\n  tag_26\n  jump\t// in\ntag_95:\n    /* \"#utility.yul\":2906:2935   */\n  tag_96\n    /* \"#utility.yul\":2924:2934   */\n  dup5\n    /* \"#utility.yul\":2906:2935   */\n  tag_27\n  jump\t// in\ntag_96:\n    /* \"#utility.yul\":2896:2904   */\n  dup2\n    /* \"#utility.yul\":2892:2936   */\n  add\n    /* \"#utility.yul\":3089:3091   */\n  0x20\n    /* \"#utility.yul\":3077:3087   */\n  dup6\n    /* \"#utility.yul\":3074:3092   */\n  lt\n    /* \"#utility.yul\":3071:3120   */\n  iszero\n  tag_97\n  jumpi\n    /* \"#utility.yul\":3110:3118   */\n  dup2\n    /* \"#utility.yul\":3095:3118   */\n  swap1\n  pop\n    /* \"#utility.yul\":3071:3120   */\ntag_97:\n    /* \"#utility.yul\":3133:3213   */\n  tag_98\n    /* \"#utility.yul\":3189:3211   */\n  tag_99\n    /* \"#utility.yul\":3207:3210   */\n  dup6\n    /* \"#utility.yul\":3189:3211   */\n  tag_27\n  jump\t// in\ntag_99:\n    /* \"#utility.yul\":3179:3187   */\n  dup4\n    /* \"#utility.yul\":3175:3212   */\n  add\n    /* \"#utility.yul\":3162:3173   */\n  dup3\n    /* \"#utility.yul\":3133:3213   */\n  tag_37\n  jump\t// in\ntag_98:\n    /* \"#utility.yul\":2792:3223   */\n  pop\n  pop\n    /* \"#utility.yul\":2777:3223   */\ntag_94:\n    /* \"#utility.yul\":2687:3230   */\n  pop\n  pop\n  pop\n  jump\t// out\n    /* \"#utility.yul\":3236:3353   */\ntag_39:\n    /* \"#utility.yul\":3290:3298   */\n  0x00\n    /* \"#utility.yul\":3340:3345   */\n  dup3\n    /* \"#utility.yul\":3334:3338   */\n  dup3\n    /* \"#utility.yul\":3330:3346   */\n  shr\n    /* \"#utility.yul\":3309:3346   */\n  swap1\n  pop\n    /* \"#utility.yul\":3236:3353   */\n  swap3\n  swap2\n  pop\n  pop\n  jump\t// out\n    /* \"#utility.yul\":3359:3528   */\ntag_40:\n    /* \"#utility.yul\":3403:3409   */\n  0x00\n    /* \"#utility.yul\":3436:3487   */\n  tag_102\n    /* \"#utility.yul\":3484:3485   */\n  0x00\n    /* \"#utility.yul\":3480:3486   */\n  not\n    /* \"#utility.yul\":3472:3477   */\n  dup5\n    /* \"#utility.yul\":3469:3470   */\n  0x08\n    /* \"#utility.yul\":3465:3478   */\n  mul\n    /* \"#utility.yul\":3436:3487   */\n  tag_39\n  jump\t// in\ntag_102:\n    /* \"#utility.yul\":3432:3488   */\n  not\n    /* \"#utility.yul\":3517:3521   */\n  dup1\n    /* \"#utility.yul\":3511:3515   */\n  dup4\n    /* \"#utility.yul\":3507:3522   */\n  and\n    /* \"#utility.yul\":3497:3522   */\n  swap2\n  pop\n    /* \"#utility.yul\":3410:3528   */\n  pop\n    /* \"#utility.yul\":3359:3528   */\n  swap3\n  swap2\n  pop\n  pop\n  jump\t// out\n    /* \"#utility.yul\":3533:3828   */\ntag_41:\n    /* \"#utility.yul\":3609:3613   */\n  0x00\n    /* \"#utility.yul\":3755:3784   */\n  tag_104\n    /* \"#utility.yul\":3780:3783   */\n  dup4\n    /* \"#utility.yul\":3774:3778   */\n  dup4\n    /* \"#utility.yul\":3755:3784   */\n  tag_40\n  jump\t// in\ntag_104:\n    /* \"#utility.yul\":3747:3784   */\n  swap2\n  pop\n    /* \"#utility.yul\":3817:3820   */\n  dup3\n    /* \"#utility.yul\":3814:3815   */\n  0x02\n    /* \"#utility.yul\":3810:3821   */\n  mul\n    /* \"#utility.yul\":3804:3808   */\n  dup3\n    /* \"#utility.yul\":3801:3822   */\n  or\n    /* \"#utility.yul\":3793:3822   */\n  swap1\n  pop\n    /* \"#utility.yul\":3533:3828   */\n  swap3\n  swap2\n  pop\n  pop\n  jump\t// out\n    /* \"#utility.yul\":3833:5228   */\ntag_2:\n    /* \"#utility.yul\":3950:3987   */\n  tag_106\n    /* \"#utility.yul\":3983:3986   */\n  dup3\n    /* \"#utility.yul\":3950:3987   */\n  tag_22\n  jump\t// in\ntag_106:\n    /* \"#utility.yul\":4052:4070   */\n  0xffffffffffffffff\n    /* \"#utility.yul\":4044:4050   */\n  dup2\n    /* \"#utility.yul\":4041:4071   */\n  gt\n    /* \"#utility.yul\":4038:4094   */\n  iszero\n  tag_107\n  jumpi\n    /* \"#utility.yul\":4074:4092   */\n  tag_108\n  tag_23\n  jump\t// in\ntag_108:\n    /* \"#utility.yul\":4038:4094   */\ntag_107:\n    /* \"#utility.yul\":4118:4156   */\n  tag_109\n    /* \"#utility.yul\":4150:4154   */\n  dup3\n    /* \"#utility.yul\":4144:4155   */\n  sload\n    /* \"#utility.yul\":4118:4156   */\n  tag_25\n  jump\t// in\ntag_109:\n    /* \"#utility.yul\":4203:4270   */\n  tag_110\n    /* \"#utility.yul\":4263:4269   */\n  dup3\n    /* \"#utility.yul\":4255:4261   */\n  dup3\n    /* \"#utility.yul\":4249:4253   */\n  dup6\n    /* \"#utility.yul\":4203:4270   */\n  tag_38\n  jump\t// in\ntag_110:\n    /* \"#utility.yul\":4297:4298   */\n  0x00\n    /* \"#utility.yul\":4321:4325   */\n  0x20\n    /* \"#utility.yul\":4308:4325   */\n  swap1\n  pop\n    /* \"#utility.yul\":4353:4355   */\n  0x1f\n    /* \"#utility.yul\":4345:4351   */\n  dup4\n    /* \"#utility.yul\":4342:4356   */\n  gt\n    /* \"#utility.yul\":4370:4371   */\n  0x01\n    /* \"#utility.yul\":4365:4983   */\n  dup2\n  eq\n  tag_112\n  jumpi\n    /* \"#utility.yul\":5027:5028   */\n  0x00\n    /* \"#utility.yul\":5044:5050   */\n  dup5\n    /* \"#utility.yul\":5041:5118   */\n  iszero\n  tag_113\n  jumpi\n    /* \"#utility.yul\":5093:5102   */\n  dup3\n    /* \"#utility.yul\":5088:5091   */\n  dup8\n    /* \"#utility.yul\":5084:5103   */\n  add\n    /* \"#utility.yul\":5078:5104   */\n  mload\n    /* \"#utility.yul\":5069:5104   */\n  swap1\n  pop\n    /* \"#utility.yul\":5041:5118   */\ntag_113:\n    /* \"#utility.yul\":5144:5211   */\n  tag_114\n    /* \"#utility.yul\":5204:5210   */\n  dup6\n    /* \"#utility.yul\":5197:5202   */\n  dup3\n    /* \"#utility.yul\":5144:5211   */\n  tag_41\n  jump\t// in\ntag_114:\n    /* \"#utility.yul\":5138:5142   */\n  dup7\n    /* \"#utility.yul\":5131:5212   */\n  sstore\n    /* \"#utility.yul\":5000:5222   */\n  pop\n    /* \"#utility.yul\":4335:5222   */\n  jump(tag_111)\n    /* \"#utility.yul\":4365:4983   */\ntag_112:\n    /* \"#utility.yul\":4417:4421   */\n  0x1f\n    /* \"#utility.yul\":4413:4422   */\n  not\n    /* \"#utility.yul\":4405:4411   */\n  dup5\n    /* \"#utility.yul\":4401:4423   */\n  and\n    /* \"#utility.yul\":4451:4488   */\n  tag_115\n    /* \"#utility.yul\":4483:4487   */\n  dup7\n    /* \"#utility.yul\":4451:4488   */\n  tag_26\n  jump\t// in\ntag_115:\n    /* \"#utility.yul\":4510:4511   */\n  0x00\n    /* \"#utility.yul\":4524:4732   */\ntag_116:\n    /* \"#utility.yul\":4538:4545   */\n  dup3\n    /* \"#utility.yul\":4535:4536   */\n  dup2\n    /* \"#utility.yul\":4532:4546   */\n  lt\n    /* \"#utility.yul\":4524:4732   */\n  iszero\n  tag_118\n  jumpi\n    /* \"#utility.yul\":4617:4626   */\n  dup5\n    /* \"#utility.yul\":4612:4615   */\n  dup10\n    /* \"#utility.yul\":4608:4627   */\n  add\n    /* \"#utility.yul\":4602:4628   */\n  mload\n    /* \"#utility.yul\":4594:4600   */\n  dup3\n    /* \"#utility.yul\":4587:4629   */\n  sstore\n    /* \"#utility.yul\":4668:4669   */\n  0x01\n    /* \"#utility.yul\":4660:4666   */\n  dup3\n    /* \"#utility.yul\":4656:4670   */\n  add\n    /* \"#utility.yul\":4646:4670   */\n  swap2\n  pop\n    /* \"#utility.yul\":4715:4717   */\n  0x20\n    /* \"#utility.yul\":4704:4713   */\n  dup6\n    /* \"#utility.yul\":4700:4718   */\n  add\n    /* \"#utility.yul\":4687:4718   */\n  swap5\n  pop\n    /* \"#utility.yul\":4561:4565   */\n  0x20\n    /* \"#utility.yul\":4558:4559   */\n  dup2\n    /* \"#utility.yul\":4554:4566   */\n  add\n    /* \"#utility.yul\":4549:4566   */\n  swap1\n  pop\n    /* \"#utility.yul\":4524:4732   */\n  jump(tag_116)\ntag_118:\n    /* \"#utility.yul\":4760:4766   */\n  dup7\n    /* \"#utility.yul\":4751:4758   */\n  dup4\n    /* \"#utility.yul\":4748:4767   */\n  lt\n    /* \"#utility.yul\":4745:4924   */\n  iszero\n  tag_119\n  jumpi\n    /* \"#utility.yul\":4818:4827   */\n  dup5\n    /* \"#utility.yul\":4813:4816   */\n  dup10\n    /* \"#utility.yul\":4809:4828   */\n  add\n    /* \"#utility.yul\":4803:4829   */\n  mload\n    /* \"#utility.yul\":4861:4909   */\n  tag_120\n    /* \"#utility.yul\":4903:4907   */\n  0x1f\n    /* \"#utility.yul\":4895:4901   */\n  dup10\n    /* \"#utility.yul\":4891:4908   */\n  and\n    /* \"#utility.yul\":4880:4889   */\n  dup3\n    /* \"#utility.yul\":4861:4909   */\n  tag_40\n  jump\t// in\ntag_120:\n    /* \"#utility.yul\":4853:4859   */\n  dup4\n    /* \"#utility.yul\":4846:4910   */\n  sstore\n    /* \"#utility.yul\":4768:4924   */\n  pop\n    /* \"#utility.yul\":4745:4924   */\ntag_119:\n    /* \"#utility.yul\":4970:4971   */\n  0x01\n    /* \"#utility.yul\":4966:4967   */\n  0x02\n    /* \"#utility.yul\":4958:4964   */\n  dup9\n    /* \"#utility.yul\":4954:4968   */\n  mul\n    /* \"#utility.yul\":4950:4972   */\n  add\n    /* \"#utility.yul\":4944:4948   */\n  dup9\n    /* \"#utility.yul\":4937:4973   */\n  sstore\n    /* \"#utility.yul\":4372:4983   */\n  pop\n  pop\n  pop\n    /* \"#utility.yul\":4335:5222   */\ntag_111:\n  pop\n    /* \"#utility.yul\":3925:5228   */\n  pop\n  pop\n  pop\n    /* \"#utility.yul\":3833:5228   */\n  pop\n  pop\n  jump\t// out\n    /* \"#utility.yul\":5234:5309   */\ntag_42:\n    /* \"#utility.yul\":5267:5273   */\n  0x00\n    /* \"#utility.yul\":5300:5302   */\n  0x40\n    /* \"#utility.yul\":5294:5303   */\n  mload\n    /* \"#utility.yul\":5284:5303   */\n  swap1\n  pop\n    /* \"#utility.yul\":5234:5309   */\n  swap1\n  jump\t// out\n    /* \"#utility.yul\":5315:5432   */\ntag_43:\n    /* \"#utility.yul\":5424:5425   */\n  0x00\n    /* \"#utility.yul\":5421:5422   */\n  dup1\n    /* \"#utility.yul\":5414:5426   */\n  revert\n    /* \"#utility.yul\":5438:5555   */\ntag_44:\n    /* \"#utility.yul\":5547:5548   */\n  0x00\n    /* \"#utility.yul\":5544:5545   */\n  dup1\n    /* \"#utility.yul\":5537:5549   */\n  revert\n    /* \"#utility.yul\":5561:5678   */\ntag_45:\n    /* \"#utility.yul\":5670:5671   */\n  0x00\n    /* \"#utility.yul\":5667:5668   */\n  dup1\n    /* \"#utility.yul\":5660:5672   */\n  revert\n    /* \"#utility.yul\":5684:5801   */\ntag_46:\n    /* \"#utility.yul\":5793:5794   */\n  0x00\n    /* \"#utility.yul\":5790:5791   */\n  dup1\n    /* \"#utility.yul\":5783:5795   */\n  revert\n    /* \"#utility.yul\":5807:5909   */\ntag_47:\n    /* \"#utility.yul\":5848:5854   */\n  0x00\n    /* \"#utility.yul\":5899:5901   */\n  0x1f\n    /* \"#utility.yul\":5895:5902   */\n  not\n    /* \"#utility.yul\":5890:5892   */\n  0x1f\n    /* \"#utility.yul\":5883:5888   */\n  dup4\n    /* \"#utility.yul\":5879:5893   */\n  add\n    /* \"#utility.yul\":5875:5903   */\n  and\n    /* \"#utility.yul\":5865:5903   */\n  swap1\n  pop\n    /* \"#utility.yul\":5807:5909   */\n  swap2\n  swap1\n  pop\n  jump\t// out\n    /* \"#utility.yul\":5915:6196   */\ntag_48:\n    /* \"#utility.yul\":5998:6025   */\n  tag_128\n    /* \"#utility.yul\":6020:6024   */\n  dup3\n    /* \"#utility.yul\":5998:6025   */\n  tag_47\n  jump\t// in\ntag_128:\n    /* \"#utility.yul\":5990:5996   */\n  dup2\n    /* \"#utility.yul\":5986:6026   */\n  add\n    /* \"#utility.yul\":6128:6134   */\n  dup2\n    /* \"#utility.yul\":6116:6126   */\n  dup2\n    /* \"#utility.yul\":6113:6135   */\n  lt\n    /* \"#utility.yul\":6092:6110   */\n  0xffffffffffffffff\n    /* \"#utility.yul\":6080:6090   */\n  dup3\n    /* \"#utility.yul\":6077:6111   */\n  gt\n    /* \"#utility.yul\":6074:6136   */\n  or\n    /* \"#utility.yul\":6071:6159   */\n  iszero\n  tag_129\n  jumpi\n    /* \"#utility.yul\":6139:6157   */\n  tag_130\n  tag_23\n  jump\t// in\ntag_130:\n    /* \"#utility.yul\":6071:6159   */\ntag_129:\n    /* \"#utility.yul\":6179:6189   */\n  dup1\n    /* \"#utility.yul\":6175:6177   */\n  0x40\n    /* \"#utility.yul\":6168:6190   */\n  mstore\n    /* \"#utility.yul\":5958:6196   */\n  pop\n    /* \"#utility.yul\":5915:6196   */\n  pop\n  pop\n  jump\t// out\n    /* \"#utility.yul\":6202:6331   */\ntag_49:\n    /* \"#utility.yul\":6236:6242   */\n  0x00\n    /* \"#utility.yul\":6263:6283   */\n  tag_132\n  tag_42\n  jump\t// in\ntag_132:\n    /* \"#utility.yul\":6253:6283   */\n  swap1\n  pop\n    /* \"#utility.yul\":6292:6325   */\n  tag_133\n    /* \"#utility.yul\":6320:6324   */\n  dup3\n    /* \"#utility.yul\":6312:6318   */\n  dup3\n    /* \"#utility.yul\":6292:6325   */\n  tag_48\n  jump\t// in\ntag_133:\n    /* \"#utility.yul\":6202:6331   */\n  swap2\n  swap1\n  pop\n  jump\t// out\n    /* \"#utility.yul\":6337:6645   */\ntag_50:\n    /* \"#utility.yul\":6399:6403   */\n  0x00\n    /* \"#utility.yul\":6489:6507   */\n  0xffffffffffffffff\n    /* \"#utility.yul\":6481:6487   */\n  dup3\n    /* \"#utility.yul\":6478:6508   */\n  gt\n    /* \"#utility.yul\":6475:6531   */\n  iszero\n  tag_135\n  jumpi\n    /* \"#utility.yul\":6511:6529   */\n  tag_136\n  tag_23\n  jump\t// in\ntag_136:\n    /* \"#utility.yul\":6475:6531   */\ntag_135:\n    /* \"#utility.yul\":6549:6578   */\n  tag_137\n    /* \"#utility.yul\":6571:6577   */\n  dup3\n    /* \"#utility.yul\":6549:6578   */\n  tag_47\n  jump\t// in\ntag_137:\n    /* \"#utility.yul\":6541:6578   */\n  swap1\n  pop\n    /* \"#utility.yul\":6633:6637   */\n  0x20\n    /* \"#utility.yul\":6627:6631   */\n  dup2\n    /* \"#utility.yul\":6623:6638   */\n  add\n    /* \"#utility.yul\":6615:6638   */\n  swap1\n  pop\n    /* \"#utility.yul\":6337:6645   */\n  swap2\n  swap1\n  pop\n  jump\t// out\n    /* \"#utility.yul\":6651:6897   */\ntag_51:\n    /* \"#utility.yul\":6732:6733   */\n  0x00\n    /* \"#utility.yul\":6742:6855   */\ntag_139:\n    /* \"#utility.yul\":6756:6762   */\n  dup4\n    /* \"#utility.yul\":6753:6754   */\n  dup2\n    /* \"#utility.yul\":6750:6763   */\n  lt\n    /* \"#utility.yul\":6742:6855   */\n  iszero\n  tag_141\n  jumpi\n    /* \"#utility.yul\":6841:6842   */\n  dup1\n    /* \"#utility.yul\":6836:6839   */\n  dup3\n    /* \"#utility.yul\":6832:6843   */\n  add\n    /* \"#utility.yul\":6826:6844   */\n  mload\n    /* \"#utility.yul\":6822:6823   */\n  dup2\n    /* \"#utility.yul\":6817:6820   */\n  dup5\n    /* \"#utility.yul\":6813:6824   */\n  add\n    /* \"#utility.yul\":6806:6845   */\n  mstore\n    /* \"#utility.yul\":6778:6780   */\n  0x20\n    /* \"#utility.yul\":6775:6776   */\n  dup2\n    /* \"#utility.yul\":6771:6781   */\n  add\n    /* \"#utility.yul\":6766:6781   */\n  swap1\n  pop\n    /* \"#utility.yul\":6742:6855   */\n  jump(tag_139)\ntag_141:\n    /* \"#utility.yul\":6889:6890   */\n  0x00\n    /* \"#utility.yul\":6880:6886   */\n  dup5\n    /* \"#utility.yul\":6875:6878   */\n  dup5\n    /* \"#utility.yul\":6871:6887   */\n  add\n    /* \"#utility.yul\":6864:6891   */\n  mstore\n    /* \"#utility.yul\":6713:6897   */\n  pop\n    /* \"#utility.yul\":6651:6897   */\n  pop\n  pop\n  pop\n  jump\t// out\n    /* \"#utility.yul\":6903:7337   */\ntag_52:\n    /* \"#utility.yul\":6992:6997   */\n  0x00\n    /* \"#utility.yul\":7017:7083   */\n  tag_143\n    /* \"#utility.yul\":7033:7082   */\n  tag_144\n    /* \"#utility.yul\":7075:7081   */\n  dup5\n    /* \"#utility.yul\":7033:7082   */\n  tag_50\n  jump\t// in\ntag_144:\n    /* \"#utility.yul\":7017:7083   */\n  tag_49\n  jump\t// in\ntag_143:\n    /* \"#utility.yul\":7008:7083   */\n  swap1\n  pop\n    /* \"#utility.yul\":7106:7112   */\n  dup3\n    /* \"#utility.yul\":7099:7104   */\n  dup2\n    /* \"#utility.yul\":7092:7113   */\n  mstore\n    /* \"#utility.yul\":7144:7148   */\n  0x20\n    /* \"#utility.yul\":7137:7142   */\n  dup2\n    /* \"#utility.yul\":7133:7149   */\n  add\n    /* \"#utility.yul\":7182:7185   */\n  dup5\n    /* \"#utility.yul\":7173:7179   */\n  dup5\n    /* \"#utility.yul\":7168:7171   */\n  dup5\n    /* \"#utility.yul\":7164:7180   */\n  add\n    /* \"#utility.yul\":7161:7186   */\n  gt\n    /* \"#utility.yul\":7158:7270   */\n  iszero\n  tag_145\n  jumpi\n    /* \"#utility.yul\":7189:7268   */\n  tag_146\n  tag_46\n  jump\t// in\ntag_146:\n    /* \"#utility.yul\":7158:7270   */\ntag_145:\n    /* \"#utility.yul\":7279:7331   */\n  tag_147\n    /* \"#utility.yul\":7324:7330   */\n  dup5\n    /* \"#utility.yul\":7319:7322   */\n  dup3\n    /* \"#utility.yul\":7314:7317   */\n  dup6\n    /* \"#utility.yul\":7279:7331   */\n  tag_51\n  jump\t// in\ntag_147:\n    /* \"#utility.yul\":6998:7337   */\n  pop\n    /* \"#utility.yul\":6903:7337   */\n  swap4\n  swap3\n  pop\n  pop\n  pop\n  jump\t// out\n    /* \"#utility.yul\":7357:7712   */\ntag_53:\n    /* \"#utility.yul\":7424:7429   */\n  0x00\n    /* \"#utility.yul\":7473:7476   */\n  dup3\n    /* \"#utility.yul\":7466:7470   */\n  0x1f\n    /* \"#utility.yul\":7458:7464   */\n  dup4\n    /* \"#utility.yul\":7454:7471   */\n  add\n    /* \"#utility.yul\":7450:7477   */\n  slt\n    /* \"#utility.yul\":7440:7562   */\n  tag_149\n  jumpi\n    /* \"#utility.yul\":7481:7560   */\n  tag_150\n  tag_45\n  jump\t// in\ntag_150:\n    /* \"#utility.yul\":7440:7562   */\ntag_149:\n    /* \"#utility.yul\":7591:7597   */\n  dup2\n    /* \"#utility.yul\":7585:7598   */\n  mload\n    /* \"#utility.yul\":7616:7706   */\n  tag_151\n    /* \"#utility.yul\":7702:7705   */\n  dup5\n    /* \"#utility.yul\":7694:7700   */\n  dup3\n    /* \"#utility.yul\":7687:7691   */\n  0x20\n    /* \"#utility.yul\":7679:7685   */\n  dup7\n    /* \"#utility.yul\":7675:7692   */\n  add\n    /* \"#utility.yul\":7616:7706   */\n  tag_52\n  jump\t// in\ntag_151:\n    /* \"#utility.yul\":7607:7706   */\n  swap2\n  pop\n    /* \"#utility.yul\":7430:7712   */\n  pop\n    /* \"#utility.yul\":7357:7712   */\n  swap3\n  swap2\n  pop\n  pop\n  jump\t// out\n    /* \"#utility.yul\":7718:7844   */\ntag_54:\n    /* \"#utility.yul\":7755:7762   */\n  0x00\n    /* \"#utility.yul\":7795:7837   */\n  0xffffffffffffffffffffffffffffffffffffffff\n    /* \"#utility.yul\":7788:7793   */\n  dup3\n    /* \"#utility.yul\":7784:7838   */\n  and\n    /* \"#utility.yul\":7773:7838   */\n  swap1\n  pop\n    /* \"#utility.yul\":7718:7844   */\n  swap2\n  swap1\n  pop\n  jump\t// out\n    /* \"#utility.yul\":7850:7946   */\ntag_55:\n    /* \"#utility.yul\":7887:7894   */\n  0x00\n    /* \"#utility.yul\":7916:7940   */\n  tag_154\n    /* \"#utility.yul\":7934:7939   */\n  dup3\n    /* \"#utility.yul\":7916:7940   */\n  tag_54\n  jump\t// in\ntag_154:\n    /* \"#utility.yul\":7905:7940   */\n  swap1\n  pop\n    /* \"#utility.yul\":7850:7946   */\n  swap2\n  swap1\n  pop\n  jump\t// out\n    /* \"#utility.yul\":7952:8074   */\ntag_56:\n    /* \"#utility.yul\":8025:8049   */\n  tag_156\n    /* \"#utility.yul\":8043:8048   */\n  dup2\n    /* \"#utility.yul\":8025:8049   */\n  tag_55\n  jump\t// in\ntag_156:\n    /* \"#utility.yul\":8018:8023   */\n  dup2\n    /* \"#utility.yul\":8015:8050   */\n  eq\n    /* \"#utility.yul\":8005:8068   */\n  tag_157\n  jumpi\n    /* \"#utility.yul\":8064:8065   */\n  0x00\n    /* \"#utility.yul\":8061:8062   */\n  dup1\n    /* \"#utility.yul\":8054:8066   */\n  revert\n    /* \"#utility.yul\":8005:8068   */\ntag_157:\n    /* \"#utility.yul\":7952:8074   */\n  pop\n  jump\t// out\n    /* \"#utility.yul\":8080:8223   */\ntag_57:\n    /* \"#utility.yul\":8137:8142   */\n  0x00\n    /* \"#utility.yul\":8168:8174   */\n  dup2\n    /* \"#utility.yul\":8162:8175   */\n  mload\n    /* \"#utility.yul\":8153:8175   */\n  swap1\n  pop\n    /* \"#utility.yul\":8184:8217   */\n  tag_159\n    /* \"#utility.yul\":8211:8216   */\n  dup2\n    /* \"#utility.yul\":8184:8217   */\n  tag_56\n  jump\t// in\ntag_159:\n    /* \"#utility.yul\":8080:8223   */\n  swap3\n  swap2\n  pop\n  pop\n  jump\t// out\n    /* \"#utility.yul\":8229:9238   */\ntag_5:\n    /* \"#utility.yul\":8337:8343   */\n  0x00\n    /* \"#utility.yul\":8345:8351   */\n  dup1\n    /* \"#utility.yul\":8353:8359   */\n  0x00\n    /* \"#utility.yul\":8402:8404   */\n  0x60\n    /* \"#utility.yul\":8390:8399   */\n  dup5\n    /* \"#utility.yul\":8381:8388   */\n  dup7\n    /* \"#utility.yul\":8377:8400   */\n  sub\n    /* \"#utility.yul\":8373:8405   */\n  slt\n    /* \"#utility.yul\":8370:8489   */\n  iszero\n  tag_161\n  jumpi\n    /* \"#utility.yul\":8408:8487   */\n  tag_162\n  tag_43\n  jump\t// in\ntag_162:\n    /* \"#utility.yul\":8370:8489   */\ntag_161:\n    /* \"#utility.yul\":8549:8550   */\n  0x00\n    /* \"#utility.yul\":8538:8547   */\n  dup5\n    /* \"#utility.yul\":8534:8551   */\n  add\n    /* \"#utility.yul\":8528:8552   */\n  mload\n    /* \"#utility.yul\":8579:8597   */\n  0xffffffffffffffff\n    /* \"#utility.yul\":8571:8577   */\n  dup2\n    /* \"#utility.yul\":8568:8598   */\n  gt\n    /* \"#utility.yul\":8565:8682   */\n  iszero\n  tag_163\n  jumpi\n    /* \"#utility.yul\":8601:8680   */\n  tag_164\n  tag_44\n  jump\t// in\ntag_164:\n    /* \"#utility.yul\":8565:8682   */\ntag_163:\n    /* \"#utility.yul\":8706:8780   */\n  tag_165\n    /* \"#utility.yul\":8772:8779   */\n  dup7\n    /* \"#utility.yul\":8763:8769   */\n  dup3\n    /* \"#utility.yul\":8752:8761   */\n  dup8\n    /* \"#utility.yul\":8748:8770   */\n  add\n    /* \"#utility.yul\":8706:8780   */\n  tag_53\n  jump\t// in\ntag_165:\n    /* \"#utility.yul\":8696:8780   */\n  swap4\n  pop\n    /* \"#utility.yul\":8499:8790   */\n  pop\n    /* \"#utility.yul\":8850:8852   */\n  0x20\n    /* \"#utility.yul\":8839:8848   */\n  dup5\n    /* \"#utility.yul\":8835:8853   */\n  add\n    /* \"#utility.yul\":8829:8854   */\n  mload\n    /* \"#utility.yul\":8881:8899   */\n  0xffffffffffffffff\n    /* \"#utility.yul\":8873:8879   */\n  dup2\n    /* \"#utility.yul\":8870:8900   */\n  gt\n    /* \"#utility.yul\":8867:8984   */\n  iszero\n  tag_166\n  jumpi\n    /* \"#utility.yul\":8903:8982   */\n  tag_167\n  tag_44\n  jump\t// in\ntag_167:\n    /* \"#utility.yul\":8867:8984   */\ntag_166:\n    /* \"#utility.yul\":9008:9082   */\n  tag_168\n    /* \"#utility.yul\":9074:9081   */\n  dup7\n    /* \"#utility.yul\":9065:9071   */\n  dup3\n    /* \"#utility.yul\":9054:9063   */\n  dup8\n    /* \"#utility.yul\":9050:9072   */\n  add\n    /* \"#utility.yul\":9008:9082   */\n  tag_53\n  jump\t// in\ntag_168:\n    /* \"#utility.yul\":8998:9082   */\n  swap3\n  pop\n    /* \"#utility.yul\":8800:9092   */\n  pop\n    /* \"#utility.yul\":9131:9133   */\n  0x40\n    /* \"#utility.yul\":9157:9221   */\n  tag_169\n    /* \"#utility.yul\":9213:9220   */\n  dup7\n    /* \"#utility.yul\":9204:9210   */\n  dup3\n    /* \"#utility.yul\":9193:9202   */\n  dup8\n    /* \"#utility.yul\":9189:9211   */\n  add\n    /* \"#utility.yul\":9157:9221   */\n  tag_57\n  jump\t// in\ntag_169:\n    /* \"#utility.yul\":9147:9221   */\n  swap2\n  pop\n    /* \"#utility.yul\":9102:9231   */\n  pop\n    /* \"#utility.yul\":8229:9238   */\n  swap3\n  pop\n  swap3\n  pop\n  swap3\n  jump\t// out\n    /* \"#utility.yul\":9244:9362   */\ntag_58:\n    /* \"#utility.yul\":9331:9355   */\n  tag_171\n    /* \"#utility.yul\":9349:9354   */\n  dup2\n    /* \"#utility.yul\":9331:9355   */\n  tag_55\n  jump\t// in\ntag_171:\n    /* \"#utility.yul\":9326:9329   */\n  dup3\n    /* \"#utility.yul\":9319:9356   */\n  mstore\n    /* \"#utility.yul\":9244:9362   */\n  pop\n  pop\n  jump\t// out\n    /* \"#utility.yul\":9368:9590   */\ntag_11:\n    /* \"#utility.yul\":9461:9465   */\n  0x00\n    /* \"#utility.yul\":9499:9501   */\n  0x20\n    /* \"#utility.yul\":9488:9497   */\n  dup3\n    /* \"#utility.yul\":9484:9502   */\n  add\n    /* \"#utility.yul\":9476:9502   */\n  swap1\n  pop\n    /* \"#utility.yul\":9512:9583   */\n  tag_173\n    /* \"#utility.yul\":9580:9581   */\n  0x00\n    /* \"#utility.yul\":9569:9578   */\n  dup4\n    /* \"#utility.yul\":9565:9582   */\n  add\n    /* \"#utility.yul\":9556:9562   */\n  dup5\n    /* \"#utility.yul\":9512:9583   */\n  tag_58\n  jump\t// in\ntag_173:\n    /* \"#utility.yul\":9368:9590   */\n  swap3\n  swap2\n  pop\n  pop\n  jump\t// out\n    /* \"chestNft.sol\":421:29881  contract KleptoGnomeLootChest is IERC721A,Ownable {... */\ntag_19:\n  dataSize(sub_0)\n  dup1\n  dataOffset(sub_0)\n  0x00\n  codecopy\n  0x00\n  return\nstop\n\nsub_0: assembly {\n        /* \"chestNft.sol\":421:29881  contract KleptoGnomeLootChest is IERC721A,Ownable {... */\n      mstore(0x40, 0x80)\n      jumpi(tag_1, lt(calldatasize, 0x04))\n      shr(0xe0, calldataload(0x00))\n      dup1\n      0x715018a6\n      gt\n      tag_28\n      jumpi\n      dup1\n      0xb88d4fde\n      gt\n      tag_29\n      jumpi\n      dup1\n      0xdc76668d\n      gt\n      tag_30\n      jumpi\n      dup1\n      0xdc76668d\n      eq\n      tag_24\n      jumpi\n      dup1\n      0xe985e9c5\n      eq\n      tag_25\n      jumpi\n      dup1\n      0xf259a29e\n      eq\n      tag_26\n      jumpi\n      dup1\n      0xf2fde38b\n      eq\n      tag_27\n      jumpi\n      jump(tag_1)\n    tag_30:\n      dup1\n      0xb88d4fde\n      eq\n      tag_21\n      jumpi\n      dup1\n      0xbf1e5e9e\n      eq\n      tag_22\n      jumpi\n      dup1\n      0xc87b56dd\n      eq\n      tag_23\n      jumpi\n      jump(tag_1)\n    tag_29:\n      dup1\n      0x715018a6\n      eq\n      tag_15\n      jumpi\n      dup1\n      0x8370d004\n      eq\n      tag_16\n      jumpi\n      dup1\n      0x8da5cb5b\n      eq\n      tag_17\n      jumpi\n      dup1\n      0x95d89b41\n      eq\n      tag_18\n      jumpi\n      dup1\n      0xa22cb465\n      eq\n      tag_19\n      jumpi\n      dup1\n      0xb6b285d9\n      eq\n      tag_20\n      jumpi\n      jump(tag_1)\n    tag_28:\n      dup1\n      0x23b872dd\n      gt\n      tag_31\n      jumpi\n      dup1\n      0x5503a0e8\n      gt\n      tag_32\n      jumpi\n      dup1\n      0x5503a0e8\n      eq\n      tag_11\n      jumpi\n      dup1\n      0x55f804b3\n      eq\n      tag_12\n      jumpi\n      dup1\n      0x6352211e\n      eq\n      tag_13\n      jumpi\n      dup1\n      0x70a08231\n      eq\n      tag_14\n      jumpi\n      jump(tag_1)\n    tag_32:\n      dup1\n      0x23b872dd\n      eq\n      tag_8\n      jumpi\n      dup1\n      0x40c10f19\n      eq\n      tag_9\n      jumpi\n      dup1\n      0x42842e0e\n      eq\n      tag_10\n      jumpi\n      jump(tag_1)\n    tag_31:\n      dup1\n      0x01ffc9a7\n      eq\n      tag_2\n      jumpi\n      dup1\n      0x06fdde03\n      eq\n      tag_3\n      jumpi\n      dup1\n      0x081812fc\n      eq\n      tag_4\n      jumpi\n      dup1\n      0x095ea7b3\n      eq\n      tag_5\n      jumpi\n      dup1\n      0x16ba10e0\n      eq\n      tag_6\n      jumpi\n      dup1\n      0x18160ddd\n      eq\n      tag_7\n      jumpi\n    tag_1:\n      0x00\n      dup1\n      revert\n        /* \"chestNft.sol\":5579:5941  function supportsInterface(bytes4 interfaceId) public view virtual override returns (bool) {... */\n    tag_2:\n      callvalue\n      dup1\n      iszero\n      tag_33\n      jumpi\n      0x00\n      dup1\n      revert\n    tag_33:\n      pop\n      tag_34\n      0x04\n      dup1\n      calldatasize\n      sub\n      dup2\n      add\n      swap1\n      tag_35\n      swap2\n      swap1\n      tag_36\n      jump\t// in\n    tag_35:\n      tag_37\n      jump\t// in\n    tag_34:\n      mload(0x40)\n      tag_38\n      swap2\n      swap1\n      tag_39\n      jump\t// in\n    tag_38:\n      mload(0x40)\n      dup1\n      swap2\n      sub\n      swap1\n      return\n        /* \"chestNft.sol\":5954:6054  function name() public view virtual override returns (string memory) {... */\n    tag_3:\n      callvalue\n      dup1\n      iszero\n      tag_40\n      jumpi\n      0x00\n      dup1\n      revert\n    tag_40:\n      pop\n      tag_41\n      tag_42\n      jump\t// in\n    tag_41:\n      mload(0x40)\n      tag_43\n      swap2\n      swap1\n      tag_44\n      jump\t// in\n    tag_43:\n      mload(0x40)\n      dup1\n      swap2\n      sub\n      swap1\n      return\n        /* \"chestNft.sol\":11503:11730  function getApproved(uint256 tokenId) public view virtual override returns (address) {... */\n    tag_4:\n      callvalue\n      dup1\n      iszero\n      tag_45\n      jumpi\n      0x00\n      dup1\n      revert\n    tag_45:\n      pop\n      tag_46\n      0x04\n      dup1\n      calldatasize\n      sub\n      dup2\n      add\n      swap1\n      tag_47\n      swap2\n      swap1\n      tag_48\n      jump\t// in\n    tag_47:\n      tag_49\n      jump\t// in\n    tag_46:\n      mload(0x40)\n      tag_50\n      swap2\n      swap1\n      tag_51\n      jump\t// in\n    tag_50:\n      mload(0x40)\n      dup1\n      swap2\n      sub\n      swap1\n      return\n        /* \"chestNft.sol\":11365:11489  function approve(address to, uint256 tokenId) public payable virtual override {... */\n    tag_5:\n      tag_52\n      0x04\n      dup1\n      calldatasize\n      sub\n      dup2\n      add\n      swap1\n      tag_53\n      swap2\n      swap1\n      tag_54\n      jump\t// in\n    tag_53:\n      tag_55\n      jump\t// in\n    tag_52:\n      stop\n        /* \"chestNft.sol\":7019:7127  function setUriSuffix(string memory _uriSuffix) external onlyOwner {... */\n    tag_6:\n      callvalue\n      dup1\n      iszero\n      tag_56\n      jumpi\n      0x00\n      dup1\n      revert\n    tag_56:\n      pop\n      tag_57\n      0x04\n      dup1\n      calldatasize\n      sub\n      dup2\n      add\n      swap1\n      tag_58\n      swap2\n      swap1\n      tag_59\n      jump\t// in\n    tag_58:\n      tag_60\n      jump\t// in\n    tag_57:\n      stop\n        /* \"chestNft.sol\":3654:3977  function totalSupply() public view virtual override returns (uint256) {... */\n    tag_7:\n      callvalue\n      dup1\n      iszero\n      tag_61\n      jumpi\n      0x00\n      dup1\n      revert\n    tag_61:\n      pop\n      tag_62\n      tag_63\n      jump\t// in\n    tag_62:\n      mload(0x40)\n      tag_64\n      swap2\n      swap1\n      tag_65\n      jump\t// in\n    tag_64:\n      mload(0x40)\n      dup1\n      swap2\n      sub\n      swap1\n      return\n        /* \"chestNft.sol\":13719:16777  function transferFrom(... */\n    tag_8:\n      tag_66\n      0x04\n      dup1\n      calldatasize\n      sub\n      dup2\n      add\n      swap1\n      tag_67\n      swap2\n      swap1\n      tag_68\n      jump\t// in\n    tag_67:\n      tag_69\n      jump\t// in\n    tag_66:\n      stop\n        /* \"chestNft.sol\":7289:7527  function mint(... */\n    tag_9:\n      callvalue\n      dup1\n      iszero\n      tag_70\n      jumpi\n      0x00\n      dup1\n      revert\n    tag_70:\n      pop\n      tag_71\n      0x04\n      dup1\n      calldatasize\n      sub\n      dup2\n      add\n      swap1\n      tag_72\n      swap2\n      swap1\n      tag_54\n      jump\t// in\n    tag_72:\n      tag_73\n      jump\t// in\n    tag_71:\n      stop\n        /* \"chestNft.sol\":16873:17066  function safeTransferFrom(... */\n    tag_10:\n      tag_74\n      0x04\n      dup1\n      calldatasize\n      sub\n      dup2\n      add\n      swap1\n      tag_75\n      swap2\n      swap1\n      tag_68\n      jump\t// in\n    tag_75:\n      tag_76\n      jump\t// in\n    tag_74:\n      stop\n        /* \"chestNft.sol\":2592:2620  string public uriSuffix = \"\" */\n    tag_11:\n      callvalue\n      dup1\n      iszero\n      tag_77\n      jumpi\n      0x00\n      dup1\n      revert\n    tag_77:\n      pop\n      tag_78\n      tag_79\n      jump\t// in\n    tag_78:\n      mload(0x40)\n      tag_80\n      swap2\n      swap1\n      tag_44\n      jump\t// in\n    tag_80:\n      mload(0x40)\n      dup1\n      swap2\n      sub\n      swap1\n      return\n        /* \"chestNft.sol\":6901:7006  function setBaseURI(string memory _newBaseURI) public onlyOwner {... */\n    tag_12:\n      callvalue\n      dup1\n      iszero\n      tag_81\n      jumpi\n      0x00\n      dup1\n      revert\n    tag_81:\n      pop\n      tag_82\n      0x04\n      dup1\n      calldatasize\n      sub\n      dup2\n      add\n      swap1\n      tag_83\n      swap2\n      swap1\n      tag_59\n      jump\t// in\n    tag_83:\n      tag_84\n      jump\t// in\n    tag_82:\n      stop\n        /* \"chestNft.sol\":8089:8241  function ownerOf(uint256 tokenId) public view virtual override returns (address) {... */\n    tag_13:\n      callvalue\n      dup1\n      iszero\n      tag_85\n      jumpi\n      0x00\n      dup1\n      revert\n    tag_85:\n      pop\n      tag_86\n      0x04\n      dup1\n      calldatasize\n      sub\n      dup2\n      add\n      swap1\n      tag_87\n      swap2\n      swap1\n      tag_48\n      jump\t// in\n    tag_87:\n      tag_88\n      jump\t// in\n    tag_86:\n      mload(0x40)\n      tag_89\n      swap2\n      swap1\n      tag_51\n      jump\t// in\n    tag_89:\n      mload(0x40)\n      dup1\n      swap2\n      sub\n      swap1\n      return\n        /* \"chestNft.sol\":4371:4613  function balanceOf(address owner) public view virtual override returns (uint256) {... */\n    tag_14:\n      callvalue\n      dup1\n      iszero\n      tag_90\n      jumpi\n      0x00\n      dup1\n      revert\n    tag_90:\n      pop\n      tag_91\n      0x04\n      dup1\n      calldatasize\n      sub\n      dup2\n      add\n      swap1\n      tag_92\n      swap2\n      swap1\n      tag_93\n      jump\t// in\n    tag_92:\n      tag_94\n      jump\t// in\n    tag_91:\n      mload(0x40)\n      tag_95\n      swap2\n      swap1\n      tag_65\n      jump\t// in\n    tag_95:\n      mload(0x40)\n      dup1\n      swap2\n      sub\n      swap1\n      return\n        /* \"@openzeppelin/contracts/access/Ownable.sol\":2293:2394  function renounceOwnership() public virtual onlyOwner {... */\n    tag_15:\n      callvalue\n      dup1\n      iszero\n      tag_96\n      jumpi\n      0x00\n      dup1\n      revert\n    tag_96:\n      pop\n      tag_97\n      tag_98\n      jump\t// in\n    tag_97:\n      stop\n        /* \"chestNft.sol\":7792:7942  function  checkredemmedphysicalitem(uint nftId ,address add)public view returns(bool){... */\n    tag_16:\n      callvalue\n      dup1\n      iszero\n      tag_99\n      jumpi\n      0x00\n      dup1\n      revert\n    tag_99:\n      pop\n      tag_100\n      0x04\n      dup1\n      calldatasize\n      sub\n      dup2\n      add\n      swap1\n      tag_101\n      swap2\n      swap1\n      tag_102\n      jump\t// in\n    tag_101:\n      tag_103\n      jump\t// in\n    tag_100:\n      mload(0x40)\n      tag_104\n      swap2\n      swap1\n      tag_39\n      jump\t// in\n    tag_104:\n      mload(0x40)\n      dup1\n      swap2\n      sub\n      swap1\n      return\n        /* \"@openzeppelin/contracts/access/Ownable.sol\":1638:1723  function owner() public view virtual returns (address) {... */\n    tag_17:\n      callvalue\n      dup1\n      iszero\n      tag_105\n      jumpi\n      0x00\n      dup1\n      revert\n    tag_105:\n      pop\n      tag_106\n      tag_107\n      jump\t// in\n    tag_106:\n      mload(0x40)\n      tag_108\n      swap2\n      swap1\n      tag_51\n      jump\t// in\n    tag_108:\n      mload(0x40)\n      dup1\n      swap2\n      sub\n      swap1\n      return\n        /* \"chestNft.sol\":6068:6172  function symbol() public view virtual override returns (string memory) {... */\n    tag_18:\n      callvalue\n      dup1\n      iszero\n      tag_109\n      jumpi\n      0x00\n      dup1\n      revert\n    tag_109:\n      pop\n      tag_110\n      tag_111\n      jump\t// in\n    tag_110:\n      mload(0x40)\n      tag_112\n      swap2\n      swap1\n      tag_44\n      jump\t// in\n    tag_112:\n      mload(0x40)\n      dup1\n      swap2\n      sub\n      swap1\n      return\n        /* \"chestNft.sol\":11743:11977  function setApprovalForAll(address operator, bool approved) public virtual override {... */\n    tag_19:\n      callvalue\n      dup1\n      iszero\n      tag_113\n      jumpi\n      0x00\n      dup1\n      revert\n    tag_113:\n      pop\n      tag_114\n      0x04\n      dup1\n      calldatasize\n      sub\n      dup2\n      add\n      swap1\n      tag_115\n      swap2\n      swap1\n      tag_116\n      jump\t// in\n    tag_115:\n      tag_117\n      jump\t// in\n    tag_114:\n      stop\n        /* \"chestNft.sol\":7135:7276  function setapprovedcontractaddress(address add)external onlyOwner{... */\n    tag_20:\n      callvalue\n      dup1\n      iszero\n      tag_118\n      jumpi\n      0x00\n      dup1\n      revert\n    tag_118:\n      pop\n      tag_119\n      0x04\n      dup1\n      calldatasize\n      sub\n      dup2\n      add\n      swap1\n      tag_120\n      swap2\n      swap1\n      tag_93\n      jump\t// in\n    tag_120:\n      tag_121\n      jump\t// in\n    tag_119:\n      stop\n        /* \"chestNft.sol\":17080:17496  function safeTransferFrom(... */\n    tag_21:\n      tag_122\n      0x04\n      dup1\n      calldatasize\n      sub\n      dup2\n      add\n      swap1\n      tag_123\n      swap2\n      swap1\n      tag_124\n      jump\t// in\n    tag_123:\n      tag_125\n      jump\t// in\n    tag_122:\n      stop\n        /* \"chestNft.sol\":7962:8078  function checkredeemednftid(address add)public view returns(uint[] memory ){... */\n    tag_22:\n      callvalue\n      dup1\n      iszero\n      tag_126\n      jumpi\n      0x00\n      dup1\n      revert\n    tag_126:\n      pop\n      tag_127\n      0x04\n      dup1\n      calldatasize\n      sub\n      dup2\n      add\n      swap1\n      tag_128\n      swap2\n      swap1\n      tag_93\n      jump\t// in\n    tag_128:\n      tag_129\n      jump\t// in\n    tag_127:\n      mload(0x40)\n      tag_130\n      swap2\n      swap1\n      tag_131\n      jump\t// in\n    tag_130:\n      mload(0x40)\n      dup1\n      swap2\n      sub\n      swap1\n      return\n        /* \"chestNft.sol\":6186:6523  function tokenURI(uint256 tokenId) public view virtual override returns (string memory) {... */\n    tag_23:\n      callvalue\n      dup1\n      iszero\n      tag_132\n      jumpi\n      0x00\n      dup1\n      revert\n    tag_132:\n      pop\n      tag_133\n      0x04\n      dup1\n      calldatasize\n      sub\n      dup2\n      add\n      swap1\n      tag_134\n      swap2\n      swap1\n      tag_48\n      jump\t// in\n    tag_134:\n      tag_135\n      jump\t// in\n    tag_133:\n      mload(0x40)\n      tag_136\n      swap2\n      swap1\n      tag_44\n      jump\t// in\n    tag_136:\n      mload(0x40)\n      dup1\n      swap2\n      sub\n      swap1\n      return\n        /* \"chestNft.sol\":7541:7784  function redeemPhysicalItem(uint  nftId)public {... */\n    tag_24:\n      callvalue\n      dup1\n      iszero\n      tag_137\n      jumpi\n      0x00\n      dup1\n      revert\n    tag_137:\n      pop\n      tag_138\n      0x04\n      dup1\n      calldatasize\n      sub\n      dup2\n      add\n      swap1\n      tag_139\n      swap2\n      swap1\n      tag_48\n      jump\t// in\n    tag_139:\n      tag_140\n      jump\t// in\n    tag_138:\n      stop\n        /* \"chestNft.sol\":11990:12154  function isApprovedForAll(address owner, address operator) public view virtual override returns (bool) {... */\n    tag_25:\n      callvalue\n      dup1\n      iszero\n      tag_141\n      jumpi\n      0x00\n      dup1\n      revert\n    tag_141:\n      pop\n      tag_142\n      0x04\n      dup1\n      calldatasize\n      sub\n      dup2\n      add\n      swap1\n      tag_143\n      swap2\n      swap1\n      tag_144\n      jump\t// in\n    tag_143:\n      tag_145\n      jump\t// in\n    tag_142:\n      mload(0x40)\n      tag_146\n      swap2\n      swap1\n      tag_39\n      jump\t// in\n    tag_146:\n      mload(0x40)\n      dup1\n      swap2\n      sub\n      swap1\n      return\n        /* \"chestNft.sol\":2563:2585  string public baseURI_ */\n    tag_26:\n      callvalue\n      dup1\n      iszero\n      tag_147\n      jumpi\n      0x00\n      dup1\n      revert\n    tag_147:\n      pop\n      tag_148\n      tag_149\n      jump\t// in\n    tag_148:\n      mload(0x40)\n      tag_150\n      swap2\n      swap1\n      tag_44\n      jump\t// in\n    tag_150:\n      mload(0x40)\n      dup1\n      swap2\n      sub\n      swap1\n      return\n        /* \"@openzeppelin/contracts/access/Ownable.sol\":2543:2758  function transferOwnership(address newOwner) public virtual onlyOwner {... */\n    tag_27:\n      callvalue\n      dup1\n      iszero\n      tag_151\n      jumpi\n      0x00\n      dup1\n      revert\n    tag_151:\n      pop\n      tag_152\n      0x04\n      dup1\n      calldatasize\n      sub\n      dup2\n      add\n      swap1\n      tag_153\n      swap2\n      swap1\n      tag_93\n      jump\t// in\n    tag_153:\n      tag_154\n      jump\t// in\n    tag_152:\n      stop\n        /* \"chestNft.sol\":5579:5941  function supportsInterface(bytes4 interfaceId) public view virtual override returns (bool) {... */\n    tag_37:\n        /* \"chestNft.sol\":5664:5668  bool */\n      0x00\n        /* \"chestNft.sol\":5726:5736  0x01ffc9a7 */\n      0x01ffc9a7\n        /* \"chestNft.sol\":5711:5736  interfaceId == 0x01ffc9a7 */\n      0xe0\n      shl\n        /* \"chestNft.sol\":5711:5722  interfaceId */\n      dup3\n        /* \"chestNft.sol\":5711:5736  interfaceId == 0x01ffc9a7 */\n      not(0xffffffffffffffffffffffffffffffffffffffffffffffffffffffff)\n      and\n      eq\n        /* \"chestNft.sol\":5711:5813  interfaceId == 0x01ffc9a7 || // ERC165 interface ID for ERC165.... */\n      dup1\n      tag_156\n      jumpi\n      pop\n        /* \"chestNft.sol\":5803:5813  0x80ac58cd */\n      0x80ac58cd\n        /* \"chestNft.sol\":5788:5813  interfaceId == 0x80ac58cd */\n      0xe0\n      shl\n        /* \"chestNft.sol\":5788:5799  interfaceId */\n      dup3\n        /* \"chestNft.sol\":5788:5813  interfaceId == 0x80ac58cd */\n      not(0xffffffffffffffffffffffffffffffffffffffffffffffffffffffff)\n      and\n      eq\n        /* \"chestNft.sol\":5711:5813  interfaceId == 0x01ffc9a7 || // ERC165 interface ID for ERC165.... */\n    tag_156:\n        /* \"chestNft.sol\":5711:5890  interfaceId == 0x01ffc9a7 || // ERC165 interface ID for ERC165.... */\n      dup1\n      tag_157\n      jumpi\n      pop\n        /* \"chestNft.sol\":5880:5890  0x5b5e139f */\n      0x5b5e139f\n        /* \"chestNft.sol\":5865:5890  interfaceId == 0x5b5e139f */\n      0xe0\n      shl\n        /* \"chestNft.sol\":5865:5876  interfaceId */\n      dup3\n        /* \"chestNft.sol\":5865:5890  interfaceId == 0x5b5e139f */\n      not(0xffffffffffffffffffffffffffffffffffffffffffffffffffffffff)\n      and\n      eq\n        /* \"chestNft.sol\":5711:5890  interfaceId == 0x01ffc9a7 || // ERC165 interface ID for ERC165.... */\n    tag_157:\n        /* \"chestNft.sol\":5691:5890  return... */\n      swap1\n      pop\n        /* \"chestNft.sol\":5579:5941  function supportsInterface(bytes4 interfaceId) public view virtual override returns (bool) {... */\n      swap2\n      swap1\n      pop\n      jump\t// out\n        /* \"chestNft.sol\":5954:6054  function name() public view virtual override returns (string memory) {... */\n    tag_42:\n        /* \"chestNft.sol\":6008:6021  string memory */\n      0x60\n        /* \"chestNft.sol\":6041:6046  _name */\n      0x03\n        /* \"chestNft.sol\":6034:6046  return _name */\n      dup1\n      sload\n      tag_159\n      swap1\n      tag_160\n      jump\t// in\n    tag_159:\n      dup1\n      0x1f\n      add\n      0x20\n      dup1\n      swap2\n      div\n      mul\n      0x20\n      add\n      mload(0x40)\n      swap1\n      dup2\n      add\n      0x40\n      mstore\n      dup1\n      swap3\n      swap2\n      swap1\n      dup2\n      dup2\n      mstore\n      0x20\n      add\n      dup3\n      dup1\n      sload\n      tag_161\n      swap1\n      tag_160\n      jump\t// in\n    tag_161:\n      dup1\n      iszero\n      tag_162\n      jumpi\n      dup1\n      0x1f\n      lt\n      tag_163\n      jumpi\n      0x0100\n      dup1\n      dup4\n      sload\n      div\n      mul\n      dup4\n      mstore\n      swap2\n      0x20\n      add\n      swap2\n      jump(tag_162)\n    tag_163:\n      dup3\n      add\n      swap2\n      swap1\n      0x00\n      mstore\n      keccak256(0x00, 0x20)\n      swap1\n    tag_164:\n      dup2\n      sload\n      dup2\n      mstore\n      swap1\n      0x01\n      add\n      swap1\n      0x20\n      add\n      dup1\n      dup4\n      gt\n      tag_164\n      jumpi\n      dup3\n      swap1\n      sub\n      0x1f\n      and\n      dup3\n      add\n      swap2\n    tag_162:\n      pop\n      pop\n      pop\n      pop\n      pop\n      swap1\n      pop\n        /* \"chestNft.sol\":5954:6054  function name() public view virtual override returns (string memory) {... */\n      swap1\n      jump\t// out\n        /* \"chestNft.sol\":11503:11730  function getApproved(uint256 tokenId) public view virtual override returns (address) {... */\n    tag_49:\n        /* \"chestNft.sol\":11579:11586  address */\n      0x00\n        /* \"chestNft.sol\":11604:11620  _exists(tokenId) */\n      tag_166\n        /* \"chestNft.sol\":11612:11619  tokenId */\n      dup3\n        /* \"chestNft.sol\":11604:11611  _exists */\n      tag_167\n        /* \"chestNft.sol\":11604:11620  _exists(tokenId) */\n      jump\t// in\n    tag_166:\n        /* \"chestNft.sol\":11599:11672  if (!_exists(tokenId)) _revert(ApprovalQueryForNonexistentToken.selector) */\n      tag_168\n      jumpi\n        /* \"chestNft.sol\":11622:11672  _revert(ApprovalQueryForNonexistentToken.selector) */\n      tag_169\n        /* \"chestNft.sol\":11630:11671  ApprovalQueryForNonexistentToken.selector */\n      shl(0xe0, 0xcf4700e4)\n        /* \"chestNft.sol\":11622:11629  _revert */\n      tag_170\n        /* \"chestNft.sol\":11622:11672  _revert(ApprovalQueryForNonexistentToken.selector) */\n      jump\t// in\n    tag_169:\n        /* \"chestNft.sol\":11599:11672  if (!_exists(tokenId)) _revert(ApprovalQueryForNonexistentToken.selector) */\n    tag_168:\n        /* \"chestNft.sol\":11692:11707  _tokenApprovals */\n      0x0d\n        /* \"chestNft.sol\":11692:11716  _tokenApprovals[tokenId] */\n      0x00\n        /* \"chestNft.sol\":11708:11715  tokenId */\n      dup4\n        /* \"chestNft.sol\":11692:11716  _tokenApprovals[tokenId] */\n      dup2\n      mstore\n      0x20\n      add\n      swap1\n      dup2\n      mstore\n      0x20\n      add\n      0x00\n      keccak256\n        /* \"chestNft.sol\":11692:11722  _tokenApprovals[tokenId].value */\n      0x00\n      add\n      0x00\n      swap1\n      sload\n      swap1\n      0x0100\n      exp\n      swap1\n      div\n      0xffffffffffffffffffffffffffffffffffffffff\n      and\n        /* \"chestNft.sol\":11685:11722  return _tokenApprovals[tokenId].value */\n      swap1\n      pop\n        /* \"chestNft.sol\":11503:11730  function getApproved(uint256 tokenId) public view virtual override returns (address) {... */\n      swap2\n      swap1\n      pop\n      jump\t// out\n        /* \"chestNft.sol\":11365:11489  function approve(address to, uint256 tokenId) public payable virtual override {... */\n    tag_55:\n        /* \"chestNft.sol\":11454:11481  _approve(to, tokenId, true) */\n      tag_172\n        /* \"chestNft.sol\":11463:11465  to */\n      dup3\n        /* \"chestNft.sol\":11467:11474  tokenId */\n      dup3\n        /* \"chestNft.sol\":11476:11480  true */\n      0x01\n        /* \"chestNft.sol\":11454:11462  _approve */\n      tag_173\n        /* \"chestNft.sol\":11454:11481  _approve(to, tokenId, true) */\n      jump\t// in\n    tag_172:\n        /* \"chestNft.sol\":11365:11489  function approve(address to, uint256 tokenId) public payable virtual override {... */\n      pop\n      pop\n      jump\t// out\n        /* \"chestNft.sol\":7019:7127  function setUriSuffix(string memory _uriSuffix) external onlyOwner {... */\n    tag_60:\n        /* \"@openzeppelin/contracts/access/Ownable.sol\":1531:1544  _checkOwner() */\n      tag_175\n        /* \"@openzeppelin/contracts/access/Ownable.sol\":1531:1542  _checkOwner */\n      tag_176\n        /* \"@openzeppelin/contracts/access/Ownable.sol\":1531:1544  _checkOwner() */\n      jump\t// in\n    tag_175:\n        /* \"chestNft.sol\":7109:7119  _uriSuffix */\n      dup1\n        /* \"chestNft.sol\":7097:7106  uriSuffix */\n      0x06\n        /* \"chestNft.sol\":7097:7119  uriSuffix = _uriSuffix */\n      swap1\n      dup2\n      tag_178\n      swap2\n      swap1\n      tag_179\n      jump\t// in\n    tag_178:\n      pop\n        /* \"chestNft.sol\":7019:7127  function setUriSuffix(string memory _uriSuffix) external onlyOwner {... */\n      pop\n      jump\t// out\n        /* \"chestNft.sol\":3654:3977  function totalSupply() public view virtual override returns (uint256) {... */\n    tag_63:\n        /* \"chestNft.sol\":3715:3722  uint256 */\n      0x00\n        /* \"chestNft.sol\":3943:3958  _startTokenId() */\n      tag_181\n        /* \"chestNft.sol\":3943:3956  _startTokenId */\n      tag_182\n        /* \"chestNft.sol\":3943:3958  _startTokenId() */\n      jump\t// in\n    tag_181:\n        /* \"chestNft.sol\":3928:3940  _burnCounter */\n      sload(0x02)\n        /* \"chestNft.sol\":3912:3925  _currentIndex */\n      sload(0x01)\n        /* \"chestNft.sol\":3912:3940  _currentIndex - _burnCounter */\n      sub\n        /* \"chestNft.sol\":3912:3958  _currentIndex - _burnCounter - _startTokenId() */\n      sub\n        /* \"chestNft.sol\":3905:3958  return _currentIndex - _burnCounter - _startTokenId() */\n      swap1\n      pop\n        /* \"chestNft.sol\":3654:3977  function totalSupply() public view virtual override returns (uint256) {... */\n      swap1\n      jump\t// out\n        /* \"chestNft.sol\":13719:16777  function transferFrom(... */\n    tag_69:\n        /* \"chestNft.sol\":13861:13888  uint256 prevOwnershipPacked */\n      0x00\n        /* \"chestNft.sol\":13891:13918  _packedOwnershipOf(tokenId) */\n      tag_184\n        /* \"chestNft.sol\":13910:13917  tokenId */\n      dup3\n        /* \"chestNft.sol\":13891:13909  _packedOwnershipOf */\n      tag_185\n        /* \"chestNft.sol\":13891:13918  _packedOwnershipOf(tokenId) */\n      jump\t// in\n    tag_184:\n        /* \"chestNft.sol\":13861:13918  uint256 prevOwnershipPacked = _packedOwnershipOf(tokenId) */\n      swap1\n      pop\n        /* \"chestNft.sol\":2066:2080  (1 << 160) - 1 */\n      0xffffffffffffffffffffffffffffffffffffffff\n        /* \"chestNft.sol\":14062:14066  from */\n      dup5\n        /* \"chestNft.sol\":14046:14068  uint256(uint160(from)) */\n      0xffffffffffffffffffffffffffffffffffffffff\n      and\n        /* \"chestNft.sol\":14046:14087  uint256(uint160(from)) & _BITMASK_ADDRESS */\n      and\n        /* \"chestNft.sol\":14023:14089  from = address(uint160(uint256(uint160(from)) & _BITMASK_ADDRESS)) */\n      swap4\n      pop\n        /* \"chestNft.sol\":14147:14151  from */\n      dup4\n        /* \"chestNft.sol\":14106:14151  address(uint160(prevOwnershipPacked)) != from */\n      0xffffffffffffffffffffffffffffffffffffffff\n      and\n        /* \"chestNft.sol\":14122:14141  prevOwnershipPacked */\n      dup2\n        /* \"chestNft.sol\":14106:14151  address(uint160(prevOwnershipPacked)) != from */\n      0xffffffffffffffffffffffffffffffffffffffff\n      and\n      eq\n        /* \"chestNft.sol\":14102:14197  if (address(uint160(prevOwnershipPacked)) != from) _revert(TransferFromIncorrectOwner.selector) */\n      tag_186\n      jumpi\n        /* \"chestNft.sol\":14153:14197  _revert(TransferFromIncorrectOwner.selector) */\n      tag_187\n        /* \"chestNft.sol\":14161:14196  TransferFromIncorrectOwner.selector */\n      shl(0xe0, 0xa1148100)\n        /* \"chestNft.sol\":14153:14160  _revert */\n      tag_170\n        /* \"chestNft.sol\":14153:14197  _revert(TransferFromIncorrectOwner.selector) */\n      jump\t// in\n    tag_187:\n        /* \"chestNft.sol\":14102:14197  if (address(uint160(prevOwnershipPacked)) != from) _revert(TransferFromIncorrectOwner.selector) */\n    tag_186:\n        /* \"chestNft.sol\":14211:14238  uint256 approvedAddressSlot */\n      0x00\n        /* \"chestNft.sol\":14240:14263  address approvedAddress */\n      dup1\n        /* \"chestNft.sol\":14267:14302  _getApprovedSlotAndAddress(tokenId) */\n      tag_188\n        /* \"chestNft.sol\":14294:14301  tokenId */\n      dup5\n        /* \"chestNft.sol\":14267:14293  _getApprovedSlotAndAddress */\n      tag_189\n        /* \"chestNft.sol\":14267:14302  _getApprovedSlotAndAddress(tokenId) */\n      jump\t// in\n    tag_188:\n        /* \"chestNft.sol\":14210:14302  (uint256 approvedAddressSlot, address approvedAddress) = _getApprovedSlotAndAddress(tokenId) */\n      swap2\n      pop\n      swap2\n      pop\n        /* \"chestNft.sol\":14402:14470  _isSenderApprovedOrOwner(approvedAddress, from, _msgSenderERC721A()) */\n      tag_190\n        /* \"chestNft.sol\":14427:14442  approvedAddress */\n      dup2\n        /* \"chestNft.sol\":14444:14448  from */\n      dup8\n        /* \"chestNft.sol\":14450:14469  _msgSenderERC721A() */\n      tag_191\n        /* \"chestNft.sol\":14450:14467  _msgSenderERC721A */\n      tag_192\n        /* \"chestNft.sol\":14450:14469  _msgSenderERC721A() */\n      jump\t// in\n    tag_191:\n        /* \"chestNft.sol\":14402:14426  _isSenderApprovedOrOwner */\n      tag_193\n        /* \"chestNft.sol\":14402:14470  _isSenderApprovedOrOwner(approvedAddress, from, _msgSenderERC721A()) */\n      jump\t// in\n    tag_190:\n        /* \"chestNft.sol\":14397:14586  if (!_isSenderApprovedOrOwner(approvedAddress, from, _msgSenderERC721A()))... */\n      tag_194\n      jumpi\n        /* \"chestNft.sol\":14490:14533  isApprovedForAll(from, _msgSenderERC721A()) */\n      tag_195\n        /* \"chestNft.sol\":14507:14511  from */\n      dup7\n        /* \"chestNft.sol\":14513:14532  _msgSenderERC721A() */\n      tag_196\n        /* \"chestNft.sol\":14513:14530  _msgSenderERC721A */\n      tag_192\n        /* \"chestNft.sol\":14513:14532  _msgSenderERC721A() */\n      jump\t// in\n    tag_196:\n        /* \"chestNft.sol\":14490:14506  isApprovedForAll */\n      tag_145\n        /* \"chestNft.sol\":14490:14533  isApprovedForAll(from, _msgSenderERC721A()) */\n      jump\t// in\n    tag_195:\n        /* \"chestNft.sol\":14485:14586  if (!isApprovedForAll(from, _msgSenderERC721A())) _revert(TransferCallerNotOwnerNorApproved.selector) */\n      tag_197\n      jumpi\n        /* \"chestNft.sol\":14535:14586  _revert(TransferCallerNotOwnerNorApproved.selector) */\n      tag_198\n        /* \"chestNft.sol\":14543:14585  TransferCallerNotOwnerNorApproved.selector */\n      shl(0xe0, 0x59c896be)\n        /* \"chestNft.sol\":14535:14542  _revert */\n      tag_170\n        /* \"chestNft.sol\":14535:14586  _revert(TransferCallerNotOwnerNorApproved.selector) */\n      jump\t// in\n    tag_198:\n        /* \"chestNft.sol\":14485:14586  if (!isApprovedForAll(from, _msgSenderERC721A())) _revert(TransferCallerNotOwnerNorApproved.selector) */\n    tag_197:\n        /* \"chestNft.sol\":14397:14586  if (!_isSenderApprovedOrOwner(approvedAddress, from, _msgSenderERC721A()))... */\n    tag_194:\n        /* \"chestNft.sol\":14599:14642  _beforeTokenTransfers(from, to, tokenId, 1) */\n      tag_199\n        /* \"chestNft.sol\":14621:14625  from */\n      dup7\n        /* \"chestNft.sol\":14627:14629  to */\n      dup7\n        /* \"chestNft.sol\":14631:14638  tokenId */\n      dup7\n        /* \"chestNft.sol\":14640:14641  1 */\n      0x01\n        /* \"chestNft.sol\":14599:14620  _beforeTokenTransfers */\n      tag_200\n        /* \"chestNft.sol\":14599:14642  _beforeTokenTransfers(from, to, tokenId, 1) */\n      jump\t// in\n    tag_199:\n        /* \"chestNft.sol\":14735:14750  approvedAddress */\n      dup1\n        /* \"chestNft.sol\":14732:14892  if approvedAddress {... */\n      iszero\n      tag_201\n      jumpi\n        /* \"chestNft.sol\":14875:14876  0 */\n      0x00\n        /* \"chestNft.sol\":14854:14873  approvedAddressSlot */\n      dup3\n        /* \"chestNft.sol\":14847:14877  sstore(approvedAddressSlot, 0) */\n      sstore\n        /* \"chestNft.sol\":14732:14892  if approvedAddress {... */\n    tag_201:\n        /* \"chestNft.sol\":15020:15038  _packedAddressData */\n      0x0c\n        /* \"chestNft.sol\":15020:15044  _packedAddressData[from] */\n      0x00\n        /* \"chestNft.sol\":15039:15043  from */\n      dup8\n        /* \"chestNft.sol\":15020:15044  _packedAddressData[from] */\n      0xffffffffffffffffffffffffffffffffffffffff\n      and\n      0xffffffffffffffffffffffffffffffffffffffff\n      and\n      dup2\n      mstore\n      0x20\n      add\n      swap1\n      dup2\n      mstore\n      0x20\n      add\n      0x00\n      keccak256\n      0x00\n        /* \"chestNft.sol\":15018:15044  --_packedAddressData[from] */\n      dup2\n      sload\n      0x01\n      swap1\n      sub\n      swap2\n      swap1\n      pop\n      dup2\n      swap1\n      sstore\n      pop\n        /* \"chestNft.sol\":15089:15107  _packedAddressData */\n      0x0c\n        /* \"chestNft.sol\":15089:15111  _packedAddressData[to] */\n      0x00\n        /* \"chestNft.sol\":15108:15110  to */\n      dup7\n        /* \"chestNft.sol\":15089:15111  _packedAddressData[to] */\n      0xffffffffffffffffffffffffffffffffffffffff\n      and\n      0xffffffffffffffffffffffffffffffffffffffff\n      and\n      dup2\n      mstore\n      0x20\n      add\n      swap1\n      dup2\n      mstore\n      0x20\n      add\n      0x00\n      keccak256\n      0x00\n        /* \"chestNft.sol\":15087:15111  ++_packedAddressData[to] */\n      dup2\n      sload\n      0x01\n      add\n      swap2\n      swap1\n      pop\n      dup2\n      swap1\n      sstore\n      pop\n        /* \"chestNft.sol\":15198:15344  _packOwnershipData(... */\n      tag_202\n        /* \"chestNft.sol\":15235:15237  to */\n      dup6\n        /* \"chestNft.sol\":15284:15329  _nextExtraData(from, to, prevOwnershipPacked) */\n      tag_203\n        /* \"chestNft.sol\":15299:15303  from */\n      dup9\n        /* \"chestNft.sol\":15305:15307  to */\n      dup9\n        /* \"chestNft.sol\":15309:15328  prevOwnershipPacked */\n      dup8\n        /* \"chestNft.sol\":15284:15298  _nextExtraData */\n      tag_204\n        /* \"chestNft.sol\":15284:15329  _nextExtraData(from, to, prevOwnershipPacked) */\n      jump\t// in\n    tag_203:\n        /* \"chestNft.sol\":1664:1672  1 << 225 */\n      0x0200000000000000000000000000000000000000000000000000000000\n        /* \"chestNft.sol\":15256:15329  _BITMASK_NEXT_INITIALIZED | _nextExtraData(from, to, prevOwnershipPacked) */\n      or\n        /* \"chestNft.sol\":15198:15216  _packOwnershipData */\n      tag_205\n        /* \"chestNft.sol\":15198:15344  _packOwnershipData(... */\n      jump\t// in\n    tag_202:\n        /* \"chestNft.sol\":15169:15186  _packedOwnerships */\n      0x0b\n        /* \"chestNft.sol\":15169:15195  _packedOwnerships[tokenId] */\n      0x00\n        /* \"chestNft.sol\":15187:15194  tokenId */\n      dup7\n        /* \"chestNft.sol\":15169:15195  _packedOwnerships[tokenId] */\n      dup2\n      mstore\n      0x20\n      add\n      swap1\n      dup2\n      mstore\n      0x20\n      add\n      0x00\n      keccak256\n        /* \"chestNft.sol\":15169:15344  _packedOwnerships[tokenId] = _packOwnershipData(... */\n      dup2\n      swap1\n      sstore\n      pop\n        /* \"chestNft.sol\":15515:15516  0 */\n      0x00\n        /* \"chestNft.sol\":1664:1672  1 << 225 */\n      0x0200000000000000000000000000000000000000000000000000000000\n        /* \"chestNft.sol\":15464:15483  prevOwnershipPacked */\n      dup5\n        /* \"chestNft.sol\":15464:15511  prevOwnershipPacked & _BITMASK_NEXT_INITIALIZED */\n      and\n        /* \"chestNft.sol\":15464:15516  prevOwnershipPacked & _BITMASK_NEXT_INITIALIZED == 0 */\n      sub\n        /* \"chestNft.sol\":15460:16087  if (prevOwnershipPacked & _BITMASK_NEXT_INITIALIZED == 0) {... */\n      tag_206\n      jumpi\n        /* \"chestNft.sol\":15537:15556  uint256 nextTokenId */\n      0x00\n        /* \"chestNft.sol\":15569:15570  1 */\n      0x01\n        /* \"chestNft.sol\":15559:15566  tokenId */\n      dup6\n        /* \"chestNft.sol\":15559:15570  tokenId + 1 */\n      add\n        /* \"chestNft.sol\":15537:15570  uint256 nextTokenId = tokenId + 1 */\n      swap1\n      pop\n        /* \"chestNft.sol\":15726:15727  0 */\n      0x00\n        /* \"chestNft.sol\":15692:15709  _packedOwnerships */\n      0x0b\n        /* \"chestNft.sol\":15692:15722  _packedOwnerships[nextTokenId] */\n      0x00\n        /* \"chestNft.sol\":15710:15721  nextTokenId */\n      dup4\n        /* \"chestNft.sol\":15692:15722  _packedOwnerships[nextTokenId] */\n      dup2\n      mstore\n      0x20\n      add\n      swap1\n      dup2\n      mstore\n      0x20\n      add\n      0x00\n      keccak256\n      sload\n        /* \"chestNft.sol\":15692:15727  _packedOwnerships[nextTokenId] == 0 */\n      sub\n        /* \"chestNft.sol\":15688:16072  if (_packedOwnerships[nextTokenId] == 0) {... */\n      tag_207\n      jumpi\n        /* \"chestNft.sol\":15830:15843  _currentIndex */\n      sload(0x01)\n        /* \"chestNft.sol\":15815:15826  nextTokenId */\n      dup2\n        /* \"chestNft.sol\":15815:15843  nextTokenId != _currentIndex */\n      eq\n        /* \"chestNft.sol\":15811:16053  if (nextTokenId != _currentIndex) {... */\n      tag_208\n      jumpi\n        /* \"chestNft.sol\":16010:16029  prevOwnershipPacked */\n      dup4\n        /* \"chestNft.sol\":15977:15994  _packedOwnerships */\n      0x0b\n        /* \"chestNft.sol\":15977:16007  _packedOwnerships[nextTokenId] */\n      0x00\n        /* \"chestNft.sol\":15995:16006  nextTokenId */\n      dup4\n        /* \"chestNft.sol\":15977:16007  _packedOwnerships[nextTokenId] */\n      dup2\n      mstore\n      0x20\n      add\n      swap1\n      dup2\n      mstore\n      0x20\n      add\n      0x00\n      keccak256\n        /* \"chestNft.sol\":15977:16029  _packedOwnerships[nextTokenId] = prevOwnershipPacked */\n      dup2\n      swap1\n      sstore\n      pop\n        /* \"chestNft.sol\":15811:16053  if (nextTokenId != _currentIndex) {... */\n    tag_208:\n        /* \"chestNft.sol\":15688:16072  if (_packedOwnerships[nextTokenId] == 0) {... */\n    tag_207:\n        /* \"chestNft.sol\":15518:16087  {... */\n      pop\n        /* \"chestNft.sol\":15460:16087  if (prevOwnershipPacked & _BITMASK_NEXT_INITIALIZED == 0) {... */\n    tag_206:\n        /* \"chestNft.sol\":16200:16216  uint256 toMasked */\n      0x00\n        /* \"chestNft.sol\":2066:2080  (1 << 160) - 1 */\n      0xffffffffffffffffffffffffffffffffffffffff\n        /* \"chestNft.sol\":16235:16237  to */\n      dup7\n        /* \"chestNft.sol\":16219:16239  uint256(uint160(to)) */\n      0xffffffffffffffffffffffffffffffffffffffff\n      and\n        /* \"chestNft.sol\":16219:16258  uint256(uint160(to)) & _BITMASK_ADDRESS */\n      and\n        /* \"chestNft.sol\":16200:16258  uint256 toMasked = uint256(uint160(to)) & _BITMASK_ADDRESS */\n      swap1\n      pop\n        /* \"chestNft.sol\":16599:16606  tokenId */\n      dup5\n        /* \"chestNft.sol\":16563:16571  toMasked */\n      dup2\n        /* \"chestNft.sol\":16529:16533  from */\n      dup9\n        /* \"chestNft.sol\":16471:16496  _TRANSFER_EVENT_SIGNATURE */\n      0xddf252ad1be2c89b69c2b068fc378daa952ba7f163c4a11628f55a4df523b3ef\n        /* \"chestNft.sol\":16416:16417  0 */\n      0x00\n        /* \"chestNft.sol\":16359:16360  0 */\n      dup1\n        /* \"chestNft.sol\":16336:16635  log4(... */\n      log4\n        /* \"chestNft.sol\":16672:16673  0 */\n      0x00\n        /* \"chestNft.sol\":16660:16668  toMasked */\n      dup2\n        /* \"chestNft.sol\":16660:16673  toMasked == 0 */\n      sub\n        /* \"chestNft.sol\":16656:16714  if (toMasked == 0) _revert(TransferToZeroAddress.selector) */\n      tag_209\n      jumpi\n        /* \"chestNft.sol\":16675:16714  _revert(TransferToZeroAddress.selector) */\n      tag_210\n        /* \"chestNft.sol\":16683:16713  TransferToZeroAddress.selector */\n      shl(0xe0, 0xea553b34)\n        /* \"chestNft.sol\":16675:16682  _revert */\n      tag_170\n        /* \"chestNft.sol\":16675:16714  _revert(TransferToZeroAddress.selector) */\n      jump\t// in\n    tag_210:\n        /* \"chestNft.sol\":16656:16714  if (toMasked == 0) _revert(TransferToZeroAddress.selector) */\n    tag_209:\n        /* \"chestNft.sol\":16727:16769  _afterTokenTransfers(from, to, tokenId, 1) */\n      tag_211\n        /* \"chestNft.sol\":16748:16752  from */\n      dup8\n        /* \"chestNft.sol\":16754:16756  to */\n      dup8\n        /* \"chestNft.sol\":16758:16765  tokenId */\n      dup8\n        /* \"chestNft.sol\":16767:16768  1 */\n      0x01\n        /* \"chestNft.sol\":16727:16747  _afterTokenTransfers */\n      tag_212\n        /* \"chestNft.sol\":16727:16769  _afterTokenTransfers(from, to, tokenId, 1) */\n      jump\t// in\n    tag_211:\n        /* \"chestNft.sol\":13850:16777  {... */\n      pop\n      pop\n      pop\n      pop\n        /* \"chestNft.sol\":13719:16777  function transferFrom(... */\n      pop\n      pop\n      pop\n      jump\t// out\n        /* \"chestNft.sol\":7289:7527  function mint(... */\n    tag_73:\n        /* \"chestNft.sol\":7443:7447  true */\n      0x01\n        /* \"chestNft.sol\":7401:7447  onlyapprovedcontractaddress[msg.sender] ==true */\n      iszero\n      iszero\n        /* \"chestNft.sol\":7401:7428  onlyapprovedcontractaddress */\n      0x09\n        /* \"chestNft.sol\":7401:7440  onlyapprovedcontractaddress[msg.sender] */\n      0x00\n        /* \"chestNft.sol\":7429:7439  msg.sender */\n      caller\n        /* \"chestNft.sol\":7401:7440  onlyapprovedcontractaddress[msg.sender] */\n      0xffffffffffffffffffffffffffffffffffffffff\n      and\n      0xffffffffffffffffffffffffffffffffffffffff\n      and\n      dup2\n      mstore\n      0x20\n      add\n      swap1\n      dup2\n      mstore\n      0x20\n      add\n      0x00\n      keccak256\n      0x00\n      swap1\n      sload\n      swap1\n      0x0100\n      exp\n      swap1\n      div\n      0xff\n      and\n        /* \"chestNft.sol\":7401:7447  onlyapprovedcontractaddress[msg.sender] ==true */\n      iszero\n      iszero\n      eq\n        /* \"chestNft.sol\":7393:7481  require(onlyapprovedcontractaddress[msg.sender] ==true, \"you are not approved  to mint\") */\n      tag_214\n      jumpi\n      mload(0x40)\n      0x08c379a000000000000000000000000000000000000000000000000000000000\n      dup2\n      mstore\n      0x04\n      add\n      tag_215\n      swap1\n      tag_216\n      jump\t// in\n    tag_215:\n      mload(0x40)\n      dup1\n      swap2\n      sub\n      swap1\n      revert\n    tag_214:\n        /* \"chestNft.sol\":7489:7511  _safeMint(_to, amount) */\n      tag_217\n        /* \"chestNft.sol\":7499:7502  _to */\n      dup3\n        /* \"chestNft.sol\":7504:7510  amount */\n      dup3\n        /* \"chestNft.sol\":7489:7498  _safeMint */\n      tag_218\n        /* \"chestNft.sol\":7489:7511  _safeMint(_to, amount) */\n      jump\t// in\n    tag_217:\n        /* \"chestNft.sol\":7289:7527  function mint(... */\n      pop\n      pop\n      jump\t// out\n        /* \"chestNft.sol\":16873:17066  function safeTransferFrom(... */\n    tag_76:\n        /* \"chestNft.sol\":17019:17058  safeTransferFrom(from, to, tokenId, '') */\n      tag_220\n        /* \"chestNft.sol\":17036:17040  from */\n      dup4\n        /* \"chestNft.sol\":17042:17044  to */\n      dup4\n        /* \"chestNft.sol\":17046:17053  tokenId */\n      dup4\n        /* \"chestNft.sol\":17019:17058  safeTransferFrom(from, to, tokenId, '') */\n      mload(0x40)\n      dup1\n      0x20\n      add\n      0x40\n      mstore\n      dup1\n      0x00\n      dup2\n      mstore\n      pop\n        /* \"chestNft.sol\":17019:17035  safeTransferFrom */\n      tag_125\n        /* \"chestNft.sol\":17019:17058  safeTransferFrom(from, to, tokenId, '') */\n      jump\t// in\n    tag_220:\n        /* \"chestNft.sol\":16873:17066  function safeTransferFrom(... */\n      pop\n      pop\n      pop\n      jump\t// out\n        /* \"chestNft.sol\":2592:2620  string public uriSuffix = \"\" */\n    tag_79:\n      0x06\n      dup1\n      sload\n      tag_221\n      swap1\n      tag_160\n      jump\t// in\n    tag_221:\n      dup1\n      0x1f\n      add\n      0x20\n      dup1\n      swap2\n      div\n      mul\n      0x20\n      add\n      mload(0x40)\n      swap1\n      dup2\n      add\n      0x40\n      mstore\n      dup1\n      swap3\n      swap2\n      swap1\n      dup2\n      dup2\n      mstore\n      0x20\n      add\n      dup3\n      dup1\n      sload\n      tag_222\n      swap1\n      tag_160\n      jump\t// in\n    tag_222:\n      dup1\n      iszero\n      tag_223\n      jumpi\n      dup1\n      0x1f\n      lt\n      tag_224\n      jumpi\n      0x0100\n      dup1\n      dup4\n      sload\n      div\n      mul\n      dup4\n      mstore\n      swap2\n      0x20\n      add\n      swap2\n      jump(tag_223)\n    tag_224:\n      dup3\n      add\n      swap2\n      swap1\n      0x00\n      mstore\n      keccak256(0x00, 0x20)\n      swap1\n    tag_225:\n      dup2\n      sload\n      dup2\n      mstore\n      swap1\n      0x01\n      add\n      swap1\n      0x20\n      add\n      dup1\n      dup4\n      gt\n      tag_225\n      jumpi\n      dup3\n      swap1\n      sub\n      0x1f\n      and\n      dup3\n      add\n      swap2\n    tag_223:\n      pop\n      pop\n      pop\n      pop\n      pop\n      dup2\n      jump\t// out\n        /* \"chestNft.sol\":6901:7006  function setBaseURI(string memory _newBaseURI) public onlyOwner {... */\n    tag_84:\n        /* \"@openzeppelin/contracts/access/Ownable.sol\":1531:1544  _checkOwner() */\n      tag_227\n        /* \"@openzeppelin/contracts/access/Ownable.sol\":1531:1542  _checkOwner */\n      tag_176\n        /* \"@openzeppelin/contracts/access/Ownable.sol\":1531:1544  _checkOwner() */\n      jump\t// in\n    tag_227:\n        /* \"chestNft.sol\":6987:6998  _newBaseURI */\n      dup1\n        /* \"chestNft.sol\":6976:6984  baseURI_ */\n      0x05\n        /* \"chestNft.sol\":6976:6998  baseURI_ = _newBaseURI */\n      swap1\n      dup2\n      tag_229\n      swap2\n      swap1\n      tag_179\n      jump\t// in\n    tag_229:\n      pop\n        /* \"chestNft.sol\":6901:7006  function setBaseURI(string memory _newBaseURI) public onlyOwner {... */\n      pop\n      jump\t// out\n        /* \"chestNft.sol\":8089:8241  function ownerOf(uint256 tokenId) public view virtual override returns (address) {... */\n    tag_88:\n        /* \"chestNft.sol\":8161:8168  address */\n      0x00\n        /* \"chestNft.sol\":8204:8231  _packedOwnershipOf(tokenId) */\n      tag_231\n        /* \"chestNft.sol\":8223:8230  tokenId */\n      dup3\n        /* \"chestNft.sol\":8204:8222  _packedOwnershipOf */\n      tag_185\n        /* \"chestNft.sol\":8204:8231  _packedOwnershipOf(tokenId) */\n      jump\t// in\n    tag_231:\n        /* \"chestNft.sol\":8181:8233  return address(uint160(_packedOwnershipOf(tokenId))) */\n      swap1\n      pop\n        /* \"chestNft.sol\":8089:8241  function ownerOf(uint256 tokenId) public view virtual override returns (address) {... */\n      swap2\n      swap1\n      pop\n      jump\t// out\n        /* \"chestNft.sol\":4371:4613  function balanceOf(address owner) public view virtual override returns (uint256) {... */\n    tag_94:\n        /* \"chestNft.sol\":4443:4450  uint256 */\n      0x00\n        /* \"chestNft.sol\":4484:4485  0 */\n      dup1\n        /* \"chestNft.sol\":4467:4486  owner == address(0) */\n      0xffffffffffffffffffffffffffffffffffffffff\n      and\n        /* \"chestNft.sol\":4467:4472  owner */\n      dup3\n        /* \"chestNft.sol\":4467:4486  owner == address(0) */\n      0xffffffffffffffffffffffffffffffffffffffff\n      and\n      sub\n        /* \"chestNft.sol\":4463:4532  if (owner == address(0)) _revert(BalanceQueryForZeroAddress.selector) */\n      tag_233\n      jumpi\n        /* \"chestNft.sol\":4488:4532  _revert(BalanceQueryForZeroAddress.selector) */\n      tag_234\n        /* \"chestNft.sol\":4496:4531  BalanceQueryForZeroAddress.selector */\n      shl(0xe0, 0x8f4eb604)\n        /* \"chestNft.sol\":4488:4495  _revert */\n      tag_170\n        /* \"chestNft.sol\":4488:4532  _revert(BalanceQueryForZeroAddress.selector) */\n      jump\t// in\n    tag_234:\n        /* \"chestNft.sol\":4463:4532  if (owner == address(0)) _revert(BalanceQueryForZeroAddress.selector) */\n    tag_233:\n        /* \"chestNft.sol\":608:621  (1 << 64) - 1 */\n      0xffffffffffffffff\n        /* \"chestNft.sol\":4550:4568  _packedAddressData */\n      0x0c\n        /* \"chestNft.sol\":4550:4575  _packedAddressData[owner] */\n      0x00\n        /* \"chestNft.sol\":4569:4574  owner */\n      dup5\n        /* \"chestNft.sol\":4550:4575  _packedAddressData[owner] */\n      0xffffffffffffffffffffffffffffffffffffffff\n      and\n      0xffffffffffffffffffffffffffffffffffffffff\n      and\n      dup2\n      mstore\n      0x20\n      add\n      swap1\n      dup2\n      mstore\n      0x20\n      add\n      0x00\n      keccak256\n      sload\n        /* \"chestNft.sol\":4550:4605  _packedAddressData[owner] & _BITMASK_ADDRESS_DATA_ENTRY */\n      and\n        /* \"chestNft.sol\":4543:4605  return _packedAddressData[owner] & _BITMASK_ADDRESS_DATA_ENTRY */\n      swap1\n      pop\n        /* \"chestNft.sol\":4371:4613  function balanceOf(address owner) public view virtual override returns (uint256) {... */\n      swap2\n      swap1\n      pop\n      jump\t// out\n        /* \"@openzeppelin/contracts/access/Ownable.sol\":2293:2394  function renounceOwnership() public virtual onlyOwner {... */\n    tag_98:\n        /* \"@openzeppelin/contracts/access/Ownable.sol\":1531:1544  _checkOwner() */\n      tag_236\n        /* \"@openzeppelin/contracts/access/Ownable.sol\":1531:1542  _checkOwner */\n      tag_176\n        /* \"@openzeppelin/contracts/access/Ownable.sol\":1531:1544  _checkOwner() */\n      jump\t// in\n    tag_236:\n        /* \"@openzeppelin/contracts/access/Ownable.sol\":2357:2387  _transferOwnership(address(0)) */\n      tag_238\n        /* \"@openzeppelin/contracts/access/Ownable.sol\":2384:2385  0 */\n      0x00\n        /* \"@openzeppelin/contracts/access/Ownable.sol\":2357:2375  _transferOwnership */\n      tag_239\n        /* \"@openzeppelin/contracts/access/Ownable.sol\":2357:2387  _transferOwnership(address(0)) */\n      jump\t// in\n    tag_238:\n        /* \"@openzeppelin/contracts/access/Ownable.sol\":2293:2394  function renounceOwnership() public virtual onlyOwner {... */\n      jump\t// out\n        /* \"chestNft.sol\":7792:7942  function  checkredemmedphysicalitem(uint nftId ,address add)public view returns(bool){... */\n    tag_103:\n        /* \"chestNft.sol\":7872:7876  bool */\n      0x00\n        /* \"chestNft.sol\":7896:7922  _checkredemmedphysicalitem */\n      0x0a\n        /* \"chestNft.sol\":7896:7927  _checkredemmedphysicalitem[add] */\n      0x00\n        /* \"chestNft.sol\":7923:7926  add */\n      dup4\n        /* \"chestNft.sol\":7896:7927  _checkredemmedphysicalitem[add] */\n      0xffffffffffffffffffffffffffffffffffffffff\n      and\n      0xffffffffffffffffffffffffffffffffffffffff\n      and\n      dup2\n      mstore\n      0x20\n      add\n      swap1\n      dup2\n      mstore\n      0x20\n      add\n      0x00\n      keccak256\n        /* \"chestNft.sol\":7896:7934  _checkredemmedphysicalitem[add][nftId] */\n      0x00\n        /* \"chestNft.sol\":7928:7933  nftId */\n      dup5\n        /* \"chestNft.sol\":7896:7934  _checkredemmedphysicalitem[add][nftId] */\n      dup2\n      mstore\n      0x20\n      add\n      swap1\n      dup2\n      mstore\n      0x20\n      add\n      0x00\n      keccak256\n      0x00\n      swap1\n      sload\n      swap1\n      0x0100\n      exp\n      swap1\n      div\n      0xff\n      and\n        /* \"chestNft.sol\":7889:7934  return _checkredemmedphysicalitem[add][nftId] */\n      swap1\n      pop\n        /* \"chestNft.sol\":7792:7942  function  checkredemmedphysicalitem(uint nftId ,address add)public view returns(bool){... */\n      swap3\n      swap2\n      pop\n      pop\n      jump\t// out\n        /* \"@openzeppelin/contracts/access/Ownable.sol\":1638:1723  function owner() public view virtual returns (address) {... */\n    tag_107:\n        /* \"@openzeppelin/contracts/access/Ownable.sol\":1684:1691  address */\n      0x00\n        /* \"@openzeppelin/contracts/access/Ownable.sol\":1710:1716  _owner */\n      dup1\n      0x00\n      swap1\n      sload\n      swap1\n      0x0100\n      exp\n      swap1\n      div\n      0xffffffffffffffffffffffffffffffffffffffff\n      and\n        /* \"@openzeppelin/contracts/access/Ownable.sol\":1703:1716  return _owner */\n      swap1\n      pop\n        /* \"@openzeppelin/contracts/access/Ownable.sol\":1638:1723  function owner() public view virtual returns (address) {... */\n      swap1\n      jump\t// out\n        /* \"chestNft.sol\":6068:6172  function symbol() public view virtual override returns (string memory) {... */\n    tag_111:\n        /* \"chestNft.sol\":6124:6137  string memory */\n      0x60\n        /* \"chestNft.sol\":6157:6164  _symbol */\n      0x04\n        /* \"chestNft.sol\":6150:6164  return _symbol */\n      dup1\n      sload\n      tag_243\n      swap1\n      tag_160\n      jump\t// in\n    tag_243:\n      dup1\n      0x1f\n      add\n      0x20\n      dup1\n      swap2\n      div\n      mul\n      0x20\n      add\n      mload(0x40)\n      swap1\n      dup2\n      add\n      0x40\n      mstore\n      dup1\n      swap3\n      swap2\n      swap1\n      dup2\n      dup2\n      mstore\n      0x20\n      add\n      dup3\n      dup1\n      sload\n      tag_244\n      swap1\n      tag_160\n      jump\t// in\n    tag_244:\n      dup1\n      iszero\n      tag_245\n      jumpi\n      dup1\n      0x1f\n      lt\n      tag_246\n      jumpi\n      0x0100\n      dup1\n      dup4\n      sload\n      div\n      mul\n      dup4\n      mstore\n      swap2\n      0x20\n      add\n      swap2\n      jump(tag_245)\n    tag_246:\n      dup3\n      add\n      swap2\n      swap1\n      0x00\n      mstore\n      keccak256(0x00, 0x20)\n      swap1\n    tag_247:\n      dup2\n      sload\n      dup2\n      mstore\n      swap1\n      0x01\n      add\n      swap1\n      0x20\n      add\n      dup1\n      dup4\n      gt\n      tag_247\n      jumpi\n      dup3\n      swap1\n      sub\n      0x1f\n      and\n      dup3\n      add\n      swap2\n    tag_245:\n      pop\n      pop\n      pop\n      pop\n      pop\n      swap1\n      pop\n        /* \"chestNft.sol\":6068:6172  function symbol() public view virtual override returns (string memory) {... */\n      swap1\n      jump\t// out\n        /* \"chestNft.sol\":11743:11977  function setApprovalForAll(address operator, bool approved) public virtual override {... */\n    tag_117:\n        /* \"chestNft.sol\":11890:11898  approved */\n      dup1\n        /* \"chestNft.sol\":11838:11856  _operatorApprovals */\n      0x0e\n        /* \"chestNft.sol\":11838:11877  _operatorApprovals[_msgSenderERC721A()] */\n      0x00\n        /* \"chestNft.sol\":11857:11876  _msgSenderERC721A() */\n      tag_249\n        /* \"chestNft.sol\":11857:11874  _msgSenderERC721A */\n      tag_192\n        /* \"chestNft.sol\":11857:11876  _msgSenderERC721A() */\n      jump\t// in\n    tag_249:\n        /* \"chestNft.sol\":11838:11877  _operatorApprovals[_msgSenderERC721A()] */\n      0xffffffffffffffffffffffffffffffffffffffff\n      and\n      0xffffffffffffffffffffffffffffffffffffffff\n      and\n      dup2\n      mstore\n      0x20\n      add\n      swap1\n      dup2\n      mstore\n      0x20\n      add\n      0x00\n      keccak256\n        /* \"chestNft.sol\":11838:11887  _operatorApprovals[_msgSenderERC721A()][operator] */\n      0x00\n        /* \"chestNft.sol\":11878:11886  operator */\n      dup5\n        /* \"chestNft.sol\":11838:11887  _operatorApprovals[_msgSenderERC721A()][operator] */\n      0xffffffffffffffffffffffffffffffffffffffff\n      and\n      0xffffffffffffffffffffffffffffffffffffffff\n      and\n      dup2\n      mstore\n      0x20\n      add\n      swap1\n      dup2\n      mstore\n      0x20\n      add\n      0x00\n      keccak256\n      0x00\n        /* \"chestNft.sol\":11838:11898  _operatorApprovals[_msgSenderERC721A()][operator] = approved */\n      0x0100\n      exp\n      dup2\n      sload\n      dup2\n      0xff\n      mul\n      not\n      and\n      swap1\n      dup4\n      iszero\n      iszero\n      mul\n      or\n      swap1\n      sstore\n      pop\n        /* \"chestNft.sol\":11950:11958  operator */\n      dup2\n        /* \"chestNft.sol\":11914:11969  ApprovalForAll(_msgSenderERC721A(), operator, approved) */\n      0xffffffffffffffffffffffffffffffffffffffff\n      and\n        /* \"chestNft.sol\":11929:11948  _msgSenderERC721A() */\n      tag_250\n        /* \"chestNft.sol\":11929:11946  _msgSenderERC721A */\n      tag_192\n        /* \"chestNft.sol\":11929:11948  _msgSenderERC721A() */\n      jump\t// in\n    tag_250:\n        /* \"chestNft.sol\":11914:11969  ApprovalForAll(_msgSenderERC721A(), operator, approved) */\n      0xffffffffffffffffffffffffffffffffffffffff\n      and\n      0x17307eab39ab6107e8899845ad3d59bd9653f200f220920489ca2b5937696c31\n        /* \"chestNft.sol\":11960:11968  approved */\n      dup4\n        /* \"chestNft.sol\":11914:11969  ApprovalForAll(_msgSenderERC721A(), operator, approved) */\n      mload(0x40)\n      tag_251\n      swap2\n      swap1\n      tag_39\n      jump\t// in\n    tag_251:\n      mload(0x40)\n      dup1\n      swap2\n      sub\n      swap1\n      log3\n        /* \"chestNft.sol\":11743:11977  function setApprovalForAll(address operator, bool approved) public virtual override {... */\n      pop\n      pop\n      jump\t// out\n        /* \"chestNft.sol\":7135:7276  function setapprovedcontractaddress(address add)external onlyOwner{... */\n    tag_121:\n        /* \"@openzeppelin/contracts/access/Ownable.sol\":1531:1544  _checkOwner() */\n      tag_253\n        /* \"@openzeppelin/contracts/access/Ownable.sol\":1531:1542  _checkOwner */\n      tag_176\n        /* \"@openzeppelin/contracts/access/Ownable.sol\":1531:1544  _checkOwner() */\n      jump\t// in\n    tag_253:\n        /* \"chestNft.sol\":7255:7259  true */\n      0x01\n        /* \"chestNft.sol\":7221:7248  onlyapprovedcontractaddress */\n      0x09\n        /* \"chestNft.sol\":7221:7253  onlyapprovedcontractaddress[add] */\n      0x00\n        /* \"chestNft.sol\":7249:7252  add */\n      dup4\n        /* \"chestNft.sol\":7221:7253  onlyapprovedcontractaddress[add] */\n      0xffffffffffffffffffffffffffffffffffffffff\n      and\n      0xffffffffffffffffffffffffffffffffffffffff\n      and\n      dup2\n      mstore\n      0x20\n      add\n      swap1\n      dup2\n      mstore\n      0x20\n      add\n      0x00\n      keccak256\n      0x00\n        /* \"chestNft.sol\":7221:7259  onlyapprovedcontractaddress[add] =true */\n      0x0100\n      exp\n      dup2\n      sload\n      dup2\n      0xff\n      mul\n      not\n      and\n      swap1\n      dup4\n      iszero\n      iszero\n      mul\n      or\n      swap1\n      sstore\n      pop\n        /* \"chestNft.sol\":7135:7276  function setapprovedcontractaddress(address add)external onlyOwner{... */\n      pop\n      jump\t// out\n        /* \"chestNft.sol\":17080:17496  function safeTransferFrom(... */\n    tag_125:\n        /* \"chestNft.sol\":17255:17286  transferFrom(from, to, tokenId) */\n      tag_256\n        /* \"chestNft.sol\":17268:17272  from */\n      dup5\n        /* \"chestNft.sol\":17274:17276  to */\n      dup5\n        /* \"chestNft.sol\":17278:17285  tokenId */\n      dup5\n        /* \"chestNft.sol\":17255:17267  transferFrom */\n      tag_69\n        /* \"chestNft.sol\":17255:17286  transferFrom(from, to, tokenId) */\n      jump\t// in\n    tag_256:\n        /* \"chestNft.sol\":17319:17320  0 */\n      0x00\n        /* \"chestNft.sol\":17301:17303  to */\n      dup4\n        /* \"chestNft.sol\":17301:17315  to.code.length */\n      0xffffffffffffffffffffffffffffffffffffffff\n      and\n      extcodesize\n        /* \"chestNft.sol\":17301:17320  to.code.length != 0 */\n      eq\n        /* \"chestNft.sol\":17297:17489  if (to.code.length != 0)... */\n      tag_257\n      jumpi\n        /* \"chestNft.sol\":17340:17396  _checkContractOnERC721Received(from, to, tokenId, _data) */\n      tag_258\n        /* \"chestNft.sol\":17371:17375  from */\n      dup5\n        /* \"chestNft.sol\":17377:17379  to */\n      dup5\n        /* \"chestNft.sol\":17381:17388  tokenId */\n      dup5\n        /* \"chestNft.sol\":17390:17395  _data */\n      dup5\n        /* \"chestNft.sol\":17340:17370  _checkContractOnERC721Received */\n      tag_259\n        /* \"chestNft.sol\":17340:17396  _checkContractOnERC721Received(from, to, tokenId, _data) */\n      jump\t// in\n    tag_258:\n        /* \"chestNft.sol\":17335:17489  if (!_checkContractOnERC721Received(from, to, tokenId, _data)) {... */\n      tag_260\n      jumpi\n        /* \"chestNft.sol\":17417:17473  _revert(TransferToNonERC721ReceiverImplementer.selector) */\n      tag_261\n        /* \"chestNft.sol\":17425:17472  TransferToNonERC721ReceiverImplementer.selector */\n      shl(0xe0, 0xd1a57ed6)\n        /* \"chestNft.sol\":17417:17424  _revert */\n      tag_170\n        /* \"chestNft.sol\":17417:17473  _revert(TransferToNonERC721ReceiverImplementer.selector) */\n      jump\t// in\n    tag_261:\n        /* \"chestNft.sol\":17335:17489  if (!_checkContractOnERC721Received(from, to, tokenId, _data)) {... */\n    tag_260:\n        /* \"chestNft.sol\":17297:17489  if (to.code.length != 0)... */\n    tag_257:\n        /* \"chestNft.sol\":17080:17496  function safeTransferFrom(... */\n      pop\n      pop\n      pop\n      pop\n      jump\t// out\n        /* \"chestNft.sol\":7962:8078  function checkredeemednftid(address add)public view returns(uint[] memory ){... */\n    tag_129:\n        /* \"chestNft.sol\":8022:8035  uint[] memory */\n      0x60\n        /* \"chestNft.sol\":8053:8065  nftsredeemed */\n      0x07\n        /* \"chestNft.sol\":8053:8070  nftsredeemed[add] */\n      0x00\n        /* \"chestNft.sol\":8066:8069  add */\n      dup4\n        /* \"chestNft.sol\":8053:8070  nftsredeemed[add] */\n      0xffffffffffffffffffffffffffffffffffffffff\n      and\n      0xffffffffffffffffffffffffffffffffffffffff\n      and\n      dup2\n      mstore\n      0x20\n      add\n      swap1\n      dup2\n      mstore\n      0x20\n      add\n      0x00\n      keccak256\n        /* \"chestNft.sol\":8046:8070  return nftsredeemed[add] */\n      dup1\n      sload\n      dup1\n      0x20\n      mul\n      0x20\n      add\n      mload(0x40)\n      swap1\n      dup2\n      add\n      0x40\n      mstore\n      dup1\n      swap3\n      swap2\n      swap1\n      dup2\n      dup2\n      mstore\n      0x20\n      add\n      dup3\n      dup1\n      sload\n      dup1\n      iszero\n      tag_263\n      jumpi\n      0x20\n      mul\n      dup3\n      add\n      swap2\n      swap1\n      0x00\n      mstore\n      keccak256(0x00, 0x20)\n      swap1\n    tag_264:\n      dup2\n      sload\n      dup2\n      mstore\n      0x20\n      add\n      swap1\n      0x01\n      add\n      swap1\n      dup1\n      dup4\n      gt\n      tag_264\n      jumpi\n    tag_263:\n      pop\n      pop\n      pop\n      pop\n      pop\n      swap1\n      pop\n        /* \"chestNft.sol\":7962:8078  function checkredeemednftid(address add)public view returns(uint[] memory ){... */\n      swap2\n      swap1\n      pop\n      jump\t// out\n        /* \"chestNft.sol\":6186:6523  function tokenURI(uint256 tokenId) public view virtual override returns (string memory) {... */\n    tag_135:\n        /* \"chestNft.sol\":6259:6272  string memory */\n      0x60\n        /* \"chestNft.sol\":6290:6306  _exists(tokenId) */\n      tag_266\n        /* \"chestNft.sol\":6298:6305  tokenId */\n      dup3\n        /* \"chestNft.sol\":6290:6297  _exists */\n      tag_167\n        /* \"chestNft.sol\":6290:6306  _exists(tokenId) */\n      jump\t// in\n    tag_266:\n        /* \"chestNft.sol\":6285:6353  if (!_exists(tokenId)) _revert(URIQueryForNonexistentToken.selector) */\n      tag_267\n      jumpi\n        /* \"chestNft.sol\":6308:6353  _revert(URIQueryForNonexistentToken.selector) */\n      tag_268\n        /* \"chestNft.sol\":6316:6352  URIQueryForNonexistentToken.selector */\n      shl(0xe0, 0xa14c4b50)\n        /* \"chestNft.sol\":6308:6315  _revert */\n      tag_170\n        /* \"chestNft.sol\":6308:6353  _revert(URIQueryForNonexistentToken.selector) */\n      jump\t// in\n    tag_268:\n        /* \"chestNft.sol\":6285:6353  if (!_exists(tokenId)) _revert(URIQueryForNonexistentToken.selector) */\n    tag_267:\n        /* \"chestNft.sol\":6366:6387  string memory baseURI */\n      0x00\n        /* \"chestNft.sol\":6390:6400  _baseURI() */\n      tag_269\n        /* \"chestNft.sol\":6390:6398  _baseURI */\n      tag_270\n        /* \"chestNft.sol\":6390:6400  _baseURI() */\n      jump\t// in\n    tag_269:\n        /* \"chestNft.sol\":6366:6400  string memory baseURI = _baseURI() */\n      swap1\n      pop\n        /* \"chestNft.sol\":6443:6444  0 */\n      0x00\n        /* \"chestNft.sol\":6424:6431  baseURI */\n      dup2\n        /* \"chestNft.sol\":6418:6439  bytes(baseURI).length */\n      mload\n        /* \"chestNft.sol\":6418:6444  bytes(baseURI).length != 0 */\n      sub\n        /* \"chestNft.sol\":6418:6515  bytes(baseURI).length != 0 ? string(abi.encodePacked(baseURI, _toString(tokenId),uriSuffix)) : '' */\n      tag_271\n      jumpi\n      mload(0x40)\n      dup1\n      0x20\n      add\n      0x40\n      mstore\n      dup1\n      0x00\n      dup2\n      mstore\n      pop\n      jump(tag_272)\n    tag_271:\n        /* \"chestNft.sol\":6471:6478  baseURI */\n      dup1\n        /* \"chestNft.sol\":6480:6498  _toString(tokenId) */\n      tag_273\n        /* \"chestNft.sol\":6490:6497  tokenId */\n      dup5\n        /* \"chestNft.sol\":6480:6489  _toString */\n      tag_274\n        /* \"chestNft.sol\":6480:6498  _toString(tokenId) */\n      jump\t// in\n    tag_273:\n        /* \"chestNft.sol\":6499:6508  uriSuffix */\n      0x06\n        /* \"chestNft.sol\":6454:6509  abi.encodePacked(baseURI, _toString(tokenId),uriSuffix) */\n      add(0x20, mload(0x40))\n      tag_275\n      swap4\n      swap3\n      swap2\n      swap1\n      tag_276\n      jump\t// in\n    tag_275:\n      mload(0x40)\n      0x20\n      dup2\n      dup4\n      sub\n      sub\n      dup2\n      mstore\n      swap1\n      0x40\n      mstore\n        /* \"chestNft.sol\":6418:6515  bytes(baseURI).length != 0 ? string(abi.encodePacked(baseURI, _toString(tokenId),uriSuffix)) : '' */\n    tag_272:\n        /* \"chestNft.sol\":6411:6515  return bytes(baseURI).length != 0 ? string(abi.encodePacked(baseURI, _toString(tokenId),uriSuffix)) : '' */\n      swap2\n      pop\n      pop\n        /* \"chestNft.sol\":6186:6523  function tokenURI(uint256 tokenId) public view virtual override returns (string memory) {... */\n      swap2\n      swap1\n      pop\n      jump\t// out\n        /* \"chestNft.sol\":7541:7784  function redeemPhysicalItem(uint  nftId)public {... */\n    tag_140:\n        /* \"chestNft.sol\":7623:7633  msg.sender */\n      caller\n        /* \"chestNft.sol\":7607:7633  ownerOf(nftId)==msg.sender */\n      0xffffffffffffffffffffffffffffffffffffffff\n      and\n        /* \"chestNft.sol\":7607:7621  ownerOf(nftId) */\n      tag_278\n        /* \"chestNft.sol\":7615:7620  nftId */\n      dup3\n        /* \"chestNft.sol\":7607:7614  ownerOf */\n      tag_88\n        /* \"chestNft.sol\":7607:7621  ownerOf(nftId) */\n      jump\t// in\n    tag_278:\n        /* \"chestNft.sol\":7607:7633  ownerOf(nftId)==msg.sender */\n      0xffffffffffffffffffffffffffffffffffffffff\n      and\n      eq\n        /* \"chestNft.sol\":7599:7634  require(ownerOf(nftId)==msg.sender) */\n      tag_279\n      jumpi\n      0x00\n      dup1\n      revert\n    tag_279:\n        /* \"chestNft.sol\":7691:7695  true */\n      0x01\n        /* \"chestNft.sol\":7645:7671  _checkredemmedphysicalitem */\n      0x0a\n        /* \"chestNft.sol\":7645:7683  _checkredemmedphysicalitem[msg.sender] */\n      0x00\n        /* \"chestNft.sol\":7672:7682  msg.sender */\n      caller\n        /* \"chestNft.sol\":7645:7683  _checkredemmedphysicalitem[msg.sender] */\n      0xffffffffffffffffffffffffffffffffffffffff\n      and\n      0xffffffffffffffffffffffffffffffffffffffff\n      and\n      dup2\n      mstore\n      0x20\n      add\n      swap1\n      dup2\n      mstore\n      0x20\n      add\n      0x00\n      keccak256\n        /* \"chestNft.sol\":7645:7690  _checkredemmedphysicalitem[msg.sender][nftId] */\n      0x00\n        /* \"chestNft.sol\":7684:7689  nftId */\n      dup4\n        /* \"chestNft.sol\":7645:7690  _checkredemmedphysicalitem[msg.sender][nftId] */\n      dup2\n      mstore\n      0x20\n      add\n      swap1\n      dup2\n      mstore\n      0x20\n      add\n      0x00\n      keccak256\n      0x00\n        /* \"chestNft.sol\":7645:7695  _checkredemmedphysicalitem[msg.sender][nftId]=true */\n      0x0100\n      exp\n      dup2\n      sload\n      dup2\n      0xff\n      mul\n      not\n      and\n      swap1\n      dup4\n      iszero\n      iszero\n      mul\n      or\n      swap1\n      sstore\n      pop\n        /* \"chestNft.sol\":7708:7720  nftsredeemed */\n      0x07\n        /* \"chestNft.sol\":7708:7732  nftsredeemed[msg.sender] */\n      0x00\n        /* \"chestNft.sol\":7721:7731  msg.sender */\n      caller\n        /* \"chestNft.sol\":7708:7732  nftsredeemed[msg.sender] */\n      0xffffffffffffffffffffffffffffffffffffffff\n      and\n      0xffffffffffffffffffffffffffffffffffffffff\n      and\n      dup2\n      mstore\n      0x20\n      add\n      swap1\n      dup2\n      mstore\n      0x20\n      add\n      0x00\n      keccak256\n        /* \"chestNft.sol\":7738:7743  nftId */\n      dup2\n        /* \"chestNft.sol\":7708:7744  nftsredeemed[msg.sender].push(nftId) */\n      swap1\n      dup1\n      0x01\n      dup2\n      sload\n      add\n      dup1\n      dup3\n      sstore\n      dup1\n      swap2\n      pop\n      pop\n      0x01\n      swap1\n      sub\n      swap1\n      0x00\n      mstore\n      keccak256(0x00, 0x20)\n      add\n      0x00\n      swap1\n      swap2\n      swap1\n      swap2\n      swap1\n      swap2\n      pop\n      sstore\n        /* \"chestNft.sol\":7762:7774  _burn(nftId) */\n      tag_281\n        /* \"chestNft.sol\":7768:7773  nftId */\n      dup2\n        /* \"chestNft.sol\":7762:7767  _burn */\n      tag_282\n        /* \"chestNft.sol\":7762:7774  _burn(nftId) */\n      jump\t// in\n    tag_281:\n        /* \"chestNft.sol\":7541:7784  function redeemPhysicalItem(uint  nftId)public {... */\n      pop\n      jump\t// out\n        /* \"chestNft.sol\":11990:12154  function isApprovedForAll(address owner, address operator) public view virtual override returns (bool) {... */\n    tag_145:\n        /* \"chestNft.sol\":12087:12091  bool */\n      0x00\n        /* \"chestNft.sol\":12111:12129  _operatorApprovals */\n      0x0e\n        /* \"chestNft.sol\":12111:12136  _operatorApprovals[owner] */\n      0x00\n        /* \"chestNft.sol\":12130:12135  owner */\n      dup5\n        /* \"chestNft.sol\":12111:12136  _operatorApprovals[owner] */\n      0xffffffffffffffffffffffffffffffffffffffff\n      and\n      0xffffffffffffffffffffffffffffffffffffffff\n      and\n      dup2\n      mstore\n      0x20\n      add\n      swap1\n      dup2\n      mstore\n      0x20\n      add\n      0x00\n      keccak256\n        /* \"chestNft.sol\":12111:12146  _operatorApprovals[owner][operator] */\n      0x00\n        /* \"chestNft.sol\":12137:12145  operator */\n      dup4\n        /* \"chestNft.sol\":12111:12146  _operatorApprovals[owner][operator] */\n      0xffffffffffffffffffffffffffffffffffffffff\n      and\n      0xffffffffffffffffffffffffffffffffffffffff\n      and\n      dup2\n      mstore\n      0x20\n      add\n      swap1\n      dup2\n      mstore\n      0x20\n      add\n      0x00\n      keccak256\n      0x00\n      swap1\n      sload\n      swap1\n      0x0100\n      exp\n      swap1\n      div\n      0xff\n      and\n        /* \"chestNft.sol\":12104:12146  return _operatorApprovals[owner][operator] */\n      swap1\n      pop\n        /* \"chestNft.sol\":11990:12154  function isApprovedForAll(address owner, address operator) public view virtual override returns (bool) {... */\n      swap3\n      swap2\n      pop\n      pop\n      jump\t// out\n        /* \"chestNft.sol\":2563:2585  string public baseURI_ */\n    tag_149:\n      0x05\n      dup1\n      sload\n      tag_284\n      swap1\n      tag_160\n      jump\t// in\n    tag_284:\n      dup1\n      0x1f\n      add\n      0x20\n      dup1\n      swap2\n      div\n      mul\n      0x20\n      add\n      mload(0x40)\n      swap1\n      dup2\n      add\n      0x40\n      mstore\n      dup1\n      swap3\n      swap2\n      swap1\n      dup2\n      dup2\n      mstore\n      0x20\n      add\n      dup3\n      dup1\n      sload\n      tag_285\n      swap1\n      tag_160\n      jump\t// in\n    tag_285:\n      dup1\n      iszero\n      tag_286\n      jumpi\n      dup1\n      0x1f\n      lt\n      tag_287\n      jumpi\n      0x0100\n      dup1\n      dup4\n      sload\n      div\n      mul\n      dup4\n      mstore\n      swap2\n      0x20\n      add\n      swap2\n      jump(tag_286)\n    tag_287:\n      dup3\n      add\n      swap2\n      swap1\n      0x00\n      mstore\n      keccak256(0x00, 0x20)\n      swap1\n    tag_288:\n      dup2\n      sload\n      dup2\n      mstore\n      swap1\n      0x01\n      add\n      swap1\n      0x20\n      add\n      dup1\n      dup4\n      gt\n      tag_288\n      jumpi\n      dup3\n      swap1\n      sub\n      0x1f\n      and\n      dup3\n      add\n      swap2\n    tag_286:\n      pop\n      pop\n      pop\n      pop\n      pop\n      dup2\n      jump\t// out\n        /* \"@openzeppelin/contracts/access/Ownable.sol\":2543:2758  function transferOwnership(address newOwner) public virtual onlyOwner {... */\n    tag_154:\n        /* \"@openzeppelin/contracts/access/Ownable.sol\":1531:1544  _checkOwner() */\n      tag_290\n        /* \"@openzeppelin/contracts/access/Ownable.sol\":1531:1542  _checkOwner */\n      tag_176\n        /* \"@openzeppelin/contracts/access/Ownable.sol\":1531:1544  _checkOwner() */\n      jump\t// in\n    tag_290:\n        /* \"@openzeppelin/contracts/access/Ownable.sol\":2647:2648  0 */\n      0x00\n        /* \"@openzeppelin/contracts/access/Ownable.sol\":2627:2649  newOwner == address(0) */\n      0xffffffffffffffffffffffffffffffffffffffff\n      and\n        /* \"@openzeppelin/contracts/access/Ownable.sol\":2627:2635  newOwner */\n      dup2\n        /* \"@openzeppelin/contracts/access/Ownable.sol\":2627:2649  newOwner == address(0) */\n      0xffffffffffffffffffffffffffffffffffffffff\n      and\n      sub\n        /* \"@openzeppelin/contracts/access/Ownable.sol\":2623:2714  if (newOwner == address(0)) {... */\n      tag_292\n      jumpi\n        /* \"@openzeppelin/contracts/access/Ownable.sol\":2700:2701  0 */\n      0x00\n        /* \"@openzeppelin/contracts/access/Ownable.sol\":2672:2703  OwnableInvalidOwner(address(0)) */\n      mload(0x40)\n      0x1e4fbdf700000000000000000000000000000000000000000000000000000000\n      dup2\n      mstore\n      0x04\n      add\n      tag_293\n      swap2\n      swap1\n      tag_51\n      jump\t// in\n    tag_293:\n      mload(0x40)\n      dup1\n      swap2\n      sub\n      swap1\n      revert\n        /* \"@openzeppelin/contracts/access/Ownable.sol\":2623:2714  if (newOwner == address(0)) {... */\n    tag_292:\n        /* \"@openzeppelin/contracts/access/Ownable.sol\":2723:2751  _transferOwnership(newOwner) */\n      tag_294\n        /* \"@openzeppelin/contracts/access/Ownable.sol\":2742:2750  newOwner */\n      dup2\n        /* \"@openzeppelin/contracts/access/Ownable.sol\":2723:2741  _transferOwnership */\n      tag_239\n        /* \"@openzeppelin/contracts/access/Ownable.sol\":2723:2751  _transferOwnership(newOwner) */\n      jump\t// in\n    tag_294:\n        /* \"@openzeppelin/contracts/access/Ownable.sol\":2543:2758  function transferOwnership(address newOwner) public virtual onlyOwner {... */\n      pop\n      jump\t// out\n        /* \"chestNft.sol\":12167:12535  function _exists(uint256 tokenId) internal view virtual returns (bool result) {... */\n    tag_167:\n        /* \"chestNft.sol\":12232:12243  bool result */\n      0x00\n        /* \"chestNft.sol\":12279:12286  tokenId */\n      dup2\n        /* \"chestNft.sol\":12260:12275  _startTokenId() */\n      tag_296\n        /* \"chestNft.sol\":12260:12273  _startTokenId */\n      tag_182\n        /* \"chestNft.sol\":12260:12275  _startTokenId() */\n      jump\t// in\n    tag_296:\n        /* \"chestNft.sol\":12260:12286  _startTokenId() <= tokenId */\n      gt\n        /* \"chestNft.sol\":12256:12528  if (_startTokenId() <= tokenId) {... */\n      tag_297\n      jumpi\n        /* \"chestNft.sol\":12317:12330  _currentIndex */\n      sload(0x01)\n        /* \"chestNft.sol\":12307:12314  tokenId */\n      dup3\n        /* \"chestNft.sol\":12307:12330  tokenId < _currentIndex */\n      lt\n        /* \"chestNft.sol\":12303:12517  if (tokenId < _currentIndex) {... */\n      iszero\n      tag_298\n      jumpi\n        /* \"chestNft.sol\":12351:12365  uint256 packed */\n      0x00\n        /* \"chestNft.sol\":12384:12444  while ((packed = _packedOwnerships[tokenId]) == 0) --tokenId */\n    tag_299:\n        /* \"chestNft.sol\":12432:12433  0 */\n      0x00\n        /* \"chestNft.sol\":12401:12418  _packedOwnerships */\n      0x0b\n        /* \"chestNft.sol\":12401:12427  _packedOwnerships[tokenId] */\n      0x00\n        /* \"chestNft.sol\":12419:12426  tokenId */\n      dup6\n        /* \"chestNft.sol\":12401:12427  _packedOwnerships[tokenId] */\n      dup2\n      mstore\n      0x20\n      add\n      swap1\n      dup2\n      mstore\n      0x20\n      add\n      0x00\n      keccak256\n      sload\n        /* \"chestNft.sol\":12392:12427  packed = _packedOwnerships[tokenId] */\n      swap2\n      pop\n      dup2\n        /* \"chestNft.sol\":12391:12433  (packed = _packedOwnerships[tokenId]) == 0 */\n      sub\n        /* \"chestNft.sol\":12384:12444  while ((packed = _packedOwnerships[tokenId]) == 0) --tokenId */\n      tag_300\n      jumpi\n        /* \"chestNft.sol\":12435:12444  --tokenId */\n      dup3\n      tag_301\n      swap1\n      tag_302\n      jump\t// in\n    tag_301:\n      swap3\n      pop\n        /* \"chestNft.sol\":12384:12444  while ((packed = _packedOwnerships[tokenId]) == 0) --tokenId */\n      jump(tag_299)\n    tag_300:\n        /* \"chestNft.sol\":12500:12501  0 */\n      0x00\n        /* \"chestNft.sol\":1384:1392  1 << 224 */\n      0x0100000000000000000000000000000000000000000000000000000000\n        /* \"chestNft.sol\":12472:12478  packed */\n      dup3\n        /* \"chestNft.sol\":12472:12496  packed & _BITMASK_BURNED */\n      and\n        /* \"chestNft.sol\":12472:12501  packed & _BITMASK_BURNED == 0 */\n      eq\n        /* \"chestNft.sol\":12463:12501  result = packed & _BITMASK_BURNED == 0 */\n      swap2\n      pop\n        /* \"chestNft.sol\":12332:12517  {... */\n      pop\n        /* \"chestNft.sol\":12303:12517  if (tokenId < _currentIndex) {... */\n    tag_298:\n        /* \"chestNft.sol\":12256:12528  if (_startTokenId() <= tokenId) {... */\n    tag_297:\n        /* \"chestNft.sol\":12167:12535  function _exists(uint256 tokenId) internal view virtual returns (bool result) {... */\n      swap2\n      swap1\n      pop\n      jump\t// out\n        /* \"chestNft.sol\":29713:29878  function _revert(bytes4 errorSelector) internal pure {... */\n    tag_170:\n        /* \"chestNft.sol\":29814:29827  errorSelector */\n      dup1\n        /* \"chestNft.sol\":29808:29812  0x00 */\n      0x00\n        /* \"chestNft.sol\":29801:29828  mstore(0x00, errorSelector) */\n      mstore\n        /* \"chestNft.sol\":29855:29859  0x04 */\n      0x04\n        /* \"chestNft.sol\":29849:29853  0x00 */\n      0x00\n        /* \"chestNft.sol\":29842:29860  revert(0x00, 0x04) */\n      revert\n        /* \"chestNft.sol\":23212:23686  function _approve(... */\n    tag_173:\n        /* \"chestNft.sol\":23341:23354  address owner */\n      0x00\n        /* \"chestNft.sol\":23357:23373  ownerOf(tokenId) */\n      tag_305\n        /* \"chestNft.sol\":23365:23372  tokenId */\n      dup4\n        /* \"chestNft.sol\":23357:23364  ownerOf */\n      tag_88\n        /* \"chestNft.sol\":23357:23373  ownerOf(tokenId) */\n      jump\t// in\n    tag_305:\n        /* \"chestNft.sol\":23341:23373  address owner = ownerOf(tokenId) */\n      swap1\n      pop\n        /* \"chestNft.sol\":23390:23403  approvalCheck */\n      dup2\n        /* \"chestNft.sol\":23390:23435  approvalCheck && _msgSenderERC721A() != owner */\n      dup1\n      iszero\n      tag_306\n      jumpi\n      pop\n        /* \"chestNft.sol\":23430:23435  owner */\n      dup1\n        /* \"chestNft.sol\":23407:23435  _msgSenderERC721A() != owner */\n      0xffffffffffffffffffffffffffffffffffffffff\n      and\n        /* \"chestNft.sol\":23407:23426  _msgSenderERC721A() */\n      tag_307\n        /* \"chestNft.sol\":23407:23424  _msgSenderERC721A */\n      tag_192\n        /* \"chestNft.sol\":23407:23426  _msgSenderERC721A() */\n      jump\t// in\n    tag_307:\n        /* \"chestNft.sol\":23407:23435  _msgSenderERC721A() != owner */\n      0xffffffffffffffffffffffffffffffffffffffff\n      and\n      eq\n      iszero\n        /* \"chestNft.sol\":23390:23435  approvalCheck && _msgSenderERC721A() != owner */\n    tag_306:\n        /* \"chestNft.sol\":23386:23587  if (approvalCheck && _msgSenderERC721A() != owner)... */\n      iszero\n      tag_308\n      jumpi\n        /* \"chestNft.sol\":23455:23499  isApprovedForAll(owner, _msgSenderERC721A()) */\n      tag_309\n        /* \"chestNft.sol\":23472:23477  owner */\n      dup2\n        /* \"chestNft.sol\":23479:23498  _msgSenderERC721A() */\n      tag_310\n        /* \"chestNft.sol\":23479:23496  _msgSenderERC721A */\n      tag_192\n        /* \"chestNft.sol\":23479:23498  _msgSenderERC721A() */\n      jump\t// in\n    tag_310:\n        /* \"chestNft.sol\":23455:23471  isApprovedForAll */\n      tag_145\n        /* \"chestNft.sol\":23455:23499  isApprovedForAll(owner, _msgSenderERC721A()) */\n      jump\t// in\n    tag_309:\n        /* \"chestNft.sol\":23450:23587  if (!isApprovedForAll(owner, _msgSenderERC721A())) {... */\n      tag_311\n      jumpi\n        /* \"chestNft.sol\":23520:23571  _revert(ApprovalCallerNotOwnerNorApproved.selector) */\n      tag_312\n        /* \"chestNft.sol\":23528:23570  ApprovalCallerNotOwnerNorApproved.selector */\n      shl(0xe0, 0xcfb3b942)\n        /* \"chestNft.sol\":23520:23527  _revert */\n      tag_170\n        /* \"chestNft.sol\":23520:23571  _revert(ApprovalCallerNotOwnerNorApproved.selector) */\n      jump\t// in\n    tag_312:\n        /* \"chestNft.sol\":23450:23587  if (!isApprovedForAll(owner, _msgSenderERC721A())) {... */\n    tag_311:\n        /* \"chestNft.sol\":23386:23587  if (approvalCheck && _msgSenderERC721A() != owner)... */\n    tag_308:\n        /* \"chestNft.sol\":23632:23634  to */\n      dup4\n        /* \"chestNft.sol\":23599:23614  _tokenApprovals */\n      0x0d\n        /* \"chestNft.sol\":23599:23623  _tokenApprovals[tokenId] */\n      0x00\n        /* \"chestNft.sol\":23615:23622  tokenId */\n      dup6\n        /* \"chestNft.sol\":23599:23623  _tokenApprovals[tokenId] */\n      dup2\n      mstore\n      0x20\n      add\n      swap1\n      dup2\n      mstore\n      0x20\n      add\n      0x00\n      keccak256\n        /* \"chestNft.sol\":23599:23629  _tokenApprovals[tokenId].value */\n      0x00\n      add\n      0x00\n        /* \"chestNft.sol\":23599:23634  _tokenApprovals[tokenId].value = to */\n      0x0100\n      exp\n      dup2\n      sload\n      dup2\n      0xffffffffffffffffffffffffffffffffffffffff\n      mul\n      not\n      and\n      swap1\n      dup4\n      0xffffffffffffffffffffffffffffffffffffffff\n      and\n      mul\n      or\n      swap1\n      sstore\n      pop\n        /* \"chestNft.sol\":23670:23677  tokenId */\n      dup3\n        /* \"chestNft.sol\":23666:23668  to */\n      dup5\n        /* \"chestNft.sol\":23650:23678  Approval(owner, to, tokenId) */\n      0xffffffffffffffffffffffffffffffffffffffff\n      and\n        /* \"chestNft.sol\":23659:23664  owner */\n      dup3\n        /* \"chestNft.sol\":23650:23678  Approval(owner, to, tokenId) */\n      0xffffffffffffffffffffffffffffffffffffffff\n      and\n      0x8c5be1e5ebec7d5bd14f71427d1e84f3dd0314c0f7b2291e5b200ac8c7c3b925\n      mload(0x40)\n      mload(0x40)\n      dup1\n      swap2\n      sub\n      swap1\n      log4\n        /* \"chestNft.sol\":23330:23686  {... */\n      pop\n        /* \"chestNft.sol\":23212:23686  function _approve(... */\n      pop\n      pop\n      pop\n      jump\t// out\n        /* \"@openzeppelin/contracts/access/Ownable.sol\":1796:1958  function _checkOwner() internal view virtual {... */\n    tag_176:\n        /* \"@openzeppelin/contracts/access/Ownable.sol\":1866:1878  _msgSender() */\n      tag_314\n        /* \"@openzeppelin/contracts/access/Ownable.sol\":1866:1876  _msgSender */\n      tag_315\n        /* \"@openzeppelin/contracts/access/Ownable.sol\":1866:1878  _msgSender() */\n      jump\t// in\n    tag_314:\n        /* \"@openzeppelin/contracts/access/Ownable.sol\":1855:1878  owner() != _msgSender() */\n      0xffffffffffffffffffffffffffffffffffffffff\n      and\n        /* \"@openzeppelin/contracts/access/Ownable.sol\":1855:1862  owner() */\n      tag_316\n        /* \"@openzeppelin/contracts/access/Ownable.sol\":1855:1860  owner */\n      tag_107\n        /* \"@openzeppelin/contracts/access/Ownable.sol\":1855:1862  owner() */\n      jump\t// in\n    tag_316:\n        /* \"@openzeppelin/contracts/access/Ownable.sol\":1855:1878  owner() != _msgSender() */\n      0xffffffffffffffffffffffffffffffffffffffff\n      and\n      eq\n        /* \"@openzeppelin/contracts/access/Ownable.sol\":1851:1952  if (owner() != _msgSender()) {... */\n      tag_317\n      jumpi\n        /* \"@openzeppelin/contracts/access/Ownable.sol\":1928:1940  _msgSender() */\n      tag_318\n        /* \"@openzeppelin/contracts/access/Ownable.sol\":1928:1938  _msgSender */\n      tag_315\n        /* \"@openzeppelin/contracts/access/Ownable.sol\":1928:1940  _msgSender() */\n      jump\t// in\n    tag_318:\n        /* \"@openzeppelin/contracts/access/Ownable.sol\":1901:1941  OwnableUnauthorizedAccount(_msgSender()) */\n      mload(0x40)\n      0x118cdaa700000000000000000000000000000000000000000000000000000000\n      dup2\n      mstore\n      0x04\n      add\n      tag_319\n      swap2\n      swap1\n      tag_51\n      jump\t// in\n    tag_319:\n      mload(0x40)\n      dup1\n      swap2\n      sub\n      swap1\n      revert\n        /* \"@openzeppelin/contracts/access/Ownable.sol\":1851:1952  if (owner() != _msgSender()) {... */\n    tag_317:\n        /* \"@openzeppelin/contracts/access/Ownable.sol\":1796:1958  function _checkOwner() internal view virtual {... */\n      jump\t// out\n        /* \"chestNft.sol\":3433:3525  function _startTokenId() internal view virtual returns (uint256) {... */\n    tag_182:\n        /* \"chestNft.sol\":3489:3496  uint256 */\n      0x00\n        /* \"chestNft.sol\":3516:3517  1 */\n      0x01\n        /* \"chestNft.sol\":3509:3517  return 1 */\n      swap1\n      pop\n        /* \"chestNft.sol\":3433:3525  function _startTokenId() internal view virtual returns (uint256) {... */\n      swap1\n      jump\t// out\n        /* \"chestNft.sol\":8974:10170  function _packedOwnershipOf(uint256 tokenId) private view returns (uint256 packed) {... */\n    tag_185:\n        /* \"chestNft.sol\":9041:9055  uint256 packed */\n      0x00\n        /* \"chestNft.sol\":9091:9098  tokenId */\n      dup2\n        /* \"chestNft.sol\":9072:9087  _startTokenId() */\n      tag_322\n        /* \"chestNft.sol\":9072:9085  _startTokenId */\n      tag_182\n        /* \"chestNft.sol\":9072:9087  _startTokenId() */\n      jump\t// in\n    tag_322:\n        /* \"chestNft.sol\":9072:9098  _startTokenId() <= tokenId */\n      gt\n        /* \"chestNft.sol\":9068:10105  if (_startTokenId() <= tokenId) {... */\n      tag_323\n      jumpi\n        /* \"chestNft.sol\":9124:9141  _packedOwnerships */\n      0x0b\n        /* \"chestNft.sol\":9124:9150  _packedOwnerships[tokenId] */\n      0x00\n        /* \"chestNft.sol\":9142:9149  tokenId */\n      dup4\n        /* \"chestNft.sol\":9124:9150  _packedOwnerships[tokenId] */\n      dup2\n      mstore\n      0x20\n      add\n      swap1\n      dup2\n      mstore\n      0x20\n      add\n      0x00\n      keccak256\n      sload\n        /* \"chestNft.sol\":9115:9150  packed = _packedOwnerships[tokenId] */\n      swap1\n      pop\n        /* \"chestNft.sol\":9260:9261  0 */\n      0x00\n        /* \"chestNft.sol\":9250:9256  packed */\n      dup2\n        /* \"chestNft.sol\":9250:9261  packed == 0 */\n      sub\n        /* \"chestNft.sol\":9246:10018  if (packed == 0) {... */\n      tag_324\n      jumpi\n        /* \"chestNft.sol\":9297:9310  _currentIndex */\n      sload(0x01)\n        /* \"chestNft.sol\":9286:9293  tokenId */\n      dup3\n        /* \"chestNft.sol\":9286:9310  tokenId >= _currentIndex */\n      lt\n        /* \"chestNft.sol\":9282:9359  if (tokenId >= _currentIndex) _revert(OwnerQueryForNonexistentToken.selector) */\n      tag_325\n      jumpi\n        /* \"chestNft.sol\":9312:9359  _revert(OwnerQueryForNonexistentToken.selector) */\n      tag_326\n        /* \"chestNft.sol\":9320:9358  OwnerQueryForNonexistentToken.selector */\n      shl(0xe0, 0xdf2d9b42)\n        /* \"chestNft.sol\":9312:9319  _revert */\n      tag_170\n        /* \"chestNft.sol\":9312:9359  _revert(OwnerQueryForNonexistentToken.selector) */\n      jump\t// in\n    tag_326:\n        /* \"chestNft.sol\":9282:9359  if (tokenId >= _currentIndex) _revert(OwnerQueryForNonexistentToken.selector) */\n    tag_325:\n        /* \"chestNft.sol\":9396:10003  for (;;) {... */\n    tag_327:\n        /* \"chestNft.sol\":9474:9491  _packedOwnerships */\n      0x0b\n        /* \"chestNft.sol\":9474:9502  _packedOwnerships[--tokenId] */\n      0x00\n        /* \"chestNft.sol\":9492:9501  --tokenId */\n      dup4\n      0x01\n      swap1\n      sub\n      swap4\n      pop\n      dup4\n        /* \"chestNft.sol\":9474:9502  _packedOwnerships[--tokenId] */\n      dup2\n      mstore\n      0x20\n      add\n      swap1\n      dup2\n      mstore\n      0x20\n      add\n      0x00\n      keccak256\n      sload\n        /* \"chestNft.sol\":9465:9502  packed = _packedOwnerships[--tokenId] */\n      swap1\n      pop\n        /* \"chestNft.sol\":9562:9563  0 */\n      0x00\n        /* \"chestNft.sol\":9552:9558  packed */\n      dup2\n        /* \"chestNft.sol\":9552:9563  packed == 0 */\n      sub\n        /* \"chestNft.sol\":9548:9573  if (packed == 0) continue */\n      iszero\n        /* \"chestNft.sol\":9565:9573  continue */\n      tag_329\n        /* \"chestNft.sol\":9548:9573  if (packed == 0) continue */\n      jumpi\n        /* \"chestNft.sol\":9628:9629  0 */\n      0x00\n        /* \"chestNft.sol\":1384:1392  1 << 224 */\n      0x0100000000000000000000000000000000000000000000000000000000\n        /* \"chestNft.sol\":9600:9606  packed */\n      dup3\n        /* \"chestNft.sol\":9600:9624  packed & _BITMASK_BURNED */\n      and\n        /* \"chestNft.sol\":9600:9629  packed & _BITMASK_BURNED == 0 */\n      sub\n        /* \"chestNft.sol\":9596:9644  if (packed & _BITMASK_BURNED == 0) return packed */\n      iszero\n        /* \"chestNft.sol\":9631:9644  return packed */\n      tag_321\n        /* \"chestNft.sol\":9596:9644  if (packed & _BITMASK_BURNED == 0) return packed */\n      jumpi\n        /* \"chestNft.sol\":9936:9983  _revert(OwnerQueryForNonexistentToken.selector) */\n      tag_332\n        /* \"chestNft.sol\":9944:9982  OwnerQueryForNonexistentToken.selector */\n      shl(0xe0, 0xdf2d9b42)\n        /* \"chestNft.sol\":9936:9943  _revert */\n      tag_170\n        /* \"chestNft.sol\":9936:9983  _revert(OwnerQueryForNonexistentToken.selector) */\n      jump\t// in\n    tag_332:\n        /* \"chestNft.sol\":9396:10003  for (;;) {... */\n    tag_329:\n      jump(tag_327)\n        /* \"chestNft.sol\":9246:10018  if (packed == 0) {... */\n    tag_324:\n        /* \"chestNft.sol\":10077:10078  0 */\n      0x00\n        /* \"chestNft.sol\":1384:1392  1 << 224 */\n      0x0100000000000000000000000000000000000000000000000000000000\n        /* \"chestNft.sol\":10049:10055  packed */\n      dup3\n        /* \"chestNft.sol\":10049:10073  packed & _BITMASK_BURNED */\n      and\n        /* \"chestNft.sol\":10049:10078  packed & _BITMASK_BURNED == 0 */\n      sub\n        /* \"chestNft.sol\":10045:10093  if (packed & _BITMASK_BURNED == 0) return packed */\n      iszero\n        /* \"chestNft.sol\":10080:10093  return packed */\n      tag_321\n        /* \"chestNft.sol\":10045:10093  if (packed & _BITMASK_BURNED == 0) return packed */\n      jumpi\n        /* \"chestNft.sol\":9068:10105  if (_startTokenId() <= tokenId) {... */\n    tag_323:\n        /* \"chestNft.sol\":10115:10162  _revert(OwnerQueryForNonexistentToken.selector) */\n      tag_334\n        /* \"chestNft.sol\":10123:10161  OwnerQueryForNonexistentToken.selector */\n      shl(0xe0, 0xdf2d9b42)\n        /* \"chestNft.sol\":10115:10122  _revert */\n      tag_170\n        /* \"chestNft.sol\":10115:10162  _revert(OwnerQueryForNonexistentToken.selector) */\n      jump\t// in\n    tag_334:\n        /* \"chestNft.sol\":8974:10170  function _packedOwnershipOf(uint256 tokenId) private view returns (uint256 packed) {... */\n    tag_321:\n      swap2\n      swap1\n      pop\n      jump\t// out\n        /* \"chestNft.sol\":13221:13706  function _getApprovedSlotAndAddress(uint256 tokenId)... */\n    tag_189:\n        /* \"chestNft.sol\":13323:13350  uint256 approvedAddressSlot */\n      0x00\n        /* \"chestNft.sol\":13352:13375  address approvedAddress */\n      dup1\n        /* \"chestNft.sol\":13393:13431  TokenApprovalRef storage tokenApproval */\n      0x00\n        /* \"chestNft.sol\":13434:13449  _tokenApprovals */\n      0x0d\n        /* \"chestNft.sol\":13434:13458  _tokenApprovals[tokenId] */\n      0x00\n        /* \"chestNft.sol\":13450:13457  tokenId */\n      dup6\n        /* \"chestNft.sol\":13434:13458  _tokenApprovals[tokenId] */\n      dup2\n      mstore\n      0x20\n      add\n      swap1\n      dup2\n      mstore\n      0x20\n      add\n      0x00\n      keccak256\n        /* \"chestNft.sol\":13393:13458  TokenApprovalRef storage tokenApproval = _tokenApprovals[tokenId] */\n      swap1\n      pop\n        /* \"chestNft.sol\":13611:13629  tokenApproval.slot */\n      dup1\n        /* \"chestNft.sol\":13588:13629  approvedAddressSlot := tokenApproval.slot */\n      swap3\n      pop\n        /* \"chestNft.sol\":13668:13687  approvedAddressSlot */\n      dup3\n        /* \"chestNft.sol\":13662:13688  sload(approvedAddressSlot) */\n      sload\n        /* \"chestNft.sol\":13643:13688  approvedAddress := sload(approvedAddressSlot) */\n      swap2\n      pop\n        /* \"chestNft.sol\":13573:13699  {... */\n      pop\n        /* \"chestNft.sol\":13221:13706  function _getApprovedSlotAndAddress(uint256 tokenId)... */\n      swap2\n      pop\n      swap2\n      jump\t// out\n        /* \"chestNft.sol\":27694:27799  function _msgSenderERC721A() internal view virtual returns (address) {... */\n    tag_192:\n        /* \"chestNft.sol\":27754:27761  address */\n      0x00\n        /* \"chestNft.sol\":27781:27791  msg.sender */\n      caller\n        /* \"chestNft.sol\":27774:27791  return msg.sender */\n      swap1\n      pop\n        /* \"chestNft.sol\":27694:27799  function _msgSenderERC721A() internal view virtual returns (address) {... */\n      swap1\n      jump\t// out\n        /* \"chestNft.sol\":12549:13208  function _isSenderApprovedOrOwner(... */\n    tag_193:\n        /* \"chestNft.sol\":12698:12709  bool result */\n      0x00\n        /* \"chestNft.sol\":12863:12879  _BITMASK_ADDRESS */\n      0xffffffffffffffffffffffffffffffffffffffff\n        /* \"chestNft.sol\":12856:12861  owner */\n      dup4\n        /* \"chestNft.sol\":12852:12880  and(owner, _BITMASK_ADDRESS) */\n      and\n        /* \"chestNft.sol\":12843:12880  owner := and(owner, _BITMASK_ADDRESS) */\n      swap3\n      pop\n        /* \"chestNft.sol\":13023:13039  _BITMASK_ADDRESS */\n      0xffffffffffffffffffffffffffffffffffffffff\n        /* \"chestNft.sol\":13012:13021  msgSender */\n      dup3\n        /* \"chestNft.sol\":13008:13040  and(msgSender, _BITMASK_ADDRESS) */\n      and\n        /* \"chestNft.sol\":12995:13040  msgSender := and(msgSender, _BITMASK_ADDRESS) */\n      swap2\n      pop\n        /* \"chestNft.sol\":13173:13188  approvedAddress */\n      dup4\n        /* \"chestNft.sol\":13162:13171  msgSender */\n      dup3\n        /* \"chestNft.sol\":13159:13189  eq(msgSender, approvedAddress) */\n      eq\n        /* \"chestNft.sol\":13151:13156  owner */\n      dup4\n        /* \"chestNft.sol\":13140:13149  msgSender */\n      dup4\n        /* \"chestNft.sol\":13137:13157  eq(msgSender, owner) */\n      eq\n        /* \"chestNft.sol\":13134:13190  or(eq(msgSender, owner), eq(msgSender, approvedAddress)) */\n      or\n        /* \"chestNft.sol\":13124:13190  result := or(eq(msgSender, owner), eq(msgSender, approvedAddress)) */\n      swap1\n      pop\n        /* \"chestNft.sol\":12549:13208  function _isSenderApprovedOrOwner(... */\n      swap4\n      swap3\n      pop\n      pop\n      pop\n      jump\t// out\n        /* \"chestNft.sol\":17510:17669  function _beforeTokenTransfers(... */\n    tag_200:\n      pop\n      pop\n      pop\n      pop\n      jump\t// out\n        /* \"chestNft.sol\":27369:27680  function _nextExtraData(... */\n    tag_204:\n        /* \"chestNft.sol\":27504:27511  uint256 */\n      0x00\n        /* \"chestNft.sol\":27524:27540  uint24 extraData */\n      dup1\n        /* \"chestNft.sol\":1788:1791  232 */\n      0xe8\n        /* \"chestNft.sol\":27550:27569  prevOwnershipPacked */\n      dup4\n        /* \"chestNft.sol\":27550:27591  prevOwnershipPacked >> _BITPOS_EXTRA_DATA */\n      swap1\n      shr\n        /* \"chestNft.sol\":27524:27592  uint24 extraData = uint24(prevOwnershipPacked >> _BITPOS_EXTRA_DATA) */\n      swap1\n      pop\n        /* \"chestNft.sol\":1788:1791  232 */\n      0xe8\n        /* \"chestNft.sol\":27618:27649  _extraData(from, to, extraData) */\n      tag_340\n        /* \"chestNft.sol\":27629:27633  from */\n      dup7\n        /* \"chestNft.sol\":27635:27637  to */\n      dup7\n        /* \"chestNft.sol\":27639:27648  extraData */\n      dup5\n        /* \"chestNft.sol\":27618:27628  _extraData */\n      tag_341\n        /* \"chestNft.sol\":27618:27649  _extraData(from, to, extraData) */\n      jump\t// in\n    tag_340:\n        /* \"chestNft.sol\":27610:27650  uint256(_extraData(from, to, extraData)) */\n      0xffffff\n      and\n        /* \"chestNft.sol\":27610:27672  uint256(_extraData(from, to, extraData)) << _BITPOS_EXTRA_DATA */\n      swap1\n      shl\n        /* \"chestNft.sol\":27603:27672  return uint256(_extraData(from, to, extraData)) << _BITPOS_EXTRA_DATA */\n      swap2\n      pop\n      pop\n        /* \"chestNft.sol\":27369:27680  function _nextExtraData(... */\n      swap4\n      swap3\n      pop\n      pop\n      pop\n      jump\t// out\n        /* \"chestNft.sol\":10564:11014  function _packOwnershipData(address owner, uint256 flags) private view returns (uint256 result) {... */\n    tag_205:\n        /* \"chestNft.sol\":10644:10658  uint256 result */\n      0x00\n        /* \"chestNft.sol\":10812:10828  _BITMASK_ADDRESS */\n      0xffffffffffffffffffffffffffffffffffffffff\n        /* \"chestNft.sol\":10805:10810  owner */\n      dup4\n        /* \"chestNft.sol\":10801:10829  and(owner, _BITMASK_ADDRESS) */\n      and\n        /* \"chestNft.sol\":10792:10829  owner := and(owner, _BITMASK_ADDRESS) */\n      swap3\n      pop\n        /* \"chestNft.sol\":10989:10994  flags */\n      dup2\n        /* \"chestNft.sol\":10975:10986  timestamp() */\n      timestamp\n        /* \"chestNft.sol\":10950:10973  _BITPOS_START_TIMESTAMP */\n      0xa0\n        /* \"chestNft.sol\":10946:10987  shl(_BITPOS_START_TIMESTAMP, timestamp()) */\n      shl\n        /* \"chestNft.sol\":10943:10995  or(shl(_BITPOS_START_TIMESTAMP, timestamp()), flags) */\n      or\n        /* \"chestNft.sol\":10936:10941  owner */\n      dup4\n        /* \"chestNft.sol\":10933:10996  or(owner, or(shl(_BITPOS_START_TIMESTAMP, timestamp()), flags)) */\n      or\n        /* \"chestNft.sol\":10923:10996  result := or(owner, or(shl(_BITPOS_START_TIMESTAMP, timestamp()), flags)) */\n      swap1\n      pop\n        /* \"chestNft.sol\":10564:11014  function _packOwnershipData(address owner, uint256 flags) private view returns (uint256 result) {... */\n      swap3\n      swap2\n      pop\n      pop\n      jump\t// out\n        /* \"chestNft.sol\":17682:17840  function _afterTokenTransfers(... */\n    tag_212:\n      pop\n      pop\n      pop\n      pop\n      jump\t// out\n        /* \"chestNft.sol\":22969:23081  function _safeMint(address to, uint256 quantity) internal virtual {... */\n    tag_218:\n        /* \"chestNft.sol\":23046:23073  _safeMint(to, quantity, '') */\n      tag_345\n        /* \"chestNft.sol\":23056:23058  to */\n      dup3\n        /* \"chestNft.sol\":23060:23068  quantity */\n      dup3\n        /* \"chestNft.sol\":23046:23073  _safeMint(to, quantity, '') */\n      mload(0x40)\n      dup1\n      0x20\n      add\n      0x40\n      mstore\n      dup1\n      0x00\n      dup2\n      mstore\n      pop\n        /* \"chestNft.sol\":23046:23055  _safeMint */\n      tag_346\n        /* \"chestNft.sol\":23046:23073  _safeMint(to, quantity, '') */\n      jump\t// in\n    tag_345:\n        /* \"chestNft.sol\":22969:23081  function _safeMint(address to, uint256 quantity) internal virtual {... */\n      pop\n      pop\n      jump\t// out\n        /* \"@openzeppelin/contracts/access/Ownable.sol\":2912:3099  function _transferOwnership(address newOwner) internal virtual {... */\n    tag_239:\n        /* \"@openzeppelin/contracts/access/Ownable.sol\":2985:3001  address oldOwner */\n      0x00\n        /* \"@openzeppelin/contracts/access/Ownable.sol\":3004:3010  _owner */\n      dup1\n      0x00\n      swap1\n      sload\n      swap1\n      0x0100\n      exp\n      swap1\n      div\n      0xffffffffffffffffffffffffffffffffffffffff\n      and\n        /* \"@openzeppelin/contracts/access/Ownable.sol\":2985:3010  address oldOwner = _owner */\n      swap1\n      pop\n        /* \"@openzeppelin/contracts/access/Ownable.sol\":3029:3037  newOwner */\n      dup2\n        /* \"@openzeppelin/contracts/access/Ownable.sol\":3020:3026  _owner */\n      0x00\n      dup1\n        /* \"@openzeppelin/contracts/access/Ownable.sol\":3020:3037  _owner = newOwner */\n      0x0100\n      exp\n      dup2\n      sload\n      dup2\n      0xffffffffffffffffffffffffffffffffffffffff\n      mul\n      not\n      and\n      swap1\n      dup4\n      0xffffffffffffffffffffffffffffffffffffffff\n      and\n      mul\n      or\n      swap1\n      sstore\n      pop\n        /* \"@openzeppelin/contracts/access/Ownable.sol\":3083:3091  newOwner */\n      dup2\n        /* \"@openzeppelin/contracts/access/Ownable.sol\":3052:3092  OwnershipTransferred(oldOwner, newOwner) */\n      0xffffffffffffffffffffffffffffffffffffffff\n      and\n        /* \"@openzeppelin/contracts/access/Ownable.sol\":3073:3081  oldOwner */\n      dup2\n        /* \"@openzeppelin/contracts/access/Ownable.sol\":3052:3092  OwnershipTransferred(oldOwner, newOwner) */\n      0xffffffffffffffffffffffffffffffffffffffff\n      and\n      0x8be0079c531659141344cd1fd0a4f28419497f9722a3daafe3b4186f6b6457e0\n      mload(0x40)\n      mload(0x40)\n      dup1\n      swap2\n      sub\n      swap1\n      log3\n        /* \"@openzeppelin/contracts/access/Ownable.sol\":2975:3099  {... */\n      pop\n        /* \"@openzeppelin/contracts/access/Ownable.sol\":2912:3099  function _transferOwnership(address newOwner) internal virtual {... */\n      pop\n      jump\t// out\n        /* \"chestNft.sol\":17853:18544  function _checkContractOnERC721Received(... */\n    tag_259:\n        /* \"chestNft.sol\":18016:18020  bool */\n      0x00\n        /* \"chestNft.sol\":18062:18064  to */\n      dup4\n        /* \"chestNft.sol\":18037:18082  ERC721A__IERC721Receiver(to).onERC721Received */\n      0xffffffffffffffffffffffffffffffffffffffff\n      and\n      0x150b7a02\n        /* \"chestNft.sol\":18083:18102  _msgSenderERC721A() */\n      tag_349\n        /* \"chestNft.sol\":18083:18100  _msgSenderERC721A */\n      tag_192\n        /* \"chestNft.sol\":18083:18102  _msgSenderERC721A() */\n      jump\t// in\n    tag_349:\n        /* \"chestNft.sol\":18104:18108  from */\n      dup8\n        /* \"chestNft.sol\":18110:18117  tokenId */\n      dup7\n        /* \"chestNft.sol\":18119:18124  _data */\n      dup7\n        /* \"chestNft.sol\":18037:18125  ERC721A__IERC721Receiver(to).onERC721Received(_msgSenderERC721A(), from, tokenId, _data) */\n      mload(0x40)\n      dup6\n      0xffffffff\n      and\n      0xe0\n      shl\n      dup2\n      mstore\n      0x04\n      add\n      tag_350\n      swap5\n      swap4\n      swap3\n      swap2\n      swap1\n      tag_351\n      jump\t// in\n    tag_350:\n      0x20\n      mload(0x40)\n      dup1\n      dup4\n      sub\n      dup2\n      0x00\n      dup8\n      gas\n      call\n      swap3\n      pop\n      pop\n      pop\n      dup1\n      iszero\n      tag_352\n      jumpi\n      pop\n      mload(0x40)\n      returndatasize\n      not(0x1f)\n      0x1f\n      dup3\n      add\n      and\n      dup3\n      add\n      dup1\n      0x40\n      mstore\n      pop\n      dup2\n      add\n      swap1\n      tag_353\n      swap2\n      swap1\n      tag_354\n      jump\t// in\n    tag_353:\n      0x01\n    tag_352:\n        /* \"chestNft.sol\":18033:18537  try ERC721A__IERC721Receiver(to).onERC721Received(_msgSenderERC721A(), from, tokenId, _data) returns (... */\n      tag_355\n      jumpi\n      returndatasize\n      dup1\n      0x00\n      dup2\n      eq\n      tag_360\n      jumpi\n      mload(0x40)\n      swap2\n      pop\n      and(add(returndatasize, 0x3f), not(0x1f))\n      dup3\n      add\n      0x40\n      mstore\n      returndatasize\n      dup3\n      mstore\n      returndatasize\n      0x00\n      0x20\n      dup5\n      add\n      returndatacopy\n      jump(tag_359)\n    tag_360:\n      0x60\n      swap2\n      pop\n    tag_359:\n      pop\n        /* \"chestNft.sol\":18337:18338  0 */\n      0x00\n        /* \"chestNft.sol\":18320:18326  reason */\n      dup2\n        /* \"chestNft.sol\":18320:18333  reason.length */\n      mload\n        /* \"chestNft.sol\":18320:18338  reason.length == 0 */\n      sub\n        /* \"chestNft.sol\":18316:18431  if (reason.length == 0) {... */\n      tag_361\n      jumpi\n        /* \"chestNft.sol\":18359:18415  _revert(TransferToNonERC721ReceiverImplementer.selector) */\n      tag_362\n        /* \"chestNft.sol\":18367:18414  TransferToNonERC721ReceiverImplementer.selector */\n      shl(0xe0, 0xd1a57ed6)\n        /* \"chestNft.sol\":18359:18366  _revert */\n      tag_170\n        /* \"chestNft.sol\":18359:18415  _revert(TransferToNonERC721ReceiverImplementer.selector) */\n      jump\t// in\n    tag_362:\n        /* \"chestNft.sol\":18316:18431  if (reason.length == 0) {... */\n    tag_361:\n        /* \"chestNft.sol\":18503:18509  reason */\n      dup1\n        /* \"chestNft.sol\":18497:18510  mload(reason) */\n      mload\n        /* \"chestNft.sol\":18488:18494  reason */\n      dup2\n        /* \"chestNft.sol\":18484:18486  32 */\n      0x20\n        /* \"chestNft.sol\":18480:18495  add(32, reason) */\n      add\n        /* \"chestNft.sol\":18473:18511  revert(add(32, reason), mload(reason)) */\n      revert\n        /* \"chestNft.sol\":18033:18537  try ERC721A__IERC721Receiver(to).onERC721Received(_msgSenderERC721A(), from, tokenId, _data) returns (... */\n    tag_355:\n        /* \"chestNft.sol\":18206:18260  ERC721A__IERC721Receiver(to).onERC721Received.selector */\n      shl(0xe0, 0x150b7a02)\n        /* \"chestNft.sol\":18196:18260  retval == ERC721A__IERC721Receiver(to).onERC721Received.selector */\n      not(0xffffffffffffffffffffffffffffffffffffffffffffffffffffffff)\n      and\n        /* \"chestNft.sol\":18196:18202  retval */\n      dup2\n        /* \"chestNft.sol\":18196:18260  retval == ERC721A__IERC721Receiver(to).onERC721Received.selector */\n      not(0xffffffffffffffffffffffffffffffffffffffffffffffffffffffff)\n      and\n      eq\n        /* \"chestNft.sol\":18189:18260  return retval == ERC721A__IERC721Receiver(to).onERC721Received.selector */\n      swap2\n      pop\n      pop\n        /* \"chestNft.sol\":17853:18544  function _checkContractOnERC721Received(... */\n      swap5\n      swap4\n      pop\n      pop\n      pop\n      pop\n      jump\t// out\n        /* \"chestNft.sol\":6785:6885  function _baseURI() internal view virtual returns (string memory) {... */\n    tag_270:\n        /* \"chestNft.sol\":6836:6849  string memory */\n      0x60\n        /* \"chestNft.sol\":6869:6877  baseURI_ */\n      0x05\n        /* \"chestNft.sol\":6862:6877  return baseURI_ */\n      dup1\n      sload\n      tag_365\n      swap1\n      tag_160\n      jump\t// in\n    tag_365:\n      dup1\n      0x1f\n      add\n      0x20\n      dup1\n      swap2\n      div\n      mul\n      0x20\n      add\n      mload(0x40)\n      swap1\n      dup2\n      add\n      0x40\n      mstore\n      dup1\n      swap3\n      swap2\n      swap1\n      dup2\n      dup2\n      mstore\n      0x20\n      add\n      dup3\n      dup1\n      sload\n      tag_366\n      swap1\n      tag_160\n      jump\t// in\n    tag_366:\n      dup1\n      iszero\n      tag_367\n      jumpi\n      dup1\n      0x1f\n      lt\n      tag_368\n      jumpi\n      0x0100\n      dup1\n      dup4\n      sload\n      div\n      mul\n      dup4\n      mstore\n      swap2\n      0x20\n      add\n      swap2\n      jump(tag_367)\n    tag_368:\n      dup3\n      add\n      swap2\n      swap1\n      0x00\n      mstore\n      keccak256(0x00, 0x20)\n      swap1\n    tag_369:\n      dup2\n      sload\n      dup2\n      mstore\n      swap1\n      0x01\n      add\n      swap1\n      0x20\n      add\n      dup1\n      dup4\n      gt\n      tag_369\n      jumpi\n      dup3\n      swap1\n      sub\n      0x1f\n      and\n      dup3\n      add\n      swap2\n    tag_367:\n      pop\n      pop\n      pop\n      pop\n      pop\n      swap1\n      pop\n        /* \"chestNft.sol\":6785:6885  function _baseURI() internal view virtual returns (string memory) {... */\n      swap1\n      jump\t// out\n        /* \"chestNft.sol\":27901:29646  function _toString(uint256 value) internal pure virtual returns (string memory str) {... */\n    tag_274:\n        /* \"chestNft.sol\":27966:27983  string memory str */\n      0x60\n        /* \"chestNft.sol\":28400:28404  0xa0 */\n      0xa0\n        /* \"chestNft.sol\":28393:28397  0x40 */\n      0x40\n        /* \"chestNft.sol\":28387:28398  mload(0x40) */\n      mload\n        /* \"chestNft.sol\":28383:28405  add(mload(0x40), 0xa0) */\n      add\n        /* \"chestNft.sol\":28492:28493  m */\n      dup1\n        /* \"chestNft.sol\":28486:28490  0x40 */\n      0x40\n        /* \"chestNft.sol\":28479:28494  mstore(0x40, m) */\n      mstore\n        /* \"chestNft.sol\":28567:28571  0x20 */\n      0x20\n        /* \"chestNft.sol\":28564:28565  m */\n      dup2\n        /* \"chestNft.sol\":28560:28572  sub(m, 0x20) */\n      sub\n        /* \"chestNft.sol\":28553:28572  str := sub(m, 0x20) */\n      swap2\n      pop\n        /* \"chestNft.sol\":28649:28650  0 */\n      0x00\n        /* \"chestNft.sol\":28644:28647  str */\n      dup3\n        /* \"chestNft.sol\":28637:28651  mstore(str, 0) */\n      mstore\n        /* \"chestNft.sol\":28753:28756  str */\n      dup2\n        /* \"chestNft.sol\":28992:28997  value */\n      dup4\n        /* \"chestNft.sol\":28974:29402  for { let temp := value } 1 {} {... */\n    tag_371:\n        /* \"chestNft.sol\":29000:29001  1 */\n      0x01\n        /* \"chestNft.sol\":28974:29402  for { let temp := value } 1 {} {... */\n      iszero\n      tag_373\n      jumpi\n        /* \"chestNft.sol\":29040:29041  1 */\n      0x01\n        /* \"chestNft.sol\":29035:29038  str */\n      dup5\n        /* \"chestNft.sol\":29031:29042  sub(str, 1) */\n      sub\n        /* \"chestNft.sol\":29024:29042  str := sub(str, 1) */\n      swap4\n      pop\n        /* \"chestNft.sol\":29211:29213  10 */\n      0x0a\n        /* \"chestNft.sol\":29205:29209  temp */\n      dup2\n        /* \"chestNft.sol\":29201:29214  mod(temp, 10) */\n      mod\n        /* \"chestNft.sol\":29197:29199  48 */\n      0x30\n        /* \"chestNft.sol\":29193:29215  add(48, mod(temp, 10)) */\n      add\n        /* \"chestNft.sol\":29188:29191  str */\n      dup5\n        /* \"chestNft.sol\":29180:29216  mstore8(str, add(48, mod(temp, 10))) */\n      mstore8\n        /* \"chestNft.sol\":29305:29307  10 */\n      0x0a\n        /* \"chestNft.sol\":29299:29303  temp */\n      dup2\n        /* \"chestNft.sol\":29295:29308  div(temp, 10) */\n      div\n        /* \"chestNft.sol\":29287:29308  temp := div(temp, 10) */\n      swap1\n      pop\n        /* \"chestNft.sol\":29372:29376  temp */\n      dup1\n        /* \"chestNft.sol\":28974:29402  for { let temp := value } 1 {} {... */\n      tag_371\n        /* \"chestNft.sol\":29362:29387  if iszero(temp) { break } */\n      jumpi\n        /* \"chestNft.sol\":28974:29402  for { let temp := value } 1 {} {... */\n    tag_373:\n        /* \"chestNft.sol\":28978:28999  { let temp := value } */\n      pop\n        /* \"chestNft.sol\":29441:29444  str */\n      dup3\n        /* \"chestNft.sol\":29436:29439  end */\n      dup2\n        /* \"chestNft.sol\":29432:29445  sub(end, str) */\n      sub\n        /* \"chestNft.sol\":29556:29560  0x20 */\n      0x20\n        /* \"chestNft.sol\":29551:29554  str */\n      dup5\n        /* \"chestNft.sol\":29547:29561  sub(str, 0x20) */\n      sub\n        /* \"chestNft.sol\":29540:29561  str := sub(str, 0x20) */\n      swap4\n      pop\n        /* \"chestNft.sol\":29621:29627  length */\n      dup1\n        /* \"chestNft.sol\":29616:29619  str */\n      dup5\n        /* \"chestNft.sol\":29609:29628  mstore(str, length) */\n      mstore\n        /* \"chestNft.sol\":28005:29639  {... */\n      pop\n      pop\n      pop\n        /* \"chestNft.sol\":27901:29646  function _toString(uint256 value) internal pure virtual returns (string memory str) {... */\n      swap2\n      swap1\n      pop\n      jump\t// out\n        /* \"chestNft.sol\":23699:23788  function _burn(uint256 tokenId) internal virtual {... */\n    tag_282:\n        /* \"chestNft.sol\":23759:23780  _burn(tokenId, false) */\n      tag_376\n        /* \"chestNft.sol\":23765:23772  tokenId */\n      dup2\n        /* \"chestNft.sol\":23774:23779  false */\n      0x00\n        /* \"chestNft.sol\":23759:23764  _burn */\n      tag_377\n        /* \"chestNft.sol\":23759:23780  _burn(tokenId, false) */\n      jump\t// in\n    tag_376:\n        /* \"chestNft.sol\":23699:23788  function _burn(uint256 tokenId) internal virtual {... */\n      pop\n      jump\t// out\n        /* \"@openzeppelin/contracts/utils/Context.sol\":656:752  function _msgSender() internal view virtual returns (address) {... */\n    tag_315:\n        /* \"@openzeppelin/contracts/utils/Context.sol\":709:716  address */\n      0x00\n        /* \"@openzeppelin/contracts/utils/Context.sol\":735:745  msg.sender */\n      caller\n        /* \"@openzeppelin/contracts/utils/Context.sol\":728:745  return msg.sender */\n      swap1\n      pop\n        /* \"@openzeppelin/contracts/utils/Context.sol\":656:752  function _msgSender() internal view virtual returns (address) {... */\n      swap1\n      jump\t// out\n        /* \"chestNft.sol\":27208:27355  function _extraData(... */\n    tag_341:\n        /* \"chestNft.sol\":27345:27351  uint24 */\n      0x00\n        /* \"chestNft.sol\":27208:27355  function _extraData(... */\n      swap4\n      swap3\n      pop\n      pop\n      pop\n      jump\t// out\n        /* \"chestNft.sol\":22177:22885  function _safeMint(... */\n    tag_346:\n        /* \"chestNft.sol\":22308:22327  _mint(to, quantity) */\n      tag_381\n        /* \"chestNft.sol\":22314:22316  to */\n      dup4\n        /* \"chestNft.sol\":22318:22326  quantity */\n      dup4\n        /* \"chestNft.sol\":22308:22313  _mint */\n      tag_382\n        /* \"chestNft.sol\":22308:22327  _mint(to, quantity) */\n      jump\t// in\n    tag_381:\n        /* \"chestNft.sol\":22387:22388  0 */\n      0x00\n        /* \"chestNft.sol\":22369:22371  to */\n      dup4\n        /* \"chestNft.sol\":22369:22383  to.code.length */\n      0xffffffffffffffffffffffffffffffffffffffff\n      and\n      extcodesize\n        /* \"chestNft.sol\":22369:22388  to.code.length != 0 */\n      eq\n        /* \"chestNft.sol\":22365:22867  if (to.code.length != 0) {... */\n      tag_383\n      jumpi\n        /* \"chestNft.sol\":22409:22420  uint256 end */\n      0x00\n        /* \"chestNft.sol\":22423:22436  _currentIndex */\n      sload(0x01)\n        /* \"chestNft.sol\":22409:22436  uint256 end = _currentIndex */\n      swap1\n      pop\n        /* \"chestNft.sol\":22455:22468  uint256 index */\n      0x00\n        /* \"chestNft.sol\":22477:22485  quantity */\n      dup4\n        /* \"chestNft.sol\":22471:22474  end */\n      dup3\n        /* \"chestNft.sol\":22471:22485  end - quantity */\n      sub\n        /* \"chestNft.sol\":22455:22485  uint256 index = end - quantity */\n      swap1\n      pop\n        /* \"chestNft.sol\":22504:22746  do {... */\n    tag_384:\n        /* \"chestNft.sol\":22535:22597  _checkContractOnERC721Received(address(0), to, index++, _data) */\n      tag_387\n        /* \"chestNft.sol\":22574:22575  0 */\n      0x00\n        /* \"chestNft.sol\":22578:22580  to */\n      dup7\n        /* \"chestNft.sol\":22582:22589  index++ */\n      dup4\n      dup1\n      0x01\n      add\n      swap5\n      pop\n        /* \"chestNft.sol\":22591:22596  _data */\n      dup7\n        /* \"chestNft.sol\":22535:22565  _checkContractOnERC721Received */\n      tag_259\n        /* \"chestNft.sol\":22535:22597  _checkContractOnERC721Received(address(0), to, index++, _data) */\n      jump\t// in\n    tag_387:\n        /* \"chestNft.sol\":22530:22706  if (!_checkContractOnERC721Received(address(0), to, index++, _data)) {... */\n      tag_388\n      jumpi\n        /* \"chestNft.sol\":22626:22682  _revert(TransferToNonERC721ReceiverImplementer.selector) */\n      tag_389\n        /* \"chestNft.sol\":22634:22681  TransferToNonERC721ReceiverImplementer.selector */\n      shl(0xe0, 0xd1a57ed6)\n        /* \"chestNft.sol\":22626:22633  _revert */\n      tag_170\n        /* \"chestNft.sol\":22626:22682  _revert(TransferToNonERC721ReceiverImplementer.selector) */\n      jump\t// in\n    tag_389:\n        /* \"chestNft.sol\":22530:22706  if (!_checkContractOnERC721Received(address(0), to, index++, _data)) {... */\n    tag_388:\n        /* \"chestNft.sol\":22741:22744  end */\n      dup2\n        /* \"chestNft.sol\":22733:22738  index */\n      dup2\n        /* \"chestNft.sol\":22733:22744  index < end */\n      lt\n        /* \"chestNft.sol\":22504:22746  do {... */\n      tag_384\n      jumpi\n        /* \"chestNft.sol\":22828:22831  end */\n      dup2\n        /* \"chestNft.sol\":22811:22824  _currentIndex */\n      sload(0x01)\n        /* \"chestNft.sol\":22811:22831  _currentIndex != end */\n      eq\n        /* \"chestNft.sol\":22807:22851  if (_currentIndex != end) _revert(bytes4(0)) */\n      tag_390\n      jumpi\n        /* \"chestNft.sol\":22833:22851  _revert(bytes4(0)) */\n      tag_391\n        /* \"chestNft.sol\":22848:22849  0 */\n      0x00\n        /* \"chestNft.sol\":22841:22850  bytes4(0) */\n      0xe0\n      shl\n        /* \"chestNft.sol\":22833:22840  _revert */\n      tag_170\n        /* \"chestNft.sol\":22833:22851  _revert(bytes4(0)) */\n      jump\t// in\n    tag_391:\n        /* \"chestNft.sol\":22807:22851  if (_currentIndex != end) _revert(bytes4(0)) */\n    tag_390:\n        /* \"chestNft.sol\":22390:22867  {... */\n      pop\n      pop\n        /* \"chestNft.sol\":22365:22867  if (to.code.length != 0) {... */\n    tag_383:\n        /* \"chestNft.sol\":22177:22885  function _safeMint(... */\n      pop\n      pop\n      pop\n      jump\t// out\n        /* \"chestNft.sol\":23801:26640  function _burn(uint256 tokenId, bool approvalCheck) internal virtual {... */\n    tag_377:\n        /* \"chestNft.sol\":23881:23908  uint256 prevOwnershipPacked */\n      0x00\n        /* \"chestNft.sol\":23911:23938  _packedOwnershipOf(tokenId) */\n      tag_393\n        /* \"chestNft.sol\":23930:23937  tokenId */\n      dup4\n        /* \"chestNft.sol\":23911:23929  _packedOwnershipOf */\n      tag_185\n        /* \"chestNft.sol\":23911:23938  _packedOwnershipOf(tokenId) */\n      jump\t// in\n    tag_393:\n        /* \"chestNft.sol\":23881:23938  uint256 prevOwnershipPacked = _packedOwnershipOf(tokenId) */\n      swap1\n      pop\n        /* \"chestNft.sol\":23951:23963  address from */\n      0x00\n        /* \"chestNft.sol\":23982:24001  prevOwnershipPacked */\n      dup2\n        /* \"chestNft.sol\":23951:24003  address from = address(uint160(prevOwnershipPacked)) */\n      swap1\n      pop\n        /* \"chestNft.sol\":24017:24044  uint256 approvedAddressSlot */\n      0x00\n        /* \"chestNft.sol\":24046:24069  address approvedAddress */\n      dup1\n        /* \"chestNft.sol\":24073:24108  _getApprovedSlotAndAddress(tokenId) */\n      tag_394\n        /* \"chestNft.sol\":24100:24107  tokenId */\n      dup7\n        /* \"chestNft.sol\":24073:24099  _getApprovedSlotAndAddress */\n      tag_189\n        /* \"chestNft.sol\":24073:24108  _getApprovedSlotAndAddress(tokenId) */\n      jump\t// in\n    tag_394:\n        /* \"chestNft.sol\":24016:24108  (uint256 approvedAddressSlot, address approvedAddress) = _getApprovedSlotAndAddress(tokenId) */\n      swap2\n      pop\n      swap2\n      pop\n        /* \"chestNft.sol\":24125:24138  approvalCheck */\n      dup5\n        /* \"chestNft.sol\":24121:24446  if (approvalCheck) {... */\n      iszero\n      tag_395\n      jumpi\n        /* \"chestNft.sol\":24246:24314  _isSenderApprovedOrOwner(approvedAddress, from, _msgSenderERC721A()) */\n      tag_396\n        /* \"chestNft.sol\":24271:24286  approvedAddress */\n      dup2\n        /* \"chestNft.sol\":24288:24292  from */\n      dup5\n        /* \"chestNft.sol\":24294:24313  _msgSenderERC721A() */\n      tag_397\n        /* \"chestNft.sol\":24294:24311  _msgSenderERC721A */\n      tag_192\n        /* \"chestNft.sol\":24294:24313  _msgSenderERC721A() */\n      jump\t// in\n    tag_397:\n        /* \"chestNft.sol\":24246:24270  _isSenderApprovedOrOwner */\n      tag_193\n        /* \"chestNft.sol\":24246:24314  _isSenderApprovedOrOwner(approvedAddress, from, _msgSenderERC721A()) */\n      jump\t// in\n    tag_396:\n        /* \"chestNft.sol\":24241:24434  if (!_isSenderApprovedOrOwner(approvedAddress, from, _msgSenderERC721A()))... */\n      tag_398\n      jumpi\n        /* \"chestNft.sol\":24338:24381  isApprovedForAll(from, _msgSenderERC721A()) */\n      tag_399\n        /* \"chestNft.sol\":24355:24359  from */\n      dup4\n        /* \"chestNft.sol\":24361:24380  _msgSenderERC721A() */\n      tag_400\n        /* \"chestNft.sol\":24361:24378  _msgSenderERC721A */\n      tag_192\n        /* \"chestNft.sol\":24361:24380  _msgSenderERC721A() */\n      jump\t// in\n    tag_400:\n        /* \"chestNft.sol\":24338:24354  isApprovedForAll */\n      tag_145\n        /* \"chestNft.sol\":24338:24381  isApprovedForAll(from, _msgSenderERC721A()) */\n      jump\t// in\n    tag_399:\n        /* \"chestNft.sol\":24333:24434  if (!isApprovedForAll(from, _msgSenderERC721A())) _revert(TransferCallerNotOwnerNorApproved.selector) */\n      tag_401\n      jumpi\n        /* \"chestNft.sol\":24383:24434  _revert(TransferCallerNotOwnerNorApproved.selector) */\n      tag_402\n        /* \"chestNft.sol\":24391:24433  TransferCallerNotOwnerNorApproved.selector */\n      shl(0xe0, 0x59c896be)\n        /* \"chestNft.sol\":24383:24390  _revert */\n      tag_170\n        /* \"chestNft.sol\":24383:24434  _revert(TransferCallerNotOwnerNorApproved.selector) */\n      jump\t// in\n    tag_402:\n        /* \"chestNft.sol\":24333:24434  if (!isApprovedForAll(from, _msgSenderERC721A())) _revert(TransferCallerNotOwnerNorApproved.selector) */\n    tag_401:\n        /* \"chestNft.sol\":24241:24434  if (!_isSenderApprovedOrOwner(approvedAddress, from, _msgSenderERC721A()))... */\n    tag_398:\n        /* \"chestNft.sol\":24121:24446  if (approvalCheck) {... */\n    tag_395:\n        /* \"chestNft.sol\":24458:24509  _beforeTokenTransfers(from, address(0), tokenId, 1) */\n      tag_403\n        /* \"chestNft.sol\":24480:24484  from */\n      dup4\n        /* \"chestNft.sol\":24494:24495  0 */\n      0x00\n        /* \"chestNft.sol\":24498:24505  tokenId */\n      dup9\n        /* \"chestNft.sol\":24507:24508  1 */\n      0x01\n        /* \"chestNft.sol\":24458:24479  _beforeTokenTransfers */\n      tag_200\n        /* \"chestNft.sol\":24458:24509  _beforeTokenTransfers(from, address(0), tokenId, 1) */\n      jump\t// in\n    tag_403:\n        /* \"chestNft.sol\":24602:24617  approvedAddress */\n      dup1\n        /* \"chestNft.sol\":24599:24759  if approvedAddress {... */\n      iszero\n      tag_404\n      jumpi\n        /* \"chestNft.sol\":24742:24743  0 */\n      0x00\n        /* \"chestNft.sol\":24721:24740  approvedAddressSlot */\n      dup3\n        /* \"chestNft.sol\":24714:24744  sstore(approvedAddressSlot, 0) */\n      sstore\n        /* \"chestNft.sol\":24599:24759  if approvedAddress {... */\n    tag_404:\n        /* \"chestNft.sol\":25169:25170  1 */\n      0x01\n        /* \"chestNft.sol\":873:876  128 */\n      0x80\n        /* \"chestNft.sol\":25139:25140  1 */\n      0x01\n        /* \"chestNft.sol\":25139:25165  1 << _BITPOS_NUMBER_BURNED */\n      swap1\n      shl\n        /* \"chestNft.sol\":25138:25170  (1 << _BITPOS_NUMBER_BURNED) - 1 */\n      sub\n        /* \"chestNft.sol\":25110:25128  _packedAddressData */\n      0x0c\n        /* \"chestNft.sol\":25110:25134  _packedAddressData[from] */\n      0x00\n        /* \"chestNft.sol\":25129:25133  from */\n      dup6\n        /* \"chestNft.sol\":25110:25134  _packedAddressData[from] */\n      0xffffffffffffffffffffffffffffffffffffffff\n      and\n      0xffffffffffffffffffffffffffffffffffffffff\n      and\n      dup2\n      mstore\n      0x20\n      add\n      swap1\n      dup2\n      mstore\n      0x20\n      add\n      0x00\n      keccak256\n      0x00\n        /* \"chestNft.sol\":25110:25170  _packedAddressData[from] += (1 << _BITPOS_NUMBER_BURNED) - 1 */\n      dup3\n      dup3\n      sload\n      add\n      swap3\n      pop\n      pop\n      dup2\n      swap1\n      sstore\n      pop\n        /* \"chestNft.sol\":25437:25613  _packOwnershipData(... */\n      tag_405\n        /* \"chestNft.sol\":25474:25478  from */\n      dup4\n        /* \"chestNft.sol\":25545:25598  _nextExtraData(from, address(0), prevOwnershipPacked) */\n      tag_406\n        /* \"chestNft.sol\":25560:25564  from */\n      dup6\n        /* \"chestNft.sol\":25574:25575  0 */\n      0x00\n        /* \"chestNft.sol\":25578:25597  prevOwnershipPacked */\n      dup9\n        /* \"chestNft.sol\":25545:25559  _nextExtraData */\n      tag_204\n        /* \"chestNft.sol\":25545:25598  _nextExtraData(from, address(0), prevOwnershipPacked) */\n      jump\t// in\n    tag_406:\n        /* \"chestNft.sol\":1664:1672  1 << 225 */\n      0x0200000000000000000000000000000000000000000000000000000000\n        /* \"chestNft.sol\":1384:1392  1 << 224 */\n      0x0100000000000000000000000000000000000000000000000000000000\n        /* \"chestNft.sol\":25498:25541  _BITMASK_BURNED | _BITMASK_NEXT_INITIALIZED */\n      or\n        /* \"chestNft.sol\":25497:25598  (_BITMASK_BURNED | _BITMASK_NEXT_INITIALIZED) | _nextExtraData(from, address(0), prevOwnershipPacked) */\n      or\n        /* \"chestNft.sol\":25437:25455  _packOwnershipData */\n      tag_205\n        /* \"chestNft.sol\":25437:25613  _packOwnershipData(... */\n      jump\t// in\n    tag_405:\n        /* \"chestNft.sol\":25408:25425  _packedOwnerships */\n      0x0b\n        /* \"chestNft.sol\":25408:25434  _packedOwnerships[tokenId] */\n      0x00\n        /* \"chestNft.sol\":25426:25433  tokenId */\n      dup9\n        /* \"chestNft.sol\":25408:25434  _packedOwnerships[tokenId] */\n      dup2\n      mstore\n      0x20\n      add\n      swap1\n      dup2\n      mstore\n      0x20\n      add\n      0x00\n      keccak256\n        /* \"chestNft.sol\":25408:25613  _packedOwnerships[tokenId] = _packOwnershipData(... */\n      dup2\n      swap1\n      sstore\n      pop\n        /* \"chestNft.sol\":25784:25785  0 */\n      0x00\n        /* \"chestNft.sol\":1664:1672  1 << 225 */\n      0x0200000000000000000000000000000000000000000000000000000000\n        /* \"chestNft.sol\":25733:25752  prevOwnershipPacked */\n      dup6\n        /* \"chestNft.sol\":25733:25780  prevOwnershipPacked & _BITMASK_NEXT_INITIALIZED */\n      and\n        /* \"chestNft.sol\":25733:25785  prevOwnershipPacked & _BITMASK_NEXT_INITIALIZED == 0 */\n      sub\n        /* \"chestNft.sol\":25729:26356  if (prevOwnershipPacked & _BITMASK_NEXT_INITIALIZED == 0) {... */\n      tag_407\n      jumpi\n        /* \"chestNft.sol\":25806:25825  uint256 nextTokenId */\n      0x00\n        /* \"chestNft.sol\":25838:25839  1 */\n      0x01\n        /* \"chestNft.sol\":25828:25835  tokenId */\n      dup8\n        /* \"chestNft.sol\":25828:25839  tokenId + 1 */\n      add\n        /* \"chestNft.sol\":25806:25839  uint256 nextTokenId = tokenId + 1 */\n      swap1\n      pop\n        /* \"chestNft.sol\":25995:25996  0 */\n      0x00\n        /* \"chestNft.sol\":25961:25978  _packedOwnerships */\n      0x0b\n        /* \"chestNft.sol\":25961:25991  _packedOwnerships[nextTokenId] */\n      0x00\n        /* \"chestNft.sol\":25979:25990  nextTokenId */\n      dup4\n        /* \"chestNft.sol\":25961:25991  _packedOwnerships[nextTokenId] */\n      dup2\n      mstore\n      0x20\n      add\n      swap1\n      dup2\n      mstore\n      0x20\n      add\n      0x00\n      keccak256\n      sload\n        /* \"chestNft.sol\":25961:25996  _packedOwnerships[nextTokenId] == 0 */\n      sub\n        /* \"chestNft.sol\":25957:26341  if (_packedOwnerships[nextTokenId] == 0) {... */\n      tag_408\n      jumpi\n        /* \"chestNft.sol\":26099:26112  _currentIndex */\n      sload(0x01)\n        /* \"chestNft.sol\":26084:26095  nextTokenId */\n      dup2\n        /* \"chestNft.sol\":26084:26112  nextTokenId != _currentIndex */\n      eq\n        /* \"chestNft.sol\":26080:26322  if (nextTokenId != _currentIndex) {... */\n      tag_409\n      jumpi\n        /* \"chestNft.sol\":26279:26298  prevOwnershipPacked */\n      dup5\n        /* \"chestNft.sol\":26246:26263  _packedOwnerships */\n      0x0b\n        /* \"chestNft.sol\":26246:26276  _packedOwnerships[nextTokenId] */\n      0x00\n        /* \"chestNft.sol\":26264:26275  nextTokenId */\n      dup4\n        /* \"chestNft.sol\":26246:26276  _packedOwnerships[nextTokenId] */\n      dup2\n      mstore\n      0x20\n      add\n      swap1\n      dup2\n      mstore\n      0x20\n      add\n      0x00\n      keccak256\n        /* \"chestNft.sol\":26246:26298  _packedOwnerships[nextTokenId] = prevOwnershipPacked */\n      dup2\n      swap1\n      sstore\n      pop\n        /* \"chestNft.sol\":26080:26322  if (nextTokenId != _currentIndex) {... */\n    tag_409:\n        /* \"chestNft.sol\":25957:26341  if (_packedOwnerships[nextTokenId] == 0) {... */\n    tag_408:\n        /* \"chestNft.sol\":25787:26356  {... */\n      pop\n        /* \"chestNft.sol\":25729:26356  if (prevOwnershipPacked & _BITMASK_NEXT_INITIALIZED == 0) {... */\n    tag_407:\n        /* \"chestNft.sol\":26411:26418  tokenId */\n      dup6\n        /* \"chestNft.sol\":26407:26408  0 */\n      0x00\n        /* \"chestNft.sol\":26384:26419  Transfer(from, address(0), tokenId) */\n      0xffffffffffffffffffffffffffffffffffffffff\n      and\n        /* \"chestNft.sol\":26393:26397  from */\n      dup5\n        /* \"chestNft.sol\":26384:26419  Transfer(from, address(0), tokenId) */\n      0xffffffffffffffffffffffffffffffffffffffff\n      and\n      0xddf252ad1be2c89b69c2b068fc378daa952ba7f163c4a11628f55a4df523b3ef\n      mload(0x40)\n      mload(0x40)\n      dup1\n      swap2\n      sub\n      swap1\n      log4\n        /* \"chestNft.sol\":26430:26480  _afterTokenTransfers(from, address(0), tokenId, 1) */\n      tag_410\n        /* \"chestNft.sol\":26451:26455  from */\n      dup4\n        /* \"chestNft.sol\":26465:26466  0 */\n      0x00\n        /* \"chestNft.sol\":26469:26476  tokenId */\n      dup9\n        /* \"chestNft.sol\":26478:26479  1 */\n      0x01\n        /* \"chestNft.sol\":26430:26450  _afterTokenTransfers */\n      tag_212\n        /* \"chestNft.sol\":26430:26480  _afterTokenTransfers(from, address(0), tokenId, 1) */\n      jump\t// in\n    tag_410:\n        /* \"chestNft.sol\":26607:26619  _burnCounter */\n      0x02\n      0x00\n        /* \"chestNft.sol\":26607:26621  _burnCounter++ */\n      dup2\n      sload\n      dup1\n      swap3\n      swap2\n      swap1\n      0x01\n      add\n      swap2\n      swap1\n      pop\n      sstore\n      pop\n        /* \"chestNft.sol\":23870:26640  {... */\n      pop\n      pop\n      pop\n      pop\n        /* \"chestNft.sol\":23801:26640  function _burn(uint256 tokenId, bool approvalCheck) internal virtual {... */\n      pop\n      pop\n      jump\t// out\n        /* \"chestNft.sol\":18558:20863  function _mint(address to, uint256 quantity) internal virtual {... */\n    tag_382:\n        /* \"chestNft.sol\":18631:18651  uint256 startTokenId */\n      0x00\n        /* \"chestNft.sol\":18654:18667  _currentIndex */\n      sload(0x01)\n        /* \"chestNft.sol\":18631:18667  uint256 startTokenId = _currentIndex */\n      swap1\n      pop\n        /* \"chestNft.sol\":18694:18695  0 */\n      0x00\n        /* \"chestNft.sol\":18682:18690  quantity */\n      dup3\n        /* \"chestNft.sol\":18682:18695  quantity == 0 */\n      sub\n        /* \"chestNft.sol\":18678:18731  if (quantity == 0) _revert(MintZeroQuantity.selector) */\n      tag_412\n      jumpi\n        /* \"chestNft.sol\":18697:18731  _revert(MintZeroQuantity.selector) */\n      tag_413\n        /* \"chestNft.sol\":18705:18730  MintZeroQuantity.selector */\n      shl(0xe0, 0xb562e8dd)\n        /* \"chestNft.sol\":18697:18704  _revert */\n      tag_170\n        /* \"chestNft.sol\":18697:18731  _revert(MintZeroQuantity.selector) */\n      jump\t// in\n    tag_413:\n        /* \"chestNft.sol\":18678:18731  if (quantity == 0) _revert(MintZeroQuantity.selector) */\n    tag_412:\n        /* \"chestNft.sol\":18744:18805  _beforeTokenTransfers(address(0), to, startTokenId, quantity) */\n      tag_414\n        /* \"chestNft.sol\":18774:18775  0 */\n      0x00\n        /* \"chestNft.sol\":18778:18780  to */\n      dup5\n        /* \"chestNft.sol\":18782:18794  startTokenId */\n      dup4\n        /* \"chestNft.sol\":18796:18804  quantity */\n      dup6\n        /* \"chestNft.sol\":18744:18765  _beforeTokenTransfers */\n      tag_200\n        /* \"chestNft.sol\":18744:18805  _beforeTokenTransfers(address(0), to, startTokenId, quantity) */\n      jump\t// in\n    tag_414:\n        /* \"chestNft.sol\":19278:19417  _packOwnershipData(... */\n      tag_415\n        /* \"chestNft.sol\":19315:19317  to */\n      dup4\n        /* \"chestNft.sol\":19369:19402  _nextExtraData(address(0), to, 0) */\n      tag_416\n        /* \"chestNft.sol\":19392:19393  0 */\n      0x00\n        /* \"chestNft.sol\":19396:19398  to */\n      dup7\n        /* \"chestNft.sol\":19400:19401  0 */\n      0x00\n        /* \"chestNft.sol\":19369:19383  _nextExtraData */\n      tag_204\n        /* \"chestNft.sol\":19369:19402  _nextExtraData(address(0), to, 0) */\n      jump\t// in\n    tag_416:\n        /* \"chestNft.sol\":19336:19366  _nextInitializedFlag(quantity) */\n      tag_417\n        /* \"chestNft.sol\":19357:19365  quantity */\n      dup6\n        /* \"chestNft.sol\":19336:19356  _nextInitializedFlag */\n      tag_418\n        /* \"chestNft.sol\":19336:19366  _nextInitializedFlag(quantity) */\n      jump\t// in\n    tag_417:\n        /* \"chestNft.sol\":19336:19402  _nextInitializedFlag(quantity) | _nextExtraData(address(0), to, 0) */\n      or\n        /* \"chestNft.sol\":19278:19296  _packOwnershipData */\n      tag_205\n        /* \"chestNft.sol\":19278:19417  _packOwnershipData(... */\n      jump\t// in\n    tag_415:\n        /* \"chestNft.sol\":19244:19261  _packedOwnerships */\n      0x0b\n        /* \"chestNft.sol\":19244:19275  _packedOwnerships[startTokenId] */\n      0x00\n        /* \"chestNft.sol\":19262:19274  startTokenId */\n      dup4\n        /* \"chestNft.sol\":19244:19275  _packedOwnerships[startTokenId] */\n      dup2\n      mstore\n      0x20\n      add\n      swap1\n      dup2\n      mstore\n      0x20\n      add\n      0x00\n      keccak256\n        /* \"chestNft.sol\":19244:19417  _packedOwnerships[startTokenId] = _packOwnershipData(... */\n      dup2\n      swap1\n      sstore\n      pop\n        /* \"chestNft.sol\":19704:19705  1 */\n      0x01\n        /* \"chestNft.sol\":746:748  64 */\n      0x40\n        /* \"chestNft.sol\":19674:19675  1 */\n      0x01\n        /* \"chestNft.sol\":19674:19700  1 << _BITPOS_NUMBER_MINTED */\n      swap1\n      shl\n        /* \"chestNft.sol\":19673:19705  (1 << _BITPOS_NUMBER_MINTED) | 1 */\n      or\n        /* \"chestNft.sol\":19661:19669  quantity */\n      dup3\n        /* \"chestNft.sol\":19661:19706  quantity * ((1 << _BITPOS_NUMBER_MINTED) | 1) */\n      mul\n        /* \"chestNft.sol\":19635:19653  _packedAddressData */\n      0x0c\n        /* \"chestNft.sol\":19635:19657  _packedAddressData[to] */\n      0x00\n        /* \"chestNft.sol\":19654:19656  to */\n      dup6\n        /* \"chestNft.sol\":19635:19657  _packedAddressData[to] */\n      0xffffffffffffffffffffffffffffffffffffffff\n      and\n      0xffffffffffffffffffffffffffffffffffffffff\n      and\n      dup2\n      mstore\n      0x20\n      add\n      swap1\n      dup2\n      mstore\n      0x20\n      add\n      0x00\n      keccak256\n      0x00\n        /* \"chestNft.sol\":19635:19706  _packedAddressData[to] += quantity * ((1 << _BITPOS_NUMBER_MINTED) | 1) */\n      dup3\n      dup3\n      sload\n      add\n      swap3\n      pop\n      pop\n      dup2\n      swap1\n      sstore\n      pop\n        /* \"chestNft.sol\":19817:19833  uint256 toMasked */\n      0x00\n        /* \"chestNft.sol\":2066:2080  (1 << 160) - 1 */\n      0xffffffffffffffffffffffffffffffffffffffff\n        /* \"chestNft.sol\":19852:19854  to */\n      dup5\n        /* \"chestNft.sol\":19836:19856  uint256(uint160(to)) */\n      0xffffffffffffffffffffffffffffffffffffffff\n      and\n        /* \"chestNft.sol\":19836:19875  uint256(uint160(to)) & _BITMASK_ADDRESS */\n      and\n        /* \"chestNft.sol\":19817:19875  uint256 toMasked = uint256(uint160(to)) & _BITMASK_ADDRESS */\n      swap1\n      pop\n        /* \"chestNft.sol\":19908:19909  0 */\n      0x00\n        /* \"chestNft.sol\":19896:19904  toMasked */\n      dup2\n        /* \"chestNft.sol\":19896:19909  toMasked == 0 */\n      sub\n        /* \"chestNft.sol\":19892:19946  if (toMasked == 0) _revert(MintToZeroAddress.selector) */\n      tag_419\n      jumpi\n        /* \"chestNft.sol\":19911:19946  _revert(MintToZeroAddress.selector) */\n      tag_420\n        /* \"chestNft.sol\":19919:19945  MintToZeroAddress.selector */\n      shl(0xe0, 0x2e076300)\n        /* \"chestNft.sol\":19911:19918  _revert */\n      tag_170\n        /* \"chestNft.sol\":19911:19946  _revert(MintToZeroAddress.selector) */\n      jump\t// in\n    tag_420:\n        /* \"chestNft.sol\":19892:19946  if (toMasked == 0) _revert(MintToZeroAddress.selector) */\n    tag_419:\n        /* \"chestNft.sol\":19963:19974  uint256 end */\n      0x00\n        /* \"chestNft.sol\":19992:20000  quantity */\n      dup4\n        /* \"chestNft.sol\":19977:19989  startTokenId */\n      dup4\n        /* \"chestNft.sol\":19977:20000  startTokenId + quantity */\n      add\n        /* \"chestNft.sol\":19963:20000  uint256 end = startTokenId + quantity */\n      swap1\n      pop\n        /* \"chestNft.sol\":20015:20030  uint256 tokenId */\n      0x00\n        /* \"chestNft.sol\":20033:20045  startTokenId */\n      dup4\n        /* \"chestNft.sol\":20015:20045  uint256 tokenId = startTokenId */\n      swap1\n      pop\n        /* \"chestNft.sol\":20062:20738  do {... */\n    tag_421:\n        /* \"chestNft.sol\":20481:20488  tokenId */\n      dup1\n        /* \"chestNft.sol\":20437:20445  toMasked */\n      dup4\n        /* \"chestNft.sol\":20392:20393  0 */\n      0x00\n        /* \"chestNft.sol\":20326:20351  _TRANSFER_EVENT_SIGNATURE */\n      0xddf252ad1be2c89b69c2b068fc378daa952ba7f163c4a11628f55a4df523b3ef\n        /* \"chestNft.sol\":20263:20264  0 */\n      0x00\n        /* \"chestNft.sol\":20198:20199  0 */\n      dup1\n        /* \"chestNft.sol\":20167:20525  log4(... */\n      log4\n        /* \"chestNft.sol\":20733:20736  end */\n      dup2\n        /* \"chestNft.sol\":20720:20729  ++tokenId */\n      dup2\n      0x01\n      add\n      swap2\n      pop\n      dup2\n        /* \"chestNft.sol\":20720:20736  ++tokenId != end */\n      sub\n        /* \"chestNft.sol\":20062:20738  do {... */\n      tag_421\n      jumpi\n        /* \"chestNft.sol\":20770:20773  end */\n      dup2\n        /* \"chestNft.sol\":20754:20767  _currentIndex */\n      0x01\n        /* \"chestNft.sol\":20754:20773  _currentIndex = end */\n      dup2\n      swap1\n      sstore\n      pop\n        /* \"chestNft.sol\":18993:20785  unchecked {... */\n      pop\n      pop\n      pop\n        /* \"chestNft.sol\":20795:20855  _afterTokenTransfers(address(0), to, startTokenId, quantity) */\n      tag_424\n        /* \"chestNft.sol\":20824:20825  0 */\n      0x00\n        /* \"chestNft.sol\":20828:20830  to */\n      dup5\n        /* \"chestNft.sol\":20832:20844  startTokenId */\n      dup4\n        /* \"chestNft.sol\":20846:20854  quantity */\n      dup6\n        /* \"chestNft.sol\":20795:20815  _afterTokenTransfers */\n      tag_212\n        /* \"chestNft.sol\":20795:20855  _afterTokenTransfers(address(0), to, startTokenId, quantity) */\n      jump\t// in\n    tag_424:\n        /* \"chestNft.sol\":18620:20863  {... */\n      pop\n        /* \"chestNft.sol\":18558:20863  function _mint(address to, uint256 quantity) internal virtual {... */\n      pop\n      pop\n      jump\t// out\n        /* \"chestNft.sol\":11027:11351  function _nextInitializedFlag(uint256 quantity) private pure returns (uint256 result) {... */\n    tag_418:\n        /* \"chestNft.sol\":11097:11111  uint256 result */\n      0x00\n        /* \"chestNft.sol\":11330:11331  1 */\n      0x01\n        /* \"chestNft.sol\":11320:11328  quantity */\n      dup3\n        /* \"chestNft.sol\":11317:11332  eq(quantity, 1) */\n      eq\n        /* \"chestNft.sol\":11291:11315  _BITPOS_NEXT_INITIALIZED */\n      0xe1\n        /* \"chestNft.sol\":11287:11333  shl(_BITPOS_NEXT_INITIALIZED, eq(quantity, 1)) */\n      shl\n        /* \"chestNft.sol\":11277:11333  result := shl(_BITPOS_NEXT_INITIALIZED, eq(quantity, 1)) */\n      swap1\n      pop\n        /* \"chestNft.sol\":11027:11351  function _nextInitializedFlag(uint256 quantity) private pure returns (uint256 result) {... */\n      swap2\n      swap1\n      pop\n      jump\t// out\n        /* \"#utility.yul\":7:82   */\n    tag_426:\n        /* \"#utility.yul\":40:46   */\n      0x00\n        /* \"#utility.yul\":73:75   */\n      0x40\n        /* \"#utility.yul\":67:76   */\n      mload\n        /* \"#utility.yul\":57:76   */\n      swap1\n      pop\n        /* \"#utility.yul\":7:82   */\n      swap1\n      jump\t// out\n        /* \"#utility.yul\":88:205   */\n    tag_427:\n        /* \"#utility.yul\":197:198   */\n      0x00\n        /* \"#utility.yul\":194:195   */\n      dup1\n        /* \"#utility.yul\":187:199   */\n      revert\n        /* \"#utility.yul\":211:328   */\n    tag_428:\n        /* \"#utility.yul\":320:321   */\n      0x00\n        /* \"#utility.yul\":317:318   */\n      dup1\n        /* \"#utility.yul\":310:322   */\n      revert\n        /* \"#utility.yul\":334:483   */\n    tag_429:\n        /* \"#utility.yul\":370:377   */\n      0x00\n        /* \"#utility.yul\":410:476   */\n      0xffffffff00000000000000000000000000000000000000000000000000000000\n        /* \"#utility.yul\":403:408   */\n      dup3\n        /* \"#utility.yul\":399:477   */\n      and\n        /* \"#utility.yul\":388:477   */\n      swap1\n      pop\n        /* \"#utility.yul\":334:483   */\n      swap2\n      swap1\n      pop\n      jump\t// out\n        /* \"#utility.yul\":489:609   */\n    tag_430:\n        /* \"#utility.yul\":561:584   */\n      tag_501\n        /* \"#utility.yul\":578:583   */\n      dup2\n        /* \"#utility.yul\":561:584   */\n      tag_429\n      jump\t// in\n    tag_501:\n        /* \"#utility.yul\":554:559   */\n      dup2\n        /* \"#utility.yul\":551:585   */\n      eq\n        /* \"#utility.yul\":541:603   */\n      tag_502\n      jumpi\n        /* \"#utility.yul\":599:600   */\n      0x00\n        /* \"#utility.yul\":596:597   */\n      dup1\n        /* \"#utility.yul\":589:601   */\n      revert\n        /* \"#utility.yul\":541:603   */\n    tag_502:\n        /* \"#utility.yul\":489:609   */\n      pop\n      jump\t// out\n        /* \"#utility.yul\":615:752   */\n    tag_431:\n        /* \"#utility.yul\":660:665   */\n      0x00\n        /* \"#utility.yul\":698:704   */\n      dup2\n        /* \"#utility.yul\":685:705   */\n      calldataload\n        /* \"#utility.yul\":676:705   */\n      swap1\n      pop\n        /* \"#utility.yul\":714:746   */\n      tag_504\n        /* \"#utility.yul\":740:745   */\n      dup2\n        /* \"#utility.yul\":714:746   */\n      tag_430\n      jump\t// in\n    tag_504:\n        /* \"#utility.yul\":615:752   */\n      swap3\n      swap2\n      pop\n      pop\n      jump\t// out\n        /* \"#utility.yul\":758:1085   */\n    tag_36:\n        /* \"#utility.yul\":816:822   */\n      0x00\n        /* \"#utility.yul\":865:867   */\n      0x20\n        /* \"#utility.yul\":853:862   */\n      dup3\n        /* \"#utility.yul\":844:851   */\n      dup5\n        /* \"#utility.yul\":840:863   */\n      sub\n        /* \"#utility.yul\":836:868   */\n      slt\n        /* \"#utility.yul\":833:952   */\n      iszero\n      tag_506\n      jumpi\n        /* \"#utility.yul\":871:950   */\n      tag_507\n      tag_427\n      jump\t// in\n    tag_507:\n        /* \"#utility.yul\":833:952   */\n    tag_506:\n        /* \"#utility.yul\":991:992   */\n      0x00\n        /* \"#utility.yul\":1016:1068   */\n      tag_508\n        /* \"#utility.yul\":1060:1067   */\n      dup5\n        /* \"#utility.yul\":1051:1057   */\n      dup3\n        /* \"#utility.yul\":1040:1049   */\n      dup6\n        /* \"#utility.yul\":1036:1058   */\n      add\n        /* \"#utility.yul\":1016:1068   */\n      tag_431\n      jump\t// in\n    tag_508:\n        /* \"#utility.yul\":1006:1068   */\n      swap2\n      pop\n        /* \"#utility.yul\":962:1078   */\n      pop\n        /* \"#utility.yul\":758:1085   */\n      swap3\n      swap2\n      pop\n      pop\n      jump\t// out\n        /* \"#utility.yul\":1091:1181   */\n    tag_432:\n        /* \"#utility.yul\":1125:1132   */\n      0x00\n        /* \"#utility.yul\":1168:1173   */\n      dup2\n        /* \"#utility.yul\":1161:1174   */\n      iszero\n        /* \"#utility.yul\":1154:1175   */\n      iszero\n        /* \"#utility.yul\":1143:1175   */\n      swap1\n      pop\n        /* \"#utility.yul\":1091:1181   */\n      swap2\n      swap1\n      pop\n      jump\t// out\n        /* \"#utility.yul\":1187:1296   */\n    tag_433:\n        /* \"#utility.yul\":1268:1289   */\n      tag_511\n        /* \"#utility.yul\":1283:1288   */\n      dup2\n        /* \"#utility.yul\":1268:1289   */\n      tag_432\n      jump\t// in\n    tag_511:\n        /* \"#utility.yul\":1263:1266   */\n      dup3\n        /* \"#utility.yul\":1256:1290   */\n      mstore\n        /* \"#utility.yul\":1187:1296   */\n      pop\n      pop\n      jump\t// out\n        /* \"#utility.yul\":1302:1512   */\n    tag_39:\n        /* \"#utility.yul\":1389:1393   */\n      0x00\n        /* \"#utility.yul\":1427:1429   */\n      0x20\n        /* \"#utility.yul\":1416:1425   */\n      dup3\n        /* \"#utility.yul\":1412:1430   */\n      add\n        /* \"#utility.yul\":1404:1430   */\n      swap1\n      pop\n        /* \"#utility.yul\":1440:1505   */\n      tag_513\n        /* \"#utility.yul\":1502:1503   */\n      0x00\n        /* \"#utility.yul\":1491:1500   */\n      dup4\n        /* \"#utility.yul\":1487:1504   */\n      add\n        /* \"#utility.yul\":1478:1484   */\n      dup5\n        /* \"#utility.yul\":1440:1505   */\n      tag_433\n      jump\t// in\n    tag_513:\n        /* \"#utility.yul\":1302:1512   */\n      swap3\n      swap2\n      pop\n      pop\n      jump\t// out\n        /* \"#utility.yul\":1518:1617   */\n    tag_434:\n        /* \"#utility.yul\":1570:1576   */\n      0x00\n        /* \"#utility.yul\":1604:1609   */\n      dup2\n        /* \"#utility.yul\":1598:1610   */\n      mload\n        /* \"#utility.yul\":1588:1610   */\n      swap1\n      pop\n        /* \"#utility.yul\":1518:1617   */\n      swap2\n      swap1\n      pop\n      jump\t// out\n        /* \"#utility.yul\":1623:1792   */\n    tag_435:\n        /* \"#utility.yul\":1707:1718   */\n      0x00\n        /* \"#utility.yul\":1741:1747   */\n      dup3\n        /* \"#utility.yul\":1736:1739   */\n      dup3\n        /* \"#utility.yul\":1729:1748   */\n      mstore\n        /* \"#utility.yul\":1781:1785   */\n      0x20\n        /* \"#utility.yul\":1776:1779   */\n      dup3\n        /* \"#utility.yul\":1772:1786   */\n      add\n        /* \"#utility.yul\":1757:1786   */\n      swap1\n      pop\n        /* \"#utility.yul\":1623:1792   */\n      swap3\n      swap2\n      pop\n      pop\n      jump\t// out\n        /* \"#utility.yul\":1798:2044   */\n    tag_436:\n        /* \"#utility.yul\":1879:1880   */\n      0x00\n        /* \"#utility.yul\":1889:2002   */\n    tag_517:\n        /* \"#utility.yul\":1903:1909   */\n      dup4\n        /* \"#utility.yul\":1900:1901   */\n      dup2\n        /* \"#utility.yul\":1897:1910   */\n      lt\n        /* \"#utility.yul\":1889:2002   */\n      iszero\n      tag_519\n      jumpi\n        /* \"#utility.yul\":1988:1989   */\n      dup1\n        /* \"#utility.yul\":1983:1986   */\n      dup3\n        /* \"#utility.yul\":1979:1990   */\n      add\n        /* \"#utility.yul\":1973:1991   */\n      mload\n        /* \"#utility.yul\":1969:1970   */\n      dup2\n        /* \"#utility.yul\":1964:1967   */\n      dup5\n        /* \"#utility.yul\":1960:1971   */\n      add\n        /* \"#utility.yul\":1953:1992   */\n      mstore\n        /* \"#utility.yul\":1925:1927   */\n      0x20\n        /* \"#utility.yul\":1922:1923   */\n      dup2\n        /* \"#utility.yul\":1918:1928   */\n      add\n        /* \"#utility.yul\":1913:1928   */\n      swap1\n      pop\n        /* \"#utility.yul\":1889:2002   */\n      jump(tag_517)\n    tag_519:\n        /* \"#utility.yul\":2036:2037   */\n      0x00\n        /* \"#utility.yul\":2027:2033   */\n      dup5\n        /* \"#utility.yul\":2022:2025   */\n      dup5\n        /* \"#utility.yul\":2018:2034   */\n      add\n        /* \"#utility.yul\":2011:2038   */\n      mstore\n        /* \"#utility.yul\":1860:2044   */\n      pop\n        /* \"#utility.yul\":1798:2044   */\n      pop\n      pop\n      pop\n      jump\t// out\n        /* \"#utility.yul\":2050:2152   */\n    tag_437:\n        /* \"#utility.yul\":2091:2097   */\n      0x00\n        /* \"#utility.yul\":2142:2144   */\n      0x1f\n        /* \"#utility.yul\":2138:2145   */\n      not\n        /* \"#utility.yul\":2133:2135   */\n      0x1f\n        /* \"#utility.yul\":2126:2131   */\n      dup4\n        /* \"#utility.yul\":2122:2136   */\n      add\n        /* \"#utility.yul\":2118:2146   */\n      and\n        /* \"#utility.yul\":2108:2146   */\n      swap1\n      pop\n        /* \"#utility.yul\":2050:2152   */\n      swap2\n      swap1\n      pop\n      jump\t// out\n        /* \"#utility.yul\":2158:2535   */\n    tag_438:\n        /* \"#utility.yul\":2246:2249   */\n      0x00\n        /* \"#utility.yul\":2274:2313   */\n      tag_522\n        /* \"#utility.yul\":2307:2312   */\n      dup3\n        /* \"#utility.yul\":2274:2313   */\n      tag_434\n      jump\t// in\n    tag_522:\n        /* \"#utility.yul\":2329:2400   */\n      tag_523\n        /* \"#utility.yul\":2393:2399   */\n      dup2\n        /* \"#utility.yul\":2388:2391   */\n      dup6\n        /* \"#utility.yul\":2329:2400   */\n      tag_435\n      jump\t// in\n    tag_523:\n        /* \"#utility.yul\":2322:2400   */\n      swap4\n      pop\n        /* \"#utility.yul\":2409:2474   */\n      tag_524\n        /* \"#utility.yul\":2467:2473   */\n      dup2\n        /* \"#utility.yul\":2462:2465   */\n      dup6\n        /* \"#utility.yul\":2455:2459   */\n      0x20\n        /* \"#utility.yul\":2448:2453   */\n      dup7\n        /* \"#utility.yul\":2444:2460   */\n      add\n        /* \"#utility.yul\":2409:2474   */\n      tag_436\n      jump\t// in\n    tag_524:\n        /* \"#utility.yul\":2499:2528   */\n      tag_525\n        /* \"#utility.yul\":2521:2527   */\n      dup2\n        /* \"#utility.yul\":2499:2528   */\n      tag_437\n      jump\t// in\n    tag_525:\n        /* \"#utility.yul\":2494:2497   */\n      dup5\n        /* \"#utility.yul\":2490:2529   */\n      add\n        /* \"#utility.yul\":2483:2529   */\n      swap2\n      pop\n        /* \"#utility.yul\":2250:2535   */\n      pop\n        /* \"#utility.yul\":2158:2535   */\n      swap3\n      swap2\n      pop\n      pop\n      jump\t// out\n        /* \"#utility.yul\":2541:2854   */\n    tag_44:\n        /* \"#utility.yul\":2654:2658   */\n      0x00\n        /* \"#utility.yul\":2692:2694   */\n      0x20\n        /* \"#utility.yul\":2681:2690   */\n      dup3\n        /* \"#utility.yul\":2677:2695   */\n      add\n        /* \"#utility.yul\":2669:2695   */\n      swap1\n      pop\n        /* \"#utility.yul\":2741:2750   */\n      dup2\n        /* \"#utility.yul\":2735:2739   */\n      dup2\n        /* \"#utility.yul\":2731:2751   */\n      sub\n        /* \"#utility.yul\":2727:2728   */\n      0x00\n        /* \"#utility.yul\":2716:2725   */\n      dup4\n        /* \"#utility.yul\":2712:2729   */\n      add\n        /* \"#utility.yul\":2705:2752   */\n      mstore\n        /* \"#utility.yul\":2769:2847   */\n      tag_527\n        /* \"#utility.yul\":2842:2846   */\n      dup2\n        /* \"#utility.yul\":2833:2839   */\n      dup5\n        /* \"#utility.yul\":2769:2847   */\n      tag_438\n      jump\t// in\n    tag_527:\n        /* \"#utility.yul\":2761:2847   */\n      swap1\n      pop\n        /* \"#utility.yul\":2541:2854   */\n      swap3\n      swap2\n      pop\n      pop\n      jump\t// out\n        /* \"#utility.yul\":2860:2937   */\n    tag_439:\n        /* \"#utility.yul\":2897:2904   */\n      0x00\n        /* \"#utility.yul\":2926:2931   */\n      dup2\n        /* \"#utility.yul\":2915:2931   */\n      swap1\n      pop\n        /* \"#utility.yul\":2860:2937   */\n      swap2\n      swap1\n      pop\n      jump\t// out\n        /* \"#utility.yul\":2943:3065   */\n    tag_440:\n        /* \"#utility.yul\":3016:3040   */\n      tag_530\n        /* \"#utility.yul\":3034:3039   */\n      dup2\n        /* \"#utility.yul\":3016:3040   */\n      tag_439\n      jump\t// in\n    tag_530:\n        /* \"#utility.yul\":3009:3014   */\n      dup2\n        /* \"#utility.yul\":3006:3041   */\n      eq\n        /* \"#utility.yul\":2996:3059   */\n      tag_531\n      jumpi\n        /* \"#utility.yul\":3055:3056   */\n      0x00\n        /* \"#utility.yul\":3052:3053   */\n      dup1\n        /* \"#utility.yul\":3045:3057   */\n      revert\n        /* \"#utility.yul\":2996:3059   */\n    tag_531:\n        /* \"#utility.yul\":2943:3065   */\n      pop\n      jump\t// out\n        /* \"#utility.yul\":3071:3210   */\n    tag_441:\n        /* \"#utility.yul\":3117:3122   */\n      0x00\n        /* \"#utility.yul\":3155:3161   */\n      dup2\n        /* \"#utility.yul\":3142:3162   */\n      calldataload\n        /* \"#utility.yul\":3133:3162   */\n      swap1\n      pop\n        /* \"#utility.yul\":3171:3204   */\n      tag_533\n        /* \"#utility.yul\":3198:3203   */\n      dup2\n        /* \"#utility.yul\":3171:3204   */\n      tag_440\n      jump\t// in\n    tag_533:\n        /* \"#utility.yul\":3071:3210   */\n      swap3\n      swap2\n      pop\n      pop\n      jump\t// out\n        /* \"#utility.yul\":3216:3545   */\n    tag_48:\n        /* \"#utility.yul\":3275:3281   */\n      0x00\n        /* \"#utility.yul\":3324:3326   */\n      0x20\n        /* \"#utility.yul\":3312:3321   */\n      dup3\n        /* \"#utility.yul\":3303:3310   */\n      dup5\n        /* \"#utility.yul\":3299:3322   */\n      sub\n        /* \"#utility.yul\":3295:3327   */\n      slt\n        /* \"#utility.yul\":3292:3411   */\n      iszero\n      tag_535\n      jumpi\n        /* \"#utility.yul\":3330:3409   */\n      tag_536\n      tag_427\n      jump\t// in\n    tag_536:\n        /* \"#utility.yul\":3292:3411   */\n    tag_535:\n        /* \"#utility.yul\":3450:3451   */\n      0x00\n        /* \"#utility.yul\":3475:3528   */\n      tag_537\n        /* \"#utility.yul\":3520:3527   */\n      dup5\n        /* \"#utility.yul\":3511:3517   */\n      dup3\n        /* \"#utility.yul\":3500:3509   */\n      dup6\n        /* \"#utility.yul\":3496:3518   */\n      add\n        /* \"#utility.yul\":3475:3528   */\n      tag_441\n      jump\t// in\n    tag_537:\n        /* \"#utility.yul\":3465:3528   */\n      swap2\n      pop\n        /* \"#utility.yul\":3421:3538   */\n      pop\n        /* \"#utility.yul\":3216:3545   */\n      swap3\n      swap2\n      pop\n      pop\n      jump\t// out\n        /* \"#utility.yul\":3551:3677   */\n    tag_442:\n        /* \"#utility.yul\":3588:3595   */\n      0x00\n        /* \"#utility.yul\":3628:3670   */\n      0xffffffffffffffffffffffffffffffffffffffff\n        /* \"#utility.yul\":3621:3626   */\n      dup3\n        /* \"#utility.yul\":3617:3671   */\n      and\n        /* \"#utility.yul\":3606:3671   */\n      swap1\n      pop\n        /* \"#utility.yul\":3551:3677   */\n      swap2\n      swap1\n      pop\n      jump\t// out\n        /* \"#utility.yul\":3683:3779   */\n    tag_443:\n        /* \"#utility.yul\":3720:3727   */\n      0x00\n        /* \"#utility.yul\":3749:3773   */\n      tag_540\n        /* \"#utility.yul\":3767:3772   */\n      dup3\n        /* \"#utility.yul\":3749:3773   */\n      tag_442\n      jump\t// in\n    tag_540:\n        /* \"#utility.yul\":3738:3773   */\n      swap1\n      pop\n        /* \"#utility.yul\":3683:3779   */\n      swap2\n      swap1\n      pop\n      jump\t// out\n        /* \"#utility.yul\":3785:3903   */\n    tag_444:\n        /* \"#utility.yul\":3872:3896   */\n      tag_542\n        /* \"#utility.yul\":3890:3895   */\n      dup2\n        /* \"#utility.yul\":3872:3896   */\n      tag_443\n      jump\t// in\n    tag_542:\n        /* \"#utility.yul\":3867:3870   */\n      dup3\n        /* \"#utility.yul\":3860:3897   */\n      mstore\n        /* \"#utility.yul\":3785:3903   */\n      pop\n      pop\n      jump\t// out\n        /* \"#utility.yul\":3909:4131   */\n    tag_51:\n        /* \"#utility.yul\":4002:4006   */\n      0x00\n        /* \"#utility.yul\":4040:4042   */\n      0x20\n        /* \"#utility.yul\":4029:4038   */\n      dup3\n        /* \"#utility.yul\":4025:4043   */\n      add\n        /* \"#utility.yul\":4017:4043   */\n      swap1\n      pop\n        /* \"#utility.yul\":4053:4124   */\n      tag_544\n        /* \"#utility.yul\":4121:4122   */\n      0x00\n        /* \"#utility.yul\":4110:4119   */\n      dup4\n        /* \"#utility.yul\":4106:4123   */\n      add\n        /* \"#utility.yul\":4097:4103   */\n      dup5\n        /* \"#utility.yul\":4053:4124   */\n      tag_444\n      jump\t// in\n    tag_544:\n        /* \"#utility.yul\":3909:4131   */\n      swap3\n      swap2\n      pop\n      pop\n      jump\t// out\n        /* \"#utility.yul\":4137:4259   */\n    tag_445:\n        /* \"#utility.yul\":4210:4234   */\n      tag_546\n        /* \"#utility.yul\":4228:4233   */\n      dup2\n        /* \"#utility.yul\":4210:4234   */\n      tag_443\n      jump\t// in\n    tag_546:\n        /* \"#utility.yul\":4203:4208   */\n      dup2\n        /* \"#utility.yul\":4200:4235   */\n      eq\n        /* \"#utility.yul\":4190:4253   */\n      tag_547\n      jumpi\n        /* \"#utility.yul\":4249:4250   */\n      0x00\n        /* \"#utility.yul\":4246:4247   */\n      dup1\n        /* \"#utility.yul\":4239:4251   */\n      revert\n        /* \"#utility.yul\":4190:4253   */\n    tag_547:\n        /* \"#utility.yul\":4137:4259   */\n      pop\n      jump\t// out\n        /* \"#utility.yul\":4265:4404   */\n    tag_446:\n        /* \"#utility.yul\":4311:4316   */\n      0x00\n        /* \"#utility.yul\":4349:4355   */\n      dup2\n        /* \"#utility.yul\":4336:4356   */\n      calldataload\n        /* \"#utility.yul\":4327:4356   */\n      swap1\n      pop\n        /* \"#utility.yul\":4365:4398   */\n      tag_549\n        /* \"#utility.yul\":4392:4397   */\n      dup2\n        /* \"#utility.yul\":4365:4398   */\n      tag_445\n      jump\t// in\n    tag_549:\n        /* \"#utility.yul\":4265:4404   */\n      swap3\n      swap2\n      pop\n      pop\n      jump\t// out\n        /* \"#utility.yul\":4410:4884   */\n    tag_54:\n        /* \"#utility.yul\":4478:4484   */\n      0x00\n        /* \"#utility.yul\":4486:4492   */\n      dup1\n        /* \"#utility.yul\":4535:4537   */\n      0x40\n        /* \"#utility.yul\":4523:4532   */\n      dup4\n        /* \"#utility.yul\":4514:4521   */\n      dup6\n        /* \"#utility.yul\":4510:4533   */\n      sub\n        /* \"#utility.yul\":4506:4538   */\n      slt\n        /* \"#utility.yul\":4503:4622   */\n      iszero\n      tag_551\n      jumpi\n        /* \"#utility.yul\":4541:4620   */\n      tag_552\n      tag_427\n      jump\t// in\n    tag_552:\n        /* \"#utility.yul\":4503:4622   */\n    tag_551:\n        /* \"#utility.yul\":4661:4662   */\n      0x00\n        /* \"#utility.yul\":4686:4739   */\n      tag_553\n        /* \"#utility.yul\":4731:4738   */\n      dup6\n        /* \"#utility.yul\":4722:4728   */\n      dup3\n        /* \"#utility.yul\":4711:4720   */\n      dup7\n        /* \"#utility.yul\":4707:4729   */\n      add\n        /* \"#utility.yul\":4686:4739   */\n      tag_446\n      jump\t// in\n    tag_553:\n        /* \"#utility.yul\":4676:4739   */\n      swap3\n      pop\n        /* \"#utility.yul\":4632:4749   */\n      pop\n        /* \"#utility.yul\":4788:4790   */\n      0x20\n        /* \"#utility.yul\":4814:4867   */\n      tag_554\n        /* \"#utility.yul\":4859:4866   */\n      dup6\n        /* \"#utility.yul\":4850:4856   */\n      dup3\n        /* \"#utility.yul\":4839:4848   */\n      dup7\n        /* \"#utility.yul\":4835:4857   */\n      add\n        /* \"#utility.yul\":4814:4867   */\n      tag_441\n      jump\t// in\n    tag_554:\n        /* \"#utility.yul\":4804:4867   */\n      swap2\n      pop\n        /* \"#utility.yul\":4759:4877   */\n      pop\n        /* \"#utility.yul\":4410:4884   */\n      swap3\n      pop\n      swap3\n      swap1\n      pop\n      jump\t// out\n        /* \"#utility.yul\":4890:5007   */\n    tag_447:\n        /* \"#utility.yul\":4999:5000   */\n      0x00\n        /* \"#utility.yul\":4996:4997   */\n      dup1\n        /* \"#utility.yul\":4989:5001   */\n      revert\n        /* \"#utility.yul\":5013:5130   */\n    tag_448:\n        /* \"#utility.yul\":5122:5123   */\n      0x00\n        /* \"#utility.yul\":5119:5120   */\n      dup1\n        /* \"#utility.yul\":5112:5124   */\n      revert\n        /* \"#utility.yul\":5136:5316   */\n    tag_449:\n        /* \"#utility.yul\":5184:5261   */\n      0x4e487b7100000000000000000000000000000000000000000000000000000000\n        /* \"#utility.yul\":5181:5182   */\n      0x00\n        /* \"#utility.yul\":5174:5262   */\n      mstore\n        /* \"#utility.yul\":5281:5285   */\n      0x41\n        /* \"#utility.yul\":5278:5279   */\n      0x04\n        /* \"#utility.yul\":5271:5286   */\n      mstore\n        /* \"#utility.yul\":5305:5309   */\n      0x24\n        /* \"#utility.yul\":5302:5303   */\n      0x00\n        /* \"#utility.yul\":5295:5310   */\n      revert\n        /* \"#utility.yul\":5322:5603   */\n    tag_450:\n        /* \"#utility.yul\":5405:5432   */\n      tag_559\n        /* \"#utility.yul\":5427:5431   */\n      dup3\n        /* \"#utility.yul\":5405:5432   */\n      tag_437\n      jump\t// in\n    tag_559:\n        /* \"#utility.yul\":5397:5403   */\n      dup2\n        /* \"#utility.yul\":5393:5433   */\n      add\n        /* \"#utility.yul\":5535:5541   */\n      dup2\n        /* \"#utility.yul\":5523:5533   */\n      dup2\n        /* \"#utility.yul\":5520:5542   */\n      lt\n        /* \"#utility.yul\":5499:5517   */\n      0xffffffffffffffff\n        /* \"#utility.yul\":5487:5497   */\n      dup3\n        /* \"#utility.yul\":5484:5518   */\n      gt\n        /* \"#utility.yul\":5481:5543   */\n      or\n        /* \"#utility.yul\":5478:5566   */\n      iszero\n      tag_560\n      jumpi\n        /* \"#utility.yul\":5546:5564   */\n      tag_561\n      tag_449\n      jump\t// in\n    tag_561:\n        /* \"#utility.yul\":5478:5566   */\n    tag_560:\n        /* \"#utility.yul\":5586:5596   */\n      dup1\n        /* \"#utility.yul\":5582:5584   */\n      0x40\n        /* \"#utility.yul\":5575:5597   */\n      mstore\n        /* \"#utility.yul\":5365:5603   */\n      pop\n        /* \"#utility.yul\":5322:5603   */\n      pop\n      pop\n      jump\t// out\n        /* \"#utility.yul\":5609:5738   */\n    tag_451:\n        /* \"#utility.yul\":5643:5649   */\n      0x00\n        /* \"#utility.yul\":5670:5690   */\n      tag_563\n      tag_426\n      jump\t// in\n    tag_563:\n        /* \"#utility.yul\":5660:5690   */\n      swap1\n      pop\n        /* \"#utility.yul\":5699:5732   */\n      tag_564\n        /* \"#utility.yul\":5727:5731   */\n      dup3\n        /* \"#utility.yul\":5719:5725   */\n      dup3\n        /* \"#utility.yul\":5699:5732   */\n      tag_450\n      jump\t// in\n    tag_564:\n        /* \"#utility.yul\":5609:5738   */\n      swap2\n      swap1\n      pop\n      jump\t// out\n        /* \"#utility.yul\":5744:6052   */\n    tag_452:\n        /* \"#utility.yul\":5806:5810   */\n      0x00\n        /* \"#utility.yul\":5896:5914   */\n      0xffffffffffffffff\n        /* \"#utility.yul\":5888:5894   */\n      dup3\n        /* \"#utility.yul\":5885:5915   */\n      gt\n        /* \"#utility.yul\":5882:5938   */\n      iszero\n      tag_566\n      jumpi\n        /* \"#utility.yul\":5918:5936   */\n      tag_567\n      tag_449\n      jump\t// in\n    tag_567:\n        /* \"#utility.yul\":5882:5938   */\n    tag_566:\n        /* \"#utility.yul\":5956:5985   */\n      tag_568\n        /* \"#utility.yul\":5978:5984   */\n      dup3\n        /* \"#utility.yul\":5956:5985   */\n      tag_437\n      jump\t// in\n    tag_568:\n        /* \"#utility.yul\":5948:5985   */\n      swap1\n      pop\n        /* \"#utility.yul\":6040:6044   */\n      0x20\n        /* \"#utility.yul\":6034:6038   */\n      dup2\n        /* \"#utility.yul\":6030:6045   */\n      add\n        /* \"#utility.yul\":6022:6045   */\n      swap1\n      pop\n        /* \"#utility.yul\":5744:6052   */\n      swap2\n      swap1\n      pop\n      jump\t// out\n        /* \"#utility.yul\":6058:6204   */\n    tag_453:\n        /* \"#utility.yul\":6155:6161   */\n      dup3\n        /* \"#utility.yul\":6150:6153   */\n      dup2\n        /* \"#utility.yul\":6145:6148   */\n      dup4\n        /* \"#utility.yul\":6132:6162   */\n      calldatacopy\n        /* \"#utility.yul\":6196:6197   */\n      0x00\n        /* \"#utility.yul\":6187:6193   */\n      dup4\n        /* \"#utility.yul\":6182:6185   */\n      dup4\n        /* \"#utility.yul\":6178:6194   */\n      add\n        /* \"#utility.yul\":6171:6198   */\n      mstore\n        /* \"#utility.yul\":6058:6204   */\n      pop\n      pop\n      pop\n      jump\t// out\n        /* \"#utility.yul\":6210:6635   */\n    tag_454:\n        /* \"#utility.yul\":6288:6293   */\n      0x00\n        /* \"#utility.yul\":6313:6379   */\n      tag_571\n        /* \"#utility.yul\":6329:6378   */\n      tag_572\n        /* \"#utility.yul\":6371:6377   */\n      dup5\n        /* \"#utility.yul\":6329:6378   */\n      tag_452\n      jump\t// in\n    tag_572:\n        /* \"#utility.yul\":6313:6379   */\n      tag_451\n      jump\t// in\n    tag_571:\n        /* \"#utility.yul\":6304:6379   */\n      swap1\n      pop\n        /* \"#utility.yul\":6402:6408   */\n      dup3\n        /* \"#utility.yul\":6395:6400   */\n      dup2\n        /* \"#utility.yul\":6388:6409   */\n      mstore\n        /* \"#utility.yul\":6440:6444   */\n      0x20\n        /* \"#utility.yul\":6433:6438   */\n      dup2\n        /* \"#utility.yul\":6429:6445   */\n      add\n        /* \"#utility.yul\":6478:6481   */\n      dup5\n        /* \"#utility.yul\":6469:6475   */\n      dup5\n        /* \"#utility.yul\":6464:6467   */\n      dup5\n        /* \"#utility.yul\":6460:6476   */\n      add\n        /* \"#utility.yul\":6457:6482   */\n      gt\n        /* \"#utility.yul\":6454:6566   */\n      iszero\n      tag_573\n      jumpi\n        /* \"#utility.yul\":6485:6564   */\n      tag_574\n      tag_448\n      jump\t// in\n    tag_574:\n        /* \"#utility.yul\":6454:6566   */\n    tag_573:\n        /* \"#utility.yul\":6575:6629   */\n      tag_575\n        /* \"#utility.yul\":6622:6628   */\n      dup5\n        /* \"#utility.yul\":6617:6620   */\n      dup3\n        /* \"#utility.yul\":6612:6615   */\n      dup6\n        /* \"#utility.yul\":6575:6629   */\n      tag_453\n      jump\t// in\n    tag_575:\n        /* \"#utility.yul\":6294:6635   */\n      pop\n        /* \"#utility.yul\":6210:6635   */\n      swap4\n      swap3\n      pop\n      pop\n      pop\n      jump\t// out\n        /* \"#utility.yul\":6655:6995   */\n    tag_455:\n        /* \"#utility.yul\":6711:6716   */\n      0x00\n        /* \"#utility.yul\":6760:6763   */\n      dup3\n        /* \"#utility.yul\":6753:6757   */\n      0x1f\n        /* \"#utility.yul\":6745:6751   */\n      dup4\n        /* \"#utility.yul\":6741:6758   */\n      add\n        /* \"#utility.yul\":6737:6764   */\n      slt\n        /* \"#utility.yul\":6727:6849   */\n      tag_577\n      jumpi\n        /* \"#utility.yul\":6768:6847   */\n      tag_578\n      tag_447\n      jump\t// in\n    tag_578:\n        /* \"#utility.yul\":6727:6849   */\n    tag_577:\n        /* \"#utility.yul\":6885:6891   */\n      dup2\n        /* \"#utility.yul\":6872:6892   */\n      calldataload\n        /* \"#utility.yul\":6910:6989   */\n      tag_579\n        /* \"#utility.yul\":6985:6988   */\n      dup5\n        /* \"#utility.yul\":6977:6983   */\n      dup3\n        /* \"#utility.yul\":6970:6974   */\n      0x20\n        /* \"#utility.yul\":6962:6968   */\n      dup7\n        /* \"#utility.yul\":6958:6975   */\n      add\n        /* \"#utility.yul\":6910:6989   */\n      tag_454\n      jump\t// in\n    tag_579:\n        /* \"#utility.yul\":6901:6989   */\n      swap2\n      pop\n        /* \"#utility.yul\":6717:6995   */\n      pop\n        /* \"#utility.yul\":6655:6995   */\n      swap3\n      swap2\n      pop\n      pop\n      jump\t// out\n        /* \"#utility.yul\":7001:7510   */\n    tag_59:\n        /* \"#utility.yul\":7070:7076   */\n      0x00\n        /* \"#utility.yul\":7119:7121   */\n      0x20\n        /* \"#utility.yul\":7107:7116   */\n      dup3\n        /* \"#utility.yul\":7098:7105   */\n      dup5\n        /* \"#utility.yul\":7094:7117   */\n      sub\n        /* \"#utility.yul\":7090:7122   */\n      slt\n        /* \"#utility.yul\":7087:7206   */\n      iszero\n      tag_581\n      jumpi\n        /* \"#utility.yul\":7125:7204   */\n      tag_582\n      tag_427\n      jump\t// in\n    tag_582:\n        /* \"#utility.yul\":7087:7206   */\n    tag_581:\n        /* \"#utility.yul\":7273:7274   */\n      0x00\n        /* \"#utility.yul\":7262:7271   */\n      dup3\n        /* \"#utility.yul\":7258:7275   */\n      add\n        /* \"#utility.yul\":7245:7276   */\n      calldataload\n        /* \"#utility.yul\":7303:7321   */\n      0xffffffffffffffff\n        /* \"#utility.yul\":7295:7301   */\n      dup2\n        /* \"#utility.yul\":7292:7322   */\n      gt\n        /* \"#utility.yul\":7289:7406   */\n      iszero\n      tag_583\n      jumpi\n        /* \"#utility.yul\":7325:7404   */\n      tag_584\n      tag_428\n      jump\t// in\n    tag_584:\n        /* \"#utility.yul\":7289:7406   */\n    tag_583:\n        /* \"#utility.yul\":7430:7493   */\n      tag_585\n        /* \"#utility.yul\":7485:7492   */\n      dup5\n        /* \"#utility.yul\":7476:7482   */\n      dup3\n        /* \"#utility.yul\":7465:7474   */\n      dup6\n        /* \"#utility.yul\":7461:7483   */\n      add\n        /* \"#utility.yul\":7430:7493   */\n      tag_455\n      jump\t// in\n    tag_585:\n        /* \"#utility.yul\":7420:7493   */\n      swap2\n      pop\n        /* \"#utility.yul\":7216:7503   */\n      pop\n        /* \"#utility.yul\":7001:7510   */\n      swap3\n      swap2\n      pop\n      pop\n      jump\t// out\n        /* \"#utility.yul\":7516:7634   */\n    tag_456:\n        /* \"#utility.yul\":7603:7627   */\n      tag_587\n        /* \"#utility.yul\":7621:7626   */\n      dup2\n        /* \"#utility.yul\":7603:7627   */\n      tag_439\n      jump\t// in\n    tag_587:\n        /* \"#utility.yul\":7598:7601   */\n      dup3\n        /* \"#utility.yul\":7591:7628   */\n      mstore\n        /* \"#utility.yul\":7516:7634   */\n      pop\n      pop\n      jump\t// out\n        /* \"#utility.yul\":7640:7862   */\n    tag_65:\n        /* \"#utility.yul\":7733:7737   */\n      0x00\n        /* \"#utility.yul\":7771:7773   */\n      0x20\n        /* \"#utility.yul\":7760:7769   */\n      dup3\n        /* \"#utility.yul\":7756:7774   */\n      add\n        /* \"#utility.yul\":7748:7774   */\n      swap1\n      pop\n        /* \"#utility.yul\":7784:7855   */\n      tag_589\n        /* \"#utility.yul\":7852:7853   */\n      0x00\n        /* \"#utility.yul\":7841:7850   */\n      dup4\n        /* \"#utility.yul\":7837:7854   */\n      add\n        /* \"#utility.yul\":7828:7834   */\n      dup5\n        /* \"#utility.yul\":7784:7855   */\n      tag_456\n      jump\t// in\n    tag_589:\n        /* \"#utility.yul\":7640:7862   */\n      swap3\n      swap2\n      pop\n      pop\n      jump\t// out\n        /* \"#utility.yul\":7868:8487   */\n    tag_68:\n        /* \"#utility.yul\":7945:7951   */\n      0x00\n        /* \"#utility.yul\":7953:7959   */\n      dup1\n        /* \"#utility.yul\":7961:7967   */\n      0x00\n        /* \"#utility.yul\":8010:8012   */\n      0x60\n        /* \"#utility.yul\":7998:8007   */\n      dup5\n        /* \"#utility.yul\":7989:7996   */\n      dup7\n        /* \"#utility.yul\":7985:8008   */\n      sub\n        /* \"#utility.yul\":7981:8013   */\n      slt\n        /* \"#utility.yul\":7978:8097   */\n      iszero\n      tag_591\n      jumpi\n        /* \"#utility.yul\":8016:8095   */\n      tag_592\n      tag_427\n      jump\t// in\n    tag_592:\n        /* \"#utility.yul\":7978:8097   */\n    tag_591:\n        /* \"#utility.yul\":8136:8137   */\n      0x00\n        /* \"#utility.yul\":8161:8214   */\n      tag_593\n        /* \"#utility.yul\":8206:8213   */\n      dup7\n        /* \"#utility.yul\":8197:8203   */\n      dup3\n        /* \"#utility.yul\":8186:8195   */\n      dup8\n        /* \"#utility.yul\":8182:8204   */\n      add\n        /* \"#utility.yul\":8161:8214   */\n      tag_446\n      jump\t// in\n    tag_593:\n        /* \"#utility.yul\":8151:8214   */\n      swap4\n      pop\n        /* \"#utility.yul\":8107:8224   */\n      pop\n        /* \"#utility.yul\":8263:8265   */\n      0x20\n        /* \"#utility.yul\":8289:8342   */\n      tag_594\n        /* \"#utility.yul\":8334:8341   */\n      dup7\n        /* \"#utility.yul\":8325:8331   */\n      dup3\n        /* \"#utility.yul\":8314:8323   */\n      dup8\n        /* \"#utility.yul\":8310:8332   */\n      add\n        /* \"#utility.yul\":8289:8342   */\n      tag_446\n      jump\t// in\n    tag_594:\n        /* \"#utility.yul\":8279:8342   */\n      swap3\n      pop\n        /* \"#utility.yul\":8234:8352   */\n      pop\n        /* \"#utility.yul\":8391:8393   */\n      0x40\n        /* \"#utility.yul\":8417:8470   */\n      tag_595\n        /* \"#utility.yul\":8462:8469   */\n      dup7\n        /* \"#utility.yul\":8453:8459   */\n      dup3\n        /* \"#utility.yul\":8442:8451   */\n      dup8\n        /* \"#utility.yul\":8438:8460   */\n      add\n        /* \"#utility.yul\":8417:8470   */\n      tag_441\n      jump\t// in\n    tag_595:\n        /* \"#utility.yul\":8407:8470   */\n      swap2\n      pop\n        /* \"#utility.yul\":8362:8480   */\n      pop\n        /* \"#utility.yul\":7868:8487   */\n      swap3\n      pop\n      swap3\n      pop\n      swap3\n      jump\t// out\n        /* \"#utility.yul\":8493:8822   */\n    tag_93:\n        /* \"#utility.yul\":8552:8558   */\n      0x00\n        /* \"#utility.yul\":8601:8603   */\n      0x20\n        /* \"#utility.yul\":8589:8598   */\n      dup3\n        /* \"#utility.yul\":8580:8587   */\n      dup5\n        /* \"#utility.yul\":8576:8599   */\n      sub\n        /* \"#utility.yul\":8572:8604   */\n      slt\n        /* \"#utility.yul\":8569:8688   */\n      iszero\n      tag_597\n      jumpi\n        /* \"#utility.yul\":8607:8686   */\n      tag_598\n      tag_427\n      jump\t// in\n    tag_598:\n        /* \"#utility.yul\":8569:8688   */\n    tag_597:\n        /* \"#utility.yul\":8727:8728   */\n      0x00\n        /* \"#utility.yul\":8752:8805   */\n      tag_599\n        /* \"#utility.yul\":8797:8804   */\n      dup5\n        /* \"#utility.yul\":8788:8794   */\n      dup3\n        /* \"#utility.yul\":8777:8786   */\n      dup6\n        /* \"#utility.yul\":8773:8795   */\n      add\n        /* \"#utility.yul\":8752:8805   */\n      tag_446\n      jump\t// in\n    tag_599:\n        /* \"#utility.yul\":8742:8805   */\n      swap2\n      pop\n        /* \"#utility.yul\":8698:8815   */\n      pop\n        /* \"#utility.yul\":8493:8822   */\n      swap3\n      swap2\n      pop\n      pop\n      jump\t// out\n        /* \"#utility.yul\":8828:9302   */\n    tag_102:\n        /* \"#utility.yul\":8896:8902   */\n      0x00\n        /* \"#utility.yul\":8904:8910   */\n      dup1\n        /* \"#utility.yul\":8953:8955   */\n      0x40\n        /* \"#utility.yul\":8941:8950   */\n      dup4\n        /* \"#utility.yul\":8932:8939   */\n      dup6\n        /* \"#utility.yul\":8928:8951   */\n      sub\n        /* \"#utility.yul\":8924:8956   */\n      slt\n        /* \"#utility.yul\":8921:9040   */\n      iszero\n      tag_601\n      jumpi\n        /* \"#utility.yul\":8959:9038   */\n      tag_602\n      tag_427\n      jump\t// in\n    tag_602:\n        /* \"#utility.yul\":8921:9040   */\n    tag_601:\n        /* \"#utility.yul\":9079:9080   */\n      0x00\n        /* \"#utility.yul\":9104:9157   */\n      tag_603\n        /* \"#utility.yul\":9149:9156   */\n      dup6\n        /* \"#utility.yul\":9140:9146   */\n      dup3\n        /* \"#utility.yul\":9129:9138   */\n      dup7\n        /* \"#utility.yul\":9125:9147   */\n      add\n        /* \"#utility.yul\":9104:9157   */\n      tag_441\n      jump\t// in\n    tag_603:\n        /* \"#utility.yul\":9094:9157   */\n      swap3\n      pop\n        /* \"#utility.yul\":9050:9167   */\n      pop\n        /* \"#utility.yul\":9206:9208   */\n      0x20\n        /* \"#utility.yul\":9232:9285   */\n      tag_604\n        /* \"#utility.yul\":9277:9284   */\n      dup6\n        /* \"#utility.yul\":9268:9274   */\n      dup3\n        /* \"#utility.yul\":9257:9266   */\n      dup7\n        /* \"#utility.yul\":9253:9275   */\n      add\n        /* \"#utility.yul\":9232:9285   */\n      tag_446\n      jump\t// in\n    tag_604:\n        /* \"#utility.yul\":9222:9285   */\n      swap2\n      pop\n        /* \"#utility.yul\":9177:9295   */\n      pop\n        /* \"#utility.yul\":8828:9302   */\n      swap3\n      pop\n      swap3\n      swap1\n      pop\n      jump\t// out\n        /* \"#utility.yul\":9308:9424   */\n    tag_457:\n        /* \"#utility.yul\":9378:9399   */\n      tag_606\n        /* \"#utility.yul\":9393:9398   */\n      dup2\n        /* \"#utility.yul\":9378:9399   */\n      tag_432\n      jump\t// in\n    tag_606:\n        /* \"#utility.yul\":9371:9376   */\n      dup2\n        /* \"#utility.yul\":9368:9400   */\n      eq\n        /* \"#utility.yul\":9358:9418   */\n      tag_607\n      jumpi\n        /* \"#utility.yul\":9414:9415   */\n      0x00\n        /* \"#utility.yul\":9411:9412   */\n      dup1\n        /* \"#utility.yul\":9404:9416   */\n      revert\n        /* \"#utility.yul\":9358:9418   */\n    tag_607:\n        /* \"#utility.yul\":9308:9424   */\n      pop\n      jump\t// out\n        /* \"#utility.yul\":9430:9563   */\n    tag_458:\n        /* \"#utility.yul\":9473:9478   */\n      0x00\n        /* \"#utility.yul\":9511:9517   */\n      dup2\n        /* \"#utility.yul\":9498:9518   */\n      calldataload\n        /* \"#utility.yul\":9489:9518   */\n      swap1\n      pop\n        /* \"#utility.yul\":9527:9557   */\n      tag_609\n        /* \"#utility.yul\":9551:9556   */\n      dup2\n        /* \"#utility.yul\":9527:9557   */\n      tag_457\n      jump\t// in\n    tag_609:\n        /* \"#utility.yul\":9430:9563   */\n      swap3\n      swap2\n      pop\n      pop\n      jump\t// out\n        /* \"#utility.yul\":9569:10037   */\n    tag_116:\n        /* \"#utility.yul\":9634:9640   */\n      0x00\n        /* \"#utility.yul\":9642:9648   */\n      dup1\n        /* \"#utility.yul\":9691:9693   */\n      0x40\n        /* \"#utility.yul\":9679:9688   */\n      dup4\n        /* \"#utility.yul\":9670:9677   */\n      dup6\n        /* \"#utility.yul\":9666:9689   */\n      sub\n        /* \"#utility.yul\":9662:9694   */\n      slt\n        /* \"#utility.yul\":9659:9778   */\n      iszero\n      tag_611\n      jumpi\n        /* \"#utility.yul\":9697:9776   */\n      tag_612\n      tag_427\n      jump\t// in\n    tag_612:\n        /* \"#utility.yul\":9659:9778   */\n    tag_611:\n        /* \"#utility.yul\":9817:9818   */\n      0x00\n        /* \"#utility.yul\":9842:9895   */\n      tag_613\n        /* \"#utility.yul\":9887:9894   */\n      dup6\n        /* \"#utility.yul\":9878:9884   */\n      dup3\n        /* \"#utility.yul\":9867:9876   */\n      dup7\n        /* \"#utility.yul\":9863:9885   */\n      add\n        /* \"#utility.yul\":9842:9895   */\n      tag_446\n      jump\t// in\n    tag_613:\n        /* \"#utility.yul\":9832:9895   */\n      swap3\n      pop\n        /* \"#utility.yul\":9788:9905   */\n      pop\n        /* \"#utility.yul\":9944:9946   */\n      0x20\n        /* \"#utility.yul\":9970:10020   */\n      tag_614\n        /* \"#utility.yul\":10012:10019   */\n      dup6\n        /* \"#utility.yul\":10003:10009   */\n      dup3\n        /* \"#utility.yul\":9992:10001   */\n      dup7\n        /* \"#utility.yul\":9988:10010   */\n      add\n        /* \"#utility.yul\":9970:10020   */\n      tag_458\n      jump\t// in\n    tag_614:\n        /* \"#utility.yul\":9960:10020   */\n      swap2\n      pop\n        /* \"#utility.yul\":9915:10030   */\n      pop\n        /* \"#utility.yul\":9569:10037   */\n      swap3\n      pop\n      swap3\n      swap1\n      pop\n      jump\t// out\n        /* \"#utility.yul\":10043:10350   */\n    tag_459:\n        /* \"#utility.yul\":10104:10108   */\n      0x00\n        /* \"#utility.yul\":10194:10212   */\n      0xffffffffffffffff\n        /* \"#utility.yul\":10186:10192   */\n      dup3\n        /* \"#utility.yul\":10183:10213   */\n      gt\n        /* \"#utility.yul\":10180:10236   */\n      iszero\n      tag_616\n      jumpi\n        /* \"#utility.yul\":10216:10234   */\n      tag_617\n      tag_449\n      jump\t// in\n    tag_617:\n        /* \"#utility.yul\":10180:10236   */\n    tag_616:\n        /* \"#utility.yul\":10254:10283   */\n      tag_618\n        /* \"#utility.yul\":10276:10282   */\n      dup3\n        /* \"#utility.yul\":10254:10283   */\n      tag_437\n      jump\t// in\n    tag_618:\n        /* \"#utility.yul\":10246:10283   */\n      swap1\n      pop\n        /* \"#utility.yul\":10338:10342   */\n      0x20\n        /* \"#utility.yul\":10332:10336   */\n      dup2\n        /* \"#utility.yul\":10328:10343   */\n      add\n        /* \"#utility.yul\":10320:10343   */\n      swap1\n      pop\n        /* \"#utility.yul\":10043:10350   */\n      swap2\n      swap1\n      pop\n      jump\t// out\n        /* \"#utility.yul\":10356:10779   */\n    tag_460:\n        /* \"#utility.yul\":10433:10438   */\n      0x00\n        /* \"#utility.yul\":10458:10523   */\n      tag_620\n        /* \"#utility.yul\":10474:10522   */\n      tag_621\n        /* \"#utility.yul\":10515:10521   */\n      dup5\n        /* \"#utility.yul\":10474:10522   */\n      tag_459\n      jump\t// in\n    tag_621:\n        /* \"#utility.yul\":10458:10523   */\n      tag_451\n      jump\t// in\n    tag_620:\n        /* \"#utility.yul\":10449:10523   */\n      swap1\n      pop\n        /* \"#utility.yul\":10546:10552   */\n      dup3\n        /* \"#utility.yul\":10539:10544   */\n      dup2\n        /* \"#utility.yul\":10532:10553   */\n      mstore\n        /* \"#utility.yul\":10584:10588   */\n      0x20\n        /* \"#utility.yul\":10577:10582   */\n      dup2\n        /* \"#utility.yul\":10573:10589   */\n      add\n        /* \"#utility.yul\":10622:10625   */\n      dup5\n        /* \"#utility.yul\":10613:10619   */\n      dup5\n        /* \"#utility.yul\":10608:10611   */\n      dup5\n        /* \"#utility.yul\":10604:10620   */\n      add\n        /* \"#utility.yul\":10601:10626   */\n      gt\n        /* \"#utility.yul\":10598:10710   */\n      iszero\n      tag_622\n      jumpi\n        /* \"#utility.yul\":10629:10708   */\n      tag_623\n      tag_448\n      jump\t// in\n    tag_623:\n        /* \"#utility.yul\":10598:10710   */\n    tag_622:\n        /* \"#utility.yul\":10719:10773   */\n      tag_624\n        /* \"#utility.yul\":10766:10772   */\n      dup5\n        /* \"#utility.yul\":10761:10764   */\n      dup3\n        /* \"#utility.yul\":10756:10759   */\n      dup6\n        /* \"#utility.yul\":10719:10773   */\n      tag_453\n      jump\t// in\n    tag_624:\n        /* \"#utility.yul\":10439:10779   */\n      pop\n        /* \"#utility.yul\":10356:10779   */\n      swap4\n      swap3\n      pop\n      pop\n      pop\n      jump\t// out\n        /* \"#utility.yul\":10798:11136   */\n    tag_461:\n        /* \"#utility.yul\":10853:10858   */\n      0x00\n        /* \"#utility.yul\":10902:10905   */\n      dup3\n        /* \"#utility.yul\":10895:10899   */\n      0x1f\n        /* \"#utility.yul\":10887:10893   */\n      dup4\n        /* \"#utility.yul\":10883:10900   */\n      add\n        /* \"#utility.yul\":10879:10906   */\n      slt\n        /* \"#utility.yul\":10869:10991   */\n      tag_626\n      jumpi\n        /* \"#utility.yul\":10910:10989   */\n      tag_627\n      tag_447\n      jump\t// in\n    tag_627:\n        /* \"#utility.yul\":10869:10991   */\n    tag_626:\n        /* \"#utility.yul\":11027:11033   */\n      dup2\n        /* \"#utility.yul\":11014:11034   */\n      calldataload\n        /* \"#utility.yul\":11052:11130   */\n      tag_628\n        /* \"#utility.yul\":11126:11129   */\n      dup5\n        /* \"#utility.yul\":11118:11124   */\n      dup3\n        /* \"#utility.yul\":11111:11115   */\n      0x20\n        /* \"#utility.yul\":11103:11109   */\n      dup7\n        /* \"#utility.yul\":11099:11116   */\n      add\n        /* \"#utility.yul\":11052:11130   */\n      tag_460\n      jump\t// in\n    tag_628:\n        /* \"#utility.yul\":11043:11130   */\n      swap2\n      pop\n        /* \"#utility.yul\":10859:11136   */\n      pop\n        /* \"#utility.yul\":10798:11136   */\n      swap3\n      swap2\n      pop\n      pop\n      jump\t// out\n        /* \"#utility.yul\":11142:12085   */\n    tag_124:\n        /* \"#utility.yul\":11237:11243   */\n      0x00\n        /* \"#utility.yul\":11245:11251   */\n      dup1\n        /* \"#utility.yul\":11253:11259   */\n      0x00\n        /* \"#utility.yul\":11261:11267   */\n      dup1\n        /* \"#utility.yul\":11310:11313   */\n      0x80\n        /* \"#utility.yul\":11298:11307   */\n      dup6\n        /* \"#utility.yul\":11289:11296   */\n      dup8\n        /* \"#utility.yul\":11285:11308   */\n      sub\n        /* \"#utility.yul\":11281:11314   */\n      slt\n        /* \"#utility.yul\":11278:11398   */\n      iszero\n      tag_630\n      jumpi\n        /* \"#utility.yul\":11317:11396   */\n      tag_631\n      tag_427\n      jump\t// in\n    tag_631:\n        /* \"#utility.yul\":11278:11398   */\n    tag_630:\n        /* \"#utility.yul\":11437:11438   */\n      0x00\n        /* \"#utility.yul\":11462:11515   */\n      tag_632\n        /* \"#utility.yul\":11507:11514   */\n      dup8\n        /* \"#utility.yul\":11498:11504   */\n      dup3\n        /* \"#utility.yul\":11487:11496   */\n      dup9\n        /* \"#utility.yul\":11483:11505   */\n      add\n        /* \"#utility.yul\":11462:11515   */\n      tag_446\n      jump\t// in\n    tag_632:\n        /* \"#utility.yul\":11452:11515   */\n      swap5\n      pop\n        /* \"#utility.yul\":11408:11525   */\n      pop\n        /* \"#utility.yul\":11564:11566   */\n      0x20\n        /* \"#utility.yul\":11590:11643   */\n      tag_633\n        /* \"#utility.yul\":11635:11642   */\n      dup8\n        /* \"#utility.yul\":11626:11632   */\n      dup3\n        /* \"#utility.yul\":11615:11624   */\n      dup9\n        /* \"#utility.yul\":11611:11633   */\n      add\n        /* \"#utility.yul\":11590:11643   */\n      tag_446\n      jump\t// in\n    tag_633:\n        /* \"#utility.yul\":11580:11643   */\n      swap4\n      pop\n        /* \"#utility.yul\":11535:11653   */\n      pop\n        /* \"#utility.yul\":11692:11694   */\n      0x40\n        /* \"#utility.yul\":11718:11771   */\n      tag_634\n        /* \"#utility.yul\":11763:11770   */\n      dup8\n        /* \"#utility.yul\":11754:11760   */\n      dup3\n        /* \"#utility.yul\":11743:11752   */\n      dup9\n        /* \"#utility.yul\":11739:11761   */\n      add\n        /* \"#utility.yul\":11718:11771   */\n      tag_441\n      jump\t// in\n    tag_634:\n        /* \"#utility.yul\":11708:11771   */\n      swap3\n      pop\n        /* \"#utility.yul\":11663:11781   */\n      pop\n        /* \"#utility.yul\":11848:11850   */\n      0x60\n        /* \"#utility.yul\":11837:11846   */\n      dup6\n        /* \"#utility.yul\":11833:11851   */\n      add\n        /* \"#utility.yul\":11820:11852   */\n      calldataload\n        /* \"#utility.yul\":11879:11897   */\n      0xffffffffffffffff\n        /* \"#utility.yul\":11871:11877   */\n      dup2\n        /* \"#utility.yul\":11868:11898   */\n      gt\n        /* \"#utility.yul\":11865:11982   */\n      iszero\n      tag_635\n      jumpi\n        /* \"#utility.yul\":11901:11980   */\n      tag_636\n      tag_428\n      jump\t// in\n    tag_636:\n        /* \"#utility.yul\":11865:11982   */\n    tag_635:\n        /* \"#utility.yul\":12006:12068   */\n      tag_637\n        /* \"#utility.yul\":12060:12067   */\n      dup8\n        /* \"#utility.yul\":12051:12057   */\n      dup3\n        /* \"#utility.yul\":12040:12049   */\n      dup9\n        /* \"#utility.yul\":12036:12058   */\n      add\n        /* \"#utility.yul\":12006:12068   */\n      tag_461\n      jump\t// in\n    tag_637:\n        /* \"#utility.yul\":11996:12068   */\n      swap2\n      pop\n        /* \"#utility.yul\":11791:12078   */\n      pop\n        /* \"#utility.yul\":11142:12085   */\n      swap3\n      swap6\n      swap2\n      swap5\n      pop\n      swap3\n      pop\n      jump\t// out\n        /* \"#utility.yul\":12091:12205   */\n    tag_462:\n        /* \"#utility.yul\":12158:12164   */\n      0x00\n        /* \"#utility.yul\":12192:12197   */\n      dup2\n        /* \"#utility.yul\":12186:12198   */\n      mload\n        /* \"#utility.yul\":12176:12198   */\n      swap1\n      pop\n        /* \"#utility.yul\":12091:12205   */\n      swap2\n      swap1\n      pop\n      jump\t// out\n        /* \"#utility.yul\":12211:12395   */\n    tag_463:\n        /* \"#utility.yul\":12310:12321   */\n      0x00\n        /* \"#utility.yul\":12344:12350   */\n      dup3\n        /* \"#utility.yul\":12339:12342   */\n      dup3\n        /* \"#utility.yul\":12332:12351   */\n      mstore\n        /* \"#utility.yul\":12384:12388   */\n      0x20\n        /* \"#utility.yul\":12379:12382   */\n      dup3\n        /* \"#utility.yul\":12375:12389   */\n      add\n        /* \"#utility.yul\":12360:12389   */\n      swap1\n      pop\n        /* \"#utility.yul\":12211:12395   */\n      swap3\n      swap2\n      pop\n      pop\n      jump\t// out\n        /* \"#utility.yul\":12401:12533   */\n    tag_464:\n        /* \"#utility.yul\":12468:12472   */\n      0x00\n        /* \"#utility.yul\":12491:12494   */\n      dup2\n        /* \"#utility.yul\":12483:12494   */\n      swap1\n      pop\n        /* \"#utility.yul\":12521:12525   */\n      0x20\n        /* \"#utility.yul\":12516:12519   */\n      dup3\n        /* \"#utility.yul\":12512:12526   */\n      add\n        /* \"#utility.yul\":12504:12526   */\n      swap1\n      pop\n        /* \"#utility.yul\":12401:12533   */\n      swap2\n      swap1\n      pop\n      jump\t// out\n        /* \"#utility.yul\":12539:12647   */\n    tag_465:\n        /* \"#utility.yul\":12616:12640   */\n      tag_642\n        /* \"#utility.yul\":12634:12639   */\n      dup2\n        /* \"#utility.yul\":12616:12640   */\n      tag_439\n      jump\t// in\n    tag_642:\n        /* \"#utility.yul\":12611:12614   */\n      dup3\n        /* \"#utility.yul\":12604:12641   */\n      mstore\n        /* \"#utility.yul\":12539:12647   */\n      pop\n      pop\n      jump\t// out\n        /* \"#utility.yul\":12653:12832   */\n    tag_466:\n        /* \"#utility.yul\":12722:12732   */\n      0x00\n        /* \"#utility.yul\":12743:12789   */\n      tag_644\n        /* \"#utility.yul\":12785:12788   */\n      dup4\n        /* \"#utility.yul\":12777:12783   */\n      dup4\n        /* \"#utility.yul\":12743:12789   */\n      tag_465\n      jump\t// in\n    tag_644:\n        /* \"#utility.yul\":12821:12825   */\n      0x20\n        /* \"#utility.yul\":12816:12819   */\n      dup4\n        /* \"#utility.yul\":12812:12826   */\n      add\n        /* \"#utility.yul\":12798:12826   */\n      swap1\n      pop\n        /* \"#utility.yul\":12653:12832   */\n      swap3\n      swap2\n      pop\n      pop\n      jump\t// out\n        /* \"#utility.yul\":12838:12951   */\n    tag_467:\n        /* \"#utility.yul\":12908:12912   */\n      0x00\n        /* \"#utility.yul\":12940:12944   */\n      0x20\n        /* \"#utility.yul\":12935:12938   */\n      dup3\n        /* \"#utility.yul\":12931:12945   */\n      add\n        /* \"#utility.yul\":12923:12945   */\n      swap1\n      pop\n        /* \"#utility.yul\":12838:12951   */\n      swap2\n      swap1\n      pop\n      jump\t// out\n        /* \"#utility.yul\":12987:13719   */\n    tag_468:\n        /* \"#utility.yul\":13106:13109   */\n      0x00\n        /* \"#utility.yul\":13135:13189   */\n      tag_647\n        /* \"#utility.yul\":13183:13188   */\n      dup3\n        /* \"#utility.yul\":13135:13189   */\n      tag_462\n      jump\t// in\n    tag_647:\n        /* \"#utility.yul\":13205:13291   */\n      tag_648\n        /* \"#utility.yul\":13284:13290   */\n      dup2\n        /* \"#utility.yul\":13279:13282   */\n      dup6\n        /* \"#utility.yul\":13205:13291   */\n      tag_463\n      jump\t// in\n    tag_648:\n        /* \"#utility.yul\":13198:13291   */\n      swap4\n      pop\n        /* \"#utility.yul\":13315:13371   */\n      tag_649\n        /* \"#utility.yul\":13365:13370   */\n      dup4\n        /* \"#utility.yul\":13315:13371   */\n      tag_464\n      jump\t// in\n    tag_649:\n        /* \"#utility.yul\":13394:13401   */\n      dup1\n        /* \"#utility.yul\":13425:13426   */\n      0x00\n        /* \"#utility.yul\":13410:13694   */\n    tag_650:\n        /* \"#utility.yul\":13435:13441   */\n      dup4\n        /* \"#utility.yul\":13432:13433   */\n      dup2\n        /* \"#utility.yul\":13429:13442   */\n      lt\n        /* \"#utility.yul\":13410:13694   */\n      iszero\n      tag_652\n      jumpi\n        /* \"#utility.yul\":13511:13517   */\n      dup2\n        /* \"#utility.yul\":13505:13518   */\n      mload\n        /* \"#utility.yul\":13538:13601   */\n      tag_653\n        /* \"#utility.yul\":13597:13600   */\n      dup9\n        /* \"#utility.yul\":13582:13595   */\n      dup3\n        /* \"#utility.yul\":13538:13601   */\n      tag_466\n      jump\t// in\n    tag_653:\n        /* \"#utility.yul\":13531:13601   */\n      swap8\n      pop\n        /* \"#utility.yul\":13624:13684   */\n      tag_654\n        /* \"#utility.yul\":13677:13683   */\n      dup4\n        /* \"#utility.yul\":13624:13684   */\n      tag_467\n      jump\t// in\n    tag_654:\n        /* \"#utility.yul\":13614:13684   */\n      swap3\n      pop\n        /* \"#utility.yul\":13470:13694   */\n      pop\n        /* \"#utility.yul\":13457:13458   */\n      0x01\n        /* \"#utility.yul\":13454:13455   */\n      dup2\n        /* \"#utility.yul\":13450:13459   */\n      add\n        /* \"#utility.yul\":13445:13459   */\n      swap1\n      pop\n        /* \"#utility.yul\":13410:13694   */\n      jump(tag_650)\n    tag_652:\n        /* \"#utility.yul\":13414:13428   */\n      pop\n        /* \"#utility.yul\":13710:13713   */\n      dup6\n        /* \"#utility.yul\":13703:13713   */\n      swap4\n      pop\n        /* \"#utility.yul\":13111:13719   */\n      pop\n      pop\n      pop\n        /* \"#utility.yul\":12987:13719   */\n      swap3\n      swap2\n      pop\n      pop\n      jump\t// out\n        /* \"#utility.yul\":13725:14098   */\n    tag_131:\n        /* \"#utility.yul\":13868:13872   */\n      0x00\n        /* \"#utility.yul\":13906:13908   */\n      0x20\n        /* \"#utility.yul\":13895:13904   */\n      dup3\n        /* \"#utility.yul\":13891:13909   */\n      add\n        /* \"#utility.yul\":13883:13909   */\n      swap1\n      pop\n        /* \"#utility.yul\":13955:13964   */\n      dup2\n        /* \"#utility.yul\":13949:13953   */\n      dup2\n        /* \"#utility.yul\":13945:13965   */\n      sub\n        /* \"#utility.yul\":13941:13942   */\n      0x00\n        /* \"#utility.yul\":13930:13939   */\n      dup4\n        /* \"#utility.yul\":13926:13943   */\n      add\n        /* \"#utility.yul\":13919:13966   */\n      mstore\n        /* \"#utility.yul\":13983:14091   */\n      tag_656\n        /* \"#utility.yul\":14086:14090   */\n      dup2\n        /* \"#utility.yul\":14077:14083   */\n      dup5\n        /* \"#utility.yul\":13983:14091   */\n      tag_468\n      jump\t// in\n    tag_656:\n        /* \"#utility.yul\":13975:14091   */\n      swap1\n      pop\n        /* \"#utility.yul\":13725:14098   */\n      swap3\n      swap2\n      pop\n      pop\n      jump\t// out\n        /* \"#utility.yul\":14104:14578   */\n    tag_144:\n        /* \"#utility.yul\":14172:14178   */\n      0x00\n        /* \"#utility.yul\":14180:14186   */\n      dup1\n        /* \"#utility.yul\":14229:14231   */\n      0x40\n        /* \"#utility.yul\":14217:14226   */\n      dup4\n        /* \"#utility.yul\":14208:14215   */\n      dup6\n        /* \"#utility.yul\":14204:14227   */\n      sub\n        /* \"#utility.yul\":14200:14232   */\n      slt\n        /* \"#utility.yul\":14197:14316   */\n      iszero\n      tag_658\n      jumpi\n        /* \"#utility.yul\":14235:14314   */\n      tag_659\n      tag_427\n      jump\t// in\n    tag_659:\n        /* \"#utility.yul\":14197:14316   */\n    tag_658:\n        /* \"#utility.yul\":14355:14356   */\n      0x00\n        /* \"#utility.yul\":14380:14433   */\n      tag_660\n        /* \"#utility.yul\":14425:14432   */\n      dup6\n        /* \"#utility.yul\":14416:14422   */\n      dup3\n        /* \"#utility.yul\":14405:14414   */\n      dup7\n        /* \"#utility.yul\":14401:14423   */\n      add\n        /* \"#utility.yul\":14380:14433   */\n      tag_446\n      jump\t// in\n    tag_660:\n        /* \"#utility.yul\":14370:14433   */\n      swap3\n      pop\n        /* \"#utility.yul\":14326:14443   */\n      pop\n        /* \"#utility.yul\":14482:14484   */\n      0x20\n        /* \"#utility.yul\":14508:14561   */\n      tag_661\n        /* \"#utility.yul\":14553:14560   */\n      dup6\n        /* \"#utility.yul\":14544:14550   */\n      dup3\n        /* \"#utility.yul\":14533:14542   */\n      dup7\n        /* \"#utility.yul\":14529:14551   */\n      add\n        /* \"#utility.yul\":14508:14561   */\n      tag_446\n      jump\t// in\n    tag_661:\n        /* \"#utility.yul\":14498:14561   */\n      swap2\n      pop\n        /* \"#utility.yul\":14453:14571   */\n      pop\n        /* \"#utility.yul\":14104:14578   */\n      swap3\n      pop\n      swap3\n      swap1\n      pop\n      jump\t// out\n        /* \"#utility.yul\":14584:14764   */\n    tag_469:\n        /* \"#utility.yul\":14632:14709   */\n      0x4e487b7100000000000000000000000000000000000000000000000000000000\n        /* \"#utility.yul\":14629:14630   */\n      0x00\n        /* \"#utility.yul\":14622:14710   */\n      mstore\n        /* \"#utility.yul\":14729:14733   */\n      0x22\n        /* \"#utility.yul\":14726:14727   */\n      0x04\n        /* \"#utility.yul\":14719:14734   */\n      mstore\n        /* \"#utility.yul\":14753:14757   */\n      0x24\n        /* \"#utility.yul\":14750:14751   */\n      0x00\n        /* \"#utility.yul\":14743:14758   */\n      revert\n        /* \"#utility.yul\":14770:15090   */\n    tag_160:\n        /* \"#utility.yul\":14814:14820   */\n      0x00\n        /* \"#utility.yul\":14851:14852   */\n      0x02\n        /* \"#utility.yul\":14845:14849   */\n      dup3\n        /* \"#utility.yul\":14841:14853   */\n      div\n        /* \"#utility.yul\":14831:14853   */\n      swap1\n      pop\n        /* \"#utility.yul\":14898:14899   */\n      0x01\n        /* \"#utility.yul\":14892:14896   */\n      dup3\n        /* \"#utility.yul\":14888:14900   */\n      and\n        /* \"#utility.yul\":14919:14937   */\n      dup1\n        /* \"#utility.yul\":14909:14990   */\n      tag_664\n      jumpi\n        /* \"#utility.yul\":14975:14979   */\n      0x7f\n        /* \"#utility.yul\":14967:14973   */\n      dup3\n        /* \"#utility.yul\":14963:14980   */\n      and\n        /* \"#utility.yul\":14953:14980   */\n      swap2\n      pop\n        /* \"#utility.yul\":14909:14990   */\n    tag_664:\n        /* \"#utility.yul\":15037:15039   */\n      0x20\n        /* \"#utility.yul\":15029:15035   */\n      dup3\n        /* \"#utility.yul\":15026:15040   */\n      lt\n        /* \"#utility.yul\":15006:15024   */\n      dup2\n        /* \"#utility.yul\":15003:15041   */\n      sub\n        /* \"#utility.yul\":15000:15084   */\n      tag_665\n      jumpi\n        /* \"#utility.yul\":15056:15074   */\n      tag_666\n      tag_469\n      jump\t// in\n    tag_666:\n        /* \"#utility.yul\":15000:15084   */\n    tag_665:\n        /* \"#utility.yul\":14821:15090   */\n      pop\n        /* \"#utility.yul\":14770:15090   */\n      swap2\n      swap1\n      pop\n      jump\t// out\n        /* \"#utility.yul\":15096:15237   */\n    tag_470:\n        /* \"#utility.yul\":15145:15149   */\n      0x00\n        /* \"#utility.yul\":15168:15171   */\n      dup2\n        /* \"#utility.yul\":15160:15171   */\n      swap1\n      pop\n        /* \"#utility.yul\":15191:15194   */\n      dup2\n        /* \"#utility.yul\":15188:15189   */\n      0x00\n        /* \"#utility.yul\":15181:15195   */\n      mstore\n        /* \"#utility.yul\":15225:15229   */\n      0x20\n        /* \"#utility.yul\":15222:15223   */\n      0x00\n        /* \"#utility.yul\":15212:15230   */\n      keccak256\n        /* \"#utility.yul\":15204:15230   */\n      swap1\n      pop\n        /* \"#utility.yul\":15096:15237   */\n      swap2\n      swap1\n      pop\n      jump\t// out\n        /* \"#utility.yul\":15243:15336   */\n    tag_471:\n        /* \"#utility.yul\":15280:15286   */\n      0x00\n        /* \"#utility.yul\":15327:15329   */\n      0x20\n        /* \"#utility.yul\":15322:15324   */\n      0x1f\n        /* \"#utility.yul\":15315:15320   */\n      dup4\n        /* \"#utility.yul\":15311:15325   */\n      add\n        /* \"#utility.yul\":15307:15330   */\n      div\n        /* \"#utility.yul\":15297:15330   */\n      swap1\n      pop\n        /* \"#utility.yul\":15243:15336   */\n      swap2\n      swap1\n      pop\n      jump\t// out\n        /* \"#utility.yul\":15342:15449   */\n    tag_472:\n        /* \"#utility.yul\":15386:15394   */\n      0x00\n        /* \"#utility.yul\":15436:15441   */\n      dup3\n        /* \"#utility.yul\":15430:15434   */\n      dup3\n        /* \"#utility.yul\":15426:15442   */\n      shl\n        /* \"#utility.yul\":15405:15442   */\n      swap1\n      pop\n        /* \"#utility.yul\":15342:15449   */\n      swap3\n      swap2\n      pop\n      pop\n      jump\t// out\n        /* \"#utility.yul\":15455:15848   */\n    tag_473:\n        /* \"#utility.yul\":15524:15530   */\n      0x00\n        /* \"#utility.yul\":15574:15575   */\n      0x08\n        /* \"#utility.yul\":15562:15572   */\n      dup4\n        /* \"#utility.yul\":15558:15576   */\n      mul\n        /* \"#utility.yul\":15597:15694   */\n      tag_671\n        /* \"#utility.yul\":15627:15693   */\n      0xffffffffffffffffffffffffffffffffffffffffffffffffffffffffffffffff\n        /* \"#utility.yul\":15616:15625   */\n      dup3\n        /* \"#utility.yul\":15597:15694   */\n      tag_472\n      jump\t// in\n    tag_671:\n        /* \"#utility.yul\":15715:15754   */\n      tag_672\n        /* \"#utility.yul\":15745:15753   */\n      dup7\n        /* \"#utility.yul\":15734:15743   */\n      dup4\n        /* \"#utility.yul\":15715:15754   */\n      tag_472\n      jump\t// in\n    tag_672:\n        /* \"#utility.yul\":15703:15754   */\n      swap6\n      pop\n        /* \"#utility.yul\":15787:15791   */\n      dup1\n        /* \"#utility.yul\":15783:15792   */\n      not\n        /* \"#utility.yul\":15776:15781   */\n      dup5\n        /* \"#utility.yul\":15772:15793   */\n      and\n        /* \"#utility.yul\":15763:15793   */\n      swap4\n      pop\n        /* \"#utility.yul\":15836:15840   */\n      dup1\n        /* \"#utility.yul\":15826:15834   */\n      dup7\n        /* \"#utility.yul\":15822:15841   */\n      and\n        /* \"#utility.yul\":15815:15820   */\n      dup5\n        /* \"#utility.yul\":15812:15842   */\n      or\n        /* \"#utility.yul\":15802:15842   */\n      swap3\n      pop\n        /* \"#utility.yul\":15531:15848   */\n      pop\n      pop\n        /* \"#utility.yul\":15455:15848   */\n      swap4\n      swap3\n      pop\n      pop\n      pop\n      jump\t// out\n        /* \"#utility.yul\":15854:15914   */\n    tag_474:\n        /* \"#utility.yul\":15882:15885   */\n      0x00\n        /* \"#utility.yul\":15903:15908   */\n      dup2\n        /* \"#utility.yul\":15896:15908   */\n      swap1\n      pop\n        /* \"#utility.yul\":15854:15914   */\n      swap2\n      swap1\n      pop\n      jump\t// out\n        /* \"#utility.yul\":15920:16062   */\n    tag_475:\n        /* \"#utility.yul\":15970:15979   */\n      0x00\n        /* \"#utility.yul\":16003:16056   */\n      tag_675\n        /* \"#utility.yul\":16021:16055   */\n      tag_676\n        /* \"#utility.yul\":16030:16054   */\n      tag_677\n        /* \"#utility.yul\":16048:16053   */\n      dup5\n        /* \"#utility.yul\":16030:16054   */\n      tag_439\n      jump\t// in\n    tag_677:\n        /* \"#utility.yul\":16021:16055   */\n      tag_474\n      jump\t// in\n    tag_676:\n        /* \"#utility.yul\":16003:16056   */\n      tag_439\n      jump\t// in\n    tag_675:\n        /* \"#utility.yul\":15990:16056   */\n      swap1\n      pop\n        /* \"#utility.yul\":15920:16062   */\n      swap2\n      swap1\n      pop\n      jump\t// out\n        /* \"#utility.yul\":16068:16143   */\n    tag_476:\n        /* \"#utility.yul\":16111:16114   */\n      0x00\n        /* \"#utility.yul\":16132:16137   */\n      dup2\n        /* \"#utility.yul\":16125:16137   */\n      swap1\n      pop\n        /* \"#utility.yul\":16068:16143   */\n      swap2\n      swap1\n      pop\n      jump\t// out\n        /* \"#utility.yul\":16149:16418   */\n    tag_477:\n        /* \"#utility.yul\":16259:16298   */\n      tag_680\n        /* \"#utility.yul\":16290:16297   */\n      dup4\n        /* \"#utility.yul\":16259:16298   */\n      tag_475\n      jump\t// in\n    tag_680:\n        /* \"#utility.yul\":16320:16411   */\n      tag_681\n        /* \"#utility.yul\":16369:16410   */\n      tag_682\n        /* \"#utility.yul\":16393:16409   */\n      dup3\n        /* \"#utility.yul\":16369:16410   */\n      tag_476\n      jump\t// in\n    tag_682:\n        /* \"#utility.yul\":16361:16367   */\n      dup5\n        /* \"#utility.yul\":16354:16358   */\n      dup5\n        /* \"#utility.yul\":16348:16359   */\n      sload\n        /* \"#utility.yul\":16320:16411   */\n      tag_473\n      jump\t// in\n    tag_681:\n        /* \"#utility.yul\":16314:16318   */\n      dup3\n        /* \"#utility.yul\":16307:16412   */\n      sstore\n        /* \"#utility.yul\":16225:16418   */\n      pop\n        /* \"#utility.yul\":16149:16418   */\n      pop\n      pop\n      pop\n      jump\t// out\n        /* \"#utility.yul\":16424:16497   */\n    tag_478:\n        /* \"#utility.yul\":16469:16472   */\n      0x00\n        /* \"#utility.yul\":16424:16497   */\n      swap1\n      jump\t// out\n        /* \"#utility.yul\":16503:16692   */\n    tag_479:\n        /* \"#utility.yul\":16580:16612   */\n      tag_685\n      tag_478\n      jump\t// in\n    tag_685:\n        /* \"#utility.yul\":16621:16686   */\n      tag_686\n        /* \"#utility.yul\":16679:16685   */\n      dup2\n        /* \"#utility.yul\":16671:16677   */\n      dup5\n        /* \"#utility.yul\":16665:16669   */\n      dup5\n        /* \"#utility.yul\":16621:16686   */\n      tag_477\n      jump\t// in\n    tag_686:\n        /* \"#utility.yul\":16556:16692   */\n      pop\n        /* \"#utility.yul\":16503:16692   */\n      pop\n      pop\n      jump\t// out\n        /* \"#utility.yul\":16698:16884   */\n    tag_480:\n        /* \"#utility.yul\":16758:16878   */\n    tag_688:\n        /* \"#utility.yul\":16775:16778   */\n      dup2\n        /* \"#utility.yul\":16768:16773   */\n      dup2\n        /* \"#utility.yul\":16765:16779   */\n      lt\n        /* \"#utility.yul\":16758:16878   */\n      iszero\n      tag_690\n      jumpi\n        /* \"#utility.yul\":16829:16868   */\n      tag_691\n        /* \"#utility.yul\":16866:16867   */\n      0x00\n        /* \"#utility.yul\":16859:16864   */\n      dup3\n        /* \"#utility.yul\":16829:16868   */\n      tag_479\n      jump\t// in\n    tag_691:\n        /* \"#utility.yul\":16802:16803   */\n      0x01\n        /* \"#utility.yul\":16795:16800   */\n      dup2\n        /* \"#utility.yul\":16791:16804   */\n      add\n        /* \"#utility.yul\":16782:16804   */\n      swap1\n      pop\n        /* \"#utility.yul\":16758:16878   */\n      jump(tag_688)\n    tag_690:\n        /* \"#utility.yul\":16698:16884   */\n      pop\n      pop\n      jump\t// out\n        /* \"#utility.yul\":16890:17433   */\n    tag_481:\n        /* \"#utility.yul\":16991:16993   */\n      0x1f\n        /* \"#utility.yul\":16986:16989   */\n      dup3\n        /* \"#utility.yul\":16983:16994   */\n      gt\n        /* \"#utility.yul\":16980:17426   */\n      iszero\n      tag_693\n      jumpi\n        /* \"#utility.yul\":17025:17063   */\n      tag_694\n        /* \"#utility.yul\":17057:17062   */\n      dup2\n        /* \"#utility.yul\":17025:17063   */\n      tag_470\n      jump\t// in\n    tag_694:\n        /* \"#utility.yul\":17109:17138   */\n      tag_695\n        /* \"#utility.yul\":17127:17137   */\n      dup5\n        /* \"#utility.yul\":17109:17138   */\n      tag_471\n      jump\t// in\n    tag_695:\n        /* \"#utility.yul\":17099:17107   */\n      dup2\n        /* \"#utility.yul\":17095:17139   */\n      add\n        /* \"#utility.yul\":17292:17294   */\n      0x20\n        /* \"#utility.yul\":17280:17290   */\n      dup6\n        /* \"#utility.yul\":17277:17295   */\n      lt\n        /* \"#utility.yul\":17274:17323   */\n      iszero\n      tag_696\n      jumpi\n        /* \"#utility.yul\":17313:17321   */\n      dup2\n        /* \"#utility.yul\":17298:17321   */\n      swap1\n      pop\n        /* \"#utility.yul\":17274:17323   */\n    tag_696:\n        /* \"#utility.yul\":17336:17416   */\n      tag_697\n        /* \"#utility.yul\":17392:17414   */\n      tag_698\n        /* \"#utility.yul\":17410:17413   */\n      dup6\n        /* \"#utility.yul\":17392:17414   */\n      tag_471\n      jump\t// in\n    tag_698:\n        /* \"#utility.yul\":17382:17390   */\n      dup4\n        /* \"#utility.yul\":17378:17415   */\n      add\n        /* \"#utility.yul\":17365:17376   */\n      dup3\n        /* \"#utility.yul\":17336:17416   */\n      tag_480\n      jump\t// in\n    tag_697:\n        /* \"#utility.yul\":16995:17426   */\n      pop\n      pop\n        /* \"#utility.yul\":16980:17426   */\n    tag_693:\n        /* \"#utility.yul\":16890:17433   */\n      pop\n      pop\n      pop\n      jump\t// out\n        /* \"#utility.yul\":17439:17556   */\n    tag_482:\n        /* \"#utility.yul\":17493:17501   */\n      0x00\n        /* \"#utility.yul\":17543:17548   */\n      dup3\n        /* \"#utility.yul\":17537:17541   */\n      dup3\n        /* \"#utility.yul\":17533:17549   */\n      shr\n        /* \"#utility.yul\":17512:17549   */\n      swap1\n      pop\n        /* \"#utility.yul\":17439:17556   */\n      swap3\n      swap2\n      pop\n      pop\n      jump\t// out\n        /* \"#utility.yul\":17562:17731   */\n    tag_483:\n        /* \"#utility.yul\":17606:17612   */\n      0x00\n        /* \"#utility.yul\":17639:17690   */\n      tag_701\n        /* \"#utility.yul\":17687:17688   */\n      0x00\n        /* \"#utility.yul\":17683:17689   */\n      not\n        /* \"#utility.yul\":17675:17680   */\n      dup5\n        /* \"#utility.yul\":17672:17673   */\n      0x08\n        /* \"#utility.yul\":17668:17681   */\n      mul\n        /* \"#utility.yul\":17639:17690   */\n      tag_482\n      jump\t// in\n    tag_701:\n        /* \"#utility.yul\":17635:17691   */\n      not\n        /* \"#utility.yul\":17720:17724   */\n      dup1\n        /* \"#utility.yul\":17714:17718   */\n      dup4\n        /* \"#utility.yul\":17710:17725   */\n      and\n        /* \"#utility.yul\":17700:17725   */\n      swap2\n      pop\n        /* \"#utility.yul\":17613:17731   */\n      pop\n        /* \"#utility.yul\":17562:17731   */\n      swap3\n      swap2\n      pop\n      pop\n      jump\t// out\n        /* \"#utility.yul\":17736:18031   */\n    tag_484:\n        /* \"#utility.yul\":17812:17816   */\n      0x00\n        /* \"#utility.yul\":17958:17987   */\n      tag_703\n        /* \"#utility.yul\":17983:17986   */\n      dup4\n        /* \"#utility.yul\":17977:17981   */\n      dup4\n        /* \"#utility.yul\":17958:17987   */\n      tag_483\n      jump\t// in\n    tag_703:\n        /* \"#utility.yul\":17950:17987   */\n      swap2\n      pop\n        /* \"#utility.yul\":18020:18023   */\n      dup3\n        /* \"#utility.yul\":18017:18018   */\n      0x02\n        /* \"#utility.yul\":18013:18024   */\n      mul\n        /* \"#utility.yul\":18007:18011   */\n      dup3\n        /* \"#utility.yul\":18004:18025   */\n      or\n        /* \"#utility.yul\":17996:18025   */\n      swap1\n      pop\n        /* \"#utility.yul\":17736:18031   */\n      swap3\n      swap2\n      pop\n      pop\n      jump\t// out\n        /* \"#utility.yul\":18036:19431   */\n    tag_179:\n        /* \"#utility.yul\":18153:18190   */\n      tag_705\n        /* \"#utility.yul\":18186:18189   */\n      dup3\n        /* \"#utility.yul\":18153:18190   */\n      tag_434\n      jump\t// in\n    tag_705:\n        /* \"#utility.yul\":18255:18273   */\n      0xffffffffffffffff\n        /* \"#utility.yul\":18247:18253   */\n      dup2\n        /* \"#utility.yul\":18244:18274   */\n      gt\n        /* \"#utility.yul\":18241:18297   */\n      iszero\n      tag_706\n      jumpi\n        /* \"#utility.yul\":18277:18295   */\n      tag_707\n      tag_449\n      jump\t// in\n    tag_707:\n        /* \"#utility.yul\":18241:18297   */\n    tag_706:\n        /* \"#utility.yul\":18321:18359   */\n      tag_708\n        /* \"#utility.yul\":18353:18357   */\n      dup3\n        /* \"#utility.yul\":18347:18358   */\n      sload\n        /* \"#utility.yul\":18321:18359   */\n      tag_160\n      jump\t// in\n    tag_708:\n        /* \"#utility.yul\":18406:18473   */\n      tag_709\n        /* \"#utility.yul\":18466:18472   */\n      dup3\n        /* \"#utility.yul\":18458:18464   */\n      dup3\n        /* \"#utility.yul\":18452:18456   */\n      dup6\n        /* \"#utility.yul\":18406:18473   */\n      tag_481\n      jump\t// in\n    tag_709:\n        /* \"#utility.yul\":18500:18501   */\n      0x00\n        /* \"#utility.yul\":18524:18528   */\n      0x20\n        /* \"#utility.yul\":18511:18528   */\n      swap1\n      pop\n        /* \"#utility.yul\":18556:18558   */\n      0x1f\n        /* \"#utility.yul\":18548:18554   */\n      dup4\n        /* \"#utility.yul\":18545:18559   */\n      gt\n        /* \"#utility.yul\":18573:18574   */\n      0x01\n        /* \"#utility.yul\":18568:19186   */\n      dup2\n      eq\n      tag_711\n      jumpi\n        /* \"#utility.yul\":19230:19231   */\n      0x00\n        /* \"#utility.yul\":19247:19253   */\n      dup5\n        /* \"#utility.yul\":19244:19321   */\n      iszero\n      tag_712\n      jumpi\n        /* \"#utility.yul\":19296:19305   */\n      dup3\n        /* \"#utility.yul\":19291:19294   */\n      dup8\n        /* \"#utility.yul\":19287:19306   */\n      add\n        /* \"#utility.yul\":19281:19307   */\n      mload\n        /* \"#utility.yul\":19272:19307   */\n      swap1\n      pop\n        /* \"#utility.yul\":19244:19321   */\n    tag_712:\n        /* \"#utility.yul\":19347:19414   */\n      tag_713\n        /* \"#utility.yul\":19407:19413   */\n      dup6\n        /* \"#utility.yul\":19400:19405   */\n      dup3\n        /* \"#utility.yul\":19347:19414   */\n      tag_484\n      jump\t// in\n    tag_713:\n        /* \"#utility.yul\":19341:19345   */\n      dup7\n        /* \"#utility.yul\":19334:19415   */\n      sstore\n        /* \"#utility.yul\":19203:19425   */\n      pop\n        /* \"#utility.yul\":18538:19425   */\n      jump(tag_710)\n        /* \"#utility.yul\":18568:19186   */\n    tag_711:\n        /* \"#utility.yul\":18620:18624   */\n      0x1f\n        /* \"#utility.yul\":18616:18625   */\n      not\n        /* \"#utility.yul\":18608:18614   */\n      dup5\n        /* \"#utility.yul\":18604:18626   */\n      and\n        /* \"#utility.yul\":18654:18691   */\n      tag_714\n        /* \"#utility.yul\":18686:18690   */\n      dup7\n        /* \"#utility.yul\":18654:18691   */\n      tag_470\n      jump\t// in\n    tag_714:\n        /* \"#utility.yul\":18713:18714   */\n      0x00\n        /* \"#utility.yul\":18727:18935   */\n    tag_715:\n        /* \"#utility.yul\":18741:18748   */\n      dup3\n        /* \"#utility.yul\":18738:18739   */\n      dup2\n        /* \"#utility.yul\":18735:18749   */\n      lt\n        /* \"#utility.yul\":18727:18935   */\n      iszero\n      tag_717\n      jumpi\n        /* \"#utility.yul\":18820:18829   */\n      dup5\n        /* \"#utility.yul\":18815:18818   */\n      dup10\n        /* \"#utility.yul\":18811:18830   */\n      add\n        /* \"#utility.yul\":18805:18831   */\n      mload\n        /* \"#utility.yul\":18797:18803   */\n      dup3\n        /* \"#utility.yul\":18790:18832   */\n      sstore\n        /* \"#utility.yul\":18871:18872   */\n      0x01\n        /* \"#utility.yul\":18863:18869   */\n      dup3\n        /* \"#utility.yul\":18859:18873   */\n      add\n        /* \"#utility.yul\":18849:18873   */\n      swap2\n      pop\n        /* \"#utility.yul\":18918:18920   */\n      0x20\n        /* \"#utility.yul\":18907:18916   */\n      dup6\n        /* \"#utility.yul\":18903:18921   */\n      add\n        /* \"#utility.yul\":18890:18921   */\n      swap5\n      pop\n        /* \"#utility.yul\":18764:18768   */\n      0x20\n        /* \"#utility.yul\":18761:18762   */\n      dup2\n        /* \"#utility.yul\":18757:18769   */\n      add\n        /* \"#utility.yul\":18752:18769   */\n      swap1\n      pop\n        /* \"#utility.yul\":18727:18935   */\n      jump(tag_715)\n    tag_717:\n        /* \"#utility.yul\":18963:18969   */\n      dup7\n        /* \"#utility.yul\":18954:18961   */\n      dup4\n        /* \"#utility.yul\":18951:18970   */\n      lt\n        /* \"#utility.yul\":18948:19127   */\n      iszero\n      tag_718\n      jumpi\n        /* \"#utility.yul\":19021:19030   */\n      dup5\n        /* \"#utility.yul\":19016:19019   */\n      dup10\n        /* \"#utility.yul\":19012:19031   */\n      add\n        /* \"#utility.yul\":19006:19032   */\n      mload\n        /* \"#utility.yul\":19064:19112   */\n      tag_719\n        /* \"#utility.yul\":19106:19110   */\n      0x1f\n        /* \"#utility.yul\":19098:19104   */\n      dup10\n        /* \"#utility.yul\":19094:19111   */\n      and\n        /* \"#utility.yul\":19083:19092   */\n      dup3\n        /* \"#utility.yul\":19064:19112   */\n      tag_483\n      jump\t// in\n    tag_719:\n        /* \"#utility.yul\":19056:19062   */\n      dup4\n        /* \"#utility.yul\":19049:19113   */\n      sstore\n        /* \"#utility.yul\":18971:19127   */\n      pop\n        /* \"#utility.yul\":18948:19127   */\n    tag_718:\n        /* \"#utility.yul\":19173:19174   */\n      0x01\n        /* \"#utility.yul\":19169:19170   */\n      0x02\n        /* \"#utility.yul\":19161:19167   */\n      dup9\n        /* \"#utility.yul\":19157:19171   */\n      mul\n        /* \"#utility.yul\":19153:19175   */\n      add\n        /* \"#utility.yul\":19147:19151   */\n      dup9\n        /* \"#utility.yul\":19140:19176   */\n      sstore\n        /* \"#utility.yul\":18575:19186   */\n      pop\n      pop\n      pop\n        /* \"#utility.yul\":18538:19425   */\n    tag_710:\n      pop\n        /* \"#utility.yul\":18128:19431   */\n      pop\n      pop\n      pop\n        /* \"#utility.yul\":18036:19431   */\n      pop\n      pop\n      jump\t// out\n        /* \"#utility.yul\":19437:19616   */\n    tag_485:\n        /* \"#utility.yul\":19577:19608   */\n      0x796f7520617265206e6f7420617070726f7665642020746f206d696e74000000\n        /* \"#utility.yul\":19573:19574   */\n      0x00\n        /* \"#utility.yul\":19565:19571   */\n      dup3\n        /* \"#utility.yul\":19561:19575   */\n      add\n        /* \"#utility.yul\":19554:19609   */\n      mstore\n        /* \"#utility.yul\":19437:19616   */\n      pop\n      jump\t// out\n        /* \"#utility.yul\":19622:19988   */\n    tag_486:\n        /* \"#utility.yul\":19764:19767   */\n      0x00\n        /* \"#utility.yul\":19785:19852   */\n      tag_722\n        /* \"#utility.yul\":19849:19851   */\n      0x1d\n        /* \"#utility.yul\":19844:19847   */\n      dup4\n        /* \"#utility.yul\":19785:19852   */\n      tag_435\n      jump\t// in\n    tag_722:\n        /* \"#utility.yul\":19778:19852   */\n      swap2\n      pop\n        /* \"#utility.yul\":19861:19954   */\n      tag_723\n        /* \"#utility.yul\":19950:19953   */\n      dup3\n        /* \"#utility.yul\":19861:19954   */\n      tag_485\n      jump\t// in\n    tag_723:\n        /* \"#utility.yul\":19979:19981   */\n      0x20\n        /* \"#utility.yul\":19974:19977   */\n      dup3\n        /* \"#utility.yul\":19970:19982   */\n      add\n        /* \"#utility.yul\":19963:19982   */\n      swap1\n      pop\n        /* \"#utility.yul\":19622:19988   */\n      swap2\n      swap1\n      pop\n      jump\t// out\n        /* \"#utility.yul\":19994:20413   */\n    tag_216:\n        /* \"#utility.yul\":20160:20164   */\n      0x00\n        /* \"#utility.yul\":20198:20200   */\n      0x20\n        /* \"#utility.yul\":20187:20196   */\n      dup3\n        /* \"#utility.yul\":20183:20201   */\n      add\n        /* \"#utility.yul\":20175:20201   */\n      swap1\n      pop\n        /* \"#utility.yul\":20247:20256   */\n      dup2\n        /* \"#utility.yul\":20241:20245   */\n      dup2\n        /* \"#utility.yul\":20237:20257   */\n      sub\n        /* \"#utility.yul\":20233:20234   */\n      0x00\n        /* \"#utility.yul\":20222:20231   */\n      dup4\n        /* \"#utility.yul\":20218:20235   */\n      add\n        /* \"#utility.yul\":20211:20258   */\n      mstore\n        /* \"#utility.yul\":20275:20406   */\n      tag_725\n        /* \"#utility.yul\":20401:20405   */\n      dup2\n        /* \"#utility.yul\":20275:20406   */\n      tag_486\n      jump\t// in\n    tag_725:\n        /* \"#utility.yul\":20267:20406   */\n      swap1\n      pop\n        /* \"#utility.yul\":19994:20413   */\n      swap2\n      swap1\n      pop\n      jump\t// out\n        /* \"#utility.yul\":20419:20567   */\n    tag_487:\n        /* \"#utility.yul\":20521:20532   */\n      0x00\n        /* \"#utility.yul\":20558:20561   */\n      dup2\n        /* \"#utility.yul\":20543:20561   */\n      swap1\n      pop\n        /* \"#utility.yul\":20419:20567   */\n      swap3\n      swap2\n      pop\n      pop\n      jump\t// out\n        /* \"#utility.yul\":20573:20963   */\n    tag_488:\n        /* \"#utility.yul\":20679:20682   */\n      0x00\n        /* \"#utility.yul\":20707:20746   */\n      tag_728\n        /* \"#utility.yul\":20740:20745   */\n      dup3\n        /* \"#utility.yul\":20707:20746   */\n      tag_434\n      jump\t// in\n    tag_728:\n        /* \"#utility.yul\":20762:20851   */\n      tag_729\n        /* \"#utility.yul\":20844:20850   */\n      dup2\n        /* \"#utility.yul\":20839:20842   */\n      dup6\n        /* \"#utility.yul\":20762:20851   */\n      tag_487\n      jump\t// in\n    tag_729:\n        /* \"#utility.yul\":20755:20851   */\n      swap4\n      pop\n        /* \"#utility.yul\":20860:20925   */\n      tag_730\n        /* \"#utility.yul\":20918:20924   */\n      dup2\n        /* \"#utility.yul\":20913:20916   */\n      dup6\n        /* \"#utility.yul\":20906:20910   */\n      0x20\n        /* \"#utility.yul\":20899:20904   */\n      dup7\n        /* \"#utility.yul\":20895:20911   */\n      add\n        /* \"#utility.yul\":20860:20925   */\n      tag_436\n      jump\t// in\n    tag_730:\n        /* \"#utility.yul\":20950:20956   */\n      dup1\n        /* \"#utility.yul\":20945:20948   */\n      dup5\n        /* \"#utility.yul\":20941:20957   */\n      add\n        /* \"#utility.yul\":20934:20957   */\n      swap2\n      pop\n        /* \"#utility.yul\":20683:20963   */\n      pop\n        /* \"#utility.yul\":20573:20963   */\n      swap3\n      swap2\n      pop\n      pop\n      jump\t// out\n        /* \"#utility.yul\":20993:21867   */\n    tag_489:\n        /* \"#utility.yul\":21096:21099   */\n      0x00\n        /* \"#utility.yul\":21133:21138   */\n      dup2\n        /* \"#utility.yul\":21127:21139   */\n      sload\n        /* \"#utility.yul\":21162:21198   */\n      tag_732\n        /* \"#utility.yul\":21188:21197   */\n      dup2\n        /* \"#utility.yul\":21162:21198   */\n      tag_160\n      jump\t// in\n    tag_732:\n        /* \"#utility.yul\":21214:21303   */\n      tag_733\n        /* \"#utility.yul\":21296:21302   */\n      dup2\n        /* \"#utility.yul\":21291:21294   */\n      dup7\n        /* \"#utility.yul\":21214:21303   */\n      tag_487\n      jump\t// in\n    tag_733:\n        /* \"#utility.yul\":21207:21303   */\n      swap5\n      pop\n        /* \"#utility.yul\":21334:21335   */\n      0x01\n        /* \"#utility.yul\":21323:21332   */\n      dup3\n        /* \"#utility.yul\":21319:21336   */\n      and\n        /* \"#utility.yul\":21350:21351   */\n      0x00\n        /* \"#utility.yul\":21345:21511   */\n      dup2\n      eq\n      tag_735\n      jumpi\n        /* \"#utility.yul\":21525:21526   */\n      0x01\n        /* \"#utility.yul\":21520:21861   */\n      dup2\n      eq\n      tag_736\n      jumpi\n        /* \"#utility.yul\":21312:21861   */\n      jump(tag_734)\n        /* \"#utility.yul\":21345:21511   */\n    tag_735:\n        /* \"#utility.yul\":21429:21433   */\n      0xff\n        /* \"#utility.yul\":21425:21434   */\n      not\n        /* \"#utility.yul\":21414:21423   */\n      dup4\n        /* \"#utility.yul\":21410:21435   */\n      and\n        /* \"#utility.yul\":21405:21408   */\n      dup7\n        /* \"#utility.yul\":21398:21436   */\n      mstore\n        /* \"#utility.yul\":21491:21497   */\n      dup2\n        /* \"#utility.yul\":21484:21498   */\n      iszero\n        /* \"#utility.yul\":21477:21499   */\n      iszero\n        /* \"#utility.yul\":21469:21475   */\n      dup3\n        /* \"#utility.yul\":21465:21500   */\n      mul\n        /* \"#utility.yul\":21460:21463   */\n      dup7\n        /* \"#utility.yul\":21456:21501   */\n      add\n        /* \"#utility.yul\":21449:21501   */\n      swap4\n      pop\n        /* \"#utility.yul\":21345:21511   */\n      jump(tag_734)\n        /* \"#utility.yul\":21520:21861   */\n    tag_736:\n        /* \"#utility.yul\":21587:21625   */\n      tag_737\n        /* \"#utility.yul\":21619:21624   */\n      dup6\n        /* \"#utility.yul\":21587:21625   */\n      tag_470\n      jump\t// in\n    tag_737:\n        /* \"#utility.yul\":21647:21648   */\n      0x00\n        /* \"#utility.yul\":21661:21815   */\n    tag_738:\n        /* \"#utility.yul\":21675:21681   */\n      dup4\n        /* \"#utility.yul\":21672:21673   */\n      dup2\n        /* \"#utility.yul\":21669:21682   */\n      lt\n        /* \"#utility.yul\":21661:21815   */\n      iszero\n      tag_740\n      jumpi\n        /* \"#utility.yul\":21749:21756   */\n      dup2\n        /* \"#utility.yul\":21743:21757   */\n      sload\n        /* \"#utility.yul\":21739:21740   */\n      dup2\n        /* \"#utility.yul\":21734:21737   */\n      dup10\n        /* \"#utility.yul\":21730:21741   */\n      add\n        /* \"#utility.yul\":21723:21758   */\n      mstore\n        /* \"#utility.yul\":21799:21800   */\n      0x01\n        /* \"#utility.yul\":21790:21797   */\n      dup3\n        /* \"#utility.yul\":21786:21801   */\n      add\n        /* \"#utility.yul\":21775:21801   */\n      swap2\n      pop\n        /* \"#utility.yul\":21697:21701   */\n      0x20\n        /* \"#utility.yul\":21694:21695   */\n      dup2\n        /* \"#utility.yul\":21690:21702   */\n      add\n        /* \"#utility.yul\":21685:21702   */\n      swap1\n      pop\n        /* \"#utility.yul\":21661:21815   */\n      jump(tag_738)\n    tag_740:\n        /* \"#utility.yul\":21844:21850   */\n      dup4\n        /* \"#utility.yul\":21839:21842   */\n      dup9\n        /* \"#utility.yul\":21835:21851   */\n      add\n        /* \"#utility.yul\":21828:21851   */\n      swap6\n      pop\n        /* \"#utility.yul\":21527:21861   */\n      pop\n      pop\n        /* \"#utility.yul\":21312:21861   */\n    tag_734:\n      pop\n        /* \"#utility.yul\":21100:21867   */\n      pop\n      pop\n        /* \"#utility.yul\":20993:21867   */\n      swap3\n      swap2\n      pop\n      pop\n      jump\t// out\n        /* \"#utility.yul\":21873:22462   */\n    tag_276:\n        /* \"#utility.yul\":22098:22101   */\n      0x00\n        /* \"#utility.yul\":22120:22215   */\n      tag_742\n        /* \"#utility.yul\":22211:22214   */\n      dup3\n        /* \"#utility.yul\":22202:22208   */\n      dup7\n        /* \"#utility.yul\":22120:22215   */\n      tag_488\n      jump\t// in\n    tag_742:\n        /* \"#utility.yul\":22113:22215   */\n      swap2\n      pop\n        /* \"#utility.yul\":22232:22327   */\n      tag_743\n        /* \"#utility.yul\":22323:22326   */\n      dup3\n        /* \"#utility.yul\":22314:22320   */\n      dup6\n        /* \"#utility.yul\":22232:22327   */\n      tag_488\n      jump\t// in\n    tag_743:\n        /* \"#utility.yul\":22225:22327   */\n      swap2\n      pop\n        /* \"#utility.yul\":22344:22436   */\n      tag_744\n        /* \"#utility.yul\":22432:22435   */\n      dup3\n        /* \"#utility.yul\":22423:22429   */\n      dup5\n        /* \"#utility.yul\":22344:22436   */\n      tag_489\n      jump\t// in\n    tag_744:\n        /* \"#utility.yul\":22337:22436   */\n      swap2\n      pop\n        /* \"#utility.yul\":22453:22456   */\n      dup2\n        /* \"#utility.yul\":22446:22456   */\n      swap1\n      pop\n        /* \"#utility.yul\":21873:22462   */\n      swap5\n      swap4\n      pop\n      pop\n      pop\n      pop\n      jump\t// out\n        /* \"#utility.yul\":22468:22648   */\n    tag_490:\n        /* \"#utility.yul\":22516:22593   */\n      0x4e487b7100000000000000000000000000000000000000000000000000000000\n        /* \"#utility.yul\":22513:22514   */\n      0x00\n        /* \"#utility.yul\":22506:22594   */\n      mstore\n        /* \"#utility.yul\":22613:22617   */\n      0x11\n        /* \"#utility.yul\":22610:22611   */\n      0x04\n        /* \"#utility.yul\":22603:22618   */\n      mstore\n        /* \"#utility.yul\":22637:22641   */\n      0x24\n        /* \"#utility.yul\":22634:22635   */\n      0x00\n        /* \"#utility.yul\":22627:22642   */\n      revert\n        /* \"#utility.yul\":22654:22825   */\n    tag_302:\n        /* \"#utility.yul\":22693:22696   */\n      0x00\n        /* \"#utility.yul\":22716:22740   */\n      tag_747\n        /* \"#utility.yul\":22734:22739   */\n      dup3\n        /* \"#utility.yul\":22716:22740   */\n      tag_439\n      jump\t// in\n    tag_747:\n        /* \"#utility.yul\":22707:22740   */\n      swap2\n      pop\n        /* \"#utility.yul\":22762:22766   */\n      0x00\n        /* \"#utility.yul\":22755:22760   */\n      dup3\n        /* \"#utility.yul\":22752:22767   */\n      sub\n        /* \"#utility.yul\":22749:22790   */\n      tag_748\n      jumpi\n        /* \"#utility.yul\":22770:22788   */\n      tag_749\n      tag_490\n      jump\t// in\n    tag_749:\n        /* \"#utility.yul\":22749:22790   */\n    tag_748:\n        /* \"#utility.yul\":22817:22818   */\n      0x01\n        /* \"#utility.yul\":22810:22815   */\n      dup3\n        /* \"#utility.yul\":22806:22819   */\n      sub\n        /* \"#utility.yul\":22799:22819   */\n      swap1\n      pop\n        /* \"#utility.yul\":22654:22825   */\n      swap2\n      swap1\n      pop\n      jump\t// out\n        /* \"#utility.yul\":22831:22929   */\n    tag_491:\n        /* \"#utility.yul\":22882:22888   */\n      0x00\n        /* \"#utility.yul\":22916:22921   */\n      dup2\n        /* \"#utility.yul\":22910:22922   */\n      mload\n        /* \"#utility.yul\":22900:22922   */\n      swap1\n      pop\n        /* \"#utility.yul\":22831:22929   */\n      swap2\n      swap1\n      pop\n      jump\t// out\n        /* \"#utility.yul\":22935:23103   */\n    tag_492:\n        /* \"#utility.yul\":23018:23029   */\n      0x00\n        /* \"#utility.yul\":23052:23058   */\n      dup3\n        /* \"#utility.yul\":23047:23050   */\n      dup3\n        /* \"#utility.yul\":23040:23059   */\n      mstore\n        /* \"#utility.yul\":23092:23096   */\n      0x20\n        /* \"#utility.yul\":23087:23090   */\n      dup3\n        /* \"#utility.yul\":23083:23097   */\n      add\n        /* \"#utility.yul\":23068:23097   */\n      swap1\n      pop\n        /* \"#utility.yul\":22935:23103   */\n      swap3\n      swap2\n      pop\n      pop\n      jump\t// out\n        /* \"#utility.yul\":23109:23482   */\n    tag_493:\n        /* \"#utility.yul\":23195:23198   */\n      0x00\n        /* \"#utility.yul\":23223:23261   */\n      tag_753\n        /* \"#utility.yul\":23255:23260   */\n      dup3\n        /* \"#utility.yul\":23223:23261   */\n      tag_491\n      jump\t// in\n    tag_753:\n        /* \"#utility.yul\":23277:23347   */\n      tag_754\n        /* \"#utility.yul\":23340:23346   */\n      dup2\n        /* \"#utility.yul\":23335:23338   */\n      dup6\n        /* \"#utility.yul\":23277:23347   */\n      tag_492\n      jump\t// in\n    tag_754:\n        /* \"#utility.yul\":23270:23347   */\n      swap4\n      pop\n        /* \"#utility.yul\":23356:23421   */\n      tag_755\n        /* \"#utility.yul\":23414:23420   */\n      dup2\n        /* \"#utility.yul\":23409:23412   */\n      dup6\n        /* \"#utility.yul\":23402:23406   */\n      0x20\n        /* \"#utility.yul\":23395:23400   */\n      dup7\n        /* \"#utility.yul\":23391:23407   */\n      add\n        /* \"#utility.yul\":23356:23421   */\n      tag_436\n      jump\t// in\n    tag_755:\n        /* \"#utility.yul\":23446:23475   */\n      tag_756\n        /* \"#utility.yul\":23468:23474   */\n      dup2\n        /* \"#utility.yul\":23446:23475   */\n      tag_437\n      jump\t// in\n    tag_756:\n        /* \"#utility.yul\":23441:23444   */\n      dup5\n        /* \"#utility.yul\":23437:23476   */\n      add\n        /* \"#utility.yul\":23430:23476   */\n      swap2\n      pop\n        /* \"#utility.yul\":23199:23482   */\n      pop\n        /* \"#utility.yul\":23109:23482   */\n      swap3\n      swap2\n      pop\n      pop\n      jump\t// out\n        /* \"#utility.yul\":23488:24128   */\n    tag_351:\n        /* \"#utility.yul\":23683:23687   */\n      0x00\n        /* \"#utility.yul\":23721:23724   */\n      0x80\n        /* \"#utility.yul\":23710:23719   */\n      dup3\n        /* \"#utility.yul\":23706:23725   */\n      add\n        /* \"#utility.yul\":23698:23725   */\n      swap1\n      pop\n        /* \"#utility.yul\":23735:23806   */\n      tag_758\n        /* \"#utility.yul\":23803:23804   */\n      0x00\n        /* \"#utility.yul\":23792:23801   */\n      dup4\n        /* \"#utility.yul\":23788:23805   */\n      add\n        /* \"#utility.yul\":23779:23785   */\n      dup8\n        /* \"#utility.yul\":23735:23806   */\n      tag_444\n      jump\t// in\n    tag_758:\n        /* \"#utility.yul\":23816:23888   */\n      tag_759\n        /* \"#utility.yul\":23884:23886   */\n      0x20\n        /* \"#utility.yul\":23873:23882   */\n      dup4\n        /* \"#utility.yul\":23869:23887   */\n      add\n        /* \"#utility.yul\":23860:23866   */\n      dup7\n        /* \"#utility.yul\":23816:23888   */\n      tag_444\n      jump\t// in\n    tag_759:\n        /* \"#utility.yul\":23898:23970   */\n      tag_760\n        /* \"#utility.yul\":23966:23968   */\n      0x40\n        /* \"#utility.yul\":23955:23964   */\n      dup4\n        /* \"#utility.yul\":23951:23969   */\n      add\n        /* \"#utility.yul\":23942:23948   */\n      dup6\n        /* \"#utility.yul\":23898:23970   */\n      tag_456\n      jump\t// in\n    tag_760:\n        /* \"#utility.yul\":24017:24026   */\n      dup2\n        /* \"#utility.yul\":24011:24015   */\n      dup2\n        /* \"#utility.yul\":24007:24027   */\n      sub\n        /* \"#utility.yul\":24002:24004   */\n      0x60\n        /* \"#utility.yul\":23991:24000   */\n      dup4\n        /* \"#utility.yul\":23987:24005   */\n      add\n        /* \"#utility.yul\":23980:24028   */\n      mstore\n        /* \"#utility.yul\":24045:24121   */\n      tag_761\n        /* \"#utility.yul\":24116:24120   */\n      dup2\n        /* \"#utility.yul\":24107:24113   */\n      dup5\n        /* \"#utility.yul\":24045:24121   */\n      tag_493\n      jump\t// in\n    tag_761:\n        /* \"#utility.yul\":24037:24121   */\n      swap1\n      pop\n        /* \"#utility.yul\":23488:24128   */\n      swap6\n      swap5\n      pop\n      pop\n      pop\n      pop\n      pop\n      jump\t// out\n        /* \"#utility.yul\":24134:24275   */\n    tag_494:\n        /* \"#utility.yul\":24190:24195   */\n      0x00\n        /* \"#utility.yul\":24221:24227   */\n      dup2\n        /* \"#utility.yul\":24215:24228   */\n      mload\n        /* \"#utility.yul\":24206:24228   */\n      swap1\n      pop\n        /* \"#utility.yul\":24237:24269   */\n      tag_763\n        /* \"#utility.yul\":24263:24268   */\n      dup2\n        /* \"#utility.yul\":24237:24269   */\n      tag_430\n      jump\t// in\n    tag_763:\n        /* \"#utility.yul\":24134:24275   */\n      swap3\n      swap2\n      pop\n      pop\n      jump\t// out\n        /* \"#utility.yul\":24281:24630   */\n    tag_354:\n        /* \"#utility.yul\":24350:24356   */\n      0x00\n        /* \"#utility.yul\":24399:24401   */\n      0x20\n        /* \"#utility.yul\":24387:24396   */\n      dup3\n        /* \"#utility.yul\":24378:24385   */\n      dup5\n        /* \"#utility.yul\":24374:24397   */\n      sub\n        /* \"#utility.yul\":24370:24402   */\n      slt\n        /* \"#utility.yul\":24367:24486   */\n      iszero\n      tag_765\n      jumpi\n        /* \"#utility.yul\":24405:24484   */\n      tag_766\n      tag_427\n      jump\t// in\n    tag_766:\n        /* \"#utility.yul\":24367:24486   */\n    tag_765:\n        /* \"#utility.yul\":24525:24526   */\n      0x00\n        /* \"#utility.yul\":24550:24613   */\n      tag_767\n        /* \"#utility.yul\":24605:24612   */\n      dup5\n        /* \"#utility.yul\":24596:24602   */\n      dup3\n        /* \"#utility.yul\":24585:24594   */\n      dup6\n        /* \"#utility.yul\":24581:24603   */\n      add\n        /* \"#utility.yul\":24550:24613   */\n      tag_494\n      jump\t// in\n    tag_767:\n        /* \"#utility.yul\":24540:24613   */\n      swap2\n      pop\n        /* \"#utility.yul\":24496:24623   */\n      pop\n        /* \"#utility.yul\":24281:24630   */\n      swap3\n      swap2\n      pop\n      pop\n      jump\t// out\n\n    auxdata: 0xa26469706673582212207f3e2cb868cef7440163ef260579e385d323dcc978267a646c14757264d899b364736f6c63430008160033\n}\n",
				"bytecode": {
					"linkReferences": {},
					"object": "608060405260405180602001604052805f815250600690816200002391906200044c565b5034801562000030575f80fd5b50604051620032a7380380620032a78339818101604052810190620000569190620006e9565b805f73ffffffffffffffffffffffffffffffffffffffff168173ffffffffffffffffffffffffffffffffffffffff1603620000ca575f6040517f1e4fbdf7000000000000000000000000000000000000000000000000000000008152600401620000c1919062000791565b60405180910390fd5b620000db816200011f60201b60201c565b508260039081620000ed91906200044c565b508160049081620000ff91906200044c565b5062000110620001e060201b60201c565b600181905550505050620007ac565b5f805f9054906101000a900473ffffffffffffffffffffffffffffffffffffffff169050815f806101000a81548173ffffffffffffffffffffffffffffffffffffffff021916908373ffffffffffffffffffffffffffffffffffffffff1602179055508173ffffffffffffffffffffffffffffffffffffffff168173ffffffffffffffffffffffffffffffffffffffff167f8be0079c531659141344cd1fd0a4f28419497f9722a3daafe3b4186f6b6457e060405160405180910390a35050565b5f6001905090565b5f81519050919050565b7f4e487b71000000000000000000000000000000000000000000000000000000005f52604160045260245ffd5b7f4e487b71000000000000000000000000000000000000000000000000000000005f52602260045260245ffd5b5f60028204905060018216806200026457607f821691505b6020821081036200027a57620002796200021f565b5b50919050565b5f819050815f5260205f209050919050565b5f6020601f8301049050919050565b5f82821b905092915050565b5f60088302620002de7fffffffffffffffffffffffffffffffffffffffffffffffffffffffffffffffff82620002a1565b620002ea8683620002a1565b95508019841693508086168417925050509392505050565b5f819050919050565b5f819050919050565b5f620003346200032e620003288462000302565b6200030b565b62000302565b9050919050565b5f819050919050565b6200034f8362000314565b620003676200035e826200033b565b848454620002ad565b825550505050565b5f90565b6200037d6200036f565b6200038a81848462000344565b505050565b5b81811015620003b157620003a55f8262000373565b60018101905062000390565b5050565b601f8211156200040057620003ca8162000280565b620003d58462000292565b81016020851015620003e5578190505b620003fd620003f48562000292565b8301826200038f565b50505b505050565b5f82821c905092915050565b5f620004225f198460080262000405565b1980831691505092915050565b5f6200043c838362000411565b9150826002028217905092915050565b6200045782620001e8565b67ffffffffffffffff811115620004735762000472620001f2565b5b6200047f82546200024c565b6200048c828285620003b5565b5f60209050601f831160018114620004c2575f8415620004ad578287015190505b620004b985826200042f565b86555062000528565b601f198416620004d28662000280565b5f5b82811015620004fb57848901518255600182019150602085019450602081019050620004d4565b868310156200051b578489015162000517601f89168262000411565b8355505b6001600288020188555050505b505050505050565b5f604051905090565b5f80fd5b5f80fd5b5f80fd5b5f80fd5b5f601f19601f8301169050919050565b620005648262000549565b810181811067ffffffffffffffff82111715620005865762000585620001f2565b5b80604052505050565b5f6200059a62000530565b9050620005a8828262000559565b919050565b5f67ffffffffffffffff821115620005ca57620005c9620001f2565b5b620005d58262000549565b9050602081019050919050565b5f5b8381101562000601578082015181840152602081019050620005e4565b5f8484015250505050565b5f620006226200061c84620005ad565b6200058f565b90508281526020810184848401111562000641576200064062000545565b5b6200064e848285620005e2565b509392505050565b5f82601f8301126200066d576200066c62000541565b5b81516200067f8482602086016200060c565b91505092915050565b5f73ffffffffffffffffffffffffffffffffffffffff82169050919050565b5f620006b38262000688565b9050919050565b620006c581620006a7565b8114620006d0575f80fd5b50565b5f81519050620006e381620006ba565b92915050565b5f805f6060848603121562000703576200070262000539565b5b5f84015167ffffffffffffffff8111156200072357620007226200053d565b5b620007318682870162000656565b935050602084015167ffffffffffffffff8111156200075557620007546200053d565b5b620007638682870162000656565b92505060406200077686828701620006d3565b9150509250925092565b6200078b81620006a7565b82525050565b5f602082019050620007a65f83018462000780565b92915050565b612aed80620007ba5f395ff3fe608060405260043610610180575f3560e01c8063715018a6116100d0578063b88d4fde11610089578063dc76668d11610063578063dc76668d14610548578063e985e9c514610570578063f259a29e146105ac578063f2fde38b146105d657610180565b8063b88d4fde146104b4578063bf1e5e9e146104d0578063c87b56dd1461050c57610180565b8063715018a6146103be5780638370d004146103d45780638da5cb5b1461041057806395d89b411461043a578063a22cb46514610464578063b6b285d91461048c57610180565b806323b872dd1161013d5780635503a0e8116101175780635503a0e8146102f457806355f804b31461031e5780636352211e1461034657806370a082311461038257610180565b806323b872dd1461029457806340c10f19146102b057806342842e0e146102d857610180565b806301ffc9a71461018457806306fdde03146101c0578063081812fc146101ea578063095ea7b31461022657806316ba10e01461024257806318160ddd1461026a575b5f80fd5b34801561018f575f80fd5b506101aa60048036038101906101a59190611e58565b6105fe565b6040516101b79190611e9d565b60405180910390f35b3480156101cb575f80fd5b506101d461068f565b6040516101e19190611f40565b60405180910390f35b3480156101f5575f80fd5b50610210600480360381019061020b9190611f93565b61071f565b60405161021d9190611ffd565b60405180910390f35b610240600480360381019061023b9190612040565b610778565b005b34801561024d575f80fd5b50610268600480360381019061026391906121aa565b610788565b005b348015610275575f80fd5b5061027e6107a3565b60405161028b9190612200565b60405180910390f35b6102ae60048036038101906102a99190612219565b6107b9565b005b3480156102bb575f80fd5b506102d660048036038101906102d19190612040565b610a65565b005b6102f260048036038101906102ed9190612219565b610b03565b005b3480156102ff575f80fd5b50610308610b22565b6040516103159190611f40565b60405180910390f35b348015610329575f80fd5b50610344600480360381019061033f91906121aa565b610bae565b005b348015610351575f80fd5b5061036c60048036038101906103679190611f93565b610bc9565b6040516103799190611ffd565b60405180910390f35b34801561038d575f80fd5b506103a860048036038101906103a39190612269565b610bda565b6040516103b59190612200565b60405180910390f35b3480156103c9575f80fd5b506103d2610c6e565b005b3480156103df575f80fd5b506103fa60048036038101906103f59190612294565b610c81565b6040516104079190611e9d565b60405180910390f35b34801561041b575f80fd5b50610424610ce3565b6040516104319190611ffd565b60405180910390f35b348015610445575f80fd5b5061044e610d0a565b60405161045b9190611f40565b60405180910390f35b34801561046f575f80fd5b5061048a600480360381019061048591906122fc565b610d9a565b005b348015610497575f80fd5b506104b260048036038101906104ad9190612269565b610ea0565b005b6104ce60048036038101906104c991906123d8565b610f00565b005b3480156104db575f80fd5b506104f660048036038101906104f19190612269565b610f51565b604051610503919061250f565b60405180910390f35b348015610517575f80fd5b50610532600480360381019061052d9190611f93565b610fe4565b60405161053f9190611f40565b60405180910390f35b348015610553575f80fd5b5061056e60048036038101906105699190611f93565b611061565b005b34801561057b575f80fd5b506105966004803603810190610591919061252f565b611171565b6040516105a39190611e9d565b60405180910390f35b3480156105b7575f80fd5b506105c06111ff565b6040516105cd9190611f40565b60405180910390f35b3480156105e1575f80fd5b506105fc60048036038101906105f79190612269565b61128b565b005b5f6301ffc9a760e01b827bffffffffffffffffffffffffffffffffffffffffffffffffffffffff1916148061065857506380ac58cd60e01b827bffffffffffffffffffffffffffffffffffffffffffffffffffffffff1916145b806106885750635b5e139f60e01b827bffffffffffffffffffffffffffffffffffffffffffffffffffffffff1916145b9050919050565b60606003805461069e9061259a565b80601f01602080910402602001604051908101604052809291908181526020018280546106ca9061259a565b80156107155780601f106106ec57610100808354040283529160200191610715565b820191905f5260205f20905b8154815290600101906020018083116106f857829003601f168201915b5050505050905090565b5f6107298261130f565b61073e5761073d63cf4700e460e01b611382565b5b600d5f8381526020019081526020015f205f015f9054906101000a900473ffffffffffffffffffffffffffffffffffffffff169050919050565b6107848282600161138a565b5050565b6107906114b4565b806006908161079f9190612767565b5050565b5f6107ac61153b565b6002546001540303905090565b5f6107c382611543565b905073ffffffffffffffffffffffffffffffffffffffff8473ffffffffffffffffffffffffffffffffffffffff161693508373ffffffffffffffffffffffffffffffffffffffff168173ffffffffffffffffffffffffffffffffffffffff16146108385761083763a114810060e01b611382565b5b5f8061084384611626565b915091506108598187610854611649565b611650565b6108845761086e86610869611649565b611171565b610883576108826359c896be60e01b611382565b5b5b6108918686866001611693565b801561089b575f82555b600c5f8773ffffffffffffffffffffffffffffffffffffffff1673ffffffffffffffffffffffffffffffffffffffff1681526020019081526020015f205f81546001900391905081905550600c5f8673ffffffffffffffffffffffffffffffffffffffff1673ffffffffffffffffffffffffffffffffffffffff1681526020019081526020015f205f8154600101919050819055506109638561093f888887611699565b7c0200000000000000000000000000000000000000000000000000000000176116c0565b600b5f8681526020019081526020015f20819055505f7c02000000000000000000000000000000000000000000000000000000008416036109e0575f6001850190505f600b5f8381526020019081526020015f2054036109de5760015481146109dd5783600b5f8381526020019081526020015f20819055505b5b505b5f73ffffffffffffffffffffffffffffffffffffffff8673ffffffffffffffffffffffffffffffffffffffff161690508481887fddf252ad1be2c89b69c2b068fc378daa952ba7f163c4a11628f55a4df523b3ef5f80a45f8103610a4f57610a4e63ea553b3460e01b611382565b5b610a5c87878760016116ea565b50505050505050565b6001151560095f3373ffffffffffffffffffffffffffffffffffffffff1673ffffffffffffffffffffffffffffffffffffffff1681526020019081526020015f205f9054906101000a900460ff16151514610af5576040517f08c379a0000000000000000000000000000000000000000000000000000000008152600401610aec90612880565b60405180910390fd5b610aff82826116f0565b5050565b610b1d83838360405180602001604052805f815250610f00565b505050565b60068054610b2f9061259a565b80601f0160208091040260200160405190810160405280929190818152602001828054610b5b9061259a565b8015610ba65780601f10610b7d57610100808354040283529160200191610ba6565b820191905f5260205f20905b815481529060010190602001808311610b8957829003601f168201915b505050505081565b610bb66114b4565b8060059081610bc59190612767565b5050565b5f610bd382611543565b9050919050565b5f8073ffffffffffffffffffffffffffffffffffffffff168273ffffffffffffffffffffffffffffffffffffffff1603610c1f57610c1e638f4eb60460e01b611382565b5b67ffffffffffffffff600c5f8473ffffffffffffffffffffffffffffffffffffffff1673ffffffffffffffffffffffffffffffffffffffff1681526020019081526020015f2054169050919050565b610c766114b4565b610c7f5f61170d565b565b5f600a5f8373ffffffffffffffffffffffffffffffffffffffff1673ffffffffffffffffffffffffffffffffffffffff1681526020019081526020015f205f8481526020019081526020015f205f9054906101000a900460ff16905092915050565b5f805f9054906101000a900473ffffffffffffffffffffffffffffffffffffffff16905090565b606060048054610d199061259a565b80601f0160208091040260200160405190810160405280929190818152602001828054610d459061259a565b8015610d905780601f10610d6757610100808354040283529160200191610d90565b820191905f5260205f20905b815481529060010190602001808311610d7357829003601f168201915b5050505050905090565b80600e5f610da6611649565b73ffffffffffffffffffffffffffffffffffffffff1673ffffffffffffffffffffffffffffffffffffffff1681526020019081526020015f205f8473ffffffffffffffffffffffffffffffffffffffff1673ffffffffffffffffffffffffffffffffffffffff1681526020019081526020015f205f6101000a81548160ff0219169083151502179055508173ffffffffffffffffffffffffffffffffffffffff16610e4f611649565b73ffffffffffffffffffffffffffffffffffffffff167f17307eab39ab6107e8899845ad3d59bd9653f200f220920489ca2b5937696c3183604051610e949190611e9d565b60405180910390a35050565b610ea86114b4565b600160095f8373ffffffffffffffffffffffffffffffffffffffff1673ffffffffffffffffffffffffffffffffffffffff1681526020019081526020015f205f6101000a81548160ff02191690831515021790555050565b610f0b8484846107b9565b5f8373ffffffffffffffffffffffffffffffffffffffff163b14610f4b57610f35848484846117ce565b610f4a57610f4963d1a57ed660e01b611382565b5b5b50505050565b606060075f8373ffffffffffffffffffffffffffffffffffffffff1673ffffffffffffffffffffffffffffffffffffffff1681526020019081526020015f20805480602002602001604051908101604052809291908181526020018280548015610fd857602002820191905f5260205f20905b815481526020019060010190808311610fc4575b50505050509050919050565b6060610fef8261130f565b6110045761100363a14c4b5060e01b611382565b5b5f61100d6118f8565b90505f81510361102b5760405180602001604052805f815250611059565b8061103584611988565b600660405160200161104993929190612958565b6040516020818303038152906040525b915050919050565b3373ffffffffffffffffffffffffffffffffffffffff1661108182610bc9565b73ffffffffffffffffffffffffffffffffffffffff16146110a0575f80fd5b6001600a5f3373ffffffffffffffffffffffffffffffffffffffff1673ffffffffffffffffffffffffffffffffffffffff1681526020019081526020015f205f8381526020019081526020015f205f6101000a81548160ff02191690831515021790555060075f3373ffffffffffffffffffffffffffffffffffffffff1673ffffffffffffffffffffffffffffffffffffffff1681526020019081526020015f2081908060018154018082558091505060019003905f5260205f20015f909190919091505561116e816119d7565b50565b5f600e5f8473ffffffffffffffffffffffffffffffffffffffff1673ffffffffffffffffffffffffffffffffffffffff1681526020019081526020015f205f8373ffffffffffffffffffffffffffffffffffffffff1673ffffffffffffffffffffffffffffffffffffffff1681526020019081526020015f205f9054906101000a900460ff16905092915050565b6005805461120c9061259a565b80601f01602080910402602001604051908101604052809291908181526020018280546112389061259a565b80156112835780601f1061125a57610100808354040283529160200191611283565b820191905f5260205f20905b81548152906001019060200180831161126657829003601f168201915b505050505081565b6112936114b4565b5f73ffffffffffffffffffffffffffffffffffffffff168173ffffffffffffffffffffffffffffffffffffffff1603611303575f6040517f1e4fbdf70000000000000000000000000000000000000000000000000000000081526004016112fa9190611ffd565b60405180910390fd5b61130c8161170d565b50565b5f8161131961153b565b1161137d5760015482101561137c575f5b5f600b5f8581526020019081526020015f205491508103611356578261134f906129b5565b925061132a565b5f7c01000000000000000000000000000000000000000000000000000000008216149150505b5b919050565b805f5260045ffd5b5f61139483610bc9565b90508180156113d657508073ffffffffffffffffffffffffffffffffffffffff166113bd611649565b73ffffffffffffffffffffffffffffffffffffffff1614155b15611402576113ec816113e7611649565b611171565b6114015761140063cfb3b94260e01b611382565b5b5b83600d5f8581526020019081526020015f205f015f6101000a81548173ffffffffffffffffffffffffffffffffffffffff021916908373ffffffffffffffffffffffffffffffffffffffff160217905550828473ffffffffffffffffffffffffffffffffffffffff168273ffffffffffffffffffffffffffffffffffffffff167f8c5be1e5ebec7d5bd14f71427d1e84f3dd0314c0f7b2291e5b200ac8c7c3b92560405160405180910390a450505050565b6114bc6119e4565b73ffffffffffffffffffffffffffffffffffffffff166114da610ce3565b73ffffffffffffffffffffffffffffffffffffffff1614611539576114fd6119e4565b6040517f118cdaa70000000000000000000000000000000000000000000000000000000081526004016115309190611ffd565b60405180910390fd5b565b5f6001905090565b5f8161154d61153b565b1161161057600b5f8381526020019081526020015f205490505f81036115e85760015482106115875761158663df2d9b4260e01b611382565b5b5b600b5f836001900393508381526020019081526020015f205490505f8103156115e3575f7c010000000000000000000000000000000000000000000000000000000082160315611621576115e263df2d9b4260e01b611382565b5b611588565b5f7c010000000000000000000000000000000000000000000000000000000082160315611621575b61162063df2d9b4260e01b611382565b5b919050565b5f805f600d5f8581526020019081526020015f2090508092508254915050915091565b5f33905090565b5f73ffffffffffffffffffffffffffffffffffffffff8316925073ffffffffffffffffffffffffffffffffffffffff821691508382148383141790509392505050565b50505050565b5f8060e883901c905060e86116af8686846119eb565b62ffffff16901b9150509392505050565b5f73ffffffffffffffffffffffffffffffffffffffff83169250814260a01b178317905092915050565b50505050565b611709828260405180602001604052805f8152506119f3565b5050565b5f805f9054906101000a900473ffffffffffffffffffffffffffffffffffffffff169050815f806101000a81548173ffffffffffffffffffffffffffffffffffffffff021916908373ffffffffffffffffffffffffffffffffffffffff1602179055508173ffffffffffffffffffffffffffffffffffffffff168173ffffffffffffffffffffffffffffffffffffffff167f8be0079c531659141344cd1fd0a4f28419497f9722a3daafe3b4186f6b6457e060405160405180910390a35050565b5f8373ffffffffffffffffffffffffffffffffffffffff1663150b7a026117f3611649565b8786866040518563ffffffff1660e01b81526004016118159493929190612a2e565b6020604051808303815f875af192505050801561185057506040513d601f19601f8201168201806040525081019061184d9190612a8c565b60015b6118a5573d805f811461187e576040519150601f19603f3d011682016040523d82523d5f602084013e611883565b606091505b505f81510361189d5761189c63d1a57ed660e01b611382565b5b805181602001fd5b63150b7a0260e01b7bffffffffffffffffffffffffffffffffffffffffffffffffffffffff1916817bffffffffffffffffffffffffffffffffffffffffffffffffffffffff191614915050949350505050565b6060600580546119079061259a565b80601f01602080910402602001604051908101604052809291908181526020018280546119339061259a565b801561197e5780601f106119555761010080835404028352916020019161197e565b820191905f5260205f20905b81548152906001019060200180831161196157829003601f168201915b5050505050905090565b606060a060405101806040526020810391505f825281835b6001156119c257600184039350600a81066030018453600a81049050806119a0575b50828103602084039350808452505050919050565b6119e1815f611a74565b50565b5f33905090565b5f9392505050565b6119fd8383611c90565b5f8373ffffffffffffffffffffffffffffffffffffffff163b14611a6f575f60015490505f83820390505b611a3a5f8683806001019450866117ce565b611a4f57611a4e63d1a57ed660e01b611382565b5b818110611a28578160015414611a6c57611a6b5f60e01b611382565b5b50505b505050565b5f611a7e83611543565b90505f8190505f80611a8f86611626565b915091508415611ad757611aab8184611aa6611649565b611650565b611ad657611ac083611abb611649565b611171565b611ad557611ad46359c896be60e01b611382565b5b5b5b611ae4835f886001611693565b8015611aee575f82555b600160806001901b03600c5f8573ffffffffffffffffffffffffffffffffffffffff1673ffffffffffffffffffffffffffffffffffffffff1681526020019081526020015f205f8282540192505081905550611b9283611b4f855f88611699565b7c02000000000000000000000000000000000000000000000000000000007c010000000000000000000000000000000000000000000000000000000017176116c0565b600b5f8881526020019081526020015f20819055505f7c0200000000000000000000000000000000000000000000000000000000851603611c0f575f6001870190505f600b5f8381526020019081526020015f205403611c0d576001548114611c0c5784600b5f8381526020019081526020015f20819055505b5b505b855f73ffffffffffffffffffffffffffffffffffffffff168473ffffffffffffffffffffffffffffffffffffffff167fddf252ad1be2c89b69c2b068fc378daa952ba7f163c4a11628f55a4df523b3ef60405160405180910390a4611c77835f8860016116ea565b60025f8154809291906001019190505550505050505050565b5f60015490505f8203611cae57611cad63b562e8dd60e01b611382565b5b611cba5f848385611693565b611cd883611cc95f865f611699565b611cd285611de3565b176116c0565b600b5f8381526020019081526020015f2081905550600160406001901b178202600c5f8573ffffffffffffffffffffffffffffffffffffffff1673ffffffffffffffffffffffffffffffffffffffff1681526020019081526020015f205f82825401925050819055505f73ffffffffffffffffffffffffffffffffffffffff8473ffffffffffffffffffffffffffffffffffffffff161690505f8103611d8957611d88632e07630060e01b611382565b5b5f83830190505f8390505b80835f7fddf252ad1be2c89b69c2b068fc378daa952ba7f163c4a11628f55a4df523b3ef5f80a4818160010191508103611d945781600181905550505050611dde5f8483856116ea565b505050565b5f6001821460e11b9050919050565b5f604051905090565b5f80fd5b5f80fd5b5f7fffffffff0000000000000000000000000000000000000000000000000000000082169050919050565b611e3781611e03565b8114611e41575f80fd5b50565b5f81359050611e5281611e2e565b92915050565b5f60208284031215611e6d57611e6c611dfb565b5b5f611e7a84828501611e44565b91505092915050565b5f8115159050919050565b611e9781611e83565b82525050565b5f602082019050611eb05f830184611e8e565b92915050565b5f81519050919050565b5f82825260208201905092915050565b5f5b83811015611eed578082015181840152602081019050611ed2565b5f8484015250505050565b5f601f19601f8301169050919050565b5f611f1282611eb6565b611f1c8185611ec0565b9350611f2c818560208601611ed0565b611f3581611ef8565b840191505092915050565b5f6020820190508181035f830152611f588184611f08565b905092915050565b5f819050919050565b611f7281611f60565b8114611f7c575f80fd5b50565b5f81359050611f8d81611f69565b92915050565b5f60208284031215611fa857611fa7611dfb565b5b5f611fb584828501611f7f565b91505092915050565b5f73ffffffffffffffffffffffffffffffffffffffff82169050919050565b5f611fe782611fbe565b9050919050565b611ff781611fdd565b82525050565b5f6020820190506120105f830184611fee565b92915050565b61201f81611fdd565b8114612029575f80fd5b50565b5f8135905061203a81612016565b92915050565b5f806040838503121561205657612055611dfb565b5b5f6120638582860161202c565b925050602061207485828601611f7f565b9150509250929050565b5f80fd5b5f80fd5b7f4e487b71000000000000000000000000000000000000000000000000000000005f52604160045260245ffd5b6120bc82611ef8565b810181811067ffffffffffffffff821117156120db576120da612086565b5b80604052505050565b5f6120ed611df2565b90506120f982826120b3565b919050565b5f67ffffffffffffffff82111561211857612117612086565b5b61212182611ef8565b9050602081019050919050565b828183375f83830152505050565b5f61214e612149846120fe565b6120e4565b90508281526020810184848401111561216a57612169612082565b5b61217584828561212e565b509392505050565b5f82601f8301126121915761219061207e565b5b81356121a184826020860161213c565b91505092915050565b5f602082840312156121bf576121be611dfb565b5b5f82013567ffffffffffffffff8111156121dc576121db611dff565b5b6121e88482850161217d565b91505092915050565b6121fa81611f60565b82525050565b5f6020820190506122135f8301846121f1565b92915050565b5f805f606084860312156122305761222f611dfb565b5b5f61223d8682870161202c565b935050602061224e8682870161202c565b925050604061225f86828701611f7f565b9150509250925092565b5f6020828403121561227e5761227d611dfb565b5b5f61228b8482850161202c565b91505092915050565b5f80604083850312156122aa576122a9611dfb565b5b5f6122b785828601611f7f565b92505060206122c88582860161202c565b9150509250929050565b6122db81611e83565b81146122e5575f80fd5b50565b5f813590506122f6816122d2565b92915050565b5f806040838503121561231257612311611dfb565b5b5f61231f8582860161202c565b9250506020612330858286016122e8565b9150509250929050565b5f67ffffffffffffffff82111561235457612353612086565b5b61235d82611ef8565b9050602081019050919050565b5f61237c6123778461233a565b6120e4565b90508281526020810184848401111561239857612397612082565b5b6123a384828561212e565b509392505050565b5f82601f8301126123bf576123be61207e565b5b81356123cf84826020860161236a565b91505092915050565b5f805f80608085870312156123f0576123ef611dfb565b5b5f6123fd8782880161202c565b945050602061240e8782880161202c565b935050604061241f87828801611f7f565b925050606085013567ffffffffffffffff8111156124405761243f611dff565b5b61244c878288016123ab565b91505092959194509250565b5f81519050919050565b5f82825260208201905092915050565b5f819050602082019050919050565b61248a81611f60565b82525050565b5f61249b8383612481565b60208301905092915050565b5f602082019050919050565b5f6124bd82612458565b6124c78185612462565b93506124d283612472565b805f5b838110156125025781516124e98882612490565b97506124f4836124a7565b9250506001810190506124d5565b5085935050505092915050565b5f6020820190508181035f83015261252781846124b3565b905092915050565b5f806040838503121561254557612544611dfb565b5b5f6125528582860161202c565b92505060206125638582860161202c565b9150509250929050565b7f4e487b71000000000000000000000000000000000000000000000000000000005f52602260045260245ffd5b5f60028204905060018216806125b157607f821691505b6020821081036125c4576125c361256d565b5b50919050565b5f819050815f5260205f209050919050565b5f6020601f8301049050919050565b5f82821b905092915050565b5f600883026126267fffffffffffffffffffffffffffffffffffffffffffffffffffffffffffffffff826125eb565b61263086836125eb565b95508019841693508086168417925050509392505050565b5f819050919050565b5f61266b61266661266184611f60565b612648565b611f60565b9050919050565b5f819050919050565b61268483612651565b61269861269082612672565b8484546125f7565b825550505050565b5f90565b6126ac6126a0565b6126b781848461267b565b505050565b5b818110156126da576126cf5f826126a4565b6001810190506126bd565b5050565b601f82111561271f576126f0816125ca565b6126f9846125dc565b81016020851015612708578190505b61271c612714856125dc565b8301826126bc565b50505b505050565b5f82821c905092915050565b5f61273f5f1984600802612724565b1980831691505092915050565b5f6127578383612730565b9150826002028217905092915050565b61277082611eb6565b67ffffffffffffffff81111561278957612788612086565b5b612793825461259a565b61279e8282856126de565b5f60209050601f8311600181146127cf575f84156127bd578287015190505b6127c7858261274c565b86555061282e565b601f1984166127dd866125ca565b5f5b82811015612804578489015182556001820191506020850194506020810190506127df565b86831015612821578489015161281d601f891682612730565b8355505b6001600288020188555050505b505050505050565b7f796f7520617265206e6f7420617070726f7665642020746f206d696e740000005f82015250565b5f61286a601d83611ec0565b915061287582612836565b602082019050919050565b5f6020820190508181035f8301526128978161285e565b9050919050565b5f81905092915050565b5f6128b282611eb6565b6128bc818561289e565b93506128cc818560208601611ed0565b80840191505092915050565b5f81546128e48161259a565b6128ee818661289e565b9450600182165f8114612908576001811461291d5761294f565b60ff198316865281151582028601935061294f565b612926856125ca565b5f5b8381101561294757815481890152600182019150602081019050612928565b838801955050505b50505092915050565b5f61296382866128a8565b915061296f82856128a8565b915061297b82846128d8565b9150819050949350505050565b7f4e487b71000000000000000000000000000000000000000000000000000000005f52601160045260245ffd5b5f6129bf82611f60565b91505f82036129d1576129d0612988565b5b600182039050919050565b5f81519050919050565b5f82825260208201905092915050565b5f612a00826129dc565b612a0a81856129e6565b9350612a1a818560208601611ed0565b612a2381611ef8565b840191505092915050565b5f608082019050612a415f830187611fee565b612a4e6020830186611fee565b612a5b60408301856121f1565b8181036060830152612a6d81846129f6565b905095945050505050565b5f81519050612a8681611e2e565b92915050565b5f60208284031215612aa157612aa0611dfb565b5b5f612aae84828501612a78565b9150509291505056fea26469706673582212207f3e2cb868cef7440163ef260579e385d323dcc978267a646c14757264d899b364736f6c63430008160033",
					"opcodes": "PUSH1 0x80 PUSH1 0x40 MSTORE PUSH1 0x40 MLOAD DUP1 PUSH1 0x20 ADD PUSH1 0x40 MSTORE DUP1 PUSH0 DUP2 MSTORE POP PUSH1 0x6 SWAP1 DUP2 PUSH3 0x23 SWAP2 SWAP1 PUSH3 0x44C JUMP JUMPDEST POP CALLVALUE DUP1 ISZERO PUSH3 0x30 JUMPI PUSH0 DUP1 REVERT JUMPDEST POP PUSH1 0x40 MLOAD PUSH3 0x32A7 CODESIZE SUB DUP1 PUSH3 0x32A7 DUP4 CODECOPY DUP2 DUP2 ADD PUSH1 0x40 MSTORE DUP2 ADD SWAP1 PUSH3 0x56 SWAP2 SWAP1 PUSH3 0x6E9 JUMP JUMPDEST DUP1 PUSH0 PUSH20 0xFFFFFFFFFFFFFFFFFFFFFFFFFFFFFFFFFFFFFFFF AND DUP2 PUSH20 0xFFFFFFFFFFFFFFFFFFFFFFFFFFFFFFFFFFFFFFFF AND SUB PUSH3 0xCA JUMPI PUSH0 PUSH1 0x40 MLOAD PUSH32 0x1E4FBDF700000000000000000000000000000000000000000000000000000000 DUP2 MSTORE PUSH1 0x4 ADD PUSH3 0xC1 SWAP2 SWAP1 PUSH3 0x791 JUMP JUMPDEST PUSH1 0x40 MLOAD DUP1 SWAP2 SUB SWAP1 REVERT JUMPDEST PUSH3 0xDB DUP2 PUSH3 0x11F PUSH1 0x20 SHL PUSH1 0x20 SHR JUMP JUMPDEST POP DUP3 PUSH1 0x3 SWAP1 DUP2 PUSH3 0xED SWAP2 SWAP1 PUSH3 0x44C JUMP JUMPDEST POP DUP2 PUSH1 0x4 SWAP1 DUP2 PUSH3 0xFF SWAP2 SWAP1 PUSH3 0x44C JUMP JUMPDEST POP PUSH3 0x110 PUSH3 0x1E0 PUSH1 0x20 SHL PUSH1 0x20 SHR JUMP JUMPDEST PUSH1 0x1 DUP2 SWAP1 SSTORE POP POP POP POP PUSH3 0x7AC JUMP JUMPDEST PUSH0 DUP1 PUSH0 SWAP1 SLOAD SWAP1 PUSH2 0x100 EXP SWAP1 DIV PUSH20 0xFFFFFFFFFFFFFFFFFFFFFFFFFFFFFFFFFFFFFFFF AND SWAP1 POP DUP2 PUSH0 DUP1 PUSH2 0x100 EXP DUP2 SLOAD DUP2 PUSH20 0xFFFFFFFFFFFFFFFFFFFFFFFFFFFFFFFFFFFFFFFF MUL NOT AND SWAP1 DUP4 PUSH20 0xFFFFFFFFFFFFFFFFFFFFFFFFFFFFFFFFFFFFFFFF AND MUL OR SWAP1 SSTORE POP DUP2 PUSH20 0xFFFFFFFFFFFFFFFFFFFFFFFFFFFFFFFFFFFFFFFF AND DUP2 PUSH20 0xFFFFFFFFFFFFFFFFFFFFFFFFFFFFFFFFFFFFFFFF AND PUSH32 0x8BE0079C531659141344CD1FD0A4F28419497F9722A3DAAFE3B4186F6B6457E0 PUSH1 0x40 MLOAD PUSH1 0x40 MLOAD DUP1 SWAP2 SUB SWAP1 LOG3 POP POP JUMP JUMPDEST PUSH0 PUSH1 0x1 SWAP1 POP SWAP1 JUMP JUMPDEST PUSH0 DUP2 MLOAD SWAP1 POP SWAP2 SWAP1 POP JUMP JUMPDEST PUSH32 0x4E487B7100000000000000000000000000000000000000000000000000000000 PUSH0 MSTORE PUSH1 0x41 PUSH1 0x4 MSTORE PUSH1 0x24 PUSH0 REVERT JUMPDEST PUSH32 0x4E487B7100000000000000000000000000000000000000000000000000000000 PUSH0 MSTORE PUSH1 0x22 PUSH1 0x4 MSTORE PUSH1 0x24 PUSH0 REVERT JUMPDEST PUSH0 PUSH1 0x2 DUP3 DIV SWAP1 POP PUSH1 0x1 DUP3 AND DUP1 PUSH3 0x264 JUMPI PUSH1 0x7F DUP3 AND SWAP2 POP JUMPDEST PUSH1 0x20 DUP3 LT DUP2 SUB PUSH3 0x27A JUMPI PUSH3 0x279 PUSH3 0x21F JUMP JUMPDEST JUMPDEST POP SWAP2 SWAP1 POP JUMP JUMPDEST PUSH0 DUP2 SWAP1 POP DUP2 PUSH0 MSTORE PUSH1 0x20 PUSH0 KECCAK256 SWAP1 POP SWAP2 SWAP1 POP JUMP JUMPDEST PUSH0 PUSH1 0x20 PUSH1 0x1F DUP4 ADD DIV SWAP1 POP SWAP2 SWAP1 POP JUMP JUMPDEST PUSH0 DUP3 DUP3 SHL SWAP1 POP SWAP3 SWAP2 POP POP JUMP JUMPDEST PUSH0 PUSH1 0x8 DUP4 MUL PUSH3 0x2DE PUSH32 0xFFFFFFFFFFFFFFFFFFFFFFFFFFFFFFFFFFFFFFFFFFFFFFFFFFFFFFFFFFFFFFFF DUP3 PUSH3 0x2A1 JUMP JUMPDEST PUSH3 0x2EA DUP7 DUP4 PUSH3 0x2A1 JUMP JUMPDEST SWAP6 POP DUP1 NOT DUP5 AND SWAP4 POP DUP1 DUP7 AND DUP5 OR SWAP3 POP POP POP SWAP4 SWAP3 POP POP POP JUMP JUMPDEST PUSH0 DUP2 SWAP1 POP SWAP2 SWAP1 POP JUMP JUMPDEST PUSH0 DUP2 SWAP1 POP SWAP2 SWAP1 POP JUMP JUMPDEST PUSH0 PUSH3 0x334 PUSH3 0x32E PUSH3 0x328 DUP5 PUSH3 0x302 JUMP JUMPDEST PUSH3 0x30B JUMP JUMPDEST PUSH3 0x302 JUMP JUMPDEST SWAP1 POP SWAP2 SWAP1 POP JUMP JUMPDEST PUSH0 DUP2 SWAP1 POP SWAP2 SWAP1 POP JUMP JUMPDEST PUSH3 0x34F DUP4 PUSH3 0x314 JUMP JUMPDEST PUSH3 0x367 PUSH3 0x35E DUP3 PUSH3 0x33B JUMP JUMPDEST DUP5 DUP5 SLOAD PUSH3 0x2AD JUMP JUMPDEST DUP3 SSTORE POP POP POP POP JUMP JUMPDEST PUSH0 SWAP1 JUMP JUMPDEST PUSH3 0x37D PUSH3 0x36F JUMP JUMPDEST PUSH3 0x38A DUP2 DUP5 DUP5 PUSH3 0x344 JUMP JUMPDEST POP POP POP JUMP JUMPDEST JUMPDEST DUP2 DUP2 LT ISZERO PUSH3 0x3B1 JUMPI PUSH3 0x3A5 PUSH0 DUP3 PUSH3 0x373 JUMP JUMPDEST PUSH1 0x1 DUP2 ADD SWAP1 POP PUSH3 0x390 JUMP JUMPDEST POP POP JUMP JUMPDEST PUSH1 0x1F DUP3 GT ISZERO PUSH3 0x400 JUMPI PUSH3 0x3CA DUP2 PUSH3 0x280 JUMP JUMPDEST PUSH3 0x3D5 DUP5 PUSH3 0x292 JUMP JUMPDEST DUP2 ADD PUSH1 0x20 DUP6 LT ISZERO PUSH3 0x3E5 JUMPI DUP2 SWAP1 POP JUMPDEST PUSH3 0x3FD PUSH3 0x3F4 DUP6 PUSH3 0x292 JUMP JUMPDEST DUP4 ADD DUP3 PUSH3 0x38F JUMP JUMPDEST POP POP JUMPDEST POP POP POP JUMP JUMPDEST PUSH0 DUP3 DUP3 SHR SWAP1 POP SWAP3 SWAP2 POP POP JUMP JUMPDEST PUSH0 PUSH3 0x422 PUSH0 NOT DUP5 PUSH1 0x8 MUL PUSH3 0x405 JUMP JUMPDEST NOT DUP1 DUP4 AND SWAP2 POP POP SWAP3 SWAP2 POP POP JUMP JUMPDEST PUSH0 PUSH3 0x43C DUP4 DUP4 PUSH3 0x411 JUMP JUMPDEST SWAP2 POP DUP3 PUSH1 0x2 MUL DUP3 OR SWAP1 POP SWAP3 SWAP2 POP POP JUMP JUMPDEST PUSH3 0x457 DUP3 PUSH3 0x1E8 JUMP JUMPDEST PUSH8 0xFFFFFFFFFFFFFFFF DUP2 GT ISZERO PUSH3 0x473 JUMPI PUSH3 0x472 PUSH3 0x1F2 JUMP JUMPDEST JUMPDEST PUSH3 0x47F DUP3 SLOAD PUSH3 0x24C JUMP JUMPDEST PUSH3 0x48C DUP3 DUP3 DUP6 PUSH3 0x3B5 JUMP JUMPDEST PUSH0 PUSH1 0x20 SWAP1 POP PUSH1 0x1F DUP4 GT PUSH1 0x1 DUP2 EQ PUSH3 0x4C2 JUMPI PUSH0 DUP5 ISZERO PUSH3 0x4AD JUMPI DUP3 DUP8 ADD MLOAD SWAP1 POP JUMPDEST PUSH3 0x4B9 DUP6 DUP3 PUSH3 0x42F JUMP JUMPDEST DUP7 SSTORE POP PUSH3 0x528 JUMP JUMPDEST PUSH1 0x1F NOT DUP5 AND PUSH3 0x4D2 DUP7 PUSH3 0x280 JUMP JUMPDEST PUSH0 JUMPDEST DUP3 DUP2 LT ISZERO PUSH3 0x4FB JUMPI DUP5 DUP10 ADD MLOAD DUP3 SSTORE PUSH1 0x1 DUP3 ADD SWAP2 POP PUSH1 0x20 DUP6 ADD SWAP5 POP PUSH1 0x20 DUP2 ADD SWAP1 POP PUSH3 0x4D4 JUMP JUMPDEST DUP7 DUP4 LT ISZERO PUSH3 0x51B JUMPI DUP5 DUP10 ADD MLOAD PUSH3 0x517 PUSH1 0x1F DUP10 AND DUP3 PUSH3 0x411 JUMP JUMPDEST DUP4 SSTORE POP JUMPDEST PUSH1 0x1 PUSH1 0x2 DUP9 MUL ADD DUP9 SSTORE POP POP POP JUMPDEST POP POP POP POP POP POP JUMP JUMPDEST PUSH0 PUSH1 0x40 MLOAD SWAP1 POP SWAP1 JUMP JUMPDEST PUSH0 DUP1 REVERT JUMPDEST PUSH0 DUP1 REVERT JUMPDEST PUSH0 DUP1 REVERT JUMPDEST PUSH0 DUP1 REVERT JUMPDEST PUSH0 PUSH1 0x1F NOT PUSH1 0x1F DUP4 ADD AND SWAP1 POP SWAP2 SWAP1 POP JUMP JUMPDEST PUSH3 0x564 DUP3 PUSH3 0x549 JUMP JUMPDEST DUP2 ADD DUP2 DUP2 LT PUSH8 0xFFFFFFFFFFFFFFFF DUP3 GT OR ISZERO PUSH3 0x586 JUMPI PUSH3 0x585 PUSH3 0x1F2 JUMP JUMPDEST JUMPDEST DUP1 PUSH1 0x40 MSTORE POP POP POP JUMP JUMPDEST PUSH0 PUSH3 0x59A PUSH3 0x530 JUMP JUMPDEST SWAP1 POP PUSH3 0x5A8 DUP3 DUP3 PUSH3 0x559 JUMP JUMPDEST SWAP2 SWAP1 POP JUMP JUMPDEST PUSH0 PUSH8 0xFFFFFFFFFFFFFFFF DUP3 GT ISZERO PUSH3 0x5CA JUMPI PUSH3 0x5C9 PUSH3 0x1F2 JUMP JUMPDEST JUMPDEST PUSH3 0x5D5 DUP3 PUSH3 0x549 JUMP JUMPDEST SWAP1 POP PUSH1 0x20 DUP2 ADD SWAP1 POP SWAP2 SWAP1 POP JUMP JUMPDEST PUSH0 JUMPDEST DUP4 DUP2 LT ISZERO PUSH3 0x601 JUMPI DUP1 DUP3 ADD MLOAD DUP2 DUP5 ADD MSTORE PUSH1 0x20 DUP2 ADD SWAP1 POP PUSH3 0x5E4 JUMP JUMPDEST PUSH0 DUP5 DUP5 ADD MSTORE POP POP POP POP JUMP JUMPDEST PUSH0 PUSH3 0x622 PUSH3 0x61C DUP5 PUSH3 0x5AD JUMP JUMPDEST PUSH3 0x58F JUMP JUMPDEST SWAP1 POP DUP3 DUP2 MSTORE PUSH1 0x20 DUP2 ADD DUP5 DUP5 DUP5 ADD GT ISZERO PUSH3 0x641 JUMPI PUSH3 0x640 PUSH3 0x545 JUMP JUMPDEST JUMPDEST PUSH3 0x64E DUP5 DUP3 DUP6 PUSH3 0x5E2 JUMP JUMPDEST POP SWAP4 SWAP3 POP POP POP JUMP JUMPDEST PUSH0 DUP3 PUSH1 0x1F DUP4 ADD SLT PUSH3 0x66D JUMPI PUSH3 0x66C PUSH3 0x541 JUMP JUMPDEST JUMPDEST DUP2 MLOAD PUSH3 0x67F DUP5 DUP3 PUSH1 0x20 DUP7 ADD PUSH3 0x60C JUMP JUMPDEST SWAP2 POP POP SWAP3 SWAP2 POP POP JUMP JUMPDEST PUSH0 PUSH20 0xFFFFFFFFFFFFFFFFFFFFFFFFFFFFFFFFFFFFFFFF DUP3 AND SWAP1 POP SWAP2 SWAP1 POP JUMP JUMPDEST PUSH0 PUSH3 0x6B3 DUP3 PUSH3 0x688 JUMP JUMPDEST SWAP1 POP SWAP2 SWAP1 POP JUMP JUMPDEST PUSH3 0x6C5 DUP2 PUSH3 0x6A7 JUMP JUMPDEST DUP2 EQ PUSH3 0x6D0 JUMPI PUSH0 DUP1 REVERT JUMPDEST POP JUMP JUMPDEST PUSH0 DUP2 MLOAD SWAP1 POP PUSH3 0x6E3 DUP2 PUSH3 0x6BA JUMP JUMPDEST SWAP3 SWAP2 POP POP JUMP JUMPDEST PUSH0 DUP1 PUSH0 PUSH1 0x60 DUP5 DUP7 SUB SLT ISZERO PUSH3 0x703 JUMPI PUSH3 0x702 PUSH3 0x539 JUMP JUMPDEST JUMPDEST PUSH0 DUP5 ADD MLOAD PUSH8 0xFFFFFFFFFFFFFFFF DUP2 GT ISZERO PUSH3 0x723 JUMPI PUSH3 0x722 PUSH3 0x53D JUMP JUMPDEST JUMPDEST PUSH3 0x731 DUP7 DUP3 DUP8 ADD PUSH3 0x656 JUMP JUMPDEST SWAP4 POP POP PUSH1 0x20 DUP5 ADD MLOAD PUSH8 0xFFFFFFFFFFFFFFFF DUP2 GT ISZERO PUSH3 0x755 JUMPI PUSH3 0x754 PUSH3 0x53D JUMP JUMPDEST JUMPDEST PUSH3 0x763 DUP7 DUP3 DUP8 ADD PUSH3 0x656 JUMP JUMPDEST SWAP3 POP POP PUSH1 0x40 PUSH3 0x776 DUP7 DUP3 DUP8 ADD PUSH3 0x6D3 JUMP JUMPDEST SWAP2 POP POP SWAP3 POP SWAP3 POP SWAP3 JUMP JUMPDEST PUSH3 0x78B DUP2 PUSH3 0x6A7 JUMP JUMPDEST DUP3 MSTORE POP POP JUMP JUMPDEST PUSH0 PUSH1 0x20 DUP3 ADD SWAP1 POP PUSH3 0x7A6 PUSH0 DUP4 ADD DUP5 PUSH3 0x780 JUMP JUMPDEST SWAP3 SWAP2 POP POP JUMP JUMPDEST PUSH2 0x2AED DUP1 PUSH3 0x7BA PUSH0 CODECOPY PUSH0 RETURN INVALID PUSH1 0x80 PUSH1 0x40 MSTORE PUSH1 0x4 CALLDATASIZE LT PUSH2 0x180 JUMPI PUSH0 CALLDATALOAD PUSH1 0xE0 SHR DUP1 PUSH4 0x715018A6 GT PUSH2 0xD0 JUMPI DUP1 PUSH4 0xB88D4FDE GT PUSH2 0x89 JUMPI DUP1 PUSH4 0xDC76668D GT PUSH2 0x63 JUMPI DUP1 PUSH4 0xDC76668D EQ PUSH2 0x548 JUMPI DUP1 PUSH4 0xE985E9C5 EQ PUSH2 0x570 JUMPI DUP1 PUSH4 0xF259A29E EQ PUSH2 0x5AC JUMPI DUP1 PUSH4 0xF2FDE38B EQ PUSH2 0x5D6 JUMPI PUSH2 0x180 JUMP JUMPDEST DUP1 PUSH4 0xB88D4FDE EQ PUSH2 0x4B4 JUMPI DUP1 PUSH4 0xBF1E5E9E EQ PUSH2 0x4D0 JUMPI DUP1 PUSH4 0xC87B56DD EQ PUSH2 0x50C JUMPI PUSH2 0x180 JUMP JUMPDEST DUP1 PUSH4 0x715018A6 EQ PUSH2 0x3BE JUMPI DUP1 PUSH4 0x8370D004 EQ PUSH2 0x3D4 JUMPI DUP1 PUSH4 0x8DA5CB5B EQ PUSH2 0x410 JUMPI DUP1 PUSH4 0x95D89B41 EQ PUSH2 0x43A JUMPI DUP1 PUSH4 0xA22CB465 EQ PUSH2 0x464 JUMPI DUP1 PUSH4 0xB6B285D9 EQ PUSH2 0x48C JUMPI PUSH2 0x180 JUMP JUMPDEST DUP1 PUSH4 0x23B872DD GT PUSH2 0x13D JUMPI DUP1 PUSH4 0x5503A0E8 GT PUSH2 0x117 JUMPI DUP1 PUSH4 0x5503A0E8 EQ PUSH2 0x2F4 JUMPI DUP1 PUSH4 0x55F804B3 EQ PUSH2 0x31E JUMPI DUP1 PUSH4 0x6352211E EQ PUSH2 0x346 JUMPI DUP1 PUSH4 0x70A08231 EQ PUSH2 0x382 JUMPI PUSH2 0x180 JUMP JUMPDEST DUP1 PUSH4 0x23B872DD EQ PUSH2 0x294 JUMPI DUP1 PUSH4 0x40C10F19 EQ PUSH2 0x2B0 JUMPI DUP1 PUSH4 0x42842E0E EQ PUSH2 0x2D8 JUMPI PUSH2 0x180 JUMP JUMPDEST DUP1 PUSH4 0x1FFC9A7 EQ PUSH2 0x184 JUMPI DUP1 PUSH4 0x6FDDE03 EQ PUSH2 0x1C0 JUMPI DUP1 PUSH4 0x81812FC EQ PUSH2 0x1EA JUMPI DUP1 PUSH4 0x95EA7B3 EQ PUSH2 0x226 JUMPI DUP1 PUSH4 0x16BA10E0 EQ PUSH2 0x242 JUMPI DUP1 PUSH4 0x18160DDD EQ PUSH2 0x26A JUMPI JUMPDEST PUSH0 DUP1 REVERT JUMPDEST CALLVALUE DUP1 ISZERO PUSH2 0x18F JUMPI PUSH0 DUP1 REVERT JUMPDEST POP PUSH2 0x1AA PUSH1 0x4 DUP1 CALLDATASIZE SUB DUP2 ADD SWAP1 PUSH2 0x1A5 SWAP2 SWAP1 PUSH2 0x1E58 JUMP JUMPDEST PUSH2 0x5FE JUMP JUMPDEST PUSH1 0x40 MLOAD PUSH2 0x1B7 SWAP2 SWAP1 PUSH2 0x1E9D JUMP JUMPDEST PUSH1 0x40 MLOAD DUP1 SWAP2 SUB SWAP1 RETURN JUMPDEST CALLVALUE DUP1 ISZERO PUSH2 0x1CB JUMPI PUSH0 DUP1 REVERT JUMPDEST POP PUSH2 0x1D4 PUSH2 0x68F JUMP JUMPDEST PUSH1 0x40 MLOAD PUSH2 0x1E1 SWAP2 SWAP1 PUSH2 0x1F40 JUMP JUMPDEST PUSH1 0x40 MLOAD DUP1 SWAP2 SUB SWAP1 RETURN JUMPDEST CALLVALUE DUP1 ISZERO PUSH2 0x1F5 JUMPI PUSH0 DUP1 REVERT JUMPDEST POP PUSH2 0x210 PUSH1 0x4 DUP1 CALLDATASIZE SUB DUP2 ADD SWAP1 PUSH2 0x20B SWAP2 SWAP1 PUSH2 0x1F93 JUMP JUMPDEST PUSH2 0x71F JUMP JUMPDEST PUSH1 0x40 MLOAD PUSH2 0x21D SWAP2 SWAP1 PUSH2 0x1FFD JUMP JUMPDEST PUSH1 0x40 MLOAD DUP1 SWAP2 SUB SWAP1 RETURN JUMPDEST PUSH2 0x240 PUSH1 0x4 DUP1 CALLDATASIZE SUB DUP2 ADD SWAP1 PUSH2 0x23B SWAP2 SWAP1 PUSH2 0x2040 JUMP JUMPDEST PUSH2 0x778 JUMP JUMPDEST STOP JUMPDEST CALLVALUE DUP1 ISZERO PUSH2 0x24D JUMPI PUSH0 DUP1 REVERT JUMPDEST POP PUSH2 0x268 PUSH1 0x4 DUP1 CALLDATASIZE SUB DUP2 ADD SWAP1 PUSH2 0x263 SWAP2 SWAP1 PUSH2 0x21AA JUMP JUMPDEST PUSH2 0x788 JUMP JUMPDEST STOP JUMPDEST CALLVALUE DUP1 ISZERO PUSH2 0x275 JUMPI PUSH0 DUP1 REVERT JUMPDEST POP PUSH2 0x27E PUSH2 0x7A3 JUMP JUMPDEST PUSH1 0x40 MLOAD PUSH2 0x28B SWAP2 SWAP1 PUSH2 0x2200 JUMP JUMPDEST PUSH1 0x40 MLOAD DUP1 SWAP2 SUB SWAP1 RETURN JUMPDEST PUSH2 0x2AE PUSH1 0x4 DUP1 CALLDATASIZE SUB DUP2 ADD SWAP1 PUSH2 0x2A9 SWAP2 SWAP1 PUSH2 0x2219 JUMP JUMPDEST PUSH2 0x7B9 JUMP JUMPDEST STOP JUMPDEST CALLVALUE DUP1 ISZERO PUSH2 0x2BB JUMPI PUSH0 DUP1 REVERT JUMPDEST POP PUSH2 0x2D6 PUSH1 0x4 DUP1 CALLDATASIZE SUB DUP2 ADD SWAP1 PUSH2 0x2D1 SWAP2 SWAP1 PUSH2 0x2040 JUMP JUMPDEST PUSH2 0xA65 JUMP JUMPDEST STOP JUMPDEST PUSH2 0x2F2 PUSH1 0x4 DUP1 CALLDATASIZE SUB DUP2 ADD SWAP1 PUSH2 0x2ED SWAP2 SWAP1 PUSH2 0x2219 JUMP JUMPDEST PUSH2 0xB03 JUMP JUMPDEST STOP JUMPDEST CALLVALUE DUP1 ISZERO PUSH2 0x2FF JUMPI PUSH0 DUP1 REVERT JUMPDEST POP PUSH2 0x308 PUSH2 0xB22 JUMP JUMPDEST PUSH1 0x40 MLOAD PUSH2 0x315 SWAP2 SWAP1 PUSH2 0x1F40 JUMP JUMPDEST PUSH1 0x40 MLOAD DUP1 SWAP2 SUB SWAP1 RETURN JUMPDEST CALLVALUE DUP1 ISZERO PUSH2 0x329 JUMPI PUSH0 DUP1 REVERT JUMPDEST POP PUSH2 0x344 PUSH1 0x4 DUP1 CALLDATASIZE SUB DUP2 ADD SWAP1 PUSH2 0x33F SWAP2 SWAP1 PUSH2 0x21AA JUMP JUMPDEST PUSH2 0xBAE JUMP JUMPDEST STOP JUMPDEST CALLVALUE DUP1 ISZERO PUSH2 0x351 JUMPI PUSH0 DUP1 REVERT JUMPDEST POP PUSH2 0x36C PUSH1 0x4 DUP1 CALLDATASIZE SUB DUP2 ADD SWAP1 PUSH2 0x367 SWAP2 SWAP1 PUSH2 0x1F93 JUMP JUMPDEST PUSH2 0xBC9 JUMP JUMPDEST PUSH1 0x40 MLOAD PUSH2 0x379 SWAP2 SWAP1 PUSH2 0x1FFD JUMP JUMPDEST PUSH1 0x40 MLOAD DUP1 SWAP2 SUB SWAP1 RETURN JUMPDEST CALLVALUE DUP1 ISZERO PUSH2 0x38D JUMPI PUSH0 DUP1 REVERT JUMPDEST POP PUSH2 0x3A8 PUSH1 0x4 DUP1 CALLDATASIZE SUB DUP2 ADD SWAP1 PUSH2 0x3A3 SWAP2 SWAP1 PUSH2 0x2269 JUMP JUMPDEST PUSH2 0xBDA JUMP JUMPDEST PUSH1 0x40 MLOAD PUSH2 0x3B5 SWAP2 SWAP1 PUSH2 0x2200 JUMP JUMPDEST PUSH1 0x40 MLOAD DUP1 SWAP2 SUB SWAP1 RETURN JUMPDEST CALLVALUE DUP1 ISZERO PUSH2 0x3C9 JUMPI PUSH0 DUP1 REVERT JUMPDEST POP PUSH2 0x3D2 PUSH2 0xC6E JUMP JUMPDEST STOP JUMPDEST CALLVALUE DUP1 ISZERO PUSH2 0x3DF JUMPI PUSH0 DUP1 REVERT JUMPDEST POP PUSH2 0x3FA PUSH1 0x4 DUP1 CALLDATASIZE SUB DUP2 ADD SWAP1 PUSH2 0x3F5 SWAP2 SWAP1 PUSH2 0x2294 JUMP JUMPDEST PUSH2 0xC81 JUMP JUMPDEST PUSH1 0x40 MLOAD PUSH2 0x407 SWAP2 SWAP1 PUSH2 0x1E9D JUMP JUMPDEST PUSH1 0x40 MLOAD DUP1 SWAP2 SUB SWAP1 RETURN JUMPDEST CALLVALUE DUP1 ISZERO PUSH2 0x41B JUMPI PUSH0 DUP1 REVERT JUMPDEST POP PUSH2 0x424 PUSH2 0xCE3 JUMP JUMPDEST PUSH1 0x40 MLOAD PUSH2 0x431 SWAP2 SWAP1 PUSH2 0x1FFD JUMP JUMPDEST PUSH1 0x40 MLOAD DUP1 SWAP2 SUB SWAP1 RETURN JUMPDEST CALLVALUE DUP1 ISZERO PUSH2 0x445 JUMPI PUSH0 DUP1 REVERT JUMPDEST POP PUSH2 0x44E PUSH2 0xD0A JUMP JUMPDEST PUSH1 0x40 MLOAD PUSH2 0x45B SWAP2 SWAP1 PUSH2 0x1F40 JUMP JUMPDEST PUSH1 0x40 MLOAD DUP1 SWAP2 SUB SWAP1 RETURN JUMPDEST CALLVALUE DUP1 ISZERO PUSH2 0x46F JUMPI PUSH0 DUP1 REVERT JUMPDEST POP PUSH2 0x48A PUSH1 0x4 DUP1 CALLDATASIZE SUB DUP2 ADD SWAP1 PUSH2 0x485 SWAP2 SWAP1 PUSH2 0x22FC JUMP JUMPDEST PUSH2 0xD9A JUMP JUMPDEST STOP JUMPDEST CALLVALUE DUP1 ISZERO PUSH2 0x497 JUMPI PUSH0 DUP1 REVERT JUMPDEST POP PUSH2 0x4B2 PUSH1 0x4 DUP1 CALLDATASIZE SUB DUP2 ADD SWAP1 PUSH2 0x4AD SWAP2 SWAP1 PUSH2 0x2269 JUMP JUMPDEST PUSH2 0xEA0 JUMP JUMPDEST STOP JUMPDEST PUSH2 0x4CE PUSH1 0x4 DUP1 CALLDATASIZE SUB DUP2 ADD SWAP1 PUSH2 0x4C9 SWAP2 SWAP1 PUSH2 0x23D8 JUMP JUMPDEST PUSH2 0xF00 JUMP JUMPDEST STOP JUMPDEST CALLVALUE DUP1 ISZERO PUSH2 0x4DB JUMPI PUSH0 DUP1 REVERT JUMPDEST POP PUSH2 0x4F6 PUSH1 0x4 DUP1 CALLDATASIZE SUB DUP2 ADD SWAP1 PUSH2 0x4F1 SWAP2 SWAP1 PUSH2 0x2269 JUMP JUMPDEST PUSH2 0xF51 JUMP JUMPDEST PUSH1 0x40 MLOAD PUSH2 0x503 SWAP2 SWAP1 PUSH2 0x250F JUMP JUMPDEST PUSH1 0x40 MLOAD DUP1 SWAP2 SUB SWAP1 RETURN JUMPDEST CALLVALUE DUP1 ISZERO PUSH2 0x517 JUMPI PUSH0 DUP1 REVERT JUMPDEST POP PUSH2 0x532 PUSH1 0x4 DUP1 CALLDATASIZE SUB DUP2 ADD SWAP1 PUSH2 0x52D SWAP2 SWAP1 PUSH2 0x1F93 JUMP JUMPDEST PUSH2 0xFE4 JUMP JUMPDEST PUSH1 0x40 MLOAD PUSH2 0x53F SWAP2 SWAP1 PUSH2 0x1F40 JUMP JUMPDEST PUSH1 0x40 MLOAD DUP1 SWAP2 SUB SWAP1 RETURN JUMPDEST CALLVALUE DUP1 ISZERO PUSH2 0x553 JUMPI PUSH0 DUP1 REVERT JUMPDEST POP PUSH2 0x56E PUSH1 0x4 DUP1 CALLDATASIZE SUB DUP2 ADD SWAP1 PUSH2 0x569 SWAP2 SWAP1 PUSH2 0x1F93 JUMP JUMPDEST PUSH2 0x1061 JUMP JUMPDEST STOP JUMPDEST CALLVALUE DUP1 ISZERO PUSH2 0x57B JUMPI PUSH0 DUP1 REVERT JUMPDEST POP PUSH2 0x596 PUSH1 0x4 DUP1 CALLDATASIZE SUB DUP2 ADD SWAP1 PUSH2 0x591 SWAP2 SWAP1 PUSH2 0x252F JUMP JUMPDEST PUSH2 0x1171 JUMP JUMPDEST PUSH1 0x40 MLOAD PUSH2 0x5A3 SWAP2 SWAP1 PUSH2 0x1E9D JUMP JUMPDEST PUSH1 0x40 MLOAD DUP1 SWAP2 SUB SWAP1 RETURN JUMPDEST CALLVALUE DUP1 ISZERO PUSH2 0x5B7 JUMPI PUSH0 DUP1 REVERT JUMPDEST POP PUSH2 0x5C0 PUSH2 0x11FF JUMP JUMPDEST PUSH1 0x40 MLOAD PUSH2 0x5CD SWAP2 SWAP1 PUSH2 0x1F40 JUMP JUMPDEST PUSH1 0x40 MLOAD DUP1 SWAP2 SUB SWAP1 RETURN JUMPDEST CALLVALUE DUP1 ISZERO PUSH2 0x5E1 JUMPI PUSH0 DUP1 REVERT JUMPDEST POP PUSH2 0x5FC PUSH1 0x4 DUP1 CALLDATASIZE SUB DUP2 ADD SWAP1 PUSH2 0x5F7 SWAP2 SWAP1 PUSH2 0x2269 JUMP JUMPDEST PUSH2 0x128B JUMP JUMPDEST STOP JUMPDEST PUSH0 PUSH4 0x1FFC9A7 PUSH1 0xE0 SHL DUP3 PUSH28 0xFFFFFFFFFFFFFFFFFFFFFFFFFFFFFFFFFFFFFFFFFFFFFFFFFFFFFFFF NOT AND EQ DUP1 PUSH2 0x658 JUMPI POP PUSH4 0x80AC58CD PUSH1 0xE0 SHL DUP3 PUSH28 0xFFFFFFFFFFFFFFFFFFFFFFFFFFFFFFFFFFFFFFFFFFFFFFFFFFFFFFFF NOT AND EQ JUMPDEST DUP1 PUSH2 0x688 JUMPI POP PUSH4 0x5B5E139F PUSH1 0xE0 SHL DUP3 PUSH28 0xFFFFFFFFFFFFFFFFFFFFFFFFFFFFFFFFFFFFFFFFFFFFFFFFFFFFFFFF NOT AND EQ JUMPDEST SWAP1 POP SWAP2 SWAP1 POP JUMP JUMPDEST PUSH1 0x60 PUSH1 0x3 DUP1 SLOAD PUSH2 0x69E SWAP1 PUSH2 0x259A JUMP JUMPDEST DUP1 PUSH1 0x1F ADD PUSH1 0x20 DUP1 SWAP2 DIV MUL PUSH1 0x20 ADD PUSH1 0x40 MLOAD SWAP1 DUP2 ADD PUSH1 0x40 MSTORE DUP1 SWAP3 SWAP2 SWAP1 DUP2 DUP2 MSTORE PUSH1 0x20 ADD DUP3 DUP1 SLOAD PUSH2 0x6CA SWAP1 PUSH2 0x259A JUMP JUMPDEST DUP1 ISZERO PUSH2 0x715 JUMPI DUP1 PUSH1 0x1F LT PUSH2 0x6EC JUMPI PUSH2 0x100 DUP1 DUP4 SLOAD DIV MUL DUP4 MSTORE SWAP2 PUSH1 0x20 ADD SWAP2 PUSH2 0x715 JUMP JUMPDEST DUP3 ADD SWAP2 SWAP1 PUSH0 MSTORE PUSH1 0x20 PUSH0 KECCAK256 SWAP1 JUMPDEST DUP2 SLOAD DUP2 MSTORE SWAP1 PUSH1 0x1 ADD SWAP1 PUSH1 0x20 ADD DUP1 DUP4 GT PUSH2 0x6F8 JUMPI DUP3 SWAP1 SUB PUSH1 0x1F AND DUP3 ADD SWAP2 JUMPDEST POP POP POP POP POP SWAP1 POP SWAP1 JUMP JUMPDEST PUSH0 PUSH2 0x729 DUP3 PUSH2 0x130F JUMP JUMPDEST PUSH2 0x73E JUMPI PUSH2 0x73D PUSH4 0xCF4700E4 PUSH1 0xE0 SHL PUSH2 0x1382 JUMP JUMPDEST JUMPDEST PUSH1 0xD PUSH0 DUP4 DUP2 MSTORE PUSH1 0x20 ADD SWAP1 DUP2 MSTORE PUSH1 0x20 ADD PUSH0 KECCAK256 PUSH0 ADD PUSH0 SWAP1 SLOAD SWAP1 PUSH2 0x100 EXP SWAP1 DIV PUSH20 0xFFFFFFFFFFFFFFFFFFFFFFFFFFFFFFFFFFFFFFFF AND SWAP1 POP SWAP2 SWAP1 POP JUMP JUMPDEST PUSH2 0x784 DUP3 DUP3 PUSH1 0x1 PUSH2 0x138A JUMP JUMPDEST POP POP JUMP JUMPDEST PUSH2 0x790 PUSH2 0x14B4 JUMP JUMPDEST DUP1 PUSH1 0x6 SWAP1 DUP2 PUSH2 0x79F SWAP2 SWAP1 PUSH2 0x2767 JUMP JUMPDEST POP POP JUMP JUMPDEST PUSH0 PUSH2 0x7AC PUSH2 0x153B JUMP JUMPDEST PUSH1 0x2 SLOAD PUSH1 0x1 SLOAD SUB SUB SWAP1 POP SWAP1 JUMP JUMPDEST PUSH0 PUSH2 0x7C3 DUP3 PUSH2 0x1543 JUMP JUMPDEST SWAP1 POP PUSH20 0xFFFFFFFFFFFFFFFFFFFFFFFFFFFFFFFFFFFFFFFF DUP5 PUSH20 0xFFFFFFFFFFFFFFFFFFFFFFFFFFFFFFFFFFFFFFFF AND AND SWAP4 POP DUP4 PUSH20 0xFFFFFFFFFFFFFFFFFFFFFFFFFFFFFFFFFFFFFFFF AND DUP2 PUSH20 0xFFFFFFFFFFFFFFFFFFFFFFFFFFFFFFFFFFFFFFFF AND EQ PUSH2 0x838 JUMPI PUSH2 0x837 PUSH4 0xA1148100 PUSH1 0xE0 SHL PUSH2 0x1382 JUMP JUMPDEST JUMPDEST PUSH0 DUP1 PUSH2 0x843 DUP5 PUSH2 0x1626 JUMP JUMPDEST SWAP2 POP SWAP2 POP PUSH2 0x859 DUP2 DUP8 PUSH2 0x854 PUSH2 0x1649 JUMP JUMPDEST PUSH2 0x1650 JUMP JUMPDEST PUSH2 0x884 JUMPI PUSH2 0x86E DUP7 PUSH2 0x869 PUSH2 0x1649 JUMP JUMPDEST PUSH2 0x1171 JUMP JUMPDEST PUSH2 0x883 JUMPI PUSH2 0x882 PUSH4 0x59C896BE PUSH1 0xE0 SHL PUSH2 0x1382 JUMP JUMPDEST JUMPDEST JUMPDEST PUSH2 0x891 DUP7 DUP7 DUP7 PUSH1 0x1 PUSH2 0x1693 JUMP JUMPDEST DUP1 ISZERO PUSH2 0x89B JUMPI PUSH0 DUP3 SSTORE JUMPDEST PUSH1 0xC PUSH0 DUP8 PUSH20 0xFFFFFFFFFFFFFFFFFFFFFFFFFFFFFFFFFFFFFFFF AND PUSH20 0xFFFFFFFFFFFFFFFFFFFFFFFFFFFFFFFFFFFFFFFF AND DUP2 MSTORE PUSH1 0x20 ADD SWAP1 DUP2 MSTORE PUSH1 0x20 ADD PUSH0 KECCAK256 PUSH0 DUP2 SLOAD PUSH1 0x1 SWAP1 SUB SWAP2 SWAP1 POP DUP2 SWAP1 SSTORE POP PUSH1 0xC PUSH0 DUP7 PUSH20 0xFFFFFFFFFFFFFFFFFFFFFFFFFFFFFFFFFFFFFFFF AND PUSH20 0xFFFFFFFFFFFFFFFFFFFFFFFFFFFFFFFFFFFFFFFF AND DUP2 MSTORE PUSH1 0x20 ADD SWAP1 DUP2 MSTORE PUSH1 0x20 ADD PUSH0 KECCAK256 PUSH0 DUP2 SLOAD PUSH1 0x1 ADD SWAP2 SWAP1 POP DUP2 SWAP1 SSTORE POP PUSH2 0x963 DUP6 PUSH2 0x93F DUP9 DUP9 DUP8 PUSH2 0x1699 JUMP JUMPDEST PUSH29 0x200000000000000000000000000000000000000000000000000000000 OR PUSH2 0x16C0 JUMP JUMPDEST PUSH1 0xB PUSH0 DUP7 DUP2 MSTORE PUSH1 0x20 ADD SWAP1 DUP2 MSTORE PUSH1 0x20 ADD PUSH0 KECCAK256 DUP2 SWAP1 SSTORE POP PUSH0 PUSH29 0x200000000000000000000000000000000000000000000000000000000 DUP5 AND SUB PUSH2 0x9E0 JUMPI PUSH0 PUSH1 0x1 DUP6 ADD SWAP1 POP PUSH0 PUSH1 0xB PUSH0 DUP4 DUP2 MSTORE PUSH1 0x20 ADD SWAP1 DUP2 MSTORE PUSH1 0x20 ADD PUSH0 KECCAK256 SLOAD SUB PUSH2 0x9DE JUMPI PUSH1 0x1 SLOAD DUP2 EQ PUSH2 0x9DD JUMPI DUP4 PUSH1 0xB PUSH0 DUP4 DUP2 MSTORE PUSH1 0x20 ADD SWAP1 DUP2 MSTORE PUSH1 0x20 ADD PUSH0 KECCAK256 DUP2 SWAP1 SSTORE POP JUMPDEST JUMPDEST POP JUMPDEST PUSH0 PUSH20 0xFFFFFFFFFFFFFFFFFFFFFFFFFFFFFFFFFFFFFFFF DUP7 PUSH20 0xFFFFFFFFFFFFFFFFFFFFFFFFFFFFFFFFFFFFFFFF AND AND SWAP1 POP DUP5 DUP2 DUP9 PUSH32 0xDDF252AD1BE2C89B69C2B068FC378DAA952BA7F163C4A11628F55A4DF523B3EF PUSH0 DUP1 LOG4 PUSH0 DUP2 SUB PUSH2 0xA4F JUMPI PUSH2 0xA4E PUSH4 0xEA553B34 PUSH1 0xE0 SHL PUSH2 0x1382 JUMP JUMPDEST JUMPDEST PUSH2 0xA5C DUP8 DUP8 DUP8 PUSH1 0x1 PUSH2 0x16EA JUMP JUMPDEST POP POP POP POP POP POP POP JUMP JUMPDEST PUSH1 0x1 ISZERO ISZERO PUSH1 0x9 PUSH0 CALLER PUSH20 0xFFFFFFFFFFFFFFFFFFFFFFFFFFFFFFFFFFFFFFFF AND PUSH20 0xFFFFFFFFFFFFFFFFFFFFFFFFFFFFFFFFFFFFFFFF AND DUP2 MSTORE PUSH1 0x20 ADD SWAP1 DUP2 MSTORE PUSH1 0x20 ADD PUSH0 KECCAK256 PUSH0 SWAP1 SLOAD SWAP1 PUSH2 0x100 EXP SWAP1 DIV PUSH1 0xFF AND ISZERO ISZERO EQ PUSH2 0xAF5 JUMPI PUSH1 0x40 MLOAD PUSH32 0x8C379A000000000000000000000000000000000000000000000000000000000 DUP2 MSTORE PUSH1 0x4 ADD PUSH2 0xAEC SWAP1 PUSH2 0x2880 JUMP JUMPDEST PUSH1 0x40 MLOAD DUP1 SWAP2 SUB SWAP1 REVERT JUMPDEST PUSH2 0xAFF DUP3 DUP3 PUSH2 0x16F0 JUMP JUMPDEST POP POP JUMP JUMPDEST PUSH2 0xB1D DUP4 DUP4 DUP4 PUSH1 0x40 MLOAD DUP1 PUSH1 0x20 ADD PUSH1 0x40 MSTORE DUP1 PUSH0 DUP2 MSTORE POP PUSH2 0xF00 JUMP JUMPDEST POP POP POP JUMP JUMPDEST PUSH1 0x6 DUP1 SLOAD PUSH2 0xB2F SWAP1 PUSH2 0x259A JUMP JUMPDEST DUP1 PUSH1 0x1F ADD PUSH1 0x20 DUP1 SWAP2 DIV MUL PUSH1 0x20 ADD PUSH1 0x40 MLOAD SWAP1 DUP2 ADD PUSH1 0x40 MSTORE DUP1 SWAP3 SWAP2 SWAP1 DUP2 DUP2 MSTORE PUSH1 0x20 ADD DUP3 DUP1 SLOAD PUSH2 0xB5B SWAP1 PUSH2 0x259A JUMP JUMPDEST DUP1 ISZERO PUSH2 0xBA6 JUMPI DUP1 PUSH1 0x1F LT PUSH2 0xB7D JUMPI PUSH2 0x100 DUP1 DUP4 SLOAD DIV MUL DUP4 MSTORE SWAP2 PUSH1 0x20 ADD SWAP2 PUSH2 0xBA6 JUMP JUMPDEST DUP3 ADD SWAP2 SWAP1 PUSH0 MSTORE PUSH1 0x20 PUSH0 KECCAK256 SWAP1 JUMPDEST DUP2 SLOAD DUP2 MSTORE SWAP1 PUSH1 0x1 ADD SWAP1 PUSH1 0x20 ADD DUP1 DUP4 GT PUSH2 0xB89 JUMPI DUP3 SWAP1 SUB PUSH1 0x1F AND DUP3 ADD SWAP2 JUMPDEST POP POP POP POP POP DUP2 JUMP JUMPDEST PUSH2 0xBB6 PUSH2 0x14B4 JUMP JUMPDEST DUP1 PUSH1 0x5 SWAP1 DUP2 PUSH2 0xBC5 SWAP2 SWAP1 PUSH2 0x2767 JUMP JUMPDEST POP POP JUMP JUMPDEST PUSH0 PUSH2 0xBD3 DUP3 PUSH2 0x1543 JUMP JUMPDEST SWAP1 POP SWAP2 SWAP1 POP JUMP JUMPDEST PUSH0 DUP1 PUSH20 0xFFFFFFFFFFFFFFFFFFFFFFFFFFFFFFFFFFFFFFFF AND DUP3 PUSH20 0xFFFFFFFFFFFFFFFFFFFFFFFFFFFFFFFFFFFFFFFF AND SUB PUSH2 0xC1F JUMPI PUSH2 0xC1E PUSH4 0x8F4EB604 PUSH1 0xE0 SHL PUSH2 0x1382 JUMP JUMPDEST JUMPDEST PUSH8 0xFFFFFFFFFFFFFFFF PUSH1 0xC PUSH0 DUP5 PUSH20 0xFFFFFFFFFFFFFFFFFFFFFFFFFFFFFFFFFFFFFFFF AND PUSH20 0xFFFFFFFFFFFFFFFFFFFFFFFFFFFFFFFFFFFFFFFF AND DUP2 MSTORE PUSH1 0x20 ADD SWAP1 DUP2 MSTORE PUSH1 0x20 ADD PUSH0 KECCAK256 SLOAD AND SWAP1 POP SWAP2 SWAP1 POP JUMP JUMPDEST PUSH2 0xC76 PUSH2 0x14B4 JUMP JUMPDEST PUSH2 0xC7F PUSH0 PUSH2 0x170D JUMP JUMPDEST JUMP JUMPDEST PUSH0 PUSH1 0xA PUSH0 DUP4 PUSH20 0xFFFFFFFFFFFFFFFFFFFFFFFFFFFFFFFFFFFFFFFF AND PUSH20 0xFFFFFFFFFFFFFFFFFFFFFFFFFFFFFFFFFFFFFFFF AND DUP2 MSTORE PUSH1 0x20 ADD SWAP1 DUP2 MSTORE PUSH1 0x20 ADD PUSH0 KECCAK256 PUSH0 DUP5 DUP2 MSTORE PUSH1 0x20 ADD SWAP1 DUP2 MSTORE PUSH1 0x20 ADD PUSH0 KECCAK256 PUSH0 SWAP1 SLOAD SWAP1 PUSH2 0x100 EXP SWAP1 DIV PUSH1 0xFF AND SWAP1 POP SWAP3 SWAP2 POP POP JUMP JUMPDEST PUSH0 DUP1 PUSH0 SWAP1 SLOAD SWAP1 PUSH2 0x100 EXP SWAP1 DIV PUSH20 0xFFFFFFFFFFFFFFFFFFFFFFFFFFFFFFFFFFFFFFFF AND SWAP1 POP SWAP1 JUMP JUMPDEST PUSH1 0x60 PUSH1 0x4 DUP1 SLOAD PUSH2 0xD19 SWAP1 PUSH2 0x259A JUMP JUMPDEST DUP1 PUSH1 0x1F ADD PUSH1 0x20 DUP1 SWAP2 DIV MUL PUSH1 0x20 ADD PUSH1 0x40 MLOAD SWAP1 DUP2 ADD PUSH1 0x40 MSTORE DUP1 SWAP3 SWAP2 SWAP1 DUP2 DUP2 MSTORE PUSH1 0x20 ADD DUP3 DUP1 SLOAD PUSH2 0xD45 SWAP1 PUSH2 0x259A JUMP JUMPDEST DUP1 ISZERO PUSH2 0xD90 JUMPI DUP1 PUSH1 0x1F LT PUSH2 0xD67 JUMPI PUSH2 0x100 DUP1 DUP4 SLOAD DIV MUL DUP4 MSTORE SWAP2 PUSH1 0x20 ADD SWAP2 PUSH2 0xD90 JUMP JUMPDEST DUP3 ADD SWAP2 SWAP1 PUSH0 MSTORE PUSH1 0x20 PUSH0 KECCAK256 SWAP1 JUMPDEST DUP2 SLOAD DUP2 MSTORE SWAP1 PUSH1 0x1 ADD SWAP1 PUSH1 0x20 ADD DUP1 DUP4 GT PUSH2 0xD73 JUMPI DUP3 SWAP1 SUB PUSH1 0x1F AND DUP3 ADD SWAP2 JUMPDEST POP POP POP POP POP SWAP1 POP SWAP1 JUMP JUMPDEST DUP1 PUSH1 0xE PUSH0 PUSH2 0xDA6 PUSH2 0x1649 JUMP JUMPDEST PUSH20 0xFFFFFFFFFFFFFFFFFFFFFFFFFFFFFFFFFFFFFFFF AND PUSH20 0xFFFFFFFFFFFFFFFFFFFFFFFFFFFFFFFFFFFFFFFF AND DUP2 MSTORE PUSH1 0x20 ADD SWAP1 DUP2 MSTORE PUSH1 0x20 ADD PUSH0 KECCAK256 PUSH0 DUP5 PUSH20 0xFFFFFFFFFFFFFFFFFFFFFFFFFFFFFFFFFFFFFFFF AND PUSH20 0xFFFFFFFFFFFFFFFFFFFFFFFFFFFFFFFFFFFFFFFF AND DUP2 MSTORE PUSH1 0x20 ADD SWAP1 DUP2 MSTORE PUSH1 0x20 ADD PUSH0 KECCAK256 PUSH0 PUSH2 0x100 EXP DUP2 SLOAD DUP2 PUSH1 0xFF MUL NOT AND SWAP1 DUP4 ISZERO ISZERO MUL OR SWAP1 SSTORE POP DUP2 PUSH20 0xFFFFFFFFFFFFFFFFFFFFFFFFFFFFFFFFFFFFFFFF AND PUSH2 0xE4F PUSH2 0x1649 JUMP JUMPDEST PUSH20 0xFFFFFFFFFFFFFFFFFFFFFFFFFFFFFFFFFFFFFFFF AND PUSH32 0x17307EAB39AB6107E8899845AD3D59BD9653F200F220920489CA2B5937696C31 DUP4 PUSH1 0x40 MLOAD PUSH2 0xE94 SWAP2 SWAP1 PUSH2 0x1E9D JUMP JUMPDEST PUSH1 0x40 MLOAD DUP1 SWAP2 SUB SWAP1 LOG3 POP POP JUMP JUMPDEST PUSH2 0xEA8 PUSH2 0x14B4 JUMP JUMPDEST PUSH1 0x1 PUSH1 0x9 PUSH0 DUP4 PUSH20 0xFFFFFFFFFFFFFFFFFFFFFFFFFFFFFFFFFFFFFFFF AND PUSH20 0xFFFFFFFFFFFFFFFFFFFFFFFFFFFFFFFFFFFFFFFF AND DUP2 MSTORE PUSH1 0x20 ADD SWAP1 DUP2 MSTORE PUSH1 0x20 ADD PUSH0 KECCAK256 PUSH0 PUSH2 0x100 EXP DUP2 SLOAD DUP2 PUSH1 0xFF MUL NOT AND SWAP1 DUP4 ISZERO ISZERO MUL OR SWAP1 SSTORE POP POP JUMP JUMPDEST PUSH2 0xF0B DUP5 DUP5 DUP5 PUSH2 0x7B9 JUMP JUMPDEST PUSH0 DUP4 PUSH20 0xFFFFFFFFFFFFFFFFFFFFFFFFFFFFFFFFFFFFFFFF AND EXTCODESIZE EQ PUSH2 0xF4B JUMPI PUSH2 0xF35 DUP5 DUP5 DUP5 DUP5 PUSH2 0x17CE JUMP JUMPDEST PUSH2 0xF4A JUMPI PUSH2 0xF49 PUSH4 0xD1A57ED6 PUSH1 0xE0 SHL PUSH2 0x1382 JUMP JUMPDEST JUMPDEST JUMPDEST POP POP POP POP JUMP JUMPDEST PUSH1 0x60 PUSH1 0x7 PUSH0 DUP4 PUSH20 0xFFFFFFFFFFFFFFFFFFFFFFFFFFFFFFFFFFFFFFFF AND PUSH20 0xFFFFFFFFFFFFFFFFFFFFFFFFFFFFFFFFFFFFFFFF AND DUP2 MSTORE PUSH1 0x20 ADD SWAP1 DUP2 MSTORE PUSH1 0x20 ADD PUSH0 KECCAK256 DUP1 SLOAD DUP1 PUSH1 0x20 MUL PUSH1 0x20 ADD PUSH1 0x40 MLOAD SWAP1 DUP2 ADD PUSH1 0x40 MSTORE DUP1 SWAP3 SWAP2 SWAP1 DUP2 DUP2 MSTORE PUSH1 0x20 ADD DUP3 DUP1 SLOAD DUP1 ISZERO PUSH2 0xFD8 JUMPI PUSH1 0x20 MUL DUP3 ADD SWAP2 SWAP1 PUSH0 MSTORE PUSH1 0x20 PUSH0 KECCAK256 SWAP1 JUMPDEST DUP2 SLOAD DUP2 MSTORE PUSH1 0x20 ADD SWAP1 PUSH1 0x1 ADD SWAP1 DUP1 DUP4 GT PUSH2 0xFC4 JUMPI JUMPDEST POP POP POP POP POP SWAP1 POP SWAP2 SWAP1 POP JUMP JUMPDEST PUSH1 0x60 PUSH2 0xFEF DUP3 PUSH2 0x130F JUMP JUMPDEST PUSH2 0x1004 JUMPI PUSH2 0x1003 PUSH4 0xA14C4B50 PUSH1 0xE0 SHL PUSH2 0x1382 JUMP JUMPDEST JUMPDEST PUSH0 PUSH2 0x100D PUSH2 0x18F8 JUMP JUMPDEST SWAP1 POP PUSH0 DUP2 MLOAD SUB PUSH2 0x102B JUMPI PUSH1 0x40 MLOAD DUP1 PUSH1 0x20 ADD PUSH1 0x40 MSTORE DUP1 PUSH0 DUP2 MSTORE POP PUSH2 0x1059 JUMP JUMPDEST DUP1 PUSH2 0x1035 DUP5 PUSH2 0x1988 JUMP JUMPDEST PUSH1 0x6 PUSH1 0x40 MLOAD PUSH1 0x20 ADD PUSH2 0x1049 SWAP4 SWAP3 SWAP2 SWAP1 PUSH2 0x2958 JUMP JUMPDEST PUSH1 0x40 MLOAD PUSH1 0x20 DUP2 DUP4 SUB SUB DUP2 MSTORE SWAP1 PUSH1 0x40 MSTORE JUMPDEST SWAP2 POP POP SWAP2 SWAP1 POP JUMP JUMPDEST CALLER PUSH20 0xFFFFFFFFFFFFFFFFFFFFFFFFFFFFFFFFFFFFFFFF AND PUSH2 0x1081 DUP3 PUSH2 0xBC9 JUMP JUMPDEST PUSH20 0xFFFFFFFFFFFFFFFFFFFFFFFFFFFFFFFFFFFFFFFF AND EQ PUSH2 0x10A0 JUMPI PUSH0 DUP1 REVERT JUMPDEST PUSH1 0x1 PUSH1 0xA PUSH0 CALLER PUSH20 0xFFFFFFFFFFFFFFFFFFFFFFFFFFFFFFFFFFFFFFFF AND PUSH20 0xFFFFFFFFFFFFFFFFFFFFFFFFFFFFFFFFFFFFFFFF AND DUP2 MSTORE PUSH1 0x20 ADD SWAP1 DUP2 MSTORE PUSH1 0x20 ADD PUSH0 KECCAK256 PUSH0 DUP4 DUP2 MSTORE PUSH1 0x20 ADD SWAP1 DUP2 MSTORE PUSH1 0x20 ADD PUSH0 KECCAK256 PUSH0 PUSH2 0x100 EXP DUP2 SLOAD DUP2 PUSH1 0xFF MUL NOT AND SWAP1 DUP4 ISZERO ISZERO MUL OR SWAP1 SSTORE POP PUSH1 0x7 PUSH0 CALLER PUSH20 0xFFFFFFFFFFFFFFFFFFFFFFFFFFFFFFFFFFFFFFFF AND PUSH20 0xFFFFFFFFFFFFFFFFFFFFFFFFFFFFFFFFFFFFFFFF AND DUP2 MSTORE PUSH1 0x20 ADD SWAP1 DUP2 MSTORE PUSH1 0x20 ADD PUSH0 KECCAK256 DUP2 SWAP1 DUP1 PUSH1 0x1 DUP2 SLOAD ADD DUP1 DUP3 SSTORE DUP1 SWAP2 POP POP PUSH1 0x1 SWAP1 SUB SWAP1 PUSH0 MSTORE PUSH1 0x20 PUSH0 KECCAK256 ADD PUSH0 SWAP1 SWAP2 SWAP1 SWAP2 SWAP1 SWAP2 POP SSTORE PUSH2 0x116E DUP2 PUSH2 0x19D7 JUMP JUMPDEST POP JUMP JUMPDEST PUSH0 PUSH1 0xE PUSH0 DUP5 PUSH20 0xFFFFFFFFFFFFFFFFFFFFFFFFFFFFFFFFFFFFFFFF AND PUSH20 0xFFFFFFFFFFFFFFFFFFFFFFFFFFFFFFFFFFFFFFFF AND DUP2 MSTORE PUSH1 0x20 ADD SWAP1 DUP2 MSTORE PUSH1 0x20 ADD PUSH0 KECCAK256 PUSH0 DUP4 PUSH20 0xFFFFFFFFFFFFFFFFFFFFFFFFFFFFFFFFFFFFFFFF AND PUSH20 0xFFFFFFFFFFFFFFFFFFFFFFFFFFFFFFFFFFFFFFFF AND DUP2 MSTORE PUSH1 0x20 ADD SWAP1 DUP2 MSTORE PUSH1 0x20 ADD PUSH0 KECCAK256 PUSH0 SWAP1 SLOAD SWAP1 PUSH2 0x100 EXP SWAP1 DIV PUSH1 0xFF AND SWAP1 POP SWAP3 SWAP2 POP POP JUMP JUMPDEST PUSH1 0x5 DUP1 SLOAD PUSH2 0x120C SWAP1 PUSH2 0x259A JUMP JUMPDEST DUP1 PUSH1 0x1F ADD PUSH1 0x20 DUP1 SWAP2 DIV MUL PUSH1 0x20 ADD PUSH1 0x40 MLOAD SWAP1 DUP2 ADD PUSH1 0x40 MSTORE DUP1 SWAP3 SWAP2 SWAP1 DUP2 DUP2 MSTORE PUSH1 0x20 ADD DUP3 DUP1 SLOAD PUSH2 0x1238 SWAP1 PUSH2 0x259A JUMP JUMPDEST DUP1 ISZERO PUSH2 0x1283 JUMPI DUP1 PUSH1 0x1F LT PUSH2 0x125A JUMPI PUSH2 0x100 DUP1 DUP4 SLOAD DIV MUL DUP4 MSTORE SWAP2 PUSH1 0x20 ADD SWAP2 PUSH2 0x1283 JUMP JUMPDEST DUP3 ADD SWAP2 SWAP1 PUSH0 MSTORE PUSH1 0x20 PUSH0 KECCAK256 SWAP1 JUMPDEST DUP2 SLOAD DUP2 MSTORE SWAP1 PUSH1 0x1 ADD SWAP1 PUSH1 0x20 ADD DUP1 DUP4 GT PUSH2 0x1266 JUMPI DUP3 SWAP1 SUB PUSH1 0x1F AND DUP3 ADD SWAP2 JUMPDEST POP POP POP POP POP DUP2 JUMP JUMPDEST PUSH2 0x1293 PUSH2 0x14B4 JUMP JUMPDEST PUSH0 PUSH20 0xFFFFFFFFFFFFFFFFFFFFFFFFFFFFFFFFFFFFFFFF AND DUP2 PUSH20 0xFFFFFFFFFFFFFFFFFFFFFFFFFFFFFFFFFFFFFFFF AND SUB PUSH2 0x1303 JUMPI PUSH0 PUSH1 0x40 MLOAD PUSH32 0x1E4FBDF700000000000000000000000000000000000000000000000000000000 DUP2 MSTORE PUSH1 0x4 ADD PUSH2 0x12FA SWAP2 SWAP1 PUSH2 0x1FFD JUMP JUMPDEST PUSH1 0x40 MLOAD DUP1 SWAP2 SUB SWAP1 REVERT JUMPDEST PUSH2 0x130C DUP2 PUSH2 0x170D JUMP JUMPDEST POP JUMP JUMPDEST PUSH0 DUP2 PUSH2 0x1319 PUSH2 0x153B JUMP JUMPDEST GT PUSH2 0x137D JUMPI PUSH1 0x1 SLOAD DUP3 LT ISZERO PUSH2 0x137C JUMPI PUSH0 JUMPDEST PUSH0 PUSH1 0xB PUSH0 DUP6 DUP2 MSTORE PUSH1 0x20 ADD SWAP1 DUP2 MSTORE PUSH1 0x20 ADD PUSH0 KECCAK256 SLOAD SWAP2 POP DUP2 SUB PUSH2 0x1356 JUMPI DUP3 PUSH2 0x134F SWAP1 PUSH2 0x29B5 JUMP JUMPDEST SWAP3 POP PUSH2 0x132A JUMP JUMPDEST PUSH0 PUSH29 0x100000000000000000000000000000000000000000000000000000000 DUP3 AND EQ SWAP2 POP POP JUMPDEST JUMPDEST SWAP2 SWAP1 POP JUMP JUMPDEST DUP1 PUSH0 MSTORE PUSH1 0x4 PUSH0 REVERT JUMPDEST PUSH0 PUSH2 0x1394 DUP4 PUSH2 0xBC9 JUMP JUMPDEST SWAP1 POP DUP2 DUP1 ISZERO PUSH2 0x13D6 JUMPI POP DUP1 PUSH20 0xFFFFFFFFFFFFFFFFFFFFFFFFFFFFFFFFFFFFFFFF AND PUSH2 0x13BD PUSH2 0x1649 JUMP JUMPDEST PUSH20 0xFFFFFFFFFFFFFFFFFFFFFFFFFFFFFFFFFFFFFFFF AND EQ ISZERO JUMPDEST ISZERO PUSH2 0x1402 JUMPI PUSH2 0x13EC DUP2 PUSH2 0x13E7 PUSH2 0x1649 JUMP JUMPDEST PUSH2 0x1171 JUMP JUMPDEST PUSH2 0x1401 JUMPI PUSH2 0x1400 PUSH4 0xCFB3B942 PUSH1 0xE0 SHL PUSH2 0x1382 JUMP JUMPDEST JUMPDEST JUMPDEST DUP4 PUSH1 0xD PUSH0 DUP6 DUP2 MSTORE PUSH1 0x20 ADD SWAP1 DUP2 MSTORE PUSH1 0x20 ADD PUSH0 KECCAK256 PUSH0 ADD PUSH0 PUSH2 0x100 EXP DUP2 SLOAD DUP2 PUSH20 0xFFFFFFFFFFFFFFFFFFFFFFFFFFFFFFFFFFFFFFFF MUL NOT AND SWAP1 DUP4 PUSH20 0xFFFFFFFFFFFFFFFFFFFFFFFFFFFFFFFFFFFFFFFF AND MUL OR SWAP1 SSTORE POP DUP3 DUP5 PUSH20 0xFFFFFFFFFFFFFFFFFFFFFFFFFFFFFFFFFFFFFFFF AND DUP3 PUSH20 0xFFFFFFFFFFFFFFFFFFFFFFFFFFFFFFFFFFFFFFFF AND PUSH32 0x8C5BE1E5EBEC7D5BD14F71427D1E84F3DD0314C0F7B2291E5B200AC8C7C3B925 PUSH1 0x40 MLOAD PUSH1 0x40 MLOAD DUP1 SWAP2 SUB SWAP1 LOG4 POP POP POP POP JUMP JUMPDEST PUSH2 0x14BC PUSH2 0x19E4 JUMP JUMPDEST PUSH20 0xFFFFFFFFFFFFFFFFFFFFFFFFFFFFFFFFFFFFFFFF AND PUSH2 0x14DA PUSH2 0xCE3 JUMP JUMPDEST PUSH20 0xFFFFFFFFFFFFFFFFFFFFFFFFFFFFFFFFFFFFFFFF AND EQ PUSH2 0x1539 JUMPI PUSH2 0x14FD PUSH2 0x19E4 JUMP JUMPDEST PUSH1 0x40 MLOAD PUSH32 0x118CDAA700000000000000000000000000000000000000000000000000000000 DUP2 MSTORE PUSH1 0x4 ADD PUSH2 0x1530 SWAP2 SWAP1 PUSH2 0x1FFD JUMP JUMPDEST PUSH1 0x40 MLOAD DUP1 SWAP2 SUB SWAP1 REVERT JUMPDEST JUMP JUMPDEST PUSH0 PUSH1 0x1 SWAP1 POP SWAP1 JUMP JUMPDEST PUSH0 DUP2 PUSH2 0x154D PUSH2 0x153B JUMP JUMPDEST GT PUSH2 0x1610 JUMPI PUSH1 0xB PUSH0 DUP4 DUP2 MSTORE PUSH1 0x20 ADD SWAP1 DUP2 MSTORE PUSH1 0x20 ADD PUSH0 KECCAK256 SLOAD SWAP1 POP PUSH0 DUP2 SUB PUSH2 0x15E8 JUMPI PUSH1 0x1 SLOAD DUP3 LT PUSH2 0x1587 JUMPI PUSH2 0x1586 PUSH4 0xDF2D9B42 PUSH1 0xE0 SHL PUSH2 0x1382 JUMP JUMPDEST JUMPDEST JUMPDEST PUSH1 0xB PUSH0 DUP4 PUSH1 0x1 SWAP1 SUB SWAP4 POP DUP4 DUP2 MSTORE PUSH1 0x20 ADD SWAP1 DUP2 MSTORE PUSH1 0x20 ADD PUSH0 KECCAK256 SLOAD SWAP1 POP PUSH0 DUP2 SUB ISZERO PUSH2 0x15E3 JUMPI PUSH0 PUSH29 0x100000000000000000000000000000000000000000000000000000000 DUP3 AND SUB ISZERO PUSH2 0x1621 JUMPI PUSH2 0x15E2 PUSH4 0xDF2D9B42 PUSH1 0xE0 SHL PUSH2 0x1382 JUMP JUMPDEST JUMPDEST PUSH2 0x1588 JUMP JUMPDEST PUSH0 PUSH29 0x100000000000000000000000000000000000000000000000000000000 DUP3 AND SUB ISZERO PUSH2 0x1621 JUMPI JUMPDEST PUSH2 0x1620 PUSH4 0xDF2D9B42 PUSH1 0xE0 SHL PUSH2 0x1382 JUMP JUMPDEST JUMPDEST SWAP2 SWAP1 POP JUMP JUMPDEST PUSH0 DUP1 PUSH0 PUSH1 0xD PUSH0 DUP6 DUP2 MSTORE PUSH1 0x20 ADD SWAP1 DUP2 MSTORE PUSH1 0x20 ADD PUSH0 KECCAK256 SWAP1 POP DUP1 SWAP3 POP DUP3 SLOAD SWAP2 POP POP SWAP2 POP SWAP2 JUMP JUMPDEST PUSH0 CALLER SWAP1 POP SWAP1 JUMP JUMPDEST PUSH0 PUSH20 0xFFFFFFFFFFFFFFFFFFFFFFFFFFFFFFFFFFFFFFFF DUP4 AND SWAP3 POP PUSH20 0xFFFFFFFFFFFFFFFFFFFFFFFFFFFFFFFFFFFFFFFF DUP3 AND SWAP2 POP DUP4 DUP3 EQ DUP4 DUP4 EQ OR SWAP1 POP SWAP4 SWAP3 POP POP POP JUMP JUMPDEST POP POP POP POP JUMP JUMPDEST PUSH0 DUP1 PUSH1 0xE8 DUP4 SWAP1 SHR SWAP1 POP PUSH1 0xE8 PUSH2 0x16AF DUP7 DUP7 DUP5 PUSH2 0x19EB JUMP JUMPDEST PUSH3 0xFFFFFF AND SWAP1 SHL SWAP2 POP POP SWAP4 SWAP3 POP POP POP JUMP JUMPDEST PUSH0 PUSH20 0xFFFFFFFFFFFFFFFFFFFFFFFFFFFFFFFFFFFFFFFF DUP4 AND SWAP3 POP DUP2 TIMESTAMP PUSH1 0xA0 SHL OR DUP4 OR SWAP1 POP SWAP3 SWAP2 POP POP JUMP JUMPDEST POP POP POP POP JUMP JUMPDEST PUSH2 0x1709 DUP3 DUP3 PUSH1 0x40 MLOAD DUP1 PUSH1 0x20 ADD PUSH1 0x40 MSTORE DUP1 PUSH0 DUP2 MSTORE POP PUSH2 0x19F3 JUMP JUMPDEST POP POP JUMP JUMPDEST PUSH0 DUP1 PUSH0 SWAP1 SLOAD SWAP1 PUSH2 0x100 EXP SWAP1 DIV PUSH20 0xFFFFFFFFFFFFFFFFFFFFFFFFFFFFFFFFFFFFFFFF AND SWAP1 POP DUP2 PUSH0 DUP1 PUSH2 0x100 EXP DUP2 SLOAD DUP2 PUSH20 0xFFFFFFFFFFFFFFFFFFFFFFFFFFFFFFFFFFFFFFFF MUL NOT AND SWAP1 DUP4 PUSH20 0xFFFFFFFFFFFFFFFFFFFFFFFFFFFFFFFFFFFFFFFF AND MUL OR SWAP1 SSTORE POP DUP2 PUSH20 0xFFFFFFFFFFFFFFFFFFFFFFFFFFFFFFFFFFFFFFFF AND DUP2 PUSH20 0xFFFFFFFFFFFFFFFFFFFFFFFFFFFFFFFFFFFFFFFF AND PUSH32 0x8BE0079C531659141344CD1FD0A4F28419497F9722A3DAAFE3B4186F6B6457E0 PUSH1 0x40 MLOAD PUSH1 0x40 MLOAD DUP1 SWAP2 SUB SWAP1 LOG3 POP POP JUMP JUMPDEST PUSH0 DUP4 PUSH20 0xFFFFFFFFFFFFFFFFFFFFFFFFFFFFFFFFFFFFFFFF AND PUSH4 0x150B7A02 PUSH2 0x17F3 PUSH2 0x1649 JUMP JUMPDEST DUP8 DUP7 DUP7 PUSH1 0x40 MLOAD DUP6 PUSH4 0xFFFFFFFF AND PUSH1 0xE0 SHL DUP2 MSTORE PUSH1 0x4 ADD PUSH2 0x1815 SWAP5 SWAP4 SWAP3 SWAP2 SWAP1 PUSH2 0x2A2E JUMP JUMPDEST PUSH1 0x20 PUSH1 0x40 MLOAD DUP1 DUP4 SUB DUP2 PUSH0 DUP8 GAS CALL SWAP3 POP POP POP DUP1 ISZERO PUSH2 0x1850 JUMPI POP PUSH1 0x40 MLOAD RETURNDATASIZE PUSH1 0x1F NOT PUSH1 0x1F DUP3 ADD AND DUP3 ADD DUP1 PUSH1 0x40 MSTORE POP DUP2 ADD SWAP1 PUSH2 0x184D SWAP2 SWAP1 PUSH2 0x2A8C JUMP JUMPDEST PUSH1 0x1 JUMPDEST PUSH2 0x18A5 JUMPI RETURNDATASIZE DUP1 PUSH0 DUP2 EQ PUSH2 0x187E JUMPI PUSH1 0x40 MLOAD SWAP2 POP PUSH1 0x1F NOT PUSH1 0x3F RETURNDATASIZE ADD AND DUP3 ADD PUSH1 0x40 MSTORE RETURNDATASIZE DUP3 MSTORE RETURNDATASIZE PUSH0 PUSH1 0x20 DUP5 ADD RETURNDATACOPY PUSH2 0x1883 JUMP JUMPDEST PUSH1 0x60 SWAP2 POP JUMPDEST POP PUSH0 DUP2 MLOAD SUB PUSH2 0x189D JUMPI PUSH2 0x189C PUSH4 0xD1A57ED6 PUSH1 0xE0 SHL PUSH2 0x1382 JUMP JUMPDEST JUMPDEST DUP1 MLOAD DUP2 PUSH1 0x20 ADD REVERT JUMPDEST PUSH4 0x150B7A02 PUSH1 0xE0 SHL PUSH28 0xFFFFFFFFFFFFFFFFFFFFFFFFFFFFFFFFFFFFFFFFFFFFFFFFFFFFFFFF NOT AND DUP2 PUSH28 0xFFFFFFFFFFFFFFFFFFFFFFFFFFFFFFFFFFFFFFFFFFFFFFFFFFFFFFFF NOT AND EQ SWAP2 POP POP SWAP5 SWAP4 POP POP POP POP JUMP JUMPDEST PUSH1 0x60 PUSH1 0x5 DUP1 SLOAD PUSH2 0x1907 SWAP1 PUSH2 0x259A JUMP JUMPDEST DUP1 PUSH1 0x1F ADD PUSH1 0x20 DUP1 SWAP2 DIV MUL PUSH1 0x20 ADD PUSH1 0x40 MLOAD SWAP1 DUP2 ADD PUSH1 0x40 MSTORE DUP1 SWAP3 SWAP2 SWAP1 DUP2 DUP2 MSTORE PUSH1 0x20 ADD DUP3 DUP1 SLOAD PUSH2 0x1933 SWAP1 PUSH2 0x259A JUMP JUMPDEST DUP1 ISZERO PUSH2 0x197E JUMPI DUP1 PUSH1 0x1F LT PUSH2 0x1955 JUMPI PUSH2 0x100 DUP1 DUP4 SLOAD DIV MUL DUP4 MSTORE SWAP2 PUSH1 0x20 ADD SWAP2 PUSH2 0x197E JUMP JUMPDEST DUP3 ADD SWAP2 SWAP1 PUSH0 MSTORE PUSH1 0x20 PUSH0 KECCAK256 SWAP1 JUMPDEST DUP2 SLOAD DUP2 MSTORE SWAP1 PUSH1 0x1 ADD SWAP1 PUSH1 0x20 ADD DUP1 DUP4 GT PUSH2 0x1961 JUMPI DUP3 SWAP1 SUB PUSH1 0x1F AND DUP3 ADD SWAP2 JUMPDEST POP POP POP POP POP SWAP1 POP SWAP1 JUMP JUMPDEST PUSH1 0x60 PUSH1 0xA0 PUSH1 0x40 MLOAD ADD DUP1 PUSH1 0x40 MSTORE PUSH1 0x20 DUP2 SUB SWAP2 POP PUSH0 DUP3 MSTORE DUP2 DUP4 JUMPDEST PUSH1 0x1 ISZERO PUSH2 0x19C2 JUMPI PUSH1 0x1 DUP5 SUB SWAP4 POP PUSH1 0xA DUP2 MOD PUSH1 0x30 ADD DUP5 MSTORE8 PUSH1 0xA DUP2 DIV SWAP1 POP DUP1 PUSH2 0x19A0 JUMPI JUMPDEST POP DUP3 DUP2 SUB PUSH1 0x20 DUP5 SUB SWAP4 POP DUP1 DUP5 MSTORE POP POP POP SWAP2 SWAP1 POP JUMP JUMPDEST PUSH2 0x19E1 DUP2 PUSH0 PUSH2 0x1A74 JUMP JUMPDEST POP JUMP JUMPDEST PUSH0 CALLER SWAP1 POP SWAP1 JUMP JUMPDEST PUSH0 SWAP4 SWAP3 POP POP POP JUMP JUMPDEST PUSH2 0x19FD DUP4 DUP4 PUSH2 0x1C90 JUMP JUMPDEST PUSH0 DUP4 PUSH20 0xFFFFFFFFFFFFFFFFFFFFFFFFFFFFFFFFFFFFFFFF AND EXTCODESIZE EQ PUSH2 0x1A6F JUMPI PUSH0 PUSH1 0x1 SLOAD SWAP1 POP PUSH0 DUP4 DUP3 SUB SWAP1 POP JUMPDEST PUSH2 0x1A3A PUSH0 DUP7 DUP4 DUP1 PUSH1 0x1 ADD SWAP5 POP DUP7 PUSH2 0x17CE JUMP JUMPDEST PUSH2 0x1A4F JUMPI PUSH2 0x1A4E PUSH4 0xD1A57ED6 PUSH1 0xE0 SHL PUSH2 0x1382 JUMP JUMPDEST JUMPDEST DUP2 DUP2 LT PUSH2 0x1A28 JUMPI DUP2 PUSH1 0x1 SLOAD EQ PUSH2 0x1A6C JUMPI PUSH2 0x1A6B PUSH0 PUSH1 0xE0 SHL PUSH2 0x1382 JUMP JUMPDEST JUMPDEST POP POP JUMPDEST POP POP POP JUMP JUMPDEST PUSH0 PUSH2 0x1A7E DUP4 PUSH2 0x1543 JUMP JUMPDEST SWAP1 POP PUSH0 DUP2 SWAP1 POP PUSH0 DUP1 PUSH2 0x1A8F DUP7 PUSH2 0x1626 JUMP JUMPDEST SWAP2 POP SWAP2 POP DUP5 ISZERO PUSH2 0x1AD7 JUMPI PUSH2 0x1AAB DUP2 DUP5 PUSH2 0x1AA6 PUSH2 0x1649 JUMP JUMPDEST PUSH2 0x1650 JUMP JUMPDEST PUSH2 0x1AD6 JUMPI PUSH2 0x1AC0 DUP4 PUSH2 0x1ABB PUSH2 0x1649 JUMP JUMPDEST PUSH2 0x1171 JUMP JUMPDEST PUSH2 0x1AD5 JUMPI PUSH2 0x1AD4 PUSH4 0x59C896BE PUSH1 0xE0 SHL PUSH2 0x1382 JUMP JUMPDEST JUMPDEST JUMPDEST JUMPDEST PUSH2 0x1AE4 DUP4 PUSH0 DUP9 PUSH1 0x1 PUSH2 0x1693 JUMP JUMPDEST DUP1 ISZERO PUSH2 0x1AEE JUMPI PUSH0 DUP3 SSTORE JUMPDEST PUSH1 0x1 PUSH1 0x80 PUSH1 0x1 SWAP1 SHL SUB PUSH1 0xC PUSH0 DUP6 PUSH20 0xFFFFFFFFFFFFFFFFFFFFFFFFFFFFFFFFFFFFFFFF AND PUSH20 0xFFFFFFFFFFFFFFFFFFFFFFFFFFFFFFFFFFFFFFFF AND DUP2 MSTORE PUSH1 0x20 ADD SWAP1 DUP2 MSTORE PUSH1 0x20 ADD PUSH0 KECCAK256 PUSH0 DUP3 DUP3 SLOAD ADD SWAP3 POP POP DUP2 SWAP1 SSTORE POP PUSH2 0x1B92 DUP4 PUSH2 0x1B4F DUP6 PUSH0 DUP9 PUSH2 0x1699 JUMP JUMPDEST PUSH29 0x200000000000000000000000000000000000000000000000000000000 PUSH29 0x100000000000000000000000000000000000000000000000000000000 OR OR PUSH2 0x16C0 JUMP JUMPDEST PUSH1 0xB PUSH0 DUP9 DUP2 MSTORE PUSH1 0x20 ADD SWAP1 DUP2 MSTORE PUSH1 0x20 ADD PUSH0 KECCAK256 DUP2 SWAP1 SSTORE POP PUSH0 PUSH29 0x200000000000000000000000000000000000000000000000000000000 DUP6 AND SUB PUSH2 0x1C0F JUMPI PUSH0 PUSH1 0x1 DUP8 ADD SWAP1 POP PUSH0 PUSH1 0xB PUSH0 DUP4 DUP2 MSTORE PUSH1 0x20 ADD SWAP1 DUP2 MSTORE PUSH1 0x20 ADD PUSH0 KECCAK256 SLOAD SUB PUSH2 0x1C0D JUMPI PUSH1 0x1 SLOAD DUP2 EQ PUSH2 0x1C0C JUMPI DUP5 PUSH1 0xB PUSH0 DUP4 DUP2 MSTORE PUSH1 0x20 ADD SWAP1 DUP2 MSTORE PUSH1 0x20 ADD PUSH0 KECCAK256 DUP2 SWAP1 SSTORE POP JUMPDEST JUMPDEST POP JUMPDEST DUP6 PUSH0 PUSH20 0xFFFFFFFFFFFFFFFFFFFFFFFFFFFFFFFFFFFFFFFF AND DUP5 PUSH20 0xFFFFFFFFFFFFFFFFFFFFFFFFFFFFFFFFFFFFFFFF AND PUSH32 0xDDF252AD1BE2C89B69C2B068FC378DAA952BA7F163C4A11628F55A4DF523B3EF PUSH1 0x40 MLOAD PUSH1 0x40 MLOAD DUP1 SWAP2 SUB SWAP1 LOG4 PUSH2 0x1C77 DUP4 PUSH0 DUP9 PUSH1 0x1 PUSH2 0x16EA JUMP JUMPDEST PUSH1 0x2 PUSH0 DUP2 SLOAD DUP1 SWAP3 SWAP2 SWAP1 PUSH1 0x1 ADD SWAP2 SWAP1 POP SSTORE POP POP POP POP POP POP POP JUMP JUMPDEST PUSH0 PUSH1 0x1 SLOAD SWAP1 POP PUSH0 DUP3 SUB PUSH2 0x1CAE JUMPI PUSH2 0x1CAD PUSH4 0xB562E8DD PUSH1 0xE0 SHL PUSH2 0x1382 JUMP JUMPDEST JUMPDEST PUSH2 0x1CBA PUSH0 DUP5 DUP4 DUP6 PUSH2 0x1693 JUMP JUMPDEST PUSH2 0x1CD8 DUP4 PUSH2 0x1CC9 PUSH0 DUP7 PUSH0 PUSH2 0x1699 JUMP JUMPDEST PUSH2 0x1CD2 DUP6 PUSH2 0x1DE3 JUMP JUMPDEST OR PUSH2 0x16C0 JUMP JUMPDEST PUSH1 0xB PUSH0 DUP4 DUP2 MSTORE PUSH1 0x20 ADD SWAP1 DUP2 MSTORE PUSH1 0x20 ADD PUSH0 KECCAK256 DUP2 SWAP1 SSTORE POP PUSH1 0x1 PUSH1 0x40 PUSH1 0x1 SWAP1 SHL OR DUP3 MUL PUSH1 0xC PUSH0 DUP6 PUSH20 0xFFFFFFFFFFFFFFFFFFFFFFFFFFFFFFFFFFFFFFFF AND PUSH20 0xFFFFFFFFFFFFFFFFFFFFFFFFFFFFFFFFFFFFFFFF AND DUP2 MSTORE PUSH1 0x20 ADD SWAP1 DUP2 MSTORE PUSH1 0x20 ADD PUSH0 KECCAK256 PUSH0 DUP3 DUP3 SLOAD ADD SWAP3 POP POP DUP2 SWAP1 SSTORE POP PUSH0 PUSH20 0xFFFFFFFFFFFFFFFFFFFFFFFFFFFFFFFFFFFFFFFF DUP5 PUSH20 0xFFFFFFFFFFFFFFFFFFFFFFFFFFFFFFFFFFFFFFFF AND AND SWAP1 POP PUSH0 DUP2 SUB PUSH2 0x1D89 JUMPI PUSH2 0x1D88 PUSH4 0x2E076300 PUSH1 0xE0 SHL PUSH2 0x1382 JUMP JUMPDEST JUMPDEST PUSH0 DUP4 DUP4 ADD SWAP1 POP PUSH0 DUP4 SWAP1 POP JUMPDEST DUP1 DUP4 PUSH0 PUSH32 0xDDF252AD1BE2C89B69C2B068FC378DAA952BA7F163C4A11628F55A4DF523B3EF PUSH0 DUP1 LOG4 DUP2 DUP2 PUSH1 0x1 ADD SWAP2 POP DUP2 SUB PUSH2 0x1D94 JUMPI DUP2 PUSH1 0x1 DUP2 SWAP1 SSTORE POP POP POP POP PUSH2 0x1DDE PUSH0 DUP5 DUP4 DUP6 PUSH2 0x16EA JUMP JUMPDEST POP POP POP JUMP JUMPDEST PUSH0 PUSH1 0x1 DUP3 EQ PUSH1 0xE1 SHL SWAP1 POP SWAP2 SWAP1 POP JUMP JUMPDEST PUSH0 PUSH1 0x40 MLOAD SWAP1 POP SWAP1 JUMP JUMPDEST PUSH0 DUP1 REVERT JUMPDEST PUSH0 DUP1 REVERT JUMPDEST PUSH0 PUSH32 0xFFFFFFFF00000000000000000000000000000000000000000000000000000000 DUP3 AND SWAP1 POP SWAP2 SWAP1 POP JUMP JUMPDEST PUSH2 0x1E37 DUP2 PUSH2 0x1E03 JUMP JUMPDEST DUP2 EQ PUSH2 0x1E41 JUMPI PUSH0 DUP1 REVERT JUMPDEST POP JUMP JUMPDEST PUSH0 DUP2 CALLDATALOAD SWAP1 POP PUSH2 0x1E52 DUP2 PUSH2 0x1E2E JUMP JUMPDEST SWAP3 SWAP2 POP POP JUMP JUMPDEST PUSH0 PUSH1 0x20 DUP3 DUP5 SUB SLT ISZERO PUSH2 0x1E6D JUMPI PUSH2 0x1E6C PUSH2 0x1DFB JUMP JUMPDEST JUMPDEST PUSH0 PUSH2 0x1E7A DUP5 DUP3 DUP6 ADD PUSH2 0x1E44 JUMP JUMPDEST SWAP2 POP POP SWAP3 SWAP2 POP POP JUMP JUMPDEST PUSH0 DUP2 ISZERO ISZERO SWAP1 POP SWAP2 SWAP1 POP JUMP JUMPDEST PUSH2 0x1E97 DUP2 PUSH2 0x1E83 JUMP JUMPDEST DUP3 MSTORE POP POP JUMP JUMPDEST PUSH0 PUSH1 0x20 DUP3 ADD SWAP1 POP PUSH2 0x1EB0 PUSH0 DUP4 ADD DUP5 PUSH2 0x1E8E JUMP JUMPDEST SWAP3 SWAP2 POP POP JUMP JUMPDEST PUSH0 DUP2 MLOAD SWAP1 POP SWAP2 SWAP1 POP JUMP JUMPDEST PUSH0 DUP3 DUP3 MSTORE PUSH1 0x20 DUP3 ADD SWAP1 POP SWAP3 SWAP2 POP POP JUMP JUMPDEST PUSH0 JUMPDEST DUP4 DUP2 LT ISZERO PUSH2 0x1EED JUMPI DUP1 DUP3 ADD MLOAD DUP2 DUP5 ADD MSTORE PUSH1 0x20 DUP2 ADD SWAP1 POP PUSH2 0x1ED2 JUMP JUMPDEST PUSH0 DUP5 DUP5 ADD MSTORE POP POP POP POP JUMP JUMPDEST PUSH0 PUSH1 0x1F NOT PUSH1 0x1F DUP4 ADD AND SWAP1 POP SWAP2 SWAP1 POP JUMP JUMPDEST PUSH0 PUSH2 0x1F12 DUP3 PUSH2 0x1EB6 JUMP JUMPDEST PUSH2 0x1F1C DUP2 DUP6 PUSH2 0x1EC0 JUMP JUMPDEST SWAP4 POP PUSH2 0x1F2C DUP2 DUP6 PUSH1 0x20 DUP7 ADD PUSH2 0x1ED0 JUMP JUMPDEST PUSH2 0x1F35 DUP2 PUSH2 0x1EF8 JUMP JUMPDEST DUP5 ADD SWAP2 POP POP SWAP3 SWAP2 POP POP JUMP JUMPDEST PUSH0 PUSH1 0x20 DUP3 ADD SWAP1 POP DUP2 DUP2 SUB PUSH0 DUP4 ADD MSTORE PUSH2 0x1F58 DUP2 DUP5 PUSH2 0x1F08 JUMP JUMPDEST SWAP1 POP SWAP3 SWAP2 POP POP JUMP JUMPDEST PUSH0 DUP2 SWAP1 POP SWAP2 SWAP1 POP JUMP JUMPDEST PUSH2 0x1F72 DUP2 PUSH2 0x1F60 JUMP JUMPDEST DUP2 EQ PUSH2 0x1F7C JUMPI PUSH0 DUP1 REVERT JUMPDEST POP JUMP JUMPDEST PUSH0 DUP2 CALLDATALOAD SWAP1 POP PUSH2 0x1F8D DUP2 PUSH2 0x1F69 JUMP JUMPDEST SWAP3 SWAP2 POP POP JUMP JUMPDEST PUSH0 PUSH1 0x20 DUP3 DUP5 SUB SLT ISZERO PUSH2 0x1FA8 JUMPI PUSH2 0x1FA7 PUSH2 0x1DFB JUMP JUMPDEST JUMPDEST PUSH0 PUSH2 0x1FB5 DUP5 DUP3 DUP6 ADD PUSH2 0x1F7F JUMP JUMPDEST SWAP2 POP POP SWAP3 SWAP2 POP POP JUMP JUMPDEST PUSH0 PUSH20 0xFFFFFFFFFFFFFFFFFFFFFFFFFFFFFFFFFFFFFFFF DUP3 AND SWAP1 POP SWAP2 SWAP1 POP JUMP JUMPDEST PUSH0 PUSH2 0x1FE7 DUP3 PUSH2 0x1FBE JUMP JUMPDEST SWAP1 POP SWAP2 SWAP1 POP JUMP JUMPDEST PUSH2 0x1FF7 DUP2 PUSH2 0x1FDD JUMP JUMPDEST DUP3 MSTORE POP POP JUMP JUMPDEST PUSH0 PUSH1 0x20 DUP3 ADD SWAP1 POP PUSH2 0x2010 PUSH0 DUP4 ADD DUP5 PUSH2 0x1FEE JUMP JUMPDEST SWAP3 SWAP2 POP POP JUMP JUMPDEST PUSH2 0x201F DUP2 PUSH2 0x1FDD JUMP JUMPDEST DUP2 EQ PUSH2 0x2029 JUMPI PUSH0 DUP1 REVERT JUMPDEST POP JUMP JUMPDEST PUSH0 DUP2 CALLDATALOAD SWAP1 POP PUSH2 0x203A DUP2 PUSH2 0x2016 JUMP JUMPDEST SWAP3 SWAP2 POP POP JUMP JUMPDEST PUSH0 DUP1 PUSH1 0x40 DUP4 DUP6 SUB SLT ISZERO PUSH2 0x2056 JUMPI PUSH2 0x2055 PUSH2 0x1DFB JUMP JUMPDEST JUMPDEST PUSH0 PUSH2 0x2063 DUP6 DUP3 DUP7 ADD PUSH2 0x202C JUMP JUMPDEST SWAP3 POP POP PUSH1 0x20 PUSH2 0x2074 DUP6 DUP3 DUP7 ADD PUSH2 0x1F7F JUMP JUMPDEST SWAP2 POP POP SWAP3 POP SWAP3 SWAP1 POP JUMP JUMPDEST PUSH0 DUP1 REVERT JUMPDEST PUSH0 DUP1 REVERT JUMPDEST PUSH32 0x4E487B7100000000000000000000000000000000000000000000000000000000 PUSH0 MSTORE PUSH1 0x41 PUSH1 0x4 MSTORE PUSH1 0x24 PUSH0 REVERT JUMPDEST PUSH2 0x20BC DUP3 PUSH2 0x1EF8 JUMP JUMPDEST DUP2 ADD DUP2 DUP2 LT PUSH8 0xFFFFFFFFFFFFFFFF DUP3 GT OR ISZERO PUSH2 0x20DB JUMPI PUSH2 0x20DA PUSH2 0x2086 JUMP JUMPDEST JUMPDEST DUP1 PUSH1 0x40 MSTORE POP POP POP JUMP JUMPDEST PUSH0 PUSH2 0x20ED PUSH2 0x1DF2 JUMP JUMPDEST SWAP1 POP PUSH2 0x20F9 DUP3 DUP3 PUSH2 0x20B3 JUMP JUMPDEST SWAP2 SWAP1 POP JUMP JUMPDEST PUSH0 PUSH8 0xFFFFFFFFFFFFFFFF DUP3 GT ISZERO PUSH2 0x2118 JUMPI PUSH2 0x2117 PUSH2 0x2086 JUMP JUMPDEST JUMPDEST PUSH2 0x2121 DUP3 PUSH2 0x1EF8 JUMP JUMPDEST SWAP1 POP PUSH1 0x20 DUP2 ADD SWAP1 POP SWAP2 SWAP1 POP JUMP JUMPDEST DUP3 DUP2 DUP4 CALLDATACOPY PUSH0 DUP4 DUP4 ADD MSTORE POP POP POP JUMP JUMPDEST PUSH0 PUSH2 0x214E PUSH2 0x2149 DUP5 PUSH2 0x20FE JUMP JUMPDEST PUSH2 0x20E4 JUMP JUMPDEST SWAP1 POP DUP3 DUP2 MSTORE PUSH1 0x20 DUP2 ADD DUP5 DUP5 DUP5 ADD GT ISZERO PUSH2 0x216A JUMPI PUSH2 0x2169 PUSH2 0x2082 JUMP JUMPDEST JUMPDEST PUSH2 0x2175 DUP5 DUP3 DUP6 PUSH2 0x212E JUMP JUMPDEST POP SWAP4 SWAP3 POP POP POP JUMP JUMPDEST PUSH0 DUP3 PUSH1 0x1F DUP4 ADD SLT PUSH2 0x2191 JUMPI PUSH2 0x2190 PUSH2 0x207E JUMP JUMPDEST JUMPDEST DUP2 CALLDATALOAD PUSH2 0x21A1 DUP5 DUP3 PUSH1 0x20 DUP7 ADD PUSH2 0x213C JUMP JUMPDEST SWAP2 POP POP SWAP3 SWAP2 POP POP JUMP JUMPDEST PUSH0 PUSH1 0x20 DUP3 DUP5 SUB SLT ISZERO PUSH2 0x21BF JUMPI PUSH2 0x21BE PUSH2 0x1DFB JUMP JUMPDEST JUMPDEST PUSH0 DUP3 ADD CALLDATALOAD PUSH8 0xFFFFFFFFFFFFFFFF DUP2 GT ISZERO PUSH2 0x21DC JUMPI PUSH2 0x21DB PUSH2 0x1DFF JUMP JUMPDEST JUMPDEST PUSH2 0x21E8 DUP5 DUP3 DUP6 ADD PUSH2 0x217D JUMP JUMPDEST SWAP2 POP POP SWAP3 SWAP2 POP POP JUMP JUMPDEST PUSH2 0x21FA DUP2 PUSH2 0x1F60 JUMP JUMPDEST DUP3 MSTORE POP POP JUMP JUMPDEST PUSH0 PUSH1 0x20 DUP3 ADD SWAP1 POP PUSH2 0x2213 PUSH0 DUP4 ADD DUP5 PUSH2 0x21F1 JUMP JUMPDEST SWAP3 SWAP2 POP POP JUMP JUMPDEST PUSH0 DUP1 PUSH0 PUSH1 0x60 DUP5 DUP7 SUB SLT ISZERO PUSH2 0x2230 JUMPI PUSH2 0x222F PUSH2 0x1DFB JUMP JUMPDEST JUMPDEST PUSH0 PUSH2 0x223D DUP7 DUP3 DUP8 ADD PUSH2 0x202C JUMP JUMPDEST SWAP4 POP POP PUSH1 0x20 PUSH2 0x224E DUP7 DUP3 DUP8 ADD PUSH2 0x202C JUMP JUMPDEST SWAP3 POP POP PUSH1 0x40 PUSH2 0x225F DUP7 DUP3 DUP8 ADD PUSH2 0x1F7F JUMP JUMPDEST SWAP2 POP POP SWAP3 POP SWAP3 POP SWAP3 JUMP JUMPDEST PUSH0 PUSH1 0x20 DUP3 DUP5 SUB SLT ISZERO PUSH2 0x227E JUMPI PUSH2 0x227D PUSH2 0x1DFB JUMP JUMPDEST JUMPDEST PUSH0 PUSH2 0x228B DUP5 DUP3 DUP6 ADD PUSH2 0x202C JUMP JUMPDEST SWAP2 POP POP SWAP3 SWAP2 POP POP JUMP JUMPDEST PUSH0 DUP1 PUSH1 0x40 DUP4 DUP6 SUB SLT ISZERO PUSH2 0x22AA JUMPI PUSH2 0x22A9 PUSH2 0x1DFB JUMP JUMPDEST JUMPDEST PUSH0 PUSH2 0x22B7 DUP6 DUP3 DUP7 ADD PUSH2 0x1F7F JUMP JUMPDEST SWAP3 POP POP PUSH1 0x20 PUSH2 0x22C8 DUP6 DUP3 DUP7 ADD PUSH2 0x202C JUMP JUMPDEST SWAP2 POP POP SWAP3 POP SWAP3 SWAP1 POP JUMP JUMPDEST PUSH2 0x22DB DUP2 PUSH2 0x1E83 JUMP JUMPDEST DUP2 EQ PUSH2 0x22E5 JUMPI PUSH0 DUP1 REVERT JUMPDEST POP JUMP JUMPDEST PUSH0 DUP2 CALLDATALOAD SWAP1 POP PUSH2 0x22F6 DUP2 PUSH2 0x22D2 JUMP JUMPDEST SWAP3 SWAP2 POP POP JUMP JUMPDEST PUSH0 DUP1 PUSH1 0x40 DUP4 DUP6 SUB SLT ISZERO PUSH2 0x2312 JUMPI PUSH2 0x2311 PUSH2 0x1DFB JUMP JUMPDEST JUMPDEST PUSH0 PUSH2 0x231F DUP6 DUP3 DUP7 ADD PUSH2 0x202C JUMP JUMPDEST SWAP3 POP POP PUSH1 0x20 PUSH2 0x2330 DUP6 DUP3 DUP7 ADD PUSH2 0x22E8 JUMP JUMPDEST SWAP2 POP POP SWAP3 POP SWAP3 SWAP1 POP JUMP JUMPDEST PUSH0 PUSH8 0xFFFFFFFFFFFFFFFF DUP3 GT ISZERO PUSH2 0x2354 JUMPI PUSH2 0x2353 PUSH2 0x2086 JUMP JUMPDEST JUMPDEST PUSH2 0x235D DUP3 PUSH2 0x1EF8 JUMP JUMPDEST SWAP1 POP PUSH1 0x20 DUP2 ADD SWAP1 POP SWAP2 SWAP1 POP JUMP JUMPDEST PUSH0 PUSH2 0x237C PUSH2 0x2377 DUP5 PUSH2 0x233A JUMP JUMPDEST PUSH2 0x20E4 JUMP JUMPDEST SWAP1 POP DUP3 DUP2 MSTORE PUSH1 0x20 DUP2 ADD DUP5 DUP5 DUP5 ADD GT ISZERO PUSH2 0x2398 JUMPI PUSH2 0x2397 PUSH2 0x2082 JUMP JUMPDEST JUMPDEST PUSH2 0x23A3 DUP5 DUP3 DUP6 PUSH2 0x212E JUMP JUMPDEST POP SWAP4 SWAP3 POP POP POP JUMP JUMPDEST PUSH0 DUP3 PUSH1 0x1F DUP4 ADD SLT PUSH2 0x23BF JUMPI PUSH2 0x23BE PUSH2 0x207E JUMP JUMPDEST JUMPDEST DUP2 CALLDATALOAD PUSH2 0x23CF DUP5 DUP3 PUSH1 0x20 DUP7 ADD PUSH2 0x236A JUMP JUMPDEST SWAP2 POP POP SWAP3 SWAP2 POP POP JUMP JUMPDEST PUSH0 DUP1 PUSH0 DUP1 PUSH1 0x80 DUP6 DUP8 SUB SLT ISZERO PUSH2 0x23F0 JUMPI PUSH2 0x23EF PUSH2 0x1DFB JUMP JUMPDEST JUMPDEST PUSH0 PUSH2 0x23FD DUP8 DUP3 DUP9 ADD PUSH2 0x202C JUMP JUMPDEST SWAP5 POP POP PUSH1 0x20 PUSH2 0x240E DUP8 DUP3 DUP9 ADD PUSH2 0x202C JUMP JUMPDEST SWAP4 POP POP PUSH1 0x40 PUSH2 0x241F DUP8 DUP3 DUP9 ADD PUSH2 0x1F7F JUMP JUMPDEST SWAP3 POP POP PUSH1 0x60 DUP6 ADD CALLDATALOAD PUSH8 0xFFFFFFFFFFFFFFFF DUP2 GT ISZERO PUSH2 0x2440 JUMPI PUSH2 0x243F PUSH2 0x1DFF JUMP JUMPDEST JUMPDEST PUSH2 0x244C DUP8 DUP3 DUP9 ADD PUSH2 0x23AB JUMP JUMPDEST SWAP2 POP POP SWAP3 SWAP6 SWAP2 SWAP5 POP SWAP3 POP JUMP JUMPDEST PUSH0 DUP2 MLOAD SWAP1 POP SWAP2 SWAP1 POP JUMP JUMPDEST PUSH0 DUP3 DUP3 MSTORE PUSH1 0x20 DUP3 ADD SWAP1 POP SWAP3 SWAP2 POP POP JUMP JUMPDEST PUSH0 DUP2 SWAP1 POP PUSH1 0x20 DUP3 ADD SWAP1 POP SWAP2 SWAP1 POP JUMP JUMPDEST PUSH2 0x248A DUP2 PUSH2 0x1F60 JUMP JUMPDEST DUP3 MSTORE POP POP JUMP JUMPDEST PUSH0 PUSH2 0x249B DUP4 DUP4 PUSH2 0x2481 JUMP JUMPDEST PUSH1 0x20 DUP4 ADD SWAP1 POP SWAP3 SWAP2 POP POP JUMP JUMPDEST PUSH0 PUSH1 0x20 DUP3 ADD SWAP1 POP SWAP2 SWAP1 POP JUMP JUMPDEST PUSH0 PUSH2 0x24BD DUP3 PUSH2 0x2458 JUMP JUMPDEST PUSH2 0x24C7 DUP2 DUP6 PUSH2 0x2462 JUMP JUMPDEST SWAP4 POP PUSH2 0x24D2 DUP4 PUSH2 0x2472 JUMP JUMPDEST DUP1 PUSH0 JUMPDEST DUP4 DUP2 LT ISZERO PUSH2 0x2502 JUMPI DUP2 MLOAD PUSH2 0x24E9 DUP9 DUP3 PUSH2 0x2490 JUMP JUMPDEST SWAP8 POP PUSH2 0x24F4 DUP4 PUSH2 0x24A7 JUMP JUMPDEST SWAP3 POP POP PUSH1 0x1 DUP2 ADD SWAP1 POP PUSH2 0x24D5 JUMP JUMPDEST POP DUP6 SWAP4 POP POP POP POP SWAP3 SWAP2 POP POP JUMP JUMPDEST PUSH0 PUSH1 0x20 DUP3 ADD SWAP1 POP DUP2 DUP2 SUB PUSH0 DUP4 ADD MSTORE PUSH2 0x2527 DUP2 DUP5 PUSH2 0x24B3 JUMP JUMPDEST SWAP1 POP SWAP3 SWAP2 POP POP JUMP JUMPDEST PUSH0 DUP1 PUSH1 0x40 DUP4 DUP6 SUB SLT ISZERO PUSH2 0x2545 JUMPI PUSH2 0x2544 PUSH2 0x1DFB JUMP JUMPDEST JUMPDEST PUSH0 PUSH2 0x2552 DUP6 DUP3 DUP7 ADD PUSH2 0x202C JUMP JUMPDEST SWAP3 POP POP PUSH1 0x20 PUSH2 0x2563 DUP6 DUP3 DUP7 ADD PUSH2 0x202C JUMP JUMPDEST SWAP2 POP POP SWAP3 POP SWAP3 SWAP1 POP JUMP JUMPDEST PUSH32 0x4E487B7100000000000000000000000000000000000000000000000000000000 PUSH0 MSTORE PUSH1 0x22 PUSH1 0x4 MSTORE PUSH1 0x24 PUSH0 REVERT JUMPDEST PUSH0 PUSH1 0x2 DUP3 DIV SWAP1 POP PUSH1 0x1 DUP3 AND DUP1 PUSH2 0x25B1 JUMPI PUSH1 0x7F DUP3 AND SWAP2 POP JUMPDEST PUSH1 0x20 DUP3 LT DUP2 SUB PUSH2 0x25C4 JUMPI PUSH2 0x25C3 PUSH2 0x256D JUMP JUMPDEST JUMPDEST POP SWAP2 SWAP1 POP JUMP JUMPDEST PUSH0 DUP2 SWAP1 POP DUP2 PUSH0 MSTORE PUSH1 0x20 PUSH0 KECCAK256 SWAP1 POP SWAP2 SWAP1 POP JUMP JUMPDEST PUSH0 PUSH1 0x20 PUSH1 0x1F DUP4 ADD DIV SWAP1 POP SWAP2 SWAP1 POP JUMP JUMPDEST PUSH0 DUP3 DUP3 SHL SWAP1 POP SWAP3 SWAP2 POP POP JUMP JUMPDEST PUSH0 PUSH1 0x8 DUP4 MUL PUSH2 0x2626 PUSH32 0xFFFFFFFFFFFFFFFFFFFFFFFFFFFFFFFFFFFFFFFFFFFFFFFFFFFFFFFFFFFFFFFF DUP3 PUSH2 0x25EB JUMP JUMPDEST PUSH2 0x2630 DUP7 DUP4 PUSH2 0x25EB JUMP JUMPDEST SWAP6 POP DUP1 NOT DUP5 AND SWAP4 POP DUP1 DUP7 AND DUP5 OR SWAP3 POP POP POP SWAP4 SWAP3 POP POP POP JUMP JUMPDEST PUSH0 DUP2 SWAP1 POP SWAP2 SWAP1 POP JUMP JUMPDEST PUSH0 PUSH2 0x266B PUSH2 0x2666 PUSH2 0x2661 DUP5 PUSH2 0x1F60 JUMP JUMPDEST PUSH2 0x2648 JUMP JUMPDEST PUSH2 0x1F60 JUMP JUMPDEST SWAP1 POP SWAP2 SWAP1 POP JUMP JUMPDEST PUSH0 DUP2 SWAP1 POP SWAP2 SWAP1 POP JUMP JUMPDEST PUSH2 0x2684 DUP4 PUSH2 0x2651 JUMP JUMPDEST PUSH2 0x2698 PUSH2 0x2690 DUP3 PUSH2 0x2672 JUMP JUMPDEST DUP5 DUP5 SLOAD PUSH2 0x25F7 JUMP JUMPDEST DUP3 SSTORE POP POP POP POP JUMP JUMPDEST PUSH0 SWAP1 JUMP JUMPDEST PUSH2 0x26AC PUSH2 0x26A0 JUMP JUMPDEST PUSH2 0x26B7 DUP2 DUP5 DUP5 PUSH2 0x267B JUMP JUMPDEST POP POP POP JUMP JUMPDEST JUMPDEST DUP2 DUP2 LT ISZERO PUSH2 0x26DA JUMPI PUSH2 0x26CF PUSH0 DUP3 PUSH2 0x26A4 JUMP JUMPDEST PUSH1 0x1 DUP2 ADD SWAP1 POP PUSH2 0x26BD JUMP JUMPDEST POP POP JUMP JUMPDEST PUSH1 0x1F DUP3 GT ISZERO PUSH2 0x271F JUMPI PUSH2 0x26F0 DUP2 PUSH2 0x25CA JUMP JUMPDEST PUSH2 0x26F9 DUP5 PUSH2 0x25DC JUMP JUMPDEST DUP2 ADD PUSH1 0x20 DUP6 LT ISZERO PUSH2 0x2708 JUMPI DUP2 SWAP1 POP JUMPDEST PUSH2 0x271C PUSH2 0x2714 DUP6 PUSH2 0x25DC JUMP JUMPDEST DUP4 ADD DUP3 PUSH2 0x26BC JUMP JUMPDEST POP POP JUMPDEST POP POP POP JUMP JUMPDEST PUSH0 DUP3 DUP3 SHR SWAP1 POP SWAP3 SWAP2 POP POP JUMP JUMPDEST PUSH0 PUSH2 0x273F PUSH0 NOT DUP5 PUSH1 0x8 MUL PUSH2 0x2724 JUMP JUMPDEST NOT DUP1 DUP4 AND SWAP2 POP POP SWAP3 SWAP2 POP POP JUMP JUMPDEST PUSH0 PUSH2 0x2757 DUP4 DUP4 PUSH2 0x2730 JUMP JUMPDEST SWAP2 POP DUP3 PUSH1 0x2 MUL DUP3 OR SWAP1 POP SWAP3 SWAP2 POP POP JUMP JUMPDEST PUSH2 0x2770 DUP3 PUSH2 0x1EB6 JUMP JUMPDEST PUSH8 0xFFFFFFFFFFFFFFFF DUP2 GT ISZERO PUSH2 0x2789 JUMPI PUSH2 0x2788 PUSH2 0x2086 JUMP JUMPDEST JUMPDEST PUSH2 0x2793 DUP3 SLOAD PUSH2 0x259A JUMP JUMPDEST PUSH2 0x279E DUP3 DUP3 DUP6 PUSH2 0x26DE JUMP JUMPDEST PUSH0 PUSH1 0x20 SWAP1 POP PUSH1 0x1F DUP4 GT PUSH1 0x1 DUP2 EQ PUSH2 0x27CF JUMPI PUSH0 DUP5 ISZERO PUSH2 0x27BD JUMPI DUP3 DUP8 ADD MLOAD SWAP1 POP JUMPDEST PUSH2 0x27C7 DUP6 DUP3 PUSH2 0x274C JUMP JUMPDEST DUP7 SSTORE POP PUSH2 0x282E JUMP JUMPDEST PUSH1 0x1F NOT DUP5 AND PUSH2 0x27DD DUP7 PUSH2 0x25CA JUMP JUMPDEST PUSH0 JUMPDEST DUP3 DUP2 LT ISZERO PUSH2 0x2804 JUMPI DUP5 DUP10 ADD MLOAD DUP3 SSTORE PUSH1 0x1 DUP3 ADD SWAP2 POP PUSH1 0x20 DUP6 ADD SWAP5 POP PUSH1 0x20 DUP2 ADD SWAP1 POP PUSH2 0x27DF JUMP JUMPDEST DUP7 DUP4 LT ISZERO PUSH2 0x2821 JUMPI DUP5 DUP10 ADD MLOAD PUSH2 0x281D PUSH1 0x1F DUP10 AND DUP3 PUSH2 0x2730 JUMP JUMPDEST DUP4 SSTORE POP JUMPDEST PUSH1 0x1 PUSH1 0x2 DUP9 MUL ADD DUP9 SSTORE POP POP POP JUMPDEST POP POP POP POP POP POP JUMP JUMPDEST PUSH32 0x796F7520617265206E6F7420617070726F7665642020746F206D696E74000000 PUSH0 DUP3 ADD MSTORE POP JUMP JUMPDEST PUSH0 PUSH2 0x286A PUSH1 0x1D DUP4 PUSH2 0x1EC0 JUMP JUMPDEST SWAP2 POP PUSH2 0x2875 DUP3 PUSH2 0x2836 JUMP JUMPDEST PUSH1 0x20 DUP3 ADD SWAP1 POP SWAP2 SWAP1 POP JUMP JUMPDEST PUSH0 PUSH1 0x20 DUP3 ADD SWAP1 POP DUP2 DUP2 SUB PUSH0 DUP4 ADD MSTORE PUSH2 0x2897 DUP2 PUSH2 0x285E JUMP JUMPDEST SWAP1 POP SWAP2 SWAP1 POP JUMP JUMPDEST PUSH0 DUP2 SWAP1 POP SWAP3 SWAP2 POP POP JUMP JUMPDEST PUSH0 PUSH2 0x28B2 DUP3 PUSH2 0x1EB6 JUMP JUMPDEST PUSH2 0x28BC DUP2 DUP6 PUSH2 0x289E JUMP JUMPDEST SWAP4 POP PUSH2 0x28CC DUP2 DUP6 PUSH1 0x20 DUP7 ADD PUSH2 0x1ED0 JUMP JUMPDEST DUP1 DUP5 ADD SWAP2 POP POP SWAP3 SWAP2 POP POP JUMP JUMPDEST PUSH0 DUP2 SLOAD PUSH2 0x28E4 DUP2 PUSH2 0x259A JUMP JUMPDEST PUSH2 0x28EE DUP2 DUP7 PUSH2 0x289E JUMP JUMPDEST SWAP5 POP PUSH1 0x1 DUP3 AND PUSH0 DUP2 EQ PUSH2 0x2908 JUMPI PUSH1 0x1 DUP2 EQ PUSH2 0x291D JUMPI PUSH2 0x294F JUMP JUMPDEST PUSH1 0xFF NOT DUP4 AND DUP7 MSTORE DUP2 ISZERO ISZERO DUP3 MUL DUP7 ADD SWAP4 POP PUSH2 0x294F JUMP JUMPDEST PUSH2 0x2926 DUP6 PUSH2 0x25CA JUMP JUMPDEST PUSH0 JUMPDEST DUP4 DUP2 LT ISZERO PUSH2 0x2947 JUMPI DUP2 SLOAD DUP2 DUP10 ADD MSTORE PUSH1 0x1 DUP3 ADD SWAP2 POP PUSH1 0x20 DUP2 ADD SWAP1 POP PUSH2 0x2928 JUMP JUMPDEST DUP4 DUP9 ADD SWAP6 POP POP POP JUMPDEST POP POP POP SWAP3 SWAP2 POP POP JUMP JUMPDEST PUSH0 PUSH2 0x2963 DUP3 DUP7 PUSH2 0x28A8 JUMP JUMPDEST SWAP2 POP PUSH2 0x296F DUP3 DUP6 PUSH2 0x28A8 JUMP JUMPDEST SWAP2 POP PUSH2 0x297B DUP3 DUP5 PUSH2 0x28D8 JUMP JUMPDEST SWAP2 POP DUP2 SWAP1 POP SWAP5 SWAP4 POP POP POP POP JUMP JUMPDEST PUSH32 0x4E487B7100000000000000000000000000000000000000000000000000000000 PUSH0 MSTORE PUSH1 0x11 PUSH1 0x4 MSTORE PUSH1 0x24 PUSH0 REVERT JUMPDEST PUSH0 PUSH2 0x29BF DUP3 PUSH2 0x1F60 JUMP JUMPDEST SWAP2 POP PUSH0 DUP3 SUB PUSH2 0x29D1 JUMPI PUSH2 0x29D0 PUSH2 0x2988 JUMP JUMPDEST JUMPDEST PUSH1 0x1 DUP3 SUB SWAP1 POP SWAP2 SWAP1 POP JUMP JUMPDEST PUSH0 DUP2 MLOAD SWAP1 POP SWAP2 SWAP1 POP JUMP JUMPDEST PUSH0 DUP3 DUP3 MSTORE PUSH1 0x20 DUP3 ADD SWAP1 POP SWAP3 SWAP2 POP POP JUMP JUMPDEST PUSH0 PUSH2 0x2A00 DUP3 PUSH2 0x29DC JUMP JUMPDEST PUSH2 0x2A0A DUP2 DUP6 PUSH2 0x29E6 JUMP JUMPDEST SWAP4 POP PUSH2 0x2A1A DUP2 DUP6 PUSH1 0x20 DUP7 ADD PUSH2 0x1ED0 JUMP JUMPDEST PUSH2 0x2A23 DUP2 PUSH2 0x1EF8 JUMP JUMPDEST DUP5 ADD SWAP2 POP POP SWAP3 SWAP2 POP POP JUMP JUMPDEST PUSH0 PUSH1 0x80 DUP3 ADD SWAP1 POP PUSH2 0x2A41 PUSH0 DUP4 ADD DUP8 PUSH2 0x1FEE JUMP JUMPDEST PUSH2 0x2A4E PUSH1 0x20 DUP4 ADD DUP7 PUSH2 0x1FEE JUMP JUMPDEST PUSH2 0x2A5B PUSH1 0x40 DUP4 ADD DUP6 PUSH2 0x21F1 JUMP JUMPDEST DUP2 DUP2 SUB PUSH1 0x60 DUP4 ADD MSTORE PUSH2 0x2A6D DUP2 DUP5 PUSH2 0x29F6 JUMP JUMPDEST SWAP1 POP SWAP6 SWAP5 POP POP POP POP POP JUMP JUMPDEST PUSH0 DUP2 MLOAD SWAP1 POP PUSH2 0x2A86 DUP2 PUSH2 0x1E2E JUMP JUMPDEST SWAP3 SWAP2 POP POP JUMP JUMPDEST PUSH0 PUSH1 0x20 DUP3 DUP5 SUB SLT ISZERO PUSH2 0x2AA1 JUMPI PUSH2 0x2AA0 PUSH2 0x1DFB JUMP JUMPDEST JUMPDEST PUSH0 PUSH2 0x2AAE DUP5 DUP3 DUP6 ADD PUSH2 0x2A78 JUMP JUMPDEST SWAP2 POP POP SWAP3 SWAP2 POP POP JUMP INVALID LOG2 PUSH5 0x6970667358 0x22 SLT KECCAK256 PUSH32 0x3E2CB868CEF7440163EF260579E385D323DCC978267A646C14757264D899B364 PUSH20 0x6F6C634300081600330000000000000000000000 "
				},
				"gasEstimates": {
					"creation": {
						"codeDepositCost": "2197800",
						"executionCost": "infinite",
						"totalCost": "infinite"
					},
					"external": {
						"approve(address,uint256)": "infinite",
						"balanceOf(address)": "2981",
						"baseURI_()": "infinite",
						"checkredeemednftid(address)": "infinite",
						"checkredemmedphysicalitem(uint256,address)": "3162",
						"getApproved(uint256)": "infinite",
						"isApprovedForAll(address,address)": "infinite",
						"mint(address,uint256)": "infinite",
						"name()": "infinite",
						"owner()": "2582",
						"ownerOf(uint256)": "infinite",
						"redeemPhysicalItem(uint256)": "infinite",
						"renounceOwnership()": "infinite",
						"safeTransferFrom(address,address,uint256)": "infinite",
						"safeTransferFrom(address,address,uint256,bytes)": "infinite",
						"setApprovalForAll(address,bool)": "infinite",
						"setBaseURI(string)": "infinite",
						"setUriSuffix(string)": "infinite",
						"setapprovedcontractaddress(address)": "infinite",
						"supportsInterface(bytes4)": "736",
						"symbol()": "infinite",
						"tokenURI(uint256)": "infinite",
						"totalSupply()": "4712",
						"transferFrom(address,address,uint256)": "infinite",
						"transferOwnership(address)": "infinite",
						"uriSuffix()": "infinite"
					},
					"internal": {
						"_afterTokenTransfers(address,address,uint256,uint256)": "17",
						"_approve(address,uint256)": "infinite",
						"_approve(address,uint256,bool)": "infinite",
						"_baseURI()": "infinite",
						"_beforeTokenTransfers(address,address,uint256,uint256)": "17",
						"_burn(uint256)": "infinite",
						"_burn(uint256,bool)": "infinite",
						"_checkContractOnERC721Received(address,address,uint256,bytes memory)": "infinite",
						"_exists(uint256)": "infinite",
						"_extraData(address,address,uint24)": "23",
						"_getApprovedSlotAndAddress(uint256)": "2232",
						"_getAux(address)": "infinite",
						"_initializeOwnershipAt(uint256)": "infinite",
						"_isSenderApprovedOrOwner(address,address,address)": "77",
						"_mint(address,uint256)": "infinite",
						"_mintERC2309(address,uint256)": "infinite",
						"_msgSenderERC721A()": "21",
						"_nextExtraData(address,address,uint256)": "112",
						"_nextInitializedFlag(uint256)": "39",
						"_nextTokenId()": "infinite",
						"_numberBurned(address)": "infinite",
						"_numberMinted(address)": "infinite",
						"_ownershipAt(uint256)": "infinite",
						"_ownershipIsInitialized(uint256)": "infinite",
						"_ownershipOf(uint256)": "infinite",
						"_packOwnershipData(address,uint256)": "60",
						"_packedOwnershipOf(uint256)": "infinite",
						"_revert(bytes4)": "17",
						"_safeMint(address,uint256)": "infinite",
						"_safeMint(address,uint256,bytes memory)": "infinite",
						"_setAux(address,uint64)": "infinite",
						"_setExtraDataAt(uint256,uint24)": "infinite",
						"_startTokenId()": "22",
						"_toString(uint256)": "infinite",
						"_totalBurned()": "infinite",
						"_totalMinted()": "infinite",
						"_unpackedOwnership(uint256)": "infinite"
					}
				},
				"methodIdentifiers": {
					"approve(address,uint256)": "095ea7b3",
					"balanceOf(address)": "70a08231",
					"baseURI_()": "f259a29e",
					"checkredeemednftid(address)": "bf1e5e9e",
					"checkredemmedphysicalitem(uint256,address)": "8370d004",
					"getApproved(uint256)": "081812fc",
					"isApprovedForAll(address,address)": "e985e9c5",
					"mint(address,uint256)": "40c10f19",
					"name()": "06fdde03",
					"owner()": "8da5cb5b",
					"ownerOf(uint256)": "6352211e",
					"redeemPhysicalItem(uint256)": "dc76668d",
					"renounceOwnership()": "715018a6",
					"safeTransferFrom(address,address,uint256)": "42842e0e",
					"safeTransferFrom(address,address,uint256,bytes)": "b88d4fde",
					"setApprovalForAll(address,bool)": "a22cb465",
					"setBaseURI(string)": "55f804b3",
					"setUriSuffix(string)": "16ba10e0",
					"setapprovedcontractaddress(address)": "b6b285d9",
					"supportsInterface(bytes4)": "01ffc9a7",
					"symbol()": "95d89b41",
					"tokenURI(uint256)": "c87b56dd",
					"totalSupply()": "18160ddd",
					"transferFrom(address,address,uint256)": "23b872dd",
					"transferOwnership(address)": "f2fde38b",
					"uriSuffix()": "5503a0e8"
				}
			},
			"storageLayout": {
				"storage": [
					{
						"astId": 8,
						"contract": "chestNft.sol:KleptoGnomeLootChest",
						"label": "_owner",
						"offset": 0,
						"slot": "0",
						"type": "t_address"
					},
					{
						"astId": 436,
						"contract": "chestNft.sol:KleptoGnomeLootChest",
						"label": "_currentIndex",
						"offset": 0,
						"slot": "1",
						"type": "t_uint256"
					},
					{
						"astId": 438,
						"contract": "chestNft.sol:KleptoGnomeLootChest",
						"label": "_burnCounter",
						"offset": 0,
						"slot": "2",
						"type": "t_uint256"
					},
					{
						"astId": 440,
						"contract": "chestNft.sol:KleptoGnomeLootChest",
						"label": "_name",
						"offset": 0,
						"slot": "3",
						"type": "t_string_storage"
					},
					{
						"astId": 442,
						"contract": "chestNft.sol:KleptoGnomeLootChest",
						"label": "_symbol",
						"offset": 0,
						"slot": "4",
						"type": "t_string_storage"
					},
					{
						"astId": 444,
						"contract": "chestNft.sol:KleptoGnomeLootChest",
						"label": "baseURI_",
						"offset": 0,
						"slot": "5",
						"type": "t_string_storage"
					},
					{
						"astId": 447,
						"contract": "chestNft.sol:KleptoGnomeLootChest",
						"label": "uriSuffix",
						"offset": 0,
						"slot": "6",
						"type": "t_string_storage"
					},
					{
						"astId": 452,
						"contract": "chestNft.sol:KleptoGnomeLootChest",
						"label": "nftsredeemed",
						"offset": 0,
						"slot": "7",
						"type": "t_mapping(t_address,t_array(t_uint256)dyn_storage)"
					},
					{
						"astId": 454,
						"contract": "chestNft.sol:KleptoGnomeLootChest",
						"label": "counter",
						"offset": 0,
						"slot": "8",
						"type": "t_uint256"
					},
					{
						"astId": 458,
						"contract": "chestNft.sol:KleptoGnomeLootChest",
						"label": "onlyapprovedcontractaddress",
						"offset": 0,
						"slot": "9",
						"type": "t_mapping(t_address,t_bool)"
					},
					{
						"astId": 464,
						"contract": "chestNft.sol:KleptoGnomeLootChest",
						"label": "_checkredemmedphysicalitem",
						"offset": 0,
						"slot": "10",
						"type": "t_mapping(t_address,t_mapping(t_uint256,t_bool))"
					},
					{
						"astId": 468,
						"contract": "chestNft.sol:KleptoGnomeLootChest",
						"label": "_packedOwnerships",
						"offset": 0,
						"slot": "11",
						"type": "t_mapping(t_uint256,t_uint256)"
					},
					{
						"astId": 472,
						"contract": "chestNft.sol:KleptoGnomeLootChest",
						"label": "_packedAddressData",
						"offset": 0,
						"slot": "12",
						"type": "t_mapping(t_address,t_uint256)"
					},
					{
						"astId": 477,
						"contract": "chestNft.sol:KleptoGnomeLootChest",
						"label": "_tokenApprovals",
						"offset": 0,
						"slot": "13",
						"type": "t_mapping(t_uint256,t_struct(TokenApprovalRef)368_storage)"
					},
					{
						"astId": 483,
						"contract": "chestNft.sol:KleptoGnomeLootChest",
						"label": "_operatorApprovals",
						"offset": 0,
						"slot": "14",
						"type": "t_mapping(t_address,t_mapping(t_address,t_bool))"
					}
				],
				"types": {
					"t_address": {
						"encoding": "inplace",
						"label": "address",
						"numberOfBytes": "20"
					},
					"t_array(t_uint256)dyn_storage": {
						"base": "t_uint256",
						"encoding": "dynamic_array",
						"label": "uint256[]",
						"numberOfBytes": "32"
					},
					"t_bool": {
						"encoding": "inplace",
						"label": "bool",
						"numberOfBytes": "1"
					},
					"t_mapping(t_address,t_array(t_uint256)dyn_storage)": {
						"encoding": "mapping",
						"key": "t_address",
						"label": "mapping(address => uint256[])",
						"numberOfBytes": "32",
						"value": "t_array(t_uint256)dyn_storage"
					},
					"t_mapping(t_address,t_bool)": {
						"encoding": "mapping",
						"key": "t_address",
						"label": "mapping(address => bool)",
						"numberOfBytes": "32",
						"value": "t_bool"
					},
					"t_mapping(t_address,t_mapping(t_address,t_bool))": {
						"encoding": "mapping",
						"key": "t_address",
						"label": "mapping(address => mapping(address => bool))",
						"numberOfBytes": "32",
						"value": "t_mapping(t_address,t_bool)"
					},
					"t_mapping(t_address,t_mapping(t_uint256,t_bool))": {
						"encoding": "mapping",
						"key": "t_address",
						"label": "mapping(address => mapping(uint256 => bool))",
						"numberOfBytes": "32",
						"value": "t_mapping(t_uint256,t_bool)"
					},
					"t_mapping(t_address,t_uint256)": {
						"encoding": "mapping",
						"key": "t_address",
						"label": "mapping(address => uint256)",
						"numberOfBytes": "32",
						"value": "t_uint256"
					},
					"t_mapping(t_uint256,t_bool)": {
						"encoding": "mapping",
						"key": "t_uint256",
						"label": "mapping(uint256 => bool)",
						"numberOfBytes": "32",
						"value": "t_bool"
					},
					"t_mapping(t_uint256,t_struct(TokenApprovalRef)368_storage)": {
						"encoding": "mapping",
						"key": "t_uint256",
						"label": "mapping(uint256 => struct KleptoGnomeLootChest.TokenApprovalRef)",
						"numberOfBytes": "32",
						"value": "t_struct(TokenApprovalRef)368_storage"
					},
					"t_mapping(t_uint256,t_uint256)": {
						"encoding": "mapping",
						"key": "t_uint256",
						"label": "mapping(uint256 => uint256)",
						"numberOfBytes": "32",
						"value": "t_uint256"
					},
					"t_string_storage": {
						"encoding": "bytes",
						"label": "string",
						"numberOfBytes": "32"
					},
					"t_struct(TokenApprovalRef)368_storage": {
						"encoding": "inplace",
						"label": "struct KleptoGnomeLootChest.TokenApprovalRef",
						"members": [
							{
								"astId": 367,
								"contract": "chestNft.sol:KleptoGnomeLootChest",
								"label": "value",
								"offset": 0,
								"slot": "0",
								"type": "t_address"
							}
						],
						"numberOfBytes": "32"
					},
					"t_uint256": {
						"encoding": "inplace",
						"label": "uint256",
						"numberOfBytes": "32"
					}
				}
			},
			"userdoc": {
				"kind": "user",
				"methods": {},
				"version": 1
			}
		}
	}
}