{
	"spoilsToken.sol": {
		"SpoilsToken": {
			"abi": [
				{
					"inputs": [
						{
							"internalType": "string",
							"name": "name_",
							"type": "string"
						},
						{
							"internalType": "string",
							"name": "symbol_",
							"type": "string"
						},
						{
							"internalType": "uint256",
							"name": "amount",
							"type": "uint256"
						}
					],
					"stateMutability": "nonpayable",
					"type": "constructor"
				},
				{
					"anonymous": false,
					"inputs": [
						{
							"indexed": true,
							"internalType": "address",
							"name": "owner",
							"type": "address"
						},
						{
							"indexed": true,
							"internalType": "address",
							"name": "spender",
							"type": "address"
						},
						{
							"indexed": false,
							"internalType": "uint256",
							"name": "value",
							"type": "uint256"
						}
					],
					"name": "Approval",
					"type": "event"
				},
				{
					"anonymous": false,
					"inputs": [
						{
							"indexed": true,
							"internalType": "address",
							"name": "from",
							"type": "address"
						},
						{
							"indexed": true,
							"internalType": "address",
							"name": "to",
							"type": "address"
						},
						{
							"indexed": false,
							"internalType": "uint256",
							"name": "value",
							"type": "uint256"
						}
					],
					"name": "Transfer",
					"type": "event"
				},
				{
					"inputs": [
						{
							"internalType": "address",
							"name": "owner",
							"type": "address"
						},
						{
							"internalType": "address",
							"name": "spender",
							"type": "address"
						}
					],
					"name": "allowance",
					"outputs": [
						{
							"internalType": "uint256",
							"name": "",
							"type": "uint256"
						}
					],
					"stateMutability": "view",
					"type": "function"
				},
				{
					"inputs": [
						{
							"internalType": "address",
							"name": "spender",
							"type": "address"
						},
						{
							"internalType": "uint256",
							"name": "amount",
							"type": "uint256"
						}
					],
					"name": "approve",
					"outputs": [
						{
							"internalType": "bool",
							"name": "",
							"type": "bool"
						}
					],
					"stateMutability": "nonpayable",
					"type": "function"
				},
				{
					"inputs": [
						{
							"internalType": "address",
							"name": "account",
							"type": "address"
						}
					],
					"name": "balanceOf",
					"outputs": [
						{
							"internalType": "uint256",
							"name": "",
							"type": "uint256"
						}
					],
					"stateMutability": "view",
					"type": "function"
				},
				{
					"inputs": [
						{
							"internalType": "address",
							"name": "add",
							"type": "address"
						},
						{
							"internalType": "uint256",
							"name": "amount",
							"type": "uint256"
						}
					],
					"name": "burn",
					"outputs": [],
					"stateMutability": "nonpayable",
					"type": "function"
				},
				{
					"inputs": [],
					"name": "decimals",
					"outputs": [
						{
							"internalType": "uint8",
							"name": "",
							"type": "uint8"
						}
					],
					"stateMutability": "view",
					"type": "function"
				},
				{
					"inputs": [
						{
							"internalType": "address",
							"name": "spender",
							"type": "address"
						},
						{
							"internalType": "uint256",
							"name": "subtractedValue",
							"type": "uint256"
						}
					],
					"name": "decreaseAllowance",
					"outputs": [
						{
							"internalType": "bool",
							"name": "",
							"type": "bool"
						}
					],
					"stateMutability": "nonpayable",
					"type": "function"
				},
				{
					"inputs": [
						{
							"internalType": "address",
							"name": "spender",
							"type": "address"
						},
						{
							"internalType": "uint256",
							"name": "addedValue",
							"type": "uint256"
						}
					],
					"name": "increaseAllowance",
					"outputs": [
						{
							"internalType": "bool",
							"name": "",
							"type": "bool"
						}
					],
					"stateMutability": "nonpayable",
					"type": "function"
				},
				{
					"inputs": [
						{
							"internalType": "address",
							"name": "add",
							"type": "address"
						},
						{
							"internalType": "uint256",
							"name": "amount",
							"type": "uint256"
						}
					],
					"name": "mint",
					"outputs": [],
					"stateMutability": "nonpayable",
					"type": "function"
				},
				{
					"inputs": [],
					"name": "name",
					"outputs": [
						{
							"internalType": "string",
							"name": "",
							"type": "string"
						}
					],
					"stateMutability": "view",
					"type": "function"
				},
				{
					"inputs": [
						{
							"internalType": "address",
							"name": "add",
							"type": "address"
						}
					],
					"name": "setapprovedcontractaddress",
					"outputs": [],
					"stateMutability": "nonpayable",
					"type": "function"
				},
				{
					"inputs": [],
					"name": "symbol",
					"outputs": [
						{
							"internalType": "string",
							"name": "",
							"type": "string"
						}
					],
					"stateMutability": "view",
					"type": "function"
				},
				{
					"inputs": [],
					"name": "totalSupply",
					"outputs": [
						{
							"internalType": "uint256",
							"name": "",
							"type": "uint256"
						}
					],
					"stateMutability": "view",
					"type": "function"
				},
				{
					"inputs": [
						{
							"internalType": "address",
							"name": "recipient",
							"type": "address"
						},
						{
							"internalType": "uint256",
							"name": "amount",
							"type": "uint256"
						}
					],
					"name": "transfer",
					"outputs": [
						{
							"internalType": "bool",
							"name": "",
							"type": "bool"
						}
					],
					"stateMutability": "nonpayable",
					"type": "function"
				},
				{
					"inputs": [
						{
							"internalType": "address",
							"name": "sender",
							"type": "address"
						},
						{
							"internalType": "address",
							"name": "recipient",
							"type": "address"
						},
						{
							"internalType": "uint256",
							"name": "amount",
							"type": "uint256"
						}
					],
					"name": "transferFrom",
					"outputs": [
						{
							"internalType": "bool",
							"name": "",
							"type": "bool"
						}
					],
					"stateMutability": "nonpayable",
					"type": "function"
				}
			],
			"devdoc": {
				"details": "Implementation of the {IERC20} interface. This implementation is agnostic to the way tokens are created. This means that a supply mechanism has to be added in a derived contract using {_mint}. For a generic mechanism see {ERC20PresetMinterPauser}. TIP: For a detailed writeup see our guide https://forum.zeppelin.solutions/t/how-to-implement-erc20-supply-mechanisms/226[How to implement supply mechanisms]. We have followed general OpenZeppelin Contracts guidelines: functions revert instead returning `false` on failure. This behavior is nonetheless conventional and does not conflict with the expectations of ERC20 applications. Additionally, an {Approval} event is emitted on calls to {transferFrom}. This allows applications to reconstruct the allowance for all accounts just by listening to said events. Other implementations of the EIP may not emit these events, as it isn't required by the specification. Finally, the non-standard {decreaseAllowance} and {increaseAllowance} functions have been added to mitigate the well-known issues around setting allowances. See {IERC20-approve}.",
				"events": {
					"Approval(address,address,uint256)": {
						"details": "Emitted when the allowance of a `spender` for an `owner` is set by a call to {approve}. `value` is the new allowance."
					},
					"Transfer(address,address,uint256)": {
						"details": "Emitted when `value` tokens are moved from one account (`from`) to another (`to`). Note that `value` may be zero."
					}
				},
				"kind": "dev",
				"methods": {
					"allowance(address,address)": {
						"details": "See {IERC20-allowance}."
					},
					"approve(address,uint256)": {
						"details": "See {IERC20-approve}. Requirements: - `spender` cannot be the zero address."
					},
					"balanceOf(address)": {
						"details": "See {IERC20-balanceOf}."
					},
					"constructor": {
						"details": "Sets the values for {name} and {symbol}. The default value of {decimals} is 18. To select a different value for {decimals} you should overload it. All two of these values are immutable: they can only be set once during construction."
					},
					"decimals()": {
						"details": "Returns the number of decimals used to get its user representation. For example, if `decimals` equals `2`, a balance of `505` tokens should be displayed to a user as `5.05` (`505 / 10 ** 2`). Tokens usually opt for a value of 18, imitating the relationship between Ether and Wei. This is the value {ERC20} uses, unless this function is overridden; NOTE: This information is only used for _display_ purposes: it in no way affects any of the arithmetic of the contract, including {IERC20-balanceOf} and {IERC20-transfer}."
					},
					"decreaseAllowance(address,uint256)": {
						"details": "Atomically decreases the allowance granted to `spender` by the caller. This is an alternative to {approve} that can be used as a mitigation for problems described in {IERC20-approve}. Emits an {Approval} event indicating the updated allowance. Requirements: - `spender` cannot be the zero address. - `spender` must have allowance for the caller of at least `subtractedValue`."
					},
					"increaseAllowance(address,uint256)": {
						"details": "Atomically increases the allowance granted to `spender` by the caller. This is an alternative to {approve} that can be used as a mitigation for problems described in {IERC20-approve}. Emits an {Approval} event indicating the updated allowance. Requirements: - `spender` cannot be the zero address."
					},
					"name()": {
						"details": "Returns the name of the token."
					},
					"symbol()": {
						"details": "Returns the symbol of the token, usually a shorter version of the name."
					},
					"totalSupply()": {
						"details": "See {IERC20-totalSupply}."
					},
					"transfer(address,uint256)": {
						"details": "See {IERC20-transfer}. Requirements: - `recipient` cannot be the zero address. - the caller must have a balance of at least `amount`."
					},
					"transferFrom(address,address,uint256)": {
						"details": "See {IERC20-transferFrom}. Emits an {Approval} event indicating the updated allowance. This is not required by the EIP. See the note at the beginning of {ERC20}. Requirements: - `sender` and `recipient` cannot be the zero address. - `sender` must have a balance of at least `amount`. - the caller must have allowance for ``sender``'s tokens of at least `amount`."
					}
				},
				"version": 1
			},
			"evm": {
				"assembly": "    /* \"spoilsToken.sol\":1415:12787  contract SpoilsToken is Context, IERC20, IERC20Metadata {... */\n  mstore(0x40, 0x80)\n    /* \"spoilsToken.sol\":2074:2240  constructor(string memory name_, string memory symbol_ ,uint amount) {... */\n  callvalue\n  dup1\n  iszero\n  tag_1\n  jumpi\n  0x00\n  dup1\n  revert\ntag_1:\n  pop\n  mload(0x40)\n  sub(codesize, bytecodeSize)\n  dup1\n  bytecodeSize\n  dup4\n  codecopy\n  dup2\n  dup2\n  add\n  0x40\n  mstore\n  dup2\n  add\n  swap1\n  tag_2\n  swap2\n  swap1\n  tag_3\n  jump\t// in\ntag_2:\n    /* \"spoilsToken.sol\":2162:2167  name_ */\n  dup3\n    /* \"spoilsToken.sol\":2154:2159  _name */\n  0x03\n    /* \"spoilsToken.sol\":2154:2167  _name = name_ */\n  swap1\n  dup2\n  tag_6\n  swap2\n  swap1\n  tag_7\n  jump\t// in\ntag_6:\n  pop\n    /* \"spoilsToken.sol\":2188:2195  symbol_ */\n  dup2\n    /* \"spoilsToken.sol\":2178:2185  _symbol */\n  0x04\n    /* \"spoilsToken.sol\":2178:2195  _symbol = symbol_ */\n  swap1\n  dup2\n  tag_8\n  swap2\n  swap1\n  tag_7\n  jump\t// in\ntag_8:\n  pop\n    /* \"spoilsToken.sol\":2206:2230  _mint(msg.sender,amount) */\n  tag_9\n    /* \"spoilsToken.sol\":2212:2222  msg.sender */\n  caller\n    /* \"spoilsToken.sol\":2223:2229  amount */\n  dup3\n    /* \"spoilsToken.sol\":2206:2211  _mint */\n  shl(0x20, tag_10)\n    /* \"spoilsToken.sol\":2206:2230  _mint(msg.sender,amount) */\n  0x20\n  shr\n  jump\t// in\ntag_9:\n    /* \"spoilsToken.sol\":2074:2240  constructor(string memory name_, string memory symbol_ ,uint amount) {... */\n  pop\n  pop\n  pop\n    /* \"spoilsToken.sol\":1415:12787  contract SpoilsToken is Context, IERC20, IERC20Metadata {... */\n  jump(tag_11)\n    /* \"spoilsToken.sol\":9000:9399  function _mint(address account, uint256 amount) internal virtual {... */\ntag_10:\n    /* \"spoilsToken.sol\":9103:9104  0 */\n  0x00\n    /* \"spoilsToken.sol\":9084:9105  account != address(0) */\n  0xffffffffffffffffffffffffffffffffffffffff\n  and\n    /* \"spoilsToken.sol\":9084:9091  account */\n  dup3\n    /* \"spoilsToken.sol\":9084:9105  account != address(0) */\n  0xffffffffffffffffffffffffffffffffffffffff\n  and\n  sub\n    /* \"spoilsToken.sol\":9076:9141  require(account != address(0), \"ERC20: mint to the zero address\") */\n  tag_13\n  jumpi\n  mload(0x40)\n  0x08c379a000000000000000000000000000000000000000000000000000000000\n  dup2\n  mstore\n  0x04\n  add\n  tag_14\n  swap1\n  tag_15\n  jump\t// in\ntag_14:\n  mload(0x40)\n  dup1\n  swap2\n  sub\n  swap1\n  revert\ntag_13:\n    /* \"spoilsToken.sol\":9154:9203  _beforeTokenTransfer(address(0), account, amount) */\n  tag_16\n    /* \"spoilsToken.sol\":9183:9184  0 */\n  0x00\n    /* \"spoilsToken.sol\":9187:9194  account */\n  dup4\n    /* \"spoilsToken.sol\":9196:9202  amount */\n  dup4\n    /* \"spoilsToken.sol\":9154:9174  _beforeTokenTransfer */\n  shl(0x20, tag_17)\n    /* \"spoilsToken.sol\":9154:9203  _beforeTokenTransfer(address(0), account, amount) */\n  0x20\n  shr\n  jump\t// in\ntag_16:\n    /* \"spoilsToken.sol\":9232:9238  amount */\n  dup1\n    /* \"spoilsToken.sol\":9216:9228  _totalSupply */\n  0x02\n  0x00\n    /* \"spoilsToken.sol\":9216:9238  _totalSupply += amount */\n  dup3\n  dup3\n  sload\n  tag_18\n  swap2\n  swap1\n  tag_19\n  jump\t// in\ntag_18:\n  swap3\n  pop\n  pop\n  dup2\n  swap1\n  sstore\n  pop\n    /* \"spoilsToken.sol\":9271:9277  amount */\n  dup1\n    /* \"spoilsToken.sol\":9249:9258  _balances */\n  0x00\n    /* \"spoilsToken.sol\":9249:9267  _balances[account] */\n  dup1\n    /* \"spoilsToken.sol\":9259:9266  account */\n  dup5\n    /* \"spoilsToken.sol\":9249:9267  _balances[account] */\n  0xffffffffffffffffffffffffffffffffffffffff\n  and\n  0xffffffffffffffffffffffffffffffffffffffff\n  and\n  dup2\n  mstore\n  0x20\n  add\n  swap1\n  dup2\n  mstore\n  0x20\n  add\n  0x00\n  keccak256\n  0x00\n    /* \"spoilsToken.sol\":9249:9277  _balances[account] += amount */\n  dup3\n  dup3\n  sload\n  tag_20\n  swap2\n  swap1\n  tag_19\n  jump\t// in\ntag_20:\n  swap3\n  pop\n  pop\n  dup2\n  swap1\n  sstore\n  pop\n    /* \"spoilsToken.sol\":9314:9321  account */\n  dup2\n    /* \"spoilsToken.sol\":9293:9330  Transfer(address(0), account, amount) */\n  0xffffffffffffffffffffffffffffffffffffffff\n  and\n    /* \"spoilsToken.sol\":9310:9311  0 */\n  0x00\n    /* \"spoilsToken.sol\":9293:9330  Transfer(address(0), account, amount) */\n  0xffffffffffffffffffffffffffffffffffffffff\n  and\n  0xddf252ad1be2c89b69c2b068fc378daa952ba7f163c4a11628f55a4df523b3ef\n    /* \"spoilsToken.sol\":9323:9329  amount */\n  dup4\n    /* \"spoilsToken.sol\":9293:9330  Transfer(address(0), account, amount) */\n  mload(0x40)\n  tag_21\n  swap2\n  swap1\n  tag_22\n  jump\t// in\ntag_21:\n  mload(0x40)\n  dup1\n  swap2\n  sub\n  swap1\n  log3\n    /* \"spoilsToken.sol\":9343:9391  _afterTokenTransfer(address(0), account, amount) */\n  tag_23\n    /* \"spoilsToken.sol\":9371:9372  0 */\n  0x00\n    /* \"spoilsToken.sol\":9375:9382  account */\n  dup4\n    /* \"spoilsToken.sol\":9384:9390  amount */\n  dup4\n    /* \"spoilsToken.sol\":9343:9362  _afterTokenTransfer */\n  shl(0x20, tag_24)\n    /* \"spoilsToken.sol\":9343:9391  _afterTokenTransfer(address(0), account, amount) */\n  0x20\n  shr\n  jump\t// in\ntag_23:\n    /* \"spoilsToken.sol\":9000:9399  function _mint(address account, uint256 amount) internal virtual {... */\n  pop\n  pop\n  jump\t// out\n    /* \"spoilsToken.sol\":11931:12056  function _beforeTokenTransfer(... */\ntag_17:\n  pop\n  pop\n  pop\n  jump\t// out\n    /* \"spoilsToken.sol\":12660:12784  function _afterTokenTransfer(... */\ntag_24:\n  pop\n  pop\n  pop\n  jump\t// out\n    /* \"#utility.yul\":7:82   */\ntag_27:\n    /* \"#utility.yul\":40:46   */\n  0x00\n    /* \"#utility.yul\":73:75   */\n  0x40\n    /* \"#utility.yul\":67:76   */\n  mload\n    /* \"#utility.yul\":57:76   */\n  swap1\n  pop\n    /* \"#utility.yul\":7:82   */\n  swap1\n  jump\t// out\n    /* \"#utility.yul\":88:205   */\ntag_28:\n    /* \"#utility.yul\":197:198   */\n  0x00\n    /* \"#utility.yul\":194:195   */\n  dup1\n    /* \"#utility.yul\":187:199   */\n  revert\n    /* \"#utility.yul\":211:328   */\ntag_29:\n    /* \"#utility.yul\":320:321   */\n  0x00\n    /* \"#utility.yul\":317:318   */\n  dup1\n    /* \"#utility.yul\":310:322   */\n  revert\n    /* \"#utility.yul\":334:451   */\ntag_30:\n    /* \"#utility.yul\":443:444   */\n  0x00\n    /* \"#utility.yul\":440:441   */\n  dup1\n    /* \"#utility.yul\":433:445   */\n  revert\n    /* \"#utility.yul\":457:574   */\ntag_31:\n    /* \"#utility.yul\":566:567   */\n  0x00\n    /* \"#utility.yul\":563:564   */\n  dup1\n    /* \"#utility.yul\":556:568   */\n  revert\n    /* \"#utility.yul\":580:682   */\ntag_32:\n    /* \"#utility.yul\":621:627   */\n  0x00\n    /* \"#utility.yul\":672:674   */\n  0x1f\n    /* \"#utility.yul\":668:675   */\n  not\n    /* \"#utility.yul\":663:665   */\n  0x1f\n    /* \"#utility.yul\":656:661   */\n  dup4\n    /* \"#utility.yul\":652:666   */\n  add\n    /* \"#utility.yul\":648:676   */\n  and\n    /* \"#utility.yul\":638:676   */\n  swap1\n  pop\n    /* \"#utility.yul\":580:682   */\n  swap2\n  swap1\n  pop\n  jump\t// out\n    /* \"#utility.yul\":688:868   */\ntag_33:\n    /* \"#utility.yul\":736:813   */\n  0x4e487b7100000000000000000000000000000000000000000000000000000000\n    /* \"#utility.yul\":733:734   */\n  0x00\n    /* \"#utility.yul\":726:814   */\n  mstore\n    /* \"#utility.yul\":833:837   */\n  0x41\n    /* \"#utility.yul\":830:831   */\n  0x04\n    /* \"#utility.yul\":823:838   */\n  mstore\n    /* \"#utility.yul\":857:861   */\n  0x24\n    /* \"#utility.yul\":854:855   */\n  0x00\n    /* \"#utility.yul\":847:862   */\n  revert\n    /* \"#utility.yul\":874:1155   */\ntag_34:\n    /* \"#utility.yul\":957:984   */\n  tag_75\n    /* \"#utility.yul\":979:983   */\n  dup3\n    /* \"#utility.yul\":957:984   */\n  tag_32\n  jump\t// in\ntag_75:\n    /* \"#utility.yul\":949:955   */\n  dup2\n    /* \"#utility.yul\":945:985   */\n  add\n    /* \"#utility.yul\":1087:1093   */\n  dup2\n    /* \"#utility.yul\":1075:1085   */\n  dup2\n    /* \"#utility.yul\":1072:1094   */\n  lt\n    /* \"#utility.yul\":1051:1069   */\n  0xffffffffffffffff\n    /* \"#utility.yul\":1039:1049   */\n  dup3\n    /* \"#utility.yul\":1036:1070   */\n  gt\n    /* \"#utility.yul\":1033:1095   */\n  or\n    /* \"#utility.yul\":1030:1118   */\n  iszero\n  tag_76\n  jumpi\n    /* \"#utility.yul\":1098:1116   */\n  tag_77\n  tag_33\n  jump\t// in\ntag_77:\n    /* \"#utility.yul\":1030:1118   */\ntag_76:\n    /* \"#utility.yul\":1138:1148   */\n  dup1\n    /* \"#utility.yul\":1134:1136   */\n  0x40\n    /* \"#utility.yul\":1127:1149   */\n  mstore\n    /* \"#utility.yul\":917:1155   */\n  pop\n    /* \"#utility.yul\":874:1155   */\n  pop\n  pop\n  jump\t// out\n    /* \"#utility.yul\":1161:1290   */\ntag_35:\n    /* \"#utility.yul\":1195:1201   */\n  0x00\n    /* \"#utility.yul\":1222:1242   */\n  tag_79\n  tag_27\n  jump\t// in\ntag_79:\n    /* \"#utility.yul\":1212:1242   */\n  swap1\n  pop\n    /* \"#utility.yul\":1251:1284   */\n  tag_80\n    /* \"#utility.yul\":1279:1283   */\n  dup3\n    /* \"#utility.yul\":1271:1277   */\n  dup3\n    /* \"#utility.yul\":1251:1284   */\n  tag_34\n  jump\t// in\ntag_80:\n    /* \"#utility.yul\":1161:1290   */\n  swap2\n  swap1\n  pop\n  jump\t// out\n    /* \"#utility.yul\":1296:1604   */\ntag_36:\n    /* \"#utility.yul\":1358:1362   */\n  0x00\n    /* \"#utility.yul\":1448:1466   */\n  0xffffffffffffffff\n    /* \"#utility.yul\":1440:1446   */\n  dup3\n    /* \"#utility.yul\":1437:1467   */\n  gt\n    /* \"#utility.yul\":1434:1490   */\n  iszero\n  tag_82\n  jumpi\n    /* \"#utility.yul\":1470:1488   */\n  tag_83\n  tag_33\n  jump\t// in\ntag_83:\n    /* \"#utility.yul\":1434:1490   */\ntag_82:\n    /* \"#utility.yul\":1508:1537   */\n  tag_84\n    /* \"#utility.yul\":1530:1536   */\n  dup3\n    /* \"#utility.yul\":1508:1537   */\n  tag_32\n  jump\t// in\ntag_84:\n    /* \"#utility.yul\":1500:1537   */\n  swap1\n  pop\n    /* \"#utility.yul\":1592:1596   */\n  0x20\n    /* \"#utility.yul\":1586:1590   */\n  dup2\n    /* \"#utility.yul\":1582:1597   */\n  add\n    /* \"#utility.yul\":1574:1597   */\n  swap1\n  pop\n    /* \"#utility.yul\":1296:1604   */\n  swap2\n  swap1\n  pop\n  jump\t// out\n    /* \"#utility.yul\":1610:1856   */\ntag_37:\n    /* \"#utility.yul\":1691:1692   */\n  0x00\n    /* \"#utility.yul\":1701:1814   */\ntag_86:\n    /* \"#utility.yul\":1715:1721   */\n  dup4\n    /* \"#utility.yul\":1712:1713   */\n  dup2\n    /* \"#utility.yul\":1709:1722   */\n  lt\n    /* \"#utility.yul\":1701:1814   */\n  iszero\n  tag_88\n  jumpi\n    /* \"#utility.yul\":1800:1801   */\n  dup1\n    /* \"#utility.yul\":1795:1798   */\n  dup3\n    /* \"#utility.yul\":1791:1802   */\n  add\n    /* \"#utility.yul\":1785:1803   */\n  mload\n    /* \"#utility.yul\":1781:1782   */\n  dup2\n    /* \"#utility.yul\":1776:1779   */\n  dup5\n    /* \"#utility.yul\":1772:1783   */\n  add\n    /* \"#utility.yul\":1765:1804   */\n  mstore\n    /* \"#utility.yul\":1737:1739   */\n  0x20\n    /* \"#utility.yul\":1734:1735   */\n  dup2\n    /* \"#utility.yul\":1730:1740   */\n  add\n    /* \"#utility.yul\":1725:1740   */\n  swap1\n  pop\n    /* \"#utility.yul\":1701:1814   */\n  jump(tag_86)\ntag_88:\n    /* \"#utility.yul\":1848:1849   */\n  0x00\n    /* \"#utility.yul\":1839:1845   */\n  dup5\n    /* \"#utility.yul\":1834:1837   */\n  dup5\n    /* \"#utility.yul\":1830:1846   */\n  add\n    /* \"#utility.yul\":1823:1850   */\n  mstore\n    /* \"#utility.yul\":1672:1856   */\n  pop\n    /* \"#utility.yul\":1610:1856   */\n  pop\n  pop\n  pop\n  jump\t// out\n    /* \"#utility.yul\":1862:2296   */\ntag_38:\n    /* \"#utility.yul\":1951:1956   */\n  0x00\n    /* \"#utility.yul\":1976:2042   */\n  tag_90\n    /* \"#utility.yul\":1992:2041   */\n  tag_91\n    /* \"#utility.yul\":2034:2040   */\n  dup5\n    /* \"#utility.yul\":1992:2041   */\n  tag_36\n  jump\t// in\ntag_91:\n    /* \"#utility.yul\":1976:2042   */\n  tag_35\n  jump\t// in\ntag_90:\n    /* \"#utility.yul\":1967:2042   */\n  swap1\n  pop\n    /* \"#utility.yul\":2065:2071   */\n  dup3\n    /* \"#utility.yul\":2058:2063   */\n  dup2\n    /* \"#utility.yul\":2051:2072   */\n  mstore\n    /* \"#utility.yul\":2103:2107   */\n  0x20\n    /* \"#utility.yul\":2096:2101   */\n  dup2\n    /* \"#utility.yul\":2092:2108   */\n  add\n    /* \"#utility.yul\":2141:2144   */\n  dup5\n    /* \"#utility.yul\":2132:2138   */\n  dup5\n    /* \"#utility.yul\":2127:2130   */\n  dup5\n    /* \"#utility.yul\":2123:2139   */\n  add\n    /* \"#utility.yul\":2120:2145   */\n  gt\n    /* \"#utility.yul\":2117:2229   */\n  iszero\n  tag_92\n  jumpi\n    /* \"#utility.yul\":2148:2227   */\n  tag_93\n  tag_31\n  jump\t// in\ntag_93:\n    /* \"#utility.yul\":2117:2229   */\ntag_92:\n    /* \"#utility.yul\":2238:2290   */\n  tag_94\n    /* \"#utility.yul\":2283:2289   */\n  dup5\n    /* \"#utility.yul\":2278:2281   */\n  dup3\n    /* \"#utility.yul\":2273:2276   */\n  dup6\n    /* \"#utility.yul\":2238:2290   */\n  tag_37\n  jump\t// in\ntag_94:\n    /* \"#utility.yul\":1957:2296   */\n  pop\n    /* \"#utility.yul\":1862:2296   */\n  swap4\n  swap3\n  pop\n  pop\n  pop\n  jump\t// out\n    /* \"#utility.yul\":2316:2671   */\ntag_39:\n    /* \"#utility.yul\":2383:2388   */\n  0x00\n    /* \"#utility.yul\":2432:2435   */\n  dup3\n    /* \"#utility.yul\":2425:2429   */\n  0x1f\n    /* \"#utility.yul\":2417:2423   */\n  dup4\n    /* \"#utility.yul\":2413:2430   */\n  add\n    /* \"#utility.yul\":2409:2436   */\n  slt\n    /* \"#utility.yul\":2399:2521   */\n  tag_96\n  jumpi\n    /* \"#utility.yul\":2440:2519   */\n  tag_97\n  tag_30\n  jump\t// in\ntag_97:\n    /* \"#utility.yul\":2399:2521   */\ntag_96:\n    /* \"#utility.yul\":2550:2556   */\n  dup2\n    /* \"#utility.yul\":2544:2557   */\n  mload\n    /* \"#utility.yul\":2575:2665   */\n  tag_98\n    /* \"#utility.yul\":2661:2664   */\n  dup5\n    /* \"#utility.yul\":2653:2659   */\n  dup3\n    /* \"#utility.yul\":2646:2650   */\n  0x20\n    /* \"#utility.yul\":2638:2644   */\n  dup7\n    /* \"#utility.yul\":2634:2651   */\n  add\n    /* \"#utility.yul\":2575:2665   */\n  tag_38\n  jump\t// in\ntag_98:\n    /* \"#utility.yul\":2566:2665   */\n  swap2\n  pop\n    /* \"#utility.yul\":2389:2671   */\n  pop\n    /* \"#utility.yul\":2316:2671   */\n  swap3\n  swap2\n  pop\n  pop\n  jump\t// out\n    /* \"#utility.yul\":2677:2754   */\ntag_40:\n    /* \"#utility.yul\":2714:2721   */\n  0x00\n    /* \"#utility.yul\":2743:2748   */\n  dup2\n    /* \"#utility.yul\":2732:2748   */\n  swap1\n  pop\n    /* \"#utility.yul\":2677:2754   */\n  swap2\n  swap1\n  pop\n  jump\t// out\n    /* \"#utility.yul\":2760:2882   */\ntag_41:\n    /* \"#utility.yul\":2833:2857   */\n  tag_101\n    /* \"#utility.yul\":2851:2856   */\n  dup2\n    /* \"#utility.yul\":2833:2857   */\n  tag_40\n  jump\t// in\ntag_101:\n    /* \"#utility.yul\":2826:2831   */\n  dup2\n    /* \"#utility.yul\":2823:2858   */\n  eq\n    /* \"#utility.yul\":2813:2876   */\n  tag_102\n  jumpi\n    /* \"#utility.yul\":2872:2873   */\n  0x00\n    /* \"#utility.yul\":2869:2870   */\n  dup1\n    /* \"#utility.yul\":2862:2874   */\n  revert\n    /* \"#utility.yul\":2813:2876   */\ntag_102:\n    /* \"#utility.yul\":2760:2882   */\n  pop\n  jump\t// out\n    /* \"#utility.yul\":2888:3031   */\ntag_42:\n    /* \"#utility.yul\":2945:2950   */\n  0x00\n    /* \"#utility.yul\":2976:2982   */\n  dup2\n    /* \"#utility.yul\":2970:2983   */\n  mload\n    /* \"#utility.yul\":2961:2983   */\n  swap1\n  pop\n    /* \"#utility.yul\":2992:3025   */\n  tag_104\n    /* \"#utility.yul\":3019:3024   */\n  dup2\n    /* \"#utility.yul\":2992:3025   */\n  tag_41\n  jump\t// in\ntag_104:\n    /* \"#utility.yul\":2888:3031   */\n  swap3\n  swap2\n  pop\n  pop\n  jump\t// out\n    /* \"#utility.yul\":3037:4046   */\ntag_3:\n    /* \"#utility.yul\":3145:3151   */\n  0x00\n    /* \"#utility.yul\":3153:3159   */\n  dup1\n    /* \"#utility.yul\":3161:3167   */\n  0x00\n    /* \"#utility.yul\":3210:3212   */\n  0x60\n    /* \"#utility.yul\":3198:3207   */\n  dup5\n    /* \"#utility.yul\":3189:3196   */\n  dup7\n    /* \"#utility.yul\":3185:3208   */\n  sub\n    /* \"#utility.yul\":3181:3213   */\n  slt\n    /* \"#utility.yul\":3178:3297   */\n  iszero\n  tag_106\n  jumpi\n    /* \"#utility.yul\":3216:3295   */\n  tag_107\n  tag_28\n  jump\t// in\ntag_107:\n    /* \"#utility.yul\":3178:3297   */\ntag_106:\n    /* \"#utility.yul\":3357:3358   */\n  0x00\n    /* \"#utility.yul\":3346:3355   */\n  dup5\n    /* \"#utility.yul\":3342:3359   */\n  add\n    /* \"#utility.yul\":3336:3360   */\n  mload\n    /* \"#utility.yul\":3387:3405   */\n  0xffffffffffffffff\n    /* \"#utility.yul\":3379:3385   */\n  dup2\n    /* \"#utility.yul\":3376:3406   */\n  gt\n    /* \"#utility.yul\":3373:3490   */\n  iszero\n  tag_108\n  jumpi\n    /* \"#utility.yul\":3409:3488   */\n  tag_109\n  tag_29\n  jump\t// in\ntag_109:\n    /* \"#utility.yul\":3373:3490   */\ntag_108:\n    /* \"#utility.yul\":3514:3588   */\n  tag_110\n    /* \"#utility.yul\":3580:3587   */\n  dup7\n    /* \"#utility.yul\":3571:3577   */\n  dup3\n    /* \"#utility.yul\":3560:3569   */\n  dup8\n    /* \"#utility.yul\":3556:3578   */\n  add\n    /* \"#utility.yul\":3514:3588   */\n  tag_39\n  jump\t// in\ntag_110:\n    /* \"#utility.yul\":3504:3588   */\n  swap4\n  pop\n    /* \"#utility.yul\":3307:3598   */\n  pop\n    /* \"#utility.yul\":3658:3660   */\n  0x20\n    /* \"#utility.yul\":3647:3656   */\n  dup5\n    /* \"#utility.yul\":3643:3661   */\n  add\n    /* \"#utility.yul\":3637:3662   */\n  mload\n    /* \"#utility.yul\":3689:3707   */\n  0xffffffffffffffff\n    /* \"#utility.yul\":3681:3687   */\n  dup2\n    /* \"#utility.yul\":3678:3708   */\n  gt\n    /* \"#utility.yul\":3675:3792   */\n  iszero\n  tag_111\n  jumpi\n    /* \"#utility.yul\":3711:3790   */\n  tag_112\n  tag_29\n  jump\t// in\ntag_112:\n    /* \"#utility.yul\":3675:3792   */\ntag_111:\n    /* \"#utility.yul\":3816:3890   */\n  tag_113\n    /* \"#utility.yul\":3882:3889   */\n  dup7\n    /* \"#utility.yul\":3873:3879   */\n  dup3\n    /* \"#utility.yul\":3862:3871   */\n  dup8\n    /* \"#utility.yul\":3858:3880   */\n  add\n    /* \"#utility.yul\":3816:3890   */\n  tag_39\n  jump\t// in\ntag_113:\n    /* \"#utility.yul\":3806:3890   */\n  swap3\n  pop\n    /* \"#utility.yul\":3608:3900   */\n  pop\n    /* \"#utility.yul\":3939:3941   */\n  0x40\n    /* \"#utility.yul\":3965:4029   */\n  tag_114\n    /* \"#utility.yul\":4021:4028   */\n  dup7\n    /* \"#utility.yul\":4012:4018   */\n  dup3\n    /* \"#utility.yul\":4001:4010   */\n  dup8\n    /* \"#utility.yul\":3997:4019   */\n  add\n    /* \"#utility.yul\":3965:4029   */\n  tag_42\n  jump\t// in\ntag_114:\n    /* \"#utility.yul\":3955:4029   */\n  swap2\n  pop\n    /* \"#utility.yul\":3910:4039   */\n  pop\n    /* \"#utility.yul\":3037:4046   */\n  swap3\n  pop\n  swap3\n  pop\n  swap3\n  jump\t// out\n    /* \"#utility.yul\":4052:4151   */\ntag_43:\n    /* \"#utility.yul\":4104:4110   */\n  0x00\n    /* \"#utility.yul\":4138:4143   */\n  dup2\n    /* \"#utility.yul\":4132:4144   */\n  mload\n    /* \"#utility.yul\":4122:4144   */\n  swap1\n  pop\n    /* \"#utility.yul\":4052:4151   */\n  swap2\n  swap1\n  pop\n  jump\t// out\n    /* \"#utility.yul\":4157:4337   */\ntag_44:\n    /* \"#utility.yul\":4205:4282   */\n  0x4e487b7100000000000000000000000000000000000000000000000000000000\n    /* \"#utility.yul\":4202:4203   */\n  0x00\n    /* \"#utility.yul\":4195:4283   */\n  mstore\n    /* \"#utility.yul\":4302:4306   */\n  0x22\n    /* \"#utility.yul\":4299:4300   */\n  0x04\n    /* \"#utility.yul\":4292:4307   */\n  mstore\n    /* \"#utility.yul\":4326:4330   */\n  0x24\n    /* \"#utility.yul\":4323:4324   */\n  0x00\n    /* \"#utility.yul\":4316:4331   */\n  revert\n    /* \"#utility.yul\":4343:4663   */\ntag_45:\n    /* \"#utility.yul\":4387:4393   */\n  0x00\n    /* \"#utility.yul\":4424:4425   */\n  0x02\n    /* \"#utility.yul\":4418:4422   */\n  dup3\n    /* \"#utility.yul\":4414:4426   */\n  div\n    /* \"#utility.yul\":4404:4426   */\n  swap1\n  pop\n    /* \"#utility.yul\":4471:4472   */\n  0x01\n    /* \"#utility.yul\":4465:4469   */\n  dup3\n    /* \"#utility.yul\":4461:4473   */\n  and\n    /* \"#utility.yul\":4492:4510   */\n  dup1\n    /* \"#utility.yul\":4482:4563   */\n  tag_118\n  jumpi\n    /* \"#utility.yul\":4548:4552   */\n  0x7f\n    /* \"#utility.yul\":4540:4546   */\n  dup3\n    /* \"#utility.yul\":4536:4553   */\n  and\n    /* \"#utility.yul\":4526:4553   */\n  swap2\n  pop\n    /* \"#utility.yul\":4482:4563   */\ntag_118:\n    /* \"#utility.yul\":4610:4612   */\n  0x20\n    /* \"#utility.yul\":4602:4608   */\n  dup3\n    /* \"#utility.yul\":4599:4613   */\n  lt\n    /* \"#utility.yul\":4579:4597   */\n  dup2\n    /* \"#utility.yul\":4576:4614   */\n  sub\n    /* \"#utility.yul\":4573:4657   */\n  tag_119\n  jumpi\n    /* \"#utility.yul\":4629:4647   */\n  tag_120\n  tag_44\n  jump\t// in\ntag_120:\n    /* \"#utility.yul\":4573:4657   */\ntag_119:\n    /* \"#utility.yul\":4394:4663   */\n  pop\n    /* \"#utility.yul\":4343:4663   */\n  swap2\n  swap1\n  pop\n  jump\t// out\n    /* \"#utility.yul\":4669:4810   */\ntag_46:\n    /* \"#utility.yul\":4718:4722   */\n  0x00\n    /* \"#utility.yul\":4741:4744   */\n  dup2\n    /* \"#utility.yul\":4733:4744   */\n  swap1\n  pop\n    /* \"#utility.yul\":4764:4767   */\n  dup2\n    /* \"#utility.yul\":4761:4762   */\n  0x00\n    /* \"#utility.yul\":4754:4768   */\n  mstore\n    /* \"#utility.yul\":4798:4802   */\n  0x20\n    /* \"#utility.yul\":4795:4796   */\n  0x00\n    /* \"#utility.yul\":4785:4803   */\n  keccak256\n    /* \"#utility.yul\":4777:4803   */\n  swap1\n  pop\n    /* \"#utility.yul\":4669:4810   */\n  swap2\n  swap1\n  pop\n  jump\t// out\n    /* \"#utility.yul\":4816:4909   */\ntag_47:\n    /* \"#utility.yul\":4853:4859   */\n  0x00\n    /* \"#utility.yul\":4900:4902   */\n  0x20\n    /* \"#utility.yul\":4895:4897   */\n  0x1f\n    /* \"#utility.yul\":4888:4893   */\n  dup4\n    /* \"#utility.yul\":4884:4898   */\n  add\n    /* \"#utility.yul\":4880:4903   */\n  div\n    /* \"#utility.yul\":4870:4903   */\n  swap1\n  pop\n    /* \"#utility.yul\":4816:4909   */\n  swap2\n  swap1\n  pop\n  jump\t// out\n    /* \"#utility.yul\":4915:5022   */\ntag_48:\n    /* \"#utility.yul\":4959:4967   */\n  0x00\n    /* \"#utility.yul\":5009:5014   */\n  dup3\n    /* \"#utility.yul\":5003:5007   */\n  dup3\n    /* \"#utility.yul\":4999:5015   */\n  shl\n    /* \"#utility.yul\":4978:5015   */\n  swap1\n  pop\n    /* \"#utility.yul\":4915:5022   */\n  swap3\n  swap2\n  pop\n  pop\n  jump\t// out\n    /* \"#utility.yul\":5028:5421   */\ntag_49:\n    /* \"#utility.yul\":5097:5103   */\n  0x00\n    /* \"#utility.yul\":5147:5148   */\n  0x08\n    /* \"#utility.yul\":5135:5145   */\n  dup4\n    /* \"#utility.yul\":5131:5149   */\n  mul\n    /* \"#utility.yul\":5170:5267   */\n  tag_125\n    /* \"#utility.yul\":5200:5266   */\n  0xffffffffffffffffffffffffffffffffffffffffffffffffffffffffffffffff\n    /* \"#utility.yul\":5189:5198   */\n  dup3\n    /* \"#utility.yul\":5170:5267   */\n  tag_48\n  jump\t// in\ntag_125:\n    /* \"#utility.yul\":5288:5327   */\n  tag_126\n    /* \"#utility.yul\":5318:5326   */\n  dup7\n    /* \"#utility.yul\":5307:5316   */\n  dup4\n    /* \"#utility.yul\":5288:5327   */\n  tag_48\n  jump\t// in\ntag_126:\n    /* \"#utility.yul\":5276:5327   */\n  swap6\n  pop\n    /* \"#utility.yul\":5360:5364   */\n  dup1\n    /* \"#utility.yul\":5356:5365   */\n  not\n    /* \"#utility.yul\":5349:5354   */\n  dup5\n    /* \"#utility.yul\":5345:5366   */\n  and\n    /* \"#utility.yul\":5336:5366   */\n  swap4\n  pop\n    /* \"#utility.yul\":5409:5413   */\n  dup1\n    /* \"#utility.yul\":5399:5407   */\n  dup7\n    /* \"#utility.yul\":5395:5414   */\n  and\n    /* \"#utility.yul\":5388:5393   */\n  dup5\n    /* \"#utility.yul\":5385:5415   */\n  or\n    /* \"#utility.yul\":5375:5415   */\n  swap3\n  pop\n    /* \"#utility.yul\":5104:5421   */\n  pop\n  pop\n    /* \"#utility.yul\":5028:5421   */\n  swap4\n  swap3\n  pop\n  pop\n  pop\n  jump\t// out\n    /* \"#utility.yul\":5427:5487   */\ntag_50:\n    /* \"#utility.yul\":5455:5458   */\n  0x00\n    /* \"#utility.yul\":5476:5481   */\n  dup2\n    /* \"#utility.yul\":5469:5481   */\n  swap1\n  pop\n    /* \"#utility.yul\":5427:5487   */\n  swap2\n  swap1\n  pop\n  jump\t// out\n    /* \"#utility.yul\":5493:5635   */\ntag_51:\n    /* \"#utility.yul\":5543:5552   */\n  0x00\n    /* \"#utility.yul\":5576:5629   */\n  tag_129\n    /* \"#utility.yul\":5594:5628   */\n  tag_130\n    /* \"#utility.yul\":5603:5627   */\n  tag_131\n    /* \"#utility.yul\":5621:5626   */\n  dup5\n    /* \"#utility.yul\":5603:5627   */\n  tag_40\n  jump\t// in\ntag_131:\n    /* \"#utility.yul\":5594:5628   */\n  tag_50\n  jump\t// in\ntag_130:\n    /* \"#utility.yul\":5576:5629   */\n  tag_40\n  jump\t// in\ntag_129:\n    /* \"#utility.yul\":5563:5629   */\n  swap1\n  pop\n    /* \"#utility.yul\":5493:5635   */\n  swap2\n  swap1\n  pop\n  jump\t// out\n    /* \"#utility.yul\":5641:5716   */\ntag_52:\n    /* \"#utility.yul\":5684:5687   */\n  0x00\n    /* \"#utility.yul\":5705:5710   */\n  dup2\n    /* \"#utility.yul\":5698:5710   */\n  swap1\n  pop\n    /* \"#utility.yul\":5641:5716   */\n  swap2\n  swap1\n  pop\n  jump\t// out\n    /* \"#utility.yul\":5722:5991   */\ntag_53:\n    /* \"#utility.yul\":5832:5871   */\n  tag_134\n    /* \"#utility.yul\":5863:5870   */\n  dup4\n    /* \"#utility.yul\":5832:5871   */\n  tag_51\n  jump\t// in\ntag_134:\n    /* \"#utility.yul\":5893:5984   */\n  tag_135\n    /* \"#utility.yul\":5942:5983   */\n  tag_136\n    /* \"#utility.yul\":5966:5982   */\n  dup3\n    /* \"#utility.yul\":5942:5983   */\n  tag_52\n  jump\t// in\ntag_136:\n    /* \"#utility.yul\":5934:5940   */\n  dup5\n    /* \"#utility.yul\":5927:5931   */\n  dup5\n    /* \"#utility.yul\":5921:5932   */\n  sload\n    /* \"#utility.yul\":5893:5984   */\n  tag_49\n  jump\t// in\ntag_135:\n    /* \"#utility.yul\":5887:5891   */\n  dup3\n    /* \"#utility.yul\":5880:5985   */\n  sstore\n    /* \"#utility.yul\":5798:5991   */\n  pop\n    /* \"#utility.yul\":5722:5991   */\n  pop\n  pop\n  pop\n  jump\t// out\n    /* \"#utility.yul\":5997:6070   */\ntag_54:\n    /* \"#utility.yul\":6042:6045   */\n  0x00\n    /* \"#utility.yul\":5997:6070   */\n  swap1\n  jump\t// out\n    /* \"#utility.yul\":6076:6265   */\ntag_55:\n    /* \"#utility.yul\":6153:6185   */\n  tag_139\n  tag_54\n  jump\t// in\ntag_139:\n    /* \"#utility.yul\":6194:6259   */\n  tag_140\n    /* \"#utility.yul\":6252:6258   */\n  dup2\n    /* \"#utility.yul\":6244:6250   */\n  dup5\n    /* \"#utility.yul\":6238:6242   */\n  dup5\n    /* \"#utility.yul\":6194:6259   */\n  tag_53\n  jump\t// in\ntag_140:\n    /* \"#utility.yul\":6129:6265   */\n  pop\n    /* \"#utility.yul\":6076:6265   */\n  pop\n  pop\n  jump\t// out\n    /* \"#utility.yul\":6271:6457   */\ntag_56:\n    /* \"#utility.yul\":6331:6451   */\ntag_142:\n    /* \"#utility.yul\":6348:6351   */\n  dup2\n    /* \"#utility.yul\":6341:6346   */\n  dup2\n    /* \"#utility.yul\":6338:6352   */\n  lt\n    /* \"#utility.yul\":6331:6451   */\n  iszero\n  tag_144\n  jumpi\n    /* \"#utility.yul\":6402:6441   */\n  tag_145\n    /* \"#utility.yul\":6439:6440   */\n  0x00\n    /* \"#utility.yul\":6432:6437   */\n  dup3\n    /* \"#utility.yul\":6402:6441   */\n  tag_55\n  jump\t// in\ntag_145:\n    /* \"#utility.yul\":6375:6376   */\n  0x01\n    /* \"#utility.yul\":6368:6373   */\n  dup2\n    /* \"#utility.yul\":6364:6377   */\n  add\n    /* \"#utility.yul\":6355:6377   */\n  swap1\n  pop\n    /* \"#utility.yul\":6331:6451   */\n  jump(tag_142)\ntag_144:\n    /* \"#utility.yul\":6271:6457   */\n  pop\n  pop\n  jump\t// out\n    /* \"#utility.yul\":6463:7006   */\ntag_57:\n    /* \"#utility.yul\":6564:6566   */\n  0x1f\n    /* \"#utility.yul\":6559:6562   */\n  dup3\n    /* \"#utility.yul\":6556:6567   */\n  gt\n    /* \"#utility.yul\":6553:6999   */\n  iszero\n  tag_147\n  jumpi\n    /* \"#utility.yul\":6598:6636   */\n  tag_148\n    /* \"#utility.yul\":6630:6635   */\n  dup2\n    /* \"#utility.yul\":6598:6636   */\n  tag_46\n  jump\t// in\ntag_148:\n    /* \"#utility.yul\":6682:6711   */\n  tag_149\n    /* \"#utility.yul\":6700:6710   */\n  dup5\n    /* \"#utility.yul\":6682:6711   */\n  tag_47\n  jump\t// in\ntag_149:\n    /* \"#utility.yul\":6672:6680   */\n  dup2\n    /* \"#utility.yul\":6668:6712   */\n  add\n    /* \"#utility.yul\":6865:6867   */\n  0x20\n    /* \"#utility.yul\":6853:6863   */\n  dup6\n    /* \"#utility.yul\":6850:6868   */\n  lt\n    /* \"#utility.yul\":6847:6896   */\n  iszero\n  tag_150\n  jumpi\n    /* \"#utility.yul\":6886:6894   */\n  dup2\n    /* \"#utility.yul\":6871:6894   */\n  swap1\n  pop\n    /* \"#utility.yul\":6847:6896   */\ntag_150:\n    /* \"#utility.yul\":6909:6989   */\n  tag_151\n    /* \"#utility.yul\":6965:6987   */\n  tag_152\n    /* \"#utility.yul\":6983:6986   */\n  dup6\n    /* \"#utility.yul\":6965:6987   */\n  tag_47\n  jump\t// in\ntag_152:\n    /* \"#utility.yul\":6955:6963   */\n  dup4\n    /* \"#utility.yul\":6951:6988   */\n  add\n    /* \"#utility.yul\":6938:6949   */\n  dup3\n    /* \"#utility.yul\":6909:6989   */\n  tag_56\n  jump\t// in\ntag_151:\n    /* \"#utility.yul\":6568:6999   */\n  pop\n  pop\n    /* \"#utility.yul\":6553:6999   */\ntag_147:\n    /* \"#utility.yul\":6463:7006   */\n  pop\n  pop\n  pop\n  jump\t// out\n    /* \"#utility.yul\":7012:7129   */\ntag_58:\n    /* \"#utility.yul\":7066:7074   */\n  0x00\n    /* \"#utility.yul\":7116:7121   */\n  dup3\n    /* \"#utility.yul\":7110:7114   */\n  dup3\n    /* \"#utility.yul\":7106:7122   */\n  shr\n    /* \"#utility.yul\":7085:7122   */\n  swap1\n  pop\n    /* \"#utility.yul\":7012:7129   */\n  swap3\n  swap2\n  pop\n  pop\n  jump\t// out\n    /* \"#utility.yul\":7135:7304   */\ntag_59:\n    /* \"#utility.yul\":7179:7185   */\n  0x00\n    /* \"#utility.yul\":7212:7263   */\n  tag_155\n    /* \"#utility.yul\":7260:7261   */\n  0x00\n    /* \"#utility.yul\":7256:7262   */\n  not\n    /* \"#utility.yul\":7248:7253   */\n  dup5\n    /* \"#utility.yul\":7245:7246   */\n  0x08\n    /* \"#utility.yul\":7241:7254   */\n  mul\n    /* \"#utility.yul\":7212:7263   */\n  tag_58\n  jump\t// in\ntag_155:\n    /* \"#utility.yul\":7208:7264   */\n  not\n    /* \"#utility.yul\":7293:7297   */\n  dup1\n    /* \"#utility.yul\":7287:7291   */\n  dup4\n    /* \"#utility.yul\":7283:7298   */\n  and\n    /* \"#utility.yul\":7273:7298   */\n  swap2\n  pop\n    /* \"#utility.yul\":7186:7304   */\n  pop\n    /* \"#utility.yul\":7135:7304   */\n  swap3\n  swap2\n  pop\n  pop\n  jump\t// out\n    /* \"#utility.yul\":7309:7604   */\ntag_60:\n    /* \"#utility.yul\":7385:7389   */\n  0x00\n    /* \"#utility.yul\":7531:7560   */\n  tag_157\n    /* \"#utility.yul\":7556:7559   */\n  dup4\n    /* \"#utility.yul\":7550:7554   */\n  dup4\n    /* \"#utility.yul\":7531:7560   */\n  tag_59\n  jump\t// in\ntag_157:\n    /* \"#utility.yul\":7523:7560   */\n  swap2\n  pop\n    /* \"#utility.yul\":7593:7596   */\n  dup3\n    /* \"#utility.yul\":7590:7591   */\n  0x02\n    /* \"#utility.yul\":7586:7597   */\n  mul\n    /* \"#utility.yul\":7580:7584   */\n  dup3\n    /* \"#utility.yul\":7577:7598   */\n  or\n    /* \"#utility.yul\":7569:7598   */\n  swap1\n  pop\n    /* \"#utility.yul\":7309:7604   */\n  swap3\n  swap2\n  pop\n  pop\n  jump\t// out\n    /* \"#utility.yul\":7609:9004   */\ntag_7:\n    /* \"#utility.yul\":7726:7763   */\n  tag_159\n    /* \"#utility.yul\":7759:7762   */\n  dup3\n    /* \"#utility.yul\":7726:7763   */\n  tag_43\n  jump\t// in\ntag_159:\n    /* \"#utility.yul\":7828:7846   */\n  0xffffffffffffffff\n    /* \"#utility.yul\":7820:7826   */\n  dup2\n    /* \"#utility.yul\":7817:7847   */\n  gt\n    /* \"#utility.yul\":7814:7870   */\n  iszero\n  tag_160\n  jumpi\n    /* \"#utility.yul\":7850:7868   */\n  tag_161\n  tag_33\n  jump\t// in\ntag_161:\n    /* \"#utility.yul\":7814:7870   */\ntag_160:\n    /* \"#utility.yul\":7894:7932   */\n  tag_162\n    /* \"#utility.yul\":7926:7930   */\n  dup3\n    /* \"#utility.yul\":7920:7931   */\n  sload\n    /* \"#utility.yul\":7894:7932   */\n  tag_45\n  jump\t// in\ntag_162:\n    /* \"#utility.yul\":7979:8046   */\n  tag_163\n    /* \"#utility.yul\":8039:8045   */\n  dup3\n    /* \"#utility.yul\":8031:8037   */\n  dup3\n    /* \"#utility.yul\":8025:8029   */\n  dup6\n    /* \"#utility.yul\":7979:8046   */\n  tag_57\n  jump\t// in\ntag_163:\n    /* \"#utility.yul\":8073:8074   */\n  0x00\n    /* \"#utility.yul\":8097:8101   */\n  0x20\n    /* \"#utility.yul\":8084:8101   */\n  swap1\n  pop\n    /* \"#utility.yul\":8129:8131   */\n  0x1f\n    /* \"#utility.yul\":8121:8127   */\n  dup4\n    /* \"#utility.yul\":8118:8132   */\n  gt\n    /* \"#utility.yul\":8146:8147   */\n  0x01\n    /* \"#utility.yul\":8141:8759   */\n  dup2\n  eq\n  tag_165\n  jumpi\n    /* \"#utility.yul\":8803:8804   */\n  0x00\n    /* \"#utility.yul\":8820:8826   */\n  dup5\n    /* \"#utility.yul\":8817:8894   */\n  iszero\n  tag_166\n  jumpi\n    /* \"#utility.yul\":8869:8878   */\n  dup3\n    /* \"#utility.yul\":8864:8867   */\n  dup8\n    /* \"#utility.yul\":8860:8879   */\n  add\n    /* \"#utility.yul\":8854:8880   */\n  mload\n    /* \"#utility.yul\":8845:8880   */\n  swap1\n  pop\n    /* \"#utility.yul\":8817:8894   */\ntag_166:\n    /* \"#utility.yul\":8920:8987   */\n  tag_167\n    /* \"#utility.yul\":8980:8986   */\n  dup6\n    /* \"#utility.yul\":8973:8978   */\n  dup3\n    /* \"#utility.yul\":8920:8987   */\n  tag_60\n  jump\t// in\ntag_167:\n    /* \"#utility.yul\":8914:8918   */\n  dup7\n    /* \"#utility.yul\":8907:8988   */\n  sstore\n    /* \"#utility.yul\":8776:8998   */\n  pop\n    /* \"#utility.yul\":8111:8998   */\n  jump(tag_164)\n    /* \"#utility.yul\":8141:8759   */\ntag_165:\n    /* \"#utility.yul\":8193:8197   */\n  0x1f\n    /* \"#utility.yul\":8189:8198   */\n  not\n    /* \"#utility.yul\":8181:8187   */\n  dup5\n    /* \"#utility.yul\":8177:8199   */\n  and\n    /* \"#utility.yul\":8227:8264   */\n  tag_168\n    /* \"#utility.yul\":8259:8263   */\n  dup7\n    /* \"#utility.yul\":8227:8264   */\n  tag_46\n  jump\t// in\ntag_168:\n    /* \"#utility.yul\":8286:8287   */\n  0x00\n    /* \"#utility.yul\":8300:8508   */\ntag_169:\n    /* \"#utility.yul\":8314:8321   */\n  dup3\n    /* \"#utility.yul\":8311:8312   */\n  dup2\n    /* \"#utility.yul\":8308:8322   */\n  lt\n    /* \"#utility.yul\":8300:8508   */\n  iszero\n  tag_171\n  jumpi\n    /* \"#utility.yul\":8393:8402   */\n  dup5\n    /* \"#utility.yul\":8388:8391   */\n  dup10\n    /* \"#utility.yul\":8384:8403   */\n  add\n    /* \"#utility.yul\":8378:8404   */\n  mload\n    /* \"#utility.yul\":8370:8376   */\n  dup3\n    /* \"#utility.yul\":8363:8405   */\n  sstore\n    /* \"#utility.yul\":8444:8445   */\n  0x01\n    /* \"#utility.yul\":8436:8442   */\n  dup3\n    /* \"#utility.yul\":8432:8446   */\n  add\n    /* \"#utility.yul\":8422:8446   */\n  swap2\n  pop\n    /* \"#utility.yul\":8491:8493   */\n  0x20\n    /* \"#utility.yul\":8480:8489   */\n  dup6\n    /* \"#utility.yul\":8476:8494   */\n  add\n    /* \"#utility.yul\":8463:8494   */\n  swap5\n  pop\n    /* \"#utility.yul\":8337:8341   */\n  0x20\n    /* \"#utility.yul\":8334:8335   */\n  dup2\n    /* \"#utility.yul\":8330:8342   */\n  add\n    /* \"#utility.yul\":8325:8342   */\n  swap1\n  pop\n    /* \"#utility.yul\":8300:8508   */\n  jump(tag_169)\ntag_171:\n    /* \"#utility.yul\":8536:8542   */\n  dup7\n    /* \"#utility.yul\":8527:8534   */\n  dup4\n    /* \"#utility.yul\":8524:8543   */\n  lt\n    /* \"#utility.yul\":8521:8700   */\n  iszero\n  tag_172\n  jumpi\n    /* \"#utility.yul\":8594:8603   */\n  dup5\n    /* \"#utility.yul\":8589:8592   */\n  dup10\n    /* \"#utility.yul\":8585:8604   */\n  add\n    /* \"#utility.yul\":8579:8605   */\n  mload\n    /* \"#utility.yul\":8637:8685   */\n  tag_173\n    /* \"#utility.yul\":8679:8683   */\n  0x1f\n    /* \"#utility.yul\":8671:8677   */\n  dup10\n    /* \"#utility.yul\":8667:8684   */\n  and\n    /* \"#utility.yul\":8656:8665   */\n  dup3\n    /* \"#utility.yul\":8637:8685   */\n  tag_59\n  jump\t// in\ntag_173:\n    /* \"#utility.yul\":8629:8635   */\n  dup4\n    /* \"#utility.yul\":8622:8686   */\n  sstore\n    /* \"#utility.yul\":8544:8700   */\n  pop\n    /* \"#utility.yul\":8521:8700   */\ntag_172:\n    /* \"#utility.yul\":8746:8747   */\n  0x01\n    /* \"#utility.yul\":8742:8743   */\n  0x02\n    /* \"#utility.yul\":8734:8740   */\n  dup9\n    /* \"#utility.yul\":8730:8744   */\n  mul\n    /* \"#utility.yul\":8726:8748   */\n  add\n    /* \"#utility.yul\":8720:8724   */\n  dup9\n    /* \"#utility.yul\":8713:8749   */\n  sstore\n    /* \"#utility.yul\":8148:8759   */\n  pop\n  pop\n  pop\n    /* \"#utility.yul\":8111:8998   */\ntag_164:\n  pop\n    /* \"#utility.yul\":7701:9004   */\n  pop\n  pop\n  pop\n    /* \"#utility.yul\":7609:9004   */\n  pop\n  pop\n  jump\t// out\n    /* \"#utility.yul\":9010:9179   */\ntag_61:\n    /* \"#utility.yul\":9094:9105   */\n  0x00\n    /* \"#utility.yul\":9128:9134   */\n  dup3\n    /* \"#utility.yul\":9123:9126   */\n  dup3\n    /* \"#utility.yul\":9116:9135   */\n  mstore\n    /* \"#utility.yul\":9168:9172   */\n  0x20\n    /* \"#utility.yul\":9163:9166   */\n  dup3\n    /* \"#utility.yul\":9159:9173   */\n  add\n    /* \"#utility.yul\":9144:9173   */\n  swap1\n  pop\n    /* \"#utility.yul\":9010:9179   */\n  swap3\n  swap2\n  pop\n  pop\n  jump\t// out\n    /* \"#utility.yul\":9185:9366   */\ntag_62:\n    /* \"#utility.yul\":9325:9358   */\n  0x45524332303a206d696e7420746f20746865207a65726f206164647265737300\n    /* \"#utility.yul\":9321:9322   */\n  0x00\n    /* \"#utility.yul\":9313:9319   */\n  dup3\n    /* \"#utility.yul\":9309:9323   */\n  add\n    /* \"#utility.yul\":9302:9359   */\n  mstore\n    /* \"#utility.yul\":9185:9366   */\n  pop\n  jump\t// out\n    /* \"#utility.yul\":9372:9738   */\ntag_63:\n    /* \"#utility.yul\":9514:9517   */\n  0x00\n    /* \"#utility.yul\":9535:9602   */\n  tag_177\n    /* \"#utility.yul\":9599:9601   */\n  0x1f\n    /* \"#utility.yul\":9594:9597   */\n  dup4\n    /* \"#utility.yul\":9535:9602   */\n  tag_61\n  jump\t// in\ntag_177:\n    /* \"#utility.yul\":9528:9602   */\n  swap2\n  pop\n    /* \"#utility.yul\":9611:9704   */\n  tag_178\n    /* \"#utility.yul\":9700:9703   */\n  dup3\n    /* \"#utility.yul\":9611:9704   */\n  tag_62\n  jump\t// in\ntag_178:\n    /* \"#utility.yul\":9729:9731   */\n  0x20\n    /* \"#utility.yul\":9724:9727   */\n  dup3\n    /* \"#utility.yul\":9720:9732   */\n  add\n    /* \"#utility.yul\":9713:9732   */\n  swap1\n  pop\n    /* \"#utility.yul\":9372:9738   */\n  swap2\n  swap1\n  pop\n  jump\t// out\n    /* \"#utility.yul\":9744:10163   */\ntag_15:\n    /* \"#utility.yul\":9910:9914   */\n  0x00\n    /* \"#utility.yul\":9948:9950   */\n  0x20\n    /* \"#utility.yul\":9937:9946   */\n  dup3\n    /* \"#utility.yul\":9933:9951   */\n  add\n    /* \"#utility.yul\":9925:9951   */\n  swap1\n  pop\n    /* \"#utility.yul\":9997:10006   */\n  dup2\n    /* \"#utility.yul\":9991:9995   */\n  dup2\n    /* \"#utility.yul\":9987:10007   */\n  sub\n    /* \"#utility.yul\":9983:9984   */\n  0x00\n    /* \"#utility.yul\":9972:9981   */\n  dup4\n    /* \"#utility.yul\":9968:9985   */\n  add\n    /* \"#utility.yul\":9961:10008   */\n  mstore\n    /* \"#utility.yul\":10025:10156   */\n  tag_180\n    /* \"#utility.yul\":10151:10155   */\n  dup2\n    /* \"#utility.yul\":10025:10156   */\n  tag_63\n  jump\t// in\ntag_180:\n    /* \"#utility.yul\":10017:10156   */\n  swap1\n  pop\n    /* \"#utility.yul\":9744:10163   */\n  swap2\n  swap1\n  pop\n  jump\t// out\n    /* \"#utility.yul\":10169:10349   */\ntag_64:\n    /* \"#utility.yul\":10217:10294   */\n  0x4e487b7100000000000000000000000000000000000000000000000000000000\n    /* \"#utility.yul\":10214:10215   */\n  0x00\n    /* \"#utility.yul\":10207:10295   */\n  mstore\n    /* \"#utility.yul\":10314:10318   */\n  0x11\n    /* \"#utility.yul\":10311:10312   */\n  0x04\n    /* \"#utility.yul\":10304:10319   */\n  mstore\n    /* \"#utility.yul\":10338:10342   */\n  0x24\n    /* \"#utility.yul\":10335:10336   */\n  0x00\n    /* \"#utility.yul\":10328:10343   */\n  revert\n    /* \"#utility.yul\":10355:10546   */\ntag_19:\n    /* \"#utility.yul\":10395:10398   */\n  0x00\n    /* \"#utility.yul\":10414:10434   */\n  tag_183\n    /* \"#utility.yul\":10432:10433   */\n  dup3\n    /* \"#utility.yul\":10414:10434   */\n  tag_40\n  jump\t// in\ntag_183:\n    /* \"#utility.yul\":10409:10434   */\n  swap2\n  pop\n    /* \"#utility.yul\":10448:10468   */\n  tag_184\n    /* \"#utility.yul\":10466:10467   */\n  dup4\n    /* \"#utility.yul\":10448:10468   */\n  tag_40\n  jump\t// in\ntag_184:\n    /* \"#utility.yul\":10443:10468   */\n  swap3\n  pop\n    /* \"#utility.yul\":10491:10492   */\n  dup3\n    /* \"#utility.yul\":10488:10489   */\n  dup3\n    /* \"#utility.yul\":10484:10493   */\n  add\n    /* \"#utility.yul\":10477:10493   */\n  swap1\n  pop\n    /* \"#utility.yul\":10512:10515   */\n  dup1\n    /* \"#utility.yul\":10509:10510   */\n  dup3\n    /* \"#utility.yul\":10506:10516   */\n  gt\n    /* \"#utility.yul\":10503:10539   */\n  iszero\n  tag_185\n  jumpi\n    /* \"#utility.yul\":10519:10537   */\n  tag_186\n  tag_64\n  jump\t// in\ntag_186:\n    /* \"#utility.yul\":10503:10539   */\ntag_185:\n    /* \"#utility.yul\":10355:10546   */\n  swap3\n  swap2\n  pop\n  pop\n  jump\t// out\n    /* \"#utility.yul\":10552:10670   */\ntag_65:\n    /* \"#utility.yul\":10639:10663   */\n  tag_188\n    /* \"#utility.yul\":10657:10662   */\n  dup2\n    /* \"#utility.yul\":10639:10663   */\n  tag_40\n  jump\t// in\ntag_188:\n    /* \"#utility.yul\":10634:10637   */\n  dup3\n    /* \"#utility.yul\":10627:10664   */\n  mstore\n    /* \"#utility.yul\":10552:10670   */\n  pop\n  pop\n  jump\t// out\n    /* \"#utility.yul\":10676:10898   */\ntag_22:\n    /* \"#utility.yul\":10769:10773   */\n  0x00\n    /* \"#utility.yul\":10807:10809   */\n  0x20\n    /* \"#utility.yul\":10796:10805   */\n  dup3\n    /* \"#utility.yul\":10792:10810   */\n  add\n    /* \"#utility.yul\":10784:10810   */\n  swap1\n  pop\n    /* \"#utility.yul\":10820:10891   */\n  tag_190\n    /* \"#utility.yul\":10888:10889   */\n  0x00\n    /* \"#utility.yul\":10877:10886   */\n  dup4\n    /* \"#utility.yul\":10873:10890   */\n  add\n    /* \"#utility.yul\":10864:10870   */\n  dup5\n    /* \"#utility.yul\":10820:10891   */\n  tag_65\n  jump\t// in\ntag_190:\n    /* \"#utility.yul\":10676:10898   */\n  swap3\n  swap2\n  pop\n  pop\n  jump\t// out\n    /* \"spoilsToken.sol\":1415:12787  contract SpoilsToken is Context, IERC20, IERC20Metadata {... */\ntag_11:\n  dataSize(sub_0)\n  dup1\n  dataOffset(sub_0)\n  0x00\n  codecopy\n  0x00\n  return\nstop\n\nsub_0: assembly {\n        /* \"spoilsToken.sol\":1415:12787  contract SpoilsToken is Context, IERC20, IERC20Metadata {... */\n      mstore(0x40, 0x80)\n      callvalue\n      dup1\n      iszero\n      tag_1\n      jumpi\n      0x00\n      dup1\n      revert\n    tag_1:\n      pop\n      jumpi(tag_2, lt(calldatasize, 0x04))\n      shr(0xe0, calldataload(0x00))\n      dup1\n      0x70a08231\n      gt\n      tag_17\n      jumpi\n      dup1\n      0xa457c2d7\n      gt\n      tag_18\n      jumpi\n      dup1\n      0xa457c2d7\n      eq\n      tag_13\n      jumpi\n      dup1\n      0xa9059cbb\n      eq\n      tag_14\n      jumpi\n      dup1\n      0xb6b285d9\n      eq\n      tag_15\n      jumpi\n      dup1\n      0xdd62ed3e\n      eq\n      tag_16\n      jumpi\n      jump(tag_2)\n    tag_18:\n      dup1\n      0x70a08231\n      eq\n      tag_10\n      jumpi\n      dup1\n      0x95d89b41\n      eq\n      tag_11\n      jumpi\n      dup1\n      0x9dc29fac\n      eq\n      tag_12\n      jumpi\n      jump(tag_2)\n    tag_17:\n      dup1\n      0x23b872dd\n      gt\n      tag_19\n      jumpi\n      dup1\n      0x23b872dd\n      eq\n      tag_6\n      jumpi\n      dup1\n      0x313ce567\n      eq\n      tag_7\n      jumpi\n      dup1\n      0x39509351\n      eq\n      tag_8\n      jumpi\n      dup1\n      0x40c10f19\n      eq\n      tag_9\n      jumpi\n      jump(tag_2)\n    tag_19:\n      dup1\n      0x06fdde03\n      eq\n      tag_3\n      jumpi\n      dup1\n      0x095ea7b3\n      eq\n      tag_4\n      jumpi\n      dup1\n      0x18160ddd\n      eq\n      tag_5\n      jumpi\n    tag_2:\n      0x00\n      dup1\n      revert\n        /* \"spoilsToken.sol\":2310:2410  function name() public view virtual override returns (string memory) {... */\n    tag_3:\n      tag_20\n      tag_21\n      jump\t// in\n    tag_20:\n      mload(0x40)\n      tag_22\n      swap2\n      swap1\n      tag_23\n      jump\t// in\n    tag_22:\n      mload(0x40)\n      dup1\n      swap2\n      sub\n      swap1\n      return\n        /* \"spoilsToken.sol\":4807:4976  function approve(address spender, uint256 amount) public virtual override returns (bool) {... */\n    tag_4:\n      tag_24\n      0x04\n      dup1\n      calldatasize\n      sub\n      dup2\n      add\n      swap1\n      tag_25\n      swap2\n      swap1\n      tag_26\n      jump\t// in\n    tag_25:\n      tag_27\n      jump\t// in\n    tag_24:\n      mload(0x40)\n      tag_28\n      swap2\n      swap1\n      tag_29\n      jump\t// in\n    tag_28:\n      mload(0x40)\n      dup1\n      swap2\n      sub\n      swap1\n      return\n        /* \"spoilsToken.sol\":3430:3538  function totalSupply() public view virtual override returns (uint256) {... */\n    tag_5:\n      tag_30\n      tag_31\n      jump\t// in\n    tag_30:\n      mload(0x40)\n      tag_32\n      swap2\n      swap1\n      tag_33\n      jump\t// in\n    tag_32:\n      mload(0x40)\n      dup1\n      swap2\n      sub\n      swap1\n      return\n        /* \"spoilsToken.sol\":5458:5950  function transferFrom(... */\n    tag_6:\n      tag_34\n      0x04\n      dup1\n      calldatasize\n      sub\n      dup2\n      add\n      swap1\n      tag_35\n      swap2\n      swap1\n      tag_36\n      jump\t// in\n    tag_35:\n      tag_37\n      jump\t// in\n    tag_34:\n      mload(0x40)\n      tag_38\n      swap2\n      swap1\n      tag_29\n      jump\t// in\n    tag_38:\n      mload(0x40)\n      dup1\n      swap2\n      sub\n      swap1\n      return\n        /* \"spoilsToken.sol\":3272:3365  function decimals() public view virtual override returns (uint8) {... */\n    tag_7:\n      tag_39\n      tag_40\n      jump\t// in\n    tag_39:\n      mload(0x40)\n      tag_41\n      swap2\n      swap1\n      tag_42\n      jump\t// in\n    tag_41:\n      mload(0x40)\n      dup1\n      swap2\n      sub\n      swap1\n      return\n        /* \"spoilsToken.sol\":6359:6574  function increaseAllowance(address spender, uint256 addedValue) public virtual returns (bool) {... */\n    tag_8:\n      tag_43\n      0x04\n      dup1\n      calldatasize\n      sub\n      dup2\n      add\n      swap1\n      tag_44\n      swap2\n      swap1\n      tag_26\n      jump\t// in\n    tag_44:\n      tag_45\n      jump\t// in\n    tag_43:\n      mload(0x40)\n      tag_46\n      swap2\n      swap1\n      tag_29\n      jump\t// in\n    tag_46:\n      mload(0x40)\n      dup1\n      swap2\n      sub\n      swap1\n      return\n        /* \"spoilsToken.sol\":4264:4446  function mint(address add, uint amount)external{... */\n    tag_9:\n      tag_47\n      0x04\n      dup1\n      calldatasize\n      sub\n      dup2\n      add\n      swap1\n      tag_48\n      swap2\n      swap1\n      tag_26\n      jump\t// in\n    tag_48:\n      tag_49\n      jump\t// in\n    tag_47:\n      stop\n        /* \"spoilsToken.sol\":3601:3728  function balanceOf(address account) public view virtual override returns (uint256) {... */\n    tag_10:\n      tag_50\n      0x04\n      dup1\n      calldatasize\n      sub\n      dup2\n      add\n      swap1\n      tag_51\n      swap2\n      swap1\n      tag_52\n      jump\t// in\n    tag_51:\n      tag_53\n      jump\t// in\n    tag_50:\n      mload(0x40)\n      tag_54\n      swap2\n      swap1\n      tag_33\n      jump\t// in\n    tag_54:\n      mload(0x40)\n      dup1\n      swap2\n      sub\n      swap1\n      return\n        /* \"spoilsToken.sol\":2529:2633  function symbol() public view virtual override returns (string memory) {... */\n    tag_11:\n      tag_55\n      tag_56\n      jump\t// in\n    tag_55:\n      mload(0x40)\n      tag_57\n      swap2\n      swap1\n      tag_23\n      jump\t// in\n    tag_57:\n      mload(0x40)\n      dup1\n      swap2\n      sub\n      swap1\n      return\n        /* \"spoilsToken.sol\":10331:10513  function burn(address add,uint256 amount)public{... */\n    tag_12:\n      tag_58\n      0x04\n      dup1\n      calldatasize\n      sub\n      dup2\n      add\n      swap1\n      tag_59\n      swap2\n      swap1\n      tag_26\n      jump\t// in\n    tag_59:\n      tag_60\n      jump\t// in\n    tag_58:\n      stop\n        /* \"spoilsToken.sol\":7077:7490  function decreaseAllowance(address spender, uint256 subtractedValue) public virtual returns (bool) {... */\n    tag_13:\n      tag_61\n      0x04\n      dup1\n      calldatasize\n      sub\n      dup2\n      add\n      swap1\n      tag_62\n      swap2\n      swap1\n      tag_26\n      jump\t// in\n    tag_62:\n      tag_63\n      jump\t// in\n    tag_61:\n      mload(0x40)\n      tag_64\n      swap2\n      swap1\n      tag_29\n      jump\t// in\n    tag_64:\n      mload(0x40)\n      dup1\n      swap2\n      sub\n      swap1\n      return\n        /* \"spoilsToken.sol\":3941:4116  function transfer(address recipient, uint256 amount) public virtual override returns (bool) {... */\n    tag_14:\n      tag_65\n      0x04\n      dup1\n      calldatasize\n      sub\n      dup2\n      add\n      swap1\n      tag_66\n      swap2\n      swap1\n      tag_26\n      jump\t// in\n    tag_66:\n      tag_67\n      jump\t// in\n    tag_65:\n      mload(0x40)\n      tag_68\n      swap2\n      swap1\n      tag_29\n      jump\t// in\n    tag_68:\n      mload(0x40)\n      dup1\n      swap2\n      sub\n      swap1\n      return\n        /* \"spoilsToken.sol\":4124:4256  function setapprovedcontractaddress(address add)external {... */\n    tag_15:\n      tag_69\n      0x04\n      dup1\n      calldatasize\n      sub\n      dup2\n      add\n      swap1\n      tag_70\n      swap2\n      swap1\n      tag_52\n      jump\t// in\n    tag_70:\n      tag_71\n      jump\t// in\n    tag_69:\n      stop\n        /* \"spoilsToken.sol\":4509:4660  function allowance(address owner, address spender) public view virtual override returns (uint256) {... */\n    tag_16:\n      tag_72\n      0x04\n      dup1\n      calldatasize\n      sub\n      dup2\n      add\n      swap1\n      tag_73\n      swap2\n      swap1\n      tag_74\n      jump\t// in\n    tag_73:\n      tag_75\n      jump\t// in\n    tag_72:\n      mload(0x40)\n      tag_76\n      swap2\n      swap1\n      tag_33\n      jump\t// in\n    tag_76:\n      mload(0x40)\n      dup1\n      swap2\n      sub\n      swap1\n      return\n        /* \"spoilsToken.sol\":2310:2410  function name() public view virtual override returns (string memory) {... */\n    tag_21:\n        /* \"spoilsToken.sol\":2364:2377  string memory */\n      0x60\n        /* \"spoilsToken.sol\":2397:2402  _name */\n      0x03\n        /* \"spoilsToken.sol\":2390:2402  return _name */\n      dup1\n      sload\n      tag_78\n      swap1\n      tag_79\n      jump\t// in\n    tag_78:\n      dup1\n      0x1f\n      add\n      0x20\n      dup1\n      swap2\n      div\n      mul\n      0x20\n      add\n      mload(0x40)\n      swap1\n      dup2\n      add\n      0x40\n      mstore\n      dup1\n      swap3\n      swap2\n      swap1\n      dup2\n      dup2\n      mstore\n      0x20\n      add\n      dup3\n      dup1\n      sload\n      tag_80\n      swap1\n      tag_79\n      jump\t// in\n    tag_80:\n      dup1\n      iszero\n      tag_81\n      jumpi\n      dup1\n      0x1f\n      lt\n      tag_82\n      jumpi\n      0x0100\n      dup1\n      dup4\n      sload\n      div\n      mul\n      dup4\n      mstore\n      swap2\n      0x20\n      add\n      swap2\n      jump(tag_81)\n    tag_82:\n      dup3\n      add\n      swap2\n      swap1\n      0x00\n      mstore\n      keccak256(0x00, 0x20)\n      swap1\n    tag_83:\n      dup2\n      sload\n      dup2\n      mstore\n      swap1\n      0x01\n      add\n      swap1\n      0x20\n      add\n      dup1\n      dup4\n      gt\n      tag_83\n      jumpi\n      dup3\n      swap1\n      sub\n      0x1f\n      and\n      dup3\n      add\n      swap2\n    tag_81:\n      pop\n      pop\n      pop\n      pop\n      pop\n      swap1\n      pop\n        /* \"spoilsToken.sol\":2310:2410  function name() public view virtual override returns (string memory) {... */\n      swap1\n      jump\t// out\n        /* \"spoilsToken.sol\":4807:4976  function approve(address spender, uint256 amount) public virtual override returns (bool) {... */\n    tag_27:\n        /* \"spoilsToken.sol\":4890:4894  bool */\n      0x00\n        /* \"spoilsToken.sol\":4907:4946  _approve(_msgSender(), spender, amount) */\n      tag_85\n        /* \"spoilsToken.sol\":4916:4928  _msgSender() */\n      tag_86\n        /* \"spoilsToken.sol\":4916:4926  _msgSender */\n      tag_87\n        /* \"spoilsToken.sol\":4916:4928  _msgSender() */\n      jump\t// in\n    tag_86:\n        /* \"spoilsToken.sol\":4930:4937  spender */\n      dup5\n        /* \"spoilsToken.sol\":4939:4945  amount */\n      dup5\n        /* \"spoilsToken.sol\":4907:4915  _approve */\n      tag_88\n        /* \"spoilsToken.sol\":4907:4946  _approve(_msgSender(), spender, amount) */\n      jump\t// in\n    tag_85:\n        /* \"spoilsToken.sol\":4964:4968  true */\n      0x01\n        /* \"spoilsToken.sol\":4957:4968  return true */\n      swap1\n      pop\n        /* \"spoilsToken.sol\":4807:4976  function approve(address spender, uint256 amount) public virtual override returns (bool) {... */\n      swap3\n      swap2\n      pop\n      pop\n      jump\t// out\n        /* \"spoilsToken.sol\":3430:3538  function totalSupply() public view virtual override returns (uint256) {... */\n    tag_31:\n        /* \"spoilsToken.sol\":3491:3498  uint256 */\n      0x00\n        /* \"spoilsToken.sol\":3518:3530  _totalSupply */\n      sload(0x02)\n        /* \"spoilsToken.sol\":3511:3530  return _totalSupply */\n      swap1\n      pop\n        /* \"spoilsToken.sol\":3430:3538  function totalSupply() public view virtual override returns (uint256) {... */\n      swap1\n      jump\t// out\n        /* \"spoilsToken.sol\":5458:5950  function transferFrom(... */\n    tag_37:\n        /* \"spoilsToken.sol\":5598:5602  bool */\n      0x00\n        /* \"spoilsToken.sol\":5615:5651  _transfer(sender, recipient, amount) */\n      tag_91\n        /* \"spoilsToken.sol\":5625:5631  sender */\n      dup5\n        /* \"spoilsToken.sol\":5633:5642  recipient */\n      dup5\n        /* \"spoilsToken.sol\":5644:5650  amount */\n      dup5\n        /* \"spoilsToken.sol\":5615:5624  _transfer */\n      tag_92\n        /* \"spoilsToken.sol\":5615:5651  _transfer(sender, recipient, amount) */\n      jump\t// in\n    tag_91:\n        /* \"spoilsToken.sol\":5664:5688  uint256 currentAllowance */\n      0x00\n        /* \"spoilsToken.sol\":5691:5702  _allowances */\n      0x01\n        /* \"spoilsToken.sol\":5691:5710  _allowances[sender] */\n      0x00\n        /* \"spoilsToken.sol\":5703:5709  sender */\n      dup7\n        /* \"spoilsToken.sol\":5691:5710  _allowances[sender] */\n      0xffffffffffffffffffffffffffffffffffffffff\n      and\n      0xffffffffffffffffffffffffffffffffffffffff\n      and\n      dup2\n      mstore\n      0x20\n      add\n      swap1\n      dup2\n      mstore\n      0x20\n      add\n      0x00\n      keccak256\n        /* \"spoilsToken.sol\":5691:5724  _allowances[sender][_msgSender()] */\n      0x00\n        /* \"spoilsToken.sol\":5711:5723  _msgSender() */\n      tag_93\n        /* \"spoilsToken.sol\":5711:5721  _msgSender */\n      tag_87\n        /* \"spoilsToken.sol\":5711:5723  _msgSender() */\n      jump\t// in\n    tag_93:\n        /* \"spoilsToken.sol\":5691:5724  _allowances[sender][_msgSender()] */\n      0xffffffffffffffffffffffffffffffffffffffff\n      and\n      0xffffffffffffffffffffffffffffffffffffffff\n      and\n      dup2\n      mstore\n      0x20\n      add\n      swap1\n      dup2\n      mstore\n      0x20\n      add\n      0x00\n      keccak256\n      sload\n        /* \"spoilsToken.sol\":5664:5724  uint256 currentAllowance = _allowances[sender][_msgSender()] */\n      swap1\n      pop\n        /* \"spoilsToken.sol\":5763:5769  amount */\n      dup3\n        /* \"spoilsToken.sol\":5743:5759  currentAllowance */\n      dup2\n        /* \"spoilsToken.sol\":5743:5769  currentAllowance >= amount */\n      lt\n      iszero\n        /* \"spoilsToken.sol\":5735:5814  require(currentAllowance >= amount, \"ERC20: transfer amount exceeds allowance\") */\n      tag_94\n      jumpi\n      mload(0x40)\n      0x08c379a000000000000000000000000000000000000000000000000000000000\n      dup2\n      mstore\n      0x04\n      add\n      tag_95\n      swap1\n      tag_96\n      jump\t// in\n    tag_95:\n      mload(0x40)\n      dup1\n      swap2\n      sub\n      swap1\n      revert\n    tag_94:\n        /* \"spoilsToken.sol\":5850:5907  _approve(sender, _msgSender(), currentAllowance - amount) */\n      tag_97\n        /* \"spoilsToken.sol\":5859:5865  sender */\n      dup6\n        /* \"spoilsToken.sol\":5867:5879  _msgSender() */\n      tag_98\n        /* \"spoilsToken.sol\":5867:5877  _msgSender */\n      tag_87\n        /* \"spoilsToken.sol\":5867:5879  _msgSender() */\n      jump\t// in\n    tag_98:\n        /* \"spoilsToken.sol\":5900:5906  amount */\n      dup6\n        /* \"spoilsToken.sol\":5881:5897  currentAllowance */\n      dup5\n        /* \"spoilsToken.sol\":5881:5906  currentAllowance - amount */\n      sub\n        /* \"spoilsToken.sol\":5850:5858  _approve */\n      tag_88\n        /* \"spoilsToken.sol\":5850:5907  _approve(sender, _msgSender(), currentAllowance - amount) */\n      jump\t// in\n    tag_97:\n        /* \"spoilsToken.sol\":5938:5942  true */\n      0x01\n        /* \"spoilsToken.sol\":5931:5942  return true */\n      swap2\n      pop\n      pop\n        /* \"spoilsToken.sol\":5458:5950  function transferFrom(... */\n      swap4\n      swap3\n      pop\n      pop\n      pop\n      jump\t// out\n        /* \"spoilsToken.sol\":3272:3365  function decimals() public view virtual override returns (uint8) {... */\n    tag_40:\n        /* \"spoilsToken.sol\":3330:3335  uint8 */\n      0x00\n        /* \"spoilsToken.sol\":3355:3357  18 */\n      0x12\n        /* \"spoilsToken.sol\":3348:3357  return 18 */\n      swap1\n      pop\n        /* \"spoilsToken.sol\":3272:3365  function decimals() public view virtual override returns (uint8) {... */\n      swap1\n      jump\t// out\n        /* \"spoilsToken.sol\":6359:6574  function increaseAllowance(address spender, uint256 addedValue) public virtual returns (bool) {... */\n    tag_45:\n        /* \"spoilsToken.sol\":6447:6451  bool */\n      0x00\n        /* \"spoilsToken.sol\":6464:6544  _approve(_msgSender(), spender, _allowances[_msgSender()][spender] + addedValue) */\n      tag_101\n        /* \"spoilsToken.sol\":6473:6485  _msgSender() */\n      tag_102\n        /* \"spoilsToken.sol\":6473:6483  _msgSender */\n      tag_87\n        /* \"spoilsToken.sol\":6473:6485  _msgSender() */\n      jump\t// in\n    tag_102:\n        /* \"spoilsToken.sol\":6487:6494  spender */\n      dup5\n        /* \"spoilsToken.sol\":6533:6543  addedValue */\n      dup5\n        /* \"spoilsToken.sol\":6496:6507  _allowances */\n      0x01\n        /* \"spoilsToken.sol\":6496:6521  _allowances[_msgSender()] */\n      0x00\n        /* \"spoilsToken.sol\":6508:6520  _msgSender() */\n      tag_103\n        /* \"spoilsToken.sol\":6508:6518  _msgSender */\n      tag_87\n        /* \"spoilsToken.sol\":6508:6520  _msgSender() */\n      jump\t// in\n    tag_103:\n        /* \"spoilsToken.sol\":6496:6521  _allowances[_msgSender()] */\n      0xffffffffffffffffffffffffffffffffffffffff\n      and\n      0xffffffffffffffffffffffffffffffffffffffff\n      and\n      dup2\n      mstore\n      0x20\n      add\n      swap1\n      dup2\n      mstore\n      0x20\n      add\n      0x00\n      keccak256\n        /* \"spoilsToken.sol\":6496:6530  _allowances[_msgSender()][spender] */\n      0x00\n        /* \"spoilsToken.sol\":6522:6529  spender */\n      dup9\n        /* \"spoilsToken.sol\":6496:6530  _allowances[_msgSender()][spender] */\n      0xffffffffffffffffffffffffffffffffffffffff\n      and\n      0xffffffffffffffffffffffffffffffffffffffff\n      and\n      dup2\n      mstore\n      0x20\n      add\n      swap1\n      dup2\n      mstore\n      0x20\n      add\n      0x00\n      keccak256\n      sload\n        /* \"spoilsToken.sol\":6496:6543  _allowances[_msgSender()][spender] + addedValue */\n      tag_104\n      swap2\n      swap1\n      tag_105\n      jump\t// in\n    tag_104:\n        /* \"spoilsToken.sol\":6464:6472  _approve */\n      tag_88\n        /* \"spoilsToken.sol\":6464:6544  _approve(_msgSender(), spender, _allowances[_msgSender()][spender] + addedValue) */\n      jump\t// in\n    tag_101:\n        /* \"spoilsToken.sol\":6562:6566  true */\n      0x01\n        /* \"spoilsToken.sol\":6555:6566  return true */\n      swap1\n      pop\n        /* \"spoilsToken.sol\":6359:6574  function increaseAllowance(address spender, uint256 addedValue) public virtual returns (bool) {... */\n      swap3\n      swap2\n      pop\n      pop\n      jump\t// out\n        /* \"spoilsToken.sol\":4264:4446  function mint(address add, uint amount)external{... */\n    tag_49:\n        /* \"spoilsToken.sol\":4372:4376  true */\n      0x01\n        /* \"spoilsToken.sol\":4330:4376  onlyapprovedcontractaddress[msg.sender] ==true */\n      iszero\n      iszero\n        /* \"spoilsToken.sol\":4330:4357  onlyapprovedcontractaddress */\n      0x05\n        /* \"spoilsToken.sol\":4330:4369  onlyapprovedcontractaddress[msg.sender] */\n      0x00\n        /* \"spoilsToken.sol\":4358:4368  msg.sender */\n      caller\n        /* \"spoilsToken.sol\":4330:4369  onlyapprovedcontractaddress[msg.sender] */\n      0xffffffffffffffffffffffffffffffffffffffff\n      and\n      0xffffffffffffffffffffffffffffffffffffffff\n      and\n      dup2\n      mstore\n      0x20\n      add\n      swap1\n      dup2\n      mstore\n      0x20\n      add\n      0x00\n      keccak256\n      0x00\n      swap1\n      sload\n      swap1\n      0x0100\n      exp\n      swap1\n      div\n      0xff\n      and\n        /* \"spoilsToken.sol\":4330:4376  onlyapprovedcontractaddress[msg.sender] ==true */\n      iszero\n      iszero\n      eq\n        /* \"spoilsToken.sol\":4322:4410  require(onlyapprovedcontractaddress[msg.sender] ==true, \"you are not approved  to mint\") */\n      tag_107\n      jumpi\n      mload(0x40)\n      0x08c379a000000000000000000000000000000000000000000000000000000000\n      dup2\n      mstore\n      0x04\n      add\n      tag_108\n      swap1\n      tag_109\n      jump\t// in\n    tag_108:\n      mload(0x40)\n      dup1\n      swap2\n      sub\n      swap1\n      revert\n    tag_107:\n        /* \"spoilsToken.sol\":4421:4438  _mint(add,amount) */\n      tag_110\n        /* \"spoilsToken.sol\":4427:4430  add */\n      dup3\n        /* \"spoilsToken.sol\":4431:4437  amount */\n      dup3\n        /* \"spoilsToken.sol\":4421:4426  _mint */\n      tag_111\n        /* \"spoilsToken.sol\":4421:4438  _mint(add,amount) */\n      jump\t// in\n    tag_110:\n        /* \"spoilsToken.sol\":4264:4446  function mint(address add, uint amount)external{... */\n      pop\n      pop\n      jump\t// out\n        /* \"spoilsToken.sol\":3601:3728  function balanceOf(address account) public view virtual override returns (uint256) {... */\n    tag_53:\n        /* \"spoilsToken.sol\":3675:3682  uint256 */\n      0x00\n        /* \"spoilsToken.sol\":3702:3711  _balances */\n      dup1\n        /* \"spoilsToken.sol\":3702:3720  _balances[account] */\n      0x00\n        /* \"spoilsToken.sol\":3712:3719  account */\n      dup4\n        /* \"spoilsToken.sol\":3702:3720  _balances[account] */\n      0xffffffffffffffffffffffffffffffffffffffff\n      and\n      0xffffffffffffffffffffffffffffffffffffffff\n      and\n      dup2\n      mstore\n      0x20\n      add\n      swap1\n      dup2\n      mstore\n      0x20\n      add\n      0x00\n      keccak256\n      sload\n        /* \"spoilsToken.sol\":3695:3720  return _balances[account] */\n      swap1\n      pop\n        /* \"spoilsToken.sol\":3601:3728  function balanceOf(address account) public view virtual override returns (uint256) {... */\n      swap2\n      swap1\n      pop\n      jump\t// out\n        /* \"spoilsToken.sol\":2529:2633  function symbol() public view virtual override returns (string memory) {... */\n    tag_56:\n        /* \"spoilsToken.sol\":2585:2598  string memory */\n      0x60\n        /* \"spoilsToken.sol\":2618:2625  _symbol */\n      0x04\n        /* \"spoilsToken.sol\":2611:2625  return _symbol */\n      dup1\n      sload\n      tag_114\n      swap1\n      tag_79\n      jump\t// in\n    tag_114:\n      dup1\n      0x1f\n      add\n      0x20\n      dup1\n      swap2\n      div\n      mul\n      0x20\n      add\n      mload(0x40)\n      swap1\n      dup2\n      add\n      0x40\n      mstore\n      dup1\n      swap3\n      swap2\n      swap1\n      dup2\n      dup2\n      mstore\n      0x20\n      add\n      dup3\n      dup1\n      sload\n      tag_115\n      swap1\n      tag_79\n      jump\t// in\n    tag_115:\n      dup1\n      iszero\n      tag_116\n      jumpi\n      dup1\n      0x1f\n      lt\n      tag_117\n      jumpi\n      0x0100\n      dup1\n      dup4\n      sload\n      div\n      mul\n      dup4\n      mstore\n      swap2\n      0x20\n      add\n      swap2\n      jump(tag_116)\n    tag_117:\n      dup3\n      add\n      swap2\n      swap1\n      0x00\n      mstore\n      keccak256(0x00, 0x20)\n      swap1\n    tag_118:\n      dup2\n      sload\n      dup2\n      mstore\n      swap1\n      0x01\n      add\n      swap1\n      0x20\n      add\n      dup1\n      dup4\n      gt\n      tag_118\n      jumpi\n      dup3\n      swap1\n      sub\n      0x1f\n      and\n      dup3\n      add\n      swap2\n    tag_116:\n      pop\n      pop\n      pop\n      pop\n      pop\n      swap1\n      pop\n        /* \"spoilsToken.sol\":2529:2633  function symbol() public view virtual override returns (string memory) {... */\n      swap1\n      jump\t// out\n        /* \"spoilsToken.sol\":10331:10513  function burn(address add,uint256 amount)public{... */\n    tag_60:\n        /* \"spoilsToken.sol\":10439:10443  true */\n      0x01\n        /* \"spoilsToken.sol\":10397:10443  onlyapprovedcontractaddress[msg.sender] ==true */\n      iszero\n      iszero\n        /* \"spoilsToken.sol\":10397:10424  onlyapprovedcontractaddress */\n      0x05\n        /* \"spoilsToken.sol\":10397:10436  onlyapprovedcontractaddress[msg.sender] */\n      0x00\n        /* \"spoilsToken.sol\":10425:10435  msg.sender */\n      caller\n        /* \"spoilsToken.sol\":10397:10436  onlyapprovedcontractaddress[msg.sender] */\n      0xffffffffffffffffffffffffffffffffffffffff\n      and\n      0xffffffffffffffffffffffffffffffffffffffff\n      and\n      dup2\n      mstore\n      0x20\n      add\n      swap1\n      dup2\n      mstore\n      0x20\n      add\n      0x00\n      keccak256\n      0x00\n      swap1\n      sload\n      swap1\n      0x0100\n      exp\n      swap1\n      div\n      0xff\n      and\n        /* \"spoilsToken.sol\":10397:10443  onlyapprovedcontractaddress[msg.sender] ==true */\n      iszero\n      iszero\n      eq\n        /* \"spoilsToken.sol\":10389:10477  require(onlyapprovedcontractaddress[msg.sender] ==true, \"you are not approved  to burn\") */\n      tag_120\n      jumpi\n      mload(0x40)\n      0x08c379a000000000000000000000000000000000000000000000000000000000\n      dup2\n      mstore\n      0x04\n      add\n      tag_121\n      swap1\n      tag_122\n      jump\t// in\n    tag_121:\n      mload(0x40)\n      dup1\n      swap2\n      sub\n      swap1\n      revert\n    tag_120:\n        /* \"spoilsToken.sol\":10488:10505  _burn(add,amount) */\n      tag_123\n        /* \"spoilsToken.sol\":10494:10497  add */\n      dup3\n        /* \"spoilsToken.sol\":10498:10504  amount */\n      dup3\n        /* \"spoilsToken.sol\":10488:10493  _burn */\n      tag_124\n        /* \"spoilsToken.sol\":10488:10505  _burn(add,amount) */\n      jump\t// in\n    tag_123:\n        /* \"spoilsToken.sol\":10331:10513  function burn(address add,uint256 amount)public{... */\n      pop\n      pop\n      jump\t// out\n        /* \"spoilsToken.sol\":7077:7490  function decreaseAllowance(address spender, uint256 subtractedValue) public virtual returns (bool) {... */\n    tag_63:\n        /* \"spoilsToken.sol\":7170:7174  bool */\n      0x00\n        /* \"spoilsToken.sol\":7187:7211  uint256 currentAllowance */\n      dup1\n        /* \"spoilsToken.sol\":7214:7225  _allowances */\n      0x01\n        /* \"spoilsToken.sol\":7214:7239  _allowances[_msgSender()] */\n      0x00\n        /* \"spoilsToken.sol\":7226:7238  _msgSender() */\n      tag_126\n        /* \"spoilsToken.sol\":7226:7236  _msgSender */\n      tag_87\n        /* \"spoilsToken.sol\":7226:7238  _msgSender() */\n      jump\t// in\n    tag_126:\n        /* \"spoilsToken.sol\":7214:7239  _allowances[_msgSender()] */\n      0xffffffffffffffffffffffffffffffffffffffff\n      and\n      0xffffffffffffffffffffffffffffffffffffffff\n      and\n      dup2\n      mstore\n      0x20\n      add\n      swap1\n      dup2\n      mstore\n      0x20\n      add\n      0x00\n      keccak256\n        /* \"spoilsToken.sol\":7214:7248  _allowances[_msgSender()][spender] */\n      0x00\n        /* \"spoilsToken.sol\":7240:7247  spender */\n      dup6\n        /* \"spoilsToken.sol\":7214:7248  _allowances[_msgSender()][spender] */\n      0xffffffffffffffffffffffffffffffffffffffff\n      and\n      0xffffffffffffffffffffffffffffffffffffffff\n      and\n      dup2\n      mstore\n      0x20\n      add\n      swap1\n      dup2\n      mstore\n      0x20\n      add\n      0x00\n      keccak256\n      sload\n        /* \"spoilsToken.sol\":7187:7248  uint256 currentAllowance = _allowances[_msgSender()][spender] */\n      swap1\n      pop\n        /* \"spoilsToken.sol\":7287:7302  subtractedValue */\n      dup3\n        /* \"spoilsToken.sol\":7267:7283  currentAllowance */\n      dup2\n        /* \"spoilsToken.sol\":7267:7302  currentAllowance >= subtractedValue */\n      lt\n      iszero\n        /* \"spoilsToken.sol\":7259:7344  require(currentAllowance >= subtractedValue, \"ERC20: decreased allowance below zero\") */\n      tag_127\n      jumpi\n      mload(0x40)\n      0x08c379a000000000000000000000000000000000000000000000000000000000\n      dup2\n      mstore\n      0x04\n      add\n      tag_128\n      swap1\n      tag_129\n      jump\t// in\n    tag_128:\n      mload(0x40)\n      dup1\n      swap2\n      sub\n      swap1\n      revert\n    tag_127:\n        /* \"spoilsToken.sol\":7380:7447  _approve(_msgSender(), spender, currentAllowance - subtractedValue) */\n      tag_130\n        /* \"spoilsToken.sol\":7389:7401  _msgSender() */\n      tag_131\n        /* \"spoilsToken.sol\":7389:7399  _msgSender */\n      tag_87\n        /* \"spoilsToken.sol\":7389:7401  _msgSender() */\n      jump\t// in\n    tag_131:\n        /* \"spoilsToken.sol\":7403:7410  spender */\n      dup6\n        /* \"spoilsToken.sol\":7431:7446  subtractedValue */\n      dup6\n        /* \"spoilsToken.sol\":7412:7428  currentAllowance */\n      dup5\n        /* \"spoilsToken.sol\":7412:7446  currentAllowance - subtractedValue */\n      sub\n        /* \"spoilsToken.sol\":7380:7388  _approve */\n      tag_88\n        /* \"spoilsToken.sol\":7380:7447  _approve(_msgSender(), spender, currentAllowance - subtractedValue) */\n      jump\t// in\n    tag_130:\n        /* \"spoilsToken.sol\":7478:7482  true */\n      0x01\n        /* \"spoilsToken.sol\":7471:7482  return true */\n      swap2\n      pop\n      pop\n        /* \"spoilsToken.sol\":7077:7490  function decreaseAllowance(address spender, uint256 subtractedValue) public virtual returns (bool) {... */\n      swap3\n      swap2\n      pop\n      pop\n      jump\t// out\n        /* \"spoilsToken.sol\":3941:4116  function transfer(address recipient, uint256 amount) public virtual override returns (bool) {... */\n    tag_67:\n        /* \"spoilsToken.sol\":4027:4031  bool */\n      0x00\n        /* \"spoilsToken.sol\":4044:4086  _transfer(_msgSender(), recipient, amount) */\n      tag_133\n        /* \"spoilsToken.sol\":4054:4066  _msgSender() */\n      tag_134\n        /* \"spoilsToken.sol\":4054:4064  _msgSender */\n      tag_87\n        /* \"spoilsToken.sol\":4054:4066  _msgSender() */\n      jump\t// in\n    tag_134:\n        /* \"spoilsToken.sol\":4068:4077  recipient */\n      dup5\n        /* \"spoilsToken.sol\":4079:4085  amount */\n      dup5\n        /* \"spoilsToken.sol\":4044:4053  _transfer */\n      tag_92\n        /* \"spoilsToken.sol\":4044:4086  _transfer(_msgSender(), recipient, amount) */\n      jump\t// in\n    tag_133:\n        /* \"spoilsToken.sol\":4104:4108  true */\n      0x01\n        /* \"spoilsToken.sol\":4097:4108  return true */\n      swap1\n      pop\n        /* \"spoilsToken.sol\":3941:4116  function transfer(address recipient, uint256 amount) public virtual override returns (bool) {... */\n      swap3\n      swap2\n      pop\n      pop\n      jump\t// out\n        /* \"spoilsToken.sol\":4124:4256  function setapprovedcontractaddress(address add)external {... */\n    tag_71:\n        /* \"spoilsToken.sol\":4235:4239  true */\n      0x01\n        /* \"spoilsToken.sol\":4201:4228  onlyapprovedcontractaddress */\n      0x05\n        /* \"spoilsToken.sol\":4201:4233  onlyapprovedcontractaddress[add] */\n      0x00\n        /* \"spoilsToken.sol\":4229:4232  add */\n      dup4\n        /* \"spoilsToken.sol\":4201:4233  onlyapprovedcontractaddress[add] */\n      0xffffffffffffffffffffffffffffffffffffffff\n      and\n      0xffffffffffffffffffffffffffffffffffffffff\n      and\n      dup2\n      mstore\n      0x20\n      add\n      swap1\n      dup2\n      mstore\n      0x20\n      add\n      0x00\n      keccak256\n      0x00\n        /* \"spoilsToken.sol\":4201:4239  onlyapprovedcontractaddress[add] =true */\n      0x0100\n      exp\n      dup2\n      sload\n      dup2\n      0xff\n      mul\n      not\n      and\n      swap1\n      dup4\n      iszero\n      iszero\n      mul\n      or\n      swap1\n      sstore\n      pop\n        /* \"spoilsToken.sol\":4124:4256  function setapprovedcontractaddress(address add)external {... */\n      pop\n      jump\t// out\n        /* \"spoilsToken.sol\":4509:4660  function allowance(address owner, address spender) public view virtual override returns (uint256) {... */\n    tag_75:\n        /* \"spoilsToken.sol\":4598:4605  uint256 */\n      0x00\n        /* \"spoilsToken.sol\":4625:4636  _allowances */\n      0x01\n        /* \"spoilsToken.sol\":4625:4643  _allowances[owner] */\n      0x00\n        /* \"spoilsToken.sol\":4637:4642  owner */\n      dup5\n        /* \"spoilsToken.sol\":4625:4643  _allowances[owner] */\n      0xffffffffffffffffffffffffffffffffffffffff\n      and\n      0xffffffffffffffffffffffffffffffffffffffff\n      and\n      dup2\n      mstore\n      0x20\n      add\n      swap1\n      dup2\n      mstore\n      0x20\n      add\n      0x00\n      keccak256\n        /* \"spoilsToken.sol\":4625:4652  _allowances[owner][spender] */\n      0x00\n        /* \"spoilsToken.sol\":4644:4651  spender */\n      dup4\n        /* \"spoilsToken.sol\":4625:4652  _allowances[owner][spender] */\n      0xffffffffffffffffffffffffffffffffffffffff\n      and\n      0xffffffffffffffffffffffffffffffffffffffff\n      and\n      dup2\n      mstore\n      0x20\n      add\n      swap1\n      dup2\n      mstore\n      0x20\n      add\n      0x00\n      keccak256\n      sload\n        /* \"spoilsToken.sol\":4618:4652  return _allowances[owner][spender] */\n      swap1\n      pop\n        /* \"spoilsToken.sol\":4509:4660  function allowance(address owner, address spender) public view virtual override returns (uint256) {... */\n      swap3\n      swap2\n      pop\n      pop\n      jump\t// out\n        /* \"@openzeppelin/contracts/utils/Context.sol\":640:736  function _msgSender() internal view virtual returns (address) {... */\n    tag_87:\n        /* \"@openzeppelin/contracts/utils/Context.sol\":693:700  address */\n      0x00\n        /* \"@openzeppelin/contracts/utils/Context.sol\":719:729  msg.sender */\n      caller\n        /* \"@openzeppelin/contracts/utils/Context.sol\":712:729  return msg.sender */\n      swap1\n      pop\n        /* \"@openzeppelin/contracts/utils/Context.sol\":640:736  function _msgSender() internal view virtual returns (address) {... */\n      swap1\n      jump\t// out\n        /* \"spoilsToken.sol\":10951:11331  function _approve(... */\n    tag_88:\n        /* \"spoilsToken.sol\":11104:11105  0 */\n      0x00\n        /* \"spoilsToken.sol\":11087:11106  owner != address(0) */\n      0xffffffffffffffffffffffffffffffffffffffff\n      and\n        /* \"spoilsToken.sol\":11087:11092  owner */\n      dup4\n        /* \"spoilsToken.sol\":11087:11106  owner != address(0) */\n      0xffffffffffffffffffffffffffffffffffffffff\n      and\n      sub\n        /* \"spoilsToken.sol\":11079:11147  require(owner != address(0), \"ERC20: approve from the zero address\") */\n      tag_139\n      jumpi\n      mload(0x40)\n      0x08c379a000000000000000000000000000000000000000000000000000000000\n      dup2\n      mstore\n      0x04\n      add\n      tag_140\n      swap1\n      tag_141\n      jump\t// in\n    tag_140:\n      mload(0x40)\n      dup1\n      swap2\n      sub\n      swap1\n      revert\n    tag_139:\n        /* \"spoilsToken.sol\":11185:11186  0 */\n      0x00\n        /* \"spoilsToken.sol\":11166:11187  spender != address(0) */\n      0xffffffffffffffffffffffffffffffffffffffff\n      and\n        /* \"spoilsToken.sol\":11166:11173  spender */\n      dup3\n        /* \"spoilsToken.sol\":11166:11187  spender != address(0) */\n      0xffffffffffffffffffffffffffffffffffffffff\n      and\n      sub\n        /* \"spoilsToken.sol\":11158:11226  require(spender != address(0), \"ERC20: approve to the zero address\") */\n      tag_142\n      jumpi\n      mload(0x40)\n      0x08c379a000000000000000000000000000000000000000000000000000000000\n      dup2\n      mstore\n      0x04\n      add\n      tag_143\n      swap1\n      tag_144\n      jump\t// in\n    tag_143:\n      mload(0x40)\n      dup1\n      swap2\n      sub\n      swap1\n      revert\n    tag_142:\n        /* \"spoilsToken.sol\":11269:11275  amount */\n      dup1\n        /* \"spoilsToken.sol\":11239:11250  _allowances */\n      0x01\n        /* \"spoilsToken.sol\":11239:11257  _allowances[owner] */\n      0x00\n        /* \"spoilsToken.sol\":11251:11256  owner */\n      dup6\n        /* \"spoilsToken.sol\":11239:11257  _allowances[owner] */\n      0xffffffffffffffffffffffffffffffffffffffff\n      and\n      0xffffffffffffffffffffffffffffffffffffffff\n      and\n      dup2\n      mstore\n      0x20\n      add\n      swap1\n      dup2\n      mstore\n      0x20\n      add\n      0x00\n      keccak256\n        /* \"spoilsToken.sol\":11239:11266  _allowances[owner][spender] */\n      0x00\n        /* \"spoilsToken.sol\":11258:11265  spender */\n      dup5\n        /* \"spoilsToken.sol\":11239:11266  _allowances[owner][spender] */\n      0xffffffffffffffffffffffffffffffffffffffff\n      and\n      0xffffffffffffffffffffffffffffffffffffffff\n      and\n      dup2\n      mstore\n      0x20\n      add\n      swap1\n      dup2\n      mstore\n      0x20\n      add\n      0x00\n      keccak256\n        /* \"spoilsToken.sol\":11239:11275  _allowances[owner][spender] = amount */\n      dup2\n      swap1\n      sstore\n      pop\n        /* \"spoilsToken.sol\":11307:11314  spender */\n      dup2\n        /* \"spoilsToken.sol\":11291:11323  Approval(owner, spender, amount) */\n      0xffffffffffffffffffffffffffffffffffffffff\n      and\n        /* \"spoilsToken.sol\":11300:11305  owner */\n      dup4\n        /* \"spoilsToken.sol\":11291:11323  Approval(owner, spender, amount) */\n      0xffffffffffffffffffffffffffffffffffffffff\n      and\n      0x8c5be1e5ebec7d5bd14f71427d1e84f3dd0314c0f7b2291e5b200ac8c7c3b925\n        /* \"spoilsToken.sol\":11316:11322  amount */\n      dup4\n        /* \"spoilsToken.sol\":11291:11323  Approval(owner, spender, amount) */\n      mload(0x40)\n      tag_145\n      swap2\n      swap1\n      tag_33\n      jump\t// in\n    tag_145:\n      mload(0x40)\n      dup1\n      swap2\n      sub\n      swap1\n      log3\n        /* \"spoilsToken.sol\":10951:11331  function _approve(... */\n      pop\n      pop\n      pop\n      jump\t// out\n        /* \"spoilsToken.sol\":7980:8713  function _transfer(... */\n    tag_92:\n        /* \"spoilsToken.sol\":8138:8139  0 */\n      0x00\n        /* \"spoilsToken.sol\":8120:8140  sender != address(0) */\n      0xffffffffffffffffffffffffffffffffffffffff\n      and\n        /* \"spoilsToken.sol\":8120:8126  sender */\n      dup4\n        /* \"spoilsToken.sol\":8120:8140  sender != address(0) */\n      0xffffffffffffffffffffffffffffffffffffffff\n      and\n      sub\n        /* \"spoilsToken.sol\":8112:8182  require(sender != address(0), \"ERC20: transfer from the zero address\") */\n      tag_147\n      jumpi\n      mload(0x40)\n      0x08c379a000000000000000000000000000000000000000000000000000000000\n      dup2\n      mstore\n      0x04\n      add\n      tag_148\n      swap1\n      tag_149\n      jump\t// in\n    tag_148:\n      mload(0x40)\n      dup1\n      swap2\n      sub\n      swap1\n      revert\n    tag_147:\n        /* \"spoilsToken.sol\":8222:8223  0 */\n      0x00\n        /* \"spoilsToken.sol\":8201:8224  recipient != address(0) */\n      0xffffffffffffffffffffffffffffffffffffffff\n      and\n        /* \"spoilsToken.sol\":8201:8210  recipient */\n      dup3\n        /* \"spoilsToken.sol\":8201:8224  recipient != address(0) */\n      0xffffffffffffffffffffffffffffffffffffffff\n      and\n      sub\n        /* \"spoilsToken.sol\":8193:8264  require(recipient != address(0), \"ERC20: transfer to the zero address\") */\n      tag_150\n      jumpi\n      mload(0x40)\n      0x08c379a000000000000000000000000000000000000000000000000000000000\n      dup2\n      mstore\n      0x04\n      add\n      tag_151\n      swap1\n      tag_152\n      jump\t// in\n    tag_151:\n      mload(0x40)\n      dup1\n      swap2\n      sub\n      swap1\n      revert\n    tag_150:\n        /* \"spoilsToken.sol\":8277:8324  _beforeTokenTransfer(sender, recipient, amount) */\n      tag_153\n        /* \"spoilsToken.sol\":8298:8304  sender */\n      dup4\n        /* \"spoilsToken.sol\":8306:8315  recipient */\n      dup4\n        /* \"spoilsToken.sol\":8317:8323  amount */\n      dup4\n        /* \"spoilsToken.sol\":8277:8297  _beforeTokenTransfer */\n      tag_154\n        /* \"spoilsToken.sol\":8277:8324  _beforeTokenTransfer(sender, recipient, amount) */\n      jump\t// in\n    tag_153:\n        /* \"spoilsToken.sol\":8337:8358  uint256 senderBalance */\n      0x00\n        /* \"spoilsToken.sol\":8361:8370  _balances */\n      dup1\n        /* \"spoilsToken.sol\":8361:8378  _balances[sender] */\n      0x00\n        /* \"spoilsToken.sol\":8371:8377  sender */\n      dup6\n        /* \"spoilsToken.sol\":8361:8378  _balances[sender] */\n      0xffffffffffffffffffffffffffffffffffffffff\n      and\n      0xffffffffffffffffffffffffffffffffffffffff\n      and\n      dup2\n      mstore\n      0x20\n      add\n      swap1\n      dup2\n      mstore\n      0x20\n      add\n      0x00\n      keccak256\n      sload\n        /* \"spoilsToken.sol\":8337:8378  uint256 senderBalance = _balances[sender] */\n      swap1\n      pop\n        /* \"spoilsToken.sol\":8414:8420  amount */\n      dup2\n        /* \"spoilsToken.sol\":8397:8410  senderBalance */\n      dup2\n        /* \"spoilsToken.sol\":8397:8420  senderBalance >= amount */\n      lt\n      iszero\n        /* \"spoilsToken.sol\":8389:8463  require(senderBalance >= amount, \"ERC20: transfer amount exceeds balance\") */\n      tag_155\n      jumpi\n      mload(0x40)\n      0x08c379a000000000000000000000000000000000000000000000000000000000\n      dup2\n      mstore\n      0x04\n      add\n      tag_156\n      swap1\n      tag_157\n      jump\t// in\n    tag_156:\n      mload(0x40)\n      dup1\n      swap2\n      sub\n      swap1\n      revert\n    tag_155:\n        /* \"spoilsToken.sol\":8535:8541  amount */\n      dup2\n        /* \"spoilsToken.sol\":8519:8532  senderBalance */\n      dup2\n        /* \"spoilsToken.sol\":8519:8541  senderBalance - amount */\n      sub\n        /* \"spoilsToken.sol\":8499:8508  _balances */\n      0x00\n        /* \"spoilsToken.sol\":8499:8516  _balances[sender] */\n      dup1\n        /* \"spoilsToken.sol\":8509:8515  sender */\n      dup7\n        /* \"spoilsToken.sol\":8499:8516  _balances[sender] */\n      0xffffffffffffffffffffffffffffffffffffffff\n      and\n      0xffffffffffffffffffffffffffffffffffffffff\n      and\n      dup2\n      mstore\n      0x20\n      add\n      swap1\n      dup2\n      mstore\n      0x20\n      add\n      0x00\n      keccak256\n        /* \"spoilsToken.sol\":8499:8541  _balances[sender] = senderBalance - amount */\n      dup2\n      swap1\n      sstore\n      pop\n        /* \"spoilsToken.sol\":8587:8593  amount */\n      dup2\n        /* \"spoilsToken.sol\":8563:8572  _balances */\n      0x00\n        /* \"spoilsToken.sol\":8563:8583  _balances[recipient] */\n      dup1\n        /* \"spoilsToken.sol\":8573:8582  recipient */\n      dup6\n        /* \"spoilsToken.sol\":8563:8583  _balances[recipient] */\n      0xffffffffffffffffffffffffffffffffffffffff\n      and\n      0xffffffffffffffffffffffffffffffffffffffff\n      and\n      dup2\n      mstore\n      0x20\n      add\n      swap1\n      dup2\n      mstore\n      0x20\n      add\n      0x00\n      keccak256\n      0x00\n        /* \"spoilsToken.sol\":8563:8593  _balances[recipient] += amount */\n      dup3\n      dup3\n      sload\n      tag_158\n      swap2\n      swap1\n      tag_105\n      jump\t// in\n    tag_158:\n      swap3\n      pop\n      pop\n      dup2\n      swap1\n      sstore\n      pop\n        /* \"spoilsToken.sol\":8628:8637  recipient */\n      dup3\n        /* \"spoilsToken.sol\":8611:8646  Transfer(sender, recipient, amount) */\n      0xffffffffffffffffffffffffffffffffffffffff\n      and\n        /* \"spoilsToken.sol\":8620:8626  sender */\n      dup5\n        /* \"spoilsToken.sol\":8611:8646  Transfer(sender, recipient, amount) */\n      0xffffffffffffffffffffffffffffffffffffffff\n      and\n      0xddf252ad1be2c89b69c2b068fc378daa952ba7f163c4a11628f55a4df523b3ef\n        /* \"spoilsToken.sol\":8639:8645  amount */\n      dup5\n        /* \"spoilsToken.sol\":8611:8646  Transfer(sender, recipient, amount) */\n      mload(0x40)\n      tag_159\n      swap2\n      swap1\n      tag_33\n      jump\t// in\n    tag_159:\n      mload(0x40)\n      dup1\n      swap2\n      sub\n      swap1\n      log3\n        /* \"spoilsToken.sol\":8659:8705  _afterTokenTransfer(sender, recipient, amount) */\n      tag_160\n        /* \"spoilsToken.sol\":8679:8685  sender */\n      dup5\n        /* \"spoilsToken.sol\":8687:8696  recipient */\n      dup5\n        /* \"spoilsToken.sol\":8698:8704  amount */\n      dup5\n        /* \"spoilsToken.sol\":8659:8678  _afterTokenTransfer */\n      tag_161\n        /* \"spoilsToken.sol\":8659:8705  _afterTokenTransfer(sender, recipient, amount) */\n      jump\t// in\n    tag_160:\n        /* \"spoilsToken.sol\":8101:8713  {... */\n      pop\n        /* \"spoilsToken.sol\":7980:8713  function _transfer(... */\n      pop\n      pop\n      pop\n      jump\t// out\n        /* \"spoilsToken.sol\":9000:9399  function _mint(address account, uint256 amount) internal virtual {... */\n    tag_111:\n        /* \"spoilsToken.sol\":9103:9104  0 */\n      0x00\n        /* \"spoilsToken.sol\":9084:9105  account != address(0) */\n      0xffffffffffffffffffffffffffffffffffffffff\n      and\n        /* \"spoilsToken.sol\":9084:9091  account */\n      dup3\n        /* \"spoilsToken.sol\":9084:9105  account != address(0) */\n      0xffffffffffffffffffffffffffffffffffffffff\n      and\n      sub\n        /* \"spoilsToken.sol\":9076:9141  require(account != address(0), \"ERC20: mint to the zero address\") */\n      tag_163\n      jumpi\n      mload(0x40)\n      0x08c379a000000000000000000000000000000000000000000000000000000000\n      dup2\n      mstore\n      0x04\n      add\n      tag_164\n      swap1\n      tag_165\n      jump\t// in\n    tag_164:\n      mload(0x40)\n      dup1\n      swap2\n      sub\n      swap1\n      revert\n    tag_163:\n        /* \"spoilsToken.sol\":9154:9203  _beforeTokenTransfer(address(0), account, amount) */\n      tag_166\n        /* \"spoilsToken.sol\":9183:9184  0 */\n      0x00\n        /* \"spoilsToken.sol\":9187:9194  account */\n      dup4\n        /* \"spoilsToken.sol\":9196:9202  amount */\n      dup4\n        /* \"spoilsToken.sol\":9154:9174  _beforeTokenTransfer */\n      tag_154\n        /* \"spoilsToken.sol\":9154:9203  _beforeTokenTransfer(address(0), account, amount) */\n      jump\t// in\n    tag_166:\n        /* \"spoilsToken.sol\":9232:9238  amount */\n      dup1\n        /* \"spoilsToken.sol\":9216:9228  _totalSupply */\n      0x02\n      0x00\n        /* \"spoilsToken.sol\":9216:9238  _totalSupply += amount */\n      dup3\n      dup3\n      sload\n      tag_167\n      swap2\n      swap1\n      tag_105\n      jump\t// in\n    tag_167:\n      swap3\n      pop\n      pop\n      dup2\n      swap1\n      sstore\n      pop\n        /* \"spoilsToken.sol\":9271:9277  amount */\n      dup1\n        /* \"spoilsToken.sol\":9249:9258  _balances */\n      0x00\n        /* \"spoilsToken.sol\":9249:9267  _balances[account] */\n      dup1\n        /* \"spoilsToken.sol\":9259:9266  account */\n      dup5\n        /* \"spoilsToken.sol\":9249:9267  _balances[account] */\n      0xffffffffffffffffffffffffffffffffffffffff\n      and\n      0xffffffffffffffffffffffffffffffffffffffff\n      and\n      dup2\n      mstore\n      0x20\n      add\n      swap1\n      dup2\n      mstore\n      0x20\n      add\n      0x00\n      keccak256\n      0x00\n        /* \"spoilsToken.sol\":9249:9277  _balances[account] += amount */\n      dup3\n      dup3\n      sload\n      tag_168\n      swap2\n      swap1\n      tag_105\n      jump\t// in\n    tag_168:\n      swap3\n      pop\n      pop\n      dup2\n      swap1\n      sstore\n      pop\n        /* \"spoilsToken.sol\":9314:9321  account */\n      dup2\n        /* \"spoilsToken.sol\":9293:9330  Transfer(address(0), account, amount) */\n      0xffffffffffffffffffffffffffffffffffffffff\n      and\n        /* \"spoilsToken.sol\":9310:9311  0 */\n      0x00\n        /* \"spoilsToken.sol\":9293:9330  Transfer(address(0), account, amount) */\n      0xffffffffffffffffffffffffffffffffffffffff\n      and\n      0xddf252ad1be2c89b69c2b068fc378daa952ba7f163c4a11628f55a4df523b3ef\n        /* \"spoilsToken.sol\":9323:9329  amount */\n      dup4\n        /* \"spoilsToken.sol\":9293:9330  Transfer(address(0), account, amount) */\n      mload(0x40)\n      tag_169\n      swap2\n      swap1\n      tag_33\n      jump\t// in\n    tag_169:\n      mload(0x40)\n      dup1\n      swap2\n      sub\n      swap1\n      log3\n        /* \"spoilsToken.sol\":9343:9391  _afterTokenTransfer(address(0), account, amount) */\n      tag_170\n        /* \"spoilsToken.sol\":9371:9372  0 */\n      0x00\n        /* \"spoilsToken.sol\":9375:9382  account */\n      dup4\n        /* \"spoilsToken.sol\":9384:9390  amount */\n      dup4\n        /* \"spoilsToken.sol\":9343:9362  _afterTokenTransfer */\n      tag_161\n        /* \"spoilsToken.sol\":9343:9391  _afterTokenTransfer(address(0), account, amount) */\n      jump\t// in\n    tag_170:\n        /* \"spoilsToken.sol\":9000:9399  function _mint(address account, uint256 amount) internal virtual {... */\n      pop\n      pop\n      jump\t// out\n        /* \"spoilsToken.sol\":9732:10323  function _burn(address account, uint256 amount) internal virtual {... */\n    tag_124:\n        /* \"spoilsToken.sol\":9835:9836  0 */\n      0x00\n        /* \"spoilsToken.sol\":9816:9837  account != address(0) */\n      0xffffffffffffffffffffffffffffffffffffffff\n      and\n        /* \"spoilsToken.sol\":9816:9823  account */\n      dup3\n        /* \"spoilsToken.sol\":9816:9837  account != address(0) */\n      0xffffffffffffffffffffffffffffffffffffffff\n      and\n      sub\n        /* \"spoilsToken.sol\":9808:9875  require(account != address(0), \"ERC20: burn from the zero address\") */\n      tag_172\n      jumpi\n      mload(0x40)\n      0x08c379a000000000000000000000000000000000000000000000000000000000\n      dup2\n      mstore\n      0x04\n      add\n      tag_173\n      swap1\n      tag_174\n      jump\t// in\n    tag_173:\n      mload(0x40)\n      dup1\n      swap2\n      sub\n      swap1\n      revert\n    tag_172:\n        /* \"spoilsToken.sol\":9888:9937  _beforeTokenTransfer(account, address(0), amount) */\n      tag_175\n        /* \"spoilsToken.sol\":9909:9916  account */\n      dup3\n        /* \"spoilsToken.sol\":9926:9927  0 */\n      0x00\n        /* \"spoilsToken.sol\":9930:9936  amount */\n      dup4\n        /* \"spoilsToken.sol\":9888:9908  _beforeTokenTransfer */\n      tag_154\n        /* \"spoilsToken.sol\":9888:9937  _beforeTokenTransfer(account, address(0), amount) */\n      jump\t// in\n    tag_175:\n        /* \"spoilsToken.sol\":9950:9972  uint256 accountBalance */\n      0x00\n        /* \"spoilsToken.sol\":9975:9984  _balances */\n      dup1\n        /* \"spoilsToken.sol\":9975:9993  _balances[account] */\n      0x00\n        /* \"spoilsToken.sol\":9985:9992  account */\n      dup5\n        /* \"spoilsToken.sol\":9975:9993  _balances[account] */\n      0xffffffffffffffffffffffffffffffffffffffff\n      and\n      0xffffffffffffffffffffffffffffffffffffffff\n      and\n      dup2\n      mstore\n      0x20\n      add\n      swap1\n      dup2\n      mstore\n      0x20\n      add\n      0x00\n      keccak256\n      sload\n        /* \"spoilsToken.sol\":9950:9993  uint256 accountBalance = _balances[account] */\n      swap1\n      pop\n        /* \"spoilsToken.sol\":10030:10036  amount */\n      dup2\n        /* \"spoilsToken.sol\":10012:10026  accountBalance */\n      dup2\n        /* \"spoilsToken.sol\":10012:10036  accountBalance >= amount */\n      lt\n      iszero\n        /* \"spoilsToken.sol\":10004:10075  require(accountBalance >= amount, \"ERC20: burn amount exceeds balance\") */\n      tag_176\n      jumpi\n      mload(0x40)\n      0x08c379a000000000000000000000000000000000000000000000000000000000\n      dup2\n      mstore\n      0x04\n      add\n      tag_177\n      swap1\n      tag_178\n      jump\t// in\n    tag_177:\n      mload(0x40)\n      dup1\n      swap2\n      sub\n      swap1\n      revert\n    tag_176:\n        /* \"spoilsToken.sol\":10149:10155  amount */\n      dup2\n        /* \"spoilsToken.sol\":10132:10146  accountBalance */\n      dup2\n        /* \"spoilsToken.sol\":10132:10155  accountBalance - amount */\n      sub\n        /* \"spoilsToken.sol\":10111:10120  _balances */\n      0x00\n        /* \"spoilsToken.sol\":10111:10129  _balances[account] */\n      dup1\n        /* \"spoilsToken.sol\":10121:10128  account */\n      dup6\n        /* \"spoilsToken.sol\":10111:10129  _balances[account] */\n      0xffffffffffffffffffffffffffffffffffffffff\n      and\n      0xffffffffffffffffffffffffffffffffffffffff\n      and\n      dup2\n      mstore\n      0x20\n      add\n      swap1\n      dup2\n      mstore\n      0x20\n      add\n      0x00\n      keccak256\n        /* \"spoilsToken.sol\":10111:10155  _balances[account] = accountBalance - amount */\n      dup2\n      swap1\n      sstore\n      pop\n        /* \"spoilsToken.sol\":10193:10199  amount */\n      dup2\n        /* \"spoilsToken.sol\":10177:10189  _totalSupply */\n      0x02\n      0x00\n        /* \"spoilsToken.sol\":10177:10199  _totalSupply -= amount */\n      dup3\n      dup3\n      sload\n      tag_179\n      swap2\n      swap1\n      tag_180\n      jump\t// in\n    tag_179:\n      swap3\n      pop\n      pop\n      dup2\n      swap1\n      sstore\n      pop\n        /* \"spoilsToken.sol\":10243:10244  0 */\n      0x00\n        /* \"spoilsToken.sol\":10217:10254  Transfer(account, address(0), amount) */\n      0xffffffffffffffffffffffffffffffffffffffff\n      and\n        /* \"spoilsToken.sol\":10226:10233  account */\n      dup4\n        /* \"spoilsToken.sol\":10217:10254  Transfer(account, address(0), amount) */\n      0xffffffffffffffffffffffffffffffffffffffff\n      and\n      0xddf252ad1be2c89b69c2b068fc378daa952ba7f163c4a11628f55a4df523b3ef\n        /* \"spoilsToken.sol\":10247:10253  amount */\n      dup5\n        /* \"spoilsToken.sol\":10217:10254  Transfer(account, address(0), amount) */\n      mload(0x40)\n      tag_181\n      swap2\n      swap1\n      tag_33\n      jump\t// in\n    tag_181:\n      mload(0x40)\n      dup1\n      swap2\n      sub\n      swap1\n      log3\n        /* \"spoilsToken.sol\":10267:10315  _afterTokenTransfer(account, address(0), amount) */\n      tag_182\n        /* \"spoilsToken.sol\":10287:10294  account */\n      dup4\n        /* \"spoilsToken.sol\":10304:10305  0 */\n      0x00\n        /* \"spoilsToken.sol\":10308:10314  amount */\n      dup5\n        /* \"spoilsToken.sol\":10267:10286  _afterTokenTransfer */\n      tag_161\n        /* \"spoilsToken.sol\":10267:10315  _afterTokenTransfer(account, address(0), amount) */\n      jump\t// in\n    tag_182:\n        /* \"spoilsToken.sol\":9797:10323  {... */\n      pop\n        /* \"spoilsToken.sol\":9732:10323  function _burn(address account, uint256 amount) internal virtual {... */\n      pop\n      pop\n      jump\t// out\n        /* \"spoilsToken.sol\":11931:12056  function _beforeTokenTransfer(... */\n    tag_154:\n      pop\n      pop\n      pop\n      jump\t// out\n        /* \"spoilsToken.sol\":12660:12784  function _afterTokenTransfer(... */\n    tag_161:\n      pop\n      pop\n      pop\n      jump\t// out\n        /* \"#utility.yul\":7:106   */\n    tag_185:\n        /* \"#utility.yul\":59:65   */\n      0x00\n        /* \"#utility.yul\":93:98   */\n      dup2\n        /* \"#utility.yul\":87:99   */\n      mload\n        /* \"#utility.yul\":77:99   */\n      swap1\n      pop\n        /* \"#utility.yul\":7:106   */\n      swap2\n      swap1\n      pop\n      jump\t// out\n        /* \"#utility.yul\":112:281   */\n    tag_186:\n        /* \"#utility.yul\":196:207   */\n      0x00\n        /* \"#utility.yul\":230:236   */\n      dup3\n        /* \"#utility.yul\":225:228   */\n      dup3\n        /* \"#utility.yul\":218:237   */\n      mstore\n        /* \"#utility.yul\":270:274   */\n      0x20\n        /* \"#utility.yul\":265:268   */\n      dup3\n        /* \"#utility.yul\":261:275   */\n      add\n        /* \"#utility.yul\":246:275   */\n      swap1\n      pop\n        /* \"#utility.yul\":112:281   */\n      swap3\n      swap2\n      pop\n      pop\n      jump\t// out\n        /* \"#utility.yul\":287:533   */\n    tag_187:\n        /* \"#utility.yul\":368:369   */\n      0x00\n        /* \"#utility.yul\":378:491   */\n    tag_235:\n        /* \"#utility.yul\":392:398   */\n      dup4\n        /* \"#utility.yul\":389:390   */\n      dup2\n        /* \"#utility.yul\":386:399   */\n      lt\n        /* \"#utility.yul\":378:491   */\n      iszero\n      tag_237\n      jumpi\n        /* \"#utility.yul\":477:478   */\n      dup1\n        /* \"#utility.yul\":472:475   */\n      dup3\n        /* \"#utility.yul\":468:479   */\n      add\n        /* \"#utility.yul\":462:480   */\n      mload\n        /* \"#utility.yul\":458:459   */\n      dup2\n        /* \"#utility.yul\":453:456   */\n      dup5\n        /* \"#utility.yul\":449:460   */\n      add\n        /* \"#utility.yul\":442:481   */\n      mstore\n        /* \"#utility.yul\":414:416   */\n      0x20\n        /* \"#utility.yul\":411:412   */\n      dup2\n        /* \"#utility.yul\":407:417   */\n      add\n        /* \"#utility.yul\":402:417   */\n      swap1\n      pop\n        /* \"#utility.yul\":378:491   */\n      jump(tag_235)\n    tag_237:\n        /* \"#utility.yul\":525:526   */\n      0x00\n        /* \"#utility.yul\":516:522   */\n      dup5\n        /* \"#utility.yul\":511:514   */\n      dup5\n        /* \"#utility.yul\":507:523   */\n      add\n        /* \"#utility.yul\":500:527   */\n      mstore\n        /* \"#utility.yul\":349:533   */\n      pop\n        /* \"#utility.yul\":287:533   */\n      pop\n      pop\n      pop\n      jump\t// out\n        /* \"#utility.yul\":539:641   */\n    tag_188:\n        /* \"#utility.yul\":580:586   */\n      0x00\n        /* \"#utility.yul\":631:633   */\n      0x1f\n        /* \"#utility.yul\":627:634   */\n      not\n        /* \"#utility.yul\":622:624   */\n      0x1f\n        /* \"#utility.yul\":615:620   */\n      dup4\n        /* \"#utility.yul\":611:625   */\n      add\n        /* \"#utility.yul\":607:635   */\n      and\n        /* \"#utility.yul\":597:635   */\n      swap1\n      pop\n        /* \"#utility.yul\":539:641   */\n      swap2\n      swap1\n      pop\n      jump\t// out\n        /* \"#utility.yul\":647:1024   */\n    tag_189:\n        /* \"#utility.yul\":735:738   */\n      0x00\n        /* \"#utility.yul\":763:802   */\n      tag_240\n        /* \"#utility.yul\":796:801   */\n      dup3\n        /* \"#utility.yul\":763:802   */\n      tag_185\n      jump\t// in\n    tag_240:\n        /* \"#utility.yul\":818:889   */\n      tag_241\n        /* \"#utility.yul\":882:888   */\n      dup2\n        /* \"#utility.yul\":877:880   */\n      dup6\n        /* \"#utility.yul\":818:889   */\n      tag_186\n      jump\t// in\n    tag_241:\n        /* \"#utility.yul\":811:889   */\n      swap4\n      pop\n        /* \"#utility.yul\":898:963   */\n      tag_242\n        /* \"#utility.yul\":956:962   */\n      dup2\n        /* \"#utility.yul\":951:954   */\n      dup6\n        /* \"#utility.yul\":944:948   */\n      0x20\n        /* \"#utility.yul\":937:942   */\n      dup7\n        /* \"#utility.yul\":933:949   */\n      add\n        /* \"#utility.yul\":898:963   */\n      tag_187\n      jump\t// in\n    tag_242:\n        /* \"#utility.yul\":988:1017   */\n      tag_243\n        /* \"#utility.yul\":1010:1016   */\n      dup2\n        /* \"#utility.yul\":988:1017   */\n      tag_188\n      jump\t// in\n    tag_243:\n        /* \"#utility.yul\":983:986   */\n      dup5\n        /* \"#utility.yul\":979:1018   */\n      add\n        /* \"#utility.yul\":972:1018   */\n      swap2\n      pop\n        /* \"#utility.yul\":739:1024   */\n      pop\n        /* \"#utility.yul\":647:1024   */\n      swap3\n      swap2\n      pop\n      pop\n      jump\t// out\n        /* \"#utility.yul\":1030:1343   */\n    tag_23:\n        /* \"#utility.yul\":1143:1147   */\n      0x00\n        /* \"#utility.yul\":1181:1183   */\n      0x20\n        /* \"#utility.yul\":1170:1179   */\n      dup3\n        /* \"#utility.yul\":1166:1184   */\n      add\n        /* \"#utility.yul\":1158:1184   */\n      swap1\n      pop\n        /* \"#utility.yul\":1230:1239   */\n      dup2\n        /* \"#utility.yul\":1224:1228   */\n      dup2\n        /* \"#utility.yul\":1220:1240   */\n      sub\n        /* \"#utility.yul\":1216:1217   */\n      0x00\n        /* \"#utility.yul\":1205:1214   */\n      dup4\n        /* \"#utility.yul\":1201:1218   */\n      add\n        /* \"#utility.yul\":1194:1241   */\n      mstore\n        /* \"#utility.yul\":1258:1336   */\n      tag_245\n        /* \"#utility.yul\":1331:1335   */\n      dup2\n        /* \"#utility.yul\":1322:1328   */\n      dup5\n        /* \"#utility.yul\":1258:1336   */\n      tag_189\n      jump\t// in\n    tag_245:\n        /* \"#utility.yul\":1250:1336   */\n      swap1\n      pop\n        /* \"#utility.yul\":1030:1343   */\n      swap3\n      swap2\n      pop\n      pop\n      jump\t// out\n        /* \"#utility.yul\":1430:1547   */\n    tag_191:\n        /* \"#utility.yul\":1539:1540   */\n      0x00\n        /* \"#utility.yul\":1536:1537   */\n      dup1\n        /* \"#utility.yul\":1529:1541   */\n      revert\n        /* \"#utility.yul\":1676:1802   */\n    tag_193:\n        /* \"#utility.yul\":1713:1720   */\n      0x00\n        /* \"#utility.yul\":1753:1795   */\n      0xffffffffffffffffffffffffffffffffffffffff\n        /* \"#utility.yul\":1746:1751   */\n      dup3\n        /* \"#utility.yul\":1742:1796   */\n      and\n        /* \"#utility.yul\":1731:1796   */\n      swap1\n      pop\n        /* \"#utility.yul\":1676:1802   */\n      swap2\n      swap1\n      pop\n      jump\t// out\n        /* \"#utility.yul\":1808:1904   */\n    tag_194:\n        /* \"#utility.yul\":1845:1852   */\n      0x00\n        /* \"#utility.yul\":1874:1898   */\n      tag_251\n        /* \"#utility.yul\":1892:1897   */\n      dup3\n        /* \"#utility.yul\":1874:1898   */\n      tag_193\n      jump\t// in\n    tag_251:\n        /* \"#utility.yul\":1863:1898   */\n      swap1\n      pop\n        /* \"#utility.yul\":1808:1904   */\n      swap2\n      swap1\n      pop\n      jump\t// out\n        /* \"#utility.yul\":1910:2032   */\n    tag_195:\n        /* \"#utility.yul\":1983:2007   */\n      tag_253\n        /* \"#utility.yul\":2001:2006   */\n      dup2\n        /* \"#utility.yul\":1983:2007   */\n      tag_194\n      jump\t// in\n    tag_253:\n        /* \"#utility.yul\":1976:1981   */\n      dup2\n        /* \"#utility.yul\":1973:2008   */\n      eq\n        /* \"#utility.yul\":1963:2026   */\n      tag_254\n      jumpi\n        /* \"#utility.yul\":2022:2023   */\n      0x00\n        /* \"#utility.yul\":2019:2020   */\n      dup1\n        /* \"#utility.yul\":2012:2024   */\n      revert\n        /* \"#utility.yul\":1963:2026   */\n    tag_254:\n        /* \"#utility.yul\":1910:2032   */\n      pop\n      jump\t// out\n        /* \"#utility.yul\":2038:2177   */\n    tag_196:\n        /* \"#utility.yul\":2084:2089   */\n      0x00\n        /* \"#utility.yul\":2122:2128   */\n      dup2\n        /* \"#utility.yul\":2109:2129   */\n      calldataload\n        /* \"#utility.yul\":2100:2129   */\n      swap1\n      pop\n        /* \"#utility.yul\":2138:2171   */\n      tag_256\n        /* \"#utility.yul\":2165:2170   */\n      dup2\n        /* \"#utility.yul\":2138:2171   */\n      tag_195\n      jump\t// in\n    tag_256:\n        /* \"#utility.yul\":2038:2177   */\n      swap3\n      swap2\n      pop\n      pop\n      jump\t// out\n        /* \"#utility.yul\":2183:2260   */\n    tag_197:\n        /* \"#utility.yul\":2220:2227   */\n      0x00\n        /* \"#utility.yul\":2249:2254   */\n      dup2\n        /* \"#utility.yul\":2238:2254   */\n      swap1\n      pop\n        /* \"#utility.yul\":2183:2260   */\n      swap2\n      swap1\n      pop\n      jump\t// out\n        /* \"#utility.yul\":2266:2388   */\n    tag_198:\n        /* \"#utility.yul\":2339:2363   */\n      tag_259\n        /* \"#utility.yul\":2357:2362   */\n      dup2\n        /* \"#utility.yul\":2339:2363   */\n      tag_197\n      jump\t// in\n    tag_259:\n        /* \"#utility.yul\":2332:2337   */\n      dup2\n        /* \"#utility.yul\":2329:2364   */\n      eq\n        /* \"#utility.yul\":2319:2382   */\n      tag_260\n      jumpi\n        /* \"#utility.yul\":2378:2379   */\n      0x00\n        /* \"#utility.yul\":2375:2376   */\n      dup1\n        /* \"#utility.yul\":2368:2380   */\n      revert\n        /* \"#utility.yul\":2319:2382   */\n    tag_260:\n        /* \"#utility.yul\":2266:2388   */\n      pop\n      jump\t// out\n        /* \"#utility.yul\":2394:2533   */\n    tag_199:\n        /* \"#utility.yul\":2440:2445   */\n      0x00\n        /* \"#utility.yul\":2478:2484   */\n      dup2\n        /* \"#utility.yul\":2465:2485   */\n      calldataload\n        /* \"#utility.yul\":2456:2485   */\n      swap1\n      pop\n        /* \"#utility.yul\":2494:2527   */\n      tag_262\n        /* \"#utility.yul\":2521:2526   */\n      dup2\n        /* \"#utility.yul\":2494:2527   */\n      tag_198\n      jump\t// in\n    tag_262:\n        /* \"#utility.yul\":2394:2533   */\n      swap3\n      swap2\n      pop\n      pop\n      jump\t// out\n        /* \"#utility.yul\":2539:3013   */\n    tag_26:\n        /* \"#utility.yul\":2607:2613   */\n      0x00\n        /* \"#utility.yul\":2615:2621   */\n      dup1\n        /* \"#utility.yul\":2664:2666   */\n      0x40\n        /* \"#utility.yul\":2652:2661   */\n      dup4\n        /* \"#utility.yul\":2643:2650   */\n      dup6\n        /* \"#utility.yul\":2639:2662   */\n      sub\n        /* \"#utility.yul\":2635:2667   */\n      slt\n        /* \"#utility.yul\":2632:2751   */\n      iszero\n      tag_264\n      jumpi\n        /* \"#utility.yul\":2670:2749   */\n      tag_265\n      tag_191\n      jump\t// in\n    tag_265:\n        /* \"#utility.yul\":2632:2751   */\n    tag_264:\n        /* \"#utility.yul\":2790:2791   */\n      0x00\n        /* \"#utility.yul\":2815:2868   */\n      tag_266\n        /* \"#utility.yul\":2860:2867   */\n      dup6\n        /* \"#utility.yul\":2851:2857   */\n      dup3\n        /* \"#utility.yul\":2840:2849   */\n      dup7\n        /* \"#utility.yul\":2836:2858   */\n      add\n        /* \"#utility.yul\":2815:2868   */\n      tag_196\n      jump\t// in\n    tag_266:\n        /* \"#utility.yul\":2805:2868   */\n      swap3\n      pop\n        /* \"#utility.yul\":2761:2878   */\n      pop\n        /* \"#utility.yul\":2917:2919   */\n      0x20\n        /* \"#utility.yul\":2943:2996   */\n      tag_267\n        /* \"#utility.yul\":2988:2995   */\n      dup6\n        /* \"#utility.yul\":2979:2985   */\n      dup3\n        /* \"#utility.yul\":2968:2977   */\n      dup7\n        /* \"#utility.yul\":2964:2986   */\n      add\n        /* \"#utility.yul\":2943:2996   */\n      tag_199\n      jump\t// in\n    tag_267:\n        /* \"#utility.yul\":2933:2996   */\n      swap2\n      pop\n        /* \"#utility.yul\":2888:3006   */\n      pop\n        /* \"#utility.yul\":2539:3013   */\n      swap3\n      pop\n      swap3\n      swap1\n      pop\n      jump\t// out\n        /* \"#utility.yul\":3019:3109   */\n    tag_200:\n        /* \"#utility.yul\":3053:3060   */\n      0x00\n        /* \"#utility.yul\":3096:3101   */\n      dup2\n        /* \"#utility.yul\":3089:3102   */\n      iszero\n        /* \"#utility.yul\":3082:3103   */\n      iszero\n        /* \"#utility.yul\":3071:3103   */\n      swap1\n      pop\n        /* \"#utility.yul\":3019:3109   */\n      swap2\n      swap1\n      pop\n      jump\t// out\n        /* \"#utility.yul\":3115:3224   */\n    tag_201:\n        /* \"#utility.yul\":3196:3217   */\n      tag_270\n        /* \"#utility.yul\":3211:3216   */\n      dup2\n        /* \"#utility.yul\":3196:3217   */\n      tag_200\n      jump\t// in\n    tag_270:\n        /* \"#utility.yul\":3191:3194   */\n      dup3\n        /* \"#utility.yul\":3184:3218   */\n      mstore\n        /* \"#utility.yul\":3115:3224   */\n      pop\n      pop\n      jump\t// out\n        /* \"#utility.yul\":3230:3440   */\n    tag_29:\n        /* \"#utility.yul\":3317:3321   */\n      0x00\n        /* \"#utility.yul\":3355:3357   */\n      0x20\n        /* \"#utility.yul\":3344:3353   */\n      dup3\n        /* \"#utility.yul\":3340:3358   */\n      add\n        /* \"#utility.yul\":3332:3358   */\n      swap1\n      pop\n        /* \"#utility.yul\":3368:3433   */\n      tag_272\n        /* \"#utility.yul\":3430:3431   */\n      0x00\n        /* \"#utility.yul\":3419:3428   */\n      dup4\n        /* \"#utility.yul\":3415:3432   */\n      add\n        /* \"#utility.yul\":3406:3412   */\n      dup5\n        /* \"#utility.yul\":3368:3433   */\n      tag_201\n      jump\t// in\n    tag_272:\n        /* \"#utility.yul\":3230:3440   */\n      swap3\n      swap2\n      pop\n      pop\n      jump\t// out\n        /* \"#utility.yul\":3446:3564   */\n    tag_202:\n        /* \"#utility.yul\":3533:3557   */\n      tag_274\n        /* \"#utility.yul\":3551:3556   */\n      dup2\n        /* \"#utility.yul\":3533:3557   */\n      tag_197\n      jump\t// in\n    tag_274:\n        /* \"#utility.yul\":3528:3531   */\n      dup3\n        /* \"#utility.yul\":3521:3558   */\n      mstore\n        /* \"#utility.yul\":3446:3564   */\n      pop\n      pop\n      jump\t// out\n        /* \"#utility.yul\":3570:3792   */\n    tag_33:\n        /* \"#utility.yul\":3663:3667   */\n      0x00\n        /* \"#utility.yul\":3701:3703   */\n      0x20\n        /* \"#utility.yul\":3690:3699   */\n      dup3\n        /* \"#utility.yul\":3686:3704   */\n      add\n        /* \"#utility.yul\":3678:3704   */\n      swap1\n      pop\n        /* \"#utility.yul\":3714:3785   */\n      tag_276\n        /* \"#utility.yul\":3782:3783   */\n      0x00\n        /* \"#utility.yul\":3771:3780   */\n      dup4\n        /* \"#utility.yul\":3767:3784   */\n      add\n        /* \"#utility.yul\":3758:3764   */\n      dup5\n        /* \"#utility.yul\":3714:3785   */\n      tag_202\n      jump\t// in\n    tag_276:\n        /* \"#utility.yul\":3570:3792   */\n      swap3\n      swap2\n      pop\n      pop\n      jump\t// out\n        /* \"#utility.yul\":3798:4417   */\n    tag_36:\n        /* \"#utility.yul\":3875:3881   */\n      0x00\n        /* \"#utility.yul\":3883:3889   */\n      dup1\n        /* \"#utility.yul\":3891:3897   */\n      0x00\n        /* \"#utility.yul\":3940:3942   */\n      0x60\n        /* \"#utility.yul\":3928:3937   */\n      dup5\n        /* \"#utility.yul\":3919:3926   */\n      dup7\n        /* \"#utility.yul\":3915:3938   */\n      sub\n        /* \"#utility.yul\":3911:3943   */\n      slt\n        /* \"#utility.yul\":3908:4027   */\n      iszero\n      tag_278\n      jumpi\n        /* \"#utility.yul\":3946:4025   */\n      tag_279\n      tag_191\n      jump\t// in\n    tag_279:\n        /* \"#utility.yul\":3908:4027   */\n    tag_278:\n        /* \"#utility.yul\":4066:4067   */\n      0x00\n        /* \"#utility.yul\":4091:4144   */\n      tag_280\n        /* \"#utility.yul\":4136:4143   */\n      dup7\n        /* \"#utility.yul\":4127:4133   */\n      dup3\n        /* \"#utility.yul\":4116:4125   */\n      dup8\n        /* \"#utility.yul\":4112:4134   */\n      add\n        /* \"#utility.yul\":4091:4144   */\n      tag_196\n      jump\t// in\n    tag_280:\n        /* \"#utility.yul\":4081:4144   */\n      swap4\n      pop\n        /* \"#utility.yul\":4037:4154   */\n      pop\n        /* \"#utility.yul\":4193:4195   */\n      0x20\n        /* \"#utility.yul\":4219:4272   */\n      tag_281\n        /* \"#utility.yul\":4264:4271   */\n      dup7\n        /* \"#utility.yul\":4255:4261   */\n      dup3\n        /* \"#utility.yul\":4244:4253   */\n      dup8\n        /* \"#utility.yul\":4240:4262   */\n      add\n        /* \"#utility.yul\":4219:4272   */\n      tag_196\n      jump\t// in\n    tag_281:\n        /* \"#utility.yul\":4209:4272   */\n      swap3\n      pop\n        /* \"#utility.yul\":4164:4282   */\n      pop\n        /* \"#utility.yul\":4321:4323   */\n      0x40\n        /* \"#utility.yul\":4347:4400   */\n      tag_282\n        /* \"#utility.yul\":4392:4399   */\n      dup7\n        /* \"#utility.yul\":4383:4389   */\n      dup3\n        /* \"#utility.yul\":4372:4381   */\n      dup8\n        /* \"#utility.yul\":4368:4390   */\n      add\n        /* \"#utility.yul\":4347:4400   */\n      tag_199\n      jump\t// in\n    tag_282:\n        /* \"#utility.yul\":4337:4400   */\n      swap2\n      pop\n        /* \"#utility.yul\":4292:4410   */\n      pop\n        /* \"#utility.yul\":3798:4417   */\n      swap3\n      pop\n      swap3\n      pop\n      swap3\n      jump\t// out\n        /* \"#utility.yul\":4423:4509   */\n    tag_203:\n        /* \"#utility.yul\":4458:4465   */\n      0x00\n        /* \"#utility.yul\":4498:4502   */\n      0xff\n        /* \"#utility.yul\":4491:4496   */\n      dup3\n        /* \"#utility.yul\":4487:4503   */\n      and\n        /* \"#utility.yul\":4476:4503   */\n      swap1\n      pop\n        /* \"#utility.yul\":4423:4509   */\n      swap2\n      swap1\n      pop\n      jump\t// out\n        /* \"#utility.yul\":4515:4627   */\n    tag_204:\n        /* \"#utility.yul\":4598:4620   */\n      tag_285\n        /* \"#utility.yul\":4614:4619   */\n      dup2\n        /* \"#utility.yul\":4598:4620   */\n      tag_203\n      jump\t// in\n    tag_285:\n        /* \"#utility.yul\":4593:4596   */\n      dup3\n        /* \"#utility.yul\":4586:4621   */\n      mstore\n        /* \"#utility.yul\":4515:4627   */\n      pop\n      pop\n      jump\t// out\n        /* \"#utility.yul\":4633:4847   */\n    tag_42:\n        /* \"#utility.yul\":4722:4726   */\n      0x00\n        /* \"#utility.yul\":4760:4762   */\n      0x20\n        /* \"#utility.yul\":4749:4758   */\n      dup3\n        /* \"#utility.yul\":4745:4763   */\n      add\n        /* \"#utility.yul\":4737:4763   */\n      swap1\n      pop\n        /* \"#utility.yul\":4773:4840   */\n      tag_287\n        /* \"#utility.yul\":4837:4838   */\n      0x00\n        /* \"#utility.yul\":4826:4835   */\n      dup4\n        /* \"#utility.yul\":4822:4839   */\n      add\n        /* \"#utility.yul\":4813:4819   */\n      dup5\n        /* \"#utility.yul\":4773:4840   */\n      tag_204\n      jump\t// in\n    tag_287:\n        /* \"#utility.yul\":4633:4847   */\n      swap3\n      swap2\n      pop\n      pop\n      jump\t// out\n        /* \"#utility.yul\":4853:5182   */\n    tag_52:\n        /* \"#utility.yul\":4912:4918   */\n      0x00\n        /* \"#utility.yul\":4961:4963   */\n      0x20\n        /* \"#utility.yul\":4949:4958   */\n      dup3\n        /* \"#utility.yul\":4940:4947   */\n      dup5\n        /* \"#utility.yul\":4936:4959   */\n      sub\n        /* \"#utility.yul\":4932:4964   */\n      slt\n        /* \"#utility.yul\":4929:5048   */\n      iszero\n      tag_289\n      jumpi\n        /* \"#utility.yul\":4967:5046   */\n      tag_290\n      tag_191\n      jump\t// in\n    tag_290:\n        /* \"#utility.yul\":4929:5048   */\n    tag_289:\n        /* \"#utility.yul\":5087:5088   */\n      0x00\n        /* \"#utility.yul\":5112:5165   */\n      tag_291\n        /* \"#utility.yul\":5157:5164   */\n      dup5\n        /* \"#utility.yul\":5148:5154   */\n      dup3\n        /* \"#utility.yul\":5137:5146   */\n      dup6\n        /* \"#utility.yul\":5133:5155   */\n      add\n        /* \"#utility.yul\":5112:5165   */\n      tag_196\n      jump\t// in\n    tag_291:\n        /* \"#utility.yul\":5102:5165   */\n      swap2\n      pop\n        /* \"#utility.yul\":5058:5175   */\n      pop\n        /* \"#utility.yul\":4853:5182   */\n      swap3\n      swap2\n      pop\n      pop\n      jump\t// out\n        /* \"#utility.yul\":5188:5662   */\n    tag_74:\n        /* \"#utility.yul\":5256:5262   */\n      0x00\n        /* \"#utility.yul\":5264:5270   */\n      dup1\n        /* \"#utility.yul\":5313:5315   */\n      0x40\n        /* \"#utility.yul\":5301:5310   */\n      dup4\n        /* \"#utility.yul\":5292:5299   */\n      dup6\n        /* \"#utility.yul\":5288:5311   */\n      sub\n        /* \"#utility.yul\":5284:5316   */\n      slt\n        /* \"#utility.yul\":5281:5400   */\n      iszero\n      tag_293\n      jumpi\n        /* \"#utility.yul\":5319:5398   */\n      tag_294\n      tag_191\n      jump\t// in\n    tag_294:\n        /* \"#utility.yul\":5281:5400   */\n    tag_293:\n        /* \"#utility.yul\":5439:5440   */\n      0x00\n        /* \"#utility.yul\":5464:5517   */\n      tag_295\n        /* \"#utility.yul\":5509:5516   */\n      dup6\n        /* \"#utility.yul\":5500:5506   */\n      dup3\n        /* \"#utility.yul\":5489:5498   */\n      dup7\n        /* \"#utility.yul\":5485:5507   */\n      add\n        /* \"#utility.yul\":5464:5517   */\n      tag_196\n      jump\t// in\n    tag_295:\n        /* \"#utility.yul\":5454:5517   */\n      swap3\n      pop\n        /* \"#utility.yul\":5410:5527   */\n      pop\n        /* \"#utility.yul\":5566:5568   */\n      0x20\n        /* \"#utility.yul\":5592:5645   */\n      tag_296\n        /* \"#utility.yul\":5637:5644   */\n      dup6\n        /* \"#utility.yul\":5628:5634   */\n      dup3\n        /* \"#utility.yul\":5617:5626   */\n      dup7\n        /* \"#utility.yul\":5613:5635   */\n      add\n        /* \"#utility.yul\":5592:5645   */\n      tag_196\n      jump\t// in\n    tag_296:\n        /* \"#utility.yul\":5582:5645   */\n      swap2\n      pop\n        /* \"#utility.yul\":5537:5655   */\n      pop\n        /* \"#utility.yul\":5188:5662   */\n      swap3\n      pop\n      swap3\n      swap1\n      pop\n      jump\t// out\n        /* \"#utility.yul\":5668:5848   */\n    tag_205:\n        /* \"#utility.yul\":5716:5793   */\n      0x4e487b7100000000000000000000000000000000000000000000000000000000\n        /* \"#utility.yul\":5713:5714   */\n      0x00\n        /* \"#utility.yul\":5706:5794   */\n      mstore\n        /* \"#utility.yul\":5813:5817   */\n      0x22\n        /* \"#utility.yul\":5810:5811   */\n      0x04\n        /* \"#utility.yul\":5803:5818   */\n      mstore\n        /* \"#utility.yul\":5837:5841   */\n      0x24\n        /* \"#utility.yul\":5834:5835   */\n      0x00\n        /* \"#utility.yul\":5827:5842   */\n      revert\n        /* \"#utility.yul\":5854:6174   */\n    tag_79:\n        /* \"#utility.yul\":5898:5904   */\n      0x00\n        /* \"#utility.yul\":5935:5936   */\n      0x02\n        /* \"#utility.yul\":5929:5933   */\n      dup3\n        /* \"#utility.yul\":5925:5937   */\n      div\n        /* \"#utility.yul\":5915:5937   */\n      swap1\n      pop\n        /* \"#utility.yul\":5982:5983   */\n      0x01\n        /* \"#utility.yul\":5976:5980   */\n      dup3\n        /* \"#utility.yul\":5972:5984   */\n      and\n        /* \"#utility.yul\":6003:6021   */\n      dup1\n        /* \"#utility.yul\":5993:6074   */\n      tag_299\n      jumpi\n        /* \"#utility.yul\":6059:6063   */\n      0x7f\n        /* \"#utility.yul\":6051:6057   */\n      dup3\n        /* \"#utility.yul\":6047:6064   */\n      and\n        /* \"#utility.yul\":6037:6064   */\n      swap2\n      pop\n        /* \"#utility.yul\":5993:6074   */\n    tag_299:\n        /* \"#utility.yul\":6121:6123   */\n      0x20\n        /* \"#utility.yul\":6113:6119   */\n      dup3\n        /* \"#utility.yul\":6110:6124   */\n      lt\n        /* \"#utility.yul\":6090:6108   */\n      dup2\n        /* \"#utility.yul\":6087:6125   */\n      sub\n        /* \"#utility.yul\":6084:6168   */\n      tag_300\n      jumpi\n        /* \"#utility.yul\":6140:6158   */\n      tag_301\n      tag_205\n      jump\t// in\n    tag_301:\n        /* \"#utility.yul\":6084:6168   */\n    tag_300:\n        /* \"#utility.yul\":5905:6174   */\n      pop\n        /* \"#utility.yul\":5854:6174   */\n      swap2\n      swap1\n      pop\n      jump\t// out\n        /* \"#utility.yul\":6180:6407   */\n    tag_206:\n        /* \"#utility.yul\":6320:6354   */\n      0x45524332303a207472616e7366657220616d6f756e7420657863656564732061\n        /* \"#utility.yul\":6316:6317   */\n      0x00\n        /* \"#utility.yul\":6308:6314   */\n      dup3\n        /* \"#utility.yul\":6304:6318   */\n      add\n        /* \"#utility.yul\":6297:6355   */\n      mstore\n        /* \"#utility.yul\":6389:6399   */\n      0x6c6c6f77616e6365000000000000000000000000000000000000000000000000\n        /* \"#utility.yul\":6384:6386   */\n      0x20\n        /* \"#utility.yul\":6376:6382   */\n      dup3\n        /* \"#utility.yul\":6372:6387   */\n      add\n        /* \"#utility.yul\":6365:6400   */\n      mstore\n        /* \"#utility.yul\":6180:6407   */\n      pop\n      jump\t// out\n        /* \"#utility.yul\":6413:6779   */\n    tag_207:\n        /* \"#utility.yul\":6555:6558   */\n      0x00\n        /* \"#utility.yul\":6576:6643   */\n      tag_304\n        /* \"#utility.yul\":6640:6642   */\n      0x28\n        /* \"#utility.yul\":6635:6638   */\n      dup4\n        /* \"#utility.yul\":6576:6643   */\n      tag_186\n      jump\t// in\n    tag_304:\n        /* \"#utility.yul\":6569:6643   */\n      swap2\n      pop\n        /* \"#utility.yul\":6652:6745   */\n      tag_305\n        /* \"#utility.yul\":6741:6744   */\n      dup3\n        /* \"#utility.yul\":6652:6745   */\n      tag_206\n      jump\t// in\n    tag_305:\n        /* \"#utility.yul\":6770:6772   */\n      0x40\n        /* \"#utility.yul\":6765:6768   */\n      dup3\n        /* \"#utility.yul\":6761:6773   */\n      add\n        /* \"#utility.yul\":6754:6773   */\n      swap1\n      pop\n        /* \"#utility.yul\":6413:6779   */\n      swap2\n      swap1\n      pop\n      jump\t// out\n        /* \"#utility.yul\":6785:7204   */\n    tag_96:\n        /* \"#utility.yul\":6951:6955   */\n      0x00\n        /* \"#utility.yul\":6989:6991   */\n      0x20\n        /* \"#utility.yul\":6978:6987   */\n      dup3\n        /* \"#utility.yul\":6974:6992   */\n      add\n        /* \"#utility.yul\":6966:6992   */\n      swap1\n      pop\n        /* \"#utility.yul\":7038:7047   */\n      dup2\n        /* \"#utility.yul\":7032:7036   */\n      dup2\n        /* \"#utility.yul\":7028:7048   */\n      sub\n        /* \"#utility.yul\":7024:7025   */\n      0x00\n        /* \"#utility.yul\":7013:7022   */\n      dup4\n        /* \"#utility.yul\":7009:7026   */\n      add\n        /* \"#utility.yul\":7002:7049   */\n      mstore\n        /* \"#utility.yul\":7066:7197   */\n      tag_307\n        /* \"#utility.yul\":7192:7196   */\n      dup2\n        /* \"#utility.yul\":7066:7197   */\n      tag_207\n      jump\t// in\n    tag_307:\n        /* \"#utility.yul\":7058:7197   */\n      swap1\n      pop\n        /* \"#utility.yul\":6785:7204   */\n      swap2\n      swap1\n      pop\n      jump\t// out\n        /* \"#utility.yul\":7210:7390   */\n    tag_208:\n        /* \"#utility.yul\":7258:7335   */\n      0x4e487b7100000000000000000000000000000000000000000000000000000000\n        /* \"#utility.yul\":7255:7256   */\n      0x00\n        /* \"#utility.yul\":7248:7336   */\n      mstore\n        /* \"#utility.yul\":7355:7359   */\n      0x11\n        /* \"#utility.yul\":7352:7353   */\n      0x04\n        /* \"#utility.yul\":7345:7360   */\n      mstore\n        /* \"#utility.yul\":7379:7383   */\n      0x24\n        /* \"#utility.yul\":7376:7377   */\n      0x00\n        /* \"#utility.yul\":7369:7384   */\n      revert\n        /* \"#utility.yul\":7396:7587   */\n    tag_105:\n        /* \"#utility.yul\":7436:7439   */\n      0x00\n        /* \"#utility.yul\":7455:7475   */\n      tag_310\n        /* \"#utility.yul\":7473:7474   */\n      dup3\n        /* \"#utility.yul\":7455:7475   */\n      tag_197\n      jump\t// in\n    tag_310:\n        /* \"#utility.yul\":7450:7475   */\n      swap2\n      pop\n        /* \"#utility.yul\":7489:7509   */\n      tag_311\n        /* \"#utility.yul\":7507:7508   */\n      dup4\n        /* \"#utility.yul\":7489:7509   */\n      tag_197\n      jump\t// in\n    tag_311:\n        /* \"#utility.yul\":7484:7509   */\n      swap3\n      pop\n        /* \"#utility.yul\":7532:7533   */\n      dup3\n        /* \"#utility.yul\":7529:7530   */\n      dup3\n        /* \"#utility.yul\":7525:7534   */\n      add\n        /* \"#utility.yul\":7518:7534   */\n      swap1\n      pop\n        /* \"#utility.yul\":7553:7556   */\n      dup1\n        /* \"#utility.yul\":7550:7551   */\n      dup3\n        /* \"#utility.yul\":7547:7557   */\n      gt\n        /* \"#utility.yul\":7544:7580   */\n      iszero\n      tag_312\n      jumpi\n        /* \"#utility.yul\":7560:7578   */\n      tag_313\n      tag_208\n      jump\t// in\n    tag_313:\n        /* \"#utility.yul\":7544:7580   */\n    tag_312:\n        /* \"#utility.yul\":7396:7587   */\n      swap3\n      swap2\n      pop\n      pop\n      jump\t// out\n        /* \"#utility.yul\":7593:7772   */\n    tag_209:\n        /* \"#utility.yul\":7733:7764   */\n      0x796f7520617265206e6f7420617070726f7665642020746f206d696e74000000\n        /* \"#utility.yul\":7729:7730   */\n      0x00\n        /* \"#utility.yul\":7721:7727   */\n      dup3\n        /* \"#utility.yul\":7717:7731   */\n      add\n        /* \"#utility.yul\":7710:7765   */\n      mstore\n        /* \"#utility.yul\":7593:7772   */\n      pop\n      jump\t// out\n        /* \"#utility.yul\":7778:8144   */\n    tag_210:\n        /* \"#utility.yul\":7920:7923   */\n      0x00\n        /* \"#utility.yul\":7941:8008   */\n      tag_316\n        /* \"#utility.yul\":8005:8007   */\n      0x1d\n        /* \"#utility.yul\":8000:8003   */\n      dup4\n        /* \"#utility.yul\":7941:8008   */\n      tag_186\n      jump\t// in\n    tag_316:\n        /* \"#utility.yul\":7934:8008   */\n      swap2\n      pop\n        /* \"#utility.yul\":8017:8110   */\n      tag_317\n        /* \"#utility.yul\":8106:8109   */\n      dup3\n        /* \"#utility.yul\":8017:8110   */\n      tag_209\n      jump\t// in\n    tag_317:\n        /* \"#utility.yul\":8135:8137   */\n      0x20\n        /* \"#utility.yul\":8130:8133   */\n      dup3\n        /* \"#utility.yul\":8126:8138   */\n      add\n        /* \"#utility.yul\":8119:8138   */\n      swap1\n      pop\n        /* \"#utility.yul\":7778:8144   */\n      swap2\n      swap1\n      pop\n      jump\t// out\n        /* \"#utility.yul\":8150:8569   */\n    tag_109:\n        /* \"#utility.yul\":8316:8320   */\n      0x00\n        /* \"#utility.yul\":8354:8356   */\n      0x20\n        /* \"#utility.yul\":8343:8352   */\n      dup3\n        /* \"#utility.yul\":8339:8357   */\n      add\n        /* \"#utility.yul\":8331:8357   */\n      swap1\n      pop\n        /* \"#utility.yul\":8403:8412   */\n      dup2\n        /* \"#utility.yul\":8397:8401   */\n      dup2\n        /* \"#utility.yul\":8393:8413   */\n      sub\n        /* \"#utility.yul\":8389:8390   */\n      0x00\n        /* \"#utility.yul\":8378:8387   */\n      dup4\n        /* \"#utility.yul\":8374:8391   */\n      add\n        /* \"#utility.yul\":8367:8414   */\n      mstore\n        /* \"#utility.yul\":8431:8562   */\n      tag_319\n        /* \"#utility.yul\":8557:8561   */\n      dup2\n        /* \"#utility.yul\":8431:8562   */\n      tag_210\n      jump\t// in\n    tag_319:\n        /* \"#utility.yul\":8423:8562   */\n      swap1\n      pop\n        /* \"#utility.yul\":8150:8569   */\n      swap2\n      swap1\n      pop\n      jump\t// out\n        /* \"#utility.yul\":8575:8754   */\n    tag_211:\n        /* \"#utility.yul\":8715:8746   */\n      0x796f7520617265206e6f7420617070726f7665642020746f206275726e000000\n        /* \"#utility.yul\":8711:8712   */\n      0x00\n        /* \"#utility.yul\":8703:8709   */\n      dup3\n        /* \"#utility.yul\":8699:8713   */\n      add\n        /* \"#utility.yul\":8692:8747   */\n      mstore\n        /* \"#utility.yul\":8575:8754   */\n      pop\n      jump\t// out\n        /* \"#utility.yul\":8760:9126   */\n    tag_212:\n        /* \"#utility.yul\":8902:8905   */\n      0x00\n        /* \"#utility.yul\":8923:8990   */\n      tag_322\n        /* \"#utility.yul\":8987:8989   */\n      0x1d\n        /* \"#utility.yul\":8982:8985   */\n      dup4\n        /* \"#utility.yul\":8923:8990   */\n      tag_186\n      jump\t// in\n    tag_322:\n        /* \"#utility.yul\":8916:8990   */\n      swap2\n      pop\n        /* \"#utility.yul\":8999:9092   */\n      tag_323\n        /* \"#utility.yul\":9088:9091   */\n      dup3\n        /* \"#utility.yul\":8999:9092   */\n      tag_211\n      jump\t// in\n    tag_323:\n        /* \"#utility.yul\":9117:9119   */\n      0x20\n        /* \"#utility.yul\":9112:9115   */\n      dup3\n        /* \"#utility.yul\":9108:9120   */\n      add\n        /* \"#utility.yul\":9101:9120   */\n      swap1\n      pop\n        /* \"#utility.yul\":8760:9126   */\n      swap2\n      swap1\n      pop\n      jump\t// out\n        /* \"#utility.yul\":9132:9551   */\n    tag_122:\n        /* \"#utility.yul\":9298:9302   */\n      0x00\n        /* \"#utility.yul\":9336:9338   */\n      0x20\n        /* \"#utility.yul\":9325:9334   */\n      dup3\n        /* \"#utility.yul\":9321:9339   */\n      add\n        /* \"#utility.yul\":9313:9339   */\n      swap1\n      pop\n        /* \"#utility.yul\":9385:9394   */\n      dup2\n        /* \"#utility.yul\":9379:9383   */\n      dup2\n        /* \"#utility.yul\":9375:9395   */\n      sub\n        /* \"#utility.yul\":9371:9372   */\n      0x00\n        /* \"#utility.yul\":9360:9369   */\n      dup4\n        /* \"#utility.yul\":9356:9373   */\n      add\n        /* \"#utility.yul\":9349:9396   */\n      mstore\n        /* \"#utility.yul\":9413:9544   */\n      tag_325\n        /* \"#utility.yul\":9539:9543   */\n      dup2\n        /* \"#utility.yul\":9413:9544   */\n      tag_212\n      jump\t// in\n    tag_325:\n        /* \"#utility.yul\":9405:9544   */\n      swap1\n      pop\n        /* \"#utility.yul\":9132:9551   */\n      swap2\n      swap1\n      pop\n      jump\t// out\n        /* \"#utility.yul\":9557:9781   */\n    tag_213:\n        /* \"#utility.yul\":9697:9731   */\n      0x45524332303a2064656372656173656420616c6c6f77616e63652062656c6f77\n        /* \"#utility.yul\":9693:9694   */\n      0x00\n        /* \"#utility.yul\":9685:9691   */\n      dup3\n        /* \"#utility.yul\":9681:9695   */\n      add\n        /* \"#utility.yul\":9674:9732   */\n      mstore\n        /* \"#utility.yul\":9766:9773   */\n      0x207a65726f000000000000000000000000000000000000000000000000000000\n        /* \"#utility.yul\":9761:9763   */\n      0x20\n        /* \"#utility.yul\":9753:9759   */\n      dup3\n        /* \"#utility.yul\":9749:9764   */\n      add\n        /* \"#utility.yul\":9742:9774   */\n      mstore\n        /* \"#utility.yul\":9557:9781   */\n      pop\n      jump\t// out\n        /* \"#utility.yul\":9787:10153   */\n    tag_214:\n        /* \"#utility.yul\":9929:9932   */\n      0x00\n        /* \"#utility.yul\":9950:10017   */\n      tag_328\n        /* \"#utility.yul\":10014:10016   */\n      0x25\n        /* \"#utility.yul\":10009:10012   */\n      dup4\n        /* \"#utility.yul\":9950:10017   */\n      tag_186\n      jump\t// in\n    tag_328:\n        /* \"#utility.yul\":9943:10017   */\n      swap2\n      pop\n        /* \"#utility.yul\":10026:10119   */\n      tag_329\n        /* \"#utility.yul\":10115:10118   */\n      dup3\n        /* \"#utility.yul\":10026:10119   */\n      tag_213\n      jump\t// in\n    tag_329:\n        /* \"#utility.yul\":10144:10146   */\n      0x40\n        /* \"#utility.yul\":10139:10142   */\n      dup3\n        /* \"#utility.yul\":10135:10147   */\n      add\n        /* \"#utility.yul\":10128:10147   */\n      swap1\n      pop\n        /* \"#utility.yul\":9787:10153   */\n      swap2\n      swap1\n      pop\n      jump\t// out\n        /* \"#utility.yul\":10159:10578   */\n    tag_129:\n        /* \"#utility.yul\":10325:10329   */\n      0x00\n        /* \"#utility.yul\":10363:10365   */\n      0x20\n        /* \"#utility.yul\":10352:10361   */\n      dup3\n        /* \"#utility.yul\":10348:10366   */\n      add\n        /* \"#utility.yul\":10340:10366   */\n      swap1\n      pop\n        /* \"#utility.yul\":10412:10421   */\n      dup2\n        /* \"#utility.yul\":10406:10410   */\n      dup2\n        /* \"#utility.yul\":10402:10422   */\n      sub\n        /* \"#utility.yul\":10398:10399   */\n      0x00\n        /* \"#utility.yul\":10387:10396   */\n      dup4\n        /* \"#utility.yul\":10383:10400   */\n      add\n        /* \"#utility.yul\":10376:10423   */\n      mstore\n        /* \"#utility.yul\":10440:10571   */\n      tag_331\n        /* \"#utility.yul\":10566:10570   */\n      dup2\n        /* \"#utility.yul\":10440:10571   */\n      tag_214\n      jump\t// in\n    tag_331:\n        /* \"#utility.yul\":10432:10571   */\n      swap1\n      pop\n        /* \"#utility.yul\":10159:10578   */\n      swap2\n      swap1\n      pop\n      jump\t// out\n        /* \"#utility.yul\":10584:10807   */\n    tag_215:\n        /* \"#utility.yul\":10724:10758   */\n      0x45524332303a20617070726f76652066726f6d20746865207a65726f20616464\n        /* \"#utility.yul\":10720:10721   */\n      0x00\n        /* \"#utility.yul\":10712:10718   */\n      dup3\n        /* \"#utility.yul\":10708:10722   */\n      add\n        /* \"#utility.yul\":10701:10759   */\n      mstore\n        /* \"#utility.yul\":10793:10799   */\n      0x7265737300000000000000000000000000000000000000000000000000000000\n        /* \"#utility.yul\":10788:10790   */\n      0x20\n        /* \"#utility.yul\":10780:10786   */\n      dup3\n        /* \"#utility.yul\":10776:10791   */\n      add\n        /* \"#utility.yul\":10769:10800   */\n      mstore\n        /* \"#utility.yul\":10584:10807   */\n      pop\n      jump\t// out\n        /* \"#utility.yul\":10813:11179   */\n    tag_216:\n        /* \"#utility.yul\":10955:10958   */\n      0x00\n        /* \"#utility.yul\":10976:11043   */\n      tag_334\n        /* \"#utility.yul\":11040:11042   */\n      0x24\n        /* \"#utility.yul\":11035:11038   */\n      dup4\n        /* \"#utility.yul\":10976:11043   */\n      tag_186\n      jump\t// in\n    tag_334:\n        /* \"#utility.yul\":10969:11043   */\n      swap2\n      pop\n        /* \"#utility.yul\":11052:11145   */\n      tag_335\n        /* \"#utility.yul\":11141:11144   */\n      dup3\n        /* \"#utility.yul\":11052:11145   */\n      tag_215\n      jump\t// in\n    tag_335:\n        /* \"#utility.yul\":11170:11172   */\n      0x40\n        /* \"#utility.yul\":11165:11168   */\n      dup3\n        /* \"#utility.yul\":11161:11173   */\n      add\n        /* \"#utility.yul\":11154:11173   */\n      swap1\n      pop\n        /* \"#utility.yul\":10813:11179   */\n      swap2\n      swap1\n      pop\n      jump\t// out\n        /* \"#utility.yul\":11185:11604   */\n    tag_141:\n        /* \"#utility.yul\":11351:11355   */\n      0x00\n        /* \"#utility.yul\":11389:11391   */\n      0x20\n        /* \"#utility.yul\":11378:11387   */\n      dup3\n        /* \"#utility.yul\":11374:11392   */\n      add\n        /* \"#utility.yul\":11366:11392   */\n      swap1\n      pop\n        /* \"#utility.yul\":11438:11447   */\n      dup2\n        /* \"#utility.yul\":11432:11436   */\n      dup2\n        /* \"#utility.yul\":11428:11448   */\n      sub\n        /* \"#utility.yul\":11424:11425   */\n      0x00\n        /* \"#utility.yul\":11413:11422   */\n      dup4\n        /* \"#utility.yul\":11409:11426   */\n      add\n        /* \"#utility.yul\":11402:11449   */\n      mstore\n        /* \"#utility.yul\":11466:11597   */\n      tag_337\n        /* \"#utility.yul\":11592:11596   */\n      dup2\n        /* \"#utility.yul\":11466:11597   */\n      tag_216\n      jump\t// in\n    tag_337:\n        /* \"#utility.yul\":11458:11597   */\n      swap1\n      pop\n        /* \"#utility.yul\":11185:11604   */\n      swap2\n      swap1\n      pop\n      jump\t// out\n        /* \"#utility.yul\":11610:11831   */\n    tag_217:\n        /* \"#utility.yul\":11750:11784   */\n      0x45524332303a20617070726f766520746f20746865207a65726f206164647265\n        /* \"#utility.yul\":11746:11747   */\n      0x00\n        /* \"#utility.yul\":11738:11744   */\n      dup3\n        /* \"#utility.yul\":11734:11748   */\n      add\n        /* \"#utility.yul\":11727:11785   */\n      mstore\n        /* \"#utility.yul\":11819:11823   */\n      0x7373000000000000000000000000000000000000000000000000000000000000\n        /* \"#utility.yul\":11814:11816   */\n      0x20\n        /* \"#utility.yul\":11806:11812   */\n      dup3\n        /* \"#utility.yul\":11802:11817   */\n      add\n        /* \"#utility.yul\":11795:11824   */\n      mstore\n        /* \"#utility.yul\":11610:11831   */\n      pop\n      jump\t// out\n        /* \"#utility.yul\":11837:12203   */\n    tag_218:\n        /* \"#utility.yul\":11979:11982   */\n      0x00\n        /* \"#utility.yul\":12000:12067   */\n      tag_340\n        /* \"#utility.yul\":12064:12066   */\n      0x22\n        /* \"#utility.yul\":12059:12062   */\n      dup4\n        /* \"#utility.yul\":12000:12067   */\n      tag_186\n      jump\t// in\n    tag_340:\n        /* \"#utility.yul\":11993:12067   */\n      swap2\n      pop\n        /* \"#utility.yul\":12076:12169   */\n      tag_341\n        /* \"#utility.yul\":12165:12168   */\n      dup3\n        /* \"#utility.yul\":12076:12169   */\n      tag_217\n      jump\t// in\n    tag_341:\n        /* \"#utility.yul\":12194:12196   */\n      0x40\n        /* \"#utility.yul\":12189:12192   */\n      dup3\n        /* \"#utility.yul\":12185:12197   */\n      add\n        /* \"#utility.yul\":12178:12197   */\n      swap1\n      pop\n        /* \"#utility.yul\":11837:12203   */\n      swap2\n      swap1\n      pop\n      jump\t// out\n        /* \"#utility.yul\":12209:12628   */\n    tag_144:\n        /* \"#utility.yul\":12375:12379   */\n      0x00\n        /* \"#utility.yul\":12413:12415   */\n      0x20\n        /* \"#utility.yul\":12402:12411   */\n      dup3\n        /* \"#utility.yul\":12398:12416   */\n      add\n        /* \"#utility.yul\":12390:12416   */\n      swap1\n      pop\n        /* \"#utility.yul\":12462:12471   */\n      dup2\n        /* \"#utility.yul\":12456:12460   */\n      dup2\n        /* \"#utility.yul\":12452:12472   */\n      sub\n        /* \"#utility.yul\":12448:12449   */\n      0x00\n        /* \"#utility.yul\":12437:12446   */\n      dup4\n        /* \"#utility.yul\":12433:12450   */\n      add\n        /* \"#utility.yul\":12426:12473   */\n      mstore\n        /* \"#utility.yul\":12490:12621   */\n      tag_343\n        /* \"#utility.yul\":12616:12620   */\n      dup2\n        /* \"#utility.yul\":12490:12621   */\n      tag_218\n      jump\t// in\n    tag_343:\n        /* \"#utility.yul\":12482:12621   */\n      swap1\n      pop\n        /* \"#utility.yul\":12209:12628   */\n      swap2\n      swap1\n      pop\n      jump\t// out\n        /* \"#utility.yul\":12634:12858   */\n    tag_219:\n        /* \"#utility.yul\":12774:12808   */\n      0x45524332303a207472616e736665722066726f6d20746865207a65726f206164\n        /* \"#utility.yul\":12770:12771   */\n      0x00\n        /* \"#utility.yul\":12762:12768   */\n      dup3\n        /* \"#utility.yul\":12758:12772   */\n      add\n        /* \"#utility.yul\":12751:12809   */\n      mstore\n        /* \"#utility.yul\":12843:12850   */\n      0x6472657373000000000000000000000000000000000000000000000000000000\n        /* \"#utility.yul\":12838:12840   */\n      0x20\n        /* \"#utility.yul\":12830:12836   */\n      dup3\n        /* \"#utility.yul\":12826:12841   */\n      add\n        /* \"#utility.yul\":12819:12851   */\n      mstore\n        /* \"#utility.yul\":12634:12858   */\n      pop\n      jump\t// out\n        /* \"#utility.yul\":12864:13230   */\n    tag_220:\n        /* \"#utility.yul\":13006:13009   */\n      0x00\n        /* \"#utility.yul\":13027:13094   */\n      tag_346\n        /* \"#utility.yul\":13091:13093   */\n      0x25\n        /* \"#utility.yul\":13086:13089   */\n      dup4\n        /* \"#utility.yul\":13027:13094   */\n      tag_186\n      jump\t// in\n    tag_346:\n        /* \"#utility.yul\":13020:13094   */\n      swap2\n      pop\n        /* \"#utility.yul\":13103:13196   */\n      tag_347\n        /* \"#utility.yul\":13192:13195   */\n      dup3\n        /* \"#utility.yul\":13103:13196   */\n      tag_219\n      jump\t// in\n    tag_347:\n        /* \"#utility.yul\":13221:13223   */\n      0x40\n        /* \"#utility.yul\":13216:13219   */\n      dup3\n        /* \"#utility.yul\":13212:13224   */\n      add\n        /* \"#utility.yul\":13205:13224   */\n      swap1\n      pop\n        /* \"#utility.yul\":12864:13230   */\n      swap2\n      swap1\n      pop\n      jump\t// out\n        /* \"#utility.yul\":13236:13655   */\n    tag_149:\n        /* \"#utility.yul\":13402:13406   */\n      0x00\n        /* \"#utility.yul\":13440:13442   */\n      0x20\n        /* \"#utility.yul\":13429:13438   */\n      dup3\n        /* \"#utility.yul\":13425:13443   */\n      add\n        /* \"#utility.yul\":13417:13443   */\n      swap1\n      pop\n        /* \"#utility.yul\":13489:13498   */\n      dup2\n        /* \"#utility.yul\":13483:13487   */\n      dup2\n        /* \"#utility.yul\":13479:13499   */\n      sub\n        /* \"#utility.yul\":13475:13476   */\n      0x00\n        /* \"#utility.yul\":13464:13473   */\n      dup4\n        /* \"#utility.yul\":13460:13477   */\n      add\n        /* \"#utility.yul\":13453:13500   */\n      mstore\n        /* \"#utility.yul\":13517:13648   */\n      tag_349\n        /* \"#utility.yul\":13643:13647   */\n      dup2\n        /* \"#utility.yul\":13517:13648   */\n      tag_220\n      jump\t// in\n    tag_349:\n        /* \"#utility.yul\":13509:13648   */\n      swap1\n      pop\n        /* \"#utility.yul\":13236:13655   */\n      swap2\n      swap1\n      pop\n      jump\t// out\n        /* \"#utility.yul\":13661:13883   */\n    tag_221:\n        /* \"#utility.yul\":13801:13835   */\n      0x45524332303a207472616e7366657220746f20746865207a65726f2061646472\n        /* \"#utility.yul\":13797:13798   */\n      0x00\n        /* \"#utility.yul\":13789:13795   */\n      dup3\n        /* \"#utility.yul\":13785:13799   */\n      add\n        /* \"#utility.yul\":13778:13836   */\n      mstore\n        /* \"#utility.yul\":13870:13875   */\n      0x6573730000000000000000000000000000000000000000000000000000000000\n        /* \"#utility.yul\":13865:13867   */\n      0x20\n        /* \"#utility.yul\":13857:13863   */\n      dup3\n        /* \"#utility.yul\":13853:13868   */\n      add\n        /* \"#utility.yul\":13846:13876   */\n      mstore\n        /* \"#utility.yul\":13661:13883   */\n      pop\n      jump\t// out\n        /* \"#utility.yul\":13889:14255   */\n    tag_222:\n        /* \"#utility.yul\":14031:14034   */\n      0x00\n        /* \"#utility.yul\":14052:14119   */\n      tag_352\n        /* \"#utility.yul\":14116:14118   */\n      0x23\n        /* \"#utility.yul\":14111:14114   */\n      dup4\n        /* \"#utility.yul\":14052:14119   */\n      tag_186\n      jump\t// in\n    tag_352:\n        /* \"#utility.yul\":14045:14119   */\n      swap2\n      pop\n        /* \"#utility.yul\":14128:14221   */\n      tag_353\n        /* \"#utility.yul\":14217:14220   */\n      dup3\n        /* \"#utility.yul\":14128:14221   */\n      tag_221\n      jump\t// in\n    tag_353:\n        /* \"#utility.yul\":14246:14248   */\n      0x40\n        /* \"#utility.yul\":14241:14244   */\n      dup3\n        /* \"#utility.yul\":14237:14249   */\n      add\n        /* \"#utility.yul\":14230:14249   */\n      swap1\n      pop\n        /* \"#utility.yul\":13889:14255   */\n      swap2\n      swap1\n      pop\n      jump\t// out\n        /* \"#utility.yul\":14261:14680   */\n    tag_152:\n        /* \"#utility.yul\":14427:14431   */\n      0x00\n        /* \"#utility.yul\":14465:14467   */\n      0x20\n        /* \"#utility.yul\":14454:14463   */\n      dup3\n        /* \"#utility.yul\":14450:14468   */\n      add\n        /* \"#utility.yul\":14442:14468   */\n      swap1\n      pop\n        /* \"#utility.yul\":14514:14523   */\n      dup2\n        /* \"#utility.yul\":14508:14512   */\n      dup2\n        /* \"#utility.yul\":14504:14524   */\n      sub\n        /* \"#utility.yul\":14500:14501   */\n      0x00\n        /* \"#utility.yul\":14489:14498   */\n      dup4\n        /* \"#utility.yul\":14485:14502   */\n      add\n        /* \"#utility.yul\":14478:14525   */\n      mstore\n        /* \"#utility.yul\":14542:14673   */\n      tag_355\n        /* \"#utility.yul\":14668:14672   */\n      dup2\n        /* \"#utility.yul\":14542:14673   */\n      tag_222\n      jump\t// in\n    tag_355:\n        /* \"#utility.yul\":14534:14673   */\n      swap1\n      pop\n        /* \"#utility.yul\":14261:14680   */\n      swap2\n      swap1\n      pop\n      jump\t// out\n        /* \"#utility.yul\":14686:14911   */\n    tag_223:\n        /* \"#utility.yul\":14826:14860   */\n      0x45524332303a207472616e7366657220616d6f756e7420657863656564732062\n        /* \"#utility.yul\":14822:14823   */\n      0x00\n        /* \"#utility.yul\":14814:14820   */\n      dup3\n        /* \"#utility.yul\":14810:14824   */\n      add\n        /* \"#utility.yul\":14803:14861   */\n      mstore\n        /* \"#utility.yul\":14895:14903   */\n      0x616c616e63650000000000000000000000000000000000000000000000000000\n        /* \"#utility.yul\":14890:14892   */\n      0x20\n        /* \"#utility.yul\":14882:14888   */\n      dup3\n        /* \"#utility.yul\":14878:14893   */\n      add\n        /* \"#utility.yul\":14871:14904   */\n      mstore\n        /* \"#utility.yul\":14686:14911   */\n      pop\n      jump\t// out\n        /* \"#utility.yul\":14917:15283   */\n    tag_224:\n        /* \"#utility.yul\":15059:15062   */\n      0x00\n        /* \"#utility.yul\":15080:15147   */\n      tag_358\n        /* \"#utility.yul\":15144:15146   */\n      0x26\n        /* \"#utility.yul\":15139:15142   */\n      dup4\n        /* \"#utility.yul\":15080:15147   */\n      tag_186\n      jump\t// in\n    tag_358:\n        /* \"#utility.yul\":15073:15147   */\n      swap2\n      pop\n        /* \"#utility.yul\":15156:15249   */\n      tag_359\n        /* \"#utility.yul\":15245:15248   */\n      dup3\n        /* \"#utility.yul\":15156:15249   */\n      tag_223\n      jump\t// in\n    tag_359:\n        /* \"#utility.yul\":15274:15276   */\n      0x40\n        /* \"#utility.yul\":15269:15272   */\n      dup3\n        /* \"#utility.yul\":15265:15277   */\n      add\n        /* \"#utility.yul\":15258:15277   */\n      swap1\n      pop\n        /* \"#utility.yul\":14917:15283   */\n      swap2\n      swap1\n      pop\n      jump\t// out\n        /* \"#utility.yul\":15289:15708   */\n    tag_157:\n        /* \"#utility.yul\":15455:15459   */\n      0x00\n        /* \"#utility.yul\":15493:15495   */\n      0x20\n        /* \"#utility.yul\":15482:15491   */\n      dup3\n        /* \"#utility.yul\":15478:15496   */\n      add\n        /* \"#utility.yul\":15470:15496   */\n      swap1\n      pop\n        /* \"#utility.yul\":15542:15551   */\n      dup2\n        /* \"#utility.yul\":15536:15540   */\n      dup2\n        /* \"#utility.yul\":15532:15552   */\n      sub\n        /* \"#utility.yul\":15528:15529   */\n      0x00\n        /* \"#utility.yul\":15517:15526   */\n      dup4\n        /* \"#utility.yul\":15513:15530   */\n      add\n        /* \"#utility.yul\":15506:15553   */\n      mstore\n        /* \"#utility.yul\":15570:15701   */\n      tag_361\n        /* \"#utility.yul\":15696:15700   */\n      dup2\n        /* \"#utility.yul\":15570:15701   */\n      tag_224\n      jump\t// in\n    tag_361:\n        /* \"#utility.yul\":15562:15701   */\n      swap1\n      pop\n        /* \"#utility.yul\":15289:15708   */\n      swap2\n      swap1\n      pop\n      jump\t// out\n        /* \"#utility.yul\":15714:15895   */\n    tag_225:\n        /* \"#utility.yul\":15854:15887   */\n      0x45524332303a206d696e7420746f20746865207a65726f206164647265737300\n        /* \"#utility.yul\":15850:15851   */\n      0x00\n        /* \"#utility.yul\":15842:15848   */\n      dup3\n        /* \"#utility.yul\":15838:15852   */\n      add\n        /* \"#utility.yul\":15831:15888   */\n      mstore\n        /* \"#utility.yul\":15714:15895   */\n      pop\n      jump\t// out\n        /* \"#utility.yul\":15901:16267   */\n    tag_226:\n        /* \"#utility.yul\":16043:16046   */\n      0x00\n        /* \"#utility.yul\":16064:16131   */\n      tag_364\n        /* \"#utility.yul\":16128:16130   */\n      0x1f\n        /* \"#utility.yul\":16123:16126   */\n      dup4\n        /* \"#utility.yul\":16064:16131   */\n      tag_186\n      jump\t// in\n    tag_364:\n        /* \"#utility.yul\":16057:16131   */\n      swap2\n      pop\n        /* \"#utility.yul\":16140:16233   */\n      tag_365\n        /* \"#utility.yul\":16229:16232   */\n      dup3\n        /* \"#utility.yul\":16140:16233   */\n      tag_225\n      jump\t// in\n    tag_365:\n        /* \"#utility.yul\":16258:16260   */\n      0x20\n        /* \"#utility.yul\":16253:16256   */\n      dup3\n        /* \"#utility.yul\":16249:16261   */\n      add\n        /* \"#utility.yul\":16242:16261   */\n      swap1\n      pop\n        /* \"#utility.yul\":15901:16267   */\n      swap2\n      swap1\n      pop\n      jump\t// out\n        /* \"#utility.yul\":16273:16692   */\n    tag_165:\n        /* \"#utility.yul\":16439:16443   */\n      0x00\n        /* \"#utility.yul\":16477:16479   */\n      0x20\n        /* \"#utility.yul\":16466:16475   */\n      dup3\n        /* \"#utility.yul\":16462:16480   */\n      add\n        /* \"#utility.yul\":16454:16480   */\n      swap1\n      pop\n        /* \"#utility.yul\":16526:16535   */\n      dup2\n        /* \"#utility.yul\":16520:16524   */\n      dup2\n        /* \"#utility.yul\":16516:16536   */\n      sub\n        /* \"#utility.yul\":16512:16513   */\n      0x00\n        /* \"#utility.yul\":16501:16510   */\n      dup4\n        /* \"#utility.yul\":16497:16514   */\n      add\n        /* \"#utility.yul\":16490:16537   */\n      mstore\n        /* \"#utility.yul\":16554:16685   */\n      tag_367\n        /* \"#utility.yul\":16680:16684   */\n      dup2\n        /* \"#utility.yul\":16554:16685   */\n      tag_226\n      jump\t// in\n    tag_367:\n        /* \"#utility.yul\":16546:16685   */\n      swap1\n      pop\n        /* \"#utility.yul\":16273:16692   */\n      swap2\n      swap1\n      pop\n      jump\t// out\n        /* \"#utility.yul\":16698:16918   */\n    tag_227:\n        /* \"#utility.yul\":16838:16872   */\n      0x45524332303a206275726e2066726f6d20746865207a65726f20616464726573\n        /* \"#utility.yul\":16834:16835   */\n      0x00\n        /* \"#utility.yul\":16826:16832   */\n      dup3\n        /* \"#utility.yul\":16822:16836   */\n      add\n        /* \"#utility.yul\":16815:16873   */\n      mstore\n        /* \"#utility.yul\":16907:16910   */\n      0x7300000000000000000000000000000000000000000000000000000000000000\n        /* \"#utility.yul\":16902:16904   */\n      0x20\n        /* \"#utility.yul\":16894:16900   */\n      dup3\n        /* \"#utility.yul\":16890:16905   */\n      add\n        /* \"#utility.yul\":16883:16911   */\n      mstore\n        /* \"#utility.yul\":16698:16918   */\n      pop\n      jump\t// out\n        /* \"#utility.yul\":16924:17290   */\n    tag_228:\n        /* \"#utility.yul\":17066:17069   */\n      0x00\n        /* \"#utility.yul\":17087:17154   */\n      tag_370\n        /* \"#utility.yul\":17151:17153   */\n      0x21\n        /* \"#utility.yul\":17146:17149   */\n      dup4\n        /* \"#utility.yul\":17087:17154   */\n      tag_186\n      jump\t// in\n    tag_370:\n        /* \"#utility.yul\":17080:17154   */\n      swap2\n      pop\n        /* \"#utility.yul\":17163:17256   */\n      tag_371\n        /* \"#utility.yul\":17252:17255   */\n      dup3\n        /* \"#utility.yul\":17163:17256   */\n      tag_227\n      jump\t// in\n    tag_371:\n        /* \"#utility.yul\":17281:17283   */\n      0x40\n        /* \"#utility.yul\":17276:17279   */\n      dup3\n        /* \"#utility.yul\":17272:17284   */\n      add\n        /* \"#utility.yul\":17265:17284   */\n      swap1\n      pop\n        /* \"#utility.yul\":16924:17290   */\n      swap2\n      swap1\n      pop\n      jump\t// out\n        /* \"#utility.yul\":17296:17715   */\n    tag_174:\n        /* \"#utility.yul\":17462:17466   */\n      0x00\n        /* \"#utility.yul\":17500:17502   */\n      0x20\n        /* \"#utility.yul\":17489:17498   */\n      dup3\n        /* \"#utility.yul\":17485:17503   */\n      add\n        /* \"#utility.yul\":17477:17503   */\n      swap1\n      pop\n        /* \"#utility.yul\":17549:17558   */\n      dup2\n        /* \"#utility.yul\":17543:17547   */\n      dup2\n        /* \"#utility.yul\":17539:17559   */\n      sub\n        /* \"#utility.yul\":17535:17536   */\n      0x00\n        /* \"#utility.yul\":17524:17533   */\n      dup4\n        /* \"#utility.yul\":17520:17537   */\n      add\n        /* \"#utility.yul\":17513:17560   */\n      mstore\n        /* \"#utility.yul\":17577:17708   */\n      tag_373\n        /* \"#utility.yul\":17703:17707   */\n      dup2\n        /* \"#utility.yul\":17577:17708   */\n      tag_228\n      jump\t// in\n    tag_373:\n        /* \"#utility.yul\":17569:17708   */\n      swap1\n      pop\n        /* \"#utility.yul\":17296:17715   */\n      swap2\n      swap1\n      pop\n      jump\t// out\n        /* \"#utility.yul\":17721:17942   */\n    tag_229:\n        /* \"#utility.yul\":17861:17895   */\n      0x45524332303a206275726e20616d6f756e7420657863656564732062616c616e\n        /* \"#utility.yul\":17857:17858   */\n      0x00\n        /* \"#utility.yul\":17849:17855   */\n      dup3\n        /* \"#utility.yul\":17845:17859   */\n      add\n        /* \"#utility.yul\":17838:17896   */\n      mstore\n        /* \"#utility.yul\":17930:17934   */\n      0x6365000000000000000000000000000000000000000000000000000000000000\n        /* \"#utility.yul\":17925:17927   */\n      0x20\n        /* \"#utility.yul\":17917:17923   */\n      dup3\n        /* \"#utility.yul\":17913:17928   */\n      add\n        /* \"#utility.yul\":17906:17935   */\n      mstore\n        /* \"#utility.yul\":17721:17942   */\n      pop\n      jump\t// out\n        /* \"#utility.yul\":17948:18314   */\n    tag_230:\n        /* \"#utility.yul\":18090:18093   */\n      0x00\n        /* \"#utility.yul\":18111:18178   */\n      tag_376\n        /* \"#utility.yul\":18175:18177   */\n      0x22\n        /* \"#utility.yul\":18170:18173   */\n      dup4\n        /* \"#utility.yul\":18111:18178   */\n      tag_186\n      jump\t// in\n    tag_376:\n        /* \"#utility.yul\":18104:18178   */\n      swap2\n      pop\n        /* \"#utility.yul\":18187:18280   */\n      tag_377\n        /* \"#utility.yul\":18276:18279   */\n      dup3\n        /* \"#utility.yul\":18187:18280   */\n      tag_229\n      jump\t// in\n    tag_377:\n        /* \"#utility.yul\":18305:18307   */\n      0x40\n        /* \"#utility.yul\":18300:18303   */\n      dup3\n        /* \"#utility.yul\":18296:18308   */\n      add\n        /* \"#utility.yul\":18289:18308   */\n      swap1\n      pop\n        /* \"#utility.yul\":17948:18314   */\n      swap2\n      swap1\n      pop\n      jump\t// out\n        /* \"#utility.yul\":18320:18739   */\n    tag_178:\n        /* \"#utility.yul\":18486:18490   */\n      0x00\n        /* \"#utility.yul\":18524:18526   */\n      0x20\n        /* \"#utility.yul\":18513:18522   */\n      dup3\n        /* \"#utility.yul\":18509:18527   */\n      add\n        /* \"#utility.yul\":18501:18527   */\n      swap1\n      pop\n        /* \"#utility.yul\":18573:18582   */\n      dup2\n        /* \"#utility.yul\":18567:18571   */\n      dup2\n        /* \"#utility.yul\":18563:18583   */\n      sub\n        /* \"#utility.yul\":18559:18560   */\n      0x00\n        /* \"#utility.yul\":18548:18557   */\n      dup4\n        /* \"#utility.yul\":18544:18561   */\n      add\n        /* \"#utility.yul\":18537:18584   */\n      mstore\n        /* \"#utility.yul\":18601:18732   */\n      tag_379\n        /* \"#utility.yul\":18727:18731   */\n      dup2\n        /* \"#utility.yul\":18601:18732   */\n      tag_230\n      jump\t// in\n    tag_379:\n        /* \"#utility.yul\":18593:18732   */\n      swap1\n      pop\n        /* \"#utility.yul\":18320:18739   */\n      swap2\n      swap1\n      pop\n      jump\t// out\n        /* \"#utility.yul\":18745:18939   */\n    tag_180:\n        /* \"#utility.yul\":18785:18789   */\n      0x00\n        /* \"#utility.yul\":18805:18825   */\n      tag_381\n        /* \"#utility.yul\":18823:18824   */\n      dup3\n        /* \"#utility.yul\":18805:18825   */\n      tag_197\n      jump\t// in\n    tag_381:\n        /* \"#utility.yul\":18800:18825   */\n      swap2\n      pop\n        /* \"#utility.yul\":18839:18859   */\n      tag_382\n        /* \"#utility.yul\":18857:18858   */\n      dup4\n        /* \"#utility.yul\":18839:18859   */\n      tag_197\n      jump\t// in\n    tag_382:\n        /* \"#utility.yul\":18834:18859   */\n      swap3\n      pop\n        /* \"#utility.yul\":18883:18884   */\n      dup3\n        /* \"#utility.yul\":18880:18881   */\n      dup3\n        /* \"#utility.yul\":18876:18885   */\n      sub\n        /* \"#utility.yul\":18868:18885   */\n      swap1\n      pop\n        /* \"#utility.yul\":18907:18908   */\n      dup2\n        /* \"#utility.yul\":18901:18905   */\n      dup2\n        /* \"#utility.yul\":18898:18909   */\n      gt\n        /* \"#utility.yul\":18895:18932   */\n      iszero\n      tag_383\n      jumpi\n        /* \"#utility.yul\":18912:18930   */\n      tag_384\n      tag_208\n      jump\t// in\n    tag_384:\n        /* \"#utility.yul\":18895:18932   */\n    tag_383:\n        /* \"#utility.yul\":18745:18939   */\n      swap3\n      swap2\n      pop\n      pop\n      jump\t// out\n\n    auxdata: 0xa2646970667358221220f2425cdb1298daaeb3c5ddb5154288fe158362b9aefe52823e082921a2def0bd64736f6c63430008120033\n}\n",
				"bytecode": {
					"linkReferences": {},
					"object": "60806040523480156200001157600080fd5b5060405162002430380380620024308339818101604052810190620000379190620003c6565b8260039081620000489190620006a1565b5081600490816200005a9190620006a1565b506200006d33826200007660201b60201c565b505050620008a3565b600073ffffffffffffffffffffffffffffffffffffffff168273ffffffffffffffffffffffffffffffffffffffff1603620000e8576040517f08c379a0000000000000000000000000000000000000000000000000000000008152600401620000df90620007e9565b60405180910390fd5b620000fc60008383620001ee60201b60201c565b80600260008282546200011091906200083a565b92505081905550806000808473ffffffffffffffffffffffffffffffffffffffff1673ffffffffffffffffffffffffffffffffffffffff16815260200190815260200160002060008282546200016791906200083a565b925050819055508173ffffffffffffffffffffffffffffffffffffffff16600073ffffffffffffffffffffffffffffffffffffffff167fddf252ad1be2c89b69c2b068fc378daa952ba7f163c4a11628f55a4df523b3ef83604051620001ce919062000886565b60405180910390a3620001ea60008383620001f360201b60201c565b5050565b505050565b505050565b6000604051905090565b600080fd5b600080fd5b600080fd5b600080fd5b6000601f19601f8301169050919050565b7f4e487b7100000000000000000000000000000000000000000000000000000000600052604160045260246000fd5b620002618262000216565b810181811067ffffffffffffffff8211171562000283576200028262000227565b5b80604052505050565b600062000298620001f8565b9050620002a6828262000256565b919050565b600067ffffffffffffffff821115620002c957620002c862000227565b5b620002d48262000216565b9050602081019050919050565b60005b8381101562000301578082015181840152602081019050620002e4565b60008484015250505050565b6000620003246200031e84620002ab565b6200028c565b90508281526020810184848401111562000343576200034262000211565b5b62000350848285620002e1565b509392505050565b600082601f83011262000370576200036f6200020c565b5b8151620003828482602086016200030d565b91505092915050565b6000819050919050565b620003a0816200038b565b8114620003ac57600080fd5b50565b600081519050620003c08162000395565b92915050565b600080600060608486031215620003e257620003e162000202565b5b600084015167ffffffffffffffff81111562000403576200040262000207565b5b620004118682870162000358565b935050602084015167ffffffffffffffff81111562000435576200043462000207565b5b620004438682870162000358565b92505060406200045686828701620003af565b9150509250925092565b600081519050919050565b7f4e487b7100000000000000000000000000000000000000000000000000000000600052602260045260246000fd5b60006002820490506001821680620004b357607f821691505b602082108103620004c957620004c86200046b565b5b50919050565b60008190508160005260206000209050919050565b60006020601f8301049050919050565b600082821b905092915050565b600060088302620005337fffffffffffffffffffffffffffffffffffffffffffffffffffffffffffffffff82620004f4565b6200053f8683620004f4565b95508019841693508086168417925050509392505050565b6000819050919050565b6000620005826200057c62000576846200038b565b62000557565b6200038b565b9050919050565b6000819050919050565b6200059e8362000561565b620005b6620005ad8262000589565b84845462000501565b825550505050565b600090565b620005cd620005be565b620005da81848462000593565b505050565b5b818110156200060257620005f6600082620005c3565b600181019050620005e0565b5050565b601f82111562000651576200061b81620004cf565b6200062684620004e4565b8101602085101562000636578190505b6200064e6200064585620004e4565b830182620005df565b50505b505050565b600082821c905092915050565b6000620006766000198460080262000656565b1980831691505092915050565b600062000691838362000663565b9150826002028217905092915050565b620006ac8262000460565b67ffffffffffffffff811115620006c857620006c762000227565b5b620006d482546200049a565b620006e182828562000606565b600060209050601f83116001811462000719576000841562000704578287015190505b62000710858262000683565b86555062000780565b601f1984166200072986620004cf565b60005b8281101562000753578489015182556001820191506020850194506020810190506200072c565b868310156200077357848901516200076f601f89168262000663565b8355505b6001600288020188555050505b505050505050565b600082825260208201905092915050565b7f45524332303a206d696e7420746f20746865207a65726f206164647265737300600082015250565b6000620007d1601f8362000788565b9150620007de8262000799565b602082019050919050565b600060208201905081810360008301526200080481620007c2565b9050919050565b7f4e487b7100000000000000000000000000000000000000000000000000000000600052601160045260246000fd5b600062000847826200038b565b915062000854836200038b565b92508282019050808211156200086f576200086e6200080b565b5b92915050565b62000880816200038b565b82525050565b60006020820190506200089d600083018462000875565b92915050565b611b7d80620008b36000396000f3fe608060405234801561001057600080fd5b50600436106100ea5760003560e01c806370a082311161008c578063a457c2d711610066578063a457c2d71461025f578063a9059cbb1461028f578063b6b285d9146102bf578063dd62ed3e146102db576100ea565b806370a08231146101f557806395d89b41146102255780639dc29fac14610243576100ea565b806323b872dd116100c857806323b872dd1461015b578063313ce5671461018b57806339509351146101a957806340c10f19146101d9576100ea565b806306fdde03146100ef578063095ea7b31461010d57806318160ddd1461013d575b600080fd5b6100f761030b565b6040516101049190611198565b60405180910390f35b61012760048036038101906101229190611253565b61039d565b60405161013491906112ae565b60405180910390f35b6101456103bb565b60405161015291906112d8565b60405180910390f35b610175600480360381019061017091906112f3565b6103c5565b60405161018291906112ae565b60405180910390f35b6101936104bd565b6040516101a09190611362565b60405180910390f35b6101c360048036038101906101be9190611253565b6104c6565b6040516101d091906112ae565b60405180910390f35b6101f360048036038101906101ee9190611253565b610572565b005b61020f600480360381019061020a919061137d565b610613565b60405161021c91906112d8565b60405180910390f35b61022d61065b565b60405161023a9190611198565b60405180910390f35b61025d60048036038101906102589190611253565b6106ed565b005b61027960048036038101906102749190611253565b61078e565b60405161028691906112ae565b60405180910390f35b6102a960048036038101906102a49190611253565b610879565b6040516102b691906112ae565b60405180910390f35b6102d960048036038101906102d4919061137d565b610897565b005b6102f560048036038101906102f091906113aa565b6108f2565b60405161030291906112d8565b60405180910390f35b60606003805461031a90611419565b80601f016020809104026020016040519081016040528092919081815260200182805461034690611419565b80156103935780601f1061036857610100808354040283529160200191610393565b820191906000526020600020905b81548152906001019060200180831161037657829003601f168201915b5050505050905090565b60006103b16103aa610979565b8484610981565b6001905092915050565b6000600254905090565b60006103d2848484610b4a565b6000600160008673ffffffffffffffffffffffffffffffffffffffff1673ffffffffffffffffffffffffffffffffffffffff168152602001908152602001600020600061041d610979565b73ffffffffffffffffffffffffffffffffffffffff1673ffffffffffffffffffffffffffffffffffffffff1681526020019081526020016000205490508281101561049d576040517f08c379a0000000000000000000000000000000000000000000000000000000008152600401610494906114bc565b60405180910390fd5b6104b1856104a9610979565b858403610981565b60019150509392505050565b60006012905090565b60006105686104d3610979565b8484600160006104e1610979565b73ffffffffffffffffffffffffffffffffffffffff1673ffffffffffffffffffffffffffffffffffffffff16815260200190815260200160002060008873ffffffffffffffffffffffffffffffffffffffff1673ffffffffffffffffffffffffffffffffffffffff16815260200190815260200160002054610563919061150b565b610981565b6001905092915050565b60011515600560003373ffffffffffffffffffffffffffffffffffffffff1673ffffffffffffffffffffffffffffffffffffffff16815260200190815260200160002060009054906101000a900460ff16151514610605576040517f08c379a00000000000000000000000000000000000000000000000000000000081526004016105fc9061158b565b60405180910390fd5b61060f8282610dc9565b5050565b60008060008373ffffffffffffffffffffffffffffffffffffffff1673ffffffffffffffffffffffffffffffffffffffff168152602001908152602001600020549050919050565b60606004805461066a90611419565b80601f016020809104026020016040519081016040528092919081815260200182805461069690611419565b80156106e35780601f106106b8576101008083540402835291602001916106e3565b820191906000526020600020905b8154815290600101906020018083116106c657829003601f168201915b5050505050905090565b60011515600560003373ffffffffffffffffffffffffffffffffffffffff1673ffffffffffffffffffffffffffffffffffffffff16815260200190815260200160002060009054906101000a900460ff16151514610780576040517f08c379a0000000000000000000000000000000000000000000000000000000008152600401610777906115f7565b60405180910390fd5b61078a8282610f28565b5050565b6000806001600061079d610979565b73ffffffffffffffffffffffffffffffffffffffff1673ffffffffffffffffffffffffffffffffffffffff16815260200190815260200160002060008573ffffffffffffffffffffffffffffffffffffffff1673ffffffffffffffffffffffffffffffffffffffff1681526020019081526020016000205490508281101561085a576040517f08c379a000000000000000000000000000000000000000000000000000000000815260040161085190611689565b60405180910390fd5b61086e610865610979565b85858403610981565b600191505092915050565b600061088d610886610979565b8484610b4a565b6001905092915050565b6001600560008373ffffffffffffffffffffffffffffffffffffffff1673ffffffffffffffffffffffffffffffffffffffff16815260200190815260200160002060006101000a81548160ff02191690831515021790555050565b6000600160008473ffffffffffffffffffffffffffffffffffffffff1673ffffffffffffffffffffffffffffffffffffffff16815260200190815260200160002060008373ffffffffffffffffffffffffffffffffffffffff1673ffffffffffffffffffffffffffffffffffffffff16815260200190815260200160002054905092915050565b600033905090565b600073ffffffffffffffffffffffffffffffffffffffff168373ffffffffffffffffffffffffffffffffffffffff16036109f0576040517f08c379a00000000000000000000000000000000000000000000000000000000081526004016109e79061171b565b60405180910390fd5b600073ffffffffffffffffffffffffffffffffffffffff168273ffffffffffffffffffffffffffffffffffffffff1603610a5f576040517f08c379a0000000000000000000000000000000000000000000000000000000008152600401610a56906117ad565b60405180910390fd5b80600160008573ffffffffffffffffffffffffffffffffffffffff1673ffffffffffffffffffffffffffffffffffffffff16815260200190815260200160002060008473ffffffffffffffffffffffffffffffffffffffff1673ffffffffffffffffffffffffffffffffffffffff168152602001908152602001600020819055508173ffffffffffffffffffffffffffffffffffffffff168373ffffffffffffffffffffffffffffffffffffffff167f8c5be1e5ebec7d5bd14f71427d1e84f3dd0314c0f7b2291e5b200ac8c7c3b92583604051610b3d91906112d8565b60405180910390a3505050565b600073ffffffffffffffffffffffffffffffffffffffff168373ffffffffffffffffffffffffffffffffffffffff1603610bb9576040517f08c379a0000000000000000000000000000000000000000000000000000000008152600401610bb09061183f565b60405180910390fd5b600073ffffffffffffffffffffffffffffffffffffffff168273ffffffffffffffffffffffffffffffffffffffff1603610c28576040517f08c379a0000000000000000000000000000000000000000000000000000000008152600401610c1f906118d1565b60405180910390fd5b610c338383836110fe565b60008060008573ffffffffffffffffffffffffffffffffffffffff1673ffffffffffffffffffffffffffffffffffffffff16815260200190815260200160002054905081811015610cb9576040517f08c379a0000000000000000000000000000000000000000000000000000000008152600401610cb090611963565b60405180910390fd5b8181036000808673ffffffffffffffffffffffffffffffffffffffff1673ffffffffffffffffffffffffffffffffffffffff16815260200190815260200160002081905550816000808573ffffffffffffffffffffffffffffffffffffffff1673ffffffffffffffffffffffffffffffffffffffff1681526020019081526020016000206000828254610d4c919061150b565b925050819055508273ffffffffffffffffffffffffffffffffffffffff168473ffffffffffffffffffffffffffffffffffffffff167fddf252ad1be2c89b69c2b068fc378daa952ba7f163c4a11628f55a4df523b3ef84604051610db091906112d8565b60405180910390a3610dc3848484611103565b50505050565b600073ffffffffffffffffffffffffffffffffffffffff168273ffffffffffffffffffffffffffffffffffffffff1603610e38576040517f08c379a0000000000000000000000000000000000000000000000000000000008152600401610e2f906119cf565b60405180910390fd5b610e44600083836110fe565b8060026000828254610e56919061150b565b92505081905550806000808473ffffffffffffffffffffffffffffffffffffffff1673ffffffffffffffffffffffffffffffffffffffff1681526020019081526020016000206000828254610eab919061150b565b925050819055508173ffffffffffffffffffffffffffffffffffffffff16600073ffffffffffffffffffffffffffffffffffffffff167fddf252ad1be2c89b69c2b068fc378daa952ba7f163c4a11628f55a4df523b3ef83604051610f1091906112d8565b60405180910390a3610f2460008383611103565b5050565b600073ffffffffffffffffffffffffffffffffffffffff168273ffffffffffffffffffffffffffffffffffffffff1603610f97576040517f08c379a0000000000000000000000000000000000000000000000000000000008152600401610f8e90611a61565b60405180910390fd5b610fa3826000836110fe565b60008060008473ffffffffffffffffffffffffffffffffffffffff1673ffffffffffffffffffffffffffffffffffffffff16815260200190815260200160002054905081811015611029576040517f08c379a000000000000000000000000000000000000000000000000000000000815260040161102090611af3565b60405180910390fd5b8181036000808573ffffffffffffffffffffffffffffffffffffffff1673ffffffffffffffffffffffffffffffffffffffff1681526020019081526020016000208190555081600260008282546110809190611b13565b92505081905550600073ffffffffffffffffffffffffffffffffffffffff168373ffffffffffffffffffffffffffffffffffffffff167fddf252ad1be2c89b69c2b068fc378daa952ba7f163c4a11628f55a4df523b3ef846040516110e591906112d8565b60405180910390a36110f983600084611103565b505050565b505050565b505050565b600081519050919050565b600082825260208201905092915050565b60005b83811015611142578082015181840152602081019050611127565b60008484015250505050565b6000601f19601f8301169050919050565b600061116a82611108565b6111748185611113565b9350611184818560208601611124565b61118d8161114e565b840191505092915050565b600060208201905081810360008301526111b2818461115f565b905092915050565b600080fd5b600073ffffffffffffffffffffffffffffffffffffffff82169050919050565b60006111ea826111bf565b9050919050565b6111fa816111df565b811461120557600080fd5b50565b600081359050611217816111f1565b92915050565b6000819050919050565b6112308161121d565b811461123b57600080fd5b50565b60008135905061124d81611227565b92915050565b6000806040838503121561126a576112696111ba565b5b600061127885828601611208565b92505060206112898582860161123e565b9150509250929050565b60008115159050919050565b6112a881611293565b82525050565b60006020820190506112c3600083018461129f565b92915050565b6112d28161121d565b82525050565b60006020820190506112ed60008301846112c9565b92915050565b60008060006060848603121561130c5761130b6111ba565b5b600061131a86828701611208565b935050602061132b86828701611208565b925050604061133c8682870161123e565b9150509250925092565b600060ff82169050919050565b61135c81611346565b82525050565b60006020820190506113776000830184611353565b92915050565b600060208284031215611393576113926111ba565b5b60006113a184828501611208565b91505092915050565b600080604083850312156113c1576113c06111ba565b5b60006113cf85828601611208565b92505060206113e085828601611208565b9150509250929050565b7f4e487b7100000000000000000000000000000000000000000000000000000000600052602260045260246000fd5b6000600282049050600182168061143157607f821691505b602082108103611444576114436113ea565b5b50919050565b7f45524332303a207472616e7366657220616d6f756e742065786365656473206160008201527f6c6c6f77616e6365000000000000000000000000000000000000000000000000602082015250565b60006114a6602883611113565b91506114b18261144a565b604082019050919050565b600060208201905081810360008301526114d581611499565b9050919050565b7f4e487b7100000000000000000000000000000000000000000000000000000000600052601160045260246000fd5b60006115168261121d565b91506115218361121d565b9250828201905080821115611539576115386114dc565b5b92915050565b7f796f7520617265206e6f7420617070726f7665642020746f206d696e74000000600082015250565b6000611575601d83611113565b91506115808261153f565b602082019050919050565b600060208201905081810360008301526115a481611568565b9050919050565b7f796f7520617265206e6f7420617070726f7665642020746f206275726e000000600082015250565b60006115e1601d83611113565b91506115ec826115ab565b602082019050919050565b60006020820190508181036000830152611610816115d4565b9050919050565b7f45524332303a2064656372656173656420616c6c6f77616e63652062656c6f7760008201527f207a65726f000000000000000000000000000000000000000000000000000000602082015250565b6000611673602583611113565b915061167e82611617565b604082019050919050565b600060208201905081810360008301526116a281611666565b9050919050565b7f45524332303a20617070726f76652066726f6d20746865207a65726f2061646460008201527f7265737300000000000000000000000000000000000000000000000000000000602082015250565b6000611705602483611113565b9150611710826116a9565b604082019050919050565b60006020820190508181036000830152611734816116f8565b9050919050565b7f45524332303a20617070726f766520746f20746865207a65726f20616464726560008201527f7373000000000000000000000000000000000000000000000000000000000000602082015250565b6000611797602283611113565b91506117a28261173b565b604082019050919050565b600060208201905081810360008301526117c68161178a565b9050919050565b7f45524332303a207472616e736665722066726f6d20746865207a65726f20616460008201527f6472657373000000000000000000000000000000000000000000000000000000602082015250565b6000611829602583611113565b9150611834826117cd565b604082019050919050565b600060208201905081810360008301526118588161181c565b9050919050565b7f45524332303a207472616e7366657220746f20746865207a65726f206164647260008201527f6573730000000000000000000000000000000000000000000000000000000000602082015250565b60006118bb602383611113565b91506118c68261185f565b604082019050919050565b600060208201905081810360008301526118ea816118ae565b9050919050565b7f45524332303a207472616e7366657220616d6f756e742065786365656473206260008201527f616c616e63650000000000000000000000000000000000000000000000000000602082015250565b600061194d602683611113565b9150611958826118f1565b604082019050919050565b6000602082019050818103600083015261197c81611940565b9050919050565b7f45524332303a206d696e7420746f20746865207a65726f206164647265737300600082015250565b60006119b9601f83611113565b91506119c482611983565b602082019050919050565b600060208201905081810360008301526119e8816119ac565b9050919050565b7f45524332303a206275726e2066726f6d20746865207a65726f2061646472657360008201527f7300000000000000000000000000000000000000000000000000000000000000602082015250565b6000611a4b602183611113565b9150611a56826119ef565b604082019050919050565b60006020820190508181036000830152611a7a81611a3e565b9050919050565b7f45524332303a206275726e20616d6f756e7420657863656564732062616c616e60008201527f6365000000000000000000000000000000000000000000000000000000000000602082015250565b6000611add602283611113565b9150611ae882611a81565b604082019050919050565b60006020820190508181036000830152611b0c81611ad0565b9050919050565b6000611b1e8261121d565b9150611b298361121d565b9250828203905081811115611b4157611b406114dc565b5b9291505056fea2646970667358221220f2425cdb1298daaeb3c5ddb5154288fe158362b9aefe52823e082921a2def0bd64736f6c63430008120033",
					"opcodes": "PUSH1 0x80 PUSH1 0x40 MSTORE CALLVALUE DUP1 ISZERO PUSH3 0x11 JUMPI PUSH1 0x0 DUP1 REVERT JUMPDEST POP PUSH1 0x40 MLOAD PUSH3 0x2430 CODESIZE SUB DUP1 PUSH3 0x2430 DUP4 CODECOPY DUP2 DUP2 ADD PUSH1 0x40 MSTORE DUP2 ADD SWAP1 PUSH3 0x37 SWAP2 SWAP1 PUSH3 0x3C6 JUMP JUMPDEST DUP3 PUSH1 0x3 SWAP1 DUP2 PUSH3 0x48 SWAP2 SWAP1 PUSH3 0x6A1 JUMP JUMPDEST POP DUP2 PUSH1 0x4 SWAP1 DUP2 PUSH3 0x5A SWAP2 SWAP1 PUSH3 0x6A1 JUMP JUMPDEST POP PUSH3 0x6D CALLER DUP3 PUSH3 0x76 PUSH1 0x20 SHL PUSH1 0x20 SHR JUMP JUMPDEST POP POP POP PUSH3 0x8A3 JUMP JUMPDEST PUSH1 0x0 PUSH20 0xFFFFFFFFFFFFFFFFFFFFFFFFFFFFFFFFFFFFFFFF AND DUP3 PUSH20 0xFFFFFFFFFFFFFFFFFFFFFFFFFFFFFFFFFFFFFFFF AND SUB PUSH3 0xE8 JUMPI PUSH1 0x40 MLOAD PUSH32 0x8C379A000000000000000000000000000000000000000000000000000000000 DUP2 MSTORE PUSH1 0x4 ADD PUSH3 0xDF SWAP1 PUSH3 0x7E9 JUMP JUMPDEST PUSH1 0x40 MLOAD DUP1 SWAP2 SUB SWAP1 REVERT JUMPDEST PUSH3 0xFC PUSH1 0x0 DUP4 DUP4 PUSH3 0x1EE PUSH1 0x20 SHL PUSH1 0x20 SHR JUMP JUMPDEST DUP1 PUSH1 0x2 PUSH1 0x0 DUP3 DUP3 SLOAD PUSH3 0x110 SWAP2 SWAP1 PUSH3 0x83A JUMP JUMPDEST SWAP3 POP POP DUP2 SWAP1 SSTORE POP DUP1 PUSH1 0x0 DUP1 DUP5 PUSH20 0xFFFFFFFFFFFFFFFFFFFFFFFFFFFFFFFFFFFFFFFF AND PUSH20 0xFFFFFFFFFFFFFFFFFFFFFFFFFFFFFFFFFFFFFFFF AND DUP2 MSTORE PUSH1 0x20 ADD SWAP1 DUP2 MSTORE PUSH1 0x20 ADD PUSH1 0x0 KECCAK256 PUSH1 0x0 DUP3 DUP3 SLOAD PUSH3 0x167 SWAP2 SWAP1 PUSH3 0x83A JUMP JUMPDEST SWAP3 POP POP DUP2 SWAP1 SSTORE POP DUP2 PUSH20 0xFFFFFFFFFFFFFFFFFFFFFFFFFFFFFFFFFFFFFFFF AND PUSH1 0x0 PUSH20 0xFFFFFFFFFFFFFFFFFFFFFFFFFFFFFFFFFFFFFFFF AND PUSH32 0xDDF252AD1BE2C89B69C2B068FC378DAA952BA7F163C4A11628F55A4DF523B3EF DUP4 PUSH1 0x40 MLOAD PUSH3 0x1CE SWAP2 SWAP1 PUSH3 0x886 JUMP JUMPDEST PUSH1 0x40 MLOAD DUP1 SWAP2 SUB SWAP1 LOG3 PUSH3 0x1EA PUSH1 0x0 DUP4 DUP4 PUSH3 0x1F3 PUSH1 0x20 SHL PUSH1 0x20 SHR JUMP JUMPDEST POP POP JUMP JUMPDEST POP POP POP JUMP JUMPDEST POP POP POP JUMP JUMPDEST PUSH1 0x0 PUSH1 0x40 MLOAD SWAP1 POP SWAP1 JUMP JUMPDEST PUSH1 0x0 DUP1 REVERT JUMPDEST PUSH1 0x0 DUP1 REVERT JUMPDEST PUSH1 0x0 DUP1 REVERT JUMPDEST PUSH1 0x0 DUP1 REVERT JUMPDEST PUSH1 0x0 PUSH1 0x1F NOT PUSH1 0x1F DUP4 ADD AND SWAP1 POP SWAP2 SWAP1 POP JUMP JUMPDEST PUSH32 0x4E487B7100000000000000000000000000000000000000000000000000000000 PUSH1 0x0 MSTORE PUSH1 0x41 PUSH1 0x4 MSTORE PUSH1 0x24 PUSH1 0x0 REVERT JUMPDEST PUSH3 0x261 DUP3 PUSH3 0x216 JUMP JUMPDEST DUP2 ADD DUP2 DUP2 LT PUSH8 0xFFFFFFFFFFFFFFFF DUP3 GT OR ISZERO PUSH3 0x283 JUMPI PUSH3 0x282 PUSH3 0x227 JUMP JUMPDEST JUMPDEST DUP1 PUSH1 0x40 MSTORE POP POP POP JUMP JUMPDEST PUSH1 0x0 PUSH3 0x298 PUSH3 0x1F8 JUMP JUMPDEST SWAP1 POP PUSH3 0x2A6 DUP3 DUP3 PUSH3 0x256 JUMP JUMPDEST SWAP2 SWAP1 POP JUMP JUMPDEST PUSH1 0x0 PUSH8 0xFFFFFFFFFFFFFFFF DUP3 GT ISZERO PUSH3 0x2C9 JUMPI PUSH3 0x2C8 PUSH3 0x227 JUMP JUMPDEST JUMPDEST PUSH3 0x2D4 DUP3 PUSH3 0x216 JUMP JUMPDEST SWAP1 POP PUSH1 0x20 DUP2 ADD SWAP1 POP SWAP2 SWAP1 POP JUMP JUMPDEST PUSH1 0x0 JUMPDEST DUP4 DUP2 LT ISZERO PUSH3 0x301 JUMPI DUP1 DUP3 ADD MLOAD DUP2 DUP5 ADD MSTORE PUSH1 0x20 DUP2 ADD SWAP1 POP PUSH3 0x2E4 JUMP JUMPDEST PUSH1 0x0 DUP5 DUP5 ADD MSTORE POP POP POP POP JUMP JUMPDEST PUSH1 0x0 PUSH3 0x324 PUSH3 0x31E DUP5 PUSH3 0x2AB JUMP JUMPDEST PUSH3 0x28C JUMP JUMPDEST SWAP1 POP DUP3 DUP2 MSTORE PUSH1 0x20 DUP2 ADD DUP5 DUP5 DUP5 ADD GT ISZERO PUSH3 0x343 JUMPI PUSH3 0x342 PUSH3 0x211 JUMP JUMPDEST JUMPDEST PUSH3 0x350 DUP5 DUP3 DUP6 PUSH3 0x2E1 JUMP JUMPDEST POP SWAP4 SWAP3 POP POP POP JUMP JUMPDEST PUSH1 0x0 DUP3 PUSH1 0x1F DUP4 ADD SLT PUSH3 0x370 JUMPI PUSH3 0x36F PUSH3 0x20C JUMP JUMPDEST JUMPDEST DUP2 MLOAD PUSH3 0x382 DUP5 DUP3 PUSH1 0x20 DUP7 ADD PUSH3 0x30D JUMP JUMPDEST SWAP2 POP POP SWAP3 SWAP2 POP POP JUMP JUMPDEST PUSH1 0x0 DUP2 SWAP1 POP SWAP2 SWAP1 POP JUMP JUMPDEST PUSH3 0x3A0 DUP2 PUSH3 0x38B JUMP JUMPDEST DUP2 EQ PUSH3 0x3AC JUMPI PUSH1 0x0 DUP1 REVERT JUMPDEST POP JUMP JUMPDEST PUSH1 0x0 DUP2 MLOAD SWAP1 POP PUSH3 0x3C0 DUP2 PUSH3 0x395 JUMP JUMPDEST SWAP3 SWAP2 POP POP JUMP JUMPDEST PUSH1 0x0 DUP1 PUSH1 0x0 PUSH1 0x60 DUP5 DUP7 SUB SLT ISZERO PUSH3 0x3E2 JUMPI PUSH3 0x3E1 PUSH3 0x202 JUMP JUMPDEST JUMPDEST PUSH1 0x0 DUP5 ADD MLOAD PUSH8 0xFFFFFFFFFFFFFFFF DUP2 GT ISZERO PUSH3 0x403 JUMPI PUSH3 0x402 PUSH3 0x207 JUMP JUMPDEST JUMPDEST PUSH3 0x411 DUP7 DUP3 DUP8 ADD PUSH3 0x358 JUMP JUMPDEST SWAP4 POP POP PUSH1 0x20 DUP5 ADD MLOAD PUSH8 0xFFFFFFFFFFFFFFFF DUP2 GT ISZERO PUSH3 0x435 JUMPI PUSH3 0x434 PUSH3 0x207 JUMP JUMPDEST JUMPDEST PUSH3 0x443 DUP7 DUP3 DUP8 ADD PUSH3 0x358 JUMP JUMPDEST SWAP3 POP POP PUSH1 0x40 PUSH3 0x456 DUP7 DUP3 DUP8 ADD PUSH3 0x3AF JUMP JUMPDEST SWAP2 POP POP SWAP3 POP SWAP3 POP SWAP3 JUMP JUMPDEST PUSH1 0x0 DUP2 MLOAD SWAP1 POP SWAP2 SWAP1 POP JUMP JUMPDEST PUSH32 0x4E487B7100000000000000000000000000000000000000000000000000000000 PUSH1 0x0 MSTORE PUSH1 0x22 PUSH1 0x4 MSTORE PUSH1 0x24 PUSH1 0x0 REVERT JUMPDEST PUSH1 0x0 PUSH1 0x2 DUP3 DIV SWAP1 POP PUSH1 0x1 DUP3 AND DUP1 PUSH3 0x4B3 JUMPI PUSH1 0x7F DUP3 AND SWAP2 POP JUMPDEST PUSH1 0x20 DUP3 LT DUP2 SUB PUSH3 0x4C9 JUMPI PUSH3 0x4C8 PUSH3 0x46B JUMP JUMPDEST JUMPDEST POP SWAP2 SWAP1 POP JUMP JUMPDEST PUSH1 0x0 DUP2 SWAP1 POP DUP2 PUSH1 0x0 MSTORE PUSH1 0x20 PUSH1 0x0 KECCAK256 SWAP1 POP SWAP2 SWAP1 POP JUMP JUMPDEST PUSH1 0x0 PUSH1 0x20 PUSH1 0x1F DUP4 ADD DIV SWAP1 POP SWAP2 SWAP1 POP JUMP JUMPDEST PUSH1 0x0 DUP3 DUP3 SHL SWAP1 POP SWAP3 SWAP2 POP POP JUMP JUMPDEST PUSH1 0x0 PUSH1 0x8 DUP4 MUL PUSH3 0x533 PUSH32 0xFFFFFFFFFFFFFFFFFFFFFFFFFFFFFFFFFFFFFFFFFFFFFFFFFFFFFFFFFFFFFFFF DUP3 PUSH3 0x4F4 JUMP JUMPDEST PUSH3 0x53F DUP7 DUP4 PUSH3 0x4F4 JUMP JUMPDEST SWAP6 POP DUP1 NOT DUP5 AND SWAP4 POP DUP1 DUP7 AND DUP5 OR SWAP3 POP POP POP SWAP4 SWAP3 POP POP POP JUMP JUMPDEST PUSH1 0x0 DUP2 SWAP1 POP SWAP2 SWAP1 POP JUMP JUMPDEST PUSH1 0x0 PUSH3 0x582 PUSH3 0x57C PUSH3 0x576 DUP5 PUSH3 0x38B JUMP JUMPDEST PUSH3 0x557 JUMP JUMPDEST PUSH3 0x38B JUMP JUMPDEST SWAP1 POP SWAP2 SWAP1 POP JUMP JUMPDEST PUSH1 0x0 DUP2 SWAP1 POP SWAP2 SWAP1 POP JUMP JUMPDEST PUSH3 0x59E DUP4 PUSH3 0x561 JUMP JUMPDEST PUSH3 0x5B6 PUSH3 0x5AD DUP3 PUSH3 0x589 JUMP JUMPDEST DUP5 DUP5 SLOAD PUSH3 0x501 JUMP JUMPDEST DUP3 SSTORE POP POP POP POP JUMP JUMPDEST PUSH1 0x0 SWAP1 JUMP JUMPDEST PUSH3 0x5CD PUSH3 0x5BE JUMP JUMPDEST PUSH3 0x5DA DUP2 DUP5 DUP5 PUSH3 0x593 JUMP JUMPDEST POP POP POP JUMP JUMPDEST JUMPDEST DUP2 DUP2 LT ISZERO PUSH3 0x602 JUMPI PUSH3 0x5F6 PUSH1 0x0 DUP3 PUSH3 0x5C3 JUMP JUMPDEST PUSH1 0x1 DUP2 ADD SWAP1 POP PUSH3 0x5E0 JUMP JUMPDEST POP POP JUMP JUMPDEST PUSH1 0x1F DUP3 GT ISZERO PUSH3 0x651 JUMPI PUSH3 0x61B DUP2 PUSH3 0x4CF JUMP JUMPDEST PUSH3 0x626 DUP5 PUSH3 0x4E4 JUMP JUMPDEST DUP2 ADD PUSH1 0x20 DUP6 LT ISZERO PUSH3 0x636 JUMPI DUP2 SWAP1 POP JUMPDEST PUSH3 0x64E PUSH3 0x645 DUP6 PUSH3 0x4E4 JUMP JUMPDEST DUP4 ADD DUP3 PUSH3 0x5DF JUMP JUMPDEST POP POP JUMPDEST POP POP POP JUMP JUMPDEST PUSH1 0x0 DUP3 DUP3 SHR SWAP1 POP SWAP3 SWAP2 POP POP JUMP JUMPDEST PUSH1 0x0 PUSH3 0x676 PUSH1 0x0 NOT DUP5 PUSH1 0x8 MUL PUSH3 0x656 JUMP JUMPDEST NOT DUP1 DUP4 AND SWAP2 POP POP SWAP3 SWAP2 POP POP JUMP JUMPDEST PUSH1 0x0 PUSH3 0x691 DUP4 DUP4 PUSH3 0x663 JUMP JUMPDEST SWAP2 POP DUP3 PUSH1 0x2 MUL DUP3 OR SWAP1 POP SWAP3 SWAP2 POP POP JUMP JUMPDEST PUSH3 0x6AC DUP3 PUSH3 0x460 JUMP JUMPDEST PUSH8 0xFFFFFFFFFFFFFFFF DUP2 GT ISZERO PUSH3 0x6C8 JUMPI PUSH3 0x6C7 PUSH3 0x227 JUMP JUMPDEST JUMPDEST PUSH3 0x6D4 DUP3 SLOAD PUSH3 0x49A JUMP JUMPDEST PUSH3 0x6E1 DUP3 DUP3 DUP6 PUSH3 0x606 JUMP JUMPDEST PUSH1 0x0 PUSH1 0x20 SWAP1 POP PUSH1 0x1F DUP4 GT PUSH1 0x1 DUP2 EQ PUSH3 0x719 JUMPI PUSH1 0x0 DUP5 ISZERO PUSH3 0x704 JUMPI DUP3 DUP8 ADD MLOAD SWAP1 POP JUMPDEST PUSH3 0x710 DUP6 DUP3 PUSH3 0x683 JUMP JUMPDEST DUP7 SSTORE POP PUSH3 0x780 JUMP JUMPDEST PUSH1 0x1F NOT DUP5 AND PUSH3 0x729 DUP7 PUSH3 0x4CF JUMP JUMPDEST PUSH1 0x0 JUMPDEST DUP3 DUP2 LT ISZERO PUSH3 0x753 JUMPI DUP5 DUP10 ADD MLOAD DUP3 SSTORE PUSH1 0x1 DUP3 ADD SWAP2 POP PUSH1 0x20 DUP6 ADD SWAP5 POP PUSH1 0x20 DUP2 ADD SWAP1 POP PUSH3 0x72C JUMP JUMPDEST DUP7 DUP4 LT ISZERO PUSH3 0x773 JUMPI DUP5 DUP10 ADD MLOAD PUSH3 0x76F PUSH1 0x1F DUP10 AND DUP3 PUSH3 0x663 JUMP JUMPDEST DUP4 SSTORE POP JUMPDEST PUSH1 0x1 PUSH1 0x2 DUP9 MUL ADD DUP9 SSTORE POP POP POP JUMPDEST POP POP POP POP POP POP JUMP JUMPDEST PUSH1 0x0 DUP3 DUP3 MSTORE PUSH1 0x20 DUP3 ADD SWAP1 POP SWAP3 SWAP2 POP POP JUMP JUMPDEST PUSH32 0x45524332303A206D696E7420746F20746865207A65726F206164647265737300 PUSH1 0x0 DUP3 ADD MSTORE POP JUMP JUMPDEST PUSH1 0x0 PUSH3 0x7D1 PUSH1 0x1F DUP4 PUSH3 0x788 JUMP JUMPDEST SWAP2 POP PUSH3 0x7DE DUP3 PUSH3 0x799 JUMP JUMPDEST PUSH1 0x20 DUP3 ADD SWAP1 POP SWAP2 SWAP1 POP JUMP JUMPDEST PUSH1 0x0 PUSH1 0x20 DUP3 ADD SWAP1 POP DUP2 DUP2 SUB PUSH1 0x0 DUP4 ADD MSTORE PUSH3 0x804 DUP2 PUSH3 0x7C2 JUMP JUMPDEST SWAP1 POP SWAP2 SWAP1 POP JUMP JUMPDEST PUSH32 0x4E487B7100000000000000000000000000000000000000000000000000000000 PUSH1 0x0 MSTORE PUSH1 0x11 PUSH1 0x4 MSTORE PUSH1 0x24 PUSH1 0x0 REVERT JUMPDEST PUSH1 0x0 PUSH3 0x847 DUP3 PUSH3 0x38B JUMP JUMPDEST SWAP2 POP PUSH3 0x854 DUP4 PUSH3 0x38B JUMP JUMPDEST SWAP3 POP DUP3 DUP3 ADD SWAP1 POP DUP1 DUP3 GT ISZERO PUSH3 0x86F JUMPI PUSH3 0x86E PUSH3 0x80B JUMP JUMPDEST JUMPDEST SWAP3 SWAP2 POP POP JUMP JUMPDEST PUSH3 0x880 DUP2 PUSH3 0x38B JUMP JUMPDEST DUP3 MSTORE POP POP JUMP JUMPDEST PUSH1 0x0 PUSH1 0x20 DUP3 ADD SWAP1 POP PUSH3 0x89D PUSH1 0x0 DUP4 ADD DUP5 PUSH3 0x875 JUMP JUMPDEST SWAP3 SWAP2 POP POP JUMP JUMPDEST PUSH2 0x1B7D DUP1 PUSH3 0x8B3 PUSH1 0x0 CODECOPY PUSH1 0x0 RETURN INVALID PUSH1 0x80 PUSH1 0x40 MSTORE CALLVALUE DUP1 ISZERO PUSH2 0x10 JUMPI PUSH1 0x0 DUP1 REVERT JUMPDEST POP PUSH1 0x4 CALLDATASIZE LT PUSH2 0xEA JUMPI PUSH1 0x0 CALLDATALOAD PUSH1 0xE0 SHR DUP1 PUSH4 0x70A08231 GT PUSH2 0x8C JUMPI DUP1 PUSH4 0xA457C2D7 GT PUSH2 0x66 JUMPI DUP1 PUSH4 0xA457C2D7 EQ PUSH2 0x25F JUMPI DUP1 PUSH4 0xA9059CBB EQ PUSH2 0x28F JUMPI DUP1 PUSH4 0xB6B285D9 EQ PUSH2 0x2BF JUMPI DUP1 PUSH4 0xDD62ED3E EQ PUSH2 0x2DB JUMPI PUSH2 0xEA JUMP JUMPDEST DUP1 PUSH4 0x70A08231 EQ PUSH2 0x1F5 JUMPI DUP1 PUSH4 0x95D89B41 EQ PUSH2 0x225 JUMPI DUP1 PUSH4 0x9DC29FAC EQ PUSH2 0x243 JUMPI PUSH2 0xEA JUMP JUMPDEST DUP1 PUSH4 0x23B872DD GT PUSH2 0xC8 JUMPI DUP1 PUSH4 0x23B872DD EQ PUSH2 0x15B JUMPI DUP1 PUSH4 0x313CE567 EQ PUSH2 0x18B JUMPI DUP1 PUSH4 0x39509351 EQ PUSH2 0x1A9 JUMPI DUP1 PUSH4 0x40C10F19 EQ PUSH2 0x1D9 JUMPI PUSH2 0xEA JUMP JUMPDEST DUP1 PUSH4 0x6FDDE03 EQ PUSH2 0xEF JUMPI DUP1 PUSH4 0x95EA7B3 EQ PUSH2 0x10D JUMPI DUP1 PUSH4 0x18160DDD EQ PUSH2 0x13D JUMPI JUMPDEST PUSH1 0x0 DUP1 REVERT JUMPDEST PUSH2 0xF7 PUSH2 0x30B JUMP JUMPDEST PUSH1 0x40 MLOAD PUSH2 0x104 SWAP2 SWAP1 PUSH2 0x1198 JUMP JUMPDEST PUSH1 0x40 MLOAD DUP1 SWAP2 SUB SWAP1 RETURN JUMPDEST PUSH2 0x127 PUSH1 0x4 DUP1 CALLDATASIZE SUB DUP2 ADD SWAP1 PUSH2 0x122 SWAP2 SWAP1 PUSH2 0x1253 JUMP JUMPDEST PUSH2 0x39D JUMP JUMPDEST PUSH1 0x40 MLOAD PUSH2 0x134 SWAP2 SWAP1 PUSH2 0x12AE JUMP JUMPDEST PUSH1 0x40 MLOAD DUP1 SWAP2 SUB SWAP1 RETURN JUMPDEST PUSH2 0x145 PUSH2 0x3BB JUMP JUMPDEST PUSH1 0x40 MLOAD PUSH2 0x152 SWAP2 SWAP1 PUSH2 0x12D8 JUMP JUMPDEST PUSH1 0x40 MLOAD DUP1 SWAP2 SUB SWAP1 RETURN JUMPDEST PUSH2 0x175 PUSH1 0x4 DUP1 CALLDATASIZE SUB DUP2 ADD SWAP1 PUSH2 0x170 SWAP2 SWAP1 PUSH2 0x12F3 JUMP JUMPDEST PUSH2 0x3C5 JUMP JUMPDEST PUSH1 0x40 MLOAD PUSH2 0x182 SWAP2 SWAP1 PUSH2 0x12AE JUMP JUMPDEST PUSH1 0x40 MLOAD DUP1 SWAP2 SUB SWAP1 RETURN JUMPDEST PUSH2 0x193 PUSH2 0x4BD JUMP JUMPDEST PUSH1 0x40 MLOAD PUSH2 0x1A0 SWAP2 SWAP1 PUSH2 0x1362 JUMP JUMPDEST PUSH1 0x40 MLOAD DUP1 SWAP2 SUB SWAP1 RETURN JUMPDEST PUSH2 0x1C3 PUSH1 0x4 DUP1 CALLDATASIZE SUB DUP2 ADD SWAP1 PUSH2 0x1BE SWAP2 SWAP1 PUSH2 0x1253 JUMP JUMPDEST PUSH2 0x4C6 JUMP JUMPDEST PUSH1 0x40 MLOAD PUSH2 0x1D0 SWAP2 SWAP1 PUSH2 0x12AE JUMP JUMPDEST PUSH1 0x40 MLOAD DUP1 SWAP2 SUB SWAP1 RETURN JUMPDEST PUSH2 0x1F3 PUSH1 0x4 DUP1 CALLDATASIZE SUB DUP2 ADD SWAP1 PUSH2 0x1EE SWAP2 SWAP1 PUSH2 0x1253 JUMP JUMPDEST PUSH2 0x572 JUMP JUMPDEST STOP JUMPDEST PUSH2 0x20F PUSH1 0x4 DUP1 CALLDATASIZE SUB DUP2 ADD SWAP1 PUSH2 0x20A SWAP2 SWAP1 PUSH2 0x137D JUMP JUMPDEST PUSH2 0x613 JUMP JUMPDEST PUSH1 0x40 MLOAD PUSH2 0x21C SWAP2 SWAP1 PUSH2 0x12D8 JUMP JUMPDEST PUSH1 0x40 MLOAD DUP1 SWAP2 SUB SWAP1 RETURN JUMPDEST PUSH2 0x22D PUSH2 0x65B JUMP JUMPDEST PUSH1 0x40 MLOAD PUSH2 0x23A SWAP2 SWAP1 PUSH2 0x1198 JUMP JUMPDEST PUSH1 0x40 MLOAD DUP1 SWAP2 SUB SWAP1 RETURN JUMPDEST PUSH2 0x25D PUSH1 0x4 DUP1 CALLDATASIZE SUB DUP2 ADD SWAP1 PUSH2 0x258 SWAP2 SWAP1 PUSH2 0x1253 JUMP JUMPDEST PUSH2 0x6ED JUMP JUMPDEST STOP JUMPDEST PUSH2 0x279 PUSH1 0x4 DUP1 CALLDATASIZE SUB DUP2 ADD SWAP1 PUSH2 0x274 SWAP2 SWAP1 PUSH2 0x1253 JUMP JUMPDEST PUSH2 0x78E JUMP JUMPDEST PUSH1 0x40 MLOAD PUSH2 0x286 SWAP2 SWAP1 PUSH2 0x12AE JUMP JUMPDEST PUSH1 0x40 MLOAD DUP1 SWAP2 SUB SWAP1 RETURN JUMPDEST PUSH2 0x2A9 PUSH1 0x4 DUP1 CALLDATASIZE SUB DUP2 ADD SWAP1 PUSH2 0x2A4 SWAP2 SWAP1 PUSH2 0x1253 JUMP JUMPDEST PUSH2 0x879 JUMP JUMPDEST PUSH1 0x40 MLOAD PUSH2 0x2B6 SWAP2 SWAP1 PUSH2 0x12AE JUMP JUMPDEST PUSH1 0x40 MLOAD DUP1 SWAP2 SUB SWAP1 RETURN JUMPDEST PUSH2 0x2D9 PUSH1 0x4 DUP1 CALLDATASIZE SUB DUP2 ADD SWAP1 PUSH2 0x2D4 SWAP2 SWAP1 PUSH2 0x137D JUMP JUMPDEST PUSH2 0x897 JUMP JUMPDEST STOP JUMPDEST PUSH2 0x2F5 PUSH1 0x4 DUP1 CALLDATASIZE SUB DUP2 ADD SWAP1 PUSH2 0x2F0 SWAP2 SWAP1 PUSH2 0x13AA JUMP JUMPDEST PUSH2 0x8F2 JUMP JUMPDEST PUSH1 0x40 MLOAD PUSH2 0x302 SWAP2 SWAP1 PUSH2 0x12D8 JUMP JUMPDEST PUSH1 0x40 MLOAD DUP1 SWAP2 SUB SWAP1 RETURN JUMPDEST PUSH1 0x60 PUSH1 0x3 DUP1 SLOAD PUSH2 0x31A SWAP1 PUSH2 0x1419 JUMP JUMPDEST DUP1 PUSH1 0x1F ADD PUSH1 0x20 DUP1 SWAP2 DIV MUL PUSH1 0x20 ADD PUSH1 0x40 MLOAD SWAP1 DUP2 ADD PUSH1 0x40 MSTORE DUP1 SWAP3 SWAP2 SWAP1 DUP2 DUP2 MSTORE PUSH1 0x20 ADD DUP3 DUP1 SLOAD PUSH2 0x346 SWAP1 PUSH2 0x1419 JUMP JUMPDEST DUP1 ISZERO PUSH2 0x393 JUMPI DUP1 PUSH1 0x1F LT PUSH2 0x368 JUMPI PUSH2 0x100 DUP1 DUP4 SLOAD DIV MUL DUP4 MSTORE SWAP2 PUSH1 0x20 ADD SWAP2 PUSH2 0x393 JUMP JUMPDEST DUP3 ADD SWAP2 SWAP1 PUSH1 0x0 MSTORE PUSH1 0x20 PUSH1 0x0 KECCAK256 SWAP1 JUMPDEST DUP2 SLOAD DUP2 MSTORE SWAP1 PUSH1 0x1 ADD SWAP1 PUSH1 0x20 ADD DUP1 DUP4 GT PUSH2 0x376 JUMPI DUP3 SWAP1 SUB PUSH1 0x1F AND DUP3 ADD SWAP2 JUMPDEST POP POP POP POP POP SWAP1 POP SWAP1 JUMP JUMPDEST PUSH1 0x0 PUSH2 0x3B1 PUSH2 0x3AA PUSH2 0x979 JUMP JUMPDEST DUP5 DUP5 PUSH2 0x981 JUMP JUMPDEST PUSH1 0x1 SWAP1 POP SWAP3 SWAP2 POP POP JUMP JUMPDEST PUSH1 0x0 PUSH1 0x2 SLOAD SWAP1 POP SWAP1 JUMP JUMPDEST PUSH1 0x0 PUSH2 0x3D2 DUP5 DUP5 DUP5 PUSH2 0xB4A JUMP JUMPDEST PUSH1 0x0 PUSH1 0x1 PUSH1 0x0 DUP7 PUSH20 0xFFFFFFFFFFFFFFFFFFFFFFFFFFFFFFFFFFFFFFFF AND PUSH20 0xFFFFFFFFFFFFFFFFFFFFFFFFFFFFFFFFFFFFFFFF AND DUP2 MSTORE PUSH1 0x20 ADD SWAP1 DUP2 MSTORE PUSH1 0x20 ADD PUSH1 0x0 KECCAK256 PUSH1 0x0 PUSH2 0x41D PUSH2 0x979 JUMP JUMPDEST PUSH20 0xFFFFFFFFFFFFFFFFFFFFFFFFFFFFFFFFFFFFFFFF AND PUSH20 0xFFFFFFFFFFFFFFFFFFFFFFFFFFFFFFFFFFFFFFFF AND DUP2 MSTORE PUSH1 0x20 ADD SWAP1 DUP2 MSTORE PUSH1 0x20 ADD PUSH1 0x0 KECCAK256 SLOAD SWAP1 POP DUP3 DUP2 LT ISZERO PUSH2 0x49D JUMPI PUSH1 0x40 MLOAD PUSH32 0x8C379A000000000000000000000000000000000000000000000000000000000 DUP2 MSTORE PUSH1 0x4 ADD PUSH2 0x494 SWAP1 PUSH2 0x14BC JUMP JUMPDEST PUSH1 0x40 MLOAD DUP1 SWAP2 SUB SWAP1 REVERT JUMPDEST PUSH2 0x4B1 DUP6 PUSH2 0x4A9 PUSH2 0x979 JUMP JUMPDEST DUP6 DUP5 SUB PUSH2 0x981 JUMP JUMPDEST PUSH1 0x1 SWAP2 POP POP SWAP4 SWAP3 POP POP POP JUMP JUMPDEST PUSH1 0x0 PUSH1 0x12 SWAP1 POP SWAP1 JUMP JUMPDEST PUSH1 0x0 PUSH2 0x568 PUSH2 0x4D3 PUSH2 0x979 JUMP JUMPDEST DUP5 DUP5 PUSH1 0x1 PUSH1 0x0 PUSH2 0x4E1 PUSH2 0x979 JUMP JUMPDEST PUSH20 0xFFFFFFFFFFFFFFFFFFFFFFFFFFFFFFFFFFFFFFFF AND PUSH20 0xFFFFFFFFFFFFFFFFFFFFFFFFFFFFFFFFFFFFFFFF AND DUP2 MSTORE PUSH1 0x20 ADD SWAP1 DUP2 MSTORE PUSH1 0x20 ADD PUSH1 0x0 KECCAK256 PUSH1 0x0 DUP9 PUSH20 0xFFFFFFFFFFFFFFFFFFFFFFFFFFFFFFFFFFFFFFFF AND PUSH20 0xFFFFFFFFFFFFFFFFFFFFFFFFFFFFFFFFFFFFFFFF AND DUP2 MSTORE PUSH1 0x20 ADD SWAP1 DUP2 MSTORE PUSH1 0x20 ADD PUSH1 0x0 KECCAK256 SLOAD PUSH2 0x563 SWAP2 SWAP1 PUSH2 0x150B JUMP JUMPDEST PUSH2 0x981 JUMP JUMPDEST PUSH1 0x1 SWAP1 POP SWAP3 SWAP2 POP POP JUMP JUMPDEST PUSH1 0x1 ISZERO ISZERO PUSH1 0x5 PUSH1 0x0 CALLER PUSH20 0xFFFFFFFFFFFFFFFFFFFFFFFFFFFFFFFFFFFFFFFF AND PUSH20 0xFFFFFFFFFFFFFFFFFFFFFFFFFFFFFFFFFFFFFFFF AND DUP2 MSTORE PUSH1 0x20 ADD SWAP1 DUP2 MSTORE PUSH1 0x20 ADD PUSH1 0x0 KECCAK256 PUSH1 0x0 SWAP1 SLOAD SWAP1 PUSH2 0x100 EXP SWAP1 DIV PUSH1 0xFF AND ISZERO ISZERO EQ PUSH2 0x605 JUMPI PUSH1 0x40 MLOAD PUSH32 0x8C379A000000000000000000000000000000000000000000000000000000000 DUP2 MSTORE PUSH1 0x4 ADD PUSH2 0x5FC SWAP1 PUSH2 0x158B JUMP JUMPDEST PUSH1 0x40 MLOAD DUP1 SWAP2 SUB SWAP1 REVERT JUMPDEST PUSH2 0x60F DUP3 DUP3 PUSH2 0xDC9 JUMP JUMPDEST POP POP JUMP JUMPDEST PUSH1 0x0 DUP1 PUSH1 0x0 DUP4 PUSH20 0xFFFFFFFFFFFFFFFFFFFFFFFFFFFFFFFFFFFFFFFF AND PUSH20 0xFFFFFFFFFFFFFFFFFFFFFFFFFFFFFFFFFFFFFFFF AND DUP2 MSTORE PUSH1 0x20 ADD SWAP1 DUP2 MSTORE PUSH1 0x20 ADD PUSH1 0x0 KECCAK256 SLOAD SWAP1 POP SWAP2 SWAP1 POP JUMP JUMPDEST PUSH1 0x60 PUSH1 0x4 DUP1 SLOAD PUSH2 0x66A SWAP1 PUSH2 0x1419 JUMP JUMPDEST DUP1 PUSH1 0x1F ADD PUSH1 0x20 DUP1 SWAP2 DIV MUL PUSH1 0x20 ADD PUSH1 0x40 MLOAD SWAP1 DUP2 ADD PUSH1 0x40 MSTORE DUP1 SWAP3 SWAP2 SWAP1 DUP2 DUP2 MSTORE PUSH1 0x20 ADD DUP3 DUP1 SLOAD PUSH2 0x696 SWAP1 PUSH2 0x1419 JUMP JUMPDEST DUP1 ISZERO PUSH2 0x6E3 JUMPI DUP1 PUSH1 0x1F LT PUSH2 0x6B8 JUMPI PUSH2 0x100 DUP1 DUP4 SLOAD DIV MUL DUP4 MSTORE SWAP2 PUSH1 0x20 ADD SWAP2 PUSH2 0x6E3 JUMP JUMPDEST DUP3 ADD SWAP2 SWAP1 PUSH1 0x0 MSTORE PUSH1 0x20 PUSH1 0x0 KECCAK256 SWAP1 JUMPDEST DUP2 SLOAD DUP2 MSTORE SWAP1 PUSH1 0x1 ADD SWAP1 PUSH1 0x20 ADD DUP1 DUP4 GT PUSH2 0x6C6 JUMPI DUP3 SWAP1 SUB PUSH1 0x1F AND DUP3 ADD SWAP2 JUMPDEST POP POP POP POP POP SWAP1 POP SWAP1 JUMP JUMPDEST PUSH1 0x1 ISZERO ISZERO PUSH1 0x5 PUSH1 0x0 CALLER PUSH20 0xFFFFFFFFFFFFFFFFFFFFFFFFFFFFFFFFFFFFFFFF AND PUSH20 0xFFFFFFFFFFFFFFFFFFFFFFFFFFFFFFFFFFFFFFFF AND DUP2 MSTORE PUSH1 0x20 ADD SWAP1 DUP2 MSTORE PUSH1 0x20 ADD PUSH1 0x0 KECCAK256 PUSH1 0x0 SWAP1 SLOAD SWAP1 PUSH2 0x100 EXP SWAP1 DIV PUSH1 0xFF AND ISZERO ISZERO EQ PUSH2 0x780 JUMPI PUSH1 0x40 MLOAD PUSH32 0x8C379A000000000000000000000000000000000000000000000000000000000 DUP2 MSTORE PUSH1 0x4 ADD PUSH2 0x777 SWAP1 PUSH2 0x15F7 JUMP JUMPDEST PUSH1 0x40 MLOAD DUP1 SWAP2 SUB SWAP1 REVERT JUMPDEST PUSH2 0x78A DUP3 DUP3 PUSH2 0xF28 JUMP JUMPDEST POP POP JUMP JUMPDEST PUSH1 0x0 DUP1 PUSH1 0x1 PUSH1 0x0 PUSH2 0x79D PUSH2 0x979 JUMP JUMPDEST PUSH20 0xFFFFFFFFFFFFFFFFFFFFFFFFFFFFFFFFFFFFFFFF AND PUSH20 0xFFFFFFFFFFFFFFFFFFFFFFFFFFFFFFFFFFFFFFFF AND DUP2 MSTORE PUSH1 0x20 ADD SWAP1 DUP2 MSTORE PUSH1 0x20 ADD PUSH1 0x0 KECCAK256 PUSH1 0x0 DUP6 PUSH20 0xFFFFFFFFFFFFFFFFFFFFFFFFFFFFFFFFFFFFFFFF AND PUSH20 0xFFFFFFFFFFFFFFFFFFFFFFFFFFFFFFFFFFFFFFFF AND DUP2 MSTORE PUSH1 0x20 ADD SWAP1 DUP2 MSTORE PUSH1 0x20 ADD PUSH1 0x0 KECCAK256 SLOAD SWAP1 POP DUP3 DUP2 LT ISZERO PUSH2 0x85A JUMPI PUSH1 0x40 MLOAD PUSH32 0x8C379A000000000000000000000000000000000000000000000000000000000 DUP2 MSTORE PUSH1 0x4 ADD PUSH2 0x851 SWAP1 PUSH2 0x1689 JUMP JUMPDEST PUSH1 0x40 MLOAD DUP1 SWAP2 SUB SWAP1 REVERT JUMPDEST PUSH2 0x86E PUSH2 0x865 PUSH2 0x979 JUMP JUMPDEST DUP6 DUP6 DUP5 SUB PUSH2 0x981 JUMP JUMPDEST PUSH1 0x1 SWAP2 POP POP SWAP3 SWAP2 POP POP JUMP JUMPDEST PUSH1 0x0 PUSH2 0x88D PUSH2 0x886 PUSH2 0x979 JUMP JUMPDEST DUP5 DUP5 PUSH2 0xB4A JUMP JUMPDEST PUSH1 0x1 SWAP1 POP SWAP3 SWAP2 POP POP JUMP JUMPDEST PUSH1 0x1 PUSH1 0x5 PUSH1 0x0 DUP4 PUSH20 0xFFFFFFFFFFFFFFFFFFFFFFFFFFFFFFFFFFFFFFFF AND PUSH20 0xFFFFFFFFFFFFFFFFFFFFFFFFFFFFFFFFFFFFFFFF AND DUP2 MSTORE PUSH1 0x20 ADD SWAP1 DUP2 MSTORE PUSH1 0x20 ADD PUSH1 0x0 KECCAK256 PUSH1 0x0 PUSH2 0x100 EXP DUP2 SLOAD DUP2 PUSH1 0xFF MUL NOT AND SWAP1 DUP4 ISZERO ISZERO MUL OR SWAP1 SSTORE POP POP JUMP JUMPDEST PUSH1 0x0 PUSH1 0x1 PUSH1 0x0 DUP5 PUSH20 0xFFFFFFFFFFFFFFFFFFFFFFFFFFFFFFFFFFFFFFFF AND PUSH20 0xFFFFFFFFFFFFFFFFFFFFFFFFFFFFFFFFFFFFFFFF AND DUP2 MSTORE PUSH1 0x20 ADD SWAP1 DUP2 MSTORE PUSH1 0x20 ADD PUSH1 0x0 KECCAK256 PUSH1 0x0 DUP4 PUSH20 0xFFFFFFFFFFFFFFFFFFFFFFFFFFFFFFFFFFFFFFFF AND PUSH20 0xFFFFFFFFFFFFFFFFFFFFFFFFFFFFFFFFFFFFFFFF AND DUP2 MSTORE PUSH1 0x20 ADD SWAP1 DUP2 MSTORE PUSH1 0x20 ADD PUSH1 0x0 KECCAK256 SLOAD SWAP1 POP SWAP3 SWAP2 POP POP JUMP JUMPDEST PUSH1 0x0 CALLER SWAP1 POP SWAP1 JUMP JUMPDEST PUSH1 0x0 PUSH20 0xFFFFFFFFFFFFFFFFFFFFFFFFFFFFFFFFFFFFFFFF AND DUP4 PUSH20 0xFFFFFFFFFFFFFFFFFFFFFFFFFFFFFFFFFFFFFFFF AND SUB PUSH2 0x9F0 JUMPI PUSH1 0x40 MLOAD PUSH32 0x8C379A000000000000000000000000000000000000000000000000000000000 DUP2 MSTORE PUSH1 0x4 ADD PUSH2 0x9E7 SWAP1 PUSH2 0x171B JUMP JUMPDEST PUSH1 0x40 MLOAD DUP1 SWAP2 SUB SWAP1 REVERT JUMPDEST PUSH1 0x0 PUSH20 0xFFFFFFFFFFFFFFFFFFFFFFFFFFFFFFFFFFFFFFFF AND DUP3 PUSH20 0xFFFFFFFFFFFFFFFFFFFFFFFFFFFFFFFFFFFFFFFF AND SUB PUSH2 0xA5F JUMPI PUSH1 0x40 MLOAD PUSH32 0x8C379A000000000000000000000000000000000000000000000000000000000 DUP2 MSTORE PUSH1 0x4 ADD PUSH2 0xA56 SWAP1 PUSH2 0x17AD JUMP JUMPDEST PUSH1 0x40 MLOAD DUP1 SWAP2 SUB SWAP1 REVERT JUMPDEST DUP1 PUSH1 0x1 PUSH1 0x0 DUP6 PUSH20 0xFFFFFFFFFFFFFFFFFFFFFFFFFFFFFFFFFFFFFFFF AND PUSH20 0xFFFFFFFFFFFFFFFFFFFFFFFFFFFFFFFFFFFFFFFF AND DUP2 MSTORE PUSH1 0x20 ADD SWAP1 DUP2 MSTORE PUSH1 0x20 ADD PUSH1 0x0 KECCAK256 PUSH1 0x0 DUP5 PUSH20 0xFFFFFFFFFFFFFFFFFFFFFFFFFFFFFFFFFFFFFFFF AND PUSH20 0xFFFFFFFFFFFFFFFFFFFFFFFFFFFFFFFFFFFFFFFF AND DUP2 MSTORE PUSH1 0x20 ADD SWAP1 DUP2 MSTORE PUSH1 0x20 ADD PUSH1 0x0 KECCAK256 DUP2 SWAP1 SSTORE POP DUP2 PUSH20 0xFFFFFFFFFFFFFFFFFFFFFFFFFFFFFFFFFFFFFFFF AND DUP4 PUSH20 0xFFFFFFFFFFFFFFFFFFFFFFFFFFFFFFFFFFFFFFFF AND PUSH32 0x8C5BE1E5EBEC7D5BD14F71427D1E84F3DD0314C0F7B2291E5B200AC8C7C3B925 DUP4 PUSH1 0x40 MLOAD PUSH2 0xB3D SWAP2 SWAP1 PUSH2 0x12D8 JUMP JUMPDEST PUSH1 0x40 MLOAD DUP1 SWAP2 SUB SWAP1 LOG3 POP POP POP JUMP JUMPDEST PUSH1 0x0 PUSH20 0xFFFFFFFFFFFFFFFFFFFFFFFFFFFFFFFFFFFFFFFF AND DUP4 PUSH20 0xFFFFFFFFFFFFFFFFFFFFFFFFFFFFFFFFFFFFFFFF AND SUB PUSH2 0xBB9 JUMPI PUSH1 0x40 MLOAD PUSH32 0x8C379A000000000000000000000000000000000000000000000000000000000 DUP2 MSTORE PUSH1 0x4 ADD PUSH2 0xBB0 SWAP1 PUSH2 0x183F JUMP JUMPDEST PUSH1 0x40 MLOAD DUP1 SWAP2 SUB SWAP1 REVERT JUMPDEST PUSH1 0x0 PUSH20 0xFFFFFFFFFFFFFFFFFFFFFFFFFFFFFFFFFFFFFFFF AND DUP3 PUSH20 0xFFFFFFFFFFFFFFFFFFFFFFFFFFFFFFFFFFFFFFFF AND SUB PUSH2 0xC28 JUMPI PUSH1 0x40 MLOAD PUSH32 0x8C379A000000000000000000000000000000000000000000000000000000000 DUP2 MSTORE PUSH1 0x4 ADD PUSH2 0xC1F SWAP1 PUSH2 0x18D1 JUMP JUMPDEST PUSH1 0x40 MLOAD DUP1 SWAP2 SUB SWAP1 REVERT JUMPDEST PUSH2 0xC33 DUP4 DUP4 DUP4 PUSH2 0x10FE JUMP JUMPDEST PUSH1 0x0 DUP1 PUSH1 0x0 DUP6 PUSH20 0xFFFFFFFFFFFFFFFFFFFFFFFFFFFFFFFFFFFFFFFF AND PUSH20 0xFFFFFFFFFFFFFFFFFFFFFFFFFFFFFFFFFFFFFFFF AND DUP2 MSTORE PUSH1 0x20 ADD SWAP1 DUP2 MSTORE PUSH1 0x20 ADD PUSH1 0x0 KECCAK256 SLOAD SWAP1 POP DUP2 DUP2 LT ISZERO PUSH2 0xCB9 JUMPI PUSH1 0x40 MLOAD PUSH32 0x8C379A000000000000000000000000000000000000000000000000000000000 DUP2 MSTORE PUSH1 0x4 ADD PUSH2 0xCB0 SWAP1 PUSH2 0x1963 JUMP JUMPDEST PUSH1 0x40 MLOAD DUP1 SWAP2 SUB SWAP1 REVERT JUMPDEST DUP2 DUP2 SUB PUSH1 0x0 DUP1 DUP7 PUSH20 0xFFFFFFFFFFFFFFFFFFFFFFFFFFFFFFFFFFFFFFFF AND PUSH20 0xFFFFFFFFFFFFFFFFFFFFFFFFFFFFFFFFFFFFFFFF AND DUP2 MSTORE PUSH1 0x20 ADD SWAP1 DUP2 MSTORE PUSH1 0x20 ADD PUSH1 0x0 KECCAK256 DUP2 SWAP1 SSTORE POP DUP2 PUSH1 0x0 DUP1 DUP6 PUSH20 0xFFFFFFFFFFFFFFFFFFFFFFFFFFFFFFFFFFFFFFFF AND PUSH20 0xFFFFFFFFFFFFFFFFFFFFFFFFFFFFFFFFFFFFFFFF AND DUP2 MSTORE PUSH1 0x20 ADD SWAP1 DUP2 MSTORE PUSH1 0x20 ADD PUSH1 0x0 KECCAK256 PUSH1 0x0 DUP3 DUP3 SLOAD PUSH2 0xD4C SWAP2 SWAP1 PUSH2 0x150B JUMP JUMPDEST SWAP3 POP POP DUP2 SWAP1 SSTORE POP DUP3 PUSH20 0xFFFFFFFFFFFFFFFFFFFFFFFFFFFFFFFFFFFFFFFF AND DUP5 PUSH20 0xFFFFFFFFFFFFFFFFFFFFFFFFFFFFFFFFFFFFFFFF AND PUSH32 0xDDF252AD1BE2C89B69C2B068FC378DAA952BA7F163C4A11628F55A4DF523B3EF DUP5 PUSH1 0x40 MLOAD PUSH2 0xDB0 SWAP2 SWAP1 PUSH2 0x12D8 JUMP JUMPDEST PUSH1 0x40 MLOAD DUP1 SWAP2 SUB SWAP1 LOG3 PUSH2 0xDC3 DUP5 DUP5 DUP5 PUSH2 0x1103 JUMP JUMPDEST POP POP POP POP JUMP JUMPDEST PUSH1 0x0 PUSH20 0xFFFFFFFFFFFFFFFFFFFFFFFFFFFFFFFFFFFFFFFF AND DUP3 PUSH20 0xFFFFFFFFFFFFFFFFFFFFFFFFFFFFFFFFFFFFFFFF AND SUB PUSH2 0xE38 JUMPI PUSH1 0x40 MLOAD PUSH32 0x8C379A000000000000000000000000000000000000000000000000000000000 DUP2 MSTORE PUSH1 0x4 ADD PUSH2 0xE2F SWAP1 PUSH2 0x19CF JUMP JUMPDEST PUSH1 0x40 MLOAD DUP1 SWAP2 SUB SWAP1 REVERT JUMPDEST PUSH2 0xE44 PUSH1 0x0 DUP4 DUP4 PUSH2 0x10FE JUMP JUMPDEST DUP1 PUSH1 0x2 PUSH1 0x0 DUP3 DUP3 SLOAD PUSH2 0xE56 SWAP2 SWAP1 PUSH2 0x150B JUMP JUMPDEST SWAP3 POP POP DUP2 SWAP1 SSTORE POP DUP1 PUSH1 0x0 DUP1 DUP5 PUSH20 0xFFFFFFFFFFFFFFFFFFFFFFFFFFFFFFFFFFFFFFFF AND PUSH20 0xFFFFFFFFFFFFFFFFFFFFFFFFFFFFFFFFFFFFFFFF AND DUP2 MSTORE PUSH1 0x20 ADD SWAP1 DUP2 MSTORE PUSH1 0x20 ADD PUSH1 0x0 KECCAK256 PUSH1 0x0 DUP3 DUP3 SLOAD PUSH2 0xEAB SWAP2 SWAP1 PUSH2 0x150B JUMP JUMPDEST SWAP3 POP POP DUP2 SWAP1 SSTORE POP DUP2 PUSH20 0xFFFFFFFFFFFFFFFFFFFFFFFFFFFFFFFFFFFFFFFF AND PUSH1 0x0 PUSH20 0xFFFFFFFFFFFFFFFFFFFFFFFFFFFFFFFFFFFFFFFF AND PUSH32 0xDDF252AD1BE2C89B69C2B068FC378DAA952BA7F163C4A11628F55A4DF523B3EF DUP4 PUSH1 0x40 MLOAD PUSH2 0xF10 SWAP2 SWAP1 PUSH2 0x12D8 JUMP JUMPDEST PUSH1 0x40 MLOAD DUP1 SWAP2 SUB SWAP1 LOG3 PUSH2 0xF24 PUSH1 0x0 DUP4 DUP4 PUSH2 0x1103 JUMP JUMPDEST POP POP JUMP JUMPDEST PUSH1 0x0 PUSH20 0xFFFFFFFFFFFFFFFFFFFFFFFFFFFFFFFFFFFFFFFF AND DUP3 PUSH20 0xFFFFFFFFFFFFFFFFFFFFFFFFFFFFFFFFFFFFFFFF AND SUB PUSH2 0xF97 JUMPI PUSH1 0x40 MLOAD PUSH32 0x8C379A000000000000000000000000000000000000000000000000000000000 DUP2 MSTORE PUSH1 0x4 ADD PUSH2 0xF8E SWAP1 PUSH2 0x1A61 JUMP JUMPDEST PUSH1 0x40 MLOAD DUP1 SWAP2 SUB SWAP1 REVERT JUMPDEST PUSH2 0xFA3 DUP3 PUSH1 0x0 DUP4 PUSH2 0x10FE JUMP JUMPDEST PUSH1 0x0 DUP1 PUSH1 0x0 DUP5 PUSH20 0xFFFFFFFFFFFFFFFFFFFFFFFFFFFFFFFFFFFFFFFF AND PUSH20 0xFFFFFFFFFFFFFFFFFFFFFFFFFFFFFFFFFFFFFFFF AND DUP2 MSTORE PUSH1 0x20 ADD SWAP1 DUP2 MSTORE PUSH1 0x20 ADD PUSH1 0x0 KECCAK256 SLOAD SWAP1 POP DUP2 DUP2 LT ISZERO PUSH2 0x1029 JUMPI PUSH1 0x40 MLOAD PUSH32 0x8C379A000000000000000000000000000000000000000000000000000000000 DUP2 MSTORE PUSH1 0x4 ADD PUSH2 0x1020 SWAP1 PUSH2 0x1AF3 JUMP JUMPDEST PUSH1 0x40 MLOAD DUP1 SWAP2 SUB SWAP1 REVERT JUMPDEST DUP2 DUP2 SUB PUSH1 0x0 DUP1 DUP6 PUSH20 0xFFFFFFFFFFFFFFFFFFFFFFFFFFFFFFFFFFFFFFFF AND PUSH20 0xFFFFFFFFFFFFFFFFFFFFFFFFFFFFFFFFFFFFFFFF AND DUP2 MSTORE PUSH1 0x20 ADD SWAP1 DUP2 MSTORE PUSH1 0x20 ADD PUSH1 0x0 KECCAK256 DUP2 SWAP1 SSTORE POP DUP2 PUSH1 0x2 PUSH1 0x0 DUP3 DUP3 SLOAD PUSH2 0x1080 SWAP2 SWAP1 PUSH2 0x1B13 JUMP JUMPDEST SWAP3 POP POP DUP2 SWAP1 SSTORE POP PUSH1 0x0 PUSH20 0xFFFFFFFFFFFFFFFFFFFFFFFFFFFFFFFFFFFFFFFF AND DUP4 PUSH20 0xFFFFFFFFFFFFFFFFFFFFFFFFFFFFFFFFFFFFFFFF AND PUSH32 0xDDF252AD1BE2C89B69C2B068FC378DAA952BA7F163C4A11628F55A4DF523B3EF DUP5 PUSH1 0x40 MLOAD PUSH2 0x10E5 SWAP2 SWAP1 PUSH2 0x12D8 JUMP JUMPDEST PUSH1 0x40 MLOAD DUP1 SWAP2 SUB SWAP1 LOG3 PUSH2 0x10F9 DUP4 PUSH1 0x0 DUP5 PUSH2 0x1103 JUMP JUMPDEST POP POP POP JUMP JUMPDEST POP POP POP JUMP JUMPDEST POP POP POP JUMP JUMPDEST PUSH1 0x0 DUP2 MLOAD SWAP1 POP SWAP2 SWAP1 POP JUMP JUMPDEST PUSH1 0x0 DUP3 DUP3 MSTORE PUSH1 0x20 DUP3 ADD SWAP1 POP SWAP3 SWAP2 POP POP JUMP JUMPDEST PUSH1 0x0 JUMPDEST DUP4 DUP2 LT ISZERO PUSH2 0x1142 JUMPI DUP1 DUP3 ADD MLOAD DUP2 DUP5 ADD MSTORE PUSH1 0x20 DUP2 ADD SWAP1 POP PUSH2 0x1127 JUMP JUMPDEST PUSH1 0x0 DUP5 DUP5 ADD MSTORE POP POP POP POP JUMP JUMPDEST PUSH1 0x0 PUSH1 0x1F NOT PUSH1 0x1F DUP4 ADD AND SWAP1 POP SWAP2 SWAP1 POP JUMP JUMPDEST PUSH1 0x0 PUSH2 0x116A DUP3 PUSH2 0x1108 JUMP JUMPDEST PUSH2 0x1174 DUP2 DUP6 PUSH2 0x1113 JUMP JUMPDEST SWAP4 POP PUSH2 0x1184 DUP2 DUP6 PUSH1 0x20 DUP7 ADD PUSH2 0x1124 JUMP JUMPDEST PUSH2 0x118D DUP2 PUSH2 0x114E JUMP JUMPDEST DUP5 ADD SWAP2 POP POP SWAP3 SWAP2 POP POP JUMP JUMPDEST PUSH1 0x0 PUSH1 0x20 DUP3 ADD SWAP1 POP DUP2 DUP2 SUB PUSH1 0x0 DUP4 ADD MSTORE PUSH2 0x11B2 DUP2 DUP5 PUSH2 0x115F JUMP JUMPDEST SWAP1 POP SWAP3 SWAP2 POP POP JUMP JUMPDEST PUSH1 0x0 DUP1 REVERT JUMPDEST PUSH1 0x0 PUSH20 0xFFFFFFFFFFFFFFFFFFFFFFFFFFFFFFFFFFFFFFFF DUP3 AND SWAP1 POP SWAP2 SWAP1 POP JUMP JUMPDEST PUSH1 0x0 PUSH2 0x11EA DUP3 PUSH2 0x11BF JUMP JUMPDEST SWAP1 POP SWAP2 SWAP1 POP JUMP JUMPDEST PUSH2 0x11FA DUP2 PUSH2 0x11DF JUMP JUMPDEST DUP2 EQ PUSH2 0x1205 JUMPI PUSH1 0x0 DUP1 REVERT JUMPDEST POP JUMP JUMPDEST PUSH1 0x0 DUP2 CALLDATALOAD SWAP1 POP PUSH2 0x1217 DUP2 PUSH2 0x11F1 JUMP JUMPDEST SWAP3 SWAP2 POP POP JUMP JUMPDEST PUSH1 0x0 DUP2 SWAP1 POP SWAP2 SWAP1 POP JUMP JUMPDEST PUSH2 0x1230 DUP2 PUSH2 0x121D JUMP JUMPDEST DUP2 EQ PUSH2 0x123B JUMPI PUSH1 0x0 DUP1 REVERT JUMPDEST POP JUMP JUMPDEST PUSH1 0x0 DUP2 CALLDATALOAD SWAP1 POP PUSH2 0x124D DUP2 PUSH2 0x1227 JUMP JUMPDEST SWAP3 SWAP2 POP POP JUMP JUMPDEST PUSH1 0x0 DUP1 PUSH1 0x40 DUP4 DUP6 SUB SLT ISZERO PUSH2 0x126A JUMPI PUSH2 0x1269 PUSH2 0x11BA JUMP JUMPDEST JUMPDEST PUSH1 0x0 PUSH2 0x1278 DUP6 DUP3 DUP7 ADD PUSH2 0x1208 JUMP JUMPDEST SWAP3 POP POP PUSH1 0x20 PUSH2 0x1289 DUP6 DUP3 DUP7 ADD PUSH2 0x123E JUMP JUMPDEST SWAP2 POP POP SWAP3 POP SWAP3 SWAP1 POP JUMP JUMPDEST PUSH1 0x0 DUP2 ISZERO ISZERO SWAP1 POP SWAP2 SWAP1 POP JUMP JUMPDEST PUSH2 0x12A8 DUP2 PUSH2 0x1293 JUMP JUMPDEST DUP3 MSTORE POP POP JUMP JUMPDEST PUSH1 0x0 PUSH1 0x20 DUP3 ADD SWAP1 POP PUSH2 0x12C3 PUSH1 0x0 DUP4 ADD DUP5 PUSH2 0x129F JUMP JUMPDEST SWAP3 SWAP2 POP POP JUMP JUMPDEST PUSH2 0x12D2 DUP2 PUSH2 0x121D JUMP JUMPDEST DUP3 MSTORE POP POP JUMP JUMPDEST PUSH1 0x0 PUSH1 0x20 DUP3 ADD SWAP1 POP PUSH2 0x12ED PUSH1 0x0 DUP4 ADD DUP5 PUSH2 0x12C9 JUMP JUMPDEST SWAP3 SWAP2 POP POP JUMP JUMPDEST PUSH1 0x0 DUP1 PUSH1 0x0 PUSH1 0x60 DUP5 DUP7 SUB SLT ISZERO PUSH2 0x130C JUMPI PUSH2 0x130B PUSH2 0x11BA JUMP JUMPDEST JUMPDEST PUSH1 0x0 PUSH2 0x131A DUP7 DUP3 DUP8 ADD PUSH2 0x1208 JUMP JUMPDEST SWAP4 POP POP PUSH1 0x20 PUSH2 0x132B DUP7 DUP3 DUP8 ADD PUSH2 0x1208 JUMP JUMPDEST SWAP3 POP POP PUSH1 0x40 PUSH2 0x133C DUP7 DUP3 DUP8 ADD PUSH2 0x123E JUMP JUMPDEST SWAP2 POP POP SWAP3 POP SWAP3 POP SWAP3 JUMP JUMPDEST PUSH1 0x0 PUSH1 0xFF DUP3 AND SWAP1 POP SWAP2 SWAP1 POP JUMP JUMPDEST PUSH2 0x135C DUP2 PUSH2 0x1346 JUMP JUMPDEST DUP3 MSTORE POP POP JUMP JUMPDEST PUSH1 0x0 PUSH1 0x20 DUP3 ADD SWAP1 POP PUSH2 0x1377 PUSH1 0x0 DUP4 ADD DUP5 PUSH2 0x1353 JUMP JUMPDEST SWAP3 SWAP2 POP POP JUMP JUMPDEST PUSH1 0x0 PUSH1 0x20 DUP3 DUP5 SUB SLT ISZERO PUSH2 0x1393 JUMPI PUSH2 0x1392 PUSH2 0x11BA JUMP JUMPDEST JUMPDEST PUSH1 0x0 PUSH2 0x13A1 DUP5 DUP3 DUP6 ADD PUSH2 0x1208 JUMP JUMPDEST SWAP2 POP POP SWAP3 SWAP2 POP POP JUMP JUMPDEST PUSH1 0x0 DUP1 PUSH1 0x40 DUP4 DUP6 SUB SLT ISZERO PUSH2 0x13C1 JUMPI PUSH2 0x13C0 PUSH2 0x11BA JUMP JUMPDEST JUMPDEST PUSH1 0x0 PUSH2 0x13CF DUP6 DUP3 DUP7 ADD PUSH2 0x1208 JUMP JUMPDEST SWAP3 POP POP PUSH1 0x20 PUSH2 0x13E0 DUP6 DUP3 DUP7 ADD PUSH2 0x1208 JUMP JUMPDEST SWAP2 POP POP SWAP3 POP SWAP3 SWAP1 POP JUMP JUMPDEST PUSH32 0x4E487B7100000000000000000000000000000000000000000000000000000000 PUSH1 0x0 MSTORE PUSH1 0x22 PUSH1 0x4 MSTORE PUSH1 0x24 PUSH1 0x0 REVERT JUMPDEST PUSH1 0x0 PUSH1 0x2 DUP3 DIV SWAP1 POP PUSH1 0x1 DUP3 AND DUP1 PUSH2 0x1431 JUMPI PUSH1 0x7F DUP3 AND SWAP2 POP JUMPDEST PUSH1 0x20 DUP3 LT DUP2 SUB PUSH2 0x1444 JUMPI PUSH2 0x1443 PUSH2 0x13EA JUMP JUMPDEST JUMPDEST POP SWAP2 SWAP1 POP JUMP JUMPDEST PUSH32 0x45524332303A207472616E7366657220616D6F756E7420657863656564732061 PUSH1 0x0 DUP3 ADD MSTORE PUSH32 0x6C6C6F77616E6365000000000000000000000000000000000000000000000000 PUSH1 0x20 DUP3 ADD MSTORE POP JUMP JUMPDEST PUSH1 0x0 PUSH2 0x14A6 PUSH1 0x28 DUP4 PUSH2 0x1113 JUMP JUMPDEST SWAP2 POP PUSH2 0x14B1 DUP3 PUSH2 0x144A JUMP JUMPDEST PUSH1 0x40 DUP3 ADD SWAP1 POP SWAP2 SWAP1 POP JUMP JUMPDEST PUSH1 0x0 PUSH1 0x20 DUP3 ADD SWAP1 POP DUP2 DUP2 SUB PUSH1 0x0 DUP4 ADD MSTORE PUSH2 0x14D5 DUP2 PUSH2 0x1499 JUMP JUMPDEST SWAP1 POP SWAP2 SWAP1 POP JUMP JUMPDEST PUSH32 0x4E487B7100000000000000000000000000000000000000000000000000000000 PUSH1 0x0 MSTORE PUSH1 0x11 PUSH1 0x4 MSTORE PUSH1 0x24 PUSH1 0x0 REVERT JUMPDEST PUSH1 0x0 PUSH2 0x1516 DUP3 PUSH2 0x121D JUMP JUMPDEST SWAP2 POP PUSH2 0x1521 DUP4 PUSH2 0x121D JUMP JUMPDEST SWAP3 POP DUP3 DUP3 ADD SWAP1 POP DUP1 DUP3 GT ISZERO PUSH2 0x1539 JUMPI PUSH2 0x1538 PUSH2 0x14DC JUMP JUMPDEST JUMPDEST SWAP3 SWAP2 POP POP JUMP JUMPDEST PUSH32 0x796F7520617265206E6F7420617070726F7665642020746F206D696E74000000 PUSH1 0x0 DUP3 ADD MSTORE POP JUMP JUMPDEST PUSH1 0x0 PUSH2 0x1575 PUSH1 0x1D DUP4 PUSH2 0x1113 JUMP JUMPDEST SWAP2 POP PUSH2 0x1580 DUP3 PUSH2 0x153F JUMP JUMPDEST PUSH1 0x20 DUP3 ADD SWAP1 POP SWAP2 SWAP1 POP JUMP JUMPDEST PUSH1 0x0 PUSH1 0x20 DUP3 ADD SWAP1 POP DUP2 DUP2 SUB PUSH1 0x0 DUP4 ADD MSTORE PUSH2 0x15A4 DUP2 PUSH2 0x1568 JUMP JUMPDEST SWAP1 POP SWAP2 SWAP1 POP JUMP JUMPDEST PUSH32 0x796F7520617265206E6F7420617070726F7665642020746F206275726E000000 PUSH1 0x0 DUP3 ADD MSTORE POP JUMP JUMPDEST PUSH1 0x0 PUSH2 0x15E1 PUSH1 0x1D DUP4 PUSH2 0x1113 JUMP JUMPDEST SWAP2 POP PUSH2 0x15EC DUP3 PUSH2 0x15AB JUMP JUMPDEST PUSH1 0x20 DUP3 ADD SWAP1 POP SWAP2 SWAP1 POP JUMP JUMPDEST PUSH1 0x0 PUSH1 0x20 DUP3 ADD SWAP1 POP DUP2 DUP2 SUB PUSH1 0x0 DUP4 ADD MSTORE PUSH2 0x1610 DUP2 PUSH2 0x15D4 JUMP JUMPDEST SWAP1 POP SWAP2 SWAP1 POP JUMP JUMPDEST PUSH32 0x45524332303A2064656372656173656420616C6C6F77616E63652062656C6F77 PUSH1 0x0 DUP3 ADD MSTORE PUSH32 0x207A65726F000000000000000000000000000000000000000000000000000000 PUSH1 0x20 DUP3 ADD MSTORE POP JUMP JUMPDEST PUSH1 0x0 PUSH2 0x1673 PUSH1 0x25 DUP4 PUSH2 0x1113 JUMP JUMPDEST SWAP2 POP PUSH2 0x167E DUP3 PUSH2 0x1617 JUMP JUMPDEST PUSH1 0x40 DUP3 ADD SWAP1 POP SWAP2 SWAP1 POP JUMP JUMPDEST PUSH1 0x0 PUSH1 0x20 DUP3 ADD SWAP1 POP DUP2 DUP2 SUB PUSH1 0x0 DUP4 ADD MSTORE PUSH2 0x16A2 DUP2 PUSH2 0x1666 JUMP JUMPDEST SWAP1 POP SWAP2 SWAP1 POP JUMP JUMPDEST PUSH32 0x45524332303A20617070726F76652066726F6D20746865207A65726F20616464 PUSH1 0x0 DUP3 ADD MSTORE PUSH32 0x7265737300000000000000000000000000000000000000000000000000000000 PUSH1 0x20 DUP3 ADD MSTORE POP JUMP JUMPDEST PUSH1 0x0 PUSH2 0x1705 PUSH1 0x24 DUP4 PUSH2 0x1113 JUMP JUMPDEST SWAP2 POP PUSH2 0x1710 DUP3 PUSH2 0x16A9 JUMP JUMPDEST PUSH1 0x40 DUP3 ADD SWAP1 POP SWAP2 SWAP1 POP JUMP JUMPDEST PUSH1 0x0 PUSH1 0x20 DUP3 ADD SWAP1 POP DUP2 DUP2 SUB PUSH1 0x0 DUP4 ADD MSTORE PUSH2 0x1734 DUP2 PUSH2 0x16F8 JUMP JUMPDEST SWAP1 POP SWAP2 SWAP1 POP JUMP JUMPDEST PUSH32 0x45524332303A20617070726F766520746F20746865207A65726F206164647265 PUSH1 0x0 DUP3 ADD MSTORE PUSH32 0x7373000000000000000000000000000000000000000000000000000000000000 PUSH1 0x20 DUP3 ADD MSTORE POP JUMP JUMPDEST PUSH1 0x0 PUSH2 0x1797 PUSH1 0x22 DUP4 PUSH2 0x1113 JUMP JUMPDEST SWAP2 POP PUSH2 0x17A2 DUP3 PUSH2 0x173B JUMP JUMPDEST PUSH1 0x40 DUP3 ADD SWAP1 POP SWAP2 SWAP1 POP JUMP JUMPDEST PUSH1 0x0 PUSH1 0x20 DUP3 ADD SWAP1 POP DUP2 DUP2 SUB PUSH1 0x0 DUP4 ADD MSTORE PUSH2 0x17C6 DUP2 PUSH2 0x178A JUMP JUMPDEST SWAP1 POP SWAP2 SWAP1 POP JUMP JUMPDEST PUSH32 0x45524332303A207472616E736665722066726F6D20746865207A65726F206164 PUSH1 0x0 DUP3 ADD MSTORE PUSH32 0x6472657373000000000000000000000000000000000000000000000000000000 PUSH1 0x20 DUP3 ADD MSTORE POP JUMP JUMPDEST PUSH1 0x0 PUSH2 0x1829 PUSH1 0x25 DUP4 PUSH2 0x1113 JUMP JUMPDEST SWAP2 POP PUSH2 0x1834 DUP3 PUSH2 0x17CD JUMP JUMPDEST PUSH1 0x40 DUP3 ADD SWAP1 POP SWAP2 SWAP1 POP JUMP JUMPDEST PUSH1 0x0 PUSH1 0x20 DUP3 ADD SWAP1 POP DUP2 DUP2 SUB PUSH1 0x0 DUP4 ADD MSTORE PUSH2 0x1858 DUP2 PUSH2 0x181C JUMP JUMPDEST SWAP1 POP SWAP2 SWAP1 POP JUMP JUMPDEST PUSH32 0x45524332303A207472616E7366657220746F20746865207A65726F2061646472 PUSH1 0x0 DUP3 ADD MSTORE PUSH32 0x6573730000000000000000000000000000000000000000000000000000000000 PUSH1 0x20 DUP3 ADD MSTORE POP JUMP JUMPDEST PUSH1 0x0 PUSH2 0x18BB PUSH1 0x23 DUP4 PUSH2 0x1113 JUMP JUMPDEST SWAP2 POP PUSH2 0x18C6 DUP3 PUSH2 0x185F JUMP JUMPDEST PUSH1 0x40 DUP3 ADD SWAP1 POP SWAP2 SWAP1 POP JUMP JUMPDEST PUSH1 0x0 PUSH1 0x20 DUP3 ADD SWAP1 POP DUP2 DUP2 SUB PUSH1 0x0 DUP4 ADD MSTORE PUSH2 0x18EA DUP2 PUSH2 0x18AE JUMP JUMPDEST SWAP1 POP SWAP2 SWAP1 POP JUMP JUMPDEST PUSH32 0x45524332303A207472616E7366657220616D6F756E7420657863656564732062 PUSH1 0x0 DUP3 ADD MSTORE PUSH32 0x616C616E63650000000000000000000000000000000000000000000000000000 PUSH1 0x20 DUP3 ADD MSTORE POP JUMP JUMPDEST PUSH1 0x0 PUSH2 0x194D PUSH1 0x26 DUP4 PUSH2 0x1113 JUMP JUMPDEST SWAP2 POP PUSH2 0x1958 DUP3 PUSH2 0x18F1 JUMP JUMPDEST PUSH1 0x40 DUP3 ADD SWAP1 POP SWAP2 SWAP1 POP JUMP JUMPDEST PUSH1 0x0 PUSH1 0x20 DUP3 ADD SWAP1 POP DUP2 DUP2 SUB PUSH1 0x0 DUP4 ADD MSTORE PUSH2 0x197C DUP2 PUSH2 0x1940 JUMP JUMPDEST SWAP1 POP SWAP2 SWAP1 POP JUMP JUMPDEST PUSH32 0x45524332303A206D696E7420746F20746865207A65726F206164647265737300 PUSH1 0x0 DUP3 ADD MSTORE POP JUMP JUMPDEST PUSH1 0x0 PUSH2 0x19B9 PUSH1 0x1F DUP4 PUSH2 0x1113 JUMP JUMPDEST SWAP2 POP PUSH2 0x19C4 DUP3 PUSH2 0x1983 JUMP JUMPDEST PUSH1 0x20 DUP3 ADD SWAP1 POP SWAP2 SWAP1 POP JUMP JUMPDEST PUSH1 0x0 PUSH1 0x20 DUP3 ADD SWAP1 POP DUP2 DUP2 SUB PUSH1 0x0 DUP4 ADD MSTORE PUSH2 0x19E8 DUP2 PUSH2 0x19AC JUMP JUMPDEST SWAP1 POP SWAP2 SWAP1 POP JUMP JUMPDEST PUSH32 0x45524332303A206275726E2066726F6D20746865207A65726F20616464726573 PUSH1 0x0 DUP3 ADD MSTORE PUSH32 0x7300000000000000000000000000000000000000000000000000000000000000 PUSH1 0x20 DUP3 ADD MSTORE POP JUMP JUMPDEST PUSH1 0x0 PUSH2 0x1A4B PUSH1 0x21 DUP4 PUSH2 0x1113 JUMP JUMPDEST SWAP2 POP PUSH2 0x1A56 DUP3 PUSH2 0x19EF JUMP JUMPDEST PUSH1 0x40 DUP3 ADD SWAP1 POP SWAP2 SWAP1 POP JUMP JUMPDEST PUSH1 0x0 PUSH1 0x20 DUP3 ADD SWAP1 POP DUP2 DUP2 SUB PUSH1 0x0 DUP4 ADD MSTORE PUSH2 0x1A7A DUP2 PUSH2 0x1A3E JUMP JUMPDEST SWAP1 POP SWAP2 SWAP1 POP JUMP JUMPDEST PUSH32 0x45524332303A206275726E20616D6F756E7420657863656564732062616C616E PUSH1 0x0 DUP3 ADD MSTORE PUSH32 0x6365000000000000000000000000000000000000000000000000000000000000 PUSH1 0x20 DUP3 ADD MSTORE POP JUMP JUMPDEST PUSH1 0x0 PUSH2 0x1ADD PUSH1 0x22 DUP4 PUSH2 0x1113 JUMP JUMPDEST SWAP2 POP PUSH2 0x1AE8 DUP3 PUSH2 0x1A81 JUMP JUMPDEST PUSH1 0x40 DUP3 ADD SWAP1 POP SWAP2 SWAP1 POP JUMP JUMPDEST PUSH1 0x0 PUSH1 0x20 DUP3 ADD SWAP1 POP DUP2 DUP2 SUB PUSH1 0x0 DUP4 ADD MSTORE PUSH2 0x1B0C DUP2 PUSH2 0x1AD0 JUMP JUMPDEST SWAP1 POP SWAP2 SWAP1 POP JUMP JUMPDEST PUSH1 0x0 PUSH2 0x1B1E DUP3 PUSH2 0x121D JUMP JUMPDEST SWAP2 POP PUSH2 0x1B29 DUP4 PUSH2 0x121D JUMP JUMPDEST SWAP3 POP DUP3 DUP3 SUB SWAP1 POP DUP2 DUP2 GT ISZERO PUSH2 0x1B41 JUMPI PUSH2 0x1B40 PUSH2 0x14DC JUMP JUMPDEST JUMPDEST SWAP3 SWAP2 POP POP JUMP INVALID LOG2 PUSH5 0x6970667358 0x22 SLT KECCAK256 CALLCODE TIMESTAMP 0x5C 0xDB SLT SWAP9 0xDA 0xAE 0xB3 0xC5 0xDD 0xB5 ISZERO TIMESTAMP DUP9 INVALID ISZERO DUP4 PUSH3 0xB9AEFE MSTORE DUP3 RETURNDATACOPY ADDMOD 0x29 0x21 LOG2 0xDE CREATE 0xBD PUSH5 0x736F6C6343 STOP ADDMOD SLT STOP CALLER "
				},
				"gasEstimates": {
					"creation": {
						"codeDepositCost": "1407400",
						"executionCost": "infinite",
						"totalCost": "infinite"
					},
					"external": {
						"allowance(address,address)": "infinite",
						"approve(address,uint256)": "infinite",
						"balanceOf(address)": "2864",
						"burn(address,uint256)": "infinite",
						"decimals()": "388",
						"decreaseAllowance(address,uint256)": "infinite",
						"increaseAllowance(address,uint256)": "infinite",
						"mint(address,uint256)": "infinite",
						"name()": "infinite",
						"setapprovedcontractaddress(address)": "24878",
						"symbol()": "infinite",
						"totalSupply()": "2505",
						"transfer(address,uint256)": "infinite",
						"transferFrom(address,address,uint256)": "infinite"
					},
					"internal": {
						"_afterTokenTransfer(address,address,uint256)": "15",
						"_approve(address,address,uint256)": "infinite",
						"_beforeTokenTransfer(address,address,uint256)": "15",
						"_burn(address,uint256)": "infinite",
						"_mint(address,uint256)": "infinite",
						"_transfer(address,address,uint256)": "infinite"
					}
				},
				"methodIdentifiers": {
					"allowance(address,address)": "dd62ed3e",
					"approve(address,uint256)": "095ea7b3",
					"balanceOf(address)": "70a08231",
					"burn(address,uint256)": "9dc29fac",
					"decimals()": "313ce567",
					"decreaseAllowance(address,uint256)": "a457c2d7",
					"increaseAllowance(address,uint256)": "39509351",
					"mint(address,uint256)": "40c10f19",
					"name()": "06fdde03",
					"setapprovedcontractaddress(address)": "b6b285d9",
					"symbol()": "95d89b41",
					"totalSupply()": "18160ddd",
					"transfer(address,uint256)": "a9059cbb",
					"transferFrom(address,address,uint256)": "23b872dd"
				}
			},
			"storageLayout": {
				"storage": [
					{
						"astId": 140,
						"contract": "spoilsToken.sol:SpoilsToken",
						"label": "_balances",
						"offset": 0,
						"slot": "0",
						"type": "t_mapping(t_address,t_uint256)"
					},
					{
						"astId": 146,
						"contract": "spoilsToken.sol:SpoilsToken",
						"label": "_allowances",
						"offset": 0,
						"slot": "1",
						"type": "t_mapping(t_address,t_mapping(t_address,t_uint256))"
					},
					{
						"astId": 148,
						"contract": "spoilsToken.sol:SpoilsToken",
						"label": "_totalSupply",
						"offset": 0,
						"slot": "2",
						"type": "t_uint256"
					},
					{
						"astId": 150,
						"contract": "spoilsToken.sol:SpoilsToken",
						"label": "_name",
						"offset": 0,
						"slot": "3",
						"type": "t_string_storage"
					},
					{
						"astId": 152,
						"contract": "spoilsToken.sol:SpoilsToken",
						"label": "_symbol",
						"offset": 0,
						"slot": "4",
						"type": "t_string_storage"
					},
					{
						"astId": 156,
						"contract": "spoilsToken.sol:SpoilsToken",
						"label": "onlyapprovedcontractaddress",
						"offset": 0,
						"slot": "5",
						"type": "t_mapping(t_address,t_bool)"
					}
				],
				"types": {
					"t_address": {
						"encoding": "inplace",
						"label": "address",
						"numberOfBytes": "20"
					},
					"t_bool": {
						"encoding": "inplace",
						"label": "bool",
						"numberOfBytes": "1"
					},
					"t_mapping(t_address,t_bool)": {
						"encoding": "mapping",
						"key": "t_address",
						"label": "mapping(address => bool)",
						"numberOfBytes": "32",
						"value": "t_bool"
					},
					"t_mapping(t_address,t_mapping(t_address,t_uint256))": {
						"encoding": "mapping",
						"key": "t_address",
						"label": "mapping(address => mapping(address => uint256))",
						"numberOfBytes": "32",
						"value": "t_mapping(t_address,t_uint256)"
					},
					"t_mapping(t_address,t_uint256)": {
						"encoding": "mapping",
						"key": "t_address",
						"label": "mapping(address => uint256)",
						"numberOfBytes": "32",
						"value": "t_uint256"
					},
					"t_string_storage": {
						"encoding": "bytes",
						"label": "string",
						"numberOfBytes": "32"
					},
					"t_uint256": {
						"encoding": "inplace",
						"label": "uint256",
						"numberOfBytes": "32"
					}
				}
			},
			"userdoc": {
				"kind": "user",
				"methods": {},
				"version": 1
			}
		}
	}
}