{
	"data": {
		"bytecode": {
			"linkReferences": {},
			"object": "610100604052603660a08181529062003f0160c03960089062000023908262000693565b5060408051602081019091525f815260099062000041908262000693565b50604080518082019091526004815263204a7f0760e21b6020820152600b906200006c908262000693565b50666a94d74f430000600c5566470de4df820000600d556001600e819055600a600f819055610bb860105560118190556012556013556040805160608101825260528152605a6020820152605191810191909152620000d09060179060036200058c565b50601b80546403000f424065ffffffffffff19909116179055601e805463ffffffff191660011790556020805460ff60b01b1916600160b01b179055602180546001600160a01b03199081167324e258bb317147fc56ecaf99d983fa46a1c654601790915560228054821673adadcd625b3de21503bfdc154e1de6c8dc5f5f8f17905560238054821673f9450502efa3cf0cacc7ed25c7c408af6000eefa17905560248054821673c8cd5d25b14d0d5f334b5da351f93a893956dea417905560258054821673ab831ed5c8d0e1d0e0dbfb9ff3cbd85cf63aaee91790556026805490911673b407589e1009c84e32e53bebe20cc4777a74ae181790557f474e34a077df58807dbe9c96d3c009b23b3c6d0cce433e59bbf5b34f823bc56c602955348015620001fc575f80fd5b5060405162003f3738038062003f378339810160408190526200021f916200075f565b33805f738103b0a8a00be2ddc778e6e7eaa21791cd364625733cc6cdda760b79bafa08df41ecfa224f810dceb660016daaeb6d7670e522a718067333cd4e3b1562000389578015620002dc57604051633e9f1edf60e11b81523060048201526001600160a01b03831660248201526daaeb6d7670e522a718067333cd4e90637d3e3dbe906044015b5f604051808303815f87803b158015620002bf575f80fd5b505af1158015620002d2573d5f803e3d5ffd5b5050505062000389565b6001600160a01b038216156200032d5760405163a0af290360e01b81523060048201526001600160a01b03831660248201526daaeb6d7670e522a718067333cd4e9063a0af290390604401620002a7565b604051632210724360e11b81523060048201526daaeb6d7670e522a718067333cd4e90634420e486906024015f604051808303815f87803b15801562000371575f80fd5b505af115801562000384573d5f803e3d5ffd5b505050505b50506001600160a01b039081166080528216620003ed5760405162461bcd60e51b815260206004820152601860248201527f43616e6e6f7420736574206f776e657220746f207a65726f000000000000000060448201526064015b60405180910390fd5b600280546001600160a01b0319166001600160a01b038481169190911790915581161562000420576200042081620004e1565b505060408051808201909152600f81526e109a59d51bdc11db9bdb5954dc1bdd608a1b60208201526006915062000458908262000693565b5060408051808201909152600f81526e109a59d51bdc11db9bdb5954dc1bdd608a1b60208201526007906200048e908262000693565b506001600455602880546001600160a01b031916738103b0a8a00be2ddc778e6e7eaa21791cd364625179055601480546001600160401b039092166001600160401b03199092169190911790556200078e565b336001600160a01b038216036200053b5760405162461bcd60e51b815260206004820152601760248201527f43616e6e6f74207472616e7366657220746f2073656c660000000000000000006044820152606401620003e4565b600380546001600160a01b0319166001600160a01b03838116918217909255600254604051919216907fed8889f560326eb138920d842192f0eb3dd22b4f139c87a2c57538e05bae1278905f90a350565b828054828255905f5260205f20908101928215620005cd579160200282015b82811115620005cd578251829060ff16905591602001919060010190620005ab565b50620005db929150620005df565b5090565b5b80821115620005db575f8155600101620005e0565b634e487b7160e01b5f52604160045260245ffd5b600181811c908216806200061e57607f821691505b6020821081036200063d57634e487b7160e01b5f52602260045260245ffd5b50919050565b601f8211156200068e57805f5260205f20601f840160051c810160208510156200066a5750805b601f840160051c820191505b818110156200068b575f815560010162000676565b50505b505050565b81516001600160401b03811115620006af57620006af620005f5565b620006c781620006c0845462000609565b8462000643565b602080601f831160018114620006fd575f8415620006e55750858301515b5f19600386901b1c1916600185901b17855562000757565b5f85815260208120601f198616915b828110156200072d578886015182559484019460019091019084016200070c565b50858210156200074b57878501515f19600388901b60f8161c191681555b505060018460011b0185555b505050505050565b5f6020828403121562000770575f80fd5b81516001600160401b038116811462000787575f80fd5b9392505050565b608051613753620007ae5f395f8181610f330152610f7501526137535ff3fe6080604052600436106103b3575f3560e01c806367240c51116101e9578063b2d0056811610108578063e58306f91161009d578063efa00ce71161006d578063efa00ce714610afa578063f259a29e14610b19578063f2fde38b14610b2d578063fc2a88c314610b4c575f80fd5b8063e58306f914610a6b578063e8a3d48514610a8a578063e985e9c514610a9e578063ebf0c71714610ae5575f80fd5b8063d5abeb01116100d8578063d5abeb01146109f6578063d8a4676f14610a0b578063dab5f34014610a38578063e0c8628914610a57575f80fd5b8063b2d0056814610971578063b365a3e2146109a5578063b88d4fde146109c4578063c87b56dd146109d7575f80fd5b80638796ba8c1161017e5780639257e0441161014e5780639257e044146108db57806395d89b41146108f0578063a168fa8914610904578063a22cb46514610952575f80fd5b80638796ba8c146108615780638da5cb5b146108805780638dc171391461089d578063923d4a78146108bc575f80fd5b806370a08231116101b957806370a08231146107fb57806373d4a13a1461081a5780637696e0881461082e57806379ba50971461084d575f80fd5b806367240c511461077e5780636ba4c1381461079d5780636cf3b9e9146107bc5780636f8608e4146107db575f80fd5b80632db11544116102d5578063453c23101161026a5780635503a0e81161023a5780635503a0e81461070d57806355f804b31461072157806360d3e1ae146107405780636352211e1461075f575f80fd5b8063453c2310146106b057806346df2ccb146106c55780634c2d8361146106e45780634e71d92d146106f9575f80fd5b8063399a6e08116102a5578063399a6e08146106325780633a602b4d1461065157806341f434341461067c57806342842e0e1461069d575f80fd5b80632db11544146105cc57806332bfc8bc146105df578063339e85a5146105fe57806336bb3c7714610613575f80fd5b806313faede61161034b5780631fe543e31161031b5780631fe543e31461054757806323b872dd146105665780632a55205a146105795780632c4e722e146105b7575f80fd5b806313faede6146104c957806316ba10e0146104ec57806318160ddd1461050b5780631ca28afd14610527575f80fd5b8063095ea7b311610386578063095ea7b3146104645780630f5800fa14610477578063108bfbfa1461049757806311876875146104b6575f80fd5b806301ffc9a7146103b757806302fa7c47146103eb57806306fdde031461040c578063081812fc1461042d575b5f80fd5b3480156103c2575f80fd5b506103d66103d1366004612e2c565b610b61565b60405190151581526020015b60405180910390f35b3480156103f6575f80fd5b5061040a610405366004612e5b565b610bcd565b005b348015610417575f80fd5b50610420610be3565b6040516103e29190612eea565b348015610438575f80fd5b5061044c610447366004612efc565b610c73565b6040516001600160a01b0390911681526020016103e2565b61040a610472366004612f13565b610cac565b348015610482575f80fd5b506020546103d690600160b01b900460ff1681565b3480156104a2575f80fd5b5061040a6104b1366004612efc565b610cc7565b61040a6104c4366004612ffd565b610cd4565b3480156104d4575f80fd5b506104de600c5481565b6040519081526020016103e2565b3480156104f7575f80fd5b5061040a610506366004613094565b610f14565b348015610516575f80fd5b506104de600554600454035f190190565b348015610532575f80fd5b506020546103d690600160a81b900460ff1681565b348015610552575f80fd5b5061040a610561366004612ffd565b610f28565b61040a6105743660046130d8565b610fac565b348015610584575f80fd5b50610598610593366004613116565b611151565b604080516001600160a01b0390931683526020830191909152016103e2565b3480156105c2575f80fd5b506104de600e5481565b61040a6105da366004612efc565b6111fa565b3480156105ea575f80fd5b5061040a6105f9366004613136565b6113e8565b348015610609575f80fd5b506104de600f5481565b34801561061e575f80fd5b5061044c61062d366004612efc565b61141e565b34801561063d575f80fd5b5061044c61064c366004612efc565b6114bf565b34801561065c575f80fd5b506104de61066b366004613136565b602f6020525f908152604090205481565b348015610687575f80fd5b5061044c6daaeb6d7670e522a718067333cd4e81565b61040a6106ab3660046130d8565b611533565b3480156106bb575f80fd5b506104de60115481565b3480156106d0575f80fd5b5061040a6106df366004613116565b61156d565b3480156106ef575f80fd5b506104de60125481565b348015610704575f80fd5b5061040a611580565b348015610718575f80fd5b5061042061174d565b34801561072c575f80fd5b5061040a61073b366004613094565b6117d9565b34801561074b575f80fd5b5061040a61075a366004612efc565b6117ed565b34801561076a575f80fd5b5061044c610779366004612efc565b6117fa565b348015610789575f80fd5b5061040a610798366004613136565b611804565b3480156107a8575f80fd5b5061040a6107b7366004613151565b61182e565b3480156107c7575f80fd5b506104de6107d6366004613151565b611ae1565b3480156107e6575f80fd5b506020546103d690600160a01b900460ff1681565b348015610806575f80fd5b506104de610815366004613136565b611cf4565b348015610825575f80fd5b50610420611d37565b348015610839575f80fd5b5061040a610848366004613116565b611d44565b348015610858575f80fd5b5061040a611d57565b34801561086c575f80fd5b506104de61087b366004612efc565b611e04565b34801561088b575f80fd5b506002546001600160a01b031661044c565b3480156108a8575f80fd5b5061040a6108b736600461318f565b611e23565b3480156108c7575f80fd5b506104de6108d6366004612efc565b611e49565b3480156108e6575f80fd5b506104de600d5481565b3480156108fb575f80fd5b50610420611e58565b34801561090f575f80fd5b5061093b61091e366004612efc565b60276020525f908152604090205460ff8082169161010090041682565b6040805192151583529015156020830152016103e2565b34801561095d575f80fd5b5061040a61096c3660046131aa565b611e67565b34801561097c575f80fd5b5061044c61098b366004612efc565b60326020525f90815260409020546001600160a01b031681565b3480156109b0575f80fd5b506103d66109bf3660046131d6565b611edd565b61040a6109d2366004613219565b611f2d565b3480156109e2575f80fd5b506104206109f1366004612efc565b611f89565b348015610a01575f80fd5b506104de60105481565b348015610a16575f80fd5b50610a2a610a25366004612efc565b612004565b6040516103e29291906132cd565b348015610a43575f80fd5b5061040a610a52366004612efc565b6120f3565b348015610a62575f80fd5b506104de612100565b348015610a76575f80fd5b5061040a610a85366004612f13565b612305565b348015610a95575f80fd5b50610420612370565b348015610aa9575f80fd5b506103d6610ab83660046132e7565b6001600160a01b039182165f908152602e6020908152604080832093909416825291909152205460ff1690565b348015610af0575f80fd5b506104de602a5481565b348015610b05575f80fd5b5061040a610b14366004613094565b61237d565b348015610b24575f80fd5b50610420612391565b348015610b38575f80fd5b5061040a610b47366004613136565b61239e565b348015610b57575f80fd5b506104de601a5481565b5f6301ffc9a760e01b6001600160e01b031983161480610b9157506380ac58cd60e01b6001600160e01b03198316145b80610bac5750635b5e139f60e01b6001600160e01b03198316145b80610bc757506001600160e01b0319821663152a902d60e11b145b92915050565b610bd56123b2565b610bdf8282612407565b5050565b606060068054610bf290613313565b80601f0160208091040260200160405190810160405280929190818152602001828054610c1e90613313565b8015610c695780601f10610c4057610100808354040283529160200191610c69565b820191905f5260205f20905b815481529060010190602001808311610c4c57829003601f168201915b5050505050905090565b5f610c7d826124a8565b610c9157610c916333d1c03960e21b6124db565b505f908152602d60205260409020546001600160a01b031690565b81610cb6816124e3565b610cc28383600161259a565b505050565b610ccf6123b2565b601255565b602054600160a01b900460ff16610d2c5760405162461bcd60e51b81526020600482015260176024820152761b5a5b9d1a5b99c81a185cc81b9bdd081cdd185c9d1959604a1b60448201526064015b60405180910390fd5b601254821115610d7e5760405162461bcd60e51b815260206004820152601a60248201527f657863656564206d617820706572207472616e73616374696f6e0000000000006044820152606401610d23565b610d888133611edd565b610dcd5760405162461bcd60e51b81526020600482015260166024820152751dd85b1b195d081b9bdd081dda1a5d19531a5cdd195960521b6044820152606401610d23565b60105482610de1600554600454035f190190565b610deb919061335f565b1115610e2c5760405162461bcd60e51b815260206004820152601060248201526f657863656564206d6178737570706c7960801b6044820152606401610d23565b601154335f908152602f6020526040902054610e4990849061335f565b1115610e915760405162461bcd60e51b8152602060048201526017602482015276195e18d959591959081b585e081c195c881dd85b1b195d604a1b6044820152606401610d23565b81600d54610e9f9190613372565b341015610ee35760405162461bcd60e51b8152602060048201526012602482015271496e73756666696369656e742066756e647360701b6044820152606401610d23565b610eed338361263b565b335f908152602f602052604081208054849290610f0b90849061335f565b90915550505050565b610f1c6123b2565b6009610bdf82826133cd565b336001600160a01b037f00000000000000000000000000000000000000000000000000000000000000001614610fa25760405163073e64fd60e21b81523360048201526001600160a01b037f0000000000000000000000000000000000000000000000000000000000000000166024820152604401610d23565b610bdf8282612654565b826001600160a01b0381163314610fc657610fc6336124e3565b5f610fd0836127f0565b6001600160a01b039586169590915081168514610ff657610ff662a1148160e81b6124db565b5f838152602d602052604090208054338082146001600160a01b03891690911417611039576110258733610ab8565b61103957611039632ce44b5f60e11b6124db565b8015611043575f82555b6001600160a01b038781165f908152602c602052604080822080545f19019055918816808252919020805460010190554260a01b17600160e11b175f868152602b6020526040812091909155600160e11b841690036110d057600185015f818152602b602052604081205490036110ce5760045481146110ce575f818152602b602052604090208490555b505b6001600160a01b0386168581897fddf252ad1be2c89b69c2b068fc378daa952ba7f163c4a11628f55a4df523b3ef5f80a45f8681526030602090815260408083206001600160a01b038b811685529252808320429055908a168252812081905581900361114757611147633a954ecd60e21b6124db565b5050505050505050565b5f8281526001602090815260408083208151808301909252546001600160a01b038116808352600160a01b9091046001600160601b03169282019290925282916111c45750604080518082019091525f546001600160a01b0381168252600160a01b90046001600160601b031660208201525b60208101515f90612710906111e2906001600160601b031687613372565b6111ec91906134a0565b915196919550909350505050565b602054600160a01b900460ff1661124d5760405162461bcd60e51b81526020600482015260176024820152761b5a5b9d1a5b99c81a185cc81b9bdd081cdd185c9d1959604a1b6044820152606401610d23565b60125481111561129f5760405162461bcd60e51b815260206004820152601b60248201527f65786365656420206d617820706572207472616e73616374696f6e00000000006044820152606401610d23565b601054816112b3600554600454035f190190565b6112bd919061335f565b11156113005760405162461bcd60e51b81526020600482015260126024820152712065786365656420206d6178737570706c7960701b6044820152606401610d23565b601154335f908152602f602052604090205461131d90839061335f565b11156113655760405162461bcd60e51b8152602060048201526017602482015276195e18d959591959081b585e081c195c881dd85b1b195d604a1b6044820152606401610d23565b80600c546113739190613372565b3410156113b85760405162461bcd60e51b8152602060048201526013602482015272024b739bab33334b1b4b2b73a10333ab732399606d1b6044820152606401610d23565b6113c2338261263b565b335f908152602f6020526040812080548392906113e090849061335f565b909155505050565b6113f06123b2565b601e80546001600160a01b0390921664010000000002640100000000600160c01b0319909216919091179055565b604051632f4de29b60e11b8152732d25602551487c3f3354dd80d76d54383a2433586004820152466024820152306044820152606481018290525f60848201819052907302101dfb77fde026414827fdc604ddaf224f092190635e9bc5369060a401602060405180830381865afa15801561149b573d5f803e3d5ffd5b505050506040513d601f19601f82011682018060405250810190610bc791906134b3565b60405163da7323b360e01b81525f907302101dfb77fde026414827fdc604ddaf224f09219063da7323b39061151790732d25602551487c3f3354dd80d76d54383a243358904690309088908890600b906004016134ce565b6020604051808303815f875af115801561149b573d5f803e3d5ffd5b826001600160a01b038116331461154d5761154d336124e3565b61156784848460405180602001604052805f815250611f2d565b50505050565b6115756123b2565b600e91909155600f55565b6115886123b2565b60215447906001600160a01b03166108fc6115a46064846134a0565b6115af906050613372565b6040518115909202915f818181858888f193505050501580156115d4573d5f803e3d5ffd5b5060225447906001600160a01b03166108fc6115f16064846134a0565b6115fc90600a613372565b6040518115909202915f818181858888f19350505050158015611621573d5f803e3d5ffd5b506023546001600160a01b03166108fc61163c6064846134a0565b61164790600e613372565b6040518115909202915f818181858888f1935050505015801561166c573d5f803e3d5ffd5b506024546001600160a01b03166108fc6116876064846134a0565b611692906014613372565b6040518115909202915f818181858888f193505050501580156116b7573d5f803e3d5ffd5b506025546001600160a01b03166108fc6116d26064846134a0565b6116dd906033613372565b6040518115909202915f818181858888f19350505050158015611702573d5f803e3d5ffd5b506026546001600160a01b03166108fc61171d6064846134a0565b611728906005613372565b6040518115909202915f818181858888f19350505050158015610cc2573d5f803e3d5ffd5b6009805461175a90613313565b80601f016020809104026020016040519081016040528092919081815260200182805461178690613313565b80156117d15780601f106117a8576101008083540402835291602001916117d1565b820191905f5260205f20905b8154815290600101906020018083116117b457829003601f168201915b505050505081565b6117e16123b2565b6008610bdf82826133cd565b6117f56123b2565b601155565b5f610bc7826127f0565b61180c6123b2565b601f80546001600160a01b0319166001600160a01b0392909216919091179055565b5f61183833611cf4565b116118805760405162461bcd60e51b8152602060048201526018602482015277139bdd08145d585b1a599a595908119bdc8814995dd85c9960421b6044820152606401610d23565b5f81516001600160401b0381111561189a5761189a612f3d565b6040519080825280602002602001820160405280156118c3578160200160208202803683370190505b5090508190505f805f805b8451811015611a73575f60305f8784815181106118ed576118ed61358c565b602002602001015181526020019081526020015f205f336001600160a01b03166001600160a01b031681526020019081526020015f20541115611a6b5760305f86838151811061193f5761193f61358c565b602002602001015181526020019081526020015f205f336001600160a01b03166001600160a01b031681526020019081526020015f20544261198191906135a0565b93506201518084600e54670de0b6b3a764000061199e9190613372565b6119a89190613372565b6119b291906134a0565b925060315f8683815181106119c9576119c961358c565b60209081029190910181015182528101919091526040015f205460ff161515600103611a21576201518084600f54670de0b6b3a7640000611a0a9190613372565b611a149190613372565b611a1e91906134a0565b92505b611a2b838361335f565b91504260305f878481518110611a4357611a4361358c565b60209081029190910181015182528181019290925260409081015f9081203382529092529020555b6001016118ce565b50601e546040516340c10f1960e01b8152336004820152602481018390526401000000009091046001600160a01b0316906340c10f19906044015f604051808303815f87803b158015611ac4575f80fd5b505af1158015611ad6573d5f803e3d5ffd5b505050505050505050565b5f80611aec33611cf4565b11611b345760405162461bcd60e51b8152602060048201526018602482015277139bdd08145d585b1a599a595908119bdc8814995dd85c9960421b6044820152606401610d23565b5f82516001600160401b03811115611b4e57611b4e612f3d565b604051908082528060200260200182016040528015611b77578160200160208202803683370190505b5090508290505f805f805b8451811015611cea575f60305f878481518110611ba157611ba161358c565b602002602001015181526020019081526020015f205f336001600160a01b03166001600160a01b031681526020019081526020015f20541115611ce25760305f868381518110611bf357611bf361358c565b602002602001015181526020019081526020015f205f336001600160a01b03166001600160a01b031681526020019081526020015f205442611c3591906135a0565b93506201518084600e54670de0b6b3a7640000611c529190613372565b611c5c9190613372565b611c6691906134a0565b925060315f868381518110611c7d57611c7d61358c565b60209081029190910181015182528101919091526040015f205460ff161515600103611cd5576201518084600f54670de0b6b3a7640000611cbe9190613372565b611cc89190613372565b611cd291906134a0565b92505b611cdf838361335f565b91505b600101611b82565b5095945050505050565b5f6001600160a01b038216611d1357611d136323d3ad8160e21b6124db565b506001600160a01b03165f908152602c60205260409020546001600160401b031690565b600b805461175a90613313565b611d4c6123b2565b600c91909155600d55565b6003546001600160a01b03163314611daa5760405162461bcd60e51b815260206004820152601660248201527526bab9ba10313290383937b837b9b2b21037bbb732b960511b6044820152606401610d23565b600280546001600160a01b0319808216339081179093556003805490911690556040516001600160a01b03909116919082907f8be0079c531659141344cd1fd0a4f28419497f9722a3daafe3b4186f6b6457e0905f90a350565b60198181548110611e13575f80fd5b5f91825260209091200154905081565b611e2b6123b2565b60208054911515600160a01b0260ff60a01b19909216919091179055565b60188181548110611e13575f80fd5b606060078054610bf290613313565b81611e71816124e3565b335f818152602e602090815260408083206001600160a01b03881680855290835292819020805460ff191687151590811790915590519081529192917f17307eab39ab6107e8899845ad3d59bd9653f200f220920489ca2b5937696c31910160405180910390a3505050565b6040516bffffffffffffffffffffffff19606083901b1660208201525f908190603401604051602081830303815290604052805190602001209050611f2584602a5483612865565b949350505050565b836001600160a01b0381163314611f4757611f47336124e3565b611f52858585610fac565b6001600160a01b0384163b15611f8257611f6e8585858561287a565b611f8257611f826368d2bf6b60e11b6124db565b5050505050565b6060611f94826124a8565b611fa857611fa8630a14c4b560e41b6124db565b5f611fb1612958565b905080515f03611fcf5760405180602001604052805f815250611ffd565b80611fd984612967565b6009604051602001611fed939291906135b3565b6040516020818303038152906040525b9392505050565b5f81815260276020526040812054606090610100900460ff1661205d5760405162461bcd60e51b81526020600482015260116024820152701c995c5d595cdd081b9bdd08199bdd5b99607a1b6044820152606401610d23565b5f8381526027602090815260408083208151606081018352815460ff80821615158352610100909104161515818501526001820180548451818702810187018652818152929593948601938301828280156120d557602002820191905f5260205f20905b8154815260200190600101908083116120c1575b5050505050815250509050805f015181604001519250925050915091565b6120fb6123b2565b602a55565b5f6121096123b2565b602054600160a81b900460ff16156121635760405162461bcd60e51b815260206004820152601b60248201527f616c7265616479207265717565737465642072616e646f6d6e756d00000000006044820152606401610d23565b602854602954601454601b54601e546040516305d3b1d360e41b815260048101949094526001600160401b039092166024840152640100000000810461ffff16604484015263ffffffff90811660648401521660848201526001600160a01b0390911690635d3b1d309060a4016020604051808303815f875af11580156121ec573d5f803e3d5ffd5b505050506040513d601f19601f820116820180604052508101906122109190613651565b604080516060810182525f8082526001602080840182815285518481528083018752858701908152878552602783529590932084518154945161ffff1990951690151561ff001916176101009415159490940293909317835593518051959650929491936122849391850192910190612dba565b5050601980546001810182555f919091527f944998273e477b495144fb8794c914197f3ccb46be2900f4698fd0ef743c96950182905550601a819055601e546040805183815263ffffffff90921660208301527fcc58b13ad3eab50626c6a6300b1d139cd6ebb1688a7cced9461c2f7e762665ee910160405180910390a190565b61230d6123b2565b60105481612321600554600454035f190190565b61232b919061335f565b11156123665760405162461bcd60e51b815260206004820152600a6024820152694d617820737570706c7960b01b6044820152606401610d23565b610bdf828261263b565b600a805461175a90613313565b6123856123b2565b600a610bdf82826133cd565b6008805461175a90613313565b6123a66123b2565b6123af816129aa565b50565b6002546001600160a01b031633146124055760405162461bcd60e51b815260206004820152601660248201527527b7363c9031b0b63630b1363290313c9037bbb732b960511b6044820152606401610d23565b565b6127106001600160601b03821681101561244657604051636f483d0960e01b81526001600160601b038316600482015260248101829052604401610d23565b6001600160a01b03831661246f57604051635b6cc80560e11b81525f6004820152602401610d23565b50604080518082019091526001600160a01b039092168083526001600160601b039091166020909201829052600160a01b909102175f55565b5f816001111580156124bb575060045482105b8015610bc75750505f908152602b6020526040902054600160e01b161590565b805f5260045ffd5b6daaeb6d7670e522a718067333cd4e3b156123af57604051633185c44d60e21b81523060048201526001600160a01b03821660248201526daaeb6d7670e522a718067333cd4e9063c617113490604401602060405180830381865afa15801561254e573d5f803e3d5ffd5b505050506040513d601f19601f820116820180604052508101906125729190613668565b6123af57604051633b79c77360e21b81526001600160a01b0382166004820152602401610d23565b5f6125a4836117fa565b90508180156125bc5750336001600160a01b03821614155b156125df576125cb8133610ab8565b6125df576125df6367d9dca160e11b6124db565b5f838152602d602052604080822080546001600160a01b0319166001600160a01b0388811691821790925591518693918516917f8c5be1e5ebec7d5bd14f71427d1e84f3dd0314c0f7b2291e5b200ac8c7c3b92591a450505050565b610bdf828260405180602001604052805f815250612a53565b5f82815260276020526040902054610100900460ff166126aa5760405162461bcd60e51b81526020600482015260116024820152701c995c5d595cdd081b9bdd08199bdd5b99607a1b6044820152606401610d23565b5f828152602760209081526040909120805460ff19166001908117825583516126da939290910191840190612dba565b506001601554101561271b576032815f815181106126fa576126fa61358c565b602002602001015161270c9190613683565b61271790606461335f565b601c555b60016015541180156127305750600460155411155b1561277e5760176050825f8151811061274b5761274b61358c565b602002602001015161275d9190613683565b61276890603261335f565b81546001810183555f9283526020909220909101555b6003601554111561279f576020805461ffff60a81b191661010160a81b1790555b60158054905f6127ae83613696565b91905055507ffe2e2d779dba245964d4e3ef9b994be63856fd568bf7d3ca9e224755cb1bd54d82826040516127e49291906136ae565b60405180910390a15050565b5f8160011161285557505f818152602b602052604081205490600160e01b8216900361285557805f0361285057600454821061283657612836636f96cda160e11b6124db565b5b505f19015f818152602b60205260409020548015612837575b919050565b612850636f96cda160e11b6124db565b5f826128718584612ab3565b14949350505050565b604051630a85bd0160e11b81525f906001600160a01b0385169063150b7a02906128ae9033908990889088906004016136c6565b6020604051808303815f875af19250505080156128e8575060408051601f3d908101601f191682019092526128e591810190613702565b60015b61293b573d808015612915576040519150601f19603f3d011682016040523d82523d5f602084013e61291a565b606091505b5080515f03612933576129336368d2bf6b60e11b6124db565b805181602001fd5b6001600160e01b031916630a85bd0160e11b149050949350505050565b606060088054610bf290613313565b606060a06040510180604052602081039150505f815280825b600183039250600a81066030018353600a9004806129805750819003601f19909101908152919050565b336001600160a01b03821603612a025760405162461bcd60e51b815260206004820152601760248201527f43616e6e6f74207472616e7366657220746f2073656c660000000000000000006044820152606401610d23565b600380546001600160a01b0319166001600160a01b03838116918217909255600254604051919216907fed8889f560326eb138920d842192f0eb3dd22b4f139c87a2c57538e05bae1278905f90a350565b612a5d8383612af5565b6001600160a01b0383163b15610cc2576004548281035b612a865f86838060010194508661287a565b612a9a57612a9a6368d2bf6b60e11b6124db565b818110612a74578160045414611f8257611f825f6124db565b5f81815b8451811015612aed57612ae382868381518110612ad657612ad661358c565b6020026020010151612d91565b9150600101612ab7565b509392505050565b602054600160b01b900460ff161515600114612b535760405162461bcd60e51b815260206004820152601860248201527f72616e646f6d206e756d206e6f742072656164792079657400000000000000006044820152606401610d23565b6004545f829003612b6e57612b6e63b562e8dd60e01b6124db565b5f818152602b602090815260408083206001600160a01b0387164260a01b6001881460e11b178117909155808452602c9092528220805468010000000000000001860201905590819003612bcb57612bcb622e076360e81b6124db565b818301825b80835f7fddf252ad1be2c89b69c2b068fc378daa952ba7f163c4a11628f55a4df523b3ef5f80a45f8181526030602090815260408083206001600160a01b038a1684529091529020429055601654601780549091908110612c3357612c3361358c565b905f5260205f200154601c540181148015612c5057506018601d54105b15612d5757601f546001600160a01b03166340c10f19612c6f8361141e565b6040516001600160e01b031960e084901b1681526001600160a01b039091166004820152600160248201526044015f604051808303815f87803b158015612cb4575f80fd5b505af1158015612cc6573d5f803e3d5ffd5b5050601d805460010190555050601654601780549091908110612ceb57612ceb61358c565b5f918252602080832090910154601c80549091019081905582526031905260408120805460ff1916600190811790915560188054808301825592527fb13d2d76d1f4b7be834882e410b3e3a8afaf69f83600ae24db354391d2378d2e9091018290556016805490910190555b601654600303612d66575f6016555b818160010191508103612bd057506004555060138054905f612d8783613696565b9190505550505050565b5f818310612dab575f828152602084905260409020611ffd565b505f9182526020526040902090565b828054828255905f5260205f20908101928215612df3579160200282015b82811115612df3578251825591602001919060010190612dd8565b50612dff929150612e03565b5090565b5b80821115612dff575f8155600101612e04565b6001600160e01b0319811681146123af575f80fd5b5f60208284031215612e3c575f80fd5b8135611ffd81612e17565b6001600160a01b03811681146123af575f80fd5b5f8060408385031215612e6c575f80fd5b8235612e7781612e47565b915060208301356001600160601b0381168114612e92575f80fd5b809150509250929050565b5f5b83811015612eb7578181015183820152602001612e9f565b50505f910152565b5f8151808452612ed6816020860160208601612e9d565b601f01601f19169290920160200192915050565b602081525f611ffd6020830184612ebf565b5f60208284031215612f0c575f80fd5b5035919050565b5f8060408385031215612f24575f80fd5b8235612f2f81612e47565b946020939093013593505050565b634e487b7160e01b5f52604160045260245ffd5b604051601f8201601f191681016001600160401b0381118282101715612f7957612f79612f3d565b604052919050565b5f82601f830112612f90575f80fd5b813560206001600160401b03821115612fab57612fab612f3d565b8160051b612fba828201612f51565b9283528481018201928281019087851115612fd3575f80fd5b83870192505b84831015612ff257823582529183019190830190612fd9565b979650505050505050565b5f806040838503121561300e575f80fd5b8235915060208301356001600160401b0381111561302a575f80fd5b61303685828601612f81565b9150509250929050565b5f6001600160401b0383111561305857613058612f3d565b61306b601f8401601f1916602001612f51565b905082815283838301111561307e575f80fd5b828260208301375f602084830101529392505050565b5f602082840312156130a4575f80fd5b81356001600160401b038111156130b9575f80fd5b8201601f810184136130c9575f80fd5b611f2584823560208401613040565b5f805f606084860312156130ea575f80fd5b83356130f581612e47565b9250602084013561310581612e47565b929592945050506040919091013590565b5f8060408385031215613127575f80fd5b50508035926020909101359150565b5f60208284031215613146575f80fd5b8135611ffd81612e47565b5f60208284031215613161575f80fd5b81356001600160401b03811115613176575f80fd5b611f2584828501612f81565b80151581146123af575f80fd5b5f6020828403121561319f575f80fd5b8135611ffd81613182565b5f80604083850312156131bb575f80fd5b82356131c681612e47565b91506020830135612e9281613182565b5f80604083850312156131e7575f80fd5b82356001600160401b038111156131fc575f80fd5b61320885828601612f81565b9250506020830135612e9281612e47565b5f805f806080858703121561322c575f80fd5b843561323781612e47565b9350602085013561324781612e47565b92506040850135915060608501356001600160401b03811115613268575f80fd5b8501601f81018713613278575f80fd5b61328787823560208401613040565b91505092959194509250565b5f815180845260208085019450602084015f5b838110156132c2578151875295820195908201906001016132a6565b509495945050505050565b8215158152604060208201525f611f256040830184613293565b5f80604083850312156132f8575f80fd5b823561330381612e47565b91506020830135612e9281612e47565b600181811c9082168061332757607f821691505b60208210810361334557634e487b7160e01b5f52602260045260245ffd5b50919050565b634e487b7160e01b5f52601160045260245ffd5b80820180821115610bc757610bc761334b565b8082028115828204841417610bc757610bc761334b565b601f821115610cc257805f5260205f20601f840160051c810160208510156133ae5750805b601f840160051c820191505b81811015611f82575f81556001016133ba565b81516001600160401b038111156133e6576133e6612f3d565b6133fa816133f48454613313565b84613389565b602080601f83116001811461342d575f84156134165750858301515b5f19600386901b1c1916600185901b178555613484565b5f85815260208120601f198616915b8281101561345b5788860151825594840194600190910190840161343c565b508582101561347857878501515f19600388901b60f8161c191681555b505060018460011b0185555b505050505050565b634e487b7160e01b5f52601260045260245ffd5b5f826134ae576134ae61348c565b500490565b5f602082840312156134c3575f80fd5b8151611ffd81612e47565b6001600160a01b03878116825260208083018890529086166040830152606082018590526080820184905260c060a083015282545f91829161350f81613313565b8060c087015260e060018084165f8114613530576001811461354c57613579565b60ff19851660e08a015260e084151560051b8a01019650613579565b895f5260205f205f5b858110156135705781548b8201860152908301908701613555565b8a0160e0019750505b50949d9c50505050505050505050505050565b634e487b7160e01b5f52603260045260245ffd5b81810381811115610bc757610bc761334b565b5f845160206135c6828560208a01612e9d565b8551918401916135da818460208a01612e9d565b85549201915f906135ea81613313565b60018281168015613602576001811461361757613641565b60ff1984168752821515830287019450613641565b895f5260205f205f5b8481101561363957815489820152908301908701613620565b505082870194505b50929a9950505050505050505050565b5f60208284031215613661575f80fd5b5051919050565b5f60208284031215613678575f80fd5b8151611ffd81613182565b5f826136915761369161348c565b500690565b5f600182016136a7576136a761334b565b5060010190565b828152604060208201525f611f256040830184613293565b6001600160a01b03858116825284166020820152604081018390526080606082018190525f906136f890830184612ebf565b9695505050505050565b5f60208284031215613712575f80fd5b8151611ffd81612e1756fea2646970667358221220eb1df94135bc76a3e3d4c4f4558e40b9485b9095ef1781b64559c9916b38b15a64736f6c63430008160033697066733a2f2f516d5a747055727a43726675694263515a327237364641756a776f454174576679574c596d6e46444b734e464b652f",
			"opcodes": "PUSH2 0x100 PUSH1 0x40 MSTORE PUSH1 0x36 PUSH1 0xA0 DUP2 DUP2 MSTORE SWAP1 PUSH3 0x3F01 PUSH1 0xC0 CODECOPY PUSH1 0x8 SWAP1 PUSH3 0x23 SWAP1 DUP3 PUSH3 0x693 JUMP JUMPDEST POP PUSH1 0x40 DUP1 MLOAD PUSH1 0x20 DUP2 ADD SWAP1 SWAP2 MSTORE PUSH0 DUP2 MSTORE PUSH1 0x9 SWAP1 PUSH3 0x41 SWAP1 DUP3 PUSH3 0x693 JUMP JUMPDEST POP PUSH1 0x40 DUP1 MLOAD DUP1 DUP3 ADD SWAP1 SWAP2 MSTORE PUSH1 0x4 DUP2 MSTORE PUSH4 0x204A7F07 PUSH1 0xE2 SHL PUSH1 0x20 DUP3 ADD MSTORE PUSH1 0xB SWAP1 PUSH3 0x6C SWAP1 DUP3 PUSH3 0x693 JUMP JUMPDEST POP PUSH7 0x6A94D74F430000 PUSH1 0xC SSTORE PUSH7 0x470DE4DF820000 PUSH1 0xD SSTORE PUSH1 0x1 PUSH1 0xE DUP2 SWAP1 SSTORE PUSH1 0xA PUSH1 0xF DUP2 SWAP1 SSTORE PUSH2 0xBB8 PUSH1 0x10 SSTORE PUSH1 0x11 DUP2 SWAP1 SSTORE PUSH1 0x12 SSTORE PUSH1 0x13 SSTORE PUSH1 0x40 DUP1 MLOAD PUSH1 0x60 DUP2 ADD DUP3 MSTORE PUSH1 0x52 DUP2 MSTORE PUSH1 0x5A PUSH1 0x20 DUP3 ADD MSTORE PUSH1 0x51 SWAP2 DUP2 ADD SWAP2 SWAP1 SWAP2 MSTORE PUSH3 0xD0 SWAP1 PUSH1 0x17 SWAP1 PUSH1 0x3 PUSH3 0x58C JUMP JUMPDEST POP PUSH1 0x1B DUP1 SLOAD PUSH5 0x3000F4240 PUSH6 0xFFFFFFFFFFFF NOT SWAP1 SWAP2 AND OR SWAP1 SSTORE PUSH1 0x1E DUP1 SLOAD PUSH4 0xFFFFFFFF NOT AND PUSH1 0x1 OR SWAP1 SSTORE PUSH1 0x20 DUP1 SLOAD PUSH1 0xFF PUSH1 0xB0 SHL NOT AND PUSH1 0x1 PUSH1 0xB0 SHL OR SWAP1 SSTORE PUSH1 0x21 DUP1 SLOAD PUSH1 0x1 PUSH1 0x1 PUSH1 0xA0 SHL SUB NOT SWAP1 DUP2 AND PUSH20 0x24E258BB317147FC56ECAF99D983FA46A1C65460 OR SWAP1 SWAP2 SSTORE PUSH1 0x22 DUP1 SLOAD DUP3 AND PUSH20 0xADADCD625B3DE21503BFDC154E1DE6C8DC5F5F8F OR SWAP1 SSTORE PUSH1 0x23 DUP1 SLOAD DUP3 AND PUSH20 0xF9450502EFA3CF0CACC7ED25C7C408AF6000EEFA OR SWAP1 SSTORE PUSH1 0x24 DUP1 SLOAD DUP3 AND PUSH20 0xC8CD5D25B14D0D5F334B5DA351F93A893956DEA4 OR SWAP1 SSTORE PUSH1 0x25 DUP1 SLOAD DUP3 AND PUSH20 0xAB831ED5C8D0E1D0E0DBFB9FF3CBD85CF63AAEE9 OR SWAP1 SSTORE PUSH1 0x26 DUP1 SLOAD SWAP1 SWAP2 AND PUSH20 0xB407589E1009C84E32E53BEBE20CC4777A74AE18 OR SWAP1 SSTORE PUSH32 0x474E34A077DF58807DBE9C96D3C009B23B3C6D0CCE433E59BBF5B34F823BC56C PUSH1 0x29 SSTORE CALLVALUE DUP1 ISZERO PUSH3 0x1FC JUMPI PUSH0 DUP1 REVERT JUMPDEST POP PUSH1 0x40 MLOAD PUSH3 0x3F37 CODESIZE SUB DUP1 PUSH3 0x3F37 DUP4 CODECOPY DUP2 ADD PUSH1 0x40 DUP2 SWAP1 MSTORE PUSH3 0x21F SWAP2 PUSH3 0x75F JUMP JUMPDEST CALLER DUP1 PUSH0 PUSH20 0x8103B0A8A00BE2DDC778E6E7EAA21791CD364625 PUSH20 0x3CC6CDDA760B79BAFA08DF41ECFA224F810DCEB6 PUSH1 0x1 PUSH14 0xAAEB6D7670E522A718067333CD4E EXTCODESIZE ISZERO PUSH3 0x389 JUMPI DUP1 ISZERO PUSH3 0x2DC JUMPI PUSH1 0x40 MLOAD PUSH4 0x3E9F1EDF PUSH1 0xE1 SHL DUP2 MSTORE ADDRESS PUSH1 0x4 DUP3 ADD MSTORE PUSH1 0x1 PUSH1 0x1 PUSH1 0xA0 SHL SUB DUP4 AND PUSH1 0x24 DUP3 ADD MSTORE PUSH14 0xAAEB6D7670E522A718067333CD4E SWAP1 PUSH4 0x7D3E3DBE SWAP1 PUSH1 0x44 ADD JUMPDEST PUSH0 PUSH1 0x40 MLOAD DUP1 DUP4 SUB DUP2 PUSH0 DUP8 DUP1 EXTCODESIZE ISZERO DUP1 ISZERO PUSH3 0x2BF JUMPI PUSH0 DUP1 REVERT JUMPDEST POP GAS CALL ISZERO DUP1 ISZERO PUSH3 0x2D2 JUMPI RETURNDATASIZE PUSH0 DUP1 RETURNDATACOPY RETURNDATASIZE PUSH0 REVERT JUMPDEST POP POP POP POP PUSH3 0x389 JUMP JUMPDEST PUSH1 0x1 PUSH1 0x1 PUSH1 0xA0 SHL SUB DUP3 AND ISZERO PUSH3 0x32D JUMPI PUSH1 0x40 MLOAD PUSH4 0xA0AF2903 PUSH1 0xE0 SHL DUP2 MSTORE ADDRESS PUSH1 0x4 DUP3 ADD MSTORE PUSH1 0x1 PUSH1 0x1 PUSH1 0xA0 SHL SUB DUP4 AND PUSH1 0x24 DUP3 ADD MSTORE PUSH14 0xAAEB6D7670E522A718067333CD4E SWAP1 PUSH4 0xA0AF2903 SWAP1 PUSH1 0x44 ADD PUSH3 0x2A7 JUMP JUMPDEST PUSH1 0x40 MLOAD PUSH4 0x22107243 PUSH1 0xE1 SHL DUP2 MSTORE ADDRESS PUSH1 0x4 DUP3 ADD MSTORE PUSH14 0xAAEB6D7670E522A718067333CD4E SWAP1 PUSH4 0x4420E486 SWAP1 PUSH1 0x24 ADD PUSH0 PUSH1 0x40 MLOAD DUP1 DUP4 SUB DUP2 PUSH0 DUP8 DUP1 EXTCODESIZE ISZERO DUP1 ISZERO PUSH3 0x371 JUMPI PUSH0 DUP1 REVERT JUMPDEST POP GAS CALL ISZERO DUP1 ISZERO PUSH3 0x384 JUMPI RETURNDATASIZE PUSH0 DUP1 RETURNDATACOPY RETURNDATASIZE PUSH0 REVERT JUMPDEST POP POP POP POP JUMPDEST POP POP PUSH1 0x1 PUSH1 0x1 PUSH1 0xA0 SHL SUB SWAP1 DUP2 AND PUSH1 0x80 MSTORE DUP3 AND PUSH3 0x3ED JUMPI PUSH1 0x40 MLOAD PUSH3 0x461BCD PUSH1 0xE5 SHL DUP2 MSTORE PUSH1 0x20 PUSH1 0x4 DUP3 ADD MSTORE PUSH1 0x18 PUSH1 0x24 DUP3 ADD MSTORE PUSH32 0x43616E6E6F7420736574206F776E657220746F207A65726F0000000000000000 PUSH1 0x44 DUP3 ADD MSTORE PUSH1 0x64 ADD JUMPDEST PUSH1 0x40 MLOAD DUP1 SWAP2 SUB SWAP1 REVERT JUMPDEST PUSH1 0x2 DUP1 SLOAD PUSH1 0x1 PUSH1 0x1 PUSH1 0xA0 SHL SUB NOT AND PUSH1 0x1 PUSH1 0x1 PUSH1 0xA0 SHL SUB DUP5 DUP2 AND SWAP2 SWAP1 SWAP2 OR SWAP1 SWAP2 SSTORE DUP2 AND ISZERO PUSH3 0x420 JUMPI PUSH3 0x420 DUP2 PUSH3 0x4E1 JUMP JUMPDEST POP POP PUSH1 0x40 DUP1 MLOAD DUP1 DUP3 ADD SWAP1 SWAP2 MSTORE PUSH1 0xF DUP2 MSTORE PUSH15 0x109A59D51BDC11DB9BDB5954DC1BDD PUSH1 0x8A SHL PUSH1 0x20 DUP3 ADD MSTORE PUSH1 0x6 SWAP2 POP PUSH3 0x458 SWAP1 DUP3 PUSH3 0x693 JUMP JUMPDEST POP PUSH1 0x40 DUP1 MLOAD DUP1 DUP3 ADD SWAP1 SWAP2 MSTORE PUSH1 0xF DUP2 MSTORE PUSH15 0x109A59D51BDC11DB9BDB5954DC1BDD PUSH1 0x8A SHL PUSH1 0x20 DUP3 ADD MSTORE PUSH1 0x7 SWAP1 PUSH3 0x48E SWAP1 DUP3 PUSH3 0x693 JUMP JUMPDEST POP PUSH1 0x1 PUSH1 0x4 SSTORE PUSH1 0x28 DUP1 SLOAD PUSH1 0x1 PUSH1 0x1 PUSH1 0xA0 SHL SUB NOT AND PUSH20 0x8103B0A8A00BE2DDC778E6E7EAA21791CD364625 OR SWAP1 SSTORE PUSH1 0x14 DUP1 SLOAD PUSH1 0x1 PUSH1 0x1 PUSH1 0x40 SHL SUB SWAP1 SWAP3 AND PUSH1 0x1 PUSH1 0x1 PUSH1 0x40 SHL SUB NOT SWAP1 SWAP3 AND SWAP2 SWAP1 SWAP2 OR SWAP1 SSTORE PUSH3 0x78E JUMP JUMPDEST CALLER PUSH1 0x1 PUSH1 0x1 PUSH1 0xA0 SHL SUB DUP3 AND SUB PUSH3 0x53B JUMPI PUSH1 0x40 MLOAD PUSH3 0x461BCD PUSH1 0xE5 SHL DUP2 MSTORE PUSH1 0x20 PUSH1 0x4 DUP3 ADD MSTORE PUSH1 0x17 PUSH1 0x24 DUP3 ADD MSTORE PUSH32 0x43616E6E6F74207472616E7366657220746F2073656C66000000000000000000 PUSH1 0x44 DUP3 ADD MSTORE PUSH1 0x64 ADD PUSH3 0x3E4 JUMP JUMPDEST PUSH1 0x3 DUP1 SLOAD PUSH1 0x1 PUSH1 0x1 PUSH1 0xA0 SHL SUB NOT AND PUSH1 0x1 PUSH1 0x1 PUSH1 0xA0 SHL SUB DUP4 DUP2 AND SWAP2 DUP3 OR SWAP1 SWAP3 SSTORE PUSH1 0x2 SLOAD PUSH1 0x40 MLOAD SWAP2 SWAP3 AND SWAP1 PUSH32 0xED8889F560326EB138920D842192F0EB3DD22B4F139C87A2C57538E05BAE1278 SWAP1 PUSH0 SWAP1 LOG3 POP JUMP JUMPDEST DUP3 DUP1 SLOAD DUP3 DUP3 SSTORE SWAP1 PUSH0 MSTORE PUSH1 0x20 PUSH0 KECCAK256 SWAP1 DUP2 ADD SWAP3 DUP3 ISZERO PUSH3 0x5CD JUMPI SWAP2 PUSH1 0x20 MUL DUP3 ADD JUMPDEST DUP3 DUP2 GT ISZERO PUSH3 0x5CD JUMPI DUP3 MLOAD DUP3 SWAP1 PUSH1 0xFF AND SWAP1 SSTORE SWAP2 PUSH1 0x20 ADD SWAP2 SWAP1 PUSH1 0x1 ADD SWAP1 PUSH3 0x5AB JUMP JUMPDEST POP PUSH3 0x5DB SWAP3 SWAP2 POP PUSH3 0x5DF JUMP JUMPDEST POP SWAP1 JUMP JUMPDEST JUMPDEST DUP1 DUP3 GT ISZERO PUSH3 0x5DB JUMPI PUSH0 DUP2 SSTORE PUSH1 0x1 ADD PUSH3 0x5E0 JUMP JUMPDEST PUSH4 0x4E487B71 PUSH1 0xE0 SHL PUSH0 MSTORE PUSH1 0x41 PUSH1 0x4 MSTORE PUSH1 0x24 PUSH0 REVERT JUMPDEST PUSH1 0x1 DUP2 DUP2 SHR SWAP1 DUP3 AND DUP1 PUSH3 0x61E JUMPI PUSH1 0x7F DUP3 AND SWAP2 POP JUMPDEST PUSH1 0x20 DUP3 LT DUP2 SUB PUSH3 0x63D JUMPI PUSH4 0x4E487B71 PUSH1 0xE0 SHL PUSH0 MSTORE PUSH1 0x22 PUSH1 0x4 MSTORE PUSH1 0x24 PUSH0 REVERT JUMPDEST POP SWAP2 SWAP1 POP JUMP JUMPDEST PUSH1 0x1F DUP3 GT ISZERO PUSH3 0x68E JUMPI DUP1 PUSH0 MSTORE PUSH1 0x20 PUSH0 KECCAK256 PUSH1 0x1F DUP5 ADD PUSH1 0x5 SHR DUP2 ADD PUSH1 0x20 DUP6 LT ISZERO PUSH3 0x66A JUMPI POP DUP1 JUMPDEST PUSH1 0x1F DUP5 ADD PUSH1 0x5 SHR DUP3 ADD SWAP2 POP JUMPDEST DUP2 DUP2 LT ISZERO PUSH3 0x68B JUMPI PUSH0 DUP2 SSTORE PUSH1 0x1 ADD PUSH3 0x676 JUMP JUMPDEST POP POP JUMPDEST POP POP POP JUMP JUMPDEST DUP2 MLOAD PUSH1 0x1 PUSH1 0x1 PUSH1 0x40 SHL SUB DUP2 GT ISZERO PUSH3 0x6AF JUMPI PUSH3 0x6AF PUSH3 0x5F5 JUMP JUMPDEST PUSH3 0x6C7 DUP2 PUSH3 0x6C0 DUP5 SLOAD PUSH3 0x609 JUMP JUMPDEST DUP5 PUSH3 0x643 JUMP JUMPDEST PUSH1 0x20 DUP1 PUSH1 0x1F DUP4 GT PUSH1 0x1 DUP2 EQ PUSH3 0x6FD JUMPI PUSH0 DUP5 ISZERO PUSH3 0x6E5 JUMPI POP DUP6 DUP4 ADD MLOAD JUMPDEST PUSH0 NOT PUSH1 0x3 DUP7 SWAP1 SHL SHR NOT AND PUSH1 0x1 DUP6 SWAP1 SHL OR DUP6 SSTORE PUSH3 0x757 JUMP JUMPDEST PUSH0 DUP6 DUP2 MSTORE PUSH1 0x20 DUP2 KECCAK256 PUSH1 0x1F NOT DUP7 AND SWAP2 JUMPDEST DUP3 DUP2 LT ISZERO PUSH3 0x72D JUMPI DUP9 DUP7 ADD MLOAD DUP3 SSTORE SWAP5 DUP5 ADD SWAP5 PUSH1 0x1 SWAP1 SWAP2 ADD SWAP1 DUP5 ADD PUSH3 0x70C JUMP JUMPDEST POP DUP6 DUP3 LT ISZERO PUSH3 0x74B JUMPI DUP8 DUP6 ADD MLOAD PUSH0 NOT PUSH1 0x3 DUP9 SWAP1 SHL PUSH1 0xF8 AND SHR NOT AND DUP2 SSTORE JUMPDEST POP POP PUSH1 0x1 DUP5 PUSH1 0x1 SHL ADD DUP6 SSTORE JUMPDEST POP POP POP POP POP POP JUMP JUMPDEST PUSH0 PUSH1 0x20 DUP3 DUP5 SUB SLT ISZERO PUSH3 0x770 JUMPI PUSH0 DUP1 REVERT JUMPDEST DUP2 MLOAD PUSH1 0x1 PUSH1 0x1 PUSH1 0x40 SHL SUB DUP2 AND DUP2 EQ PUSH3 0x787 JUMPI PUSH0 DUP1 REVERT JUMPDEST SWAP4 SWAP3 POP POP POP JUMP JUMPDEST PUSH1 0x80 MLOAD PUSH2 0x3753 PUSH3 0x7AE PUSH0 CODECOPY PUSH0 DUP2 DUP2 PUSH2 0xF33 ADD MSTORE PUSH2 0xF75 ADD MSTORE PUSH2 0x3753 PUSH0 RETURN INVALID PUSH1 0x80 PUSH1 0x40 MSTORE PUSH1 0x4 CALLDATASIZE LT PUSH2 0x3B3 JUMPI PUSH0 CALLDATALOAD PUSH1 0xE0 SHR DUP1 PUSH4 0x67240C51 GT PUSH2 0x1E9 JUMPI DUP1 PUSH4 0xB2D00568 GT PUSH2 0x108 JUMPI DUP1 PUSH4 0xE58306F9 GT PUSH2 0x9D JUMPI DUP1 PUSH4 0xEFA00CE7 GT PUSH2 0x6D JUMPI DUP1 PUSH4 0xEFA00CE7 EQ PUSH2 0xAFA JUMPI DUP1 PUSH4 0xF259A29E EQ PUSH2 0xB19 JUMPI DUP1 PUSH4 0xF2FDE38B EQ PUSH2 0xB2D JUMPI DUP1 PUSH4 0xFC2A88C3 EQ PUSH2 0xB4C JUMPI PUSH0 DUP1 REVERT JUMPDEST DUP1 PUSH4 0xE58306F9 EQ PUSH2 0xA6B JUMPI DUP1 PUSH4 0xE8A3D485 EQ PUSH2 0xA8A JUMPI DUP1 PUSH4 0xE985E9C5 EQ PUSH2 0xA9E JUMPI DUP1 PUSH4 0xEBF0C717 EQ PUSH2 0xAE5 JUMPI PUSH0 DUP1 REVERT JUMPDEST DUP1 PUSH4 0xD5ABEB01 GT PUSH2 0xD8 JUMPI DUP1 PUSH4 0xD5ABEB01 EQ PUSH2 0x9F6 JUMPI DUP1 PUSH4 0xD8A4676F EQ PUSH2 0xA0B JUMPI DUP1 PUSH4 0xDAB5F340 EQ PUSH2 0xA38 JUMPI DUP1 PUSH4 0xE0C86289 EQ PUSH2 0xA57 JUMPI PUSH0 DUP1 REVERT JUMPDEST DUP1 PUSH4 0xB2D00568 EQ PUSH2 0x971 JUMPI DUP1 PUSH4 0xB365A3E2 EQ PUSH2 0x9A5 JUMPI DUP1 PUSH4 0xB88D4FDE EQ PUSH2 0x9C4 JUMPI DUP1 PUSH4 0xC87B56DD EQ PUSH2 0x9D7 JUMPI PUSH0 DUP1 REVERT JUMPDEST DUP1 PUSH4 0x8796BA8C GT PUSH2 0x17E JUMPI DUP1 PUSH4 0x9257E044 GT PUSH2 0x14E JUMPI DUP1 PUSH4 0x9257E044 EQ PUSH2 0x8DB JUMPI DUP1 PUSH4 0x95D89B41 EQ PUSH2 0x8F0 JUMPI DUP1 PUSH4 0xA168FA89 EQ PUSH2 0x904 JUMPI DUP1 PUSH4 0xA22CB465 EQ PUSH2 0x952 JUMPI PUSH0 DUP1 REVERT JUMPDEST DUP1 PUSH4 0x8796BA8C EQ PUSH2 0x861 JUMPI DUP1 PUSH4 0x8DA5CB5B EQ PUSH2 0x880 JUMPI DUP1 PUSH4 0x8DC17139 EQ PUSH2 0x89D JUMPI DUP1 PUSH4 0x923D4A78 EQ PUSH2 0x8BC JUMPI PUSH0 DUP1 REVERT JUMPDEST DUP1 PUSH4 0x70A08231 GT PUSH2 0x1B9 JUMPI DUP1 PUSH4 0x70A08231 EQ PUSH2 0x7FB JUMPI DUP1 PUSH4 0x73D4A13A EQ PUSH2 0x81A JUMPI DUP1 PUSH4 0x7696E088 EQ PUSH2 0x82E JUMPI DUP1 PUSH4 0x79BA5097 EQ PUSH2 0x84D JUMPI PUSH0 DUP1 REVERT JUMPDEST DUP1 PUSH4 0x67240C51 EQ PUSH2 0x77E JUMPI DUP1 PUSH4 0x6BA4C138 EQ PUSH2 0x79D JUMPI DUP1 PUSH4 0x6CF3B9E9 EQ PUSH2 0x7BC JUMPI DUP1 PUSH4 0x6F8608E4 EQ PUSH2 0x7DB JUMPI PUSH0 DUP1 REVERT JUMPDEST DUP1 PUSH4 0x2DB11544 GT PUSH2 0x2D5 JUMPI DUP1 PUSH4 0x453C2310 GT PUSH2 0x26A JUMPI DUP1 PUSH4 0x5503A0E8 GT PUSH2 0x23A JUMPI DUP1 PUSH4 0x5503A0E8 EQ PUSH2 0x70D JUMPI DUP1 PUSH4 0x55F804B3 EQ PUSH2 0x721 JUMPI DUP1 PUSH4 0x60D3E1AE EQ PUSH2 0x740 JUMPI DUP1 PUSH4 0x6352211E EQ PUSH2 0x75F JUMPI PUSH0 DUP1 REVERT JUMPDEST DUP1 PUSH4 0x453C2310 EQ PUSH2 0x6B0 JUMPI DUP1 PUSH4 0x46DF2CCB EQ PUSH2 0x6C5 JUMPI DUP1 PUSH4 0x4C2D8361 EQ PUSH2 0x6E4 JUMPI DUP1 PUSH4 0x4E71D92D EQ PUSH2 0x6F9 JUMPI PUSH0 DUP1 REVERT JUMPDEST DUP1 PUSH4 0x399A6E08 GT PUSH2 0x2A5 JUMPI DUP1 PUSH4 0x399A6E08 EQ PUSH2 0x632 JUMPI DUP1 PUSH4 0x3A602B4D EQ PUSH2 0x651 JUMPI DUP1 PUSH4 0x41F43434 EQ PUSH2 0x67C JUMPI DUP1 PUSH4 0x42842E0E EQ PUSH2 0x69D JUMPI PUSH0 DUP1 REVERT JUMPDEST DUP1 PUSH4 0x2DB11544 EQ PUSH2 0x5CC JUMPI DUP1 PUSH4 0x32BFC8BC EQ PUSH2 0x5DF JUMPI DUP1 PUSH4 0x339E85A5 EQ PUSH2 0x5FE JUMPI DUP1 PUSH4 0x36BB3C77 EQ PUSH2 0x613 JUMPI PUSH0 DUP1 REVERT JUMPDEST DUP1 PUSH4 0x13FAEDE6 GT PUSH2 0x34B JUMPI DUP1 PUSH4 0x1FE543E3 GT PUSH2 0x31B JUMPI DUP1 PUSH4 0x1FE543E3 EQ PUSH2 0x547 JUMPI DUP1 PUSH4 0x23B872DD EQ PUSH2 0x566 JUMPI DUP1 PUSH4 0x2A55205A EQ PUSH2 0x579 JUMPI DUP1 PUSH4 0x2C4E722E EQ PUSH2 0x5B7 JUMPI PUSH0 DUP1 REVERT JUMPDEST DUP1 PUSH4 0x13FAEDE6 EQ PUSH2 0x4C9 JUMPI DUP1 PUSH4 0x16BA10E0 EQ PUSH2 0x4EC JUMPI DUP1 PUSH4 0x18160DDD EQ PUSH2 0x50B JUMPI DUP1 PUSH4 0x1CA28AFD EQ PUSH2 0x527 JUMPI PUSH0 DUP1 REVERT JUMPDEST DUP1 PUSH4 0x95EA7B3 GT PUSH2 0x386 JUMPI DUP1 PUSH4 0x95EA7B3 EQ PUSH2 0x464 JUMPI DUP1 PUSH4 0xF5800FA EQ PUSH2 0x477 JUMPI DUP1 PUSH4 0x108BFBFA EQ PUSH2 0x497 JUMPI DUP1 PUSH4 0x11876875 EQ PUSH2 0x4B6 JUMPI PUSH0 DUP1 REVERT JUMPDEST DUP1 PUSH4 0x1FFC9A7 EQ PUSH2 0x3B7 JUMPI DUP1 PUSH4 0x2FA7C47 EQ PUSH2 0x3EB JUMPI DUP1 PUSH4 0x6FDDE03 EQ PUSH2 0x40C JUMPI DUP1 PUSH4 0x81812FC EQ PUSH2 0x42D JUMPI JUMPDEST PUSH0 DUP1 REVERT JUMPDEST CALLVALUE DUP1 ISZERO PUSH2 0x3C2 JUMPI PUSH0 DUP1 REVERT JUMPDEST POP PUSH2 0x3D6 PUSH2 0x3D1 CALLDATASIZE PUSH1 0x4 PUSH2 0x2E2C JUMP JUMPDEST PUSH2 0xB61 JUMP JUMPDEST PUSH1 0x40 MLOAD SWAP1 ISZERO ISZERO DUP2 MSTORE PUSH1 0x20 ADD JUMPDEST PUSH1 0x40 MLOAD DUP1 SWAP2 SUB SWAP1 RETURN JUMPDEST CALLVALUE DUP1 ISZERO PUSH2 0x3F6 JUMPI PUSH0 DUP1 REVERT JUMPDEST POP PUSH2 0x40A PUSH2 0x405 CALLDATASIZE PUSH1 0x4 PUSH2 0x2E5B JUMP JUMPDEST PUSH2 0xBCD JUMP JUMPDEST STOP JUMPDEST CALLVALUE DUP1 ISZERO PUSH2 0x417 JUMPI PUSH0 DUP1 REVERT JUMPDEST POP PUSH2 0x420 PUSH2 0xBE3 JUMP JUMPDEST PUSH1 0x40 MLOAD PUSH2 0x3E2 SWAP2 SWAP1 PUSH2 0x2EEA JUMP JUMPDEST CALLVALUE DUP1 ISZERO PUSH2 0x438 JUMPI PUSH0 DUP1 REVERT JUMPDEST POP PUSH2 0x44C PUSH2 0x447 CALLDATASIZE PUSH1 0x4 PUSH2 0x2EFC JUMP JUMPDEST PUSH2 0xC73 JUMP JUMPDEST PUSH1 0x40 MLOAD PUSH1 0x1 PUSH1 0x1 PUSH1 0xA0 SHL SUB SWAP1 SWAP2 AND DUP2 MSTORE PUSH1 0x20 ADD PUSH2 0x3E2 JUMP JUMPDEST PUSH2 0x40A PUSH2 0x472 CALLDATASIZE PUSH1 0x4 PUSH2 0x2F13 JUMP JUMPDEST PUSH2 0xCAC JUMP JUMPDEST CALLVALUE DUP1 ISZERO PUSH2 0x482 JUMPI PUSH0 DUP1 REVERT JUMPDEST POP PUSH1 0x20 SLOAD PUSH2 0x3D6 SWAP1 PUSH1 0x1 PUSH1 0xB0 SHL SWAP1 DIV PUSH1 0xFF AND DUP2 JUMP JUMPDEST CALLVALUE DUP1 ISZERO PUSH2 0x4A2 JUMPI PUSH0 DUP1 REVERT JUMPDEST POP PUSH2 0x40A PUSH2 0x4B1 CALLDATASIZE PUSH1 0x4 PUSH2 0x2EFC JUMP JUMPDEST PUSH2 0xCC7 JUMP JUMPDEST PUSH2 0x40A PUSH2 0x4C4 CALLDATASIZE PUSH1 0x4 PUSH2 0x2FFD JUMP JUMPDEST PUSH2 0xCD4 JUMP JUMPDEST CALLVALUE DUP1 ISZERO PUSH2 0x4D4 JUMPI PUSH0 DUP1 REVERT JUMPDEST POP PUSH2 0x4DE PUSH1 0xC SLOAD DUP2 JUMP JUMPDEST PUSH1 0x40 MLOAD SWAP1 DUP2 MSTORE PUSH1 0x20 ADD PUSH2 0x3E2 JUMP JUMPDEST CALLVALUE DUP1 ISZERO PUSH2 0x4F7 JUMPI PUSH0 DUP1 REVERT JUMPDEST POP PUSH2 0x40A PUSH2 0x506 CALLDATASIZE PUSH1 0x4 PUSH2 0x3094 JUMP JUMPDEST PUSH2 0xF14 JUMP JUMPDEST CALLVALUE DUP1 ISZERO PUSH2 0x516 JUMPI PUSH0 DUP1 REVERT JUMPDEST POP PUSH2 0x4DE PUSH1 0x5 SLOAD PUSH1 0x4 SLOAD SUB PUSH0 NOT ADD SWAP1 JUMP JUMPDEST CALLVALUE DUP1 ISZERO PUSH2 0x532 JUMPI PUSH0 DUP1 REVERT JUMPDEST POP PUSH1 0x20 SLOAD PUSH2 0x3D6 SWAP1 PUSH1 0x1 PUSH1 0xA8 SHL SWAP1 DIV PUSH1 0xFF AND DUP2 JUMP JUMPDEST CALLVALUE DUP1 ISZERO PUSH2 0x552 JUMPI PUSH0 DUP1 REVERT JUMPDEST POP PUSH2 0x40A PUSH2 0x561 CALLDATASIZE PUSH1 0x4 PUSH2 0x2FFD JUMP JUMPDEST PUSH2 0xF28 JUMP JUMPDEST PUSH2 0x40A PUSH2 0x574 CALLDATASIZE PUSH1 0x4 PUSH2 0x30D8 JUMP JUMPDEST PUSH2 0xFAC JUMP JUMPDEST CALLVALUE DUP1 ISZERO PUSH2 0x584 JUMPI PUSH0 DUP1 REVERT JUMPDEST POP PUSH2 0x598 PUSH2 0x593 CALLDATASIZE PUSH1 0x4 PUSH2 0x3116 JUMP JUMPDEST PUSH2 0x1151 JUMP JUMPDEST PUSH1 0x40 DUP1 MLOAD PUSH1 0x1 PUSH1 0x1 PUSH1 0xA0 SHL SUB SWAP1 SWAP4 AND DUP4 MSTORE PUSH1 0x20 DUP4 ADD SWAP2 SWAP1 SWAP2 MSTORE ADD PUSH2 0x3E2 JUMP JUMPDEST CALLVALUE DUP1 ISZERO PUSH2 0x5C2 JUMPI PUSH0 DUP1 REVERT JUMPDEST POP PUSH2 0x4DE PUSH1 0xE SLOAD DUP2 JUMP JUMPDEST PUSH2 0x40A PUSH2 0x5DA CALLDATASIZE PUSH1 0x4 PUSH2 0x2EFC JUMP JUMPDEST PUSH2 0x11FA JUMP JUMPDEST CALLVALUE DUP1 ISZERO PUSH2 0x5EA JUMPI PUSH0 DUP1 REVERT JUMPDEST POP PUSH2 0x40A PUSH2 0x5F9 CALLDATASIZE PUSH1 0x4 PUSH2 0x3136 JUMP JUMPDEST PUSH2 0x13E8 JUMP JUMPDEST CALLVALUE DUP1 ISZERO PUSH2 0x609 JUMPI PUSH0 DUP1 REVERT JUMPDEST POP PUSH2 0x4DE PUSH1 0xF SLOAD DUP2 JUMP JUMPDEST CALLVALUE DUP1 ISZERO PUSH2 0x61E JUMPI PUSH0 DUP1 REVERT JUMPDEST POP PUSH2 0x44C PUSH2 0x62D CALLDATASIZE PUSH1 0x4 PUSH2 0x2EFC JUMP JUMPDEST PUSH2 0x141E JUMP JUMPDEST CALLVALUE DUP1 ISZERO PUSH2 0x63D JUMPI PUSH0 DUP1 REVERT JUMPDEST POP PUSH2 0x44C PUSH2 0x64C CALLDATASIZE PUSH1 0x4 PUSH2 0x2EFC JUMP JUMPDEST PUSH2 0x14BF JUMP JUMPDEST CALLVALUE DUP1 ISZERO PUSH2 0x65C JUMPI PUSH0 DUP1 REVERT JUMPDEST POP PUSH2 0x4DE PUSH2 0x66B CALLDATASIZE PUSH1 0x4 PUSH2 0x3136 JUMP JUMPDEST PUSH1 0x2F PUSH1 0x20 MSTORE PUSH0 SWAP1 DUP2 MSTORE PUSH1 0x40 SWAP1 KECCAK256 SLOAD DUP2 JUMP JUMPDEST CALLVALUE DUP1 ISZERO PUSH2 0x687 JUMPI PUSH0 DUP1 REVERT JUMPDEST POP PUSH2 0x44C PUSH14 0xAAEB6D7670E522A718067333CD4E DUP2 JUMP JUMPDEST PUSH2 0x40A PUSH2 0x6AB CALLDATASIZE PUSH1 0x4 PUSH2 0x30D8 JUMP JUMPDEST PUSH2 0x1533 JUMP JUMPDEST CALLVALUE DUP1 ISZERO PUSH2 0x6BB JUMPI PUSH0 DUP1 REVERT JUMPDEST POP PUSH2 0x4DE PUSH1 0x11 SLOAD DUP2 JUMP JUMPDEST CALLVALUE DUP1 ISZERO PUSH2 0x6D0 JUMPI PUSH0 DUP1 REVERT JUMPDEST POP PUSH2 0x40A PUSH2 0x6DF CALLDATASIZE PUSH1 0x4 PUSH2 0x3116 JUMP JUMPDEST PUSH2 0x156D JUMP JUMPDEST CALLVALUE DUP1 ISZERO PUSH2 0x6EF JUMPI PUSH0 DUP1 REVERT JUMPDEST POP PUSH2 0x4DE PUSH1 0x12 SLOAD DUP2 JUMP JUMPDEST CALLVALUE DUP1 ISZERO PUSH2 0x704 JUMPI PUSH0 DUP1 REVERT JUMPDEST POP PUSH2 0x40A PUSH2 0x1580 JUMP JUMPDEST CALLVALUE DUP1 ISZERO PUSH2 0x718 JUMPI PUSH0 DUP1 REVERT JUMPDEST POP PUSH2 0x420 PUSH2 0x174D JUMP JUMPDEST CALLVALUE DUP1 ISZERO PUSH2 0x72C JUMPI PUSH0 DUP1 REVERT JUMPDEST POP PUSH2 0x40A PUSH2 0x73B CALLDATASIZE PUSH1 0x4 PUSH2 0x3094 JUMP JUMPDEST PUSH2 0x17D9 JUMP JUMPDEST CALLVALUE DUP1 ISZERO PUSH2 0x74B JUMPI PUSH0 DUP1 REVERT JUMPDEST POP PUSH2 0x40A PUSH2 0x75A CALLDATASIZE PUSH1 0x4 PUSH2 0x2EFC JUMP JUMPDEST PUSH2 0x17ED JUMP JUMPDEST CALLVALUE DUP1 ISZERO PUSH2 0x76A JUMPI PUSH0 DUP1 REVERT JUMPDEST POP PUSH2 0x44C PUSH2 0x779 CALLDATASIZE PUSH1 0x4 PUSH2 0x2EFC JUMP JUMPDEST PUSH2 0x17FA JUMP JUMPDEST CALLVALUE DUP1 ISZERO PUSH2 0x789 JUMPI PUSH0 DUP1 REVERT JUMPDEST POP PUSH2 0x40A PUSH2 0x798 CALLDATASIZE PUSH1 0x4 PUSH2 0x3136 JUMP JUMPDEST PUSH2 0x1804 JUMP JUMPDEST CALLVALUE DUP1 ISZERO PUSH2 0x7A8 JUMPI PUSH0 DUP1 REVERT JUMPDEST POP PUSH2 0x40A PUSH2 0x7B7 CALLDATASIZE PUSH1 0x4 PUSH2 0x3151 JUMP JUMPDEST PUSH2 0x182E JUMP JUMPDEST CALLVALUE DUP1 ISZERO PUSH2 0x7C7 JUMPI PUSH0 DUP1 REVERT JUMPDEST POP PUSH2 0x4DE PUSH2 0x7D6 CALLDATASIZE PUSH1 0x4 PUSH2 0x3151 JUMP JUMPDEST PUSH2 0x1AE1 JUMP JUMPDEST CALLVALUE DUP1 ISZERO PUSH2 0x7E6 JUMPI PUSH0 DUP1 REVERT JUMPDEST POP PUSH1 0x20 SLOAD PUSH2 0x3D6 SWAP1 PUSH1 0x1 PUSH1 0xA0 SHL SWAP1 DIV PUSH1 0xFF AND DUP2 JUMP JUMPDEST CALLVALUE DUP1 ISZERO PUSH2 0x806 JUMPI PUSH0 DUP1 REVERT JUMPDEST POP PUSH2 0x4DE PUSH2 0x815 CALLDATASIZE PUSH1 0x4 PUSH2 0x3136 JUMP JUMPDEST PUSH2 0x1CF4 JUMP JUMPDEST CALLVALUE DUP1 ISZERO PUSH2 0x825 JUMPI PUSH0 DUP1 REVERT JUMPDEST POP PUSH2 0x420 PUSH2 0x1D37 JUMP JUMPDEST CALLVALUE DUP1 ISZERO PUSH2 0x839 JUMPI PUSH0 DUP1 REVERT JUMPDEST POP PUSH2 0x40A PUSH2 0x848 CALLDATASIZE PUSH1 0x4 PUSH2 0x3116 JUMP JUMPDEST PUSH2 0x1D44 JUMP JUMPDEST CALLVALUE DUP1 ISZERO PUSH2 0x858 JUMPI PUSH0 DUP1 REVERT JUMPDEST POP PUSH2 0x40A PUSH2 0x1D57 JUMP JUMPDEST CALLVALUE DUP1 ISZERO PUSH2 0x86C JUMPI PUSH0 DUP1 REVERT JUMPDEST POP PUSH2 0x4DE PUSH2 0x87B CALLDATASIZE PUSH1 0x4 PUSH2 0x2EFC JUMP JUMPDEST PUSH2 0x1E04 JUMP JUMPDEST CALLVALUE DUP1 ISZERO PUSH2 0x88B JUMPI PUSH0 DUP1 REVERT JUMPDEST POP PUSH1 0x2 SLOAD PUSH1 0x1 PUSH1 0x1 PUSH1 0xA0 SHL SUB AND PUSH2 0x44C JUMP JUMPDEST CALLVALUE DUP1 ISZERO PUSH2 0x8A8 JUMPI PUSH0 DUP1 REVERT JUMPDEST POP PUSH2 0x40A PUSH2 0x8B7 CALLDATASIZE PUSH1 0x4 PUSH2 0x318F JUMP JUMPDEST PUSH2 0x1E23 JUMP JUMPDEST CALLVALUE DUP1 ISZERO PUSH2 0x8C7 JUMPI PUSH0 DUP1 REVERT JUMPDEST POP PUSH2 0x4DE PUSH2 0x8D6 CALLDATASIZE PUSH1 0x4 PUSH2 0x2EFC JUMP JUMPDEST PUSH2 0x1E49 JUMP JUMPDEST CALLVALUE DUP1 ISZERO PUSH2 0x8E6 JUMPI PUSH0 DUP1 REVERT JUMPDEST POP PUSH2 0x4DE PUSH1 0xD SLOAD DUP2 JUMP JUMPDEST CALLVALUE DUP1 ISZERO PUSH2 0x8FB JUMPI PUSH0 DUP1 REVERT JUMPDEST POP PUSH2 0x420 PUSH2 0x1E58 JUMP JUMPDEST CALLVALUE DUP1 ISZERO PUSH2 0x90F JUMPI PUSH0 DUP1 REVERT JUMPDEST POP PUSH2 0x93B PUSH2 0x91E CALLDATASIZE PUSH1 0x4 PUSH2 0x2EFC JUMP JUMPDEST PUSH1 0x27 PUSH1 0x20 MSTORE PUSH0 SWAP1 DUP2 MSTORE PUSH1 0x40 SWAP1 KECCAK256 SLOAD PUSH1 0xFF DUP1 DUP3 AND SWAP2 PUSH2 0x100 SWAP1 DIV AND DUP3 JUMP JUMPDEST PUSH1 0x40 DUP1 MLOAD SWAP3 ISZERO ISZERO DUP4 MSTORE SWAP1 ISZERO ISZERO PUSH1 0x20 DUP4 ADD MSTORE ADD PUSH2 0x3E2 JUMP JUMPDEST CALLVALUE DUP1 ISZERO PUSH2 0x95D JUMPI PUSH0 DUP1 REVERT JUMPDEST POP PUSH2 0x40A PUSH2 0x96C CALLDATASIZE PUSH1 0x4 PUSH2 0x31AA JUMP JUMPDEST PUSH2 0x1E67 JUMP JUMPDEST CALLVALUE DUP1 ISZERO PUSH2 0x97C JUMPI PUSH0 DUP1 REVERT JUMPDEST POP PUSH2 0x44C PUSH2 0x98B CALLDATASIZE PUSH1 0x4 PUSH2 0x2EFC JUMP JUMPDEST PUSH1 0x32 PUSH1 0x20 MSTORE PUSH0 SWAP1 DUP2 MSTORE PUSH1 0x40 SWAP1 KECCAK256 SLOAD PUSH1 0x1 PUSH1 0x1 PUSH1 0xA0 SHL SUB AND DUP2 JUMP JUMPDEST CALLVALUE DUP1 ISZERO PUSH2 0x9B0 JUMPI PUSH0 DUP1 REVERT JUMPDEST POP PUSH2 0x3D6 PUSH2 0x9BF CALLDATASIZE PUSH1 0x4 PUSH2 0x31D6 JUMP JUMPDEST PUSH2 0x1EDD JUMP JUMPDEST PUSH2 0x40A PUSH2 0x9D2 CALLDATASIZE PUSH1 0x4 PUSH2 0x3219 JUMP JUMPDEST PUSH2 0x1F2D JUMP JUMPDEST CALLVALUE DUP1 ISZERO PUSH2 0x9E2 JUMPI PUSH0 DUP1 REVERT JUMPDEST POP PUSH2 0x420 PUSH2 0x9F1 CALLDATASIZE PUSH1 0x4 PUSH2 0x2EFC JUMP JUMPDEST PUSH2 0x1F89 JUMP JUMPDEST CALLVALUE DUP1 ISZERO PUSH2 0xA01 JUMPI PUSH0 DUP1 REVERT JUMPDEST POP PUSH2 0x4DE PUSH1 0x10 SLOAD DUP2 JUMP JUMPDEST CALLVALUE DUP1 ISZERO PUSH2 0xA16 JUMPI PUSH0 DUP1 REVERT JUMPDEST POP PUSH2 0xA2A PUSH2 0xA25 CALLDATASIZE PUSH1 0x4 PUSH2 0x2EFC JUMP JUMPDEST PUSH2 0x2004 JUMP JUMPDEST PUSH1 0x40 MLOAD PUSH2 0x3E2 SWAP3 SWAP2 SWAP1 PUSH2 0x32CD JUMP JUMPDEST CALLVALUE DUP1 ISZERO PUSH2 0xA43 JUMPI PUSH0 DUP1 REVERT JUMPDEST POP PUSH2 0x40A PUSH2 0xA52 CALLDATASIZE PUSH1 0x4 PUSH2 0x2EFC JUMP JUMPDEST PUSH2 0x20F3 JUMP JUMPDEST CALLVALUE DUP1 ISZERO PUSH2 0xA62 JUMPI PUSH0 DUP1 REVERT JUMPDEST POP PUSH2 0x4DE PUSH2 0x2100 JUMP JUMPDEST CALLVALUE DUP1 ISZERO PUSH2 0xA76 JUMPI PUSH0 DUP1 REVERT JUMPDEST POP PUSH2 0x40A PUSH2 0xA85 CALLDATASIZE PUSH1 0x4 PUSH2 0x2F13 JUMP JUMPDEST PUSH2 0x2305 JUMP JUMPDEST CALLVALUE DUP1 ISZERO PUSH2 0xA95 JUMPI PUSH0 DUP1 REVERT JUMPDEST POP PUSH2 0x420 PUSH2 0x2370 JUMP JUMPDEST CALLVALUE DUP1 ISZERO PUSH2 0xAA9 JUMPI PUSH0 DUP1 REVERT JUMPDEST POP PUSH2 0x3D6 PUSH2 0xAB8 CALLDATASIZE PUSH1 0x4 PUSH2 0x32E7 JUMP JUMPDEST PUSH1 0x1 PUSH1 0x1 PUSH1 0xA0 SHL SUB SWAP2 DUP3 AND PUSH0 SWAP1 DUP2 MSTORE PUSH1 0x2E PUSH1 0x20 SWAP1 DUP2 MSTORE PUSH1 0x40 DUP1 DUP4 KECCAK256 SWAP4 SWAP1 SWAP5 AND DUP3 MSTORE SWAP2 SWAP1 SWAP2 MSTORE KECCAK256 SLOAD PUSH1 0xFF AND SWAP1 JUMP JUMPDEST CALLVALUE DUP1 ISZERO PUSH2 0xAF0 JUMPI PUSH0 DUP1 REVERT JUMPDEST POP PUSH2 0x4DE PUSH1 0x2A SLOAD DUP2 JUMP JUMPDEST CALLVALUE DUP1 ISZERO PUSH2 0xB05 JUMPI PUSH0 DUP1 REVERT JUMPDEST POP PUSH2 0x40A PUSH2 0xB14 CALLDATASIZE PUSH1 0x4 PUSH2 0x3094 JUMP JUMPDEST PUSH2 0x237D JUMP JUMPDEST CALLVALUE DUP1 ISZERO PUSH2 0xB24 JUMPI PUSH0 DUP1 REVERT JUMPDEST POP PUSH2 0x420 PUSH2 0x2391 JUMP JUMPDEST CALLVALUE DUP1 ISZERO PUSH2 0xB38 JUMPI PUSH0 DUP1 REVERT JUMPDEST POP PUSH2 0x40A PUSH2 0xB47 CALLDATASIZE PUSH1 0x4 PUSH2 0x3136 JUMP JUMPDEST PUSH2 0x239E JUMP JUMPDEST CALLVALUE DUP1 ISZERO PUSH2 0xB57 JUMPI PUSH0 DUP1 REVERT JUMPDEST POP PUSH2 0x4DE PUSH1 0x1A SLOAD DUP2 JUMP JUMPDEST PUSH0 PUSH4 0x1FFC9A7 PUSH1 0xE0 SHL PUSH1 0x1 PUSH1 0x1 PUSH1 0xE0 SHL SUB NOT DUP4 AND EQ DUP1 PUSH2 0xB91 JUMPI POP PUSH4 0x80AC58CD PUSH1 0xE0 SHL PUSH1 0x1 PUSH1 0x1 PUSH1 0xE0 SHL SUB NOT DUP4 AND EQ JUMPDEST DUP1 PUSH2 0xBAC JUMPI POP PUSH4 0x5B5E139F PUSH1 0xE0 SHL PUSH1 0x1 PUSH1 0x1 PUSH1 0xE0 SHL SUB NOT DUP4 AND EQ JUMPDEST DUP1 PUSH2 0xBC7 JUMPI POP PUSH1 0x1 PUSH1 0x1 PUSH1 0xE0 SHL SUB NOT DUP3 AND PUSH4 0x152A902D PUSH1 0xE1 SHL EQ JUMPDEST SWAP3 SWAP2 POP POP JUMP JUMPDEST PUSH2 0xBD5 PUSH2 0x23B2 JUMP JUMPDEST PUSH2 0xBDF DUP3 DUP3 PUSH2 0x2407 JUMP JUMPDEST POP POP JUMP JUMPDEST PUSH1 0x60 PUSH1 0x6 DUP1 SLOAD PUSH2 0xBF2 SWAP1 PUSH2 0x3313 JUMP JUMPDEST DUP1 PUSH1 0x1F ADD PUSH1 0x20 DUP1 SWAP2 DIV MUL PUSH1 0x20 ADD PUSH1 0x40 MLOAD SWAP1 DUP2 ADD PUSH1 0x40 MSTORE DUP1 SWAP3 SWAP2 SWAP1 DUP2 DUP2 MSTORE PUSH1 0x20 ADD DUP3 DUP1 SLOAD PUSH2 0xC1E SWAP1 PUSH2 0x3313 JUMP JUMPDEST DUP1 ISZERO PUSH2 0xC69 JUMPI DUP1 PUSH1 0x1F LT PUSH2 0xC40 JUMPI PUSH2 0x100 DUP1 DUP4 SLOAD DIV MUL DUP4 MSTORE SWAP2 PUSH1 0x20 ADD SWAP2 PUSH2 0xC69 JUMP JUMPDEST DUP3 ADD SWAP2 SWAP1 PUSH0 MSTORE PUSH1 0x20 PUSH0 KECCAK256 SWAP1 JUMPDEST DUP2 SLOAD DUP2 MSTORE SWAP1 PUSH1 0x1 ADD SWAP1 PUSH1 0x20 ADD DUP1 DUP4 GT PUSH2 0xC4C JUMPI DUP3 SWAP1 SUB PUSH1 0x1F AND DUP3 ADD SWAP2 JUMPDEST POP POP POP POP POP SWAP1 POP SWAP1 JUMP JUMPDEST PUSH0 PUSH2 0xC7D DUP3 PUSH2 0x24A8 JUMP JUMPDEST PUSH2 0xC91 JUMPI PUSH2 0xC91 PUSH4 0x33D1C039 PUSH1 0xE2 SHL PUSH2 0x24DB JUMP JUMPDEST POP PUSH0 SWAP1 DUP2 MSTORE PUSH1 0x2D PUSH1 0x20 MSTORE PUSH1 0x40 SWAP1 KECCAK256 SLOAD PUSH1 0x1 PUSH1 0x1 PUSH1 0xA0 SHL SUB AND SWAP1 JUMP JUMPDEST DUP2 PUSH2 0xCB6 DUP2 PUSH2 0x24E3 JUMP JUMPDEST PUSH2 0xCC2 DUP4 DUP4 PUSH1 0x1 PUSH2 0x259A JUMP JUMPDEST POP POP POP JUMP JUMPDEST PUSH2 0xCCF PUSH2 0x23B2 JUMP JUMPDEST PUSH1 0x12 SSTORE JUMP JUMPDEST PUSH1 0x20 SLOAD PUSH1 0x1 PUSH1 0xA0 SHL SWAP1 DIV PUSH1 0xFF AND PUSH2 0xD2C JUMPI PUSH1 0x40 MLOAD PUSH3 0x461BCD PUSH1 0xE5 SHL DUP2 MSTORE PUSH1 0x20 PUSH1 0x4 DUP3 ADD MSTORE PUSH1 0x17 PUSH1 0x24 DUP3 ADD MSTORE PUSH23 0x1B5A5B9D1A5B99C81A185CC81B9BDD081CDD185C9D1959 PUSH1 0x4A SHL PUSH1 0x44 DUP3 ADD MSTORE PUSH1 0x64 ADD JUMPDEST PUSH1 0x40 MLOAD DUP1 SWAP2 SUB SWAP1 REVERT JUMPDEST PUSH1 0x12 SLOAD DUP3 GT ISZERO PUSH2 0xD7E JUMPI PUSH1 0x40 MLOAD PUSH3 0x461BCD PUSH1 0xE5 SHL DUP2 MSTORE PUSH1 0x20 PUSH1 0x4 DUP3 ADD MSTORE PUSH1 0x1A PUSH1 0x24 DUP3 ADD MSTORE PUSH32 0x657863656564206D617820706572207472616E73616374696F6E000000000000 PUSH1 0x44 DUP3 ADD MSTORE PUSH1 0x64 ADD PUSH2 0xD23 JUMP JUMPDEST PUSH2 0xD88 DUP2 CALLER PUSH2 0x1EDD JUMP JUMPDEST PUSH2 0xDCD JUMPI PUSH1 0x40 MLOAD PUSH3 0x461BCD PUSH1 0xE5 SHL DUP2 MSTORE PUSH1 0x20 PUSH1 0x4 DUP3 ADD MSTORE PUSH1 0x16 PUSH1 0x24 DUP3 ADD MSTORE PUSH22 0x1DD85B1B195D081B9BDD081DDA1A5D19531A5CDD1959 PUSH1 0x52 SHL PUSH1 0x44 DUP3 ADD MSTORE PUSH1 0x64 ADD PUSH2 0xD23 JUMP JUMPDEST PUSH1 0x10 SLOAD DUP3 PUSH2 0xDE1 PUSH1 0x5 SLOAD PUSH1 0x4 SLOAD SUB PUSH0 NOT ADD SWAP1 JUMP JUMPDEST PUSH2 0xDEB SWAP2 SWAP1 PUSH2 0x335F JUMP JUMPDEST GT ISZERO PUSH2 0xE2C JUMPI PUSH1 0x40 MLOAD PUSH3 0x461BCD PUSH1 0xE5 SHL DUP2 MSTORE PUSH1 0x20 PUSH1 0x4 DUP3 ADD MSTORE PUSH1 0x10 PUSH1 0x24 DUP3 ADD MSTORE PUSH16 0x657863656564206D6178737570706C79 PUSH1 0x80 SHL PUSH1 0x44 DUP3 ADD MSTORE PUSH1 0x64 ADD PUSH2 0xD23 JUMP JUMPDEST PUSH1 0x11 SLOAD CALLER PUSH0 SWAP1 DUP2 MSTORE PUSH1 0x2F PUSH1 0x20 MSTORE PUSH1 0x40 SWAP1 KECCAK256 SLOAD PUSH2 0xE49 SWAP1 DUP5 SWAP1 PUSH2 0x335F JUMP JUMPDEST GT ISZERO PUSH2 0xE91 JUMPI PUSH1 0x40 MLOAD PUSH3 0x461BCD PUSH1 0xE5 SHL DUP2 MSTORE PUSH1 0x20 PUSH1 0x4 DUP3 ADD MSTORE PUSH1 0x17 PUSH1 0x24 DUP3 ADD MSTORE PUSH23 0x195E18D959591959081B585E081C195C881DD85B1B195D PUSH1 0x4A SHL PUSH1 0x44 DUP3 ADD MSTORE PUSH1 0x64 ADD PUSH2 0xD23 JUMP JUMPDEST DUP2 PUSH1 0xD SLOAD PUSH2 0xE9F SWAP2 SWAP1 PUSH2 0x3372 JUMP JUMPDEST CALLVALUE LT ISZERO PUSH2 0xEE3 JUMPI PUSH1 0x40 MLOAD PUSH3 0x461BCD PUSH1 0xE5 SHL DUP2 MSTORE PUSH1 0x20 PUSH1 0x4 DUP3 ADD MSTORE PUSH1 0x12 PUSH1 0x24 DUP3 ADD MSTORE PUSH18 0x496E73756666696369656E742066756E6473 PUSH1 0x70 SHL PUSH1 0x44 DUP3 ADD MSTORE PUSH1 0x64 ADD PUSH2 0xD23 JUMP JUMPDEST PUSH2 0xEED CALLER DUP4 PUSH2 0x263B JUMP JUMPDEST CALLER PUSH0 SWAP1 DUP2 MSTORE PUSH1 0x2F PUSH1 0x20 MSTORE PUSH1 0x40 DUP2 KECCAK256 DUP1 SLOAD DUP5 SWAP3 SWAP1 PUSH2 0xF0B SWAP1 DUP5 SWAP1 PUSH2 0x335F JUMP JUMPDEST SWAP1 SWAP2 SSTORE POP POP POP POP JUMP JUMPDEST PUSH2 0xF1C PUSH2 0x23B2 JUMP JUMPDEST PUSH1 0x9 PUSH2 0xBDF DUP3 DUP3 PUSH2 0x33CD JUMP JUMPDEST CALLER PUSH1 0x1 PUSH1 0x1 PUSH1 0xA0 SHL SUB PUSH32 0x0 AND EQ PUSH2 0xFA2 JUMPI PUSH1 0x40 MLOAD PUSH4 0x73E64FD PUSH1 0xE2 SHL DUP2 MSTORE CALLER PUSH1 0x4 DUP3 ADD MSTORE PUSH1 0x1 PUSH1 0x1 PUSH1 0xA0 SHL SUB PUSH32 0x0 AND PUSH1 0x24 DUP3 ADD MSTORE PUSH1 0x44 ADD PUSH2 0xD23 JUMP JUMPDEST PUSH2 0xBDF DUP3 DUP3 PUSH2 0x2654 JUMP JUMPDEST DUP3 PUSH1 0x1 PUSH1 0x1 PUSH1 0xA0 SHL SUB DUP2 AND CALLER EQ PUSH2 0xFC6 JUMPI PUSH2 0xFC6 CALLER PUSH2 0x24E3 JUMP JUMPDEST PUSH0 PUSH2 0xFD0 DUP4 PUSH2 0x27F0 JUMP JUMPDEST PUSH1 0x1 PUSH1 0x1 PUSH1 0xA0 SHL SUB SWAP6 DUP7 AND SWAP6 SWAP1 SWAP2 POP DUP2 AND DUP6 EQ PUSH2 0xFF6 JUMPI PUSH2 0xFF6 PUSH3 0xA11481 PUSH1 0xE8 SHL PUSH2 0x24DB JUMP JUMPDEST PUSH0 DUP4 DUP2 MSTORE PUSH1 0x2D PUSH1 0x20 MSTORE PUSH1 0x40 SWAP1 KECCAK256 DUP1 SLOAD CALLER DUP1 DUP3 EQ PUSH1 0x1 PUSH1 0x1 PUSH1 0xA0 SHL SUB DUP10 AND SWAP1 SWAP2 EQ OR PUSH2 0x1039 JUMPI PUSH2 0x1025 DUP8 CALLER PUSH2 0xAB8 JUMP JUMPDEST PUSH2 0x1039 JUMPI PUSH2 0x1039 PUSH4 0x2CE44B5F PUSH1 0xE1 SHL PUSH2 0x24DB JUMP JUMPDEST DUP1 ISZERO PUSH2 0x1043 JUMPI PUSH0 DUP3 SSTORE JUMPDEST PUSH1 0x1 PUSH1 0x1 PUSH1 0xA0 SHL SUB DUP8 DUP2 AND PUSH0 SWAP1 DUP2 MSTORE PUSH1 0x2C PUSH1 0x20 MSTORE PUSH1 0x40 DUP1 DUP3 KECCAK256 DUP1 SLOAD PUSH0 NOT ADD SWAP1 SSTORE SWAP2 DUP9 AND DUP1 DUP3 MSTORE SWAP2 SWAP1 KECCAK256 DUP1 SLOAD PUSH1 0x1 ADD SWAP1 SSTORE TIMESTAMP PUSH1 0xA0 SHL OR PUSH1 0x1 PUSH1 0xE1 SHL OR PUSH0 DUP7 DUP2 MSTORE PUSH1 0x2B PUSH1 0x20 MSTORE PUSH1 0x40 DUP2 KECCAK256 SWAP2 SWAP1 SWAP2 SSTORE PUSH1 0x1 PUSH1 0xE1 SHL DUP5 AND SWAP1 SUB PUSH2 0x10D0 JUMPI PUSH1 0x1 DUP6 ADD PUSH0 DUP2 DUP2 MSTORE PUSH1 0x2B PUSH1 0x20 MSTORE PUSH1 0x40 DUP2 KECCAK256 SLOAD SWAP1 SUB PUSH2 0x10CE JUMPI PUSH1 0x4 SLOAD DUP2 EQ PUSH2 0x10CE JUMPI PUSH0 DUP2 DUP2 MSTORE PUSH1 0x2B PUSH1 0x20 MSTORE PUSH1 0x40 SWAP1 KECCAK256 DUP5 SWAP1 SSTORE JUMPDEST POP JUMPDEST PUSH1 0x1 PUSH1 0x1 PUSH1 0xA0 SHL SUB DUP7 AND DUP6 DUP2 DUP10 PUSH32 0xDDF252AD1BE2C89B69C2B068FC378DAA952BA7F163C4A11628F55A4DF523B3EF PUSH0 DUP1 LOG4 PUSH0 DUP7 DUP2 MSTORE PUSH1 0x30 PUSH1 0x20 SWAP1 DUP2 MSTORE PUSH1 0x40 DUP1 DUP4 KECCAK256 PUSH1 0x1 PUSH1 0x1 PUSH1 0xA0 SHL SUB DUP12 DUP2 AND DUP6 MSTORE SWAP3 MSTORE DUP1 DUP4 KECCAK256 TIMESTAMP SWAP1 SSTORE SWAP1 DUP11 AND DUP3 MSTORE DUP2 KECCAK256 DUP2 SWAP1 SSTORE DUP2 SWAP1 SUB PUSH2 0x1147 JUMPI PUSH2 0x1147 PUSH4 0x3A954ECD PUSH1 0xE2 SHL PUSH2 0x24DB JUMP JUMPDEST POP POP POP POP POP POP POP POP JUMP JUMPDEST PUSH0 DUP3 DUP2 MSTORE PUSH1 0x1 PUSH1 0x20 SWAP1 DUP2 MSTORE PUSH1 0x40 DUP1 DUP4 KECCAK256 DUP2 MLOAD DUP1 DUP4 ADD SWAP1 SWAP3 MSTORE SLOAD PUSH1 0x1 PUSH1 0x1 PUSH1 0xA0 SHL SUB DUP2 AND DUP1 DUP4 MSTORE PUSH1 0x1 PUSH1 0xA0 SHL SWAP1 SWAP2 DIV PUSH1 0x1 PUSH1 0x1 PUSH1 0x60 SHL SUB AND SWAP3 DUP3 ADD SWAP3 SWAP1 SWAP3 MSTORE DUP3 SWAP2 PUSH2 0x11C4 JUMPI POP PUSH1 0x40 DUP1 MLOAD DUP1 DUP3 ADD SWAP1 SWAP2 MSTORE PUSH0 SLOAD PUSH1 0x1 PUSH1 0x1 PUSH1 0xA0 SHL SUB DUP2 AND DUP3 MSTORE PUSH1 0x1 PUSH1 0xA0 SHL SWAP1 DIV PUSH1 0x1 PUSH1 0x1 PUSH1 0x60 SHL SUB AND PUSH1 0x20 DUP3 ADD MSTORE JUMPDEST PUSH1 0x20 DUP2 ADD MLOAD PUSH0 SWAP1 PUSH2 0x2710 SWAP1 PUSH2 0x11E2 SWAP1 PUSH1 0x1 PUSH1 0x1 PUSH1 0x60 SHL SUB AND DUP8 PUSH2 0x3372 JUMP JUMPDEST PUSH2 0x11EC SWAP2 SWAP1 PUSH2 0x34A0 JUMP JUMPDEST SWAP2 MLOAD SWAP7 SWAP2 SWAP6 POP SWAP1 SWAP4 POP POP POP POP JUMP JUMPDEST PUSH1 0x20 SLOAD PUSH1 0x1 PUSH1 0xA0 SHL SWAP1 DIV PUSH1 0xFF AND PUSH2 0x124D JUMPI PUSH1 0x40 MLOAD PUSH3 0x461BCD PUSH1 0xE5 SHL DUP2 MSTORE PUSH1 0x20 PUSH1 0x4 DUP3 ADD MSTORE PUSH1 0x17 PUSH1 0x24 DUP3 ADD MSTORE PUSH23 0x1B5A5B9D1A5B99C81A185CC81B9BDD081CDD185C9D1959 PUSH1 0x4A SHL PUSH1 0x44 DUP3 ADD MSTORE PUSH1 0x64 ADD PUSH2 0xD23 JUMP JUMPDEST PUSH1 0x12 SLOAD DUP2 GT ISZERO PUSH2 0x129F JUMPI PUSH1 0x40 MLOAD PUSH3 0x461BCD PUSH1 0xE5 SHL DUP2 MSTORE PUSH1 0x20 PUSH1 0x4 DUP3 ADD MSTORE PUSH1 0x1B PUSH1 0x24 DUP3 ADD MSTORE PUSH32 0x65786365656420206D617820706572207472616E73616374696F6E0000000000 PUSH1 0x44 DUP3 ADD MSTORE PUSH1 0x64 ADD PUSH2 0xD23 JUMP JUMPDEST PUSH1 0x10 SLOAD DUP2 PUSH2 0x12B3 PUSH1 0x5 SLOAD PUSH1 0x4 SLOAD SUB PUSH0 NOT ADD SWAP1 JUMP JUMPDEST PUSH2 0x12BD SWAP2 SWAP1 PUSH2 0x335F JUMP JUMPDEST GT ISZERO PUSH2 0x1300 JUMPI PUSH1 0x40 MLOAD PUSH3 0x461BCD PUSH1 0xE5 SHL DUP2 MSTORE PUSH1 0x20 PUSH1 0x4 DUP3 ADD MSTORE PUSH1 0x12 PUSH1 0x24 DUP3 ADD MSTORE PUSH18 0x2065786365656420206D6178737570706C79 PUSH1 0x70 SHL PUSH1 0x44 DUP3 ADD MSTORE PUSH1 0x64 ADD PUSH2 0xD23 JUMP JUMPDEST PUSH1 0x11 SLOAD CALLER PUSH0 SWAP1 DUP2 MSTORE PUSH1 0x2F PUSH1 0x20 MSTORE PUSH1 0x40 SWAP1 KECCAK256 SLOAD PUSH2 0x131D SWAP1 DUP4 SWAP1 PUSH2 0x335F JUMP JUMPDEST GT ISZERO PUSH2 0x1365 JUMPI PUSH1 0x40 MLOAD PUSH3 0x461BCD PUSH1 0xE5 SHL DUP2 MSTORE PUSH1 0x20 PUSH1 0x4 DUP3 ADD MSTORE PUSH1 0x17 PUSH1 0x24 DUP3 ADD MSTORE PUSH23 0x195E18D959591959081B585E081C195C881DD85B1B195D PUSH1 0x4A SHL PUSH1 0x44 DUP3 ADD MSTORE PUSH1 0x64 ADD PUSH2 0xD23 JUMP JUMPDEST DUP1 PUSH1 0xC SLOAD PUSH2 0x1373 SWAP2 SWAP1 PUSH2 0x3372 JUMP JUMPDEST CALLVALUE LT ISZERO PUSH2 0x13B8 JUMPI PUSH1 0x40 MLOAD PUSH3 0x461BCD PUSH1 0xE5 SHL DUP2 MSTORE PUSH1 0x20 PUSH1 0x4 DUP3 ADD MSTORE PUSH1 0x13 PUSH1 0x24 DUP3 ADD MSTORE PUSH19 0x24B739BAB33334B1B4B2B73A10333AB732399 PUSH1 0x6D SHL PUSH1 0x44 DUP3 ADD MSTORE PUSH1 0x64 ADD PUSH2 0xD23 JUMP JUMPDEST PUSH2 0x13C2 CALLER DUP3 PUSH2 0x263B JUMP JUMPDEST CALLER PUSH0 SWAP1 DUP2 MSTORE PUSH1 0x2F PUSH1 0x20 MSTORE PUSH1 0x40 DUP2 KECCAK256 DUP1 SLOAD DUP4 SWAP3 SWAP1 PUSH2 0x13E0 SWAP1 DUP5 SWAP1 PUSH2 0x335F JUMP JUMPDEST SWAP1 SWAP2 SSTORE POP POP POP JUMP JUMPDEST PUSH2 0x13F0 PUSH2 0x23B2 JUMP JUMPDEST PUSH1 0x1E DUP1 SLOAD PUSH1 0x1 PUSH1 0x1 PUSH1 0xA0 SHL SUB SWAP1 SWAP3 AND PUSH5 0x100000000 MUL PUSH5 0x100000000 PUSH1 0x1 PUSH1 0xC0 SHL SUB NOT SWAP1 SWAP3 AND SWAP2 SWAP1 SWAP2 OR SWAP1 SSTORE JUMP JUMPDEST PUSH1 0x40 MLOAD PUSH4 0x2F4DE29B PUSH1 0xE1 SHL DUP2 MSTORE PUSH20 0x2D25602551487C3F3354DD80D76D54383A243358 PUSH1 0x4 DUP3 ADD MSTORE CHAINID PUSH1 0x24 DUP3 ADD MSTORE ADDRESS PUSH1 0x44 DUP3 ADD MSTORE PUSH1 0x64 DUP2 ADD DUP3 SWAP1 MSTORE PUSH0 PUSH1 0x84 DUP3 ADD DUP2 SWAP1 MSTORE SWAP1 PUSH20 0x2101DFB77FDE026414827FDC604DDAF224F0921 SWAP1 PUSH4 0x5E9BC536 SWAP1 PUSH1 0xA4 ADD PUSH1 0x20 PUSH1 0x40 MLOAD DUP1 DUP4 SUB DUP2 DUP7 GAS STATICCALL ISZERO DUP1 ISZERO PUSH2 0x149B JUMPI RETURNDATASIZE PUSH0 DUP1 RETURNDATACOPY RETURNDATASIZE PUSH0 REVERT JUMPDEST POP POP POP POP PUSH1 0x40 MLOAD RETURNDATASIZE PUSH1 0x1F NOT PUSH1 0x1F DUP3 ADD AND DUP3 ADD DUP1 PUSH1 0x40 MSTORE POP DUP2 ADD SWAP1 PUSH2 0xBC7 SWAP2 SWAP1 PUSH2 0x34B3 JUMP JUMPDEST PUSH1 0x40 MLOAD PUSH4 0xDA7323B3 PUSH1 0xE0 SHL DUP2 MSTORE PUSH0 SWAP1 PUSH20 0x2101DFB77FDE026414827FDC604DDAF224F0921 SWAP1 PUSH4 0xDA7323B3 SWAP1 PUSH2 0x1517 SWAP1 PUSH20 0x2D25602551487C3F3354DD80D76D54383A243358 SWAP1 CHAINID SWAP1 ADDRESS SWAP1 DUP9 SWAP1 DUP9 SWAP1 PUSH1 0xB SWAP1 PUSH1 0x4 ADD PUSH2 0x34CE JUMP JUMPDEST PUSH1 0x20 PUSH1 0x40 MLOAD DUP1 DUP4 SUB DUP2 PUSH0 DUP8 GAS CALL ISZERO DUP1 ISZERO PUSH2 0x149B JUMPI RETURNDATASIZE PUSH0 DUP1 RETURNDATACOPY RETURNDATASIZE PUSH0 REVERT JUMPDEST DUP3 PUSH1 0x1 PUSH1 0x1 PUSH1 0xA0 SHL SUB DUP2 AND CALLER EQ PUSH2 0x154D JUMPI PUSH2 0x154D CALLER PUSH2 0x24E3 JUMP JUMPDEST PUSH2 0x1567 DUP5 DUP5 DUP5 PUSH1 0x40 MLOAD DUP1 PUSH1 0x20 ADD PUSH1 0x40 MSTORE DUP1 PUSH0 DUP2 MSTORE POP PUSH2 0x1F2D JUMP JUMPDEST POP POP POP POP JUMP JUMPDEST PUSH2 0x1575 PUSH2 0x23B2 JUMP JUMPDEST PUSH1 0xE SWAP2 SWAP1 SWAP2 SSTORE PUSH1 0xF SSTORE JUMP JUMPDEST PUSH2 0x1588 PUSH2 0x23B2 JUMP JUMPDEST PUSH1 0x21 SLOAD SELFBALANCE SWAP1 PUSH1 0x1 PUSH1 0x1 PUSH1 0xA0 SHL SUB AND PUSH2 0x8FC PUSH2 0x15A4 PUSH1 0x64 DUP5 PUSH2 0x34A0 JUMP JUMPDEST PUSH2 0x15AF SWAP1 PUSH1 0x50 PUSH2 0x3372 JUMP JUMPDEST PUSH1 0x40 MLOAD DUP2 ISZERO SWAP1 SWAP3 MUL SWAP2 PUSH0 DUP2 DUP2 DUP2 DUP6 DUP9 DUP9 CALL SWAP4 POP POP POP POP ISZERO DUP1 ISZERO PUSH2 0x15D4 JUMPI RETURNDATASIZE PUSH0 DUP1 RETURNDATACOPY RETURNDATASIZE PUSH0 REVERT JUMPDEST POP PUSH1 0x22 SLOAD SELFBALANCE SWAP1 PUSH1 0x1 PUSH1 0x1 PUSH1 0xA0 SHL SUB AND PUSH2 0x8FC PUSH2 0x15F1 PUSH1 0x64 DUP5 PUSH2 0x34A0 JUMP JUMPDEST PUSH2 0x15FC SWAP1 PUSH1 0xA PUSH2 0x3372 JUMP JUMPDEST PUSH1 0x40 MLOAD DUP2 ISZERO SWAP1 SWAP3 MUL SWAP2 PUSH0 DUP2 DUP2 DUP2 DUP6 DUP9 DUP9 CALL SWAP4 POP POP POP POP ISZERO DUP1 ISZERO PUSH2 0x1621 JUMPI RETURNDATASIZE PUSH0 DUP1 RETURNDATACOPY RETURNDATASIZE PUSH0 REVERT JUMPDEST POP PUSH1 0x23 SLOAD PUSH1 0x1 PUSH1 0x1 PUSH1 0xA0 SHL SUB AND PUSH2 0x8FC PUSH2 0x163C PUSH1 0x64 DUP5 PUSH2 0x34A0 JUMP JUMPDEST PUSH2 0x1647 SWAP1 PUSH1 0xE PUSH2 0x3372 JUMP JUMPDEST PUSH1 0x40 MLOAD DUP2 ISZERO SWAP1 SWAP3 MUL SWAP2 PUSH0 DUP2 DUP2 DUP2 DUP6 DUP9 DUP9 CALL SWAP4 POP POP POP POP ISZERO DUP1 ISZERO PUSH2 0x166C JUMPI RETURNDATASIZE PUSH0 DUP1 RETURNDATACOPY RETURNDATASIZE PUSH0 REVERT JUMPDEST POP PUSH1 0x24 SLOAD PUSH1 0x1 PUSH1 0x1 PUSH1 0xA0 SHL SUB AND PUSH2 0x8FC PUSH2 0x1687 PUSH1 0x64 DUP5 PUSH2 0x34A0 JUMP JUMPDEST PUSH2 0x1692 SWAP1 PUSH1 0x14 PUSH2 0x3372 JUMP JUMPDEST PUSH1 0x40 MLOAD DUP2 ISZERO SWAP1 SWAP3 MUL SWAP2 PUSH0 DUP2 DUP2 DUP2 DUP6 DUP9 DUP9 CALL SWAP4 POP POP POP POP ISZERO DUP1 ISZERO PUSH2 0x16B7 JUMPI RETURNDATASIZE PUSH0 DUP1 RETURNDATACOPY RETURNDATASIZE PUSH0 REVERT JUMPDEST POP PUSH1 0x25 SLOAD PUSH1 0x1 PUSH1 0x1 PUSH1 0xA0 SHL SUB AND PUSH2 0x8FC PUSH2 0x16D2 PUSH1 0x64 DUP5 PUSH2 0x34A0 JUMP JUMPDEST PUSH2 0x16DD SWAP1 PUSH1 0x33 PUSH2 0x3372 JUMP JUMPDEST PUSH1 0x40 MLOAD DUP2 ISZERO SWAP1 SWAP3 MUL SWAP2 PUSH0 DUP2 DUP2 DUP2 DUP6 DUP9 DUP9 CALL SWAP4 POP POP POP POP ISZERO DUP1 ISZERO PUSH2 0x1702 JUMPI RETURNDATASIZE PUSH0 DUP1 RETURNDATACOPY RETURNDATASIZE PUSH0 REVERT JUMPDEST POP PUSH1 0x26 SLOAD PUSH1 0x1 PUSH1 0x1 PUSH1 0xA0 SHL SUB AND PUSH2 0x8FC PUSH2 0x171D PUSH1 0x64 DUP5 PUSH2 0x34A0 JUMP JUMPDEST PUSH2 0x1728 SWAP1 PUSH1 0x5 PUSH2 0x3372 JUMP JUMPDEST PUSH1 0x40 MLOAD DUP2 ISZERO SWAP1 SWAP3 MUL SWAP2 PUSH0 DUP2 DUP2 DUP2 DUP6 DUP9 DUP9 CALL SWAP4 POP POP POP POP ISZERO DUP1 ISZERO PUSH2 0xCC2 JUMPI RETURNDATASIZE PUSH0 DUP1 RETURNDATACOPY RETURNDATASIZE PUSH0 REVERT JUMPDEST PUSH1 0x9 DUP1 SLOAD PUSH2 0x175A SWAP1 PUSH2 0x3313 JUMP JUMPDEST DUP1 PUSH1 0x1F ADD PUSH1 0x20 DUP1 SWAP2 DIV MUL PUSH1 0x20 ADD PUSH1 0x40 MLOAD SWAP1 DUP2 ADD PUSH1 0x40 MSTORE DUP1 SWAP3 SWAP2 SWAP1 DUP2 DUP2 MSTORE PUSH1 0x20 ADD DUP3 DUP1 SLOAD PUSH2 0x1786 SWAP1 PUSH2 0x3313 JUMP JUMPDEST DUP1 ISZERO PUSH2 0x17D1 JUMPI DUP1 PUSH1 0x1F LT PUSH2 0x17A8 JUMPI PUSH2 0x100 DUP1 DUP4 SLOAD DIV MUL DUP4 MSTORE SWAP2 PUSH1 0x20 ADD SWAP2 PUSH2 0x17D1 JUMP JUMPDEST DUP3 ADD SWAP2 SWAP1 PUSH0 MSTORE PUSH1 0x20 PUSH0 KECCAK256 SWAP1 JUMPDEST DUP2 SLOAD DUP2 MSTORE SWAP1 PUSH1 0x1 ADD SWAP1 PUSH1 0x20 ADD DUP1 DUP4 GT PUSH2 0x17B4 JUMPI DUP3 SWAP1 SUB PUSH1 0x1F AND DUP3 ADD SWAP2 JUMPDEST POP POP POP POP POP DUP2 JUMP JUMPDEST PUSH2 0x17E1 PUSH2 0x23B2 JUMP JUMPDEST PUSH1 0x8 PUSH2 0xBDF DUP3 DUP3 PUSH2 0x33CD JUMP JUMPDEST PUSH2 0x17F5 PUSH2 0x23B2 JUMP JUMPDEST PUSH1 0x11 SSTORE JUMP JUMPDEST PUSH0 PUSH2 0xBC7 DUP3 PUSH2 0x27F0 JUMP JUMPDEST PUSH2 0x180C PUSH2 0x23B2 JUMP JUMPDEST PUSH1 0x1F DUP1 SLOAD PUSH1 0x1 PUSH1 0x1 PUSH1 0xA0 SHL SUB NOT AND PUSH1 0x1 PUSH1 0x1 PUSH1 0xA0 SHL SUB SWAP3 SWAP1 SWAP3 AND SWAP2 SWAP1 SWAP2 OR SWAP1 SSTORE JUMP JUMPDEST PUSH0 PUSH2 0x1838 CALLER PUSH2 0x1CF4 JUMP JUMPDEST GT PUSH2 0x1880 JUMPI PUSH1 0x40 MLOAD PUSH3 0x461BCD PUSH1 0xE5 SHL DUP2 MSTORE PUSH1 0x20 PUSH1 0x4 DUP3 ADD MSTORE PUSH1 0x18 PUSH1 0x24 DUP3 ADD MSTORE PUSH24 0x139BDD08145D585B1A599A595908119BDC8814995DD85C99 PUSH1 0x42 SHL PUSH1 0x44 DUP3 ADD MSTORE PUSH1 0x64 ADD PUSH2 0xD23 JUMP JUMPDEST PUSH0 DUP2 MLOAD PUSH1 0x1 PUSH1 0x1 PUSH1 0x40 SHL SUB DUP2 GT ISZERO PUSH2 0x189A JUMPI PUSH2 0x189A PUSH2 0x2F3D JUMP JUMPDEST PUSH1 0x40 MLOAD SWAP1 DUP1 DUP3 MSTORE DUP1 PUSH1 0x20 MUL PUSH1 0x20 ADD DUP3 ADD PUSH1 0x40 MSTORE DUP1 ISZERO PUSH2 0x18C3 JUMPI DUP2 PUSH1 0x20 ADD PUSH1 0x20 DUP3 MUL DUP1 CALLDATASIZE DUP4 CALLDATACOPY ADD SWAP1 POP JUMPDEST POP SWAP1 POP DUP2 SWAP1 POP PUSH0 DUP1 PUSH0 DUP1 JUMPDEST DUP5 MLOAD DUP2 LT ISZERO PUSH2 0x1A73 JUMPI PUSH0 PUSH1 0x30 PUSH0 DUP8 DUP5 DUP2 MLOAD DUP2 LT PUSH2 0x18ED JUMPI PUSH2 0x18ED PUSH2 0x358C JUMP JUMPDEST PUSH1 0x20 MUL PUSH1 0x20 ADD ADD MLOAD DUP2 MSTORE PUSH1 0x20 ADD SWAP1 DUP2 MSTORE PUSH1 0x20 ADD PUSH0 KECCAK256 PUSH0 CALLER PUSH1 0x1 PUSH1 0x1 PUSH1 0xA0 SHL SUB AND PUSH1 0x1 PUSH1 0x1 PUSH1 0xA0 SHL SUB AND DUP2 MSTORE PUSH1 0x20 ADD SWAP1 DUP2 MSTORE PUSH1 0x20 ADD PUSH0 KECCAK256 SLOAD GT ISZERO PUSH2 0x1A6B JUMPI PUSH1 0x30 PUSH0 DUP7 DUP4 DUP2 MLOAD DUP2 LT PUSH2 0x193F JUMPI PUSH2 0x193F PUSH2 0x358C JUMP JUMPDEST PUSH1 0x20 MUL PUSH1 0x20 ADD ADD MLOAD DUP2 MSTORE PUSH1 0x20 ADD SWAP1 DUP2 MSTORE PUSH1 0x20 ADD PUSH0 KECCAK256 PUSH0 CALLER PUSH1 0x1 PUSH1 0x1 PUSH1 0xA0 SHL SUB AND PUSH1 0x1 PUSH1 0x1 PUSH1 0xA0 SHL SUB AND DUP2 MSTORE PUSH1 0x20 ADD SWAP1 DUP2 MSTORE PUSH1 0x20 ADD PUSH0 KECCAK256 SLOAD TIMESTAMP PUSH2 0x1981 SWAP2 SWAP1 PUSH2 0x35A0 JUMP JUMPDEST SWAP4 POP PUSH3 0x15180 DUP5 PUSH1 0xE SLOAD PUSH8 0xDE0B6B3A7640000 PUSH2 0x199E SWAP2 SWAP1 PUSH2 0x3372 JUMP JUMPDEST PUSH2 0x19A8 SWAP2 SWAP1 PUSH2 0x3372 JUMP JUMPDEST PUSH2 0x19B2 SWAP2 SWAP1 PUSH2 0x34A0 JUMP JUMPDEST SWAP3 POP PUSH1 0x31 PUSH0 DUP7 DUP4 DUP2 MLOAD DUP2 LT PUSH2 0x19C9 JUMPI PUSH2 0x19C9 PUSH2 0x358C JUMP JUMPDEST PUSH1 0x20 SWAP1 DUP2 MUL SWAP2 SWAP1 SWAP2 ADD DUP2 ADD MLOAD DUP3 MSTORE DUP2 ADD SWAP2 SWAP1 SWAP2 MSTORE PUSH1 0x40 ADD PUSH0 KECCAK256 SLOAD PUSH1 0xFF AND ISZERO ISZERO PUSH1 0x1 SUB PUSH2 0x1A21 JUMPI PUSH3 0x15180 DUP5 PUSH1 0xF SLOAD PUSH8 0xDE0B6B3A7640000 PUSH2 0x1A0A SWAP2 SWAP1 PUSH2 0x3372 JUMP JUMPDEST PUSH2 0x1A14 SWAP2 SWAP1 PUSH2 0x3372 JUMP JUMPDEST PUSH2 0x1A1E SWAP2 SWAP1 PUSH2 0x34A0 JUMP JUMPDEST SWAP3 POP JUMPDEST PUSH2 0x1A2B DUP4 DUP4 PUSH2 0x335F JUMP JUMPDEST SWAP2 POP TIMESTAMP PUSH1 0x30 PUSH0 DUP8 DUP5 DUP2 MLOAD DUP2 LT PUSH2 0x1A43 JUMPI PUSH2 0x1A43 PUSH2 0x358C JUMP JUMPDEST PUSH1 0x20 SWAP1 DUP2 MUL SWAP2 SWAP1 SWAP2 ADD DUP2 ADD MLOAD DUP3 MSTORE DUP2 DUP2 ADD SWAP3 SWAP1 SWAP3 MSTORE PUSH1 0x40 SWAP1 DUP2 ADD PUSH0 SWAP1 DUP2 KECCAK256 CALLER DUP3 MSTORE SWAP1 SWAP3 MSTORE SWAP1 KECCAK256 SSTORE JUMPDEST PUSH1 0x1 ADD PUSH2 0x18CE JUMP JUMPDEST POP PUSH1 0x1E SLOAD PUSH1 0x40 MLOAD PUSH4 0x40C10F19 PUSH1 0xE0 SHL DUP2 MSTORE CALLER PUSH1 0x4 DUP3 ADD MSTORE PUSH1 0x24 DUP2 ADD DUP4 SWAP1 MSTORE PUSH5 0x100000000 SWAP1 SWAP2 DIV PUSH1 0x1 PUSH1 0x1 PUSH1 0xA0 SHL SUB AND SWAP1 PUSH4 0x40C10F19 SWAP1 PUSH1 0x44 ADD PUSH0 PUSH1 0x40 MLOAD DUP1 DUP4 SUB DUP2 PUSH0 DUP8 DUP1 EXTCODESIZE ISZERO DUP1 ISZERO PUSH2 0x1AC4 JUMPI PUSH0 DUP1 REVERT JUMPDEST POP GAS CALL ISZERO DUP1 ISZERO PUSH2 0x1AD6 JUMPI RETURNDATASIZE PUSH0 DUP1 RETURNDATACOPY RETURNDATASIZE PUSH0 REVERT JUMPDEST POP POP POP POP POP POP POP POP POP JUMP JUMPDEST PUSH0 DUP1 PUSH2 0x1AEC CALLER PUSH2 0x1CF4 JUMP JUMPDEST GT PUSH2 0x1B34 JUMPI PUSH1 0x40 MLOAD PUSH3 0x461BCD PUSH1 0xE5 SHL DUP2 MSTORE PUSH1 0x20 PUSH1 0x4 DUP3 ADD MSTORE PUSH1 0x18 PUSH1 0x24 DUP3 ADD MSTORE PUSH24 0x139BDD08145D585B1A599A595908119BDC8814995DD85C99 PUSH1 0x42 SHL PUSH1 0x44 DUP3 ADD MSTORE PUSH1 0x64 ADD PUSH2 0xD23 JUMP JUMPDEST PUSH0 DUP3 MLOAD PUSH1 0x1 PUSH1 0x1 PUSH1 0x40 SHL SUB DUP2 GT ISZERO PUSH2 0x1B4E JUMPI PUSH2 0x1B4E PUSH2 0x2F3D JUMP JUMPDEST PUSH1 0x40 MLOAD SWAP1 DUP1 DUP3 MSTORE DUP1 PUSH1 0x20 MUL PUSH1 0x20 ADD DUP3 ADD PUSH1 0x40 MSTORE DUP1 ISZERO PUSH2 0x1B77 JUMPI DUP2 PUSH1 0x20 ADD PUSH1 0x20 DUP3 MUL DUP1 CALLDATASIZE DUP4 CALLDATACOPY ADD SWAP1 POP JUMPDEST POP SWAP1 POP DUP3 SWAP1 POP PUSH0 DUP1 PUSH0 DUP1 JUMPDEST DUP5 MLOAD DUP2 LT ISZERO PUSH2 0x1CEA JUMPI PUSH0 PUSH1 0x30 PUSH0 DUP8 DUP5 DUP2 MLOAD DUP2 LT PUSH2 0x1BA1 JUMPI PUSH2 0x1BA1 PUSH2 0x358C JUMP JUMPDEST PUSH1 0x20 MUL PUSH1 0x20 ADD ADD MLOAD DUP2 MSTORE PUSH1 0x20 ADD SWAP1 DUP2 MSTORE PUSH1 0x20 ADD PUSH0 KECCAK256 PUSH0 CALLER PUSH1 0x1 PUSH1 0x1 PUSH1 0xA0 SHL SUB AND PUSH1 0x1 PUSH1 0x1 PUSH1 0xA0 SHL SUB AND DUP2 MSTORE PUSH1 0x20 ADD SWAP1 DUP2 MSTORE PUSH1 0x20 ADD PUSH0 KECCAK256 SLOAD GT ISZERO PUSH2 0x1CE2 JUMPI PUSH1 0x30 PUSH0 DUP7 DUP4 DUP2 MLOAD DUP2 LT PUSH2 0x1BF3 JUMPI PUSH2 0x1BF3 PUSH2 0x358C JUMP JUMPDEST PUSH1 0x20 MUL PUSH1 0x20 ADD ADD MLOAD DUP2 MSTORE PUSH1 0x20 ADD SWAP1 DUP2 MSTORE PUSH1 0x20 ADD PUSH0 KECCAK256 PUSH0 CALLER PUSH1 0x1 PUSH1 0x1 PUSH1 0xA0 SHL SUB AND PUSH1 0x1 PUSH1 0x1 PUSH1 0xA0 SHL SUB AND DUP2 MSTORE PUSH1 0x20 ADD SWAP1 DUP2 MSTORE PUSH1 0x20 ADD PUSH0 KECCAK256 SLOAD TIMESTAMP PUSH2 0x1C35 SWAP2 SWAP1 PUSH2 0x35A0 JUMP JUMPDEST SWAP4 POP PUSH3 0x15180 DUP5 PUSH1 0xE SLOAD PUSH8 0xDE0B6B3A7640000 PUSH2 0x1C52 SWAP2 SWAP1 PUSH2 0x3372 JUMP JUMPDEST PUSH2 0x1C5C SWAP2 SWAP1 PUSH2 0x3372 JUMP JUMPDEST PUSH2 0x1C66 SWAP2 SWAP1 PUSH2 0x34A0 JUMP JUMPDEST SWAP3 POP PUSH1 0x31 PUSH0 DUP7 DUP4 DUP2 MLOAD DUP2 LT PUSH2 0x1C7D JUMPI PUSH2 0x1C7D PUSH2 0x358C JUMP JUMPDEST PUSH1 0x20 SWAP1 DUP2 MUL SWAP2 SWAP1 SWAP2 ADD DUP2 ADD MLOAD DUP3 MSTORE DUP2 ADD SWAP2 SWAP1 SWAP2 MSTORE PUSH1 0x40 ADD PUSH0 KECCAK256 SLOAD PUSH1 0xFF AND ISZERO ISZERO PUSH1 0x1 SUB PUSH2 0x1CD5 JUMPI PUSH3 0x15180 DUP5 PUSH1 0xF SLOAD PUSH8 0xDE0B6B3A7640000 PUSH2 0x1CBE SWAP2 SWAP1 PUSH2 0x3372 JUMP JUMPDEST PUSH2 0x1CC8 SWAP2 SWAP1 PUSH2 0x3372 JUMP JUMPDEST PUSH2 0x1CD2 SWAP2 SWAP1 PUSH2 0x34A0 JUMP JUMPDEST SWAP3 POP JUMPDEST PUSH2 0x1CDF DUP4 DUP4 PUSH2 0x335F JUMP JUMPDEST SWAP2 POP JUMPDEST PUSH1 0x1 ADD PUSH2 0x1B82 JUMP JUMPDEST POP SWAP6 SWAP5 POP POP POP POP POP JUMP JUMPDEST PUSH0 PUSH1 0x1 PUSH1 0x1 PUSH1 0xA0 SHL SUB DUP3 AND PUSH2 0x1D13 JUMPI PUSH2 0x1D13 PUSH4 0x23D3AD81 PUSH1 0xE2 SHL PUSH2 0x24DB JUMP JUMPDEST POP PUSH1 0x1 PUSH1 0x1 PUSH1 0xA0 SHL SUB AND PUSH0 SWAP1 DUP2 MSTORE PUSH1 0x2C PUSH1 0x20 MSTORE PUSH1 0x40 SWAP1 KECCAK256 SLOAD PUSH1 0x1 PUSH1 0x1 PUSH1 0x40 SHL SUB AND SWAP1 JUMP JUMPDEST PUSH1 0xB DUP1 SLOAD PUSH2 0x175A SWAP1 PUSH2 0x3313 JUMP JUMPDEST PUSH2 0x1D4C PUSH2 0x23B2 JUMP JUMPDEST PUSH1 0xC SWAP2 SWAP1 SWAP2 SSTORE PUSH1 0xD SSTORE JUMP JUMPDEST PUSH1 0x3 SLOAD PUSH1 0x1 PUSH1 0x1 PUSH1 0xA0 SHL SUB AND CALLER EQ PUSH2 0x1DAA JUMPI PUSH1 0x40 MLOAD PUSH3 0x461BCD PUSH1 0xE5 SHL DUP2 MSTORE PUSH1 0x20 PUSH1 0x4 DUP3 ADD MSTORE PUSH1 0x16 PUSH1 0x24 DUP3 ADD MSTORE PUSH22 0x26BAB9BA10313290383937B837B9B2B21037BBB732B9 PUSH1 0x51 SHL PUSH1 0x44 DUP3 ADD MSTORE PUSH1 0x64 ADD PUSH2 0xD23 JUMP JUMPDEST PUSH1 0x2 DUP1 SLOAD PUSH1 0x1 PUSH1 0x1 PUSH1 0xA0 SHL SUB NOT DUP1 DUP3 AND CALLER SWAP1 DUP2 OR SWAP1 SWAP4 SSTORE PUSH1 0x3 DUP1 SLOAD SWAP1 SWAP2 AND SWAP1 SSTORE PUSH1 0x40 MLOAD PUSH1 0x1 PUSH1 0x1 PUSH1 0xA0 SHL SUB SWAP1 SWAP2 AND SWAP2 SWAP1 DUP3 SWAP1 PUSH32 0x8BE0079C531659141344CD1FD0A4F28419497F9722A3DAAFE3B4186F6B6457E0 SWAP1 PUSH0 SWAP1 LOG3 POP JUMP JUMPDEST PUSH1 0x19 DUP2 DUP2 SLOAD DUP2 LT PUSH2 0x1E13 JUMPI PUSH0 DUP1 REVERT JUMPDEST PUSH0 SWAP2 DUP3 MSTORE PUSH1 0x20 SWAP1 SWAP2 KECCAK256 ADD SLOAD SWAP1 POP DUP2 JUMP JUMPDEST PUSH2 0x1E2B PUSH2 0x23B2 JUMP JUMPDEST PUSH1 0x20 DUP1 SLOAD SWAP2 ISZERO ISZERO PUSH1 0x1 PUSH1 0xA0 SHL MUL PUSH1 0xFF PUSH1 0xA0 SHL NOT SWAP1 SWAP3 AND SWAP2 SWAP1 SWAP2 OR SWAP1 SSTORE JUMP JUMPDEST PUSH1 0x18 DUP2 DUP2 SLOAD DUP2 LT PUSH2 0x1E13 JUMPI PUSH0 DUP1 REVERT JUMPDEST PUSH1 0x60 PUSH1 0x7 DUP1 SLOAD PUSH2 0xBF2 SWAP1 PUSH2 0x3313 JUMP JUMPDEST DUP2 PUSH2 0x1E71 DUP2 PUSH2 0x24E3 JUMP JUMPDEST CALLER PUSH0 DUP2 DUP2 MSTORE PUSH1 0x2E PUSH1 0x20 SWAP1 DUP2 MSTORE PUSH1 0x40 DUP1 DUP4 KECCAK256 PUSH1 0x1 PUSH1 0x1 PUSH1 0xA0 SHL SUB DUP9 AND DUP1 DUP6 MSTORE SWAP1 DUP4 MSTORE SWAP3 DUP2 SWAP1 KECCAK256 DUP1 SLOAD PUSH1 0xFF NOT AND DUP8 ISZERO ISZERO SWAP1 DUP2 OR SWAP1 SWAP2 SSTORE SWAP1 MLOAD SWAP1 DUP2 MSTORE SWAP2 SWAP3 SWAP2 PUSH32 0x17307EAB39AB6107E8899845AD3D59BD9653F200F220920489CA2B5937696C31 SWAP2 ADD PUSH1 0x40 MLOAD DUP1 SWAP2 SUB SWAP1 LOG3 POP POP POP JUMP JUMPDEST PUSH1 0x40 MLOAD PUSH12 0xFFFFFFFFFFFFFFFFFFFFFFFF NOT PUSH1 0x60 DUP4 SWAP1 SHL AND PUSH1 0x20 DUP3 ADD MSTORE PUSH0 SWAP1 DUP2 SWAP1 PUSH1 0x34 ADD PUSH1 0x40 MLOAD PUSH1 0x20 DUP2 DUP4 SUB SUB DUP2 MSTORE SWAP1 PUSH1 0x40 MSTORE DUP1 MLOAD SWAP1 PUSH1 0x20 ADD KECCAK256 SWAP1 POP PUSH2 0x1F25 DUP5 PUSH1 0x2A SLOAD DUP4 PUSH2 0x2865 JUMP JUMPDEST SWAP5 SWAP4 POP POP POP POP JUMP JUMPDEST DUP4 PUSH1 0x1 PUSH1 0x1 PUSH1 0xA0 SHL SUB DUP2 AND CALLER EQ PUSH2 0x1F47 JUMPI PUSH2 0x1F47 CALLER PUSH2 0x24E3 JUMP JUMPDEST PUSH2 0x1F52 DUP6 DUP6 DUP6 PUSH2 0xFAC JUMP JUMPDEST PUSH1 0x1 PUSH1 0x1 PUSH1 0xA0 SHL SUB DUP5 AND EXTCODESIZE ISZERO PUSH2 0x1F82 JUMPI PUSH2 0x1F6E DUP6 DUP6 DUP6 DUP6 PUSH2 0x287A JUMP JUMPDEST PUSH2 0x1F82 JUMPI PUSH2 0x1F82 PUSH4 0x68D2BF6B PUSH1 0xE1 SHL PUSH2 0x24DB JUMP JUMPDEST POP POP POP POP POP JUMP JUMPDEST PUSH1 0x60 PUSH2 0x1F94 DUP3 PUSH2 0x24A8 JUMP JUMPDEST PUSH2 0x1FA8 JUMPI PUSH2 0x1FA8 PUSH4 0xA14C4B5 PUSH1 0xE4 SHL PUSH2 0x24DB JUMP JUMPDEST PUSH0 PUSH2 0x1FB1 PUSH2 0x2958 JUMP JUMPDEST SWAP1 POP DUP1 MLOAD PUSH0 SUB PUSH2 0x1FCF JUMPI PUSH1 0x40 MLOAD DUP1 PUSH1 0x20 ADD PUSH1 0x40 MSTORE DUP1 PUSH0 DUP2 MSTORE POP PUSH2 0x1FFD JUMP JUMPDEST DUP1 PUSH2 0x1FD9 DUP5 PUSH2 0x2967 JUMP JUMPDEST PUSH1 0x9 PUSH1 0x40 MLOAD PUSH1 0x20 ADD PUSH2 0x1FED SWAP4 SWAP3 SWAP2 SWAP1 PUSH2 0x35B3 JUMP JUMPDEST PUSH1 0x40 MLOAD PUSH1 0x20 DUP2 DUP4 SUB SUB DUP2 MSTORE SWAP1 PUSH1 0x40 MSTORE JUMPDEST SWAP4 SWAP3 POP POP POP JUMP JUMPDEST PUSH0 DUP2 DUP2 MSTORE PUSH1 0x27 PUSH1 0x20 MSTORE PUSH1 0x40 DUP2 KECCAK256 SLOAD PUSH1 0x60 SWAP1 PUSH2 0x100 SWAP1 DIV PUSH1 0xFF AND PUSH2 0x205D JUMPI PUSH1 0x40 MLOAD PUSH3 0x461BCD PUSH1 0xE5 SHL DUP2 MSTORE PUSH1 0x20 PUSH1 0x4 DUP3 ADD MSTORE PUSH1 0x11 PUSH1 0x24 DUP3 ADD MSTORE PUSH17 0x1C995C5D595CDD081B9BDD08199BDD5B99 PUSH1 0x7A SHL PUSH1 0x44 DUP3 ADD MSTORE PUSH1 0x64 ADD PUSH2 0xD23 JUMP JUMPDEST PUSH0 DUP4 DUP2 MSTORE PUSH1 0x27 PUSH1 0x20 SWAP1 DUP2 MSTORE PUSH1 0x40 DUP1 DUP4 KECCAK256 DUP2 MLOAD PUSH1 0x60 DUP2 ADD DUP4 MSTORE DUP2 SLOAD PUSH1 0xFF DUP1 DUP3 AND ISZERO ISZERO DUP4 MSTORE PUSH2 0x100 SWAP1 SWAP2 DIV AND ISZERO ISZERO DUP2 DUP6 ADD MSTORE PUSH1 0x1 DUP3 ADD DUP1 SLOAD DUP5 MLOAD DUP2 DUP8 MUL DUP2 ADD DUP8 ADD DUP7 MSTORE DUP2 DUP2 MSTORE SWAP3 SWAP6 SWAP4 SWAP5 DUP7 ADD SWAP4 DUP4 ADD DUP3 DUP3 DUP1 ISZERO PUSH2 0x20D5 JUMPI PUSH1 0x20 MUL DUP3 ADD SWAP2 SWAP1 PUSH0 MSTORE PUSH1 0x20 PUSH0 KECCAK256 SWAP1 JUMPDEST DUP2 SLOAD DUP2 MSTORE PUSH1 0x20 ADD SWAP1 PUSH1 0x1 ADD SWAP1 DUP1 DUP4 GT PUSH2 0x20C1 JUMPI JUMPDEST POP POP POP POP POP DUP2 MSTORE POP POP SWAP1 POP DUP1 PUSH0 ADD MLOAD DUP2 PUSH1 0x40 ADD MLOAD SWAP3 POP SWAP3 POP POP SWAP2 POP SWAP2 JUMP JUMPDEST PUSH2 0x20FB PUSH2 0x23B2 JUMP JUMPDEST PUSH1 0x2A SSTORE JUMP JUMPDEST PUSH0 PUSH2 0x2109 PUSH2 0x23B2 JUMP JUMPDEST PUSH1 0x20 SLOAD PUSH1 0x1 PUSH1 0xA8 SHL SWAP1 DIV PUSH1 0xFF AND ISZERO PUSH2 0x2163 JUMPI PUSH1 0x40 MLOAD PUSH3 0x461BCD PUSH1 0xE5 SHL DUP2 MSTORE PUSH1 0x20 PUSH1 0x4 DUP3 ADD MSTORE PUSH1 0x1B PUSH1 0x24 DUP3 ADD MSTORE PUSH32 0x616C7265616479207265717565737465642072616E646F6D6E756D0000000000 PUSH1 0x44 DUP3 ADD MSTORE PUSH1 0x64 ADD PUSH2 0xD23 JUMP JUMPDEST PUSH1 0x28 SLOAD PUSH1 0x29 SLOAD PUSH1 0x14 SLOAD PUSH1 0x1B SLOAD PUSH1 0x1E SLOAD PUSH1 0x40 MLOAD PUSH4 0x5D3B1D3 PUSH1 0xE4 SHL DUP2 MSTORE PUSH1 0x4 DUP2 ADD SWAP5 SWAP1 SWAP5 MSTORE PUSH1 0x1 PUSH1 0x1 PUSH1 0x40 SHL SUB SWAP1 SWAP3 AND PUSH1 0x24 DUP5 ADD MSTORE PUSH5 0x100000000 DUP2 DIV PUSH2 0xFFFF AND PUSH1 0x44 DUP5 ADD MSTORE PUSH4 0xFFFFFFFF SWAP1 DUP2 AND PUSH1 0x64 DUP5 ADD MSTORE AND PUSH1 0x84 DUP3 ADD MSTORE PUSH1 0x1 PUSH1 0x1 PUSH1 0xA0 SHL SUB SWAP1 SWAP2 AND SWAP1 PUSH4 0x5D3B1D30 SWAP1 PUSH1 0xA4 ADD PUSH1 0x20 PUSH1 0x40 MLOAD DUP1 DUP4 SUB DUP2 PUSH0 DUP8 GAS CALL ISZERO DUP1 ISZERO PUSH2 0x21EC JUMPI RETURNDATASIZE PUSH0 DUP1 RETURNDATACOPY RETURNDATASIZE PUSH0 REVERT JUMPDEST POP POP POP POP PUSH1 0x40 MLOAD RETURNDATASIZE PUSH1 0x1F NOT PUSH1 0x1F DUP3 ADD AND DUP3 ADD DUP1 PUSH1 0x40 MSTORE POP DUP2 ADD SWAP1 PUSH2 0x2210 SWAP2 SWAP1 PUSH2 0x3651 JUMP JUMPDEST PUSH1 0x40 DUP1 MLOAD PUSH1 0x60 DUP2 ADD DUP3 MSTORE PUSH0 DUP1 DUP3 MSTORE PUSH1 0x1 PUSH1 0x20 DUP1 DUP5 ADD DUP3 DUP2 MSTORE DUP6 MLOAD DUP5 DUP2 MSTORE DUP1 DUP4 ADD DUP8 MSTORE DUP6 DUP8 ADD SWAP1 DUP2 MSTORE DUP8 DUP6 MSTORE PUSH1 0x27 DUP4 MSTORE SWAP6 SWAP1 SWAP4 KECCAK256 DUP5 MLOAD DUP2 SLOAD SWAP5 MLOAD PUSH2 0xFFFF NOT SWAP1 SWAP6 AND SWAP1 ISZERO ISZERO PUSH2 0xFF00 NOT AND OR PUSH2 0x100 SWAP5 ISZERO ISZERO SWAP5 SWAP1 SWAP5 MUL SWAP4 SWAP1 SWAP4 OR DUP4 SSTORE SWAP4 MLOAD DUP1 MLOAD SWAP6 SWAP7 POP SWAP3 SWAP5 SWAP2 SWAP4 PUSH2 0x2284 SWAP4 SWAP2 DUP6 ADD SWAP3 SWAP2 ADD SWAP1 PUSH2 0x2DBA JUMP JUMPDEST POP POP PUSH1 0x19 DUP1 SLOAD PUSH1 0x1 DUP2 ADD DUP3 SSTORE PUSH0 SWAP2 SWAP1 SWAP2 MSTORE PUSH32 0x944998273E477B495144FB8794C914197F3CCB46BE2900F4698FD0EF743C9695 ADD DUP3 SWAP1 SSTORE POP PUSH1 0x1A DUP2 SWAP1 SSTORE PUSH1 0x1E SLOAD PUSH1 0x40 DUP1 MLOAD DUP4 DUP2 MSTORE PUSH4 0xFFFFFFFF SWAP1 SWAP3 AND PUSH1 0x20 DUP4 ADD MSTORE PUSH32 0xCC58B13AD3EAB50626C6A6300B1D139CD6EBB1688A7CCED9461C2F7E762665EE SWAP2 ADD PUSH1 0x40 MLOAD DUP1 SWAP2 SUB SWAP1 LOG1 SWAP1 JUMP JUMPDEST PUSH2 0x230D PUSH2 0x23B2 JUMP JUMPDEST PUSH1 0x10 SLOAD DUP2 PUSH2 0x2321 PUSH1 0x5 SLOAD PUSH1 0x4 SLOAD SUB PUSH0 NOT ADD SWAP1 JUMP JUMPDEST PUSH2 0x232B SWAP2 SWAP1 PUSH2 0x335F JUMP JUMPDEST GT ISZERO PUSH2 0x2366 JUMPI PUSH1 0x40 MLOAD PUSH3 0x461BCD PUSH1 0xE5 SHL DUP2 MSTORE PUSH1 0x20 PUSH1 0x4 DUP3 ADD MSTORE PUSH1 0xA PUSH1 0x24 DUP3 ADD MSTORE PUSH10 0x4D617820737570706C79 PUSH1 0xB0 SHL PUSH1 0x44 DUP3 ADD MSTORE PUSH1 0x64 ADD PUSH2 0xD23 JUMP JUMPDEST PUSH2 0xBDF DUP3 DUP3 PUSH2 0x263B JUMP JUMPDEST PUSH1 0xA DUP1 SLOAD PUSH2 0x175A SWAP1 PUSH2 0x3313 JUMP JUMPDEST PUSH2 0x2385 PUSH2 0x23B2 JUMP JUMPDEST PUSH1 0xA PUSH2 0xBDF DUP3 DUP3 PUSH2 0x33CD JUMP JUMPDEST PUSH1 0x8 DUP1 SLOAD PUSH2 0x175A SWAP1 PUSH2 0x3313 JUMP JUMPDEST PUSH2 0x23A6 PUSH2 0x23B2 JUMP JUMPDEST PUSH2 0x23AF DUP2 PUSH2 0x29AA JUMP JUMPDEST POP JUMP JUMPDEST PUSH1 0x2 SLOAD PUSH1 0x1 PUSH1 0x1 PUSH1 0xA0 SHL SUB AND CALLER EQ PUSH2 0x2405 JUMPI PUSH1 0x40 MLOAD PUSH3 0x461BCD PUSH1 0xE5 SHL DUP2 MSTORE PUSH1 0x20 PUSH1 0x4 DUP3 ADD MSTORE PUSH1 0x16 PUSH1 0x24 DUP3 ADD MSTORE PUSH22 0x27B7363C9031B0B63630B1363290313C9037BBB732B9 PUSH1 0x51 SHL PUSH1 0x44 DUP3 ADD MSTORE PUSH1 0x64 ADD PUSH2 0xD23 JUMP JUMPDEST JUMP JUMPDEST PUSH2 0x2710 PUSH1 0x1 PUSH1 0x1 PUSH1 0x60 SHL SUB DUP3 AND DUP2 LT ISZERO PUSH2 0x2446 JUMPI PUSH1 0x40 MLOAD PUSH4 0x6F483D09 PUSH1 0xE0 SHL DUP2 MSTORE PUSH1 0x1 PUSH1 0x1 PUSH1 0x60 SHL SUB DUP4 AND PUSH1 0x4 DUP3 ADD MSTORE PUSH1 0x24 DUP2 ADD DUP3 SWAP1 MSTORE PUSH1 0x44 ADD PUSH2 0xD23 JUMP JUMPDEST PUSH1 0x1 PUSH1 0x1 PUSH1 0xA0 SHL SUB DUP4 AND PUSH2 0x246F JUMPI PUSH1 0x40 MLOAD PUSH4 0x5B6CC805 PUSH1 0xE1 SHL DUP2 MSTORE PUSH0 PUSH1 0x4 DUP3 ADD MSTORE PUSH1 0x24 ADD PUSH2 0xD23 JUMP JUMPDEST POP PUSH1 0x40 DUP1 MLOAD DUP1 DUP3 ADD SWAP1 SWAP2 MSTORE PUSH1 0x1 PUSH1 0x1 PUSH1 0xA0 SHL SUB SWAP1 SWAP3 AND DUP1 DUP4 MSTORE PUSH1 0x1 PUSH1 0x1 PUSH1 0x60 SHL SUB SWAP1 SWAP2 AND PUSH1 0x20 SWAP1 SWAP3 ADD DUP3 SWAP1 MSTORE PUSH1 0x1 PUSH1 0xA0 SHL SWAP1 SWAP2 MUL OR PUSH0 SSTORE JUMP JUMPDEST PUSH0 DUP2 PUSH1 0x1 GT ISZERO DUP1 ISZERO PUSH2 0x24BB JUMPI POP PUSH1 0x4 SLOAD DUP3 LT JUMPDEST DUP1 ISZERO PUSH2 0xBC7 JUMPI POP POP PUSH0 SWAP1 DUP2 MSTORE PUSH1 0x2B PUSH1 0x20 MSTORE PUSH1 0x40 SWAP1 KECCAK256 SLOAD PUSH1 0x1 PUSH1 0xE0 SHL AND ISZERO SWAP1 JUMP JUMPDEST DUP1 PUSH0 MSTORE PUSH1 0x4 PUSH0 REVERT JUMPDEST PUSH14 0xAAEB6D7670E522A718067333CD4E EXTCODESIZE ISZERO PUSH2 0x23AF JUMPI PUSH1 0x40 MLOAD PUSH4 0x3185C44D PUSH1 0xE2 SHL DUP2 MSTORE ADDRESS PUSH1 0x4 DUP3 ADD MSTORE PUSH1 0x1 PUSH1 0x1 PUSH1 0xA0 SHL SUB DUP3 AND PUSH1 0x24 DUP3 ADD MSTORE PUSH14 0xAAEB6D7670E522A718067333CD4E SWAP1 PUSH4 0xC6171134 SWAP1 PUSH1 0x44 ADD PUSH1 0x20 PUSH1 0x40 MLOAD DUP1 DUP4 SUB DUP2 DUP7 GAS STATICCALL ISZERO DUP1 ISZERO PUSH2 0x254E JUMPI RETURNDATASIZE PUSH0 DUP1 RETURNDATACOPY RETURNDATASIZE PUSH0 REVERT JUMPDEST POP POP POP POP PUSH1 0x40 MLOAD RETURNDATASIZE PUSH1 0x1F NOT PUSH1 0x1F DUP3 ADD AND DUP3 ADD DUP1 PUSH1 0x40 MSTORE POP DUP2 ADD SWAP1 PUSH2 0x2572 SWAP2 SWAP1 PUSH2 0x3668 JUMP JUMPDEST PUSH2 0x23AF JUMPI PUSH1 0x40 MLOAD PUSH4 0x3B79C773 PUSH1 0xE2 SHL DUP2 MSTORE PUSH1 0x1 PUSH1 0x1 PUSH1 0xA0 SHL SUB DUP3 AND PUSH1 0x4 DUP3 ADD MSTORE PUSH1 0x24 ADD PUSH2 0xD23 JUMP JUMPDEST PUSH0 PUSH2 0x25A4 DUP4 PUSH2 0x17FA JUMP JUMPDEST SWAP1 POP DUP2 DUP1 ISZERO PUSH2 0x25BC JUMPI POP CALLER PUSH1 0x1 PUSH1 0x1 PUSH1 0xA0 SHL SUB DUP3 AND EQ ISZERO JUMPDEST ISZERO PUSH2 0x25DF JUMPI PUSH2 0x25CB DUP2 CALLER PUSH2 0xAB8 JUMP JUMPDEST PUSH2 0x25DF JUMPI PUSH2 0x25DF PUSH4 0x67D9DCA1 PUSH1 0xE1 SHL PUSH2 0x24DB JUMP JUMPDEST PUSH0 DUP4 DUP2 MSTORE PUSH1 0x2D PUSH1 0x20 MSTORE PUSH1 0x40 DUP1 DUP3 KECCAK256 DUP1 SLOAD PUSH1 0x1 PUSH1 0x1 PUSH1 0xA0 SHL SUB NOT AND PUSH1 0x1 PUSH1 0x1 PUSH1 0xA0 SHL SUB DUP9 DUP2 AND SWAP2 DUP3 OR SWAP1 SWAP3 SSTORE SWAP2 MLOAD DUP7 SWAP4 SWAP2 DUP6 AND SWAP2 PUSH32 0x8C5BE1E5EBEC7D5BD14F71427D1E84F3DD0314C0F7B2291E5B200AC8C7C3B925 SWAP2 LOG4 POP POP POP POP JUMP JUMPDEST PUSH2 0xBDF DUP3 DUP3 PUSH1 0x40 MLOAD DUP1 PUSH1 0x20 ADD PUSH1 0x40 MSTORE DUP1 PUSH0 DUP2 MSTORE POP PUSH2 0x2A53 JUMP JUMPDEST PUSH0 DUP3 DUP2 MSTORE PUSH1 0x27 PUSH1 0x20 MSTORE PUSH1 0x40 SWAP1 KECCAK256 SLOAD PUSH2 0x100 SWAP1 DIV PUSH1 0xFF AND PUSH2 0x26AA JUMPI PUSH1 0x40 MLOAD PUSH3 0x461BCD PUSH1 0xE5 SHL DUP2 MSTORE PUSH1 0x20 PUSH1 0x4 DUP3 ADD MSTORE PUSH1 0x11 PUSH1 0x24 DUP3 ADD MSTORE PUSH17 0x1C995C5D595CDD081B9BDD08199BDD5B99 PUSH1 0x7A SHL PUSH1 0x44 DUP3 ADD MSTORE PUSH1 0x64 ADD PUSH2 0xD23 JUMP JUMPDEST PUSH0 DUP3 DUP2 MSTORE PUSH1 0x27 PUSH1 0x20 SWAP1 DUP2 MSTORE PUSH1 0x40 SWAP1 SWAP2 KECCAK256 DUP1 SLOAD PUSH1 0xFF NOT AND PUSH1 0x1 SWAP1 DUP2 OR DUP3 SSTORE DUP4 MLOAD PUSH2 0x26DA SWAP4 SWAP3 SWAP1 SWAP2 ADD SWAP2 DUP5 ADD SWAP1 PUSH2 0x2DBA JUMP JUMPDEST POP PUSH1 0x1 PUSH1 0x15 SLOAD LT ISZERO PUSH2 0x271B JUMPI PUSH1 0x32 DUP2 PUSH0 DUP2 MLOAD DUP2 LT PUSH2 0x26FA JUMPI PUSH2 0x26FA PUSH2 0x358C JUMP JUMPDEST PUSH1 0x20 MUL PUSH1 0x20 ADD ADD MLOAD PUSH2 0x270C SWAP2 SWAP1 PUSH2 0x3683 JUMP JUMPDEST PUSH2 0x2717 SWAP1 PUSH1 0x64 PUSH2 0x335F JUMP JUMPDEST PUSH1 0x1C SSTORE JUMPDEST PUSH1 0x1 PUSH1 0x15 SLOAD GT DUP1 ISZERO PUSH2 0x2730 JUMPI POP PUSH1 0x4 PUSH1 0x15 SLOAD GT ISZERO JUMPDEST ISZERO PUSH2 0x277E JUMPI PUSH1 0x17 PUSH1 0x50 DUP3 PUSH0 DUP2 MLOAD DUP2 LT PUSH2 0x274B JUMPI PUSH2 0x274B PUSH2 0x358C JUMP JUMPDEST PUSH1 0x20 MUL PUSH1 0x20 ADD ADD MLOAD PUSH2 0x275D SWAP2 SWAP1 PUSH2 0x3683 JUMP JUMPDEST PUSH2 0x2768 SWAP1 PUSH1 0x32 PUSH2 0x335F JUMP JUMPDEST DUP2 SLOAD PUSH1 0x1 DUP2 ADD DUP4 SSTORE PUSH0 SWAP3 DUP4 MSTORE PUSH1 0x20 SWAP1 SWAP3 KECCAK256 SWAP1 SWAP2 ADD SSTORE JUMPDEST PUSH1 0x3 PUSH1 0x15 SLOAD GT ISZERO PUSH2 0x279F JUMPI PUSH1 0x20 DUP1 SLOAD PUSH2 0xFFFF PUSH1 0xA8 SHL NOT AND PUSH2 0x101 PUSH1 0xA8 SHL OR SWAP1 SSTORE JUMPDEST PUSH1 0x15 DUP1 SLOAD SWAP1 PUSH0 PUSH2 0x27AE DUP4 PUSH2 0x3696 JUMP JUMPDEST SWAP2 SWAP1 POP SSTORE POP PUSH32 0xFE2E2D779DBA245964D4E3EF9B994BE63856FD568BF7D3CA9E224755CB1BD54D DUP3 DUP3 PUSH1 0x40 MLOAD PUSH2 0x27E4 SWAP3 SWAP2 SWAP1 PUSH2 0x36AE JUMP JUMPDEST PUSH1 0x40 MLOAD DUP1 SWAP2 SUB SWAP1 LOG1 POP POP JUMP JUMPDEST PUSH0 DUP2 PUSH1 0x1 GT PUSH2 0x2855 JUMPI POP PUSH0 DUP2 DUP2 MSTORE PUSH1 0x2B PUSH1 0x20 MSTORE PUSH1 0x40 DUP2 KECCAK256 SLOAD SWAP1 PUSH1 0x1 PUSH1 0xE0 SHL DUP3 AND SWAP1 SUB PUSH2 0x2855 JUMPI DUP1 PUSH0 SUB PUSH2 0x2850 JUMPI PUSH1 0x4 SLOAD DUP3 LT PUSH2 0x2836 JUMPI PUSH2 0x2836 PUSH4 0x6F96CDA1 PUSH1 0xE1 SHL PUSH2 0x24DB JUMP JUMPDEST JUMPDEST POP PUSH0 NOT ADD PUSH0 DUP2 DUP2 MSTORE PUSH1 0x2B PUSH1 0x20 MSTORE PUSH1 0x40 SWAP1 KECCAK256 SLOAD DUP1 ISZERO PUSH2 0x2837 JUMPI JUMPDEST SWAP2 SWAP1 POP JUMP JUMPDEST PUSH2 0x2850 PUSH4 0x6F96CDA1 PUSH1 0xE1 SHL PUSH2 0x24DB JUMP JUMPDEST PUSH0 DUP3 PUSH2 0x2871 DUP6 DUP5 PUSH2 0x2AB3 JUMP JUMPDEST EQ SWAP5 SWAP4 POP POP POP POP JUMP JUMPDEST PUSH1 0x40 MLOAD PUSH4 0xA85BD01 PUSH1 0xE1 SHL DUP2 MSTORE PUSH0 SWAP1 PUSH1 0x1 PUSH1 0x1 PUSH1 0xA0 SHL SUB DUP6 AND SWAP1 PUSH4 0x150B7A02 SWAP1 PUSH2 0x28AE SWAP1 CALLER SWAP1 DUP10 SWAP1 DUP9 SWAP1 DUP9 SWAP1 PUSH1 0x4 ADD PUSH2 0x36C6 JUMP JUMPDEST PUSH1 0x20 PUSH1 0x40 MLOAD DUP1 DUP4 SUB DUP2 PUSH0 DUP8 GAS CALL SWAP3 POP POP POP DUP1 ISZERO PUSH2 0x28E8 JUMPI POP PUSH1 0x40 DUP1 MLOAD PUSH1 0x1F RETURNDATASIZE SWAP1 DUP2 ADD PUSH1 0x1F NOT AND DUP3 ADD SWAP1 SWAP3 MSTORE PUSH2 0x28E5 SWAP2 DUP2 ADD SWAP1 PUSH2 0x3702 JUMP JUMPDEST PUSH1 0x1 JUMPDEST PUSH2 0x293B JUMPI RETURNDATASIZE DUP1 DUP1 ISZERO PUSH2 0x2915 JUMPI PUSH1 0x40 MLOAD SWAP2 POP PUSH1 0x1F NOT PUSH1 0x3F RETURNDATASIZE ADD AND DUP3 ADD PUSH1 0x40 MSTORE RETURNDATASIZE DUP3 MSTORE RETURNDATASIZE PUSH0 PUSH1 0x20 DUP5 ADD RETURNDATACOPY PUSH2 0x291A JUMP JUMPDEST PUSH1 0x60 SWAP2 POP JUMPDEST POP DUP1 MLOAD PUSH0 SUB PUSH2 0x2933 JUMPI PUSH2 0x2933 PUSH4 0x68D2BF6B PUSH1 0xE1 SHL PUSH2 0x24DB JUMP JUMPDEST DUP1 MLOAD DUP2 PUSH1 0x20 ADD REVERT JUMPDEST PUSH1 0x1 PUSH1 0x1 PUSH1 0xE0 SHL SUB NOT AND PUSH4 0xA85BD01 PUSH1 0xE1 SHL EQ SWAP1 POP SWAP5 SWAP4 POP POP POP POP JUMP JUMPDEST PUSH1 0x60 PUSH1 0x8 DUP1 SLOAD PUSH2 0xBF2 SWAP1 PUSH2 0x3313 JUMP JUMPDEST PUSH1 0x60 PUSH1 0xA0 PUSH1 0x40 MLOAD ADD DUP1 PUSH1 0x40 MSTORE PUSH1 0x20 DUP2 SUB SWAP2 POP POP PUSH0 DUP2 MSTORE DUP1 DUP3 JUMPDEST PUSH1 0x1 DUP4 SUB SWAP3 POP PUSH1 0xA DUP2 MOD PUSH1 0x30 ADD DUP4 MSTORE8 PUSH1 0xA SWAP1 DIV DUP1 PUSH2 0x2980 JUMPI POP DUP2 SWAP1 SUB PUSH1 0x1F NOT SWAP1 SWAP2 ADD SWAP1 DUP2 MSTORE SWAP2 SWAP1 POP JUMP JUMPDEST CALLER PUSH1 0x1 PUSH1 0x1 PUSH1 0xA0 SHL SUB DUP3 AND SUB PUSH2 0x2A02 JUMPI PUSH1 0x40 MLOAD PUSH3 0x461BCD PUSH1 0xE5 SHL DUP2 MSTORE PUSH1 0x20 PUSH1 0x4 DUP3 ADD MSTORE PUSH1 0x17 PUSH1 0x24 DUP3 ADD MSTORE PUSH32 0x43616E6E6F74207472616E7366657220746F2073656C66000000000000000000 PUSH1 0x44 DUP3 ADD MSTORE PUSH1 0x64 ADD PUSH2 0xD23 JUMP JUMPDEST PUSH1 0x3 DUP1 SLOAD PUSH1 0x1 PUSH1 0x1 PUSH1 0xA0 SHL SUB NOT AND PUSH1 0x1 PUSH1 0x1 PUSH1 0xA0 SHL SUB DUP4 DUP2 AND SWAP2 DUP3 OR SWAP1 SWAP3 SSTORE PUSH1 0x2 SLOAD PUSH1 0x40 MLOAD SWAP2 SWAP3 AND SWAP1 PUSH32 0xED8889F560326EB138920D842192F0EB3DD22B4F139C87A2C57538E05BAE1278 SWAP1 PUSH0 SWAP1 LOG3 POP JUMP JUMPDEST PUSH2 0x2A5D DUP4 DUP4 PUSH2 0x2AF5 JUMP JUMPDEST PUSH1 0x1 PUSH1 0x1 PUSH1 0xA0 SHL SUB DUP4 AND EXTCODESIZE ISZERO PUSH2 0xCC2 JUMPI PUSH1 0x4 SLOAD DUP3 DUP2 SUB JUMPDEST PUSH2 0x2A86 PUSH0 DUP7 DUP4 DUP1 PUSH1 0x1 ADD SWAP5 POP DUP7 PUSH2 0x287A JUMP JUMPDEST PUSH2 0x2A9A JUMPI PUSH2 0x2A9A PUSH4 0x68D2BF6B PUSH1 0xE1 SHL PUSH2 0x24DB JUMP JUMPDEST DUP2 DUP2 LT PUSH2 0x2A74 JUMPI DUP2 PUSH1 0x4 SLOAD EQ PUSH2 0x1F82 JUMPI PUSH2 0x1F82 PUSH0 PUSH2 0x24DB JUMP JUMPDEST PUSH0 DUP2 DUP2 JUMPDEST DUP5 MLOAD DUP2 LT ISZERO PUSH2 0x2AED JUMPI PUSH2 0x2AE3 DUP3 DUP7 DUP4 DUP2 MLOAD DUP2 LT PUSH2 0x2AD6 JUMPI PUSH2 0x2AD6 PUSH2 0x358C JUMP JUMPDEST PUSH1 0x20 MUL PUSH1 0x20 ADD ADD MLOAD PUSH2 0x2D91 JUMP JUMPDEST SWAP2 POP PUSH1 0x1 ADD PUSH2 0x2AB7 JUMP JUMPDEST POP SWAP4 SWAP3 POP POP POP JUMP JUMPDEST PUSH1 0x20 SLOAD PUSH1 0x1 PUSH1 0xB0 SHL SWAP1 DIV PUSH1 0xFF AND ISZERO ISZERO PUSH1 0x1 EQ PUSH2 0x2B53 JUMPI PUSH1 0x40 MLOAD PUSH3 0x461BCD PUSH1 0xE5 SHL DUP2 MSTORE PUSH1 0x20 PUSH1 0x4 DUP3 ADD MSTORE PUSH1 0x18 PUSH1 0x24 DUP3 ADD MSTORE PUSH32 0x72616E646F6D206E756D206E6F74207265616479207965740000000000000000 PUSH1 0x44 DUP3 ADD MSTORE PUSH1 0x64 ADD PUSH2 0xD23 JUMP JUMPDEST PUSH1 0x4 SLOAD PUSH0 DUP3 SWAP1 SUB PUSH2 0x2B6E JUMPI PUSH2 0x2B6E PUSH4 0xB562E8DD PUSH1 0xE0 SHL PUSH2 0x24DB JUMP JUMPDEST PUSH0 DUP2 DUP2 MSTORE PUSH1 0x2B PUSH1 0x20 SWAP1 DUP2 MSTORE PUSH1 0x40 DUP1 DUP4 KECCAK256 PUSH1 0x1 PUSH1 0x1 PUSH1 0xA0 SHL SUB DUP8 AND TIMESTAMP PUSH1 0xA0 SHL PUSH1 0x1 DUP9 EQ PUSH1 0xE1 SHL OR DUP2 OR SWAP1 SWAP2 SSTORE DUP1 DUP5 MSTORE PUSH1 0x2C SWAP1 SWAP3 MSTORE DUP3 KECCAK256 DUP1 SLOAD PUSH9 0x10000000000000001 DUP7 MUL ADD SWAP1 SSTORE SWAP1 DUP2 SWAP1 SUB PUSH2 0x2BCB JUMPI PUSH2 0x2BCB PUSH3 0x2E0763 PUSH1 0xE8 SHL PUSH2 0x24DB JUMP JUMPDEST DUP2 DUP4 ADD DUP3 JUMPDEST DUP1 DUP4 PUSH0 PUSH32 0xDDF252AD1BE2C89B69C2B068FC378DAA952BA7F163C4A11628F55A4DF523B3EF PUSH0 DUP1 LOG4 PUSH0 DUP2 DUP2 MSTORE PUSH1 0x30 PUSH1 0x20 SWAP1 DUP2 MSTORE PUSH1 0x40 DUP1 DUP4 KECCAK256 PUSH1 0x1 PUSH1 0x1 PUSH1 0xA0 SHL SUB DUP11 AND DUP5 MSTORE SWAP1 SWAP2 MSTORE SWAP1 KECCAK256 TIMESTAMP SWAP1 SSTORE PUSH1 0x16 SLOAD PUSH1 0x17 DUP1 SLOAD SWAP1 SWAP2 SWAP1 DUP2 LT PUSH2 0x2C33 JUMPI PUSH2 0x2C33 PUSH2 0x358C JUMP JUMPDEST SWAP1 PUSH0 MSTORE PUSH1 0x20 PUSH0 KECCAK256 ADD SLOAD PUSH1 0x1C SLOAD ADD DUP2 EQ DUP1 ISZERO PUSH2 0x2C50 JUMPI POP PUSH1 0x18 PUSH1 0x1D SLOAD LT JUMPDEST ISZERO PUSH2 0x2D57 JUMPI PUSH1 0x1F SLOAD PUSH1 0x1 PUSH1 0x1 PUSH1 0xA0 SHL SUB AND PUSH4 0x40C10F19 PUSH2 0x2C6F DUP4 PUSH2 0x141E JUMP JUMPDEST PUSH1 0x40 MLOAD PUSH1 0x1 PUSH1 0x1 PUSH1 0xE0 SHL SUB NOT PUSH1 0xE0 DUP5 SWAP1 SHL AND DUP2 MSTORE PUSH1 0x1 PUSH1 0x1 PUSH1 0xA0 SHL SUB SWAP1 SWAP2 AND PUSH1 0x4 DUP3 ADD MSTORE PUSH1 0x1 PUSH1 0x24 DUP3 ADD MSTORE PUSH1 0x44 ADD PUSH0 PUSH1 0x40 MLOAD DUP1 DUP4 SUB DUP2 PUSH0 DUP8 DUP1 EXTCODESIZE ISZERO DUP1 ISZERO PUSH2 0x2CB4 JUMPI PUSH0 DUP1 REVERT JUMPDEST POP GAS CALL ISZERO DUP1 ISZERO PUSH2 0x2CC6 JUMPI RETURNDATASIZE PUSH0 DUP1 RETURNDATACOPY RETURNDATASIZE PUSH0 REVERT JUMPDEST POP POP PUSH1 0x1D DUP1 SLOAD PUSH1 0x1 ADD SWAP1 SSTORE POP POP PUSH1 0x16 SLOAD PUSH1 0x17 DUP1 SLOAD SWAP1 SWAP2 SWAP1 DUP2 LT PUSH2 0x2CEB JUMPI PUSH2 0x2CEB PUSH2 0x358C JUMP JUMPDEST PUSH0 SWAP2 DUP3 MSTORE PUSH1 0x20 DUP1 DUP4 KECCAK256 SWAP1 SWAP2 ADD SLOAD PUSH1 0x1C DUP1 SLOAD SWAP1 SWAP2 ADD SWAP1 DUP2 SWAP1 SSTORE DUP3 MSTORE PUSH1 0x31 SWAP1 MSTORE PUSH1 0x40 DUP2 KECCAK256 DUP1 SLOAD PUSH1 0xFF NOT AND PUSH1 0x1 SWAP1 DUP2 OR SWAP1 SWAP2 SSTORE PUSH1 0x18 DUP1 SLOAD DUP1 DUP4 ADD DUP3 SSTORE SWAP3 MSTORE PUSH32 0xB13D2D76D1F4B7BE834882E410B3E3A8AFAF69F83600AE24DB354391D2378D2E SWAP1 SWAP2 ADD DUP3 SWAP1 SSTORE PUSH1 0x16 DUP1 SLOAD SWAP1 SWAP2 ADD SWAP1 SSTORE JUMPDEST PUSH1 0x16 SLOAD PUSH1 0x3 SUB PUSH2 0x2D66 JUMPI PUSH0 PUSH1 0x16 SSTORE JUMPDEST DUP2 DUP2 PUSH1 0x1 ADD SWAP2 POP DUP2 SUB PUSH2 0x2BD0 JUMPI POP PUSH1 0x4 SSTORE POP PUSH1 0x13 DUP1 SLOAD SWAP1 PUSH0 PUSH2 0x2D87 DUP4 PUSH2 0x3696 JUMP JUMPDEST SWAP2 SWAP1 POP SSTORE POP POP POP POP JUMP JUMPDEST PUSH0 DUP2 DUP4 LT PUSH2 0x2DAB JUMPI PUSH0 DUP3 DUP2 MSTORE PUSH1 0x20 DUP5 SWAP1 MSTORE PUSH1 0x40 SWAP1 KECCAK256 PUSH2 0x1FFD JUMP JUMPDEST POP PUSH0 SWAP2 DUP3 MSTORE PUSH1 0x20 MSTORE PUSH1 0x40 SWAP1 KECCAK256 SWAP1 JUMP JUMPDEST DUP3 DUP1 SLOAD DUP3 DUP3 SSTORE SWAP1 PUSH0 MSTORE PUSH1 0x20 PUSH0 KECCAK256 SWAP1 DUP2 ADD SWAP3 DUP3 ISZERO PUSH2 0x2DF3 JUMPI SWAP2 PUSH1 0x20 MUL DUP3 ADD JUMPDEST DUP3 DUP2 GT ISZERO PUSH2 0x2DF3 JUMPI DUP3 MLOAD DUP3 SSTORE SWAP2 PUSH1 0x20 ADD SWAP2 SWAP1 PUSH1 0x1 ADD SWAP1 PUSH2 0x2DD8 JUMP JUMPDEST POP PUSH2 0x2DFF SWAP3 SWAP2 POP PUSH2 0x2E03 JUMP JUMPDEST POP SWAP1 JUMP JUMPDEST JUMPDEST DUP1 DUP3 GT ISZERO PUSH2 0x2DFF JUMPI PUSH0 DUP2 SSTORE PUSH1 0x1 ADD PUSH2 0x2E04 JUMP JUMPDEST PUSH1 0x1 PUSH1 0x1 PUSH1 0xE0 SHL SUB NOT DUP2 AND DUP2 EQ PUSH2 0x23AF JUMPI PUSH0 DUP1 REVERT JUMPDEST PUSH0 PUSH1 0x20 DUP3 DUP5 SUB SLT ISZERO PUSH2 0x2E3C JUMPI PUSH0 DUP1 REVERT JUMPDEST DUP2 CALLDATALOAD PUSH2 0x1FFD DUP2 PUSH2 0x2E17 JUMP JUMPDEST PUSH1 0x1 PUSH1 0x1 PUSH1 0xA0 SHL SUB DUP2 AND DUP2 EQ PUSH2 0x23AF JUMPI PUSH0 DUP1 REVERT JUMPDEST PUSH0 DUP1 PUSH1 0x40 DUP4 DUP6 SUB SLT ISZERO PUSH2 0x2E6C JUMPI PUSH0 DUP1 REVERT JUMPDEST DUP3 CALLDATALOAD PUSH2 0x2E77 DUP2 PUSH2 0x2E47 JUMP JUMPDEST SWAP2 POP PUSH1 0x20 DUP4 ADD CALLDATALOAD PUSH1 0x1 PUSH1 0x1 PUSH1 0x60 SHL SUB DUP2 AND DUP2 EQ PUSH2 0x2E92 JUMPI PUSH0 DUP1 REVERT JUMPDEST DUP1 SWAP2 POP POP SWAP3 POP SWAP3 SWAP1 POP JUMP JUMPDEST PUSH0 JUMPDEST DUP4 DUP2 LT ISZERO PUSH2 0x2EB7 JUMPI DUP2 DUP2 ADD MLOAD DUP4 DUP3 ADD MSTORE PUSH1 0x20 ADD PUSH2 0x2E9F JUMP JUMPDEST POP POP PUSH0 SWAP2 ADD MSTORE JUMP JUMPDEST PUSH0 DUP2 MLOAD DUP1 DUP5 MSTORE PUSH2 0x2ED6 DUP2 PUSH1 0x20 DUP7 ADD PUSH1 0x20 DUP7 ADD PUSH2 0x2E9D JUMP JUMPDEST PUSH1 0x1F ADD PUSH1 0x1F NOT AND SWAP3 SWAP1 SWAP3 ADD PUSH1 0x20 ADD SWAP3 SWAP2 POP POP JUMP JUMPDEST PUSH1 0x20 DUP2 MSTORE PUSH0 PUSH2 0x1FFD PUSH1 0x20 DUP4 ADD DUP5 PUSH2 0x2EBF JUMP JUMPDEST PUSH0 PUSH1 0x20 DUP3 DUP5 SUB SLT ISZERO PUSH2 0x2F0C JUMPI PUSH0 DUP1 REVERT JUMPDEST POP CALLDATALOAD SWAP2 SWAP1 POP JUMP JUMPDEST PUSH0 DUP1 PUSH1 0x40 DUP4 DUP6 SUB SLT ISZERO PUSH2 0x2F24 JUMPI PUSH0 DUP1 REVERT JUMPDEST DUP3 CALLDATALOAD PUSH2 0x2F2F DUP2 PUSH2 0x2E47 JUMP JUMPDEST SWAP5 PUSH1 0x20 SWAP4 SWAP1 SWAP4 ADD CALLDATALOAD SWAP4 POP POP POP JUMP JUMPDEST PUSH4 0x4E487B71 PUSH1 0xE0 SHL PUSH0 MSTORE PUSH1 0x41 PUSH1 0x4 MSTORE PUSH1 0x24 PUSH0 REVERT JUMPDEST PUSH1 0x40 MLOAD PUSH1 0x1F DUP3 ADD PUSH1 0x1F NOT AND DUP2 ADD PUSH1 0x1 PUSH1 0x1 PUSH1 0x40 SHL SUB DUP2 GT DUP3 DUP3 LT OR ISZERO PUSH2 0x2F79 JUMPI PUSH2 0x2F79 PUSH2 0x2F3D JUMP JUMPDEST PUSH1 0x40 MSTORE SWAP2 SWAP1 POP JUMP JUMPDEST PUSH0 DUP3 PUSH1 0x1F DUP4 ADD SLT PUSH2 0x2F90 JUMPI PUSH0 DUP1 REVERT JUMPDEST DUP2 CALLDATALOAD PUSH1 0x20 PUSH1 0x1 PUSH1 0x1 PUSH1 0x40 SHL SUB DUP3 GT ISZERO PUSH2 0x2FAB JUMPI PUSH2 0x2FAB PUSH2 0x2F3D JUMP JUMPDEST DUP2 PUSH1 0x5 SHL PUSH2 0x2FBA DUP3 DUP3 ADD PUSH2 0x2F51 JUMP JUMPDEST SWAP3 DUP4 MSTORE DUP5 DUP2 ADD DUP3 ADD SWAP3 DUP3 DUP2 ADD SWAP1 DUP8 DUP6 GT ISZERO PUSH2 0x2FD3 JUMPI PUSH0 DUP1 REVERT JUMPDEST DUP4 DUP8 ADD SWAP3 POP JUMPDEST DUP5 DUP4 LT ISZERO PUSH2 0x2FF2 JUMPI DUP3 CALLDATALOAD DUP3 MSTORE SWAP2 DUP4 ADD SWAP2 SWAP1 DUP4 ADD SWAP1 PUSH2 0x2FD9 JUMP JUMPDEST SWAP8 SWAP7 POP POP POP POP POP POP POP JUMP JUMPDEST PUSH0 DUP1 PUSH1 0x40 DUP4 DUP6 SUB SLT ISZERO PUSH2 0x300E JUMPI PUSH0 DUP1 REVERT JUMPDEST DUP3 CALLDATALOAD SWAP2 POP PUSH1 0x20 DUP4 ADD CALLDATALOAD PUSH1 0x1 PUSH1 0x1 PUSH1 0x40 SHL SUB DUP2 GT ISZERO PUSH2 0x302A JUMPI PUSH0 DUP1 REVERT JUMPDEST PUSH2 0x3036 DUP6 DUP3 DUP7 ADD PUSH2 0x2F81 JUMP JUMPDEST SWAP2 POP POP SWAP3 POP SWAP3 SWAP1 POP JUMP JUMPDEST PUSH0 PUSH1 0x1 PUSH1 0x1 PUSH1 0x40 SHL SUB DUP4 GT ISZERO PUSH2 0x3058 JUMPI PUSH2 0x3058 PUSH2 0x2F3D JUMP JUMPDEST PUSH2 0x306B PUSH1 0x1F DUP5 ADD PUSH1 0x1F NOT AND PUSH1 0x20 ADD PUSH2 0x2F51 JUMP JUMPDEST SWAP1 POP DUP3 DUP2 MSTORE DUP4 DUP4 DUP4 ADD GT ISZERO PUSH2 0x307E JUMPI PUSH0 DUP1 REVERT JUMPDEST DUP3 DUP3 PUSH1 0x20 DUP4 ADD CALLDATACOPY PUSH0 PUSH1 0x20 DUP5 DUP4 ADD ADD MSTORE SWAP4 SWAP3 POP POP POP JUMP JUMPDEST PUSH0 PUSH1 0x20 DUP3 DUP5 SUB SLT ISZERO PUSH2 0x30A4 JUMPI PUSH0 DUP1 REVERT JUMPDEST DUP2 CALLDATALOAD PUSH1 0x1 PUSH1 0x1 PUSH1 0x40 SHL SUB DUP2 GT ISZERO PUSH2 0x30B9 JUMPI PUSH0 DUP1 REVERT JUMPDEST DUP3 ADD PUSH1 0x1F DUP2 ADD DUP5 SGT PUSH2 0x30C9 JUMPI PUSH0 DUP1 REVERT JUMPDEST PUSH2 0x1F25 DUP5 DUP3 CALLDATALOAD PUSH1 0x20 DUP5 ADD PUSH2 0x3040 JUMP JUMPDEST PUSH0 DUP1 PUSH0 PUSH1 0x60 DUP5 DUP7 SUB SLT ISZERO PUSH2 0x30EA JUMPI PUSH0 DUP1 REVERT JUMPDEST DUP4 CALLDATALOAD PUSH2 0x30F5 DUP2 PUSH2 0x2E47 JUMP JUMPDEST SWAP3 POP PUSH1 0x20 DUP5 ADD CALLDATALOAD PUSH2 0x3105 DUP2 PUSH2 0x2E47 JUMP JUMPDEST SWAP3 SWAP6 SWAP3 SWAP5 POP POP POP PUSH1 0x40 SWAP2 SWAP1 SWAP2 ADD CALLDATALOAD SWAP1 JUMP JUMPDEST PUSH0 DUP1 PUSH1 0x40 DUP4 DUP6 SUB SLT ISZERO PUSH2 0x3127 JUMPI PUSH0 DUP1 REVERT JUMPDEST POP POP DUP1 CALLDATALOAD SWAP3 PUSH1 0x20 SWAP1 SWAP2 ADD CALLDATALOAD SWAP2 POP JUMP JUMPDEST PUSH0 PUSH1 0x20 DUP3 DUP5 SUB SLT ISZERO PUSH2 0x3146 JUMPI PUSH0 DUP1 REVERT JUMPDEST DUP2 CALLDATALOAD PUSH2 0x1FFD DUP2 PUSH2 0x2E47 JUMP JUMPDEST PUSH0 PUSH1 0x20 DUP3 DUP5 SUB SLT ISZERO PUSH2 0x3161 JUMPI PUSH0 DUP1 REVERT JUMPDEST DUP2 CALLDATALOAD PUSH1 0x1 PUSH1 0x1 PUSH1 0x40 SHL SUB DUP2 GT ISZERO PUSH2 0x3176 JUMPI PUSH0 DUP1 REVERT JUMPDEST PUSH2 0x1F25 DUP5 DUP3 DUP6 ADD PUSH2 0x2F81 JUMP JUMPDEST DUP1 ISZERO ISZERO DUP2 EQ PUSH2 0x23AF JUMPI PUSH0 DUP1 REVERT JUMPDEST PUSH0 PUSH1 0x20 DUP3 DUP5 SUB SLT ISZERO PUSH2 0x319F JUMPI PUSH0 DUP1 REVERT JUMPDEST DUP2 CALLDATALOAD PUSH2 0x1FFD DUP2 PUSH2 0x3182 JUMP JUMPDEST PUSH0 DUP1 PUSH1 0x40 DUP4 DUP6 SUB SLT ISZERO PUSH2 0x31BB JUMPI PUSH0 DUP1 REVERT JUMPDEST DUP3 CALLDATALOAD PUSH2 0x31C6 DUP2 PUSH2 0x2E47 JUMP JUMPDEST SWAP2 POP PUSH1 0x20 DUP4 ADD CALLDATALOAD PUSH2 0x2E92 DUP2 PUSH2 0x3182 JUMP JUMPDEST PUSH0 DUP1 PUSH1 0x40 DUP4 DUP6 SUB SLT ISZERO PUSH2 0x31E7 JUMPI PUSH0 DUP1 REVERT JUMPDEST DUP3 CALLDATALOAD PUSH1 0x1 PUSH1 0x1 PUSH1 0x40 SHL SUB DUP2 GT ISZERO PUSH2 0x31FC JUMPI PUSH0 DUP1 REVERT JUMPDEST PUSH2 0x3208 DUP6 DUP3 DUP7 ADD PUSH2 0x2F81 JUMP JUMPDEST SWAP3 POP POP PUSH1 0x20 DUP4 ADD CALLDATALOAD PUSH2 0x2E92 DUP2 PUSH2 0x2E47 JUMP JUMPDEST PUSH0 DUP1 PUSH0 DUP1 PUSH1 0x80 DUP6 DUP8 SUB SLT ISZERO PUSH2 0x322C JUMPI PUSH0 DUP1 REVERT JUMPDEST DUP5 CALLDATALOAD PUSH2 0x3237 DUP2 PUSH2 0x2E47 JUMP JUMPDEST SWAP4 POP PUSH1 0x20 DUP6 ADD CALLDATALOAD PUSH2 0x3247 DUP2 PUSH2 0x2E47 JUMP JUMPDEST SWAP3 POP PUSH1 0x40 DUP6 ADD CALLDATALOAD SWAP2 POP PUSH1 0x60 DUP6 ADD CALLDATALOAD PUSH1 0x1 PUSH1 0x1 PUSH1 0x40 SHL SUB DUP2 GT ISZERO PUSH2 0x3268 JUMPI PUSH0 DUP1 REVERT JUMPDEST DUP6 ADD PUSH1 0x1F DUP2 ADD DUP8 SGT PUSH2 0x3278 JUMPI PUSH0 DUP1 REVERT JUMPDEST PUSH2 0x3287 DUP8 DUP3 CALLDATALOAD PUSH1 0x20 DUP5 ADD PUSH2 0x3040 JUMP JUMPDEST SWAP2 POP POP SWAP3 SWAP6 SWAP2 SWAP5 POP SWAP3 POP JUMP JUMPDEST PUSH0 DUP2 MLOAD DUP1 DUP5 MSTORE PUSH1 0x20 DUP1 DUP6 ADD SWAP5 POP PUSH1 0x20 DUP5 ADD PUSH0 JUMPDEST DUP4 DUP2 LT ISZERO PUSH2 0x32C2 JUMPI DUP2 MLOAD DUP8 MSTORE SWAP6 DUP3 ADD SWAP6 SWAP1 DUP3 ADD SWAP1 PUSH1 0x1 ADD PUSH2 0x32A6 JUMP JUMPDEST POP SWAP5 SWAP6 SWAP5 POP POP POP POP POP JUMP JUMPDEST DUP3 ISZERO ISZERO DUP2 MSTORE PUSH1 0x40 PUSH1 0x20 DUP3 ADD MSTORE PUSH0 PUSH2 0x1F25 PUSH1 0x40 DUP4 ADD DUP5 PUSH2 0x3293 JUMP JUMPDEST PUSH0 DUP1 PUSH1 0x40 DUP4 DUP6 SUB SLT ISZERO PUSH2 0x32F8 JUMPI PUSH0 DUP1 REVERT JUMPDEST DUP3 CALLDATALOAD PUSH2 0x3303 DUP2 PUSH2 0x2E47 JUMP JUMPDEST SWAP2 POP PUSH1 0x20 DUP4 ADD CALLDATALOAD PUSH2 0x2E92 DUP2 PUSH2 0x2E47 JUMP JUMPDEST PUSH1 0x1 DUP2 DUP2 SHR SWAP1 DUP3 AND DUP1 PUSH2 0x3327 JUMPI PUSH1 0x7F DUP3 AND SWAP2 POP JUMPDEST PUSH1 0x20 DUP3 LT DUP2 SUB PUSH2 0x3345 JUMPI PUSH4 0x4E487B71 PUSH1 0xE0 SHL PUSH0 MSTORE PUSH1 0x22 PUSH1 0x4 MSTORE PUSH1 0x24 PUSH0 REVERT JUMPDEST POP SWAP2 SWAP1 POP JUMP JUMPDEST PUSH4 0x4E487B71 PUSH1 0xE0 SHL PUSH0 MSTORE PUSH1 0x11 PUSH1 0x4 MSTORE PUSH1 0x24 PUSH0 REVERT JUMPDEST DUP1 DUP3 ADD DUP1 DUP3 GT ISZERO PUSH2 0xBC7 JUMPI PUSH2 0xBC7 PUSH2 0x334B JUMP JUMPDEST DUP1 DUP3 MUL DUP2 ISZERO DUP3 DUP3 DIV DUP5 EQ OR PUSH2 0xBC7 JUMPI PUSH2 0xBC7 PUSH2 0x334B JUMP JUMPDEST PUSH1 0x1F DUP3 GT ISZERO PUSH2 0xCC2 JUMPI DUP1 PUSH0 MSTORE PUSH1 0x20 PUSH0 KECCAK256 PUSH1 0x1F DUP5 ADD PUSH1 0x5 SHR DUP2 ADD PUSH1 0x20 DUP6 LT ISZERO PUSH2 0x33AE JUMPI POP DUP1 JUMPDEST PUSH1 0x1F DUP5 ADD PUSH1 0x5 SHR DUP3 ADD SWAP2 POP JUMPDEST DUP2 DUP2 LT ISZERO PUSH2 0x1F82 JUMPI PUSH0 DUP2 SSTORE PUSH1 0x1 ADD PUSH2 0x33BA JUMP JUMPDEST DUP2 MLOAD PUSH1 0x1 PUSH1 0x1 PUSH1 0x40 SHL SUB DUP2 GT ISZERO PUSH2 0x33E6 JUMPI PUSH2 0x33E6 PUSH2 0x2F3D JUMP JUMPDEST PUSH2 0x33FA DUP2 PUSH2 0x33F4 DUP5 SLOAD PUSH2 0x3313 JUMP JUMPDEST DUP5 PUSH2 0x3389 JUMP JUMPDEST PUSH1 0x20 DUP1 PUSH1 0x1F DUP4 GT PUSH1 0x1 DUP2 EQ PUSH2 0x342D JUMPI PUSH0 DUP5 ISZERO PUSH2 0x3416 JUMPI POP DUP6 DUP4 ADD MLOAD JUMPDEST PUSH0 NOT PUSH1 0x3 DUP7 SWAP1 SHL SHR NOT AND PUSH1 0x1 DUP6 SWAP1 SHL OR DUP6 SSTORE PUSH2 0x3484 JUMP JUMPDEST PUSH0 DUP6 DUP2 MSTORE PUSH1 0x20 DUP2 KECCAK256 PUSH1 0x1F NOT DUP7 AND SWAP2 JUMPDEST DUP3 DUP2 LT ISZERO PUSH2 0x345B JUMPI DUP9 DUP7 ADD MLOAD DUP3 SSTORE SWAP5 DUP5 ADD SWAP5 PUSH1 0x1 SWAP1 SWAP2 ADD SWAP1 DUP5 ADD PUSH2 0x343C JUMP JUMPDEST POP DUP6 DUP3 LT ISZERO PUSH2 0x3478 JUMPI DUP8 DUP6 ADD MLOAD PUSH0 NOT PUSH1 0x3 DUP9 SWAP1 SHL PUSH1 0xF8 AND SHR NOT AND DUP2 SSTORE JUMPDEST POP POP PUSH1 0x1 DUP5 PUSH1 0x1 SHL ADD DUP6 SSTORE JUMPDEST POP POP POP POP POP POP JUMP JUMPDEST PUSH4 0x4E487B71 PUSH1 0xE0 SHL PUSH0 MSTORE PUSH1 0x12 PUSH1 0x4 MSTORE PUSH1 0x24 PUSH0 REVERT JUMPDEST PUSH0 DUP3 PUSH2 0x34AE JUMPI PUSH2 0x34AE PUSH2 0x348C JUMP JUMPDEST POP DIV SWAP1 JUMP JUMPDEST PUSH0 PUSH1 0x20 DUP3 DUP5 SUB SLT ISZERO PUSH2 0x34C3 JUMPI PUSH0 DUP1 REVERT JUMPDEST DUP2 MLOAD PUSH2 0x1FFD DUP2 PUSH2 0x2E47 JUMP JUMPDEST PUSH1 0x1 PUSH1 0x1 PUSH1 0xA0 SHL SUB DUP8 DUP2 AND DUP3 MSTORE PUSH1 0x20 DUP1 DUP4 ADD DUP9 SWAP1 MSTORE SWAP1 DUP7 AND PUSH1 0x40 DUP4 ADD MSTORE PUSH1 0x60 DUP3 ADD DUP6 SWAP1 MSTORE PUSH1 0x80 DUP3 ADD DUP5 SWAP1 MSTORE PUSH1 0xC0 PUSH1 0xA0 DUP4 ADD MSTORE DUP3 SLOAD PUSH0 SWAP2 DUP3 SWAP2 PUSH2 0x350F DUP2 PUSH2 0x3313 JUMP JUMPDEST DUP1 PUSH1 0xC0 DUP8 ADD MSTORE PUSH1 0xE0 PUSH1 0x1 DUP1 DUP5 AND PUSH0 DUP2 EQ PUSH2 0x3530 JUMPI PUSH1 0x1 DUP2 EQ PUSH2 0x354C JUMPI PUSH2 0x3579 JUMP JUMPDEST PUSH1 0xFF NOT DUP6 AND PUSH1 0xE0 DUP11 ADD MSTORE PUSH1 0xE0 DUP5 ISZERO ISZERO PUSH1 0x5 SHL DUP11 ADD ADD SWAP7 POP PUSH2 0x3579 JUMP JUMPDEST DUP10 PUSH0 MSTORE PUSH1 0x20 PUSH0 KECCAK256 PUSH0 JUMPDEST DUP6 DUP2 LT ISZERO PUSH2 0x3570 JUMPI DUP2 SLOAD DUP12 DUP3 ADD DUP7 ADD MSTORE SWAP1 DUP4 ADD SWAP1 DUP8 ADD PUSH2 0x3555 JUMP JUMPDEST DUP11 ADD PUSH1 0xE0 ADD SWAP8 POP POP JUMPDEST POP SWAP5 SWAP14 SWAP13 POP POP POP POP POP POP POP POP POP POP POP POP POP JUMP JUMPDEST PUSH4 0x4E487B71 PUSH1 0xE0 SHL PUSH0 MSTORE PUSH1 0x32 PUSH1 0x4 MSTORE PUSH1 0x24 PUSH0 REVERT JUMPDEST DUP2 DUP2 SUB DUP2 DUP2 GT ISZERO PUSH2 0xBC7 JUMPI PUSH2 0xBC7 PUSH2 0x334B JUMP JUMPDEST PUSH0 DUP5 MLOAD PUSH1 0x20 PUSH2 0x35C6 DUP3 DUP6 PUSH1 0x20 DUP11 ADD PUSH2 0x2E9D JUMP JUMPDEST DUP6 MLOAD SWAP2 DUP5 ADD SWAP2 PUSH2 0x35DA DUP2 DUP5 PUSH1 0x20 DUP11 ADD PUSH2 0x2E9D JUMP JUMPDEST DUP6 SLOAD SWAP3 ADD SWAP2 PUSH0 SWAP1 PUSH2 0x35EA DUP2 PUSH2 0x3313 JUMP JUMPDEST PUSH1 0x1 DUP3 DUP2 AND DUP1 ISZERO PUSH2 0x3602 JUMPI PUSH1 0x1 DUP2 EQ PUSH2 0x3617 JUMPI PUSH2 0x3641 JUMP JUMPDEST PUSH1 0xFF NOT DUP5 AND DUP8 MSTORE DUP3 ISZERO ISZERO DUP4 MUL DUP8 ADD SWAP5 POP PUSH2 0x3641 JUMP JUMPDEST DUP10 PUSH0 MSTORE PUSH1 0x20 PUSH0 KECCAK256 PUSH0 JUMPDEST DUP5 DUP2 LT ISZERO PUSH2 0x3639 JUMPI DUP2 SLOAD DUP10 DUP3 ADD MSTORE SWAP1 DUP4 ADD SWAP1 DUP8 ADD PUSH2 0x3620 JUMP JUMPDEST POP POP DUP3 DUP8 ADD SWAP5 POP JUMPDEST POP SWAP3 SWAP11 SWAP10 POP POP POP POP POP POP POP POP POP POP JUMP JUMPDEST PUSH0 PUSH1 0x20 DUP3 DUP5 SUB SLT ISZERO PUSH2 0x3661 JUMPI PUSH0 DUP1 REVERT JUMPDEST POP MLOAD SWAP2 SWAP1 POP JUMP JUMPDEST PUSH0 PUSH1 0x20 DUP3 DUP5 SUB SLT ISZERO PUSH2 0x3678 JUMPI PUSH0 DUP1 REVERT JUMPDEST DUP2 MLOAD PUSH2 0x1FFD DUP2 PUSH2 0x3182 JUMP JUMPDEST PUSH0 DUP3 PUSH2 0x3691 JUMPI PUSH2 0x3691 PUSH2 0x348C JUMP JUMPDEST POP MOD SWAP1 JUMP JUMPDEST PUSH0 PUSH1 0x1 DUP3 ADD PUSH2 0x36A7 JUMPI PUSH2 0x36A7 PUSH2 0x334B JUMP JUMPDEST POP PUSH1 0x1 ADD SWAP1 JUMP JUMPDEST DUP3 DUP2 MSTORE PUSH1 0x40 PUSH1 0x20 DUP3 ADD MSTORE PUSH0 PUSH2 0x1F25 PUSH1 0x40 DUP4 ADD DUP5 PUSH2 0x3293 JUMP JUMPDEST PUSH1 0x1 PUSH1 0x1 PUSH1 0xA0 SHL SUB DUP6 DUP2 AND DUP3 MSTORE DUP5 AND PUSH1 0x20 DUP3 ADD MSTORE PUSH1 0x40 DUP2 ADD DUP4 SWAP1 MSTORE PUSH1 0x80 PUSH1 0x60 DUP3 ADD DUP2 SWAP1 MSTORE PUSH0 SWAP1 PUSH2 0x36F8 SWAP1 DUP4 ADD DUP5 PUSH2 0x2EBF JUMP JUMPDEST SWAP7 SWAP6 POP POP POP POP POP POP JUMP JUMPDEST PUSH0 PUSH1 0x20 DUP3 DUP5 SUB SLT ISZERO PUSH2 0x3712 JUMPI PUSH0 DUP1 REVERT JUMPDEST DUP2 MLOAD PUSH2 0x1FFD DUP2 PUSH2 0x2E17 JUMP INVALID LOG2 PUSH5 0x6970667358 0x22 SLT KECCAK256 0xEB SAR 0xF9 COINBASE CALLDATALOAD 0xBC PUSH23 0xA3E3D4C4F4558E40B9485B9095EF1781B64559C9916B38 0xB1 GAS PUSH5 0x736F6C6343 STOP ADDMOD AND STOP CALLER PUSH10 0x7066733A2F2F516D5A74 PUSH17 0x55727A43726675694263515A3272373646 COINBASE PUSH22 0x6A776F454174576679574C596D6E46444B734E464B65 0x2F "
		},
		"gasEstimates": {
			"creation": {
				"codeDepositCost": "2832600",
				"executionCost": "infinite",
				"totalCost": "infinite"
			},
			"external": {
				"OPERATOR_FILTER_REGISTRY()": "327",
				"acceptOwnership()": "52440",
				"adminMint(address,uint256)": "infinite",
				"alreadyRequested()": "2450",
				"approve(address,uint256)": "infinite",
				"balanceOf(address)": "2665",
				"baseURI_()": "infinite",
				"checkBalance(uint256[])": "infinite",
				"claim()": "infinite",
				"claim(uint256[])": "infinite",
				"contractURI()": "infinite",
				"cost()": "2363",
				"createtbaAddress(uint256)": "infinite",
				"data()": "infinite",
				"getApproved(uint256)": "7021",
				"getRequestStatus(uint256)": "infinite",
				"idtoTba(uint256)": "2542",
				"isApprovedForAll(address,address)": "infinite",
				"isValid(bytes32[],address)": "infinite",
				"lastRequestId()": "2426",
				"maxPerWallet()": "2362",
				"maxPertransaction()": "2406",
				"maxSupply()": "2361",
				"mintedPerWallet(address)": "2600",
				"mintingStarted()": "2450",
				"name()": "infinite",
				"owner()": "2420",
				"ownerOf(uint256)": "infinite",
				"publicMint(uint256)": "infinite",
				"randomNumReady()": "2406",
				"rate()": "2428",
				"rawFulfillRandomWords(uint256,uint256[])": "infinite",
				"requestIds(uint256)": "4640",
				"requestRandomWords()": "infinite",
				"root()": "2427",
				"royaltyInfo(uint256,uint256)": "5205",
				"s_requests(uint256)": "2605",
				"safeTransferFrom(address,address,uint256)": "infinite",
				"safeTransferFrom(address,address,uint256,bytes)": "infinite",
				"setApprovalForAll(address,bool)": "infinite",
				"setBaseURI(string)": "infinite",
				"setCost(uint256,uint256)": "46733",
				"setIBigTopLootChestAddress(address)": "26796",
				"setMintingStarted(bool)": "26823",
				"setRate(uint256,uint256)": "46711",
				"setRoot(bytes32)": "24597",
				"setRoyaltyInfo(address,uint96)": "24979",
				"setUriSuffix(string)": "infinite",
				"setcontractURI(string)": "infinite",
				"setmaxPerTransaction(uint256)": "24599",
				"setmaxPerWallet(uint256)": "24597",
				"setspoilTokenAddress(address)": "26829",
				"specialIds(uint256)": "4706",
				"specialRate()": "2407",
				"supportsInterface(bytes4)": "632",
				"symbol()": "infinite",
				"tbaAddress(uint256)": "infinite",
				"tokenURI(uint256)": "infinite",
				"totalSupply()": "4521",
				"transferFrom(address,address,uint256)": "infinite",
				"transferOwnership(address)": "infinite",
				"uriSuffix()": "infinite",
				"whiteListCost()": "2361",
				"whiteListMint(uint256,bytes32[])": "infinite"
			},
			"internal": {
				"_afterTokenTransfers(address,address,uint256,uint256)": "infinite",
				"_approve(address,uint256)": "infinite",
				"_approve(address,uint256,bool)": "infinite",
				"_baseURI()": "infinite",
				"_beforeTokenTransfers(address,address,uint256,uint256)": "infinite",
				"_burn(uint256)": "infinite",
				"_burn(uint256,bool)": "infinite",
				"_checkContractOnERC721Received(address,address,uint256,bytes memory)": "infinite",
				"_exists(uint256)": "4369",
				"_extraData(address,address,uint24)": "infinite",
				"_getApprovedSlotAndAddress(uint256)": "infinite",
				"_getAux(address)": "infinite",
				"_initializeOwnershipAt(uint256)": "infinite",
				"_isSenderApprovedOrOwner(address,address,address)": "infinite",
				"_mint(address,uint256)": "infinite",
				"_mintERC2309(address,uint256)": "infinite",
				"_msgSenderERC721A()": "infinite",
				"_nextExtraData(address,address,uint256)": "infinite",
				"_nextInitializedFlag(uint256)": "infinite",
				"_nextTokenId()": "infinite",
				"_numberBurned(address)": "infinite",
				"_numberMinted(address)": "infinite",
				"_ownershipAt(uint256)": "infinite",
				"_ownershipOf(uint256)": "infinite",
				"_packOwnershipData(address,uint256)": "infinite",
				"_packedOwnershipOf(uint256)": "infinite",
				"_revert(bytes4)": "17",
				"_safeMint(address,uint256)": "infinite",
				"_safeMint(address,uint256,bytes memory)": "infinite",
				"_setAux(address,uint64)": "infinite",
				"_setExtraDataAt(uint256,uint24)": "infinite",
				"_startTokenId()": "infinite",
				"_toString(uint256)": "infinite",
				"_totalBurned()": "infinite",
				"_totalMinted()": "infinite",
				"_unpackedOwnership(uint256)": "infinite",
				"fulfillRandomWords(uint256,uint256[] memory)": "infinite"
			}
		},
		"methodIdentifiers": {
			"OPERATOR_FILTER_REGISTRY()": "41f43434",
			"acceptOwnership()": "79ba5097",
			"adminMint(address,uint256)": "e58306f9",
			"alreadyRequested()": "1ca28afd",
			"approve(address,uint256)": "095ea7b3",
			"balanceOf(address)": "70a08231",
			"baseURI_()": "f259a29e",
			"checkBalance(uint256[])": "6cf3b9e9",
			"claim()": "4e71d92d",
			"claim(uint256[])": "6ba4c138",
			"contractURI()": "e8a3d485",
			"cost()": "13faede6",
			"createtbaAddress(uint256)": "399a6e08",
			"data()": "73d4a13a",
			"getApproved(uint256)": "081812fc",
			"getRequestStatus(uint256)": "d8a4676f",
			"idtoTba(uint256)": "b2d00568",
			"isApprovedForAll(address,address)": "e985e9c5",
			"isValid(bytes32[],address)": "b365a3e2",
			"lastRequestId()": "fc2a88c3",
			"maxPerWallet()": "453c2310",
			"maxPertransaction()": "4c2d8361",
			"maxSupply()": "d5abeb01",
			"mintedPerWallet(address)": "3a602b4d",
			"mintingStarted()": "6f8608e4",
			"name()": "06fdde03",
			"owner()": "8da5cb5b",
			"ownerOf(uint256)": "6352211e",
			"publicMint(uint256)": "2db11544",
			"randomNumReady()": "0f5800fa",
			"rate()": "2c4e722e",
			"rawFulfillRandomWords(uint256,uint256[])": "1fe543e3",
			"requestIds(uint256)": "8796ba8c",
			"requestRandomWords()": "e0c86289",
			"root()": "ebf0c717",
			"royaltyInfo(uint256,uint256)": "2a55205a",
			"s_requests(uint256)": "a168fa89",
			"safeTransferFrom(address,address,uint256)": "42842e0e",
			"safeTransferFrom(address,address,uint256,bytes)": "b88d4fde",
			"setApprovalForAll(address,bool)": "a22cb465",
			"setBaseURI(string)": "55f804b3",
			"setCost(uint256,uint256)": "7696e088",
			"setIBigTopLootChestAddress(address)": "67240c51",
			"setMintingStarted(bool)": "8dc17139",
			"setRate(uint256,uint256)": "46df2ccb",
			"setRoot(bytes32)": "dab5f340",
			"setRoyaltyInfo(address,uint96)": "02fa7c47",
			"setUriSuffix(string)": "16ba10e0",
			"setcontractURI(string)": "efa00ce7",
			"setmaxPerTransaction(uint256)": "108bfbfa",
			"setmaxPerWallet(uint256)": "60d3e1ae",
			"setspoilTokenAddress(address)": "32bfc8bc",
			"specialIds(uint256)": "923d4a78",
			"specialRate()": "339e85a5",
			"supportsInterface(bytes4)": "01ffc9a7",
			"symbol()": "95d89b41",
			"tbaAddress(uint256)": "36bb3c77",
			"tokenURI(uint256)": "c87b56dd",
			"totalSupply()": "18160ddd",
			"transferFrom(address,address,uint256)": "23b872dd",
			"transferOwnership(address)": "f2fde38b",
			"uriSuffix()": "5503a0e8",
			"whiteListCost()": "9257e044",
			"whiteListMint(uint256,bytes32[])": "11876875"
		}
	},
	"abi": [
		{
			"inputs": [
				{
					"internalType": "uint64",
					"name": "subscriptionId",
					"type": "uint64"
				}
			],
			"stateMutability": "nonpayable",
			"type": "constructor"
		},
		{
			"inputs": [],
			"name": "ApprovalCallerNotOwnerNorApproved",
			"type": "error"
		},
		{
			"inputs": [],
			"name": "ApprovalQueryForNonexistentToken",
			"type": "error"
		},
		{
			"inputs": [],
			"name": "BalanceQueryForZeroAddress",
			"type": "error"
		},
		{
			"inputs": [
				{
					"internalType": "uint256",
					"name": "numerator",
					"type": "uint256"
				},
				{
					"internalType": "uint256",
					"name": "denominator",
					"type": "uint256"
				}
			],
			"name": "ERC2981InvalidDefaultRoyalty",
			"type": "error"
		},
		{
			"inputs": [
				{
					"internalType": "address",
					"name": "receiver",
					"type": "address"
				}
			],
			"name": "ERC2981InvalidDefaultRoyaltyReceiver",
			"type": "error"
		},
		{
			"inputs": [
				{
					"internalType": "uint256",
					"name": "tokenId",
					"type": "uint256"
				},
				{
					"internalType": "uint256",
					"name": "numerator",
					"type": "uint256"
				},
				{
					"internalType": "uint256",
					"name": "denominator",
					"type": "uint256"
				}
			],
			"name": "ERC2981InvalidTokenRoyalty",
			"type": "error"
		},
		{
			"inputs": [
				{
					"internalType": "uint256",
					"name": "tokenId",
					"type": "uint256"
				},
				{
					"internalType": "address",
					"name": "receiver",
					"type": "address"
				}
			],
			"name": "ERC2981InvalidTokenRoyaltyReceiver",
			"type": "error"
		},
		{
			"inputs": [],
			"name": "MintERC2309QuantityExceedsLimit",
			"type": "error"
		},
		{
			"inputs": [],
			"name": "MintToZeroAddress",
			"type": "error"
		},
		{
			"inputs": [],
			"name": "MintZeroQuantity",
			"type": "error"
		},
		{
			"inputs": [
				{
					"internalType": "address",
					"name": "have",
					"type": "address"
				},
				{
					"internalType": "address",
					"name": "want",
					"type": "address"
				}
			],
			"name": "OnlyCoordinatorCanFulfill",
			"type": "error"
		},
		{
			"inputs": [
				{
					"internalType": "address",
					"name": "operator",
					"type": "address"
				}
			],
			"name": "OperatorNotAllowed",
			"type": "error"
		},
		{
			"inputs": [],
			"name": "OwnerQueryForNonexistentToken",
			"type": "error"
		},
		{
			"inputs": [],
			"name": "OwnershipNotInitializedForExtraData",
			"type": "error"
		},
		{
			"inputs": [],
			"name": "TransferCallerNotOwnerNorApproved",
			"type": "error"
		},
		{
			"inputs": [],
			"name": "TransferFromIncorrectOwner",
			"type": "error"
		},
		{
			"inputs": [],
			"name": "TransferToNonERC721ReceiverImplementer",
			"type": "error"
		},
		{
			"inputs": [],
			"name": "TransferToZeroAddress",
			"type": "error"
		},
		{
			"inputs": [],
			"name": "URIQueryForNonexistentToken",
			"type": "error"
		},
		{
			"anonymous": false,
			"inputs": [
				{
					"indexed": true,
					"internalType": "address",
					"name": "owner",
					"type": "address"
				},
				{
					"indexed": true,
					"internalType": "address",
					"name": "approved",
					"type": "address"
				},
				{
					"indexed": true,
					"internalType": "uint256",
					"name": "tokenId",
					"type": "uint256"
				}
			],
			"name": "Approval",
			"type": "event"
		},
		{
			"anonymous": false,
			"inputs": [
				{
					"indexed": true,
					"internalType": "address",
					"name": "owner",
					"type": "address"
				},
				{
					"indexed": true,
					"internalType": "address",
					"name": "operator",
					"type": "address"
				},
				{
					"indexed": false,
					"internalType": "bool",
					"name": "approved",
					"type": "bool"
				}
			],
			"name": "ApprovalForAll",
			"type": "event"
		},
		{
			"anonymous": false,
			"inputs": [
				{
					"indexed": true,
					"internalType": "uint256",
					"name": "fromTokenId",
					"type": "uint256"
				},
				{
					"indexed": false,
					"internalType": "uint256",
					"name": "toTokenId",
					"type": "uint256"
				},
				{
					"indexed": true,
					"internalType": "address",
					"name": "from",
					"type": "address"
				},
				{
					"indexed": true,
					"internalType": "address",
					"name": "to",
					"type": "address"
				}
			],
			"name": "ConsecutiveTransfer",
			"type": "event"
		},
		{
			"anonymous": false,
			"inputs": [
				{
					"indexed": true,
					"internalType": "address",
					"name": "from",
					"type": "address"
				},
				{
					"indexed": true,
					"internalType": "address",
					"name": "to",
					"type": "address"
				}
			],
			"name": "OwnershipTransferRequested",
			"type": "event"
		},
		{
			"anonymous": false,
			"inputs": [
				{
					"indexed": true,
					"internalType": "address",
					"name": "from",
					"type": "address"
				},
				{
					"indexed": true,
					"internalType": "address",
					"name": "to",
					"type": "address"
				}
			],
			"name": "OwnershipTransferred",
			"type": "event"
		},
		{
			"anonymous": false,
			"inputs": [
				{
					"indexed": false,
					"internalType": "uint256",
					"name": "requestId",
					"type": "uint256"
				},
				{
					"indexed": false,
					"internalType": "uint256[]",
					"name": "randomWords",
					"type": "uint256[]"
				}
			],
			"name": "RequestFulfilled",
			"type": "event"
		},
		{
			"anonymous": false,
			"inputs": [
				{
					"indexed": false,
					"internalType": "uint256",
					"name": "requestId",
					"type": "uint256"
				},
				{
					"indexed": false,
					"internalType": "uint32",
					"name": "numWords",
					"type": "uint32"
				}
			],
			"name": "RequestSent",
			"type": "event"
		},
		{
			"anonymous": false,
			"inputs": [
				{
					"indexed": true,
					"internalType": "address",
					"name": "from",
					"type": "address"
				},
				{
					"indexed": true,
					"internalType": "address",
					"name": "to",
					"type": "address"
				},
				{
					"indexed": true,
					"internalType": "uint256",
					"name": "tokenId",
					"type": "uint256"
				}
			],
			"name": "Transfer",
			"type": "event"
		},
		{
			"inputs": [],
			"name": "OPERATOR_FILTER_REGISTRY",
			"outputs": [
				{
					"internalType": "contract IOperatorFilterRegistry",
					"name": "",
					"type": "address"
				}
			],
			"stateMutability": "view",
			"type": "function"
		},
		{
			"inputs": [],
			"name": "acceptOwnership",
			"outputs": [],
			"stateMutability": "nonpayable",
			"type": "function"
		},
		{
			"inputs": [
				{
					"internalType": "address",
					"name": "wallet",
					"type": "address"
				},
				{
					"internalType": "uint256",
					"name": "amount",
					"type": "uint256"
				}
			],
			"name": "adminMint",
			"outputs": [],
			"stateMutability": "nonpayable",
			"type": "function"
		},
		{
			"inputs": [],
			"name": "alreadyRequested",
			"outputs": [
				{
					"internalType": "bool",
					"name": "",
					"type": "bool"
				}
			],
			"stateMutability": "view",
			"type": "function"
		},
		{
			"inputs": [
				{
					"internalType": "address",
					"name": "to",
					"type": "address"
				},
				{
					"internalType": "uint256",
					"name": "tokenId",
					"type": "uint256"
				}
			],
			"name": "approve",
			"outputs": [],
			"stateMutability": "payable",
			"type": "function"
		},
		{
			"inputs": [
				{
					"internalType": "address",
					"name": "owner",
					"type": "address"
				}
			],
			"name": "balanceOf",
			"outputs": [
				{
					"internalType": "uint256",
					"name": "",
					"type": "uint256"
				}
			],
			"stateMutability": "view",
			"type": "function"
		},
		{
			"inputs": [],
			"name": "baseURI_",
			"outputs": [
				{
					"internalType": "string",
					"name": "",
					"type": "string"
				}
			],
			"stateMutability": "view",
			"type": "function"
		},
		{
			"inputs": [
				{
					"internalType": "uint256[]",
					"name": "_tokenIds",
					"type": "uint256[]"
				}
			],
			"name": "checkBalance",
			"outputs": [
				{
					"internalType": "uint256",
					"name": "",
					"type": "uint256"
				}
			],
			"stateMutability": "view",
			"type": "function"
		},
		{
			"inputs": [],
			"name": "claim",
			"outputs": [],
			"stateMutability": "nonpayable",
			"type": "function"
		},
		{
			"inputs": [
				{
					"internalType": "uint256[]",
					"name": "_tokenIds",
					"type": "uint256[]"
				}
			],
			"name": "claim",
			"outputs": [],
			"stateMutability": "nonpayable",
			"type": "function"
		},
		{
			"inputs": [],
			"name": "contractURI",
			"outputs": [
				{
					"internalType": "string",
					"name": "",
					"type": "string"
				}
			],
			"stateMutability": "view",
			"type": "function"
		},
		{
			"inputs": [],
			"name": "cost",
			"outputs": [
				{
					"internalType": "uint256",
					"name": "",
					"type": "uint256"
				}
			],
			"stateMutability": "view",
			"type": "function"
		},
		{
			"inputs": [
				{
					"internalType": "uint256",
					"name": "tokenId",
					"type": "uint256"
				}
			],
			"name": "createtbaAddress",
			"outputs": [
				{
					"internalType": "address",
					"name": "",
					"type": "address"
				}
			],
			"stateMutability": "nonpayable",
			"type": "function"
		},
		{
			"inputs": [],
			"name": "data",
			"outputs": [
				{
					"internalType": "bytes",
					"name": "",
					"type": "bytes"
				}
			],
			"stateMutability": "view",
			"type": "function"
		},
		{
			"inputs": [
				{
					"internalType": "uint256",
					"name": "tokenId",
					"type": "uint256"
				}
			],
			"name": "getApproved",
			"outputs": [
				{
					"internalType": "address",
					"name": "",
					"type": "address"
				}
			],
			"stateMutability": "view",
			"type": "function"
		},
		{
			"inputs": [
				{
					"internalType": "uint256",
					"name": "_requestId",
					"type": "uint256"
				}
			],
			"name": "getRequestStatus",
			"outputs": [
				{
					"internalType": "bool",
					"name": "fulfilled",
					"type": "bool"
				},
				{
					"internalType": "uint256[]",
					"name": "randomWords",
					"type": "uint256[]"
				}
			],
			"stateMutability": "view",
			"type": "function"
		},
		{
			"inputs": [
				{
					"internalType": "uint256",
					"name": "",
					"type": "uint256"
				}
			],
			"name": "idtoTba",
			"outputs": [
				{
					"internalType": "address",
					"name": "",
					"type": "address"
				}
			],
			"stateMutability": "view",
			"type": "function"
		},
		{
			"inputs": [
				{
					"internalType": "address",
					"name": "owner",
					"type": "address"
				},
				{
					"internalType": "address",
					"name": "operator",
					"type": "address"
				}
			],
			"name": "isApprovedForAll",
			"outputs": [
				{
					"internalType": "bool",
					"name": "",
					"type": "bool"
				}
			],
			"stateMutability": "view",
			"type": "function"
		},
		{
			"inputs": [
				{
					"internalType": "bytes32[]",
					"name": "proof",
					"type": "bytes32[]"
				},
				{
					"internalType": "address",
					"name": "add",
					"type": "address"
				}
			],
			"name": "isValid",
			"outputs": [
				{
					"internalType": "bool",
					"name": "",
					"type": "bool"
				}
			],
			"stateMutability": "view",
			"type": "function"
		},
		{
			"inputs": [],
			"name": "lastRequestId",
			"outputs": [
				{
					"internalType": "uint256",
					"name": "",
					"type": "uint256"
				}
			],
			"stateMutability": "view",
			"type": "function"
		},
		{
			"inputs": [],
			"name": "maxPerWallet",
			"outputs": [
				{
					"internalType": "uint256",
					"name": "",
					"type": "uint256"
				}
			],
			"stateMutability": "view",
			"type": "function"
		},
		{
			"inputs": [],
			"name": "maxPertransaction",
			"outputs": [
				{
					"internalType": "uint256",
					"name": "",
					"type": "uint256"
				}
			],
			"stateMutability": "view",
			"type": "function"
		},
		{
			"inputs": [],
			"name": "maxSupply",
			"outputs": [
				{
					"internalType": "uint256",
					"name": "",
					"type": "uint256"
				}
			],
			"stateMutability": "view",
			"type": "function"
		},
		{
			"inputs": [
				{
					"internalType": "address",
					"name": "",
					"type": "address"
				}
			],
			"name": "mintedPerWallet",
			"outputs": [
				{
					"internalType": "uint256",
					"name": "",
					"type": "uint256"
				}
			],
			"stateMutability": "view",
			"type": "function"
		},
		{
			"inputs": [],
			"name": "mintingStarted",
			"outputs": [
				{
					"internalType": "bool",
					"name": "",
					"type": "bool"
				}
			],
			"stateMutability": "view",
			"type": "function"
		},
		{
			"inputs": [],
			"name": "name",
			"outputs": [
				{
					"internalType": "string",
					"name": "",
					"type": "string"
				}
			],
			"stateMutability": "view",
			"type": "function"
		},
		{
			"inputs": [],
			"name": "owner",
			"outputs": [
				{
					"internalType": "address",
					"name": "",
					"type": "address"
				}
			],
			"stateMutability": "view",
			"type": "function"
		},
		{
			"inputs": [
				{
					"internalType": "uint256",
					"name": "tokenId",
					"type": "uint256"
				}
			],
			"name": "ownerOf",
			"outputs": [
				{
					"internalType": "address",
					"name": "",
					"type": "address"
				}
			],
			"stateMutability": "view",
			"type": "function"
		},
		{
			"inputs": [
				{
					"internalType": "uint256",
					"name": "amount",
					"type": "uint256"
				}
			],
			"name": "publicMint",
			"outputs": [],
			"stateMutability": "payable",
			"type": "function"
		},
		{
			"inputs": [],
			"name": "randomNumReady",
			"outputs": [
				{
					"internalType": "bool",
					"name": "",
					"type": "bool"
				}
			],
			"stateMutability": "view",
			"type": "function"
		},
		{
			"inputs": [],
			"name": "rate",
			"outputs": [
				{
					"internalType": "uint256",
					"name": "",
					"type": "uint256"
				}
			],
			"stateMutability": "view",
			"type": "function"
		},
		{
			"inputs": [
				{
					"internalType": "uint256",
					"name": "requestId",
					"type": "uint256"
				},
				{
					"internalType": "uint256[]",
					"name": "randomWords",
					"type": "uint256[]"
				}
			],
			"name": "rawFulfillRandomWords",
			"outputs": [],
			"stateMutability": "nonpayable",
			"type": "function"
		},
		{
			"inputs": [
				{
					"internalType": "uint256",
					"name": "",
					"type": "uint256"
				}
			],
			"name": "requestIds",
			"outputs": [
				{
					"internalType": "uint256",
					"name": "",
					"type": "uint256"
				}
			],
			"stateMutability": "view",
			"type": "function"
		},
		{
			"inputs": [],
			"name": "requestRandomWords",
			"outputs": [
				{
					"internalType": "uint256",
					"name": "requestId",
					"type": "uint256"
				}
			],
			"stateMutability": "nonpayable",
			"type": "function"
		},
		{
			"inputs": [],
			"name": "root",
			"outputs": [
				{
					"internalType": "bytes32",
					"name": "",
					"type": "bytes32"
				}
			],
			"stateMutability": "view",
			"type": "function"
		},
		{
			"inputs": [
				{
					"internalType": "uint256",
					"name": "tokenId",
					"type": "uint256"
				},
				{
					"internalType": "uint256",
					"name": "salePrice",
					"type": "uint256"
				}
			],
			"name": "royaltyInfo",
			"outputs": [
				{
					"internalType": "address",
					"name": "",
					"type": "address"
				},
				{
					"internalType": "uint256",
					"name": "",
					"type": "uint256"
				}
			],
			"stateMutability": "view",
			"type": "function"
		},
		{
			"inputs": [
				{
					"internalType": "uint256",
					"name": "",
					"type": "uint256"
				}
			],
			"name": "s_requests",
			"outputs": [
				{
					"internalType": "bool",
					"name": "fulfilled",
					"type": "bool"
				},
				{
					"internalType": "bool",
					"name": "exists",
					"type": "bool"
				}
			],
			"stateMutability": "view",
			"type": "function"
		},
		{
			"inputs": [
				{
					"internalType": "address",
					"name": "from",
					"type": "address"
				},
				{
					"internalType": "address",
					"name": "to",
					"type": "address"
				},
				{
					"internalType": "uint256",
					"name": "tokenId",
					"type": "uint256"
				}
			],
			"name": "safeTransferFrom",
			"outputs": [],
			"stateMutability": "payable",
			"type": "function"
		},
		{
			"inputs": [
				{
					"internalType": "address",
					"name": "from",
					"type": "address"
				},
				{
					"internalType": "address",
					"name": "to",
					"type": "address"
				},
				{
					"internalType": "uint256",
					"name": "tokenId",
					"type": "uint256"
				},
				{
					"internalType": "bytes",
					"name": "_data",
					"type": "bytes"
				}
			],
			"name": "safeTransferFrom",
			"outputs": [],
			"stateMutability": "payable",
			"type": "function"
		},
		{
			"inputs": [
				{
					"internalType": "address",
					"name": "operator",
					"type": "address"
				},
				{
					"internalType": "bool",
					"name": "approved",
					"type": "bool"
				}
			],
			"name": "setApprovalForAll",
			"outputs": [],
			"stateMutability": "nonpayable",
			"type": "function"
		},
		{
			"inputs": [
				{
					"internalType": "string",
					"name": "_newBaseURI",
					"type": "string"
				}
			],
			"name": "setBaseURI",
			"outputs": [],
			"stateMutability": "nonpayable",
			"type": "function"
		},
		{
			"inputs": [
				{
					"internalType": "uint256",
					"name": "_cost",
					"type": "uint256"
				},
				{
					"internalType": "uint256",
					"name": "_whiteListCost",
					"type": "uint256"
				}
			],
			"name": "setCost",
			"outputs": [],
			"stateMutability": "nonpayable",
			"type": "function"
		},
		{
			"inputs": [
				{
					"internalType": "address",
					"name": "add",
					"type": "address"
				}
			],
			"name": "setIBigTopLootChestAddress",
			"outputs": [],
			"stateMutability": "nonpayable",
			"type": "function"
		},
		{
			"inputs": [
				{
					"internalType": "bool",
					"name": "_mintingStarted",
					"type": "bool"
				}
			],
			"name": "setMintingStarted",
			"outputs": [],
			"stateMutability": "nonpayable",
			"type": "function"
		},
		{
			"inputs": [
				{
					"internalType": "uint256",
					"name": "_rate",
					"type": "uint256"
				},
				{
					"internalType": "uint256",
					"name": "_specialRate",
					"type": "uint256"
				}
			],
			"name": "setRate",
			"outputs": [],
			"stateMutability": "nonpayable",
			"type": "function"
		},
		{
			"inputs": [
				{
					"internalType": "bytes32",
					"name": "_root",
					"type": "bytes32"
				}
			],
			"name": "setRoot",
			"outputs": [],
			"stateMutability": "nonpayable",
			"type": "function"
		},
		{
			"inputs": [
				{
					"internalType": "address",
					"name": "reciever",
					"type": "address"
				},
				{
					"internalType": "uint96",
					"name": "_royaltyfee",
					"type": "uint96"
				}
			],
			"name": "setRoyaltyInfo",
			"outputs": [],
			"stateMutability": "nonpayable",
			"type": "function"
		},
		{
			"inputs": [
				{
					"internalType": "string",
					"name": "_uriSuffix",
					"type": "string"
				}
			],
			"name": "setUriSuffix",
			"outputs": [],
			"stateMutability": "nonpayable",
			"type": "function"
		},
		{
			"inputs": [
				{
					"internalType": "string",
					"name": "_contracturi",
					"type": "string"
				}
			],
			"name": "setcontractURI",
			"outputs": [],
			"stateMutability": "nonpayable",
			"type": "function"
		},
		{
			"inputs": [
				{
					"internalType": "uint256",
					"name": "_maxPerTransaction",
					"type": "uint256"
				}
			],
			"name": "setmaxPerTransaction",
			"outputs": [],
			"stateMutability": "nonpayable",
			"type": "function"
		},
		{
			"inputs": [
				{
					"internalType": "uint256",
					"name": "_maxPerWallet",
					"type": "uint256"
				}
			],
			"name": "setmaxPerWallet",
			"outputs": [],
			"stateMutability": "nonpayable",
			"type": "function"
		},
		{
			"inputs": [
				{
					"internalType": "address",
					"name": "add",
					"type": "address"
				}
			],
			"name": "setspoilTokenAddress",
			"outputs": [],
			"stateMutability": "nonpayable",
			"type": "function"
		},
		{
			"inputs": [
				{
					"internalType": "uint256",
					"name": "",
					"type": "uint256"
				}
			],
			"name": "specialIds",
			"outputs": [
				{
					"internalType": "uint256",
					"name": "",
					"type": "uint256"
				}
			],
			"stateMutability": "view",
			"type": "function"
		},
		{
			"inputs": [],
			"name": "specialRate",
			"outputs": [
				{
					"internalType": "uint256",
					"name": "",
					"type": "uint256"
				}
			],
			"stateMutability": "view",
			"type": "function"
		},
		{
			"inputs": [
				{
					"internalType": "bytes4",
					"name": "interfaceId",
					"type": "bytes4"
				}
			],
			"name": "supportsInterface",
			"outputs": [
				{
					"internalType": "bool",
					"name": "",
					"type": "bool"
				}
			],
			"stateMutability": "view",
			"type": "function"
		},
		{
			"inputs": [],
			"name": "symbol",
			"outputs": [
				{
					"internalType": "string",
					"name": "",
					"type": "string"
				}
			],
			"stateMutability": "view",
			"type": "function"
		},
		{
			"inputs": [
				{
					"internalType": "uint256",
					"name": "tokenId",
					"type": "uint256"
				}
			],
			"name": "tbaAddress",
			"outputs": [
				{
					"internalType": "address",
					"name": "",
					"type": "address"
				}
			],
			"stateMutability": "view",
			"type": "function"
		},
		{
			"inputs": [
				{
					"internalType": "uint256",
					"name": "tokenId",
					"type": "uint256"
				}
			],
			"name": "tokenURI",
			"outputs": [
				{
					"internalType": "string",
					"name": "",
					"type": "string"
				}
			],
			"stateMutability": "view",
			"type": "function"
		},
		{
			"inputs": [],
			"name": "totalSupply",
			"outputs": [
				{
					"internalType": "uint256",
					"name": "",
					"type": "uint256"
				}
			],
			"stateMutability": "view",
			"type": "function"
		},
		{
			"inputs": [
				{
					"internalType": "address",
					"name": "from",
					"type": "address"
				},
				{
					"internalType": "address",
					"name": "to",
					"type": "address"
				},
				{
					"internalType": "uint256",
					"name": "tokenId",
					"type": "uint256"
				}
			],
			"name": "transferFrom",
			"outputs": [],
			"stateMutability": "payable",
			"type": "function"
		},
		{
			"inputs": [
				{
					"internalType": "address",
					"name": "to",
					"type": "address"
				}
			],
			"name": "transferOwnership",
			"outputs": [],
			"stateMutability": "nonpayable",
			"type": "function"
		},
		{
			"inputs": [],
			"name": "uriSuffix",
			"outputs": [
				{
					"internalType": "string",
					"name": "",
					"type": "string"
				}
			],
			"stateMutability": "view",
			"type": "function"
		},
		{
			"inputs": [],
			"name": "whiteListCost",
			"outputs": [
				{
					"internalType": "uint256",
					"name": "",
					"type": "uint256"
				}
			],
			"stateMutability": "view",
			"type": "function"
		},
		{
			"inputs": [
				{
					"internalType": "uint256",
					"name": "amount",
					"type": "uint256"
				},
				{
					"internalType": "bytes32[]",
					"name": "proof",
					"type": "bytes32[]"
				}
			],
			"name": "whiteListMint",
			"outputs": [],
			"stateMutability": "payable",
			"type": "function"
		}
	]
}