{
	"data": {
		"bytecode": {
			"linkReferences": {},
			"object": "60a06040525f60809081526006906200001990826200016d565b5034801562000026575f80fd5b5060405162001ac738038062001ac78339810160408190526200004991620002df565b62000054336200007e565b60036200006283826200016d565b5060046200007182826200016d565b5050600180555062000345565b5f80546001600160a01b038381166001600160a01b0319831681178455604051919092169283917f8be0079c531659141344cd1fd0a4f28419497f9722a3daafe3b4186f6b6457e09190a35050565b634e487b7160e01b5f52604160045260245ffd5b600181811c90821680620000f657607f821691505b6020821081036200011557634e487b7160e01b5f52602260045260245ffd5b50919050565b601f82111562000168575f81815260208120601f850160051c81016020861015620001435750805b601f850160051c820191505b8181101562000164578281556001016200014f565b5050505b505050565b81516001600160401b03811115620001895762000189620000cd565b620001a1816200019a8454620000e1565b846200011b565b602080601f831160018114620001d7575f8415620001bf5750858301515b5f19600386901b1c1916600185901b17855562000164565b5f85815260208120601f198616915b828110156200020757888601518255948401946001909101908401620001e6565b50858210156200022557878501515f19600388901b60f8161c191681555b5050505050600190811b01905550565b5f82601f83011262000245575f80fd5b81516001600160401b0380821115620002625762000262620000cd565b604051601f8301601f19908116603f011681019082821181831017156200028d576200028d620000cd565b81604052838152602092508683858801011115620002a9575f80fd5b5f91505b83821015620002cc5785820183015181830184015290820190620002ad565b5f93810190920192909252949350505050565b5f8060408385031215620002f1575f80fd5b82516001600160401b038082111562000308575f80fd5b620003168683870162000235565b935060208501519150808211156200032c575f80fd5b506200033b8582860162000235565b9150509250929050565b61177480620003535f395ff3fe60806040526004361061017b575f3560e01c8063715018a6116100cd578063b88d4fde11610087578063dc76668d11610062578063dc76668d1461043b578063e985e9c51461045a578063f259a29e146104a1578063f2fde38b146104b5575f80fd5b8063b88d4fde146103dd578063bf1e5e9e146103f0578063c87b56dd1461041c575f80fd5b8063715018a61461031a5780638370d0041461032e5780638da5cb5b1461036f57806395d89b411461038b578063a22cb4651461039f578063b6b285d9146103be575f80fd5b806323b872dd116101385780635503a0e8116101135780635503a0e8146102a957806355f804b3146102bd5780636352211e146102dc57806370a08231146102fb575f80fd5b806323b872dd1461026457806340c10f191461027757806342842e0e14610296575f80fd5b806301ffc9a71461017f57806306fdde03146101b3578063081812fc146101d4578063095ea7b31461020b57806316ba10e01461022057806318160ddd1461023f575b5f80fd5b34801561018a575f80fd5b5061019e6101993660046111b8565b6104d4565b60405190151581526020015b60405180910390f35b3480156101be575f80fd5b506101c7610525565b6040516101aa9190611220565b3480156101df575f80fd5b506101f36101ee366004611232565b6105b5565b6040516001600160a01b0390911681526020016101aa565b61021e61021936600461125f565b6105ee565b005b34801561022b575f80fd5b5061021e61023a36600461130e565b6105fe565b34801561024a575f80fd5b50600254600154035f19015b6040519081526020016101aa565b61021e610272366004611353565b610612565b348015610282575f80fd5b5061021e61029136600461125f565b610777565b61021e6102a4366004611353565b6107e9565b3480156102b4575f80fd5b506101c7610808565b3480156102c8575f80fd5b5061021e6102d736600461130e565b610894565b3480156102e7575f80fd5b506101f36102f6366004611232565b6108a8565b348015610306575f80fd5b5061025661031536600461138c565b6108b2565b348015610325575f80fd5b5061021e6108f6565b348015610339575f80fd5b5061019e6103483660046113a5565b6001600160a01b03165f908152600a60209081526040808320938352929052205460ff1690565b34801561037a575f80fd5b505f546001600160a01b03166101f3565b348015610396575f80fd5b506101c7610909565b3480156103aa575f80fd5b5061021e6103b93660046113cf565b610918565b3480156103c9575f80fd5b5061021e6103d836600461138c565b610983565b61021e6103eb366004611408565b6109ae565b3480156103fb575f80fd5b5061040f61040a36600461138c565b6109ef565b6040516101aa919061147f565b348015610427575f80fd5b506101c7610436366004611232565b610a58565b348015610446575f80fd5b5061021e610455366004611232565b610ad3565b348015610465575f80fd5b5061019e6104743660046114c2565b6001600160a01b039182165f908152600e6020908152604080832093909416825291909152205460ff1690565b3480156104ac575f80fd5b506101c7610b3a565b3480156104c0575f80fd5b5061021e6104cf36600461138c565b610b47565b5f6301ffc9a760e01b6001600160e01b03198316148061050457506380ac58cd60e01b6001600160e01b03198316145b8061051f5750635b5e139f60e01b6001600160e01b03198316145b92915050565b606060038054610534906114ea565b80601f0160208091040260200160405190810160405280929190818152602001828054610560906114ea565b80156105ab5780601f10610582576101008083540402835291602001916105ab565b820191905f5260205f20905b81548152906001019060200180831161058e57829003601f168201915b5050505050905090565b5f6105bf82610bbd565b6105d3576105d36333d1c03960e21b610c08565b505f908152600d60205260409020546001600160a01b031690565b6105fa82826001610c10565b5050565b610606610cb1565b60066105fa828261156f565b5f61061c82610d0a565b6001600160a01b0394851694909150811684146106425761064262a1148160e81b610c08565b5f828152600d60205260409020805461066d8187335b6001600160a01b039081169116811491141790565b61068f5761067b8633610474565b61068f5761068f632ce44b5f60e11b610c08565b8015610699575f82555b6001600160a01b038681165f908152600c602052604080822080545f19019055918716808252919020805460010190554260a01b17600160e11b175f858152600b6020526040812091909155600160e11b8416900361072657600184015f818152600b60205260408120549003610724576001548114610724575f818152600b602052604090208490555b505b6001600160a01b0385168481887fddf252ad1be2c89b69c2b068fc378daa952ba7f163c4a11628f55a4df523b3ef5f80a4805f0361076e5761076e633a954ecd60e21b610c08565b50505050505050565b335f9081526009602052604090205460ff1615156001146107df5760405162461bcd60e51b815260206004820152601d60248201527f796f7520617265206e6f7420617070726f7665642020746f206d696e7400000060448201526064015b60405180910390fd5b6105fa8282610da5565b61080383838360405180602001604052805f8152506109ae565b505050565b60068054610815906114ea565b80601f0160208091040260200160405190810160405280929190818152602001828054610841906114ea565b801561088c5780601f106108635761010080835404028352916020019161088c565b820191905f5260205f20905b81548152906001019060200180831161086f57829003601f168201915b505050505081565b61089c610cb1565b60056105fa828261156f565b5f61051f82610d0a565b5f6001600160a01b0382166108d1576108d16323d3ad8160e21b610c08565b506001600160a01b03165f908152600c602052604090205467ffffffffffffffff1690565b6108fe610cb1565b6109075f610dbe565b565b606060048054610534906114ea565b335f818152600e602090815260408083206001600160a01b03871680855290835292819020805460ff191686151590811790915590519081529192917f17307eab39ab6107e8899845ad3d59bd9653f200f220920489ca2b5937696c31910160405180910390a35050565b61098b610cb1565b6001600160a01b03165f908152600960205260409020805460ff19166001179055565b6109b9848484610612565b6001600160a01b0383163b156109e9576109d584848484610e0d565b6109e9576109e96368d2bf6b60e11b610c08565b50505050565b6001600160a01b0381165f90815260076020908152604091829020805483518184028101840190945280845260609392830182828015610a4c57602002820191905f5260205f20905b815481526020019060010190808311610a38575b50505050509050919050565b6060610a6382610bbd565b610a7757610a77630a14c4b560e41b610c08565b5f610a80610eec565b905080515f03610a9e5760405180602001604052805f815250610acc565b80610aa884610efb565b6006604051602001610abc9392919061162b565b6040516020818303038152906040525b9392505050565b33610add826108a8565b6001600160a01b031614610aef575f80fd5b335f818152600a602090815260408083208584528252808320805460ff19166001908117909155938352600782528220805493840181558252902001819055610b3781610f3e565b50565b60058054610815906114ea565b610b4f610cb1565b6001600160a01b038116610bb45760405162461bcd60e51b815260206004820152602660248201527f4f776e61626c653a206e6577206f776e657220697320746865207a65726f206160448201526564647265737360d01b60648201526084016107d6565b610b3781610dbe565b5f81600111610c0357600154821015610c03575f5b505f828152600b602052604081205490819003610bf957610bf2836116c6565b9250610bd2565b600160e01b161590505b919050565b805f5260045ffd5b5f610c1a836108a8565b9050818015610c325750336001600160a01b03821614155b15610c5557610c418133610474565b610c5557610c556367d9dca160e11b610c08565b5f838152600d602052604080822080546001600160a01b0319166001600160a01b0388811691821790925591518693918516917f8c5be1e5ebec7d5bd14f71427d1e84f3dd0314c0f7b2291e5b200ac8c7c3b92591a450505050565b5f546001600160a01b031633146109075760405162461bcd60e51b815260206004820181905260248201527f4f776e61626c653a2063616c6c6572206973206e6f7420746865206f776e657260448201526064016107d6565b5f81600111610d9557505f818152600b602052604081205490819003610d83576001548210610d4357610d43636f96cda160e11b610c08565b5b505f19015f818152600b60205260409020548015610d4457600160e01b81165f03610d6e57919050565b610d7e636f96cda160e11b610c08565b610d44565b600160e01b81165f03610d9557919050565b610c03636f96cda160e11b610c08565b6105fa828260405180602001604052805f815250610f48565b5f80546001600160a01b038381166001600160a01b0319831681178455604051919092169283917f8be0079c531659141344cd1fd0a4f28419497f9722a3daafe3b4186f6b6457e09190a35050565b604051630a85bd0160e11b81525f906001600160a01b0385169063150b7a0290610e419033908990889088906004016116e7565b6020604051808303815f875af1925050508015610e7b575060408051601f3d908101601f19168201909252610e7891810190611723565b60015b610ece573d808015610ea8576040519150601f19603f3d011682016040523d82523d5f602084013e610ead565b606091505b5080515f03610ec657610ec66368d2bf6b60e11b610c08565b805181602001fd5b6001600160e01b031916630a85bd0160e11b1490505b949350505050565b606060058054610534906114ea565b606060a06040510180604052602081039150505f815280825b600183039250600a81066030018353600a900480610f145750819003601f19909101908152919050565b610b37815f610faf565b610f5283836110e8565b6001600160a01b0383163b15610803576001548281035b610f7b5f868380600101945086610e0d565b610f8f57610f8f6368d2bf6b60e11b610c08565b818110610f69578160015414610fa857610fa85f610c08565b5050505050565b5f610fb983610d0a565b9050805f80610fd5865f908152600d6020526040902080549091565b91509150841561100c57610fea818433610658565b61100c57610ff88333610474565b61100c5761100c632ce44b5f60e11b610c08565b8015611016575f82555b6001600160a01b0383165f818152600c6020526040902080546fffffffffffffffffffffffffffffffff0190554260a01b17600360e01b175f878152600b6020526040812091909155600160e11b851690036110a057600186015f818152600b6020526040812054900361109e57600154811461109e575f818152600b602052604090208590555b505b60405186905f906001600160a01b038616907fddf252ad1be2c89b69c2b068fc378daa952ba7f163c4a11628f55a4df523b3ef908390a4505060028054600101905550505050565b6001545f8290036111035761110363b562e8dd60e01b610c08565b5f818152600b602090815260408083206001600160a01b0387164260a01b6001881460e11b178117909155808452600c909252822080546801000000000000000186020190559081900361116057611160622e076360e81b610c08565b818301825b80835f7fddf252ad1be2c89b69c2b068fc378daa952ba7f163c4a11628f55a4df523b3ef5f80a4818160010191508103611165575060015550505050565b6001600160e01b031981168114610b37575f80fd5b5f602082840312156111c8575f80fd5b8135610acc816111a3565b5f5b838110156111ed5781810151838201526020016111d5565b50505f910152565b5f815180845261120c8160208601602086016111d3565b601f01601f19169290920160200192915050565b602081525f610acc60208301846111f5565b5f60208284031215611242575f80fd5b5035919050565b80356001600160a01b0381168114610c03575f80fd5b5f8060408385031215611270575f80fd5b61127983611249565b946020939093013593505050565b634e487b7160e01b5f52604160045260245ffd5b5f67ffffffffffffffff808411156112b5576112b5611287565b604051601f8501601f19908116603f011681019082821181831017156112dd576112dd611287565b816040528093508581528686860111156112f5575f80fd5b858560208301375f602087830101525050509392505050565b5f6020828403121561131e575f80fd5b813567ffffffffffffffff811115611334575f80fd5b8201601f81018413611344575f80fd5b610ee48482356020840161129b565b5f805f60608486031215611365575f80fd5b61136e84611249565b925061137c60208501611249565b9150604084013590509250925092565b5f6020828403121561139c575f80fd5b610acc82611249565b5f80604083850312156113b6575f80fd5b823591506113c660208401611249565b90509250929050565b5f80604083850312156113e0575f80fd5b6113e983611249565b9150602083013580151581146113fd575f80fd5b809150509250929050565b5f805f806080858703121561141b575f80fd5b61142485611249565b935061143260208601611249565b925060408501359150606085013567ffffffffffffffff811115611454575f80fd5b8501601f81018713611464575f80fd5b6114738782356020840161129b565b91505092959194509250565b602080825282518282018190525f9190848201906040850190845b818110156114b65783518352928401929184019160010161149a565b50909695505050505050565b5f80604083850312156114d3575f80fd5b6114dc83611249565b91506113c660208401611249565b600181811c908216806114fe57607f821691505b60208210810361151c57634e487b7160e01b5f52602260045260245ffd5b50919050565b601f821115610803575f81815260208120601f850160051c810160208610156115485750805b601f850160051c820191505b8181101561156757828155600101611554565b505050505050565b815167ffffffffffffffff81111561158957611589611287565b61159d8161159784546114ea565b84611522565b602080601f8311600181146115d0575f84156115b95750858301515b5f19600386901b1c1916600185901b178555611567565b5f85815260208120601f198616915b828110156115fe578886015182559484019460019091019084016115df565b508582101561161b57878501515f19600388901b60f8161c191681555b5050505050600190811b01905550565b5f8451602061163d8285838a016111d3565b8551918401916116508184848a016111d3565b85549201915f90611660816114ea565b60018281168015611678576001811461168d576116b6565b60ff19841687528215158302870194506116b6565b895f52855f205f5b848110156116ae57815489820152908301908701611695565b505082870194505b50929a9950505050505050505050565b5f816116e057634e487b7160e01b5f52601160045260245ffd5b505f190190565b6001600160a01b03858116825284166020820152604081018390526080606082018190525f90611719908301846111f5565b9695505050505050565b5f60208284031215611733575f80fd5b8151610acc816111a356fea264697066735822122052891fb35246dc9f198ffc84bba92d783fc6107cd3de3bb1c19a8d8254113b4264736f6c63430008140033",
			"opcodes": "PUSH1 0xA0 PUSH1 0x40 MSTORE PUSH0 PUSH1 0x80 SWAP1 DUP2 MSTORE PUSH1 0x6 SWAP1 PUSH3 0x19 SWAP1 DUP3 PUSH3 0x16D JUMP JUMPDEST POP CALLVALUE DUP1 ISZERO PUSH3 0x26 JUMPI PUSH0 DUP1 REVERT JUMPDEST POP PUSH1 0x40 MLOAD PUSH3 0x1AC7 CODESIZE SUB DUP1 PUSH3 0x1AC7 DUP4 CODECOPY DUP2 ADD PUSH1 0x40 DUP2 SWAP1 MSTORE PUSH3 0x49 SWAP2 PUSH3 0x2DF JUMP JUMPDEST PUSH3 0x54 CALLER PUSH3 0x7E JUMP JUMPDEST PUSH1 0x3 PUSH3 0x62 DUP4 DUP3 PUSH3 0x16D JUMP JUMPDEST POP PUSH1 0x4 PUSH3 0x71 DUP3 DUP3 PUSH3 0x16D JUMP JUMPDEST POP POP PUSH1 0x1 DUP1 SSTORE POP PUSH3 0x345 JUMP JUMPDEST PUSH0 DUP1 SLOAD PUSH1 0x1 PUSH1 0x1 PUSH1 0xA0 SHL SUB DUP4 DUP2 AND PUSH1 0x1 PUSH1 0x1 PUSH1 0xA0 SHL SUB NOT DUP4 AND DUP2 OR DUP5 SSTORE PUSH1 0x40 MLOAD SWAP2 SWAP1 SWAP3 AND SWAP3 DUP4 SWAP2 PUSH32 0x8BE0079C531659141344CD1FD0A4F28419497F9722A3DAAFE3B4186F6B6457E0 SWAP2 SWAP1 LOG3 POP POP JUMP JUMPDEST PUSH4 0x4E487B71 PUSH1 0xE0 SHL PUSH0 MSTORE PUSH1 0x41 PUSH1 0x4 MSTORE PUSH1 0x24 PUSH0 REVERT JUMPDEST PUSH1 0x1 DUP2 DUP2 SHR SWAP1 DUP3 AND DUP1 PUSH3 0xF6 JUMPI PUSH1 0x7F DUP3 AND SWAP2 POP JUMPDEST PUSH1 0x20 DUP3 LT DUP2 SUB PUSH3 0x115 JUMPI PUSH4 0x4E487B71 PUSH1 0xE0 SHL PUSH0 MSTORE PUSH1 0x22 PUSH1 0x4 MSTORE PUSH1 0x24 PUSH0 REVERT JUMPDEST POP SWAP2 SWAP1 POP JUMP JUMPDEST PUSH1 0x1F DUP3 GT ISZERO PUSH3 0x168 JUMPI PUSH0 DUP2 DUP2 MSTORE PUSH1 0x20 DUP2 KECCAK256 PUSH1 0x1F DUP6 ADD PUSH1 0x5 SHR DUP2 ADD PUSH1 0x20 DUP7 LT ISZERO PUSH3 0x143 JUMPI POP DUP1 JUMPDEST PUSH1 0x1F DUP6 ADD PUSH1 0x5 SHR DUP3 ADD SWAP2 POP JUMPDEST DUP2 DUP2 LT ISZERO PUSH3 0x164 JUMPI DUP3 DUP2 SSTORE PUSH1 0x1 ADD PUSH3 0x14F JUMP JUMPDEST POP POP POP JUMPDEST POP POP POP JUMP JUMPDEST DUP2 MLOAD PUSH1 0x1 PUSH1 0x1 PUSH1 0x40 SHL SUB DUP2 GT ISZERO PUSH3 0x189 JUMPI PUSH3 0x189 PUSH3 0xCD JUMP JUMPDEST PUSH3 0x1A1 DUP2 PUSH3 0x19A DUP5 SLOAD PUSH3 0xE1 JUMP JUMPDEST DUP5 PUSH3 0x11B JUMP JUMPDEST PUSH1 0x20 DUP1 PUSH1 0x1F DUP4 GT PUSH1 0x1 DUP2 EQ PUSH3 0x1D7 JUMPI PUSH0 DUP5 ISZERO PUSH3 0x1BF JUMPI POP DUP6 DUP4 ADD MLOAD JUMPDEST PUSH0 NOT PUSH1 0x3 DUP7 SWAP1 SHL SHR NOT AND PUSH1 0x1 DUP6 SWAP1 SHL OR DUP6 SSTORE PUSH3 0x164 JUMP JUMPDEST PUSH0 DUP6 DUP2 MSTORE PUSH1 0x20 DUP2 KECCAK256 PUSH1 0x1F NOT DUP7 AND SWAP2 JUMPDEST DUP3 DUP2 LT ISZERO PUSH3 0x207 JUMPI DUP9 DUP7 ADD MLOAD DUP3 SSTORE SWAP5 DUP5 ADD SWAP5 PUSH1 0x1 SWAP1 SWAP2 ADD SWAP1 DUP5 ADD PUSH3 0x1E6 JUMP JUMPDEST POP DUP6 DUP3 LT ISZERO PUSH3 0x225 JUMPI DUP8 DUP6 ADD MLOAD PUSH0 NOT PUSH1 0x3 DUP9 SWAP1 SHL PUSH1 0xF8 AND SHR NOT AND DUP2 SSTORE JUMPDEST POP POP POP POP POP PUSH1 0x1 SWAP1 DUP2 SHL ADD SWAP1 SSTORE POP JUMP JUMPDEST PUSH0 DUP3 PUSH1 0x1F DUP4 ADD SLT PUSH3 0x245 JUMPI PUSH0 DUP1 REVERT JUMPDEST DUP2 MLOAD PUSH1 0x1 PUSH1 0x1 PUSH1 0x40 SHL SUB DUP1 DUP3 GT ISZERO PUSH3 0x262 JUMPI PUSH3 0x262 PUSH3 0xCD JUMP JUMPDEST PUSH1 0x40 MLOAD PUSH1 0x1F DUP4 ADD PUSH1 0x1F NOT SWAP1 DUP2 AND PUSH1 0x3F ADD AND DUP2 ADD SWAP1 DUP3 DUP3 GT DUP2 DUP4 LT OR ISZERO PUSH3 0x28D JUMPI PUSH3 0x28D PUSH3 0xCD JUMP JUMPDEST DUP2 PUSH1 0x40 MSTORE DUP4 DUP2 MSTORE PUSH1 0x20 SWAP3 POP DUP7 DUP4 DUP6 DUP9 ADD ADD GT ISZERO PUSH3 0x2A9 JUMPI PUSH0 DUP1 REVERT JUMPDEST PUSH0 SWAP2 POP JUMPDEST DUP4 DUP3 LT ISZERO PUSH3 0x2CC JUMPI DUP6 DUP3 ADD DUP4 ADD MLOAD DUP2 DUP4 ADD DUP5 ADD MSTORE SWAP1 DUP3 ADD SWAP1 PUSH3 0x2AD JUMP JUMPDEST PUSH0 SWAP4 DUP2 ADD SWAP1 SWAP3 ADD SWAP3 SWAP1 SWAP3 MSTORE SWAP5 SWAP4 POP POP POP POP JUMP JUMPDEST PUSH0 DUP1 PUSH1 0x40 DUP4 DUP6 SUB SLT ISZERO PUSH3 0x2F1 JUMPI PUSH0 DUP1 REVERT JUMPDEST DUP3 MLOAD PUSH1 0x1 PUSH1 0x1 PUSH1 0x40 SHL SUB DUP1 DUP3 GT ISZERO PUSH3 0x308 JUMPI PUSH0 DUP1 REVERT JUMPDEST PUSH3 0x316 DUP7 DUP4 DUP8 ADD PUSH3 0x235 JUMP JUMPDEST SWAP4 POP PUSH1 0x20 DUP6 ADD MLOAD SWAP2 POP DUP1 DUP3 GT ISZERO PUSH3 0x32C JUMPI PUSH0 DUP1 REVERT JUMPDEST POP PUSH3 0x33B DUP6 DUP3 DUP7 ADD PUSH3 0x235 JUMP JUMPDEST SWAP2 POP POP SWAP3 POP SWAP3 SWAP1 POP JUMP JUMPDEST PUSH2 0x1774 DUP1 PUSH3 0x353 PUSH0 CODECOPY PUSH0 RETURN INVALID PUSH1 0x80 PUSH1 0x40 MSTORE PUSH1 0x4 CALLDATASIZE LT PUSH2 0x17B JUMPI PUSH0 CALLDATALOAD PUSH1 0xE0 SHR DUP1 PUSH4 0x715018A6 GT PUSH2 0xCD JUMPI DUP1 PUSH4 0xB88D4FDE GT PUSH2 0x87 JUMPI DUP1 PUSH4 0xDC76668D GT PUSH2 0x62 JUMPI DUP1 PUSH4 0xDC76668D EQ PUSH2 0x43B JUMPI DUP1 PUSH4 0xE985E9C5 EQ PUSH2 0x45A JUMPI DUP1 PUSH4 0xF259A29E EQ PUSH2 0x4A1 JUMPI DUP1 PUSH4 0xF2FDE38B EQ PUSH2 0x4B5 JUMPI PUSH0 DUP1 REVERT JUMPDEST DUP1 PUSH4 0xB88D4FDE EQ PUSH2 0x3DD JUMPI DUP1 PUSH4 0xBF1E5E9E EQ PUSH2 0x3F0 JUMPI DUP1 PUSH4 0xC87B56DD EQ PUSH2 0x41C JUMPI PUSH0 DUP1 REVERT JUMPDEST DUP1 PUSH4 0x715018A6 EQ PUSH2 0x31A JUMPI DUP1 PUSH4 0x8370D004 EQ PUSH2 0x32E JUMPI DUP1 PUSH4 0x8DA5CB5B EQ PUSH2 0x36F JUMPI DUP1 PUSH4 0x95D89B41 EQ PUSH2 0x38B JUMPI DUP1 PUSH4 0xA22CB465 EQ PUSH2 0x39F JUMPI DUP1 PUSH4 0xB6B285D9 EQ PUSH2 0x3BE JUMPI PUSH0 DUP1 REVERT JUMPDEST DUP1 PUSH4 0x23B872DD GT PUSH2 0x138 JUMPI DUP1 PUSH4 0x5503A0E8 GT PUSH2 0x113 JUMPI DUP1 PUSH4 0x5503A0E8 EQ PUSH2 0x2A9 JUMPI DUP1 PUSH4 0x55F804B3 EQ PUSH2 0x2BD JUMPI DUP1 PUSH4 0x6352211E EQ PUSH2 0x2DC JUMPI DUP1 PUSH4 0x70A08231 EQ PUSH2 0x2FB JUMPI PUSH0 DUP1 REVERT JUMPDEST DUP1 PUSH4 0x23B872DD EQ PUSH2 0x264 JUMPI DUP1 PUSH4 0x40C10F19 EQ PUSH2 0x277 JUMPI DUP1 PUSH4 0x42842E0E EQ PUSH2 0x296 JUMPI PUSH0 DUP1 REVERT JUMPDEST DUP1 PUSH4 0x1FFC9A7 EQ PUSH2 0x17F JUMPI DUP1 PUSH4 0x6FDDE03 EQ PUSH2 0x1B3 JUMPI DUP1 PUSH4 0x81812FC EQ PUSH2 0x1D4 JUMPI DUP1 PUSH4 0x95EA7B3 EQ PUSH2 0x20B JUMPI DUP1 PUSH4 0x16BA10E0 EQ PUSH2 0x220 JUMPI DUP1 PUSH4 0x18160DDD EQ PUSH2 0x23F JUMPI JUMPDEST PUSH0 DUP1 REVERT JUMPDEST CALLVALUE DUP1 ISZERO PUSH2 0x18A JUMPI PUSH0 DUP1 REVERT JUMPDEST POP PUSH2 0x19E PUSH2 0x199 CALLDATASIZE PUSH1 0x4 PUSH2 0x11B8 JUMP JUMPDEST PUSH2 0x4D4 JUMP JUMPDEST PUSH1 0x40 MLOAD SWAP1 ISZERO ISZERO DUP2 MSTORE PUSH1 0x20 ADD JUMPDEST PUSH1 0x40 MLOAD DUP1 SWAP2 SUB SWAP1 RETURN JUMPDEST CALLVALUE DUP1 ISZERO PUSH2 0x1BE JUMPI PUSH0 DUP1 REVERT JUMPDEST POP PUSH2 0x1C7 PUSH2 0x525 JUMP JUMPDEST PUSH1 0x40 MLOAD PUSH2 0x1AA SWAP2 SWAP1 PUSH2 0x1220 JUMP JUMPDEST CALLVALUE DUP1 ISZERO PUSH2 0x1DF JUMPI PUSH0 DUP1 REVERT JUMPDEST POP PUSH2 0x1F3 PUSH2 0x1EE CALLDATASIZE PUSH1 0x4 PUSH2 0x1232 JUMP JUMPDEST PUSH2 0x5B5 JUMP JUMPDEST PUSH1 0x40 MLOAD PUSH1 0x1 PUSH1 0x1 PUSH1 0xA0 SHL SUB SWAP1 SWAP2 AND DUP2 MSTORE PUSH1 0x20 ADD PUSH2 0x1AA JUMP JUMPDEST PUSH2 0x21E PUSH2 0x219 CALLDATASIZE PUSH1 0x4 PUSH2 0x125F JUMP JUMPDEST PUSH2 0x5EE JUMP JUMPDEST STOP JUMPDEST CALLVALUE DUP1 ISZERO PUSH2 0x22B JUMPI PUSH0 DUP1 REVERT JUMPDEST POP PUSH2 0x21E PUSH2 0x23A CALLDATASIZE PUSH1 0x4 PUSH2 0x130E JUMP JUMPDEST PUSH2 0x5FE JUMP JUMPDEST CALLVALUE DUP1 ISZERO PUSH2 0x24A JUMPI PUSH0 DUP1 REVERT JUMPDEST POP PUSH1 0x2 SLOAD PUSH1 0x1 SLOAD SUB PUSH0 NOT ADD JUMPDEST PUSH1 0x40 MLOAD SWAP1 DUP2 MSTORE PUSH1 0x20 ADD PUSH2 0x1AA JUMP JUMPDEST PUSH2 0x21E PUSH2 0x272 CALLDATASIZE PUSH1 0x4 PUSH2 0x1353 JUMP JUMPDEST PUSH2 0x612 JUMP JUMPDEST CALLVALUE DUP1 ISZERO PUSH2 0x282 JUMPI PUSH0 DUP1 REVERT JUMPDEST POP PUSH2 0x21E PUSH2 0x291 CALLDATASIZE PUSH1 0x4 PUSH2 0x125F JUMP JUMPDEST PUSH2 0x777 JUMP JUMPDEST PUSH2 0x21E PUSH2 0x2A4 CALLDATASIZE PUSH1 0x4 PUSH2 0x1353 JUMP JUMPDEST PUSH2 0x7E9 JUMP JUMPDEST CALLVALUE DUP1 ISZERO PUSH2 0x2B4 JUMPI PUSH0 DUP1 REVERT JUMPDEST POP PUSH2 0x1C7 PUSH2 0x808 JUMP JUMPDEST CALLVALUE DUP1 ISZERO PUSH2 0x2C8 JUMPI PUSH0 DUP1 REVERT JUMPDEST POP PUSH2 0x21E PUSH2 0x2D7 CALLDATASIZE PUSH1 0x4 PUSH2 0x130E JUMP JUMPDEST PUSH2 0x894 JUMP JUMPDEST CALLVALUE DUP1 ISZERO PUSH2 0x2E7 JUMPI PUSH0 DUP1 REVERT JUMPDEST POP PUSH2 0x1F3 PUSH2 0x2F6 CALLDATASIZE PUSH1 0x4 PUSH2 0x1232 JUMP JUMPDEST PUSH2 0x8A8 JUMP JUMPDEST CALLVALUE DUP1 ISZERO PUSH2 0x306 JUMPI PUSH0 DUP1 REVERT JUMPDEST POP PUSH2 0x256 PUSH2 0x315 CALLDATASIZE PUSH1 0x4 PUSH2 0x138C JUMP JUMPDEST PUSH2 0x8B2 JUMP JUMPDEST CALLVALUE DUP1 ISZERO PUSH2 0x325 JUMPI PUSH0 DUP1 REVERT JUMPDEST POP PUSH2 0x21E PUSH2 0x8F6 JUMP JUMPDEST CALLVALUE DUP1 ISZERO PUSH2 0x339 JUMPI PUSH0 DUP1 REVERT JUMPDEST POP PUSH2 0x19E PUSH2 0x348 CALLDATASIZE PUSH1 0x4 PUSH2 0x13A5 JUMP JUMPDEST PUSH1 0x1 PUSH1 0x1 PUSH1 0xA0 SHL SUB AND PUSH0 SWAP1 DUP2 MSTORE PUSH1 0xA PUSH1 0x20 SWAP1 DUP2 MSTORE PUSH1 0x40 DUP1 DUP4 KECCAK256 SWAP4 DUP4 MSTORE SWAP3 SWAP1 MSTORE KECCAK256 SLOAD PUSH1 0xFF AND SWAP1 JUMP JUMPDEST CALLVALUE DUP1 ISZERO PUSH2 0x37A JUMPI PUSH0 DUP1 REVERT JUMPDEST POP PUSH0 SLOAD PUSH1 0x1 PUSH1 0x1 PUSH1 0xA0 SHL SUB AND PUSH2 0x1F3 JUMP JUMPDEST CALLVALUE DUP1 ISZERO PUSH2 0x396 JUMPI PUSH0 DUP1 REVERT JUMPDEST POP PUSH2 0x1C7 PUSH2 0x909 JUMP JUMPDEST CALLVALUE DUP1 ISZERO PUSH2 0x3AA JUMPI PUSH0 DUP1 REVERT JUMPDEST POP PUSH2 0x21E PUSH2 0x3B9 CALLDATASIZE PUSH1 0x4 PUSH2 0x13CF JUMP JUMPDEST PUSH2 0x918 JUMP JUMPDEST CALLVALUE DUP1 ISZERO PUSH2 0x3C9 JUMPI PUSH0 DUP1 REVERT JUMPDEST POP PUSH2 0x21E PUSH2 0x3D8 CALLDATASIZE PUSH1 0x4 PUSH2 0x138C JUMP JUMPDEST PUSH2 0x983 JUMP JUMPDEST PUSH2 0x21E PUSH2 0x3EB CALLDATASIZE PUSH1 0x4 PUSH2 0x1408 JUMP JUMPDEST PUSH2 0x9AE JUMP JUMPDEST CALLVALUE DUP1 ISZERO PUSH2 0x3FB JUMPI PUSH0 DUP1 REVERT JUMPDEST POP PUSH2 0x40F PUSH2 0x40A CALLDATASIZE PUSH1 0x4 PUSH2 0x138C JUMP JUMPDEST PUSH2 0x9EF JUMP JUMPDEST PUSH1 0x40 MLOAD PUSH2 0x1AA SWAP2 SWAP1 PUSH2 0x147F JUMP JUMPDEST CALLVALUE DUP1 ISZERO PUSH2 0x427 JUMPI PUSH0 DUP1 REVERT JUMPDEST POP PUSH2 0x1C7 PUSH2 0x436 CALLDATASIZE PUSH1 0x4 PUSH2 0x1232 JUMP JUMPDEST PUSH2 0xA58 JUMP JUMPDEST CALLVALUE DUP1 ISZERO PUSH2 0x446 JUMPI PUSH0 DUP1 REVERT JUMPDEST POP PUSH2 0x21E PUSH2 0x455 CALLDATASIZE PUSH1 0x4 PUSH2 0x1232 JUMP JUMPDEST PUSH2 0xAD3 JUMP JUMPDEST CALLVALUE DUP1 ISZERO PUSH2 0x465 JUMPI PUSH0 DUP1 REVERT JUMPDEST POP PUSH2 0x19E PUSH2 0x474 CALLDATASIZE PUSH1 0x4 PUSH2 0x14C2 JUMP JUMPDEST PUSH1 0x1 PUSH1 0x1 PUSH1 0xA0 SHL SUB SWAP2 DUP3 AND PUSH0 SWAP1 DUP2 MSTORE PUSH1 0xE PUSH1 0x20 SWAP1 DUP2 MSTORE PUSH1 0x40 DUP1 DUP4 KECCAK256 SWAP4 SWAP1 SWAP5 AND DUP3 MSTORE SWAP2 SWAP1 SWAP2 MSTORE KECCAK256 SLOAD PUSH1 0xFF AND SWAP1 JUMP JUMPDEST CALLVALUE DUP1 ISZERO PUSH2 0x4AC JUMPI PUSH0 DUP1 REVERT JUMPDEST POP PUSH2 0x1C7 PUSH2 0xB3A JUMP JUMPDEST CALLVALUE DUP1 ISZERO PUSH2 0x4C0 JUMPI PUSH0 DUP1 REVERT JUMPDEST POP PUSH2 0x21E PUSH2 0x4CF CALLDATASIZE PUSH1 0x4 PUSH2 0x138C JUMP JUMPDEST PUSH2 0xB47 JUMP JUMPDEST PUSH0 PUSH4 0x1FFC9A7 PUSH1 0xE0 SHL PUSH1 0x1 PUSH1 0x1 PUSH1 0xE0 SHL SUB NOT DUP4 AND EQ DUP1 PUSH2 0x504 JUMPI POP PUSH4 0x80AC58CD PUSH1 0xE0 SHL PUSH1 0x1 PUSH1 0x1 PUSH1 0xE0 SHL SUB NOT DUP4 AND EQ JUMPDEST DUP1 PUSH2 0x51F JUMPI POP PUSH4 0x5B5E139F PUSH1 0xE0 SHL PUSH1 0x1 PUSH1 0x1 PUSH1 0xE0 SHL SUB NOT DUP4 AND EQ JUMPDEST SWAP3 SWAP2 POP POP JUMP JUMPDEST PUSH1 0x60 PUSH1 0x3 DUP1 SLOAD PUSH2 0x534 SWAP1 PUSH2 0x14EA JUMP JUMPDEST DUP1 PUSH1 0x1F ADD PUSH1 0x20 DUP1 SWAP2 DIV MUL PUSH1 0x20 ADD PUSH1 0x40 MLOAD SWAP1 DUP2 ADD PUSH1 0x40 MSTORE DUP1 SWAP3 SWAP2 SWAP1 DUP2 DUP2 MSTORE PUSH1 0x20 ADD DUP3 DUP1 SLOAD PUSH2 0x560 SWAP1 PUSH2 0x14EA JUMP JUMPDEST DUP1 ISZERO PUSH2 0x5AB JUMPI DUP1 PUSH1 0x1F LT PUSH2 0x582 JUMPI PUSH2 0x100 DUP1 DUP4 SLOAD DIV MUL DUP4 MSTORE SWAP2 PUSH1 0x20 ADD SWAP2 PUSH2 0x5AB JUMP JUMPDEST DUP3 ADD SWAP2 SWAP1 PUSH0 MSTORE PUSH1 0x20 PUSH0 KECCAK256 SWAP1 JUMPDEST DUP2 SLOAD DUP2 MSTORE SWAP1 PUSH1 0x1 ADD SWAP1 PUSH1 0x20 ADD DUP1 DUP4 GT PUSH2 0x58E JUMPI DUP3 SWAP1 SUB PUSH1 0x1F AND DUP3 ADD SWAP2 JUMPDEST POP POP POP POP POP SWAP1 POP SWAP1 JUMP JUMPDEST PUSH0 PUSH2 0x5BF DUP3 PUSH2 0xBBD JUMP JUMPDEST PUSH2 0x5D3 JUMPI PUSH2 0x5D3 PUSH4 0x33D1C039 PUSH1 0xE2 SHL PUSH2 0xC08 JUMP JUMPDEST POP PUSH0 SWAP1 DUP2 MSTORE PUSH1 0xD PUSH1 0x20 MSTORE PUSH1 0x40 SWAP1 KECCAK256 SLOAD PUSH1 0x1 PUSH1 0x1 PUSH1 0xA0 SHL SUB AND SWAP1 JUMP JUMPDEST PUSH2 0x5FA DUP3 DUP3 PUSH1 0x1 PUSH2 0xC10 JUMP JUMPDEST POP POP JUMP JUMPDEST PUSH2 0x606 PUSH2 0xCB1 JUMP JUMPDEST PUSH1 0x6 PUSH2 0x5FA DUP3 DUP3 PUSH2 0x156F JUMP JUMPDEST PUSH0 PUSH2 0x61C DUP3 PUSH2 0xD0A JUMP JUMPDEST PUSH1 0x1 PUSH1 0x1 PUSH1 0xA0 SHL SUB SWAP5 DUP6 AND SWAP5 SWAP1 SWAP2 POP DUP2 AND DUP5 EQ PUSH2 0x642 JUMPI PUSH2 0x642 PUSH3 0xA11481 PUSH1 0xE8 SHL PUSH2 0xC08 JUMP JUMPDEST PUSH0 DUP3 DUP2 MSTORE PUSH1 0xD PUSH1 0x20 MSTORE PUSH1 0x40 SWAP1 KECCAK256 DUP1 SLOAD PUSH2 0x66D DUP2 DUP8 CALLER JUMPDEST PUSH1 0x1 PUSH1 0x1 PUSH1 0xA0 SHL SUB SWAP1 DUP2 AND SWAP2 AND DUP2 EQ SWAP2 EQ OR SWAP1 JUMP JUMPDEST PUSH2 0x68F JUMPI PUSH2 0x67B DUP7 CALLER PUSH2 0x474 JUMP JUMPDEST PUSH2 0x68F JUMPI PUSH2 0x68F PUSH4 0x2CE44B5F PUSH1 0xE1 SHL PUSH2 0xC08 JUMP JUMPDEST DUP1 ISZERO PUSH2 0x699 JUMPI PUSH0 DUP3 SSTORE JUMPDEST PUSH1 0x1 PUSH1 0x1 PUSH1 0xA0 SHL SUB DUP7 DUP2 AND PUSH0 SWAP1 DUP2 MSTORE PUSH1 0xC PUSH1 0x20 MSTORE PUSH1 0x40 DUP1 DUP3 KECCAK256 DUP1 SLOAD PUSH0 NOT ADD SWAP1 SSTORE SWAP2 DUP8 AND DUP1 DUP3 MSTORE SWAP2 SWAP1 KECCAK256 DUP1 SLOAD PUSH1 0x1 ADD SWAP1 SSTORE TIMESTAMP PUSH1 0xA0 SHL OR PUSH1 0x1 PUSH1 0xE1 SHL OR PUSH0 DUP6 DUP2 MSTORE PUSH1 0xB PUSH1 0x20 MSTORE PUSH1 0x40 DUP2 KECCAK256 SWAP2 SWAP1 SWAP2 SSTORE PUSH1 0x1 PUSH1 0xE1 SHL DUP5 AND SWAP1 SUB PUSH2 0x726 JUMPI PUSH1 0x1 DUP5 ADD PUSH0 DUP2 DUP2 MSTORE PUSH1 0xB PUSH1 0x20 MSTORE PUSH1 0x40 DUP2 KECCAK256 SLOAD SWAP1 SUB PUSH2 0x724 JUMPI PUSH1 0x1 SLOAD DUP2 EQ PUSH2 0x724 JUMPI PUSH0 DUP2 DUP2 MSTORE PUSH1 0xB PUSH1 0x20 MSTORE PUSH1 0x40 SWAP1 KECCAK256 DUP5 SWAP1 SSTORE JUMPDEST POP JUMPDEST PUSH1 0x1 PUSH1 0x1 PUSH1 0xA0 SHL SUB DUP6 AND DUP5 DUP2 DUP9 PUSH32 0xDDF252AD1BE2C89B69C2B068FC378DAA952BA7F163C4A11628F55A4DF523B3EF PUSH0 DUP1 LOG4 DUP1 PUSH0 SUB PUSH2 0x76E JUMPI PUSH2 0x76E PUSH4 0x3A954ECD PUSH1 0xE2 SHL PUSH2 0xC08 JUMP JUMPDEST POP POP POP POP POP POP POP JUMP JUMPDEST CALLER PUSH0 SWAP1 DUP2 MSTORE PUSH1 0x9 PUSH1 0x20 MSTORE PUSH1 0x40 SWAP1 KECCAK256 SLOAD PUSH1 0xFF AND ISZERO ISZERO PUSH1 0x1 EQ PUSH2 0x7DF JUMPI PUSH1 0x40 MLOAD PUSH3 0x461BCD PUSH1 0xE5 SHL DUP2 MSTORE PUSH1 0x20 PUSH1 0x4 DUP3 ADD MSTORE PUSH1 0x1D PUSH1 0x24 DUP3 ADD MSTORE PUSH32 0x796F7520617265206E6F7420617070726F7665642020746F206D696E74000000 PUSH1 0x44 DUP3 ADD MSTORE PUSH1 0x64 ADD JUMPDEST PUSH1 0x40 MLOAD DUP1 SWAP2 SUB SWAP1 REVERT JUMPDEST PUSH2 0x5FA DUP3 DUP3 PUSH2 0xDA5 JUMP JUMPDEST PUSH2 0x803 DUP4 DUP4 DUP4 PUSH1 0x40 MLOAD DUP1 PUSH1 0x20 ADD PUSH1 0x40 MSTORE DUP1 PUSH0 DUP2 MSTORE POP PUSH2 0x9AE JUMP JUMPDEST POP POP POP JUMP JUMPDEST PUSH1 0x6 DUP1 SLOAD PUSH2 0x815 SWAP1 PUSH2 0x14EA JUMP JUMPDEST DUP1 PUSH1 0x1F ADD PUSH1 0x20 DUP1 SWAP2 DIV MUL PUSH1 0x20 ADD PUSH1 0x40 MLOAD SWAP1 DUP2 ADD PUSH1 0x40 MSTORE DUP1 SWAP3 SWAP2 SWAP1 DUP2 DUP2 MSTORE PUSH1 0x20 ADD DUP3 DUP1 SLOAD PUSH2 0x841 SWAP1 PUSH2 0x14EA JUMP JUMPDEST DUP1 ISZERO PUSH2 0x88C JUMPI DUP1 PUSH1 0x1F LT PUSH2 0x863 JUMPI PUSH2 0x100 DUP1 DUP4 SLOAD DIV MUL DUP4 MSTORE SWAP2 PUSH1 0x20 ADD SWAP2 PUSH2 0x88C JUMP JUMPDEST DUP3 ADD SWAP2 SWAP1 PUSH0 MSTORE PUSH1 0x20 PUSH0 KECCAK256 SWAP1 JUMPDEST DUP2 SLOAD DUP2 MSTORE SWAP1 PUSH1 0x1 ADD SWAP1 PUSH1 0x20 ADD DUP1 DUP4 GT PUSH2 0x86F JUMPI DUP3 SWAP1 SUB PUSH1 0x1F AND DUP3 ADD SWAP2 JUMPDEST POP POP POP POP POP DUP2 JUMP JUMPDEST PUSH2 0x89C PUSH2 0xCB1 JUMP JUMPDEST PUSH1 0x5 PUSH2 0x5FA DUP3 DUP3 PUSH2 0x156F JUMP JUMPDEST PUSH0 PUSH2 0x51F DUP3 PUSH2 0xD0A JUMP JUMPDEST PUSH0 PUSH1 0x1 PUSH1 0x1 PUSH1 0xA0 SHL SUB DUP3 AND PUSH2 0x8D1 JUMPI PUSH2 0x8D1 PUSH4 0x23D3AD81 PUSH1 0xE2 SHL PUSH2 0xC08 JUMP JUMPDEST POP PUSH1 0x1 PUSH1 0x1 PUSH1 0xA0 SHL SUB AND PUSH0 SWAP1 DUP2 MSTORE PUSH1 0xC PUSH1 0x20 MSTORE PUSH1 0x40 SWAP1 KECCAK256 SLOAD PUSH8 0xFFFFFFFFFFFFFFFF AND SWAP1 JUMP JUMPDEST PUSH2 0x8FE PUSH2 0xCB1 JUMP JUMPDEST PUSH2 0x907 PUSH0 PUSH2 0xDBE JUMP JUMPDEST JUMP JUMPDEST PUSH1 0x60 PUSH1 0x4 DUP1 SLOAD PUSH2 0x534 SWAP1 PUSH2 0x14EA JUMP JUMPDEST CALLER PUSH0 DUP2 DUP2 MSTORE PUSH1 0xE PUSH1 0x20 SWAP1 DUP2 MSTORE PUSH1 0x40 DUP1 DUP4 KECCAK256 PUSH1 0x1 PUSH1 0x1 PUSH1 0xA0 SHL SUB DUP8 AND DUP1 DUP6 MSTORE SWAP1 DUP4 MSTORE SWAP3 DUP2 SWAP1 KECCAK256 DUP1 SLOAD PUSH1 0xFF NOT AND DUP7 ISZERO ISZERO SWAP1 DUP2 OR SWAP1 SWAP2 SSTORE SWAP1 MLOAD SWAP1 DUP2 MSTORE SWAP2 SWAP3 SWAP2 PUSH32 0x17307EAB39AB6107E8899845AD3D59BD9653F200F220920489CA2B5937696C31 SWAP2 ADD PUSH1 0x40 MLOAD DUP1 SWAP2 SUB SWAP1 LOG3 POP POP JUMP JUMPDEST PUSH2 0x98B PUSH2 0xCB1 JUMP JUMPDEST PUSH1 0x1 PUSH1 0x1 PUSH1 0xA0 SHL SUB AND PUSH0 SWAP1 DUP2 MSTORE PUSH1 0x9 PUSH1 0x20 MSTORE PUSH1 0x40 SWAP1 KECCAK256 DUP1 SLOAD PUSH1 0xFF NOT AND PUSH1 0x1 OR SWAP1 SSTORE JUMP JUMPDEST PUSH2 0x9B9 DUP5 DUP5 DUP5 PUSH2 0x612 JUMP JUMPDEST PUSH1 0x1 PUSH1 0x1 PUSH1 0xA0 SHL SUB DUP4 AND EXTCODESIZE ISZERO PUSH2 0x9E9 JUMPI PUSH2 0x9D5 DUP5 DUP5 DUP5 DUP5 PUSH2 0xE0D JUMP JUMPDEST PUSH2 0x9E9 JUMPI PUSH2 0x9E9 PUSH4 0x68D2BF6B PUSH1 0xE1 SHL PUSH2 0xC08 JUMP JUMPDEST POP POP POP POP JUMP JUMPDEST PUSH1 0x1 PUSH1 0x1 PUSH1 0xA0 SHL SUB DUP2 AND PUSH0 SWAP1 DUP2 MSTORE PUSH1 0x7 PUSH1 0x20 SWAP1 DUP2 MSTORE PUSH1 0x40 SWAP2 DUP3 SWAP1 KECCAK256 DUP1 SLOAD DUP4 MLOAD DUP2 DUP5 MUL DUP2 ADD DUP5 ADD SWAP1 SWAP5 MSTORE DUP1 DUP5 MSTORE PUSH1 0x60 SWAP4 SWAP3 DUP4 ADD DUP3 DUP3 DUP1 ISZERO PUSH2 0xA4C JUMPI PUSH1 0x20 MUL DUP3 ADD SWAP2 SWAP1 PUSH0 MSTORE PUSH1 0x20 PUSH0 KECCAK256 SWAP1 JUMPDEST DUP2 SLOAD DUP2 MSTORE PUSH1 0x20 ADD SWAP1 PUSH1 0x1 ADD SWAP1 DUP1 DUP4 GT PUSH2 0xA38 JUMPI JUMPDEST POP POP POP POP POP SWAP1 POP SWAP2 SWAP1 POP JUMP JUMPDEST PUSH1 0x60 PUSH2 0xA63 DUP3 PUSH2 0xBBD JUMP JUMPDEST PUSH2 0xA77 JUMPI PUSH2 0xA77 PUSH4 0xA14C4B5 PUSH1 0xE4 SHL PUSH2 0xC08 JUMP JUMPDEST PUSH0 PUSH2 0xA80 PUSH2 0xEEC JUMP JUMPDEST SWAP1 POP DUP1 MLOAD PUSH0 SUB PUSH2 0xA9E JUMPI PUSH1 0x40 MLOAD DUP1 PUSH1 0x20 ADD PUSH1 0x40 MSTORE DUP1 PUSH0 DUP2 MSTORE POP PUSH2 0xACC JUMP JUMPDEST DUP1 PUSH2 0xAA8 DUP5 PUSH2 0xEFB JUMP JUMPDEST PUSH1 0x6 PUSH1 0x40 MLOAD PUSH1 0x20 ADD PUSH2 0xABC SWAP4 SWAP3 SWAP2 SWAP1 PUSH2 0x162B JUMP JUMPDEST PUSH1 0x40 MLOAD PUSH1 0x20 DUP2 DUP4 SUB SUB DUP2 MSTORE SWAP1 PUSH1 0x40 MSTORE JUMPDEST SWAP4 SWAP3 POP POP POP JUMP JUMPDEST CALLER PUSH2 0xADD DUP3 PUSH2 0x8A8 JUMP JUMPDEST PUSH1 0x1 PUSH1 0x1 PUSH1 0xA0 SHL SUB AND EQ PUSH2 0xAEF JUMPI PUSH0 DUP1 REVERT JUMPDEST CALLER PUSH0 DUP2 DUP2 MSTORE PUSH1 0xA PUSH1 0x20 SWAP1 DUP2 MSTORE PUSH1 0x40 DUP1 DUP4 KECCAK256 DUP6 DUP5 MSTORE DUP3 MSTORE DUP1 DUP4 KECCAK256 DUP1 SLOAD PUSH1 0xFF NOT AND PUSH1 0x1 SWAP1 DUP2 OR SWAP1 SWAP2 SSTORE SWAP4 DUP4 MSTORE PUSH1 0x7 DUP3 MSTORE DUP3 KECCAK256 DUP1 SLOAD SWAP4 DUP5 ADD DUP2 SSTORE DUP3 MSTORE SWAP1 KECCAK256 ADD DUP2 SWAP1 SSTORE PUSH2 0xB37 DUP2 PUSH2 0xF3E JUMP JUMPDEST POP JUMP JUMPDEST PUSH1 0x5 DUP1 SLOAD PUSH2 0x815 SWAP1 PUSH2 0x14EA JUMP JUMPDEST PUSH2 0xB4F PUSH2 0xCB1 JUMP JUMPDEST PUSH1 0x1 PUSH1 0x1 PUSH1 0xA0 SHL SUB DUP2 AND PUSH2 0xBB4 JUMPI PUSH1 0x40 MLOAD PUSH3 0x461BCD PUSH1 0xE5 SHL DUP2 MSTORE PUSH1 0x20 PUSH1 0x4 DUP3 ADD MSTORE PUSH1 0x26 PUSH1 0x24 DUP3 ADD MSTORE PUSH32 0x4F776E61626C653A206E6577206F776E657220697320746865207A65726F2061 PUSH1 0x44 DUP3 ADD MSTORE PUSH6 0x646472657373 PUSH1 0xD0 SHL PUSH1 0x64 DUP3 ADD MSTORE PUSH1 0x84 ADD PUSH2 0x7D6 JUMP JUMPDEST PUSH2 0xB37 DUP2 PUSH2 0xDBE JUMP JUMPDEST PUSH0 DUP2 PUSH1 0x1 GT PUSH2 0xC03 JUMPI PUSH1 0x1 SLOAD DUP3 LT ISZERO PUSH2 0xC03 JUMPI PUSH0 JUMPDEST POP PUSH0 DUP3 DUP2 MSTORE PUSH1 0xB PUSH1 0x20 MSTORE PUSH1 0x40 DUP2 KECCAK256 SLOAD SWAP1 DUP2 SWAP1 SUB PUSH2 0xBF9 JUMPI PUSH2 0xBF2 DUP4 PUSH2 0x16C6 JUMP JUMPDEST SWAP3 POP PUSH2 0xBD2 JUMP JUMPDEST PUSH1 0x1 PUSH1 0xE0 SHL AND ISZERO SWAP1 POP JUMPDEST SWAP2 SWAP1 POP JUMP JUMPDEST DUP1 PUSH0 MSTORE PUSH1 0x4 PUSH0 REVERT JUMPDEST PUSH0 PUSH2 0xC1A DUP4 PUSH2 0x8A8 JUMP JUMPDEST SWAP1 POP DUP2 DUP1 ISZERO PUSH2 0xC32 JUMPI POP CALLER PUSH1 0x1 PUSH1 0x1 PUSH1 0xA0 SHL SUB DUP3 AND EQ ISZERO JUMPDEST ISZERO PUSH2 0xC55 JUMPI PUSH2 0xC41 DUP2 CALLER PUSH2 0x474 JUMP JUMPDEST PUSH2 0xC55 JUMPI PUSH2 0xC55 PUSH4 0x67D9DCA1 PUSH1 0xE1 SHL PUSH2 0xC08 JUMP JUMPDEST PUSH0 DUP4 DUP2 MSTORE PUSH1 0xD PUSH1 0x20 MSTORE PUSH1 0x40 DUP1 DUP3 KECCAK256 DUP1 SLOAD PUSH1 0x1 PUSH1 0x1 PUSH1 0xA0 SHL SUB NOT AND PUSH1 0x1 PUSH1 0x1 PUSH1 0xA0 SHL SUB DUP9 DUP2 AND SWAP2 DUP3 OR SWAP1 SWAP3 SSTORE SWAP2 MLOAD DUP7 SWAP4 SWAP2 DUP6 AND SWAP2 PUSH32 0x8C5BE1E5EBEC7D5BD14F71427D1E84F3DD0314C0F7B2291E5B200AC8C7C3B925 SWAP2 LOG4 POP POP POP POP JUMP JUMPDEST PUSH0 SLOAD PUSH1 0x1 PUSH1 0x1 PUSH1 0xA0 SHL SUB AND CALLER EQ PUSH2 0x907 JUMPI PUSH1 0x40 MLOAD PUSH3 0x461BCD PUSH1 0xE5 SHL DUP2 MSTORE PUSH1 0x20 PUSH1 0x4 DUP3 ADD DUP2 SWAP1 MSTORE PUSH1 0x24 DUP3 ADD MSTORE PUSH32 0x4F776E61626C653A2063616C6C6572206973206E6F7420746865206F776E6572 PUSH1 0x44 DUP3 ADD MSTORE PUSH1 0x64 ADD PUSH2 0x7D6 JUMP JUMPDEST PUSH0 DUP2 PUSH1 0x1 GT PUSH2 0xD95 JUMPI POP PUSH0 DUP2 DUP2 MSTORE PUSH1 0xB PUSH1 0x20 MSTORE PUSH1 0x40 DUP2 KECCAK256 SLOAD SWAP1 DUP2 SWAP1 SUB PUSH2 0xD83 JUMPI PUSH1 0x1 SLOAD DUP3 LT PUSH2 0xD43 JUMPI PUSH2 0xD43 PUSH4 0x6F96CDA1 PUSH1 0xE1 SHL PUSH2 0xC08 JUMP JUMPDEST JUMPDEST POP PUSH0 NOT ADD PUSH0 DUP2 DUP2 MSTORE PUSH1 0xB PUSH1 0x20 MSTORE PUSH1 0x40 SWAP1 KECCAK256 SLOAD DUP1 ISZERO PUSH2 0xD44 JUMPI PUSH1 0x1 PUSH1 0xE0 SHL DUP2 AND PUSH0 SUB PUSH2 0xD6E JUMPI SWAP2 SWAP1 POP JUMP JUMPDEST PUSH2 0xD7E PUSH4 0x6F96CDA1 PUSH1 0xE1 SHL PUSH2 0xC08 JUMP JUMPDEST PUSH2 0xD44 JUMP JUMPDEST PUSH1 0x1 PUSH1 0xE0 SHL DUP2 AND PUSH0 SUB PUSH2 0xD95 JUMPI SWAP2 SWAP1 POP JUMP JUMPDEST PUSH2 0xC03 PUSH4 0x6F96CDA1 PUSH1 0xE1 SHL PUSH2 0xC08 JUMP JUMPDEST PUSH2 0x5FA DUP3 DUP3 PUSH1 0x40 MLOAD DUP1 PUSH1 0x20 ADD PUSH1 0x40 MSTORE DUP1 PUSH0 DUP2 MSTORE POP PUSH2 0xF48 JUMP JUMPDEST PUSH0 DUP1 SLOAD PUSH1 0x1 PUSH1 0x1 PUSH1 0xA0 SHL SUB DUP4 DUP2 AND PUSH1 0x1 PUSH1 0x1 PUSH1 0xA0 SHL SUB NOT DUP4 AND DUP2 OR DUP5 SSTORE PUSH1 0x40 MLOAD SWAP2 SWAP1 SWAP3 AND SWAP3 DUP4 SWAP2 PUSH32 0x8BE0079C531659141344CD1FD0A4F28419497F9722A3DAAFE3B4186F6B6457E0 SWAP2 SWAP1 LOG3 POP POP JUMP JUMPDEST PUSH1 0x40 MLOAD PUSH4 0xA85BD01 PUSH1 0xE1 SHL DUP2 MSTORE PUSH0 SWAP1 PUSH1 0x1 PUSH1 0x1 PUSH1 0xA0 SHL SUB DUP6 AND SWAP1 PUSH4 0x150B7A02 SWAP1 PUSH2 0xE41 SWAP1 CALLER SWAP1 DUP10 SWAP1 DUP9 SWAP1 DUP9 SWAP1 PUSH1 0x4 ADD PUSH2 0x16E7 JUMP JUMPDEST PUSH1 0x20 PUSH1 0x40 MLOAD DUP1 DUP4 SUB DUP2 PUSH0 DUP8 GAS CALL SWAP3 POP POP POP DUP1 ISZERO PUSH2 0xE7B JUMPI POP PUSH1 0x40 DUP1 MLOAD PUSH1 0x1F RETURNDATASIZE SWAP1 DUP2 ADD PUSH1 0x1F NOT AND DUP3 ADD SWAP1 SWAP3 MSTORE PUSH2 0xE78 SWAP2 DUP2 ADD SWAP1 PUSH2 0x1723 JUMP JUMPDEST PUSH1 0x1 JUMPDEST PUSH2 0xECE JUMPI RETURNDATASIZE DUP1 DUP1 ISZERO PUSH2 0xEA8 JUMPI PUSH1 0x40 MLOAD SWAP2 POP PUSH1 0x1F NOT PUSH1 0x3F RETURNDATASIZE ADD AND DUP3 ADD PUSH1 0x40 MSTORE RETURNDATASIZE DUP3 MSTORE RETURNDATASIZE PUSH0 PUSH1 0x20 DUP5 ADD RETURNDATACOPY PUSH2 0xEAD JUMP JUMPDEST PUSH1 0x60 SWAP2 POP JUMPDEST POP DUP1 MLOAD PUSH0 SUB PUSH2 0xEC6 JUMPI PUSH2 0xEC6 PUSH4 0x68D2BF6B PUSH1 0xE1 SHL PUSH2 0xC08 JUMP JUMPDEST DUP1 MLOAD DUP2 PUSH1 0x20 ADD REVERT JUMPDEST PUSH1 0x1 PUSH1 0x1 PUSH1 0xE0 SHL SUB NOT AND PUSH4 0xA85BD01 PUSH1 0xE1 SHL EQ SWAP1 POP JUMPDEST SWAP5 SWAP4 POP POP POP POP JUMP JUMPDEST PUSH1 0x60 PUSH1 0x5 DUP1 SLOAD PUSH2 0x534 SWAP1 PUSH2 0x14EA JUMP JUMPDEST PUSH1 0x60 PUSH1 0xA0 PUSH1 0x40 MLOAD ADD DUP1 PUSH1 0x40 MSTORE PUSH1 0x20 DUP2 SUB SWAP2 POP POP PUSH0 DUP2 MSTORE DUP1 DUP3 JUMPDEST PUSH1 0x1 DUP4 SUB SWAP3 POP PUSH1 0xA DUP2 MOD PUSH1 0x30 ADD DUP4 MSTORE8 PUSH1 0xA SWAP1 DIV DUP1 PUSH2 0xF14 JUMPI POP DUP2 SWAP1 SUB PUSH1 0x1F NOT SWAP1 SWAP2 ADD SWAP1 DUP2 MSTORE SWAP2 SWAP1 POP JUMP JUMPDEST PUSH2 0xB37 DUP2 PUSH0 PUSH2 0xFAF JUMP JUMPDEST PUSH2 0xF52 DUP4 DUP4 PUSH2 0x10E8 JUMP JUMPDEST PUSH1 0x1 PUSH1 0x1 PUSH1 0xA0 SHL SUB DUP4 AND EXTCODESIZE ISZERO PUSH2 0x803 JUMPI PUSH1 0x1 SLOAD DUP3 DUP2 SUB JUMPDEST PUSH2 0xF7B PUSH0 DUP7 DUP4 DUP1 PUSH1 0x1 ADD SWAP5 POP DUP7 PUSH2 0xE0D JUMP JUMPDEST PUSH2 0xF8F JUMPI PUSH2 0xF8F PUSH4 0x68D2BF6B PUSH1 0xE1 SHL PUSH2 0xC08 JUMP JUMPDEST DUP2 DUP2 LT PUSH2 0xF69 JUMPI DUP2 PUSH1 0x1 SLOAD EQ PUSH2 0xFA8 JUMPI PUSH2 0xFA8 PUSH0 PUSH2 0xC08 JUMP JUMPDEST POP POP POP POP POP JUMP JUMPDEST PUSH0 PUSH2 0xFB9 DUP4 PUSH2 0xD0A JUMP JUMPDEST SWAP1 POP DUP1 PUSH0 DUP1 PUSH2 0xFD5 DUP7 PUSH0 SWAP1 DUP2 MSTORE PUSH1 0xD PUSH1 0x20 MSTORE PUSH1 0x40 SWAP1 KECCAK256 DUP1 SLOAD SWAP1 SWAP2 JUMP JUMPDEST SWAP2 POP SWAP2 POP DUP5 ISZERO PUSH2 0x100C JUMPI PUSH2 0xFEA DUP2 DUP5 CALLER PUSH2 0x658 JUMP JUMPDEST PUSH2 0x100C JUMPI PUSH2 0xFF8 DUP4 CALLER PUSH2 0x474 JUMP JUMPDEST PUSH2 0x100C JUMPI PUSH2 0x100C PUSH4 0x2CE44B5F PUSH1 0xE1 SHL PUSH2 0xC08 JUMP JUMPDEST DUP1 ISZERO PUSH2 0x1016 JUMPI PUSH0 DUP3 SSTORE JUMPDEST PUSH1 0x1 PUSH1 0x1 PUSH1 0xA0 SHL SUB DUP4 AND PUSH0 DUP2 DUP2 MSTORE PUSH1 0xC PUSH1 0x20 MSTORE PUSH1 0x40 SWAP1 KECCAK256 DUP1 SLOAD PUSH16 0xFFFFFFFFFFFFFFFFFFFFFFFFFFFFFFFF ADD SWAP1 SSTORE TIMESTAMP PUSH1 0xA0 SHL OR PUSH1 0x3 PUSH1 0xE0 SHL OR PUSH0 DUP8 DUP2 MSTORE PUSH1 0xB PUSH1 0x20 MSTORE PUSH1 0x40 DUP2 KECCAK256 SWAP2 SWAP1 SWAP2 SSTORE PUSH1 0x1 PUSH1 0xE1 SHL DUP6 AND SWAP1 SUB PUSH2 0x10A0 JUMPI PUSH1 0x1 DUP7 ADD PUSH0 DUP2 DUP2 MSTORE PUSH1 0xB PUSH1 0x20 MSTORE PUSH1 0x40 DUP2 KECCAK256 SLOAD SWAP1 SUB PUSH2 0x109E JUMPI PUSH1 0x1 SLOAD DUP2 EQ PUSH2 0x109E JUMPI PUSH0 DUP2 DUP2 MSTORE PUSH1 0xB PUSH1 0x20 MSTORE PUSH1 0x40 SWAP1 KECCAK256 DUP6 SWAP1 SSTORE JUMPDEST POP JUMPDEST PUSH1 0x40 MLOAD DUP7 SWAP1 PUSH0 SWAP1 PUSH1 0x1 PUSH1 0x1 PUSH1 0xA0 SHL SUB DUP7 AND SWAP1 PUSH32 0xDDF252AD1BE2C89B69C2B068FC378DAA952BA7F163C4A11628F55A4DF523B3EF SWAP1 DUP4 SWAP1 LOG4 POP POP PUSH1 0x2 DUP1 SLOAD PUSH1 0x1 ADD SWAP1 SSTORE POP POP POP POP JUMP JUMPDEST PUSH1 0x1 SLOAD PUSH0 DUP3 SWAP1 SUB PUSH2 0x1103 JUMPI PUSH2 0x1103 PUSH4 0xB562E8DD PUSH1 0xE0 SHL PUSH2 0xC08 JUMP JUMPDEST PUSH0 DUP2 DUP2 MSTORE PUSH1 0xB PUSH1 0x20 SWAP1 DUP2 MSTORE PUSH1 0x40 DUP1 DUP4 KECCAK256 PUSH1 0x1 PUSH1 0x1 PUSH1 0xA0 SHL SUB DUP8 AND TIMESTAMP PUSH1 0xA0 SHL PUSH1 0x1 DUP9 EQ PUSH1 0xE1 SHL OR DUP2 OR SWAP1 SWAP2 SSTORE DUP1 DUP5 MSTORE PUSH1 0xC SWAP1 SWAP3 MSTORE DUP3 KECCAK256 DUP1 SLOAD PUSH9 0x10000000000000001 DUP7 MUL ADD SWAP1 SSTORE SWAP1 DUP2 SWAP1 SUB PUSH2 0x1160 JUMPI PUSH2 0x1160 PUSH3 0x2E0763 PUSH1 0xE8 SHL PUSH2 0xC08 JUMP JUMPDEST DUP2 DUP4 ADD DUP3 JUMPDEST DUP1 DUP4 PUSH0 PUSH32 0xDDF252AD1BE2C89B69C2B068FC378DAA952BA7F163C4A11628F55A4DF523B3EF PUSH0 DUP1 LOG4 DUP2 DUP2 PUSH1 0x1 ADD SWAP2 POP DUP2 SUB PUSH2 0x1165 JUMPI POP PUSH1 0x1 SSTORE POP POP POP POP JUMP JUMPDEST PUSH1 0x1 PUSH1 0x1 PUSH1 0xE0 SHL SUB NOT DUP2 AND DUP2 EQ PUSH2 0xB37 JUMPI PUSH0 DUP1 REVERT JUMPDEST PUSH0 PUSH1 0x20 DUP3 DUP5 SUB SLT ISZERO PUSH2 0x11C8 JUMPI PUSH0 DUP1 REVERT JUMPDEST DUP2 CALLDATALOAD PUSH2 0xACC DUP2 PUSH2 0x11A3 JUMP JUMPDEST PUSH0 JUMPDEST DUP4 DUP2 LT ISZERO PUSH2 0x11ED JUMPI DUP2 DUP2 ADD MLOAD DUP4 DUP3 ADD MSTORE PUSH1 0x20 ADD PUSH2 0x11D5 JUMP JUMPDEST POP POP PUSH0 SWAP2 ADD MSTORE JUMP JUMPDEST PUSH0 DUP2 MLOAD DUP1 DUP5 MSTORE PUSH2 0x120C DUP2 PUSH1 0x20 DUP7 ADD PUSH1 0x20 DUP7 ADD PUSH2 0x11D3 JUMP JUMPDEST PUSH1 0x1F ADD PUSH1 0x1F NOT AND SWAP3 SWAP1 SWAP3 ADD PUSH1 0x20 ADD SWAP3 SWAP2 POP POP JUMP JUMPDEST PUSH1 0x20 DUP2 MSTORE PUSH0 PUSH2 0xACC PUSH1 0x20 DUP4 ADD DUP5 PUSH2 0x11F5 JUMP JUMPDEST PUSH0 PUSH1 0x20 DUP3 DUP5 SUB SLT ISZERO PUSH2 0x1242 JUMPI PUSH0 DUP1 REVERT JUMPDEST POP CALLDATALOAD SWAP2 SWAP1 POP JUMP JUMPDEST DUP1 CALLDATALOAD PUSH1 0x1 PUSH1 0x1 PUSH1 0xA0 SHL SUB DUP2 AND DUP2 EQ PUSH2 0xC03 JUMPI PUSH0 DUP1 REVERT JUMPDEST PUSH0 DUP1 PUSH1 0x40 DUP4 DUP6 SUB SLT ISZERO PUSH2 0x1270 JUMPI PUSH0 DUP1 REVERT JUMPDEST PUSH2 0x1279 DUP4 PUSH2 0x1249 JUMP JUMPDEST SWAP5 PUSH1 0x20 SWAP4 SWAP1 SWAP4 ADD CALLDATALOAD SWAP4 POP POP POP JUMP JUMPDEST PUSH4 0x4E487B71 PUSH1 0xE0 SHL PUSH0 MSTORE PUSH1 0x41 PUSH1 0x4 MSTORE PUSH1 0x24 PUSH0 REVERT JUMPDEST PUSH0 PUSH8 0xFFFFFFFFFFFFFFFF DUP1 DUP5 GT ISZERO PUSH2 0x12B5 JUMPI PUSH2 0x12B5 PUSH2 0x1287 JUMP JUMPDEST PUSH1 0x40 MLOAD PUSH1 0x1F DUP6 ADD PUSH1 0x1F NOT SWAP1 DUP2 AND PUSH1 0x3F ADD AND DUP2 ADD SWAP1 DUP3 DUP3 GT DUP2 DUP4 LT OR ISZERO PUSH2 0x12DD JUMPI PUSH2 0x12DD PUSH2 0x1287 JUMP JUMPDEST DUP2 PUSH1 0x40 MSTORE DUP1 SWAP4 POP DUP6 DUP2 MSTORE DUP7 DUP7 DUP7 ADD GT ISZERO PUSH2 0x12F5 JUMPI PUSH0 DUP1 REVERT JUMPDEST DUP6 DUP6 PUSH1 0x20 DUP4 ADD CALLDATACOPY PUSH0 PUSH1 0x20 DUP8 DUP4 ADD ADD MSTORE POP POP POP SWAP4 SWAP3 POP POP POP JUMP JUMPDEST PUSH0 PUSH1 0x20 DUP3 DUP5 SUB SLT ISZERO PUSH2 0x131E JUMPI PUSH0 DUP1 REVERT JUMPDEST DUP2 CALLDATALOAD PUSH8 0xFFFFFFFFFFFFFFFF DUP2 GT ISZERO PUSH2 0x1334 JUMPI PUSH0 DUP1 REVERT JUMPDEST DUP3 ADD PUSH1 0x1F DUP2 ADD DUP5 SGT PUSH2 0x1344 JUMPI PUSH0 DUP1 REVERT JUMPDEST PUSH2 0xEE4 DUP5 DUP3 CALLDATALOAD PUSH1 0x20 DUP5 ADD PUSH2 0x129B JUMP JUMPDEST PUSH0 DUP1 PUSH0 PUSH1 0x60 DUP5 DUP7 SUB SLT ISZERO PUSH2 0x1365 JUMPI PUSH0 DUP1 REVERT JUMPDEST PUSH2 0x136E DUP5 PUSH2 0x1249 JUMP JUMPDEST SWAP3 POP PUSH2 0x137C PUSH1 0x20 DUP6 ADD PUSH2 0x1249 JUMP JUMPDEST SWAP2 POP PUSH1 0x40 DUP5 ADD CALLDATALOAD SWAP1 POP SWAP3 POP SWAP3 POP SWAP3 JUMP JUMPDEST PUSH0 PUSH1 0x20 DUP3 DUP5 SUB SLT ISZERO PUSH2 0x139C JUMPI PUSH0 DUP1 REVERT JUMPDEST PUSH2 0xACC DUP3 PUSH2 0x1249 JUMP JUMPDEST PUSH0 DUP1 PUSH1 0x40 DUP4 DUP6 SUB SLT ISZERO PUSH2 0x13B6 JUMPI PUSH0 DUP1 REVERT JUMPDEST DUP3 CALLDATALOAD SWAP2 POP PUSH2 0x13C6 PUSH1 0x20 DUP5 ADD PUSH2 0x1249 JUMP JUMPDEST SWAP1 POP SWAP3 POP SWAP3 SWAP1 POP JUMP JUMPDEST PUSH0 DUP1 PUSH1 0x40 DUP4 DUP6 SUB SLT ISZERO PUSH2 0x13E0 JUMPI PUSH0 DUP1 REVERT JUMPDEST PUSH2 0x13E9 DUP4 PUSH2 0x1249 JUMP JUMPDEST SWAP2 POP PUSH1 0x20 DUP4 ADD CALLDATALOAD DUP1 ISZERO ISZERO DUP2 EQ PUSH2 0x13FD JUMPI PUSH0 DUP1 REVERT JUMPDEST DUP1 SWAP2 POP POP SWAP3 POP SWAP3 SWAP1 POP JUMP JUMPDEST PUSH0 DUP1 PUSH0 DUP1 PUSH1 0x80 DUP6 DUP8 SUB SLT ISZERO PUSH2 0x141B JUMPI PUSH0 DUP1 REVERT JUMPDEST PUSH2 0x1424 DUP6 PUSH2 0x1249 JUMP JUMPDEST SWAP4 POP PUSH2 0x1432 PUSH1 0x20 DUP7 ADD PUSH2 0x1249 JUMP JUMPDEST SWAP3 POP PUSH1 0x40 DUP6 ADD CALLDATALOAD SWAP2 POP PUSH1 0x60 DUP6 ADD CALLDATALOAD PUSH8 0xFFFFFFFFFFFFFFFF DUP2 GT ISZERO PUSH2 0x1454 JUMPI PUSH0 DUP1 REVERT JUMPDEST DUP6 ADD PUSH1 0x1F DUP2 ADD DUP8 SGT PUSH2 0x1464 JUMPI PUSH0 DUP1 REVERT JUMPDEST PUSH2 0x1473 DUP8 DUP3 CALLDATALOAD PUSH1 0x20 DUP5 ADD PUSH2 0x129B JUMP JUMPDEST SWAP2 POP POP SWAP3 SWAP6 SWAP2 SWAP5 POP SWAP3 POP JUMP JUMPDEST PUSH1 0x20 DUP1 DUP3 MSTORE DUP3 MLOAD DUP3 DUP3 ADD DUP2 SWAP1 MSTORE PUSH0 SWAP2 SWAP1 DUP5 DUP3 ADD SWAP1 PUSH1 0x40 DUP6 ADD SWAP1 DUP5 JUMPDEST DUP2 DUP2 LT ISZERO PUSH2 0x14B6 JUMPI DUP4 MLOAD DUP4 MSTORE SWAP3 DUP5 ADD SWAP3 SWAP2 DUP5 ADD SWAP2 PUSH1 0x1 ADD PUSH2 0x149A JUMP JUMPDEST POP SWAP1 SWAP7 SWAP6 POP POP POP POP POP POP JUMP JUMPDEST PUSH0 DUP1 PUSH1 0x40 DUP4 DUP6 SUB SLT ISZERO PUSH2 0x14D3 JUMPI PUSH0 DUP1 REVERT JUMPDEST PUSH2 0x14DC DUP4 PUSH2 0x1249 JUMP JUMPDEST SWAP2 POP PUSH2 0x13C6 PUSH1 0x20 DUP5 ADD PUSH2 0x1249 JUMP JUMPDEST PUSH1 0x1 DUP2 DUP2 SHR SWAP1 DUP3 AND DUP1 PUSH2 0x14FE JUMPI PUSH1 0x7F DUP3 AND SWAP2 POP JUMPDEST PUSH1 0x20 DUP3 LT DUP2 SUB PUSH2 0x151C JUMPI PUSH4 0x4E487B71 PUSH1 0xE0 SHL PUSH0 MSTORE PUSH1 0x22 PUSH1 0x4 MSTORE PUSH1 0x24 PUSH0 REVERT JUMPDEST POP SWAP2 SWAP1 POP JUMP JUMPDEST PUSH1 0x1F DUP3 GT ISZERO PUSH2 0x803 JUMPI PUSH0 DUP2 DUP2 MSTORE PUSH1 0x20 DUP2 KECCAK256 PUSH1 0x1F DUP6 ADD PUSH1 0x5 SHR DUP2 ADD PUSH1 0x20 DUP7 LT ISZERO PUSH2 0x1548 JUMPI POP DUP1 JUMPDEST PUSH1 0x1F DUP6 ADD PUSH1 0x5 SHR DUP3 ADD SWAP2 POP JUMPDEST DUP2 DUP2 LT ISZERO PUSH2 0x1567 JUMPI DUP3 DUP2 SSTORE PUSH1 0x1 ADD PUSH2 0x1554 JUMP JUMPDEST POP POP POP POP POP POP JUMP JUMPDEST DUP2 MLOAD PUSH8 0xFFFFFFFFFFFFFFFF DUP2 GT ISZERO PUSH2 0x1589 JUMPI PUSH2 0x1589 PUSH2 0x1287 JUMP JUMPDEST PUSH2 0x159D DUP2 PUSH2 0x1597 DUP5 SLOAD PUSH2 0x14EA JUMP JUMPDEST DUP5 PUSH2 0x1522 JUMP JUMPDEST PUSH1 0x20 DUP1 PUSH1 0x1F DUP4 GT PUSH1 0x1 DUP2 EQ PUSH2 0x15D0 JUMPI PUSH0 DUP5 ISZERO PUSH2 0x15B9 JUMPI POP DUP6 DUP4 ADD MLOAD JUMPDEST PUSH0 NOT PUSH1 0x3 DUP7 SWAP1 SHL SHR NOT AND PUSH1 0x1 DUP6 SWAP1 SHL OR DUP6 SSTORE PUSH2 0x1567 JUMP JUMPDEST PUSH0 DUP6 DUP2 MSTORE PUSH1 0x20 DUP2 KECCAK256 PUSH1 0x1F NOT DUP7 AND SWAP2 JUMPDEST DUP3 DUP2 LT ISZERO PUSH2 0x15FE JUMPI DUP9 DUP7 ADD MLOAD DUP3 SSTORE SWAP5 DUP5 ADD SWAP5 PUSH1 0x1 SWAP1 SWAP2 ADD SWAP1 DUP5 ADD PUSH2 0x15DF JUMP JUMPDEST POP DUP6 DUP3 LT ISZERO PUSH2 0x161B JUMPI DUP8 DUP6 ADD MLOAD PUSH0 NOT PUSH1 0x3 DUP9 SWAP1 SHL PUSH1 0xF8 AND SHR NOT AND DUP2 SSTORE JUMPDEST POP POP POP POP POP PUSH1 0x1 SWAP1 DUP2 SHL ADD SWAP1 SSTORE POP JUMP JUMPDEST PUSH0 DUP5 MLOAD PUSH1 0x20 PUSH2 0x163D DUP3 DUP6 DUP4 DUP11 ADD PUSH2 0x11D3 JUMP JUMPDEST DUP6 MLOAD SWAP2 DUP5 ADD SWAP2 PUSH2 0x1650 DUP2 DUP5 DUP5 DUP11 ADD PUSH2 0x11D3 JUMP JUMPDEST DUP6 SLOAD SWAP3 ADD SWAP2 PUSH0 SWAP1 PUSH2 0x1660 DUP2 PUSH2 0x14EA JUMP JUMPDEST PUSH1 0x1 DUP3 DUP2 AND DUP1 ISZERO PUSH2 0x1678 JUMPI PUSH1 0x1 DUP2 EQ PUSH2 0x168D JUMPI PUSH2 0x16B6 JUMP JUMPDEST PUSH1 0xFF NOT DUP5 AND DUP8 MSTORE DUP3 ISZERO ISZERO DUP4 MUL DUP8 ADD SWAP5 POP PUSH2 0x16B6 JUMP JUMPDEST DUP10 PUSH0 MSTORE DUP6 PUSH0 KECCAK256 PUSH0 JUMPDEST DUP5 DUP2 LT ISZERO PUSH2 0x16AE JUMPI DUP2 SLOAD DUP10 DUP3 ADD MSTORE SWAP1 DUP4 ADD SWAP1 DUP8 ADD PUSH2 0x1695 JUMP JUMPDEST POP POP DUP3 DUP8 ADD SWAP5 POP JUMPDEST POP SWAP3 SWAP11 SWAP10 POP POP POP POP POP POP POP POP POP POP JUMP JUMPDEST PUSH0 DUP2 PUSH2 0x16E0 JUMPI PUSH4 0x4E487B71 PUSH1 0xE0 SHL PUSH0 MSTORE PUSH1 0x11 PUSH1 0x4 MSTORE PUSH1 0x24 PUSH0 REVERT JUMPDEST POP PUSH0 NOT ADD SWAP1 JUMP JUMPDEST PUSH1 0x1 PUSH1 0x1 PUSH1 0xA0 SHL SUB DUP6 DUP2 AND DUP3 MSTORE DUP5 AND PUSH1 0x20 DUP3 ADD MSTORE PUSH1 0x40 DUP2 ADD DUP4 SWAP1 MSTORE PUSH1 0x80 PUSH1 0x60 DUP3 ADD DUP2 SWAP1 MSTORE PUSH0 SWAP1 PUSH2 0x1719 SWAP1 DUP4 ADD DUP5 PUSH2 0x11F5 JUMP JUMPDEST SWAP7 SWAP6 POP POP POP POP POP POP JUMP JUMPDEST PUSH0 PUSH1 0x20 DUP3 DUP5 SUB SLT ISZERO PUSH2 0x1733 JUMPI PUSH0 DUP1 REVERT JUMPDEST DUP2 MLOAD PUSH2 0xACC DUP2 PUSH2 0x11A3 JUMP INVALID LOG2 PUSH5 0x6970667358 0x22 SLT KECCAK256 MSTORE DUP10 0x1F 0xB3 MSTORE CHAINID 0xDC SWAP16 NOT DUP16 0xFC DUP5 0xBB 0xA9 0x2D PUSH25 0x3FC6107CD3DE3BB1C19A8D8254113B4264736F6C6343000814 STOP CALLER "
		},
		"gasEstimates": {
			"creation": {
				"codeDepositCost": "1200800",
				"executionCost": "infinite",
				"totalCost": "infinite"
			},
			"external": {
				"approve(address,uint256)": "infinite",
				"balanceOf(address)": "2702",
				"baseURI_()": "infinite",
				"checkredeemednftid(address)": "infinite",
				"checkredemmedphysicalitem(uint256,address)": "2675",
				"getApproved(uint256)": "infinite",
				"isApprovedForAll(address,address)": "infinite",
				"mint(address,uint256)": "infinite",
				"name()": "infinite",
				"owner()": "2396",
				"ownerOf(uint256)": "infinite",
				"redeemPhysicalItem(uint256)": "infinite",
				"renounceOwnership()": "infinite",
				"safeTransferFrom(address,address,uint256)": "infinite",
				"safeTransferFrom(address,address,uint256,bytes)": "infinite",
				"setApprovalForAll(address,bool)": "26693",
				"setBaseURI(string)": "infinite",
				"setUriSuffix(string)": "infinite",
				"setapprovedcontractaddress(address)": "26903",
				"supportsInterface(bytes4)": "531",
				"symbol()": "infinite",
				"tokenURI(uint256)": "infinite",
				"totalSupply()": "4528",
				"transferFrom(address,address,uint256)": "infinite",
				"transferOwnership(address)": "28439",
				"uriSuffix()": "infinite"
			},
			"internal": {
				"_afterTokenTransfers(address,address,uint256,uint256)": "infinite",
				"_approve(address,uint256)": "infinite",
				"_approve(address,uint256,bool)": "infinite",
				"_baseURI()": "infinite",
				"_beforeTokenTransfers(address,address,uint256,uint256)": "infinite",
				"_burn(uint256)": "infinite",
				"_burn(uint256,bool)": "infinite",
				"_checkContractOnERC721Received(address,address,uint256,bytes memory)": "infinite",
				"_exists(uint256)": "infinite",
				"_extraData(address,address,uint24)": "infinite",
				"_getApprovedSlotAndAddress(uint256)": "infinite",
				"_getAux(address)": "infinite",
				"_initializeOwnershipAt(uint256)": "infinite",
				"_isSenderApprovedOrOwner(address,address,address)": "infinite",
				"_mint(address,uint256)": "infinite",
				"_mintERC2309(address,uint256)": "infinite",
				"_msgSenderERC721A()": "infinite",
				"_nextExtraData(address,address,uint256)": "infinite",
				"_nextInitializedFlag(uint256)": "infinite",
				"_nextTokenId()": "infinite",
				"_numberBurned(address)": "infinite",
				"_numberMinted(address)": "infinite",
				"_ownershipAt(uint256)": "infinite",
				"_ownershipIsInitialized(uint256)": "infinite",
				"_ownershipOf(uint256)": "infinite",
				"_packOwnershipData(address,uint256)": "infinite",
				"_packedOwnershipOf(uint256)": "infinite",
				"_revert(bytes4)": "17",
				"_safeMint(address,uint256)": "infinite",
				"_safeMint(address,uint256,bytes memory)": "infinite",
				"_setAux(address,uint64)": "infinite",
				"_setExtraDataAt(uint256,uint24)": "infinite",
				"_startTokenId()": "infinite",
				"_toString(uint256)": "infinite",
				"_totalBurned()": "infinite",
				"_totalMinted()": "infinite",
				"_unpackedOwnership(uint256)": "infinite"
			}
		},
		"methodIdentifiers": {
			"approve(address,uint256)": "095ea7b3",
			"balanceOf(address)": "70a08231",
			"baseURI_()": "f259a29e",
			"checkredeemednftid(address)": "bf1e5e9e",
			"checkredemmedphysicalitem(uint256,address)": "8370d004",
			"getApproved(uint256)": "081812fc",
			"isApprovedForAll(address,address)": "e985e9c5",
			"mint(address,uint256)": "40c10f19",
			"name()": "06fdde03",
			"owner()": "8da5cb5b",
			"ownerOf(uint256)": "6352211e",
			"redeemPhysicalItem(uint256)": "dc76668d",
			"renounceOwnership()": "715018a6",
			"safeTransferFrom(address,address,uint256)": "42842e0e",
			"safeTransferFrom(address,address,uint256,bytes)": "b88d4fde",
			"setApprovalForAll(address,bool)": "a22cb465",
			"setBaseURI(string)": "55f804b3",
			"setUriSuffix(string)": "16ba10e0",
			"setapprovedcontractaddress(address)": "b6b285d9",
			"supportsInterface(bytes4)": "01ffc9a7",
			"symbol()": "95d89b41",
			"tokenURI(uint256)": "c87b56dd",
			"totalSupply()": "18160ddd",
			"transferFrom(address,address,uint256)": "23b872dd",
			"transferOwnership(address)": "f2fde38b",
			"uriSuffix()": "5503a0e8"
		}
	},
	"abi": [
		{
			"inputs": [
				{
					"internalType": "string",
					"name": "name_",
					"type": "string"
				},
				{
					"internalType": "string",
					"name": "symbol_",
					"type": "string"
				}
			],
			"stateMutability": "nonpayable",
			"type": "constructor"
		},
		{
			"inputs": [],
			"name": "ApprovalCallerNotOwnerNorApproved",
			"type": "error"
		},
		{
			"inputs": [],
			"name": "ApprovalQueryForNonexistentToken",
			"type": "error"
		},
		{
			"inputs": [],
			"name": "BalanceQueryForZeroAddress",
			"type": "error"
		},
		{
			"inputs": [],
			"name": "MintERC2309QuantityExceedsLimit",
			"type": "error"
		},
		{
			"inputs": [],
			"name": "MintToZeroAddress",
			"type": "error"
		},
		{
			"inputs": [],
			"name": "MintZeroQuantity",
			"type": "error"
		},
		{
			"inputs": [],
			"name": "OwnerQueryForNonexistentToken",
			"type": "error"
		},
		{
			"inputs": [],
			"name": "OwnershipNotInitializedForExtraData",
			"type": "error"
		},
		{
			"inputs": [],
			"name": "TransferCallerNotOwnerNorApproved",
			"type": "error"
		},
		{
			"inputs": [],
			"name": "TransferFromIncorrectOwner",
			"type": "error"
		},
		{
			"inputs": [],
			"name": "TransferToNonERC721ReceiverImplementer",
			"type": "error"
		},
		{
			"inputs": [],
			"name": "TransferToZeroAddress",
			"type": "error"
		},
		{
			"inputs": [],
			"name": "URIQueryForNonexistentToken",
			"type": "error"
		},
		{
			"anonymous": false,
			"inputs": [
				{
					"indexed": true,
					"internalType": "address",
					"name": "owner",
					"type": "address"
				},
				{
					"indexed": true,
					"internalType": "address",
					"name": "approved",
					"type": "address"
				},
				{
					"indexed": true,
					"internalType": "uint256",
					"name": "tokenId",
					"type": "uint256"
				}
			],
			"name": "Approval",
			"type": "event"
		},
		{
			"anonymous": false,
			"inputs": [
				{
					"indexed": true,
					"internalType": "address",
					"name": "owner",
					"type": "address"
				},
				{
					"indexed": true,
					"internalType": "address",
					"name": "operator",
					"type": "address"
				},
				{
					"indexed": false,
					"internalType": "bool",
					"name": "approved",
					"type": "bool"
				}
			],
			"name": "ApprovalForAll",
			"type": "event"
		},
		{
			"anonymous": false,
			"inputs": [
				{
					"indexed": true,
					"internalType": "uint256",
					"name": "fromTokenId",
					"type": "uint256"
				},
				{
					"indexed": false,
					"internalType": "uint256",
					"name": "toTokenId",
					"type": "uint256"
				},
				{
					"indexed": true,
					"internalType": "address",
					"name": "from",
					"type": "address"
				},
				{
					"indexed": true,
					"internalType": "address",
					"name": "to",
					"type": "address"
				}
			],
			"name": "ConsecutiveTransfer",
			"type": "event"
		},
		{
			"anonymous": false,
			"inputs": [
				{
					"indexed": true,
					"internalType": "address",
					"name": "previousOwner",
					"type": "address"
				},
				{
					"indexed": true,
					"internalType": "address",
					"name": "newOwner",
					"type": "address"
				}
			],
			"name": "OwnershipTransferred",
			"type": "event"
		},
		{
			"anonymous": false,
			"inputs": [
				{
					"indexed": true,
					"internalType": "address",
					"name": "from",
					"type": "address"
				},
				{
					"indexed": true,
					"internalType": "address",
					"name": "to",
					"type": "address"
				},
				{
					"indexed": true,
					"internalType": "uint256",
					"name": "tokenId",
					"type": "uint256"
				}
			],
			"name": "Transfer",
			"type": "event"
		},
		{
			"inputs": [
				{
					"internalType": "address",
					"name": "to",
					"type": "address"
				},
				{
					"internalType": "uint256",
					"name": "tokenId",
					"type": "uint256"
				}
			],
			"name": "approve",
			"outputs": [],
			"stateMutability": "payable",
			"type": "function"
		},
		{
			"inputs": [
				{
					"internalType": "address",
					"name": "owner",
					"type": "address"
				}
			],
			"name": "balanceOf",
			"outputs": [
				{
					"internalType": "uint256",
					"name": "",
					"type": "uint256"
				}
			],
			"stateMutability": "view",
			"type": "function"
		},
		{
			"inputs": [],
			"name": "baseURI_",
			"outputs": [
				{
					"internalType": "string",
					"name": "",
					"type": "string"
				}
			],
			"stateMutability": "view",
			"type": "function"
		},
		{
			"inputs": [
				{
					"internalType": "address",
					"name": "add",
					"type": "address"
				}
			],
			"name": "checkredeemednftid",
			"outputs": [
				{
					"internalType": "uint256[]",
					"name": "",
					"type": "uint256[]"
				}
			],
			"stateMutability": "view",
			"type": "function"
		},
		{
			"inputs": [
				{
					"internalType": "uint256",
					"name": "nftId",
					"type": "uint256"
				},
				{
					"internalType": "address",
					"name": "add",
					"type": "address"
				}
			],
			"name": "checkredemmedphysicalitem",
			"outputs": [
				{
					"internalType": "bool",
					"name": "",
					"type": "bool"
				}
			],
			"stateMutability": "view",
			"type": "function"
		},
		{
			"inputs": [
				{
					"internalType": "uint256",
					"name": "tokenId",
					"type": "uint256"
				}
			],
			"name": "getApproved",
			"outputs": [
				{
					"internalType": "address",
					"name": "",
					"type": "address"
				}
			],
			"stateMutability": "view",
			"type": "function"
		},
		{
			"inputs": [
				{
					"internalType": "address",
					"name": "owner",
					"type": "address"
				},
				{
					"internalType": "address",
					"name": "operator",
					"type": "address"
				}
			],
			"name": "isApprovedForAll",
			"outputs": [
				{
					"internalType": "bool",
					"name": "",
					"type": "bool"
				}
			],
			"stateMutability": "view",
			"type": "function"
		},
		{
			"inputs": [
				{
					"internalType": "address",
					"name": "_to",
					"type": "address"
				},
				{
					"internalType": "uint256",
					"name": "amount",
					"type": "uint256"
				}
			],
			"name": "mint",
			"outputs": [],
			"stateMutability": "nonpayable",
			"type": "function"
		},
		{
			"inputs": [],
			"name": "name",
			"outputs": [
				{
					"internalType": "string",
					"name": "",
					"type": "string"
				}
			],
			"stateMutability": "view",
			"type": "function"
		},
		{
			"inputs": [],
			"name": "owner",
			"outputs": [
				{
					"internalType": "address",
					"name": "",
					"type": "address"
				}
			],
			"stateMutability": "view",
			"type": "function"
		},
		{
			"inputs": [
				{
					"internalType": "uint256",
					"name": "tokenId",
					"type": "uint256"
				}
			],
			"name": "ownerOf",
			"outputs": [
				{
					"internalType": "address",
					"name": "",
					"type": "address"
				}
			],
			"stateMutability": "view",
			"type": "function"
		},
		{
			"inputs": [
				{
					"internalType": "uint256",
					"name": "nftId",
					"type": "uint256"
				}
			],
			"name": "redeemPhysicalItem",
			"outputs": [],
			"stateMutability": "nonpayable",
			"type": "function"
		},
		{
			"inputs": [],
			"name": "renounceOwnership",
			"outputs": [],
			"stateMutability": "nonpayable",
			"type": "function"
		},
		{
			"inputs": [
				{
					"internalType": "address",
					"name": "from",
					"type": "address"
				},
				{
					"internalType": "address",
					"name": "to",
					"type": "address"
				},
				{
					"internalType": "uint256",
					"name": "tokenId",
					"type": "uint256"
				}
			],
			"name": "safeTransferFrom",
			"outputs": [],
			"stateMutability": "payable",
			"type": "function"
		},
		{
			"inputs": [
				{
					"internalType": "address",
					"name": "from",
					"type": "address"
				},
				{
					"internalType": "address",
					"name": "to",
					"type": "address"
				},
				{
					"internalType": "uint256",
					"name": "tokenId",
					"type": "uint256"
				},
				{
					"internalType": "bytes",
					"name": "_data",
					"type": "bytes"
				}
			],
			"name": "safeTransferFrom",
			"outputs": [],
			"stateMutability": "payable",
			"type": "function"
		},
		{
			"inputs": [
				{
					"internalType": "address",
					"name": "operator",
					"type": "address"
				},
				{
					"internalType": "bool",
					"name": "approved",
					"type": "bool"
				}
			],
			"name": "setApprovalForAll",
			"outputs": [],
			"stateMutability": "nonpayable",
			"type": "function"
		},
		{
			"inputs": [
				{
					"internalType": "string",
					"name": "_newBaseURI",
					"type": "string"
				}
			],
			"name": "setBaseURI",
			"outputs": [],
			"stateMutability": "nonpayable",
			"type": "function"
		},
		{
			"inputs": [
				{
					"internalType": "string",
					"name": "_uriSuffix",
					"type": "string"
				}
			],
			"name": "setUriSuffix",
			"outputs": [],
			"stateMutability": "nonpayable",
			"type": "function"
		},
		{
			"inputs": [
				{
					"internalType": "address",
					"name": "add",
					"type": "address"
				}
			],
			"name": "setapprovedcontractaddress",
			"outputs": [],
			"stateMutability": "nonpayable",
			"type": "function"
		},
		{
			"inputs": [
				{
					"internalType": "bytes4",
					"name": "interfaceId",
					"type": "bytes4"
				}
			],
			"name": "supportsInterface",
			"outputs": [
				{
					"internalType": "bool",
					"name": "",
					"type": "bool"
				}
			],
			"stateMutability": "view",
			"type": "function"
		},
		{
			"inputs": [],
			"name": "symbol",
			"outputs": [
				{
					"internalType": "string",
					"name": "",
					"type": "string"
				}
			],
			"stateMutability": "view",
			"type": "function"
		},
		{
			"inputs": [
				{
					"internalType": "uint256",
					"name": "tokenId",
					"type": "uint256"
				}
			],
			"name": "tokenURI",
			"outputs": [
				{
					"internalType": "string",
					"name": "",
					"type": "string"
				}
			],
			"stateMutability": "view",
			"type": "function"
		},
		{
			"inputs": [],
			"name": "totalSupply",
			"outputs": [
				{
					"internalType": "uint256",
					"name": "",
					"type": "uint256"
				}
			],
			"stateMutability": "view",
			"type": "function"
		},
		{
			"inputs": [
				{
					"internalType": "address",
					"name": "from",
					"type": "address"
				},
				{
					"internalType": "address",
					"name": "to",
					"type": "address"
				},
				{
					"internalType": "uint256",
					"name": "tokenId",
					"type": "uint256"
				}
			],
			"name": "transferFrom",
			"outputs": [],
			"stateMutability": "payable",
			"type": "function"
		},
		{
			"inputs": [
				{
					"internalType": "address",
					"name": "newOwner",
					"type": "address"
				}
			],
			"name": "transferOwnership",
			"outputs": [],
			"stateMutability": "nonpayable",
			"type": "function"
		},
		{
			"inputs": [],
			"name": "uriSuffix",
			"outputs": [
				{
					"internalType": "string",
					"name": "",
					"type": "string"
				}
			],
			"stateMutability": "view",
			"type": "function"
		}
	]
}